{"hex":"01000000e9a1c25b010000000000000000000000000000000000000000000000000000000000000000ffffffff0401470102ffffffff0100000000000000001976a91487355608da2e081d1851abc29dad2eb40284d0d288ac00000000","txid":"6d8be4b8ff7583e368b77f09683768ab304d03a40c863631007ec0c237dfe895","version":1,"time":1539482092,"locktime":0,"vin":[{"coinbase":"01470102","sequence":4294967295}],"vout":[{"value":0,"n":0,"scriptPubKey":{"asm":"OP_DUP OP_HASH160 87355608da2e081d1851abc29dad2eb40284d0d2 OP_EQUALVERIFY OP_CHECKSIG","reqSigs":1,"type":"pubkeyhash","addresses":["pHsVKTWmnYHAmn2FspsdBvBc3pfZzkxMEs"]}}],"blockhash":"0000024ea89851aa96f49075f1ee6fcd79df9e299989e15fb477852723fa6a78","confirmations":374,"blocktime":1539482092}