{"hex":"01000000a0d0dc5b012abd27b9506dedd225289a768b495650211262ec324cb89453b206f1d89980090200000048473044022071239b75a5855ca59b386c062c4011a1c901c6a1d2e081cbeba12b3d83615e1202201f65d58bf6cf847d96bdeb96948785ed0f80af5ebeea86092eca3b59b8522eda01ffffffff04000000000000000000c0780cd20100000023210348b24f77eda58d2bf0bd56f764cfdeb0100d2f1058b2d5318f2f2fc9670e730eac2ef61bd20100000023210348b24f77eda58d2bf0bd56f764cfdeb0100d2f1058b2d5318f2f2fc9670e730eac084c0100000000001976a914239bf4dba7e2193b7f701a7b68d0e94c85d85fac88ac00000000","txid":"88e1ac9c6af82d4af64f2b4bd49a0e316909367bcd72a630d9854fb03f5fa17a","version":1,"time":1541197984,"locktime":0,"vin":[{"txid":"098099d8f106b25394b84c32ec6212215056498b769a2825d2ed6d50b927bd2a","vout":2,"scriptSig":{"asm":"3044022071239b75a5855ca59b386c062c4011a1c901c6a1d2e081cbeba12b3d83615e1202201f65d58bf6cf847d96bdeb96948785ed0f80af5ebeea86092eca3b59b8522eda01","hex":"473044022071239b75a5855ca59b386c062c4011a1c901c6a1d2e081cbeba12b3d83615e1202201f65d58bf6cf847d96bdeb96948785ed0f80af5ebeea86092eca3b59b8522eda01"},"sequence":4294967295}],"vout":[{"value":0,"n":0,"scriptPubKey":{"asm":"","type":"nonstandard"}},{"value":78.19,"n":1,"scriptPubKey":{"asm":"0348b24f77eda58d2bf0bd56f764cfdeb0100d2f1058b2d5318f2f2fc9670e730e OP_CHECKSIG","reqSigs":1,"type":"pubkey","addresses":["p8X7huKtvdnnDzc17Xcxxh1Z9ww8ckxvVJ"]}},{"value":78.2001515,"n":2,"scriptPubKey":{"asm":"0348b24f77eda58d2bf0bd56f764cfdeb0100d2f1058b2d5318f2f2fc9670e730e OP_CHECKSIG","reqSigs":1,"type":"pubkey","addresses":["p8X7huKtvdnnDzc17Xcxxh1Z9ww8ckxvVJ"]}},{"value":0.00085,"n":3,"scriptPubKey":{"asm":"OP_DUP OP_HASH160 239bf4dba7e2193b7f701a7b68d0e94c85d85fac OP_EQUALVERIFY OP_CHECKSIG","reqSigs":1,"type":"pubkeyhash","addresses":["p8nrgTxTfKDC3hvmSmFxDcxpYguUCo8yWb"]}}],"blockhash":"650c952965dd00a39cf2ab762408e4d91f6beb72640214d1aab56d4375936b5f","confirmations":52,"blocktime":1541197984}