{"hex":"0100000094d0dc5b01b21ea222b9a7d4b53326fac8f4e2326dc66fe803d638e3b28a19418bc102a5f3010000006a473044022001e12682dd9d03038494876881f9b817e5877ea861b204c14fe3495859b48df00220364ab378498626dd2ec98a431c27d226d744e22ee44a14ba9c84e98f659ee553012103da0d097dfd3a18a513858b0a8e33151aef4b4fff628807eb0a94b69101064bc1ffffffff02e00f9700000000001976a914404ca1dcadc50334ddc09b109f15220b1bab9e5a88ac00e1f505000000001976a91426af6c51481e9ada0d013b273d51e5cdaafd880e88ac00000000","txid":"d352063b2898adaa5e46031f6ba2467a3bfa3bd2534c5d05865d2ce0ccdc6577","version":1,"time":1541197984,"locktime":0,"vin":[{"txid":"f3a502c18b41198ab2e338d603e86fc66d32e2f4c8fa2633b5d4a7b922a21eb2","vout":1,"scriptSig":{"asm":"3044022001e12682dd9d03038494876881f9b817e5877ea861b204c14fe3495859b48df00220364ab378498626dd2ec98a431c27d226d744e22ee44a14ba9c84e98f659ee55301 03da0d097dfd3a18a513858b0a8e33151aef4b4fff628807eb0a94b69101064bc1","hex":"473044022001e12682dd9d03038494876881f9b817e5877ea861b204c14fe3495859b48df00220364ab378498626dd2ec98a431c27d226d744e22ee44a14ba9c84e98f659ee553012103da0d097dfd3a18a513858b0a8e33151aef4b4fff628807eb0a94b69101064bc1"},"sequence":4294967295}],"vout":[{"value":0.099,"n":0,"scriptPubKey":{"asm":"OP_DUP OP_HASH160 404ca1dcadc50334ddc09b109f15220b1bab9e5a OP_EQUALVERIFY OP_CHECKSIG","reqSigs":1,"type":"pubkeyhash","addresses":["pBQZFVAWhjmxiNXVLGkaTFc6x3pryVGhjj"]}},{"value":1,"n":1,"scriptPubKey":{"asm":"OP_DUP OP_HASH160 26af6c51481e9ada0d013b273d51e5cdaafd880e OP_EQUALVERIFY OP_CHECKSIG","reqSigs":1,"type":"pubkeyhash","addresses":["p9582c9dar1FHh48iVJ8pZsmN8uwBkXh4U"]}}],"blockhash":"650c952965dd00a39cf2ab762408e4d91f6beb72640214d1aab56d4375936b5f","confirmations":52,"blocktime":1541197984}