{"hex":"01000000d208db5b015e0786ad98fafc46c930e95e26961fbe12e46278ea1f02e5196ecf3397eb06d6010000006a47304402204a81d4ad7c9e872335218432945352b25eed087890308283ac116c5accb9560b0220573538ca931c162e77465d0b15fd466a3ff45c9ee2af01ec22e995ea485a3a990121035b2268bb8323ab76682dba53de41987f83f470970050347163d1cb6055ab87c3ffffffff02027f8800000000001976a914ec878bac23ad242ec6b5df8d01cac9618ba7f83f88ac61131000000000001976a914c430720931888c9507ce84046f97e4c3507fa81988ac00000000","txid":"17b43b70a76c301869ed5b6d08d7a610f66037d0d62b7e71fc2f67104946cfe9","version":1,"time":1541081312,"locktime":0,"vin":[{"txid":"d606eb9733cf6e19e5021fea7862e412be1f96265ee930c946fcfa98ad86075e","vout":1,"scriptSig":{"asm":"304402204a81d4ad7c9e872335218432945352b25eed087890308283ac116c5accb9560b0220573538ca931c162e77465d0b15fd466a3ff45c9ee2af01ec22e995ea485a3a9901 035b2268bb8323ab76682dba53de41987f83f470970050347163d1cb6055ab87c3","hex":"47304402204a81d4ad7c9e872335218432945352b25eed087890308283ac116c5accb9560b0220573538ca931c162e77465d0b15fd466a3ff45c9ee2af01ec22e995ea485a3a990121035b2268bb8323ab76682dba53de41987f83f470970050347163d1cb6055ab87c3"},"sequence":4294967295}],"vout":[{"value":0.0894541,"n":0,"scriptPubKey":{"asm":"OP_DUP OP_HASH160 ec878bac23ad242ec6b5df8d01cac9618ba7f83f OP_EQUALVERIFY OP_CHECKSIG","reqSigs":1,"type":"pubkeyhash","addresses":["pT7E3rHfew5HbfhkzWtPDgxjtiLjQsfgAB"]}},{"value":0.01053537,"n":1,"scriptPubKey":{"asm":"OP_DUP OP_HASH160 c430720931888c9507ce84046f97e4c3507fa819 OP_EQUALVERIFY OP_CHECKSIG","reqSigs":1,"type":"pubkeyhash","addresses":["pPRvgMT1vtLVQyAfqCLwZC288barLV3Ry5"]}}],"blockhash":"808cd2d4c6c40fafa6bd047f7cdfc3d135f74ba3ab52046d3e0274c4926b9049","confirmations":112,"blocktime":1541081312}