{"hex":"01000000e008db5b01c8482308dd9f2ddd40b5c0d4bc098b727d3325918c85998fedcc8befa143413302000000484730440220077dc3d7c616b43023601476ab6e5168f71d62236362b944d3e14fa0a7dbde380220717337bda0a788a8bf5b91778ea4bef6b288bfb5c3a1fa79b52ef686158f619201ffffffff04000000000000000000805e1348070000002321028d9be6ae35cf9126d1ddd81f7e9a33d77e64d908c42bf417d6424ba1da9106a6ac1e5f1348070000002321028d9be6ae35cf9126d1ddd81f7e9a33d77e64d908c42bf417d6424ba1da9106a6ac7f030000000000001976a914f644d7bb2dad64400ad72ff27a1b98cf981fdd7e88ac00000000","txid":"1df52647efdacab9bbb1885f990de2d7e0d295d5047c6f1a4b6cd9a5b0643241","version":1,"time":1541081312,"locktime":0,"vin":[{"txid":"334143a1ef8bcced8f99858c9125337d728b09bcd4c0b540dd2d9fdd082348c8","vout":2,"scriptSig":{"asm":"30440220077dc3d7c616b43023601476ab6e5168f71d62236362b944d3e14fa0a7dbde380220717337bda0a788a8bf5b91778ea4bef6b288bfb5c3a1fa79b52ef686158f619201","hex":"4730440220077dc3d7c616b43023601476ab6e5168f71d62236362b944d3e14fa0a7dbde380220717337bda0a788a8bf5b91778ea4bef6b288bfb5c3a1fa79b52ef686158f619201"},"sequence":4294967295}],"vout":[{"value":0,"n":0,"scriptPubKey":{"asm":"","type":"nonstandard"}},{"value":312.74,"n":1,"scriptPubKey":{"asm":"028d9be6ae35cf9126d1ddd81f7e9a33d77e64d908c42bf417d6424ba1da9106a6 OP_CHECKSIG","reqSigs":1,"type":"pubkey","addresses":["pG17eAwgEzq6zQQ7cLzvCMepRqGYMprwdz"]}},{"value":312.74000158,"n":2,"scriptPubKey":{"asm":"028d9be6ae35cf9126d1ddd81f7e9a33d77e64d908c42bf417d6424ba1da9106a6 OP_CHECKSIG","reqSigs":1,"type":"pubkey","addresses":["pG17eAwgEzq6zQQ7cLzvCMepRqGYMprwdz"]}},{"value":0.00000895,"n":3,"scriptPubKey":{"asm":"OP_DUP OP_HASH160 f644d7bb2dad64400ad72ff27a1b98cf981fdd7e OP_EQUALVERIFY OP_CHECKSIG","reqSigs":1,"type":"pubkeyhash","addresses":["pTziuAqinUjYFVy6Da9fmDBWUTdPjXTj23"]}}],"blockhash":"808cd2d4c6c40fafa6bd047f7cdfc3d135f74ba3ab52046d3e0274c4926b9049","confirmations":112,"blocktime":1541081312}