{"hex":"01000000f1a1c25b010000000000000000000000000000000000000000000000000000000000000000ffffffff0401480102ffffffff0100000000000000001976a9147ba3caf033ef8500a863be7a0667d28c89c77cdd88ac00000000","txid":"8eb84eb1875c8bfc1d6d54d44c8212fe672e6fb8fea809e32bf2d68a988112a3","version":1,"time":1539482100,"locktime":0,"vin":[{"coinbase":"01480102","sequence":4294967295}],"vout":[{"value":0,"n":0,"scriptPubKey":{"asm":"OP_DUP OP_HASH160 7ba3caf033ef8500a863be7a0667d28c89c77cdd OP_EQUALVERIFY OP_CHECKSIG","reqSigs":1,"type":"pubkeyhash","addresses":["pGpKXpT7BBXHpQBZfTXLEMPKsBLXCQ4oVo"]}}],"blockhash":"00000d35618fc307f50a2966e1dbff7fe9d47b60ed3892e51c0637e5e85baba7","confirmations":373,"blocktime":1539482100}