{"hex":"01000000d588dc5b014985987c04f09c0b32ea8c723c489ea60f6b03baae3d1cf64f28fa6eefa82c7d000000006b483045022100dbcb8911824012e35a9894d423cdd022b453186efe1c99819250e17a71796ab002201afb37f0077e1fc71c7f46ef1f79ac9fae35787da73834775841eddde8bdcc6a01210367a69d3b4e251e3cc7df7d4fc89f7031400f8a169ef3dc8e8215103e0d7a410bffffffff0212811000000000001976a914c8f867c727fde0be21c67ec39fbcca17029877d888acd35f0100000000001976a914d54e5332c9eb01ed6e8f17e936e69f3df4f6bb0188ac00000000","txid":"95430ecce2109e416fe6cfe4f67393d5e338a043e305a4db1dcdefa1029f5a92","version":1,"time":1541179616,"locktime":0,"vin":[{"txid":"7d2ca8ef6efa284ff61c3daeba036b0fa69e483c728cea320b9cf0047c988549","vout":0,"scriptSig":{"asm":"3045022100dbcb8911824012e35a9894d423cdd022b453186efe1c99819250e17a71796ab002201afb37f0077e1fc71c7f46ef1f79ac9fae35787da73834775841eddde8bdcc6a01 0367a69d3b4e251e3cc7df7d4fc89f7031400f8a169ef3dc8e8215103e0d7a410b","hex":"483045022100dbcb8911824012e35a9894d423cdd022b453186efe1c99819250e17a71796ab002201afb37f0077e1fc71c7f46ef1f79ac9fae35787da73834775841eddde8bdcc6a01210367a69d3b4e251e3cc7df7d4fc89f7031400f8a169ef3dc8e8215103e0d7a410b"},"sequence":4294967295}],"vout":[{"value":0.01081618,"n":0,"scriptPubKey":{"asm":"OP_DUP OP_HASH160 c8f867c727fde0be21c67ec39fbcca17029877d8 OP_EQUALVERIFY OP_CHECKSIG","reqSigs":1,"type":"pubkeyhash","addresses":["pPsCvac2YHeqo24rrLfZSCsnjaestgTW1B"]}},{"value":0.00090067,"n":1,"scriptPubKey":{"asm":"OP_DUP OP_HASH160 d54e5332c9eb01ed6e8f17e936e69f3df4f6bb01 OP_EQUALVERIFY OP_CHECKSIG","reqSigs":1,"type":"pubkeyhash","addresses":["pQzRxgUU8bZT56kDmEBwNNoosNDVEsKTC3"]}}],"blockhash":"6d80eadebe6ada4a69010bcc70482ec47cc9cdbc060c2daadbda91c3a712ac05","confirmations":66,"blocktime":1541179616}