{"hex":"01000000e088dc5b013fb842136986c51b1f01f104f38a35a413c8faabd72c598dbb8328680410ab2b010000006a47304402202f8eb3e24be624badfe3c87a392c5a8d6c635ecace78c7d751cdb08a9c37708802204c55abe6a41c1cc998b7097b5385e2be95641d13c9d268c9458753e688df19b9012102f294e899060a5f2dfa1f2ab1c62a6a3683219d513c328d4887fa998a0be4a672ffffffff04000000000000000000004429353a000000232102f294e899060a5f2dfa1f2ab1c62a6a3683219d513c328d4887fa998a0be4a672ac0f4429353a000000232102f294e899060a5f2dfa1f2ab1c62a6a3683219d513c328d4887fa998a0be4a672ac55000000000000001976a914239bf4dba7e2193b7f701a7b68d0e94c85d85fac88ac00000000","txid":"d116152239e947bc0d8fb5fbb65e28976e708e15d0536eb7a80769d6352957db","version":1,"time":1541179616,"locktime":0,"vin":[{"txid":"2bab1004682883bb8d592cd7abfac813a4358af304f1011f1bc586691342b83f","vout":1,"scriptSig":{"asm":"304402202f8eb3e24be624badfe3c87a392c5a8d6c635ecace78c7d751cdb08a9c37708802204c55abe6a41c1cc998b7097b5385e2be95641d13c9d268c9458753e688df19b901 02f294e899060a5f2dfa1f2ab1c62a6a3683219d513c328d4887fa998a0be4a672","hex":"47304402202f8eb3e24be624badfe3c87a392c5a8d6c635ecace78c7d751cdb08a9c37708802204c55abe6a41c1cc998b7097b5385e2be95641d13c9d268c9458753e688df19b9012102f294e899060a5f2dfa1f2ab1c62a6a3683219d513c328d4887fa998a0be4a672"},"sequence":4294967295}],"vout":[{"value":0,"n":0,"scriptPubKey":{"asm":"","type":"nonstandard"}},{"value":2500,"n":1,"scriptPubKey":{"asm":"02f294e899060a5f2dfa1f2ab1c62a6a3683219d513c328d4887fa998a0be4a672 OP_CHECKSIG","reqSigs":1,"type":"pubkey","addresses":["p63XGeVRkcywXEQJE5bkXjJFiugf8tT1er"]}},{"value":2500.00000015,"n":2,"scriptPubKey":{"asm":"02f294e899060a5f2dfa1f2ab1c62a6a3683219d513c328d4887fa998a0be4a672 OP_CHECKSIG","reqSigs":1,"type":"pubkey","addresses":["p63XGeVRkcywXEQJE5bkXjJFiugf8tT1er"]}},{"value":8.5e-7,"n":3,"scriptPubKey":{"asm":"OP_DUP OP_HASH160 239bf4dba7e2193b7f701a7b68d0e94c85d85fac OP_EQUALVERIFY OP_CHECKSIG","reqSigs":1,"type":"pubkeyhash","addresses":["p8nrgTxTfKDC3hvmSmFxDcxpYguUCo8yWb"]}}],"blockhash":"6d80eadebe6ada4a69010bcc70482ec47cc9cdbc060c2daadbda91c3a712ac05","confirmations":66,"blocktime":1541179616}