{"hex":"0100000026bed65b01cba929cef34f064ccdbefc39bf14e96a7de2327b959cdbad204db1c656feee37000000006a47304402203c1fdfc1e3e91ed6d25204f85730c11009fe0dd86f1d1583b121e9c93309dd0b02204bece457c74ab2b19cbcf8e6e4b5362f3944e1fd4cb426e409bc35f9251c185a012103ee4c7ad02d59d16c280d138c12e2ae955925adc9a32dc4b435436c3c82d16b90ffffffff02b036ac0d000000001976a91456775c92d736ec36c8c11dc9d66adb101b6d25a688ac00c2eb0b000000001976a914ca0b9c52c700894a6661ee461c94bfeb54c305cb88ac00000000","txid":"8d7836723800e708ee3a8b0686f5362a1c255940454cccdb247a22cb730feb30","version":1,"time":1540800048,"locktime":0,"vin":[{"txid":"37eefe56c6b14d20addb9c957b32e27d6ae914bf39fcbecd4c064ff3ce29a9cb","vout":0,"scriptSig":{"asm":"304402203c1fdfc1e3e91ed6d25204f85730c11009fe0dd86f1d1583b121e9c93309dd0b02204bece457c74ab2b19cbcf8e6e4b5362f3944e1fd4cb426e409bc35f9251c185a01 03ee4c7ad02d59d16c280d138c12e2ae955925adc9a32dc4b435436c3c82d16b90","hex":"47304402203c1fdfc1e3e91ed6d25204f85730c11009fe0dd86f1d1583b121e9c93309dd0b02204bece457c74ab2b19cbcf8e6e4b5362f3944e1fd4cb426e409bc35f9251c185a012103ee4c7ad02d59d16c280d138c12e2ae955925adc9a32dc4b435436c3c82d16b90"},"sequence":4294967295}],"vout":[{"value":2.2939,"n":0,"scriptPubKey":{"asm":"OP_DUP OP_HASH160 56775c92d736ec36c8c11dc9d66adb101b6d25a6 OP_EQUALVERIFY OP_CHECKSIG","reqSigs":1,"type":"pubkeyhash","addresses":["pDRmJbNUXpYtGnEkg7vFqHAq92Gc5pQ4Xt"]}},{"value":2,"n":1,"scriptPubKey":{"asm":"OP_DUP OP_HASH160 ca0b9c52c700894a6661ee461c94bfeb54c305cb OP_EQUALVERIFY OP_CHECKSIG","reqSigs":1,"type":"pubkeyhash","addresses":["pPxtcBCE1tycUb36teemJYsmMynrU4FBp6"]}}],"blockhash":"0e4ffc0ee7795fbe7ab1a9d75d543038289fc6c3953c42e2f008d565e94b8e34","confirmations":226,"blocktime":1540800048}