{"hex":"0100000030bed65b018023ae6b3329220e7a1f6c4435c84decd5d5a39fa958a0a6f811ec3806f77b28020000004847304402203c5da34b66e8c816bafc3869da5c2959a63d4b08a34de32ec6cfe697f874716b0220492206fd773d9f4b339394bbcd76d9f0d7d5235234a3188d819289456e47a97801ffffffff03000000000000000000a16ab1d1010000002321020b1cd26fc4b9f080aea1cf7b667efd5e8453f70429056589831fa7f63506ddbfac10980200000000001976a9141992ad5700ade9422585b3e7af7cd994d29d4ca888ac00000000","txid":"ac096e201cbf695874b1276b816586c0b1d3f30e8576fdf68a18fe80d0d6a910","version":1,"time":1540800048,"locktime":0,"vin":[{"txid":"287bf70638ec11f8a6a058a99fa3d5d5ec4dc835446c1f7a0e2229336bae2380","vout":2,"scriptSig":{"asm":"304402203c5da34b66e8c816bafc3869da5c2959a63d4b08a34de32ec6cfe697f874716b0220492206fd773d9f4b339394bbcd76d9f0d7d5235234a3188d819289456e47a97801","hex":"47304402203c5da34b66e8c816bafc3869da5c2959a63d4b08a34de32ec6cfe697f874716b0220492206fd773d9f4b339394bbcd76d9f0d7d5235234a3188d819289456e47a97801"},"sequence":4294967295}],"vout":[{"value":0,"n":0,"scriptPubKey":{"asm":"","type":"nonstandard"}},{"value":78.13032609,"n":1,"scriptPubKey":{"asm":"020b1cd26fc4b9f080aea1cf7b667efd5e8453f70429056589831fa7f63506ddbf OP_CHECKSIG","reqSigs":1,"type":"pubkey","addresses":["pECTDpfW4nW8hYte3f3F9ZQxwgWmBwmcYL"]}},{"value":0.0017,"n":2,"scriptPubKey":{"asm":"OP_DUP OP_HASH160 1992ad5700ade9422585b3e7af7cd994d29d4ca8 OP_EQUALVERIFY OP_CHECKSIG","reqSigs":1,"type":"pubkeyhash","addresses":["p7snoofvhm9cmcDcAmpbzCVHFFEt2fdccj"]}}],"blockhash":"0e4ffc0ee7795fbe7ab1a9d75d543038289fc6c3953c42e2f008d565e94b8e34","confirmations":226,"blocktime":1540800048}