{"hex":"010000002872d75b01e54fbbcdc5aef20cb77456afada1f1f73d40e0f8cf6f76a648949478843986fe000000006b48304502210088ed87ef129b1521814237482f29bc2c87db85e62c9bbc1441f90a3a41eb036e0220253c31dd94ca32d8c1aad87f642bcb8f5ba08a9a68f6dc9189e2ec9e62073dbb0121037eb9b1630a7007360801b78388c241d1e50d15b60fc8bec8c366af8a8cae1d26ffffffff0246e63a01000000001976a914197494a7eb2bd6e29641fc4b45d21c443722fb5388acd15b7b02000000001976a914b3557eface7caaada438c7191e96d23398ead2ca88ac00000000","txid":"6deda428c976b101a9549bdee08313c89f0e27ceb34f5f077453a76659f8c10f","version":1,"time":1540846128,"locktime":0,"vin":[{"txid":"fe86398478949448a6766fcff8e0403df7f1a1adaf5674b70cf2aec5cdbb4fe5","vout":0,"scriptSig":{"asm":"304502210088ed87ef129b1521814237482f29bc2c87db85e62c9bbc1441f90a3a41eb036e0220253c31dd94ca32d8c1aad87f642bcb8f5ba08a9a68f6dc9189e2ec9e62073dbb01 037eb9b1630a7007360801b78388c241d1e50d15b60fc8bec8c366af8a8cae1d26","hex":"48304502210088ed87ef129b1521814237482f29bc2c87db85e62c9bbc1441f90a3a41eb036e0220253c31dd94ca32d8c1aad87f642bcb8f5ba08a9a68f6dc9189e2ec9e62073dbb0121037eb9b1630a7007360801b78388c241d1e50d15b60fc8bec8c366af8a8cae1d26"},"sequence":4294967295}],"vout":[{"value":0.20637254,"n":0,"scriptPubKey":{"asm":"OP_DUP OP_HASH160 197494a7eb2bd6e29641fc4b45d21c443722fb53 OP_EQUALVERIFY OP_CHECKSIG","reqSigs":1,"type":"pubkeyhash","addresses":["p7sAkfnKU9XCy8HfSeb4tbUuu1PnnTPVEc"]}},{"value":0.41638865,"n":1,"scriptPubKey":{"asm":"OP_DUP OP_HASH160 b3557eface7caaada438c7191e96d23398ead2ca OP_EQUALVERIFY OP_CHECKSIG","reqSigs":1,"type":"pubkeyhash","addresses":["pMtoaQkuZ5HpvHWMzBU9bp4qoojAqj5exu"]}}],"blockhash":"d84a632591f66eb1ed9f4342866ab78534e056050b2d8c301b74c598049cb67f","confirmations":170,"blocktime":1540846128}