{"hex":"010000003072d75b01dc5e058554bb1f576cd7c5f4b677e28f5ae65b5d118b8ce9e4ac9a6637854602010000004847304402203de5f7c35e09d17cb4304fec98e8c91a37f9b88f22e75a3e3ed3075f6e4bdb1d0220267dd071f55b4ae9864b54092e3b34332f259e46c9472b738f6997e14624ffc101ffffffff0300000000000000000066c1a1d1010000002321020b1cd26fc4b9f080aea1cf7b667efd5e8453f70429056589831fa7f63506ddbfac408a0000000000001976a914f0371486e89ca3a2057c60329aff065cd986aee188ac00000000","txid":"9683707af0a93ea8c9e5b97bb575fa7c7af6752a901d42b1da1905431ec1c974","version":1,"time":1540846128,"locktime":0,"vin":[{"txid":"02468537669aace4e98c8b115d5be65a8fe277b6f4c5d76c571fbb5485055edc","vout":1,"scriptSig":{"asm":"304402203de5f7c35e09d17cb4304fec98e8c91a37f9b88f22e75a3e3ed3075f6e4bdb1d0220267dd071f55b4ae9864b54092e3b34332f259e46c9472b738f6997e14624ffc101","hex":"47304402203de5f7c35e09d17cb4304fec98e8c91a37f9b88f22e75a3e3ed3075f6e4bdb1d0220267dd071f55b4ae9864b54092e3b34332f259e46c9472b738f6997e14624ffc101"},"sequence":4294967295}],"vout":[{"value":0,"n":0,"scriptPubKey":{"asm":"","type":"nonstandard"}},{"value":78.12006246,"n":1,"scriptPubKey":{"asm":"020b1cd26fc4b9f080aea1cf7b667efd5e8453f70429056589831fa7f63506ddbf OP_CHECKSIG","reqSigs":1,"type":"pubkey","addresses":["pECTDpfW4nW8hYte3f3F9ZQxwgWmBwmcYL"]}},{"value":0.00035392,"n":2,"scriptPubKey":{"asm":"OP_DUP OP_HASH160 f0371486e89ca3a2057c60329aff065cd986aee1 OP_EQUALVERIFY OP_CHECKSIG","reqSigs":1,"type":"pubkeyhash","addresses":["pTSiMnNaB4wjS22bEGEEkNcu17kmCfBCLj"]}}],"blockhash":"d84a632591f66eb1ed9f4342866ab78534e056050b2d8c301b74c598049cb67f","confirmations":170,"blocktime":1540846128}