{"hex":"010000005067c35b0165344dbe0e4d49ff1a1428ff9dffa53b8a1c8afa35a47478934141ffb3fd5db40100000049483045022100f636449f237986d2e00349fb7f090e4c9fe6f822d105ff7a682f6938861aa459022051aeb242e9940957cbb913fc8b2cc766910bcb566d1d7652138d589ec7db7b0501ffffffff03000000000000000000809e4730000000002321037e20b6f9df2b1191d7e929adc4ec86bb0a3b438e7822a1a46cd9d0caef60b746ac80fe210a000000001976a914f6ea51b1cf22773ff3c68e8299209dc9d69d593f88ac00000000","txid":"12786560d602e8e898ebd6b3089c77af098409e2f10e53485411c4a6b341f5f7","version":1,"time":1539532624,"locktime":0,"vin":[{"txid":"b45dfdb3ff4141937874a435fa8a1c8a3ba5ff9dff28141aff494d0ebe4d3465","vout":1,"scriptSig":{"asm":"3045022100f636449f237986d2e00349fb7f090e4c9fe6f822d105ff7a682f6938861aa459022051aeb242e9940957cbb913fc8b2cc766910bcb566d1d7652138d589ec7db7b0501","hex":"483045022100f636449f237986d2e00349fb7f090e4c9fe6f822d105ff7a682f6938861aa459022051aeb242e9940957cbb913fc8b2cc766910bcb566d1d7652138d589ec7db7b0501"},"sequence":4294967295}],"vout":[{"value":0,"n":0,"scriptPubKey":{"asm":"","type":"nonstandard"}},{"value":8.1,"n":1,"scriptPubKey":{"asm":"037e20b6f9df2b1191d7e929adc4ec86bb0a3b438e7822a1a46cd9d0caef60b746 OP_CHECKSIG","reqSigs":1,"type":"pubkey","addresses":["p6vr35KwzEodbGx2Tqp8uLkcMLPNmxZhJS"]}},{"value":1.7,"n":2,"scriptPubKey":{"asm":"OP_DUP OP_HASH160 f6ea51b1cf22773ff3c68e8299209dc9d69d593f OP_EQUALVERIFY OP_CHECKSIG","reqSigs":1,"type":"pubkeyhash","addresses":["pU498g2Tze2KypwgCnomJXchMWH8HXyZb6"]}}],"blockhash":"b92e95f2ceb09234f26c4ba06ef87477f24cac6aabff95d6d8de7fbb99b8eed1","confirmations":309,"blocktime":1539532624}