{"hex":"010000004067c35b01a1a79f43af140133151fb423e59d5a7332196d22e806396ad0be5121d6e64abb000000006b483045022100d4ee87325a9ca11e4023ba77b7c44a771f461b4cf493c8146f2cae1bee898396022029f44b1fccbd39cd8f671b6c3e4de6297e7ed7ba640074698f9059c317d2f064012103067f4ba8871315d5c3da9e4b1b945f87b9e84a543cc0e3172650cbef65c925a0ffffffff0200ba436c347523001976a9141a0c3db2cda4883d535148e4d8a0533bf46e8df488ac0088526a740000001976a914a539c7c64804ba10293866c3433100eabbe41ccf88ac00000000","txid":"2d69f1a92904229ce7f83c6b6fccc24179c2fb2fd1cc3442a82e6d3bc38f0fa1","version":1,"time":1539532624,"locktime":0,"vin":[{"txid":"bb4ae6d62151bed06a3906e8226d1932735a9de523b41f15330114af439fa7a1","vout":0,"scriptSig":{"asm":"3045022100d4ee87325a9ca11e4023ba77b7c44a771f461b4cf493c8146f2cae1bee898396022029f44b1fccbd39cd8f671b6c3e4de6297e7ed7ba640074698f9059c317d2f06401 03067f4ba8871315d5c3da9e4b1b945f87b9e84a543cc0e3172650cbef65c925a0","hex":"483045022100d4ee87325a9ca11e4023ba77b7c44a771f461b4cf493c8146f2cae1bee898396022029f44b1fccbd39cd8f671b6c3e4de6297e7ed7ba640074698f9059c317d2f064012103067f4ba8871315d5c3da9e4b1b945f87b9e84a543cc0e3172650cbef65c925a0"},"sequence":4294967295}],"vout":[{"value":99804922,"n":0,"scriptPubKey":{"asm":"OP_DUP OP_HASH160 1a0c3db2cda4883d535148e4d8a0533bf46e8df4 OP_EQUALVERIFY OP_CHECKSIG","reqSigs":1,"type":"pubkeyhash","addresses":["p7vJSDL72qjXzoUCjQamdX625pftiuehEY"]}},{"value":5000,"n":1,"scriptPubKey":{"asm":"OP_DUP OP_HASH160 a539c7c64804ba10293866c3433100eabbe41ccf OP_EQUALVERIFY OP_CHECKSIG","reqSigs":1,"type":"pubkeyhash","addresses":["pLcCv1RBNEWf4q17fiPMGMYqeFUvP9a826"]}}],"blockhash":"b92e95f2ceb09234f26c4ba06ef87477f24cac6aabff95d6d8de7fbb99b8eed1","confirmations":309,"blocktime":1539532624}