{"hex":"0100000090a3d85b1024f0c901962f4eaa13519a3ad4f045e7c4ef45bdb3eb92735be7696bb88d3f6c030000006b483045022100baba40ac3c21c42a39770f26ad7ad9c7e51f7778cade5c6ac8363eff6646e845022052b13a9de8f3f8e53958c2f9171eb33a0050ab4ce60d97cfa9bc1da007e16d830121033b457af556a3bfe40b5e35256855a938fb82f71b91dac5e92aa7e441023e7b57ffffffff45f294035769cdad9ee2ae822e5620760cc0637a8da90fb59bf1c05b4ecf78f4030000006b4830450221008c794ba1874924f3c29608b47eb03c162c850b3a16336b62e9a2831b8e82b6ce02200f29fd370bf1790afc6c9d27a1af039c519147fd23f0f02d87eb746b2607ad500121033b457af556a3bfe40b5e35256855a938fb82f71b91dac5e92aa7e441023e7b57ffffffff467861594efdcbe7685e6ac06ff1bf0886b0a67dd7b1d2dbf555a3ae86a9741f030000006b483045022100b1b5f8da35ac6fa8ccd8a15d325d158569b4ecb20d4706d2c991dab2276588c202203853f168eba5ed6fc82f362057d3e5ee448c5a36f1d700dea9bf083fc28431540121033b457af556a3bfe40b5e35256855a938fb82f71b91dac5e92aa7e441023e7b57ffffffff6a9f2cd3a7a25e974eb0503544f7210c587d590b260001b631b254cbf413e31b0100000048473044022054e9dc880b36d56de65e4e17364506d5ab30f51b111f9839ef35937197a18c9402204ed8f76f30c28127422c2a40faa5ae4c6639867df49c464eef871103aa3ee32d01ffffffff6a9f2cd3a7a25e974eb0503544f7210c587d590b260001b631b254cbf413e31b020000006a473044022057c4b1d85f8ac68a80b860f3769a96416543b8e87a1986c0adc27f1194bb92ca02205d66f372a5bdd42c3026120bc0dd8a33b18110887aa35d7ff6ac66f53122bea60121033b457af556a3bfe40b5e35256855a938fb82f71b91dac5e92aa7e441023e7b57ffffffff89523d5e65decec0eab0ea93142ec1029f9f56642b22713524e4b336b3a22f82020000006b483045022100ed3f0928c280e67909135512c9b1855b84f7c3bdc6eac53bba7893a526d9d17b022031b25b0ccccdc4671b1ccbf538097541af3e735cd84a0cf220dc46c9e099ee330121033b457af556a3bfe40b5e35256855a938fb82f71b91dac5e92aa7e441023e7b57ffffffff99b85def69b9d491e7b0694447fe3c16a28bfb4d0bcbe45e6264ba212dcc85f7020000006a4730440220777bafa785cf2f6073cd3e65d92319d1e6a636a0ebb2533c8ad71a3b1393b73802207d499f9a99a34d4d0bb11d611b00c80bbcc7651d02d193ef0371519304c6ab1e0121033b457af556a3bfe40b5e35256855a938fb82f71b91dac5e92aa7e441023e7b57ffffffffa3823e2bcb9608f2c49a540fdcc61184c1199c99c74ffd04f0893de1a9dbc584030000006a473044022076d36bc10381b5733da3748abc954ca7aea85e5a3bd9b6e507a295797592a4a3022038f8c28d32d22995c1e9bbffec97eca925e85684d44d2eabfb22063be9c1e1c30121033b457af556a3bfe40b5e35256855a938fb82f71b91dac5e92aa7e441023e7b57ffffffffaad5a5003e65a49727446a06b83f7095409fdaa754d1f160a421c7c7e7a2948b020000006a473044022033b358825402ee0c0137a05157662303fc176e8f4465f898e802b9713c5763f902204445c16e0b5c6b75b0d84f57203b8a0ed8b5f7942eec14eb60cd7bbd657db5990121033b457af556a3bfe40b5e35256855a938fb82f71b91dac5e92aa7e441023e7b57ffffffffc30eab502a5fdf42ecbf840dfba90fbf158f1992b38b3d4838ca1dc7dac6b776020000006a4730440220673e277985f5b9ad7816635e9bd14622fde35e3719faaf02685042c75bd19948022031084fb5c7ebf70cafc5773465261bf6db9195b05c606803466eadfe6d9fa78f0121033b457af556a3bfe40b5e35256855a938fb82f71b91dac5e92aa7e441023e7b57ffffffffd6e3e714fa8247ab137bc5a744eab17fbb2d0704e5fc18a367cace837292d2c6030000006b483045022100cc12314a4a8d419dd43799d891a200e2409d41526a16264cc642a2db92d6669f02206bc00f4c00e67c57284f5f57bc41938d1890be2b9101a017aaf5e9572e95647a0121033b457af556a3bfe40b5e35256855a938fb82f71b91dac5e92aa7e441023e7b57ffffffffe4333989dce64718993bb28bf788a2607785495f0d34c10fbae49eee0fbbd7eb010000006b483045022100bcead067193bb6f0de238137dc83078d349fbf945b2e6451b92aa08f874a6bb9022046542381be27ec3760645cd18d7c78b4b3d8ec596dfa9eebd742024ae6fb33070121033b457af556a3bfe40b5e35256855a938fb82f71b91dac5e92aa7e441023e7b57fffffffff710a1f70282ba5a53e0445a2288892570934e593aa3cc1449977fea6365ca3a030000006a47304402204616f67820fca9cf4ea5aa0dc786de7310300f423d47c1694b0629383ca09afd0220167bc36d2edae69f23a02c380a77619bbf2fd21f4de2dcbb59ad437cd73e82e40121033b457af556a3bfe40b5e35256855a938fb82f71b91dac5e92aa7e441023e7b57ffffffffb7c5655144a2a21d371035eb0d01c4a65127cef258d10ab56f204dd9e06937a3020000006b483045022100e1ea37f1c6b7b5b85d765391fe6761ccb19ed5e1b02a36a32b0ba79c7eb3a18c02203a8340a3fd1c4478ca455ecae5674b52c36be504655e8a31bdc4efbae94afcbc0121033b457af556a3bfe40b5e35256855a938fb82f71b91dac5e92aa7e441023e7b57ffffffffcfed5964ee3cd0037b329ee554e0c6b170f723fbd2d374d130986119af3a6be8030000006a47304402200f35c8776972a34c610038b13f1c2047567295f86465a2344e1d729e0f0739a0022050f79bc86e1bb84e05eb0bb0a59fbf2ebc896ebc12780c275580e870c26cf1380121033b457af556a3bfe40b5e35256855a938fb82f71b91dac5e92aa7e441023e7b57ffffffff45e3852957da8a0abe784bbc5afcb6d249fc2ef4d2bdcd22355b86d4f8c352a7030000006a47304402201c72401663dce857f6d4b8b1ce38d00fce7a34f876acf28bcac93bf5b85f1aaf022007b26976cc63b4845d3e603e9d5f719ecef3995b4b794442b15025224653ef510121033b457af556a3bfe40b5e35256855a938fb82f71b91dac5e92aa7e441023e7b57ffffffff030000000000000000009be65881000000002321033b457af556a3bfe40b5e35256855a938fb82f71b91dac5e92aa7e441023e7b57ac25170000000000001976a91466429c93e46136b2db3fe752c257b3dba5e7649c88ac00000000","txid":"41bf47ecd9036f435ffb3ef2bb2211b37a71203c801f6906e45a9dabd41d4b91","version":1,"time":1540924304,"locktime":0,"vin":[{"txid":"6c3f8db86b69e75b7392ebb3bd45efc4e745f0d43a9a5113aa4e2f9601c9f024","vout":3,"scriptSig":{"asm":"3045022100baba40ac3c21c42a39770f26ad7ad9c7e51f7778cade5c6ac8363eff6646e845022052b13a9de8f3f8e53958c2f9171eb33a0050ab4ce60d97cfa9bc1da007e16d8301 033b457af556a3bfe40b5e35256855a938fb82f71b91dac5e92aa7e441023e7b57","hex":"483045022100baba40ac3c21c42a39770f26ad7ad9c7e51f7778cade5c6ac8363eff6646e845022052b13a9de8f3f8e53958c2f9171eb33a0050ab4ce60d97cfa9bc1da007e16d830121033b457af556a3bfe40b5e35256855a938fb82f71b91dac5e92aa7e441023e7b57"},"sequence":4294967295},{"txid":"f478cf4e5bc0f19bb50fa98d7a63c00c7620562e82aee29eadcd69570394f245","vout":3,"scriptSig":{"asm":"30450221008c794ba1874924f3c29608b47eb03c162c850b3a16336b62e9a2831b8e82b6ce02200f29fd370bf1790afc6c9d27a1af039c519147fd23f0f02d87eb746b2607ad5001 033b457af556a3bfe40b5e35256855a938fb82f71b91dac5e92aa7e441023e7b57","hex":"4830450221008c794ba1874924f3c29608b47eb03c162c850b3a16336b62e9a2831b8e82b6ce02200f29fd370bf1790afc6c9d27a1af039c519147fd23f0f02d87eb746b2607ad500121033b457af556a3bfe40b5e35256855a938fb82f71b91dac5e92aa7e441023e7b57"},"sequence":4294967295},{"txid":"1f74a986aea355f5dbd2b1d77da6b08608bff16fc06a5e68e7cbfd4e59617846","vout":3,"scriptSig":{"asm":"3045022100b1b5f8da35ac6fa8ccd8a15d325d158569b4ecb20d4706d2c991dab2276588c202203853f168eba5ed6fc82f362057d3e5ee448c5a36f1d700dea9bf083fc284315401 033b457af556a3bfe40b5e35256855a938fb82f71b91dac5e92aa7e441023e7b57","hex":"483045022100b1b5f8da35ac6fa8ccd8a15d325d158569b4ecb20d4706d2c991dab2276588c202203853f168eba5ed6fc82f362057d3e5ee448c5a36f1d700dea9bf083fc28431540121033b457af556a3bfe40b5e35256855a938fb82f71b91dac5e92aa7e441023e7b57"},"sequence":4294967295},{"txid":"1be313f4cb54b231b60100260b597d580c21f7443550b04e975ea2a7d32c9f6a","vout":1,"scriptSig":{"asm":"3044022054e9dc880b36d56de65e4e17364506d5ab30f51b111f9839ef35937197a18c9402204ed8f76f30c28127422c2a40faa5ae4c6639867df49c464eef871103aa3ee32d01","hex":"473044022054e9dc880b36d56de65e4e17364506d5ab30f51b111f9839ef35937197a18c9402204ed8f76f30c28127422c2a40faa5ae4c6639867df49c464eef871103aa3ee32d01"},"sequence":4294967295},{"txid":"1be313f4cb54b231b60100260b597d580c21f7443550b04e975ea2a7d32c9f6a","vout":2,"scriptSig":{"asm":"3044022057c4b1d85f8ac68a80b860f3769a96416543b8e87a1986c0adc27f1194bb92ca02205d66f372a5bdd42c3026120bc0dd8a33b18110887aa35d7ff6ac66f53122bea601 033b457af556a3bfe40b5e35256855a938fb82f71b91dac5e92aa7e441023e7b57","hex":"473044022057c4b1d85f8ac68a80b860f3769a96416543b8e87a1986c0adc27f1194bb92ca02205d66f372a5bdd42c3026120bc0dd8a33b18110887aa35d7ff6ac66f53122bea60121033b457af556a3bfe40b5e35256855a938fb82f71b91dac5e92aa7e441023e7b57"},"sequence":4294967295},{"txid":"822fa2b336b3e4243571222b64569f9f02c12e1493eab0eac0cede655e3d5289","vout":2,"scriptSig":{"asm":"3045022100ed3f0928c280e67909135512c9b1855b84f7c3bdc6eac53bba7893a526d9d17b022031b25b0ccccdc4671b1ccbf538097541af3e735cd84a0cf220dc46c9e099ee3301 033b457af556a3bfe40b5e35256855a938fb82f71b91dac5e92aa7e441023e7b57","hex":"483045022100ed3f0928c280e67909135512c9b1855b84f7c3bdc6eac53bba7893a526d9d17b022031b25b0ccccdc4671b1ccbf538097541af3e735cd84a0cf220dc46c9e099ee330121033b457af556a3bfe40b5e35256855a938fb82f71b91dac5e92aa7e441023e7b57"},"sequence":4294967295},{"txid":"f785cc2d21ba64625ee4cb0b4dfb8ba2163cfe474469b0e791d4b969ef5db899","vout":2,"scriptSig":{"asm":"30440220777bafa785cf2f6073cd3e65d92319d1e6a636a0ebb2533c8ad71a3b1393b73802207d499f9a99a34d4d0bb11d611b00c80bbcc7651d02d193ef0371519304c6ab1e01 033b457af556a3bfe40b5e35256855a938fb82f71b91dac5e92aa7e441023e7b57","hex":"4730440220777bafa785cf2f6073cd3e65d92319d1e6a636a0ebb2533c8ad71a3b1393b73802207d499f9a99a34d4d0bb11d611b00c80bbcc7651d02d193ef0371519304c6ab1e0121033b457af556a3bfe40b5e35256855a938fb82f71b91dac5e92aa7e441023e7b57"},"sequence":4294967295},{"txid":"84c5dba9e13d89f004fd4fc7999c19c18411c6dc0f549ac4f20896cb2b3e82a3","vout":3,"scriptSig":{"asm":"3044022076d36bc10381b5733da3748abc954ca7aea85e5a3bd9b6e507a295797592a4a3022038f8c28d32d22995c1e9bbffec97eca925e85684d44d2eabfb22063be9c1e1c301 033b457af556a3bfe40b5e35256855a938fb82f71b91dac5e92aa7e441023e7b57","hex":"473044022076d36bc10381b5733da3748abc954ca7aea85e5a3bd9b6e507a295797592a4a3022038f8c28d32d22995c1e9bbffec97eca925e85684d44d2eabfb22063be9c1e1c30121033b457af556a3bfe40b5e35256855a938fb82f71b91dac5e92aa7e441023e7b57"},"sequence":4294967295},{"txid":"8b94a2e7c7c721a460f1d154a7da9f4095703fb8066a442797a4653e00a5d5aa","vout":2,"scriptSig":{"asm":"3044022033b358825402ee0c0137a05157662303fc176e8f4465f898e802b9713c5763f902204445c16e0b5c6b75b0d84f57203b8a0ed8b5f7942eec14eb60cd7bbd657db59901 033b457af556a3bfe40b5e35256855a938fb82f71b91dac5e92aa7e441023e7b57","hex":"473044022033b358825402ee0c0137a05157662303fc176e8f4465f898e802b9713c5763f902204445c16e0b5c6b75b0d84f57203b8a0ed8b5f7942eec14eb60cd7bbd657db5990121033b457af556a3bfe40b5e35256855a938fb82f71b91dac5e92aa7e441023e7b57"},"sequence":4294967295},{"txid":"76b7c6dac71dca38483d8bb392198f15bf0fa9fb0d84bfec42df5f2a50ab0ec3","vout":2,"scriptSig":{"asm":"30440220673e277985f5b9ad7816635e9bd14622fde35e3719faaf02685042c75bd19948022031084fb5c7ebf70cafc5773465261bf6db9195b05c606803466eadfe6d9fa78f01 033b457af556a3bfe40b5e35256855a938fb82f71b91dac5e92aa7e441023e7b57","hex":"4730440220673e277985f5b9ad7816635e9bd14622fde35e3719faaf02685042c75bd19948022031084fb5c7ebf70cafc5773465261bf6db9195b05c606803466eadfe6d9fa78f0121033b457af556a3bfe40b5e35256855a938fb82f71b91dac5e92aa7e441023e7b57"},"sequence":4294967295},{"txid":"c6d2927283ceca67a318fce504072dbb7fb1ea44a7c57b13ab4782fa14e7e3d6","vout":3,"scriptSig":{"asm":"3045022100cc12314a4a8d419dd43799d891a200e2409d41526a16264cc642a2db92d6669f02206bc00f4c00e67c57284f5f57bc41938d1890be2b9101a017aaf5e9572e95647a01 033b457af556a3bfe40b5e35256855a938fb82f71b91dac5e92aa7e441023e7b57","hex":"483045022100cc12314a4a8d419dd43799d891a200e2409d41526a16264cc642a2db92d6669f02206bc00f4c00e67c57284f5f57bc41938d1890be2b9101a017aaf5e9572e95647a0121033b457af556a3bfe40b5e35256855a938fb82f71b91dac5e92aa7e441023e7b57"},"sequence":4294967295},{"txid":"ebd7bb0fee9ee4ba0fc1340d5f49857760a288f78bb23b991847e6dc893933e4","vout":1,"scriptSig":{"asm":"3045022100bcead067193bb6f0de238137dc83078d349fbf945b2e6451b92aa08f874a6bb9022046542381be27ec3760645cd18d7c78b4b3d8ec596dfa9eebd742024ae6fb330701 033b457af556a3bfe40b5e35256855a938fb82f71b91dac5e92aa7e441023e7b57","hex":"483045022100bcead067193bb6f0de238137dc83078d349fbf945b2e6451b92aa08f874a6bb9022046542381be27ec3760645cd18d7c78b4b3d8ec596dfa9eebd742024ae6fb33070121033b457af556a3bfe40b5e35256855a938fb82f71b91dac5e92aa7e441023e7b57"},"sequence":4294967295},{"txid":"3aca6563ea7f974914cca33a594e9370258988225a44e0535aba8202f7a110f7","vout":3,"scriptSig":{"asm":"304402204616f67820fca9cf4ea5aa0dc786de7310300f423d47c1694b0629383ca09afd0220167bc36d2edae69f23a02c380a77619bbf2fd21f4de2dcbb59ad437cd73e82e401 033b457af556a3bfe40b5e35256855a938fb82f71b91dac5e92aa7e441023e7b57","hex":"47304402204616f67820fca9cf4ea5aa0dc786de7310300f423d47c1694b0629383ca09afd0220167bc36d2edae69f23a02c380a77619bbf2fd21f4de2dcbb59ad437cd73e82e40121033b457af556a3bfe40b5e35256855a938fb82f71b91dac5e92aa7e441023e7b57"},"sequence":4294967295},{"txid":"a33769e0d94d206fb50ad158f2ce2751a6c4010deb3510371da2a2445165c5b7","vout":2,"scriptSig":{"asm":"3045022100e1ea37f1c6b7b5b85d765391fe6761ccb19ed5e1b02a36a32b0ba79c7eb3a18c02203a8340a3fd1c4478ca455ecae5674b52c36be504655e8a31bdc4efbae94afcbc01 033b457af556a3bfe40b5e35256855a938fb82f71b91dac5e92aa7e441023e7b57","hex":"483045022100e1ea37f1c6b7b5b85d765391fe6761ccb19ed5e1b02a36a32b0ba79c7eb3a18c02203a8340a3fd1c4478ca455ecae5674b52c36be504655e8a31bdc4efbae94afcbc0121033b457af556a3bfe40b5e35256855a938fb82f71b91dac5e92aa7e441023e7b57"},"sequence":4294967295},{"txid":"e86b3aaf19619830d174d3d2fb23f770b1c6e054e59e327b03d03cee6459edcf","vout":3,"scriptSig":{"asm":"304402200f35c8776972a34c610038b13f1c2047567295f86465a2344e1d729e0f0739a0022050f79bc86e1bb84e05eb0bb0a59fbf2ebc896ebc12780c275580e870c26cf13801 033b457af556a3bfe40b5e35256855a938fb82f71b91dac5e92aa7e441023e7b57","hex":"47304402200f35c8776972a34c610038b13f1c2047567295f86465a2344e1d729e0f0739a0022050f79bc86e1bb84e05eb0bb0a59fbf2ebc896ebc12780c275580e870c26cf1380121033b457af556a3bfe40b5e35256855a938fb82f71b91dac5e92aa7e441023e7b57"},"sequence":4294967295},{"txid":"a752c3f8d4865b3522cdbdd2f42efc49d2b6fc5abc4b78be0a8ada572985e345","vout":3,"scriptSig":{"asm":"304402201c72401663dce857f6d4b8b1ce38d00fce7a34f876acf28bcac93bf5b85f1aaf022007b26976cc63b4845d3e603e9d5f719ecef3995b4b794442b15025224653ef5101 033b457af556a3bfe40b5e35256855a938fb82f71b91dac5e92aa7e441023e7b57","hex":"47304402201c72401663dce857f6d4b8b1ce38d00fce7a34f876acf28bcac93bf5b85f1aaf022007b26976cc63b4845d3e603e9d5f719ecef3995b4b794442b15025224653ef510121033b457af556a3bfe40b5e35256855a938fb82f71b91dac5e92aa7e441023e7b57"},"sequence":4294967295}],"vout":[{"value":0,"n":0,"scriptPubKey":{"asm":"","type":"nonstandard"}},{"value":21.70087067,"n":1,"scriptPubKey":{"asm":"033b457af556a3bfe40b5e35256855a938fb82f71b91dac5e92aa7e441023e7b57 OP_CHECKSIG","reqSigs":1,"type":"pubkey","addresses":["pJWi9BXT9hsVaAft92RNcufBy1LZGU4RtT"]}},{"value":0.00005925,"n":2,"scriptPubKey":{"asm":"OP_DUP OP_HASH160 66429c93e46136b2db3fe752c257b3dba5e7649c OP_EQUALVERIFY OP_CHECKSIG","reqSigs":1,"type":"pubkeyhash","addresses":["pEsGvXfg7BMJ91FueYCRJrpJCEzDnhWNzu"]}}],"blockhash":"2623f5f2befc7e5a5fbf2cac9a0db3713b24d0492dc44096418409103edd8532","confirmations":152,"blocktime":1540924304}