{"hex":"0100000082a3d85b03713526ffe898c5b8c55e5fc37e4d1130e1f38a0b4845828768da70605f6d6415000000006b483045022100c5b064810fc49fa505a5b9fe02b3e5c4c40c30ae4c504a274d3040e0cca4fa6d02200c4ded8211201836faf8b2d25767a821fc0d8c6437d21bcdb092e869bfe0931901210307cb8c7a8c87cdd56cca5b5d523cb7b35fbfd87c71d9325ea3e0cc98c116b829ffffffffe85d641e821ea0c755237902669c3fc4623743af95e6cf2a9188c638389a5d4e000000006a473044022025499205bda5e98c2a846fbf11de29d9e11c16dbfe114fd982a16df1313826cd0220210d37f215a0dd63a37ec45a5a253f15b3c7c893e0cb48399ddfd8f8e70dffa5012102593a0a9b8c3e24e9e851f0af0fe11f86196049bed45cdbb3adf5a041a02efd98fffffffff5429347de11161cdc9918da7774f6fceb0e793708c16fd4173e18798cd270b8000000006b48304502210098f4c7b6be8ea7a5fb9067f87ac0379335bbbc3c4a2c15485eab85cbaff744a702207f542d0064b583f44e1a4dc44af35da4f15ce737a2e3fd2f30fe0b0f77a9f61e01210380f77b3afdae0991dd91db7b3b585fc2691dcc2b904196ca3991c773a0431c15ffffffff025dd81e00000000001976a9144c28ee798243702bc4500cdb4da9004130bb47f688acee606a00000000001976a9140845c0a7175844eb2db238a0f5e04f40a281a33388ac00000000","txid":"f6d111795582a078d04fa0b30593a3aedf7ecf297ccfbb6081921b895a3a442b","version":1,"time":1540924304,"locktime":0,"vin":[{"txid":"15646d5f6070da68878245480b8af3e130114d7ec35f5ec5b8c598e8ff263571","vout":0,"scriptSig":{"asm":"3045022100c5b064810fc49fa505a5b9fe02b3e5c4c40c30ae4c504a274d3040e0cca4fa6d02200c4ded8211201836faf8b2d25767a821fc0d8c6437d21bcdb092e869bfe0931901 0307cb8c7a8c87cdd56cca5b5d523cb7b35fbfd87c71d9325ea3e0cc98c116b829","hex":"483045022100c5b064810fc49fa505a5b9fe02b3e5c4c40c30ae4c504a274d3040e0cca4fa6d02200c4ded8211201836faf8b2d25767a821fc0d8c6437d21bcdb092e869bfe0931901210307cb8c7a8c87cdd56cca5b5d523cb7b35fbfd87c71d9325ea3e0cc98c116b829"},"sequence":4294967295},{"txid":"4e5d9a3838c688912acfe695af433762c43f9c6602792355c7a01e821e645de8","vout":0,"scriptSig":{"asm":"3044022025499205bda5e98c2a846fbf11de29d9e11c16dbfe114fd982a16df1313826cd0220210d37f215a0dd63a37ec45a5a253f15b3c7c893e0cb48399ddfd8f8e70dffa501 02593a0a9b8c3e24e9e851f0af0fe11f86196049bed45cdbb3adf5a041a02efd98","hex":"473044022025499205bda5e98c2a846fbf11de29d9e11c16dbfe114fd982a16df1313826cd0220210d37f215a0dd63a37ec45a5a253f15b3c7c893e0cb48399ddfd8f8e70dffa5012102593a0a9b8c3e24e9e851f0af0fe11f86196049bed45cdbb3adf5a041a02efd98"},"sequence":4294967295},{"txid":"b870d28c79183e17d46fc10837790eebfcf67477da1899dc1c1611de479342f5","vout":0,"scriptSig":{"asm":"304502210098f4c7b6be8ea7a5fb9067f87ac0379335bbbc3c4a2c15485eab85cbaff744a702207f542d0064b583f44e1a4dc44af35da4f15ce737a2e3fd2f30fe0b0f77a9f61e01 0380f77b3afdae0991dd91db7b3b585fc2691dcc2b904196ca3991c773a0431c15","hex":"48304502210098f4c7b6be8ea7a5fb9067f87ac0379335bbbc3c4a2c15485eab85cbaff744a702207f542d0064b583f44e1a4dc44af35da4f15ce737a2e3fd2f30fe0b0f77a9f61e01210380f77b3afdae0991dd91db7b3b585fc2691dcc2b904196ca3991c773a0431c15"},"sequence":4294967295}],"vout":[{"value":0.02021469,"n":0,"scriptPubKey":{"asm":"OP_DUP OP_HASH160 4c28ee798243702bc4500cdb4da9004130bb47f6 OP_EQUALVERIFY OP_CHECKSIG","reqSigs":1,"type":"pubkeyhash","addresses":["pCVGbFvFLapGyskXvwfxG2ss21bRU9FqUh"]}},{"value":0.0697163,"n":1,"scriptPubKey":{"asm":"OP_DUP OP_HASH160 0845c0a7175844eb2db238a0f5e04f40a281a333 OP_EQUALVERIFY OP_CHECKSIG","reqSigs":1,"type":"pubkeyhash","addresses":["p6JKAjRiH4ToDtnxhVky3BxJRKHoMDGKRG"]}}],"blockhash":"2623f5f2befc7e5a5fbf2cac9a0db3713b24d0492dc44096418409103edd8532","confirmations":152,"blocktime":1540924304}