{"hex":"01000000bea0c25b010000000000000000000000000000000000000000000000000000000000000000ffffffff0401260101ffffffff0100000000000000001976a914803509ef3b2dc5b185658d286f552157070ec1bb88ac00000000","txid":"6c43595a3357780c998754fddddc56cdb59f141b3d9c0f50527f40d2e04cc9b8","version":1,"time":1539481790,"locktime":0,"vin":[{"coinbase":"01260101","sequence":4294967295}],"vout":[{"value":0,"n":0,"scriptPubKey":{"asm":"OP_DUP OP_HASH160 803509ef3b2dc5b185658d286f552157070ec1bb OP_EQUALVERIFY OP_CHECKSIG","reqSigs":1,"type":"pubkeyhash","addresses":["pHEUETg9ZKfVhnpTKaTNRBNLUApQHDsKxi"]}}],"blockhash":"000008f567e27ad85415828e0f70f762a8a7f08b66f37f937f6220c1ae4f32e0","confirmations":407,"blocktime":1539481790}