{"hex":"01000000cb08d75b04fd4de1f13aa42f60a22e24113dc6860d6c9a81082ffd060ab4f7e831bbecb509010000006b4830450221009e6787d7ffa1d7b6375caf8314b34df4c94d28f4b974e3ff0805bce1fa7290c802200f4060e2f8c87bf9612515df5accb2ea35e27ba41264a7d0defa3dbfcaba5031012103b509de500c60073a2a048c8d7b50d87c1cdce7d616dcac7ef2eb11b1b89f0c75ffffffff6dd80780854b9c3be7980ff9aa7710e4bc5ebe0dd19c984517238efa47b278a7010000006b483045022100ac826ba80ff6b15f05a2a529bab40747faba0704b10b4b453f8902f45807bab902203ea53d87ee4720020ecbe557417a18633e57378d8eb6761fd38f5f4fb88e87c601210360cb8bf7fd54281ea3016fe6dffdd3b729d843b6f3841bc6eaa420dc09c97f49ffffffff2b49089652187cd60261bfe99fd91681c3f1a8ba991e85b0f12f3fce3ac6e612010000006a47304402202e8b74084e70362be39a76d532e862c093133ed456d64f47e72c9dcfca8938dd022053d340725cc33565079ac10150c647f03361d248ded402b72f555deb9b68f08e012103fafbb41dd5590dd23da1d28b596769066519623c8d830ca3b404b9fe42b9f0f1ffffffffe447eaefaaabb1c0deed7d07a9ff0a61ef4ea2d8d31bcd96ded97563104db2db000000006b483045022100dcabcda9f447d0f9e9c9df901a0875c60cb8bf8a4f2ace0b21e7c108705124fa0220603212ee65a5c8ddeae4da03f157ce1028d80e345b8a920d3aa353cfe1b20e770121029e857134122939a57279b02312e296a02bcf0cf876ddc541bd372450215dbeacffffffff024d521100000000001976a9144c28ee798243702bc4500cdb4da9004130bb47f688ac44658c01000000001976a914d38c46a16bfdb46587501b1018308452791a6f5788ac00000000","txid":"01291b7a0b4da86757f5acefad2e7fcfd93b4afdc927daed8a33f91bad5be5c8","version":1,"time":1540819152,"locktime":0,"vin":[{"txid":"09b5ecbb31e8f7b40a06fd2f08819a6c0d86c63d11242ea2602fa43af1e14dfd","vout":1,"scriptSig":{"asm":"30450221009e6787d7ffa1d7b6375caf8314b34df4c94d28f4b974e3ff0805bce1fa7290c802200f4060e2f8c87bf9612515df5accb2ea35e27ba41264a7d0defa3dbfcaba503101 03b509de500c60073a2a048c8d7b50d87c1cdce7d616dcac7ef2eb11b1b89f0c75","hex":"4830450221009e6787d7ffa1d7b6375caf8314b34df4c94d28f4b974e3ff0805bce1fa7290c802200f4060e2f8c87bf9612515df5accb2ea35e27ba41264a7d0defa3dbfcaba5031012103b509de500c60073a2a048c8d7b50d87c1cdce7d616dcac7ef2eb11b1b89f0c75"},"sequence":4294967295},{"txid":"a778b247fa8e231745989cd10dbe5ebce41077aaf90f98e73b9c4b858007d86d","vout":1,"scriptSig":{"asm":"3045022100ac826ba80ff6b15f05a2a529bab40747faba0704b10b4b453f8902f45807bab902203ea53d87ee4720020ecbe557417a18633e57378d8eb6761fd38f5f4fb88e87c601 0360cb8bf7fd54281ea3016fe6dffdd3b729d843b6f3841bc6eaa420dc09c97f49","hex":"483045022100ac826ba80ff6b15f05a2a529bab40747faba0704b10b4b453f8902f45807bab902203ea53d87ee4720020ecbe557417a18633e57378d8eb6761fd38f5f4fb88e87c601210360cb8bf7fd54281ea3016fe6dffdd3b729d843b6f3841bc6eaa420dc09c97f49"},"sequence":4294967295},{"txid":"12e6c63ace3f2ff1b0851e99baa8f1c38116d99fe9bf6102d67c18529608492b","vout":1,"scriptSig":{"asm":"304402202e8b74084e70362be39a76d532e862c093133ed456d64f47e72c9dcfca8938dd022053d340725cc33565079ac10150c647f03361d248ded402b72f555deb9b68f08e01 03fafbb41dd5590dd23da1d28b596769066519623c8d830ca3b404b9fe42b9f0f1","hex":"47304402202e8b74084e70362be39a76d532e862c093133ed456d64f47e72c9dcfca8938dd022053d340725cc33565079ac10150c647f03361d248ded402b72f555deb9b68f08e012103fafbb41dd5590dd23da1d28b596769066519623c8d830ca3b404b9fe42b9f0f1"},"sequence":4294967295},{"txid":"dbb24d106375d9de96cd1bd3d8a24eef610affa9077deddec0b1abaaefea47e4","vout":0,"scriptSig":{"asm":"3045022100dcabcda9f447d0f9e9c9df901a0875c60cb8bf8a4f2ace0b21e7c108705124fa0220603212ee65a5c8ddeae4da03f157ce1028d80e345b8a920d3aa353cfe1b20e7701 029e857134122939a57279b02312e296a02bcf0cf876ddc541bd372450215dbeac","hex":"483045022100dcabcda9f447d0f9e9c9df901a0875c60cb8bf8a4f2ace0b21e7c108705124fa0220603212ee65a5c8ddeae4da03f157ce1028d80e345b8a920d3aa353cfe1b20e770121029e857134122939a57279b02312e296a02bcf0cf876ddc541bd372450215dbeac"},"sequence":4294967295}],"vout":[{"value":0.01135181,"n":0,"scriptPubKey":{"asm":"OP_DUP OP_HASH160 4c28ee798243702bc4500cdb4da9004130bb47f6 OP_EQUALVERIFY OP_CHECKSIG","reqSigs":1,"type":"pubkeyhash","addresses":["pCVGbFvFLapGyskXvwfxG2ss21bRU9FqUh"]}},{"value":0.2597818,"n":1,"scriptPubKey":{"asm":"OP_DUP OP_HASH160 d38c46a16bfdb46587501b1018308452791a6f57 OP_EQUALVERIFY OP_CHECKSIG","reqSigs":1,"type":"pubkeyhash","addresses":["pQq8piqkmirUhDqbGyEnBUhfs1UeqUzTTZ"]}}],"blockhash":"2247ab27b94d3d9b14fe471be59269dfb6c32a5dd6b035a70f0f68ec92ad2f59","confirmations":202,"blocktime":1540819152}