{"hex":"01000000d008d75b016cf06c7743625700278e35a7b5abb03d872582f694c3057096c789d89c1ac255020000004948304502210093223678b7f9664172afeb5d57d34c670d9d2d11967c47fcb04ba98c46ce8b0a022077139423d2689703d15511412b571b2e8710a1cb4c09721333b41545e4a9441601ffffffff0400000000000000000000a9a1d1010000002321020b1cd26fc4b9f080aea1cf7b667efd5e8453f70429056589831fa7f63506ddbfac88fab0d1010000002321020b1cd26fc4b9f080aea1cf7b667efd5e8453f70429056589831fa7f63506ddbfac41560000000000001976a91497cf81798c9f5e48463f6e018e82c7f5d25f8e4c88ac00000000","txid":"c93a9bc8401d4b0a79e77cc23c5675e85567a7c103e9f5c5cf5ed80426b4b11b","version":1,"time":1540819152,"locktime":0,"vin":[{"txid":"55c21a9cd889c7967005c394f68225873db0abb5a7358e2700576243776cf06c","vout":2,"scriptSig":{"asm":"304502210093223678b7f9664172afeb5d57d34c670d9d2d11967c47fcb04ba98c46ce8b0a022077139423d2689703d15511412b571b2e8710a1cb4c09721333b41545e4a9441601","hex":"48304502210093223678b7f9664172afeb5d57d34c670d9d2d11967c47fcb04ba98c46ce8b0a022077139423d2689703d15511412b571b2e8710a1cb4c09721333b41545e4a9441601"},"sequence":4294967295}],"vout":[{"value":0,"n":0,"scriptPubKey":{"asm":"","type":"nonstandard"}},{"value":78.12,"n":1,"scriptPubKey":{"asm":"020b1cd26fc4b9f080aea1cf7b667efd5e8453f70429056589831fa7f63506ddbf OP_CHECKSIG","reqSigs":1,"type":"pubkey","addresses":["pECTDpfW4nW8hYte3f3F9ZQxwgWmBwmcYL"]}},{"value":78.13003912,"n":2,"scriptPubKey":{"asm":"020b1cd26fc4b9f080aea1cf7b667efd5e8453f70429056589831fa7f63506ddbf OP_CHECKSIG","reqSigs":1,"type":"pubkey","addresses":["pECTDpfW4nW8hYte3f3F9ZQxwgWmBwmcYL"]}},{"value":0.00022081,"n":3,"scriptPubKey":{"asm":"OP_DUP OP_HASH160 97cf81798c9f5e48463f6e018e82c7f5d25f8e4c OP_EQUALVERIFY OP_CHECKSIG","reqSigs":1,"type":"pubkeyhash","addresses":["pKPGpRbrLFtB8pJLBr7nVTxsjHpfbwG83K"]}}],"blockhash":"2247ab27b94d3d9b14fe471be59269dfb6c32a5dd6b035a70f0f68ec92ad2f59","confirmations":202,"blocktime":1540819152}