{"hex":"01000000f02fdb5b011bb1b42604d85ecfc5f5e903c1a76755e875563cc27ce7790a4b1d40c89b3ac90100000049483045022100c1c02b8b5c49c96ddab555898e5f13f614ff3f1e518ea4991a2b46b5a3492c6202200953111b8bdf9dfc8d1fef8f1b85e48fa4bfa9be48c6c7c732e5e253258b63e701ffffffff0300000000000000000048aba1d1010000002321020b1cd26fc4b9f080aea1cf7b667efd5e8453f70429056589831fa7f63506ddbfacea0c0000000000001976a9145e1d99381eb53300f76a3cc6299ce81c71d0c2f788ac00000000","txid":"33583124efe4334295850fdabb58cb483616cfe92a99a30ca53a904121e23a63","version":1,"time":1541091312,"locktime":0,"vin":[{"txid":"c93a9bc8401d4b0a79e77cc23c5675e85567a7c103e9f5c5cf5ed80426b4b11b","vout":1,"scriptSig":{"asm":"3045022100c1c02b8b5c49c96ddab555898e5f13f614ff3f1e518ea4991a2b46b5a3492c6202200953111b8bdf9dfc8d1fef8f1b85e48fa4bfa9be48c6c7c732e5e253258b63e701","hex":"483045022100c1c02b8b5c49c96ddab555898e5f13f614ff3f1e518ea4991a2b46b5a3492c6202200953111b8bdf9dfc8d1fef8f1b85e48fa4bfa9be48c6c7c732e5e253258b63e701"},"sequence":4294967295}],"vout":[{"value":0,"n":0,"scriptPubKey":{"asm":"","type":"nonstandard"}},{"value":78.12000584,"n":1,"scriptPubKey":{"asm":"020b1cd26fc4b9f080aea1cf7b667efd5e8453f70429056589831fa7f63506ddbf OP_CHECKSIG","reqSigs":1,"type":"pubkey","addresses":["pECTDpfW4nW8hYte3f3F9ZQxwgWmBwmcYL"]}},{"value":0.00003306,"n":2,"scriptPubKey":{"asm":"OP_DUP OP_HASH160 5e1d99381eb53300f76a3cc6299ce81c71d0c2f7 OP_EQUALVERIFY OP_CHECKSIG","reqSigs":1,"type":"pubkeyhash","addresses":["pE8DBH6VheNWCoBfLHY8coXmUqVnKuU1Z8"]}}],"blockhash":"bdb2c3148c669dc55f6013b6a692f8c7179988ec479dab7c1dd30a57d9a7739a","confirmations":95,"blocktime":1541091312}