{"hex":"01000000e02fdb5b0138646b875af49c45081c305a0c551a2dab2dbffbcc69671e083c5859dd19a039010000006b48304502210099bc397b952344196d3a3b56015e4de112efa57721efa0fa571bc23640dffa5d02200a5514e4a14619336acb8129a7d104d16b8da20ecc4a8b2acaa6678e4528a419012103c0aa45956417d0ad47f1032e4f41485178d0e5989c3f371b147341d82f26848bffffffff02d5351000000000001976a914fe24e90cfaad3e05d2e0e3288f9d0f8f27081c9e88ac9b5e3b00000000001976a91422bd5b40a1425ac05df333d64dd416588fae6e0b88ac00000000","txid":"a03021d86d3863626c0dd7c533f9fe15bb5e064decde6b1cf70f355a1115ddf5","version":1,"time":1541091312,"locktime":0,"vin":[{"txid":"39a019dd59583c081e6769ccfbbf2dab2d1a550c5a301c08459cf45a876b6438","vout":1,"scriptSig":{"asm":"304502210099bc397b952344196d3a3b56015e4de112efa57721efa0fa571bc23640dffa5d02200a5514e4a14619336acb8129a7d104d16b8da20ecc4a8b2acaa6678e4528a41901 03c0aa45956417d0ad47f1032e4f41485178d0e5989c3f371b147341d82f26848b","hex":"48304502210099bc397b952344196d3a3b56015e4de112efa57721efa0fa571bc23640dffa5d02200a5514e4a14619336acb8129a7d104d16b8da20ecc4a8b2acaa6678e4528a419012103c0aa45956417d0ad47f1032e4f41485178d0e5989c3f371b147341d82f26848b"},"sequence":4294967295}],"vout":[{"value":0.01062357,"n":0,"scriptPubKey":{"asm":"OP_DUP OP_HASH160 fe24e90cfaad3e05d2e0e3288f9d0f8f27081c9e OP_EQUALVERIFY OP_CHECKSIG","reqSigs":1,"type":"pubkeyhash","addresses":["pUiN41MHwPiCjMH2Mstsq9bKb97CNJuvfE"]}},{"value":0.03890843,"n":1,"scriptPubKey":{"asm":"OP_DUP OP_HASH160 22bd5b40a1425ac05df333d64dd416588fae6e0b OP_EQUALVERIFY OP_CHECKSIG","reqSigs":1,"type":"pubkeyhash","addresses":["p8iG1wky353JKmkoURrgSNwfQt9B1t6GBX"]}}],"blockhash":"bdb2c3148c669dc55f6013b6a692f8c7179988ec479dab7c1dd30a57d9a7739a","confirmations":95,"blocktime":1541091312}