{"hex":"010000002097d65b01cfed5964ee3cd0037b329ee554e0c6b170f723fbd2d374d130986119af3a6be80200000048473044022045ac73994f8ecc153d1887d7e4e31f643ed17939dd27e8b4cbd4d622dd28ad2a022015326d8c96cea01717760b898627fda16a0f9c9e74109a99fa1372e4f7ffcb0e01ffffffff04000000000000000000409452a3030000002321020b1cd26fc4b9f080aea1cf7b667efd5e8453f70429056589831fa7f63506ddbfac5e9452a3030000002321020b1cd26fc4b9f080aea1cf7b667efd5e8453f70429056589831fa7f63506ddbfac55000000000000001976a914f6ea51b1cf22773ff3c68e8299209dc9d69d593f88ac00000000","txid":"0948298b65f2ccf0489747264ed604db5b231573d449017bc4c437ff7a085c38","version":1,"time":1540790048,"locktime":0,"vin":[{"txid":"e86b3aaf19619830d174d3d2fb23f770b1c6e054e59e327b03d03cee6459edcf","vout":2,"scriptSig":{"asm":"3044022045ac73994f8ecc153d1887d7e4e31f643ed17939dd27e8b4cbd4d622dd28ad2a022015326d8c96cea01717760b898627fda16a0f9c9e74109a99fa1372e4f7ffcb0e01","hex":"473044022045ac73994f8ecc153d1887d7e4e31f643ed17939dd27e8b4cbd4d622dd28ad2a022015326d8c96cea01717760b898627fda16a0f9c9e74109a99fa1372e4f7ffcb0e01"},"sequence":4294967295}],"vout":[{"value":0,"n":0,"scriptPubKey":{"asm":"","type":"nonstandard"}},{"value":156.25,"n":1,"scriptPubKey":{"asm":"020b1cd26fc4b9f080aea1cf7b667efd5e8453f70429056589831fa7f63506ddbf OP_CHECKSIG","reqSigs":1,"type":"pubkey","addresses":["pECTDpfW4nW8hYte3f3F9ZQxwgWmBwmcYL"]}},{"value":156.2500003,"n":2,"scriptPubKey":{"asm":"020b1cd26fc4b9f080aea1cf7b667efd5e8453f70429056589831fa7f63506ddbf OP_CHECKSIG","reqSigs":1,"type":"pubkey","addresses":["pECTDpfW4nW8hYte3f3F9ZQxwgWmBwmcYL"]}},{"value":8.5e-7,"n":3,"scriptPubKey":{"asm":"OP_DUP OP_HASH160 f6ea51b1cf22773ff3c68e8299209dc9d69d593f OP_EQUALVERIFY OP_CHECKSIG","reqSigs":1,"type":"pubkeyhash","addresses":["pU498g2Tze2KypwgCnomJXchMWH8HXyZb6"]}}],"blockhash":"ca3bab6b323883a9980500dcf4bfb921129b9ef15ef0712d18c9a8d9e7cc2eaa","confirmations":247,"blocktime":1540790048}