{"hex":"010000001897d65b01ba36b77a0abf2f10f676b0a43871ae964434f0c38b174733591e60fab127d692000000006b483045022100f4ae09d878ee36b4f62f013e7f414ed09d13716cea7ff13606b14eea45e96239022038db0d8325d873ad5865203c8a962f468f18b999467eaf350e0d0796c832687d0121024dc2de9912f77928aca86ebb63fe00b76c6d7f4d051bc8f31b69a44f80b24868ffffffff026e9a1300000000001976a91461946dd0a79b38bc1e4ffdca0bbbc169d67aa62288ac10270000000000001976a9147644efb2f98070ab8304baf1c13f70d6ff68c27788ac00000000","txid":"754a75fa23e86d542c7832c8a065c9ae0440f02b1a6f2552239843ac7079a88c","version":1,"time":1540790048,"locktime":0,"vin":[{"txid":"92d627b1fa601e593347178bc3f0344496ae7138a4b076f6102fbf0a7ab736ba","vout":0,"scriptSig":{"asm":"3045022100f4ae09d878ee36b4f62f013e7f414ed09d13716cea7ff13606b14eea45e96239022038db0d8325d873ad5865203c8a962f468f18b999467eaf350e0d0796c832687d01 024dc2de9912f77928aca86ebb63fe00b76c6d7f4d051bc8f31b69a44f80b24868","hex":"483045022100f4ae09d878ee36b4f62f013e7f414ed09d13716cea7ff13606b14eea45e96239022038db0d8325d873ad5865203c8a962f468f18b999467eaf350e0d0796c832687d0121024dc2de9912f77928aca86ebb63fe00b76c6d7f4d051bc8f31b69a44f80b24868"},"sequence":4294967295}],"vout":[{"value":0.01284718,"n":0,"scriptPubKey":{"asm":"OP_DUP OP_HASH160 61946dd0a79b38bc1e4ffdca0bbbc169d67aa622 OP_EQUALVERIFY OP_CHECKSIG","reqSigs":1,"type":"pubkeyhash","addresses":["pESXZLabMo1nb6pcYgs7qeP85HnBTRrvVe"]}},{"value":0.0001,"n":1,"scriptPubKey":{"asm":"OP_DUP OP_HASH160 7644efb2f98070ab8304baf1c13f70d6ff68c277 OP_EQUALVERIFY OP_CHECKSIG","reqSigs":1,"type":"pubkeyhash","addresses":["pGKvX7zTUoszjqX3isNoZuGqfxjuZZNAYs"]}}],"blockhash":"ca3bab6b323883a9980500dcf4bfb921129b9ef15ef0712d18c9a8d9e7cc2eaa","confirmations":247,"blocktime":1540790048}