{"hex":"0100000043a0c25b010000000000000000000000000000000000000000000000000000000000000000ffffffff0401220102ffffffff0100000000000000001976a91401485b298cd96ec717e86e84c7f825b91c291f6d88ac00000000","txid":"72aef44b36a851336151ebd858e411faad53a9dde593cb2508da1d8a5c0cd186","version":1,"time":1539481670,"locktime":0,"vin":[{"coinbase":"01220102","sequence":4294967295}],"vout":[{"value":0,"n":0,"scriptPubKey":{"asm":"OP_DUP OP_HASH160 01485b298cd96ec717e86e84c7f825b91c291f6d OP_EQUALVERIFY OP_CHECKSIG","reqSigs":1,"type":"pubkeyhash","addresses":["p5fMZHdWWngF9oqZ837P1TESunUMai9WqZ"]}}],"blockhash":"000004900be78a59e871205c9296141a96d3e32e2b7080671c5ea3c29e2af152","confirmations":125,"blocktime":1539481670}