{"hex":"01000000aea0c25b010000000000000000000000000000000000000000000000000000000000000000ffffffff0401250102ffffffff0100000000000000001976a914ccfa900881b90240e44a0d07b10cb3367bd595bc88ac00000000","txid":"8ea070ccf0c70fd23ef706615e3ec716e06c1406b45a0c2fae28f9ee857a026b","version":1,"time":1539481781,"locktime":0,"vin":[{"coinbase":"01250102","sequence":4294967295}],"vout":[{"value":0,"n":0,"scriptPubKey":{"asm":"OP_DUP OP_HASH160 ccfa900881b90240e44a0d07b10cb3367bd595bc OP_EQUALVERIFY OP_CHECKSIG","reqSigs":1,"type":"pubkeyhash","addresses":["pQEQDEd568ZGkfnD6T51b6zwK49R6wSWUX"]}}],"blockhash":"00000d59b6ff42aa4f663dd20d618383847dc5c4fefa813f023bbb1e7bd23e38","confirmations":408,"blocktime":1539481781}