{"hex":"010000007057e05b01ccef6e92c52773a3308379f1dec3617c652bb39ed54af03d78da5154c5273ee90100000049483045022100d1ba70ed11adfda6d89164d1e50aef63adecc3f734361f01d6d082f404a2bde9022030d866fe732eedb3725574ed4332dcdfd6022891436fb887b2c773464c7a3abe01ffffffff0400000000000000000000a2941a1d00000023210361ffd466e9664d0aa0b0e228dca7e70515db8b7f39d1c0658b6ac3600594d1c5acfe16951a1d00000023210361ffd466e9664d0aa0b0e228dca7e70515db8b7f39d1c0658b6ac3600594d1c5acf4960200000000001976a9144c86b0b2edcbbfcf0d0112bbb160a541568205b788ac00000000","txid":"19a5360a0c07d3c2829ae76267a668eb187403678b6aa16746ea607c74147249","version":1,"time":1541429104,"locktime":0,"vin":[{"txid":"e93e27c55451da783df04ad59eb32b657c61c3def1798330a37327c5926eefcc","vout":1,"scriptSig":{"asm":"3045022100d1ba70ed11adfda6d89164d1e50aef63adecc3f734361f01d6d082f404a2bde9022030d866fe732eedb3725574ed4332dcdfd6022891436fb887b2c773464c7a3abe01","hex":"483045022100d1ba70ed11adfda6d89164d1e50aef63adecc3f734361f01d6d082f404a2bde9022030d866fe732eedb3725574ed4332dcdfd6022891436fb887b2c773464c7a3abe01"},"sequence":4294967295}],"vout":[{"value":0,"n":0,"scriptPubKey":{"asm":"","type":"nonstandard"}},{"value":1250,"n":1,"scriptPubKey":{"asm":"0361ffd466e9664d0aa0b0e228dca7e70515db8b7f39d1c0658b6ac3600594d1c5 OP_CHECKSIG","reqSigs":1,"type":"pubkey","addresses":["pC1wxaZd5uPGVcS5qD2uTMroMjSKK1iXMB"]}},{"value":1250.0002995,"n":2,"scriptPubKey":{"asm":"0361ffd466e9664d0aa0b0e228dca7e70515db8b7f39d1c0658b6ac3600594d1c5 OP_CHECKSIG","reqSigs":1,"type":"pubkey","addresses":["pC1wxaZd5uPGVcS5qD2uTMroMjSKK1iXMB"]}},{"value":0.00169716,"n":3,"scriptPubKey":{"asm":"OP_DUP OP_HASH160 4c86b0b2edcbbfcf0d0112bbb160a541568205b7 OP_EQUALVERIFY OP_CHECKSIG","reqSigs":1,"type":"pubkeyhash","addresses":["pCXCuj4F9uaYHMue5Nqy3XLKdLz4U9gRoi"]}}],"blockhash":"4e8fbf1531503721161be8d5837c5e2237460b8a77149766e1ecd7dfac081130","confirmations":36,"blocktime":1541429104}