{"hex":"010000006657e05b042becf86e4ca1f0cfe4ec343206fd0276443fd08b12fb2ee6b3c7f7fd3939d8cd010000006a47304402203e0c9888e37a8835a73e2e62256986fe2e9e99d36fb04712598b701c64462ac602204c2e99e18b58c872e97e79c47c1594b41da90221dde07f2e54c05e2ef73cc873012102ba96223467d1060a7b9c1be216c983dfab33041ff8fdf85acef54da4b83a0fb3ffffffffdf5b27d194ba84c3ee536321c97c08c989bc10c62e1e4b124f95768bfc71647d000000006a47304402203cf71c9fb298d2f16423418ac8c1d5f025e4bf9b110bfc1975a71f597c851c8302202c0cef856034b41f7c507116e49c16d7668ad56b493597d97b49fefd14f0ce540121021b3361466b89f23b9bce90355474cd7cba70e6da5c0e035f0eac431d43a4b149ffffffffdf5b27d194ba84c3ee536321c97c08c989bc10c62e1e4b124f95768bfc71647d010000006a47304402200e580377957116e09904aab4ea27431e8f6c7bf26c9a32c7cfd02c3086bb48100220069a3f56e85128a691a04602df880f647776f844bf09367b6c9428acccc0645401210217391775debf33ad9063ce93d279b921393bd386df91288e2a0c35172c64327fffffffff925a9f02a1efcd1ddba405e343a038e3d59373f6e4cfe66f419e10e2cc0e4395010000006a473044022059d1986bfd57ee35a2806f35060b08b4b57987166b799c30bc5849841f7727800220726db45396667cb01207eff330344ea556fdf65bd201cdd3509b3343387aaee9012102e44490e0c24b239f5059b5659c91e98a9f19ab95e84507d4759244ad76915dd3ffffffff0268860f00000000001976a914e79d131612849064a19107a1d9b3f80f2e8f8adb88acc9ace60b000000001976a91404036fb6fa315ddce33a571f17e231dabb5efb5b88ac00000000","txid":"b82103b731499f3b4b713f35a78af1a1191c6b6de3377eb4efe8c8cf835457bc","version":1,"time":1541429104,"locktime":0,"vin":[{"txid":"cdd83939fdf7c7b3e62efb128bd03f447602fd063234ece4cff0a14c6ef8ec2b","vout":1,"scriptSig":{"asm":"304402203e0c9888e37a8835a73e2e62256986fe2e9e99d36fb04712598b701c64462ac602204c2e99e18b58c872e97e79c47c1594b41da90221dde07f2e54c05e2ef73cc87301 02ba96223467d1060a7b9c1be216c983dfab33041ff8fdf85acef54da4b83a0fb3","hex":"47304402203e0c9888e37a8835a73e2e62256986fe2e9e99d36fb04712598b701c64462ac602204c2e99e18b58c872e97e79c47c1594b41da90221dde07f2e54c05e2ef73cc873012102ba96223467d1060a7b9c1be216c983dfab33041ff8fdf85acef54da4b83a0fb3"},"sequence":4294967295},{"txid":"7d6471fc8b76954f124b1e2ec610bc89c9087cc9216353eec384ba94d1275bdf","vout":0,"scriptSig":{"asm":"304402203cf71c9fb298d2f16423418ac8c1d5f025e4bf9b110bfc1975a71f597c851c8302202c0cef856034b41f7c507116e49c16d7668ad56b493597d97b49fefd14f0ce5401 021b3361466b89f23b9bce90355474cd7cba70e6da5c0e035f0eac431d43a4b149","hex":"47304402203cf71c9fb298d2f16423418ac8c1d5f025e4bf9b110bfc1975a71f597c851c8302202c0cef856034b41f7c507116e49c16d7668ad56b493597d97b49fefd14f0ce540121021b3361466b89f23b9bce90355474cd7cba70e6da5c0e035f0eac431d43a4b149"},"sequence":4294967295},{"txid":"7d6471fc8b76954f124b1e2ec610bc89c9087cc9216353eec384ba94d1275bdf","vout":1,"scriptSig":{"asm":"304402200e580377957116e09904aab4ea27431e8f6c7bf26c9a32c7cfd02c3086bb48100220069a3f56e85128a691a04602df880f647776f844bf09367b6c9428acccc0645401 0217391775debf33ad9063ce93d279b921393bd386df91288e2a0c35172c64327f","hex":"47304402200e580377957116e09904aab4ea27431e8f6c7bf26c9a32c7cfd02c3086bb48100220069a3f56e85128a691a04602df880f647776f844bf09367b6c9428acccc0645401210217391775debf33ad9063ce93d279b921393bd386df91288e2a0c35172c64327f"},"sequence":4294967295},{"txid":"95430ecce2109e416fe6cfe4f67393d5e338a043e305a4db1dcdefa1029f5a92","vout":1,"scriptSig":{"asm":"3044022059d1986bfd57ee35a2806f35060b08b4b57987166b799c30bc5849841f7727800220726db45396667cb01207eff330344ea556fdf65bd201cdd3509b3343387aaee901 02e44490e0c24b239f5059b5659c91e98a9f19ab95e84507d4759244ad76915dd3","hex":"473044022059d1986bfd57ee35a2806f35060b08b4b57987166b799c30bc5849841f7727800220726db45396667cb01207eff330344ea556fdf65bd201cdd3509b3343387aaee9012102e44490e0c24b239f5059b5659c91e98a9f19ab95e84507d4759244ad76915dd3"},"sequence":4294967295}],"vout":[{"value":0.01017448,"n":0,"scriptPubKey":{"asm":"OP_DUP OP_HASH160 e79d131612849064a19107a1d9b3f80f2e8f8adb OP_EQUALVERIFY OP_CHECKSIG","reqSigs":1,"type":"pubkeyhash","addresses":["pSfETkSf2d9fFT8pmJffwnXFXT7aPBeB9M"]}},{"value":1.99666889,"n":1,"scriptPubKey":{"asm":"OP_DUP OP_HASH160 04036fb6fa315ddce33a571f17e231dabb5efb5b OP_EQUALVERIFY OP_CHECKSIG","reqSigs":1,"type":"pubkeyhash","addresses":["p5uo2Ehyi9qe56y24R8YHhZVoBSPWpTCCy"]}}],"blockhash":"4e8fbf1531503721161be8d5837c5e2237460b8a77149766e1ecd7dfac081130","confirmations":36,"blocktime":1541429104}