{"hex":"01000000b0a9c25b01a3823e2bcb9608f2c49a540fdcc61184c1199c99c74ffd04f0893de1a9dbc5840200000049483045022100ccb8b5ad365307d7aa99ae107517c9a2dc4baba81b874b82dc49b5722bb3b2810220598ef8a98ed32c18d9b540b5e5fdbe4cbb88e13fb48f83c6613f4875986cc70501ffffffff04000000000000000000c07a17900e0000002321028d9be6ae35cf9126d1ddd81f7e9a33d77e64d908c42bf417d6424ba1da9106a6ac00bd26900e0000002321028d9be6ae35cf9126d1ddd81f7e9a33d77e64d908c42bf417d6424ba1da9106a6ac80fe210a000000001976a91400eadc74da710bda77ce2fa5b8d39eabf1783dfa88ac00000000","txid":"334143a1ef8bcced8f99858c9125337d728b09bcd4c0b540dd2d9fdd082348c8","version":1,"time":1539484080,"locktime":0,"vin":[{"txid":"84c5dba9e13d89f004fd4fc7999c19c18411c6dc0f549ac4f20896cb2b3e82a3","vout":2,"scriptSig":{"asm":"3045022100ccb8b5ad365307d7aa99ae107517c9a2dc4baba81b874b82dc49b5722bb3b2810220598ef8a98ed32c18d9b540b5e5fdbe4cbb88e13fb48f83c6613f4875986cc70501","hex":"483045022100ccb8b5ad365307d7aa99ae107517c9a2dc4baba81b874b82dc49b5722bb3b2810220598ef8a98ed32c18d9b540b5e5fdbe4cbb88e13fb48f83c6613f4875986cc70501"},"sequence":4294967295}],"vout":[{"value":0,"n":0,"scriptPubKey":{"asm":"","type":"nonstandard"}},{"value":625.47,"n":1,"scriptPubKey":{"asm":"028d9be6ae35cf9126d1ddd81f7e9a33d77e64d908c42bf417d6424ba1da9106a6 OP_CHECKSIG","reqSigs":1,"type":"pubkey","addresses":["pG17eAwgEzq6zQQ7cLzvCMepRqGYMprwdz"]}},{"value":625.48,"n":2,"scriptPubKey":{"asm":"028d9be6ae35cf9126d1ddd81f7e9a33d77e64d908c42bf417d6424ba1da9106a6 OP_CHECKSIG","reqSigs":1,"type":"pubkey","addresses":["pG17eAwgEzq6zQQ7cLzvCMepRqGYMprwdz"]}},{"value":1.7,"n":3,"scriptPubKey":{"asm":"OP_DUP OP_HASH160 00eadc74da710bda77ce2fa5b8d39eabf1783dfa OP_EQUALVERIFY OP_CHECKSIG","reqSigs":1,"type":"pubkeyhash","addresses":["p5dRZ9MeyiKDma1pAUrsmvEK4NBmmdC4ZN"]}}],"blockhash":"81e7c60294d6f84e76c6d3fc783399b6153b225517ad730687cbbe86ab1ce7ff","confirmations":328,"blocktime":1539484080}