{"hex":"01000000a1a9c25b011e4af53a5fb7764b01528b0959201b3738815f7e79f79ed15d4b29a5fc137726000000006b483045022100998c7e981bd97000d1f9ff25e5aa1cc1d1d589b99ed0cf4833db42ea563ff8cc02207c48995c6fff8fcb5d4899e6f384b8756819a5c3550325ce1de1dfa792491782012103615c07f6a255a878d0226946e595dfa64bb6e45f2c4bdd15952415e0ae4816f6ffffffff020038e332d97d23001976a9144dcbcfa172c14392ab7cd5d21b915d56798c2af188ac0088526a740000001976a914b281632e032cac99462bf7779521442a307c52a088ac00000000","txid":"84035b5f5d4ae88350ee0bd6c8d089f36e42b366ffffcbd5f26ca016b9818cd3","version":1,"time":1539484080,"locktime":0,"vin":[{"txid":"267713fca5294b5dd19ef7797e5f8138371b2059098b52014b76b75f3af54a1e","vout":0,"scriptSig":{"asm":"3045022100998c7e981bd97000d1f9ff25e5aa1cc1d1d589b99ed0cf4833db42ea563ff8cc02207c48995c6fff8fcb5d4899e6f384b8756819a5c3550325ce1de1dfa79249178201 03615c07f6a255a878d0226946e595dfa64bb6e45f2c4bdd15952415e0ae4816f6","hex":"483045022100998c7e981bd97000d1f9ff25e5aa1cc1d1d589b99ed0cf4833db42ea563ff8cc02207c48995c6fff8fcb5d4899e6f384b8756819a5c3550325ce1de1dfa792491782012103615c07f6a255a878d0226946e595dfa64bb6e45f2c4bdd15952415e0ae4816f6"},"sequence":4294967295}],"vout":[{"value":99899960,"n":0,"scriptPubKey":{"asm":"OP_DUP OP_HASH160 4dcbcfa172c14392ab7cd5d21b915d56798c2af1 OP_EQUALVERIFY OP_CHECKSIG","reqSigs":1,"type":"pubkeyhash","addresses":["pCdvPWwTg8Le7posLngpYe2qEL65nXQbbS"]}},{"value":5000,"n":1,"scriptPubKey":{"asm":"OP_DUP OP_HASH160 b281632e032cac99462bf7779521442a307c52a0 OP_EQUALVERIFY OP_CHECKSIG","reqSigs":1,"type":"pubkeyhash","addresses":["pMpRUr5SqF4SLREGfNjMyHwaGCi3EHeLR1"]}}],"blockhash":"81e7c60294d6f84e76c6d3fc783399b6153b225517ad730687cbbe86ab1ce7ff","confirmations":42,"blocktime":1539484080}