{"hex":"01000000adf8c45b01990809df5f11668722d0e1b3588e566f1fbb2000fa2430b2adf02f7016b66e79000000006a47304402202d75fb4f9497a01ad9adbababa4754f7417de3864f313626c52bd7983cbffd0302200a9f27523740e81afd0304dd739b510fe778119970573b08f0c3dd541f5f6039012103e0ecd066ebfbaa822bf11c4aa3dcb9ced08457ab0e5cbc020ac49f489bb4b33cffffffff02d03c812b000000001976a914c25c546622f9e134b543152fb868afdcafd017f188ac00e1f505000000001976a91425f6952ab7e6a1bead71487afb3a101fdf9a3b4e88ac00000000","txid":"0e62bb7218ac5b51690956ccb1634663a41f19cd64c1a4aeb8448aafb322b6fc","version":1,"time":1539635376,"locktime":0,"vin":[{"txid":"796eb616702ff0adb23024fa0020bb1f6f568e58b3e1d0228766115fdf090899","vout":0,"scriptSig":{"asm":"304402202d75fb4f9497a01ad9adbababa4754f7417de3864f313626c52bd7983cbffd0302200a9f27523740e81afd0304dd739b510fe778119970573b08f0c3dd541f5f603901 03e0ecd066ebfbaa822bf11c4aa3dcb9ced08457ab0e5cbc020ac49f489bb4b33c","hex":"47304402202d75fb4f9497a01ad9adbababa4754f7417de3864f313626c52bd7983cbffd0302200a9f27523740e81afd0304dd739b510fe778119970573b08f0c3dd541f5f6039012103e0ecd066ebfbaa822bf11c4aa3dcb9ced08457ab0e5cbc020ac49f489bb4b33c"},"sequence":4294967295}],"vout":[{"value":7.2989,"n":0,"scriptPubKey":{"asm":"OP_DUP OP_HASH160 c25c546622f9e134b543152fb868afdcafd017f1 OP_EQUALVERIFY OP_CHECKSIG","reqSigs":1,"type":"pubkeyhash","addresses":["pPGFu6j3PJEPcdvrZ4jGsh5c4XPuayFe9V"]}},{"value":1,"n":1,"scriptPubKey":{"asm":"OP_DUP OP_HASH160 25f6952ab7e6a1bead71487afb3a101fdf9a3b4e OP_EQUALVERIFY OP_CHECKSIG","reqSigs":1,"type":"pubkeyhash","addresses":["p91JbfivSeiuKo6732hysiGfwTbopsYV1S"]}}],"blockhash":"87fe930656a7bcd082356a9c54b3366cace7c502fc4ba2fd39297ff3cb5cab2c","confirmations":302,"blocktime":1539635376}