{"hex":"01000000b0f8c45b01467861594efdcbe7685e6ac06ff1bf0886b0a67dd7b1d2dbf555a3ae86a9741f0100000049483045022100e176cd95a8ceb05b191b4a6f2ba87498f8014b28ec97f0fb7c5af3c541c4a8eb022072996a3c577ce011a9085920ffd329b6a464c0dcbcf526c074eac792f62d8b4601ffffffff04000000000000000000c0856b470700000023210348b24f77eda58d2bf0bd56f764cfdeb0100d2f1058b2d5318f2f2fc9670e730eac58c06b470700000023210348b24f77eda58d2bf0bd56f764cfdeb0100d2f1058b2d5318f2f2fc9670e730eac084c0100000000001976a91466429c93e46136b2db3fe752c257b3dba5e7649c88ac00000000","txid":"f5864120a63a15bfc3e1e47a7a6231b74b82b99c985231fa23d90951f0283a9a","version":1,"time":1539635376,"locktime":0,"vin":[{"txid":"1f74a986aea355f5dbd2b1d77da6b08608bff16fc06a5e68e7cbfd4e59617846","vout":1,"scriptSig":{"asm":"3045022100e176cd95a8ceb05b191b4a6f2ba87498f8014b28ec97f0fb7c5af3c541c4a8eb022072996a3c577ce011a9085920ffd329b6a464c0dcbcf526c074eac792f62d8b4601","hex":"483045022100e176cd95a8ceb05b191b4a6f2ba87498f8014b28ec97f0fb7c5af3c541c4a8eb022072996a3c577ce011a9085920ffd329b6a464c0dcbcf526c074eac792f62d8b4601"},"sequence":4294967295}],"vout":[{"value":0,"n":0,"scriptPubKey":{"asm":"","type":"nonstandard"}},{"value":312.63,"n":1,"scriptPubKey":{"asm":"0348b24f77eda58d2bf0bd56f764cfdeb0100d2f1058b2d5318f2f2fc9670e730e OP_CHECKSIG","reqSigs":1,"type":"pubkey","addresses":["p8X7huKtvdnnDzc17Xcxxh1Z9ww8ckxvVJ"]}},{"value":312.63015,"n":2,"scriptPubKey":{"asm":"0348b24f77eda58d2bf0bd56f764cfdeb0100d2f1058b2d5318f2f2fc9670e730e OP_CHECKSIG","reqSigs":1,"type":"pubkey","addresses":["p8X7huKtvdnnDzc17Xcxxh1Z9ww8ckxvVJ"]}},{"value":0.00085,"n":3,"scriptPubKey":{"asm":"OP_DUP OP_HASH160 66429c93e46136b2db3fe752c257b3dba5e7649c OP_EQUALVERIFY OP_CHECKSIG","reqSigs":1,"type":"pubkeyhash","addresses":["pEsGvXfg7BMJ91FueYCRJrpJCEzDnhWNzu"]}}],"blockhash":"87fe930656a7bcd082356a9c54b3366cace7c502fc4ba2fd39297ff3cb5cab2c","confirmations":302,"blocktime":1539635376}