{"hex":"01000000820eda5b016463b0845977fd13e1e5f93958e024f2a8de40bd69cef16c19a0708a951e2291000000006a47304402201af30fe09c9a7daa5750e2afe27253ffa6491bf8c804c2e25a78fb203aadc63b02204bcde65832b0401c667830d764b082e7aeadbe6890f2a758e7740e3fed6830c3012103dc6edc2e6b3bf69ff277ffabc8e24a78b7c3a55af04f5bb37a365f06fb7551f3ffffffff02bac51300000000001976a914d2b829ecf5cda9a7a7c33f86bc52e26112d2dd2e88ace8030000000000001976a9146321ccb071623e0567a2414b0a00cd4c9372d04288ac00000000","txid":"fb07cefb43157b1bab42df58d272e5bea9d18394f2b6b07066138ee4f765a6ad","version":1,"time":1541017232,"locktime":0,"vin":[{"txid":"91221e958a70a0196cf1ce69bd40dea8f224e05839f9e5e113fd775984b06364","vout":0,"scriptSig":{"asm":"304402201af30fe09c9a7daa5750e2afe27253ffa6491bf8c804c2e25a78fb203aadc63b02204bcde65832b0401c667830d764b082e7aeadbe6890f2a758e7740e3fed6830c301 03dc6edc2e6b3bf69ff277ffabc8e24a78b7c3a55af04f5bb37a365f06fb7551f3","hex":"47304402201af30fe09c9a7daa5750e2afe27253ffa6491bf8c804c2e25a78fb203aadc63b02204bcde65832b0401c667830d764b082e7aeadbe6890f2a758e7740e3fed6830c3012103dc6edc2e6b3bf69ff277ffabc8e24a78b7c3a55af04f5bb37a365f06fb7551f3"},"sequence":4294967295}],"vout":[{"value":0.01295802,"n":0,"scriptPubKey":{"asm":"OP_DUP OP_HASH160 d2b829ecf5cda9a7a7c33f86bc52e26112d2dd2e OP_EQUALVERIFY OP_CHECKSIG","reqSigs":1,"type":"pubkeyhash","addresses":["pQkkiuv3sYtYujavQjGjbZAuJSYZ4WhQZP"]}},{"value":0.00001,"n":1,"scriptPubKey":{"asm":"OP_DUP OP_HASH160 6321ccb071623e0567a2414b0a00cd4c9372d042 OP_EQUALVERIFY OP_CHECKSIG","reqSigs":1,"type":"pubkeyhash","addresses":["pEajb8bqyMGP8rrzzkXsHWvGhM2RVubGdb"]}}],"blockhash":"ea81bc58c2ba192c902cb3904729ca3ff9290a6b01f0ae8822d9d603afa6ba7e","confirmations":119,"blocktime":1541017232}