{"hex":"01000000900eda5b01131a84455ad7dde90abe4b1744fe5a0bac7cf57737bfb4893a8f4a07dfbc3283010000004847304402201c294c2af8e6b60a5d7cc76b6942dc82143ff80480dffc071b9cd94c3148920502206a485ca3045e053e6d69c70c82d60a31e8c99e86b7c26f0a14b7e8ad679f02a901ffffffff0400000000000000000000514a8d0e0000002321026ef57679057df94a5f72e9fead08857f8d7253a593b2b1feed1b68e92df4a4c5ac0f514a8d0e0000002321026ef57679057df94a5f72e9fead08857f8d7253a593b2b1feed1b68e92df4a4c5ac55000000000000001976a914b4297f2bb1ec22148c170ab2f943e6826c4d831d88ac00000000","txid":"f1d06015cbb4efd848d8be976ba87bb945a3e337c36e296e8f1f74adcf9742b1","version":1,"time":1541017232,"locktime":0,"vin":[{"txid":"8332bcdf074a8f3a89b4bf3777f57cac0b5afe44174bbe0ae9ddd75a45841a13","vout":1,"scriptSig":{"asm":"304402201c294c2af8e6b60a5d7cc76b6942dc82143ff80480dffc071b9cd94c3148920502206a485ca3045e053e6d69c70c82d60a31e8c99e86b7c26f0a14b7e8ad679f02a901","hex":"47304402201c294c2af8e6b60a5d7cc76b6942dc82143ff80480dffc071b9cd94c3148920502206a485ca3045e053e6d69c70c82d60a31e8c99e86b7c26f0a14b7e8ad679f02a901"},"sequence":4294967295}],"vout":[{"value":0,"n":0,"scriptPubKey":{"asm":"","type":"nonstandard"}},{"value":625,"n":1,"scriptPubKey":{"asm":"026ef57679057df94a5f72e9fead08857f8d7253a593b2b1feed1b68e92df4a4c5 OP_CHECKSIG","reqSigs":1,"type":"pubkey","addresses":["p5dRZ9MeyiKDma1pAUrsmvEK4NBmmdC4ZN"]}},{"value":625.00000015,"n":2,"scriptPubKey":{"asm":"026ef57679057df94a5f72e9fead08857f8d7253a593b2b1feed1b68e92df4a4c5 OP_CHECKSIG","reqSigs":1,"type":"pubkey","addresses":["p5dRZ9MeyiKDma1pAUrsmvEK4NBmmdC4ZN"]}},{"value":8.5e-7,"n":3,"scriptPubKey":{"asm":"OP_DUP OP_HASH160 b4297f2bb1ec22148c170ab2f943e6826c4d831d OP_EQUALVERIFY OP_CHECKSIG","reqSigs":1,"type":"pubkeyhash","addresses":["pMyBYUpcH3ehvzacvgmtahza4iSykvMcUD"]}}],"blockhash":"ea81bc58c2ba192c902cb3904729ca3ff9290a6b01f0ae8822d9d603afa6ba7e","confirmations":119,"blocktime":1541017232}