{"hex":"01000000802cd15b01fe067f4f3585601a0a62cd11cc64fbea79108b0c615f4e6cb2b49d24134f3f84010000004847304402204c6d116da8641f6917f95e354f4348895e88784f86eb85af9e89ed71247147f602201ebd689504efd4f3ca4b56416a412c9f6cd01dfdfa1498a3a7eb261bf593e89e01ffffffff04000000000000000000c021aea30300000023210348b24f77eda58d2bf0bd56f764cfdeb0100d2f1058b2d5318f2f2fc9670e730eac1164bda30300000023210348b24f77eda58d2bf0bd56f764cfdeb0100d2f1058b2d5318f2f2fc9670e730eac5a000000000000001976a914f6ea51b1cf22773ff3c68e8299209dc9d69d593f88ac00000000","txid":"c831e3f573409fbbfff5365e171f8fec3c99a666e7d8b5a1e13485154634565c","version":1,"time":1540435072,"locktime":0,"vin":[{"txid":"843f4f13249db4b26c4e5f610c8b1079eafb64cc11cd620a1a6085354f7f06fe","vout":1,"scriptSig":{"asm":"304402204c6d116da8641f6917f95e354f4348895e88784f86eb85af9e89ed71247147f602201ebd689504efd4f3ca4b56416a412c9f6cd01dfdfa1498a3a7eb261bf593e89e01","hex":"47304402204c6d116da8641f6917f95e354f4348895e88784f86eb85af9e89ed71247147f602201ebd689504efd4f3ca4b56416a412c9f6cd01dfdfa1498a3a7eb261bf593e89e01"},"sequence":4294967295}],"vout":[{"value":0,"n":0,"scriptPubKey":{"asm":"","type":"nonstandard"}},{"value":156.31,"n":1,"scriptPubKey":{"asm":"0348b24f77eda58d2bf0bd56f764cfdeb0100d2f1058b2d5318f2f2fc9670e730e OP_CHECKSIG","reqSigs":1,"type":"pubkey","addresses":["p8X7huKtvdnnDzc17Xcxxh1Z9ww8ckxvVJ"]}},{"value":156.32000017,"n":2,"scriptPubKey":{"asm":"0348b24f77eda58d2bf0bd56f764cfdeb0100d2f1058b2d5318f2f2fc9670e730e OP_CHECKSIG","reqSigs":1,"type":"pubkey","addresses":["p8X7huKtvdnnDzc17Xcxxh1Z9ww8ckxvVJ"]}},{"value":9e-7,"n":3,"scriptPubKey":{"asm":"OP_DUP OP_HASH160 f6ea51b1cf22773ff3c68e8299209dc9d69d593f OP_EQUALVERIFY OP_CHECKSIG","reqSigs":1,"type":"pubkeyhash","addresses":["pU498g2Tze2KypwgCnomJXchMWH8HXyZb6"]}}],"blockhash":"5125ed2f9a5330215ae99f2af00c69580421ba1d5d37d16fdc8fd42f37801a9a","confirmations":291,"blocktime":1540435072}