{"hex":"01000000712cd15b020f672afd9fdc8e71008a13810cf90c5e84133121da5cce9cefeb16ab84773987010000006b483045022100c43d14fafd41199727ff7b282909ad7da7fbf29314a7d76cf4d93ffcef3377a2022033b2406700492c475a27ed9974c32b0e88f6346ed1c929114f0838bcdcb905d501210260daf0ec6e8c026fe2ded06abdca76039d488d44f0eea1325b0c7a8908c1be00ffffffff98741b8488b8a476f2acf5ec6863361c16742eb21b8bd9d00aeb66df72577cf6010000006b4830450221009e9f8e4b4b7ed2a389bddc639d15d270291f60fe82b6280cd6063a609ca22ca602203413fc3ce48977547bbfe651317b7aead9fda9510ae7a699e9b7ed6b4d3ccd8501210359b131fe7b3c966c25855643d87e2bb9bd450c0f08cf5331805049dfe3c6d41bffffffff023a691000000000001976a9144c28ee798243702bc4500cdb4da9004130bb47f688acf7a30100000000001976a9140ef59aeec9d9ad853e2767931ad1cf3686a3a28f88ac00000000","txid":"d46cf4272af448b51c01bd74dfc409c07944e040561365868814d7f67a8612b9","version":1,"time":1540435072,"locktime":0,"vin":[{"txid":"87397784ab16ebef9cce5cda213113845e0cf90c81138a00718edc9ffd2a670f","vout":1,"scriptSig":{"asm":"3045022100c43d14fafd41199727ff7b282909ad7da7fbf29314a7d76cf4d93ffcef3377a2022033b2406700492c475a27ed9974c32b0e88f6346ed1c929114f0838bcdcb905d501 0260daf0ec6e8c026fe2ded06abdca76039d488d44f0eea1325b0c7a8908c1be00","hex":"483045022100c43d14fafd41199727ff7b282909ad7da7fbf29314a7d76cf4d93ffcef3377a2022033b2406700492c475a27ed9974c32b0e88f6346ed1c929114f0838bcdcb905d501210260daf0ec6e8c026fe2ded06abdca76039d488d44f0eea1325b0c7a8908c1be00"},"sequence":4294967295},{"txid":"f67c5772df66eb0ad0d98b1bb22e74161c366368ecf5acf276a4b888841b7498","vout":1,"scriptSig":{"asm":"30450221009e9f8e4b4b7ed2a389bddc639d15d270291f60fe82b6280cd6063a609ca22ca602203413fc3ce48977547bbfe651317b7aead9fda9510ae7a699e9b7ed6b4d3ccd8501 0359b131fe7b3c966c25855643d87e2bb9bd450c0f08cf5331805049dfe3c6d41b","hex":"4830450221009e9f8e4b4b7ed2a389bddc639d15d270291f60fe82b6280cd6063a609ca22ca602203413fc3ce48977547bbfe651317b7aead9fda9510ae7a699e9b7ed6b4d3ccd8501210359b131fe7b3c966c25855643d87e2bb9bd450c0f08cf5331805049dfe3c6d41b"},"sequence":4294967295}],"vout":[{"value":0.01075514,"n":0,"scriptPubKey":{"asm":"OP_DUP OP_HASH160 4c28ee798243702bc4500cdb4da9004130bb47f6 OP_EQUALVERIFY OP_CHECKSIG","reqSigs":1,"type":"pubkeyhash","addresses":["pCVGbFvFLapGyskXvwfxG2ss21bRU9FqUh"]}},{"value":0.00107511,"n":1,"scriptPubKey":{"asm":"OP_DUP OP_HASH160 0ef59aeec9d9ad853e2767931ad1cf3686a3a28f OP_EQUALVERIFY OP_CHECKSIG","reqSigs":1,"type":"pubkeyhash","addresses":["p6uftLgDkLpgAkWBvVdq53u5QqiLpnk7Q4"]}}],"blockhash":"5125ed2f9a5330215ae99f2af00c69580421ba1d5d37d16fdc8fd42f37801a9a","confirmations":291,"blocktime":1540435072}