{"hex":"01000000bca6c25b01630a51ce29c4101f14078624f14c5bf9e83190c4cf379fcc1535d406cf0b6054000000006b48304502210083e005b76802984eb9ea8e8ebf12d9dcf04086eb1e85e428344268a68fe1f1bc02207e9944f2b9e830e79850dfa884ef0f94ac737441c01a897b01679d32daed9205012103e31cb77d98e83b1ca15a3e371dbe68f5f3558ed7fe924402757d68c8cc903834ffffffff02001c52d1658223001976a914afd749bc3b32afe8e6664094f6b65a6b40dafae788ac0088526a740000001976a914647e9b327f6e6cc3bcd2b98cb8a85fc3160d6a4588ac00000000","txid":"2db786f4324e3dfb0bdc8738ad6ba985df43a36e40498e035d997c56ee232ac0","version":1,"time":1539483328,"locktime":0,"vin":[{"txid":"54600bcf06d43515cc9f37cfc49031e8f95b4cf1248607141f10c429ce510a63","vout":0,"scriptSig":{"asm":"304502210083e005b76802984eb9ea8e8ebf12d9dcf04086eb1e85e428344268a68fe1f1bc02207e9944f2b9e830e79850dfa884ef0f94ac737441c01a897b01679d32daed920501 03e31cb77d98e83b1ca15a3e371dbe68f5f3558ed7fe924402757d68c8cc903834","hex":"48304502210083e005b76802984eb9ea8e8ebf12d9dcf04086eb1e85e428344268a68fe1f1bc02207e9944f2b9e830e79850dfa884ef0f94ac737441c01a897b01679d32daed9205012103e31cb77d98e83b1ca15a3e371dbe68f5f3558ed7fe924402757d68c8cc903834"},"sequence":4294967295}],"vout":[{"value":99949980,"n":0,"scriptPubKey":{"asm":"OP_DUP OP_HASH160 afd749bc3b32afe8e6664094f6b65a6b40dafae7 OP_EQUALVERIFY OP_CHECKSIG","reqSigs":1,"type":"pubkeyhash","addresses":["pMaLMkULtdDPcpVuchGWwrCPW8ybW4zLnG"]}},{"value":5000,"n":1,"scriptPubKey":{"asm":"OP_DUP OP_HASH160 647e9b327f6e6cc3bcd2b98cb8a85fc3160d6a45 OP_EQUALVERIFY OP_CHECKSIG","reqSigs":1,"type":"pubkeyhash","addresses":["pEhwSeKiP8Q9UV5H4Vwts61nBy8VHfUUbd"]}}],"blockhash":"879842e5b8cda59d37fd5d7912415d74b5634535f776fee71f9ce9ea87f8a578","confirmations":52,"blocktime":1539483328}