{"hex":"01000000c0a6c25b0123039c1dbd23ecaed97cb1a9c2e469821199a107120d74d7581e73ab033084c10100000048473044022000873fbfd9b7a2449347111b464167f72ace6ea608f7cfb0b96ee3974a59ec6a0220339a10802f3b15c60d071a01f2e4df07c05db67a1c880bfc8056cfc4e2cdc15001ffffffff040000000000000000004074741e1d0000002321028d9be6ae35cf9126d1ddd81f7e9a33d77e64d908c42bf417d6424ba1da9106a6ac4074741e1d0000002321028d9be6ae35cf9126d1ddd81f7e9a33d77e64d908c42bf417d6424ba1da9106a6ac80fe210a000000001976a9148e3f6e3d2f029829ca356517f18e326c94cd54cd88ac00000000","txid":"f478cf4e5bc0f19bb50fa98d7a63c00c7620562e82aee29eadcd69570394f245","version":1,"time":1539483328,"locktime":0,"vin":[{"txid":"c1843003ab731e58d7740d1207a199118269e4c2a9b17cd9aeec23bd1d9c0323","vout":1,"scriptSig":{"asm":"3044022000873fbfd9b7a2449347111b464167f72ace6ea608f7cfb0b96ee3974a59ec6a0220339a10802f3b15c60d071a01f2e4df07c05db67a1c880bfc8056cfc4e2cdc15001","hex":"473044022000873fbfd9b7a2449347111b464167f72ace6ea608f7cfb0b96ee3974a59ec6a0220339a10802f3b15c60d071a01f2e4df07c05db67a1c880bfc8056cfc4e2cdc15001"},"sequence":4294967295}],"vout":[{"value":0,"n":0,"scriptPubKey":{"asm":"","type":"nonstandard"}},{"value":1250.65,"n":1,"scriptPubKey":{"asm":"028d9be6ae35cf9126d1ddd81f7e9a33d77e64d908c42bf417d6424ba1da9106a6 OP_CHECKSIG","reqSigs":1,"type":"pubkey","addresses":["pG17eAwgEzq6zQQ7cLzvCMepRqGYMprwdz"]}},{"value":1250.65,"n":2,"scriptPubKey":{"asm":"028d9be6ae35cf9126d1ddd81f7e9a33d77e64d908c42bf417d6424ba1da9106a6 OP_CHECKSIG","reqSigs":1,"type":"pubkey","addresses":["pG17eAwgEzq6zQQ7cLzvCMepRqGYMprwdz"]}},{"value":1.7,"n":3,"scriptPubKey":{"asm":"OP_DUP OP_HASH160 8e3f6e3d2f029829ca356517f18e326c94cd54cd OP_EQUALVERIFY OP_CHECKSIG","reqSigs":1,"type":"pubkeyhash","addresses":["pJWi9BXT9hsVaAft92RNcufBy1LZGU4RtT"]}}],"blockhash":"879842e5b8cda59d37fd5d7912415d74b5634535f776fee71f9ce9ea87f8a578","confirmations":338,"blocktime":1539483328}