{"hex":"010000002063dc5b01c7a89a50fa64a19723e2d6b765490d875b7f710b5f9bfe6ae11dabe8a61c3b3e0100000048473044022030fbc8445c2598afa5adb2c4bb4a29bc7bc8ed72d734d7ca093b8e63b56ec72d0220444b3354c0a09439f3ef3e2958bc85c07518500fb8cd81201261bc9b706d6a0f01ffffffff0400000000000000000040efd246070000002321026ef57679057df94a5f72e9fead08857f8d7253a593b2b1feed1b68e92df4a4c5acff6be246070000002321026ef57679057df94a5f72e9fead08857f8d7253a593b2b1feed1b68e92df4a4c5ac7a4b0100000000001976a914239bf4dba7e2193b7f701a7b68d0e94c85d85fac88ac00000000","txid":"2dad57c4ef22c327b55c4c05f0c2d6873c2191288664eabf14c6ab7b6f91acf5","version":1,"time":1541169952,"locktime":0,"vin":[{"txid":"3e3b1ca6e8ab1de16afe9b5f0b717f5b870d4965b7d6e22397a164fa509aa8c7","vout":1,"scriptSig":{"asm":"3044022030fbc8445c2598afa5adb2c4bb4a29bc7bc8ed72d734d7ca093b8e63b56ec72d0220444b3354c0a09439f3ef3e2958bc85c07518500fb8cd81201261bc9b706d6a0f01","hex":"473044022030fbc8445c2598afa5adb2c4bb4a29bc7bc8ed72d734d7ca093b8e63b56ec72d0220444b3354c0a09439f3ef3e2958bc85c07518500fb8cd81201261bc9b706d6a0f01"},"sequence":4294967295}],"vout":[{"value":0,"n":0,"scriptPubKey":{"asm":"","type":"nonstandard"}},{"value":312.53,"n":1,"scriptPubKey":{"asm":"026ef57679057df94a5f72e9fead08857f8d7253a593b2b1feed1b68e92df4a4c5 OP_CHECKSIG","reqSigs":1,"type":"pubkey","addresses":["p5dRZ9MeyiKDma1pAUrsmvEK4NBmmdC4ZN"]}},{"value":312.54014975,"n":2,"scriptPubKey":{"asm":"026ef57679057df94a5f72e9fead08857f8d7253a593b2b1feed1b68e92df4a4c5 OP_CHECKSIG","reqSigs":1,"type":"pubkey","addresses":["p5dRZ9MeyiKDma1pAUrsmvEK4NBmmdC4ZN"]}},{"value":0.00084858,"n":3,"scriptPubKey":{"asm":"OP_DUP OP_HASH160 239bf4dba7e2193b7f701a7b68d0e94c85d85fac OP_EQUALVERIFY OP_CHECKSIG","reqSigs":1,"type":"pubkeyhash","addresses":["p8nrgTxTfKDC3hvmSmFxDcxpYguUCo8yWb"]}}],"blockhash":"b03a2ac6d710927f0f3f5395e33d41f6d1bd1aa46fb11828f5dd782c1085e794","confirmations":79,"blocktime":1541169952}