{"hex":"010000001463dc5b031fc996d04f33e4ae33561c52dcd9669e0d107db897ecdebae7cda51dc2220d5b010000006b483045022100d6da8000e3052e59f860c15913eba8f3738be1b6ce489eea9b47fa9fde74e58e02205595acf3fc2f42afe472652e6ab80a6f892895d78b450d61048f379fc5ea6836012102e56eaa6b0cb81df5c102f92ccec1bf1dae74b89fd68195ca54a06c0537d942aeffffffff4535441a216e15b724f485abb776b01555029c57d09d17af3992a035d1752c7c000000006b4830450221008b53d0de31e1aea240b458f1d1365da302917ee4b3785016f73d557277202298022024eba8c8cb42b8a7b79ccfcc028bfd4f07e265a4e1b8110f4a4b094510e0a656012102614f0cab971a1bc73b6211170a9c0c5d7f94dac019656098bb608f2871ca5a40ffffffff6956927b1fb97da74d68a8dce2e052bfb10121f366e244e23588fc7ffb88d486000000006a473044022000a1055ff34bfee291cc7d11438e1ad82e6f9fd3a45843a788c1e136e85ecef702202e411634e6275116de9d64a5d4379ce340dbbaf5e5f61f6b992a28a94b4cea58012102c4e1353f1e4301277b4bd412bf6b6625580d543c6886866049e2c41f093b8dabffffffff0201f42400000000001976a914256c177d5b63dbebc60998b001cf525dcc6b0cee88ac6456f305000000001976a914461d708916e28aae12a161a7ebde424d1747211188ac00000000","txid":"87eee08e4d8282ea025a4efdde8d8c4b8f23fae12c25fd46dcb132f0a929d9af","version":1,"time":1541169952,"locktime":0,"vin":[{"txid":"5b0d22c21da5cde7badeec97b87d100d9e66d9dc521c5633aee4334fd096c91f","vout":1,"scriptSig":{"asm":"3045022100d6da8000e3052e59f860c15913eba8f3738be1b6ce489eea9b47fa9fde74e58e02205595acf3fc2f42afe472652e6ab80a6f892895d78b450d61048f379fc5ea683601 02e56eaa6b0cb81df5c102f92ccec1bf1dae74b89fd68195ca54a06c0537d942ae","hex":"483045022100d6da8000e3052e59f860c15913eba8f3738be1b6ce489eea9b47fa9fde74e58e02205595acf3fc2f42afe472652e6ab80a6f892895d78b450d61048f379fc5ea6836012102e56eaa6b0cb81df5c102f92ccec1bf1dae74b89fd68195ca54a06c0537d942ae"},"sequence":4294967295},{"txid":"7c2c75d135a09239af179dd0579c025515b076b7ab85f424b7156e211a443545","vout":0,"scriptSig":{"asm":"30450221008b53d0de31e1aea240b458f1d1365da302917ee4b3785016f73d557277202298022024eba8c8cb42b8a7b79ccfcc028bfd4f07e265a4e1b8110f4a4b094510e0a65601 02614f0cab971a1bc73b6211170a9c0c5d7f94dac019656098bb608f2871ca5a40","hex":"4830450221008b53d0de31e1aea240b458f1d1365da302917ee4b3785016f73d557277202298022024eba8c8cb42b8a7b79ccfcc028bfd4f07e265a4e1b8110f4a4b094510e0a656012102614f0cab971a1bc73b6211170a9c0c5d7f94dac019656098bb608f2871ca5a40"},"sequence":4294967295},{"txid":"86d488fb7ffc8835e244e266f32101b1bf52e0e2dca8684da77db91f7b925669","vout":0,"scriptSig":{"asm":"3044022000a1055ff34bfee291cc7d11438e1ad82e6f9fd3a45843a788c1e136e85ecef702202e411634e6275116de9d64a5d4379ce340dbbaf5e5f61f6b992a28a94b4cea5801 02c4e1353f1e4301277b4bd412bf6b6625580d543c6886866049e2c41f093b8dab","hex":"473044022000a1055ff34bfee291cc7d11438e1ad82e6f9fd3a45843a788c1e136e85ecef702202e411634e6275116de9d64a5d4379ce340dbbaf5e5f61f6b992a28a94b4cea58012102c4e1353f1e4301277b4bd412bf6b6625580d543c6886866049e2c41f093b8dab"},"sequence":4294967295}],"vout":[{"value":0.02421761,"n":0,"scriptPubKey":{"asm":"OP_DUP OP_HASH160 256c177d5b63dbebc60998b001cf525dcc6b0cee OP_EQUALVERIFY OP_CHECKSIG","reqSigs":1,"type":"pubkeyhash","addresses":["p8xSh9fTofXWYPtmvCb97XznoLXYmQCTNy"]}},{"value":0.99833444,"n":1,"scriptPubKey":{"asm":"OP_DUP OP_HASH160 461d708916e28aae12a161a7ebde424d17472111 OP_EQUALVERIFY OP_CHECKSIG","reqSigs":1,"type":"pubkeyhash","addresses":["pBwJmddZWeu2bM3EoNWZEB8qMoVKgTmGuB"]}}],"blockhash":"b03a2ac6d710927f0f3f5395e33d41f6d1bd1aa46fb11828f5dd782c1085e794","confirmations":79,"blocktime":1541169952}