{"hex":"01000000c163df5b03af7676ce4c8f43cf499419febf4fa5907c1a622cdc6c37bc3af196ac89b11cc1000000006b48304502210092209339ac263729bb1d53c9af402c43a4f4235c493ed9f60054192780c3c8e202200c8ced24711ebb3c3b3b0ab166b0bacf53c8e893db5efd20e78ac38f34a34bdb012102bbb1ce5e998c1d152b40dd69d0837159f0a5596b2f04ef3b887978a6cbada80cfffffffffbfe56a26dda243920f5ced341b3a9e79a2e7fa00873755d4d2d5def55d4caf8000000006a473044022044f81f45e0110157fb45c25f3b2079a759936fe73d8061794c17caf6f6495af3022065c8eff47bc270b48a74329ea5a2671716ac3755e1b2ec121f6feb640f2898ec0121020e56b98d96059812ba66030cd514de44be64f60b389e17252f6c7fdef575696dfffffffffbfe56a26dda243920f5ced341b3a9e79a2e7fa00873755d4d2d5def55d4caf8010000006b483045022100ce58d1e890f17613f0ffd0396f77b20fdc0e518bb259b157cbc201bab37b72110220580f3cdb9b41aaf28793f29f343b908e36b87e3034446d94b4f6f1d3d5f923410121028034480bac098a61bfdb060f24571ec2f8abfde47ba06ceb8bf2df5c73547529ffffffff026f261400000000001976a914b9f3d781f7d99f65d068998a288759e0a638d31288ac00a3e111000000001976a914dd9788d5deef86e65ec2e586f30c41755d401f5b88ac00000000","txid":"627fa7fd0be5fb00cf3ad3a2587f22e7285468e0143cda052faf1280f7379a17","version":1,"time":1541366736,"locktime":0,"vin":[{"txid":"c11cb189ac96f13abc376cdc2c621a7c90a54fbffe199449cf438f4cce7676af","vout":0,"scriptSig":{"asm":"304502210092209339ac263729bb1d53c9af402c43a4f4235c493ed9f60054192780c3c8e202200c8ced24711ebb3c3b3b0ab166b0bacf53c8e893db5efd20e78ac38f34a34bdb01 02bbb1ce5e998c1d152b40dd69d0837159f0a5596b2f04ef3b887978a6cbada80c","hex":"48304502210092209339ac263729bb1d53c9af402c43a4f4235c493ed9f60054192780c3c8e202200c8ced24711ebb3c3b3b0ab166b0bacf53c8e893db5efd20e78ac38f34a34bdb012102bbb1ce5e998c1d152b40dd69d0837159f0a5596b2f04ef3b887978a6cbada80c"},"sequence":4294967295},{"txid":"f8cad455ef5d2d4d5d757308a07f2e9ae7a9b341d3cef5203924da6da256fefb","vout":0,"scriptSig":{"asm":"3044022044f81f45e0110157fb45c25f3b2079a759936fe73d8061794c17caf6f6495af3022065c8eff47bc270b48a74329ea5a2671716ac3755e1b2ec121f6feb640f2898ec01 020e56b98d96059812ba66030cd514de44be64f60b389e17252f6c7fdef575696d","hex":"473044022044f81f45e0110157fb45c25f3b2079a759936fe73d8061794c17caf6f6495af3022065c8eff47bc270b48a74329ea5a2671716ac3755e1b2ec121f6feb640f2898ec0121020e56b98d96059812ba66030cd514de44be64f60b389e17252f6c7fdef575696d"},"sequence":4294967295},{"txid":"f8cad455ef5d2d4d5d757308a07f2e9ae7a9b341d3cef5203924da6da256fefb","vout":1,"scriptSig":{"asm":"3045022100ce58d1e890f17613f0ffd0396f77b20fdc0e518bb259b157cbc201bab37b72110220580f3cdb9b41aaf28793f29f343b908e36b87e3034446d94b4f6f1d3d5f9234101 028034480bac098a61bfdb060f24571ec2f8abfde47ba06ceb8bf2df5c73547529","hex":"483045022100ce58d1e890f17613f0ffd0396f77b20fdc0e518bb259b157cbc201bab37b72110220580f3cdb9b41aaf28793f29f343b908e36b87e3034446d94b4f6f1d3d5f923410121028034480bac098a61bfdb060f24571ec2f8abfde47ba06ceb8bf2df5c73547529"},"sequence":4294967295}],"vout":[{"value":0.01320559,"n":0,"scriptPubKey":{"asm":"OP_DUP OP_HASH160 b9f3d781f7d99f65d068998a288759e0a638d312 OP_EQUALVERIFY OP_CHECKSIG","reqSigs":1,"type":"pubkeyhash","addresses":["pNVoKczQ6P92yawDZejgg9H8khMTR2Sf2j"]}},{"value":3,"n":1,"scriptPubKey":{"asm":"OP_DUP OP_HASH160 dd9788d5deef86e65ec2e586f30c41755d401f5b OP_EQUALVERIFY OP_CHECKSIG","reqSigs":1,"type":"pubkeyhash","addresses":["pRkF4uJk22M4nKBiKMb8y791sxiaLEJWbk"]}}],"blockhash":"2afe83f10d4fa63acbb910f2105a3a6d8656a911cd7e930e89e7ffd9a9e76a65","confirmations":42,"blocktime":1541366736}