{"hex":"01000000d063df5b01a5c9e0654fc3e7e6ef66d1cd4ee8e88a89f1127d9e73a47e0460b69970da8f7a0100000049483045022100e7c4a525393e0546af1c26897dce2493b256dfaddf68d500469de73483413e05022006493c74d925af6fd78b2ae86de4cf8e4fe01f6f2cb09d6c621f6b482b6afd0e01ffffffff030000000000000000004113d03c00000000232103b243e492fed06b260d1c6384b7578d20f178d778b69bc3ca5028e941e4ef64acac18e40300000000001976a9144c86b0b2edcbbfcf0d0112bbb160a541568205b788ac00000000","txid":"c0b79dcd4951167a0ffa00c028a622c2eebce3e4fbaa229ded77aea8503ced99","version":1,"time":1541366736,"locktime":0,"vin":[{"txid":"7a8fda7099b660047ea4739e7d12f1898ae8e84ecdd166efe6e7c34f65e0c9a5","vout":1,"scriptSig":{"asm":"3045022100e7c4a525393e0546af1c26897dce2493b256dfaddf68d500469de73483413e05022006493c74d925af6fd78b2ae86de4cf8e4fe01f6f2cb09d6c621f6b482b6afd0e01","hex":"483045022100e7c4a525393e0546af1c26897dce2493b256dfaddf68d500469de73483413e05022006493c74d925af6fd78b2ae86de4cf8e4fe01f6f2cb09d6c621f6b482b6afd0e01"},"sequence":4294967295}],"vout":[{"value":0,"n":0,"scriptPubKey":{"asm":"","type":"nonstandard"}},{"value":10.20269377,"n":1,"scriptPubKey":{"asm":"03b243e492fed06b260d1c6384b7578d20f178d778b69bc3ca5028e941e4ef64ac OP_CHECKSIG","reqSigs":1,"type":"pubkey","addresses":["pU498g2Tze2KypwgCnomJXchMWH8HXyZb6"]}},{"value":0.00255,"n":2,"scriptPubKey":{"asm":"OP_DUP OP_HASH160 4c86b0b2edcbbfcf0d0112bbb160a541568205b7 OP_EQUALVERIFY OP_CHECKSIG","reqSigs":1,"type":"pubkeyhash","addresses":["pCXCuj4F9uaYHMue5Nqy3XLKdLz4U9gRoi"]}}],"blockhash":"2afe83f10d4fa63acbb910f2105a3a6d8656a911cd7e930e89e7ffd9a9e76a65","confirmations":42,"blocktime":1541366736}