{"hex":"010000000094dc5b013b9d23441e979fb2b9884cc8146147a3d77b18e812e41c1591c05c3769f37dc801000000484730440220083a5f58a2168262c5dc9b2cc20887e28187ad30f45d922102865a705d241a4f022054e5f133a135a940e00ddbb07cecb7c88efc64552dfce7aff57b741de3582be101ffffffff0400000000000000000000a2941a1d000000232103b243e492fed06b260d1c6384b7578d20f178d778b69bc3ca5028e941e4ef64acac98dc941a1d000000232103b243e492fed06b260d1c6384b7578d20f178d778b69bc3ca5028e941e4ef64acac084c0100000000001976a9144c86b0b2edcbbfcf0d0112bbb160a541568205b788ac00000000","txid":"991946135e03415e67a35b7986f2b7202756b40039943b06acbbe752efc43df5","version":1,"time":1541182464,"locktime":0,"vin":[{"txid":"c87df369375cc091151ce412e8187bd7a3476114c84c88b9b29f971e44239d3b","vout":1,"scriptSig":{"asm":"30440220083a5f58a2168262c5dc9b2cc20887e28187ad30f45d922102865a705d241a4f022054e5f133a135a940e00ddbb07cecb7c88efc64552dfce7aff57b741de3582be101","hex":"4730440220083a5f58a2168262c5dc9b2cc20887e28187ad30f45d922102865a705d241a4f022054e5f133a135a940e00ddbb07cecb7c88efc64552dfce7aff57b741de3582be101"},"sequence":4294967295}],"vout":[{"value":0,"n":0,"scriptPubKey":{"asm":"","type":"nonstandard"}},{"value":1250,"n":1,"scriptPubKey":{"asm":"03b243e492fed06b260d1c6384b7578d20f178d778b69bc3ca5028e941e4ef64ac OP_CHECKSIG","reqSigs":1,"type":"pubkey","addresses":["pU498g2Tze2KypwgCnomJXchMWH8HXyZb6"]}},{"value":1250.00015,"n":2,"scriptPubKey":{"asm":"03b243e492fed06b260d1c6384b7578d20f178d778b69bc3ca5028e941e4ef64ac OP_CHECKSIG","reqSigs":1,"type":"pubkey","addresses":["pU498g2Tze2KypwgCnomJXchMWH8HXyZb6"]}},{"value":0.00085,"n":3,"scriptPubKey":{"asm":"OP_DUP OP_HASH160 4c86b0b2edcbbfcf0d0112bbb160a541568205b7 OP_EQUALVERIFY OP_CHECKSIG","reqSigs":1,"type":"pubkeyhash","addresses":["pCXCuj4F9uaYHMue5Nqy3XLKdLz4U9gRoi"]}}],"blockhash":"038db65c6217f1f8b383b661ef67dfcf1e997d7f7bcae679dd10bdde64f04abe","confirmations":61,"blocktime":1541182464}