{"hex":"01000000f993dc5b0161c3afe269b7097d6d6e059862bfd8c5b299fb2bfadefdb1dad267dce91f16f3010000006a47304402206d3e5c9e02646b30102a06e42502b2929514b45b9bb6a74f63a5f553914697bd02201d78609ab26f967fddf29b4cfb8234d8003e8ba3273d4a69a50353bf418ac980012102b0605b0be783ba239aa84c0be1a0d0c35dad603f101156d8513c3e8f3ed6aba9ffffffff024de93837010000001976a914458a2001584620154f12c4d34a056cfe6ef5fd0388ac00e1f505000000001976a9144654cee9decb9aaa372e20670f078daed14d7f9288ac00000000","txid":"cc198aca80870049e1898a041b5b3cf9d0e2b9f388bc19ee5908afd0fa421f8b","version":1,"time":1541182464,"locktime":0,"vin":[{"txid":"f3161fe9dc67d2dab1fddefa2bfb99b2c5d8bf6298056e6d7d09b769e2afc361","vout":1,"scriptSig":{"asm":"304402206d3e5c9e02646b30102a06e42502b2929514b45b9bb6a74f63a5f553914697bd02201d78609ab26f967fddf29b4cfb8234d8003e8ba3273d4a69a50353bf418ac98001 02b0605b0be783ba239aa84c0be1a0d0c35dad603f101156d8513c3e8f3ed6aba9","hex":"47304402206d3e5c9e02646b30102a06e42502b2929514b45b9bb6a74f63a5f553914697bd02201d78609ab26f967fddf29b4cfb8234d8003e8ba3273d4a69a50353bf418ac980012102b0605b0be783ba239aa84c0be1a0d0c35dad603f101156d8513c3e8f3ed6aba9"},"sequence":4294967295}],"vout":[{"value":52.21443917,"n":0,"scriptPubKey":{"asm":"OP_DUP OP_HASH160 458a2001584620154f12c4d34a056cfe6ef5fd03 OP_EQUALVERIFY OP_CHECKSIG","reqSigs":1,"type":"pubkeyhash","addresses":["pBtGJ356tdNPq8XpzpoPb7eRp5q8BzCkdu"]}},{"value":1,"n":1,"scriptPubKey":{"asm":"OP_DUP OP_HASH160 4654cee9decb9aaa372e20670f078daed14d7f92 OP_EQUALVERIFY OP_CHECKSIG","reqSigs":1,"type":"pubkeyhash","addresses":["pBxT6iQCs3c5ruCG2fERwGKqJwK1ztDr3S"]}}],"blockhash":"038db65c6217f1f8b383b661ef67dfcf1e997d7f7bcae679dd10bdde64f04abe","confirmations":61,"blocktime":1541182464}