{"hex":"0100000020cbdd5b01167dee097acbe600517da093fbef931d96402791b44251c9c356389518e13b32010000006b483045022100fc3fdb7089da2885f5415ada1b98bc3b0ec8f10e2c73f9099441d1578c43443002206f6068b70c80359aa58364ecbd422ed75448772e8ade2c8b12d44ecc03d0f84c012103ded637fb2e1237df3883677d705f85a97ed346e525b021a0c91a13b35307eb36ffffffff04000000000000000000004429353a000000232103ded637fb2e1237df3883677d705f85a97ed346e525b021a0c91a13b35307eb36ac0f4429353a000000232103ded637fb2e1237df3883677d705f85a97ed346e525b021a0c91a13b35307eb36ac55000000000000001976a91413cd926daa0b2e1422cabca27e3cbc3aebbee60e88ac00000000","txid":"3751971a15e9330506160d579743bd38b7cdc38f27017fae656a1e3b9aab4c8f","version":1,"time":1541262112,"locktime":0,"vin":[{"txid":"323be118953856c3c95142b4912740961d93effb93a07d5100e6cb7a09ee7d16","vout":1,"scriptSig":{"asm":"3045022100fc3fdb7089da2885f5415ada1b98bc3b0ec8f10e2c73f9099441d1578c43443002206f6068b70c80359aa58364ecbd422ed75448772e8ade2c8b12d44ecc03d0f84c01 03ded637fb2e1237df3883677d705f85a97ed346e525b021a0c91a13b35307eb36","hex":"483045022100fc3fdb7089da2885f5415ada1b98bc3b0ec8f10e2c73f9099441d1578c43443002206f6068b70c80359aa58364ecbd422ed75448772e8ade2c8b12d44ecc03d0f84c012103ded637fb2e1237df3883677d705f85a97ed346e525b021a0c91a13b35307eb36"},"sequence":4294967295}],"vout":[{"value":0,"n":0,"scriptPubKey":{"asm":"","type":"nonstandard"}},{"value":2500,"n":1,"scriptPubKey":{"asm":"03ded637fb2e1237df3883677d705f85a97ed346e525b021a0c91a13b35307eb36 OP_CHECKSIG","reqSigs":1,"type":"pubkey","addresses":["pKPGpRbrLFtB8pJLBr7nVTxsjHpfbwG83K"]}},{"value":2500.00000015,"n":2,"scriptPubKey":{"asm":"03ded637fb2e1237df3883677d705f85a97ed346e525b021a0c91a13b35307eb36 OP_CHECKSIG","reqSigs":1,"type":"pubkey","addresses":["pKPGpRbrLFtB8pJLBr7nVTxsjHpfbwG83K"]}},{"value":8.5e-7,"n":3,"scriptPubKey":{"asm":"OP_DUP OP_HASH160 13cd926daa0b2e1422cabca27e3cbc3aebbee60e OP_EQUALVERIFY OP_CHECKSIG","reqSigs":1,"type":"pubkeyhash","addresses":["p7MHJk1NCoVwVPjx7mEGWrpeSkLSYSZyuV"]}}],"blockhash":"0660b2e0cd0bb064a34f2d02794f90e053fd5bfa7d97a4bd473db74c4f48f944","confirmations":49,"blocktime":1541262112}