{"hex":"010000001fcbdd5b040882840b912e45f91be8ead5b45cbf7c88c8506523b3ba61926598d9d379ea4d020000006b483045022100dc1e1d61176a189e6d81f9d169a55067f0e7803ca9c79f90574f61aef8d13ca902202291a5f21fb4696bfbb1612250ad362410319ac5736df59f34f3b7efab4d97d8012102bbb1ce5e998c1d152b40dd69d0837159f0a5596b2f04ef3b887978a6cbada80cffffffff491c68bf4fbdac084b5d91d11c6a1b56b8204d55d93e4ef40273665a5438f98c020000006a4730440220039da951e5984414265bd8f6d5110fd7e9127845a91d557b02a21eea90c1dc5602205f649044a38275ad3f9a8933e972ebc118f4f0a5ac10b3f9022a0dcd0751c8b5012102bbb1ce5e998c1d152b40dd69d0837159f0a5596b2f04ef3b887978a6cbada80cffffffffeabf986fb1cae1e920e6df404ff344511758027572e3ec0786a9e67e9831fd2c020000006a473044022100a84f664e16ea7a130375a4f00ee458e1bef5b6484d91744e97de32e4acd2b2c2021f1f01062eeb76452fc0790dcaf7f3592924a4da72bd37cc8328788c31bfccbd012102bbb1ce5e998c1d152b40dd69d0837159f0a5596b2f04ef3b887978a6cbada80cffffffff665355db5e3164db306de96bf48e69fab36aedcbb1c7de7f160d5156a742f848010000006b483045022100d1ec6f4d836df8c85229efce181f37922e6bbfe2579fd0aa6a6f0ae298785f30022003fcab777b29cbddeba5545a032961db7cf83aab200614015484323746d0bffc0121037417c7f936819f8627e91c0561b2384f08726f64c637f58cd781eb090a8ef14effffffff0251900f00000000001976a914b9f3d781f7d99f65d068998a288759e0a638d31288aca0860100000000001976a91402c6fbaf78c673e242122d517e98038a707af07788ac00000000","txid":"c11cb189ac96f13abc376cdc2c621a7c90a54fbffe199449cf438f4cce7676af","version":1,"time":1541262112,"locktime":0,"vin":[{"txid":"4dea79d3d998659261bab3236550c8887cbf5cb4d5eae81bf9452e910b848208","vout":2,"scriptSig":{"asm":"3045022100dc1e1d61176a189e6d81f9d169a55067f0e7803ca9c79f90574f61aef8d13ca902202291a5f21fb4696bfbb1612250ad362410319ac5736df59f34f3b7efab4d97d801 02bbb1ce5e998c1d152b40dd69d0837159f0a5596b2f04ef3b887978a6cbada80c","hex":"483045022100dc1e1d61176a189e6d81f9d169a55067f0e7803ca9c79f90574f61aef8d13ca902202291a5f21fb4696bfbb1612250ad362410319ac5736df59f34f3b7efab4d97d8012102bbb1ce5e998c1d152b40dd69d0837159f0a5596b2f04ef3b887978a6cbada80c"},"sequence":4294967295},{"txid":"8cf938545a667302f44e3ed9554d20b8561b6a1cd1915d4b08acbd4fbf681c49","vout":2,"scriptSig":{"asm":"30440220039da951e5984414265bd8f6d5110fd7e9127845a91d557b02a21eea90c1dc5602205f649044a38275ad3f9a8933e972ebc118f4f0a5ac10b3f9022a0dcd0751c8b501 02bbb1ce5e998c1d152b40dd69d0837159f0a5596b2f04ef3b887978a6cbada80c","hex":"4730440220039da951e5984414265bd8f6d5110fd7e9127845a91d557b02a21eea90c1dc5602205f649044a38275ad3f9a8933e972ebc118f4f0a5ac10b3f9022a0dcd0751c8b5012102bbb1ce5e998c1d152b40dd69d0837159f0a5596b2f04ef3b887978a6cbada80c"},"sequence":4294967295},{"txid":"2cfd31987ee6a98607ece372750258175144f34f40dfe620e9e1cab16f98bfea","vout":2,"scriptSig":{"asm":"3044022100a84f664e16ea7a130375a4f00ee458e1bef5b6484d91744e97de32e4acd2b2c2021f1f01062eeb76452fc0790dcaf7f3592924a4da72bd37cc8328788c31bfccbd01 02bbb1ce5e998c1d152b40dd69d0837159f0a5596b2f04ef3b887978a6cbada80c","hex":"473044022100a84f664e16ea7a130375a4f00ee458e1bef5b6484d91744e97de32e4acd2b2c2021f1f01062eeb76452fc0790dcaf7f3592924a4da72bd37cc8328788c31bfccbd012102bbb1ce5e998c1d152b40dd69d0837159f0a5596b2f04ef3b887978a6cbada80c"},"sequence":4294967295},{"txid":"48f842a756510d167fdec7b1cbed6ab3fa698ef46be96d30db64315edb555366","vout":1,"scriptSig":{"asm":"3045022100d1ec6f4d836df8c85229efce181f37922e6bbfe2579fd0aa6a6f0ae298785f30022003fcab777b29cbddeba5545a032961db7cf83aab200614015484323746d0bffc01 037417c7f936819f8627e91c0561b2384f08726f64c637f58cd781eb090a8ef14e","hex":"483045022100d1ec6f4d836df8c85229efce181f37922e6bbfe2579fd0aa6a6f0ae298785f30022003fcab777b29cbddeba5545a032961db7cf83aab200614015484323746d0bffc0121037417c7f936819f8627e91c0561b2384f08726f64c637f58cd781eb090a8ef14e"},"sequence":4294967295}],"vout":[{"value":0.01019985,"n":0,"scriptPubKey":{"asm":"OP_DUP OP_HASH160 b9f3d781f7d99f65d068998a288759e0a638d312 OP_EQUALVERIFY OP_CHECKSIG","reqSigs":1,"type":"pubkeyhash","addresses":["pNVoKczQ6P92yawDZejgg9H8khMTR2Sf2j"]}},{"value":0.001,"n":1,"scriptPubKey":{"asm":"OP_DUP OP_HASH160 02c6fbaf78c673e242122d517e98038a707af077 OP_EQUALVERIFY OP_CHECKSIG","reqSigs":1,"type":"pubkeyhash","addresses":["p5oFvgRk8U6manRdvH2v7DinLvjg17uMNB"]}}],"blockhash":"0660b2e0cd0bb064a34f2d02794f90e053fd5bfa7d97a4bd473db74c4f48f944","confirmations":49,"blocktime":1541262112}