{"hex":"01000000825cc35b01fa8e969e30c99a14eed7e41fde74796e85e0a3734c686b9251de00b28953f186000000006a473044022062f2b0ff730db39741c4fa2429ae75c43e55e71f5de41b4c4cccfb64a8b52cab02201ed5f7279fa020e4f99491f709a884bfd649acc68a9a59843722dd49051bd66301210273a4fa881fe884fd6224457db74679e7e6660ccdcc2c8eccceacd2b8405911b2ffffffff0200322ff7a97a23001976a914b0c543e3e49a3ce54d75828d8d15b8a56e05841688ac0088526a740000001976a91497cf81798c9f5e48463f6e018e82c7f5d25f8e4c88ac00000000","txid":"323be118953856c3c95142b4912740961d93effb93a07d5100e6cb7a09ee7d16","version":1,"time":1539529872,"locktime":0,"vin":[{"txid":"86f15389b200de51926b684c73a3e0856e7974de1fe4d7ee149ac9309e968efa","vout":0,"scriptSig":{"asm":"3044022062f2b0ff730db39741c4fa2429ae75c43e55e71f5de41b4c4cccfb64a8b52cab02201ed5f7279fa020e4f99491f709a884bfd649acc68a9a59843722dd49051bd66301 0273a4fa881fe884fd6224457db74679e7e6660ccdcc2c8eccceacd2b8405911b2","hex":"473044022062f2b0ff730db39741c4fa2429ae75c43e55e71f5de41b4c4cccfb64a8b52cab02201ed5f7279fa020e4f99491f709a884bfd649acc68a9a59843722dd49051bd66301210273a4fa881fe884fd6224457db74679e7e6660ccdcc2c8eccceacd2b8405911b2"},"sequence":4294967295}],"vout":[{"value":99864946,"n":0,"scriptPubKey":{"asm":"OP_DUP OP_HASH160 b0c543e3e49a3ce54d75828d8d15b8a56e058416 OP_EQUALVERIFY OP_CHECKSIG","reqSigs":1,"type":"pubkeyhash","addresses":["pMfFShCEkMkVSbQh1R8X4858nzN1hrtDCE"]}},{"value":5000,"n":1,"scriptPubKey":{"asm":"OP_DUP OP_HASH160 97cf81798c9f5e48463f6e018e82c7f5d25f8e4c OP_EQUALVERIFY OP_CHECKSIG","reqSigs":1,"type":"pubkeyhash","addresses":["pKPGpRbrLFtB8pJLBr7nVTxsjHpfbwG83K"]}}],"blockhash":"3517b00f484c94e8e4a3aae42bfbb0abfdf0ae07e1ecf92cad360abf234e4720","confirmations":325,"blocktime":1539529872}