{"hex":"01000000905cc35b01871a980cac8953dafe95a9fd6500af15f789c2cf84e4e647be85e2096e53bb5b0100000048473044022043600669e28a0c3f8d09325500b7b7724b03df90cce73affb78ec1dea4ab6bc5022070cf5ffa5769f945b3b181458900139634453a336a532196a8d04e1585b3913101ffffffff04000000000000000000800bd78e0e00000023210348b24f77eda58d2bf0bd56f764cfdeb0100d2f1058b2d5318f2f2fc9670e730eac800bd78e0e00000023210348b24f77eda58d2bf0bd56f764cfdeb0100d2f1058b2d5318f2f2fc9670e730eac80fe210a000000001976a914f6ea51b1cf22773ff3c68e8299209dc9d69d593f88ac00000000","txid":"83f300afddcc37c88ce9a340387343cfe852a89ccb221e1da3ae1842232f606c","version":1,"time":1539529872,"locktime":0,"vin":[{"txid":"5bbb536e09e285be47e6e484cfc289f715af0065fda995feda5389ac0c981a87","vout":1,"scriptSig":{"asm":"3044022043600669e28a0c3f8d09325500b7b7724b03df90cce73affb78ec1dea4ab6bc5022070cf5ffa5769f945b3b181458900139634453a336a532196a8d04e1585b3913101","hex":"473044022043600669e28a0c3f8d09325500b7b7724b03df90cce73affb78ec1dea4ab6bc5022070cf5ffa5769f945b3b181458900139634453a336a532196a8d04e1585b3913101"},"sequence":4294967295}],"vout":[{"value":0,"n":0,"scriptPubKey":{"asm":"","type":"nonstandard"}},{"value":625.26,"n":1,"scriptPubKey":{"asm":"0348b24f77eda58d2bf0bd56f764cfdeb0100d2f1058b2d5318f2f2fc9670e730e OP_CHECKSIG","reqSigs":1,"type":"pubkey","addresses":["p8X7huKtvdnnDzc17Xcxxh1Z9ww8ckxvVJ"]}},{"value":625.26,"n":2,"scriptPubKey":{"asm":"0348b24f77eda58d2bf0bd56f764cfdeb0100d2f1058b2d5318f2f2fc9670e730e OP_CHECKSIG","reqSigs":1,"type":"pubkey","addresses":["p8X7huKtvdnnDzc17Xcxxh1Z9ww8ckxvVJ"]}},{"value":1.7,"n":3,"scriptPubKey":{"asm":"OP_DUP OP_HASH160 f6ea51b1cf22773ff3c68e8299209dc9d69d593f OP_EQUALVERIFY OP_CHECKSIG","reqSigs":1,"type":"pubkeyhash","addresses":["pU498g2Tze2KypwgCnomJXchMWH8HXyZb6"]}}],"blockhash":"3517b00f484c94e8e4a3aae42bfbb0abfdf0ae07e1ecf92cad360abf234e4720","confirmations":325,"blocktime":1539529872}