{"hex":"0100000015d4d65b08bc0279b6503a3b44e64c58b1b0015748baf425e91f8f17479f35454eb37311d2010000006a47304402202394dd534c95ad75c1e50047f7bbb60ee409bbc667e5b0232948516137383a0402201302c0ce3ee7e668ce7cc926fb60b54269dd8ccce3a336ca55a7284069c2fa6101210327b54b594f4c02cbf71e1c57e7cf6755ab33f8bfa835b226c08b49e5f507c103ffffffffac07dbf5594ef153cd31a0dd49822f583adaabc5d2e3877f5a0340917be88c0c000000006b483045022100c8b35dcdf2b5d7edeaebe501d21b11dce79c627b598cdf236002a3dcc4a4598802205ec314f56852aa1efaabaec9fd08d5ae3d7f9523ef29e74a4a6234127d1c0f540121029e857134122939a57279b02312e296a02bcf0cf876ddc541bd372450215dbeacffffffffac07dbf5594ef153cd31a0dd49822f583adaabc5d2e3877f5a0340917be88c0c010000006a47304402207f31dc3530b044b50a49c5560ef632c0373c4c66f381ebdbbf4c0f75aa211dc1022002e4b994e9c214f8338214a4625ec9c1618b91333912d360aea51df9f86af2d501210277f81d2aa3721784d78653cca0fc097abf38dd6d3f58db4c9121a58a18a3867effffffff4671b77aa914ba9d5e22070692e27f0e30ec9373cb79f2c7cb838bfb6c6b7a71010000006a4730440220102cfb5f1cf906e653edfe64614777209e9d6cbf298214af73c079978f936e3502202b73306c4439e94bc1013765507062bd5268bd992511ad7f01912009434549150121024dc2de9912f77928aca86ebb63fe00b76c6d7f4d051bc8f31b69a44f80b24868ffffffff758bdcce4576520f6ea41daa70ed06e0c831eaff452d36998f172054b21ae924010000006b483045022100c2591c2089065c6e6565b78cffa9048e886113ee0f2b1dd895f6c1aa801bdfa502207734aef1bdf1aa4757158dd67b792f52a6b6e42478ffa576f23af990afdca24b01210274198e8b0c36c1768684858c1f7fdfeb7b58653a3257eaa102fbc0882d1cd11dffffffffb199f9b489ec594294d1a284cec88daec99e26d84112ffc60275d1ea969a46cf010000006a473044022070044b3b19bba6946dc665515c547f264b3724ed649c36e0696d04a60fe1ca8e02203464c276b07dd8639dca647da3cf14fef98ee6837f49635504c0c7169f97ef0f0121024dc2de9912f77928aca86ebb63fe00b76c6d7f4d051bc8f31b69a44f80b24868ffffffff3b2217b9ef863f6ca9ce3cce3567ad399b1d477c74b91366dcf1cbc8b523fa7b010000006b483045022100e39897b2038ab83a018aaee80bd88d7044bc36083e1de9a2b6efa7a58dcbdb0b02206131501eb1caaea206785cd4f6a9aa00af35ebfea4554f1f05f2e7bc0d01c10f0121024dc2de9912f77928aca86ebb63fe00b76c6d7f4d051bc8f31b69a44f80b24868ffffffff8ca87970ac43982352256f1a2bf04004aec965a0c832782c546de823fa754a75010000006b483045022100ffb87f254a745de5fd481b2747d162ec97c94ef121974c682e73be27aa7c626902200cd363480ee54d0cf446548a35d30ec1539411cd3f22573171927eeeac704af10121024dc2de9912f77928aca86ebb63fe00b76c6d7f4d051bc8f31b69a44f80b24868ffffffff02435a0f00000000001976a914dc845a5dcdddc099e2f65bd6e22594f1196da8ad88acb7331b00000000001976a9144096e7fc0812b091315c472b680ccd07686b0bde88ac00000000","txid":"4d0e2a39de2b19769eac5f84091c3dbf4a91ac40d14c193aff18a288ff266cdf","version":1,"time":1540805664,"locktime":0,"vin":[{"txid":"d21173b34e45359f47178f1fe925f4ba485701b0b1584ce6443b3a50b67902bc","vout":1,"scriptSig":{"asm":"304402202394dd534c95ad75c1e50047f7bbb60ee409bbc667e5b0232948516137383a0402201302c0ce3ee7e668ce7cc926fb60b54269dd8ccce3a336ca55a7284069c2fa6101 0327b54b594f4c02cbf71e1c57e7cf6755ab33f8bfa835b226c08b49e5f507c103","hex":"47304402202394dd534c95ad75c1e50047f7bbb60ee409bbc667e5b0232948516137383a0402201302c0ce3ee7e668ce7cc926fb60b54269dd8ccce3a336ca55a7284069c2fa6101210327b54b594f4c02cbf71e1c57e7cf6755ab33f8bfa835b226c08b49e5f507c103"},"sequence":4294967295},{"txid":"0c8ce87b9140035a7f87e3d2c5abda3a582f8249dda031cd53f14e59f5db07ac","vout":0,"scriptSig":{"asm":"3045022100c8b35dcdf2b5d7edeaebe501d21b11dce79c627b598cdf236002a3dcc4a4598802205ec314f56852aa1efaabaec9fd08d5ae3d7f9523ef29e74a4a6234127d1c0f5401 029e857134122939a57279b02312e296a02bcf0cf876ddc541bd372450215dbeac","hex":"483045022100c8b35dcdf2b5d7edeaebe501d21b11dce79c627b598cdf236002a3dcc4a4598802205ec314f56852aa1efaabaec9fd08d5ae3d7f9523ef29e74a4a6234127d1c0f540121029e857134122939a57279b02312e296a02bcf0cf876ddc541bd372450215dbeac"},"sequence":4294967295},{"txid":"0c8ce87b9140035a7f87e3d2c5abda3a582f8249dda031cd53f14e59f5db07ac","vout":1,"scriptSig":{"asm":"304402207f31dc3530b044b50a49c5560ef632c0373c4c66f381ebdbbf4c0f75aa211dc1022002e4b994e9c214f8338214a4625ec9c1618b91333912d360aea51df9f86af2d501 0277f81d2aa3721784d78653cca0fc097abf38dd6d3f58db4c9121a58a18a3867e","hex":"47304402207f31dc3530b044b50a49c5560ef632c0373c4c66f381ebdbbf4c0f75aa211dc1022002e4b994e9c214f8338214a4625ec9c1618b91333912d360aea51df9f86af2d501210277f81d2aa3721784d78653cca0fc097abf38dd6d3f58db4c9121a58a18a3867e"},"sequence":4294967295},{"txid":"717a6b6cfb8b83cbc7f279cb7393ec300e7fe2920607225e9dba14a97ab77146","vout":1,"scriptSig":{"asm":"30440220102cfb5f1cf906e653edfe64614777209e9d6cbf298214af73c079978f936e3502202b73306c4439e94bc1013765507062bd5268bd992511ad7f019120094345491501 024dc2de9912f77928aca86ebb63fe00b76c6d7f4d051bc8f31b69a44f80b24868","hex":"4730440220102cfb5f1cf906e653edfe64614777209e9d6cbf298214af73c079978f936e3502202b73306c4439e94bc1013765507062bd5268bd992511ad7f01912009434549150121024dc2de9912f77928aca86ebb63fe00b76c6d7f4d051bc8f31b69a44f80b24868"},"sequence":4294967295},{"txid":"24e91ab25420178f99362d45ffea31c8e006ed70aa1da46e0f527645cedc8b75","vout":1,"scriptSig":{"asm":"3045022100c2591c2089065c6e6565b78cffa9048e886113ee0f2b1dd895f6c1aa801bdfa502207734aef1bdf1aa4757158dd67b792f52a6b6e42478ffa576f23af990afdca24b01 0274198e8b0c36c1768684858c1f7fdfeb7b58653a3257eaa102fbc0882d1cd11d","hex":"483045022100c2591c2089065c6e6565b78cffa9048e886113ee0f2b1dd895f6c1aa801bdfa502207734aef1bdf1aa4757158dd67b792f52a6b6e42478ffa576f23af990afdca24b01210274198e8b0c36c1768684858c1f7fdfeb7b58653a3257eaa102fbc0882d1cd11d"},"sequence":4294967295},{"txid":"cf469a96ead17502c6ff1241d8269ec9ae8dc8ce84a2d1944259ec89b4f999b1","vout":1,"scriptSig":{"asm":"3044022070044b3b19bba6946dc665515c547f264b3724ed649c36e0696d04a60fe1ca8e02203464c276b07dd8639dca647da3cf14fef98ee6837f49635504c0c7169f97ef0f01 024dc2de9912f77928aca86ebb63fe00b76c6d7f4d051bc8f31b69a44f80b24868","hex":"473044022070044b3b19bba6946dc665515c547f264b3724ed649c36e0696d04a60fe1ca8e02203464c276b07dd8639dca647da3cf14fef98ee6837f49635504c0c7169f97ef0f0121024dc2de9912f77928aca86ebb63fe00b76c6d7f4d051bc8f31b69a44f80b24868"},"sequence":4294967295},{"txid":"7bfa23b5c8cbf1dc6613b9747c471d9b39ad6735ce3ccea96c3f86efb917223b","vout":1,"scriptSig":{"asm":"3045022100e39897b2038ab83a018aaee80bd88d7044bc36083e1de9a2b6efa7a58dcbdb0b02206131501eb1caaea206785cd4f6a9aa00af35ebfea4554f1f05f2e7bc0d01c10f01 024dc2de9912f77928aca86ebb63fe00b76c6d7f4d051bc8f31b69a44f80b24868","hex":"483045022100e39897b2038ab83a018aaee80bd88d7044bc36083e1de9a2b6efa7a58dcbdb0b02206131501eb1caaea206785cd4f6a9aa00af35ebfea4554f1f05f2e7bc0d01c10f0121024dc2de9912f77928aca86ebb63fe00b76c6d7f4d051bc8f31b69a44f80b24868"},"sequence":4294967295},{"txid":"754a75fa23e86d542c7832c8a065c9ae0440f02b1a6f2552239843ac7079a88c","vout":1,"scriptSig":{"asm":"3045022100ffb87f254a745de5fd481b2747d162ec97c94ef121974c682e73be27aa7c626902200cd363480ee54d0cf446548a35d30ec1539411cd3f22573171927eeeac704af101 024dc2de9912f77928aca86ebb63fe00b76c6d7f4d051bc8f31b69a44f80b24868","hex":"483045022100ffb87f254a745de5fd481b2747d162ec97c94ef121974c682e73be27aa7c626902200cd363480ee54d0cf446548a35d30ec1539411cd3f22573171927eeeac704af10121024dc2de9912f77928aca86ebb63fe00b76c6d7f4d051bc8f31b69a44f80b24868"},"sequence":4294967295}],"vout":[{"value":0.01006147,"n":0,"scriptPubKey":{"asm":"OP_DUP OP_HASH160 dc845a5dcdddc099e2f65bd6e22594f1196da8ad OP_EQUALVERIFY OP_CHECKSIG","reqSigs":1,"type":"pubkeyhash","addresses":["pReZQxNSoF7kBWUNhJc24nD279pH2ppA44"]}},{"value":0.01782711,"n":1,"scriptPubKey":{"asm":"OP_DUP OP_HASH160 4096e7fc0812b091315c472b680ccd07686b0bde OP_EQUALVERIFY OP_CHECKSIG","reqSigs":1,"type":"pubkeyhash","addresses":["pBS6E8Qhiibdi9hG31vjg6TTKrYusC17pQ"]}}],"blockhash":"6230c0d817df5b6fc9211fa63f6d2a5c9e64a5e7119a14056f597d4b53a154de","confirmations":204,"blocktime":1540805664}