{"hex":"0100000020d4d65b016cf06c7743625700278e35a7b5abb03d872582f694c3057096c789d89c1ac2550100000048473044022029b65aace3ed7c9df8e3f9c582e61e7254a3231fce4c348217c6b821e4472be802205f50e5a6e4dd83f6fdbf505362aaf593ce207b542dc5375704012aa3318dceb901ffffffff0400000000000000000000a9a1d1010000002321020b1cd26fc4b9f080aea1cf7b667efd5e8453f70429056589831fa7f63506ddbfac4cecb0d1010000002321020b1cd26fc4b9f080aea1cf7b667efd5e8453f70429056589831fa7f63506ddbfacea050000000000001976a9140c2d1eddba56317fb81d41241b8f40bbca7b5b5488ac00000000","txid":"c6d1b7e976a802d4d7d54700185a6e530eb5c37b81105710da4f12381dc66841","version":1,"time":1540805664,"locktime":0,"vin":[{"txid":"55c21a9cd889c7967005c394f68225873db0abb5a7358e2700576243776cf06c","vout":1,"scriptSig":{"asm":"3044022029b65aace3ed7c9df8e3f9c582e61e7254a3231fce4c348217c6b821e4472be802205f50e5a6e4dd83f6fdbf505362aaf593ce207b542dc5375704012aa3318dceb901","hex":"473044022029b65aace3ed7c9df8e3f9c582e61e7254a3231fce4c348217c6b821e4472be802205f50e5a6e4dd83f6fdbf505362aaf593ce207b542dc5375704012aa3318dceb901"},"sequence":4294967295}],"vout":[{"value":0,"n":0,"scriptPubKey":{"asm":"","type":"nonstandard"}},{"value":78.12,"n":1,"scriptPubKey":{"asm":"020b1cd26fc4b9f080aea1cf7b667efd5e8453f70429056589831fa7f63506ddbf OP_CHECKSIG","reqSigs":1,"type":"pubkey","addresses":["pECTDpfW4nW8hYte3f3F9ZQxwgWmBwmcYL"]}},{"value":78.13000268,"n":2,"scriptPubKey":{"asm":"020b1cd26fc4b9f080aea1cf7b667efd5e8453f70429056589831fa7f63506ddbf OP_CHECKSIG","reqSigs":1,"type":"pubkey","addresses":["pECTDpfW4nW8hYte3f3F9ZQxwgWmBwmcYL"]}},{"value":0.00001514,"n":3,"scriptPubKey":{"asm":"OP_DUP OP_HASH160 0c2d1eddba56317fb81d41241b8f40bbca7b5b54 OP_EQUALVERIFY OP_CHECKSIG","reqSigs":1,"type":"pubkeyhash","addresses":["p6exN3FuZmZyQ7WNzLf7AweTLuHqDvcERN"]}}],"blockhash":"6230c0d817df5b6fc9211fa63f6d2a5c9e64a5e7119a14056f597d4b53a154de","confirmations":204,"blocktime":1540805664}