{"hex":"01000000e0c1d65b01ba763991814118d59ac6f49e7641584654b035353c886a723447df61832b03c20200000049483045022100f3fd5a1fed16f555ccedea9cc64d15f6d2337d4253ab72335da0297f750ec75b022010e1e39f8673ad9472bcb659a7e5a47cdcb6048a580d682c19a975202f5166ad01ffffffff030000000000000000002361b1d1010000002321020b1cd26fc4b9f080aea1cf7b667efd5e8453f70429056589831fa7f63506ddbfac10980200000000001976a9140383cbf635d4aaab0b3af12f3877f122911d227188ac00000000","txid":"b65b6f708e9e712c338cafc67a2bcb2913d28d90666352dba90e281c931ac679","version":1,"time":1540800992,"locktime":0,"vin":[{"txid":"c2032b8361df4734726a883c3535b054465841769ef4c69ad5184181913976ba","vout":2,"scriptSig":{"asm":"3045022100f3fd5a1fed16f555ccedea9cc64d15f6d2337d4253ab72335da0297f750ec75b022010e1e39f8673ad9472bcb659a7e5a47cdcb6048a580d682c19a975202f5166ad01","hex":"483045022100f3fd5a1fed16f555ccedea9cc64d15f6d2337d4253ab72335da0297f750ec75b022010e1e39f8673ad9472bcb659a7e5a47cdcb6048a580d682c19a975202f5166ad01"},"sequence":4294967295}],"vout":[{"value":0,"n":0,"scriptPubKey":{"asm":"","type":"nonstandard"}},{"value":78.13030179,"n":1,"scriptPubKey":{"asm":"020b1cd26fc4b9f080aea1cf7b667efd5e8453f70429056589831fa7f63506ddbf OP_CHECKSIG","reqSigs":1,"type":"pubkey","addresses":["pECTDpfW4nW8hYte3f3F9ZQxwgWmBwmcYL"]}},{"value":0.0017,"n":2,"scriptPubKey":{"asm":"OP_DUP OP_HASH160 0383cbf635d4aaab0b3af12f3877f122911d2271 OP_EQUALVERIFY OP_CHECKSIG","reqSigs":1,"type":"pubkeyhash","addresses":["p5sA7gHHpq5pfbFUafcJM8oF4ZCvf3vkks"]}}],"blockhash":"68c11e0e94c88ba907acb244dc8310a365c45a79674a940947dbd9534ae83853","confirmations":222,"blocktime":1540800992}