{"hex":"01000000d7c1d65b0130eb0f73cb227a24dbcc4c454059251c2a36f586068b3aee08e700387236788d000000006b4830450221008f0077941376bd4c3d589fe15a82e1711265142f64883a61bffea2beb40a9069022012081d92a0f51e33e59c4b0d67176349340d0154cc2b538142c02b49545ad76a01210245016248e715ddfc2a2f5735a62fc2394b8433fb7e7747eb1544a85cad2bda4effffffff027067bd01000000001976a914cb4dec55a515043e82ee501f47ce12ff635fa2bc88ac00c2eb0b000000001976a914b19311f6bbf8610d652384c00d234acd86f49b7688ac00000000","txid":"fc7848d01f0db7d7ce3e78818637a9d0028aff9fb348a1b665859ef2de348462","version":1,"time":1540800992,"locktime":0,"vin":[{"txid":"8d7836723800e708ee3a8b0686f5362a1c255940454cccdb247a22cb730feb30","vout":0,"scriptSig":{"asm":"30450221008f0077941376bd4c3d589fe15a82e1711265142f64883a61bffea2beb40a9069022012081d92a0f51e33e59c4b0d67176349340d0154cc2b538142c02b49545ad76a01 0245016248e715ddfc2a2f5735a62fc2394b8433fb7e7747eb1544a85cad2bda4e","hex":"4830450221008f0077941376bd4c3d589fe15a82e1711265142f64883a61bffea2beb40a9069022012081d92a0f51e33e59c4b0d67176349340d0154cc2b538142c02b49545ad76a01210245016248e715ddfc2a2f5735a62fc2394b8433fb7e7747eb1544a85cad2bda4e"},"sequence":4294967295}],"vout":[{"value":0.2919,"n":0,"scriptPubKey":{"asm":"OP_DUP OP_HASH160 cb4dec55a515043e82ee501f47ce12ff635fa2bc OP_EQUALVERIFY OP_CHECKSIG","reqSigs":1,"type":"pubkeyhash","addresses":["pQ5Yiqws7pHcfUaST7ezb4pkc2x7A27X4p"]}},{"value":2,"n":1,"scriptPubKey":{"asm":"OP_DUP OP_HASH160 b19311f6bbf8610d652384c00d234acd86f49b76 OP_EQUALVERIFY OP_CHECKSIG","reqSigs":1,"type":"pubkeyhash","addresses":["pMjVzGrYDm6bSsjacvkedmhB6zYLmU3zVu"]}}],"blockhash":"68c11e0e94c88ba907acb244dc8310a365c45a79674a940947dbd9534ae83853","confirmations":222,"blocktime":1540800992}