{"hex":"0100000044a1c25b010000000000000000000000000000000000000000000000000000000000000000ffffffff0401350102ffffffff0100000000000000001976a91456cecbf89dd19705758bf4283f693100b1b6269688ac00000000","txid":"7b85f475590f8404e7700efa892d75e5977776c65af3e4fa7643614e3cb3532d","version":1,"time":1539481927,"locktime":0,"vin":[{"coinbase":"01350102","sequence":4294967295}],"vout":[{"value":0,"n":0,"scriptPubKey":{"asm":"OP_DUP OP_HASH160 56cecbf89dd19705758bf4283f693100b1b62696 OP_EQUALVERIFY OP_CHECKSIG","reqSigs":1,"type":"pubkeyhash","addresses":["pDTa3hCYviZX1WfrQHK2fBWLVnCL4WTmd4"]}}],"blockhash":"000008085b448a86ecdfc8eff4d0004e636bf33e817c1e8be8ff1216a4607fa8","confirmations":392,"blocktime":1539481927}