{"hex":"01000000d031d75b0181f478e83b6b1a8a3f80526fe9b6561afd35b2a0c3742f237946044926048b2d010000004847304402206cd5237c3fd257597aa768400dd2612adcd38fd9ed979a449efcae62476f9a44022078ee61355c863b647a2850f27adbf2aa9d292d1daf3bd67014438bceceb7af2c01ffffffff03000000000000000000bbaaa1d1010000002321020b1cd26fc4b9f080aea1cf7b667efd5e8453f70429056589831fa7f63506ddbfacc9090000000000001976a9148ed189b44bba56ef2095854efd11229aa16bf8e488ac00000000","txid":"df7583e90716f8899dc57dd91faa74b83b163766dd8cc6c7db60b748a671f974","version":1,"time":1540829648,"locktime":0,"vin":[{"txid":"2d8b042649044679232f74c3a0b235fd1a56b6e96f52803f8a1a6b3be878f481","vout":1,"scriptSig":{"asm":"304402206cd5237c3fd257597aa768400dd2612adcd38fd9ed979a449efcae62476f9a44022078ee61355c863b647a2850f27adbf2aa9d292d1daf3bd67014438bceceb7af2c01","hex":"47304402206cd5237c3fd257597aa768400dd2612adcd38fd9ed979a449efcae62476f9a44022078ee61355c863b647a2850f27adbf2aa9d292d1daf3bd67014438bceceb7af2c01"},"sequence":4294967295}],"vout":[{"value":0,"n":0,"scriptPubKey":{"asm":"","type":"nonstandard"}},{"value":78.12000443,"n":1,"scriptPubKey":{"asm":"020b1cd26fc4b9f080aea1cf7b667efd5e8453f70429056589831fa7f63506ddbf OP_CHECKSIG","reqSigs":1,"type":"pubkey","addresses":["pECTDpfW4nW8hYte3f3F9ZQxwgWmBwmcYL"]}},{"value":0.00002505,"n":2,"scriptPubKey":{"asm":"OP_DUP OP_HASH160 8ed189b44bba56ef2095854efd11229aa16bf8e4 OP_EQUALVERIFY OP_CHECKSIG","reqSigs":1,"type":"pubkeyhash","addresses":["pJZjAtqMwq9jFa2kTVK5K8psT7erMHW8FX"]}}],"blockhash":"385163fef0130a737666a9f6992e2ba063f32be673d41bd60563246bd6f10c46","confirmations":192,"blocktime":1540829648}