{"hex":"01000000ce31d75b028348a4bb1844e1bd3adb0e86575e88116b5d4c7cb3dd5a3a6f0e7a816854b69d000000006a47304402204fc2b6d4df681e55875f8932d6f67716ca6294e995257c5b3118bb4c4681475202203e45b1f9312befba9954803d1ee62fd7f4ee5e0db51ad0ec95d65a9a6cfad4f70121036c92c409f09c5d10bdcb499ac0a3478c28c5a001b671ffe7dcb7edf8f116fd16ffffffff5539e796012dceebd5ba0179ac01719e65b67156a65e3b0db08a10010ce503d3000000006a473044022059d5ec9b62b8edf80287d0c0a5b52bf55358c1ee97eab69712964cf9cf7c70a9022073d73d46509c407ae6ae3b59b7d8ced1d80b23984af0b9fe0f5dcae0ba9bfa90012103aac672b57e0fe9996ded9d26afc485ad10a92907ea6ba149cb993abd1f143696ffffffff0200c61200000000001976a9144c28ee798243702bc4500cdb4da9004130bb47f688ac18fe2c00000000001976a914512ea11cdc97275547dc4ffe5439055136d392d988ac00000000","txid":"f91039c66944b39fa14b0db4410590ea2362dd952c0eaf338e87a7a191e51552","version":1,"time":1540829648,"locktime":0,"vin":[{"txid":"9db65468817a0e6f3a5addb37c4c5d6b11885e57860edb3abde14418bba44883","vout":0,"scriptSig":{"asm":"304402204fc2b6d4df681e55875f8932d6f67716ca6294e995257c5b3118bb4c4681475202203e45b1f9312befba9954803d1ee62fd7f4ee5e0db51ad0ec95d65a9a6cfad4f701 036c92c409f09c5d10bdcb499ac0a3478c28c5a001b671ffe7dcb7edf8f116fd16","hex":"47304402204fc2b6d4df681e55875f8932d6f67716ca6294e995257c5b3118bb4c4681475202203e45b1f9312befba9954803d1ee62fd7f4ee5e0db51ad0ec95d65a9a6cfad4f70121036c92c409f09c5d10bdcb499ac0a3478c28c5a001b671ffe7dcb7edf8f116fd16"},"sequence":4294967295},{"txid":"d303e50c01108ab00d3b5ea65671b6659e7101ac7901bad5ebce2d0196e73955","vout":0,"scriptSig":{"asm":"3044022059d5ec9b62b8edf80287d0c0a5b52bf55358c1ee97eab69712964cf9cf7c70a9022073d73d46509c407ae6ae3b59b7d8ced1d80b23984af0b9fe0f5dcae0ba9bfa9001 03aac672b57e0fe9996ded9d26afc485ad10a92907ea6ba149cb993abd1f143696","hex":"473044022059d5ec9b62b8edf80287d0c0a5b52bf55358c1ee97eab69712964cf9cf7c70a9022073d73d46509c407ae6ae3b59b7d8ced1d80b23984af0b9fe0f5dcae0ba9bfa90012103aac672b57e0fe9996ded9d26afc485ad10a92907ea6ba149cb993abd1f143696"},"sequence":4294967295}],"vout":[{"value":0.01230336,"n":0,"scriptPubKey":{"asm":"OP_DUP OP_HASH160 4c28ee798243702bc4500cdb4da9004130bb47f6 OP_EQUALVERIFY OP_CHECKSIG","reqSigs":1,"type":"pubkeyhash","addresses":["pCVGbFvFLapGyskXvwfxG2ss21bRU9FqUh"]}},{"value":0.02948632,"n":1,"scriptPubKey":{"asm":"OP_DUP OP_HASH160 512ea11cdc97275547dc4ffe5439055136d392d9 OP_EQUALVERIFY OP_CHECKSIG","reqSigs":1,"type":"pubkeyhash","addresses":["pCwpo7CGFy1j4yNiHiMtoFZ49bhfe969pR"]}}],"blockhash":"385163fef0130a737666a9f6992e2ba063f32be673d41bd60563246bd6f10c46","confirmations":192,"blocktime":1540829648}