{"hex":"01000000a6c7d65b01c40415fb0c24983990c273af90090c049bcecda86252f5f60ca1acc15847ac8b010000006b483045022100b9729865275bf80b6fd886c5581d100322c3a4ee33fbc81844d59c6278e5f97002203dd4579cce71ba7eabde9aee2f41c1abb7da9c26c4d3e636832299baf1fe4a45012102c83a5ee59d9120fc3dc2e7d2ec5b90d9a0f4f70950e579ccd0737e3c157f48d2ffffffff02a7723c00000000001976a9144c28ee798243702bc4500cdb4da9004130bb47f688ac6ed11000000000001976a9144527d3784c43c9db141efd5510dd844ca76b61d988ac00000000","txid":"472505217edf1c7ecb98f5c11ecea6958778746fbbdc93cac8bf6406537d14b2","version":1,"time":1540802480,"locktime":0,"vin":[{"txid":"8bac4758c1aca10cf6f55262a8cdce9b040c0990af73c2903998240cfb1504c4","vout":1,"scriptSig":{"asm":"3045022100b9729865275bf80b6fd886c5581d100322c3a4ee33fbc81844d59c6278e5f97002203dd4579cce71ba7eabde9aee2f41c1abb7da9c26c4d3e636832299baf1fe4a4501 02c83a5ee59d9120fc3dc2e7d2ec5b90d9a0f4f70950e579ccd0737e3c157f48d2","hex":"483045022100b9729865275bf80b6fd886c5581d100322c3a4ee33fbc81844d59c6278e5f97002203dd4579cce71ba7eabde9aee2f41c1abb7da9c26c4d3e636832299baf1fe4a45012102c83a5ee59d9120fc3dc2e7d2ec5b90d9a0f4f70950e579ccd0737e3c157f48d2"},"sequence":4294967295}],"vout":[{"value":0.03961511,"n":0,"scriptPubKey":{"asm":"OP_DUP OP_HASH160 4c28ee798243702bc4500cdb4da9004130bb47f6 OP_EQUALVERIFY OP_CHECKSIG","reqSigs":1,"type":"pubkeyhash","addresses":["pCVGbFvFLapGyskXvwfxG2ss21bRU9FqUh"]}},{"value":0.0110219,"n":1,"scriptPubKey":{"asm":"OP_DUP OP_HASH160 4527d3784c43c9db141efd5510dd844ca76b61d9 OP_EQUALVERIFY OP_CHECKSIG","reqSigs":1,"type":"pubkeyhash","addresses":["pBrEY72AoTPBbKJkb7CbNMrBgUHEp44iLA"]}}],"blockhash":"3aa5fc1b9fb8978fb84e77ebbb07f25718fefae670e6193ccf1dccdbfc7a1142","confirmations":214,"blocktime":1540802480}