{"hex":"01000000b0c7d65b0122ae0a779964cec5096b742ea4f13edd6d7e772730eb84e4ecd97a5bfe5d3363000000006a473044022000ebee556943e34921bc3e462dc766fcd903c44098c1f8b0442bcd80c62604e00220593573d93828d196cfcb8647d28f71b1fc18c9e9c7ef75ccea900235cf6d4bfb0121025226d209a066666a8a916f83289ac6a9eb4a593f32d6b39c58fcfb9267f349b3ffffffff030000000000000000006680dc0b000000002321025226d209a066666a8a916f83289ac6a9eb4a593f32d6b39c58fcfb9267f349b3aca8030000000000001976a914647e9b327f6e6cc3bcd2b98cb8a85fc3160d6a4588ac00000000","txid":"b32884891f1dbf6fd1b434d2d66fa00613e6ccf0992ab0fa3f0671794bf70d3b","version":1,"time":1540802480,"locktime":0,"vin":[{"txid":"63335dfe5b7ad9ece484eb3027777e6ddd3ef1a42e746b09c5ce6499770aae22","vout":0,"scriptSig":{"asm":"3044022000ebee556943e34921bc3e462dc766fcd903c44098c1f8b0442bcd80c62604e00220593573d93828d196cfcb8647d28f71b1fc18c9e9c7ef75ccea900235cf6d4bfb01 025226d209a066666a8a916f83289ac6a9eb4a593f32d6b39c58fcfb9267f349b3","hex":"473044022000ebee556943e34921bc3e462dc766fcd903c44098c1f8b0442bcd80c62604e00220593573d93828d196cfcb8647d28f71b1fc18c9e9c7ef75ccea900235cf6d4bfb0121025226d209a066666a8a916f83289ac6a9eb4a593f32d6b39c58fcfb9267f349b3"},"sequence":4294967295}],"vout":[{"value":0,"n":0,"scriptPubKey":{"asm":"","type":"nonstandard"}},{"value":1.99000166,"n":1,"scriptPubKey":{"asm":"025226d209a066666a8a916f83289ac6a9eb4a593f32d6b39c58fcfb9267f349b3 OP_CHECKSIG","reqSigs":1,"type":"pubkey","addresses":["pCaQkonPJWx4zjuNyS1atYTQJoXJr6uLyk"]}},{"value":0.00000936,"n":2,"scriptPubKey":{"asm":"OP_DUP OP_HASH160 647e9b327f6e6cc3bcd2b98cb8a85fc3160d6a45 OP_EQUALVERIFY OP_CHECKSIG","reqSigs":1,"type":"pubkeyhash","addresses":["pEhwSeKiP8Q9UV5H4Vwts61nBy8VHfUUbd"]}}],"blockhash":"3aa5fc1b9fb8978fb84e77ebbb07f25718fefae670e6193ccf1dccdbfc7a1142","confirmations":214,"blocktime":1540802480}