{"hex":"010000009debd45b027f8ea07d5801ff378549700694d05292c196332e8aaf64030790a9657505df6f000000006b48304502210095a45d28399c6d1a6545017f5ba281d8c4dac355a74fda8a2f29638e7a0fb600022054813f1836224cffa6dfc4e7c70a1797d809520b91f020368aa7227f8e02222b012103afb963864390beba176234e72e7e1dacec36fa31012b6057cb7d58000e2e6114ffffffff80ca9b93c738f61fad3c8212ecab2773c6c272bc5b1ef3ec1890613a5a7f2ccc000000006b483045022100cbfc57c55483d82a7d39e5080df9c0fa3e351e55873a7365716546f3d540cb49022047486c7ecfde9395f9fe9525ee64b1936fd51479849acd6def80ced3b7aa4263012102587712fadac2ccec8061ff53ff85912edcc1e70059b1e147ed526365a4f32ba0ffffffff02a5501e00000000001976a914879587642a29c138b48b30aef5d17287d98704d588aca0860100000000001976a9144096e7fc0812b091315c472b680ccd07686b0bde88ac00000000","txid":"4d37fd777c53e7c711a0199cb1276032ef6cae3eca828a855003ef64a29a0e09","version":1,"time":1540680608,"locktime":0,"vin":[{"txid":"6fdf057565a990070364af8a2e3396c19252d0940670498537ff01587da08e7f","vout":0,"scriptSig":{"asm":"304502210095a45d28399c6d1a6545017f5ba281d8c4dac355a74fda8a2f29638e7a0fb600022054813f1836224cffa6dfc4e7c70a1797d809520b91f020368aa7227f8e02222b01 03afb963864390beba176234e72e7e1dacec36fa31012b6057cb7d58000e2e6114","hex":"48304502210095a45d28399c6d1a6545017f5ba281d8c4dac355a74fda8a2f29638e7a0fb600022054813f1836224cffa6dfc4e7c70a1797d809520b91f020368aa7227f8e02222b012103afb963864390beba176234e72e7e1dacec36fa31012b6057cb7d58000e2e6114"},"sequence":4294967295},{"txid":"cc2c7f5a3a619018ecf31e5bbc72c2c67327abec12823cad1ff638c7939bca80","vout":0,"scriptSig":{"asm":"3045022100cbfc57c55483d82a7d39e5080df9c0fa3e351e55873a7365716546f3d540cb49022047486c7ecfde9395f9fe9525ee64b1936fd51479849acd6def80ced3b7aa426301 02587712fadac2ccec8061ff53ff85912edcc1e70059b1e147ed526365a4f32ba0","hex":"483045022100cbfc57c55483d82a7d39e5080df9c0fa3e351e55873a7365716546f3d540cb49022047486c7ecfde9395f9fe9525ee64b1936fd51479849acd6def80ced3b7aa4263012102587712fadac2ccec8061ff53ff85912edcc1e70059b1e147ed526365a4f32ba0"},"sequence":4294967295}],"vout":[{"value":0.01986725,"n":0,"scriptPubKey":{"asm":"OP_DUP OP_HASH160 879587642a29c138b48b30aef5d17287d98704d5 OP_EQUALVERIFY OP_CHECKSIG","reqSigs":1,"type":"pubkeyhash","addresses":["pHuUZ3uEoL1mirsP1AXo4kqQSLWWErCsoU"]}},{"value":0.001,"n":1,"scriptPubKey":{"asm":"OP_DUP OP_HASH160 4096e7fc0812b091315c472b680ccd07686b0bde OP_EQUALVERIFY OP_CHECKSIG","reqSigs":1,"type":"pubkeyhash","addresses":["pBS6E8Qhiibdi9hG31vjg6TTKrYusC17pQ"]}}],"blockhash":"64b08127171e0340d220fee521e3c88b4de59e04432b0e224863bea6cf7f6a51","confirmations":276,"blocktime":1540680608}