{"hex":"01000000a0ebd45b014cea0add58b383032359b6cfff9aad676c70bef68231c5f25e0f391251a38a40010000004847304402201c8c3ac9e52fb6cf89ca1ad6ae0b3e0be48877723a409853e45431a9a0574fc3022013f596976fc8123978e70b0dfeead6cf1660dbdc6c66171a4addb9ed489bdd9f01ffffffff040000000000000000008028a546070000002321020b1cd26fc4b9f080aea1cf7b667efd5e8453f70429056589831fa7f63506ddbfac8f28a546070000002321020b1cd26fc4b9f080aea1cf7b667efd5e8453f70429056589831fa7f63506ddbfac55000000000000001976a9141992ad5700ade9422585b3e7af7cd994d29d4ca888ac00000000","txid":"85469a6ac2f31f019421554c3348d5d0b2a0968bdf028b177036fdc51c1c2aea","version":1,"time":1540680608,"locktime":0,"vin":[{"txid":"408aa35112390f5ef2c53182f6be706c67ad9affcfb659230383b358dd0aea4c","vout":1,"scriptSig":{"asm":"304402201c8c3ac9e52fb6cf89ca1ad6ae0b3e0be48877723a409853e45431a9a0574fc3022013f596976fc8123978e70b0dfeead6cf1660dbdc6c66171a4addb9ed489bdd9f01","hex":"47304402201c8c3ac9e52fb6cf89ca1ad6ae0b3e0be48877723a409853e45431a9a0574fc3022013f596976fc8123978e70b0dfeead6cf1660dbdc6c66171a4addb9ed489bdd9f01"},"sequence":4294967295}],"vout":[{"value":0,"n":0,"scriptPubKey":{"asm":"","type":"nonstandard"}},{"value":312.5,"n":1,"scriptPubKey":{"asm":"020b1cd26fc4b9f080aea1cf7b667efd5e8453f70429056589831fa7f63506ddbf OP_CHECKSIG","reqSigs":1,"type":"pubkey","addresses":["pECTDpfW4nW8hYte3f3F9ZQxwgWmBwmcYL"]}},{"value":312.50000015,"n":2,"scriptPubKey":{"asm":"020b1cd26fc4b9f080aea1cf7b667efd5e8453f70429056589831fa7f63506ddbf OP_CHECKSIG","reqSigs":1,"type":"pubkey","addresses":["pECTDpfW4nW8hYte3f3F9ZQxwgWmBwmcYL"]}},{"value":8.5e-7,"n":3,"scriptPubKey":{"asm":"OP_DUP OP_HASH160 1992ad5700ade9422585b3e7af7cd994d29d4ca8 OP_EQUALVERIFY OP_CHECKSIG","reqSigs":1,"type":"pubkeyhash","addresses":["p7snoofvhm9cmcDcAmpbzCVHFFEt2fdccj"]}}],"blockhash":"64b08127171e0340d220fee521e3c88b4de59e04432b0e224863bea6cf7f6a51","confirmations":276,"blocktime":1540680608}