{"hex":"01000000b562d75b02c15ba4109df94c6d60ce76bf6138553c08b727fb98d0b0a254bfd0c9b04fc811000000006a47304402207f4ff98640befbb86017fb84556fd89ca251317f16dd7c55baa36dd917d2dfa9022077dccceffe979cd08d0de2941d52922885901c4d37c97053481d30a360a6af58012102b53d2c9586bf0bc71bbd252223c66ab430dbe06196e00a5d53fb127168f820d1ffffffffc15ba4109df94c6d60ce76bf6138553c08b727fb98d0b0a254bfd0c9b04fc811010000006a47304402203e0cbd54baa4305d6a8e8559ebf1f903e8d7379940efddf95c756e4a58ef127a02201f730063b657273f350bf08ce0a33844d9ca1a60fd41c779bff07a1ea096bb4b0121038b2910d3e0747013ddfa77affc335dd179a7b04e40f9a685a1118517255632c8ffffffff02c92f1900000000001976a9144e378904be5a2f293fc88a5ec8ac9e87a971e85f88ac476fed09000000001976a9141ccd20724091c7b6782ae788212f03f32f70815d88ac00000000","txid":"0c128683d1f9ba7b3043e19749f9bb8976cab98b0e9296ac773565df8ba0994c","version":1,"time":1540842176,"locktime":0,"vin":[{"txid":"11c84fb0c9d0bf54a2b0d098fb27b7083c553861bf76ce606d4cf99d10a45bc1","vout":0,"scriptSig":{"asm":"304402207f4ff98640befbb86017fb84556fd89ca251317f16dd7c55baa36dd917d2dfa9022077dccceffe979cd08d0de2941d52922885901c4d37c97053481d30a360a6af5801 02b53d2c9586bf0bc71bbd252223c66ab430dbe06196e00a5d53fb127168f820d1","hex":"47304402207f4ff98640befbb86017fb84556fd89ca251317f16dd7c55baa36dd917d2dfa9022077dccceffe979cd08d0de2941d52922885901c4d37c97053481d30a360a6af58012102b53d2c9586bf0bc71bbd252223c66ab430dbe06196e00a5d53fb127168f820d1"},"sequence":4294967295},{"txid":"11c84fb0c9d0bf54a2b0d098fb27b7083c553861bf76ce606d4cf99d10a45bc1","vout":1,"scriptSig":{"asm":"304402203e0cbd54baa4305d6a8e8559ebf1f903e8d7379940efddf95c756e4a58ef127a02201f730063b657273f350bf08ce0a33844d9ca1a60fd41c779bff07a1ea096bb4b01 038b2910d3e0747013ddfa77affc335dd179a7b04e40f9a685a1118517255632c8","hex":"47304402203e0cbd54baa4305d6a8e8559ebf1f903e8d7379940efddf95c756e4a58ef127a02201f730063b657273f350bf08ce0a33844d9ca1a60fd41c779bff07a1ea096bb4b0121038b2910d3e0747013ddfa77affc335dd179a7b04e40f9a685a1118517255632c8"},"sequence":4294967295}],"vout":[{"value":0.01650633,"n":0,"scriptPubKey":{"asm":"OP_DUP OP_HASH160 4e378904be5a2f293fc88a5ec8ac9e87a971e85f OP_EQUALVERIFY OP_CHECKSIG","reqSigs":1,"type":"pubkeyhash","addresses":["pCg9SKj1jUCAYFKUGTUR1mSiBbi3cUNA3X"]}},{"value":1.66555463,"n":1,"scriptPubKey":{"asm":"OP_DUP OP_HASH160 1ccd20724091c7b6782ae788212f03f32f70815d OP_EQUALVERIFY OP_CHECKSIG","reqSigs":1,"type":"pubkeyhash","addresses":["p8ArrXrYvsbASocxDB7nmRHkW6bS9KSind"]}}],"blockhash":"1a7ac7a0bd5f600f0ab8bec28cb7a6ebcb1e54c3520ace280ff213fd2f129cfc","confirmations":179,"blocktime":1540842176}