{"hex":"01000000c062d75b0121da1772fb9d865d0d9b146d89b534282888c26557269b3f58a5a8f67a4e935b02000000484730440220350cdfbea3a563f11f6d05a408663011909b28cfc21203ee36ca83353895a56d02206c20b55d8e1b692e27681af0955f6d4444e6d015f6d2177474ab77ff963cc9c401ffffffff0400000000000000000000a2941a1d0000002321026ef57679057df94a5f72e9fead08857f8d7253a593b2b1feed1b68e92df4a4c5ac303e951a1d0000002321026ef57679057df94a5f72e9fead08857f8d7253a593b2b1feed1b68e92df4a4c5ac03290200000000001976a9145e1d99381eb53300f76a3cc6299ce81c71d0c2f788ac00000000","txid":"8332bcdf074a8f3a89b4bf3777f57cac0b5afe44174bbe0ae9ddd75a45841a13","version":1,"time":1540842176,"locktime":0,"vin":[{"txid":"5b934e7af6a8a5583f9b265765c288282834b5896d149b0d5d869dfb7217da21","vout":2,"scriptSig":{"asm":"30440220350cdfbea3a563f11f6d05a408663011909b28cfc21203ee36ca83353895a56d02206c20b55d8e1b692e27681af0955f6d4444e6d015f6d2177474ab77ff963cc9c401","hex":"4730440220350cdfbea3a563f11f6d05a408663011909b28cfc21203ee36ca83353895a56d02206c20b55d8e1b692e27681af0955f6d4444e6d015f6d2177474ab77ff963cc9c401"},"sequence":4294967295}],"vout":[{"value":0,"n":0,"scriptPubKey":{"asm":"","type":"nonstandard"}},{"value":1250,"n":1,"scriptPubKey":{"asm":"026ef57679057df94a5f72e9fead08857f8d7253a593b2b1feed1b68e92df4a4c5 OP_CHECKSIG","reqSigs":1,"type":"pubkey","addresses":["p5dRZ9MeyiKDma1pAUrsmvEK4NBmmdC4ZN"]}},{"value":1250.00039984,"n":2,"scriptPubKey":{"asm":"026ef57679057df94a5f72e9fead08857f8d7253a593b2b1feed1b68e92df4a4c5 OP_CHECKSIG","reqSigs":1,"type":"pubkey","addresses":["p5dRZ9MeyiKDma1pAUrsmvEK4NBmmdC4ZN"]}},{"value":0.00141571,"n":3,"scriptPubKey":{"asm":"OP_DUP OP_HASH160 5e1d99381eb53300f76a3cc6299ce81c71d0c2f7 OP_EQUALVERIFY OP_CHECKSIG","reqSigs":1,"type":"pubkeyhash","addresses":["pE8DBH6VheNWCoBfLHY8coXmUqVnKuU1Z8"]}}],"blockhash":"1a7ac7a0bd5f600f0ab8bec28cb7a6ebcb1e54c3520ace280ff213fd2f129cfc","confirmations":179,"blocktime":1540842176}