{"hex":"01000000cca1c25b010000000000000000000000000000000000000000000000000000000000000000ffffffff0401430101ffffffff0100000000000000001976a91497b7892a427eca62cd10568ed9383c620840cdd288ac00000000","txid":"9a8b83807c114866d3e8e83b18e2894309fe7bd3496511f0ac55bde791ae9797","version":1,"time":1539482060,"locktime":0,"vin":[{"coinbase":"01430101","sequence":4294967295}],"vout":[{"value":0,"n":0,"scriptPubKey":{"asm":"OP_DUP OP_HASH160 97b7892a427eca62cd10568ed9383c620840cdd2 OP_EQUALVERIFY OP_CHECKSIG","reqSigs":1,"type":"pubkeyhash","addresses":["pKNn6xoessxJqnv3UKdMtezXP48Nno7DPN"]}}],"blockhash":"0000004f38268c451163442955fbff76485b9fab524eef701e0740a22850f5c3","confirmations":378,"blocktime":1539482060}