{"hex":"01000000958be05b01afcf6fa7ab8fb5b2151422ba08d83570b4d11de81efc14a024d2eb05b55cab7a010000006b483045022100986340cf34f14964db9d4fb766749e2a1471510aeac9a5ae7074c30fa758ce7202204757336d77c19a80b4ba2bd0407e1ffbff43c87a34f0027a16c6e68af1e380c101210238c0cb3a6d1edfe9aa36320af11c672452fd794c3d054397f65d4524f70bd199ffffffff02c33a8700000000001976a914e9aa9f324ed9b8efccb240c46cb67f2a90d9657f88ac93631900000000001976a91410d2b5cf57d5fd8832fc6c2e839fc123f9849c2d88ac00000000","txid":"3ebafbc6c18c028ef07df40dd96c0788606437790e736e5be9db7118b56e65f7","version":1,"time":1541442464,"locktime":0,"vin":[{"txid":"7aab5cb505ebd224a014fc1ee81dd1b47035d808ba221415b2b58faba76fcfaf","vout":1,"scriptSig":{"asm":"3045022100986340cf34f14964db9d4fb766749e2a1471510aeac9a5ae7074c30fa758ce7202204757336d77c19a80b4ba2bd0407e1ffbff43c87a34f0027a16c6e68af1e380c101 0238c0cb3a6d1edfe9aa36320af11c672452fd794c3d054397f65d4524f70bd199","hex":"483045022100986340cf34f14964db9d4fb766749e2a1471510aeac9a5ae7074c30fa758ce7202204757336d77c19a80b4ba2bd0407e1ffbff43c87a34f0027a16c6e68af1e380c101210238c0cb3a6d1edfe9aa36320af11c672452fd794c3d054397f65d4524f70bd199"},"sequence":4294967295}],"vout":[{"value":0.08862403,"n":0,"scriptPubKey":{"asm":"OP_DUP OP_HASH160 e9aa9f324ed9b8efccb240c46cb67f2a90d9657f OP_EQUALVERIFY OP_CHECKSIG","reqSigs":1,"type":"pubkeyhash","addresses":["pSr63R8MNw9hcHwUFXSDR3Z5A4jJPiVdSm"]}},{"value":0.01663891,"n":1,"scriptPubKey":{"asm":"OP_DUP OP_HASH160 10d2b5cf57d5fd8832fc6c2e839fc123f9849c2d OP_EQUALVERIFY OP_CHECKSIG","reqSigs":1,"type":"pubkeyhash","addresses":["p75XSB9okVBkzv25xdGLwyX3y8uiNZxpgA"]}}],"blockhash":"73509cec2341686598125b7d446106d25da28382fee9626d4c8cb3b81d1239fd","confirmations":20,"blocktime":1541442464}