{"hex":"01000000a08be05b018f4cab9a3b1e6a65ae7f01278fc3cdb738bd4397570d16060533e9151a9751370200000049483045022100e5d9f3c4f8e3b770855d560839dcf074b1a55ed52dc46bd33c7e3c25a7aa64840220483253c6dd1c5e5051b5a8391ab0c9b818e5da3ae4dbd8c3ddb47cc73b32fd2301ffffffff0400000000000000000000a2941a1d000000232103ded637fb2e1237df3883677d705f85a97ed346e525b021a0c91a13b35307eb36ac09a3941a1d000000232103ded637fb2e1237df3883677d705f85a97ed346e525b021a0c91a13b35307eb36ac85050000000000001976a9144c86b0b2edcbbfcf0d0112bbb160a541568205b788ac00000000","txid":"d937329118983da2f77cdd2fbc2dc37fc0c95ed93743bb291820deb4b9d5fc32","version":1,"time":1541442464,"locktime":0,"vin":[{"txid":"3751971a15e9330506160d579743bd38b7cdc38f27017fae656a1e3b9aab4c8f","vout":2,"scriptSig":{"asm":"3045022100e5d9f3c4f8e3b770855d560839dcf074b1a55ed52dc46bd33c7e3c25a7aa64840220483253c6dd1c5e5051b5a8391ab0c9b818e5da3ae4dbd8c3ddb47cc73b32fd2301","hex":"483045022100e5d9f3c4f8e3b770855d560839dcf074b1a55ed52dc46bd33c7e3c25a7aa64840220483253c6dd1c5e5051b5a8391ab0c9b818e5da3ae4dbd8c3ddb47cc73b32fd2301"},"sequence":4294967295}],"vout":[{"value":0,"n":0,"scriptPubKey":{"asm":"","type":"nonstandard"}},{"value":1250,"n":1,"scriptPubKey":{"asm":"03ded637fb2e1237df3883677d705f85a97ed346e525b021a0c91a13b35307eb36 OP_CHECKSIG","reqSigs":1,"type":"pubkey","addresses":["pKPGpRbrLFtB8pJLBr7nVTxsjHpfbwG83K"]}},{"value":1250.00000265,"n":2,"scriptPubKey":{"asm":"03ded637fb2e1237df3883677d705f85a97ed346e525b021a0c91a13b35307eb36 OP_CHECKSIG","reqSigs":1,"type":"pubkey","addresses":["pKPGpRbrLFtB8pJLBr7nVTxsjHpfbwG83K"]}},{"value":0.00001413,"n":3,"scriptPubKey":{"asm":"OP_DUP OP_HASH160 4c86b0b2edcbbfcf0d0112bbb160a541568205b7 OP_EQUALVERIFY OP_CHECKSIG","reqSigs":1,"type":"pubkeyhash","addresses":["pCXCuj4F9uaYHMue5Nqy3XLKdLz4U9gRoi"]}}],"blockhash":"73509cec2341686598125b7d446106d25da28382fee9626d4c8cb3b81d1239fd","confirmations":20,"blocktime":1541442464}