{"hex":"01000000d02cd75b01cfceb683473f5b1ddd5d1c896112a4a22cd1faf9a0af56c79ae8605d1ffbd42b010000004847304402201d61ef4fabf93822eaab68434fb46f4105f1ee6aa95e7ed7d693e415b53d6921022068b523b8a7daf732bcf487c83a5222b16c5d82460920c9dbae35f728d272398c01ffffffff03000000000000000000f426b1d1010000002321020b1cd26fc4b9f080aea1cf7b667efd5e8453f70429056589831fa7f63506ddbfacf54d0100000000001976a9141992ad5700ade9422585b3e7af7cd994d29d4ca888ac00000000","txid":"8d23d7a666d6beb6e2a7771b1bc90a9642a79a9862a9aaa3a8d924c0d10e9e36","version":1,"time":1540828368,"locktime":0,"vin":[{"txid":"2bd4fb1f5d60e89ac756afa0f9fad12ca2a41261891c5ddd1d5b3f4783b6cecf","vout":1,"scriptSig":{"asm":"304402201d61ef4fabf93822eaab68434fb46f4105f1ee6aa95e7ed7d693e415b53d6921022068b523b8a7daf732bcf487c83a5222b16c5d82460920c9dbae35f728d272398c01","hex":"47304402201d61ef4fabf93822eaab68434fb46f4105f1ee6aa95e7ed7d693e415b53d6921022068b523b8a7daf732bcf487c83a5222b16c5d82460920c9dbae35f728d272398c01"},"sequence":4294967295}],"vout":[{"value":0,"n":0,"scriptPubKey":{"asm":"","type":"nonstandard"}},{"value":78.13015284,"n":1,"scriptPubKey":{"asm":"020b1cd26fc4b9f080aea1cf7b667efd5e8453f70429056589831fa7f63506ddbf OP_CHECKSIG","reqSigs":1,"type":"pubkey","addresses":["pECTDpfW4nW8hYte3f3F9ZQxwgWmBwmcYL"]}},{"value":0.00085493,"n":2,"scriptPubKey":{"asm":"OP_DUP OP_HASH160 1992ad5700ade9422585b3e7af7cd994d29d4ca8 OP_EQUALVERIFY OP_CHECKSIG","reqSigs":1,"type":"pubkeyhash","addresses":["p7snoofvhm9cmcDcAmpbzCVHFFEt2fdccj"]}}],"blockhash":"4873469ced17b42f4a86a4c30a5bbd4db0d0042ceca11fd9c578fb0bbcffaf18","confirmations":193,"blocktime":1540828368}