{"hex":"01000000c12cd75b01115cf179db4250ba2bc5ede4c64079d29516e223fdb68ab7002a9d75089ee257030000006b483045022100dadaa20dd3bc4dc728225485dd3be4c0fd5160823567f16db4177c805e479bf602205741078dea886b5db1ab62561c08ac43e2fbcb6c84bf49b9406f7a84c63288d50121029e857134122939a57279b02312e296a02bcf0cf876ddc541bd372450215dbeacffffffff02ceb32104000000001976a91484dacfc16364f54c5494044e96ed3944714cb61288accdc1fe05000000001976a914d418453aba144fd35e9d7303600d15eff9801eb788ac00000000","txid":"cd05f5000dc973576b7b46f178bb6c133ca21ef8f38c27870bf2d741deeac312","version":1,"time":1540828368,"locktime":0,"vin":[{"txid":"57e29e08759d2a00b78ab6fd23e21695d27940c6e4edc52bba5042db79f15c11","vout":3,"scriptSig":{"asm":"3045022100dadaa20dd3bc4dc728225485dd3be4c0fd5160823567f16db4177c805e479bf602205741078dea886b5db1ab62561c08ac43e2fbcb6c84bf49b9406f7a84c63288d501 029e857134122939a57279b02312e296a02bcf0cf876ddc541bd372450215dbeac","hex":"483045022100dadaa20dd3bc4dc728225485dd3be4c0fd5160823567f16db4177c805e479bf602205741078dea886b5db1ab62561c08ac43e2fbcb6c84bf49b9406f7a84c63288d50121029e857134122939a57279b02312e296a02bcf0cf876ddc541bd372450215dbeac"},"sequence":4294967295}],"vout":[{"value":0.69317582,"n":0,"scriptPubKey":{"asm":"OP_DUP OP_HASH160 84dacfc16364f54c5494044e96ed3944714cb612 OP_EQUALVERIFY OP_CHECKSIG","reqSigs":1,"type":"pubkeyhash","addresses":["pHf3XKW6z68hFMGpgRryA9FnD5eP27XoA5"]}},{"value":1.00581837,"n":1,"scriptPubKey":{"asm":"OP_DUP OP_HASH160 d418453aba144fd35e9d7303600d15eff9801eb7 OP_EQUALVERIFY OP_CHECKSIG","reqSigs":1,"type":"pubkeyhash","addresses":["pQt2XiGwHQEscn97wLdn6s2xh81cBmrkxD"]}}],"blockhash":"4873469ced17b42f4a86a4c30a5bbd4db0d0042ceca11fd9c578fb0bbcffaf18","confirmations":193,"blocktime":1540828368}