{"hex":"0100000070ccd45b01a475759fe3ecc034c33ed37427f7d5043de9123c730750b39921799a2897a8900100000049483045022100c398c125d4bc4c575d33232de8f602c53c69627124bccad2550b7433ff6229c0022015df93bd41ec7e91589a8f406172069c157229547343983b8abf8c221fbf92b001ffffffff0400000000000000000000514a8d0e0000002321020b1cd26fc4b9f080aea1cf7b667efd5e8453f70429056589831fa7f63506ddbfac96514a8d0e0000002321020b1cd26fc4b9f080aea1cf7b667efd5e8453f70429056589831fa7f63506ddbfac52030000000000001976a9147cf288aefa27580772a2e44d947f0a962553405d88ac00000000","txid":"408aa35112390f5ef2c53182f6be706c67ad9affcfb659230383b358dd0aea4c","version":1,"time":1540672624,"locktime":0,"vin":[{"txid":"90a897289a792199b35007733c12e93d04d5f72774d33ec334c0ece39f7575a4","vout":1,"scriptSig":{"asm":"3045022100c398c125d4bc4c575d33232de8f602c53c69627124bccad2550b7433ff6229c0022015df93bd41ec7e91589a8f406172069c157229547343983b8abf8c221fbf92b001","hex":"483045022100c398c125d4bc4c575d33232de8f602c53c69627124bccad2550b7433ff6229c0022015df93bd41ec7e91589a8f406172069c157229547343983b8abf8c221fbf92b001"},"sequence":4294967295}],"vout":[{"value":0,"n":0,"scriptPubKey":{"asm":"","type":"nonstandard"}},{"value":625,"n":1,"scriptPubKey":{"asm":"020b1cd26fc4b9f080aea1cf7b667efd5e8453f70429056589831fa7f63506ddbf OP_CHECKSIG","reqSigs":1,"type":"pubkey","addresses":["pECTDpfW4nW8hYte3f3F9ZQxwgWmBwmcYL"]}},{"value":625.0000015,"n":2,"scriptPubKey":{"asm":"020b1cd26fc4b9f080aea1cf7b667efd5e8453f70429056589831fa7f63506ddbf OP_CHECKSIG","reqSigs":1,"type":"pubkey","addresses":["pECTDpfW4nW8hYte3f3F9ZQxwgWmBwmcYL"]}},{"value":0.0000085,"n":3,"scriptPubKey":{"asm":"OP_DUP OP_HASH160 7cf288aefa27580772a2e44d947f0a962553405d OP_EQUALVERIFY OP_CHECKSIG","reqSigs":1,"type":"pubkeyhash","addresses":["pGwEY3YdfsrsoLzpPy8zj5rEMTsKeC6Mb3"]}}],"blockhash":"ed4eb0da28db984924a8098d6d45e7b36dd652963e9f3f03943f15f20307ef74","confirmations":280,"blocktime":1540672624}