{"hex":"010000006fccd45b02e229855d0b624fb24cf13d0bc457e7b66ced1855dccbb1019d54c3b65cd8ef16010000006b483045022100ff7054d49572420652e9c9615a639d555ec506d91e56d03fb2a5121cdcab47a302205548e561163143117096177f6fe42db7b69a88154522cf941fa704438343dce9012103842d285e10ccca6141f900f39f04834b8b14c1de787fbf4bb09a2745075a0050ffffffff809c68691409d33e64cb3610fffd4aec56741fd9762a9751c8aa52be3f626197000000006a47304402207ccec972f2259fb91924791ed8faae12e1805fe5310fe2e58f3d7aa8238713cf02205bca833eb7046becd1a041973d79f2a7313f70d83fb9511317d6b575628d58020121029e857134122939a57279b02312e296a02bcf0cf876ddc541bd372450215dbeacffffffff0256571000000000001976a914b2067a24fae81fbcefb73e16dd484f55874d04be88ac40420f00000000001976a914ec12950ac569b86c549d98f06403cf4e17ed0f3e88ac00000000","txid":"cc2c7f5a3a619018ecf31e5bbc72c2c67327abec12823cad1ff638c7939bca80","version":1,"time":1540672624,"locktime":0,"vin":[{"txid":"16efd85cb6c3549d01b1cbdc5518ed6cb6e757c40b3df14cb24f620b5d8529e2","vout":1,"scriptSig":{"asm":"3045022100ff7054d49572420652e9c9615a639d555ec506d91e56d03fb2a5121cdcab47a302205548e561163143117096177f6fe42db7b69a88154522cf941fa704438343dce901 03842d285e10ccca6141f900f39f04834b8b14c1de787fbf4bb09a2745075a0050","hex":"483045022100ff7054d49572420652e9c9615a639d555ec506d91e56d03fb2a5121cdcab47a302205548e561163143117096177f6fe42db7b69a88154522cf941fa704438343dce9012103842d285e10ccca6141f900f39f04834b8b14c1de787fbf4bb09a2745075a0050"},"sequence":4294967295},{"txid":"9761623fbe52aac851972a76d91f7456ec4afdff1036cb643ed3091469689c80","vout":0,"scriptSig":{"asm":"304402207ccec972f2259fb91924791ed8faae12e1805fe5310fe2e58f3d7aa8238713cf02205bca833eb7046becd1a041973d79f2a7313f70d83fb9511317d6b575628d580201 029e857134122939a57279b02312e296a02bcf0cf876ddc541bd372450215dbeac","hex":"47304402207ccec972f2259fb91924791ed8faae12e1805fe5310fe2e58f3d7aa8238713cf02205bca833eb7046becd1a041973d79f2a7313f70d83fb9511317d6b575628d58020121029e857134122939a57279b02312e296a02bcf0cf876ddc541bd372450215dbeac"},"sequence":4294967295}],"vout":[{"value":0.01070934,"n":0,"scriptPubKey":{"asm":"OP_DUP OP_HASH160 b2067a24fae81fbcefb73e16dd484f55874d04be OP_EQUALVERIFY OP_CHECKSIG","reqSigs":1,"type":"pubkeyhash","addresses":["pMmtEtaGsMUr8E8jWr7VUWZNmZ84zHGfSp"]}},{"value":0.01,"n":1,"scriptPubKey":{"asm":"OP_DUP OP_HASH160 ec12950ac569b86c549d98f06403cf4e17ed0f3e OP_EQUALVERIFY OP_CHECKSIG","reqSigs":1,"type":"pubkeyhash","addresses":["pT4ow6EkJvbvBFA5GkVTfiHDEBUVzCN9Hv"]}}],"blockhash":"ed4eb0da28db984924a8098d6d45e7b36dd652963e9f3f03943f15f20307ef74","confirmations":280,"blocktime":1540672624}