{"hex":"01000000e006da5b018dc8dfc37959587b11fa2e551a00a51a7bc891d35d6c054a4b4e6c519009697e0100000048473044022066cb6a1dc7392f6b00f46af4e5210a300c116535d5629bd1ea4d665e5fdf505a022072715a139059eb29e33ffbd330c2da57a08bdb7aa3ef19cd93d9de8b49103cfc01ffffffff0400000000000000000000a2941a1d00000023210210c18e3b5aba3a6167f17a2fd6b65419de165b4388a78f0e815f0e3bc60d34f3acf6df941a1d00000023210210c18e3b5aba3a6167f17a2fd6b65419de165b4388a78f0e815f0e3bc60d34f3ac1c5f0100000000001976a91473471adebcd697ea1dc18e8db2582a74a6bab88188ac00000000","txid":"0b867156c65b552c8add1288132c8432f4259edbdbc89d49668084d2c4f117b5","version":1,"time":1541015264,"locktime":0,"vin":[{"txid":"7e690990516c4e4b4a056c5dd391c87b1aa5001a552efa117b585979c3dfc88d","vout":1,"scriptSig":{"asm":"3044022066cb6a1dc7392f6b00f46af4e5210a300c116535d5629bd1ea4d665e5fdf505a022072715a139059eb29e33ffbd330c2da57a08bdb7aa3ef19cd93d9de8b49103cfc01","hex":"473044022066cb6a1dc7392f6b00f46af4e5210a300c116535d5629bd1ea4d665e5fdf505a022072715a139059eb29e33ffbd330c2da57a08bdb7aa3ef19cd93d9de8b49103cfc01"},"sequence":4294967295}],"vout":[{"value":0,"n":0,"scriptPubKey":{"asm":"","type":"nonstandard"}},{"value":1250,"n":1,"scriptPubKey":{"asm":"0210c18e3b5aba3a6167f17a2fd6b65419de165b4388a78f0e815f0e3bc60d34f3 OP_CHECKSIG","reqSigs":1,"type":"pubkey","addresses":["pFf1Gp4G6PCkSUxUY1XLwNBH2ji6sBJMC3"]}},{"value":1250.00015862,"n":2,"scriptPubKey":{"asm":"0210c18e3b5aba3a6167f17a2fd6b65419de165b4388a78f0e815f0e3bc60d34f3 OP_CHECKSIG","reqSigs":1,"type":"pubkey","addresses":["pFf1Gp4G6PCkSUxUY1XLwNBH2ji6sBJMC3"]}},{"value":0.00089884,"n":3,"scriptPubKey":{"asm":"OP_DUP OP_HASH160 73471adebcd697ea1dc18e8db2582a74a6bab881 OP_EQUALVERIFY OP_CHECKSIG","reqSigs":1,"type":"pubkeyhash","addresses":["pG476E2NDDXyKLQPSQr8zUwis1yY3UyfR9"]}}],"blockhash":"ee5f8f986182915a5f66c948721579d8e0f663c944f6951728fc6ec430de2db8","confirmations":120,"blocktime":1541015264}