{"hex":"01000000d906da5b01e37d23b5e7e689d289f9e071868a0b22792fd161de94650884fc0aec49cdbc7e010000006a4730440220469e141f9d4732038aa42d54e9d517fdbc616ca0b7ad57e5e6eea035be68ecbb02202ae75ee242bdcdc414ffcb924b6f2e52764a56fd77048eea804006b27908f1410121021e76b4e43e9b78fc3697acf89ae84f56a9514502a2e77b74f28e9a17481ba0cbffffffff02267e9705000000001976a9144c28ee798243702bc4500cdb4da9004130bb47f688ac91914d06000000001976a914709fe7c5672b42207480f995bc656f25ebe6ac6988ac00000000","txid":"ec0849def039cea290f514e4f16303812be141ba3a5c189c71ad94a2e70ed4dc","version":1,"time":1541015264,"locktime":0,"vin":[{"txid":"7ebccd49ec0afc84086594de61d12f79220b8a8671e0f989d289e6e7b5237de3","vout":1,"scriptSig":{"asm":"30440220469e141f9d4732038aa42d54e9d517fdbc616ca0b7ad57e5e6eea035be68ecbb02202ae75ee242bdcdc414ffcb924b6f2e52764a56fd77048eea804006b27908f14101 021e76b4e43e9b78fc3697acf89ae84f56a9514502a2e77b74f28e9a17481ba0cb","hex":"4730440220469e141f9d4732038aa42d54e9d517fdbc616ca0b7ad57e5e6eea035be68ecbb02202ae75ee242bdcdc414ffcb924b6f2e52764a56fd77048eea804006b27908f1410121021e76b4e43e9b78fc3697acf89ae84f56a9514502a2e77b74f28e9a17481ba0cb"},"sequence":4294967295}],"vout":[{"value":0.9381431,"n":0,"scriptPubKey":{"asm":"OP_DUP OP_HASH160 4c28ee798243702bc4500cdb4da9004130bb47f6 OP_EQUALVERIFY OP_CHECKSIG","reqSigs":1,"type":"pubkeyhash","addresses":["pCVGbFvFLapGyskXvwfxG2ss21bRU9FqUh"]}},{"value":1.05746833,"n":1,"scriptPubKey":{"asm":"OP_DUP OP_HASH160 709fe7c5672b42207480f995bc656f25ebe6ac69 OP_EQUALVERIFY OP_CHECKSIG","reqSigs":1,"type":"pubkeyhash","addresses":["pFp5ScJUDJxwzwd64zzkDTk8o2YAXKfMam"]}}],"blockhash":"ee5f8f986182915a5f66c948721579d8e0f663c944f6951728fc6ec430de2db8","confirmations":120,"blocktime":1541015264}