{"hex":"01000000f79dc25b010000000000000000000000000000000000000000000000000000000000000000ffffffff03540102ffffffff0100000000000000001976a9149391441e8d44aa2d1fe436d77435e19d1cf714c288ac00000000","txid":"b914ffe9cb9ec3165e00dcc117326620d9d2f0b88ff7db7b49e6c31e0b10a7ac","version":1,"time":1539481082,"locktime":0,"vin":[{"coinbase":"540102","sequence":4294967295}],"vout":[{"value":0,"n":0,"scriptPubKey":{"asm":"OP_DUP OP_HASH160 9391441e8d44aa2d1fe436d77435e19d1cf714c2 OP_EQUALVERIFY OP_CHECKSIG","reqSigs":1,"type":"pubkeyhash","addresses":["pJzqZAnifdEzarKS7HiuHovUSdwkvPtr4o"]}}],"blockhash":"00000c53ebc9fd56db0269e1f427a8eb9dd7f733849eab3432fd55ee271ba6c4","confirmations":155,"blocktime":1539481082}