{"hex":"01000000e08bdc5b01d51f2176812b005177318731068b0c7ab7d36a316e14e8b57848ab7dcb012c2401000000484730440220282941e397f65b9f1eac8ef656130208071fa56859b81ac6659ee4605f2be2fb02204c184ec5e3c5aa14e719d22cf21f6a2de6e265c742300ce2ff49113fe7fb4c2901ffffffff04000000000000000000007f74a4030000002321028d9be6ae35cf9126d1ddd81f7e9a33d77e64d908c42bf417d6424ba1da9106a6ac0f7f74a4030000002321028d9be6ae35cf9126d1ddd81f7e9a33d77e64d908c42bf417d6424ba1da9106a6ac55000000000000001976a914239bf4dba7e2193b7f701a7b68d0e94c85d85fac88ac00000000","txid":"941ae9d5c5d870ab81915b96adf72a0e4d695ebe8823a75c65262101691409e0","version":1,"time":1541180384,"locktime":0,"vin":[{"txid":"242c01cb7dab4878b5e8146e316ad3b77a0c8b063187317751002b8176211fd5","vout":1,"scriptSig":{"asm":"30440220282941e397f65b9f1eac8ef656130208071fa56859b81ac6659ee4605f2be2fb02204c184ec5e3c5aa14e719d22cf21f6a2de6e265c742300ce2ff49113fe7fb4c2901","hex":"4730440220282941e397f65b9f1eac8ef656130208071fa56859b81ac6659ee4605f2be2fb02204c184ec5e3c5aa14e719d22cf21f6a2de6e265c742300ce2ff49113fe7fb4c2901"},"sequence":4294967295}],"vout":[{"value":0,"n":0,"scriptPubKey":{"asm":"","type":"nonstandard"}},{"value":156.44,"n":1,"scriptPubKey":{"asm":"028d9be6ae35cf9126d1ddd81f7e9a33d77e64d908c42bf417d6424ba1da9106a6 OP_CHECKSIG","reqSigs":1,"type":"pubkey","addresses":["pG17eAwgEzq6zQQ7cLzvCMepRqGYMprwdz"]}},{"value":156.44000015,"n":2,"scriptPubKey":{"asm":"028d9be6ae35cf9126d1ddd81f7e9a33d77e64d908c42bf417d6424ba1da9106a6 OP_CHECKSIG","reqSigs":1,"type":"pubkey","addresses":["pG17eAwgEzq6zQQ7cLzvCMepRqGYMprwdz"]}},{"value":8.5e-7,"n":3,"scriptPubKey":{"asm":"OP_DUP OP_HASH160 239bf4dba7e2193b7f701a7b68d0e94c85d85fac OP_EQUALVERIFY OP_CHECKSIG","reqSigs":1,"type":"pubkeyhash","addresses":["p8nrgTxTfKDC3hvmSmFxDcxpYguUCo8yWb"]}}],"blockhash":"e63874a467a13d5e72f23494a48eddf15d89a6a4a8d025a3dc39a62308411192","confirmations":64,"blocktime":1541180384}