{"hex":"01000000de8bdc5b01925a9f02a1efcd1ddba405e343a038e3d59373f6e4cfe66f419e10e2cc0e4395000000006b4830450221008c9118948848b1e471659e353ea31ae93f3bd85fc0904408d4183c7fbc94eaa402201301cc8dd08cb23db7be8a3834971688790e2047bafc633047ffc14af15abf1b012103cd616e3bfb97faade9188e55e9bc4473f3c5942bdb4a3328aae23b184d8004f7ffffffff02c67c1000000000001976a9141872a5fb4c108bae15a0cbe63d0341a0259172cf88ace8030000000000001976a9143ecd88348ee8f63396925ed3c06c505b01c5134088ac00000000","txid":"fe57a6e77bb20925231967cf884eb497e02fe33cd72006f2749c60c99b765c07","version":1,"time":1541180384,"locktime":0,"vin":[{"txid":"95430ecce2109e416fe6cfe4f67393d5e338a043e305a4db1dcdefa1029f5a92","vout":0,"scriptSig":{"asm":"30450221008c9118948848b1e471659e353ea31ae93f3bd85fc0904408d4183c7fbc94eaa402201301cc8dd08cb23db7be8a3834971688790e2047bafc633047ffc14af15abf1b01 03cd616e3bfb97faade9188e55e9bc4473f3c5942bdb4a3328aae23b184d8004f7","hex":"4830450221008c9118948848b1e471659e353ea31ae93f3bd85fc0904408d4183c7fbc94eaa402201301cc8dd08cb23db7be8a3834971688790e2047bafc633047ffc14af15abf1b012103cd616e3bfb97faade9188e55e9bc4473f3c5942bdb4a3328aae23b184d8004f7"},"sequence":4294967295}],"vout":[{"value":0.01080518,"n":0,"scriptPubKey":{"asm":"OP_DUP OP_HASH160 1872a5fb4c108bae15a0cbe63d0341a0259172cf OP_EQUALVERIFY OP_CHECKSIG","reqSigs":1,"type":"pubkeyhash","addresses":["p7mqmDaBwLHtD68SMxFjUUMNHBRjBQCBUi"]}},{"value":0.00001,"n":1,"scriptPubKey":{"asm":"OP_DUP OP_HASH160 3ecd88348ee8f63396925ed3c06c505b01c51340 OP_EQUALVERIFY OP_CHECKSIG","reqSigs":1,"type":"pubkeyhash","addresses":["pBGeKDW5seRMHGmYAMHMLwUMSKaTuKqkNA"]}}],"blockhash":"e63874a467a13d5e72f23494a48eddf15d89a6a4a8d025a3dc39a62308411192","confirmations":64,"blocktime":1541180384}