{"hex":"01000000109ad65b0150abfa5960c0c6c6673a600815b55a23353061f25ae6097a8f14ea30aa4a79520200000049483045022100dd2a037b0e60294e610d89fc6ee4988902b74e9c5381fcb65120a507f8fb853e02204197e5986ea9900731095ce3e09f41df383d038e7b50823c8bc1284d5c4ce53101ffffffff0300000000000000000013ecb0d1010000002321020b1cd26fc4b9f080aea1cf7b667efd5e8453f70429056589831fa7f63506ddbfac55000000000000001976a91405799d876e3b7c328ae01baece26d0f931b0f5fa88ac00000000","txid":"9db1a8450cd9dad6ff4b864d17f0a376ea183732e3c043fe24dc970e0b4cb89a","version":1,"time":1540790800,"locktime":0,"vin":[{"txid":"52794aaa30ea148f7a09e65af2613035235ab51508603a67c6c6c06059faab50","vout":2,"scriptSig":{"asm":"3045022100dd2a037b0e60294e610d89fc6ee4988902b74e9c5381fcb65120a507f8fb853e02204197e5986ea9900731095ce3e09f41df383d038e7b50823c8bc1284d5c4ce53101","hex":"483045022100dd2a037b0e60294e610d89fc6ee4988902b74e9c5381fcb65120a507f8fb853e02204197e5986ea9900731095ce3e09f41df383d038e7b50823c8bc1284d5c4ce53101"},"sequence":4294967295}],"vout":[{"value":0,"n":0,"scriptPubKey":{"asm":"","type":"nonstandard"}},{"value":78.13000211,"n":1,"scriptPubKey":{"asm":"020b1cd26fc4b9f080aea1cf7b667efd5e8453f70429056589831fa7f63506ddbf OP_CHECKSIG","reqSigs":1,"type":"pubkey","addresses":["pECTDpfW4nW8hYte3f3F9ZQxwgWmBwmcYL"]}},{"value":8.5e-7,"n":2,"scriptPubKey":{"asm":"OP_DUP OP_HASH160 05799d876e3b7c328ae01baece26d0f931b0f5fa OP_EQUALVERIFY OP_CHECKSIG","reqSigs":1,"type":"pubkeyhash","addresses":["p63XGeVRkcywXEQJE5bkXjJFiugf8tT1er"]}}],"blockhash":"2640f813b7f40685b5040a14beecd29f68e45492fd0ff44ef268e59265771cdc","confirmations":242,"blocktime":1540790800}