{"hex":"01000000079ad65b01f67e2b97a3c9b22fb023e427a3f3fc0a7d4303abc639ad97115f61f78bf17f54000000006b48304502210096f874335e593ddb140ec19ea4b2912221916a43b4bb1de1792a032290610e4d0220108b149b8732f0fe0115a2005f7570ac5236a4c820ec55dcfc3599a2be6a679d012102a33333493302458d2ac772b2754ea902336aca8c0efa1e01706a8a87269c857fffffffff02b6ad1200000000001976a914fbc34e460894a5b78ebf478b338b9c4a3cd7730e88ac10270000000000001976a9147644efb2f98070ab8304baf1c13f70d6ff68c27788ac00000000","txid":"cf469a96ead17502c6ff1241d8269ec9ae8dc8ce84a2d1944259ec89b4f999b1","version":1,"time":1540790800,"locktime":0,"vin":[{"txid":"547ff18bf7615f1197ad39c6ab03437d0afcf3a327e423b02fb2c9a3972b7ef6","vout":0,"scriptSig":{"asm":"304502210096f874335e593ddb140ec19ea4b2912221916a43b4bb1de1792a032290610e4d0220108b149b8732f0fe0115a2005f7570ac5236a4c820ec55dcfc3599a2be6a679d01 02a33333493302458d2ac772b2754ea902336aca8c0efa1e01706a8a87269c857f","hex":"48304502210096f874335e593ddb140ec19ea4b2912221916a43b4bb1de1792a032290610e4d0220108b149b8732f0fe0115a2005f7570ac5236a4c820ec55dcfc3599a2be6a679d012102a33333493302458d2ac772b2754ea902336aca8c0efa1e01706a8a87269c857f"},"sequence":4294967295}],"vout":[{"value":0.01224118,"n":0,"scriptPubKey":{"asm":"OP_DUP OP_HASH160 fbc34e460894a5b78ebf478b338b9c4a3cd7730e OP_EQUALVERIFY OP_CHECKSIG","reqSigs":1,"type":"pubkeyhash","addresses":["pUVmmwHhj5uxqerYnEa42mTebDkVJzw7Yy"]}},{"value":0.0001,"n":1,"scriptPubKey":{"asm":"OP_DUP OP_HASH160 7644efb2f98070ab8304baf1c13f70d6ff68c277 OP_EQUALVERIFY OP_CHECKSIG","reqSigs":1,"type":"pubkeyhash","addresses":["pGKvX7zTUoszjqX3isNoZuGqfxjuZZNAYs"]}}],"blockhash":"2640f813b7f40685b5040a14beecd29f68e45492fd0ff44ef268e59265771cdc","confirmations":242,"blocktime":1540790800}