{"hex":"01000000b06ed35b015c6243167fc6dbceab9fd15b87d4ff3b21c71344a873df60cc8ddd4899f2e397010000006a47304402203b3c6565131d582effdba067c8c91485928fed06b7933eff14684847aa6101ed02206e5d640702d12498eb26ac7859de9f98b165a05544a4b0bfba4b7e10dedc7085012103d34eaffeafde46fde143c9a315fd9b15346917b41cead4876c1c25892c798698ffffffff04000000000000000000004429353a000000232103d34eaffeafde46fde143c9a315fd9b15346917b41cead4876c1c25892c798698ac114429353a000000232103d34eaffeafde46fde143c9a315fd9b15346917b41cead4876c1c25892c798698ac5c000000000000001976a9146ee8ae815746df1e1038d51169f823db3353ab0488ac00000000","txid":"c9ac2c49c538348a83c5e76fe1172e3fa2136c9737a04d681bfa6044424b1eb4","version":1,"time":1540583088,"locktime":0,"vin":[{"txid":"97e3f29948dd8dcc60df73a84413c7213bffd4875bd19fabcedbc67f1643625c","vout":1,"scriptSig":{"asm":"304402203b3c6565131d582effdba067c8c91485928fed06b7933eff14684847aa6101ed02206e5d640702d12498eb26ac7859de9f98b165a05544a4b0bfba4b7e10dedc708501 03d34eaffeafde46fde143c9a315fd9b15346917b41cead4876c1c25892c798698","hex":"47304402203b3c6565131d582effdba067c8c91485928fed06b7933eff14684847aa6101ed02206e5d640702d12498eb26ac7859de9f98b165a05544a4b0bfba4b7e10dedc7085012103d34eaffeafde46fde143c9a315fd9b15346917b41cead4876c1c25892c798698"},"sequence":4294967295}],"vout":[{"value":0,"n":0,"scriptPubKey":{"asm":"","type":"nonstandard"}},{"value":2500,"n":1,"scriptPubKey":{"asm":"03d34eaffeafde46fde143c9a315fd9b15346917b41cead4876c1c25892c798698 OP_CHECKSIG","reqSigs":1,"type":"pubkey","addresses":["p6exN3FuZmZyQ7WNzLf7AweTLuHqDvcERN"]}},{"value":2500.00000017,"n":2,"scriptPubKey":{"asm":"03d34eaffeafde46fde143c9a315fd9b15346917b41cead4876c1c25892c798698 OP_CHECKSIG","reqSigs":1,"type":"pubkey","addresses":["p6exN3FuZmZyQ7WNzLf7AweTLuHqDvcERN"]}},{"value":9.2e-7,"n":3,"scriptPubKey":{"asm":"OP_DUP OP_HASH160 6ee8ae815746df1e1038d51169f823db3353ab04 OP_EQUALVERIFY OP_CHECKSIG","reqSigs":1,"type":"pubkeyhash","addresses":["pFf1Gp4G6PCkSUxUY1XLwNBH2ji6sBJMC3"]}}],"blockhash":"8a7fbc281fb38819ca642a9838639a72e877d38ffb1231b9da228ac7f5d76674","confirmations":1,"blocktime":1540583088}