{"hex":"01000000a86ed35b024baeee1d293582c61ed19933fee0034dc8f54cf8c3865a0c6fb3d25e8b0d52d5000000006a473044022046dc21b444df3b4071ad42b7297048350b9cf519449a9598d322487183c8bb3202200bc5c3cc5abb024bb845d598623f18bcb9bb094874fa200b30a3252a212f2c710121029e857134122939a57279b02312e296a02bcf0cf876ddc541bd372450215dbeacffffffff4baeee1d293582c61ed19933fee0034dc8f54cf8c3865a0c6fb3d25e8b0d52d5010000006a4730440220616969c38fb73ec882848156e25eede98f510d6cb4d83e31339bc315bcdcd6f002201311d29571d73ca18a507640b4505e6ad975e1ddee44b2308c79fd7b061a6ca4012103e3c1ca0bdd3bfb2d3ebf734e7f6314db992ea604a6ac154de955430b545a34c4ffffffff02905f1000000000001976a9144c28ee798243702bc4500cdb4da9004130bb47f688acc9ac0100000000001976a9144cb6c5838fd6c1799568705f63c3c8e2e2406b7088ac00000000","txid":"c1c905ee1969f5040dad1ce3b1f982ad7b4ade987056ad9b2db81fd1307d73d4","version":1,"time":1540583088,"locktime":0,"vin":[{"txid":"d5520d8b5ed2b36f0c5a86c3f84cf5c84d03e0fe3399d11ec68235291deeae4b","vout":0,"scriptSig":{"asm":"3044022046dc21b444df3b4071ad42b7297048350b9cf519449a9598d322487183c8bb3202200bc5c3cc5abb024bb845d598623f18bcb9bb094874fa200b30a3252a212f2c7101 029e857134122939a57279b02312e296a02bcf0cf876ddc541bd372450215dbeac","hex":"473044022046dc21b444df3b4071ad42b7297048350b9cf519449a9598d322487183c8bb3202200bc5c3cc5abb024bb845d598623f18bcb9bb094874fa200b30a3252a212f2c710121029e857134122939a57279b02312e296a02bcf0cf876ddc541bd372450215dbeac"},"sequence":4294967295},{"txid":"d5520d8b5ed2b36f0c5a86c3f84cf5c84d03e0fe3399d11ec68235291deeae4b","vout":1,"scriptSig":{"asm":"30440220616969c38fb73ec882848156e25eede98f510d6cb4d83e31339bc315bcdcd6f002201311d29571d73ca18a507640b4505e6ad975e1ddee44b2308c79fd7b061a6ca401 03e3c1ca0bdd3bfb2d3ebf734e7f6314db992ea604a6ac154de955430b545a34c4","hex":"4730440220616969c38fb73ec882848156e25eede98f510d6cb4d83e31339bc315bcdcd6f002201311d29571d73ca18a507640b4505e6ad975e1ddee44b2308c79fd7b061a6ca4012103e3c1ca0bdd3bfb2d3ebf734e7f6314db992ea604a6ac154de955430b545a34c4"},"sequence":4294967295}],"vout":[{"value":0.0107304,"n":0,"scriptPubKey":{"asm":"OP_DUP OP_HASH160 4c28ee798243702bc4500cdb4da9004130bb47f6 OP_EQUALVERIFY OP_CHECKSIG","reqSigs":1,"type":"pubkeyhash","addresses":["pCVGbFvFLapGyskXvwfxG2ss21bRU9FqUh"]}},{"value":0.00109769,"n":1,"scriptPubKey":{"asm":"OP_DUP OP_HASH160 4cb6c5838fd6c1799568705f63c3c8e2e2406b70 OP_EQUALVERIFY OP_CHECKSIG","reqSigs":1,"type":"pubkeyhash","addresses":["pCYCWUS7h5X5RMBKvGgvkr6dDRjMt1RwLd"]}}],"blockhash":"8a7fbc281fb38819ca642a9838639a72e877d38ffb1231b9da228ac7f5d76674","confirmations":1,"blocktime":1540583088}