{"hex":"01000000b06ed35b01a1a79f43af140133151fb423e59d5a7332196d22e806396ad0be5121d6e64abb010000006a4730440220255546d54b9270bd48941fae0e87118c2c035ef5573cb36bd6145d53838cdbc90220769714e0cb472c9b0abe5690fc860dc85ee0611ce16323f7d4e8a06e09ffc77a01210361ffd466e9664d0aa0b0e228dca7e70515db8b7f39d1c0658b6ac3600594d1c5ffffffff04000000000000000000004429353a00000023210361ffd466e9664d0aa0b0e228dca7e70515db8b7f39d1c0658b6ac3600594d1c5ac114429353a00000023210361ffd466e9664d0aa0b0e228dca7e70515db8b7f39d1c0658b6ac3600594d1c5ac5c000000000000001976a9146ee8ae815746df1e1038d51169f823db3353ab0488ac00000000","txid":"e93e27c55451da783df04ad59eb32b657c61c3def1798330a37327c5926eefcc","version":1,"time":1540583088,"locktime":0,"vin":[{"txid":"bb4ae6d62151bed06a3906e8226d1932735a9de523b41f15330114af439fa7a1","vout":1,"scriptSig":{"asm":"30440220255546d54b9270bd48941fae0e87118c2c035ef5573cb36bd6145d53838cdbc90220769714e0cb472c9b0abe5690fc860dc85ee0611ce16323f7d4e8a06e09ffc77a01 0361ffd466e9664d0aa0b0e228dca7e70515db8b7f39d1c0658b6ac3600594d1c5","hex":"4730440220255546d54b9270bd48941fae0e87118c2c035ef5573cb36bd6145d53838cdbc90220769714e0cb472c9b0abe5690fc860dc85ee0611ce16323f7d4e8a06e09ffc77a01210361ffd466e9664d0aa0b0e228dca7e70515db8b7f39d1c0658b6ac3600594d1c5"},"sequence":4294967295}],"vout":[{"value":0,"n":0,"scriptPubKey":{"asm":"","type":"nonstandard"}},{"value":2500,"n":1,"scriptPubKey":{"asm":"0361ffd466e9664d0aa0b0e228dca7e70515db8b7f39d1c0658b6ac3600594d1c5 OP_CHECKSIG","reqSigs":1,"type":"pubkey","addresses":["pC1wxaZd5uPGVcS5qD2uTMroMjSKK1iXMB"]}},{"value":2500.00000017,"n":2,"scriptPubKey":{"asm":"0361ffd466e9664d0aa0b0e228dca7e70515db8b7f39d1c0658b6ac3600594d1c5 OP_CHECKSIG","reqSigs":1,"type":"pubkey","addresses":["pC1wxaZd5uPGVcS5qD2uTMroMjSKK1iXMB"]}},{"value":9.2e-7,"n":3,"scriptPubKey":{"asm":"OP_DUP OP_HASH160 6ee8ae815746df1e1038d51169f823db3353ab04 OP_EQUALVERIFY OP_CHECKSIG","reqSigs":1,"type":"pubkeyhash","addresses":["pFf1Gp4G6PCkSUxUY1XLwNBH2ji6sBJMC3"]}}],"blockhash":"cf39fb0454a56540a73db4dc197ea0f38bc9ead278e52766eb71031e8f7338f6","confirmations":287,"blocktime":1540583088}