{"hex":"010000003d9ec25b010000000000000000000000000000000000000000000000000000000000000000ffffffff035c0102ffffffff0100000000000000001976a91403ba9b501d57ecfe46bd559c7a1237a06a225ece88ac00000000","txid":"087a035cfc721c7fd54a20817a0ea78082f12fb8a142751ece7b984dc41426b9","version":1,"time":1539481156,"locktime":0,"vin":[{"coinbase":"5c0102","sequence":4294967295}],"vout":[{"value":0,"n":0,"scriptPubKey":{"asm":"OP_DUP OP_HASH160 03ba9b501d57ecfe46bd559c7a1237a06a225ece OP_EQUALVERIFY OP_CHECKSIG","reqSigs":1,"type":"pubkeyhash","addresses":["p5tHmwYbq1mGEPT67AFymfR9zP5MUhY5BX"]}}],"blockhash":"0000048d5161b66ca9292a061f8ed69e1300fbb404998f2fc6a6bd45d25a9827","confirmations":147,"blocktime":1539481156}