{"hex":"01000000908be05b018f4cab9a3b1e6a65ae7f01278fc3cdb738bd4397570d16060533e9151a9751370100000049483045022100d0e719284589378636f81f0bf13ca63950b84d8aa53b38d496145ac859afc4ef022060c0dc331ed2b2c576b8083242eeba4c700cf3fb0e7db21b56c04ec40ba2801201ffffffff0400000000000000000000a2941a1d000000232103ded637fb2e1237df3883677d705f85a97ed346e525b021a0c91a13b35307eb36ac2ca8941a1d000000232103ded637fb2e1237df3883677d705f85a97ed346e525b021a0c91a13b35307eb36acf3220000000000001976a91413cd926daa0b2e1422cabca27e3cbc3aebbee60e88ac00000000","txid":"2152c23fc64f19c55063c65548a34c94b18abbd80e930cb5341312ff1a0c6ac8","version":1,"time":1541442448,"locktime":0,"vin":[{"txid":"3751971a15e9330506160d579743bd38b7cdc38f27017fae656a1e3b9aab4c8f","vout":1,"scriptSig":{"asm":"3045022100d0e719284589378636f81f0bf13ca63950b84d8aa53b38d496145ac859afc4ef022060c0dc331ed2b2c576b8083242eeba4c700cf3fb0e7db21b56c04ec40ba2801201","hex":"483045022100d0e719284589378636f81f0bf13ca63950b84d8aa53b38d496145ac859afc4ef022060c0dc331ed2b2c576b8083242eeba4c700cf3fb0e7db21b56c04ec40ba2801201"},"sequence":4294967295}],"vout":[{"value":0,"n":0,"scriptPubKey":{"asm":"","type":"nonstandard"}},{"value":1250,"n":1,"scriptPubKey":{"asm":"03ded637fb2e1237df3883677d705f85a97ed346e525b021a0c91a13b35307eb36 OP_CHECKSIG","reqSigs":1,"type":"pubkey","addresses":["pKPGpRbrLFtB8pJLBr7nVTxsjHpfbwG83K"]}},{"value":1250.0000158,"n":2,"scriptPubKey":{"asm":"03ded637fb2e1237df3883677d705f85a97ed346e525b021a0c91a13b35307eb36 OP_CHECKSIG","reqSigs":1,"type":"pubkey","addresses":["pKPGpRbrLFtB8pJLBr7nVTxsjHpfbwG83K"]}},{"value":0.00008947,"n":3,"scriptPubKey":{"asm":"OP_DUP OP_HASH160 13cd926daa0b2e1422cabca27e3cbc3aebbee60e OP_EQUALVERIFY OP_CHECKSIG","reqSigs":1,"type":"pubkeyhash","addresses":["p7MHJk1NCoVwVPjx7mEGWrpeSkLSYSZyuV"]}}],"blockhash":"b0a7acbc20850e859a4e1271ec591f31d755ff748bf0d99d35fe4a15aef30247","confirmations":21,"blocktime":1541442448}