{"hex":"01000000858be05b01330982d92551eee7e99a72f3161a71b27df40d6d749203cce6edf9b448b5cfb8010000006a47304402200f874ceb033da9fe2bb45569aa7c485c7e43be4e71bf3e2c7b3562e9d09abfa7022008cb8b8caf0a0a734a66eb6545043b7d00f33e0d104729fbf82bd3364b5897e60121032104cf635648fa83f283232a59e213d3845f57b46ee1a9ef9727f37efc1207c2ffffffff02d1407202000000001976a914f4b6d762fd9e7776ef5f11f0bfa8552c33abdef588acd5a4a000000000001976a914ce394209a05ef296b1b40a830a072663a0fef3ed88ac00000000","txid":"7aab5cb505ebd224a014fc1ee81dd1b47035d808ba221415b2b58faba76fcfaf","version":1,"time":1541442448,"locktime":0,"vin":[{"txid":"b8cfb548b4f9ede6cc0392746d0df47db2711a16f3729ae9e7ee5125d9820933","vout":1,"scriptSig":{"asm":"304402200f874ceb033da9fe2bb45569aa7c485c7e43be4e71bf3e2c7b3562e9d09abfa7022008cb8b8caf0a0a734a66eb6545043b7d00f33e0d104729fbf82bd3364b5897e601 032104cf635648fa83f283232a59e213d3845f57b46ee1a9ef9727f37efc1207c2","hex":"47304402200f874ceb033da9fe2bb45569aa7c485c7e43be4e71bf3e2c7b3562e9d09abfa7022008cb8b8caf0a0a734a66eb6545043b7d00f33e0d104729fbf82bd3364b5897e60121032104cf635648fa83f283232a59e213d3845f57b46ee1a9ef9727f37efc1207c2"},"sequence":4294967295}],"vout":[{"value":0.41042129,"n":0,"scriptPubKey":{"asm":"OP_DUP OP_HASH160 f4b6d762fd9e7776ef5f11f0bfa8552c33abdef5 OP_EQUALVERIFY OP_CHECKSIG","reqSigs":1,"type":"pubkeyhash","addresses":["pTrW7YymvrFddb5yeF9vb6krZVSXVm6Mt8"]}},{"value":0.10527957,"n":1,"scriptPubKey":{"asm":"OP_DUP OP_HASH160 ce394209a05ef296b1b40a830a072663a0fef3ed OP_EQUALVERIFY OP_CHECKSIG","reqSigs":1,"type":"pubkeyhash","addresses":["pQLyzaKpL21R1GPyj4y6JkkMz8xs71b5DY"]}}],"blockhash":"b0a7acbc20850e859a4e1271ec591f31d755ff748bf0d99d35fe4a15aef30247","confirmations":21,"blocktime":1541442448}