{"hex":"01000000101ed15b0128af7587f8892ebf84be2433eb0a069d7474365d29362c754635bd8239b144050200000049483045022100f17b5bd73d3ddbd1a101006f8f22c3a400c33b0c9a64100dac60f3f511b795a002203b0af8a6125f59e49dbcf6d165a589cef55ec47872f70f5ebb4eb88e3bd62d2101ffffffff04000000000000000000c021aea30300000023210348b24f77eda58d2bf0bd56f764cfdeb0100d2f1058b2d5318f2f2fc9670e730eac2064bda30300000023210348b24f77eda58d2bf0bd56f764cfdeb0100d2f1058b2d5318f2f2fc9670e730eac5b000000000000001976a9140383cbf635d4aaab0b3af12f3877f122911d227188ac00000000","txid":"5df51a4046478a2a71538fb637d13f79e0c65554631d85885551c73ba19024b5","version":1,"time":1540431376,"locktime":0,"vin":[{"txid":"0544b13982bd3546752c36295d3674749d060aeb3324be84bf2e89f88775af28","vout":2,"scriptSig":{"asm":"3045022100f17b5bd73d3ddbd1a101006f8f22c3a400c33b0c9a64100dac60f3f511b795a002203b0af8a6125f59e49dbcf6d165a589cef55ec47872f70f5ebb4eb88e3bd62d2101","hex":"483045022100f17b5bd73d3ddbd1a101006f8f22c3a400c33b0c9a64100dac60f3f511b795a002203b0af8a6125f59e49dbcf6d165a589cef55ec47872f70f5ebb4eb88e3bd62d2101"},"sequence":4294967295}],"vout":[{"value":0,"n":0,"scriptPubKey":{"asm":"","type":"nonstandard"}},{"value":156.31,"n":1,"scriptPubKey":{"asm":"0348b24f77eda58d2bf0bd56f764cfdeb0100d2f1058b2d5318f2f2fc9670e730e OP_CHECKSIG","reqSigs":1,"type":"pubkey","addresses":["p8X7huKtvdnnDzc17Xcxxh1Z9ww8ckxvVJ"]}},{"value":156.32000032,"n":2,"scriptPubKey":{"asm":"0348b24f77eda58d2bf0bd56f764cfdeb0100d2f1058b2d5318f2f2fc9670e730e OP_CHECKSIG","reqSigs":1,"type":"pubkey","addresses":["p8X7huKtvdnnDzc17Xcxxh1Z9ww8ckxvVJ"]}},{"value":9.1e-7,"n":3,"scriptPubKey":{"asm":"OP_DUP OP_HASH160 0383cbf635d4aaab0b3af12f3877f122911d2271 OP_EQUALVERIFY OP_CHECKSIG","reqSigs":1,"type":"pubkeyhash","addresses":["p5sA7gHHpq5pfbFUafcJM8oF4ZCvf3vkks"]}}],"blockhash":"5d39a21d9aa2c2745ff08435a325ead363f7a0160c871c43dd13610958f1a24e","confirmations":9,"blocktime":1540431376}