{"hex":"01000000091ed15b01c0f6666fb5ecda2e08b9e0835d3ac7ee4d30ea604df9204f28b0f40c521625aa000000006a473044022035eb27def0269526055e4066afaffd18161ba70bbb8d1d3edbf1b074f19d9d0f02202849b6a868f46d7bde06c356d5c8e8e43db4b7999cb8ccb0c742c99df44ceb6d0121029e857134122939a57279b02312e296a02bcf0cf876ddc541bd372450215dbeacffffffff0293fd1a00000000001976a9144c28ee798243702bc4500cdb4da9004130bb47f688acf5a60100000000001976a914f8b6db1ad2a3675afd198a8858b9fdcc2d37896788ac00000000","txid":"f67c5772df66eb0ad0d98b1bb22e74161c366368ecf5acf276a4b888841b7498","version":1,"time":1540431376,"locktime":0,"vin":[{"txid":"aa2516520cf4b0284f20f94d60ea304deec73a5d83e0b9082edaecb56f66f6c0","vout":0,"scriptSig":{"asm":"3044022035eb27def0269526055e4066afaffd18161ba70bbb8d1d3edbf1b074f19d9d0f02202849b6a868f46d7bde06c356d5c8e8e43db4b7999cb8ccb0c742c99df44ceb6d01 029e857134122939a57279b02312e296a02bcf0cf876ddc541bd372450215dbeac","hex":"473044022035eb27def0269526055e4066afaffd18161ba70bbb8d1d3edbf1b074f19d9d0f02202849b6a868f46d7bde06c356d5c8e8e43db4b7999cb8ccb0c742c99df44ceb6d0121029e857134122939a57279b02312e296a02bcf0cf876ddc541bd372450215dbeac"},"sequence":4294967295}],"vout":[{"value":0.01768851,"n":0,"scriptPubKey":{"asm":"OP_DUP OP_HASH160 4c28ee798243702bc4500cdb4da9004130bb47f6 OP_EQUALVERIFY OP_CHECKSIG","reqSigs":1,"type":"pubkeyhash","addresses":["pCVGbFvFLapGyskXvwfxG2ss21bRU9FqUh"]}},{"value":0.00108277,"n":1,"scriptPubKey":{"asm":"OP_DUP OP_HASH160 f8b6db1ad2a3675afd198a8858b9fdcc2d378967 OP_EQUALVERIFY OP_CHECKSIG","reqSigs":1,"type":"pubkeyhash","addresses":["pUDeqL1mJFB1RnVPg3jf6Bbu7oXWFxvVBD"]}}],"blockhash":"5d39a21d9aa2c2745ff08435a325ead363f7a0160c871c43dd13610958f1a24e","confirmations":9,"blocktime":1540431376}