{"hex":"01000000704bd65b01f7d9b45a209f56c7c36354450963e1e92f88fa15a67ca23bfb90d5041f3f1810000000006a47304402201079842bf2198911be2253418f39caf470f7c6cdc6127f4f612ce2f00814a3620220299b41aede6ffd5bf32814cad490d7b7893b8a275c26e03c3340f795c35d870201210257323cde063d4d2ff0c7b3b7ede8119607a55d2af260236e252f015bbedd4bfbffffffff02e6481500000000001976a914bab7fa0cdf9955b695c0912a175e344003c92cc488ac10270000000000001976a91403567664d8c0b54c053d517181c8c2fc0441b7ce88ac00000000","txid":"24e91ab25420178f99362d45ffea31c8e006ed70aa1da46e0f527645cedc8b75","version":1,"time":1540770688,"locktime":0,"vin":[{"txid":"10183f1f04d590fb3ba27ca615fa882fe9e16309455463c3c7569f205ab4d9f7","vout":0,"scriptSig":{"asm":"304402201079842bf2198911be2253418f39caf470f7c6cdc6127f4f612ce2f00814a3620220299b41aede6ffd5bf32814cad490d7b7893b8a275c26e03c3340f795c35d870201 0257323cde063d4d2ff0c7b3b7ede8119607a55d2af260236e252f015bbedd4bfb","hex":"47304402201079842bf2198911be2253418f39caf470f7c6cdc6127f4f612ce2f00814a3620220299b41aede6ffd5bf32814cad490d7b7893b8a275c26e03c3340f795c35d870201210257323cde063d4d2ff0c7b3b7ede8119607a55d2af260236e252f015bbedd4bfb"},"sequence":4294967295}],"vout":[{"value":0.01394918,"n":0,"scriptPubKey":{"asm":"OP_DUP OP_HASH160 bab7fa0cdf9955b695c0912a175e344003c92cc4 OP_EQUALVERIFY OP_CHECKSIG","reqSigs":1,"type":"pubkeyhash","addresses":["pNZrHKEyE9VsH16N7tpC3uh4DVzU6J9yKZ"]}},{"value":0.0001,"n":1,"scriptPubKey":{"asm":"OP_DUP OP_HASH160 03567664d8c0b54c053d517181c8c2fc0441b7ce OP_EQUALVERIFY OP_CHECKSIG","reqSigs":1,"type":"pubkeyhash","addresses":["p5rDooJnuuJyAwVARE2TXsBRQHakWgsyuu"]}}],"blockhash":"97b676a67406c038b2f152f1d95542b81981a129265add9e18a084fc109929af","confirmations":249,"blocktime":1540770688}