{"hex":"01000000804bd65b01af64d0f74ac18232d1de07fc2eea50734fb3be50d849eb53b52d4ee442fd09020200000049483045022100f7e770e60a43383e0a5f957ee656178bf013e5f14c1793a03e538b21739bb04b02205ab1681d3ef5e582b8fc5a27d97432f787f474cf38eb7e0c120c0e206ba597af01ffffffff0400000000000000000000a9a1d1010000002321020b1cd26fc4b9f080aea1cf7b667efd5e8453f70429056589831fa7f63506ddbfac5eebb0d1010000002321020b1cd26fc4b9f080aea1cf7b667efd5e8453f70429056589831fa7f63506ddbfac55000000000000001976a9147cf288aefa27580772a2e44d947f0a962553405d88ac00000000","txid":"3ec164065103163764bea4b22a132d65b64e9a3d09dc8037fec5fb58019c9e1b","version":1,"time":1540770688,"locktime":0,"vin":[{"txid":"0209fd42e44e2db553eb49d850beb34f7350ea2efc07ded13282c14af7d064af","vout":2,"scriptSig":{"asm":"3045022100f7e770e60a43383e0a5f957ee656178bf013e5f14c1793a03e538b21739bb04b02205ab1681d3ef5e582b8fc5a27d97432f787f474cf38eb7e0c120c0e206ba597af01","hex":"483045022100f7e770e60a43383e0a5f957ee656178bf013e5f14c1793a03e538b21739bb04b02205ab1681d3ef5e582b8fc5a27d97432f787f474cf38eb7e0c120c0e206ba597af01"},"sequence":4294967295}],"vout":[{"value":0,"n":0,"scriptPubKey":{"asm":"","type":"nonstandard"}},{"value":78.12,"n":1,"scriptPubKey":{"asm":"020b1cd26fc4b9f080aea1cf7b667efd5e8453f70429056589831fa7f63506ddbf OP_CHECKSIG","reqSigs":1,"type":"pubkey","addresses":["pECTDpfW4nW8hYte3f3F9ZQxwgWmBwmcYL"]}},{"value":78.1300003,"n":2,"scriptPubKey":{"asm":"020b1cd26fc4b9f080aea1cf7b667efd5e8453f70429056589831fa7f63506ddbf OP_CHECKSIG","reqSigs":1,"type":"pubkey","addresses":["pECTDpfW4nW8hYte3f3F9ZQxwgWmBwmcYL"]}},{"value":8.5e-7,"n":3,"scriptPubKey":{"asm":"OP_DUP OP_HASH160 7cf288aefa27580772a2e44d947f0a962553405d OP_EQUALVERIFY OP_CHECKSIG","reqSigs":1,"type":"pubkeyhash","addresses":["pGwEY3YdfsrsoLzpPy8zj5rEMTsKeC6Mb3"]}}],"blockhash":"97b676a67406c038b2f152f1d95542b81981a129265add9e18a084fc109929af","confirmations":249,"blocktime":1540770688}