{"hex":"01000000ced2d65b0390374451d3b1ceab9410548a9571ae2a2b6d0b03c1db6e7734768b14b91c95cf010000006b4830450221009ef3026f717e4faae6ac66bd27a8623cba8a3b9dbfe6d4d89589a05a39e04f220220528801f18cea6a037924239c380224955f7781c5ce72add4254505898f475a030121024dc2de9912f77928aca86ebb63fe00b76c6d7f4d051bc8f31b69a44f80b24868fffffffff9183bc8f0ed432b70ada8e62d55c122815b9e9608827dcd1210f3576233dade010000006a473044022066480f4ba5d62855301d9e4d7838d25f8d820f1f08c83da4edb6bacbf1626cc002206c165230de3b119dc51dba43ca2fb4152582341bad5d2289d93386e0d3079a490121024dc2de9912f77928aca86ebb63fe00b76c6d7f4d051bc8f31b69a44f80b24868ffffffffe447eaefaaabb1c0deed7d07a9ff0a61ef4ea2d8d31bcd96ded97563104db2db010000006a47304402200e21b1fab112fce8718f706ae3f9a5a1046f3b02cab55ec368847f2232433ba30220721926aa2291f8bf3822af5b9fba9cd6e8e9cd7edadb52c415077b75e06cf36d0121034d1678d260748a70f80ce97f60db48fee0dafae5c9b0f84178f86433b478ce5fffffffff02fe4e0f00000000001976a9144c28ee798243702bc4500cdb4da9004130bb47f688ac33d00100000000001976a914b8728f4e4d51584d404f63b0c607d27e1efef8a988ac00000000","txid":"0c8ce87b9140035a7f87e3d2c5abda3a582f8249dda031cd53f14e59f5db07ac","version":1,"time":1540805328,"locktime":0,"vin":[{"txid":"cf951cb9148b7634776edbc1030b6d2b2aae71958a541094abceb1d351443790","vout":1,"scriptSig":{"asm":"30450221009ef3026f717e4faae6ac66bd27a8623cba8a3b9dbfe6d4d89589a05a39e04f220220528801f18cea6a037924239c380224955f7781c5ce72add4254505898f475a0301 024dc2de9912f77928aca86ebb63fe00b76c6d7f4d051bc8f31b69a44f80b24868","hex":"4830450221009ef3026f717e4faae6ac66bd27a8623cba8a3b9dbfe6d4d89589a05a39e04f220220528801f18cea6a037924239c380224955f7781c5ce72add4254505898f475a030121024dc2de9912f77928aca86ebb63fe00b76c6d7f4d051bc8f31b69a44f80b24868"},"sequence":4294967295},{"txid":"deda336257f31012cd7d8208969e5b8122c1552de6a8ad702b43edf0c83b18f9","vout":1,"scriptSig":{"asm":"3044022066480f4ba5d62855301d9e4d7838d25f8d820f1f08c83da4edb6bacbf1626cc002206c165230de3b119dc51dba43ca2fb4152582341bad5d2289d93386e0d3079a4901 024dc2de9912f77928aca86ebb63fe00b76c6d7f4d051bc8f31b69a44f80b24868","hex":"473044022066480f4ba5d62855301d9e4d7838d25f8d820f1f08c83da4edb6bacbf1626cc002206c165230de3b119dc51dba43ca2fb4152582341bad5d2289d93386e0d3079a490121024dc2de9912f77928aca86ebb63fe00b76c6d7f4d051bc8f31b69a44f80b24868"},"sequence":4294967295},{"txid":"dbb24d106375d9de96cd1bd3d8a24eef610affa9077deddec0b1abaaefea47e4","vout":1,"scriptSig":{"asm":"304402200e21b1fab112fce8718f706ae3f9a5a1046f3b02cab55ec368847f2232433ba30220721926aa2291f8bf3822af5b9fba9cd6e8e9cd7edadb52c415077b75e06cf36d01 034d1678d260748a70f80ce97f60db48fee0dafae5c9b0f84178f86433b478ce5f","hex":"47304402200e21b1fab112fce8718f706ae3f9a5a1046f3b02cab55ec368847f2232433ba30220721926aa2291f8bf3822af5b9fba9cd6e8e9cd7edadb52c415077b75e06cf36d0121034d1678d260748a70f80ce97f60db48fee0dafae5c9b0f84178f86433b478ce5f"},"sequence":4294967295}],"vout":[{"value":0.01003262,"n":0,"scriptPubKey":{"asm":"OP_DUP OP_HASH160 4c28ee798243702bc4500cdb4da9004130bb47f6 OP_EQUALVERIFY OP_CHECKSIG","reqSigs":1,"type":"pubkeyhash","addresses":["pCVGbFvFLapGyskXvwfxG2ss21bRU9FqUh"]}},{"value":0.00118835,"n":1,"scriptPubKey":{"asm":"OP_DUP OP_HASH160 b8728f4e4d51584d404f63b0c607d27e1efef8a9 OP_EQUALVERIFY OP_CHECKSIG","reqSigs":1,"type":"pubkeyhash","addresses":["pNMqmkoRJEwGogJcj3uWcwNmQ9VVGpQ7qx"]}}],"blockhash":"f61dded9087b5f479a11bdd69e6b48c3554053cbdd356ae6b4caad21aa014186","confirmations":206,"blocktime":1540805328}