{"hex":"01000000d0d2d65b01385c087aff37c4c47b0149d47315235bdb04d64e26479748f0ccf2658b2948090100000049483045022100ad8f7cf96018b6c94766765ac8c369359798eee05671afb353a0af55a0fd0f3a02204108593c93f646bfba03b93373cc47340e9dfe9da8764ba963da82f821ac72fb01ffffffff0400000000000000000000a9a1d1010000002321020b1cd26fc4b9f080aea1cf7b667efd5e8453f70429056589831fa7f63506ddbfac52ebb0d1010000002321020b1cd26fc4b9f080aea1cf7b667efd5e8453f70429056589831fa7f63506ddbfac64000000000000001976a914a539c7c64804ba10293866c3433100eabbe41ccf88ac00000000","txid":"e24a1597ef4da7a8165f182e3f4ca6b591ec22d9e9d2fefa5e11a3356b400b82","version":1,"time":1540805328,"locktime":0,"vin":[{"txid":"0948298b65f2ccf0489747264ed604db5b231573d449017bc4c437ff7a085c38","vout":1,"scriptSig":{"asm":"3045022100ad8f7cf96018b6c94766765ac8c369359798eee05671afb353a0af55a0fd0f3a02204108593c93f646bfba03b93373cc47340e9dfe9da8764ba963da82f821ac72fb01","hex":"483045022100ad8f7cf96018b6c94766765ac8c369359798eee05671afb353a0af55a0fd0f3a02204108593c93f646bfba03b93373cc47340e9dfe9da8764ba963da82f821ac72fb01"},"sequence":4294967295}],"vout":[{"value":0,"n":0,"scriptPubKey":{"asm":"","type":"nonstandard"}},{"value":78.12,"n":1,"scriptPubKey":{"asm":"020b1cd26fc4b9f080aea1cf7b667efd5e8453f70429056589831fa7f63506ddbf OP_CHECKSIG","reqSigs":1,"type":"pubkey","addresses":["pECTDpfW4nW8hYte3f3F9ZQxwgWmBwmcYL"]}},{"value":78.13000018,"n":2,"scriptPubKey":{"asm":"020b1cd26fc4b9f080aea1cf7b667efd5e8453f70429056589831fa7f63506ddbf OP_CHECKSIG","reqSigs":1,"type":"pubkey","addresses":["pECTDpfW4nW8hYte3f3F9ZQxwgWmBwmcYL"]}},{"value":0.000001,"n":3,"scriptPubKey":{"asm":"OP_DUP OP_HASH160 a539c7c64804ba10293866c3433100eabbe41ccf OP_EQUALVERIFY OP_CHECKSIG","reqSigs":1,"type":"pubkeyhash","addresses":["pLcCv1RBNEWf4q17fiPMGMYqeFUvP9a826"]}}],"blockhash":"f61dded9087b5f479a11bdd69e6b48c3554053cbdd356ae6b4caad21aa014186","confirmations":206,"blocktime":1540805328}