{"hex":"010000005571dc5b0160017b8c0e6011f525fdd0ad21caa9c755ce5c71a9dc57b4235e8814d4813d00010000006b483045022100d0b6d867aa9f7ecbb593c488df0287c913bb0247ca09eadabc5d830ac8729bbe02206b1c50e4b3f9d0a8498d906f5d0aa80b4be9b9f0e65d46c84006223e6e5b0e77012102f8c6ad2adb92967823d89103a89b802234d2ec526089660fd107d7611c139fe6ffffffff02afddb309000000001976a9146e28db1a8ebbed475b61621a0c39aac5ac00da2d88accfa1382d000000001976a914f9044bc7484ce974c4cc29b7923b3604a6b630be88ac00000000","txid":"735f7ad41cb10113b02dd960fa408a7a3fb40aa3d4d7b92fdf01dbe0ec46b1c1","version":1,"time":1541173600,"locktime":0,"vin":[{"txid":"003d81d414885e23b457dca9715cce55c7a9ca21add0fd25f511600e8c7b0160","vout":1,"scriptSig":{"asm":"3045022100d0b6d867aa9f7ecbb593c488df0287c913bb0247ca09eadabc5d830ac8729bbe02206b1c50e4b3f9d0a8498d906f5d0aa80b4be9b9f0e65d46c84006223e6e5b0e7701 02f8c6ad2adb92967823d89103a89b802234d2ec526089660fd107d7611c139fe6","hex":"483045022100d0b6d867aa9f7ecbb593c488df0287c913bb0247ca09eadabc5d830ac8729bbe02206b1c50e4b3f9d0a8498d906f5d0aa80b4be9b9f0e65d46c84006223e6e5b0e77012102f8c6ad2adb92967823d89103a89b802234d2ec526089660fd107d7611c139fe6"},"sequence":4294967295}],"vout":[{"value":1.62782639,"n":0,"scriptPubKey":{"asm":"OP_DUP OP_HASH160 6e28db1a8ebbed475b61621a0c39aac5ac00da2d OP_EQUALVERIFY OP_CHECKSIG","reqSigs":1,"type":"pubkeyhash","addresses":["pFb3UXGtmWMJ29UUQaT9gvpTAfDFxvjwGX"]}},{"value":7.58686159,"n":1,"scriptPubKey":{"asm":"OP_DUP OP_HASH160 f9044bc7484ce974c4cc29b7923b3604a6b630be OP_EQUALVERIFY OP_CHECKSIG","reqSigs":1,"type":"pubkeyhash","addresses":["pUFFbxpnVEeTU9WJtahH2fgoDx92kRShPT"]}}],"blockhash":"02006e89006aa7419841c2bcf99ea4fda9056980ad20874abb08efac30fb3b38","confirmations":73,"blocktime":1541173600}