{"hex":"010000006071dc5b097ed88e866a3b49b53541a092a47241e002356aac932da033679ed5b0d6defc71020000006b483045022100bd86c14391cb880a37853fcd0c5dd7e42bb56d61c94fc7e6e845743eb0f6984102202dd6d5a9e312c62deb1deebf27e2802ce700285a4dfc0600d8b98f595ae6b09a012103d34eaffeafde46fde143c9a315fd9b15346917b41cead4876c1c25892c798698ffffffff4168c61d38124fda105710817bc3b50e536e5a180047d5d7d402a876e9b7d1c6030000006b483045022100d31fa5f686abdc2a8e90c85192a4dd8e4c651353f11ec8a0460c54061dbec7e602207e95e5fc5dab8ba05fa07163a508c61e771a91df6a5233f398a6001d111dcc07012103d34eaffeafde46fde143c9a315fd9b15346917b41cead4876c1c25892c798698ffffffff50abfa5960c0c6c6673a600815b55a23353061f25ae6097a8f14ea30aa4a7952030000006a47304402204ebf3d724f553329a77db2bcf5caeac235e959bb465e7a2fe1e73d2f7b8c868502202e26cdb1d66d9ce83e01b4c39a0df7314a00c50754dbbaec80a9a0c621e3a413012103d34eaffeafde46fde143c9a315fd9b15346917b41cead4876c1c25892c798698ffffffffb1d61bcf0ddc0118ee229c895074f50ad3ab87c17007286295efada1a18a2040030000006b483045022100bce538deada2f3869956eb99da011a5b4e661eedeae6c163d5a71e9919bd9eb602202c1bf0755d3721045c78a0449e3f8bc2801ebca29619c984a6b73e78b583b7d9012103d34eaffeafde46fde143c9a315fd9b15346917b41cead4876c1c25892c798698ffffffffd879bf606960b93f17e507e3a945e501ae3dbb9cc47a3a718a9d865f195528b7020000006b483045022100e3c0461f7a1ac9843960a574eeef30ada2c82d757f9b9c1fde0dfc79922229cd0220780997a4cac88de86a5cd1b040cbc56af097515b4fe3de31ee1d062da0a34fe3012103d34eaffeafde46fde143c9a315fd9b15346917b41cead4876c1c25892c798698ffffffff083142b24ecd913e2a9307aefd05b2d1add7a74209f480e789d44663317fe3ab030000006a473044022025452dc48df757268ebd80e741f12eabb112fd2096c710a30c535dd5bcb6a34802201091882703b6fa2335c3bb063897302c586ca8350cfe04a33ca512f78123dd5f012103d34eaffeafde46fde143c9a315fd9b15346917b41cead4876c1c25892c798698ffffffff07e8b6c2e2871a9e196d6565be86946160aa5632877c03c56e8bd21fbf686e47020000006b483045022100be924012044172205728ce57ae3d89ae0185a198ab224b7855fae2bb1d746eba02200e369c881810b1ad7bcf7aeb0785f7bf00714ff84da07829be6fa6fc193136ec012103d34eaffeafde46fde143c9a315fd9b15346917b41cead4876c1c25892c798698ffffffff77811e07a3dbafb14970bfa85afd0498a18ae75276e9b17c257b495bff482850020000006a473044022036a643bb229e15a441703b936a285c8d144cd1692abf6181c6f63ce273e34c20022079ccbfdcad2fe9b8087e01e5a4998f805e4a50e7431da9c8b11ee6124ca8d358012103d34eaffeafde46fde143c9a315fd9b15346917b41cead4876c1c25892c798698ffffffff7abc2438b765aea856a4585d62abdd9f62bf153ce959b0bc72fdce7ee5bee9e8030000006a473044022051622e61eb1039db77ca156a23173ad49c3434c44e4f364f757d2802b376495f022022c608fa8396fa02b37738526595ca73e4cd5f8b8c0f88bc3d61dce6983edf16012103d34eaffeafde46fde143c9a315fd9b15346917b41cead4876c1c25892c798698ffffffff030000000000000000004108250000000000232103d34eaffeafde46fde143c9a315fd9b15346917b41cead4876c1c25892c798698ac13d70900000000001976a914a539c7c64804ba10293866c3433100eabbe41ccf88ac00000000","txid":"d277dc19d24469a04763bc8cb75df57c7b9e3b0ecf817e125b9cd27ecc12db40","version":1,"time":1541173600,"locktime":0,"vin":[{"txid":"71fcded6b0d59e6733a02d93ac6a3502e04172a492a04135b5493b6a868ed87e","vout":2,"scriptSig":{"asm":"3045022100bd86c14391cb880a37853fcd0c5dd7e42bb56d61c94fc7e6e845743eb0f6984102202dd6d5a9e312c62deb1deebf27e2802ce700285a4dfc0600d8b98f595ae6b09a01 03d34eaffeafde46fde143c9a315fd9b15346917b41cead4876c1c25892c798698","hex":"483045022100bd86c14391cb880a37853fcd0c5dd7e42bb56d61c94fc7e6e845743eb0f6984102202dd6d5a9e312c62deb1deebf27e2802ce700285a4dfc0600d8b98f595ae6b09a012103d34eaffeafde46fde143c9a315fd9b15346917b41cead4876c1c25892c798698"},"sequence":4294967295},{"txid":"c6d1b7e976a802d4d7d54700185a6e530eb5c37b81105710da4f12381dc66841","vout":3,"scriptSig":{"asm":"3045022100d31fa5f686abdc2a8e90c85192a4dd8e4c651353f11ec8a0460c54061dbec7e602207e95e5fc5dab8ba05fa07163a508c61e771a91df6a5233f398a6001d111dcc0701 03d34eaffeafde46fde143c9a315fd9b15346917b41cead4876c1c25892c798698","hex":"483045022100d31fa5f686abdc2a8e90c85192a4dd8e4c651353f11ec8a0460c54061dbec7e602207e95e5fc5dab8ba05fa07163a508c61e771a91df6a5233f398a6001d111dcc07012103d34eaffeafde46fde143c9a315fd9b15346917b41cead4876c1c25892c798698"},"sequence":4294967295},{"txid":"52794aaa30ea148f7a09e65af2613035235ab51508603a67c6c6c06059faab50","vout":3,"scriptSig":{"asm":"304402204ebf3d724f553329a77db2bcf5caeac235e959bb465e7a2fe1e73d2f7b8c868502202e26cdb1d66d9ce83e01b4c39a0df7314a00c50754dbbaec80a9a0c621e3a41301 03d34eaffeafde46fde143c9a315fd9b15346917b41cead4876c1c25892c798698","hex":"47304402204ebf3d724f553329a77db2bcf5caeac235e959bb465e7a2fe1e73d2f7b8c868502202e26cdb1d66d9ce83e01b4c39a0df7314a00c50754dbbaec80a9a0c621e3a413012103d34eaffeafde46fde143c9a315fd9b15346917b41cead4876c1c25892c798698"},"sequence":4294967295},{"txid":"40208aa1a1adef9562280770c187abd30af57450899c22ee1801dc0dcf1bd6b1","vout":3,"scriptSig":{"asm":"3045022100bce538deada2f3869956eb99da011a5b4e661eedeae6c163d5a71e9919bd9eb602202c1bf0755d3721045c78a0449e3f8bc2801ebca29619c984a6b73e78b583b7d901 03d34eaffeafde46fde143c9a315fd9b15346917b41cead4876c1c25892c798698","hex":"483045022100bce538deada2f3869956eb99da011a5b4e661eedeae6c163d5a71e9919bd9eb602202c1bf0755d3721045c78a0449e3f8bc2801ebca29619c984a6b73e78b583b7d9012103d34eaffeafde46fde143c9a315fd9b15346917b41cead4876c1c25892c798698"},"sequence":4294967295},{"txid":"b72855195f869d8a713a7ac49cbb3dae01e545a9e307e5173fb9606960bf79d8","vout":2,"scriptSig":{"asm":"3045022100e3c0461f7a1ac9843960a574eeef30ada2c82d757f9b9c1fde0dfc79922229cd0220780997a4cac88de86a5cd1b040cbc56af097515b4fe3de31ee1d062da0a34fe301 03d34eaffeafde46fde143c9a315fd9b15346917b41cead4876c1c25892c798698","hex":"483045022100e3c0461f7a1ac9843960a574eeef30ada2c82d757f9b9c1fde0dfc79922229cd0220780997a4cac88de86a5cd1b040cbc56af097515b4fe3de31ee1d062da0a34fe3012103d34eaffeafde46fde143c9a315fd9b15346917b41cead4876c1c25892c798698"},"sequence":4294967295},{"txid":"abe37f316346d489e780f40942a7d7add1b205fdae07932a3e91cd4eb2423108","vout":3,"scriptSig":{"asm":"3044022025452dc48df757268ebd80e741f12eabb112fd2096c710a30c535dd5bcb6a34802201091882703b6fa2335c3bb063897302c586ca8350cfe04a33ca512f78123dd5f01 03d34eaffeafde46fde143c9a315fd9b15346917b41cead4876c1c25892c798698","hex":"473044022025452dc48df757268ebd80e741f12eabb112fd2096c710a30c535dd5bcb6a34802201091882703b6fa2335c3bb063897302c586ca8350cfe04a33ca512f78123dd5f012103d34eaffeafde46fde143c9a315fd9b15346917b41cead4876c1c25892c798698"},"sequence":4294967295},{"txid":"476e68bf1fd28b6ec5037c873256aa60619486be65656d199e1a87e2c2b6e807","vout":2,"scriptSig":{"asm":"3045022100be924012044172205728ce57ae3d89ae0185a198ab224b7855fae2bb1d746eba02200e369c881810b1ad7bcf7aeb0785f7bf00714ff84da07829be6fa6fc193136ec01 03d34eaffeafde46fde143c9a315fd9b15346917b41cead4876c1c25892c798698","hex":"483045022100be924012044172205728ce57ae3d89ae0185a198ab224b7855fae2bb1d746eba02200e369c881810b1ad7bcf7aeb0785f7bf00714ff84da07829be6fa6fc193136ec012103d34eaffeafde46fde143c9a315fd9b15346917b41cead4876c1c25892c798698"},"sequence":4294967295},{"txid":"502848ff5b497b257cb1e97652e78aa19804fd5aa8bf7049b1afdba3071e8177","vout":2,"scriptSig":{"asm":"3044022036a643bb229e15a441703b936a285c8d144cd1692abf6181c6f63ce273e34c20022079ccbfdcad2fe9b8087e01e5a4998f805e4a50e7431da9c8b11ee6124ca8d35801 03d34eaffeafde46fde143c9a315fd9b15346917b41cead4876c1c25892c798698","hex":"473044022036a643bb229e15a441703b936a285c8d144cd1692abf6181c6f63ce273e34c20022079ccbfdcad2fe9b8087e01e5a4998f805e4a50e7431da9c8b11ee6124ca8d358012103d34eaffeafde46fde143c9a315fd9b15346917b41cead4876c1c25892c798698"},"sequence":4294967295},{"txid":"e8e9bee57ecefd72bcb059e93c15bf629fddab625d58a456a8ae65b73824bc7a","vout":3,"scriptSig":{"asm":"3044022051622e61eb1039db77ca156a23173ad49c3434c44e4f364f757d2802b376495f022022c608fa8396fa02b37738526595ca73e4cd5f8b8c0f88bc3d61dce6983edf1601 03d34eaffeafde46fde143c9a315fd9b15346917b41cead4876c1c25892c798698","hex":"473044022051622e61eb1039db77ca156a23173ad49c3434c44e4f364f757d2802b376495f022022c608fa8396fa02b37738526595ca73e4cd5f8b8c0f88bc3d61dce6983edf16012103d34eaffeafde46fde143c9a315fd9b15346917b41cead4876c1c25892c798698"},"sequence":4294967295}],"vout":[{"value":0,"n":0,"scriptPubKey":{"asm":"","type":"nonstandard"}},{"value":0.02426945,"n":1,"scriptPubKey":{"asm":"03d34eaffeafde46fde143c9a315fd9b15346917b41cead4876c1c25892c798698 OP_CHECKSIG","reqSigs":1,"type":"pubkey","addresses":["p6exN3FuZmZyQ7WNzLf7AweTLuHqDvcERN"]}},{"value":0.00644883,"n":2,"scriptPubKey":{"asm":"OP_DUP OP_HASH160 a539c7c64804ba10293866c3433100eabbe41ccf OP_EQUALVERIFY OP_CHECKSIG","reqSigs":1,"type":"pubkeyhash","addresses":["pLcCv1RBNEWf4q17fiPMGMYqeFUvP9a826"]}}],"blockhash":"02006e89006aa7419841c2bcf99ea4fda9056980ad20874abb08efac30fb3b38","confirmations":73,"blocktime":1541173600}