{"hex":"01000000fdabd85b027c3c2b687e6fa48844c7a8af5669e83b939d482c100b0ad748614ea5c4cb6284010000006b48304502210083c4b455239aa986f3cad5d30e4c0661a3f36af2dae653927b8dbf43520958af02206892a7489ff8aed7c1df4a0f5ed9021efbc43536e416af41a31b0ced7af616d7012103cca7807c8c9c0b0959236809b453e22b5166cc45fb4bc9082cef171f3f1b3442ffffffffe85d641e821ea0c755237902669c3fc4623743af95e6cf2a9188c638389a5d4e010000006a47304402203e748b147459925318487123e3d3d4735242ee7a2923c382c04953a88806d1e402203427269ce2c522b35c377b3a8a3f09039ebfa54a5134f5e3d1acffc13995b70101210224aa1d80e3df2704c840eec52226c43964ecc902f925fb9470155da815af7f96ffffffff025d29ff00000000001976a91445a4d624f51797819857b6f959d5275e2588a53288ac203af106000000001976a914f0a78d2239c51c05815f69adc12747e8a904815088ac00000000","txid":"29dd7c72ad8916080badd3429f4632ca425294ac2c2cfe38281aab338a217663","version":1,"time":1540926464,"locktime":0,"vin":[{"txid":"8462cbc4a54e6148d70a0b102c489d933be86956afa8c74488a46f7e682b3c7c","vout":1,"scriptSig":{"asm":"304502210083c4b455239aa986f3cad5d30e4c0661a3f36af2dae653927b8dbf43520958af02206892a7489ff8aed7c1df4a0f5ed9021efbc43536e416af41a31b0ced7af616d701 03cca7807c8c9c0b0959236809b453e22b5166cc45fb4bc9082cef171f3f1b3442","hex":"48304502210083c4b455239aa986f3cad5d30e4c0661a3f36af2dae653927b8dbf43520958af02206892a7489ff8aed7c1df4a0f5ed9021efbc43536e416af41a31b0ced7af616d7012103cca7807c8c9c0b0959236809b453e22b5166cc45fb4bc9082cef171f3f1b3442"},"sequence":4294967295},{"txid":"4e5d9a3838c688912acfe695af433762c43f9c6602792355c7a01e821e645de8","vout":1,"scriptSig":{"asm":"304402203e748b147459925318487123e3d3d4735242ee7a2923c382c04953a88806d1e402203427269ce2c522b35c377b3a8a3f09039ebfa54a5134f5e3d1acffc13995b70101 0224aa1d80e3df2704c840eec52226c43964ecc902f925fb9470155da815af7f96","hex":"47304402203e748b147459925318487123e3d3d4735242ee7a2923c382c04953a88806d1e402203427269ce2c522b35c377b3a8a3f09039ebfa54a5134f5e3d1acffc13995b70101210224aa1d80e3df2704c840eec52226c43964ecc902f925fb9470155da815af7f96"},"sequence":4294967295}],"vout":[{"value":0.16722269,"n":0,"scriptPubKey":{"asm":"OP_DUP OP_HASH160 45a4d624f51797819857b6f959d5275e2588a532 OP_EQUALVERIFY OP_CHECKSIG","reqSigs":1,"type":"pubkeyhash","addresses":["pBtpHyxDkhhM5t99FZTcUJCtKTuAUQFAjV"]}},{"value":1.16472352,"n":1,"scriptPubKey":{"asm":"OP_DUP OP_HASH160 f0a78d2239c51c05815f69adc12747e8a9048150 OP_EQUALVERIFY OP_CHECKSIG","reqSigs":1,"type":"pubkeyhash","addresses":["pTV36QwHU5fa79Pd56faNQXjS3jaNojTSv"]}}],"blockhash":"59bad0f048a74bab55d3f2eb2b464ab2ff559521bf2bbd5b88b8169932cdfd94","confirmations":150,"blocktime":1540926464}