{"hex":"0100000000acd85b01ab62240e4ab4f67be5fed59f612900aace27e1b3b80e3fe1e75dc27e43a761a30100000049483045022100aa335dda051c4f24c97487366dda35be6b717c70266e190fbad9477795f2fd950220280907aa40888080c17f2fa93fbe50961d14fd92e86b76cc1e4c5b870126829901ffffffff030000000000000000001d22ab32000000002321026ef57679057df94a5f72e9fead08857f8d7253a593b2b1feed1b68e92df4a4c5acb9820100000000001976a9148ed189b44bba56ef2095854efd11229aa16bf8e488ac00000000","txid":"5ff194e7f3f9f56049647b18d91bb7cbbbf18c95c08ebaf1365ce6baad613727","version":1,"time":1540926464,"locktime":0,"vin":[{"txid":"a361a7437ec25de7e13f0eb8b3e127ceaa0029619fd5fee57bf6b44a0e2462ab","vout":1,"scriptSig":{"asm":"3045022100aa335dda051c4f24c97487366dda35be6b717c70266e190fbad9477795f2fd950220280907aa40888080c17f2fa93fbe50961d14fd92e86b76cc1e4c5b870126829901","hex":"483045022100aa335dda051c4f24c97487366dda35be6b717c70266e190fbad9477795f2fd950220280907aa40888080c17f2fa93fbe50961d14fd92e86b76cc1e4c5b870126829901"},"sequence":4294967295}],"vout":[{"value":0,"n":0,"scriptPubKey":{"asm":"","type":"nonstandard"}},{"value":8.50076189,"n":1,"scriptPubKey":{"asm":"026ef57679057df94a5f72e9fead08857f8d7253a593b2b1feed1b68e92df4a4c5 OP_CHECKSIG","reqSigs":1,"type":"pubkey","addresses":["p5dRZ9MeyiKDma1pAUrsmvEK4NBmmdC4ZN"]}},{"value":0.00099001,"n":2,"scriptPubKey":{"asm":"OP_DUP OP_HASH160 8ed189b44bba56ef2095854efd11229aa16bf8e4 OP_EQUALVERIFY OP_CHECKSIG","reqSigs":1,"type":"pubkeyhash","addresses":["pJZjAtqMwq9jFa2kTVK5K8psT7erMHW8FX"]}}],"blockhash":"59bad0f048a74bab55d3f2eb2b464ab2ff559521bf2bbd5b88b8169932cdfd94","confirmations":150,"blocktime":1540926464}