{"hex":"0100000000acd85b0146440594aa41c2cf06967d4485e3d10744a0ce9e13ce5629284d10b927e4b7460100000049483045022100ffb3f2b6ebe9c7c8183ca7cc753b1f644af4b9960858acc168942821a291f32502201e9647b4575009a75521a673dfe0dd63b15aacd7efe0c1fabed566bdf0f0a06c01ffffffff030000000000000000002f37a4d1010000002321020b1cd26fc4b9f080aea1cf7b667efd5e8453f70429056589831fa7f63506ddbfacb9820100000000001976a9148ed189b44bba56ef2095854efd11229aa16bf8e488ac00000000","txid":"77e54eb9f8b901930f26aaa80a1e419062b7e98be51fdfc5dfbd26ef7b9efef7","version":1,"time":1540926464,"locktime":0,"vin":[{"txid":"46b7e427b9104d282956ce139ecea04407d1e385447d9606cfc241aa94054446","vout":1,"scriptSig":{"asm":"3045022100ffb3f2b6ebe9c7c8183ca7cc753b1f644af4b9960858acc168942821a291f32502201e9647b4575009a75521a673dfe0dd63b15aacd7efe0c1fabed566bdf0f0a06c01","hex":"483045022100ffb3f2b6ebe9c7c8183ca7cc753b1f644af4b9960858acc168942821a291f32502201e9647b4575009a75521a673dfe0dd63b15aacd7efe0c1fabed566bdf0f0a06c01"},"sequence":4294967295}],"vout":[{"value":0,"n":0,"scriptPubKey":{"asm":"","type":"nonstandard"}},{"value":78.12167471,"n":1,"scriptPubKey":{"asm":"020b1cd26fc4b9f080aea1cf7b667efd5e8453f70429056589831fa7f63506ddbf OP_CHECKSIG","reqSigs":1,"type":"pubkey","addresses":["pECTDpfW4nW8hYte3f3F9ZQxwgWmBwmcYL"]}},{"value":0.00099001,"n":2,"scriptPubKey":{"asm":"OP_DUP OP_HASH160 8ed189b44bba56ef2095854efd11229aa16bf8e4 OP_EQUALVERIFY OP_CHECKSIG","reqSigs":1,"type":"pubkeyhash","addresses":["pJZjAtqMwq9jFa2kTVK5K8psT7erMHW8FX"]}}],"blockhash":"9ca648bccd97e4cdaf9ec7da51aad8a333770a2c770e1c77b0cbdd4ba53f69ce","confirmations":6,"blocktime":1540926464}