{"hex":"010000001053d75b03286a8042d736fef95c078b55ca55123377c01cbdc3a731bcc55ba63e353104a1030000006b483045022100f7997455014917bf87b4b6925812c4637b80368455176b3f6e809de32cbce27502204e6f748980fc66687dfd83162a67ec86befaec818561b5037a774e98cc9531b8012102fe0f32861c5e187f37917d5839a130aede206c882635d6d980145021bd993f06ffffffff871a980cac8953dafe95a9fd6500af15f789c2cf84e4e647be85e2096e53bb5b030000006b483045022100873851c0814aad3aa3cf0c7830ab97a7364c12a9ad770f7d21b32c5a6cb2b4460220056008b2f54e67aa716e1a684f6151af96a2cef6321c0faadcf780cbe96e7791012102fe0f32861c5e187f37917d5839a130aede206c882635d6d980145021bd993f06ffffffff017aef5bbd2ba3782741e0493bdfc1d9c28771cab356e571f9a9c98756ebc20d030000006b483045022100a9855bec8e27b241584c3c2579b623771ad20019ff4c65e550d04a2b3441618402206daa69368239e60e1cf195dbe88b08371445a1da039c001cd1241290c4cb6c1a012102fe0f32861c5e187f37917d5839a130aede206c882635d6d980145021bd993f06ffffffff03000000000000000000441e441400000000232102fe0f32861c5e187f37917d5839a130aede206c882635d6d980145021bd993f06ac2ea60000000000001976a9149590579f878db6722db4322a713599a3d865ecb188ac00000000","txid":"03ec8ee7caed9b9867e96d8be96dbea698dc4e4ee30d8b85ba6acce6b62e7d87","version":1,"time":1540838160,"locktime":0,"vin":[{"txid":"a10431353ea65bc5bc31a7c3bd1cc077331255ca558b075cf9fe36d742806a28","vout":3,"scriptSig":{"asm":"3045022100f7997455014917bf87b4b6925812c4637b80368455176b3f6e809de32cbce27502204e6f748980fc66687dfd83162a67ec86befaec818561b5037a774e98cc9531b801 02fe0f32861c5e187f37917d5839a130aede206c882635d6d980145021bd993f06","hex":"483045022100f7997455014917bf87b4b6925812c4637b80368455176b3f6e809de32cbce27502204e6f748980fc66687dfd83162a67ec86befaec818561b5037a774e98cc9531b8012102fe0f32861c5e187f37917d5839a130aede206c882635d6d980145021bd993f06"},"sequence":4294967295},{"txid":"5bbb536e09e285be47e6e484cfc289f715af0065fda995feda5389ac0c981a87","vout":3,"scriptSig":{"asm":"3045022100873851c0814aad3aa3cf0c7830ab97a7364c12a9ad770f7d21b32c5a6cb2b4460220056008b2f54e67aa716e1a684f6151af96a2cef6321c0faadcf780cbe96e779101 02fe0f32861c5e187f37917d5839a130aede206c882635d6d980145021bd993f06","hex":"483045022100873851c0814aad3aa3cf0c7830ab97a7364c12a9ad770f7d21b32c5a6cb2b4460220056008b2f54e67aa716e1a684f6151af96a2cef6321c0faadcf780cbe96e7791012102fe0f32861c5e187f37917d5839a130aede206c882635d6d980145021bd993f06"},"sequence":4294967295},{"txid":"0dc2eb5687c9a9f971e556b3ca7187c2d9c1df3b49e0412778a32bbd5bef7a01","vout":3,"scriptSig":{"asm":"3045022100a9855bec8e27b241584c3c2579b623771ad20019ff4c65e550d04a2b3441618402206daa69368239e60e1cf195dbe88b08371445a1da039c001cd1241290c4cb6c1a01 02fe0f32861c5e187f37917d5839a130aede206c882635d6d980145021bd993f06","hex":"483045022100a9855bec8e27b241584c3c2579b623771ad20019ff4c65e550d04a2b3441618402206daa69368239e60e1cf195dbe88b08371445a1da039c001cd1241290c4cb6c1a012102fe0f32861c5e187f37917d5839a130aede206c882635d6d980145021bd993f06"},"sequence":4294967295}],"vout":[{"value":0,"n":0,"scriptPubKey":{"asm":"","type":"nonstandard"}},{"value":3.40008516,"n":1,"scriptPubKey":{"asm":"02fe0f32861c5e187f37917d5839a130aede206c882635d6d980145021bd993f06 OP_CHECKSIG","reqSigs":1,"type":"pubkey","addresses":["p7MHJk1NCoVwVPjx7mEGWrpeSkLSYSZyuV"]}},{"value":0.00042542,"n":2,"scriptPubKey":{"asm":"OP_DUP OP_HASH160 9590579f878db6722db4322a713599a3d865ecb1 OP_EQUALVERIFY OP_CHECKSIG","reqSigs":1,"type":"pubkeyhash","addresses":["pKBPoNA3SJPY8i2H3PXAafpEbMr7NNikgL"]}}],"blockhash":"45789ffd4f7f14f9d3598d6ca423c820967d052c1e70c5110e0dbac985643f56","confirmations":186,"blocktime":1540838160}