{"hex":"010000000753d75b02133863971e8e9000c020f5cb738c2041d2745adb9d7df9887baa5d3eba613a20000000006b483045022100e2d9d8684370d5ee1e4f5130609c1126c4d93d509a0600bf3209ae34ae140d7402206aa8bf24c17f2a725164c0bfd054f1051e63f41b2175ef176edeac3648b8c5960121021d0b2869a9b00efe4ce68bdc47d05dc8c734a04b375eb301dff89f32cf35195effffffff06afaf9700e8d00afdeb35b7e5b216c3c7f1a1181745b50ba80b67c5f90ac069010000006a47304402207d15842df9bec2fce3b8e7943d473a7395692c55d021c22f8aeacdd12325575502206737bebbbd3f0cecdff402f87d001122227c06684329fc6c3c260d68afed21a9012103db8ba07f3f627367aa4cd3b5262b1ef7f88a9ea82ea026120b8be03c5d998f58ffffffff021c13fa00000000001976a914fac4bcac9c1942f9890452bddb88abd12525395188acd0b3fb02000000001976a914fcb5011bf44ad076bbfd9f3c1e47f0a020b7c92e88ac00000000","txid":"7d5c5b15d39f03e60154a214c01fd39a5fc706f52ebab69e5c9f25455a2981f7","version":1,"time":1540838160,"locktime":0,"vin":[{"txid":"203a61ba3e5daa7b88f97d9ddb5a74d241208c73cbf520c000908e1e97633813","vout":0,"scriptSig":{"asm":"3045022100e2d9d8684370d5ee1e4f5130609c1126c4d93d509a0600bf3209ae34ae140d7402206aa8bf24c17f2a725164c0bfd054f1051e63f41b2175ef176edeac3648b8c59601 021d0b2869a9b00efe4ce68bdc47d05dc8c734a04b375eb301dff89f32cf35195e","hex":"483045022100e2d9d8684370d5ee1e4f5130609c1126c4d93d509a0600bf3209ae34ae140d7402206aa8bf24c17f2a725164c0bfd054f1051e63f41b2175ef176edeac3648b8c5960121021d0b2869a9b00efe4ce68bdc47d05dc8c734a04b375eb301dff89f32cf35195e"},"sequence":4294967295},{"txid":"69c00af9c5670ba80bb5451718a1f1c7c316b2e5b735ebfd0ad0e80097afaf06","vout":1,"scriptSig":{"asm":"304402207d15842df9bec2fce3b8e7943d473a7395692c55d021c22f8aeacdd12325575502206737bebbbd3f0cecdff402f87d001122227c06684329fc6c3c260d68afed21a901 03db8ba07f3f627367aa4cd3b5262b1ef7f88a9ea82ea026120b8be03c5d998f58","hex":"47304402207d15842df9bec2fce3b8e7943d473a7395692c55d021c22f8aeacdd12325575502206737bebbbd3f0cecdff402f87d001122227c06684329fc6c3c260d68afed21a9012103db8ba07f3f627367aa4cd3b5262b1ef7f88a9ea82ea026120b8be03c5d998f58"},"sequence":4294967295}],"vout":[{"value":0.16388892,"n":0,"scriptPubKey":{"asm":"OP_DUP OP_HASH160 fac4bcac9c1942f9890452bddb88abd125253951 OP_EQUALVERIFY OP_CHECKSIG","reqSigs":1,"type":"pubkeyhash","addresses":["pUQWpByyKK39k161v1gxaFAj2PZgNdqhui"]}},{"value":0.5005,"n":1,"scriptPubKey":{"asm":"OP_DUP OP_HASH160 fcb5011bf44ad076bbfd9f3c1e47f0a020b7c92e OP_EQUALVERIFY OP_CHECKSIG","reqSigs":1,"type":"pubkeyhash","addresses":["pUamKSxSs9SRbS5zxjYugG4h73vV2cUpCn"]}}],"blockhash":"45789ffd4f7f14f9d3598d6ca423c820967d052c1e70c5110e0dbac985643f56","confirmations":186,"blocktime":1540838160}