{"hex":"010000007746d65b05168f4ef32d194b84e2adbd57399fa1993ef3240d33824a1a0e688b6a3189d2c7000000006b483045022100f36c804c7b3f3240da19d3474d28f15cb5113073ff1fcfe88b75616e983f867d022069e12cf50c1d97af8f91a7b8842e8dcf37b53df595c179f2e517a24a36643bb80121029e857134122939a57279b02312e296a02bcf0cf876ddc541bd372450215dbeacffffffffda04300d16db52c4df1e4cb3d5654b4b88cfdac5d4152709377674c391f0480d000000006b483045022100b22835b990c867aa07ed28797f6dc7ae3effad2a079f6acfe507ff5fe26688c3022071812d01f5bd2b9470cb4b8307152d48bdfddca42d371bce49d82a3110955a1a0121031e9a4b9818c4a59fd8def5bcca15f20962aefbe48fea23ffad8ac887606581acffffffffd4321812ce76b6aedef6df06d97dfe316c01f5d3353b0b34f48b418ba3ff6fe8010000006a47304402207e1ca5444385601375b14dd52bc5ea62f6f668622c90ccb38b212b5f08edbe1702207b26146adbfdd2ba864b7688c6171cd596ec9e98970f4aca52f31cd6d622db56012103a4fdb242ccaea58101af80d13083fecdf5b5b91944f137e5b35424f750fe5320ffffffffa932bb7e315be6e45a16286a2163f0b3dade78530d7c7b125fb85f0401f7d07a000000006b4830450221009da7ecfe9e3c106b7e17afe34cd488884c659752db6994860b21e1df560eb0080220546740a0c70fe6c96bc94e266b62a95e3e7c6b03492f546b27429e7b2e24b042012102c189b5486dc2771cc25227f9a9c2c3715814e24db8640079b8ec7b2f4874e9d6ffffffff67fa56f658e5db9057e7755dc5b510f0d3b1644c5b41e2af53cf6b5db839247a000000006b483045022100a215b010834baf3254a2484dde9515de5b03d99d4cc3eafb6b15ea9e44da901b022040973a2f16d76d43d79c4f091285b4df99e8b096e66849ec66db08fb4a186e1601210263f46ed0a8ce44a7d6ba4a1b819d4b41303b2881093146d28cb6ecb8fca517f8ffffffff029aa71500000000001976a9144c28ee798243702bc4500cdb4da9004130bb47f688ac07517f00000000001976a914d4f94474209621efb589efc8936f161b95e10b2188ac00000000","txid":"20a6f3b2866bdd4b747ff945e2e503b45379229ccde4c8a20c94376bee360223","version":1,"time":1540769408,"locktime":0,"vin":[{"txid":"c7d289316a8b680e1a4a82330d24f33e99a19f3957bdade2844b192df34e8f16","vout":0,"scriptSig":{"asm":"3045022100f36c804c7b3f3240da19d3474d28f15cb5113073ff1fcfe88b75616e983f867d022069e12cf50c1d97af8f91a7b8842e8dcf37b53df595c179f2e517a24a36643bb801 029e857134122939a57279b02312e296a02bcf0cf876ddc541bd372450215dbeac","hex":"483045022100f36c804c7b3f3240da19d3474d28f15cb5113073ff1fcfe88b75616e983f867d022069e12cf50c1d97af8f91a7b8842e8dcf37b53df595c179f2e517a24a36643bb80121029e857134122939a57279b02312e296a02bcf0cf876ddc541bd372450215dbeac"},"sequence":4294967295},{"txid":"0d48f091c3747637092715d4c5dacf884b4b65d5b34c1edfc452db160d3004da","vout":0,"scriptSig":{"asm":"3045022100b22835b990c867aa07ed28797f6dc7ae3effad2a079f6acfe507ff5fe26688c3022071812d01f5bd2b9470cb4b8307152d48bdfddca42d371bce49d82a3110955a1a01 031e9a4b9818c4a59fd8def5bcca15f20962aefbe48fea23ffad8ac887606581ac","hex":"483045022100b22835b990c867aa07ed28797f6dc7ae3effad2a079f6acfe507ff5fe26688c3022071812d01f5bd2b9470cb4b8307152d48bdfddca42d371bce49d82a3110955a1a0121031e9a4b9818c4a59fd8def5bcca15f20962aefbe48fea23ffad8ac887606581ac"},"sequence":4294967295},{"txid":"e86fffa38b418bf4340b3b35d3f5016c31fe7dd906dff6deaeb676ce121832d4","vout":1,"scriptSig":{"asm":"304402207e1ca5444385601375b14dd52bc5ea62f6f668622c90ccb38b212b5f08edbe1702207b26146adbfdd2ba864b7688c6171cd596ec9e98970f4aca52f31cd6d622db5601 03a4fdb242ccaea58101af80d13083fecdf5b5b91944f137e5b35424f750fe5320","hex":"47304402207e1ca5444385601375b14dd52bc5ea62f6f668622c90ccb38b212b5f08edbe1702207b26146adbfdd2ba864b7688c6171cd596ec9e98970f4aca52f31cd6d622db56012103a4fdb242ccaea58101af80d13083fecdf5b5b91944f137e5b35424f750fe5320"},"sequence":4294967295},{"txid":"7ad0f701045fb85f127b7c0d5378dedab3f063216a28165ae4e65b317ebb32a9","vout":0,"scriptSig":{"asm":"30450221009da7ecfe9e3c106b7e17afe34cd488884c659752db6994860b21e1df560eb0080220546740a0c70fe6c96bc94e266b62a95e3e7c6b03492f546b27429e7b2e24b04201 02c189b5486dc2771cc25227f9a9c2c3715814e24db8640079b8ec7b2f4874e9d6","hex":"4830450221009da7ecfe9e3c106b7e17afe34cd488884c659752db6994860b21e1df560eb0080220546740a0c70fe6c96bc94e266b62a95e3e7c6b03492f546b27429e7b2e24b042012102c189b5486dc2771cc25227f9a9c2c3715814e24db8640079b8ec7b2f4874e9d6"},"sequence":4294967295},{"txid":"7a2439b85d6bcf53afe2415b4c64b1d3f010b5c55d75e75790dbe558f656fa67","vout":0,"scriptSig":{"asm":"3045022100a215b010834baf3254a2484dde9515de5b03d99d4cc3eafb6b15ea9e44da901b022040973a2f16d76d43d79c4f091285b4df99e8b096e66849ec66db08fb4a186e1601 0263f46ed0a8ce44a7d6ba4a1b819d4b41303b2881093146d28cb6ecb8fca517f8","hex":"483045022100a215b010834baf3254a2484dde9515de5b03d99d4cc3eafb6b15ea9e44da901b022040973a2f16d76d43d79c4f091285b4df99e8b096e66849ec66db08fb4a186e1601210263f46ed0a8ce44a7d6ba4a1b819d4b41303b2881093146d28cb6ecb8fca517f8"},"sequence":4294967295}],"vout":[{"value":0.01419162,"n":0,"scriptPubKey":{"asm":"OP_DUP OP_HASH160 4c28ee798243702bc4500cdb4da9004130bb47f6 OP_EQUALVERIFY OP_CHECKSIG","reqSigs":1,"type":"pubkeyhash","addresses":["pCVGbFvFLapGyskXvwfxG2ss21bRU9FqUh"]}},{"value":0.08343815,"n":1,"scriptPubKey":{"asm":"OP_DUP OP_HASH160 d4f94474209621efb589efc8936f161b95e10b21 OP_EQUALVERIFY OP_CHECKSIG","reqSigs":1,"type":"pubkeyhash","addresses":["pQxg4mxbjrqisjBtyuSP7LXBQuyi4sDw1M"]}}],"blockhash":"4d78c69573c55980321b94c3591ff6a3df69231d2afdb39e82d7cbfa47e17027","confirmations":252,"blocktime":1540769408}