{"hex":"010000008046d65b0191fca192c9c5ae4e3ae217381cf64678f3c25228b92b72e609352b9bb35d684701000000484730440220440b6f577d753977866ee96cdf6c4645b6b787bd61403fa93b93e179c4ca4ea302202ec85b7c94d6535e37e00b7996484be9cd8690ea124bf9f74094d5bb1ad9643f01ffffffff04000000000000000000409452a3030000002321020b1cd26fc4b9f080aea1cf7b667efd5e8453f70429056589831fa7f63506ddbfac249952a3030000002321020b1cd26fc4b9f080aea1cf7b667efd5e8453f70429056589831fa7f63506ddbfacb31b0000000000001976a914b281632e032cac99462bf7779521442a307c52a088ac00000000","txid":"53bc0bfc53c7e126e7d230f8ad0a24fe906018305d408c9ca84fa3ca1c5da1df","version":1,"time":1540769408,"locktime":0,"vin":[{"txid":"47685db39b2b3509e6722bb92852c2f37846f61c3817e23a4eaec5c992a1fc91","vout":1,"scriptSig":{"asm":"30440220440b6f577d753977866ee96cdf6c4645b6b787bd61403fa93b93e179c4ca4ea302202ec85b7c94d6535e37e00b7996484be9cd8690ea124bf9f74094d5bb1ad9643f01","hex":"4730440220440b6f577d753977866ee96cdf6c4645b6b787bd61403fa93b93e179c4ca4ea302202ec85b7c94d6535e37e00b7996484be9cd8690ea124bf9f74094d5bb1ad9643f01"},"sequence":4294967295}],"vout":[{"value":0,"n":0,"scriptPubKey":{"asm":"","type":"nonstandard"}},{"value":156.25,"n":1,"scriptPubKey":{"asm":"020b1cd26fc4b9f080aea1cf7b667efd5e8453f70429056589831fa7f63506ddbf OP_CHECKSIG","reqSigs":1,"type":"pubkey","addresses":["pECTDpfW4nW8hYte3f3F9ZQxwgWmBwmcYL"]}},{"value":156.25001252,"n":2,"scriptPubKey":{"asm":"020b1cd26fc4b9f080aea1cf7b667efd5e8453f70429056589831fa7f63506ddbf OP_CHECKSIG","reqSigs":1,"type":"pubkey","addresses":["pECTDpfW4nW8hYte3f3F9ZQxwgWmBwmcYL"]}},{"value":0.00007091,"n":3,"scriptPubKey":{"asm":"OP_DUP OP_HASH160 b281632e032cac99462bf7779521442a307c52a0 OP_EQUALVERIFY OP_CHECKSIG","reqSigs":1,"type":"pubkeyhash","addresses":["pMpRUr5SqF4SLREGfNjMyHwaGCi3EHeLR1"]}}],"blockhash":"4d78c69573c55980321b94c3591ff6a3df69231d2afdb39e82d7cbfa47e17027","confirmations":252,"blocktime":1540769408}