{"hex":"010000002073d85b01524f0095dc14edd6a4bfc74be8ebb72b151592811815aa9b75f15302b262c35d0200000048473044022019a10fce10a6456a046e701e93495c6904d4d3fc56291e8d72b2274e02652a2102202fd9b41e6238b63416ab8eaa8fb394165910c3d2de7c55ef4733088e9e46cc0301ffffffff03000000000000000000da6ab1d1010000002321020b1cd26fc4b9f080aea1cf7b667efd5e8453f70429056589831fa7f63506ddbfaca51b0000000000001976a914647e9b327f6e6cc3bcd2b98cb8a85fc3160d6a4588ac00000000","txid":"65248b7e68a81a5ab7bfd2721adc9569a7c372f4575ec00661ea83a1002ad70b","version":1,"time":1540911904,"locktime":0,"vin":[{"txid":"5dc362b20253f1759baa1518819215152bb7ebe84bc7bfa4d6ed14dc95004f52","vout":2,"scriptSig":{"asm":"3044022019a10fce10a6456a046e701e93495c6904d4d3fc56291e8d72b2274e02652a2102202fd9b41e6238b63416ab8eaa8fb394165910c3d2de7c55ef4733088e9e46cc0301","hex":"473044022019a10fce10a6456a046e701e93495c6904d4d3fc56291e8d72b2274e02652a2102202fd9b41e6238b63416ab8eaa8fb394165910c3d2de7c55ef4733088e9e46cc0301"},"sequence":4294967295}],"vout":[{"value":0,"n":0,"scriptPubKey":{"asm":"","type":"nonstandard"}},{"value":78.13032666,"n":1,"scriptPubKey":{"asm":"020b1cd26fc4b9f080aea1cf7b667efd5e8453f70429056589831fa7f63506ddbf OP_CHECKSIG","reqSigs":1,"type":"pubkey","addresses":["pECTDpfW4nW8hYte3f3F9ZQxwgWmBwmcYL"]}},{"value":0.00007077,"n":2,"scriptPubKey":{"asm":"OP_DUP OP_HASH160 647e9b327f6e6cc3bcd2b98cb8a85fc3160d6a45 OP_EQUALVERIFY OP_CHECKSIG","reqSigs":1,"type":"pubkeyhash","addresses":["pEhwSeKiP8Q9UV5H4Vwts61nBy8VHfUUbd"]}}],"blockhash":"3f35aa7a6be93c5c3771b4b526c8671bcf04e0e966791445e35ec0dfa6891ea1","confirmations":165,"blocktime":1540911904}