{"hex":"010000001d73d85b01d0e11e05752c48709a2b09079c1195d97acddf2d8b2614e901884ca202dcdf89010000006b483045022100cdcfab0c27d11bfb6eba612fb94452b4d34933561b7042ae4ce37396e65b920602206d6ab3f7d3a8c68581ca8ec32c5312041408ede0c9dcc9b1036e8d8775e9970a0121020e63c25a7bbd4665d6f866153b3f779618727dcbe86dcce6183fe77b24b5cf23ffffffff02eaaba200000000001976a9140323a907c285ba7cbd8f45ffe1504219e71f3cac88ac5d127f00000000001976a91455e688d7f37ce5555071283018810f87936c29f388ac00000000","txid":"82ce5d9c7cb4b5262153e529f495a961dbc10612c12667cee6ca135c9c247689","version":1,"time":1540911904,"locktime":0,"vin":[{"txid":"89dfdc02a24c8801e914268b2ddfcd7ad995119c07092b9a70482c75051ee1d0","vout":1,"scriptSig":{"asm":"3045022100cdcfab0c27d11bfb6eba612fb94452b4d34933561b7042ae4ce37396e65b920602206d6ab3f7d3a8c68581ca8ec32c5312041408ede0c9dcc9b1036e8d8775e9970a01 020e63c25a7bbd4665d6f866153b3f779618727dcbe86dcce6183fe77b24b5cf23","hex":"483045022100cdcfab0c27d11bfb6eba612fb94452b4d34933561b7042ae4ce37396e65b920602206d6ab3f7d3a8c68581ca8ec32c5312041408ede0c9dcc9b1036e8d8775e9970a0121020e63c25a7bbd4665d6f866153b3f779618727dcbe86dcce6183fe77b24b5cf23"},"sequence":4294967295}],"vout":[{"value":0.10660842,"n":0,"scriptPubKey":{"asm":"OP_DUP OP_HASH160 0323a907c285ba7cbd8f45ffe1504219e71f3cac OP_EQUALVERIFY OP_CHECKSIG","reqSigs":1,"type":"pubkeyhash","addresses":["p5qAwzyTNSw7dgKFSUUi8zaYntZfj5Ktz7"]}},{"value":0.08327773,"n":1,"scriptPubKey":{"asm":"OP_DUP OP_HASH160 55e688d7f37ce5555071283018810f87936c29f3 OP_EQUALVERIFY OP_CHECKSIG","reqSigs":1,"type":"pubkeyhash","addresses":["pDNmoqDa7CVx2utZtouTuiavYtyRQspQTX"]}}],"blockhash":"3f35aa7a6be93c5c3771b4b526c8671bcf04e0e966791445e35ec0dfa6891ea1","confirmations":165,"blocktime":1540911904}