{"hex":"0100000050a9d85b01f70503938898327e6ada8f7175de9af37c2a7f7da68f24cbdba8d62ff3c95420010000006b483045022100b4f412d9c92ffb01dc96e74f009bd35a5f088f910f63eaba672115bd7d27a6a502207e3413be47b9f2d5c502137f913a59e85c5b972fe991669d8245c786306746340121033b457af556a3bfe40b5e35256855a938fb82f71b91dac5e92aa7e441023e7b57ffffffff04000000000000000000004429353a0000002321033b457af556a3bfe40b5e35256855a938fb82f71b91dac5e92aa7e441023e7b57ac33b329353a0000002321033b457af556a3bfe40b5e35256855a938fb82f71b91dac5e92aa7e441023e7b57ac20760200000000001976a91422d06420236528fe42b5c2302e36704d85b646de88ac00000000","txid":"1ff0ca113d097fa8f696ed35eb97bde3edaa26ce81e5263a49ab263ff1b12b1b","version":1,"time":1540925776,"locktime":0,"vin":[{"txid":"2054c9f32fd6a8dbcb248fa67d7f2a7cf39ade75718fda6a7e329888930305f7","vout":1,"scriptSig":{"asm":"3045022100b4f412d9c92ffb01dc96e74f009bd35a5f088f910f63eaba672115bd7d27a6a502207e3413be47b9f2d5c502137f913a59e85c5b972fe991669d8245c7863067463401 033b457af556a3bfe40b5e35256855a938fb82f71b91dac5e92aa7e441023e7b57","hex":"483045022100b4f412d9c92ffb01dc96e74f009bd35a5f088f910f63eaba672115bd7d27a6a502207e3413be47b9f2d5c502137f913a59e85c5b972fe991669d8245c786306746340121033b457af556a3bfe40b5e35256855a938fb82f71b91dac5e92aa7e441023e7b57"},"sequence":4294967295}],"vout":[{"value":0,"n":0,"scriptPubKey":{"asm":"","type":"nonstandard"}},{"value":2500,"n":1,"scriptPubKey":{"asm":"033b457af556a3bfe40b5e35256855a938fb82f71b91dac5e92aa7e441023e7b57 OP_CHECKSIG","reqSigs":1,"type":"pubkey","addresses":["pJWi9BXT9hsVaAft92RNcufBy1LZGU4RtT"]}},{"value":2500.00028467,"n":2,"scriptPubKey":{"asm":"033b457af556a3bfe40b5e35256855a938fb82f71b91dac5e92aa7e441023e7b57 OP_CHECKSIG","reqSigs":1,"type":"pubkey","addresses":["pJWi9BXT9hsVaAft92RNcufBy1LZGU4RtT"]}},{"value":0.00161312,"n":3,"scriptPubKey":{"asm":"OP_DUP OP_HASH160 22d06420236528fe42b5c2302e36704d85b646de OP_EQUALVERIFY OP_CHECKSIG","reqSigs":1,"type":"pubkeyhash","addresses":["p8iepVjrqbjo1uNb8dyXKBBerSUv6zrPfw"]}}],"blockhash":"46c90eb9fe11185cdda7e276459043dbbbc319f1b984c4308eb935c30be17601","confirmations":151,"blocktime":1540925776}