{"hex":"010000004ea9d85b01f5429347de11161cdc9918da7774f6fceb0e793708c16fd4173e18798cd270b8010000006a4730440220315ba536cede7b7533159691c76faed35ce78e2e690611926d840a4a7520841502201dc2aa2ae746b398322b40ec5bcd29af606908903d99c70b3507856153efbeb6012102b94a6969bf99c0fe27679b29c0e8cd7249ddcd35059997c26c2e69eb79919d33ffffffff0208b4520b000000001976a914ad66b0facda07ba563dee4684665cb66571a136488acb3ce4f0b000000001976a914f83a8979141810ef148be6bc91f1493fa70c246388ac00000000","txid":"5ce8d345ad93f303b07e38860a1b33a7f3fe39cb53355ae8c2519fd3781c8aa4","version":1,"time":1540925776,"locktime":0,"vin":[{"txid":"b870d28c79183e17d46fc10837790eebfcf67477da1899dc1c1611de479342f5","vout":1,"scriptSig":{"asm":"30440220315ba536cede7b7533159691c76faed35ce78e2e690611926d840a4a7520841502201dc2aa2ae746b398322b40ec5bcd29af606908903d99c70b3507856153efbeb601 02b94a6969bf99c0fe27679b29c0e8cd7249ddcd35059997c26c2e69eb79919d33","hex":"4730440220315ba536cede7b7533159691c76faed35ce78e2e690611926d840a4a7520841502201dc2aa2ae746b398322b40ec5bcd29af606908903d99c70b3507856153efbeb6012102b94a6969bf99c0fe27679b29c0e8cd7249ddcd35059997c26c2e69eb79919d33"},"sequence":4294967295}],"vout":[{"value":1.89969416,"n":0,"scriptPubKey":{"asm":"OP_DUP OP_HASH160 ad66b0facda07ba563dee4684665cb66571a1364 OP_EQUALVERIFY OP_CHECKSIG","reqSigs":1,"type":"pubkeyhash","addresses":["pMMS81aDngqhv3sxQu1x8pfQXSjgL4vHiY"]}},{"value":1.89779635,"n":1,"scriptPubKey":{"asm":"OP_DUP OP_HASH160 f83a8979141810ef148be6bc91f1493fa70c2463 OP_EQUALVERIFY OP_CHECKSIG","reqSigs":1,"type":"pubkeyhash","addresses":["pUB5uW4MdTNzmMuYgj1iJbhNmfLTKMCJd8"]}}],"blockhash":"46c90eb9fe11185cdda7e276459043dbbbc319f1b984c4308eb935c30be17601","confirmations":151,"blocktime":1540925776}