{"hex":"01000000a066d75b04f67e2b97a3c9b22fb023e427a3f3fc0a7d4303abc639ad97115f61f78bf17f54010000006b483045022100be35713919ad2fde398abfad8741505ee593336fd253fd1d68654213b350c7d00220480e8350c33df3c4063a02fd4a7b002b0e3659e3830fecd72b5da85d63f791e60121024dc2de9912f77928aca86ebb63fe00b76c6d7f4d051bc8f31b69a44f80b24868fffffffff781295a45259f5c9eb6ba2ef506c75f9ad31fc014a25401e6039fd3155b5c7d000000006a473044022012c3341bbed74fe7e9e1548dbf48f0e434a09e45f1895546c7e05adb65607f7e02206bcf5a04ff4df8a4972027421cf15c857fb5507c5770be8a756ce82ff933c66201210310d98e7fb825bc359ca1c00f3a8cd094f8a19461c28d20de12bc0c7102637a8cffffffffb36a67cd92a9578b26e768f17e4591ab2a34fc50642b1025afc75e98817c8d3c000000006b48304502210093ce04b3570ff891cba9ba7d0ebf57e9a4b637f573db333d2e2e19172d4979880220281a35ec95ffb6fdb78ff6185fb3e7bb286a9c3fa702b4b26d82f8c1537edd2a012102ba841b75262be9c798ff1e0c5c51f8c81cdc67c3cd76b3cdb1cb837ab317e1aaffffffff0449a23d7d6d5e5925b4aedb0526447ecaffd1fc2c926b5ecfb6a3debed8f67b010000006b483045022100c7691596cc09ab6b486f630d5d6b9140bba95e04dd7c532f5d238e4a0ae2af92022003fe7949aba289b803fe57ca52d2e23aa22dddb000b9b71a3c1b8bfcfae930ed0121024dc2de9912f77928aca86ebb63fe00b76c6d7f4d051bc8f31b69a44f80b24868ffffffff02af470f00000000001976a914b4c11743a75b49fa93b388d22a63e3c39ac00e3088accede2101000000001976a91434d2a1096200a286b75f4517dc262ca359e70eab88ac00000000","txid":"0f805d08be6e8a5ddebc255ae680e31681251dcf84c00a742afa23a51c205c1b","version":1,"time":1540843184,"locktime":0,"vin":[{"txid":"547ff18bf7615f1197ad39c6ab03437d0afcf3a327e423b02fb2c9a3972b7ef6","vout":1,"scriptSig":{"asm":"3045022100be35713919ad2fde398abfad8741505ee593336fd253fd1d68654213b350c7d00220480e8350c33df3c4063a02fd4a7b002b0e3659e3830fecd72b5da85d63f791e601 024dc2de9912f77928aca86ebb63fe00b76c6d7f4d051bc8f31b69a44f80b24868","hex":"483045022100be35713919ad2fde398abfad8741505ee593336fd253fd1d68654213b350c7d00220480e8350c33df3c4063a02fd4a7b002b0e3659e3830fecd72b5da85d63f791e60121024dc2de9912f77928aca86ebb63fe00b76c6d7f4d051bc8f31b69a44f80b24868"},"sequence":4294967295},{"txid":"7d5c5b15d39f03e60154a214c01fd39a5fc706f52ebab69e5c9f25455a2981f7","vout":0,"scriptSig":{"asm":"3044022012c3341bbed74fe7e9e1548dbf48f0e434a09e45f1895546c7e05adb65607f7e02206bcf5a04ff4df8a4972027421cf15c857fb5507c5770be8a756ce82ff933c66201 0310d98e7fb825bc359ca1c00f3a8cd094f8a19461c28d20de12bc0c7102637a8c","hex":"473044022012c3341bbed74fe7e9e1548dbf48f0e434a09e45f1895546c7e05adb65607f7e02206bcf5a04ff4df8a4972027421cf15c857fb5507c5770be8a756ce82ff933c66201210310d98e7fb825bc359ca1c00f3a8cd094f8a19461c28d20de12bc0c7102637a8c"},"sequence":4294967295},{"txid":"3c8d7c81985ec7af25102b6450fc342aab91457ef168e7268b57a992cd676ab3","vout":0,"scriptSig":{"asm":"304502210093ce04b3570ff891cba9ba7d0ebf57e9a4b637f573db333d2e2e19172d4979880220281a35ec95ffb6fdb78ff6185fb3e7bb286a9c3fa702b4b26d82f8c1537edd2a01 02ba841b75262be9c798ff1e0c5c51f8c81cdc67c3cd76b3cdb1cb837ab317e1aa","hex":"48304502210093ce04b3570ff891cba9ba7d0ebf57e9a4b637f573db333d2e2e19172d4979880220281a35ec95ffb6fdb78ff6185fb3e7bb286a9c3fa702b4b26d82f8c1537edd2a012102ba841b75262be9c798ff1e0c5c51f8c81cdc67c3cd76b3cdb1cb837ab317e1aa"},"sequence":4294967295},{"txid":"7bf6d8bedea3b6cf5e6b922cfcd1ffca7e442605dbaeb425595e6d7d3da24904","vout":1,"scriptSig":{"asm":"3045022100c7691596cc09ab6b486f630d5d6b9140bba95e04dd7c532f5d238e4a0ae2af92022003fe7949aba289b803fe57ca52d2e23aa22dddb000b9b71a3c1b8bfcfae930ed01 024dc2de9912f77928aca86ebb63fe00b76c6d7f4d051bc8f31b69a44f80b24868","hex":"483045022100c7691596cc09ab6b486f630d5d6b9140bba95e04dd7c532f5d238e4a0ae2af92022003fe7949aba289b803fe57ca52d2e23aa22dddb000b9b71a3c1b8bfcfae930ed0121024dc2de9912f77928aca86ebb63fe00b76c6d7f4d051bc8f31b69a44f80b24868"},"sequence":4294967295}],"vout":[{"value":0.01001391,"n":0,"scriptPubKey":{"asm":"OP_DUP OP_HASH160 b4c11743a75b49fa93b388d22a63e3c39ac00e30 OP_EQUALVERIFY OP_CHECKSIG","reqSigs":1,"type":"pubkeyhash","addresses":["pN2K9RZa45cft8UaD3DfA8P2qHFKHbT6oj"]}},{"value":0.18996942,"n":1,"scriptPubKey":{"asm":"OP_DUP OP_HASH160 34d2a1096200a286b75f4517dc262ca359e70eab OP_EQUALVERIFY OP_CHECKSIG","reqSigs":1,"type":"pubkeyhash","addresses":["pAMsfSggGuq4w9Pwe55d7VZegi8P1LEEfm"]}}],"blockhash":"2cab9690065429d964e210ee71b468f9231bc3e7624875967352f30065dc1ec6","confirmations":177,"blocktime":1540843184}