{"hex":"01000000b066d75b01c4a84efde058d71a1696fa179e022a6580ce5f7e8696c0ea4bce8a36ea7985dd010000004847304402205adb4aae60533a278e4dfe40b6af772407e477d1cead5789b4a04c51ac82bca902200ba5d128770a7289c7f07a0bf2f7b79ee4f9a7e4581cd748e070a2f8573424be01ffffffff0400000000000000000000a2941a1d000000232102c70f997963ce3f3ea88266ee3e0c833058cd21ae02eae02cd993b9664c686d89ac22ad941a1d000000232102c70f997963ce3f3ea88266ee3e0c833058cd21ae02eae02cd993b9664c686d89ac123f0000000000001976a9140f0458597355a9fb43189a18c91b2668213960f888ac00000000","txid":"96ff66c26b2b074a4fd9f417c095da38681d992d8dc0fbfad4df178ba0de1c48","version":1,"time":1540843184,"locktime":0,"vin":[{"txid":"dd8579ea368ace4beac096867e5fce80652a029e17fa96161ad758e0fd4ea8c4","vout":1,"scriptSig":{"asm":"304402205adb4aae60533a278e4dfe40b6af772407e477d1cead5789b4a04c51ac82bca902200ba5d128770a7289c7f07a0bf2f7b79ee4f9a7e4581cd748e070a2f8573424be01","hex":"47304402205adb4aae60533a278e4dfe40b6af772407e477d1cead5789b4a04c51ac82bca902200ba5d128770a7289c7f07a0bf2f7b79ee4f9a7e4581cd748e070a2f8573424be01"},"sequence":4294967295}],"vout":[{"value":0,"n":0,"scriptPubKey":{"asm":"","type":"nonstandard"}},{"value":1250,"n":1,"scriptPubKey":{"asm":"02c70f997963ce3f3ea88266ee3e0c833058cd21ae02eae02cd993b9664c686d89 OP_CHECKSIG","reqSigs":1,"type":"pubkey","addresses":["pTQJsZTT2bpmhnKWdT3rdczVS5MaBuXxyB"]}},{"value":1250.0000285,"n":2,"scriptPubKey":{"asm":"02c70f997963ce3f3ea88266ee3e0c833058cd21ae02eae02cd993b9664c686d89 OP_CHECKSIG","reqSigs":1,"type":"pubkey","addresses":["pTQJsZTT2bpmhnKWdT3rdczVS5MaBuXxyB"]}},{"value":0.00016146,"n":3,"scriptPubKey":{"asm":"OP_DUP OP_HASH160 0f0458597355a9fb43189a18c91b2668213960f8 OP_EQUALVERIFY OP_CHECKSIG","reqSigs":1,"type":"pubkeyhash","addresses":["p6uyYVC7Ty7S1UZtPQtetPMTXYoKf6M8dh"]}}],"blockhash":"2cab9690065429d964e210ee71b468f9231bc3e7624875967352f30065dc1ec6","confirmations":177,"blocktime":1540843184}