{"hex":"01000000be38d65b027b34294b9fa41e59e318bcc2518fa4b94e50912820ddf93e7b5074d9dc9c5596000000006a47304402200a54c84afc056373d5d0ac044e1120d71b2eacb819b92b8e1a95043679b6d3f40220418e2f2a76a096d55d5a9366566d389e330c1203e328565b3b97f0cc0f2ec74e012102c189b5486dc2771cc25227f9a9c2c3715814e24db8640079b8ec7b2f4874e9d6ffffffff9d1aae10f9a14505dd347b141467902d1848589d9bc3e483eb937cbb0ba18806010000006a47304402200d1aa0954234fcdbd7a32729193b82927d576e360074f8cf2a607a2f0995fb5302201a1a5ac8ddbaf28c87fadb9e98bdaa7b2881d4e65faf19e63fb59d9f4d0ea74c0121030005ba3d43eb33f845883af925a247e4e057ba38d59775460a0110615b99e88dffffffff0213a51200000000001976a9147497242bd11fe2ede7052da7044e209675fb284388ac50b0f600000000001976a91437da767cb977570749b833779f50e710236ec3dd88ac00000000","txid":"12e6c63ace3f2ff1b0851e99baa8f1c38116d99fe9bf6102d67c18529608492b","version":1,"time":1540765888,"locktime":0,"vin":[{"txid":"96559cdcd974507b3ef9dd202891504eb9a48f51c2bc18e3591ea49f4b29347b","vout":0,"scriptSig":{"asm":"304402200a54c84afc056373d5d0ac044e1120d71b2eacb819b92b8e1a95043679b6d3f40220418e2f2a76a096d55d5a9366566d389e330c1203e328565b3b97f0cc0f2ec74e01 02c189b5486dc2771cc25227f9a9c2c3715814e24db8640079b8ec7b2f4874e9d6","hex":"47304402200a54c84afc056373d5d0ac044e1120d71b2eacb819b92b8e1a95043679b6d3f40220418e2f2a76a096d55d5a9366566d389e330c1203e328565b3b97f0cc0f2ec74e012102c189b5486dc2771cc25227f9a9c2c3715814e24db8640079b8ec7b2f4874e9d6"},"sequence":4294967295},{"txid":"0688a10bbb7c93eb83e4c39b9d5848182d906714147b34dd0545a1f910ae1a9d","vout":1,"scriptSig":{"asm":"304402200d1aa0954234fcdbd7a32729193b82927d576e360074f8cf2a607a2f0995fb5302201a1a5ac8ddbaf28c87fadb9e98bdaa7b2881d4e65faf19e63fb59d9f4d0ea74c01 030005ba3d43eb33f845883af925a247e4e057ba38d59775460a0110615b99e88d","hex":"47304402200d1aa0954234fcdbd7a32729193b82927d576e360074f8cf2a607a2f0995fb5302201a1a5ac8ddbaf28c87fadb9e98bdaa7b2881d4e65faf19e63fb59d9f4d0ea74c0121030005ba3d43eb33f845883af925a247e4e057ba38d59775460a0110615b99e88d"},"sequence":4294967295}],"vout":[{"value":0.01221907,"n":0,"scriptPubKey":{"asm":"OP_DUP OP_HASH160 7497242bd11fe2ede7052da7044e209675fb2843 OP_EQUALVERIFY OP_CHECKSIG","reqSigs":1,"type":"pubkeyhash","addresses":["pGB3eSREqWQ2X4XJ3unYx2935biwBNUdc2"]}},{"value":0.16166992,"n":1,"scriptPubKey":{"asm":"OP_DUP OP_HASH160 37da767cb977570749b833779f50e710236ec3dd OP_EQUALVERIFY OP_CHECKSIG","reqSigs":1,"type":"pubkeyhash","addresses":["pAdu5KYPnuqo91XGQMUM3cWuHs1L8HAkM5"]}}],"blockhash":"df40eb154a443789428337e228dc7575c27223a5cbe25b4eae1615a34cd21135","confirmations":257,"blocktime":1540765888}