{"hex":"01000000c038d65b012a5699d74204e8464cfb2a5ddabc72b68510c4a078b99ae291ba5db3b0a4541a010000004847304402204f27cff73c182ba0c257706b22b9b51bcb0662a54ac87de27804fb6ce84b16fa022048be322b93307860e6ffc590b65ad2dc0bc9bd0a969f14bbf88bfa0cefb8d49601ffffffff04000000000000000000409452a3030000002321020b1cd26fc4b9f080aea1cf7b667efd5e8453f70429056589831fa7f63506ddbfacb99d52a3030000002321020b1cd26fc4b9f080aea1cf7b667efd5e8453f70429056589831fa7f63506ddbfacad350000000000001976a91494663191b35c746d9b53200027af769cfd8a5ec588ac00000000","txid":"d606b39aabccb996caa75e6c7c4221f2ab223e6acffcd398a8a4c9b122fa50d4","version":1,"time":1540765888,"locktime":0,"vin":[{"txid":"1a54a4b0b35dba91e29ab978a0c41085b672bcda5d2afb4c46e80442d799562a","vout":1,"scriptSig":{"asm":"304402204f27cff73c182ba0c257706b22b9b51bcb0662a54ac87de27804fb6ce84b16fa022048be322b93307860e6ffc590b65ad2dc0bc9bd0a969f14bbf88bfa0cefb8d49601","hex":"47304402204f27cff73c182ba0c257706b22b9b51bcb0662a54ac87de27804fb6ce84b16fa022048be322b93307860e6ffc590b65ad2dc0bc9bd0a969f14bbf88bfa0cefb8d49601"},"sequence":4294967295}],"vout":[{"value":0,"n":0,"scriptPubKey":{"asm":"","type":"nonstandard"}},{"value":156.25,"n":1,"scriptPubKey":{"asm":"020b1cd26fc4b9f080aea1cf7b667efd5e8453f70429056589831fa7f63506ddbf OP_CHECKSIG","reqSigs":1,"type":"pubkey","addresses":["pECTDpfW4nW8hYte3f3F9ZQxwgWmBwmcYL"]}},{"value":156.25002425,"n":2,"scriptPubKey":{"asm":"020b1cd26fc4b9f080aea1cf7b667efd5e8453f70429056589831fa7f63506ddbf OP_CHECKSIG","reqSigs":1,"type":"pubkey","addresses":["pECTDpfW4nW8hYte3f3F9ZQxwgWmBwmcYL"]}},{"value":0.00013741,"n":3,"scriptPubKey":{"asm":"OP_DUP OP_HASH160 94663191b35c746d9b53200027af769cfd8a5ec5 OP_EQUALVERIFY OP_CHECKSIG","reqSigs":1,"type":"pubkeyhash","addresses":["pK5Eddk3vr4yi7hrwuoQfuFmrHAeSuez22"]}}],"blockhash":"df40eb154a443789428337e228dc7575c27223a5cbe25b4eae1615a34cd21135","confirmations":257,"blocktime":1540765888}