{"hex":"01000000e78ee05b01afcf6fa7ab8fb5b2151422ba08d83570b4d11de81efc14a024d2eb05b55cab7a000000006a4730440220664ba70367c29808f3aa7a7f88bca113d76d812cf1a508937f1f551defff7b6902205f6e9c39968762d9d01072df2e02e8c5a06ec6bc0735e3c6d88b9909289b63ed01210310980bc4ce97d190f12bcd62c639af50e492f51c4ffdc672fc206575f66f7aebffffffff021ad75802000000001976a914b8d54ad20a8dac7b0fab479da46275460661431988ac38631900000000001976a9146c5d63dbd598a5e0f060b86057274051ba9ce2fd88ac00000000","txid":"5cb9a145f47fc41b2376d1ef7e25ae8f87856ac6d59d864a1fe3b77892b44bfe","version":1,"time":1541443312,"locktime":0,"vin":[{"txid":"7aab5cb505ebd224a014fc1ee81dd1b47035d808ba221415b2b58faba76fcfaf","vout":0,"scriptSig":{"asm":"30440220664ba70367c29808f3aa7a7f88bca113d76d812cf1a508937f1f551defff7b6902205f6e9c39968762d9d01072df2e02e8c5a06ec6bc0735e3c6d88b9909289b63ed01 0310980bc4ce97d190f12bcd62c639af50e492f51c4ffdc672fc206575f66f7aeb","hex":"4730440220664ba70367c29808f3aa7a7f88bca113d76d812cf1a508937f1f551defff7b6902205f6e9c39968762d9d01072df2e02e8c5a06ec6bc0735e3c6d88b9909289b63ed01210310980bc4ce97d190f12bcd62c639af50e492f51c4ffdc672fc206575f66f7aeb"},"sequence":4294967295}],"vout":[{"value":0.39376666,"n":0,"scriptPubKey":{"asm":"OP_DUP OP_HASH160 b8d54ad20a8dac7b0fab479da462754606614319 OP_EQUALVERIFY OP_CHECKSIG","reqSigs":1,"type":"pubkeyhash","addresses":["pNPt3osNuBYH1HMkh9ty3PwzZb9veoSbZy"]}},{"value":0.016638,"n":1,"scriptPubKey":{"asm":"OP_DUP OP_HASH160 6c5d63dbd598a5e0f060b86057274051ba9ce2fd OP_EQUALVERIFY OP_CHECKSIG","reqSigs":1,"type":"pubkeyhash","addresses":["pFRZ4H9ioQ2rt5RwgzRPVfG2Wz1TxTZbj8"]}}],"blockhash":"afef98c714ae7228e298cdff7afc072a7b5343529b2159c9dade93579d94ec02","confirmations":14,"blocktime":1541443312}