{"hex":"01000000f08ee05b01f7a265077c849f5562a23a437d50be317a8a02c45fa16c6f6f52bc6a124b0ddb020000004847304402203ff46a7510cbd00d0b46e76bcd8a572746173f0b18c9529c880338d27485472c02202b5988f9c78f9f5cb0d91cd208abf70d4992d5aee9e208052f73339642e3a76301ffffffff0400000000000000000000a2941a1d000000232103f98fe2632fab54e64af25b30cb1601b07259379f488db5c93b4adbd6b962f5b9acd6a8941a1d000000232103f98fe2632fab54e64af25b30cb1601b07259379f488db5c93b4adbd6b962f5b9ac85050000000000001976a91466429c93e46136b2db3fe752c257b3dba5e7649c88ac00000000","txid":"df123fd04988eb248ed527b75caa3594e6e2034b7a1aacae8139b1d5c0cdfd53","version":1,"time":1541443312,"locktime":0,"vin":[{"txid":"db0d4b126abc526f6f6ca15fc4028a7a31be507d433aa262559f847c0765a2f7","vout":2,"scriptSig":{"asm":"304402203ff46a7510cbd00d0b46e76bcd8a572746173f0b18c9529c880338d27485472c02202b5988f9c78f9f5cb0d91cd208abf70d4992d5aee9e208052f73339642e3a76301","hex":"47304402203ff46a7510cbd00d0b46e76bcd8a572746173f0b18c9529c880338d27485472c02202b5988f9c78f9f5cb0d91cd208abf70d4992d5aee9e208052f73339642e3a76301"},"sequence":4294967295}],"vout":[{"value":0,"n":0,"scriptPubKey":{"asm":"","type":"nonstandard"}},{"value":1250,"n":1,"scriptPubKey":{"asm":"03f98fe2632fab54e64af25b30cb1601b07259379f488db5c93b4adbd6b962f5b9 OP_CHECKSIG","reqSigs":1,"type":"pubkey","addresses":["p7snoofvhm9cmcDcAmpbzCVHFFEt2fdccj"]}},{"value":1250.0000175,"n":2,"scriptPubKey":{"asm":"03f98fe2632fab54e64af25b30cb1601b07259379f488db5c93b4adbd6b962f5b9 OP_CHECKSIG","reqSigs":1,"type":"pubkey","addresses":["p7snoofvhm9cmcDcAmpbzCVHFFEt2fdccj"]}},{"value":0.00001413,"n":3,"scriptPubKey":{"asm":"OP_DUP OP_HASH160 66429c93e46136b2db3fe752c257b3dba5e7649c OP_EQUALVERIFY OP_CHECKSIG","reqSigs":1,"type":"pubkeyhash","addresses":["pEsGvXfg7BMJ91FueYCRJrpJCEzDnhWNzu"]}}],"blockhash":"afef98c714ae7228e298cdff7afc072a7b5343529b2159c9dade93579d94ec02","confirmations":14,"blocktime":1541443312}