{"hex":"010000009061df5b010e4399aecd9726cebd2d4ca0cb8f7b72604414524541688070574500afc2b2da02000000484730440220492ebecb3cddb1af47fce975b1d8e1daa9664cf22758a5d66cc206f7d2d1cce802201042eb12d68892c51a1bb9e000fd084b7c6ee6bc4ec11ed9a1e9fc0912781c7701ffffffff0400000000000000000080d661a303000000232103670be5afe77a215b42f2bc4bd7c1c5049117430d8e81c1de5c44e9ab4c566689ac1b8b62a303000000232103670be5afe77a215b42f2bc4bd7c1c5049117430d8e81c1de5c44e9ab4c566689acc4e20300000000001976a91466429c93e46136b2db3fe752c257b3dba5e7649c88ac00000000","txid":"2a77c80108afb1e19858a5913f3505bb3fef9fccee3735d2546bb37b6304505f","version":1,"time":1541366160,"locktime":0,"vin":[{"txid":"dab2c2af004557708068414552144460727b8fcba04c2dbdce2697cdae99430e","vout":2,"scriptSig":{"asm":"30440220492ebecb3cddb1af47fce975b1d8e1daa9664cf22758a5d66cc206f7d2d1cce802201042eb12d68892c51a1bb9e000fd084b7c6ee6bc4ec11ed9a1e9fc0912781c7701","hex":"4730440220492ebecb3cddb1af47fce975b1d8e1daa9664cf22758a5d66cc206f7d2d1cce802201042eb12d68892c51a1bb9e000fd084b7c6ee6bc4ec11ed9a1e9fc0912781c7701"},"sequence":4294967295}],"vout":[{"value":0,"n":0,"scriptPubKey":{"asm":"","type":"nonstandard"}},{"value":156.26,"n":1,"scriptPubKey":{"asm":"03670be5afe77a215b42f2bc4bd7c1c5049117430d8e81c1de5c44e9ab4c566689 OP_CHECKSIG","reqSigs":1,"type":"pubkey","addresses":["pRVJAmbxV6TyzWMNW1oNoV1k3zM77bZrBx"]}},{"value":156.26046235,"n":2,"scriptPubKey":{"asm":"03670be5afe77a215b42f2bc4bd7c1c5049117430d8e81c1de5c44e9ab4c566689 OP_CHECKSIG","reqSigs":1,"type":"pubkey","addresses":["pRVJAmbxV6TyzWMNW1oNoV1k3zM77bZrBx"]}},{"value":0.0025466,"n":3,"scriptPubKey":{"asm":"OP_DUP OP_HASH160 66429c93e46136b2db3fe752c257b3dba5e7649c OP_EQUALVERIFY OP_CHECKSIG","reqSigs":1,"type":"pubkeyhash","addresses":["pEsGvXfg7BMJ91FueYCRJrpJCEzDnhWNzu"]}}],"blockhash":"9918dbee240e56fe34f83c62b91af8778fdd167e874ba71f350bef66df805179","confirmations":43,"blocktime":1541366160}