{"hex":"010000008261df5b05349085004f33c0959ae4833655059f34810f2de493059922e989718d35543693030000006a4730440220130e8da7d21e3e04bd07c9879f2a36180910b500dd298f1b0717fb2dc9c24a9302207e3013245f532bd6506da9c67a215594bd05e67a808619cdca7c3beb981f6e94012102bbb1ce5e998c1d152b40dd69d0837159f0a5596b2f04ef3b887978a6cbada80cffffffffd8825e17708c757e4fc293e85b9b3e0548b2fef651a6d67038a18112b63d30f9030000006a47304402204e46af49a9b3e8742fb775941690388c90969f3b7d94442d56dc9c7d72818aba0220425688699bb87eb4caa019cfef1ce96306f1eb2655d5a3e3890a116cfe40aea4012102bbb1ce5e998c1d152b40dd69d0837159f0a5596b2f04ef3b887978a6cbada80cffffffffed795e06eab0a5fb7edf4eda8857d97bcf96cf0a57ca04988c2bb1b86eae0e71020000006a47304402203f4b5c9a14bbf8d299715dae976c5a146d74104e56959e92df7412f95385c19b02200760b32cf7c7f625ce5bc1a52a082f7e0300132c25b09eca71c328ee23887df2012102bbb1ce5e998c1d152b40dd69d0837159f0a5596b2f04ef3b887978a6cbada80cfffffffff852c8966e3a852ada72ede97217415382fcf1660bbcc08ffdd873a2ea7f073b030000006a47304402200e867960faf8a3d0f3d43863c1ad8ea29f55b24f29d882ae5600b5139de93c21022074c90e57a0ae0115221e7463b7332fb0d3020976450195e4bd9ec4605dad6179012102bbb1ce5e998c1d152b40dd69d0837159f0a5596b2f04ef3b887978a6cbada80cffffffff7a8b54b387bee14d0a06fc20a4ff14ce394d8292d6b52e9f0887ecf2dd57e379010000006b483045022100e31080144105828480a48c45a6e8762dddac0e9f01e5dc5f2d0b1af19b2ceeb5022063feb991172931975e75ddcacebf37f29e7414812b51d622dfa69a73e06ec7ee0121033d5807ef206559fd62ea4e552fb36cdd96cb6d888c48377724adb62fec3ae291ffffffff027e440f00000000001976a9144f0958a195718b28ed2776ee5c40ba86559e86ff88ac8088db11000000001976a914700533d493a5bd0b95186ea958e443edeb1f47db88ac00000000","txid":"f8cad455ef5d2d4d5d757308a07f2e9ae7a9b341d3cef5203924da6da256fefb","version":1,"time":1541366160,"locktime":0,"vin":[{"txid":"933654358d7189e922990593e42d0f81349f05553683e49a95c0334f00859034","vout":3,"scriptSig":{"asm":"30440220130e8da7d21e3e04bd07c9879f2a36180910b500dd298f1b0717fb2dc9c24a9302207e3013245f532bd6506da9c67a215594bd05e67a808619cdca7c3beb981f6e9401 02bbb1ce5e998c1d152b40dd69d0837159f0a5596b2f04ef3b887978a6cbada80c","hex":"4730440220130e8da7d21e3e04bd07c9879f2a36180910b500dd298f1b0717fb2dc9c24a9302207e3013245f532bd6506da9c67a215594bd05e67a808619cdca7c3beb981f6e94012102bbb1ce5e998c1d152b40dd69d0837159f0a5596b2f04ef3b887978a6cbada80c"},"sequence":4294967295},{"txid":"f9303db61281a13870d6a651f6feb248053e9b5be893c24f7e758c70175e82d8","vout":3,"scriptSig":{"asm":"304402204e46af49a9b3e8742fb775941690388c90969f3b7d94442d56dc9c7d72818aba0220425688699bb87eb4caa019cfef1ce96306f1eb2655d5a3e3890a116cfe40aea401 02bbb1ce5e998c1d152b40dd69d0837159f0a5596b2f04ef3b887978a6cbada80c","hex":"47304402204e46af49a9b3e8742fb775941690388c90969f3b7d94442d56dc9c7d72818aba0220425688699bb87eb4caa019cfef1ce96306f1eb2655d5a3e3890a116cfe40aea4012102bbb1ce5e998c1d152b40dd69d0837159f0a5596b2f04ef3b887978a6cbada80c"},"sequence":4294967295},{"txid":"710eae6eb8b12b8c9804ca570acf96cf7bd95788da4edf7efba5b0ea065e79ed","vout":2,"scriptSig":{"asm":"304402203f4b5c9a14bbf8d299715dae976c5a146d74104e56959e92df7412f95385c19b02200760b32cf7c7f625ce5bc1a52a082f7e0300132c25b09eca71c328ee23887df201 02bbb1ce5e998c1d152b40dd69d0837159f0a5596b2f04ef3b887978a6cbada80c","hex":"47304402203f4b5c9a14bbf8d299715dae976c5a146d74104e56959e92df7412f95385c19b02200760b32cf7c7f625ce5bc1a52a082f7e0300132c25b09eca71c328ee23887df2012102bbb1ce5e998c1d152b40dd69d0837159f0a5596b2f04ef3b887978a6cbada80c"},"sequence":4294967295},{"txid":"3b077feaa273d8fd8fc0bc0b66f1fc8253411772e9ed72da2a853a6e96c852f8","vout":3,"scriptSig":{"asm":"304402200e867960faf8a3d0f3d43863c1ad8ea29f55b24f29d882ae5600b5139de93c21022074c90e57a0ae0115221e7463b7332fb0d3020976450195e4bd9ec4605dad617901 02bbb1ce5e998c1d152b40dd69d0837159f0a5596b2f04ef3b887978a6cbada80c","hex":"47304402200e867960faf8a3d0f3d43863c1ad8ea29f55b24f29d882ae5600b5139de93c21022074c90e57a0ae0115221e7463b7332fb0d3020976450195e4bd9ec4605dad6179012102bbb1ce5e998c1d152b40dd69d0837159f0a5596b2f04ef3b887978a6cbada80c"},"sequence":4294967295},{"txid":"79e357ddf2ec87089f2eb5d692824d39ce14ffa420fc060a4de1be87b3548b7a","vout":1,"scriptSig":{"asm":"3045022100e31080144105828480a48c45a6e8762dddac0e9f01e5dc5f2d0b1af19b2ceeb5022063feb991172931975e75ddcacebf37f29e7414812b51d622dfa69a73e06ec7ee01 033d5807ef206559fd62ea4e552fb36cdd96cb6d888c48377724adb62fec3ae291","hex":"483045022100e31080144105828480a48c45a6e8762dddac0e9f01e5dc5f2d0b1af19b2ceeb5022063feb991172931975e75ddcacebf37f29e7414812b51d622dfa69a73e06ec7ee0121033d5807ef206559fd62ea4e552fb36cdd96cb6d888c48377724adb62fec3ae291"},"sequence":4294967295}],"vout":[{"value":0.01000574,"n":0,"scriptPubKey":{"asm":"OP_DUP OP_HASH160 4f0958a195718b28ed2776ee5c40ba86559e86ff OP_EQUALVERIFY OP_CHECKSIG","reqSigs":1,"type":"pubkeyhash","addresses":["pCkUnFFnZxLHLkj3BKFdzxDhHRZu8w5DFT"]}},{"value":2.996,"n":1,"scriptPubKey":{"asm":"OP_DUP OP_HASH160 700533d493a5bd0b95186ea958e443edeb1f47db OP_EQUALVERIFY OP_CHECKSIG","reqSigs":1,"type":"pubkeyhash","addresses":["pFkt7fTsmMh3EN6uCSWLdB8pj748REZGL9"]}}],"blockhash":"9918dbee240e56fe34f83c62b91af8778fdd167e874ba71f350bef66df805179","confirmations":43,"blocktime":1541366160}