{"hex":"01000000705cc35b0166092e2a3927bda7dc97bfc5a5cff4c47a59dbdbc43c902eedfe49963c2bc6ec0100000049483045022100fa13fdb61819e99e3fe8f342f147905da1f78067acb3f0cd468ac87f556c949d02202b5566b23b89008a9277511565260efce2ac7b5eef178735eaae9349588ca01001ffffffff04000000000000000000800bd78e0e00000023210348b24f77eda58d2bf0bd56f764cfdeb0100d2f1058b2d5318f2f2fc9670e730eac800bd78e0e00000023210348b24f77eda58d2bf0bd56f764cfdeb0100d2f1058b2d5318f2f2fc9670e730eac80fe210a000000001976a9144c28ee798243702bc4500cdb4da9004130bb47f688ac00000000","txid":"57e29e08759d2a00b78ab6fd23e21695d27940c6e4edc52bba5042db79f15c11","version":1,"time":1539529840,"locktime":0,"vin":[{"txid":"ecc62b3c9649feed2e903cc4dbdb597ac4f4cfa5c5bf97dca7bd27392a2e0966","vout":1,"scriptSig":{"asm":"3045022100fa13fdb61819e99e3fe8f342f147905da1f78067acb3f0cd468ac87f556c949d02202b5566b23b89008a9277511565260efce2ac7b5eef178735eaae9349588ca01001","hex":"483045022100fa13fdb61819e99e3fe8f342f147905da1f78067acb3f0cd468ac87f556c949d02202b5566b23b89008a9277511565260efce2ac7b5eef178735eaae9349588ca01001"},"sequence":4294967295}],"vout":[{"value":0,"n":0,"scriptPubKey":{"asm":"","type":"nonstandard"}},{"value":625.26,"n":1,"scriptPubKey":{"asm":"0348b24f77eda58d2bf0bd56f764cfdeb0100d2f1058b2d5318f2f2fc9670e730e OP_CHECKSIG","reqSigs":1,"type":"pubkey","addresses":["p8X7huKtvdnnDzc17Xcxxh1Z9ww8ckxvVJ"]}},{"value":625.26,"n":2,"scriptPubKey":{"asm":"0348b24f77eda58d2bf0bd56f764cfdeb0100d2f1058b2d5318f2f2fc9670e730e OP_CHECKSIG","reqSigs":1,"type":"pubkey","addresses":["p8X7huKtvdnnDzc17Xcxxh1Z9ww8ckxvVJ"]}},{"value":1.7,"n":3,"scriptPubKey":{"asm":"OP_DUP OP_HASH160 4c28ee798243702bc4500cdb4da9004130bb47f6 OP_EQUALVERIFY OP_CHECKSIG","reqSigs":1,"type":"pubkeyhash","addresses":["pCVGbFvFLapGyskXvwfxG2ss21bRU9FqUh"]}}],"blockhash":"6d4ba8f6e07543398e84809b13d2984c2dc174d0b867c41eaa84b3208f5b37c3","confirmations":37,"blocktime":1539529840}