{"hex":"01000000635cc35b0152157fc8bbf5c4555933a88d0e20b1f99a670ff74084fd06f23988fba91c8b46000000006b483045022100e755637a93bc8342867b6a8566f24916901ca0c9c0a14ac54f39b31e31adf983022009a3f8c7cb2d29e9e8a2872b8421484ea9f8ced45c1559c803806e6a39c091dc012103c80a78063f932234186a197f789a27815f1130df14ba8efd12b84db6c6711daaffffffff0200c6abe3927b23001976a9148760bd8cb005e39d61861d8a8f2a2ee48318cbd988ac0088526a740000001976a91466429c93e46136b2db3fe752c257b3dba5e7649c88ac00000000","txid":"53db0e2adb3d8c00512cca6fd6f37e188c4d5dea9f8d9a281dda1f7a4b3f2977","version":1,"time":1539529840,"locktime":0,"vin":[{"txid":"468b1ca9fb8839f206fd8440f70f679af9b1200e8da8335955c4f5bbc87f1552","vout":0,"scriptSig":{"asm":"3045022100e755637a93bc8342867b6a8566f24916901ca0c9c0a14ac54f39b31e31adf983022009a3f8c7cb2d29e9e8a2872b8421484ea9f8ced45c1559c803806e6a39c091dc01 03c80a78063f932234186a197f789a27815f1130df14ba8efd12b84db6c6711daa","hex":"483045022100e755637a93bc8342867b6a8566f24916901ca0c9c0a14ac54f39b31e31adf983022009a3f8c7cb2d29e9e8a2872b8421484ea9f8ced45c1559c803806e6a39c091dc012103c80a78063f932234186a197f789a27815f1130df14ba8efd12b84db6c6711daa"},"sequence":4294967295}],"vout":[{"value":99874950,"n":0,"scriptPubKey":{"asm":"OP_DUP OP_HASH160 8760bd8cb005e39d61861d8a8f2a2ee48318cbd9 OP_EQUALVERIFY OP_CHECKSIG","reqSigs":1,"type":"pubkeyhash","addresses":["pHtPKFBsEN3C5tYYo4DXFkdH9VCzQWesag"]}},{"value":5000,"n":1,"scriptPubKey":{"asm":"OP_DUP OP_HASH160 66429c93e46136b2db3fe752c257b3dba5e7649c OP_EQUALVERIFY OP_CHECKSIG","reqSigs":1,"type":"pubkeyhash","addresses":["pEsGvXfg7BMJ91FueYCRJrpJCEzDnhWNzu"]}}],"blockhash":"6d4ba8f6e07543398e84809b13d2984c2dc174d0b867c41eaa84b3208f5b37c3","confirmations":323,"blocktime":1539529840}