{"hex":"0100000033a1c25b010000000000000000000000000000000000000000000000000000000000000000ffffffff0401330102ffffffff0100000000000000001976a914269c5fdd6e50d3ee88575e50059e8127a147129d88ac00000000","txid":"2609adc831bde35b1783aba6c3847cd79ffb0d53383397cb950fcc351e08e94b","version":1,"time":1539481910,"locktime":0,"vin":[{"coinbase":"01330102","sequence":4294967295}],"vout":[{"value":0,"n":0,"scriptPubKey":{"asm":"OP_DUP OP_HASH160 269c5fdd6e50d3ee88575e50059e8127a147129d OP_EQUALVERIFY OP_CHECKSIG","reqSigs":1,"type":"pubkeyhash","addresses":["p94jD5pbPHjZWtkY94mD4BMCSuauA9RXFy"]}}],"blockhash":"00000de7d106176430d17b28b0910a3fdb857ce2b7da92d26ac5b7142445d62a","confirmations":394,"blocktime":1539481910}