{"hex":"010000004e21d15b02e9b0ecffc1599a33969ba70c05b4bdc311f35c497d2e57a73c686d04c74df8d9010000006a473044022006eec14207b5e41bcafdb432267e3ee3b3aa1f6b3ec80d6cc423a89a587dafea02207aea89b488de0309c2fd3a0ed3a2beb999cf0edece92a4462f0916b4d7edaa5e0121023083cc47657ee899b86824a364720c4f87ced93500573ef3457cd8675733b71effffffff98741b8488b8a476f2acf5ec6863361c16742eb21b8bd9d00aeb66df72577cf6000000006b483045022100bc0b80395bc436ba896080ba99957083ae33956ab55d01b571ae38282d40868f022074829e60d06f71e45258b7bc3ee33c0d745b2c62aff67b09a35c2a4fbc7e38fb0121029e857134122939a57279b02312e296a02bcf0cf876ddc541bd372450215dbeacffffffff027efb1a00000000001976a9144c28ee798243702bc4500cdb4da9004130bb47f688ac2b741000000000001976a914b94a61a26775185efaa781f6211ebd03c753bdaf88ac00000000","txid":"1ffeb702c1879183909d40cfbbfec453e3eb762b14fc368bd6335302ffd2702f","version":1,"time":1540432208,"locktime":0,"vin":[{"txid":"d9f84dc7046d683ca7572e7d495cf311c3bdb4050ca79b96339a59c1ffecb0e9","vout":1,"scriptSig":{"asm":"3044022006eec14207b5e41bcafdb432267e3ee3b3aa1f6b3ec80d6cc423a89a587dafea02207aea89b488de0309c2fd3a0ed3a2beb999cf0edece92a4462f0916b4d7edaa5e01 023083cc47657ee899b86824a364720c4f87ced93500573ef3457cd8675733b71e","hex":"473044022006eec14207b5e41bcafdb432267e3ee3b3aa1f6b3ec80d6cc423a89a587dafea02207aea89b488de0309c2fd3a0ed3a2beb999cf0edece92a4462f0916b4d7edaa5e0121023083cc47657ee899b86824a364720c4f87ced93500573ef3457cd8675733b71e"},"sequence":4294967295},{"txid":"f67c5772df66eb0ad0d98b1bb22e74161c366368ecf5acf276a4b888841b7498","vout":0,"scriptSig":{"asm":"3045022100bc0b80395bc436ba896080ba99957083ae33956ab55d01b571ae38282d40868f022074829e60d06f71e45258b7bc3ee33c0d745b2c62aff67b09a35c2a4fbc7e38fb01 029e857134122939a57279b02312e296a02bcf0cf876ddc541bd372450215dbeac","hex":"483045022100bc0b80395bc436ba896080ba99957083ae33956ab55d01b571ae38282d40868f022074829e60d06f71e45258b7bc3ee33c0d745b2c62aff67b09a35c2a4fbc7e38fb0121029e857134122939a57279b02312e296a02bcf0cf876ddc541bd372450215dbeac"},"sequence":4294967295}],"vout":[{"value":0.01768318,"n":0,"scriptPubKey":{"asm":"OP_DUP OP_HASH160 4c28ee798243702bc4500cdb4da9004130bb47f6 OP_EQUALVERIFY OP_CHECKSIG","reqSigs":1,"type":"pubkeyhash","addresses":["pCVGbFvFLapGyskXvwfxG2ss21bRU9FqUh"]}},{"value":0.01078315,"n":1,"scriptPubKey":{"asm":"OP_DUP OP_HASH160 b94a61a26775185efaa781f6211ebd03c753bdaf OP_EQUALVERIFY OP_CHECKSIG","reqSigs":1,"type":"pubkeyhash","addresses":["pNSJKJYkt7K7CUHqJioAHEWsWjQDUAGddE"]}}],"blockhash":"48a51ac537f6bf49501e3d9e1563a487a20ee331eef75f30108fdf57964ee290","confirmations":7,"blocktime":1540432208}