{"hex":"010000005021d15b01d8825e17708c757e4fc293e85b9b3e0548b2fef651a6d67038a18112b63d30f90200000049483045022100aa983200194ea865cf03659e013830ecda31a5e141eaaed7424d21dafa6ebccc02207b045311728ea2eb76e00d7a143324da229816821ade4ea5218155b7d8f752c201ffffffff04000000000000000000c021aea30300000023210348b24f77eda58d2bf0bd56f764cfdeb0100d2f1058b2d5318f2f2fc9670e730eac3865bda30300000023210348b24f77eda58d2bf0bd56f764cfdeb0100d2f1058b2d5318f2f2fc9670e730eac94030000000000001976a9140383cbf635d4aaab0b3af12f3877f122911d227188ac00000000","txid":"49d4ee62ac8031950f23ae3ace593f8aab28ecda7de9b1d2f8c0b4e94aaba7a7","version":1,"time":1540432208,"locktime":0,"vin":[{"txid":"f9303db61281a13870d6a651f6feb248053e9b5be893c24f7e758c70175e82d8","vout":2,"scriptSig":{"asm":"3045022100aa983200194ea865cf03659e013830ecda31a5e141eaaed7424d21dafa6ebccc02207b045311728ea2eb76e00d7a143324da229816821ade4ea5218155b7d8f752c201","hex":"483045022100aa983200194ea865cf03659e013830ecda31a5e141eaaed7424d21dafa6ebccc02207b045311728ea2eb76e00d7a143324da229816821ade4ea5218155b7d8f752c201"},"sequence":4294967295}],"vout":[{"value":0,"n":0,"scriptPubKey":{"asm":"","type":"nonstandard"}},{"value":156.31,"n":1,"scriptPubKey":{"asm":"0348b24f77eda58d2bf0bd56f764cfdeb0100d2f1058b2d5318f2f2fc9670e730e OP_CHECKSIG","reqSigs":1,"type":"pubkey","addresses":["p8X7huKtvdnnDzc17Xcxxh1Z9ww8ckxvVJ"]}},{"value":156.32000312,"n":2,"scriptPubKey":{"asm":"0348b24f77eda58d2bf0bd56f764cfdeb0100d2f1058b2d5318f2f2fc9670e730e OP_CHECKSIG","reqSigs":1,"type":"pubkey","addresses":["p8X7huKtvdnnDzc17Xcxxh1Z9ww8ckxvVJ"]}},{"value":0.00000916,"n":3,"scriptPubKey":{"asm":"OP_DUP OP_HASH160 0383cbf635d4aaab0b3af12f3877f122911d2271 OP_EQUALVERIFY OP_CHECKSIG","reqSigs":1,"type":"pubkeyhash","addresses":["p5sA7gHHpq5pfbFUafcJM8oF4ZCvf3vkks"]}}],"blockhash":"48a51ac537f6bf49501e3d9e1563a487a20ee331eef75f30108fdf57964ee290","confirmations":293,"blocktime":1540432208}