{"hex":"01000000a0bed65b01e194d43b503f7bd8fdbe69fa4c16023ab0b3d4d18fb22025a91531318c5ffd510100000049483045022100e14d9921eefa393c4dd1bcd96915ccbc4102c5948eaaceb45673367b82737de70220398af0c118fa016190a34a2038c4fd16d0be3d3278b00148b1b73a38fb5c352e01ffffffff03000000000000000000f0f2a3d1010000002321020b1cd26fc4b9f080aea1cf7b667efd5e8453f70429056589831fa7f63506ddbfac50f80c00000000001976a914a539c7c64804ba10293866c3433100eabbe41ccf88ac00000000","txid":"13e1f013c6c381143a4a8be9367e0d3382d0f542589b84c6b0302d262310baf9","version":1,"time":1540800160,"locktime":0,"vin":[{"txid":"51fd5f8c313115a92520b28fd1d4b3b03a02164cfa69befdd87b3f503bd494e1","vout":1,"scriptSig":{"asm":"3045022100e14d9921eefa393c4dd1bcd96915ccbc4102c5948eaaceb45673367b82737de70220398af0c118fa016190a34a2038c4fd16d0be3d3278b00148b1b73a38fb5c352e01","hex":"483045022100e14d9921eefa393c4dd1bcd96915ccbc4102c5948eaaceb45673367b82737de70220398af0c118fa016190a34a2038c4fd16d0be3d3278b00148b1b73a38fb5c352e01"},"sequence":4294967295}],"vout":[{"value":0,"n":0,"scriptPubKey":{"asm":"","type":"nonstandard"}},{"value":78.1215,"n":1,"scriptPubKey":{"asm":"020b1cd26fc4b9f080aea1cf7b667efd5e8453f70429056589831fa7f63506ddbf OP_CHECKSIG","reqSigs":1,"type":"pubkey","addresses":["pECTDpfW4nW8hYte3f3F9ZQxwgWmBwmcYL"]}},{"value":0.0085,"n":2,"scriptPubKey":{"asm":"OP_DUP OP_HASH160 a539c7c64804ba10293866c3433100eabbe41ccf OP_EQUALVERIFY OP_CHECKSIG","reqSigs":1,"type":"pubkeyhash","addresses":["pLcCv1RBNEWf4q17fiPMGMYqeFUvP9a826"]}}],"blockhash":"ce9638d7f153a0107b52a3dcf862edcb29102476875946052314a7cb06d00fc8","confirmations":225,"blocktime":1540800160}