{"hex":"0100000097bed65b015f249deee8e5d1047ae34890f1a9e6a6daf61abe81bfa81588194fe0d8f7af2d000000006b483045022100e83182efb68efe8ce01e4e9cf69ae4604dcfeb5007c08cedb14029d3ef9367b9022045fca779190ba151ac47df5ee91aa60a56eafb8b97b8ef751957d5f53a67ff9e012102e4db7c0c142b3b5718c5f4b81cb33e05e5862d6552ef52e16df0bd75036aecb0ffffffff0200d3319fba4515001976a9141b8fce9ac706a311001b30a54b59197e0203747088ac00ca9a3b000000001976a914ca0b9c52c700894a6661ee461c94bfeb54c305cb88ac00000000","txid":"bb548130b9de85fb5369a16bb8f99c2ad4152adc60bc59079b7e31aaae5f85b7","version":1,"time":1540800160,"locktime":0,"vin":[{"txid":"2daff7d8e04f198815a8bf81be1af6daa6e6a9f19048e37a04d1e5e8ee9d245f","vout":0,"scriptSig":{"asm":"3045022100e83182efb68efe8ce01e4e9cf69ae4604dcfeb5007c08cedb14029d3ef9367b9022045fca779190ba151ac47df5ee91aa60a56eafb8b97b8ef751957d5f53a67ff9e01 02e4db7c0c142b3b5718c5f4b81cb33e05e5862d6552ef52e16df0bd75036aecb0","hex":"483045022100e83182efb68efe8ce01e4e9cf69ae4604dcfeb5007c08cedb14029d3ef9367b9022045fca779190ba151ac47df5ee91aa60a56eafb8b97b8ef751957d5f53a67ff9e012102e4db7c0c142b3b5718c5f4b81cb33e05e5862d6552ef52e16df0bd75036aecb0"},"sequence":4294967295}],"vout":[{"value":59876423.48,"n":0,"scriptPubKey":{"asm":"OP_DUP OP_HASH160 1b8fce9ac706a311001b30a54b59197e02037470 OP_EQUALVERIFY OP_CHECKSIG","reqSigs":1,"type":"pubkeyhash","addresses":["p84JimqhyCTNPwpooKnjXNNueXXRutXR8L"]}},{"value":10,"n":1,"scriptPubKey":{"asm":"OP_DUP OP_HASH160 ca0b9c52c700894a6661ee461c94bfeb54c305cb OP_EQUALVERIFY OP_CHECKSIG","reqSigs":1,"type":"pubkeyhash","addresses":["pPxtcBCE1tycUb36teemJYsmMynrU4FBp6"]}}],"blockhash":"ce9638d7f153a0107b52a3dcf862edcb29102476875946052314a7cb06d00fc8","confirmations":225,"blocktime":1540800160}