{"hex":"010000002910db5b02e9cf464910672ffc717e2bd6d03760f610a6d7086d5bed6918306ca7703bb417000000006b483045022100bf512e9673c8c8e3b10723ec986a095950356f5cd091bcf3e1749c9e6790ab1c022079e239b35771bec05800fafba972606478dd74ea914ca97804ea0555d5511074012102e28d599502214adfcdb37e393387762e8a7855d7d730b41b0f5b0d358bbb1c1cffffffff54dce6a086f9138f4d1b1f2a3619214e09d6547746d8f04f301e8d2e5361545f010000006b483045022100cdc62d58e3c592a637816bd88abdf134ac05f465516631f8f9d3cbf37beb0ed402200220551b33153451881d930d439c79973d2a430d5d9f3ae96c4f70f653f9aeff0121038d85cedbd396d79aed8d7e3ed8f7489dcc471fb0d54f202af1375a391340ccb3ffffffff02b2c93800000000001976a914ec878bac23ad242ec6b5df8d01cac9618ba7f83f88acd123fd00000000001976a9148e79f2815ec704383caa307803da422cdd92242788ac00000000","txid":"adc4f866b4350f25504811687a550ba516098b7fe289cca192622d1613689f19","version":1,"time":1541083184,"locktime":0,"vin":[{"txid":"17b43b70a76c301869ed5b6d08d7a610f66037d0d62b7e71fc2f67104946cfe9","vout":0,"scriptSig":{"asm":"3045022100bf512e9673c8c8e3b10723ec986a095950356f5cd091bcf3e1749c9e6790ab1c022079e239b35771bec05800fafba972606478dd74ea914ca97804ea0555d551107401 02e28d599502214adfcdb37e393387762e8a7855d7d730b41b0f5b0d358bbb1c1c","hex":"483045022100bf512e9673c8c8e3b10723ec986a095950356f5cd091bcf3e1749c9e6790ab1c022079e239b35771bec05800fafba972606478dd74ea914ca97804ea0555d5511074012102e28d599502214adfcdb37e393387762e8a7855d7d730b41b0f5b0d358bbb1c1c"},"sequence":4294967295},{"txid":"5f5461532e8d1e304ff0d8467754d6094e2119362a1f1b4d8f13f986a0e6dc54","vout":1,"scriptSig":{"asm":"3045022100cdc62d58e3c592a637816bd88abdf134ac05f465516631f8f9d3cbf37beb0ed402200220551b33153451881d930d439c79973d2a430d5d9f3ae96c4f70f653f9aeff01 038d85cedbd396d79aed8d7e3ed8f7489dcc471fb0d54f202af1375a391340ccb3","hex":"483045022100cdc62d58e3c592a637816bd88abdf134ac05f465516631f8f9d3cbf37beb0ed402200220551b33153451881d930d439c79973d2a430d5d9f3ae96c4f70f653f9aeff0121038d85cedbd396d79aed8d7e3ed8f7489dcc471fb0d54f202af1375a391340ccb3"},"sequence":4294967295}],"vout":[{"value":0.0372165,"n":0,"scriptPubKey":{"asm":"OP_DUP OP_HASH160 ec878bac23ad242ec6b5df8d01cac9618ba7f83f OP_EQUALVERIFY OP_CHECKSIG","reqSigs":1,"type":"pubkeyhash","addresses":["pT7E3rHfew5HbfhkzWtPDgxjtiLjQsfgAB"]}},{"value":0.16589777,"n":1,"scriptPubKey":{"asm":"OP_DUP OP_HASH160 8e79f2815ec704383caa307803da422cdd922427 OP_EQUALVERIFY OP_CHECKSIG","reqSigs":1,"type":"pubkeyhash","addresses":["pJXvEzTaX2tPEqRaBpJb7yeCTdFZahqPiB"]}}],"blockhash":"48d49d9f137eb28db3cd7b150d56743ce0fcb5fba52eea1c9b977496474d5bfe","confirmations":110,"blocktime":1541083184}