{"hex":"010000002910db5b01c3e7c6e243d5b99a2211a96b738c3a630c49986ec016889ac5536eabc1b18e3d000000006a473044022012297207c39b1399c8a782b70da7cbaeb913196c70dd11be03c5d09b2cf0295b0220356614088444ec2eab28d9ce5fedf3d7a3c90dc7809a171fe2af5facf03caeba012102e28d599502214adfcdb37e393387762e8a7855d7d730b41b0f5b0d358bbb1c1cffffffff0239682000000000001976a914ec878bac23ad242ec6b5df8d01cac9618ba7f83f88acd123fd00000000001976a9142f9d069fa3d62d1c9de9e65c88a967bfe0e768b188ac00000000","txid":"bfdcafb70a1cde811463c9c95f787c2ac6a823f388df481b0147d0a1d0812f17","version":1,"time":1541083184,"locktime":0,"vin":[{"txid":"3d8eb1c1ab6e53c59a8816c06e98490c633a8c736ba911229ab9d543e2c6e7c3","vout":0,"scriptSig":{"asm":"3044022012297207c39b1399c8a782b70da7cbaeb913196c70dd11be03c5d09b2cf0295b0220356614088444ec2eab28d9ce5fedf3d7a3c90dc7809a171fe2af5facf03caeba01 02e28d599502214adfcdb37e393387762e8a7855d7d730b41b0f5b0d358bbb1c1c","hex":"473044022012297207c39b1399c8a782b70da7cbaeb913196c70dd11be03c5d09b2cf0295b0220356614088444ec2eab28d9ce5fedf3d7a3c90dc7809a171fe2af5facf03caeba012102e28d599502214adfcdb37e393387762e8a7855d7d730b41b0f5b0d358bbb1c1c"},"sequence":4294967295}],"vout":[{"value":0.02123833,"n":0,"scriptPubKey":{"asm":"OP_DUP OP_HASH160 ec878bac23ad242ec6b5df8d01cac9618ba7f83f OP_EQUALVERIFY OP_CHECKSIG","reqSigs":1,"type":"pubkeyhash","addresses":["pT7E3rHfew5HbfhkzWtPDgxjtiLjQsfgAB"]}},{"value":0.16589777,"n":1,"scriptPubKey":{"asm":"OP_DUP OP_HASH160 2f9d069fa3d62d1c9de9e65c88a967bfe0e768b1 OP_EQUALVERIFY OP_CHECKSIG","reqSigs":1,"type":"pubkeyhash","addresses":["p9tL553XAVy2D5pBG2FbZByocqA2BNmF1W"]}}],"blockhash":"48d49d9f137eb28db3cd7b150d56743ce0fcb5fba52eea1c9b977496474d5bfe","confirmations":110,"blocktime":1541083184}