{"hex":"010000003010db5b011ad329f4a5e2c29ca91b5b40f75ff4e647171241ec6681f1f8c580098c9f784a0100000049483045022100c2a9bddc295c7a04b89d64ee38681b2a7ab998999c6ad6e615e8e0b5c9fd57d202205090111447f7f0124898df6965e8a87a0c72b65e36b837d6ec4f8dc4b9f56b5101ffffffff04000000000000000000c021aea30300000023210348b24f77eda58d2bf0bd56f764cfdeb0100d2f1058b2d5318f2f2fc9670e730eac7177bda30300000023210348b24f77eda58d2bf0bd56f764cfdeb0100d2f1058b2d5318f2f2fc9670e730eac296e0000000000001976a91466429c93e46136b2db3fe752c257b3dba5e7649c88ac00000000","txid":"eaff4830dc7a8042b0be28e8d817fb9e260f87c86013bf46e8441c0a26a43b3c","version":1,"time":1541083184,"locktime":0,"vin":[{"txid":"4a789f8c0980c5f8f18166ec41121747e6f45ff7405b1ba99cc2e2a5f429d31a","vout":1,"scriptSig":{"asm":"3045022100c2a9bddc295c7a04b89d64ee38681b2a7ab998999c6ad6e615e8e0b5c9fd57d202205090111447f7f0124898df6965e8a87a0c72b65e36b837d6ec4f8dc4b9f56b5101","hex":"483045022100c2a9bddc295c7a04b89d64ee38681b2a7ab998999c6ad6e615e8e0b5c9fd57d202205090111447f7f0124898df6965e8a87a0c72b65e36b837d6ec4f8dc4b9f56b5101"},"sequence":4294967295}],"vout":[{"value":0,"n":0,"scriptPubKey":{"asm":"","type":"nonstandard"}},{"value":156.31,"n":1,"scriptPubKey":{"asm":"0348b24f77eda58d2bf0bd56f764cfdeb0100d2f1058b2d5318f2f2fc9670e730e OP_CHECKSIG","reqSigs":1,"type":"pubkey","addresses":["p8X7huKtvdnnDzc17Xcxxh1Z9ww8ckxvVJ"]}},{"value":156.32004977,"n":2,"scriptPubKey":{"asm":"0348b24f77eda58d2bf0bd56f764cfdeb0100d2f1058b2d5318f2f2fc9670e730e OP_CHECKSIG","reqSigs":1,"type":"pubkey","addresses":["p8X7huKtvdnnDzc17Xcxxh1Z9ww8ckxvVJ"]}},{"value":0.00028201,"n":3,"scriptPubKey":{"asm":"OP_DUP OP_HASH160 66429c93e46136b2db3fe752c257b3dba5e7649c OP_EQUALVERIFY OP_CHECKSIG","reqSigs":1,"type":"pubkeyhash","addresses":["pEsGvXfg7BMJ91FueYCRJrpJCEzDnhWNzu"]}}],"blockhash":"48d49d9f137eb28db3cd7b150d56743ce0fcb5fba52eea1c9b977496474d5bfe","confirmations":110,"blocktime":1541083184}