{"hex":"010000004716d75b012c12331cf27f70b8a071667cd5710ecca65eecfc895213f5a25daac815178b3b000000006a47304402203fd6873a99c01970ea3f947f0a07228460aca4a00dd6524d84ba3fd7818de8a402204b92491cf4b985b507d2fb4c6828095992eb7b307dad32daf230a2eb4a69612d0121024282b3ce6bf4af865e49fcba59d35d4677102bd58e1475261014a94e05a78b46ffffffff028ff70f00000000001976a9144c28ee798243702bc4500cdb4da9004130bb47f688ac15340100000000001976a914c4bbcf923c1347f242d95bf330cce564255dd34c88ac00000000","txid":"18c3034a26e105e1e478b235c6682d46a977b1c480e9a9b36d9015034ed0695e","version":1,"time":1540822608,"locktime":0,"vin":[{"txid":"3b8b1715c8aa5da2f5135289fcec5ea6cc0e71d57c6671a0b8707ff21c33122c","vout":0,"scriptSig":{"asm":"304402203fd6873a99c01970ea3f947f0a07228460aca4a00dd6524d84ba3fd7818de8a402204b92491cf4b985b507d2fb4c6828095992eb7b307dad32daf230a2eb4a69612d01 024282b3ce6bf4af865e49fcba59d35d4677102bd58e1475261014a94e05a78b46","hex":"47304402203fd6873a99c01970ea3f947f0a07228460aca4a00dd6524d84ba3fd7818de8a402204b92491cf4b985b507d2fb4c6828095992eb7b307dad32daf230a2eb4a69612d0121024282b3ce6bf4af865e49fcba59d35d4677102bd58e1475261014a94e05a78b46"},"sequence":4294967295}],"vout":[{"value":0.01046415,"n":0,"scriptPubKey":{"asm":"OP_DUP OP_HASH160 4c28ee798243702bc4500cdb4da9004130bb47f6 OP_EQUALVERIFY OP_CHECKSIG","reqSigs":1,"type":"pubkeyhash","addresses":["pCVGbFvFLapGyskXvwfxG2ss21bRU9FqUh"]}},{"value":0.00078869,"n":1,"scriptPubKey":{"asm":"OP_DUP OP_HASH160 c4bbcf923c1347f242d95bf330cce564255dd34c OP_EQUALVERIFY OP_CHECKSIG","reqSigs":1,"type":"pubkeyhash","addresses":["pPUoddSuTPGqMDkSqgd1ouvESZHwwVMUNb"]}}],"blockhash":"693342b57dba8215152ef4861c0987da15b8a594856c9f7c9199fa9c0e32b5d7","confirmations":201,"blocktime":1540822608}