{"hex":"010000005016d75b01c727f0f3fbf6f97cdff65b0b21d03ecbb3766794800343f81925b9e86340a96d020000004847304402205a8acc5aea637e08b43d8c79d60c5a9061420d56e8fd970fa11074fc245d6a7402201ead6c7c03be1c44e64bc671c0145e77e67a49ce170f75a82fb4ee7f0a7020c601ffffffff030000000000000000005eebb0d1010000002321020b1cd26fc4b9f080aea1cf7b667efd5e8453f70429056589831fa7f63506ddbfac55000000000000001976a9145e1d99381eb53300f76a3cc6299ce81c71d0c2f788ac00000000","txid":"9f8b71c05349b1ec92f002964df39e99561e9ecb0fe1a6a0ab95e28d0751f07c","version":1,"time":1540822608,"locktime":0,"vin":[{"txid":"6da94063e8b92519f8430380946776b3cb3ed0210b5bf6df7cf9f6fbf3f027c7","vout":2,"scriptSig":{"asm":"304402205a8acc5aea637e08b43d8c79d60c5a9061420d56e8fd970fa11074fc245d6a7402201ead6c7c03be1c44e64bc671c0145e77e67a49ce170f75a82fb4ee7f0a7020c601","hex":"47304402205a8acc5aea637e08b43d8c79d60c5a9061420d56e8fd970fa11074fc245d6a7402201ead6c7c03be1c44e64bc671c0145e77e67a49ce170f75a82fb4ee7f0a7020c601"},"sequence":4294967295}],"vout":[{"value":0,"n":0,"scriptPubKey":{"asm":"","type":"nonstandard"}},{"value":78.1300003,"n":1,"scriptPubKey":{"asm":"020b1cd26fc4b9f080aea1cf7b667efd5e8453f70429056589831fa7f63506ddbf OP_CHECKSIG","reqSigs":1,"type":"pubkey","addresses":["pECTDpfW4nW8hYte3f3F9ZQxwgWmBwmcYL"]}},{"value":8.5e-7,"n":2,"scriptPubKey":{"asm":"OP_DUP OP_HASH160 5e1d99381eb53300f76a3cc6299ce81c71d0c2f7 OP_EQUALVERIFY OP_CHECKSIG","reqSigs":1,"type":"pubkeyhash","addresses":["pE8DBH6VheNWCoBfLHY8coXmUqVnKuU1Z8"]}}],"blockhash":"693342b57dba8215152ef4861c0987da15b8a594856c9f7c9199fa9c0e32b5d7","confirmations":201,"blocktime":1540822608}