{"hex":"010000007ba9c25b018beba6846b1d6550ceedbc9c277da1bb30ec664d117fa29cee39666eeb5fcbd8000000006b483045022100b6634a8be345f2b5ace089e14eaca05ff9ed4c10d96f30b11dde7aa5e5a98f6d022035e27cf8ab038e4598ea8ec319e66b587ae8304f13f4f82fb3ec8bfa1bd73483012102b3ef73a8b1703012d4adbdccfcaa519d8f8da026dd9f0b62cedf8ce44dde76adffffffff0200169e95367f23001976a9148ffdc8c4868cda915723a7315596bd0b01b6fdff88ac0088526a740000001976a9149590579f878db6722db4322a713599a3d865ecb188ac00000000","txid":"07c5e168d64370400542539ea4e1d61c9c81dc82499269a27398d8167b9f5090","version":1,"time":1539484032,"locktime":0,"vin":[{"txid":"d8cb5feb6e6639ee9ca27f114d66ec30bba17d279cbcedce50651d6b84a6eb8b","vout":0,"scriptSig":{"asm":"3045022100b6634a8be345f2b5ace089e14eaca05ff9ed4c10d96f30b11dde7aa5e5a98f6d022035e27cf8ab038e4598ea8ec319e66b587ae8304f13f4f82fb3ec8bfa1bd7348301 02b3ef73a8b1703012d4adbdccfcaa519d8f8da026dd9f0b62cedf8ce44dde76ad","hex":"483045022100b6634a8be345f2b5ace089e14eaca05ff9ed4c10d96f30b11dde7aa5e5a98f6d022035e27cf8ab038e4598ea8ec319e66b587ae8304f13f4f82fb3ec8bfa1bd73483012102b3ef73a8b1703012d4adbdccfcaa519d8f8da026dd9f0b62cedf8ce44dde76ad"},"sequence":4294967295}],"vout":[{"value":99914966,"n":0,"scriptPubKey":{"asm":"OP_DUP OP_HASH160 8ffdc8c4868cda915723a7315596bd0b01b6fdff OP_EQUALVERIFY OP_CHECKSIG","reqSigs":1,"type":"pubkeyhash","addresses":["pJfvrNmDZU2q87C4Xg4tBjKapvMEa8ci3h"]}},{"value":5000,"n":1,"scriptPubKey":{"asm":"OP_DUP OP_HASH160 9590579f878db6722db4322a713599a3d865ecb1 OP_EQUALVERIFY OP_CHECKSIG","reqSigs":1,"type":"pubkeyhash","addresses":["pKBPoNA3SJPY8i2H3PXAafpEbMr7NNikgL"]}}],"blockhash":"5bc79910b9701b62dc3592a7a8b9e81c932ed18f042da66f5c4471cfec6fd072","confirmations":45,"blocktime":1539484032}