{"hex":"0100000080a9c25b0145f294035769cdad9ee2ae822e5620760cc0637a8da90fb59bf1c05b4ecf78f40100000048473044022074d1058495932afe74ebcd8b38f733ace04a22d24a71b77007caa0168baece2c022019ddbe81f25abc033f319331479cf2a6e901013434acbc614ad93bc52afe18d801ffffffff04000000000000000000c07a17900e0000002321028d9be6ae35cf9126d1ddd81f7e9a33d77e64d908c42bf417d6424ba1da9106a6ac00bd26900e0000002321028d9be6ae35cf9126d1ddd81f7e9a33d77e64d908c42bf417d6424ba1da9106a6ac80fe210a000000001976a9146ee8ae815746df1e1038d51169f823db3353ab0488ac00000000","txid":"cfce7a7bab621d21c9cef2448cdff40b41b74b947189c6752fe4c6d102f12e11","version":1,"time":1539484032,"locktime":0,"vin":[{"txid":"f478cf4e5bc0f19bb50fa98d7a63c00c7620562e82aee29eadcd69570394f245","vout":1,"scriptSig":{"asm":"3044022074d1058495932afe74ebcd8b38f733ace04a22d24a71b77007caa0168baece2c022019ddbe81f25abc033f319331479cf2a6e901013434acbc614ad93bc52afe18d801","hex":"473044022074d1058495932afe74ebcd8b38f733ace04a22d24a71b77007caa0168baece2c022019ddbe81f25abc033f319331479cf2a6e901013434acbc614ad93bc52afe18d801"},"sequence":4294967295}],"vout":[{"value":0,"n":0,"scriptPubKey":{"asm":"","type":"nonstandard"}},{"value":625.47,"n":1,"scriptPubKey":{"asm":"028d9be6ae35cf9126d1ddd81f7e9a33d77e64d908c42bf417d6424ba1da9106a6 OP_CHECKSIG","reqSigs":1,"type":"pubkey","addresses":["pG17eAwgEzq6zQQ7cLzvCMepRqGYMprwdz"]}},{"value":625.48,"n":2,"scriptPubKey":{"asm":"028d9be6ae35cf9126d1ddd81f7e9a33d77e64d908c42bf417d6424ba1da9106a6 OP_CHECKSIG","reqSigs":1,"type":"pubkey","addresses":["pG17eAwgEzq6zQQ7cLzvCMepRqGYMprwdz"]}},{"value":1.7,"n":3,"scriptPubKey":{"asm":"OP_DUP OP_HASH160 6ee8ae815746df1e1038d51169f823db3353ab04 OP_EQUALVERIFY OP_CHECKSIG","reqSigs":1,"type":"pubkeyhash","addresses":["pFf1Gp4G6PCkSUxUY1XLwNBH2ji6sBJMC3"]}}],"blockhash":"5bc79910b9701b62dc3592a7a8b9e81c932ed18f042da66f5c4471cfec6fd072","confirmations":45,"blocktime":1539484032}