{"hex":"010000008ce1c45b01a4fdb4b1c3db30af8fb447575e74214c9299d739801e612ea55d87de33a994a80100000049483045022100a9a09a4590a12d714274713e81e093385500befb221ba72684dec6d2152fdfc30220638eb8a9aaa839a7b7e90e18c296a98abc6e1321b7845df35b018e7ce294407b01ffffffff0270a47831000000001976a91469a96a24ba0303d7efd55dc6327fc2e8e768256088ac80969800000000001976a914d82bba50f76944fa01716f39903bfb568c3e060288ac00000000","txid":"796eb616702ff0adb23024fa0020bb1f6f568e58b3e1d0228766115fdf090899","version":1,"time":1539629456,"locktime":0,"vin":[{"txid":"a894a933de875da52e611e8039d799924c21745e5747b48faf30dbc3b1b4fda4","vout":1,"scriptSig":{"asm":"3045022100a9a09a4590a12d714274713e81e093385500befb221ba72684dec6d2152fdfc30220638eb8a9aaa839a7b7e90e18c296a98abc6e1321b7845df35b018e7ce294407b01","hex":"483045022100a9a09a4590a12d714274713e81e093385500befb221ba72684dec6d2152fdfc30220638eb8a9aaa839a7b7e90e18c296a98abc6e1321b7845df35b018e7ce294407b01"},"sequence":4294967295}],"vout":[{"value":8.2999,"n":0,"scriptPubKey":{"asm":"OP_DUP OP_HASH160 69a96a24ba0303d7efd55dc6327fc2e8e7682560 OP_EQUALVERIFY OP_CHECKSIG","reqSigs":1,"type":"pubkeyhash","addresses":["pFBG6yv3KUtvrmZkPtAjfMiqoL6fRkoDpw"]}},{"value":0.1,"n":1,"scriptPubKey":{"asm":"OP_DUP OP_HASH160 d82bba50f76944fa01716f39903bfb568c3e0602 OP_EQUALVERIFY OP_CHECKSIG","reqSigs":1,"type":"pubkeyhash","addresses":["pRFaYQFB9JWh424NAQGjteD6yrq7KwUVXY"]}}],"blockhash":"ba3384f2db8bec7bf06416c65a369676ec6db4997bdd284c404d3f560671db45","confirmations":306,"blocktime":1539629456}