{"hex":"0100000090e1c45b01115cf179db4250ba2bc5ede4c64079d29516e223fdb68ab7002a9d75089ee2570100000048473044022010922fd44e76a21f97571dd7d60f98e30f5729ac9d4527a7d1e4846e2fa122ba0220093922b85a453f057395fa4b12723bd3365adf41de1aafda4b525568985bb8a801ffffffff04000000000000000000c0856b470700000023210348b24f77eda58d2bf0bd56f764cfdeb0100d2f1058b2d5318f2f2fc9670e730eac9c8b6b470700000023210348b24f77eda58d2bf0bd56f764cfdeb0100d2f1058b2d5318f2f2fc9670e730eac34210000000000001976a91405799d876e3b7c328ae01baece26d0f931b0f5fa88ac00000000","txid":"843f4f13249db4b26c4e5f610c8b1079eafb64cc11cd620a1a6085354f7f06fe","version":1,"time":1539629456,"locktime":0,"vin":[{"txid":"57e29e08759d2a00b78ab6fd23e21695d27940c6e4edc52bba5042db79f15c11","vout":1,"scriptSig":{"asm":"3044022010922fd44e76a21f97571dd7d60f98e30f5729ac9d4527a7d1e4846e2fa122ba0220093922b85a453f057395fa4b12723bd3365adf41de1aafda4b525568985bb8a801","hex":"473044022010922fd44e76a21f97571dd7d60f98e30f5729ac9d4527a7d1e4846e2fa122ba0220093922b85a453f057395fa4b12723bd3365adf41de1aafda4b525568985bb8a801"},"sequence":4294967295}],"vout":[{"value":0,"n":0,"scriptPubKey":{"asm":"","type":"nonstandard"}},{"value":312.63,"n":1,"scriptPubKey":{"asm":"0348b24f77eda58d2bf0bd56f764cfdeb0100d2f1058b2d5318f2f2fc9670e730e OP_CHECKSIG","reqSigs":1,"type":"pubkey","addresses":["p8X7huKtvdnnDzc17Xcxxh1Z9ww8ckxvVJ"]}},{"value":312.630015,"n":2,"scriptPubKey":{"asm":"0348b24f77eda58d2bf0bd56f764cfdeb0100d2f1058b2d5318f2f2fc9670e730e OP_CHECKSIG","reqSigs":1,"type":"pubkey","addresses":["p8X7huKtvdnnDzc17Xcxxh1Z9ww8ckxvVJ"]}},{"value":0.000085,"n":3,"scriptPubKey":{"asm":"OP_DUP OP_HASH160 05799d876e3b7c328ae01baece26d0f931b0f5fa OP_EQUALVERIFY OP_CHECKSIG","reqSigs":1,"type":"pubkeyhash","addresses":["p63XGeVRkcywXEQJE5bkXjJFiugf8tT1er"]}}],"blockhash":"ba3384f2db8bec7bf06416c65a369676ec6db4997bdd284c404d3f560671db45","confirmations":20,"blocktime":1539629456}