{"hex":"0100000060bee05b019b97dc1eee8be1a1e5a85826778295f53d04190c7fc0caeb1e2d0f47f8fd10f601000000494830450221008db5fea32213efd044e27bcdca1614d74df6ac625672bc2a17c665c44cf3486002201959e45045fcc1c827cf24a554d33c1679b84523bc5550d5fa31cc1345f4eeea01ffffffff0400000000000000000000514a8d0e000000232102a0ffdcd26bc595776e6ad72bf63c12428f5a915eaca2bad49b753e858d5ea8e3ac0f514a8d0e000000232102a0ffdcd26bc595776e6ad72bf63c12428f5a915eaca2bad49b753e858d5ea8e3ac55000000000000001976a91466429c93e46136b2db3fe752c257b3dba5e7649c88ac00000000","txid":"6ff62c45b0c6e219aad3d9c746ded0d8cb9d680e45260a83db42335fa042142a","version":1,"time":1541455456,"locktime":0,"vin":[{"txid":"f610fdf8470f2d1eebcac07f0c19043df59582772658a8e5a1e18bee1edc979b","vout":1,"scriptSig":{"asm":"30450221008db5fea32213efd044e27bcdca1614d74df6ac625672bc2a17c665c44cf3486002201959e45045fcc1c827cf24a554d33c1679b84523bc5550d5fa31cc1345f4eeea01","hex":"4830450221008db5fea32213efd044e27bcdca1614d74df6ac625672bc2a17c665c44cf3486002201959e45045fcc1c827cf24a554d33c1679b84523bc5550d5fa31cc1345f4eeea01"},"sequence":4294967295}],"vout":[{"value":0,"n":0,"scriptPubKey":{"asm":"","type":"nonstandard"}},{"value":625,"n":1,"scriptPubKey":{"asm":"02a0ffdcd26bc595776e6ad72bf63c12428f5a915eaca2bad49b753e858d5ea8e3 OP_CHECKSIG","reqSigs":1,"type":"pubkey","addresses":["p8iepVjrqbjo1uNb8dyXKBBerSUv6zrPfw"]}},{"value":625.00000015,"n":2,"scriptPubKey":{"asm":"02a0ffdcd26bc595776e6ad72bf63c12428f5a915eaca2bad49b753e858d5ea8e3 OP_CHECKSIG","reqSigs":1,"type":"pubkey","addresses":["p8iepVjrqbjo1uNb8dyXKBBerSUv6zrPfw"]}},{"value":8.5e-7,"n":3,"scriptPubKey":{"asm":"OP_DUP OP_HASH160 66429c93e46136b2db3fe752c257b3dba5e7649c OP_EQUALVERIFY OP_CHECKSIG","reqSigs":1,"type":"pubkeyhash","addresses":["pEsGvXfg7BMJ91FueYCRJrpJCEzDnhWNzu"]}}],"blockhash":"690464ebd82e266525799fc49670907b309c7c61e62ae448da8ad2effc84befb","confirmations":6,"blocktime":1541455456}