{"hex":"0100000057bee05b014e73b7a6ba1269a353cd6404d484f83de1e967c3de8098fc200e56ab99e92700000000006a473044022007cccf8c84fff4224a3a44c973c95d221716e2198f34add5dbcbe6dae0294515022040deeac72250f51d2534e148163bb22a7b2b83b7b50ff9e2e1d085d7e6eb842b01210310980bc4ce97d190f12bcd62c639af50e492f51c4ffdc672fc206575f66f7aebffffffff0269970f00000000001976a914e7089ff538c8f6eb4559115dd44bf4f36c0e3d3888ac24060000000000001976a91447ef5b85f2ffa3cc40e4b623bbc1b7b8b465aec788ac00000000","txid":"e451b345b899ad186deac31119e7e5813c0481c0e831d2970dd744afc2fcca90","version":1,"time":1541455456,"locktime":0,"vin":[{"txid":"0027e999ab560e20fc9880dec367e9e13df884d40464cd53a36912baa6b7734e","vout":0,"scriptSig":{"asm":"3044022007cccf8c84fff4224a3a44c973c95d221716e2198f34add5dbcbe6dae0294515022040deeac72250f51d2534e148163bb22a7b2b83b7b50ff9e2e1d085d7e6eb842b01 0310980bc4ce97d190f12bcd62c639af50e492f51c4ffdc672fc206575f66f7aeb","hex":"473044022007cccf8c84fff4224a3a44c973c95d221716e2198f34add5dbcbe6dae0294515022040deeac72250f51d2534e148163bb22a7b2b83b7b50ff9e2e1d085d7e6eb842b01210310980bc4ce97d190f12bcd62c639af50e492f51c4ffdc672fc206575f66f7aeb"},"sequence":4294967295}],"vout":[{"value":0.01021801,"n":0,"scriptPubKey":{"asm":"OP_DUP OP_HASH160 e7089ff538c8f6eb4559115dd44bf4f36c0e3d38 OP_EQUALVERIFY OP_CHECKSIG","reqSigs":1,"type":"pubkeyhash","addresses":["pScAdHLRLdiivbfnNNg3epeELoyxdZezup"]}},{"value":0.00001572,"n":1,"scriptPubKey":{"asm":"OP_DUP OP_HASH160 47ef5b85f2ffa3cc40e4b623bbc1b7b8b465aec7 OP_EQUALVERIFY OP_CHECKSIG","reqSigs":1,"type":"pubkeyhash","addresses":["pC6vvBDprfxtYoiviPuF9aGbGkjQ1J2jev"]}}],"blockhash":"690464ebd82e266525799fc49670907b309c7c61e62ae448da8ad2effc84befb","confirmations":6,"blocktime":1541455456}