{"hex":"01000000cd65d75b034c99a08bdf653577ac96920e8bb9ca7689bbf94997e143307bbaf9d18386120c000000006b4830450221009e9810df14fd32514a31727436877ebda71408dd30f66a8f2803d99de74c93c3022009dd7c597b34f3852b2f9b5b56b91adbcc390f496af5f84b1e6b5b4e0f3addbc012103d37415b93212bd3fe161df468a7e051bf17f9808e7decde42e37ff8940ee5582ffffffff8348a4bb1844e1bd3adb0e86575e88116b5d4c7cb3dd5a3a6f0e7a816854b69d010000006a47304402201f4a83b9aee7fa728e0322b229396306432f02c7a93b244664d0d0b4906e06a302200dcbf5030a8ffeeaf3c115b32ae1fbc04e59d924879160c1457abf19d4b6342d012103b0bcd505abcfc45cbe0dedda59a98b63d2e6f12d83f5cdfb9c6c7a7b464b1fd3ffffffff06afaf9700e8d00afdeb35b7e5b216c3c7f1a1181745b50ba80b67c5f90ac069000000006a4730440220647af038efcc83eed34c74969cd12f10bf55e863bc3254937420e69fa437fcf50220781ccfc05c4f7c317756a3e9b451d0f5f696b4ec32eb58d3d27254fce4d699e0012102c23ace1977d8263ecc71addabaa0656a24c69b14ebc909ad3be9dad11f2fd2c8ffffffff0241951700000000001976a914661781359d61d2bbeb5f3884c262379342c41ea788ac67ef9000000000001976a91456bc6f9381029122cde7f04017f15387de5d425d88ac00000000","txid":"7cabd984c0fdce6168eeda84ee8d4fc836373e8bb786196bb5c012e7074e01f0","version":1,"time":1540842960,"locktime":0,"vin":[{"txid":"0c128683d1f9ba7b3043e19749f9bb8976cab98b0e9296ac773565df8ba0994c","vout":0,"scriptSig":{"asm":"30450221009e9810df14fd32514a31727436877ebda71408dd30f66a8f2803d99de74c93c3022009dd7c597b34f3852b2f9b5b56b91adbcc390f496af5f84b1e6b5b4e0f3addbc01 03d37415b93212bd3fe161df468a7e051bf17f9808e7decde42e37ff8940ee5582","hex":"4830450221009e9810df14fd32514a31727436877ebda71408dd30f66a8f2803d99de74c93c3022009dd7c597b34f3852b2f9b5b56b91adbcc390f496af5f84b1e6b5b4e0f3addbc012103d37415b93212bd3fe161df468a7e051bf17f9808e7decde42e37ff8940ee5582"},"sequence":4294967295},{"txid":"9db65468817a0e6f3a5addb37c4c5d6b11885e57860edb3abde14418bba44883","vout":1,"scriptSig":{"asm":"304402201f4a83b9aee7fa728e0322b229396306432f02c7a93b244664d0d0b4906e06a302200dcbf5030a8ffeeaf3c115b32ae1fbc04e59d924879160c1457abf19d4b6342d01 03b0bcd505abcfc45cbe0dedda59a98b63d2e6f12d83f5cdfb9c6c7a7b464b1fd3","hex":"47304402201f4a83b9aee7fa728e0322b229396306432f02c7a93b244664d0d0b4906e06a302200dcbf5030a8ffeeaf3c115b32ae1fbc04e59d924879160c1457abf19d4b6342d012103b0bcd505abcfc45cbe0dedda59a98b63d2e6f12d83f5cdfb9c6c7a7b464b1fd3"},"sequence":4294967295},{"txid":"69c00af9c5670ba80bb5451718a1f1c7c316b2e5b735ebfd0ad0e80097afaf06","vout":0,"scriptSig":{"asm":"30440220647af038efcc83eed34c74969cd12f10bf55e863bc3254937420e69fa437fcf50220781ccfc05c4f7c317756a3e9b451d0f5f696b4ec32eb58d3d27254fce4d699e001 02c23ace1977d8263ecc71addabaa0656a24c69b14ebc909ad3be9dad11f2fd2c8","hex":"4730440220647af038efcc83eed34c74969cd12f10bf55e863bc3254937420e69fa437fcf50220781ccfc05c4f7c317756a3e9b451d0f5f696b4ec32eb58d3d27254fce4d699e0012102c23ace1977d8263ecc71addabaa0656a24c69b14ebc909ad3be9dad11f2fd2c8"},"sequence":4294967295}],"vout":[{"value":0.01545537,"n":0,"scriptPubKey":{"asm":"OP_DUP OP_HASH160 661781359d61d2bbeb5f3884c262379342c41ea7 OP_EQUALVERIFY OP_CHECKSIG","reqSigs":1,"type":"pubkeyhash","addresses":["pErPHQgZD5fXUe6WueWQNmsG4W9uMhNWPf"]}},{"value":0.09498471,"n":1,"scriptPubKey":{"asm":"OP_DUP OP_HASH160 56bc6f9381029122cde7f04017f15387de5d425d OP_EQUALVERIFY OP_CHECKSIG","reqSigs":1,"type":"pubkeyhash","addresses":["pDTC3xLmJX7sGLo5H1JMo4upUmqDTFzqvb"]}}],"blockhash":"cb41dfd8c14a01ed94fc8bfe6f25bdc0c6f32807846aa8fdd057c4d6447b6998","confirmations":178,"blocktime":1540842960}