{"hex":"01000000d065d75b01842c8d1487561a1eb5f7ad632e40004f4812750cb8b7a6468ce91ee401ff6e150100000049483045022100b9c8f52d5ffa432acaa24d6d84a78f536ff01e06f3e9a44c2139e18930eed85602206568130f0b1e15ba0dbc2fbdec976c92da19e1069ecb7c441ba1ef1b18e376fe01ffffffff03000000000000000000deddaa32000000002321026ef57679057df94a5f72e9fead08857f8d7253a593b2b1feed1b68e92df4a4c5ac891f0000000000001976a914256b9b540806ec78f3cbc6d37188a2e1504616e688ac00000000","txid":"a361a7437ec25de7e13f0eb8b3e127ceaa0029619fd5fee57bf6b44a0e2462ab","version":1,"time":1540842960,"locktime":0,"vin":[{"txid":"156eff01e41ee98c46a6b7b80c7512484f00402e63adf7b51e1a5687148d2c84","vout":1,"scriptSig":{"asm":"3045022100b9c8f52d5ffa432acaa24d6d84a78f536ff01e06f3e9a44c2139e18930eed85602206568130f0b1e15ba0dbc2fbdec976c92da19e1069ecb7c441ba1ef1b18e376fe01","hex":"483045022100b9c8f52d5ffa432acaa24d6d84a78f536ff01e06f3e9a44c2139e18930eed85602206568130f0b1e15ba0dbc2fbdec976c92da19e1069ecb7c441ba1ef1b18e376fe01"},"sequence":4294967295}],"vout":[{"value":0,"n":0,"scriptPubKey":{"asm":"","type":"nonstandard"}},{"value":8.50058718,"n":1,"scriptPubKey":{"asm":"026ef57679057df94a5f72e9fead08857f8d7253a593b2b1feed1b68e92df4a4c5 OP_CHECKSIG","reqSigs":1,"type":"pubkey","addresses":["p5dRZ9MeyiKDma1pAUrsmvEK4NBmmdC4ZN"]}},{"value":0.00008073,"n":2,"scriptPubKey":{"asm":"OP_DUP OP_HASH160 256b9b540806ec78f3cbc6d37188a2e1504616e6 OP_EQUALVERIFY OP_CHECKSIG","reqSigs":1,"type":"pubkeyhash","addresses":["p8xS7T8mkTz7MJV9EcYkBri1Zi12wCV83N"]}}],"blockhash":"cb41dfd8c14a01ed94fc8bfe6f25bdc0c6f32807846aa8fdd057c4d6447b6998","confirmations":178,"blocktime":1540842960}