{"hex":"01000000e05cc35b0199b85def69b9d491e7b0694447fe3c16a28bfb4d0bcbe45e6264ba212dcc85f701000000484730440220039efa3703e746d0a293b7c3c93566c898200aed21ee6af8eb683124639d36360220137412dd2d7207ef57bd7af94e71b0b138639a8d3cf3c2223537c5db3fb098bc01ffffffff0300000000000000000080902029000000002321037e20b6f9df2b1191d7e929adc4ec86bb0a3b438e7822a1a46cd9d0caef60b746ac80fe210a000000001976a9149590579f878db6722db4322a713599a3d865ecb188ac00000000","txid":"ef21cc8600f9b56752882f711870292efafafcdfd2994b8d228b7b2f620c9f00","version":1,"time":1539529952,"locktime":0,"vin":[{"txid":"f785cc2d21ba64625ee4cb0b4dfb8ba2163cfe474469b0e791d4b969ef5db899","vout":1,"scriptSig":{"asm":"30440220039efa3703e746d0a293b7c3c93566c898200aed21ee6af8eb683124639d36360220137412dd2d7207ef57bd7af94e71b0b138639a8d3cf3c2223537c5db3fb098bc01","hex":"4730440220039efa3703e746d0a293b7c3c93566c898200aed21ee6af8eb683124639d36360220137412dd2d7207ef57bd7af94e71b0b138639a8d3cf3c2223537c5db3fb098bc01"},"sequence":4294967295}],"vout":[{"value":0,"n":0,"scriptPubKey":{"asm":"","type":"nonstandard"}},{"value":6.9,"n":1,"scriptPubKey":{"asm":"037e20b6f9df2b1191d7e929adc4ec86bb0a3b438e7822a1a46cd9d0caef60b746 OP_CHECKSIG","reqSigs":1,"type":"pubkey","addresses":["p6vr35KwzEodbGx2Tqp8uLkcMLPNmxZhJS"]}},{"value":1.7,"n":2,"scriptPubKey":{"asm":"OP_DUP OP_HASH160 9590579f878db6722db4322a713599a3d865ecb1 OP_EQUALVERIFY OP_CHECKSIG","reqSigs":1,"type":"pubkeyhash","addresses":["pKBPoNA3SJPY8i2H3PXAafpEbMr7NNikgL"]}}],"blockhash":"a5c7790429540e7cd8babd786f696ef9648363b49407a89f1cdb86d149b465e1","confirmations":31,"blocktime":1539529952}