{"hex":"01000000db5cc35b013fb842136986c51b1f01f104f38a35a413c8faabd72c598dbb8328680410ab2b000000006b4830450221009c3dfe59dd8e5813173e0478acc092184485200dad7c21fcdf02beacd243001b022024dda0e3bbe074cae38a38e9a7bddd1080223df898977211c834ee9a4569b1380121031257f78b165e81db8638bec2142a23365322f48e5943cc54e8424d0569533215ffffffff02000a361ed87823001976a914b21ec6e49374a76cc05e032d3600236ddc87ac6988ac0088526a740000001976a91473471adebcd697ea1dc18e8db2582a74a6bab88188ac00000000","txid":"e52b9bc9229474a0e4ad468b351825ca37e979fd90beed97c2110df60cd7cdcd","version":1,"time":1539529952,"locktime":0,"vin":[{"txid":"2bab1004682883bb8d592cd7abfac813a4358af304f1011f1bc586691342b83f","vout":0,"scriptSig":{"asm":"30450221009c3dfe59dd8e5813173e0478acc092184485200dad7c21fcdf02beacd243001b022024dda0e3bbe074cae38a38e9a7bddd1080223df898977211c834ee9a4569b13801 031257f78b165e81db8638bec2142a23365322f48e5943cc54e8424d0569533215","hex":"4830450221009c3dfe59dd8e5813173e0478acc092184485200dad7c21fcdf02beacd243001b022024dda0e3bbe074cae38a38e9a7bddd1080223df898977211c834ee9a4569b1380121031257f78b165e81db8638bec2142a23365322f48e5943cc54e8424d0569533215"},"sequence":4294967295}],"vout":[{"value":99844938,"n":0,"scriptPubKey":{"asm":"OP_DUP OP_HASH160 b21ec6e49374a76cc05e032d3600236ddc87ac69 OP_EQUALVERIFY OP_CHECKSIG","reqSigs":1,"type":"pubkeyhash","addresses":["pMnPMGbFVQSGRWdyp5AfWQTwMn8wciKnv7"]}},{"value":5000,"n":1,"scriptPubKey":{"asm":"OP_DUP OP_HASH160 73471adebcd697ea1dc18e8db2582a74a6bab881 OP_EQUALVERIFY OP_CHECKSIG","reqSigs":1,"type":"pubkeyhash","addresses":["pG476E2NDDXyKLQPSQr8zUwis1yY3UyfR9"]}}],"blockhash":"a5c7790429540e7cd8babd786f696ef9648363b49407a89f1cdb86d149b465e1","confirmations":321,"blocktime":1539529952}