{"hex":"0100000057a3c25b014fe2c4584a9e51e789519ab0e86b47e1305e374b5a0787503924335654d512f2000000006b483045022100ef2dac92d9899e3c5ca6c2e6820847653406951f1ecc5857138ccdc14af8e92802206dd759cfecf477d42a865b1162be34083d58d9cf1766c40f15cf67307481f26f0121028ba529daa680cd81ca3759622f0c72fb3d5013fbfa7f8454fe3d04bbae9387a1ffffffff0200444baa378423001976a9143ec8a6b186f9111d86efc54786008772b44be5c188ac0088526a740000001976a914f0371486e89ca3a2057c60329aff065cd986aee188ac00000000","txid":"21d922ff3b4ac9701e61ba5bc6794f99b65fd7325100adcf752a7e36860d3c64","version":1,"time":1539482464,"locktime":0,"vin":[{"txid":"f212d554563324395087075a4b375e30e1476be8b09a5189e7519e4a58c4e24f","vout":0,"scriptSig":{"asm":"3045022100ef2dac92d9899e3c5ca6c2e6820847653406951f1ecc5857138ccdc14af8e92802206dd759cfecf477d42a865b1162be34083d58d9cf1766c40f15cf67307481f26f01 028ba529daa680cd81ca3759622f0c72fb3d5013fbfa7f8454fe3d04bbae9387a1","hex":"483045022100ef2dac92d9899e3c5ca6c2e6820847653406951f1ecc5857138ccdc14af8e92802206dd759cfecf477d42a865b1162be34083d58d9cf1766c40f15cf67307481f26f0121028ba529daa680cd81ca3759622f0c72fb3d5013fbfa7f8454fe3d04bbae9387a1"},"sequence":4294967295}],"vout":[{"value":99969988,"n":0,"scriptPubKey":{"asm":"OP_DUP OP_HASH160 3ec8a6b186f9111d86efc54786008772b44be5c1 OP_EQUALVERIFY OP_CHECKSIG","reqSigs":1,"type":"pubkeyhash","addresses":["pBGYU5tVt4kYZVTFSQ5kh4BRjkQCMCrGFn"]}},{"value":5000,"n":1,"scriptPubKey":{"asm":"OP_DUP OP_HASH160 f0371486e89ca3a2057c60329aff065cd986aee1 OP_EQUALVERIFY OP_CHECKSIG","reqSigs":1,"type":"pubkeyhash","addresses":["pTSiMnNaB4wjS22bEGEEkNcu17kmCfBCLj"]}}],"blockhash":"7a354d3ec8f8fc26a9d140dde6920c9f55aad0a8e15515872a9cc25670e1ab95","confirmations":56,"blocktime":1539482464}