{"hex":"0100000060a3c25b01eebf6acf71ab897fbef31f52f36b8195201e9dbfef19711c203ed5551f84bb7c010000006a473044022046561d469816d5a4154fe8845f6b5b2229d44355daf5e17eef422f4409952e0d022009b59f0731c1bdf21dcb0c8a0b0ea792c2641e42f6a41065d453a28d2ac667f60121028d9be6ae35cf9126d1ddd81f7e9a33d77e64d908c42bf417d6424ba1da9106a6ffffffff0300000000000000000000251f3b3a0000002321028d9be6ae35cf9126d1ddd81f7e9a33d77e64d908c42bf417d6424ba1da9106a6ac00251f3b3a0000002321028d9be6ae35cf9126d1ddd81f7e9a33d77e64d908c42bf417d6424ba1da9106a6ac00000000","txid":"c1843003ab731e58d7740d1207a199118269e4c2a9b17cd9aeec23bd1d9c0323","version":1,"time":1539482464,"locktime":0,"vin":[{"txid":"7cbb841f55d53e201c7119efbf9d1e2095816bf3521ff3be7f89ab71cf6abfee","vout":1,"scriptSig":{"asm":"3044022046561d469816d5a4154fe8845f6b5b2229d44355daf5e17eef422f4409952e0d022009b59f0731c1bdf21dcb0c8a0b0ea792c2641e42f6a41065d453a28d2ac667f601 028d9be6ae35cf9126d1ddd81f7e9a33d77e64d908c42bf417d6424ba1da9106a6","hex":"473044022046561d469816d5a4154fe8845f6b5b2229d44355daf5e17eef422f4409952e0d022009b59f0731c1bdf21dcb0c8a0b0ea792c2641e42f6a41065d453a28d2ac667f60121028d9be6ae35cf9126d1ddd81f7e9a33d77e64d908c42bf417d6424ba1da9106a6"},"sequence":4294967295}],"vout":[{"value":0,"n":0,"scriptPubKey":{"asm":"","type":"nonstandard"}},{"value":2501,"n":1,"scriptPubKey":{"asm":"028d9be6ae35cf9126d1ddd81f7e9a33d77e64d908c42bf417d6424ba1da9106a6 OP_CHECKSIG","reqSigs":1,"type":"pubkey","addresses":["pG17eAwgEzq6zQQ7cLzvCMepRqGYMprwdz"]}},{"value":2501,"n":2,"scriptPubKey":{"asm":"028d9be6ae35cf9126d1ddd81f7e9a33d77e64d908c42bf417d6424ba1da9106a6 OP_CHECKSIG","reqSigs":1,"type":"pubkey","addresses":["pG17eAwgEzq6zQQ7cLzvCMepRqGYMprwdz"]}}],"blockhash":"7a354d3ec8f8fc26a9d140dde6920c9f55aad0a8e15515872a9cc25670e1ab95","confirmations":56,"blocktime":1539482464}