{"hex":"01000000b9f5d95b03db14eb8837cfdbb66bc8fbdd0d7e349cdd72216eeb2fc8eb0f4ec93071cd826b010000006b483045022100d5d21afdf8b25a7f89a7c318461c86669931d2a5d03afb8c1a418459eff0188c0220493f87b9e37c44adfe4f3cf8ed0e58875efcf4ed2667baeb891f808ff459b2680121031b7a290d26c3ca9c7282a5faa90064543e7f32518c79d065628de4bcdcba9027fffffffffb8b8c57df3637ebd466107818d5f60865355609ecf32d54f20bdb83acac3d2b010000006b4830450221008d5f60a8c3650f86d3cb2b416c7dab6ae6f991e6d48cb3167639469b2c0b34d8022078a82db1897c1b7d2b235a85a14b65c4d81e6cc0a0e365c74836897e2d5a8eae01210355d784d33d4726329b16134503f1cfda3f95118ed08f152103afe4225412a32effffffffb3e513a81112ae7bf96d9e5dba8afdfb235aff03a7af5cd05c9537516d66cce9000000006a473044022040b14c9f172b50500e449db71142cffcdee8537a6ceb4ffa4ddfce5e2a213090022056a51d1488e724e39882c3e6da558515e503532deaa4c743aa6ab6ce2620c5f20121036140286ea9110fb58adeb81ec0d89e078f2ce6f0f38003077b013f3ad4f7b11affffffff02d7e81500000000001976a9149b1d3f5e53581c49376005ca55cac1db16ddc48188acacf88016000000001976a914956fe8eed19fcd606a950ca2b2f062c8a645afcd88ac00000000","txid":"20bcd0d287498a70b68010429f3430da393cd11248bf55fb256c78a1525929e4","version":1,"time":1541010880,"locktime":0,"vin":[{"txid":"6b82cd7130c94e0febc82feb6e2172dd9c347e0dddfbc86bb6dbcf3788eb14db","vout":1,"scriptSig":{"asm":"3045022100d5d21afdf8b25a7f89a7c318461c86669931d2a5d03afb8c1a418459eff0188c0220493f87b9e37c44adfe4f3cf8ed0e58875efcf4ed2667baeb891f808ff459b26801 031b7a290d26c3ca9c7282a5faa90064543e7f32518c79d065628de4bcdcba9027","hex":"483045022100d5d21afdf8b25a7f89a7c318461c86669931d2a5d03afb8c1a418459eff0188c0220493f87b9e37c44adfe4f3cf8ed0e58875efcf4ed2667baeb891f808ff459b2680121031b7a290d26c3ca9c7282a5faa90064543e7f32518c79d065628de4bcdcba9027"},"sequence":4294967295},{"txid":"2b3dacac83db0bf2542df3ec0956356508f6d518781066d4eb3736df578c8bfb","vout":1,"scriptSig":{"asm":"30450221008d5f60a8c3650f86d3cb2b416c7dab6ae6f991e6d48cb3167639469b2c0b34d8022078a82db1897c1b7d2b235a85a14b65c4d81e6cc0a0e365c74836897e2d5a8eae01 0355d784d33d4726329b16134503f1cfda3f95118ed08f152103afe4225412a32e","hex":"4830450221008d5f60a8c3650f86d3cb2b416c7dab6ae6f991e6d48cb3167639469b2c0b34d8022078a82db1897c1b7d2b235a85a14b65c4d81e6cc0a0e365c74836897e2d5a8eae01210355d784d33d4726329b16134503f1cfda3f95118ed08f152103afe4225412a32e"},"sequence":4294967295},{"txid":"e9cc666d5137955cd05cafa703ff5a23fbfd8aba5d9e6df97bae1211a813e5b3","vout":0,"scriptSig":{"asm":"3044022040b14c9f172b50500e449db71142cffcdee8537a6ceb4ffa4ddfce5e2a213090022056a51d1488e724e39882c3e6da558515e503532deaa4c743aa6ab6ce2620c5f201 036140286ea9110fb58adeb81ec0d89e078f2ce6f0f38003077b013f3ad4f7b11a","hex":"473044022040b14c9f172b50500e449db71142cffcdee8537a6ceb4ffa4ddfce5e2a213090022056a51d1488e724e39882c3e6da558515e503532deaa4c743aa6ab6ce2620c5f20121036140286ea9110fb58adeb81ec0d89e078f2ce6f0f38003077b013f3ad4f7b11a"},"sequence":4294967295}],"vout":[{"value":0.01435863,"n":0,"scriptPubKey":{"asm":"OP_DUP OP_HASH160 9b1d3f5e53581c49376005ca55cac1db16ddc481 OP_EQUALVERIFY OP_CHECKSIG","reqSigs":1,"type":"pubkeyhash","addresses":["pKgjybNjEV8RVNM8a2GDKbg4mzP8UFg2x6"]}},{"value":3.7755102,"n":1,"scriptPubKey":{"asm":"OP_DUP OP_HASH160 956fe8eed19fcd606a950ca2b2f062c8a645afcd OP_EQUALVERIFY OP_CHECKSIG","reqSigs":1,"type":"pubkeyhash","addresses":["pKAiwvYi2ui567HyR7kcTB9U2FodzcESKb"]}}],"blockhash":"7bb3c12edd7e792864b9431925f0ebca7673d055c2a1c1ffccad908556132bcc","confirmations":127,"blocktime":1541010880}