{"hex":"01000000c0f5d95b08009f0c622f7b8b228d4b99d2dffcfafa2e297018712f885267b5f90086cc21ef020000006946304302203f527c427042636880fe3d9502c001b1238ca601fc11edbb93776b18683b257f021f43ee3aeaf7366e7b5066d13dc61162b0aefc40f91941e7b03457b458fe0d8d0121022b01163a24c36970e0de72765d03cbe1bc061255204b7edd50710f2a6f4cabc5ffffffff57c9bcdfaf88eb6bf72f47a98a7330521d5a36911f20a45aafad47c737554e99030000006a47304402206d4d7bf4156464466dd2198bf388d67178451a9a3712233b789d6147ef671e5f022073711fc1a6faa8412f32388b5d3dc04834c6208d3c860f7df1107e69e3524dd50121022b01163a24c36970e0de72765d03cbe1bc061255204b7edd50710f2a6f4cabc5ffffffff84f7de760c443cd2698b5885164cb659bd5d3738d072428e961aa1bfbcaf3f2a030000006a473044022015232aed5de2a7276fad0a42921e12963873d2bb3c3ca4bd543e2637add7d9da02201ca933a52d4cece40d487a6cd222932664b5cd92b4a37abce5410ac9370d0d020121022b01163a24c36970e0de72765d03cbe1bc061255204b7edd50710f2a6f4cabc5ffffffff877d2eb6e6cc6aba858b0de34e4edc98a6be6de98b6de967989bedcae78eec03020000006b483045022100ad12870055b9166a991bdd60975e0f7a06b8237f12bba28158f4bc8f4fc097e7022051ec8dc5204758289702870943bbc64c5c899d938c7699e633bb745f362c4d7d0121022b01163a24c36970e0de72765d03cbe1bc061255204b7edd50710f2a6f4cabc5fffffffff2d7725bc60a500f34089adbec75ea4ff97774d644f54fcd3b9eadff819b56aa030000006b483045022100910509cec90f4a062ffcc7d7119463162cd029722ff4375d147201bbd6c545100220136d2803cbd7d75ca8ab5a700d2a8ccfd06e6bba8a0424f237ab934c14168ce30121022b01163a24c36970e0de72765d03cbe1bc061255204b7edd50710f2a6f4cabc5fffffffff90d4f7278006731f909230c396eafcb53f6dbc77fcec6c2f2bb3fd748b3b188030000006b483045022100cf96a973c1756c1286529841ef550fde29c77e250cf96add8f6881c06f33811c02202a592a56d2e1d9cbbdc225ee37c200a8382651af32b561dd4e491abfcb2be4e70121022b01163a24c36970e0de72765d03cbe1bc061255204b7edd50710f2a6f4cabc5ffffffff8fa844947214f94313cecef4ac72903fb4b6c4e6ea667a74256aa42d70eb3d01030000006b483045022100de138ec7984871c6ef53712720d73dce90ef0bdf7167b0e9fc717ce19c0dc9c802204cb2473982987687e201e37c90fb16d7201b09235a66d083e8366e8400bb2c200121022b01163a24c36970e0de72765d03cbe1bc061255204b7edd50710f2a6f4cabc5ffffffffe73e77c555ea235ad8dc6776cc5e7e6f179e90f9708de249b345ee26134b0920030000006b483045022100ad1e80b32d359c52dec5588942ce15fd1d3a9228f12bf6a3450a0c10d59fd29502202344e7069073def952298eafc4b8a9db48ca12860d9a214460a42c315e10900c0121022b01163a24c36970e0de72765d03cbe1bc061255204b7edd50710f2a6f4cabc5ffffffff030000000000000000000e112b0a000000002321022b01163a24c36970e0de72765d03cbe1bc061255204b7edd50710f2a6f4cabc5ac96e50400000000001976a914b281632e032cac99462bf7779521442a307c52a088ac00000000","txid":"b56afa9ea1641099785bcb9a57b944e29050b55a5b65c686e5b24e2b25f16c21","version":1,"time":1541010880,"locktime":0,"vin":[{"txid":"ef21cc8600f9b56752882f711870292efafafcdfd2994b8d228b7b2f620c9f00","vout":2,"scriptSig":{"asm":"304302203f527c427042636880fe3d9502c001b1238ca601fc11edbb93776b18683b257f021f43ee3aeaf7366e7b5066d13dc61162b0aefc40f91941e7b03457b458fe0d8d01 022b01163a24c36970e0de72765d03cbe1bc061255204b7edd50710f2a6f4cabc5","hex":"46304302203f527c427042636880fe3d9502c001b1238ca601fc11edbb93776b18683b257f021f43ee3aeaf7366e7b5066d13dc61162b0aefc40f91941e7b03457b458fe0d8d0121022b01163a24c36970e0de72765d03cbe1bc061255204b7edd50710f2a6f4cabc5"},"sequence":4294967295},{"txid":"994e5537c747adaf5aa4201f91365a1d5230738aa9472ff76beb88afdfbcc957","vout":3,"scriptSig":{"asm":"304402206d4d7bf4156464466dd2198bf388d67178451a9a3712233b789d6147ef671e5f022073711fc1a6faa8412f32388b5d3dc04834c6208d3c860f7df1107e69e3524dd501 022b01163a24c36970e0de72765d03cbe1bc061255204b7edd50710f2a6f4cabc5","hex":"47304402206d4d7bf4156464466dd2198bf388d67178451a9a3712233b789d6147ef671e5f022073711fc1a6faa8412f32388b5d3dc04834c6208d3c860f7df1107e69e3524dd50121022b01163a24c36970e0de72765d03cbe1bc061255204b7edd50710f2a6f4cabc5"},"sequence":4294967295},{"txid":"2a3fafbcbfa11a968e4272d038375dbd59b64c1685588b69d23c440c76def784","vout":3,"scriptSig":{"asm":"3044022015232aed5de2a7276fad0a42921e12963873d2bb3c3ca4bd543e2637add7d9da02201ca933a52d4cece40d487a6cd222932664b5cd92b4a37abce5410ac9370d0d0201 022b01163a24c36970e0de72765d03cbe1bc061255204b7edd50710f2a6f4cabc5","hex":"473044022015232aed5de2a7276fad0a42921e12963873d2bb3c3ca4bd543e2637add7d9da02201ca933a52d4cece40d487a6cd222932664b5cd92b4a37abce5410ac9370d0d020121022b01163a24c36970e0de72765d03cbe1bc061255204b7edd50710f2a6f4cabc5"},"sequence":4294967295},{"txid":"03ec8ee7caed9b9867e96d8be96dbea698dc4e4ee30d8b85ba6acce6b62e7d87","vout":2,"scriptSig":{"asm":"3045022100ad12870055b9166a991bdd60975e0f7a06b8237f12bba28158f4bc8f4fc097e7022051ec8dc5204758289702870943bbc64c5c899d938c7699e633bb745f362c4d7d01 022b01163a24c36970e0de72765d03cbe1bc061255204b7edd50710f2a6f4cabc5","hex":"483045022100ad12870055b9166a991bdd60975e0f7a06b8237f12bba28158f4bc8f4fc097e7022051ec8dc5204758289702870943bbc64c5c899d938c7699e633bb745f362c4d7d0121022b01163a24c36970e0de72765d03cbe1bc061255204b7edd50710f2a6f4cabc5"},"sequence":4294967295},{"txid":"aa569b81ffad9e3bcd4ff544d67477f94fea75ecdb9a08340f500ac65b72d7f2","vout":3,"scriptSig":{"asm":"3045022100910509cec90f4a062ffcc7d7119463162cd029722ff4375d147201bbd6c545100220136d2803cbd7d75ca8ab5a700d2a8ccfd06e6bba8a0424f237ab934c14168ce301 022b01163a24c36970e0de72765d03cbe1bc061255204b7edd50710f2a6f4cabc5","hex":"483045022100910509cec90f4a062ffcc7d7119463162cd029722ff4375d147201bbd6c545100220136d2803cbd7d75ca8ab5a700d2a8ccfd06e6bba8a0424f237ab934c14168ce30121022b01163a24c36970e0de72765d03cbe1bc061255204b7edd50710f2a6f4cabc5"},"sequence":4294967295},{"txid":"88b1b348d73fbbf2c2c6ce7fc7dbf653cbaf6e390c2309f931670078724f0df9","vout":3,"scriptSig":{"asm":"3045022100cf96a973c1756c1286529841ef550fde29c77e250cf96add8f6881c06f33811c02202a592a56d2e1d9cbbdc225ee37c200a8382651af32b561dd4e491abfcb2be4e701 022b01163a24c36970e0de72765d03cbe1bc061255204b7edd50710f2a6f4cabc5","hex":"483045022100cf96a973c1756c1286529841ef550fde29c77e250cf96add8f6881c06f33811c02202a592a56d2e1d9cbbdc225ee37c200a8382651af32b561dd4e491abfcb2be4e70121022b01163a24c36970e0de72765d03cbe1bc061255204b7edd50710f2a6f4cabc5"},"sequence":4294967295},{"txid":"013deb702da46a25747a66eae6c4b6b43f9072acf4cece1343f914729444a88f","vout":3,"scriptSig":{"asm":"3045022100de138ec7984871c6ef53712720d73dce90ef0bdf7167b0e9fc717ce19c0dc9c802204cb2473982987687e201e37c90fb16d7201b09235a66d083e8366e8400bb2c2001 022b01163a24c36970e0de72765d03cbe1bc061255204b7edd50710f2a6f4cabc5","hex":"483045022100de138ec7984871c6ef53712720d73dce90ef0bdf7167b0e9fc717ce19c0dc9c802204cb2473982987687e201e37c90fb16d7201b09235a66d083e8366e8400bb2c200121022b01163a24c36970e0de72765d03cbe1bc061255204b7edd50710f2a6f4cabc5"},"sequence":4294967295},{"txid":"20094b1326ee45b349e28d70f9909e176f7e5ecc7667dcd85a23ea55c5773ee7","vout":3,"scriptSig":{"asm":"3045022100ad1e80b32d359c52dec5588942ce15fd1d3a9228f12bf6a3450a0c10d59fd29502202344e7069073def952298eafc4b8a9db48ca12860d9a214460a42c315e10900c01 022b01163a24c36970e0de72765d03cbe1bc061255204b7edd50710f2a6f4cabc5","hex":"483045022100ad1e80b32d359c52dec5588942ce15fd1d3a9228f12bf6a3450a0c10d59fd29502202344e7069073def952298eafc4b8a9db48ca12860d9a214460a42c315e10900c0121022b01163a24c36970e0de72765d03cbe1bc061255204b7edd50710f2a6f4cabc5"},"sequence":4294967295}],"vout":[{"value":0,"n":0,"scriptPubKey":{"asm":"","type":"nonstandard"}},{"value":1.70594574,"n":1,"scriptPubKey":{"asm":"022b01163a24c36970e0de72765d03cbe1bc061255204b7edd50710f2a6f4cabc5 OP_CHECKSIG","reqSigs":1,"type":"pubkey","addresses":["pKBPoNA3SJPY8i2H3PXAafpEbMr7NNikgL"]}},{"value":0.00320918,"n":2,"scriptPubKey":{"asm":"OP_DUP OP_HASH160 b281632e032cac99462bf7779521442a307c52a0 OP_EQUALVERIFY OP_CHECKSIG","reqSigs":1,"type":"pubkeyhash","addresses":["pMpRUr5SqF4SLREGfNjMyHwaGCi3EHeLR1"]}}],"blockhash":"7bb3c12edd7e792864b9431925f0ebca7673d055c2a1c1ffccad908556132bcc","confirmations":127,"blocktime":1541010880}