{"hex":"0100000060b9d65b011171971d661ce3b88a83b774ca8e30404f2973be158d33e32eedd06eeee2d1430200000049483045022100bea26fca74d3d14b4b13ed4783af682acc3ea3342adf7d84683b3bd06e3fd458022073ab18edc2f476ccf4382837659d944a23e4bf68e4e2a802679f027a08ecbdea01ffffffff03000000000000000000206ab1d1010000002321020b1cd26fc4b9f080aea1cf7b667efd5e8453f70429056589831fa7f63506ddbfac10980200000000001976a9147cf288aefa27580772a2e44d947f0a962553405d88ac00000000","txid":"1f220db3ca65c820cf52a07e48ee64c69dfa20ce66fd4d6a03c14862b2675fd9","version":1,"time":1540798816,"locktime":0,"vin":[{"txid":"43d1e2ee6ed0ed2ee3338d15be73294f40308eca74b7838ab8e31c661d977111","vout":2,"scriptSig":{"asm":"3045022100bea26fca74d3d14b4b13ed4783af682acc3ea3342adf7d84683b3bd06e3fd458022073ab18edc2f476ccf4382837659d944a23e4bf68e4e2a802679f027a08ecbdea01","hex":"483045022100bea26fca74d3d14b4b13ed4783af682acc3ea3342adf7d84683b3bd06e3fd458022073ab18edc2f476ccf4382837659d944a23e4bf68e4e2a802679f027a08ecbdea01"},"sequence":4294967295}],"vout":[{"value":0,"n":0,"scriptPubKey":{"asm":"","type":"nonstandard"}},{"value":78.1303248,"n":1,"scriptPubKey":{"asm":"020b1cd26fc4b9f080aea1cf7b667efd5e8453f70429056589831fa7f63506ddbf OP_CHECKSIG","reqSigs":1,"type":"pubkey","addresses":["pECTDpfW4nW8hYte3f3F9ZQxwgWmBwmcYL"]}},{"value":0.0017,"n":2,"scriptPubKey":{"asm":"OP_DUP OP_HASH160 7cf288aefa27580772a2e44d947f0a962553405d OP_EQUALVERIFY OP_CHECKSIG","reqSigs":1,"type":"pubkeyhash","addresses":["pGwEY3YdfsrsoLzpPy8zj5rEMTsKeC6Mb3"]}}],"blockhash":"30ab9a52943fb61fce18bbb09d0599c053a1a81f8a569f770e91be299cf49bb0","confirmations":230,"blocktime":1540798816}