{"hex":"0100000052b9d65b01e4333989dce64718993bb28bf788a2607785495f0d34c10fbae49eee0fbbd7eb000000006b483045022100f449dcb455854d02ea54aece520e577d758de41690266f9c65fc06c844293d29022026a63aa9468f470f9fcea5bdb4b854280df4797d02ba39fcd5f37d1d5da33734012103d31674646376dd8cf53607d0a55d5c12169585728492c2d79e815871f3a84276ffffffff02f0059b19000000001976a914ddea0d6e0e16fcf64602c3b36178c77d9667ca2788ac00c2eb0b000000001976a9142503c5d237a2cb7faf15ea3354f6e3735a4404a588ac00000000","txid":"37eefe56c6b14d20addb9c957b32e27d6ae914bf39fcbecd4c064ff3ce29a9cb","version":1,"time":1540798816,"locktime":0,"vin":[{"txid":"ebd7bb0fee9ee4ba0fc1340d5f49857760a288f78bb23b991847e6dc893933e4","vout":0,"scriptSig":{"asm":"3045022100f449dcb455854d02ea54aece520e577d758de41690266f9c65fc06c844293d29022026a63aa9468f470f9fcea5bdb4b854280df4797d02ba39fcd5f37d1d5da3373401 03d31674646376dd8cf53607d0a55d5c12169585728492c2d79e815871f3a84276","hex":"483045022100f449dcb455854d02ea54aece520e577d758de41690266f9c65fc06c844293d29022026a63aa9468f470f9fcea5bdb4b854280df4797d02ba39fcd5f37d1d5da33734012103d31674646376dd8cf53607d0a55d5c12169585728492c2d79e815871f3a84276"},"sequence":4294967295}],"vout":[{"value":4.2959,"n":0,"scriptPubKey":{"asm":"OP_DUP OP_HASH160 ddea0d6e0e16fcf64602c3b36178c77d9667ca27 OP_EQUALVERIFY OP_CHECKSIG","reqSigs":1,"type":"pubkeyhash","addresses":["pRmwvMG56Lns3u17Rk1F5TKv3vwAdMGURf"]}},{"value":2,"n":1,"scriptPubKey":{"asm":"OP_DUP OP_HASH160 2503c5d237a2cb7faf15ea3354f6e3735a4404a5 OP_EQUALVERIFY OP_CHECKSIG","reqSigs":1,"type":"pubkeyhash","addresses":["p8vHiwLu79vnQZwEEGQtAYMDoy8XA8T5no"]}}],"blockhash":"30ab9a52943fb61fce18bbb09d0599c053a1a81f8a569f770e91be299cf49bb0","confirmations":230,"blocktime":1540798816}