{"hex":"0100000010fbd95b01b8c3466a95772bbdaab1ecadc725fd4e367dcb7d76746a78096c87b4d65c37c70100000049483045022100b57e4b44824774cb765d6410f559fda38ae103ca7e570b73f72447cd84efacf102207b5c38b0e4c0960e35db68720450f211a53077df796261a38cae94a062b5f1a201ffffffff03000000000000000000fc0dec0b00000000232103c918da721a9564bfde1eb3e347ac352bf028a23eeafc2e69788601adb5b9dfabac837c0000000000001976a914b4297f2bb1ec22148c170ab2f943e6826c4d831d88ac00000000","txid":"53dfb9aa0631e5b6dca72b32108ad543b3c591f9165647af8b37113914badfd3","version":1,"time":1541012240,"locktime":0,"vin":[{"txid":"c7375cd6b4876c09786a74767dcb7d364efd25c7adecb1aabd2b77956a46c3b8","vout":1,"scriptSig":{"asm":"3045022100b57e4b44824774cb765d6410f559fda38ae103ca7e570b73f72447cd84efacf102207b5c38b0e4c0960e35db68720450f211a53077df796261a38cae94a062b5f1a201","hex":"483045022100b57e4b44824774cb765d6410f559fda38ae103ca7e570b73f72447cd84efacf102207b5c38b0e4c0960e35db68720450f211a53077df796261a38cae94a062b5f1a201"},"sequence":4294967295}],"vout":[{"value":0,"n":0,"scriptPubKey":{"asm":"","type":"nonstandard"}},{"value":2.00019452,"n":1,"scriptPubKey":{"asm":"03c918da721a9564bfde1eb3e347ac352bf028a23eeafc2e69788601adb5b9dfab OP_CHECKSIG","reqSigs":1,"type":"pubkey","addresses":["pK5Eddk3vr4yi7hrwuoQfuFmrHAeSuez22"]}},{"value":0.00031875,"n":2,"scriptPubKey":{"asm":"OP_DUP OP_HASH160 b4297f2bb1ec22148c170ab2f943e6826c4d831d OP_EQUALVERIFY OP_CHECKSIG","reqSigs":1,"type":"pubkeyhash","addresses":["pMyBYUpcH3ehvzacvgmtahza4iSykvMcUD"]}}],"blockhash":"3a90e483bd0388df3c357d132eb4053067a8f21c6bc41791838846556ab61115","confirmations":124,"blocktime":1541012240}