{"hex":"0100000004fbd95b01942e11e94760367dd3b6c7cd1de0f7aabe31efab7bbd0bd0146701b5bc156d32000000006a47304402202f8df6c318fb58be12e492c09135eef737e68af406f7d7be4930cc0cb46db62a022028909c31abf435ee421a0ac3197fb9415cade60314721c7688928e2490fa707d0121039a783e65b33f147833ea2a185f8d286fdcedaa89fd6557c576bd676f9ce9faa0ffffffff0261159e00000000001976a9144c28ee798243702bc4500cdb4da9004130bb47f688ac9d702c02000000001976a9147ddc59e048f4a22c7d986c8ca3cecf2c113230a288ac00000000","txid":"bf0df584ecc9cd234fe752447430087a2d5151bf9403b0bf4475f5887848d91f","version":1,"time":1541012240,"locktime":0,"vin":[{"txid":"326d15bcb5016714d00bbd7babef31beaaf7e01dcdc7b6d37d366047e9112e94","vout":0,"scriptSig":{"asm":"304402202f8df6c318fb58be12e492c09135eef737e68af406f7d7be4930cc0cb46db62a022028909c31abf435ee421a0ac3197fb9415cade60314721c7688928e2490fa707d01 039a783e65b33f147833ea2a185f8d286fdcedaa89fd6557c576bd676f9ce9faa0","hex":"47304402202f8df6c318fb58be12e492c09135eef737e68af406f7d7be4930cc0cb46db62a022028909c31abf435ee421a0ac3197fb9415cade60314721c7688928e2490fa707d0121039a783e65b33f147833ea2a185f8d286fdcedaa89fd6557c576bd676f9ce9faa0"},"sequence":4294967295}],"vout":[{"value":0.10360161,"n":0,"scriptPubKey":{"asm":"OP_DUP OP_HASH160 4c28ee798243702bc4500cdb4da9004130bb47f6 OP_EQUALVERIFY OP_CHECKSIG","reqSigs":1,"type":"pubkeyhash","addresses":["pCVGbFvFLapGyskXvwfxG2ss21bRU9FqUh"]}},{"value":0.36466845,"n":1,"scriptPubKey":{"asm":"OP_DUP OP_HASH160 7ddc59e048f4a22c7d986c8ca3cecf2c113230a2 OP_EQUALVERIFY OP_CHECKSIG","reqSigs":1,"type":"pubkeyhash","addresses":["pH24dwoZsTHnoxUMxw6L3sEnYm9ibSXo8v"]}}],"blockhash":"3a90e483bd0388df3c357d132eb4053067a8f21c6bc41791838846556ab61115","confirmations":124,"blocktime":1541012240}