{"hex":"0100000002fbd95b0216dd9fb642cfbe761e27b426861ded1147cb580da5f35d9cfde07041c164ff11000000006a47304402207048d13348c20f9a94c995fba259186f60b1371ba3cdafe7f71249e589126ba002201c087f8345b94809323d75da75905f06104f46b33c2cfeaacb5ea3c6ef2dcdac0121028d096dbef990dac90b72d96eb2ef05488d23e5eb659a1c9d7ef7234a2951d5b4ffffffff6dc54ae93acf7fe6fa34ff4a7582430a63820a7af2f46ca04c454cf44694f8be000000006b4830450221009bdc419fb0ba87bcb37af324830700f4c498ec5b0ea65277e57311ae6aab1fc102203233548a199cbb0c1a8992ecc64dedbf25d442b32b38c6da1c7f879eebe164280121029e857134122939a57279b02312e296a02bcf0cf876ddc541bd372450215dbeacffffffff0218ec1c00000000001976a9144c28ee798243702bc4500cdb4da9004130bb47f688ac5ece0f00000000001976a9148037c91b518bf27b4dcf96242144d3d64de6038888ac00000000","txid":"b38f013caff22b1991f19f239935133bca23fdef1394aa40ababd8f185e2f1ff","version":1,"time":1541012240,"locktime":0,"vin":[{"txid":"11ff64c14170e0fd9c5df3a50d58cb4711ed1d8626b4271e76becf42b69fdd16","vout":0,"scriptSig":{"asm":"304402207048d13348c20f9a94c995fba259186f60b1371ba3cdafe7f71249e589126ba002201c087f8345b94809323d75da75905f06104f46b33c2cfeaacb5ea3c6ef2dcdac01 028d096dbef990dac90b72d96eb2ef05488d23e5eb659a1c9d7ef7234a2951d5b4","hex":"47304402207048d13348c20f9a94c995fba259186f60b1371ba3cdafe7f71249e589126ba002201c087f8345b94809323d75da75905f06104f46b33c2cfeaacb5ea3c6ef2dcdac0121028d096dbef990dac90b72d96eb2ef05488d23e5eb659a1c9d7ef7234a2951d5b4"},"sequence":4294967295},{"txid":"bef89446f44c454ca06cf4f27a0a82630a4382754aff34fae67fcf3ae94ac56d","vout":0,"scriptSig":{"asm":"30450221009bdc419fb0ba87bcb37af324830700f4c498ec5b0ea65277e57311ae6aab1fc102203233548a199cbb0c1a8992ecc64dedbf25d442b32b38c6da1c7f879eebe1642801 029e857134122939a57279b02312e296a02bcf0cf876ddc541bd372450215dbeac","hex":"4830450221009bdc419fb0ba87bcb37af324830700f4c498ec5b0ea65277e57311ae6aab1fc102203233548a199cbb0c1a8992ecc64dedbf25d442b32b38c6da1c7f879eebe164280121029e857134122939a57279b02312e296a02bcf0cf876ddc541bd372450215dbeac"},"sequence":4294967295}],"vout":[{"value":0.01895448,"n":0,"scriptPubKey":{"asm":"OP_DUP OP_HASH160 4c28ee798243702bc4500cdb4da9004130bb47f6 OP_EQUALVERIFY OP_CHECKSIG","reqSigs":1,"type":"pubkeyhash","addresses":["pCVGbFvFLapGyskXvwfxG2ss21bRU9FqUh"]}},{"value":0.0103587,"n":1,"scriptPubKey":{"asm":"OP_DUP OP_HASH160 8037c91b518bf27b4dcf96242144d3d64de60388 OP_EQUALVERIFY OP_CHECKSIG","reqSigs":1,"type":"pubkeyhash","addresses":["pHEXXJu7EfY6VwWfGFq5RSZcLYxwfYx6xe"]}}],"blockhash":"3a90e483bd0388df3c357d132eb4053067a8f21c6bc41791838846556ab61115","confirmations":124,"blocktime":1541012240}