{"hex":"0100000005a2c25b010000000000000000000000000000000000000000000000000000000000000000ffffffff04014a0101ffffffff0100000000000000001976a914aa3c65de1baeff29c3dd26bc57ee8ea58b5a060c88ac00000000","txid":"5d103e53e2fb5ac89a996a123f22354a8cbb4c4fd7b8ce8720eef40fa05ef976","version":1,"time":1539482117,"locktime":0,"vin":[{"coinbase":"014a0101","sequence":4294967295}],"vout":[{"value":0,"n":0,"scriptPubKey":{"asm":"OP_DUP OP_HASH160 aa3c65de1baeff29c3dd26bc57ee8ea58b5a060c OP_EQUALVERIFY OP_CHECKSIG","reqSigs":1,"type":"pubkeyhash","addresses":["pM4hRqYb78qCGmAaYFsQSrCBW7jWyKZUKV"]}}],"blockhash":"0000098b878613a71b74c089e6942071d7e7c46b0d90cb00930e90ce1505cb71","confirmations":371,"blocktime":1539482117}