{"hex":"0100000020c8d65b013b0df74b7971063ffab02a99f0cce61306a06fd6d234b4d16fbf1d1f898428b30100000048473044022045d289477b7d7c6b0cbfcf23e0914054227323d835eb6f3c5a1b85d5c3966ae9022061444b4fbc62c684321f8b0ec9f55c66ec9b9e74fa5dd45e7a4af4d3f2994ae301ffffffff030000000000000000000c81dc0b000000002321025226d209a066666a8a916f83289ac6a9eb4a593f32d6b39c58fcfb9267f349b3aca8030000000000001976a914b9f3d781f7d99f65d068998a288759e0a638d31288ac00000000","txid":"54360d87966da46241b0cb1ef3945efe1a437a126cb7ecd3e8f10cb05efb5eaa","version":1,"time":1540802592,"locktime":0,"vin":[{"txid":"b32884891f1dbf6fd1b434d2d66fa00613e6ccf0992ab0fa3f0671794bf70d3b","vout":1,"scriptSig":{"asm":"3044022045d289477b7d7c6b0cbfcf23e0914054227323d835eb6f3c5a1b85d5c3966ae9022061444b4fbc62c684321f8b0ec9f55c66ec9b9e74fa5dd45e7a4af4d3f2994ae301","hex":"473044022045d289477b7d7c6b0cbfcf23e0914054227323d835eb6f3c5a1b85d5c3966ae9022061444b4fbc62c684321f8b0ec9f55c66ec9b9e74fa5dd45e7a4af4d3f2994ae301"},"sequence":4294967295}],"vout":[{"value":0,"n":0,"scriptPubKey":{"asm":"","type":"nonstandard"}},{"value":1.99000332,"n":1,"scriptPubKey":{"asm":"025226d209a066666a8a916f83289ac6a9eb4a593f32d6b39c58fcfb9267f349b3 OP_CHECKSIG","reqSigs":1,"type":"pubkey","addresses":["pCaQkonPJWx4zjuNyS1atYTQJoXJr6uLyk"]}},{"value":0.00000936,"n":2,"scriptPubKey":{"asm":"OP_DUP OP_HASH160 b9f3d781f7d99f65d068998a288759e0a638d312 OP_EQUALVERIFY OP_CHECKSIG","reqSigs":1,"type":"pubkeyhash","addresses":["pNVoKczQ6P92yawDZejgg9H8khMTR2Sf2j"]}}],"blockhash":"61db077aeeec24532e3a0237da558f4cf6a05628b3baffe554174ff2fea1f7ac","confirmations":213,"blocktime":1540802592}