{"hex":"0100000012c8d65b027c644d027b344119d6b3cf7912afbe024230264ccdcbb8619c7b1600e3e9c0bf000000006b483045022100bc34317327c3f8ef05d68e2dfc69bcd874b7d03165ca762098c75969137b3c6602202c08b50a1618877f2a5cd16c82b5ac4f147fb9f8ddc9c5c054897d28c58e2d8d012103ebb5dc9f81efe98f8332e9db3b41320e574b8c0636643d9eb6011ecdbd532d59ffffffffb2147d530664bfc8ca93dcbb6f74788795a6ce1ec1f598cb7e1cdf7e21052547010000006a47304402200be61725824b581591bfe33cd603d9681880b6c0a103ca23d7b74f0f4d3a304402206c36f3cb6f7b69484c8a6bda73450d8f64d69918167a117490c2a5bcac6fa7ef012102499a7242aa63a77ea74cd080cab6a3e0447e3879ab77d0c2203d63454c398e8cffffffff0213321200000000001976a9144c28ee798243702bc4500cdb4da9004130bb47f688ac67d21000000000001976a914d58b031127662f2589062dac6a5c6d38caadd8b588ac00000000","txid":"90942dddde4cb55aa3ad6649af36f480ef682a704c01daead60c3bdc8d373b3e","version":1,"time":1540802592,"locktime":0,"vin":[{"txid":"bfc0e9e300167b9c61b8cbcd4c26304202beaf1279cfb3d61941347b024d647c","vout":0,"scriptSig":{"asm":"3045022100bc34317327c3f8ef05d68e2dfc69bcd874b7d03165ca762098c75969137b3c6602202c08b50a1618877f2a5cd16c82b5ac4f147fb9f8ddc9c5c054897d28c58e2d8d01 03ebb5dc9f81efe98f8332e9db3b41320e574b8c0636643d9eb6011ecdbd532d59","hex":"483045022100bc34317327c3f8ef05d68e2dfc69bcd874b7d03165ca762098c75969137b3c6602202c08b50a1618877f2a5cd16c82b5ac4f147fb9f8ddc9c5c054897d28c58e2d8d012103ebb5dc9f81efe98f8332e9db3b41320e574b8c0636643d9eb6011ecdbd532d59"},"sequence":4294967295},{"txid":"472505217edf1c7ecb98f5c11ecea6958778746fbbdc93cac8bf6406537d14b2","vout":1,"scriptSig":{"asm":"304402200be61725824b581591bfe33cd603d9681880b6c0a103ca23d7b74f0f4d3a304402206c36f3cb6f7b69484c8a6bda73450d8f64d69918167a117490c2a5bcac6fa7ef01 02499a7242aa63a77ea74cd080cab6a3e0447e3879ab77d0c2203d63454c398e8c","hex":"47304402200be61725824b581591bfe33cd603d9681880b6c0a103ca23d7b74f0f4d3a304402206c36f3cb6f7b69484c8a6bda73450d8f64d69918167a117490c2a5bcac6fa7ef012102499a7242aa63a77ea74cd080cab6a3e0447e3879ab77d0c2203d63454c398e8c"},"sequence":4294967295}],"vout":[{"value":0.01192467,"n":0,"scriptPubKey":{"asm":"OP_DUP OP_HASH160 4c28ee798243702bc4500cdb4da9004130bb47f6 OP_EQUALVERIFY OP_CHECKSIG","reqSigs":1,"type":"pubkeyhash","addresses":["pCVGbFvFLapGyskXvwfxG2ss21bRU9FqUh"]}},{"value":0.01102439,"n":1,"scriptPubKey":{"asm":"OP_DUP OP_HASH160 d58b031127662f2589062dac6a5c6d38caadd8b5 OP_EQUALVERIFY OP_CHECKSIG","reqSigs":1,"type":"pubkeyhash","addresses":["pR1gfHcFmpnw6152ikj9pbMmyrj7fQDzkc"]}}],"blockhash":"61db077aeeec24532e3a0237da558f4cf6a05628b3baffe554174ff2fea1f7ac","confirmations":213,"blocktime":1540802592}