{"hex":"01000000a0ccd05b016df975c064e591380e4fd1c9cd93150190c6977d91335a07a40ca119ccce88e502000000484730440220079913f9e2ed09a59e5b17d1a8a42abf44dfd17deb4dda3aa476773ca036f0ee02205f3698b175494032d7fd4072e52f4a07e9632bbce18e53c83bd4dc66a50b7bc501ffffffff04000000000000000000c03328a40300000023210348b24f77eda58d2bf0bd56f764cfdeb0100d2f1058b2d5318f2f2fc9670e730eac9c3928a40300000023210348b24f77eda58d2bf0bd56f764cfdeb0100d2f1058b2d5318f2f2fc9670e730eac34210000000000001976a9144c86b0b2edcbbfcf0d0112bbb160a541568205b788ac00000000","txid":"3bec939a54e1d14747f12160642315dd933e8199f5ddbb60fccc2ae721c18fd6","version":1,"time":1540410528,"locktime":0,"vin":[{"txid":"e588cecc19a10ca4075a33917d97c690011593cdc9d14f0e3891e564c075f96d","vout":2,"scriptSig":{"asm":"30440220079913f9e2ed09a59e5b17d1a8a42abf44dfd17deb4dda3aa476773ca036f0ee02205f3698b175494032d7fd4072e52f4a07e9632bbce18e53c83bd4dc66a50b7bc501","hex":"4730440220079913f9e2ed09a59e5b17d1a8a42abf44dfd17deb4dda3aa476773ca036f0ee02205f3698b175494032d7fd4072e52f4a07e9632bbce18e53c83bd4dc66a50b7bc501"},"sequence":4294967295}],"vout":[{"value":0,"n":0,"scriptPubKey":{"asm":"","type":"nonstandard"}},{"value":156.39,"n":1,"scriptPubKey":{"asm":"0348b24f77eda58d2bf0bd56f764cfdeb0100d2f1058b2d5318f2f2fc9670e730e OP_CHECKSIG","reqSigs":1,"type":"pubkey","addresses":["p8X7huKtvdnnDzc17Xcxxh1Z9ww8ckxvVJ"]}},{"value":156.390015,"n":2,"scriptPubKey":{"asm":"0348b24f77eda58d2bf0bd56f764cfdeb0100d2f1058b2d5318f2f2fc9670e730e OP_CHECKSIG","reqSigs":1,"type":"pubkey","addresses":["p8X7huKtvdnnDzc17Xcxxh1Z9ww8ckxvVJ"]}},{"value":0.000085,"n":3,"scriptPubKey":{"asm":"OP_DUP OP_HASH160 4c86b0b2edcbbfcf0d0112bbb160a541568205b7 OP_EQUALVERIFY OP_CHECKSIG","reqSigs":1,"type":"pubkeyhash","addresses":["pCXCuj4F9uaYHMue5Nqy3XLKdLz4U9gRoi"]}}],"blockhash":"adbbf198ff8f3e37d159d83f0d2e7e380522af5b08a3fed6c42651971154466f","confirmations":297,"blocktime":1540410528}