{"hex":"010000009accd05b01749d70217bd816073cf144c01f9ca9b5f1f332423483651d52b382277b48794c010000006a47304402206486d448acbab5e55e3d562ee3419532b2a4fb96f1580076fe0276acba4d8c3602206132e52d5ddd650e241827be9d27b13299fdc9ea5435c660fad89842441d19260121029e857134122939a57279b02312e296a02bcf0cf876ddc541bd372450215dbeacffffffff0270cab969740000001976a9144c28ee798243702bc4500cdb4da9004130bb47f688ac80969800000000001976a914d0eef13ec32cb54ead57fc4656d77cf269feb3b088ac00000000","txid":"973e99c2a970082ef72e9ed97a32f9747a86585ad4046cc4c26e45829b56d8e1","version":1,"time":1540410528,"locktime":0,"vin":[{"txid":"4c79487b2782b3521d6583344232f3f1b5a99c1fc044f13c0716d87b21709d74","vout":1,"scriptSig":{"asm":"304402206486d448acbab5e55e3d562ee3419532b2a4fb96f1580076fe0276acba4d8c3602206132e52d5ddd650e241827be9d27b13299fdc9ea5435c660fad89842441d192601 029e857134122939a57279b02312e296a02bcf0cf876ddc541bd372450215dbeac","hex":"47304402206486d448acbab5e55e3d562ee3419532b2a4fb96f1580076fe0276acba4d8c3602206132e52d5ddd650e241827be9d27b13299fdc9ea5435c660fad89842441d19260121029e857134122939a57279b02312e296a02bcf0cf876ddc541bd372450215dbeac"},"sequence":4294967295}],"vout":[{"value":4999.8999,"n":0,"scriptPubKey":{"asm":"OP_DUP OP_HASH160 4c28ee798243702bc4500cdb4da9004130bb47f6 OP_EQUALVERIFY OP_CHECKSIG","reqSigs":1,"type":"pubkeyhash","addresses":["pCVGbFvFLapGyskXvwfxG2ss21bRU9FqUh"]}},{"value":0.1,"n":1,"scriptPubKey":{"asm":"OP_DUP OP_HASH160 d0eef13ec32cb54ead57fc4656d77cf269feb3b0 OP_EQUALVERIFY OP_CHECKSIG","reqSigs":1,"type":"pubkeyhash","addresses":["pQbJzcVchbryf5aGV6E4peB8CsY8DpjZXw"]}}],"blockhash":"adbbf198ff8f3e37d159d83f0d2e7e380522af5b08a3fed6c42651971154466f","confirmations":297,"blocktime":1540410528}