{"hex":"010000001082e05b010f15a469139588509d6e08776bc00f5cc2e5f924fefac49fce274d3b0fa90080020000004847304402206710fcfbf2e4bea6e707aa07f1633e283a25ba9b16699f00d5fbb5574663d4e702200b3d87f7d55d6bcddf7905212c3a805d38e3bad1334a29778d89b514ed6e95a501ffffffff0400000000000000000000a2941a1d00000023210225f56582c0abe2781838770c5c30998678f9fa83ab5fbd05d306fd8d18795aa9aca3e3a01a1d00000023210225f56582c0abe2781838770c5c30998678f9fa83ab5fbd05d306fd8d18795aa9ac9c734500000000001976a91413cd926daa0b2e1422cabca27e3cbc3aebbee60e88ac00000000","txid":"628075d08d073f66fdb84eac34dce667d05079970726e7719412b0fb9d5a12ae","version":1,"time":1541440016,"locktime":0,"vin":[{"txid":"8000a90f3b4d27ce9fc4fafe24f9e5c25c0fc06b77086e9d5088951369a4150f","vout":2,"scriptSig":{"asm":"304402206710fcfbf2e4bea6e707aa07f1633e283a25ba9b16699f00d5fbb5574663d4e702200b3d87f7d55d6bcddf7905212c3a805d38e3bad1334a29778d89b514ed6e95a501","hex":"47304402206710fcfbf2e4bea6e707aa07f1633e283a25ba9b16699f00d5fbb5574663d4e702200b3d87f7d55d6bcddf7905212c3a805d38e3bad1334a29778d89b514ed6e95a501"},"sequence":4294967295}],"vout":[{"value":0,"n":0,"scriptPubKey":{"asm":"","type":"nonstandard"}},{"value":1250,"n":1,"scriptPubKey":{"asm":"0225f56582c0abe2781838770c5c30998678f9fa83ab5fbd05d306fd8d18795aa9 OP_CHECKSIG","reqSigs":1,"type":"pubkey","addresses":["pCKW9SAQCqUGY9LAu3CZjkVaZdBvRi2DKL"]}},{"value":1250.00803235,"n":2,"scriptPubKey":{"asm":"0225f56582c0abe2781838770c5c30998678f9fa83ab5fbd05d306fd8d18795aa9 OP_CHECKSIG","reqSigs":1,"type":"pubkey","addresses":["pCKW9SAQCqUGY9LAu3CZjkVaZdBvRi2DKL"]}},{"value":0.0455158,"n":3,"scriptPubKey":{"asm":"OP_DUP OP_HASH160 13cd926daa0b2e1422cabca27e3cbc3aebbee60e OP_EQUALVERIFY OP_CHECKSIG","reqSigs":1,"type":"pubkeyhash","addresses":["p7MHJk1NCoVwVPjx7mEGWrpeSkLSYSZyuV"]}}],"blockhash":"b3291d177123c6ec1dbc7dd2640e2de7f71f0e026b7a9cdedef6d963bc700bb6","confirmations":25,"blocktime":1541440016}