{"hex":"010000000082e05b0176ab180f4c7645cff07e5fa29710dde6fe14a6e70b33f2aeba4f3a18cb9e9cd6010000006a47304402207873ad1c057f2ff4529b0e9ac10ce97bcc5699e65504a8c6cae6906f2bbc355302206009a80e33cda75eb28916c7b0665a3b8d1aaad9f4f770b0394cf42f61489575012103d58e2c169fcff717316f7255faa2e90516f73014d2ad5cd68cff9a991dbe6983ffffffff020d851b00000000001976a9141a5c381bcd27f1853c13c1e565b94de663e2f54788ac80c32b3f010000001976a9148b2e2694307e1835d9586a0b3f9ba84567720d7088ac00000000","txid":"8f49883522666ac646b96047bfcf323ad332b97ddd4edfb77d02d666fdaa6443","version":1,"time":1541440016,"locktime":0,"vin":[{"txid":"d69c9ecb183a4fbaaef2330be7a614fee6dd1097a25f7ef0cf45764c0f18ab76","vout":1,"scriptSig":{"asm":"304402207873ad1c057f2ff4529b0e9ac10ce97bcc5699e65504a8c6cae6906f2bbc355302206009a80e33cda75eb28916c7b0665a3b8d1aaad9f4f770b0394cf42f6148957501 03d58e2c169fcff717316f7255faa2e90516f73014d2ad5cd68cff9a991dbe6983","hex":"47304402207873ad1c057f2ff4529b0e9ac10ce97bcc5699e65504a8c6cae6906f2bbc355302206009a80e33cda75eb28916c7b0665a3b8d1aaad9f4f770b0394cf42f61489575012103d58e2c169fcff717316f7255faa2e90516f73014d2ad5cd68cff9a991dbe6983"},"sequence":4294967295}],"vout":[{"value":0.01803533,"n":0,"scriptPubKey":{"asm":"OP_DUP OP_HASH160 1a5c381bcd27f1853c13c1e565b94de663e2f547 OP_EQUALVERIFY OP_CHECKSIG","reqSigs":1,"type":"pubkeyhash","addresses":["p7wxFCBqJKVDJgikPfyGX7YPtivmJJHd6z"]}},{"value":53.548,"n":1,"scriptPubKey":{"asm":"OP_DUP OP_HASH160 8b2e2694307e1835d9586a0b3f9ba84567720d70 OP_EQUALVERIFY OP_CHECKSIG","reqSigs":1,"type":"pubkeyhash","addresses":["pJEVQybzJALJKoUnzCuoPjmBVuJcevaXLA"]}}],"blockhash":"b3291d177123c6ec1dbc7dd2640e2de7f71f0e026b7a9cdedef6d963bc700bb6","confirmations":25,"blocktime":1541440016}