{"hex":"01000000604adb5b01d3dfba143911378baf475616f991c5b343d58a10322ba7dcb6e53106aab9df53010000004847304402205043dc4bc2ad3c4147c513cbd5ad16f21d5ac4ef51ad8055b84219f604f47637022033959cb0b308e49f724453d3d1319408451b652872d1a4ace3cbb20bf01d6d3201ffffffff03000000000000000000034cec0b00000000232103c918da721a9564bfde1eb3e347ac352bf028a23eeafc2e69788601adb5b9dfabac775f0100000000001976a914256b9b540806ec78f3cbc6d37188a2e1504616e688ac00000000","txid":"791e9f309ebf4b8a74b348e165789d8d8b8ef12c072db7d031b46907a4f974b7","version":1,"time":1541098080,"locktime":0,"vin":[{"txid":"53dfb9aa0631e5b6dca72b32108ad543b3c591f9165647af8b37113914badfd3","vout":1,"scriptSig":{"asm":"304402205043dc4bc2ad3c4147c513cbd5ad16f21d5ac4ef51ad8055b84219f604f47637022033959cb0b308e49f724453d3d1319408451b652872d1a4ace3cbb20bf01d6d3201","hex":"47304402205043dc4bc2ad3c4147c513cbd5ad16f21d5ac4ef51ad8055b84219f604f47637022033959cb0b308e49f724453d3d1319408451b652872d1a4ace3cbb20bf01d6d3201"},"sequence":4294967295}],"vout":[{"value":0,"n":0,"scriptPubKey":{"asm":"","type":"nonstandard"}},{"value":2.00035331,"n":1,"scriptPubKey":{"asm":"03c918da721a9564bfde1eb3e347ac352bf028a23eeafc2e69788601adb5b9dfab OP_CHECKSIG","reqSigs":1,"type":"pubkey","addresses":["pK5Eddk3vr4yi7hrwuoQfuFmrHAeSuez22"]}},{"value":0.00089975,"n":2,"scriptPubKey":{"asm":"OP_DUP OP_HASH160 256b9b540806ec78f3cbc6d37188a2e1504616e6 OP_EQUALVERIFY OP_CHECKSIG","reqSigs":1,"type":"pubkeyhash","addresses":["p8xS7T8mkTz7MJV9EcYkBri1Zi12wCV83N"]}}],"blockhash":"395483325f55e34339f1dadf7a0c852f055f2d45f191432bfa17ffdbb66eaa8b","confirmations":82,"blocktime":1541098080}