{"hex":"010000005f4adb5b0170db42f67f1ac3d69be1d35a019eb923c63604c1e2b4ab279b50de3f24368ed5010000006a4730440220280d0ebeb6ce9047642f3075a5e2176fe32460344192927b39f14ccea77411e602201bba27afcba9faef6247f0cf70fcefdbf758ed46282c2f06349730369bb476df012103b167172d9acf06e6026f7d10ecaf7541f0c992cf57680e1f9e3dfedbe6e23b7cffffffff02fd129a03000000001976a9141a71e7436353aff6519fe4d4e3bbc81f74f5071188acd7344f06000000001976a914d13468a2bd2ee50b364385c8084e6e6843cb679988ac00000000","txid":"86d488fb7ffc8835e244e266f32101b1bf52e0e2dca8684da77db91f7b925669","version":1,"time":1541098080,"locktime":0,"vin":[{"txid":"d58e36243fde509b27abb4e2c10436c623b99e015ad3e19bd6c31a7ff642db70","vout":1,"scriptSig":{"asm":"30440220280d0ebeb6ce9047642f3075a5e2176fe32460344192927b39f14ccea77411e602201bba27afcba9faef6247f0cf70fcefdbf758ed46282c2f06349730369bb476df01 03b167172d9acf06e6026f7d10ecaf7541f0c992cf57680e1f9e3dfedbe6e23b7c","hex":"4730440220280d0ebeb6ce9047642f3075a5e2176fe32460344192927b39f14ccea77411e602201bba27afcba9faef6247f0cf70fcefdbf758ed46282c2f06349730369bb476df012103b167172d9acf06e6026f7d10ecaf7541f0c992cf57680e1f9e3dfedbe6e23b7c"},"sequence":4294967295}],"vout":[{"value":0.60429053,"n":0,"scriptPubKey":{"asm":"OP_DUP OP_HASH160 1a71e7436353aff6519fe4d4e3bbc81f74f50711 OP_EQUALVERIFY OP_CHECKSIG","reqSigs":1,"type":"pubkeyhash","addresses":["p7xQDqZrHtRqa4WXXqSrTwB9MWv8ZW5KxM"]}},{"value":1.05854167,"n":1,"scriptPubKey":{"asm":"OP_DUP OP_HASH160 d13468a2bd2ee50b364385c8084e6e6843cb6799 OP_EQUALVERIFY OP_CHECKSIG","reqSigs":1,"type":"pubkeyhash","addresses":["pQckDDkmeiDReKymbaUDWVCPfyzhBAHSLk"]}}],"blockhash":"395483325f55e34339f1dadf7a0c852f055f2d45f191432bfa17ffdbb66eaa8b","confirmations":82,"blocktime":1541098080}