{"hex":"0100000007a0c25b010000000000000000000000000000000000000000000000000000000000000000ffffffff04011c0103ffffffff0100000000000000001976a9143ad21bd782524d9fa5519a8fe9d7a2b9c6fab91588ac00000000","txid":"6378feaf5d7a3c826274cd8be81b9ceacd3b551366c3a8f16577846ccae79a40","version":1,"time":1539481617,"locktime":0,"vin":[{"coinbase":"011c0103","sequence":4294967295}],"vout":[{"value":0,"n":0,"scriptPubKey":{"asm":"OP_DUP OP_HASH160 3ad21bd782524d9fa5519a8fe9d7a2b9c6fab915 OP_EQUALVERIFY OP_CHECKSIG","reqSigs":1,"type":"pubkeyhash","addresses":["pAub6SiAaPTc8ioLAnuTkUB9KwLpdp4RgF"]}}],"blockhash":"000008cb414a723e46d829ddba6599f23cd8211b6aef79edf0a202f3346c8bb7","confirmations":131,"blocktime":1539481617}