{"hex":"0100000054add85b010bd599cf853b3126b427d79219ae80f5649252652b191eef21afff555656a539010000006b483045022100abd6c01807e34c130c2ea7f977284b85f1cb581f3fd7a897737e960bd152a2c2022004815604bb91c1f36916cd197d5fc46f67163f2cbaca427950ccad44cb247e4601210246db8cde215f026b9dddb6c86f92da94776c3b7fabe0629defabdb89ae2ba950ffffffff02d25ba038000000001976a914ea53010e5794c5f7ff6d60241d005f13ec647eb488ac32abf902000000001976a9144b9bc6727f0027bd00d99c5e7b44022b73769b9f88ac00000000","txid":"33032505afaaea757b3884aa38bb51c7f8db37c7ead63d4d7f964b4d189a020e","version":1,"time":1540926816,"locktime":0,"vin":[{"txid":"39a5565655ffaf21ef1e192b65529264f580ae1992d727b426313b85cf99d50b","vout":1,"scriptSig":{"asm":"3045022100abd6c01807e34c130c2ea7f977284b85f1cb581f3fd7a897737e960bd152a2c2022004815604bb91c1f36916cd197d5fc46f67163f2cbaca427950ccad44cb247e4601 0246db8cde215f026b9dddb6c86f92da94776c3b7fabe0629defabdb89ae2ba950","hex":"483045022100abd6c01807e34c130c2ea7f977284b85f1cb581f3fd7a897737e960bd152a2c2022004815604bb91c1f36916cd197d5fc46f67163f2cbaca427950ccad44cb247e4601210246db8cde215f026b9dddb6c86f92da94776c3b7fabe0629defabdb89ae2ba950"},"sequence":4294967295}],"vout":[{"value":9.50033362,"n":0,"scriptPubKey":{"asm":"OP_DUP OP_HASH160 ea53010e5794c5f7ff6d60241d005f13ec647eb4 OP_EQUALVERIFY OP_CHECKSIG","reqSigs":1,"type":"pubkeyhash","addresses":["pSuZkpc45hYfMHkjYSQvzB9ncAubKjg897"]}},{"value":0.49916722,"n":1,"scriptPubKey":{"asm":"OP_DUP OP_HASH160 4b9bc6727f0027bd00d99c5e7b44022b73769b9f OP_EQUALVERIFY OP_CHECKSIG","reqSigs":1,"type":"pubkeyhash","addresses":["pCSMVYQtCYmRSmcAWZEy4cDU8Ko4Wv54ED"]}}],"blockhash":"d93ee50e08f4418fae639fe64456f27ca4aba65491c202874c62ea57c70f4dae","confirmations":148,"blocktime":1540926816}