{"hex":"0100000060add85b0119486df7d390df0ea7297f2b45f3afaceaf17edc9f5378794b90ea599202043a0100000048473044022053f7417566af782f15a6878a218635c9ad38cf90ff6ed664faf095ef8eb2bc510220129c1d3de16f912a41beae1b1cda71e7398a27543957022267ab3592f7840cf801ffffffff03000000000000000000703ba2d1010000002321020b1cd26fc4b9f080aea1cf7b667efd5e8453f70429056589831fa7f63506ddbfacbca50000000000001976a91405799d876e3b7c328ae01baece26d0f931b0f5fa88ac00000000","txid":"51769c39b275579e1e41728bfc4c557e189ee3713f9e877132fc31111af08069","version":1,"time":1540926816,"locktime":0,"vin":[{"txid":"3a04029259ea904b7978539fdc7ef1eaacaff3452b7f29a70edf90d3f76d4819","vout":1,"scriptSig":{"asm":"3044022053f7417566af782f15a6878a218635c9ad38cf90ff6ed664faf095ef8eb2bc510220129c1d3de16f912a41beae1b1cda71e7398a27543957022267ab3592f7840cf801","hex":"473044022053f7417566af782f15a6878a218635c9ad38cf90ff6ed664faf095ef8eb2bc510220129c1d3de16f912a41beae1b1cda71e7398a27543957022267ab3592f7840cf801"},"sequence":4294967295}],"vout":[{"value":0,"n":0,"scriptPubKey":{"asm":"","type":"nonstandard"}},{"value":78.12037488,"n":1,"scriptPubKey":{"asm":"020b1cd26fc4b9f080aea1cf7b667efd5e8453f70429056589831fa7f63506ddbf OP_CHECKSIG","reqSigs":1,"type":"pubkey","addresses":["pECTDpfW4nW8hYte3f3F9ZQxwgWmBwmcYL"]}},{"value":0.00042428,"n":2,"scriptPubKey":{"asm":"OP_DUP OP_HASH160 05799d876e3b7c328ae01baece26d0f931b0f5fa OP_EQUALVERIFY OP_CHECKSIG","reqSigs":1,"type":"pubkeyhash","addresses":["p63XGeVRkcywXEQJE5bkXjJFiugf8tT1er"]}}],"blockhash":"386f96e0dfb55e5924e836370c88867f9101052f2bd8e13045723e928b1f7929","confirmations":4,"blocktime":1540926816}