{"hex":"0100000060add85b0180d9e19f3c8628b5305a25f15a5c4b75147c1a744f3c2b20ada9dbdc8dc82d310200000049483045022100d53311546206230d4461f0ecd21f6caa58e763db1e2ce855ddc99d8ddd3f3885022060fb635c2112a5e223708d37e9305e26055e95f2ee7b157296de5520c642edd501ffffffff040000000000000000008028a54607000000232102c70f997963ce3f3ea88266ee3e0c833058cd21ae02eae02cd993b9664c686d89ac7651a54607000000232102c70f997963ce3f3ea88266ee3e0c833058cd21ae02eae02cd993b9664c686d89acbca50000000000001976a914b9f3d781f7d99f65d068998a288759e0a638d31288ac00000000","txid":"933654358d7189e922990593e42d0f81349f05553683e49a95c0334f00859034","version":1,"time":1540926816,"locktime":0,"vin":[{"txid":"312dc88ddcdba9ad202b3c4f741a7c14754b5c5af1255a30b528863c9fe1d980","vout":2,"scriptSig":{"asm":"3045022100d53311546206230d4461f0ecd21f6caa58e763db1e2ce855ddc99d8ddd3f3885022060fb635c2112a5e223708d37e9305e26055e95f2ee7b157296de5520c642edd501","hex":"483045022100d53311546206230d4461f0ecd21f6caa58e763db1e2ce855ddc99d8ddd3f3885022060fb635c2112a5e223708d37e9305e26055e95f2ee7b157296de5520c642edd501"},"sequence":4294967295}],"vout":[{"value":0,"n":0,"scriptPubKey":{"asm":"","type":"nonstandard"}},{"value":312.5,"n":1,"scriptPubKey":{"asm":"02c70f997963ce3f3ea88266ee3e0c833058cd21ae02eae02cd993b9664c686d89 OP_CHECKSIG","reqSigs":1,"type":"pubkey","addresses":["pTQJsZTT2bpmhnKWdT3rdczVS5MaBuXxyB"]}},{"value":312.50010486,"n":2,"scriptPubKey":{"asm":"02c70f997963ce3f3ea88266ee3e0c833058cd21ae02eae02cd993b9664c686d89 OP_CHECKSIG","reqSigs":1,"type":"pubkey","addresses":["pTQJsZTT2bpmhnKWdT3rdczVS5MaBuXxyB"]}},{"value":0.00042428,"n":3,"scriptPubKey":{"asm":"OP_DUP OP_HASH160 b9f3d781f7d99f65d068998a288759e0a638d312 OP_EQUALVERIFY OP_CHECKSIG","reqSigs":1,"type":"pubkeyhash","addresses":["pNVoKczQ6P92yawDZejgg9H8khMTR2Sf2j"]}}],"blockhash":"d93ee50e08f4418fae639fe64456f27ca4aba65491c202874c62ea57c70f4dae","confirmations":148,"blocktime":1540926816}