{"hex":"010000007033db5b014535441a216e15b724f485abb776b01555029c57d09d17af3992a035d1752c7c010000006b483045022100c6cfa629862af688561fba4717d621cf4354a62afcb48b18149f0b8e4036c27e02206fc321250117d60b0d4a43aa7865df099180de795e049c58cdeb5f190b8a37660121021619ee7c3f70d086d2ae99b3034078ad351d6c5422bd21a5d1c60184bbe193cdffffffff02177dd316010000001976a91413e1d8d319ecae4272ecd1fdcadd594169a0edfe88ac0065cd1d000000001976a914a9faf637a7bd38ab6c60fff6392b2be6e998289388ac00000000","txid":"2e3b84b57bf0ca7eabfc69141b70bc2a9d34855e2a2c84e0a2d615f7ce1eeb09","version":1,"time":1541092224,"locktime":0,"vin":[{"txid":"7c2c75d135a09239af179dd0579c025515b076b7ab85f424b7156e211a443545","vout":1,"scriptSig":{"asm":"3045022100c6cfa629862af688561fba4717d621cf4354a62afcb48b18149f0b8e4036c27e02206fc321250117d60b0d4a43aa7865df099180de795e049c58cdeb5f190b8a376601 021619ee7c3f70d086d2ae99b3034078ad351d6c5422bd21a5d1c60184bbe193cd","hex":"483045022100c6cfa629862af688561fba4717d621cf4354a62afcb48b18149f0b8e4036c27e02206fc321250117d60b0d4a43aa7865df099180de795e049c58cdeb5f190b8a37660121021619ee7c3f70d086d2ae99b3034078ad351d6c5422bd21a5d1c60184bbe193cd"},"sequence":4294967295}],"vout":[{"value":46.77926167,"n":0,"scriptPubKey":{"asm":"OP_DUP OP_HASH160 13e1d8d319ecae4272ecd1fdcadd594169a0edfe OP_EQUALVERIFY OP_CHECKSIG","reqSigs":1,"type":"pubkeyhash","addresses":["p7MhbUPMpTmaiUdYbiz6QL3dD54MCU1WBm"]}},{"value":5,"n":1,"scriptPubKey":{"asm":"OP_DUP OP_HASH160 a9faf637a7bd38ab6c60fff6392b2be6e9982893 OP_EQUALVERIFY OP_CHECKSIG","reqSigs":1,"type":"pubkeyhash","addresses":["pM3M3Fmq5SJjt6eCNTjm5p2Vv4L7NyfgED"]}}],"blockhash":"55fcf507d29a235a00f9bfbe1ea090b531bc6820fc14a7874e9efa5f7e6e679a","confirmations":92,"blocktime":1541092224}