{"hex":"010000008033db5b0131c180abbd08ac682b82d808302544807ce4e0d28ac6c46170b893d88504a8760100000048473044022067e674129aa3099e9326961f05ce44050476c3dde441c1db1eefc590a2e4198a02200ee1fe63206ee34658a7f7f85ebb52b50e31bf35dd679717b40d55c54c8262a201ffffffff03000000000000000000f8cda2d1010000002321020b1cd26fc4b9f080aea1cf7b667efd5e8453f70429056589831fa7f63506ddbfac287c0600000000001976a914239bf4dba7e2193b7f701a7b68d0e94c85d85fac88ac00000000","txid":"88c4e86977384fa039908fcab9351dfd5943d753924a3391a46160ae26b10650","version":1,"time":1541092224,"locktime":0,"vin":[{"txid":"76a80485d893b87061c4c68ad2e0e47c8044253008d8822b68ac08bdab80c131","vout":1,"scriptSig":{"asm":"3044022067e674129aa3099e9326961f05ce44050476c3dde441c1db1eefc590a2e4198a02200ee1fe63206ee34658a7f7f85ebb52b50e31bf35dd679717b40d55c54c8262a201","hex":"473044022067e674129aa3099e9326961f05ce44050476c3dde441c1db1eefc590a2e4198a02200ee1fe63206ee34658a7f7f85ebb52b50e31bf35dd679717b40d55c54c8262a201"},"sequence":4294967295}],"vout":[{"value":0,"n":0,"scriptPubKey":{"asm":"","type":"nonstandard"}},{"value":78.12075,"n":1,"scriptPubKey":{"asm":"020b1cd26fc4b9f080aea1cf7b667efd5e8453f70429056589831fa7f63506ddbf OP_CHECKSIG","reqSigs":1,"type":"pubkey","addresses":["pECTDpfW4nW8hYte3f3F9ZQxwgWmBwmcYL"]}},{"value":0.00425,"n":2,"scriptPubKey":{"asm":"OP_DUP OP_HASH160 239bf4dba7e2193b7f701a7b68d0e94c85d85fac OP_EQUALVERIFY OP_CHECKSIG","reqSigs":1,"type":"pubkeyhash","addresses":["p8nrgTxTfKDC3hvmSmFxDcxpYguUCo8yWb"]}}],"blockhash":"55fcf507d29a235a00f9bfbe1ea090b531bc6820fc14a7874e9efa5f7e6e679a","confirmations":92,"blocktime":1541092224}