{"hex":"01000000c01fd75b01c4b4e88cbcfe57be324e67caac219a0e1943a600b06645936234575ba35409250100000049483045022100989ca8b2bd1a20c8b93c192988570569c85b7695fdbd6664253a8d98819a128402204357d4da79330d0371da6a241b585075e199c71129b6bd081d36a19a3a5f44d301ffffffff03000000000000000000fda9a1d1010000002321020b1cd26fc4b9f080aea1cf7b667efd5e8453f70429056589831fa7f63506ddbfac96050000000000001976a91497cf81798c9f5e48463f6e018e82c7f5d25f8e4c88ac00000000","txid":"02ef5f259296a2923ec5aaf2ed91d8d4a471bf4fc4978af9c7b3b79606a1a054","version":1,"time":1540825024,"locktime":0,"vin":[{"txid":"250954a35b573462934566b000a643190e9a21acca674e32be57febc8ce8b4c4","vout":1,"scriptSig":{"asm":"3045022100989ca8b2bd1a20c8b93c192988570569c85b7695fdbd6664253a8d98819a128402204357d4da79330d0371da6a241b585075e199c71129b6bd081d36a19a3a5f44d301","hex":"483045022100989ca8b2bd1a20c8b93c192988570569c85b7695fdbd6664253a8d98819a128402204357d4da79330d0371da6a241b585075e199c71129b6bd081d36a19a3a5f44d301"},"sequence":4294967295}],"vout":[{"value":0,"n":0,"scriptPubKey":{"asm":"","type":"nonstandard"}},{"value":78.12000253,"n":1,"scriptPubKey":{"asm":"020b1cd26fc4b9f080aea1cf7b667efd5e8453f70429056589831fa7f63506ddbf OP_CHECKSIG","reqSigs":1,"type":"pubkey","addresses":["pECTDpfW4nW8hYte3f3F9ZQxwgWmBwmcYL"]}},{"value":0.0000143,"n":2,"scriptPubKey":{"asm":"OP_DUP OP_HASH160 97cf81798c9f5e48463f6e018e82c7f5d25f8e4c OP_EQUALVERIFY OP_CHECKSIG","reqSigs":1,"type":"pubkeyhash","addresses":["pKPGpRbrLFtB8pJLBr7nVTxsjHpfbwG83K"]}}],"blockhash":"158c5813b78e570b95a3a33492396c550472e3f6eac4bdf038a56b9827b51d00","confirmations":197,"blocktime":1540825024}