{"hex":"01000000b11fd75b02df6c26ff88a218ff3a194cd140ac914abf3d1c09845fac9e76192bde392a0e4d010000006a47304402200b13b8b241c9390001754c5cd6f41f8a960ba4ae48f9cc57cf4b8fa4888644ac0220414d771016c80525307c6ca34fb74d1c237fe4b8a70fccee0c450156c540629a01210327b54b594f4c02cbf71e1c57e7cf6755ab33f8bfa835b226c08b49e5f507c103ffffffff80a5ec488276ca18366e05a0dedd7cfa9f1363adc7576c76e6a971a953eab9ed010000006b483045022100ea9d9036911d241c0a6c46feae05aa7d2dbb7d8bcffbd2107d6f1423636a66fb022042ef5514817f8771bd75a3c2d886fb5ad07188a33c94509750b74ac639bb4c200121030f8c27d70db724ce0492dbb655a613ed01e9c4eb914b61f463ca31508894af8effffffff0209c31000000000001976a9144c28ee798243702bc4500cdb4da9004130bb47f688ac43b01900000000001976a914ffba47088896d33e0211fe91473ea3b32687015588ac00000000","txid":"c31bd8d9e7b10f25b73428936c7bd0c0519c2df11957e88fcd29ab3c7ae9d234","version":1,"time":1540825024,"locktime":0,"vin":[{"txid":"4d0e2a39de2b19769eac5f84091c3dbf4a91ac40d14c193aff18a288ff266cdf","vout":1,"scriptSig":{"asm":"304402200b13b8b241c9390001754c5cd6f41f8a960ba4ae48f9cc57cf4b8fa4888644ac0220414d771016c80525307c6ca34fb74d1c237fe4b8a70fccee0c450156c540629a01 0327b54b594f4c02cbf71e1c57e7cf6755ab33f8bfa835b226c08b49e5f507c103","hex":"47304402200b13b8b241c9390001754c5cd6f41f8a960ba4ae48f9cc57cf4b8fa4888644ac0220414d771016c80525307c6ca34fb74d1c237fe4b8a70fccee0c450156c540629a01210327b54b594f4c02cbf71e1c57e7cf6755ab33f8bfa835b226c08b49e5f507c103"},"sequence":4294967295},{"txid":"edb9ea53a971a9e6766c57c7ad63139ffa7cdddea0056e3618ca768248eca580","vout":1,"scriptSig":{"asm":"3045022100ea9d9036911d241c0a6c46feae05aa7d2dbb7d8bcffbd2107d6f1423636a66fb022042ef5514817f8771bd75a3c2d886fb5ad07188a33c94509750b74ac639bb4c2001 030f8c27d70db724ce0492dbb655a613ed01e9c4eb914b61f463ca31508894af8e","hex":"483045022100ea9d9036911d241c0a6c46feae05aa7d2dbb7d8bcffbd2107d6f1423636a66fb022042ef5514817f8771bd75a3c2d886fb5ad07188a33c94509750b74ac639bb4c200121030f8c27d70db724ce0492dbb655a613ed01e9c4eb914b61f463ca31508894af8e"},"sequence":4294967295}],"vout":[{"value":0.01098505,"n":0,"scriptPubKey":{"asm":"OP_DUP OP_HASH160 4c28ee798243702bc4500cdb4da9004130bb47f6 OP_EQUALVERIFY OP_CHECKSIG","reqSigs":1,"type":"pubkeyhash","addresses":["pCVGbFvFLapGyskXvwfxG2ss21bRU9FqUh"]}},{"value":0.01683523,"n":1,"scriptPubKey":{"asm":"OP_DUP OP_HASH160 ffba47088896d33e0211fe91473ea3b326870155 OP_EQUALVERIFY OP_CHECKSIG","reqSigs":1,"type":"pubkeyhash","addresses":["pUrjfQd62xa3BdXsq5QTrfe1yUp8tqybwA"]}}],"blockhash":"158c5813b78e570b95a3a33492396c550472e3f6eac4bdf038a56b9827b51d00","confirmations":197,"blocktime":1540825024}