{"hex":"01000000b088d85b0112376613d41731b036659a834760c9fba3738a28d89b698ad26943bddfa1d2610100000048473044022036be238edb4c3f9f463d2b8947d8c30f901b6dc85093bafaf5918f9b16fb67ec02207412498c4557c196842001a37abddef828db417c3a26e40dd9ddee15958681d301ffffffff0300000000000000000018a76bd3010000002321020b1cd26fc4b9f080aea1cf7b667efd5e8453f70429056589831fa7f63506ddbfac084c0100000000001976a914b9f3d781f7d99f65d068998a288759e0a638d31288ac00000000","txid":"4dea79d3d998659261bab3236550c8887cbf5cb4d5eae81bf9452e910b848208","version":1,"time":1540917424,"locktime":0,"vin":[{"txid":"61d2a1dfbd4369d28a699bd8288a73a3fbc96047839a6536b03117d413663712","vout":1,"scriptSig":{"asm":"3044022036be238edb4c3f9f463d2b8947d8c30f901b6dc85093bafaf5918f9b16fb67ec02207412498c4557c196842001a37abddef828db417c3a26e40dd9ddee15958681d301","hex":"473044022036be238edb4c3f9f463d2b8947d8c30f901b6dc85093bafaf5918f9b16fb67ec02207412498c4557c196842001a37abddef828db417c3a26e40dd9ddee15958681d301"},"sequence":4294967295}],"vout":[{"value":0,"n":0,"scriptPubKey":{"asm":"","type":"nonstandard"}},{"value":78.42015,"n":1,"scriptPubKey":{"asm":"020b1cd26fc4b9f080aea1cf7b667efd5e8453f70429056589831fa7f63506ddbf OP_CHECKSIG","reqSigs":1,"type":"pubkey","addresses":["pECTDpfW4nW8hYte3f3F9ZQxwgWmBwmcYL"]}},{"value":0.00085,"n":2,"scriptPubKey":{"asm":"OP_DUP OP_HASH160 b9f3d781f7d99f65d068998a288759e0a638d312 OP_EQUALVERIFY OP_CHECKSIG","reqSigs":1,"type":"pubkeyhash","addresses":["pNVoKczQ6P92yawDZejgg9H8khMTR2Sf2j"]}}],"blockhash":"fda77ec2fdac2a084cec9eb0d5f6d6db6f3cdafaf40a9150b5e4ae0ef3126fbe","confirmations":155,"blocktime":1540917424}