{"hex":"01000000a788d85b01b49bf448516f02470de61afdd1afebb2979e0451d2094dd9e79220abaab2dec5000000006b483045022100da051dbe08fc91642b1fda680bb0381c43a9f5ea82d9f1382b3491e7dbe3a5c7022074d49ffb5f0ed7778e695bcefcbc0fb441c54afb87838b666c1c986811699871012102e4f094da1a0b1e9308f3fd0b3bce46ce81064b29f684d356845cb8d901875b61ffffffff02c095de11000000001976a914a64ceb2f108f2a9f643cbf75574e3d56e36df57388ac00e1f505000000001976a9144c28ee798243702bc4500cdb4da9004130bb47f688ac00000000","txid":"b3b4d19de4f4f60ea39075aec32b6d2361d7528255f1f375d8260806ce9e7ca7","version":1,"time":1540917424,"locktime":0,"vin":[{"txid":"c5deb2aaab2092e7d94d09d251049e97b2ebafd1fd1ae60d47026f5148f49bb4","vout":0,"scriptSig":{"asm":"3045022100da051dbe08fc91642b1fda680bb0381c43a9f5ea82d9f1382b3491e7dbe3a5c7022074d49ffb5f0ed7778e695bcefcbc0fb441c54afb87838b666c1c98681169987101 02e4f094da1a0b1e9308f3fd0b3bce46ce81064b29f684d356845cb8d901875b61","hex":"483045022100da051dbe08fc91642b1fda680bb0381c43a9f5ea82d9f1382b3491e7dbe3a5c7022074d49ffb5f0ed7778e695bcefcbc0fb441c54afb87838b666c1c986811699871012102e4f094da1a0b1e9308f3fd0b3bce46ce81064b29f684d356845cb8d901875b61"},"sequence":4294967295}],"vout":[{"value":2.998,"n":0,"scriptPubKey":{"asm":"OP_DUP OP_HASH160 a64ceb2f108f2a9f643cbf75574e3d56e36df573 OP_EQUALVERIFY OP_CHECKSIG","reqSigs":1,"type":"pubkeyhash","addresses":["pLhtWxFg8J4WnB8jkNtLedGgbg2DMEtHXn"]}},{"value":1,"n":1,"scriptPubKey":{"asm":"OP_DUP OP_HASH160 4c28ee798243702bc4500cdb4da9004130bb47f6 OP_EQUALVERIFY OP_CHECKSIG","reqSigs":1,"type":"pubkeyhash","addresses":["pCVGbFvFLapGyskXvwfxG2ss21bRU9FqUh"]}}],"blockhash":"fda77ec2fdac2a084cec9eb0d5f6d6db6f3cdafaf40a9150b5e4ae0ef3126fbe","confirmations":155,"blocktime":1540917424}