{"hex":"010000009f17db5b07172f81d0a1d047011b48df88f323a8c62a7c785fc9c9631481de1c0ab7afdcbf000000006a47304402204da89833e9f897b716ea61cfcbef6ad1dbea9c37bb6f614f355a7334f1c58d5e022015a7ccc582bd56c8f2d0f83c4a9fa0ac3958b5c903fedb2ae5644a42f71a307e012102e28d599502214adfcdb37e393387762e8a7855d7d730b41b0f5b0d358bbb1c1cffffffff172f81d0a1d047011b48df88f323a8c62a7c785fc9c9631481de1c0ab7afdcbf010000006a47304402203da122ca1bce50044d4db97199e3f8007781602a88066abf5de81ea2e6bd4cf3022036df43c30fb43f848972347990b74f5038cf08874ff66de432de25ed5e6834d20121031d71811f406221307030da41835e602fb91c77ce488dab027d8464a624d6ce40ffffffff5e0786ad98fafc46c930e95e26961fbe12e46278ea1f02e5196ecf3397eb06d6000000006a47304402203fbca061f88b64f66a765c2d99256cbcee59f08a988ee1a51ded412c04d8906a02207f000155c398839bd4f89180a8e012e2c9e2ad36677dadd3bb1f7291f8fbfbf2012102a4e0f962ff9e214e2337955046408c313e98d596db775884ee01c90d1ac8c378ffffffff199f6813162d6292a1cc89e27f8b0916a50b557a68114850250f35b466f8c4ad000000006946304302207f61408b3a12bfdbf711f5b98862c4895d17a97b7d9f1bd99da3f4c23a29cfe1021f4a56c65a7d5bff4025e24f1ca893f4591f367e2ea6f3dbc5011d21750ea8f0012102e28d599502214adfcdb37e393387762e8a7855d7d730b41b0f5b0d358bbb1c1cfffffffffd5f915d72df4e8a2ed05e475a68d6ea9227f92621536f8abdddb46c395908fe000000006b483045022100cf7c58d4eb44454a15f58e12508c4e654973c8aabbebbaf1138f215c2a5bb88802201bc0f43f370a9fa5cf744a5c09d94000de6b15484359fc440051682719e5fc37012102b901875fb71c73435d3926d4b622e293728009ddc499141381a8da919e1ed4e2fffffffffd5f915d72df4e8a2ed05e475a68d6ea9227f92621536f8abdddb46c395908fe010000006a47304402206fccfc7abe662994713f8e9c62b3fde76128700e50ab7e63b442dbb992fa824d022011982db80680a3041c1ea257e8fec3859808ce032c5b1c1e3a29630f0c9efa4c0121027212f6089dd544e8518c4e8b751cf52053c83db839fd130c60d2489e7952000fffffffff54ad864710d7674a38a34211532f7321a35e950f83ee8c806d9a1fd9da05f8f5000000006a473044022032bc20cb6e26c089852073a50ca23eabebaa6f5d3a8e736d47c2936d353d757702203839c216ba7f4169ccd18bb9e5714b256bf680e0252b59fd7161767f2b7e757301210254c556664adb6a9005a3d45991b13d858d5b16cbe35d069e276e8658d514ac43ffffffff025d171100000000001976a914d5ff0c2401564452d5eb951bd7fc943cc8f3daae88aca4cad513000000001976a9142c4a20c26c8365f2b1569362c6e97a2028c652a488ac00000000","txid":"3c4b88d9ce3a4579cf8dfc5515334343b9f3c2b86cdc4934ad0a05d5a3634ced","version":1,"time":1541085104,"locktime":0,"vin":[{"txid":"bfdcafb70a1cde811463c9c95f787c2ac6a823f388df481b0147d0a1d0812f17","vout":0,"scriptSig":{"asm":"304402204da89833e9f897b716ea61cfcbef6ad1dbea9c37bb6f614f355a7334f1c58d5e022015a7ccc582bd56c8f2d0f83c4a9fa0ac3958b5c903fedb2ae5644a42f71a307e01 02e28d599502214adfcdb37e393387762e8a7855d7d730b41b0f5b0d358bbb1c1c","hex":"47304402204da89833e9f897b716ea61cfcbef6ad1dbea9c37bb6f614f355a7334f1c58d5e022015a7ccc582bd56c8f2d0f83c4a9fa0ac3958b5c903fedb2ae5644a42f71a307e012102e28d599502214adfcdb37e393387762e8a7855d7d730b41b0f5b0d358bbb1c1c"},"sequence":4294967295},{"txid":"bfdcafb70a1cde811463c9c95f787c2ac6a823f388df481b0147d0a1d0812f17","vout":1,"scriptSig":{"asm":"304402203da122ca1bce50044d4db97199e3f8007781602a88066abf5de81ea2e6bd4cf3022036df43c30fb43f848972347990b74f5038cf08874ff66de432de25ed5e6834d201 031d71811f406221307030da41835e602fb91c77ce488dab027d8464a624d6ce40","hex":"47304402203da122ca1bce50044d4db97199e3f8007781602a88066abf5de81ea2e6bd4cf3022036df43c30fb43f848972347990b74f5038cf08874ff66de432de25ed5e6834d20121031d71811f406221307030da41835e602fb91c77ce488dab027d8464a624d6ce40"},"sequence":4294967295},{"txid":"d606eb9733cf6e19e5021fea7862e412be1f96265ee930c946fcfa98ad86075e","vout":0,"scriptSig":{"asm":"304402203fbca061f88b64f66a765c2d99256cbcee59f08a988ee1a51ded412c04d8906a02207f000155c398839bd4f89180a8e012e2c9e2ad36677dadd3bb1f7291f8fbfbf201 02a4e0f962ff9e214e2337955046408c313e98d596db775884ee01c90d1ac8c378","hex":"47304402203fbca061f88b64f66a765c2d99256cbcee59f08a988ee1a51ded412c04d8906a02207f000155c398839bd4f89180a8e012e2c9e2ad36677dadd3bb1f7291f8fbfbf2012102a4e0f962ff9e214e2337955046408c313e98d596db775884ee01c90d1ac8c378"},"sequence":4294967295},{"txid":"adc4f866b4350f25504811687a550ba516098b7fe289cca192622d1613689f19","vout":0,"scriptSig":{"asm":"304302207f61408b3a12bfdbf711f5b98862c4895d17a97b7d9f1bd99da3f4c23a29cfe1021f4a56c65a7d5bff4025e24f1ca893f4591f367e2ea6f3dbc5011d21750ea8f001 02e28d599502214adfcdb37e393387762e8a7855d7d730b41b0f5b0d358bbb1c1c","hex":"46304302207f61408b3a12bfdbf711f5b98862c4895d17a97b7d9f1bd99da3f4c23a29cfe1021f4a56c65a7d5bff4025e24f1ca893f4591f367e2ea6f3dbc5011d21750ea8f0012102e28d599502214adfcdb37e393387762e8a7855d7d730b41b0f5b0d358bbb1c1c"},"sequence":4294967295},{"txid":"fe0859396cb4ddbd8a6f532126f92792ead6685a475ed02e8a4edf725d915ffd","vout":0,"scriptSig":{"asm":"3045022100cf7c58d4eb44454a15f58e12508c4e654973c8aabbebbaf1138f215c2a5bb88802201bc0f43f370a9fa5cf744a5c09d94000de6b15484359fc440051682719e5fc3701 02b901875fb71c73435d3926d4b622e293728009ddc499141381a8da919e1ed4e2","hex":"483045022100cf7c58d4eb44454a15f58e12508c4e654973c8aabbebbaf1138f215c2a5bb88802201bc0f43f370a9fa5cf744a5c09d94000de6b15484359fc440051682719e5fc37012102b901875fb71c73435d3926d4b622e293728009ddc499141381a8da919e1ed4e2"},"sequence":4294967295},{"txid":"fe0859396cb4ddbd8a6f532126f92792ead6685a475ed02e8a4edf725d915ffd","vout":1,"scriptSig":{"asm":"304402206fccfc7abe662994713f8e9c62b3fde76128700e50ab7e63b442dbb992fa824d022011982db80680a3041c1ea257e8fec3859808ce032c5b1c1e3a29630f0c9efa4c01 027212f6089dd544e8518c4e8b751cf52053c83db839fd130c60d2489e7952000f","hex":"47304402206fccfc7abe662994713f8e9c62b3fde76128700e50ab7e63b442dbb992fa824d022011982db80680a3041c1ea257e8fec3859808ce032c5b1c1e3a29630f0c9efa4c0121027212f6089dd544e8518c4e8b751cf52053c83db839fd130c60d2489e7952000f"},"sequence":4294967295},{"txid":"f5f805dad91f9a6d808cee830f955ea321732f531142a3384a67d7104786ad54","vout":0,"scriptSig":{"asm":"3044022032bc20cb6e26c089852073a50ca23eabebaa6f5d3a8e736d47c2936d353d757702203839c216ba7f4169ccd18bb9e5714b256bf680e0252b59fd7161767f2b7e757301 0254c556664adb6a9005a3d45991b13d858d5b16cbe35d069e276e8658d514ac43","hex":"473044022032bc20cb6e26c089852073a50ca23eabebaa6f5d3a8e736d47c2936d353d757702203839c216ba7f4169ccd18bb9e5714b256bf680e0252b59fd7161767f2b7e757301210254c556664adb6a9005a3d45991b13d858d5b16cbe35d069e276e8658d514ac43"},"sequence":4294967295}],"vout":[{"value":0.01120093,"n":0,"scriptPubKey":{"asm":"OP_DUP OP_HASH160 d5ff0c2401564452d5eb951bd7fc943cc8f3daae OP_EQUALVERIFY OP_CHECKSIG","reqSigs":1,"type":"pubkeyhash","addresses":["pR45fa5aLgznfFPjnJXbPczSk1W3SJu3QG"]}},{"value":3.32778148,"n":1,"scriptPubKey":{"asm":"OP_DUP OP_HASH160 2c4a20c26c8365f2b1569362c6e97a2028c652a4 OP_EQUALVERIFY OP_CHECKSIG","reqSigs":1,"type":"pubkeyhash","addresses":["p9akjeWTEeJr2KTurTAKanzcM81jdHoMzs"]}}],"blockhash":"542d503cede7147a9cc274fe2cc1a82eb70f4140acfca7992e35920cabe2f804","confirmations":107,"blocktime":1541085104}