{"hex":"01000000b017db5b01f1dc5f9de747c6d53983df82ced06f49cf4884764cedc1d0c643309857586eb5010000006a473044022031d6583966fcceddce905c7ac5cb3d2b874a909b8b579ae1fcae3d20783b106702205479dfce59859b34bea233ec9000e977dc16e853a3711b6a9811923fa9bc5f78012103b243e492fed06b260d1c6384b7578d20f178d778b69bc3ca5028e941e4ef64acffffffff04000000000000000000004429353a000000232103b243e492fed06b260d1c6384b7578d20f178d778b69bc3ca5028e941e4ef64acacfd062a353a000000232103b243e492fed06b260d1c6384b7578d20f178d778b69bc3ca5028e941e4ef64acaced500400000000001976a914b4297f2bb1ec22148c170ab2f943e6826c4d831d88ac00000000","txid":"c87df369375cc091151ce412e8187bd7a3476114c84c88b9b29f971e44239d3b","version":1,"time":1541085104,"locktime":0,"vin":[{"txid":"b56e5857983043c6d0c1ed4c768448cf496fd0ce82df8339d5c647e79d5fdcf1","vout":1,"scriptSig":{"asm":"3044022031d6583966fcceddce905c7ac5cb3d2b874a909b8b579ae1fcae3d20783b106702205479dfce59859b34bea233ec9000e977dc16e853a3711b6a9811923fa9bc5f7801 03b243e492fed06b260d1c6384b7578d20f178d778b69bc3ca5028e941e4ef64ac","hex":"473044022031d6583966fcceddce905c7ac5cb3d2b874a909b8b579ae1fcae3d20783b106702205479dfce59859b34bea233ec9000e977dc16e853a3711b6a9811923fa9bc5f78012103b243e492fed06b260d1c6384b7578d20f178d778b69bc3ca5028e941e4ef64ac"},"sequence":4294967295}],"vout":[{"value":0,"n":0,"scriptPubKey":{"asm":"","type":"nonstandard"}},{"value":2500,"n":1,"scriptPubKey":{"asm":"03b243e492fed06b260d1c6384b7578d20f178d778b69bc3ca5028e941e4ef64ac OP_CHECKSIG","reqSigs":1,"type":"pubkey","addresses":["pU498g2Tze2KypwgCnomJXchMWH8HXyZb6"]}},{"value":2500.00049917,"n":2,"scriptPubKey":{"asm":"03b243e492fed06b260d1c6384b7578d20f178d778b69bc3ca5028e941e4ef64ac OP_CHECKSIG","reqSigs":1,"type":"pubkey","addresses":["pU498g2Tze2KypwgCnomJXchMWH8HXyZb6"]}},{"value":0.00282861,"n":3,"scriptPubKey":{"asm":"OP_DUP OP_HASH160 b4297f2bb1ec22148c170ab2f943e6826c4d831d OP_EQUALVERIFY OP_CHECKSIG","reqSigs":1,"type":"pubkeyhash","addresses":["pMyBYUpcH3ehvzacvgmtahza4iSykvMcUD"]}}],"blockhash":"542d503cede7147a9cc274fe2cc1a82eb70f4140acfca7992e35920cabe2f804","confirmations":107,"blocktime":1541085104}