{"hex":"010000004a85e05b014364aafd66d6027db7df4edd7db932d33a32cfbf4760b946c66a66223588498f010000006b48304502210082e7471daf15576b0b248b1cd8dbd5470cc5188de5d6b0ae310bb75508c685a2022043429d0fc707fd5a08fcf1bd3dfc2d16e73d2eeab2d62a5ceed856c9a049b022012103012fce90c7770e2b70c2ddc94af755af07107092ea86b4de1b32930f3360c297ffffffff0239543e35010000001976a914b39f1f9e7e3e81b8b0570d742706ddc04530c90488ac52e5ea09000000001976a91429f9ed442fedac2f6c1389c8182eb901096d987688ac00000000","txid":"5daf5adeb5d2c14207fe864fc0c9f8d6b79bbe0a438676d4656100975c483936","version":1,"time":1541440848,"locktime":0,"vin":[{"txid":"8f49883522666ac646b96047bfcf323ad332b97ddd4edfb77d02d666fdaa6443","vout":1,"scriptSig":{"asm":"304502210082e7471daf15576b0b248b1cd8dbd5470cc5188de5d6b0ae310bb75508c685a2022043429d0fc707fd5a08fcf1bd3dfc2d16e73d2eeab2d62a5ceed856c9a049b02201 03012fce90c7770e2b70c2ddc94af755af07107092ea86b4de1b32930f3360c297","hex":"48304502210082e7471daf15576b0b248b1cd8dbd5470cc5188de5d6b0ae310bb75508c685a2022043429d0fc707fd5a08fcf1bd3dfc2d16e73d2eeab2d62a5ceed856c9a049b022012103012fce90c7770e2b70c2ddc94af755af07107092ea86b4de1b32930f3360c297"},"sequence":4294967295}],"vout":[{"value":51.88244537,"n":0,"scriptPubKey":{"asm":"OP_DUP OP_HASH160 b39f1f9e7e3e81b8b0570d742706ddc04530c904 OP_EQUALVERIFY OP_CHECKSIG","reqSigs":1,"type":"pubkeyhash","addresses":["pMvKn8zeR54hhDQC6Ftiggwui9EpbzMqXF"]}},{"value":1.66389074,"n":1,"scriptPubKey":{"asm":"OP_DUP OP_HASH160 29f9ed442fedac2f6c1389c8182eb901096d9876 OP_EQUALVERIFY OP_CHECKSIG","reqSigs":1,"type":"pubkeyhash","addresses":["p9NXJnopjYgprAaT8T5uwohP52pvokgZo3"]}}],"blockhash":"cf3d2a898966c43f5d7a96b95db196f0b1337555a4034c1bcff8dd8a334a09b7","confirmations":24,"blocktime":1541440848}