{"hex":"010000005085e05b018f54368c1f1313035d29bccfe90a94290f52d278c8caffa4749b289e7726d5880100000048473044022056c01f45279c4787b6685275f5744b916c0cd16ae498084388aa8b2a9bec98cb02206f1bcb6f92fd7f74498e5230261bca09d72fe73cbdab97412850ab1621baa42501ffffffff0400000000000000000000514a8d0e00000023210225f56582c0abe2781838770c5c30998678f9fa83ab5fbd05d306fd8d18795aa9ac7fb24a8d0e00000023210225f56582c0abe2781838770c5c30998678f9fa83ab5fbd05d306fd8d18795aa9ac76280200000000001976a914b281632e032cac99462bf7779521442a307c52a088ac00000000","txid":"ab56f03f069de68ce17308532ac2cb73a662be8aab47f6d7e80f53f86791f198","version":1,"time":1541440848,"locktime":0,"vin":[{"txid":"88d526779e289b74a4ffcac878d2520f29940ae9cfbc295d0313131f8c36548f","vout":1,"scriptSig":{"asm":"3044022056c01f45279c4787b6685275f5744b916c0cd16ae498084388aa8b2a9bec98cb02206f1bcb6f92fd7f74498e5230261bca09d72fe73cbdab97412850ab1621baa42501","hex":"473044022056c01f45279c4787b6685275f5744b916c0cd16ae498084388aa8b2a9bec98cb02206f1bcb6f92fd7f74498e5230261bca09d72fe73cbdab97412850ab1621baa42501"},"sequence":4294967295}],"vout":[{"value":0,"n":0,"scriptPubKey":{"asm":"","type":"nonstandard"}},{"value":625,"n":1,"scriptPubKey":{"asm":"0225f56582c0abe2781838770c5c30998678f9fa83ab5fbd05d306fd8d18795aa9 OP_CHECKSIG","reqSigs":1,"type":"pubkey","addresses":["pCKW9SAQCqUGY9LAu3CZjkVaZdBvRi2DKL"]}},{"value":625.00024959,"n":2,"scriptPubKey":{"asm":"0225f56582c0abe2781838770c5c30998678f9fa83ab5fbd05d306fd8d18795aa9 OP_CHECKSIG","reqSigs":1,"type":"pubkey","addresses":["pCKW9SAQCqUGY9LAu3CZjkVaZdBvRi2DKL"]}},{"value":0.0014143,"n":3,"scriptPubKey":{"asm":"OP_DUP OP_HASH160 b281632e032cac99462bf7779521442a307c52a0 OP_EQUALVERIFY OP_CHECKSIG","reqSigs":1,"type":"pubkeyhash","addresses":["pMpRUr5SqF4SLREGfNjMyHwaGCi3EHeLR1"]}}],"blockhash":"cf3d2a898966c43f5d7a96b95db196f0b1337555a4034c1bcff8dd8a334a09b7","confirmations":24,"blocktime":1541440848}