{"hex":"01000000d0e7d15b021ad329f4a5e2c29ca91b5b40f75ff4e647171241ec6681f1f8c580098c9f784a030000006b483045022100d357ebe7d5f33bbb1011c10f26ee3ee5ac83b5f9bfd00a8404d466912cf9f8d302206172c672daedad182a924d0daa89e15d071854c7596f751580fdcb9b4f1c9ca8012103531e7c29915e2f85123aade7131811bc4779e99af1d5f4a72ede586ee0b2c6c6ffffffffc12ff721a7c58a11915017c56e31f95465e0afdbe382e75945416ded7056c838030000006a473044022071859556d988cf481b3dd93b91bc5ebe7db9e94103d3862b6a4057a252da692a02205690fafa17f145bccd71f364030e36556cca4b08a13cad21741fde9b1351938c012103531e7c29915e2f85123aade7131811bc4779e99af1d5f4a72ede586ee0b2c6c6ffffffff03000000000000000000f6e0000000000000232103531e7c29915e2f85123aade7131811bc4779e99af1d5f4a72ede586ee0b2c6c6ac084c0100000000001976a914868614ec264fbcc17e0fe25b544f0740a29a3ffa88ac00000000","txid":"b0eec5f6de5ec9e68fa0a6471a3830de61c1bc7266a24285a9c5bcaec704592f","version":1,"time":1540483024,"locktime":0,"vin":[{"txid":"4a789f8c0980c5f8f18166ec41121747e6f45ff7405b1ba99cc2e2a5f429d31a","vout":3,"scriptSig":{"asm":"3045022100d357ebe7d5f33bbb1011c10f26ee3ee5ac83b5f9bfd00a8404d466912cf9f8d302206172c672daedad182a924d0daa89e15d071854c7596f751580fdcb9b4f1c9ca801 03531e7c29915e2f85123aade7131811bc4779e99af1d5f4a72ede586ee0b2c6c6","hex":"483045022100d357ebe7d5f33bbb1011c10f26ee3ee5ac83b5f9bfd00a8404d466912cf9f8d302206172c672daedad182a924d0daa89e15d071854c7596f751580fdcb9b4f1c9ca8012103531e7c29915e2f85123aade7131811bc4779e99af1d5f4a72ede586ee0b2c6c6"},"sequence":4294967295},{"txid":"38c85670ed6d414559e782e3dbafe06554f9316ec5175091118ac5a721f72fc1","vout":3,"scriptSig":{"asm":"3044022071859556d988cf481b3dd93b91bc5ebe7db9e94103d3862b6a4057a252da692a02205690fafa17f145bccd71f364030e36556cca4b08a13cad21741fde9b1351938c01 03531e7c29915e2f85123aade7131811bc4779e99af1d5f4a72ede586ee0b2c6c6","hex":"473044022071859556d988cf481b3dd93b91bc5ebe7db9e94103d3862b6a4057a252da692a02205690fafa17f145bccd71f364030e36556cca4b08a13cad21741fde9b1351938c012103531e7c29915e2f85123aade7131811bc4779e99af1d5f4a72ede586ee0b2c6c6"},"sequence":4294967295}],"vout":[{"value":0,"n":0,"scriptPubKey":{"asm":"","type":"nonstandard"}},{"value":0.0005759,"n":1,"scriptPubKey":{"asm":"03531e7c29915e2f85123aade7131811bc4779e99af1d5f4a72ede586ee0b2c6c6 OP_CHECKSIG","reqSigs":1,"type":"pubkey","addresses":["pLcCv1RBNEWf4q17fiPMGMYqeFUvP9a826"]}},{"value":0.00085,"n":2,"scriptPubKey":{"asm":"OP_DUP OP_HASH160 868614ec264fbcc17e0fe25b544f0740a29a3ffa OP_EQUALVERIFY OP_CHECKSIG","reqSigs":1,"type":"pubkeyhash","addresses":["pHosNaAavGxjBXaJVQnyrJDcTKDMVqKujz"]}}],"blockhash":"01b9357582a655fcb610b0bd58669871384f6d5138719cea8505b92cb9ce05fc","confirmations":288,"blocktime":1540483024}