{"hex":"01000000cae7d15b01fcb622b3af8a44b8aea4c164cd191fa4634663b1cc560969515bac1872bb620e000000006a47304402202dae19f8cb4d35b77fafbce086b27d5768600fc3b1158d2100ce1295dc04686202204c877037b1f5b34c51a89a3ca850deed3635cbac8efbb7b022387da50fba7895012103a5d097c779212af04e888d91f877068fbc5c142c2ff12d531654565028c0c44fffffffff0230d58925000000001976a914254b876c51d1586a5b33fffe1ea6cdd946f07cb188ac00e1f505000000001976a9148e3f6e3d2f029829ca356517f18e326c94cd54cd88ac00000000","txid":"ebd7bb0fee9ee4ba0fc1340d5f49857760a288f78bb23b991847e6dc893933e4","version":1,"time":1540483024,"locktime":0,"vin":[{"txid":"0e62bb7218ac5b51690956ccb1634663a41f19cd64c1a4aeb8448aafb322b6fc","vout":0,"scriptSig":{"asm":"304402202dae19f8cb4d35b77fafbce086b27d5768600fc3b1158d2100ce1295dc04686202204c877037b1f5b34c51a89a3ca850deed3635cbac8efbb7b022387da50fba789501 03a5d097c779212af04e888d91f877068fbc5c142c2ff12d531654565028c0c44f","hex":"47304402202dae19f8cb4d35b77fafbce086b27d5768600fc3b1158d2100ce1295dc04686202204c877037b1f5b34c51a89a3ca850deed3635cbac8efbb7b022387da50fba7895012103a5d097c779212af04e888d91f877068fbc5c142c2ff12d531654565028c0c44f"},"sequence":4294967295}],"vout":[{"value":6.2979,"n":0,"scriptPubKey":{"asm":"OP_DUP OP_HASH160 254b876c51d1586a5b33fffe1ea6cdd946f07cb1 OP_EQUALVERIFY OP_CHECKSIG","reqSigs":1,"type":"pubkeyhash","addresses":["p8wmgeehWk52LNGeJRXtp3zbu5MCsj9VdK"]}},{"value":1,"n":1,"scriptPubKey":{"asm":"OP_DUP OP_HASH160 8e3f6e3d2f029829ca356517f18e326c94cd54cd OP_EQUALVERIFY OP_CHECKSIG","reqSigs":1,"type":"pubkeyhash","addresses":["pJWi9BXT9hsVaAft92RNcufBy1LZGU4RtT"]}}],"blockhash":"01b9357582a655fcb610b0bd58669871384f6d5138719cea8505b92cb9ce05fc","confirmations":288,"blocktime":1540483024}