{"hex":"0100000048a2dc5b044c208efaa8da67ff099a02c51cd00a2cf29d0f79c69e1cb6f43774d2381d88b7000000006a47304402206b9da57ec72e2b37a3ea92473d917c66cac0b093babc700f9911d0a64f15dc03022033a683151111b263ad11c040be2e04ee24d691586cabcc532aea9ba328912213012103b0706d0be78c896c6fb79edc72c9da156423d2f9c22ec511e5e5e2f4a0ca0aa9ffffffff4c208efaa8da67ff099a02c51cd00a2cf29d0f79c69e1cb6f43774d2381d88b7010000006a4730440220627637d9c8c96a8a1f24d96f7baf43bfc6a76ad424f54932653bd66006362afc02203506012e4afb55cb1181d03886032ac097211860bd4939f5bae84e060760ab0d01210391c8cdfa426d261a84c78f9360a2ed17b2da8db2e2098cd72bca6f5812f30d36ffffffffacaa83303e53b8435321d66aeb6848ab99ca04a894e5eb1462776eac0f5e7a7c010000006b483045022100ba3c91e63ce6719c7e7a4c22f1feaf9985ccbc3dd2b157d2e9e966245b018a27022066acab6c0473b46f6778b8012ef5bfe0bd3437e8d48ba92a32beb6f2ad4e21a901210235791a6b6eac4ff66f1753921207785b142e7728f45336abd4904f2c9c73b2cdffffffff8b1f42fad0af0859ee19bc88f3b9e2d0f93c5b1b048a89e149008780ca8a19cc010000006b483045022100dc809a72ee91e3145b0ef88cec80a37814c9bfcfccdab8a576aa07da8a994310022030e3ceaea9edf758e5f31f8cc900118f241ce54ba9dd88cd12c2cf187f34c1d301210271f4b70633fca8b64830f3fb5481723a4de2337e10c73ad9b2f813b3af571a8dffffffff0257036900000000001976a914dd41d6f22088e0088d8b8d02c78475ec37a98a1988ac74184c0a000000001976a9148abc4d54545a2e15761f7183f0aefb38745ab2aa88ac00000000","txid":"0da372630a3627652cee68824381d9ded2ad79dc4550e82742166c13c468cf41","version":1,"time":1541186128,"locktime":0,"vin":[{"txid":"b7881d38d27437f4b61c9ec6790f9df22c0ad01cc5029a09ff67daa8fa8e204c","vout":0,"scriptSig":{"asm":"304402206b9da57ec72e2b37a3ea92473d917c66cac0b093babc700f9911d0a64f15dc03022033a683151111b263ad11c040be2e04ee24d691586cabcc532aea9ba32891221301 03b0706d0be78c896c6fb79edc72c9da156423d2f9c22ec511e5e5e2f4a0ca0aa9","hex":"47304402206b9da57ec72e2b37a3ea92473d917c66cac0b093babc700f9911d0a64f15dc03022033a683151111b263ad11c040be2e04ee24d691586cabcc532aea9ba328912213012103b0706d0be78c896c6fb79edc72c9da156423d2f9c22ec511e5e5e2f4a0ca0aa9"},"sequence":4294967295},{"txid":"b7881d38d27437f4b61c9ec6790f9df22c0ad01cc5029a09ff67daa8fa8e204c","vout":1,"scriptSig":{"asm":"30440220627637d9c8c96a8a1f24d96f7baf43bfc6a76ad424f54932653bd66006362afc02203506012e4afb55cb1181d03886032ac097211860bd4939f5bae84e060760ab0d01 0391c8cdfa426d261a84c78f9360a2ed17b2da8db2e2098cd72bca6f5812f30d36","hex":"4730440220627637d9c8c96a8a1f24d96f7baf43bfc6a76ad424f54932653bd66006362afc02203506012e4afb55cb1181d03886032ac097211860bd4939f5bae84e060760ab0d01210391c8cdfa426d261a84c78f9360a2ed17b2da8db2e2098cd72bca6f5812f30d36"},"sequence":4294967295},{"txid":"7c7a5e0fac6e776214ebe594a804ca99ab4868eb6ad6215343b8533e3083aaac","vout":1,"scriptSig":{"asm":"3045022100ba3c91e63ce6719c7e7a4c22f1feaf9985ccbc3dd2b157d2e9e966245b018a27022066acab6c0473b46f6778b8012ef5bfe0bd3437e8d48ba92a32beb6f2ad4e21a901 0235791a6b6eac4ff66f1753921207785b142e7728f45336abd4904f2c9c73b2cd","hex":"483045022100ba3c91e63ce6719c7e7a4c22f1feaf9985ccbc3dd2b157d2e9e966245b018a27022066acab6c0473b46f6778b8012ef5bfe0bd3437e8d48ba92a32beb6f2ad4e21a901210235791a6b6eac4ff66f1753921207785b142e7728f45336abd4904f2c9c73b2cd"},"sequence":4294967295},{"txid":"cc198aca80870049e1898a041b5b3cf9d0e2b9f388bc19ee5908afd0fa421f8b","vout":1,"scriptSig":{"asm":"3045022100dc809a72ee91e3145b0ef88cec80a37814c9bfcfccdab8a576aa07da8a994310022030e3ceaea9edf758e5f31f8cc900118f241ce54ba9dd88cd12c2cf187f34c1d301 0271f4b70633fca8b64830f3fb5481723a4de2337e10c73ad9b2f813b3af571a8d","hex":"483045022100dc809a72ee91e3145b0ef88cec80a37814c9bfcfccdab8a576aa07da8a994310022030e3ceaea9edf758e5f31f8cc900118f241ce54ba9dd88cd12c2cf187f34c1d301210271f4b70633fca8b64830f3fb5481723a4de2337e10c73ad9b2f813b3af571a8d"},"sequence":4294967295}],"vout":[{"value":0.06882135,"n":0,"scriptPubKey":{"asm":"OP_DUP OP_HASH160 dd41d6f22088e0088d8b8d02c78475ec37a98a19 OP_EQUALVERIFY OP_CHECKSIG","reqSigs":1,"type":"pubkeyhash","addresses":["pRiUQibH6aLWNGJcWcUugTxsgCRZTiRnGN"]}},{"value":1.72759156,"n":1,"scriptPubKey":{"asm":"OP_DUP OP_HASH160 8abc4d54545a2e15761f7183f0aefb38745ab2aa OP_EQUALVERIFY OP_CHECKSIG","reqSigs":1,"type":"pubkeyhash","addresses":["pJC92do4M76DhaYnxCNoVhzRFMLmu19JhC"]}}],"blockhash":"bd9c13fe7e38043a9097c7d12816cf040b4e6727b749881293108ba44e5dd9d9","confirmations":56,"blocktime":1541186128}