{"hex":"0100000050a2dc5b01b803750580393965858bcadb9fa5834c2970e8a92bda062a86b7931305b7c7790100000049483045022100ad576fac24b2cdb2c784d240c3748c15902949a6edb2adb6f837b9dc9d8567490220515bc3425643ed67903c26b378413a5bf46da95fe57fec7bf6ffab140227449c01ffffffff0400000000000000000000a2941a1d000000232102a0ffdcd26bc595776e6ad72bf63c12428f5a915eaca2bad49b753e858d5ea8e3ac3a07951a1d000000232102a0ffdcd26bc595776e6ad72bf63c12428f5a915eaca2bad49b753e858d5ea8e3ac9d3d0200000000001976a91473471adebcd697ea1dc18e8db2582a74a6bab88188ac00000000","txid":"f610fdf8470f2d1eebcac07f0c19043df59582772658a8e5a1e18bee1edc979b","version":1,"time":1541186128,"locktime":0,"vin":[{"txid":"79c7b7051393b7862a06da2ba9e870294c83a59fdbca8b8565393980057503b8","vout":1,"scriptSig":{"asm":"3045022100ad576fac24b2cdb2c784d240c3748c15902949a6edb2adb6f837b9dc9d8567490220515bc3425643ed67903c26b378413a5bf46da95fe57fec7bf6ffab140227449c01","hex":"483045022100ad576fac24b2cdb2c784d240c3748c15902949a6edb2adb6f837b9dc9d8567490220515bc3425643ed67903c26b378413a5bf46da95fe57fec7bf6ffab140227449c01"},"sequence":4294967295}],"vout":[{"value":0,"n":0,"scriptPubKey":{"asm":"","type":"nonstandard"}},{"value":1250,"n":1,"scriptPubKey":{"asm":"02a0ffdcd26bc595776e6ad72bf63c12428f5a915eaca2bad49b753e858d5ea8e3 OP_CHECKSIG","reqSigs":1,"type":"pubkey","addresses":["p8iepVjrqbjo1uNb8dyXKBBerSUv6zrPfw"]}},{"value":1250.00025914,"n":2,"scriptPubKey":{"asm":"02a0ffdcd26bc595776e6ad72bf63c12428f5a915eaca2bad49b753e858d5ea8e3 OP_CHECKSIG","reqSigs":1,"type":"pubkey","addresses":["p8iepVjrqbjo1uNb8dyXKBBerSUv6zrPfw"]}},{"value":0.00146845,"n":3,"scriptPubKey":{"asm":"OP_DUP OP_HASH160 73471adebcd697ea1dc18e8db2582a74a6bab881 OP_EQUALVERIFY OP_CHECKSIG","reqSigs":1,"type":"pubkeyhash","addresses":["pG476E2NDDXyKLQPSQr8zUwis1yY3UyfR9"]}}],"blockhash":"bd9c13fe7e38043a9097c7d12816cf040b4e6727b749881293108ba44e5dd9d9","confirmations":56,"blocktime":1541186128}