{"hex":"01000000b06adc5b01216cf1252b4eb2e586c6655b5ab55090e244b9579acb5b78991064a19efa6ab50100000049483045022100f96b44574c6751d3131e4881c3e8384570cf1f028ef0772bcf1b4b790777ad90022016c5ac642c52a8079414f4dfe8a8299e4fed9c75004cc8ee51ff665d8dce5c8b01ffffffff030000000000000000002e332b0a000000002321022b01163a24c36970e0de72765d03cbe1bc061255204b7edd50710f2a6f4cabc5ac5cc10000000000001976a914239bf4dba7e2193b7f701a7b68d0e94c85d85fac88ac00000000","txid":"7cd7dc6e0d1a892b32f5c533d4eb513874469b99c56861489b1d71f5be3dde28","version":1,"time":1541171888,"locktime":0,"vin":[{"txid":"b56afa9ea1641099785bcb9a57b944e29050b55a5b65c686e5b24e2b25f16c21","vout":1,"scriptSig":{"asm":"3045022100f96b44574c6751d3131e4881c3e8384570cf1f028ef0772bcf1b4b790777ad90022016c5ac642c52a8079414f4dfe8a8299e4fed9c75004cc8ee51ff665d8dce5c8b01","hex":"483045022100f96b44574c6751d3131e4881c3e8384570cf1f028ef0772bcf1b4b790777ad90022016c5ac642c52a8079414f4dfe8a8299e4fed9c75004cc8ee51ff665d8dce5c8b01"},"sequence":4294967295}],"vout":[{"value":0,"n":0,"scriptPubKey":{"asm":"","type":"nonstandard"}},{"value":1.7060331,"n":1,"scriptPubKey":{"asm":"022b01163a24c36970e0de72765d03cbe1bc061255204b7edd50710f2a6f4cabc5 OP_CHECKSIG","reqSigs":1,"type":"pubkey","addresses":["pKBPoNA3SJPY8i2H3PXAafpEbMr7NNikgL"]}},{"value":0.000495,"n":2,"scriptPubKey":{"asm":"OP_DUP OP_HASH160 239bf4dba7e2193b7f701a7b68d0e94c85d85fac OP_EQUALVERIFY OP_CHECKSIG","reqSigs":1,"type":"pubkeyhash","addresses":["p8nrgTxTfKDC3hvmSmFxDcxpYguUCo8yWb"]}}],"blockhash":"cb347854ed638ae242fbda99f1c970b0940fcc217ca7c6f2195c1a3367754cd1","confirmations":76,"blocktime":1541171888}