{"hex":"01000000ae6adc5b0128a3c4252bf1551f5b1cdd95f57ff1fca5922814eb3a86996c25ed8d5361cdcf000000006b4830450221008bf60cac60f36c57ca97b5a5df46088703cdd2f4e99b0ff7087fa100821d5bdd02205107f273aaddb7a0f266840f250b59ef24458343bb62136c7cc47f47ac91afa801210345e53a13408b6e9e74f0be0f9e6b7f08596f104e822766e67816de9274deaa09ffffffff02648c7d00000000001976a91459dc8a11214f7cc59cbe25652ef6fd89451ab9d388ac109d7803000000001976a91445104d5eeb933585e6dd7e537d2c127a1628856788ac00000000","txid":"eb9657fd933fc4d57cee32257966821cb204c0e090b2cceb0932654a0029035e","version":1,"time":1541171888,"locktime":0,"vin":[{"txid":"cfcd61538ded256c99863aeb142892a5fcf17ff595dd1c5b1f55f12b25c4a328","vout":0,"scriptSig":{"asm":"30450221008bf60cac60f36c57ca97b5a5df46088703cdd2f4e99b0ff7087fa100821d5bdd02205107f273aaddb7a0f266840f250b59ef24458343bb62136c7cc47f47ac91afa801 0345e53a13408b6e9e74f0be0f9e6b7f08596f104e822766e67816de9274deaa09","hex":"4830450221008bf60cac60f36c57ca97b5a5df46088703cdd2f4e99b0ff7087fa100821d5bdd02205107f273aaddb7a0f266840f250b59ef24458343bb62136c7cc47f47ac91afa801210345e53a13408b6e9e74f0be0f9e6b7f08596f104e822766e67816de9274deaa09"},"sequence":4294967295}],"vout":[{"value":0.0822794,"n":0,"scriptPubKey":{"asm":"OP_DUP OP_HASH160 59dc8a11214f7cc59cbe25652ef6fd89451ab9d3 OP_EQUALVERIFY OP_CHECKSIG","reqSigs":1,"type":"pubkeyhash","addresses":["pDjiY7sczc4SybNzgfazWtGM9ocBHFFPFG"]}},{"value":0.58236176,"n":1,"scriptPubKey":{"asm":"OP_DUP OP_HASH160 45104d5eeb933585e6dd7e537d2c127a16288567 OP_EQUALVERIFY OP_CHECKSIG","reqSigs":1,"type":"pubkeyhash","addresses":["pBqkMe7HWhSrTAZjvL5QpQVQzg5sTVTCnr"]}}],"blockhash":"cb347854ed638ae242fbda99f1c970b0940fcc217ca7c6f2195c1a3367754cd1","confirmations":76,"blocktime":1541171888}