{"hex":"01000000db9fc25b010000000000000000000000000000000000000000000000000000000000000000ffffffff0401170101ffffffff0100000000000000001976a914a645eab836e4935cecfd84a5961d9574dde0516d88ac00000000","txid":"0763abda1c7a537a40c01d049aca77d3fb172dbcf56675159bb4bb8e259842de","version":1,"time":1539481563,"locktime":0,"vin":[{"coinbase":"01170101","sequence":4294967295}],"vout":[{"value":0,"n":0,"scriptPubKey":{"asm":"OP_DUP OP_HASH160 a645eab836e4935cecfd84a5961d9574dde0516d OP_EQUALVERIFY OP_CHECKSIG","reqSigs":1,"type":"pubkeyhash","addresses":["pLhk8Ta55ms732Yqp5Z1jVAFVkaJwaCbQK"]}}],"blockhash":"00000af1b65a7ba2ce893cb54d9efb5a29a35e636bbed1c726e3608392fc4b76","confirmations":136,"blocktime":1539481563}