{"hex":"010000009097d65b01ea2a1c1cc5fd3670178b02df8b96a0b2d0d548334c552194011ff3c26a9a468502000000484730440220381f831bc75e0463c41b6fca8f0fff689ba494964ce2b57a25002da89b01edff022051b7d65eca01e03957573d2343d3e9e0222b5633c95cba76249962256b1db8c301ffffffff04000000000000000000409452a3030000002321020b1cd26fc4b9f080aea1cf7b667efd5e8453f70429056589831fa7f63506ddbfac5e9452a3030000002321020b1cd26fc4b9f080aea1cf7b667efd5e8453f70429056589831fa7f63506ddbfac55000000000000001976a91400eadc74da710bda77ce2fa5b8d39eabf1783dfa88ac00000000","txid":"5ff816e0da071eb5af1f9345ca164e9e04e50b864611a981c27cb3996d1ba672","version":1,"time":1540790160,"locktime":0,"vin":[{"txid":"85469a6ac2f31f019421554c3348d5d0b2a0968bdf028b177036fdc51c1c2aea","vout":2,"scriptSig":{"asm":"30440220381f831bc75e0463c41b6fca8f0fff689ba494964ce2b57a25002da89b01edff022051b7d65eca01e03957573d2343d3e9e0222b5633c95cba76249962256b1db8c301","hex":"4730440220381f831bc75e0463c41b6fca8f0fff689ba494964ce2b57a25002da89b01edff022051b7d65eca01e03957573d2343d3e9e0222b5633c95cba76249962256b1db8c301"},"sequence":4294967295}],"vout":[{"value":0,"n":0,"scriptPubKey":{"asm":"","type":"nonstandard"}},{"value":156.25,"n":1,"scriptPubKey":{"asm":"020b1cd26fc4b9f080aea1cf7b667efd5e8453f70429056589831fa7f63506ddbf OP_CHECKSIG","reqSigs":1,"type":"pubkey","addresses":["pECTDpfW4nW8hYte3f3F9ZQxwgWmBwmcYL"]}},{"value":156.2500003,"n":2,"scriptPubKey":{"asm":"020b1cd26fc4b9f080aea1cf7b667efd5e8453f70429056589831fa7f63506ddbf OP_CHECKSIG","reqSigs":1,"type":"pubkey","addresses":["pECTDpfW4nW8hYte3f3F9ZQxwgWmBwmcYL"]}},{"value":8.5e-7,"n":3,"scriptPubKey":{"asm":"OP_DUP OP_HASH160 00eadc74da710bda77ce2fa5b8d39eabf1783dfa OP_EQUALVERIFY OP_CHECKSIG","reqSigs":1,"type":"pubkeyhash","addresses":["p5dRZ9MeyiKDma1pAUrsmvEK4NBmmdC4ZN"]}}],"blockhash":"e4ba12787a6607e746ecaf2ece5a27bc6ca30135f105f5bf037cc5a69020b0ae","confirmations":246,"blocktime":1540790160}