{"hex":"010000008a97d65b014671b77aa914ba9d5e22070692e27f0e30ec9373cb79f2c7cb838bfb6c6b7a71000000006b48304502210085c3a99807354e4a07f62f55ba1539ec8e18d4f6cd1766983def80daceb42317022066649c839b721eb083f4b0cead21d38a94d53e53f793a7111f7d58d802f45c450121029e2ec050359b2e90f5f773b164fa0127b7be0e19f5523e9973c0b5760866016cffffffff02864b1300000000001976a9143b3fc9e90d59d3bcd6970cc93efd5786dd46180188ac10270000000000001976a9147644efb2f98070ab8304baf1c13f70d6ff68c27788ac00000000","txid":"7bfa23b5c8cbf1dc6613b9747c471d9b39ad6735ce3ccea96c3f86efb917223b","version":1,"time":1540790160,"locktime":0,"vin":[{"txid":"717a6b6cfb8b83cbc7f279cb7393ec300e7fe2920607225e9dba14a97ab77146","vout":0,"scriptSig":{"asm":"304502210085c3a99807354e4a07f62f55ba1539ec8e18d4f6cd1766983def80daceb42317022066649c839b721eb083f4b0cead21d38a94d53e53f793a7111f7d58d802f45c4501 029e2ec050359b2e90f5f773b164fa0127b7be0e19f5523e9973c0b5760866016c","hex":"48304502210085c3a99807354e4a07f62f55ba1539ec8e18d4f6cd1766983def80daceb42317022066649c839b721eb083f4b0cead21d38a94d53e53f793a7111f7d58d802f45c450121029e2ec050359b2e90f5f773b164fa0127b7be0e19f5523e9973c0b5760866016c"},"sequence":4294967295}],"vout":[{"value":0.01264518,"n":0,"scriptPubKey":{"asm":"OP_DUP OP_HASH160 3b3fc9e90d59d3bcd6970cc93efd5786dd461801 OP_EQUALVERIFY OP_CHECKSIG","reqSigs":1,"type":"pubkeyhash","addresses":["pAwrV98VRUd2rf9MsAJZtQmn72vxPdktdN"]}},{"value":0.0001,"n":1,"scriptPubKey":{"asm":"OP_DUP OP_HASH160 7644efb2f98070ab8304baf1c13f70d6ff68c277 OP_EQUALVERIFY OP_CHECKSIG","reqSigs":1,"type":"pubkeyhash","addresses":["pGKvX7zTUoszjqX3isNoZuGqfxjuZZNAYs"]}}],"blockhash":"e4ba12787a6607e746ecaf2ece5a27bc6ca30135f105f5bf037cc5a69020b0ae","confirmations":246,"blocktime":1540790160}