{"hex":"010000007039d65b013cf59d95686209ac23abc361463827ed4b8136c96a0627fe646f5e7acf03bbe60100000049483045022100ebe49fef0e13e11d5356743ad3a3f7e3263c53dc69f69feb20e27804dd1500b202205811089983bc2ae7dd0473535c456e06d70659af2a09746eebe3e1203bda2aa501ffffffff0400000000000000000000a9a1d1010000002321020b1cd26fc4b9f080aea1cf7b667efd5e8453f70429056589831fa7f63506ddbfacf3ebb0d1010000002321020b1cd26fc4b9f080aea1cf7b667efd5e8453f70429056589831fa7f63506ddbfacf0030000000000001976a914b9f3d781f7d99f65d068998a288759e0a638d31288ac00000000","txid":"c2032b8361df4734726a883c3535b054465841769ef4c69ad5184181913976ba","version":1,"time":1540766064,"locktime":0,"vin":[{"txid":"e6bb03cf7a5e6f64fe27066ac936814bed27384661c3ab23ac096268959df53c","vout":1,"scriptSig":{"asm":"3045022100ebe49fef0e13e11d5356743ad3a3f7e3263c53dc69f69feb20e27804dd1500b202205811089983bc2ae7dd0473535c456e06d70659af2a09746eebe3e1203bda2aa501","hex":"483045022100ebe49fef0e13e11d5356743ad3a3f7e3263c53dc69f69feb20e27804dd1500b202205811089983bc2ae7dd0473535c456e06d70659af2a09746eebe3e1203bda2aa501"},"sequence":4294967295}],"vout":[{"value":0,"n":0,"scriptPubKey":{"asm":"","type":"nonstandard"}},{"value":78.12,"n":1,"scriptPubKey":{"asm":"020b1cd26fc4b9f080aea1cf7b667efd5e8453f70429056589831fa7f63506ddbf OP_CHECKSIG","reqSigs":1,"type":"pubkey","addresses":["pECTDpfW4nW8hYte3f3F9ZQxwgWmBwmcYL"]}},{"value":78.13000179,"n":2,"scriptPubKey":{"asm":"020b1cd26fc4b9f080aea1cf7b667efd5e8453f70429056589831fa7f63506ddbf OP_CHECKSIG","reqSigs":1,"type":"pubkey","addresses":["pECTDpfW4nW8hYte3f3F9ZQxwgWmBwmcYL"]}},{"value":0.00001008,"n":3,"scriptPubKey":{"asm":"OP_DUP OP_HASH160 b9f3d781f7d99f65d068998a288759e0a638d312 OP_EQUALVERIFY OP_CHECKSIG","reqSigs":1,"type":"pubkeyhash","addresses":["pNVoKczQ6P92yawDZejgg9H8khMTR2Sf2j"]}}],"blockhash":"8e734df06f7bb21062d065397e3eebd484904c5195948d26418a3d6b772e8ae7","confirmations":255,"blocktime":1540766064}