{"hex":"010000006739d65b02a932bb7e315be6e45a16286a2163f0b3dade78530d7c7b125fb85f0401f7d07a010000006b4830450221009b498abc243a7129ac0afa4d380052b77f72a18abdbe1a584456d7fa61a3d53b022061d8fcb57e02628dd05d8514c14ac6ed3acfd11f0d1389bbf6e9bb2a3c9b4a38012103a4fdb242ccaea58101af80d13083fecdf5b5b91944f137e5b35424f750fe5320ffffffff1cc6f9bb7e1b9ae8db95dfd0b3f5ac5511ebd995fac570d5b21c1932f36e7058000000006a47304402201df09dac5fa5ee52426c1d232171285e01b49383b2da5aba881e31f22dbe0e6102202c996b4173f34930fec96c6803b320e6a69092779cb147bf04f93d9998af2f260121029e857134122939a57279b02312e296a02bcf0cf876ddc541bd372450215dbeacffffffff02ef570f00000000001976a9147497242bd11fe2ede7052da7044e209675fb284388ac271f1200000000001976a914caf2ef10e549b8d75c5e21217255821a50eabc6d88ac00000000","txid":"e86fffa38b418bf4340b3b35d3f5016c31fe7dd906dff6deaeb676ce121832d4","version":1,"time":1540766064,"locktime":0,"vin":[{"txid":"7ad0f701045fb85f127b7c0d5378dedab3f063216a28165ae4e65b317ebb32a9","vout":1,"scriptSig":{"asm":"30450221009b498abc243a7129ac0afa4d380052b77f72a18abdbe1a584456d7fa61a3d53b022061d8fcb57e02628dd05d8514c14ac6ed3acfd11f0d1389bbf6e9bb2a3c9b4a3801 03a4fdb242ccaea58101af80d13083fecdf5b5b91944f137e5b35424f750fe5320","hex":"4830450221009b498abc243a7129ac0afa4d380052b77f72a18abdbe1a584456d7fa61a3d53b022061d8fcb57e02628dd05d8514c14ac6ed3acfd11f0d1389bbf6e9bb2a3c9b4a38012103a4fdb242ccaea58101af80d13083fecdf5b5b91944f137e5b35424f750fe5320"},"sequence":4294967295},{"txid":"58706ef332191cb2d570c5fa95d9eb1155acf5b3d0df95dbe89a1b7ebbf9c61c","vout":0,"scriptSig":{"asm":"304402201df09dac5fa5ee52426c1d232171285e01b49383b2da5aba881e31f22dbe0e6102202c996b4173f34930fec96c6803b320e6a69092779cb147bf04f93d9998af2f2601 029e857134122939a57279b02312e296a02bcf0cf876ddc541bd372450215dbeac","hex":"47304402201df09dac5fa5ee52426c1d232171285e01b49383b2da5aba881e31f22dbe0e6102202c996b4173f34930fec96c6803b320e6a69092779cb147bf04f93d9998af2f260121029e857134122939a57279b02312e296a02bcf0cf876ddc541bd372450215dbeac"},"sequence":4294967295}],"vout":[{"value":0.01005551,"n":0,"scriptPubKey":{"asm":"OP_DUP OP_HASH160 7497242bd11fe2ede7052da7044e209675fb2843 OP_EQUALVERIFY OP_CHECKSIG","reqSigs":1,"type":"pubkeyhash","addresses":["pGB3eSREqWQ2X4XJ3unYx2935biwBNUdc2"]}},{"value":0.01187623,"n":1,"scriptPubKey":{"asm":"OP_DUP OP_HASH160 caf2ef10e549b8d75c5e21217255821a50eabc6d OP_EQUALVERIFY OP_CHECKSIG","reqSigs":1,"type":"pubkeyhash","addresses":["pQ3fio5LvKBgCNzyAn2J8w89LrmhPSZaPa"]}}],"blockhash":"8e734df06f7bb21062d065397e3eebd484904c5195948d26418a3d6b772e8ae7","confirmations":255,"blocktime":1540766064}