{"hex":"01000000b69fc25b010000000000000000000000000000000000000000000000000000000000000000ffffffff0401130102ffffffff0100000000000000001976a914b6fff87b71c7e4bdfb1abbe849004aadb2fa07db88ac00000000","txid":"bb016baa8339c4cb58aba51f7ff7f9ae3163ba451a06fd6a7b136f340b8332a4","version":1,"time":1539481530,"locktime":0,"vin":[{"coinbase":"01130102","sequence":4294967295}],"vout":[{"value":0,"n":0,"scriptPubKey":{"asm":"OP_DUP OP_HASH160 b6fff87b71c7e4bdfb1abbe849004aadb2fa07db OP_EQUALVERIFY OP_CHECKSIG","reqSigs":1,"type":"pubkeyhash","addresses":["pNEBpmcsRGEEh9aK43Xoc4NcVUDi92GTut"]}}],"blockhash":"00000bb9be3c926c2c7d2d8545fbc8d08fcfbb92d0a9cf049febc5e5457749a2","confirmations":426,"blocktime":1539481530}