{"hex":"01000000bfa1c25b010000000000000000000000000000000000000000000000000000000000000000ffffffff0401410101ffffffff0100000000000000001976a9147eab8e5434db4d1e5777148cb9fc52cd3d49fb5088ac00000000","txid":"630cae91f840f7519d701265a7524ec314fbb0f9e65ffea552cb6fe08fd73bc3","version":1,"time":1539482047,"locktime":0,"vin":[{"coinbase":"01410101","sequence":4294967295}],"vout":[{"value":0,"n":0,"scriptPubKey":{"asm":"OP_DUP OP_HASH160 7eab8e5434db4d1e5777148cb9fc52cd3d49fb50 OP_EQUALVERIFY OP_CHECKSIG","reqSigs":1,"type":"pubkeyhash","addresses":["pH6Lro1e6ZdoEGk7PBHZrN3izUcsJmjcmp"]}}],"blockhash":"000002ce6c2a9524bfd167388f7ab60a80e938eda1966a76a4c8e5a3a1ede96f","confirmations":94,"blocktime":1539482047}