{"hex":"01000000b099d65b01f2d7725bc60a500f34089adbec75ea4ff97774d644f54fcd3b9eadff819b56aa0200000049483045022100816ec1d5ccb8d852141ecf162dca378f0bfcc415ef2afccaa58fbc896d89568b02205d2ba78f36b053e7fdf5080d42cb3dce35154779b3db3557b8d744b746ee954c01ffffffff0400000000000000000000a9a1d1010000002321020b1cd26fc4b9f080aea1cf7b667efd5e8453f70429056589831fa7f63506ddbfac4decb0d1010000002321020b1cd26fc4b9f080aea1cf7b667efd5e8453f70429056589831fa7f63506ddbfac55000000000000001976a9141992ad5700ade9422585b3e7af7cd994d29d4ca888ac00000000","txid":"2d8b042649044679232f74c3a0b235fd1a56b6e96f52803f8a1a6b3be878f481","version":1,"time":1540790704,"locktime":0,"vin":[{"txid":"aa569b81ffad9e3bcd4ff544d67477f94fea75ecdb9a08340f500ac65b72d7f2","vout":2,"scriptSig":{"asm":"3045022100816ec1d5ccb8d852141ecf162dca378f0bfcc415ef2afccaa58fbc896d89568b02205d2ba78f36b053e7fdf5080d42cb3dce35154779b3db3557b8d744b746ee954c01","hex":"483045022100816ec1d5ccb8d852141ecf162dca378f0bfcc415ef2afccaa58fbc896d89568b02205d2ba78f36b053e7fdf5080d42cb3dce35154779b3db3557b8d744b746ee954c01"},"sequence":4294967295}],"vout":[{"value":0,"n":0,"scriptPubKey":{"asm":"","type":"nonstandard"}},{"value":78.12,"n":1,"scriptPubKey":{"asm":"020b1cd26fc4b9f080aea1cf7b667efd5e8453f70429056589831fa7f63506ddbf OP_CHECKSIG","reqSigs":1,"type":"pubkey","addresses":["pECTDpfW4nW8hYte3f3F9ZQxwgWmBwmcYL"]}},{"value":78.13000269,"n":2,"scriptPubKey":{"asm":"020b1cd26fc4b9f080aea1cf7b667efd5e8453f70429056589831fa7f63506ddbf OP_CHECKSIG","reqSigs":1,"type":"pubkey","addresses":["pECTDpfW4nW8hYte3f3F9ZQxwgWmBwmcYL"]}},{"value":8.5e-7,"n":3,"scriptPubKey":{"asm":"OP_DUP OP_HASH160 1992ad5700ade9422585b3e7af7cd994d29d4ca8 OP_EQUALVERIFY OP_CHECKSIG","reqSigs":1,"type":"pubkeyhash","addresses":["p7snoofvhm9cmcDcAmpbzCVHFFEt2fdccj"]}}],"blockhash":"e2b66e17980ece3885d2c94169553687b697f038f2b621b0bb5c7ef239d765be","confirmations":244,"blocktime":1540790704}