{"hex":"01000000ab99d65b01b809c82353f3a3d6ce74502b9f949caf34363fc09b5fc89f1992d2364ef889bb000000006a47304402207a77f40bc6476cfa7226e8a97a2dc0d24a6e59c0b8c58bab2fe6a928cab6d92002207395464baca5f7e13327a64150096e164a3770ed5884d65ea5013d8d33294e5f012103b597249b4eec59ecaf09b74bccb46701f78fd7b99347c4d3a2a93c2c7081d916ffffffff029efc1200000000001976a914d2822d407ed2dc2a0a33bec57bec1f555e29494d88ac10270000000000001976a9147644efb2f98070ab8304baf1c13f70d6ff68c27788ac00000000","txid":"cf951cb9148b7634776edbc1030b6d2b2aae71958a541094abceb1d351443790","version":1,"time":1540790704,"locktime":0,"vin":[{"txid":"bb89f84e36d292199fc85f9bc03f3634af9c949f2b5074ced6a3f35323c809b8","vout":0,"scriptSig":{"asm":"304402207a77f40bc6476cfa7226e8a97a2dc0d24a6e59c0b8c58bab2fe6a928cab6d92002207395464baca5f7e13327a64150096e164a3770ed5884d65ea5013d8d33294e5f01 03b597249b4eec59ecaf09b74bccb46701f78fd7b99347c4d3a2a93c2c7081d916","hex":"47304402207a77f40bc6476cfa7226e8a97a2dc0d24a6e59c0b8c58bab2fe6a928cab6d92002207395464baca5f7e13327a64150096e164a3770ed5884d65ea5013d8d33294e5f012103b597249b4eec59ecaf09b74bccb46701f78fd7b99347c4d3a2a93c2c7081d916"},"sequence":4294967295}],"vout":[{"value":0.01244318,"n":0,"scriptPubKey":{"asm":"OP_DUP OP_HASH160 d2822d407ed2dc2a0a33bec57bec1f555e29494d OP_EQUALVERIFY OP_CHECKSIG","reqSigs":1,"type":"pubkeyhash","addresses":["pQje3q6uXzGTJmh5b6TXmMsj8da7M3C29A"]}},{"value":0.0001,"n":1,"scriptPubKey":{"asm":"OP_DUP OP_HASH160 7644efb2f98070ab8304baf1c13f70d6ff68c277 OP_EQUALVERIFY OP_CHECKSIG","reqSigs":1,"type":"pubkeyhash","addresses":["pGKvX7zTUoszjqX3isNoZuGqfxjuZZNAYs"]}}],"blockhash":"e2b66e17980ece3885d2c94169553687b697f038f2b621b0bb5c7ef239d765be","confirmations":244,"blocktime":1540790704}