{"hex":"010000003015d65b01f45c522efcf443f0a9d8ff9e3eb70c79b6021fc1a4c7c59ee96de78a94c2a876020000004847304402201cd8549c691bd79d4686e5db7a8b0ca0b3b627c417be2d1ffe8abc5ec40db55b02202a9bb9394585af65ed34cab3c7bcb06e0ff87808325a3d87ac8bbbdcc87a175301ffffffff04000000000000000000409452a3030000002321020b1cd26fc4b9f080aea1cf7b667efd5e8453f70429056589831fa7f63506ddbfac5e9452a3030000002321020b1cd26fc4b9f080aea1cf7b667efd5e8453f70429056589831fa7f63506ddbfac55000000000000001976a9148ed189b44bba56ef2095854efd11229aa16bf8e488ac00000000","txid":"535d68c6b2bec3b8d2c3bba88d29010cc5331f8532cc7c72c0e783e42b3ac228","version":1,"time":1540756784,"locktime":0,"vin":[{"txid":"76a8c2948ae76de99ec5c7a4c11f02b6790cb73e9effd8a9f043f4fc2e525cf4","vout":2,"scriptSig":{"asm":"304402201cd8549c691bd79d4686e5db7a8b0ca0b3b627c417be2d1ffe8abc5ec40db55b02202a9bb9394585af65ed34cab3c7bcb06e0ff87808325a3d87ac8bbbdcc87a175301","hex":"47304402201cd8549c691bd79d4686e5db7a8b0ca0b3b627c417be2d1ffe8abc5ec40db55b02202a9bb9394585af65ed34cab3c7bcb06e0ff87808325a3d87ac8bbbdcc87a175301"},"sequence":4294967295}],"vout":[{"value":0,"n":0,"scriptPubKey":{"asm":"","type":"nonstandard"}},{"value":156.25,"n":1,"scriptPubKey":{"asm":"020b1cd26fc4b9f080aea1cf7b667efd5e8453f70429056589831fa7f63506ddbf OP_CHECKSIG","reqSigs":1,"type":"pubkey","addresses":["pECTDpfW4nW8hYte3f3F9ZQxwgWmBwmcYL"]}},{"value":156.2500003,"n":2,"scriptPubKey":{"asm":"020b1cd26fc4b9f080aea1cf7b667efd5e8453f70429056589831fa7f63506ddbf OP_CHECKSIG","reqSigs":1,"type":"pubkey","addresses":["pECTDpfW4nW8hYte3f3F9ZQxwgWmBwmcYL"]}},{"value":8.5e-7,"n":3,"scriptPubKey":{"asm":"OP_DUP OP_HASH160 8ed189b44bba56ef2095854efd11229aa16bf8e4 OP_EQUALVERIFY OP_CHECKSIG","reqSigs":1,"type":"pubkeyhash","addresses":["pJZjAtqMwq9jFa2kTVK5K8psT7erMHW8FX"]}}],"blockhash":"a4a0989f7e5e3d02cd1f0ad4faa9310d45a1aba85d720cbbdcdf436cff0b482f","confirmations":266,"blocktime":1540756784}