{"hex":"010000002015d65b02516c29cec6fbf00f6010df98205da04743cafeb5e3e96d3320e626287ed5d36e010000006b483045022100fdde872e0cdff40dedc820c9fa1d79c9dcb7fdf789d139cb5c44a75137f6221f02202e435c813b2cc24749c66b937d59647d5b1721a5d86e71d21a99ffd47093ed5301210327b54b594f4c02cbf71e1c57e7cf6755ab33f8bfa835b226c08b49e5f507c103ffffffff0d777cec11fce7067df476e81da51dc64b5bc884211bc8295bf964fbace582c0000000006b483045022100b0424896b8ae45ce87332e9d54eb249b0ab26abddb90be9be2080f0367dd971c022011c80f29a542cf12b65b116271bf7152c36c5560961a8c1d9c8700804b466d6c0121029e857134122939a57279b02312e296a02bcf0cf876ddc541bd372450215dbeacffffffff02d9a41000000000001976a9144c28ee798243702bc4500cdb4da9004130bb47f688ac22290000000000001976a914b4b96967f9f5ea8b9af78797a18af0f1871843ef88ac00000000","txid":"b4095c99bf0b2674ca1632b66639458c0f6889ad27951c0517145312c21f8726","version":1,"time":1540756784,"locktime":0,"vin":[{"txid":"6ed3d57e2826e620336de9e3b5feca4347a05d2098df10600ff0fbc6ce296c51","vout":1,"scriptSig":{"asm":"3045022100fdde872e0cdff40dedc820c9fa1d79c9dcb7fdf789d139cb5c44a75137f6221f02202e435c813b2cc24749c66b937d59647d5b1721a5d86e71d21a99ffd47093ed5301 0327b54b594f4c02cbf71e1c57e7cf6755ab33f8bfa835b226c08b49e5f507c103","hex":"483045022100fdde872e0cdff40dedc820c9fa1d79c9dcb7fdf789d139cb5c44a75137f6221f02202e435c813b2cc24749c66b937d59647d5b1721a5d86e71d21a99ffd47093ed5301210327b54b594f4c02cbf71e1c57e7cf6755ab33f8bfa835b226c08b49e5f507c103"},"sequence":4294967295},{"txid":"c082e5acfb64f95b29c81b2184c85b4bc61da51de876f47d06e7fc11ec7c770d","vout":0,"scriptSig":{"asm":"3045022100b0424896b8ae45ce87332e9d54eb249b0ab26abddb90be9be2080f0367dd971c022011c80f29a542cf12b65b116271bf7152c36c5560961a8c1d9c8700804b466d6c01 029e857134122939a57279b02312e296a02bcf0cf876ddc541bd372450215dbeac","hex":"483045022100b0424896b8ae45ce87332e9d54eb249b0ab26abddb90be9be2080f0367dd971c022011c80f29a542cf12b65b116271bf7152c36c5560961a8c1d9c8700804b466d6c0121029e857134122939a57279b02312e296a02bcf0cf876ddc541bd372450215dbeac"},"sequence":4294967295}],"vout":[{"value":0.01090777,"n":0,"scriptPubKey":{"asm":"OP_DUP OP_HASH160 4c28ee798243702bc4500cdb4da9004130bb47f6 OP_EQUALVERIFY OP_CHECKSIG","reqSigs":1,"type":"pubkeyhash","addresses":["pCVGbFvFLapGyskXvwfxG2ss21bRU9FqUh"]}},{"value":0.0001053,"n":1,"scriptPubKey":{"asm":"OP_DUP OP_HASH160 b4b96967f9f5ea8b9af78797a18af0f1871843ef OP_EQUALVERIFY OP_CHECKSIG","reqSigs":1,"type":"pubkeyhash","addresses":["pN29wsLkwoBPxzrSzTP89wA33tRpyCJjxY"]}}],"blockhash":"a4a0989f7e5e3d02cd1f0ad4faa9310d45a1aba85d720cbbdcdf436cff0b482f","confirmations":266,"blocktime":1540756784}