{"hex":"010000006051e05b01b517f1c4d2848066499dc8dbdb9e25f432842c138812dd8a2c555bc65671860b020000004847304402201db6a10e262664c3655fd6f5ce1b32d08100ffadf724860cd359c4d3f75fbe8a022037ebc77076d8d27fa1444e7de0794c1c9e92da4ad7aa05f3a54e443bc8812bde01ffffffff0400000000000000000000514a8d0e00000023210210c18e3b5aba3a6167f17a2fd6b65419de165b4388a78f0e815f0e3bc60d34f3ac75f04a8d0e00000023210210c18e3b5aba3a6167f17a2fd6b65419de165b4388a78f0e815f0e3bc60d34f3ac76280200000000001976a914b4297f2bb1ec22148c170ab2f943e6826c4d831d88ac00000000","txid":"a8616f56806544d3718a8f708ceddced983bccebf91c7c6e85573c6241c1343c","version":1,"time":1541427552,"locktime":0,"vin":[{"txid":"0b867156c65b552c8add1288132c8432f4259edbdbc89d49668084d2c4f117b5","vout":2,"scriptSig":{"asm":"304402201db6a10e262664c3655fd6f5ce1b32d08100ffadf724860cd359c4d3f75fbe8a022037ebc77076d8d27fa1444e7de0794c1c9e92da4ad7aa05f3a54e443bc8812bde01","hex":"47304402201db6a10e262664c3655fd6f5ce1b32d08100ffadf724860cd359c4d3f75fbe8a022037ebc77076d8d27fa1444e7de0794c1c9e92da4ad7aa05f3a54e443bc8812bde01"},"sequence":4294967295}],"vout":[{"value":0,"n":0,"scriptPubKey":{"asm":"","type":"nonstandard"}},{"value":625,"n":1,"scriptPubKey":{"asm":"0210c18e3b5aba3a6167f17a2fd6b65419de165b4388a78f0e815f0e3bc60d34f3 OP_CHECKSIG","reqSigs":1,"type":"pubkey","addresses":["pFf1Gp4G6PCkSUxUY1XLwNBH2ji6sBJMC3"]}},{"value":625.00040821,"n":2,"scriptPubKey":{"asm":"0210c18e3b5aba3a6167f17a2fd6b65419de165b4388a78f0e815f0e3bc60d34f3 OP_CHECKSIG","reqSigs":1,"type":"pubkey","addresses":["pFf1Gp4G6PCkSUxUY1XLwNBH2ji6sBJMC3"]}},{"value":0.0014143,"n":3,"scriptPubKey":{"asm":"OP_DUP OP_HASH160 b4297f2bb1ec22148c170ab2f943e6826c4d831d OP_EQUALVERIFY OP_CHECKSIG","reqSigs":1,"type":"pubkeyhash","addresses":["pMyBYUpcH3ehvzacvgmtahza4iSykvMcUD"]}}],"blockhash":"d7e7c576eee27b5241dce4f316bd7f0ecb9f1eb6091017c6b4c9481190d26a04","confirmations":39,"blocktime":1541427552}