{"hex":"010000005b51e05b0233d9a15a1afd8a17abf4e6bcb0d060a8ac841b204cdfd67c085cc6b3ab5c46df010000006a47304402202d2f85e142d5a0b00de70e81176aec5bbf3a2e7d79295a19c89b16ba0c16991a022038b7930f44ad8d9a33eb5dd9bd7d60915d02c6a08177f96d7ae15ecf1f201c65012102c409dce456dc5ddc5243b4a2cea2691c2904864b257dbc3b0fad1b0d38f3688fffffffff5544cb08e4841ae9d256a2f0fa6e5fb9d488c355a74a97136952b04ba2f70472000000006a473044022004e3a3c38fad7954f810832434fec7408a769b1ec415c17e4336f472d3b5b87b02202789d8fcd50eb55a75d55ae1f55e9de5fa95a41a8b1ad38eff3bfb32dc0da9a00121032baed62d6d945eeaa5a214c231a9c829a078a18ecded63b7e3787cfc40827861ffffffff028d225d00000000001976a914363ff3e2066668ccea3ff0417e4a67406b3c5c7788ac52e5ea09000000001976a91474cdea9b4f0366a383e68e5362f8833f532e152088ac00000000","txid":"cdd83939fdf7c7b3e62efb128bd03f447602fd063234ece4cff0a14c6ef8ec2b","version":1,"time":1541427552,"locktime":0,"vin":[{"txid":"df465cabb3c65c087cd6df4c201b84aca860d0b0bce6f4ab178afd1a5aa1d933","vout":1,"scriptSig":{"asm":"304402202d2f85e142d5a0b00de70e81176aec5bbf3a2e7d79295a19c89b16ba0c16991a022038b7930f44ad8d9a33eb5dd9bd7d60915d02c6a08177f96d7ae15ecf1f201c6501 02c409dce456dc5ddc5243b4a2cea2691c2904864b257dbc3b0fad1b0d38f3688f","hex":"47304402202d2f85e142d5a0b00de70e81176aec5bbf3a2e7d79295a19c89b16ba0c16991a022038b7930f44ad8d9a33eb5dd9bd7d60915d02c6a08177f96d7ae15ecf1f201c65012102c409dce456dc5ddc5243b4a2cea2691c2904864b257dbc3b0fad1b0d38f3688f"},"sequence":4294967295},{"txid":"7204f7a24bb0526913974aa755c388d4b95f6efaf0a256d2e91a84e408cb4455","vout":0,"scriptSig":{"asm":"3044022004e3a3c38fad7954f810832434fec7408a769b1ec415c17e4336f472d3b5b87b02202789d8fcd50eb55a75d55ae1f55e9de5fa95a41a8b1ad38eff3bfb32dc0da9a001 032baed62d6d945eeaa5a214c231a9c829a078a18ecded63b7e3787cfc40827861","hex":"473044022004e3a3c38fad7954f810832434fec7408a769b1ec415c17e4336f472d3b5b87b02202789d8fcd50eb55a75d55ae1f55e9de5fa95a41a8b1ad38eff3bfb32dc0da9a00121032baed62d6d945eeaa5a214c231a9c829a078a18ecded63b7e3787cfc40827861"},"sequence":4294967295}],"vout":[{"value":0.06103693,"n":0,"scriptPubKey":{"asm":"OP_DUP OP_HASH160 363ff3e2066668ccea3ff0417e4a67406b3c5c77 OP_EQUALVERIFY OP_CHECKSIG","reqSigs":1,"type":"pubkeyhash","addresses":["pAVRJaDxbMQJ496akSFq2TDmVJv5emZeDH"]}},{"value":1.66389074,"n":1,"scriptPubKey":{"asm":"OP_DUP OP_HASH160 74cdea9b4f0366a383e68e5362f8833f532e1520 OP_EQUALVERIFY OP_CHECKSIG","reqSigs":1,"type":"pubkeyhash","addresses":["pGCBGHLJTVrtztfNU7osV7JGKmwJpY39rB"]}}],"blockhash":"d7e7c576eee27b5241dce4f316bd7f0ecb9f1eb6091017c6b4c9481190d26a04","confirmations":39,"blocktime":1541427552}