{"hex":"01000000b0c5d15b014cfd7880a3eab79b5bc6e96cfd9c04f4ece0f334428f233eae73861c5bb5ca94010000004847304402200ffb2680431abb7c2696c19da6b0d8160cb3c3c6930cb2a647b9149a32f31d8d02200871d6276a0e83100bc5389bb3c97d8ad4a330a65d5156e9444aee3f6e8d76b601ffffffff04000000000000000000c0780cd20100000023210348b24f77eda58d2bf0bd56f764cfdeb0100d2f1058b2d5318f2f2fc9670e730eacf8bd1bd20100000023210348b24f77eda58d2bf0bd56f764cfdeb0100d2f1058b2d5318f2f2fc9670e730eacd0100000000000001976a9147a58c93fa5e34c0e7c16492ee8061977495aac7c88ac00000000","txid":"207f3231529c0802ceb1903877ad5af4bb2c4cb5b47c84d9ffad05f96a989745","version":1,"time":1540474288,"locktime":0,"vin":[{"txid":"94cab55b1c8673ae3e238f4234f3e0ecf4049cfd6ce9c65b9bb7eaa38078fd4c","vout":1,"scriptSig":{"asm":"304402200ffb2680431abb7c2696c19da6b0d8160cb3c3c6930cb2a647b9149a32f31d8d02200871d6276a0e83100bc5389bb3c97d8ad4a330a65d5156e9444aee3f6e8d76b601","hex":"47304402200ffb2680431abb7c2696c19da6b0d8160cb3c3c6930cb2a647b9149a32f31d8d02200871d6276a0e83100bc5389bb3c97d8ad4a330a65d5156e9444aee3f6e8d76b601"},"sequence":4294967295}],"vout":[{"value":0,"n":0,"scriptPubKey":{"asm":"","type":"nonstandard"}},{"value":78.19,"n":1,"scriptPubKey":{"asm":"0348b24f77eda58d2bf0bd56f764cfdeb0100d2f1058b2d5318f2f2fc9670e730e OP_CHECKSIG","reqSigs":1,"type":"pubkey","addresses":["p8X7huKtvdnnDzc17Xcxxh1Z9ww8ckxvVJ"]}},{"value":78.2000076,"n":2,"scriptPubKey":{"asm":"0348b24f77eda58d2bf0bd56f764cfdeb0100d2f1058b2d5318f2f2fc9670e730e OP_CHECKSIG","reqSigs":1,"type":"pubkey","addresses":["p8X7huKtvdnnDzc17Xcxxh1Z9ww8ckxvVJ"]}},{"value":0.00004304,"n":3,"scriptPubKey":{"asm":"OP_DUP OP_HASH160 7a58c93fa5e34c0e7c16492ee8061977495aac7c OP_EQUALVERIFY OP_CHECKSIG","reqSigs":1,"type":"pubkeyhash","addresses":["pGhV15RkjbtFhS6uHd3xCvPoNUNQoDMiqz"]}}],"blockhash":"708fb38e86c93c074616b39a6b3655ea3615486449077587f27c1da1c25353ed","confirmations":3,"blocktime":1540474288}