{"hex":"01000000a5c5d15b01e9b0ecffc1599a33969ba70c05b4bdc311f35c497d2e57a73c686d04c74df8d9000000006a473044022032bea4f422530974ebbecc5c54b4b8537591c2a137bae201b40ea618c7cab17402201dcc504b24223845acb7cae0d657e809a1c69d5dfc8eab3dd746549df6cec9360121029e857134122939a57279b02312e296a02bcf0cf876ddc541bd372450215dbeacffffffff022dfb1d00000000001976a9144c28ee798243702bc4500cdb4da9004130bb47f688ac63484d00000000001976a914ad77df5bb6205d1a4a477a33216c5ff50afffdbc88ac00000000","txid":"8bac4758c1aca10cf6f55262a8cdce9b040c0990af73c2903998240cfb1504c4","version":1,"time":1540474288,"locktime":0,"vin":[{"txid":"d9f84dc7046d683ca7572e7d495cf311c3bdb4050ca79b96339a59c1ffecb0e9","vout":0,"scriptSig":{"asm":"3044022032bea4f422530974ebbecc5c54b4b8537591c2a137bae201b40ea618c7cab17402201dcc504b24223845acb7cae0d657e809a1c69d5dfc8eab3dd746549df6cec93601 029e857134122939a57279b02312e296a02bcf0cf876ddc541bd372450215dbeac","hex":"473044022032bea4f422530974ebbecc5c54b4b8537591c2a137bae201b40ea618c7cab17402201dcc504b24223845acb7cae0d657e809a1c69d5dfc8eab3dd746549df6cec9360121029e857134122939a57279b02312e296a02bcf0cf876ddc541bd372450215dbeac"},"sequence":4294967295}],"vout":[{"value":0.01964845,"n":0,"scriptPubKey":{"asm":"OP_DUP OP_HASH160 4c28ee798243702bc4500cdb4da9004130bb47f6 OP_EQUALVERIFY OP_CHECKSIG","reqSigs":1,"type":"pubkeyhash","addresses":["pCVGbFvFLapGyskXvwfxG2ss21bRU9FqUh"]}},{"value":0.05064803,"n":1,"scriptPubKey":{"asm":"OP_DUP OP_HASH160 ad77df5bb6205d1a4a477a33216c5ff50afffdbc OP_EQUALVERIFY OP_CHECKSIG","reqSigs":1,"type":"pubkeyhash","addresses":["pMMnhn8yEmvrncZ7mfRGwDJuYW5MHyvb71"]}}],"blockhash":"708fb38e86c93c074616b39a6b3655ea3615486449077587f27c1da1c25353ed","confirmations":3,"blocktime":1540474288}