{"hex":"010000000c5fd75b0205127296f6e6ba2578f3e8923808949134612bb04dea0733ebf9c9482eefb630010000006a47304402206997282c05ca62e99ceda601a55b9c98222c0d3069f8d48fc87651508895ea9f02203d56ee798c451432ab52a5be8d5b569855d90893cd71c351e8c472bfd36881a6012102d8dabb755abd1dc7817318086800d8e7e91e1a31fafdf0c71e2f87300deb3523ffffffffd00208a0d31451ef21d87a0ed335c7c99bcda8c191c01b921e3b7d87da298e37000000006b483045022100fe8870b696476f1d7ed698aa42308d41fad0f84e1816694e434348cb2a76fb3602207aacfc8806280e97214cccdffcfe073f15a380ac191d0adf0a2e67e0d39f90ca0121021bb79fd0963061b9f050b340a313b2a5a1e87150f5ecf3e29d5f97cdc53ca82fffffffff0264ba1b00000000001976a9140bc7b45d6ad6f0c4dda08fc9d1633233b4e0742c88ac476fed09000000001976a914460cd1c6e5671059291b9fac1dd337c3439f50a788ac00000000","txid":"11c84fb0c9d0bf54a2b0d098fb27b7083c553861bf76ce606d4cf99d10a45bc1","version":1,"time":1540841232,"locktime":0,"vin":[{"txid":"30b6ef2e48c9f9eb3307ea4db02b61349194083892e8f37825bae6f696721205","vout":1,"scriptSig":{"asm":"304402206997282c05ca62e99ceda601a55b9c98222c0d3069f8d48fc87651508895ea9f02203d56ee798c451432ab52a5be8d5b569855d90893cd71c351e8c472bfd36881a601 02d8dabb755abd1dc7817318086800d8e7e91e1a31fafdf0c71e2f87300deb3523","hex":"47304402206997282c05ca62e99ceda601a55b9c98222c0d3069f8d48fc87651508895ea9f02203d56ee798c451432ab52a5be8d5b569855d90893cd71c351e8c472bfd36881a6012102d8dabb755abd1dc7817318086800d8e7e91e1a31fafdf0c71e2f87300deb3523"},"sequence":4294967295},{"txid":"378e29da877d3b1e921bc091c1a8cd9bc9c735d30e7ad821ef5114d3a00802d0","vout":0,"scriptSig":{"asm":"3045022100fe8870b696476f1d7ed698aa42308d41fad0f84e1816694e434348cb2a76fb3602207aacfc8806280e97214cccdffcfe073f15a380ac191d0adf0a2e67e0d39f90ca01 021bb79fd0963061b9f050b340a313b2a5a1e87150f5ecf3e29d5f97cdc53ca82f","hex":"483045022100fe8870b696476f1d7ed698aa42308d41fad0f84e1816694e434348cb2a76fb3602207aacfc8806280e97214cccdffcfe073f15a380ac191d0adf0a2e67e0d39f90ca0121021bb79fd0963061b9f050b340a313b2a5a1e87150f5ecf3e29d5f97cdc53ca82f"},"sequence":4294967295}],"vout":[{"value":0.01817188,"n":0,"scriptPubKey":{"asm":"OP_DUP OP_HASH160 0bc7b45d6ad6f0c4dda08fc9d1633233b4e0742c OP_EQUALVERIFY OP_CHECKSIG","reqSigs":1,"type":"pubkeyhash","addresses":["p6crsXkt42V69Z9ZuxHjibhK2KugNEeUpS"]}},{"value":1.66555463,"n":1,"scriptPubKey":{"asm":"OP_DUP OP_HASH160 460cd1c6e5671059291b9fac1dd337c3439f50a7 OP_EQUALVERIFY OP_CHECKSIG","reqSigs":1,"type":"pubkeyhash","addresses":["pBvxrqugKzohdEq67WrqPQRAuoyzTSAAGP"]}}],"blockhash":"708a36a49be0d57e6c666144faec07c409f1bef8f0697621cbe881184213e947","confirmations":183,"blocktime":1540841232}