{"hex":"01000000105fd75b01669b9fbf00295eed5e4aa7724b713f4b7217c399fbb5318a9a71a6ccad2c3ddb010000006b4830450221008d8f302b7b55dd0538936937b1d3115140ccffd6ef46f5c3f95c8035b9ce76c6022071dd9a6d44c5b08b295a2fa4821671ca06140fc38f248bfa0cb215777207524e012102c70f997963ce3f3ea88266ee3e0c833058cd21ae02eae02cd993b9664c686d89ffffffff04000000000000000000004429353a000000232102c70f997963ce3f3ea88266ee3e0c833058cd21ae02eae02cd993b9664c686d89ac98a529353a000000232102c70f997963ce3f3ea88266ee3e0c833058cd21ae02eae02cd993b9664c686d89ac03290200000000001976a914c98c77a9774bba2295618369afffb431dfa7a76188ac00000000","txid":"dd8579ea368ace4beac096867e5fce80652a029e17fa96161ad758e0fd4ea8c4","version":1,"time":1540841232,"locktime":0,"vin":[{"txid":"db3d2cadcca6719a8a31b5fb99c317724b3f714b72a74a5eed5e2900bf9f9b66","vout":1,"scriptSig":{"asm":"30450221008d8f302b7b55dd0538936937b1d3115140ccffd6ef46f5c3f95c8035b9ce76c6022071dd9a6d44c5b08b295a2fa4821671ca06140fc38f248bfa0cb215777207524e01 02c70f997963ce3f3ea88266ee3e0c833058cd21ae02eae02cd993b9664c686d89","hex":"4830450221008d8f302b7b55dd0538936937b1d3115140ccffd6ef46f5c3f95c8035b9ce76c6022071dd9a6d44c5b08b295a2fa4821671ca06140fc38f248bfa0cb215777207524e012102c70f997963ce3f3ea88266ee3e0c833058cd21ae02eae02cd993b9664c686d89"},"sequence":4294967295}],"vout":[{"value":0,"n":0,"scriptPubKey":{"asm":"","type":"nonstandard"}},{"value":2500,"n":1,"scriptPubKey":{"asm":"02c70f997963ce3f3ea88266ee3e0c833058cd21ae02eae02cd993b9664c686d89 OP_CHECKSIG","reqSigs":1,"type":"pubkey","addresses":["pTQJsZTT2bpmhnKWdT3rdczVS5MaBuXxyB"]}},{"value":2500.00024984,"n":2,"scriptPubKey":{"asm":"02c70f997963ce3f3ea88266ee3e0c833058cd21ae02eae02cd993b9664c686d89 OP_CHECKSIG","reqSigs":1,"type":"pubkey","addresses":["pTQJsZTT2bpmhnKWdT3rdczVS5MaBuXxyB"]}},{"value":0.00141571,"n":3,"scriptPubKey":{"asm":"OP_DUP OP_HASH160 c98c77a9774bba2295618369afffb431dfa7a761 OP_EQUALVERIFY OP_CHECKSIG","reqSigs":1,"type":"pubkeyhash","addresses":["pPvGJ7RaHWgFFf4mpU2Xn8sUqejUBfqoKj"]}}],"blockhash":"708a36a49be0d57e6c666144faec07c409f1bef8f0697621cbe881184213e947","confirmations":183,"blocktime":1540841232}