{"hex":"01000000e08bdc5b01075c769bc9609c74f20620d73ce32fe097b44e88cf6719232509b27be7a657fe000000006b483045022100efc3972a5899f2e5c4017151143237b91c2a881a361fcae1ae9c8d0a037a0b06022021e63a637799782cfdee0cd8194836509af8dc9b0e75d5b5cd7508346d4cb8850121035fa4f4a8b5a3ef84e49948610fe7ac04d15b3e32f73cf2d220a0f15d2d75edafffffffff027a781000000000001976a91437ed21809efaafb35264edcfedc9decf2a65fa1288ace8030000000000001976a9143ecd88348ee8f63396925ed3c06c505b01c5134088ac00000000","txid":"1a463c60c3c193ce7de5e612d77689c1480a1103c8f9cddb65679bd69f72f83f","version":1,"time":1541180400,"locktime":0,"vin":[{"txid":"fe57a6e77bb20925231967cf884eb497e02fe33cd72006f2749c60c99b765c07","vout":0,"scriptSig":{"asm":"3045022100efc3972a5899f2e5c4017151143237b91c2a881a361fcae1ae9c8d0a037a0b06022021e63a637799782cfdee0cd8194836509af8dc9b0e75d5b5cd7508346d4cb88501 035fa4f4a8b5a3ef84e49948610fe7ac04d15b3e32f73cf2d220a0f15d2d75edaf","hex":"483045022100efc3972a5899f2e5c4017151143237b91c2a881a361fcae1ae9c8d0a037a0b06022021e63a637799782cfdee0cd8194836509af8dc9b0e75d5b5cd7508346d4cb8850121035fa4f4a8b5a3ef84e49948610fe7ac04d15b3e32f73cf2d220a0f15d2d75edaf"},"sequence":4294967295}],"vout":[{"value":0.01079418,"n":0,"scriptPubKey":{"asm":"OP_DUP OP_HASH160 37ed21809efaafb35264edcfedc9decf2a65fa12 OP_EQUALVERIFY OP_CHECKSIG","reqSigs":1,"type":"pubkeyhash","addresses":["pAeHSQ2ZaEzihaTyc557ndjkHtuotrXMzq"]}},{"value":0.00001,"n":1,"scriptPubKey":{"asm":"OP_DUP OP_HASH160 3ecd88348ee8f63396925ed3c06c505b01c51340 OP_EQUALVERIFY OP_CHECKSIG","reqSigs":1,"type":"pubkeyhash","addresses":["pBGeKDW5seRMHGmYAMHMLwUMSKaTuKqkNA"]}}],"blockhash":"a52e523dc38ba8ceb2aea501791abf76f30051973c3e08a53a32664275915f3e","confirmations":64,"blocktime":1541180400}