{"hex":"01000000e18bdc5b0159d5e32af8300d79d71c0873bb68023101a078cd5e8698f6376de34771f47061000000006b48304502210090be5aa90ad9a963e2c9ab092730bb7ce36e2bc666ffa4b6c00ec64abd45bfda02203687c5f7659dae14afdfe4a91a5b4f816deef580bc6f15f775cbab19c870a678012102918e38000dde8eaca8dfae75b4fd998769fe4a45bf439a275c194211b0ab4543ffffffff024cca2f00000000001976a914e6a04c4d36d4b7b9086090a9f08a4b796103ea8988ace8030000000000001976a9143ecd88348ee8f63396925ed3c06c505b01c5134088ac00000000","txid":"4d5e476536962ce6066dbe778946e967cb6d06bb11aaa5d638308fa898ea788f","version":1,"time":1541180400,"locktime":0,"vin":[{"txid":"6170f47147e36d37f698865ecd78a001310268bb73081cd7790d30f82ae3d559","vout":0,"scriptSig":{"asm":"304502210090be5aa90ad9a963e2c9ab092730bb7ce36e2bc666ffa4b6c00ec64abd45bfda02203687c5f7659dae14afdfe4a91a5b4f816deef580bc6f15f775cbab19c870a67801 02918e38000dde8eaca8dfae75b4fd998769fe4a45bf439a275c194211b0ab4543","hex":"48304502210090be5aa90ad9a963e2c9ab092730bb7ce36e2bc666ffa4b6c00ec64abd45bfda02203687c5f7659dae14afdfe4a91a5b4f816deef580bc6f15f775cbab19c870a678012102918e38000dde8eaca8dfae75b4fd998769fe4a45bf439a275c194211b0ab4543"},"sequence":4294967295}],"vout":[{"value":0.0313198,"n":0,"scriptPubKey":{"asm":"OP_DUP OP_HASH160 e6a04c4d36d4b7b9086090a9f08a4b796103ea89 OP_EQUALVERIFY OP_CHECKSIG","reqSigs":1,"type":"pubkeyhash","addresses":["pSa1eXiySFPYf3hEz4SYMiMKporBLHMWqK"]}},{"value":0.00001,"n":1,"scriptPubKey":{"asm":"OP_DUP OP_HASH160 3ecd88348ee8f63396925ed3c06c505b01c51340 OP_EQUALVERIFY OP_CHECKSIG","reqSigs":1,"type":"pubkeyhash","addresses":["pBGeKDW5seRMHGmYAMHMLwUMSKaTuKqkNA"]}}],"blockhash":"a52e523dc38ba8ceb2aea501791abf76f30051973c3e08a53a32664275915f3e","confirmations":64,"blocktime":1541180400}