{"hex":"01000000f08bdc5b01d51f2176812b005177318731068b0c7ab7d36a316e14e8b57848ab7dcb012c240200000049483045022100bb5325e4bcd40455387979058a55cf8a5ffb1a3118a4123b1c7b4bc17640689002206e5a5cef5717a3c3b8bc53ed2192d7c93040558fe579a77acc38309d29010ceb01ffffffff04000000000000000000007f74a4030000002321028d9be6ae35cf9126d1ddd81f7e9a33d77e64d908c42bf417d6424ba1da9106a6ac6dc183a4030000002321028d9be6ae35cf9126d1ddd81f7e9a33d77e64d908c42bf417d6424ba1da9106a6acff000000000000001976a91466429c93e46136b2db3fe752c257b3dba5e7649c88ac00000000","txid":"8d2e99a7238724b598a3eb88e47a8c1fa1f3499ea573adbdd69332ce857202b2","version":1,"time":1541180400,"locktime":0,"vin":[{"txid":"242c01cb7dab4878b5e8146e316ad3b77a0c8b063187317751002b8176211fd5","vout":2,"scriptSig":{"asm":"3045022100bb5325e4bcd40455387979058a55cf8a5ffb1a3118a4123b1c7b4bc17640689002206e5a5cef5717a3c3b8bc53ed2192d7c93040558fe579a77acc38309d29010ceb01","hex":"483045022100bb5325e4bcd40455387979058a55cf8a5ffb1a3118a4123b1c7b4bc17640689002206e5a5cef5717a3c3b8bc53ed2192d7c93040558fe579a77acc38309d29010ceb01"},"sequence":4294967295}],"vout":[{"value":0,"n":0,"scriptPubKey":{"asm":"","type":"nonstandard"}},{"value":156.44,"n":1,"scriptPubKey":{"asm":"028d9be6ae35cf9126d1ddd81f7e9a33d77e64d908c42bf417d6424ba1da9106a6 OP_CHECKSIG","reqSigs":1,"type":"pubkey","addresses":["pG17eAwgEzq6zQQ7cLzvCMepRqGYMprwdz"]}},{"value":156.45000045,"n":2,"scriptPubKey":{"asm":"028d9be6ae35cf9126d1ddd81f7e9a33d77e64d908c42bf417d6424ba1da9106a6 OP_CHECKSIG","reqSigs":1,"type":"pubkey","addresses":["pG17eAwgEzq6zQQ7cLzvCMepRqGYMprwdz"]}},{"value":0.00000255,"n":3,"scriptPubKey":{"asm":"OP_DUP OP_HASH160 66429c93e46136b2db3fe752c257b3dba5e7649c OP_EQUALVERIFY OP_CHECKSIG","reqSigs":1,"type":"pubkeyhash","addresses":["pEsGvXfg7BMJ91FueYCRJrpJCEzDnhWNzu"]}}],"blockhash":"a52e523dc38ba8ceb2aea501791abf76f30051973c3e08a53a32664275915f3e","confirmations":64,"blocktime":1541180400}