{"hex":"01000000e18bdc5b017ef00ddbf051252f700908994e3301e9973eb4bb4ab4fc50395241bd1d69ae98000000006b483045022100ffca0e9c2854258ec9eb2db11f3a2e8f11af2782114beeca4bf20ab20e04afd9022046707d7d7ff5d81ff4c5d25f1de0f9e2c6c5a0eda1f146e1473e1e7dd46e740601210385e6f9c09ac1b4d5d94af052924ee5f6616772c7e67eef8a55bdb99c290904beffffffff0243825401000000001976a9144b07bc20d04efc9304f77bbcbd0c06b12c0cd48e88ace8030000000000001976a9143ecd88348ee8f63396925ed3c06c505b01c5134088ac00000000","txid":"956df986ceadbb208b51a7a35826ef2043bb9d5da7ac78e2bea61f3f927f0cc8","version":1,"time":1541180400,"locktime":0,"vin":[{"txid":"98ae691dbd41523950fcb44abbb43e97e901334e990809702f2551f0db0df07e","vout":0,"scriptSig":{"asm":"3045022100ffca0e9c2854258ec9eb2db11f3a2e8f11af2782114beeca4bf20ab20e04afd9022046707d7d7ff5d81ff4c5d25f1de0f9e2c6c5a0eda1f146e1473e1e7dd46e740601 0385e6f9c09ac1b4d5d94af052924ee5f6616772c7e67eef8a55bdb99c290904be","hex":"483045022100ffca0e9c2854258ec9eb2db11f3a2e8f11af2782114beeca4bf20ab20e04afd9022046707d7d7ff5d81ff4c5d25f1de0f9e2c6c5a0eda1f146e1473e1e7dd46e740601210385e6f9c09ac1b4d5d94af052924ee5f6616772c7e67eef8a55bdb99c290904be"},"sequence":4294967295}],"vout":[{"value":0.22315587,"n":0,"scriptPubKey":{"asm":"OP_DUP OP_HASH160 4b07bc20d04efc9304f77bbcbd0c06b12c0cd48e OP_EQUALVERIFY OP_CHECKSIG","reqSigs":1,"type":"pubkeyhash","addresses":["pCPJ9XCHTBN5Bj2RC18Me18aA9CpPdWV1o"]}},{"value":0.00001,"n":1,"scriptPubKey":{"asm":"OP_DUP OP_HASH160 3ecd88348ee8f63396925ed3c06c505b01c51340 OP_EQUALVERIFY OP_CHECKSIG","reqSigs":1,"type":"pubkeyhash","addresses":["pBGeKDW5seRMHGmYAMHMLwUMSKaTuKqkNA"]}}],"blockhash":"a52e523dc38ba8ceb2aea501791abf76f30051973c3e08a53a32664275915f3e","confirmations":64,"blocktime":1541180400}