{"hex":"010000003a18db5b04ed4c63a3d5050aad3449dc6cb8c2f3b94343331555fc8dcf79453aced9884b3c010000006a47304402207759c3336b3bffe879835794c1bc5560abc383aa3021ba38ec33ba5ff13f805c02205e0d508b7a62fe1913d2832f9faee2ffa261beef856c432bfaa0848493d60b110121027212f6089dd544e8518c4e8b751cf52053c83db839fd130c60d2489e7952000fffffffffc3e7c6e243d5b99a2211a96b738c3a630c49986ec016889ac5536eabc1b18e3d010000006a473044022068c8724d287a1af789746306ea56b841f33955d391459f926caaa337bbe8185702201327dde09c48a2707d99b08e81e463e870640f6b13e10803d0e6ba79e7fef49b01210303a15c9fe93eb4e655be1200b7e58bb28875b1a27dc005d46ef2d662a29863edffffffff54ad864710d7674a38a34211532f7321a35e950f83ee8c806d9a1fd9da05f8f5010000006a47304402200955496a2bcce89d954a0a637686ee9a4917d54e522e70cfcc16274d0af16ef60220719137394520db87b03c48758ac7ae4e6ec3268314308d57526e67718ce39b45012102d636c97c6eae776bf33e5a1d6df450fd8cefeb77519c2571ab4074bf1c7d0f78ffffffffa0aa99bdc2907da5645bc68094ef070b5908974e5ef1e34753292b7e8bb5cce0010000006a4730440220356a28ece4212def26ac87d0e3a0aeb2d8bdb90c693c1768c82b33d1fa861aac02203dd65df76b1754152edf620359319a6e13decf9a170fe93a4ba47248d3a4ee96012103f80bd0546a3bb7c2854b03443c2cdd479cffebb3a1927d0f5abcd004b891b029ffffffff025d2a4d00000000001976a914dd794590ab1a64113e384651673539666684768c88ac711e9a16000000001976a914b6651177f13dcb9c685224bbc115820d994f5b9088ac00000000","txid":"49d3521d39c7d705976694218e768b89f4ca50e059db02341e7e42d82d7eec6a","version":1,"time":1541085248,"locktime":0,"vin":[{"txid":"3c4b88d9ce3a4579cf8dfc5515334343b9f3c2b86cdc4934ad0a05d5a3634ced","vout":1,"scriptSig":{"asm":"304402207759c3336b3bffe879835794c1bc5560abc383aa3021ba38ec33ba5ff13f805c02205e0d508b7a62fe1913d2832f9faee2ffa261beef856c432bfaa0848493d60b1101 027212f6089dd544e8518c4e8b751cf52053c83db839fd130c60d2489e7952000f","hex":"47304402207759c3336b3bffe879835794c1bc5560abc383aa3021ba38ec33ba5ff13f805c02205e0d508b7a62fe1913d2832f9faee2ffa261beef856c432bfaa0848493d60b110121027212f6089dd544e8518c4e8b751cf52053c83db839fd130c60d2489e7952000f"},"sequence":4294967295},{"txid":"3d8eb1c1ab6e53c59a8816c06e98490c633a8c736ba911229ab9d543e2c6e7c3","vout":1,"scriptSig":{"asm":"3044022068c8724d287a1af789746306ea56b841f33955d391459f926caaa337bbe8185702201327dde09c48a2707d99b08e81e463e870640f6b13e10803d0e6ba79e7fef49b01 0303a15c9fe93eb4e655be1200b7e58bb28875b1a27dc005d46ef2d662a29863ed","hex":"473044022068c8724d287a1af789746306ea56b841f33955d391459f926caaa337bbe8185702201327dde09c48a2707d99b08e81e463e870640f6b13e10803d0e6ba79e7fef49b01210303a15c9fe93eb4e655be1200b7e58bb28875b1a27dc005d46ef2d662a29863ed"},"sequence":4294967295},{"txid":"f5f805dad91f9a6d808cee830f955ea321732f531142a3384a67d7104786ad54","vout":1,"scriptSig":{"asm":"304402200955496a2bcce89d954a0a637686ee9a4917d54e522e70cfcc16274d0af16ef60220719137394520db87b03c48758ac7ae4e6ec3268314308d57526e67718ce39b4501 02d636c97c6eae776bf33e5a1d6df450fd8cefeb77519c2571ab4074bf1c7d0f78","hex":"47304402200955496a2bcce89d954a0a637686ee9a4917d54e522e70cfcc16274d0af16ef60220719137394520db87b03c48758ac7ae4e6ec3268314308d57526e67718ce39b45012102d636c97c6eae776bf33e5a1d6df450fd8cefeb77519c2571ab4074bf1c7d0f78"},"sequence":4294967295},{"txid":"e0ccb58b7e2b295347e3f15e4e9708590b07ef9480c65b64a57d90c2bd99aaa0","vout":1,"scriptSig":{"asm":"30440220356a28ece4212def26ac87d0e3a0aeb2d8bdb90c693c1768c82b33d1fa861aac02203dd65df76b1754152edf620359319a6e13decf9a170fe93a4ba47248d3a4ee9601 03f80bd0546a3bb7c2854b03443c2cdd479cffebb3a1927d0f5abcd004b891b029","hex":"4730440220356a28ece4212def26ac87d0e3a0aeb2d8bdb90c693c1768c82b33d1fa861aac02203dd65df76b1754152edf620359319a6e13decf9a170fe93a4ba47248d3a4ee96012103f80bd0546a3bb7c2854b03443c2cdd479cffebb3a1927d0f5abcd004b891b029"},"sequence":4294967295}],"vout":[{"value":0.05057117,"n":0,"scriptPubKey":{"asm":"OP_DUP OP_HASH160 dd794590ab1a64113e384651673539666684768c OP_EQUALVERIFY OP_CHECKSIG","reqSigs":1,"type":"pubkeyhash","addresses":["pRjcpD2cmRrPbMBXcYFUPQp1tc987uW8rR"]}},{"value":3.79199089,"n":1,"scriptPubKey":{"asm":"OP_DUP OP_HASH160 b6651177f13dcb9c685224bbc115820d994f5b90 OP_EQUALVERIFY OP_CHECKSIG","reqSigs":1,"type":"pubkeyhash","addresses":["pNAzFxoJxJGwLewRxgomXnV2sts9enc2wN"]}}],"blockhash":"f00ecdca5b2a580bbcc92b22e0288a4cfcb2f0d7974878214c9849ba968f6856","confirmations":106,"blocktime":1541085248}