{"hex":"010000004018db5b01a0aa99bdc2907da5645bc68094ef070b5908974e5ef1e34753292b7e8bb5cce0000000006a4730440220628377a54b75fb66fff60a5d3aed821dfca860b26c4c5e8164e1dda607763dd40220375652f782828afdc3c2ca0895c7450d37ae4970d52dc42ee584cbb11a4cfe660121028cb920f59c12d79842255d22f95cb209accfa6830daca59ba39d16355b6e3cc4ffffffff03000000000000000000a04d9900000000002321028cb920f59c12d79842255d22f95cb209accfa6830daca59ba39d16355b6e3cc4ac0feb0400000000001976a91473471adebcd697ea1dc18e8db2582a74a6bab88188ac00000000","txid":"e2648ec2f0b51ad496ea3920869f5d458e70de9741b21b007b3564dd58e5ee8f","version":1,"time":1541085248,"locktime":0,"vin":[{"txid":"e0ccb58b7e2b295347e3f15e4e9708590b07ef9480c65b64a57d90c2bd99aaa0","vout":0,"scriptSig":{"asm":"30440220628377a54b75fb66fff60a5d3aed821dfca860b26c4c5e8164e1dda607763dd40220375652f782828afdc3c2ca0895c7450d37ae4970d52dc42ee584cbb11a4cfe6601 028cb920f59c12d79842255d22f95cb209accfa6830daca59ba39d16355b6e3cc4","hex":"4730440220628377a54b75fb66fff60a5d3aed821dfca860b26c4c5e8164e1dda607763dd40220375652f782828afdc3c2ca0895c7450d37ae4970d52dc42ee584cbb11a4cfe660121028cb920f59c12d79842255d22f95cb209accfa6830daca59ba39d16355b6e3cc4"},"sequence":4294967295}],"vout":[{"value":0,"n":0,"scriptPubKey":{"asm":"","type":"nonstandard"}},{"value":0.1004688,"n":1,"scriptPubKey":{"asm":"028cb920f59c12d79842255d22f95cb209accfa6830daca59ba39d16355b6e3cc4 OP_CHECKSIG","reqSigs":1,"type":"pubkey","addresses":["p8xHVRJ6JVee7NQuivDZCLKgwHCvMS4FJv"]}},{"value":0.00322319,"n":2,"scriptPubKey":{"asm":"OP_DUP OP_HASH160 73471adebcd697ea1dc18e8db2582a74a6bab881 OP_EQUALVERIFY OP_CHECKSIG","reqSigs":1,"type":"pubkeyhash","addresses":["pG476E2NDDXyKLQPSQr8zUwis1yY3UyfR9"]}}],"blockhash":"f00ecdca5b2a580bbcc92b22e0288a4cfcb2f0d7974878214c9849ba968f6856","confirmations":106,"blocktime":1541085248}