{"hex":"010000008c25d75b03cbca1e8760c11108665b281eb9c79125a1f254b2f583d50e33de5250c8d9e17d010000006a47304402206b1bb18417f9a70561fe275da5b145c3716238d499c1a503d32666dd5532b9850220174782ad9d02943a7fe63ba457199c4e51ef60ca76d02bb110a3803076f24cc8012103cd830f9f5e45776834cd3aa7d11345b607dd0917d05f2891c672161ca333cdedffffffff2c12331cf27f70b8a071667cd5710ecca65eecfc895213f5a25daac815178b3b010000006a473044022000925b05996083647a13806fa0d5505cad831529fca736bc8586116a9bf92ce902201569e151c33e0620f9e6aa8fdc3c04d33ca227f284b5a3d0eed46c5cabebd119012102e99f36c5390e72abcaee2bd7e987a6e48ff93ec49bd59134bb8702204ac292e2ffffffff12128823ce9a6258c1ea57e8cb30757be3f2fbb59942842720097611ce0e58a1010000006b483045022100ef9f991da434f956ed3c5611579df7634913f6af17eebd98989f93db89d00a08022031ff6219687b6170a35ed6d6be5be9da3bb5ac4cb901d719bf4c15c61929dc7c01210246db8cde215f026b9dddb6c86f92da94776c3b7fabe0629defabdb89ae2ba950ffffffff02750f3700000000001976a914a4e3efaf49af50a52d31de9f74e8508ef9bfba3088ac8ededa13000000001976a9140793e35d35f7fe875325baa90524e202de7c1da388ac00000000","txid":"3c8d7c81985ec7af25102b6450fc342aab91457ef168e7268b57a992cd676ab3","version":1,"time":1540826512,"locktime":0,"vin":[{"txid":"7de1d9c85052de330ed583f5b254f2a12591c7b91e285b660811c160871ecacb","vout":1,"scriptSig":{"asm":"304402206b1bb18417f9a70561fe275da5b145c3716238d499c1a503d32666dd5532b9850220174782ad9d02943a7fe63ba457199c4e51ef60ca76d02bb110a3803076f24cc801 03cd830f9f5e45776834cd3aa7d11345b607dd0917d05f2891c672161ca333cded","hex":"47304402206b1bb18417f9a70561fe275da5b145c3716238d499c1a503d32666dd5532b9850220174782ad9d02943a7fe63ba457199c4e51ef60ca76d02bb110a3803076f24cc8012103cd830f9f5e45776834cd3aa7d11345b607dd0917d05f2891c672161ca333cded"},"sequence":4294967295},{"txid":"3b8b1715c8aa5da2f5135289fcec5ea6cc0e71d57c6671a0b8707ff21c33122c","vout":1,"scriptSig":{"asm":"3044022000925b05996083647a13806fa0d5505cad831529fca736bc8586116a9bf92ce902201569e151c33e0620f9e6aa8fdc3c04d33ca227f284b5a3d0eed46c5cabebd11901 02e99f36c5390e72abcaee2bd7e987a6e48ff93ec49bd59134bb8702204ac292e2","hex":"473044022000925b05996083647a13806fa0d5505cad831529fca736bc8586116a9bf92ce902201569e151c33e0620f9e6aa8fdc3c04d33ca227f284b5a3d0eed46c5cabebd119012102e99f36c5390e72abcaee2bd7e987a6e48ff93ec49bd59134bb8702204ac292e2"},"sequence":4294967295},{"txid":"a1580ece1176092027844299b5fbf2e37b7530cbe857eac158629ace23881212","vout":1,"scriptSig":{"asm":"3045022100ef9f991da434f956ed3c5611579df7634913f6af17eebd98989f93db89d00a08022031ff6219687b6170a35ed6d6be5be9da3bb5ac4cb901d719bf4c15c61929dc7c01 0246db8cde215f026b9dddb6c86f92da94776c3b7fabe0629defabdb89ae2ba950","hex":"483045022100ef9f991da434f956ed3c5611579df7634913f6af17eebd98989f93db89d00a08022031ff6219687b6170a35ed6d6be5be9da3bb5ac4cb901d719bf4c15c61929dc7c01210246db8cde215f026b9dddb6c86f92da94776c3b7fabe0629defabdb89ae2ba950"},"sequence":4294967295}],"vout":[{"value":0.03608437,"n":0,"scriptPubKey":{"asm":"OP_DUP OP_HASH160 a4e3efaf49af50a52d31de9f74e8508ef9bfba30 OP_EQUALVERIFY OP_CHECKSIG","reqSigs":1,"type":"pubkeyhash","addresses":["pLaS5TMvMPS8nxeJd82aeCRsNiHW5BU4Ce"]}},{"value":3.33110926,"n":1,"scriptPubKey":{"asm":"OP_DUP OP_HASH160 0793e35d35f7fe875325baa90524e202de7c1da3 OP_EQUALVERIFY OP_CHECKSIG","reqSigs":1,"type":"pubkeyhash","addresses":["p6Ee6VkcEpaCKbpGUbWswenp9pSuD4gjuQ"]}}],"blockhash":"398a38f7c75250a57e7003fc572257df3569fb770296c132122e7ad0ddd0148b","confirmations":194,"blocktime":1540826512}