{"hex":"010000009025d75b013ac0ac693093b52a472ef5006a6ec88e3ce3eba0b825ea9ea54d8da81b1cdba6020000004847304402201d23ab7bf6a8bf199a5bb4ea79cdd15a806fea46174b6b339104a6409436653f02201dfaf26267125fff72bb1953138589e72e6fbdc56a429adaa66cc072d714b85101ffffffff030000000000000000004f16e7d1010000002321020b1cd26fc4b9f080aea1cf7b667efd5e8453f70429056589831fa7f63506ddbfac07520400000000001976a91466429c93e46136b2db3fe752c257b3dba5e7649c88ac00000000","txid":"ebdcf072e34d8935063b0ec57f7281b61d2555dc761f3d55e0ba373fc4feba84","version":1,"time":1540826512,"locktime":0,"vin":[{"txid":"a6db1c1ba88d4da59eea25b8a0ebe33c8ec86e6a00f52e472ab5933069acc03a","vout":2,"scriptSig":{"asm":"304402201d23ab7bf6a8bf199a5bb4ea79cdd15a806fea46174b6b339104a6409436653f02201dfaf26267125fff72bb1953138589e72e6fbdc56a429adaa66cc072d714b85101","hex":"47304402201d23ab7bf6a8bf199a5bb4ea79cdd15a806fea46174b6b339104a6409436653f02201dfaf26267125fff72bb1953138589e72e6fbdc56a429adaa66cc072d714b85101"},"sequence":4294967295}],"vout":[{"value":0,"n":0,"scriptPubKey":{"asm":"","type":"nonstandard"}},{"value":78.16549967,"n":1,"scriptPubKey":{"asm":"020b1cd26fc4b9f080aea1cf7b667efd5e8453f70429056589831fa7f63506ddbf OP_CHECKSIG","reqSigs":1,"type":"pubkey","addresses":["pECTDpfW4nW8hYte3f3F9ZQxwgWmBwmcYL"]}},{"value":0.00283143,"n":2,"scriptPubKey":{"asm":"OP_DUP OP_HASH160 66429c93e46136b2db3fe752c257b3dba5e7649c OP_EQUALVERIFY OP_CHECKSIG","reqSigs":1,"type":"pubkeyhash","addresses":["pEsGvXfg7BMJ91FueYCRJrpJCEzDnhWNzu"]}}],"blockhash":"398a38f7c75250a57e7003fc572257df3569fb770296c132122e7ad0ddd0148b","confirmations":194,"blocktime":1540826512}