{"hex":"01000000c6a0c25b010000000000000000000000000000000000000000000000000000000000000000ffffffff0401270102ffffffff0100000000000000001976a914b1dfdfb130e495ec95676c3021aa6c70aeba59da88ac00000000","txid":"253fede5665721cda0472afa2712dac35d285c966bc8b275586ec5a68c225cdb","version":1,"time":1539481805,"locktime":0,"vin":[{"coinbase":"01270102","sequence":4294967295}],"vout":[{"value":0,"n":0,"scriptPubKey":{"asm":"OP_DUP OP_HASH160 b1dfdfb130e495ec95676c3021aa6c70aeba59da OP_EQUALVERIFY OP_CHECKSIG","reqSigs":1,"type":"pubkeyhash","addresses":["pMm5zgc93be9yYn79D4ogLZfjewwxthT6q"]}}],"blockhash":"00000455a45029d2f85ae42678adc91e21a6630acf87145591d7e9df10edb3bf","confirmations":406,"blocktime":1539481805}