{"hex":"01000000494bd65b01fd4de1f13aa42f60a22e24113dc6860d6c9a81082ffd060ab4f7e831bbecb509000000006a47304402206b7baad2b23303ebca5bc7a6ca5c36a927c06b0b84ef9fca0ae645332b38281d022068efd08701a17c7710dba535e98bdeb6be7709d31e65fc79635f9907de650ddc012103cbf3e81970e2f496741dd3cd414372778d51818dd83f7e3acefb5bf41b9570e8ffffffff025a701500000000001976a914416cbc852c6fe1da7b744206e329d65c89df6e8888ac10270000000000001976a91403567664d8c0b54c053d517181c8c2fc0441b7ce88ac00000000","txid":"10183f1f04d590fb3ba27ca615fa882fe9e16309455463c3c7569f205ab4d9f7","version":1,"time":1540770640,"locktime":0,"vin":[{"txid":"09b5ecbb31e8f7b40a06fd2f08819a6c0d86c63d11242ea2602fa43af1e14dfd","vout":0,"scriptSig":{"asm":"304402206b7baad2b23303ebca5bc7a6ca5c36a927c06b0b84ef9fca0ae645332b38281d022068efd08701a17c7710dba535e98bdeb6be7709d31e65fc79635f9907de650ddc01 03cbf3e81970e2f496741dd3cd414372778d51818dd83f7e3acefb5bf41b9570e8","hex":"47304402206b7baad2b23303ebca5bc7a6ca5c36a927c06b0b84ef9fca0ae645332b38281d022068efd08701a17c7710dba535e98bdeb6be7709d31e65fc79635f9907de650ddc012103cbf3e81970e2f496741dd3cd414372778d51818dd83f7e3acefb5bf41b9570e8"},"sequence":4294967295}],"vout":[{"value":0.01405018,"n":0,"scriptPubKey":{"asm":"OP_DUP OP_HASH160 416cbc852c6fe1da7b744206e329d65c89df6e88 OP_EQUALVERIFY OP_CHECKSIG","reqSigs":1,"type":"pubkeyhash","addresses":["pBWWPK5dG4iXViDMaP92DLucMXYuZcW92k"]}},{"value":0.0001,"n":1,"scriptPubKey":{"asm":"OP_DUP OP_HASH160 03567664d8c0b54c053d517181c8c2fc0441b7ce OP_EQUALVERIFY OP_CHECKSIG","reqSigs":1,"type":"pubkeyhash","addresses":["p5rDooJnuuJyAwVARE2TXsBRQHakWgsyuu"]}}],"blockhash":"61205ed3020634d4e0e494ba88c531719155eefeb005bc535e57c8d1f0604c9b","confirmations":250,"blocktime":1540770640}