{"hex":"01000000504bd65b01af64d0f74ac18232d1de07fc2eea50734fb3be50d849eb53b52d4ee442fd090201000000484730440220280fa9f4f39e97a1ce9cd90154aed8bf05a156f7a2e2d3bca08f1b48947647fb022078eddcb4a57600f460c4b40a0bad96759bdbd120d45d8a19d58366aeb5b0762201ffffffff0400000000000000000000a9a1d1010000002321020b1cd26fc4b9f080aea1cf7b667efd5e8453f70429056589831fa7f63506ddbfac4febb0d1010000002321020b1cd26fc4b9f080aea1cf7b667efd5e8453f70429056589831fa7f63506ddbfac55000000000000001976a914c98c77a9774bba2295618369afffb431dfa7a76188ac00000000","txid":"b6185ec903ce068445fba451fbf1e2efaa7c13b7b9d8214bd144094947f7e3fe","version":1,"time":1540770640,"locktime":0,"vin":[{"txid":"0209fd42e44e2db553eb49d850beb34f7350ea2efc07ded13282c14af7d064af","vout":1,"scriptSig":{"asm":"30440220280fa9f4f39e97a1ce9cd90154aed8bf05a156f7a2e2d3bca08f1b48947647fb022078eddcb4a57600f460c4b40a0bad96759bdbd120d45d8a19d58366aeb5b0762201","hex":"4730440220280fa9f4f39e97a1ce9cd90154aed8bf05a156f7a2e2d3bca08f1b48947647fb022078eddcb4a57600f460c4b40a0bad96759bdbd120d45d8a19d58366aeb5b0762201"},"sequence":4294967295}],"vout":[{"value":0,"n":0,"scriptPubKey":{"asm":"","type":"nonstandard"}},{"value":78.12,"n":1,"scriptPubKey":{"asm":"020b1cd26fc4b9f080aea1cf7b667efd5e8453f70429056589831fa7f63506ddbf OP_CHECKSIG","reqSigs":1,"type":"pubkey","addresses":["pECTDpfW4nW8hYte3f3F9ZQxwgWmBwmcYL"]}},{"value":78.13000015,"n":2,"scriptPubKey":{"asm":"020b1cd26fc4b9f080aea1cf7b667efd5e8453f70429056589831fa7f63506ddbf OP_CHECKSIG","reqSigs":1,"type":"pubkey","addresses":["pECTDpfW4nW8hYte3f3F9ZQxwgWmBwmcYL"]}},{"value":8.5e-7,"n":3,"scriptPubKey":{"asm":"OP_DUP OP_HASH160 c98c77a9774bba2295618369afffb431dfa7a761 OP_EQUALVERIFY OP_CHECKSIG","reqSigs":1,"type":"pubkeyhash","addresses":["pPvGJ7RaHWgFFf4mpU2Xn8sUqejUBfqoKj"]}}],"blockhash":"61205ed3020634d4e0e494ba88c531719155eefeb005bc535e57c8d1f0604c9b","confirmations":250,"blocktime":1540770640}