{"hex":"01000000f095dc5b012588e5551d40350b1105791f3870fab04b351a6191edb1555770c953a71b1e680200000048473044022007cf6f956e0428077140b21ef1fa5738dfafbe054cbf6f25aab51c71d300b85e02201945897ad2be1d426971559cac3846b69fa4164e9b8135c291e9334e76cb286101ffffffff0400000000000000000000bb1bd20100000023210348b24f77eda58d2bf0bd56f764cfdeb0100d2f1058b2d5318f2f2fc9670e730eac49c11bd20100000023210348b24f77eda58d2bf0bd56f764cfdeb0100d2f1058b2d5318f2f2fc9670e730eacf71c0000000000001976a91466429c93e46136b2db3fe752c257b3dba5e7649c88ac00000000","txid":"53cc6ddaa52da8bc44cc2b21b4b01d90772736adc77f9ad61a098a568d8841bf","version":1,"time":1541182960,"locktime":0,"vin":[{"txid":"681e1ba753c9705755b1ed91611a354bb0fa70381f7905110b35401d55e58825","vout":2,"scriptSig":{"asm":"3044022007cf6f956e0428077140b21ef1fa5738dfafbe054cbf6f25aab51c71d300b85e02201945897ad2be1d426971559cac3846b69fa4164e9b8135c291e9334e76cb286101","hex":"473044022007cf6f956e0428077140b21ef1fa5738dfafbe054cbf6f25aab51c71d300b85e02201945897ad2be1d426971559cac3846b69fa4164e9b8135c291e9334e76cb286101"},"sequence":4294967295}],"vout":[{"value":0,"n":0,"scriptPubKey":{"asm":"","type":"nonstandard"}},{"value":78.2,"n":1,"scriptPubKey":{"asm":"0348b24f77eda58d2bf0bd56f764cfdeb0100d2f1058b2d5318f2f2fc9670e730e OP_CHECKSIG","reqSigs":1,"type":"pubkey","addresses":["p8X7huKtvdnnDzc17Xcxxh1Z9ww8ckxvVJ"]}},{"value":78.20001609,"n":2,"scriptPubKey":{"asm":"0348b24f77eda58d2bf0bd56f764cfdeb0100d2f1058b2d5318f2f2fc9670e730e OP_CHECKSIG","reqSigs":1,"type":"pubkey","addresses":["p8X7huKtvdnnDzc17Xcxxh1Z9ww8ckxvVJ"]}},{"value":0.00007415,"n":3,"scriptPubKey":{"asm":"OP_DUP OP_HASH160 66429c93e46136b2db3fe752c257b3dba5e7649c OP_EQUALVERIFY OP_CHECKSIG","reqSigs":1,"type":"pubkeyhash","addresses":["pEsGvXfg7BMJ91FueYCRJrpJCEzDnhWNzu"]}}],"blockhash":"44daacf8b4ae6f9712db87447e5732de190b059a715920d87f4b262014c04f6a","confirmations":60,"blocktime":1541182960}