{"hex":"01000000e395dc5b01c80c7f923f1fa6bee278aca75d9dbb4320ef2658a3a7518b20bbadce86f96d95000000006b483045022100e09640002533237c3541fbe2c6529bf3c2d330e889aa708d79de0cc86c5246ed0220083ce2785c50749a214f3f9cba0f9ef0ac1f18a4777715e2eeeddb42b19ee920012103a77f6b930d0d62281678546e2a15af3280ea8b3ddd74f5fa3df18156fc83b272ffffffff02943ecf00000000001976a914228b37f90f2c9206b5f27848fa095a50244b2c6f88ac9b218500000000001976a914bca0be604d6184a90fc99baf16baed96dc3aed6d88ac00000000","txid":"d564e0d3cacb2f9ea28551ac7fcb68cebaf5f76de1e74f226be20d782bb45be4","version":1,"time":1541182960,"locktime":0,"vin":[{"txid":"956df986ceadbb208b51a7a35826ef2043bb9d5da7ac78e2bea61f3f927f0cc8","vout":0,"scriptSig":{"asm":"3045022100e09640002533237c3541fbe2c6529bf3c2d330e889aa708d79de0cc86c5246ed0220083ce2785c50749a214f3f9cba0f9ef0ac1f18a4777715e2eeeddb42b19ee92001 03a77f6b930d0d62281678546e2a15af3280ea8b3ddd74f5fa3df18156fc83b272","hex":"483045022100e09640002533237c3541fbe2c6529bf3c2d330e889aa708d79de0cc86c5246ed0220083ce2785c50749a214f3f9cba0f9ef0ac1f18a4777715e2eeeddb42b19ee920012103a77f6b930d0d62281678546e2a15af3280ea8b3ddd74f5fa3df18156fc83b272"},"sequence":4294967295}],"vout":[{"value":0.13581972,"n":0,"scriptPubKey":{"asm":"OP_DUP OP_HASH160 228b37f90f2c9206b5f27848fa095a50244b2c6f OP_EQUALVERIFY OP_CHECKSIG","reqSigs":1,"type":"pubkeyhash","addresses":["p8hDxJrtsJ6nymD9wDBJKvDTwsG6NEMKq5"]}},{"value":0.08724891,"n":1,"scriptPubKey":{"asm":"OP_DUP OP_HASH160 bca0be604d6184a90fc99baf16baed96dc3aed6d OP_EQUALVERIFY OP_CHECKSIG","reqSigs":1,"type":"pubkeyhash","addresses":["pNjwoSAkXndL6vGLcK7xZSXLGzbm16cMYc"]}}],"blockhash":"44daacf8b4ae6f9712db87447e5732de190b059a715920d87f4b262014c04f6a","confirmations":60,"blocktime":1541182960}