{"hex":"01000000e0aed65b01d450fa22b1c9a4a898d3fccf6a3e22abf221427c6c5ea7ca96b9ccab9ab306d60200000049483045022100c3ebe0971a4bb84cfd7f2b4c5c0b283d717a5dc19702abfb79fac0aab7596dd802204d2cc43c0cbf86833dce6c4e22de39933641773ea966c7a2cea3200613e8243801ffffffff04000000000000000000c08a86d2010000002321020b1cd26fc4b9f080aea1cf7b667efd5e8453f70429056589831fa7f63506ddbfac79d695d2010000002321020b1cd26fc4b9f080aea1cf7b667efd5e8453f70429056589831fa7f63506ddbfac80fe210a000000001976a91494663191b35c746d9b53200027af769cfd8a5ec588ac00000000","txid":"38f92a6617b0e96c8e010d5fa53eea1becf7c53d1086ceeb8073c2191ff1f9bc","version":1,"time":1540796128,"locktime":0,"vin":[{"txid":"d606b39aabccb996caa75e6c7c4221f2ab223e6acffcd398a8a4c9b122fa50d4","vout":2,"scriptSig":{"asm":"3045022100c3ebe0971a4bb84cfd7f2b4c5c0b283d717a5dc19702abfb79fac0aab7596dd802204d2cc43c0cbf86833dce6c4e22de39933641773ea966c7a2cea3200613e8243801","hex":"483045022100c3ebe0971a4bb84cfd7f2b4c5c0b283d717a5dc19702abfb79fac0aab7596dd802204d2cc43c0cbf86833dce6c4e22de39933641773ea966c7a2cea3200613e8243801"},"sequence":4294967295}],"vout":[{"value":0,"n":0,"scriptPubKey":{"asm":"","type":"nonstandard"}},{"value":78.27,"n":1,"scriptPubKey":{"asm":"020b1cd26fc4b9f080aea1cf7b667efd5e8453f70429056589831fa7f63506ddbf OP_CHECKSIG","reqSigs":1,"type":"pubkey","addresses":["pECTDpfW4nW8hYte3f3F9ZQxwgWmBwmcYL"]}},{"value":78.28002425,"n":2,"scriptPubKey":{"asm":"020b1cd26fc4b9f080aea1cf7b667efd5e8453f70429056589831fa7f63506ddbf OP_CHECKSIG","reqSigs":1,"type":"pubkey","addresses":["pECTDpfW4nW8hYte3f3F9ZQxwgWmBwmcYL"]}},{"value":1.7,"n":3,"scriptPubKey":{"asm":"OP_DUP OP_HASH160 94663191b35c746d9b53200027af769cfd8a5ec5 OP_EQUALVERIFY OP_CHECKSIG","reqSigs":1,"type":"pubkeyhash","addresses":["pK5Eddk3vr4yi7hrwuoQfuFmrHAeSuez22"]}}],"blockhash":"a72e4dc335ceaec6658ff58bab826ec5a2cd75db0165e04ddac10d1d4066b224","confirmations":232,"blocktime":1540796128}