{"hex":"01000000daaed65b015cf2b7402cc33a1f873f26054b93c216533ba87abfe00d35f37ce58debf248cb000000006b48304502210091224390c1bc6e069afb63665702fc307103aa36eaa581c4a0e90e63cea257d7022023fd0b3d8a0a7b26ef1c203b572e07e483892398ecdcf3a8e1421d28ce3345ef012102cf56cf130c111debb043762a9c5d8f72896da543943540dbefd40204fe985d4affffffff0280775262cb7323001976a9147fb8f13ad914ea39f9a93d5df5ff3bdfb0b499e688ac0088526a740000001976a914b0ce8642748d49f1cc613ef2ecf29e7d214262c188ac00000000","txid":"b249f5103aea3aeb73a0d0e6737ec57264e6d7a0938c6ae46144211f7c4603e1","version":1,"time":1540796128,"locktime":0,"vin":[{"txid":"cb48f2eb8de57cf3350de0bf7aa83b5316c2934b05263f871f3ac32c40b7f25c","vout":0,"scriptSig":{"asm":"304502210091224390c1bc6e069afb63665702fc307103aa36eaa581c4a0e90e63cea257d7022023fd0b3d8a0a7b26ef1c203b572e07e483892398ecdcf3a8e1421d28ce3345ef01 02cf56cf130c111debb043762a9c5d8f72896da543943540dbefd40204fe985d4a","hex":"48304502210091224390c1bc6e069afb63665702fc307103aa36eaa581c4a0e90e63cea257d7022023fd0b3d8a0a7b26ef1c203b572e07e483892398ecdcf3a8e1421d28ce3345ef012102cf56cf130c111debb043762a9c5d8f72896da543943540dbefd40204fe985d4a"},"sequence":4294967295}],"vout":[{"value":99789415.5,"n":0,"scriptPubKey":{"asm":"OP_DUP OP_HASH160 7fb8f13ad914ea39f9a93d5df5ff3bdfb0b499e6 OP_EQUALVERIFY OP_CHECKSIG","reqSigs":1,"type":"pubkeyhash","addresses":["pHBua5rnLdc82Gnmp4Q3mmL9edaJsrxraY"]}},{"value":5000,"n":1,"scriptPubKey":{"asm":"OP_DUP OP_HASH160 b0ce8642748d49f1cc613ef2ecf29e7d214262c1 OP_EQUALVERIFY OP_CHECKSIG","reqSigs":1,"type":"pubkeyhash","addresses":["pMfSY3AcSDZ1N7wAM2xZLAyYbC3rciXuRH"]}}],"blockhash":"a72e4dc335ceaec6658ff58bab826ec5a2cd75db0165e04ddac10d1d4066b224","confirmations":232,"blocktime":1540796128}