{"hex":"010000005d50d75b018fcdae77ff5fb91c795e2e2bcd5a318fe4a58a19907fdefd29608eab45042c43010000006a47304402207deacb7bdb2116ede89b094886ed0ac5badf68ea7470a0425e7335fca8a2b0a902203c365ab2855bc37c3048692145b2474694114fd9870b27e170eb28dd0b71cd1e01210246db8cde215f026b9dddb6c86f92da94776c3b7fabe0629defabdb89ae2ba950ffffffff021e6bdd13000000001976a914cdb56160f9ae68df78a603d8e75dad1baff8c83188ac476fed09000000001976a914e2fb338ca0db4f9cc67315b46a1b6da696d9fc1088ac00000000","txid":"30b6ef2e48c9f9eb3307ea4db02b61349194083892e8f37825bae6f696721205","version":1,"time":1540837472,"locktime":0,"vin":[{"txid":"432c0445ab8e6029fdde7f90198aa5e48f315acd2b2e5e791cb95fff77aecd8f","vout":1,"scriptSig":{"asm":"304402207deacb7bdb2116ede89b094886ed0ac5badf68ea7470a0425e7335fca8a2b0a902203c365ab2855bc37c3048692145b2474694114fd9870b27e170eb28dd0b71cd1e01 0246db8cde215f026b9dddb6c86f92da94776c3b7fabe0629defabdb89ae2ba950","hex":"47304402207deacb7bdb2116ede89b094886ed0ac5badf68ea7470a0425e7335fca8a2b0a902203c365ab2855bc37c3048692145b2474694114fd9870b27e170eb28dd0b71cd1e01210246db8cde215f026b9dddb6c86f92da94776c3b7fabe0629defabdb89ae2ba950"},"sequence":4294967295}],"vout":[{"value":3.33277982,"n":0,"scriptPubKey":{"asm":"OP_DUP OP_HASH160 cdb56160f9ae68df78a603d8e75dad1baff8c831 OP_EQUALVERIFY OP_CHECKSIG","reqSigs":1,"type":"pubkeyhash","addresses":["pQJG1ZVF5yb8W7XFh73qK8h922F1KZn1uK"]}},{"value":1.66555463,"n":1,"scriptPubKey":{"asm":"OP_DUP OP_HASH160 e2fb338ca0db4f9cc67315b46a1b6da696d9fc10 OP_EQUALVERIFY OP_CHECKSIG","reqSigs":1,"type":"pubkeyhash","addresses":["pSEjqqScPmUqajdXzCBqTCYNqQZkbyFfHM"]}}],"blockhash":"ea88ef03738d818d24f1a4aeeb4462c7c7acaa97f8aabd2614432af6c67d68b8","confirmations":187,"blocktime":1540837472}