{"hex":"010000006050d75b01b62cbc00ed43ab938782bcc4b1d4fe27f2c2188ba53ad7f3a0e18d2fb880793401000000484730440220349be05b5ab700db7e82f9caac723b6d9410ded8bfffc86fcd5227ebe365ba7202207b1c9da779909711a9179bd62d2433410255352ad714285df6b65b5a8ed160d101ffffffff03000000000000000000a70aa2d1010000002321020b1cd26fc4b9f080aea1cf7b667efd5e8453f70429056589831fa7f63506ddbfac03290200000000001976a9148ed189b44bba56ef2095854efd11229aa16bf8e488ac00000000","txid":"4f7dc683d795263ba0e23add4845ec2f07bb540b3fe1775a669173abf0b4bdda","version":1,"time":1540837472,"locktime":0,"vin":[{"txid":"347980b82f8de1a0f3d73aa58b18c2f227fed4b1c4bc828793ab43ed00bc2cb6","vout":1,"scriptSig":{"asm":"30440220349be05b5ab700db7e82f9caac723b6d9410ded8bfffc86fcd5227ebe365ba7202207b1c9da779909711a9179bd62d2433410255352ad714285df6b65b5a8ed160d101","hex":"4730440220349be05b5ab700db7e82f9caac723b6d9410ded8bfffc86fcd5227ebe365ba7202207b1c9da779909711a9179bd62d2433410255352ad714285df6b65b5a8ed160d101"},"sequence":4294967295}],"vout":[{"value":0,"n":0,"scriptPubKey":{"asm":"","type":"nonstandard"}},{"value":78.12024999,"n":1,"scriptPubKey":{"asm":"020b1cd26fc4b9f080aea1cf7b667efd5e8453f70429056589831fa7f63506ddbf OP_CHECKSIG","reqSigs":1,"type":"pubkey","addresses":["pECTDpfW4nW8hYte3f3F9ZQxwgWmBwmcYL"]}},{"value":0.00141571,"n":2,"scriptPubKey":{"asm":"OP_DUP OP_HASH160 8ed189b44bba56ef2095854efd11229aa16bf8e4 OP_EQUALVERIFY OP_CHECKSIG","reqSigs":1,"type":"pubkeyhash","addresses":["pJZjAtqMwq9jFa2kTVK5K8psT7erMHW8FX"]}}],"blockhash":"ea88ef03738d818d24f1a4aeeb4462c7c7acaa97f8aabd2614432af6c67d68b8","confirmations":187,"blocktime":1540837472}