{"hex":"01000000002bdf5b010e4399aecd9726cebd2d4ca0cb8f7b72604414524541688070574500afc2b2da0100000049483045022100e58eddbfc5cb79fbf97048e9a0b5636228bf9f809b8068effb32d372ec4492c502205c65e417b632a17868f69be73e4823c3882e0d3efc411216fe38f60112e2546c01ffffffff0400000000000000000040b846a403000000232103670be5afe77a215b42f2bc4bd7c1c5049117430d8e81c1de5c44e9ab4c566689ac40b846a403000000232103670be5afe77a215b42f2bc4bd7c1c5049117430d8e81c1de5c44e9ab4c566689ac80fe210a000000001976a91473471adebcd697ea1dc18e8db2582a74a6bab88188ac00000000","txid":"c67b09942bae63a431f273962e6558b826170ee0dd5bc34f0b8ec17595231fd7","version":1,"time":1541352192,"locktime":0,"vin":[{"txid":"dab2c2af004557708068414552144460727b8fcba04c2dbdce2697cdae99430e","vout":1,"scriptSig":{"asm":"3045022100e58eddbfc5cb79fbf97048e9a0b5636228bf9f809b8068effb32d372ec4492c502205c65e417b632a17868f69be73e4823c3882e0d3efc411216fe38f60112e2546c01","hex":"483045022100e58eddbfc5cb79fbf97048e9a0b5636228bf9f809b8068effb32d372ec4492c502205c65e417b632a17868f69be73e4823c3882e0d3efc411216fe38f60112e2546c01"},"sequence":4294967295}],"vout":[{"value":0,"n":0,"scriptPubKey":{"asm":"","type":"nonstandard"}},{"value":156.41,"n":1,"scriptPubKey":{"asm":"03670be5afe77a215b42f2bc4bd7c1c5049117430d8e81c1de5c44e9ab4c566689 OP_CHECKSIG","reqSigs":1,"type":"pubkey","addresses":["pRVJAmbxV6TyzWMNW1oNoV1k3zM77bZrBx"]}},{"value":156.41,"n":2,"scriptPubKey":{"asm":"03670be5afe77a215b42f2bc4bd7c1c5049117430d8e81c1de5c44e9ab4c566689 OP_CHECKSIG","reqSigs":1,"type":"pubkey","addresses":["pRVJAmbxV6TyzWMNW1oNoV1k3zM77bZrBx"]}},{"value":1.7,"n":3,"scriptPubKey":{"asm":"OP_DUP OP_HASH160 73471adebcd697ea1dc18e8db2582a74a6bab881 OP_EQUALVERIFY OP_CHECKSIG","reqSigs":1,"type":"pubkeyhash","addresses":["pG476E2NDDXyKLQPSQr8zUwis1yY3UyfR9"]}}],"blockhash":"d4f6891f1991c23c20c7af4868095ef880bd85d24f449f8aed427ba6be7684f4","confirmations":46,"blocktime":1541352192}