{"hex":"01000000f92adf5b01bdaf2f8dcbde4aa89fa5621b0e13fdf4b55b714b73a5188863bc4e5275968a20000000006b483045022100a96fd42d456ea39746d075cc0d970e9121a71f1ee50012f08dfe3d2adb60068102204c3974f3feb11f8fa58551a220e21c995e2cd375bdf854bdad256dcc1f2abee5012103bb6c9955ac63fe50fa7637177345fbd3dd72066603e697434bbf4fc40e5f61d0ffffffff020088453cd41a02001976a91429febc023c721da6cf5749a1aa569444931ed94c88ac0000e941cc6b01001976a914fdde016c930ade4929f0609226ee8db5b1b07b7888ac00000000","txid":"d18075e6e2796b0d32f5f15f3d332ce424b4d7329a822f250632e3c10bda5d58","version":1,"time":1541352192,"locktime":0,"vin":[{"txid":"208a9675524ebc638818a5734b715bb5f4fd130e1b62a59fa84adecb8d2fafbd","vout":0,"scriptSig":{"asm":"3045022100a96fd42d456ea39746d075cc0d970e9121a71f1ee50012f08dfe3d2adb60068102204c3974f3feb11f8fa58551a220e21c995e2cd375bdf854bdad256dcc1f2abee501 03bb6c9955ac63fe50fa7637177345fbd3dd72066603e697434bbf4fc40e5f61d0","hex":"483045022100a96fd42d456ea39746d075cc0d970e9121a71f1ee50012f08dfe3d2adb60068102204c3974f3feb11f8fa58551a220e21c995e2cd375bdf854bdad256dcc1f2abee5012103bb6c9955ac63fe50fa7637177345fbd3dd72066603e697434bbf4fc40e5f61d0"},"sequence":4294967295}],"vout":[{"value":5924488,"n":0,"scriptPubKey":{"asm":"OP_DUP OP_HASH160 29febc023c721da6cf5749a1aa569444931ed94c OP_EQUALVERIFY OP_CHECKSIG","reqSigs":1,"type":"pubkeyhash","addresses":["p9Nd4pxPgJkCMAe4Y6cVpS2mDrPiCkz28s"]}},{"value":4000000,"n":1,"scriptPubKey":{"asm":"OP_DUP OP_HASH160 fdde016c930ade4929f0609226ee8db5b1b07b78 OP_EQUALVERIFY OP_CHECKSIG","reqSigs":1,"type":"pubkeyhash","addresses":["pUgu7TNpXg6YTRR48qgmDdRrYog88eMs1m"]}}],"blockhash":"d4f6891f1991c23c20c7af4868095ef880bd85d24f449f8aed427ba6be7684f4","confirmations":46,"blocktime":1541352192}