{"hex":"0100000040bbd65b01b7cf05fd9b0734c28f018be813a31f6387a4b1ed6e8f35d4080de61bb2f539ec0200000049483045022100df3c0c869157e0500dfcfa49e6c92d5d8b72d921d0813157ec4c34d2993be81e022004a06d3f60154ad2208f1445b51e311a63b9b4acaee41911c95044e4e7da68cc01ffffffff030000000000000000002248b3d1010000002321020b1cd26fc4b9f080aea1cf7b667efd5e8453f70429056589831fa7f63506ddbfac50f80c00000000001976a914f0371486e89ca3a2057c60329aff065cd986aee188ac00000000","txid":"d8f4561fbf59fdf499edbf5b2c9fbf954c081c5a6f8e7be6dc2d6582009b624b","version":1,"time":1540799296,"locktime":0,"vin":[{"txid":"ec39f5b21be60d08d4358f6eedb1a487631fa313e88b018fc234079bfd05cfb7","vout":2,"scriptSig":{"asm":"3045022100df3c0c869157e0500dfcfa49e6c92d5d8b72d921d0813157ec4c34d2993be81e022004a06d3f60154ad2208f1445b51e311a63b9b4acaee41911c95044e4e7da68cc01","hex":"483045022100df3c0c869157e0500dfcfa49e6c92d5d8b72d921d0813157ec4c34d2993be81e022004a06d3f60154ad2208f1445b51e311a63b9b4acaee41911c95044e4e7da68cc01"},"sequence":4294967295}],"vout":[{"value":0,"n":0,"scriptPubKey":{"asm":"","type":"nonstandard"}},{"value":78.1315485,"n":1,"scriptPubKey":{"asm":"020b1cd26fc4b9f080aea1cf7b667efd5e8453f70429056589831fa7f63506ddbf OP_CHECKSIG","reqSigs":1,"type":"pubkey","addresses":["pECTDpfW4nW8hYte3f3F9ZQxwgWmBwmcYL"]}},{"value":0.0085,"n":2,"scriptPubKey":{"asm":"OP_DUP OP_HASH160 f0371486e89ca3a2057c60329aff065cd986aee1 OP_EQUALVERIFY OP_CHECKSIG","reqSigs":1,"type":"pubkeyhash","addresses":["pTSiMnNaB4wjS22bEGEEkNcu17kmCfBCLj"]}}],"blockhash":"36cb2a14398f6585e575827a86d43eb050145cad2bb13b03dc41ec5385092191","confirmations":228,"blocktime":1540799296}