{"hex":"0100000032bbd65b02cba929cef34f064ccdbefc39bf14e96a7de2327b959cdbad204db1c656feee37010000006a473044022069646211152ec53c1e0ee924d6daedf954eb60a2952869d0e8f477b250771a81022016ea55e4a93c07fdef9d46994610a2add3a2696c53d3b8ca97c61ba9004fdbdd0121023772916a0645d9c6a79855566ea3eb6fed43957323bd243d128297aa10408492ffffffff56450af550f97ec13df3589f90992b5c75bac5e2e85572bab106d04df7cb655f010000006b483045022100ab2d8fd75b250fc82d66ecd34430454ac8bffc16d9ad8edfa002788a8818c40b02204d6b38a2bc1455cea6a98ee9f34d0f49c79e3cc18bdb89e7f1b1ea6805b991890121023772916a0645d9c6a79855566ea3eb6fed43957323bd243d128297aa10408492ffffffff02c07fdc0b000000001976a91426ba61e81aee8fe6ee047c9d71da2e0d9747038f88ac00ca9a3b000000001976a914ca8cf0c64c70fef01fd509b38009c1b160b4dc0d88ac00000000","txid":"ea00482dcece650fd4ae48f3a020c351924e38a2a3617793094f2d19eb78514f","version":1,"time":1540799296,"locktime":0,"vin":[{"txid":"37eefe56c6b14d20addb9c957b32e27d6ae914bf39fcbecd4c064ff3ce29a9cb","vout":1,"scriptSig":{"asm":"3044022069646211152ec53c1e0ee924d6daedf954eb60a2952869d0e8f477b250771a81022016ea55e4a93c07fdef9d46994610a2add3a2696c53d3b8ca97c61ba9004fdbdd01 023772916a0645d9c6a79855566ea3eb6fed43957323bd243d128297aa10408492","hex":"473044022069646211152ec53c1e0ee924d6daedf954eb60a2952869d0e8f477b250771a81022016ea55e4a93c07fdef9d46994610a2add3a2696c53d3b8ca97c61ba9004fdbdd0121023772916a0645d9c6a79855566ea3eb6fed43957323bd243d128297aa10408492"},"sequence":4294967295},{"txid":"5f65cbf74dd006b1ba7255e8e2c5ba755c2b99909f58f33dc17ef950f50a4556","vout":1,"scriptSig":{"asm":"3045022100ab2d8fd75b250fc82d66ecd34430454ac8bffc16d9ad8edfa002788a8818c40b02204d6b38a2bc1455cea6a98ee9f34d0f49c79e3cc18bdb89e7f1b1ea6805b9918901 023772916a0645d9c6a79855566ea3eb6fed43957323bd243d128297aa10408492","hex":"483045022100ab2d8fd75b250fc82d66ecd34430454ac8bffc16d9ad8edfa002788a8818c40b02204d6b38a2bc1455cea6a98ee9f34d0f49c79e3cc18bdb89e7f1b1ea6805b991890121023772916a0645d9c6a79855566ea3eb6fed43957323bd243d128297aa10408492"},"sequence":4294967295}],"vout":[{"value":1.99,"n":0,"scriptPubKey":{"asm":"OP_DUP OP_HASH160 26ba61e81aee8fe6ee047c9d71da2e0d9747038f OP_EQUALVERIFY OP_CHECKSIG","reqSigs":1,"type":"pubkeyhash","addresses":["p95MA5HFEdEkJBSF6D9EyByiXezSzZg8G9"]}},{"value":10,"n":1,"scriptPubKey":{"asm":"OP_DUP OP_HASH160 ca8cf0c64c70fef01fd509b38009c1b160b4dc0d OP_EQUALVERIFY OP_CHECKSIG","reqSigs":1,"type":"pubkeyhash","addresses":["pQ1ZYB5wqubqWCbYt86c6WKcDPrc56j4pK"]}}],"blockhash":"36cb2a14398f6585e575827a86d43eb050145cad2bb13b03dc41ec5385092191","confirmations":228,"blocktime":1540799296}