{"hex":"01000000d4a2c25b010000000000000000000000000000000000000000000000000000000000000000ffffffff0401610101ffffffff0100000000000000001976a914c5f492a29225d439fb20b0e52d932460208b7a4488ac00000000","txid":"0a50789573cbd290d78203cc3f445f4376b9363340481deebfcfb1e276c7ec1b","version":1,"time":1539482324,"locktime":0,"vin":[{"coinbase":"01610101","sequence":4294967295}],"vout":[{"value":0,"n":0,"scriptPubKey":{"asm":"OP_DUP OP_HASH160 c5f492a29225d439fb20b0e52d932460208b7a44 OP_EQUALVERIFY OP_CHECKSIG","reqSigs":1,"type":"pubkeyhash","addresses":["pPbGJiEU4XG9MnnVy96HPKBZS9anNQXmku"]}}],"blockhash":"0000013695d78d27140b76acd3b390a6d406ab58c1b23abf8447e4a7b2b3ab2b","confirmations":62,"blocktime":1539482324}