{"hex":"0100000025a1c25b010000000000000000000000000000000000000000000000000000000000000000ffffffff0401310101ffffffff0100000000000000001976a9144d531b23edbf1e649c7d61305fcdd341b444624e88ac00000000","txid":"0f5bf4a5d341b014f2adae9e7bedc364fc3722875ae1f8d62414c405aad484f2","version":1,"time":1539481893,"locktime":0,"vin":[{"coinbase":"01310101","sequence":4294967295}],"vout":[{"value":0,"n":0,"scriptPubKey":{"asm":"OP_DUP OP_HASH160 4d531b23edbf1e649c7d61305fcdd341b444624e OP_EQUALVERIFY OP_CHECKSIG","reqSigs":1,"type":"pubkeyhash","addresses":["pCbRnnQt9WkBD36Hnnds3ZZgfHgFaXGhtj"]}}],"blockhash":"00000ebd6fa46d258f81263c5be215ec821d97f3a55f5361d3f7547796d82fde","confirmations":396,"blocktime":1539481893}