{"hex":"01000000b88ae05b014bed93b6d2a193fa51ade067b7059b6f00ef00357ba8742adf8f4595d4e8877a000000006b483045022100d2e58306adf6508d3799d0d725533a419abd267e65f0db6cd8f9ab56f5e3acfd0220541eaee10c0a12ae764394d2de1758a4447dcba788f2c45636ee1aecddd7c74d01210366e122b73cce88e46eb7928f771c87c717867fc3818e42678e00b0ec83c8ecdcffffffff02f0c01100000000001976a914f4b6d762fd9e7776ef5f11f0bfa8552c33abdef588aca62a0800000000001976a914f1e287902d59edb0b28137cf6b393d03303718b188ac00000000","txid":"19092896deb7d60c21ca90cfc1c720b7f69a424c279865b398bd82d028ad0a7a","version":1,"time":1541442240,"locktime":0,"vin":[{"txid":"7a87e8d495458fdf2a74a87b3500ef006f9b05b767e0ad51fa93a1d2b693ed4b","vout":0,"scriptSig":{"asm":"3045022100d2e58306adf6508d3799d0d725533a419abd267e65f0db6cd8f9ab56f5e3acfd0220541eaee10c0a12ae764394d2de1758a4447dcba788f2c45636ee1aecddd7c74d01 0366e122b73cce88e46eb7928f771c87c717867fc3818e42678e00b0ec83c8ecdc","hex":"483045022100d2e58306adf6508d3799d0d725533a419abd267e65f0db6cd8f9ab56f5e3acfd0220541eaee10c0a12ae764394d2de1758a4447dcba788f2c45636ee1aecddd7c74d01210366e122b73cce88e46eb7928f771c87c717867fc3818e42678e00b0ec83c8ecdc"},"sequence":4294967295}],"vout":[{"value":0.01163504,"n":0,"scriptPubKey":{"asm":"OP_DUP OP_HASH160 f4b6d762fd9e7776ef5f11f0bfa8552c33abdef5 OP_EQUALVERIFY OP_CHECKSIG","reqSigs":1,"type":"pubkeyhash","addresses":["pTrW7YymvrFddb5yeF9vb6krZVSXVm6Mt8"]}},{"value":0.00535206,"n":1,"scriptPubKey":{"asm":"OP_DUP OP_HASH160 f1e287902d59edb0b28137cf6b393d03303718b1 OP_EQUALVERIFY OP_CHECKSIG","reqSigs":1,"type":"pubkeyhash","addresses":["pTbYRV6puQSQ3XoHn8BZwJRc7xyUj75bK1"]}}],"blockhash":"cc8f63b397de9922392b5fca6cd4172eb6ab884f6a6d7cbe2c8453bd020fa361","confirmations":22,"blocktime":1541442240}