{"hex":"01000000c08ae05b01fa8e969e30c99a14eed7e41fde74796e85e0a3734c686b9251de00b28953f186010000006b483045022100c021a8d93c2ac25c8c65ed2a680e113296d663f5d872c15d676b90aea4353a7d0220387b7f96a6227c6d14af5308cc5942c6cd6af6ce429be94bee7d5860474c2447012102c1f46322b7b35df7d03b1b344424906fdd4464990c52ef24779c8089ae2e04aaffffffff04000000000000000000004429353a000000232102c1f46322b7b35df7d03b1b344424906fdd4464990c52ef24779c8089ae2e04aaac514429353a000000232102c1f46322b7b35df7d03b1b344424906fdd4464990c52ef24779c8089ae2e04aaacc6010000000000001976a914b281632e032cac99462bf7779521442a307c52a088ac00000000","txid":"c51343b3941ee9da1eadcccbf5bf8814053cfde1f37e4bd8032364b659f98bbb","version":1,"time":1541442240,"locktime":0,"vin":[{"txid":"86f15389b200de51926b684c73a3e0856e7974de1fe4d7ee149ac9309e968efa","vout":1,"scriptSig":{"asm":"3045022100c021a8d93c2ac25c8c65ed2a680e113296d663f5d872c15d676b90aea4353a7d0220387b7f96a6227c6d14af5308cc5942c6cd6af6ce429be94bee7d5860474c244701 02c1f46322b7b35df7d03b1b344424906fdd4464990c52ef24779c8089ae2e04aa","hex":"483045022100c021a8d93c2ac25c8c65ed2a680e113296d663f5d872c15d676b90aea4353a7d0220387b7f96a6227c6d14af5308cc5942c6cd6af6ce429be94bee7d5860474c2447012102c1f46322b7b35df7d03b1b344424906fdd4464990c52ef24779c8089ae2e04aa"},"sequence":4294967295}],"vout":[{"value":0,"n":0,"scriptPubKey":{"asm":"","type":"nonstandard"}},{"value":2500,"n":1,"scriptPubKey":{"asm":"02c1f46322b7b35df7d03b1b344424906fdd4464990c52ef24779c8089ae2e04aa OP_CHECKSIG","reqSigs":1,"type":"pubkey","addresses":["pMyBYUpcH3ehvzacvgmtahza4iSykvMcUD"]}},{"value":2500.00000081,"n":2,"scriptPubKey":{"asm":"02c1f46322b7b35df7d03b1b344424906fdd4464990c52ef24779c8089ae2e04aa OP_CHECKSIG","reqSigs":1,"type":"pubkey","addresses":["pMyBYUpcH3ehvzacvgmtahza4iSykvMcUD"]}},{"value":0.00000454,"n":3,"scriptPubKey":{"asm":"OP_DUP OP_HASH160 b281632e032cac99462bf7779521442a307c52a0 OP_EQUALVERIFY OP_CHECKSIG","reqSigs":1,"type":"pubkeyhash","addresses":["pMpRUr5SqF4SLREGfNjMyHwaGCi3EHeLR1"]}}],"blockhash":"cc8f63b397de9922392b5fca6cd4172eb6ab884f6a6d7cbe2c8453bd020fa361","confirmations":22,"blocktime":1541442240}