{"hex":"01000000d8a2c25b010000000000000000000000000000000000000000000000000000000000000000ffffffff0401620101ffffffff0100000000000000001976a91463d5365809327a7ca5d96bf4540af16afc56cfd388ac00000000","txid":"37e0175ac67ab2f9d9812f8617469a43bb215f5d95a683e0e8b89d8a12fd87c7","version":1,"time":1539482328,"locktime":0,"vin":[{"coinbase":"01620101","sequence":4294967295}],"vout":[{"value":0,"n":0,"scriptPubKey":{"asm":"OP_DUP OP_HASH160 63d5365809327a7ca5d96bf4540af16afc56cfd3 OP_EQUALVERIFY OP_CHECKSIG","reqSigs":1,"type":"pubkeyhash","addresses":["pEeSWwoirWL5vkHa6K5uY7vCtkmyT2SdX9"]}}],"blockhash":"0000069c511de2f8f15a5c0e44b0618ee09dfb221ebcece04b3c879d2b44df8c","confirmations":347,"blocktime":1539482328}