{"hex":"01000000239ec25b010000000000000000000000000000000000000000000000000000000000000000ffffffff03590102ffffffff0100000000000000001976a91429fbac6dc799b9237866be419168cd4cd2515e3988ac00000000","txid":"cf3ee7d14e564fffafcbcc924b9925b865fb7e38f110c7bd62f53ca347f25501","version":1,"time":1539481126,"locktime":0,"vin":[{"coinbase":"590102","sequence":4294967295}],"vout":[{"value":0,"n":0,"scriptPubKey":{"asm":"OP_DUP OP_HASH160 29fbac6dc799b9237866be419168cd4cd2515e39 OP_EQUALVERIFY OP_CHECKSIG","reqSigs":1,"type":"pubkeyhash","addresses":["p9NZQ9y4u6eBNGRSS8ZqsAE7XqFHgT6wto"]}}],"blockhash":"00000ea77e60a177bcca5a19f8d64e31d634d72821a3a15c27e1c55b77f596f1","confirmations":436,"blocktime":1539481126}