{"hex":"01000000a05cc35b01871a980cac8953dafe95a9fd6500af15f789c2cf84e4e647be85e2096e53bb5b020000004847304402207c71880abe94a8059359ef1933b35a8de71c1470f7f297cf84aba6d70bf3acfd02203a15acfeaee2a095f745ceac44d5bd3058ac56b5bb890e7f9fccd3478b09b35f01ffffffff04000000000000000000800bd78e0e00000023210348b24f77eda58d2bf0bd56f764cfdeb0100d2f1058b2d5318f2f2fc9670e730eacc04de68e0e00000023210348b24f77eda58d2bf0bd56f764cfdeb0100d2f1058b2d5318f2f2fc9670e730eac80fe210a000000001976a9148e3f6e3d2f029829ca356517f18e326c94cd54cd88ac00000000","txid":"1f74a986aea355f5dbd2b1d77da6b08608bff16fc06a5e68e7cbfd4e59617846","version":1,"time":1539529888,"locktime":0,"vin":[{"txid":"5bbb536e09e285be47e6e484cfc289f715af0065fda995feda5389ac0c981a87","vout":2,"scriptSig":{"asm":"304402207c71880abe94a8059359ef1933b35a8de71c1470f7f297cf84aba6d70bf3acfd02203a15acfeaee2a095f745ceac44d5bd3058ac56b5bb890e7f9fccd3478b09b35f01","hex":"47304402207c71880abe94a8059359ef1933b35a8de71c1470f7f297cf84aba6d70bf3acfd02203a15acfeaee2a095f745ceac44d5bd3058ac56b5bb890e7f9fccd3478b09b35f01"},"sequence":4294967295}],"vout":[{"value":0,"n":0,"scriptPubKey":{"asm":"","type":"nonstandard"}},{"value":625.26,"n":1,"scriptPubKey":{"asm":"0348b24f77eda58d2bf0bd56f764cfdeb0100d2f1058b2d5318f2f2fc9670e730e OP_CHECKSIG","reqSigs":1,"type":"pubkey","addresses":["p8X7huKtvdnnDzc17Xcxxh1Z9ww8ckxvVJ"]}},{"value":625.27,"n":2,"scriptPubKey":{"asm":"0348b24f77eda58d2bf0bd56f764cfdeb0100d2f1058b2d5318f2f2fc9670e730e OP_CHECKSIG","reqSigs":1,"type":"pubkey","addresses":["p8X7huKtvdnnDzc17Xcxxh1Z9ww8ckxvVJ"]}},{"value":1.7,"n":3,"scriptPubKey":{"asm":"OP_DUP OP_HASH160 8e3f6e3d2f029829ca356517f18e326c94cd54cd OP_EQUALVERIFY OP_CHECKSIG","reqSigs":1,"type":"pubkeyhash","addresses":["pJWi9BXT9hsVaAft92RNcufBy1LZGU4RtT"]}}],"blockhash":"0b6ce4bbfa4951f98f7433e4aa73e3feb1b7bcc11fcde3818805ff311b16f25c","confirmations":34,"blocktime":1539529888}