{"hex":"01000000935cc35b01167dee097acbe600517da093fbef931d96402791b44251c9c356389518e13b32000000006b483045022100c5eb9b30416fa73abe488167e4f5a57e8544ddcdb39030291c351076ddc512f9022024fdb634ea82cfac6bcf4f2b369248183b639c76f3734ab176e5d18d8456e276012102c1725e581c2105c47a703293a62a5a5894977a764f95c169196149303f9fcf9affffffff0200e8f080357a23001976a914644c4673e1f0afc8a554780398b8eeec470b0f9288ac0088526a740000001976a9147a58c93fa5e34c0e7c16492ee8061977495aac7c88ac00000000","txid":"793498c303159fc7ddf301a77621786e849e0614500a25367af67f6623bf2007","version":1,"time":1539529888,"locktime":0,"vin":[{"txid":"323be118953856c3c95142b4912740961d93effb93a07d5100e6cb7a09ee7d16","vout":0,"scriptSig":{"asm":"3045022100c5eb9b30416fa73abe488167e4f5a57e8544ddcdb39030291c351076ddc512f9022024fdb634ea82cfac6bcf4f2b369248183b639c76f3734ab176e5d18d8456e27601 02c1725e581c2105c47a703293a62a5a5894977a764f95c169196149303f9fcf9a","hex":"483045022100c5eb9b30416fa73abe488167e4f5a57e8544ddcdb39030291c351076ddc512f9022024fdb634ea82cfac6bcf4f2b369248183b639c76f3734ab176e5d18d8456e276012102c1725e581c2105c47a703293a62a5a5894977a764f95c169196149303f9fcf9a"},"sequence":4294967295}],"vout":[{"value":99859944,"n":0,"scriptPubKey":{"asm":"OP_DUP OP_HASH160 644c4673e1f0afc8a554780398b8eeec470b0f92 OP_EQUALVERIFY OP_CHECKSIG","reqSigs":1,"type":"pubkeyhash","addresses":["pEgu9akmFr5nczFAnVDgQUGjxzNfn6b983"]}},{"value":5000,"n":1,"scriptPubKey":{"asm":"OP_DUP OP_HASH160 7a58c93fa5e34c0e7c16492ee8061977495aac7c OP_EQUALVERIFY OP_CHECKSIG","reqSigs":1,"type":"pubkeyhash","addresses":["pGhV15RkjbtFhS6uHd3xCvPoNUNQoDMiqz"]}}],"blockhash":"0b6ce4bbfa4951f98f7433e4aa73e3feb1b7bcc11fcde3818805ff311b16f25c","confirmations":324,"blocktime":1539529888}