{"hex":"01000000b1a9c25b01d38c81b916a06cf2d5cbffff66b3426ef389d0c8d60bee5083e84a5d5f5b0384000000006b483045022100d5682a439b908a0a3f1f454bc5092332d34650e55af9fb06f1e52f2166e69ff502204f9133dc7df0951a91659d094484ab99c7abf29015cb5c1f6397f450db9ef8bb0121036e43facd00fa9fbef0a7fcbd5d74c7b5f7237d88e48d1cec750fb2b088bad824ffffffff0200eea4bc647d23001976a91423507157d5acdc61227f7f8e11b700af6fc07abc88ac0088526a740000001976a914239bf4dba7e2193b7f701a7b68d0e94c85d85fac88ac00000000","txid":"24369087b1cd497e9f8ebc24c8ed7324a9419064add7c9d69528ea668b885cd0","version":1,"time":1539484096,"locktime":0,"vin":[{"txid":"84035b5f5d4ae88350ee0bd6c8d089f36e42b366ffffcbd5f26ca016b9818cd3","vout":0,"scriptSig":{"asm":"3045022100d5682a439b908a0a3f1f454bc5092332d34650e55af9fb06f1e52f2166e69ff502204f9133dc7df0951a91659d094484ab99c7abf29015cb5c1f6397f450db9ef8bb01 036e43facd00fa9fbef0a7fcbd5d74c7b5f7237d88e48d1cec750fb2b088bad824","hex":"483045022100d5682a439b908a0a3f1f454bc5092332d34650e55af9fb06f1e52f2166e69ff502204f9133dc7df0951a91659d094484ab99c7abf29015cb5c1f6397f450db9ef8bb0121036e43facd00fa9fbef0a7fcbd5d74c7b5f7237d88e48d1cec750fb2b088bad824"},"sequence":4294967295}],"vout":[{"value":99894958,"n":0,"scriptPubKey":{"asm":"OP_DUP OP_HASH160 23507157d5acdc61227f7f8e11b700af6fc07abc OP_EQUALVERIFY OP_CHECKSIG","reqSigs":1,"type":"pubkeyhash","addresses":["p8mJDgNWMNU2fjFXLTuSdwFkfBoh5UZitL"]}},{"value":5000,"n":1,"scriptPubKey":{"asm":"OP_DUP OP_HASH160 239bf4dba7e2193b7f701a7b68d0e94c85d85fac OP_EQUALVERIFY OP_CHECKSIG","reqSigs":1,"type":"pubkeyhash","addresses":["p8nrgTxTfKDC3hvmSmFxDcxpYguUCo8yWb"]}}],"blockhash":"591ba0b9b18e4893599482d7e77c71d57e0ff5ebbf2d85ccdfa6428e9992ad67","confirmations":41,"blocktime":1539484096}