{"hex":"01000000c0a9c25b01112ef102d1c6e42f75c68971944bb7410bf4df8c44f2cec9211d62ab7b7acecf0100000049483045022100fa9c2c24ca6bd88d3b764eed9c3010a3da5aaf1a931c4be8048761b9f2590fdd02207850b148006073dbdd8f8e63d2c64a2e45f84b26c761f5a40dd7bb7e81d3300a01ffffffff0400000000000000000000fee848070000002321028d9be6ae35cf9126d1ddd81f7e9a33d77e64d908c42bf417d6424ba1da9106a6ac4040f848070000002321028d9be6ae35cf9126d1ddd81f7e9a33d77e64d908c42bf417d6424ba1da9106a6ac80fe210a000000001976a914f6ea51b1cf22773ff3c68e8299209dc9d69d593f88ac00000000","txid":"a8891e774fa67e150c96f27630e2d6da505373b3999fe12bb73f793f559d9b67","version":1,"time":1539484096,"locktime":0,"vin":[{"txid":"cfce7a7bab621d21c9cef2448cdff40b41b74b947189c6752fe4c6d102f12e11","vout":1,"scriptSig":{"asm":"3045022100fa9c2c24ca6bd88d3b764eed9c3010a3da5aaf1a931c4be8048761b9f2590fdd02207850b148006073dbdd8f8e63d2c64a2e45f84b26c761f5a40dd7bb7e81d3300a01","hex":"483045022100fa9c2c24ca6bd88d3b764eed9c3010a3da5aaf1a931c4be8048761b9f2590fdd02207850b148006073dbdd8f8e63d2c64a2e45f84b26c761f5a40dd7bb7e81d3300a01"},"sequence":4294967295}],"vout":[{"value":0,"n":0,"scriptPubKey":{"asm":"","type":"nonstandard"}},{"value":312.88,"n":1,"scriptPubKey":{"asm":"028d9be6ae35cf9126d1ddd81f7e9a33d77e64d908c42bf417d6424ba1da9106a6 OP_CHECKSIG","reqSigs":1,"type":"pubkey","addresses":["pG17eAwgEzq6zQQ7cLzvCMepRqGYMprwdz"]}},{"value":312.89,"n":2,"scriptPubKey":{"asm":"028d9be6ae35cf9126d1ddd81f7e9a33d77e64d908c42bf417d6424ba1da9106a6 OP_CHECKSIG","reqSigs":1,"type":"pubkey","addresses":["pG17eAwgEzq6zQQ7cLzvCMepRqGYMprwdz"]}},{"value":1.7,"n":3,"scriptPubKey":{"asm":"OP_DUP OP_HASH160 f6ea51b1cf22773ff3c68e8299209dc9d69d593f OP_EQUALVERIFY OP_CHECKSIG","reqSigs":1,"type":"pubkeyhash","addresses":["pU498g2Tze2KypwgCnomJXchMWH8HXyZb6"]}}],"blockhash":"591ba0b9b18e4893599482d7e77c71d57e0ff5ebbf2d85ccdfa6428e9992ad67","confirmations":327,"blocktime":1539484096}