{"hex":"01000000c098d45b012c19b309770cf9e3ca6ad63691b01da2b3095461f5ca2f8d813c6a5a2e043047010000006a473044022069be0b5cabd76baea536de83052cf9990cdaa78f5616243fc8164847aa49f6dc0220462ebadecfa1522203fbbcf9bf0b3c4b2ab6b2c3779208e938f308f21986fb6d0121022cb20f58eb2ca4b47bc97c5fa4ef998482ec570ad269a2395877d5e31cb04af8ffffffff04000000000000000000004429353a0000002321022cb20f58eb2ca4b47bc97c5fa4ef998482ec570ad269a2395877d5e31cb04af8aca54429353a0000002321022cb20f58eb2ca4b47bc97c5fa4ef998482ec570ad269a2395877d5e31cb04af8aca2030000000000001976a91466ec743fabf4c4372ba7784f6dcad77313a1dea688ac00000000","txid":"4f255ea080c465515ae92fd97293260826ac7d551ed44c8912ae8b0dd002160f","version":1,"time":1540659392,"locktime":0,"vin":[{"txid":"4730042e5a6a3c818d2fcaf5615409b3a21db09136d66acae3f90c7709b3192c","vout":1,"scriptSig":{"asm":"3044022069be0b5cabd76baea536de83052cf9990cdaa78f5616243fc8164847aa49f6dc0220462ebadecfa1522203fbbcf9bf0b3c4b2ab6b2c3779208e938f308f21986fb6d01 022cb20f58eb2ca4b47bc97c5fa4ef998482ec570ad269a2395877d5e31cb04af8","hex":"473044022069be0b5cabd76baea536de83052cf9990cdaa78f5616243fc8164847aa49f6dc0220462ebadecfa1522203fbbcf9bf0b3c4b2ab6b2c3779208e938f308f21986fb6d0121022cb20f58eb2ca4b47bc97c5fa4ef998482ec570ad269a2395877d5e31cb04af8"},"sequence":4294967295}],"vout":[{"value":0,"n":0,"scriptPubKey":{"asm":"","type":"nonstandard"}},{"value":2500,"n":1,"scriptPubKey":{"asm":"022cb20f58eb2ca4b47bc97c5fa4ef998482ec570ad269a2395877d5e31cb04af8 OP_CHECKSIG","reqSigs":1,"type":"pubkey","addresses":["pEvnPPdEgpysWtMLoQJddPXrMXSY4VJxwR"]}},{"value":2500.00000165,"n":2,"scriptPubKey":{"asm":"022cb20f58eb2ca4b47bc97c5fa4ef998482ec570ad269a2395877d5e31cb04af8 OP_CHECKSIG","reqSigs":1,"type":"pubkey","addresses":["pEvnPPdEgpysWtMLoQJddPXrMXSY4VJxwR"]}},{"value":0.0000093,"n":3,"scriptPubKey":{"asm":"OP_DUP OP_HASH160 66ec743fabf4c4372ba7784f6dcad77313a1dea6 OP_EQUALVERIFY OP_CHECKSIG","reqSigs":1,"type":"pubkeyhash","addresses":["pEvnPPdEgpysWtMLoQJddPXrMXSY4VJxwR"]}}],"blockhash":"4f955b59ada79560a99b251e48b7e11fd78d124d225ada9ea6dfabfdbc926ffa","confirmations":285,"blocktime":1540659392}