{"hex":"01000000bf98d45b020f672afd9fdc8e71008a13810cf90c5e84133121da5cce9cefeb16ab84773987000000006b483045022100d7fe58a5e665e4ae7408c3dcd2ee497fe24f3b6000a5d720b94166bf9287146602205c176c5ab739bf23dab670b99482954a6d6e0bc78870a981ccc3bc738eaa24420121029e857134122939a57279b02312e296a02bcf0cf876ddc541bd372450215dbeacffffffffb3a0aeaa131779188a364380c005c5e6dfe24ce673e432797b4f0e9fc2b80276000000006b483045022100be4a47c996fa0da5ea4889845fb0369b3dbf74ef66a0e032fec30bd1edc177f30220285669c473bc5f9104a66b3f300e9609eb332d1815f5a1f42a0d02634e798e2f0121029e857134122939a57279b02312e296a02bcf0cf876ddc541bd372450215dbeacffffffff0228fb1a00000000001976a9144c28ee798243702bc4500cdb4da9004130bb47f688ace3b81000000000001976a914d520948d2ba8b0349e4b00cfa22e477134978c5a88ac00000000","txid":"8cd1abc29f68fb08bc4cae87ed8490543b83852b5c89581b916533011cea1b9f","version":1,"time":1540659392,"locktime":0,"vin":[{"txid":"87397784ab16ebef9cce5cda213113845e0cf90c81138a00718edc9ffd2a670f","vout":0,"scriptSig":{"asm":"3045022100d7fe58a5e665e4ae7408c3dcd2ee497fe24f3b6000a5d720b94166bf9287146602205c176c5ab739bf23dab670b99482954a6d6e0bc78870a981ccc3bc738eaa244201 029e857134122939a57279b02312e296a02bcf0cf876ddc541bd372450215dbeac","hex":"483045022100d7fe58a5e665e4ae7408c3dcd2ee497fe24f3b6000a5d720b94166bf9287146602205c176c5ab739bf23dab670b99482954a6d6e0bc78870a981ccc3bc738eaa24420121029e857134122939a57279b02312e296a02bcf0cf876ddc541bd372450215dbeac"},"sequence":4294967295},{"txid":"7602b8c29f0e4f7b7932e473e64ce2dfe6c505c08043368a18791713aaaea0b3","vout":0,"scriptSig":{"asm":"3045022100be4a47c996fa0da5ea4889845fb0369b3dbf74ef66a0e032fec30bd1edc177f30220285669c473bc5f9104a66b3f300e9609eb332d1815f5a1f42a0d02634e798e2f01 029e857134122939a57279b02312e296a02bcf0cf876ddc541bd372450215dbeac","hex":"483045022100be4a47c996fa0da5ea4889845fb0369b3dbf74ef66a0e032fec30bd1edc177f30220285669c473bc5f9104a66b3f300e9609eb332d1815f5a1f42a0d02634e798e2f0121029e857134122939a57279b02312e296a02bcf0cf876ddc541bd372450215dbeac"},"sequence":4294967295}],"vout":[{"value":0.01768232,"n":0,"scriptPubKey":{"asm":"OP_DUP OP_HASH160 4c28ee798243702bc4500cdb4da9004130bb47f6 OP_EQUALVERIFY OP_CHECKSIG","reqSigs":1,"type":"pubkeyhash","addresses":["pCVGbFvFLapGyskXvwfxG2ss21bRU9FqUh"]}},{"value":0.01095907,"n":1,"scriptPubKey":{"asm":"OP_DUP OP_HASH160 d520948d2ba8b0349e4b00cfa22e477134978c5a OP_EQUALVERIFY OP_CHECKSIG","reqSigs":1,"type":"pubkeyhash","addresses":["pQyVAHMwDKDcTan1EWpLaghdGW4NeLv2LW"]}}],"blockhash":"4f955b59ada79560a99b251e48b7e11fd78d124d225ada9ea6dfabfdbc926ffa","confirmations":285,"blocktime":1540659392}