{"hex":"0100000067c8d65b023e3b378ddc3b0cd6eada014c702a68ef80f436af4966ada35ab54cdedd2d9490000000006b4830450221008941161b50847026e80226769223eeb03318f738ec5cd98e017e5308f6251dbe022000e88bf05d4e63c3229e279acb8f7d04c6d3c6888f6499b246d3e614b436a1d80121029e857134122939a57279b02312e296a02bcf0cf876ddc541bd372450215dbeacffffffff3e3b378ddc3b0cd6eada014c702a68ef80f436af4966ada35ab54cdedd2d9490010000006a4730440220282a48639c3e66defa695cb3d31c05d2f95377549a7ab61f11d4fad2122b2636022002a80147dd574a0bbae490ed0bee4e1c9634936003c928fabdad2f20bff4edea012103fdd61b5a83ef51df23ea0c0c6566b88bc16e464c2dfdda0cdaa7d99512fe119fffffffff02732e1200000000001976a9144c28ee798243702bc4500cdb4da9004130bb47f688acb9d11000000000001976a914ebe6b9bb467fafc470c2c6968ee9aafd193f7c6e88ac00000000","txid":"0cf96ab431e9b048856bec22a333aab134d3fd6bbd5121ac63029e4ddfcf5003","version":1,"time":1540802672,"locktime":0,"vin":[{"txid":"90942dddde4cb55aa3ad6649af36f480ef682a704c01daead60c3bdc8d373b3e","vout":0,"scriptSig":{"asm":"30450221008941161b50847026e80226769223eeb03318f738ec5cd98e017e5308f6251dbe022000e88bf05d4e63c3229e279acb8f7d04c6d3c6888f6499b246d3e614b436a1d801 029e857134122939a57279b02312e296a02bcf0cf876ddc541bd372450215dbeac","hex":"4830450221008941161b50847026e80226769223eeb03318f738ec5cd98e017e5308f6251dbe022000e88bf05d4e63c3229e279acb8f7d04c6d3c6888f6499b246d3e614b436a1d80121029e857134122939a57279b02312e296a02bcf0cf876ddc541bd372450215dbeac"},"sequence":4294967295},{"txid":"90942dddde4cb55aa3ad6649af36f480ef682a704c01daead60c3bdc8d373b3e","vout":1,"scriptSig":{"asm":"30440220282a48639c3e66defa695cb3d31c05d2f95377549a7ab61f11d4fad2122b2636022002a80147dd574a0bbae490ed0bee4e1c9634936003c928fabdad2f20bff4edea01 03fdd61b5a83ef51df23ea0c0c6566b88bc16e464c2dfdda0cdaa7d99512fe119f","hex":"4730440220282a48639c3e66defa695cb3d31c05d2f95377549a7ab61f11d4fad2122b2636022002a80147dd574a0bbae490ed0bee4e1c9634936003c928fabdad2f20bff4edea012103fdd61b5a83ef51df23ea0c0c6566b88bc16e464c2dfdda0cdaa7d99512fe119f"},"sequence":4294967295}],"vout":[{"value":0.01191539,"n":0,"scriptPubKey":{"asm":"OP_DUP OP_HASH160 4c28ee798243702bc4500cdb4da9004130bb47f6 OP_EQUALVERIFY OP_CHECKSIG","reqSigs":1,"type":"pubkeyhash","addresses":["pCVGbFvFLapGyskXvwfxG2ss21bRU9FqUh"]}},{"value":0.01102265,"n":1,"scriptPubKey":{"asm":"OP_DUP OP_HASH160 ebe6b9bb467fafc470c2c6968ee9aafd193f7c6e OP_EQUALVERIFY OP_CHECKSIG","reqSigs":1,"type":"pubkeyhash","addresses":["pT3uPsjEXR9zonVpGhyMxy6EUburQ1Vubs"]}}],"blockhash":"63d20adf3fcf7873bbf11e09af43f053affa48ddd047ed357b7a645fb1577cb9","confirmations":212,"blocktime":1540802672}