{"hex":"0100000070c8d65b01eca001818654b6f249c879d7be6f605dff99e5ce5171a5a5b6a622028ab1bcd40200000048473044022061faa63f00c0e4f57be9e6a07559539dcb826ebc92defb7b7d303a85861e8004022021ca05a49080042ad0d3858f71aa8e45b96ee67e396c61f231c78729409f675f01ffffffff04000000000000000000409452a3030000002321020b1cd26fc4b9f080aea1cf7b667efd5e8453f70429056589831fa7f63506ddbfac389e52a3030000002321020b1cd26fc4b9f080aea1cf7b667efd5e8453f70429056589831fa7f63506ddbfaca8030000000000001976a9145e1d99381eb53300f76a3cc6299ce81c71d0c2f788ac00000000","txid":"6a82f47348fcc35832253c20d7d2d347798013fa9f5a79465d4a26801ed34a70","version":1,"time":1540802672,"locktime":0,"vin":[{"txid":"d4bcb18a0222a6b6a5a57151cee599ff5d606fbed779c849f2b654868101a0ec","vout":2,"scriptSig":{"asm":"3044022061faa63f00c0e4f57be9e6a07559539dcb826ebc92defb7b7d303a85861e8004022021ca05a49080042ad0d3858f71aa8e45b96ee67e396c61f231c78729409f675f01","hex":"473044022061faa63f00c0e4f57be9e6a07559539dcb826ebc92defb7b7d303a85861e8004022021ca05a49080042ad0d3858f71aa8e45b96ee67e396c61f231c78729409f675f01"},"sequence":4294967295}],"vout":[{"value":0,"n":0,"scriptPubKey":{"asm":"","type":"nonstandard"}},{"value":156.25,"n":1,"scriptPubKey":{"asm":"020b1cd26fc4b9f080aea1cf7b667efd5e8453f70429056589831fa7f63506ddbf OP_CHECKSIG","reqSigs":1,"type":"pubkey","addresses":["pECTDpfW4nW8hYte3f3F9ZQxwgWmBwmcYL"]}},{"value":156.25002552,"n":2,"scriptPubKey":{"asm":"020b1cd26fc4b9f080aea1cf7b667efd5e8453f70429056589831fa7f63506ddbf OP_CHECKSIG","reqSigs":1,"type":"pubkey","addresses":["pECTDpfW4nW8hYte3f3F9ZQxwgWmBwmcYL"]}},{"value":0.00000936,"n":3,"scriptPubKey":{"asm":"OP_DUP OP_HASH160 5e1d99381eb53300f76a3cc6299ce81c71d0c2f7 OP_EQUALVERIFY OP_CHECKSIG","reqSigs":1,"type":"pubkeyhash","addresses":["pE8DBH6VheNWCoBfLHY8coXmUqVnKuU1Z8"]}}],"blockhash":"63d20adf3fcf7873bbf11e09af43f053affa48ddd047ed357b7a645fb1577cb9","confirmations":212,"blocktime":1540802672}