{"hex":"01000000c59fc25b010000000000000000000000000000000000000000000000000000000000000000ffffffff0401150101ffffffff0100000000000000001976a9146b12ec91c2f900dcd4a467eb3db3cd4c9087af5488ac00000000","txid":"7938b35004077e885b4cf3e13adffc07086e361da71de016c2a668ba83bd7193","version":1,"time":1539481541,"locktime":0,"vin":[{"coinbase":"01150101","sequence":4294967295}],"vout":[{"value":0,"n":0,"scriptPubKey":{"asm":"OP_DUP OP_HASH160 6b12ec91c2f900dcd4a467eb3db3cd4c9087af54 OP_EQUALVERIFY OP_CHECKSIG","reqSigs":1,"type":"pubkeyhash","addresses":["pFJjB6oYiwHh3EuKj5fD4J7aS1S7spYYmZ"]}}],"blockhash":"00000df9a914337d6d40b2d1a5bfe3ff4790df29dac82075caaadb34d1d273f5","confirmations":424,"blocktime":1539481541}