{"hex":"010000006089e05b01b578d3c69557b5d7fae9c88550f5531dc586abbb704291ab3d97ec8da426b0260100000049483045022100cfb3ea8d7097bbc4af3724ea41e879f79c658ccf9524afce1775d90dfbc2d021022076f5930c805d0b1ab9032cabd2011eecdaac2a5e4f1e478e5517fb15a0ed54b501ffffffff03000000000000000000a139220a00000000232102c1f46322b7b35df7d03b1b344424906fdd4464990c52ef24779c8089ae2e04aaac7a4b0100000000001976a914b281632e032cac99462bf7779521442a307c52a088ac00000000","txid":"3f91e231917d03694c0fda7e978cc0289f07579d46866d6729799b1feaf5bd7a","version":1,"time":1541441888,"locktime":0,"vin":[{"txid":"26b026a48dec973dab914270bbab86c51d53f55085c8e9fad7b55795c6d378b5","vout":1,"scriptSig":{"asm":"3045022100cfb3ea8d7097bbc4af3724ea41e879f79c658ccf9524afce1775d90dfbc2d021022076f5930c805d0b1ab9032cabd2011eecdaac2a5e4f1e478e5517fb15a0ed54b501","hex":"483045022100cfb3ea8d7097bbc4af3724ea41e879f79c658ccf9524afce1775d90dfbc2d021022076f5930c805d0b1ab9032cabd2011eecdaac2a5e4f1e478e5517fb15a0ed54b501"},"sequence":4294967295}],"vout":[{"value":0,"n":0,"scriptPubKey":{"asm":"","type":"nonstandard"}},{"value":1.70015137,"n":1,"scriptPubKey":{"asm":"02c1f46322b7b35df7d03b1b344424906fdd4464990c52ef24779c8089ae2e04aa OP_CHECKSIG","reqSigs":1,"type":"pubkey","addresses":["pMyBYUpcH3ehvzacvgmtahza4iSykvMcUD"]}},{"value":0.00084858,"n":2,"scriptPubKey":{"asm":"OP_DUP OP_HASH160 b281632e032cac99462bf7779521442a307c52a0 OP_EQUALVERIFY OP_CHECKSIG","reqSigs":1,"type":"pubkeyhash","addresses":["pMpRUr5SqF4SLREGfNjMyHwaGCi3EHeLR1"]}}],"blockhash":"8f306a337b3d490931c565c74ffdb870b2f2084b5e3b8ddba43b451b1c8f2aa5","confirmations":23,"blocktime":1541441888}