{"hex":"010000006089e05b068b12965fc8f97dad1de1338378044f93876f6aaa989e1250dc80827f2b0e0809000000006b483045022100cfb37116d2c879f2ac216c0f7d5ef40a1e6707ac0bb29096cf85e1ddc2db2cc6022048be6731a2adba879fb5557de93bc0c904444f441b14bb56ea4097d8fbd9ec55012102bd35ddfa21b6d47bc7c3ac5be4c26934190629ecbaa6b703302e1c2086503f2effffffff3f5b1e62f19405c93235349cc588963803083c48294d53caf3d2df078a4ededf010000006a473044022025febe23163d069b7d15cd6bb97cf04adcf88d7923cf1a84a6100ddab6cd59c6022005fb9b480f9dbbd42c1412f63b589dbf308f3885e8265f7fd940c76a6a935f3c0121030166e2e31be38df41dbc40bdecf823712f633c8d00a139b227d37e085ead519affffffff4364aafd66d6027db7df4edd7db932d33a32cfbf4760b946c66a66223588498f000000006b483045022100fcbcef878fdde600713ce0ba55e53af8cd69652a70fa8e9baefe931e2bb4f67b02203fa898f380094018488fde512d4129aeed52c07414f4610029b19418de8b096a012103806e155bbece9a7a9d73172e80bb3250ab69e13a4de9eef75164c55ca6dac22effffffffd91201523d2dd5f68c38a8a396e65b6480d5a84a2a7ecc7a4891a0477519bea8000000006a47304402200b30db2fb1cb8e38026282236f0bd7b771f24446d7aad44e20532c906aad305102203a89cf86583aae04e3f531baaeb1ab098e58ce6cd9370cf5c4831e8763002fb7012102f6c7bcb6c871a9f5701f9bdd6ef03c506d5dd379706e2d4c3dff38f9e18b9021ffffffffa71c37256e38dc40bbafdccf06b062c21bef30ae83ad9322cccd32798e270aad000000006b483045022100f463fea0dc90aba0be672796ba558c9e12fc0af144bdb1e22b9ba2a7b2ea044d022034148a3a970ac72429175c055e661593e894e2722cac75fffb3026c194374aaf012103806e155bbece9a7a9d73172e80bb3250ab69e13a4de9eef75164c55ca6dac22effffffff76ab180f4c7645cff07e5fa29710dde6fe14a6e70b33f2aeba4f3a18cb9e9cd6000000006b483045022100a552b59367ca26e9a766968ced0e4158112577d125e4835a394ac94365bae7e10220454908f816be393633060786980619053f014fcc408ba26e488d93ffa78b9ba4012103806e155bbece9a7a9d73172e80bb3250ab69e13a4de9eef75164c55ca6dac22effffffff02aded1900000000001976a9148c6392a0cc9c4b83cc50edd4e5d3813f2e60607e88ac6456f305000000001976a914d900e4dd44f908b61a36d44f6ff53f856b42be8f88ac00000000","txid":"7a87e8d495458fdf2a74a87b3500ef006f9b05b767e0ad51fa93a1d2b693ed4b","version":1,"time":1541441888,"locktime":0,"vin":[{"txid":"09080e2b7f8280dc50129e98aa6a6f87934f04788333e11dad7df9c85f96128b","vout":0,"scriptSig":{"asm":"3045022100cfb37116d2c879f2ac216c0f7d5ef40a1e6707ac0bb29096cf85e1ddc2db2cc6022048be6731a2adba879fb5557de93bc0c904444f441b14bb56ea4097d8fbd9ec5501 02bd35ddfa21b6d47bc7c3ac5be4c26934190629ecbaa6b703302e1c2086503f2e","hex":"483045022100cfb37116d2c879f2ac216c0f7d5ef40a1e6707ac0bb29096cf85e1ddc2db2cc6022048be6731a2adba879fb5557de93bc0c904444f441b14bb56ea4097d8fbd9ec55012102bd35ddfa21b6d47bc7c3ac5be4c26934190629ecbaa6b703302e1c2086503f2e"},"sequence":4294967295},{"txid":"dfde4e8a07dfd2f3ca534d29483c0803389688c59c343532c90594f1621e5b3f","vout":1,"scriptSig":{"asm":"3044022025febe23163d069b7d15cd6bb97cf04adcf88d7923cf1a84a6100ddab6cd59c6022005fb9b480f9dbbd42c1412f63b589dbf308f3885e8265f7fd940c76a6a935f3c01 030166e2e31be38df41dbc40bdecf823712f633c8d00a139b227d37e085ead519a","hex":"473044022025febe23163d069b7d15cd6bb97cf04adcf88d7923cf1a84a6100ddab6cd59c6022005fb9b480f9dbbd42c1412f63b589dbf308f3885e8265f7fd940c76a6a935f3c0121030166e2e31be38df41dbc40bdecf823712f633c8d00a139b227d37e085ead519a"},"sequence":4294967295},{"txid":"8f49883522666ac646b96047bfcf323ad332b97ddd4edfb77d02d666fdaa6443","vout":0,"scriptSig":{"asm":"3045022100fcbcef878fdde600713ce0ba55e53af8cd69652a70fa8e9baefe931e2bb4f67b02203fa898f380094018488fde512d4129aeed52c07414f4610029b19418de8b096a01 03806e155bbece9a7a9d73172e80bb3250ab69e13a4de9eef75164c55ca6dac22e","hex":"483045022100fcbcef878fdde600713ce0ba55e53af8cd69652a70fa8e9baefe931e2bb4f67b02203fa898f380094018488fde512d4129aeed52c07414f4610029b19418de8b096a012103806e155bbece9a7a9d73172e80bb3250ab69e13a4de9eef75164c55ca6dac22e"},"sequence":4294967295},{"txid":"a8be197547a091487acc7e2a4aa8d580645be696a3a8388cf6d52d3d520112d9","vout":0,"scriptSig":{"asm":"304402200b30db2fb1cb8e38026282236f0bd7b771f24446d7aad44e20532c906aad305102203a89cf86583aae04e3f531baaeb1ab098e58ce6cd9370cf5c4831e8763002fb701 02f6c7bcb6c871a9f5701f9bdd6ef03c506d5dd379706e2d4c3dff38f9e18b9021","hex":"47304402200b30db2fb1cb8e38026282236f0bd7b771f24446d7aad44e20532c906aad305102203a89cf86583aae04e3f531baaeb1ab098e58ce6cd9370cf5c4831e8763002fb7012102f6c7bcb6c871a9f5701f9bdd6ef03c506d5dd379706e2d4c3dff38f9e18b9021"},"sequence":4294967295},{"txid":"ad0a278e7932cdcc2293ad83ae30ef1bc262b006cfdcafbb40dc386e25371ca7","vout":0,"scriptSig":{"asm":"3045022100f463fea0dc90aba0be672796ba558c9e12fc0af144bdb1e22b9ba2a7b2ea044d022034148a3a970ac72429175c055e661593e894e2722cac75fffb3026c194374aaf01 03806e155bbece9a7a9d73172e80bb3250ab69e13a4de9eef75164c55ca6dac22e","hex":"483045022100f463fea0dc90aba0be672796ba558c9e12fc0af144bdb1e22b9ba2a7b2ea044d022034148a3a970ac72429175c055e661593e894e2722cac75fffb3026c194374aaf012103806e155bbece9a7a9d73172e80bb3250ab69e13a4de9eef75164c55ca6dac22e"},"sequence":4294967295},{"txid":"d69c9ecb183a4fbaaef2330be7a614fee6dd1097a25f7ef0cf45764c0f18ab76","vout":0,"scriptSig":{"asm":"3045022100a552b59367ca26e9a766968ced0e4158112577d125e4835a394ac94365bae7e10220454908f816be393633060786980619053f014fcc408ba26e488d93ffa78b9ba401 03806e155bbece9a7a9d73172e80bb3250ab69e13a4de9eef75164c55ca6dac22e","hex":"483045022100a552b59367ca26e9a766968ced0e4158112577d125e4835a394ac94365bae7e10220454908f816be393633060786980619053f014fcc408ba26e488d93ffa78b9ba4012103806e155bbece9a7a9d73172e80bb3250ab69e13a4de9eef75164c55ca6dac22e"},"sequence":4294967295}],"vout":[{"value":0.01699245,"n":0,"scriptPubKey":{"asm":"OP_DUP OP_HASH160 8c6392a0cc9c4b83cc50edd4e5d3813f2e60607e OP_EQUALVERIFY OP_CHECKSIG","reqSigs":1,"type":"pubkeyhash","addresses":["pJLt5ztVRFAWdwvFehRmTsakB7FZHnVE9V"]}},{"value":0.99833444,"n":1,"scriptPubKey":{"asm":"OP_DUP OP_HASH160 d900e4dd44f908b61a36d44f6ff53f856b42be8f OP_EQUALVERIFY OP_CHECKSIG","reqSigs":1,"type":"pubkeyhash","addresses":["pRKyuSzqxfCW8Ey16NmsWXRdYqhRs76Y9P"]}}],"blockhash":"8f306a337b3d490931c565c74ffdb870b2f2084b5e3b8ddba43b451b1c8f2aa5","confirmations":23,"blocktime":1541441888}