{"hex":"01000000e06edc5b015c6243167fc6dbceab9fd15b87d4ff3b21c71344a873df60cc8ddd4899f2e397010000006b483045022100bc19e8146f25258ccb239d53894f87195963585b979f792eee403358b0cb5d1902207bd5e961c23d75118a6e2facfdf5c2c8255a56881d4c349ed8766a85042db54d012103d34eaffeafde46fde143c9a315fd9b15346917b41cead4876c1c25892c798698ffffffff04000000000000000000004429353a000000232103d34eaffeafde46fde143c9a315fd9b15346917b41cead4876c1c25892c798698acb5ea29353a000000232103d34eaffeafde46fde143c9a315fd9b15346917b41cead4876c1c25892c798698aca6b00300000000001976a914c98c77a9774bba2295618369afffb431dfa7a76188ac00000000","txid":"9961b84336a1da7a27831fe75fd27a898a083f0fa45bdbff0454e04d4b2417a2","version":1,"time":1541172960,"locktime":0,"vin":[{"txid":"97e3f29948dd8dcc60df73a84413c7213bffd4875bd19fabcedbc67f1643625c","vout":1,"scriptSig":{"asm":"3045022100bc19e8146f25258ccb239d53894f87195963585b979f792eee403358b0cb5d1902207bd5e961c23d75118a6e2facfdf5c2c8255a56881d4c349ed8766a85042db54d01 03d34eaffeafde46fde143c9a315fd9b15346917b41cead4876c1c25892c798698","hex":"483045022100bc19e8146f25258ccb239d53894f87195963585b979f792eee403358b0cb5d1902207bd5e961c23d75118a6e2facfdf5c2c8255a56881d4c349ed8766a85042db54d012103d34eaffeafde46fde143c9a315fd9b15346917b41cead4876c1c25892c798698"},"sequence":4294967295}],"vout":[{"value":0,"n":0,"scriptPubKey":{"asm":"","type":"nonstandard"}},{"value":2500,"n":1,"scriptPubKey":{"asm":"03d34eaffeafde46fde143c9a315fd9b15346917b41cead4876c1c25892c798698 OP_CHECKSIG","reqSigs":1,"type":"pubkey","addresses":["p6exN3FuZmZyQ7WNzLf7AweTLuHqDvcERN"]}},{"value":2500.00042677,"n":2,"scriptPubKey":{"asm":"03d34eaffeafde46fde143c9a315fd9b15346917b41cead4876c1c25892c798698 OP_CHECKSIG","reqSigs":1,"type":"pubkey","addresses":["p6exN3FuZmZyQ7WNzLf7AweTLuHqDvcERN"]}},{"value":0.0024183,"n":3,"scriptPubKey":{"asm":"OP_DUP OP_HASH160 c98c77a9774bba2295618369afffb431dfa7a761 OP_EQUALVERIFY OP_CHECKSIG","reqSigs":1,"type":"pubkeyhash","addresses":["pPvGJ7RaHWgFFf4mpU2Xn8sUqejUBfqoKj"]}}],"blockhash":"a9e5f0ecaac0c29b980c3a48153c9a42f463ffb37aa016ac82387a5a0def64bc","confirmations":74,"blocktime":1541172960}