{"hex":"01000000d66edc5b054ac4e6fd5771b487104ab3b78d7cae7c2819ee8a46a717e886c6f2e64f790402000000006a473044022016c6b977fa02e51207fc20d76fdc2ad5b74d87367281e1eed0d0b64de847fb1d022014301f50ea971d3eecab7e3d41ec3202ebcef43fcef69d04a9527cf73841a185012102e2d093779b3f861773a0106f832adb228ce037c10209eded618c35b8ed192b1dffffffff4ac4e6fd5771b487104ab3b78d7cae7c2819ee8a46a717e886c6f2e64f790402010000006b4830450221008ac5bb97f49c30cd6109aa1a8c9539540ac9a5d5d89b295e7d7d665eeee6077e0220579fa8dbf6eec68552567c89f95426dbbc22bcba49ddf12d38a078c189b7a09c012102cea0bc65fb1b5a71eea31cdfcfc51085734249c97fe3210413a78dd2ad0ecfadffffffffbf1b2df2c6578a5aacc96e9fb3839ff844ba9f89c54f003f72b0c2031f671381010000006b483045022100f187ffe8fc5a593b7118c21867f697bbee3832033f4412631dff7a754402f839022035218a5d90bdc274525bc9b7ad92d73ff11e72199ea3378053731c8031dec3ca0121027b3527acb84a0dc8afe0c2179e1ad3d9edbbc314be741e7179d683b3545b789bffffffff6956927b1fb97da74d68a8dce2e052bfb10121f366e244e23588fc7ffb88d486010000006b4830450221008308365625a174a3a29ce2a6443dc05ab03c3b5df9ecb16575d3f951a3d66bbf022054f677f53070eca3018a4b1f8dc618544376404a9c2942084d317e32e8a522ff0121039c686777b8f261bc2012b8a3b5912dbc6a52563d2fe3632956132d0aed7057a9ffffffff5e0329004a653209ebccb290e0c004b21c8266792532ee7cd5c43f93fd5796eb010000006a47304402203562d8ccaaa9e38ea319a124220d6963628bd6a4b86677f06ad0a4112641345d0220106694afa89731e5da4f6b82fed8cb6e9a742448f6fef4f65ee0d15dfa4a356201210328e2c32955014b6e278b8da55fe91ebec81c616f8c32f41353c2b7e77d71f9a0ffffffff0217431f00000000001976a914073a172137ae0e921893b1072bb216b21865b35888acae3cf510000000001976a914f16db0a3398c8d0659c5ba2c792a70b8a7eadc2f88ac00000000","txid":"bafa39cf7f79a67b5ffbf3ff46225e831596aa7ecd7cad1a80f7a149bf476c5c","version":1,"time":1541172960,"locktime":0,"vin":[{"txid":"0204794fe6f2c686e817a7468aee19287cae7c8db7b34a1087b47157fde6c44a","vout":0,"scriptSig":{"asm":"3044022016c6b977fa02e51207fc20d76fdc2ad5b74d87367281e1eed0d0b64de847fb1d022014301f50ea971d3eecab7e3d41ec3202ebcef43fcef69d04a9527cf73841a18501 02e2d093779b3f861773a0106f832adb228ce037c10209eded618c35b8ed192b1d","hex":"473044022016c6b977fa02e51207fc20d76fdc2ad5b74d87367281e1eed0d0b64de847fb1d022014301f50ea971d3eecab7e3d41ec3202ebcef43fcef69d04a9527cf73841a185012102e2d093779b3f861773a0106f832adb228ce037c10209eded618c35b8ed192b1d"},"sequence":4294967295},{"txid":"0204794fe6f2c686e817a7468aee19287cae7c8db7b34a1087b47157fde6c44a","vout":1,"scriptSig":{"asm":"30450221008ac5bb97f49c30cd6109aa1a8c9539540ac9a5d5d89b295e7d7d665eeee6077e0220579fa8dbf6eec68552567c89f95426dbbc22bcba49ddf12d38a078c189b7a09c01 02cea0bc65fb1b5a71eea31cdfcfc51085734249c97fe3210413a78dd2ad0ecfad","hex":"4830450221008ac5bb97f49c30cd6109aa1a8c9539540ac9a5d5d89b295e7d7d665eeee6077e0220579fa8dbf6eec68552567c89f95426dbbc22bcba49ddf12d38a078c189b7a09c012102cea0bc65fb1b5a71eea31cdfcfc51085734249c97fe3210413a78dd2ad0ecfad"},"sequence":4294967295},{"txid":"8113671f03c2b0723f004fc5899fba44f89f83b39f6ec9ac5a8a57c6f22d1bbf","vout":1,"scriptSig":{"asm":"3045022100f187ffe8fc5a593b7118c21867f697bbee3832033f4412631dff7a754402f839022035218a5d90bdc274525bc9b7ad92d73ff11e72199ea3378053731c8031dec3ca01 027b3527acb84a0dc8afe0c2179e1ad3d9edbbc314be741e7179d683b3545b789b","hex":"483045022100f187ffe8fc5a593b7118c21867f697bbee3832033f4412631dff7a754402f839022035218a5d90bdc274525bc9b7ad92d73ff11e72199ea3378053731c8031dec3ca0121027b3527acb84a0dc8afe0c2179e1ad3d9edbbc314be741e7179d683b3545b789b"},"sequence":4294967295},{"txid":"86d488fb7ffc8835e244e266f32101b1bf52e0e2dca8684da77db91f7b925669","vout":1,"scriptSig":{"asm":"30450221008308365625a174a3a29ce2a6443dc05ab03c3b5df9ecb16575d3f951a3d66bbf022054f677f53070eca3018a4b1f8dc618544376404a9c2942084d317e32e8a522ff01 039c686777b8f261bc2012b8a3b5912dbc6a52563d2fe3632956132d0aed7057a9","hex":"4830450221008308365625a174a3a29ce2a6443dc05ab03c3b5df9ecb16575d3f951a3d66bbf022054f677f53070eca3018a4b1f8dc618544376404a9c2942084d317e32e8a522ff0121039c686777b8f261bc2012b8a3b5912dbc6a52563d2fe3632956132d0aed7057a9"},"sequence":4294967295},{"txid":"eb9657fd933fc4d57cee32257966821cb204c0e090b2cceb0932654a0029035e","vout":1,"scriptSig":{"asm":"304402203562d8ccaaa9e38ea319a124220d6963628bd6a4b86677f06ad0a4112641345d0220106694afa89731e5da4f6b82fed8cb6e9a742448f6fef4f65ee0d15dfa4a356201 0328e2c32955014b6e278b8da55fe91ebec81c616f8c32f41353c2b7e77d71f9a0","hex":"47304402203562d8ccaaa9e38ea319a124220d6963628bd6a4b86677f06ad0a4112641345d0220106694afa89731e5da4f6b82fed8cb6e9a742448f6fef4f65ee0d15dfa4a356201210328e2c32955014b6e278b8da55fe91ebec81c616f8c32f41353c2b7e77d71f9a0"},"sequence":4294967295}],"vout":[{"value":0.02048791,"n":0,"scriptPubKey":{"asm":"OP_DUP OP_HASH160 073a172137ae0e921893b1072bb216b21865b358 OP_EQUALVERIFY OP_CHECKSIG","reqSigs":1,"type":"pubkeyhash","addresses":["p6CnXEgSNUjY6E31XzwQaWihjezdADc44j"]}},{"value":2.8450731,"n":1,"scriptPubKey":{"asm":"OP_DUP OP_HASH160 f16db0a3398c8d0659c5ba2c792a70b8a7eadc2f OP_EQUALVERIFY OP_CHECKSIG","reqSigs":1,"type":"pubkeyhash","addresses":["pTZ8TL9BqMiUEMrPyDAczFvzhyVVc2BW97"]}}],"blockhash":"a9e5f0ecaac0c29b980c3a48153c9a42f463ffb37aa016ac82387a5a0def64bc","confirmations":74,"blocktime":1541172960}