{"hex":"0100000000b8d95b01cba28eeb7245298307c9da1eac61d4a87bc58ded24a869d5768ec50642de42ca010000006a47304402204739e36e713aeb65350a165f998afec94b5191ab8ff0614ccdccdb1a301729fa02206d4a8219578c604856a655f73bdeef6bd746a227cebcd300c4d4e7d87e1a151601210294b7b76140c3334aa3bcf4a7b79dd36807c0e0a3391d002cd9b4a8009683e8fcffffffff04000000000000000000004429353a00000023210294b7b76140c3334aa3bcf4a7b79dd36807c0e0a3391d002cd9b4a8009683e8fcac4c6129353a00000023210294b7b76140c3334aa3bcf4a7b79dd36807c0e0a3391d002cd9b4a8009683e8fcac04a60000000000001976a91466429c93e46136b2db3fe752c257b3dba5e7649c88ac00000000","txid":"642d206e3445250400bdd9074271b5f26ab29ce829016a86deee03006aa6a710","version":1,"time":1540995072,"locktime":0,"vin":[{"txid":"ca42de4206c58e76d569a824ed8dc57ba8d461ac1edac90783294572eb8ea2cb","vout":1,"scriptSig":{"asm":"304402204739e36e713aeb65350a165f998afec94b5191ab8ff0614ccdccdb1a301729fa02206d4a8219578c604856a655f73bdeef6bd746a227cebcd300c4d4e7d87e1a151601 0294b7b76140c3334aa3bcf4a7b79dd36807c0e0a3391d002cd9b4a8009683e8fc","hex":"47304402204739e36e713aeb65350a165f998afec94b5191ab8ff0614ccdccdb1a301729fa02206d4a8219578c604856a655f73bdeef6bd746a227cebcd300c4d4e7d87e1a151601210294b7b76140c3334aa3bcf4a7b79dd36807c0e0a3391d002cd9b4a8009683e8fc"},"sequence":4294967295}],"vout":[{"value":0,"n":0,"scriptPubKey":{"asm":"","type":"nonstandard"}},{"value":2500,"n":1,"scriptPubKey":{"asm":"0294b7b76140c3334aa3bcf4a7b79dd36807c0e0a3391d002cd9b4a8009683e8fc OP_CHECKSIG","reqSigs":1,"type":"pubkey","addresses":["pJZjAtqMwq9jFa2kTVK5K8psT7erMHW8FX"]}},{"value":2500.000075,"n":2,"scriptPubKey":{"asm":"0294b7b76140c3334aa3bcf4a7b79dd36807c0e0a3391d002cd9b4a8009683e8fc OP_CHECKSIG","reqSigs":1,"type":"pubkey","addresses":["pJZjAtqMwq9jFa2kTVK5K8psT7erMHW8FX"]}},{"value":0.000425,"n":3,"scriptPubKey":{"asm":"OP_DUP OP_HASH160 66429c93e46136b2db3fe752c257b3dba5e7649c OP_EQUALVERIFY OP_CHECKSIG","reqSigs":1,"type":"pubkeyhash","addresses":["pEsGvXfg7BMJ91FueYCRJrpJCEzDnhWNzu"]}}],"blockhash":"88bb7e37d4211e5dc5f5fcc8d17c4fce26d47e16e266739dcc2c2df028c4526d","confirmations":139,"blocktime":1540995072}