{"hex":"01000000ffb7d95b05176581a96ecc43c198dc5ad79b1c2b5b8eced61065d2d8fc72df5a576973c058010000006b483045022100f12c3a4fd7906f7a9cb500c2e3cfb26adb6dd6a7050d64a671a62bf3f79fdf1802205c2c9813fbcd82c203cad44b343504d2d69b700bade41d0a25a0aaad86c23d41012102c9c71a439cef2fe788d10acbecbb38e1f679e461782b09edce82464680f791a9ffffffff98a407a07f988accc6e6bd3d87921098e41beee52fd839d97f41f01a0e7ba13b010000006b483045022100e92878e392d055f167c3759b04faaec004249af6d15c91457034aa3d8990277d02206807be8a8bf0be701f0888a5973d3540793f4194c6049262041ffc60384922d0012102b14ae3bf2891bb6c9a2fa199f645ff425490d155294132336582b339e05c5c69ffffffffaa9fb889f13b66692d281d2a39df5978d0a77591c6014cc17bb97eae3537059f010000006b483045022100dab27cdcb9a0a34892c9696bb2432998df7ac782e7015d3912971f9eb2d3ec3a02207860095f8c47a91186a93d3347d94939bda43d950cb17de7b39958246c98230a0121029e857134122939a57279b02312e296a02bcf0cf876ddc541bd372450215dbeacffffffffb4d47e444d29ae310fa0e7177a9d061421b412965d0460de1dabb5a020b1f929000000006b483045022100bd71de302835c886e791f4ebe50d19a8852ac4e7956e849ae1aedf266852da07022014d85bfac6297470b810110fa20259c93434004db28a3986f17d660667b670330121038944319355878c334cf35d5eed57250575cb472915b577117b85f6039f2a688cffffffffb4d47e444d29ae310fa0e7177a9d061421b412965d0460de1dabb5a020b1f929010000006a47304402206704dc9548bc67f7f16593e03b6b34a979d77b1d88815c21bb421624c5043abb022003d201f0451e22b201633952d2e62065e093ccf0b1f8c173647e7fb2594b7b150121024d9f574548595721d2d75cae50a582849e8444386fac6aeed857ed2b0e1d796fffffffff0229ca1300000000001976a9142fae8806aef303d5b6e1d8523e0b007123eea0c588ac80f0fa02000000001976a914084741320df2ccfc3986e4cb3c3c7bd50f72533e88ac00000000","txid":"f0eb036a082b7977400008511d61908ee3b697e14a86a316287a193d71b12595","version":1,"time":1540995072,"locktime":0,"vin":[{"txid":"58c07369575adf72fcd8d26510d6ce8e5b2b1c9bd75adc98c143cc6ea9816517","vout":1,"scriptSig":{"asm":"3045022100f12c3a4fd7906f7a9cb500c2e3cfb26adb6dd6a7050d64a671a62bf3f79fdf1802205c2c9813fbcd82c203cad44b343504d2d69b700bade41d0a25a0aaad86c23d4101 02c9c71a439cef2fe788d10acbecbb38e1f679e461782b09edce82464680f791a9","hex":"483045022100f12c3a4fd7906f7a9cb500c2e3cfb26adb6dd6a7050d64a671a62bf3f79fdf1802205c2c9813fbcd82c203cad44b343504d2d69b700bade41d0a25a0aaad86c23d41012102c9c71a439cef2fe788d10acbecbb38e1f679e461782b09edce82464680f791a9"},"sequence":4294967295},{"txid":"3ba17b0e1af0417fd939d82fe5ee1be4981092873dbde6c6cc8a987fa007a498","vout":1,"scriptSig":{"asm":"3045022100e92878e392d055f167c3759b04faaec004249af6d15c91457034aa3d8990277d02206807be8a8bf0be701f0888a5973d3540793f4194c6049262041ffc60384922d001 02b14ae3bf2891bb6c9a2fa199f645ff425490d155294132336582b339e05c5c69","hex":"483045022100e92878e392d055f167c3759b04faaec004249af6d15c91457034aa3d8990277d02206807be8a8bf0be701f0888a5973d3540793f4194c6049262041ffc60384922d0012102b14ae3bf2891bb6c9a2fa199f645ff425490d155294132336582b339e05c5c69"},"sequence":4294967295},{"txid":"9f053735ae7eb97bc14c01c69175a7d07859df392a1d282d69663bf189b89faa","vout":1,"scriptSig":{"asm":"3045022100dab27cdcb9a0a34892c9696bb2432998df7ac782e7015d3912971f9eb2d3ec3a02207860095f8c47a91186a93d3347d94939bda43d950cb17de7b39958246c98230a01 029e857134122939a57279b02312e296a02bcf0cf876ddc541bd372450215dbeac","hex":"483045022100dab27cdcb9a0a34892c9696bb2432998df7ac782e7015d3912971f9eb2d3ec3a02207860095f8c47a91186a93d3347d94939bda43d950cb17de7b39958246c98230a0121029e857134122939a57279b02312e296a02bcf0cf876ddc541bd372450215dbeac"},"sequence":4294967295},{"txid":"29f9b120a0b5ab1dde60045d9612b42114069d7a17e7a00f31ae294d447ed4b4","vout":0,"scriptSig":{"asm":"3045022100bd71de302835c886e791f4ebe50d19a8852ac4e7956e849ae1aedf266852da07022014d85bfac6297470b810110fa20259c93434004db28a3986f17d660667b6703301 038944319355878c334cf35d5eed57250575cb472915b577117b85f6039f2a688c","hex":"483045022100bd71de302835c886e791f4ebe50d19a8852ac4e7956e849ae1aedf266852da07022014d85bfac6297470b810110fa20259c93434004db28a3986f17d660667b670330121038944319355878c334cf35d5eed57250575cb472915b577117b85f6039f2a688c"},"sequence":4294967295},{"txid":"29f9b120a0b5ab1dde60045d9612b42114069d7a17e7a00f31ae294d447ed4b4","vout":1,"scriptSig":{"asm":"304402206704dc9548bc67f7f16593e03b6b34a979d77b1d88815c21bb421624c5043abb022003d201f0451e22b201633952d2e62065e093ccf0b1f8c173647e7fb2594b7b1501 024d9f574548595721d2d75cae50a582849e8444386fac6aeed857ed2b0e1d796f","hex":"47304402206704dc9548bc67f7f16593e03b6b34a979d77b1d88815c21bb421624c5043abb022003d201f0451e22b201633952d2e62065e093ccf0b1f8c173647e7fb2594b7b150121024d9f574548595721d2d75cae50a582849e8444386fac6aeed857ed2b0e1d796f"},"sequence":4294967295}],"vout":[{"value":0.01296937,"n":0,"scriptPubKey":{"asm":"OP_DUP OP_HASH160 2fae8806aef303d5b6e1d8523e0b007123eea0c5 OP_EQUALVERIFY OP_CHECKSIG","reqSigs":1,"type":"pubkeyhash","addresses":["p9th3NZMw2mLhi8HyhYZRq6KJGZPv25G35"]}},{"value":0.5,"n":1,"scriptPubKey":{"asm":"OP_DUP OP_HASH160 084741320df2ccfc3986e4cb3c3c7bd50f72533e OP_EQUALVERIFY OP_CHECKSIG","reqSigs":1,"type":"pubkeyhash","addresses":["p6JLy6qZ2UTXjVaz4PBticBtib6S3t8sC3"]}}],"blockhash":"88bb7e37d4211e5dc5f5fcc8d17c4fce26d47e16e266739dcc2c2df028c4526d","confirmations":139,"blocktime":1540995072}