{"hex":"010000003dc9dd5b01be2fbe0194ca4ec769861115465a3e06886a253a43d14af4351fc4f562ad70fa020000006a47304402202d5b30e7e45df18447ecacbaa63db82f2292a29f4f78988349881cde8114bc8d022060cb11433a5d7ab79a0f6c0f463c023fe3b430688353161d76a7ff3607274057012102bbb1ce5e998c1d152b40dd69d0837159f0a5596b2f04ef3b887978a6cbada80cffffffff0224131400000000001976a914b9f3d781f7d99f65d068998a288759e0a638d31288aca0860100000000001976a91402c6fbaf78c673e242122d517e98038a707af07788ac00000000","txid":"48f842a756510d167fdec7b1cbed6ab3fa698ef46be96d30db64315edb555366","version":1,"time":1541261632,"locktime":0,"vin":[{"txid":"fa70ad62f5c41f35f44ad1433a256a88063e5a4615118669c74eca9401be2fbe","vout":2,"scriptSig":{"asm":"304402202d5b30e7e45df18447ecacbaa63db82f2292a29f4f78988349881cde8114bc8d022060cb11433a5d7ab79a0f6c0f463c023fe3b430688353161d76a7ff360727405701 02bbb1ce5e998c1d152b40dd69d0837159f0a5596b2f04ef3b887978a6cbada80c","hex":"47304402202d5b30e7e45df18447ecacbaa63db82f2292a29f4f78988349881cde8114bc8d022060cb11433a5d7ab79a0f6c0f463c023fe3b430688353161d76a7ff3607274057012102bbb1ce5e998c1d152b40dd69d0837159f0a5596b2f04ef3b887978a6cbada80c"},"sequence":4294967295}],"vout":[{"value":0.0131562,"n":0,"scriptPubKey":{"asm":"OP_DUP OP_HASH160 b9f3d781f7d99f65d068998a288759e0a638d312 OP_EQUALVERIFY OP_CHECKSIG","reqSigs":1,"type":"pubkeyhash","addresses":["pNVoKczQ6P92yawDZejgg9H8khMTR2Sf2j"]}},{"value":0.001,"n":1,"scriptPubKey":{"asm":"OP_DUP OP_HASH160 02c6fbaf78c673e242122d517e98038a707af077 OP_EQUALVERIFY OP_CHECKSIG","reqSigs":1,"type":"pubkeyhash","addresses":["p5oFvgRk8U6manRdvH2v7DinLvjg17uMNB"]}}],"blockhash":"6b92da142c3eee79827a19d1a5d3e60000df0d7b9f5e9e7b18da270616558eb0","confirmations":50,"blocktime":1541261632}