{"hex":"0100000040c9dd5b012ee7ddd54b633707e73018741f0ad2560fcb4adcdfc2e20ed28ecc20beb7d1ce020000004948304502210094530b3b9bf8cc1c982afef0d1d43d2a463e54b060133156b0fc27098282380602200416b063f2f4d876bc38c84ad0ba00793b4b7a2a5a3a3ac08d89ddb1d66f321b01ffffffff04000000000000000000c021aea30300000023210348b24f77eda58d2bf0bd56f764cfdeb0100d2f1058b2d5318f2f2fc9670e730eac1e64bda30300000023210348b24f77eda58d2bf0bd56f764cfdeb0100d2f1058b2d5318f2f2fc9670e730eac55000000000000001976a914239bf4dba7e2193b7f701a7b68d0e94c85d85fac88ac00000000","txid":"801bc5cf8922838c638f9fceceab0cacf64e59c323fbaf5458a881811fa668bf","version":1,"time":1541261632,"locktime":0,"vin":[{"txid":"ced1b7be20cc8ed20ee2c2dfdc4acb0f56d20a1f741830e70737634bd5dde72e","vout":2,"scriptSig":{"asm":"304502210094530b3b9bf8cc1c982afef0d1d43d2a463e54b060133156b0fc27098282380602200416b063f2f4d876bc38c84ad0ba00793b4b7a2a5a3a3ac08d89ddb1d66f321b01","hex":"48304502210094530b3b9bf8cc1c982afef0d1d43d2a463e54b060133156b0fc27098282380602200416b063f2f4d876bc38c84ad0ba00793b4b7a2a5a3a3ac08d89ddb1d66f321b01"},"sequence":4294967295}],"vout":[{"value":0,"n":0,"scriptPubKey":{"asm":"","type":"nonstandard"}},{"value":156.31,"n":1,"scriptPubKey":{"asm":"0348b24f77eda58d2bf0bd56f764cfdeb0100d2f1058b2d5318f2f2fc9670e730e OP_CHECKSIG","reqSigs":1,"type":"pubkey","addresses":["p8X7huKtvdnnDzc17Xcxxh1Z9ww8ckxvVJ"]}},{"value":156.3200003,"n":2,"scriptPubKey":{"asm":"0348b24f77eda58d2bf0bd56f764cfdeb0100d2f1058b2d5318f2f2fc9670e730e OP_CHECKSIG","reqSigs":1,"type":"pubkey","addresses":["p8X7huKtvdnnDzc17Xcxxh1Z9ww8ckxvVJ"]}},{"value":8.5e-7,"n":3,"scriptPubKey":{"asm":"OP_DUP OP_HASH160 239bf4dba7e2193b7f701a7b68d0e94c85d85fac OP_EQUALVERIFY OP_CHECKSIG","reqSigs":1,"type":"pubkeyhash","addresses":["p8nrgTxTfKDC3hvmSmFxDcxpYguUCo8yWb"]}}],"blockhash":"6b92da142c3eee79827a19d1a5d3e60000df0d7b9f5e9e7b18da270616558eb0","confirmations":50,"blocktime":1541261632}