{"hex":"01000000c08bdc5b012588e5551d40350b1105791f3870fab04b351a6191edb1555770c953a71b1e68010000004847304402203956cc415b9f8d875503c67a0d7022e5e5096786850dd293efb6b10952928672022077dfe8ece7d01c10d7ae7cda51f64d89a29610612bc90bea565252ae9efa8c7d01ffffffff04000000000000000000c0780cd20100000023210348b24f77eda58d2bf0bd56f764cfdeb0100d2f1058b2d5318f2f2fc9670e730eacfa401dd20100000023210348b24f77eda58d2bf0bd56f764cfdeb0100d2f1058b2d5318f2f2fc9670e730eacdaa10800000000001976a9147a58c93fa5e34c0e7c16492ee8061977495aac7c88ac00000000","txid":"849271217fba78f7103b492c4d04d6380c79f6c67ef990d6b7dd7770a7d49a61","version":1,"time":1541180352,"locktime":0,"vin":[{"txid":"681e1ba753c9705755b1ed91611a354bb0fa70381f7905110b35401d55e58825","vout":1,"scriptSig":{"asm":"304402203956cc415b9f8d875503c67a0d7022e5e5096786850dd293efb6b10952928672022077dfe8ece7d01c10d7ae7cda51f64d89a29610612bc90bea565252ae9efa8c7d01","hex":"47304402203956cc415b9f8d875503c67a0d7022e5e5096786850dd293efb6b10952928672022077dfe8ece7d01c10d7ae7cda51f64d89a29610612bc90bea565252ae9efa8c7d01"},"sequence":4294967295}],"vout":[{"value":0,"n":0,"scriptPubKey":{"asm":"","type":"nonstandard"}},{"value":78.19,"n":1,"scriptPubKey":{"asm":"0348b24f77eda58d2bf0bd56f764cfdeb0100d2f1058b2d5318f2f2fc9670e730e OP_CHECKSIG","reqSigs":1,"type":"pubkey","addresses":["p8X7huKtvdnnDzc17Xcxxh1Z9ww8ckxvVJ"]}},{"value":78.20099834,"n":2,"scriptPubKey":{"asm":"0348b24f77eda58d2bf0bd56f764cfdeb0100d2f1058b2d5318f2f2fc9670e730e OP_CHECKSIG","reqSigs":1,"type":"pubkey","addresses":["p8X7huKtvdnnDzc17Xcxxh1Z9ww8ckxvVJ"]}},{"value":0.00565722,"n":3,"scriptPubKey":{"asm":"OP_DUP OP_HASH160 7a58c93fa5e34c0e7c16492ee8061977495aac7c OP_EQUALVERIFY OP_CHECKSIG","reqSigs":1,"type":"pubkeyhash","addresses":["pGhV15RkjbtFhS6uHd3xCvPoNUNQoDMiqz"]}}],"blockhash":"a6b125daaa0ebb07746665a52405dad02d35ba0abed93b3ae1f44a5a72de43ca","confirmations":65,"blocktime":1541180352}