{"hex":"01000000b98bdc5b027ef00ddbf051252f700908994e3301e9973eb4bb4ab4fc50395241bd1d69ae98010000006a47304402207ecfc6616ebb6b4f8898a12e9f0675348162f917bfcf5dd8e6c82d9b2b10ec89022045d78ab724695c1fca51a7bd6fb44d9b18f2ef1c61dbc5f771ba547be5537c7e0121030ac20b31397614bd4947c0db7bf0dc4cabb3e2c608dcec9ead81d2edf4d3a88affffffff3d69e774cd8cc16d504a2863e6a7ad1500b5d9af0e153d4499890f0ac469fc0b000000006a4730440220767eb5bf23a889e5ea0d368f236b1fb1799157e5575c200af99f6b6a4e25950f02207caf1a22fbc77fd40518641279fb1a2471283c75732546370e46e6eeb293f1c10121039cf2ec34712c9ec67b99ca1e1349ae87ab3ef965fdb4a6328a9d1b620916c4bbffffffff025e893e04000000001976a914abd129867c0eee8a94b9d76232aae619963c169d88ac4895ab27000000001976a9143f10f468f914408427db679e97d44fa48ea4fc8988ac00000000","txid":"a1ec8a1d262b8cf2386226c43586f7c0b0f1524cb922fe85051e431be367a588","version":1,"time":1541180352,"locktime":0,"vin":[{"txid":"98ae691dbd41523950fcb44abbb43e97e901334e990809702f2551f0db0df07e","vout":1,"scriptSig":{"asm":"304402207ecfc6616ebb6b4f8898a12e9f0675348162f917bfcf5dd8e6c82d9b2b10ec89022045d78ab724695c1fca51a7bd6fb44d9b18f2ef1c61dbc5f771ba547be5537c7e01 030ac20b31397614bd4947c0db7bf0dc4cabb3e2c608dcec9ead81d2edf4d3a88a","hex":"47304402207ecfc6616ebb6b4f8898a12e9f0675348162f917bfcf5dd8e6c82d9b2b10ec89022045d78ab724695c1fca51a7bd6fb44d9b18f2ef1c61dbc5f771ba547be5537c7e0121030ac20b31397614bd4947c0db7bf0dc4cabb3e2c608dcec9ead81d2edf4d3a88a"},"sequence":4294967295},{"txid":"0bfc69c40a0f8999443d150eafd9b50015ada7e663284a506dc18ccd74e7693d","vout":0,"scriptSig":{"asm":"30440220767eb5bf23a889e5ea0d368f236b1fb1799157e5575c200af99f6b6a4e25950f02207caf1a22fbc77fd40518641279fb1a2471283c75732546370e46e6eeb293f1c101 039cf2ec34712c9ec67b99ca1e1349ae87ab3ef965fdb4a6328a9d1b620916c4bb","hex":"4730440220767eb5bf23a889e5ea0d368f236b1fb1799157e5575c200af99f6b6a4e25950f02207caf1a22fbc77fd40518641279fb1a2471283c75732546370e46e6eeb293f1c10121039cf2ec34712c9ec67b99ca1e1349ae87ab3ef965fdb4a6328a9d1b620916c4bb"},"sequence":4294967295}],"vout":[{"value":0.71207262,"n":0,"scriptPubKey":{"asm":"OP_DUP OP_HASH160 abd129867c0eee8a94b9d76232aae619963c169d OP_EQUALVERIFY OP_CHECKSIG","reqSigs":1,"type":"pubkeyhash","addresses":["pMD4KMTdMV2UoNBM5oC7nTFSeHkyTxXtsc"]}},{"value":6.65556296,"n":1,"scriptPubKey":{"asm":"OP_DUP OP_HASH160 3f10f468f914408427db679e97d44fa48ea4fc89 OP_EQUALVERIFY OP_CHECKSIG","reqSigs":1,"type":"pubkeyhash","addresses":["pBJ35prgT9Z2Ggeycv98DdhC4uciYgqG3H"]}}],"blockhash":"a6b125daaa0ebb07746665a52405dad02d35ba0abed93b3ae1f44a5a72de43ca","confirmations":65,"blocktime":1541180352}