{"hex":"010000002ab3dc5b0141cf68c4136c164227e85045dc79add2ded981438268ee2c6527360a6372a30d010000006b483045022100d60ab938ef4a5c7917850bff27c737bd195b0daa08923ab585e6c507bbee895e02204f47309d12c330119f6849f293dead166721e9096c8607f6b7d6292d61fd22ff012103016c1d23a858ac9dd33c1e6b61996a10151578f68bde4d1358cb7a965d2d1a65ffffffff02d4b05404000000001976a91485e3d7b11141f2e101b5534fbdf437bd39faf99988ac00e1f505000000001976a914821ae33c5b7b9afbef3d051aeda3502673a58b6f88ac00000000","txid":"7204f7a24bb0526913974aa755c388d4b95f6efaf0a256d2e91a84e408cb4455","version":1,"time":1541190448,"locktime":0,"vin":[{"txid":"0da372630a3627652cee68824381d9ded2ad79dc4550e82742166c13c468cf41","vout":1,"scriptSig":{"asm":"3045022100d60ab938ef4a5c7917850bff27c737bd195b0daa08923ab585e6c507bbee895e02204f47309d12c330119f6849f293dead166721e9096c8607f6b7d6292d61fd22ff01 03016c1d23a858ac9dd33c1e6b61996a10151578f68bde4d1358cb7a965d2d1a65","hex":"483045022100d60ab938ef4a5c7917850bff27c737bd195b0daa08923ab585e6c507bbee895e02204f47309d12c330119f6849f293dead166721e9096c8607f6b7d6292d61fd22ff012103016c1d23a858ac9dd33c1e6b61996a10151578f68bde4d1358cb7a965d2d1a65"},"sequence":4294967295}],"vout":[{"value":0.72659156,"n":0,"scriptPubKey":{"asm":"OP_DUP OP_HASH160 85e3d7b11141f2e101b5534fbdf437bd39faf999 OP_EQUALVERIFY OP_CHECKSIG","reqSigs":1,"type":"pubkeyhash","addresses":["pHkX1zknUkjZeHZTLRUNzis1R3M8LDosKj"]}},{"value":1,"n":1,"scriptPubKey":{"asm":"OP_DUP OP_HASH160 821ae33c5b7b9afbef3d051aeda3502673a58b6f OP_EQUALVERIFY OP_CHECKSIG","reqSigs":1,"type":"pubkeyhash","addresses":["pHQWFq4ZH5xxQaipC5avpotSbe5cgZb2py"]}}],"blockhash":"e69edec25a33b8611ca6703a7390744f246978c7ba13bf44f59bc6663cee6747","confirmations":55,"blocktime":1541190448}