{"hex":"0100000030b3dc5b012bade1daa82fcb98950e30624f3bbe6ceffdb7938ec1527b48f12060facdaba80200000049483045022100f066148f71731c8331edced1e706b08954b62f6a7d95d9271587efa46e3e576d02204f56d607d21f708bdc10f4d4f99938eebf683e46b1802132a3ce5935c48ebc2b01ffffffff0400000000000000000000a2941a1d0000002321037080154ad035d87bbe47e967ce43ddce5951865effbdda9b3c857d929ea146c7ace8e3941a1d0000002321037080154ad035d87bbe47e967ce43ddce5951865effbdda9b3c857d929ea146c7ac084c0100000000001976a91473471adebcd697ea1dc18e8db2582a74a6bab88188ac00000000","txid":"f30d5b02ae208845e8659f1fe50a5ddc600356a70672bd4d30fac720fb9e5708","version":1,"time":1541190448,"locktime":0,"vin":[{"txid":"a8abcdfa6020f1487b52c18e93b7fdef6cbe3b4f62300e9598cb2fa8dae1ad2b","vout":2,"scriptSig":{"asm":"3045022100f066148f71731c8331edced1e706b08954b62f6a7d95d9271587efa46e3e576d02204f56d607d21f708bdc10f4d4f99938eebf683e46b1802132a3ce5935c48ebc2b01","hex":"483045022100f066148f71731c8331edced1e706b08954b62f6a7d95d9271587efa46e3e576d02204f56d607d21f708bdc10f4d4f99938eebf683e46b1802132a3ce5935c48ebc2b01"},"sequence":4294967295}],"vout":[{"value":0,"n":0,"scriptPubKey":{"asm":"","type":"nonstandard"}},{"value":1250,"n":1,"scriptPubKey":{"asm":"037080154ad035d87bbe47e967ce43ddce5951865effbdda9b3c857d929ea146c7 OP_CHECKSIG","reqSigs":1,"type":"pubkey","addresses":["pEhwSeKiP8Q9UV5H4Vwts61nBy8VHfUUbd"]}},{"value":1250.00016872,"n":2,"scriptPubKey":{"asm":"037080154ad035d87bbe47e967ce43ddce5951865effbdda9b3c857d929ea146c7 OP_CHECKSIG","reqSigs":1,"type":"pubkey","addresses":["pEhwSeKiP8Q9UV5H4Vwts61nBy8VHfUUbd"]}},{"value":0.00085,"n":3,"scriptPubKey":{"asm":"OP_DUP OP_HASH160 73471adebcd697ea1dc18e8db2582a74a6bab881 OP_EQUALVERIFY OP_CHECKSIG","reqSigs":1,"type":"pubkeyhash","addresses":["pG476E2NDDXyKLQPSQr8zUwis1yY3UyfR9"]}}],"blockhash":"e69edec25a33b8611ca6703a7390744f246978c7ba13bf44f59bc6663cee6747","confirmations":55,"blocktime":1541190448}