{"hex":"0100000012a7c25b01749d70217bd816073cf144c01f9ca9b5f1f332423483651d52b382277b48794c000000006a47304402206e2bc3a58a5445ad94006f96f1a2c1cd86d1147b5625bd89b7e32302d0c971dc0220187982833942c6afdef259c34cd541f643def25570c778df05b1e8dfb9e32d9801210308532fad614f68f4f0c851e23979bbb6444c49e03f92d7bc63fa83872f5aa1aaffffffff020060dc0bab7f23001976a91401d5e58691bb8cd23ae3963ac7d69381f6a837cd88ac0088526a740000001976a914b9f3d781f7d99f65d068998a288759e0a638d31288ac00000000","txid":"d8cb5feb6e6639ee9ca27f114d66ec30bba17d279cbcedce50651d6b84a6eb8b","version":1,"time":1539483424,"locktime":0,"vin":[{"txid":"4c79487b2782b3521d6583344232f3f1b5a99c1fc044f13c0716d87b21709d74","vout":0,"scriptSig":{"asm":"304402206e2bc3a58a5445ad94006f96f1a2c1cd86d1147b5625bd89b7e32302d0c971dc0220187982833942c6afdef259c34cd541f643def25570c778df05b1e8dfb9e32d9801 0308532fad614f68f4f0c851e23979bbb6444c49e03f92d7bc63fa83872f5aa1aa","hex":"47304402206e2bc3a58a5445ad94006f96f1a2c1cd86d1147b5625bd89b7e32302d0c971dc0220187982833942c6afdef259c34cd541f643def25570c778df05b1e8dfb9e32d9801210308532fad614f68f4f0c851e23979bbb6444c49e03f92d7bc63fa83872f5aa1aa"},"sequence":4294967295}],"vout":[{"value":99919968,"n":0,"scriptPubKey":{"asm":"OP_DUP OP_HASH160 01d5e58691bb8cd23ae3963ac7d69381f6a837cd OP_EQUALVERIFY OP_CHECKSIG","reqSigs":1,"type":"pubkeyhash","addresses":["p5iH7h8E66U344q7z9njUwTqrwRZHMqjMi"]}},{"value":5000,"n":1,"scriptPubKey":{"asm":"OP_DUP OP_HASH160 b9f3d781f7d99f65d068998a288759e0a638d312 OP_EQUALVERIFY OP_CHECKSIG","reqSigs":1,"type":"pubkeyhash","addresses":["pNVoKczQ6P92yawDZejgg9H8khMTR2Sf2j"]}}],"blockhash":"646463a3f97d2f8dd21c77d7406fc541da4a7bae0984779e913f8754c47c3f46","confirmations":332,"blocktime":1539483424}