{"hex":"0100000020a7c25b01aa8f8ec02ac1fff4a311d2fda395b6382952d207e4e451da2ed75f68149eed4a01000000484730440220738fd2358d060ad7d7478b43f1bdbe88a1c571f0f3672a05d2a1a80cd8c2c18a022075e9d8515a52a5dac799a1735e19a50d62272b7c0e38b1e1cf64dbbf55e8b4f801ffffffff0300000000000000000000cd5627000000002321037e20b6f9df2b1191d7e929adc4ec86bb0a3b438e7822a1a46cd9d0caef60b746ac80fe210a000000001976a9148e3f6e3d2f029829ca356517f18e326c94cd54cd88ac00000000","txid":"f785cc2d21ba64625ee4cb0b4dfb8ba2163cfe474469b0e791d4b969ef5db899","version":1,"time":1539483424,"locktime":0,"vin":[{"txid":"4aed9e14685fd72eda51e4e407d2522938b695a3fdd211a3f4ffc12ac08e8faa","vout":1,"scriptSig":{"asm":"30440220738fd2358d060ad7d7478b43f1bdbe88a1c571f0f3672a05d2a1a80cd8c2c18a022075e9d8515a52a5dac799a1735e19a50d62272b7c0e38b1e1cf64dbbf55e8b4f801","hex":"4730440220738fd2358d060ad7d7478b43f1bdbe88a1c571f0f3672a05d2a1a80cd8c2c18a022075e9d8515a52a5dac799a1735e19a50d62272b7c0e38b1e1cf64dbbf55e8b4f801"},"sequence":4294967295}],"vout":[{"value":0,"n":0,"scriptPubKey":{"asm":"","type":"nonstandard"}},{"value":6.6,"n":1,"scriptPubKey":{"asm":"037e20b6f9df2b1191d7e929adc4ec86bb0a3b438e7822a1a46cd9d0caef60b746 OP_CHECKSIG","reqSigs":1,"type":"pubkey","addresses":["p6vr35KwzEodbGx2Tqp8uLkcMLPNmxZhJS"]}},{"value":1.7,"n":2,"scriptPubKey":{"asm":"OP_DUP OP_HASH160 8e3f6e3d2f029829ca356517f18e326c94cd54cd OP_EQUALVERIFY OP_CHECKSIG","reqSigs":1,"type":"pubkeyhash","addresses":["pJWi9BXT9hsVaAft92RNcufBy1LZGU4RtT"]}}],"blockhash":"646463a3f97d2f8dd21c77d7406fc541da4a7bae0984779e913f8754c47c3f46","confirmations":46,"blocktime":1539483424}