{"hex":"010000007866c35b012c19b309770cf9e3ca6ad63691b01da2b3095461f5ca2f8d813c6a5a2e043047000000006a473044022055a21368a70740e653605b098862c21a35489dba9548ff808a0b7576746954aa022016c702e76d1f9d8f65c0c15352154a79c4f95293eb2f82394a71fcfdb8ce735e012102d1fdd3ad2ae73f79c816c783a225a6d9c8470246f2f7d9fb8a02b28d2ffff0bbffffffff02002c7bbb7a7723001976a9145a6837eff527521e2773d1a259d24f4e614e848388ac0088526a740000001976a9144c86b0b2edcbbfcf0d0112bbb160a541568205b788ac00000000","txid":"4caa39aa163ee9cf861fe425f5d232822a2d43bae4a5d0696cf097b03095d70a","version":1,"time":1539532416,"locktime":0,"vin":[{"txid":"4730042e5a6a3c818d2fcaf5615409b3a21db09136d66acae3f90c7709b3192c","vout":0,"scriptSig":{"asm":"3044022055a21368a70740e653605b098862c21a35489dba9548ff808a0b7576746954aa022016c702e76d1f9d8f65c0c15352154a79c4f95293eb2f82394a71fcfdb8ce735e01 02d1fdd3ad2ae73f79c816c783a225a6d9c8470246f2f7d9fb8a02b28d2ffff0bb","hex":"473044022055a21368a70740e653605b098862c21a35489dba9548ff808a0b7576746954aa022016c702e76d1f9d8f65c0c15352154a79c4f95293eb2f82394a71fcfdb8ce735e012102d1fdd3ad2ae73f79c816c783a225a6d9c8470246f2f7d9fb8a02b28d2ffff0bb"},"sequence":4294967295}],"vout":[{"value":99829932,"n":0,"scriptPubKey":{"asm":"OP_DUP OP_HASH160 5a6837eff527521e2773d1a259d24f4e614e8483 OP_EQUALVERIFY OP_CHECKSIG","reqSigs":1,"type":"pubkeyhash","addresses":["pDnbsCVbeKYC7CpBxhdtCTyxEdHd3aUz9Z"]}},{"value":5000,"n":1,"scriptPubKey":{"asm":"OP_DUP OP_HASH160 4c86b0b2edcbbfcf0d0112bbb160a541568205b7 OP_EQUALVERIFY OP_CHECKSIG","reqSigs":1,"type":"pubkeyhash","addresses":["pCXCuj4F9uaYHMue5Nqy3XLKdLz4U9gRoi"]}}],"blockhash":"6b2416813a7b6a2ce490b19230f5d3e5dcfaf59b95e5906df98c902b5805e01d","confirmations":28,"blocktime":1539532416}