{"hex":"010000008066c35b01aad5a5003e65a49727446a06b83f7095409fdaa754d1f160a421c7c7e7a2948b0100000048473044022001eafa89dd3918b2b2b265bf055892b16e7adf1fe92dc3315a7eb5dc2477a51f022028f268a7b726da69672e82ba5d15954e27ca5758f80c2fec000cfb4a591e6b2201ffffffff0300000000000000000080520c3500000000232102f3989f15f82309adefe5e4f6bf746db84b8df805e22eecc7bd374f31e8daa38aac80fe210a000000001976a914f6ea51b1cf22773ff3c68e8299209dc9d69d593f88ac00000000","txid":"649d76fc500b2387b854da20180160bd7bdbb1f154c9eaaa23ed93c9a056e313","version":1,"time":1539532416,"locktime":0,"vin":[{"txid":"8b94a2e7c7c721a460f1d154a7da9f4095703fb8066a442797a4653e00a5d5aa","vout":1,"scriptSig":{"asm":"3044022001eafa89dd3918b2b2b265bf055892b16e7adf1fe92dc3315a7eb5dc2477a51f022028f268a7b726da69672e82ba5d15954e27ca5758f80c2fec000cfb4a591e6b2201","hex":"473044022001eafa89dd3918b2b2b265bf055892b16e7adf1fe92dc3315a7eb5dc2477a51f022028f268a7b726da69672e82ba5d15954e27ca5758f80c2fec000cfb4a591e6b2201"},"sequence":4294967295}],"vout":[{"value":0,"n":0,"scriptPubKey":{"asm":"","type":"nonstandard"}},{"value":8.9,"n":1,"scriptPubKey":{"asm":"02f3989f15f82309adefe5e4f6bf746db84b8df805e22eecc7bd374f31e8daa38a OP_CHECKSIG","reqSigs":1,"type":"pubkey","addresses":["pS6kv8sUdNg7tBDNfNMnPMqsD2dQR4HfTQ"]}},{"value":1.7,"n":2,"scriptPubKey":{"asm":"OP_DUP OP_HASH160 f6ea51b1cf22773ff3c68e8299209dc9d69d593f OP_EQUALVERIFY OP_CHECKSIG","reqSigs":1,"type":"pubkeyhash","addresses":["pU498g2Tze2KypwgCnomJXchMWH8HXyZb6"]}}],"blockhash":"6b2416813a7b6a2ce490b19230f5d3e5dcfaf59b95e5906df98c902b5805e01d","confirmations":314,"blocktime":1539532416}