{"hex":"01000000368ce05b01cc846f6cbba9af4993f223485292f278049928b5b0c41697c3cad2b0775a858c010000006b483045022100919eee8f146aa2afdc8a85c106ba54a41b49fc16b1c97b26c61822cb2e5746f6022032d69677df76f4ec38ff52b1a01146be5bde21b5a12300a1457982c9cec02d20012102ab81160e21516c521028f284336a62016dbf6bc926eaa91e7dbeccf97f1aae15ffffffff02c9eab23e010000001976a914f4b6d762fd9e7776ef5f11f0bfa8552c33abdef588ac1555123f010000001976a914c5c5e6fab64b7d505288b5bde6b6cdbb453f8eb288ac00000000","txid":"5504fc8143f1b2b42719ef3783d3c309a4f4110b6bed04566cb46b9d72064f20","version":1,"time":1541442624,"locktime":0,"vin":[{"txid":"8c855a77b0d2cac39716c4b0b528990478f292524823f29349afa9bb6c6f84cc","vout":1,"scriptSig":{"asm":"3045022100919eee8f146aa2afdc8a85c106ba54a41b49fc16b1c97b26c61822cb2e5746f6022032d69677df76f4ec38ff52b1a01146be5bde21b5a12300a1457982c9cec02d2001 02ab81160e21516c521028f284336a62016dbf6bc926eaa91e7dbeccf97f1aae15","hex":"483045022100919eee8f146aa2afdc8a85c106ba54a41b49fc16b1c97b26c61822cb2e5746f6022032d69677df76f4ec38ff52b1a01146be5bde21b5a12300a1457982c9cec02d20012102ab81160e21516c521028f284336a62016dbf6bc926eaa91e7dbeccf97f1aae15"},"sequence":4294967295}],"vout":[{"value":53.46880201,"n":0,"scriptPubKey":{"asm":"OP_DUP OP_HASH160 f4b6d762fd9e7776ef5f11f0bfa8552c33abdef5 OP_EQUALVERIFY OP_CHECKSIG","reqSigs":1,"type":"pubkeyhash","addresses":["pTrW7YymvrFddb5yeF9vb6krZVSXVm6Mt8"]}},{"value":53.53133333,"n":1,"scriptPubKey":{"asm":"OP_DUP OP_HASH160 c5c5e6fab64b7d505288b5bde6b6cdbb453f8eb2 OP_EQUALVERIFY OP_CHECKSIG","reqSigs":1,"type":"pubkeyhash","addresses":["pPaJPzAdahnJsq3SpJ2tU3wrGWTWn6DZRz"]}}],"blockhash":"43d17fa22759587f0cd32c55f5309e80d4ba0115612f36e92b298aacbfba38cc","confirmations":18,"blocktime":1541442624}