{"hex":"01000000408ce05b01cdcdd70cf60d11c297edbe90fd79e937ca2518358b46ade4a0749422c99b2be5010000006b483045022100eafcd135ad86e3b08f8922cccd066545d1f989904eae89236eff2fa22bfb351a0220585eb1d6c36faae1b7f38a55b024bcf2604171e75618f81ed88939f104f4018f012103bfcde7159cf83af1da65a20f805f470a080d083ad48a74da714f205e1e62981bffffffff04000000000000000000004429353a000000232103bfcde7159cf83af1da65a20f805f470a080d083ad48a74da714f205e1e62981bac9a8435353a000000232103bfcde7159cf83af1da65a20f805f470a080d083ad48a74da714f205e1e62981bac136e4500000000001976a9144c86b0b2edcbbfcf0d0112bbb160a541568205b788ac00000000","txid":"b0dffa77b6219a9006478d07ccdb48625476af4ebe7c1012dc0291aae90a5a92","version":1,"time":1541442624,"locktime":0,"vin":[{"txid":"e52b9bc9229474a0e4ad468b351825ca37e979fd90beed97c2110df60cd7cdcd","vout":1,"scriptSig":{"asm":"3045022100eafcd135ad86e3b08f8922cccd066545d1f989904eae89236eff2fa22bfb351a0220585eb1d6c36faae1b7f38a55b024bcf2604171e75618f81ed88939f104f4018f01 03bfcde7159cf83af1da65a20f805f470a080d083ad48a74da714f205e1e62981b","hex":"483045022100eafcd135ad86e3b08f8922cccd066545d1f989904eae89236eff2fa22bfb351a0220585eb1d6c36faae1b7f38a55b024bcf2604171e75618f81ed88939f104f4018f012103bfcde7159cf83af1da65a20f805f470a080d083ad48a74da714f205e1e62981b"},"sequence":4294967295}],"vout":[{"value":0,"n":0,"scriptPubKey":{"asm":"","type":"nonstandard"}},{"value":2500,"n":1,"scriptPubKey":{"asm":"03bfcde7159cf83af1da65a20f805f470a080d083ad48a74da714f205e1e62981b OP_CHECKSIG","reqSigs":1,"type":"pubkey","addresses":["pG476E2NDDXyKLQPSQr8zUwis1yY3UyfR9"]}},{"value":2500.0080297,"n":2,"scriptPubKey":{"asm":"03bfcde7159cf83af1da65a20f805f470a080d083ad48a74da714f205e1e62981b OP_CHECKSIG","reqSigs":1,"type":"pubkey","addresses":["pG476E2NDDXyKLQPSQr8zUwis1yY3UyfR9"]}},{"value":0.04550163,"n":3,"scriptPubKey":{"asm":"OP_DUP OP_HASH160 4c86b0b2edcbbfcf0d0112bbb160a541568205b7 OP_EQUALVERIFY OP_CHECKSIG","reqSigs":1,"type":"pubkeyhash","addresses":["pCXCuj4F9uaYHMue5Nqy3XLKdLz4U9gRoi"]}}],"blockhash":"43d17fa22759587f0cd32c55f5309e80d4ba0115612f36e92b298aacbfba38cc","confirmations":18,"blocktime":1541442624}