{"hex":"010000001aadd85b017c3c2b687e6fa48844c7a8af5669e83b939d482c100b0ad748614ea5c4cb6284000000006b483045022100b72144a01be509e39a6774c8097a8fdbb5b89d0fb7bee48bfe96d1ca0b0a66c4022062e802be7cc85c9cfa7d7583028cd0a8575d9a9f57d31460e2eb2b49238c734701210211cc21aaa2868e9126ef521316614abf6b3c56ca61ecf12ddf2dba237afc38fbffffffff0213264402000000001976a9144c28ee798243702bc4500cdb4da9004130bb47f688aceb8b1801000000001976a9144fc675d83162b13a59fb6e1e86aaf81b6d18fae488ac00000000","txid":"3238d4da841a9f38aedf03f7c716bbc5d0a3b9ec3a1517dbd52519eac7baa5f7","version":1,"time":1540926752,"locktime":0,"vin":[{"txid":"8462cbc4a54e6148d70a0b102c489d933be86956afa8c74488a46f7e682b3c7c","vout":0,"scriptSig":{"asm":"3045022100b72144a01be509e39a6774c8097a8fdbb5b89d0fb7bee48bfe96d1ca0b0a66c4022062e802be7cc85c9cfa7d7583028cd0a8575d9a9f57d31460e2eb2b49238c734701 0211cc21aaa2868e9126ef521316614abf6b3c56ca61ecf12ddf2dba237afc38fb","hex":"483045022100b72144a01be509e39a6774c8097a8fdbb5b89d0fb7bee48bfe96d1ca0b0a66c4022062e802be7cc85c9cfa7d7583028cd0a8575d9a9f57d31460e2eb2b49238c734701210211cc21aaa2868e9126ef521316614abf6b3c56ca61ecf12ddf2dba237afc38fb"},"sequence":4294967295}],"vout":[{"value":0.38020627,"n":0,"scriptPubKey":{"asm":"OP_DUP OP_HASH160 4c28ee798243702bc4500cdb4da9004130bb47f6 OP_EQUALVERIFY OP_CHECKSIG","reqSigs":1,"type":"pubkeyhash","addresses":["pCVGbFvFLapGyskXvwfxG2ss21bRU9FqUh"]}},{"value":0.18385899,"n":1,"scriptPubKey":{"asm":"OP_DUP OP_HASH160 4fc675d83162b13a59fb6e1e86aaf81b6d18fae4 OP_EQUALVERIFY OP_CHECKSIG","reqSigs":1,"type":"pubkeyhash","addresses":["pCpPL8ErirCtWBG4pWC983yRqrDtWxTZnn"]}}],"blockhash":"7db53ab4330197c853352271aca7bc86f7f6ad752ba8209066fe0fe8cd8bee38","confirmations":149,"blocktime":1540926752}