{"hex":"0100000020add85b0180d9e19f3c8628b5305a25f15a5c4b75147c1a744f3c2b20ada9dbdc8dc82d310100000049483045022100bc375e5d1da3426b9d463c5ce710b3f4c6e3d968f1d98ed9558c29ce0b6cce5e022040f146fda78f48edc751ca7bc6fe798c9a5d89247f8f03f1d3b6aa76f0d7a36001ffffffff040000000000000000008028a54607000000232102c70f997963ce3f3ea88266ee3e0c833058cd21ae02eae02cd993b9664c686d89ac4633a54607000000232102c70f997963ce3f3ea88266ee3e0c833058cd21ae02eae02cd993b9664c686d89ac0b3d0000000000001976a914256b9b540806ec78f3cbc6d37188a2e1504616e688ac00000000","txid":"ce016a551dcf9e2ce566c92bd83735b0be57ae9d25cbedf1a4c3591ddd095201","version":1,"time":1540926752,"locktime":0,"vin":[{"txid":"312dc88ddcdba9ad202b3c4f741a7c14754b5c5af1255a30b528863c9fe1d980","vout":1,"scriptSig":{"asm":"3045022100bc375e5d1da3426b9d463c5ce710b3f4c6e3d968f1d98ed9558c29ce0b6cce5e022040f146fda78f48edc751ca7bc6fe798c9a5d89247f8f03f1d3b6aa76f0d7a36001","hex":"483045022100bc375e5d1da3426b9d463c5ce710b3f4c6e3d968f1d98ed9558c29ce0b6cce5e022040f146fda78f48edc751ca7bc6fe798c9a5d89247f8f03f1d3b6aa76f0d7a36001"},"sequence":4294967295}],"vout":[{"value":0,"n":0,"scriptPubKey":{"asm":"","type":"nonstandard"}},{"value":312.5,"n":1,"scriptPubKey":{"asm":"02c70f997963ce3f3ea88266ee3e0c833058cd21ae02eae02cd993b9664c686d89 OP_CHECKSIG","reqSigs":1,"type":"pubkey","addresses":["pTQJsZTT2bpmhnKWdT3rdczVS5MaBuXxyB"]}},{"value":312.50002758,"n":2,"scriptPubKey":{"asm":"02c70f997963ce3f3ea88266ee3e0c833058cd21ae02eae02cd993b9664c686d89 OP_CHECKSIG","reqSigs":1,"type":"pubkey","addresses":["pTQJsZTT2bpmhnKWdT3rdczVS5MaBuXxyB"]}},{"value":0.00015627,"n":3,"scriptPubKey":{"asm":"OP_DUP OP_HASH160 256b9b540806ec78f3cbc6d37188a2e1504616e6 OP_EQUALVERIFY OP_CHECKSIG","reqSigs":1,"type":"pubkeyhash","addresses":["p8xS7T8mkTz7MJV9EcYkBri1Zi12wCV83N"]}}],"blockhash":"7db53ab4330197c853352271aca7bc86f7f6ad752ba8209066fe0fe8cd8bee38","confirmations":149,"blocktime":1540926752}