{"hex":"0100000020add85b01bdbe9e12f1d07dab0d111ff7aeea0b2061efa179cf4cc047854b51ba36909c310100000049483045022100b3c022b0d3f7de3fa88a1a274bf802f8f227225742b66596f14b108d3684c98e022034e39adc9f64fec43ef1eaa1ef3f88ea277f073126f8458c8f7b0f0e56799c5901ffffffff030000000000000000009546b3d1010000002321020b1cd26fc4b9f080aea1cf7b667efd5e8453f70429056589831fa7f63506ddbfac0b3d0000000000001976a914256b9b540806ec78f3cbc6d37188a2e1504616e688ac00000000","txid":"f495ba3f30fe73a8e626802f616617fc7b9bb731880594422f7eb01ffa1b1fd9","version":1,"time":1540926752,"locktime":0,"vin":[{"txid":"319c9036ba514b8547c04ccf79a1ef61200beaaef71f110dab7dd0f1129ebebd","vout":1,"scriptSig":{"asm":"3045022100b3c022b0d3f7de3fa88a1a274bf802f8f227225742b66596f14b108d3684c98e022034e39adc9f64fec43ef1eaa1ef3f88ea277f073126f8458c8f7b0f0e56799c5901","hex":"483045022100b3c022b0d3f7de3fa88a1a274bf802f8f227225742b66596f14b108d3684c98e022034e39adc9f64fec43ef1eaa1ef3f88ea277f073126f8458c8f7b0f0e56799c5901"},"sequence":4294967295}],"vout":[{"value":0,"n":0,"scriptPubKey":{"asm":"","type":"nonstandard"}},{"value":78.13154453,"n":1,"scriptPubKey":{"asm":"020b1cd26fc4b9f080aea1cf7b667efd5e8453f70429056589831fa7f63506ddbf OP_CHECKSIG","reqSigs":1,"type":"pubkey","addresses":["pECTDpfW4nW8hYte3f3F9ZQxwgWmBwmcYL"]}},{"value":0.00015627,"n":2,"scriptPubKey":{"asm":"OP_DUP OP_HASH160 256b9b540806ec78f3cbc6d37188a2e1504616e6 OP_EQUALVERIFY OP_CHECKSIG","reqSigs":1,"type":"pubkeyhash","addresses":["p8xS7T8mkTz7MJV9EcYkBri1Zi12wCV83N"]}}],"blockhash":"1e84ed6e14e9d668544a84b0d2b8311333479ddc4d39244683f4ba8f99fcb41b","confirmations":5,"blocktime":1540926752}