{"hex":"0100000022a2c25b010000000000000000000000000000000000000000000000000000000000000000ffffffff04014e0102ffffffff0100000000000000001976a914afe36cf323c1cad7be654582032776b27f711a5988ac00000000","txid":"bffb652495d1252782fb780b3d5463b3da207fda4ca31562a278b508bef37eb4","version":1,"time":1539482149,"locktime":0,"vin":[{"coinbase":"014e0102","sequence":4294967295}],"vout":[{"value":0,"n":0,"scriptPubKey":{"asm":"OP_DUP OP_HASH160 afe36cf323c1cad7be654582032776b27f711a59 OP_EQUALVERIFY OP_CHECKSIG","reqSigs":1,"type":"pubkeyhash","addresses":["pMaau5jvG7MQtuoV4N1NgarUR1CKyRCzyR"]}}],"blockhash":"000004ddcb5307fd6372dee41420cc84849831036ff6bf9f2e1b4fbaa7a43876","confirmations":367,"blocktime":1539482149}