{"hex":"01000000dea0c25b010000000000000000000000000000000000000000000000000000000000000000ffffffff0401290102ffffffff0100000000000000001976a9149db43b1514c650da0eb2793122b2ca48cb0a7a9888ac00000000","txid":"4d5a29a660c6e59c6ec28925b01a0eeae7b1e3d71826d93d977cc9063747f0c9","version":1,"time":1539481825,"locktime":0,"vin":[{"coinbase":"01290102","sequence":4294967295}],"vout":[{"value":0,"n":0,"scriptPubKey":{"asm":"OP_DUP OP_HASH160 9db43b1514c650da0eb2793122b2ca48cb0a7a98 OP_EQUALVERIFY OP_CHECKSIG","reqSigs":1,"type":"pubkeyhash","addresses":["pKvSCUfVg58RnupibcqC8L4Bwe6LKvXXkS"]}}],"blockhash":"000000977865e2f2656c161d674a3618a4df2a6133cb30a7ee25ed1cf10e117c","confirmations":118,"blocktime":1539481825}