{"hex":"010000006067c35b01682759785c38239b111d93fadff709b7d02d24d8d4ab041a842c998e382e23d5010000004847304402200b405488fb837a2a80ac14d70216a7f704682e13a6187627f85ec5aefe82e6fb022078e58e48633d302bfbf3e263639e370ae6348a2f3edc9bb77cde2232bd2bf25201ffffffff03000000000000000000009d693a00000000232102f3989f15f82309adefe5e4f6bf746db84b8df805e22eecc7bd374f31e8daa38aac80fe210a000000001976a914f6ea51b1cf22773ff3c68e8299209dc9d69d593f88ac00000000","txid":"1d1297b002a9384edb2a0487ad6e43b4bae5435bbf23656e05f3e3014ef634bd","version":1,"time":1539532640,"locktime":0,"vin":[{"txid":"d5232e388e992c841a04abd4d8242dd0b709f7dffa931d119b23385c78592768","vout":1,"scriptSig":{"asm":"304402200b405488fb837a2a80ac14d70216a7f704682e13a6187627f85ec5aefe82e6fb022078e58e48633d302bfbf3e263639e370ae6348a2f3edc9bb77cde2232bd2bf25201","hex":"47304402200b405488fb837a2a80ac14d70216a7f704682e13a6187627f85ec5aefe82e6fb022078e58e48633d302bfbf3e263639e370ae6348a2f3edc9bb77cde2232bd2bf25201"},"sequence":4294967295}],"vout":[{"value":0,"n":0,"scriptPubKey":{"asm":"","type":"nonstandard"}},{"value":9.8,"n":1,"scriptPubKey":{"asm":"02f3989f15f82309adefe5e4f6bf746db84b8df805e22eecc7bd374f31e8daa38a OP_CHECKSIG","reqSigs":1,"type":"pubkey","addresses":["pS6kv8sUdNg7tBDNfNMnPMqsD2dQR4HfTQ"]}},{"value":1.7,"n":2,"scriptPubKey":{"asm":"OP_DUP OP_HASH160 f6ea51b1cf22773ff3c68e8299209dc9d69d593f OP_EQUALVERIFY OP_CHECKSIG","reqSigs":1,"type":"pubkeyhash","addresses":["pU498g2Tze2KypwgCnomJXchMWH8HXyZb6"]}}],"blockhash":"bbd74e72ad30df71681f6913a5ead08bc2a833c99eb25febd6102470a6d60041","confirmations":22,"blocktime":1539532640}