{"hex":"010000005067c35b01a10f8fc33b6d2ea84234ccd12ffbc27941c2cc6f6b3cf8e79c220429a9f1692d000000006b483045022100c22dd1d4e95851e46ffa5ae2bd115729f1f5b40c3d14e06ac245bc758691374602206ca9e5381af2d95c42eed9823bd9a25702fcd6d2ca6599b049b5df2e966e4c070121038c96f5a27da7613c625d2d0d7b6119ec2c81d2d0836a5048f23d6e97f7ace018ffffffff02007005f6bf7423001976a91452db04e57e6978dd2df89a73565387907409d50888ac0088526a740000001976a9140c2d1eddba56317fb81d41241b8f40bbca7b5b5488ac00000000","txid":"97e3f29948dd8dcc60df73a84413c7213bffd4875bd19fabcedbc67f1643625c","version":1,"time":1539532640,"locktime":0,"vin":[{"txid":"2d69f1a92904229ce7f83c6b6fccc24179c2fb2fd1cc3442a82e6d3bc38f0fa1","vout":0,"scriptSig":{"asm":"3045022100c22dd1d4e95851e46ffa5ae2bd115729f1f5b40c3d14e06ac245bc758691374602206ca9e5381af2d95c42eed9823bd9a25702fcd6d2ca6599b049b5df2e966e4c0701 038c96f5a27da7613c625d2d0d7b6119ec2c81d2d0836a5048f23d6e97f7ace018","hex":"483045022100c22dd1d4e95851e46ffa5ae2bd115729f1f5b40c3d14e06ac245bc758691374602206ca9e5381af2d95c42eed9823bd9a25702fcd6d2ca6599b049b5df2e966e4c070121038c96f5a27da7613c625d2d0d7b6119ec2c81d2d0836a5048f23d6e97f7ace018"},"sequence":4294967295}],"vout":[{"value":99799920,"n":0,"scriptPubKey":{"asm":"OP_DUP OP_HASH160 52db04e57e6978dd2df89a73565387907409d508 OP_EQUALVERIFY OP_CHECKSIG","reqSigs":1,"type":"pubkeyhash","addresses":["pD6fz9jQiJwmgkvPok2sNKceYcQRhtNrwY"]}},{"value":5000,"n":1,"scriptPubKey":{"asm":"OP_DUP OP_HASH160 0c2d1eddba56317fb81d41241b8f40bbca7b5b54 OP_EQUALVERIFY OP_CHECKSIG","reqSigs":1,"type":"pubkeyhash","addresses":["p6exN3FuZmZyQ7WNzLf7AweTLuHqDvcERN"]}}],"blockhash":"bbd74e72ad30df71681f6913a5ead08bc2a833c99eb25febd6102470a6d60041","confirmations":22,"blocktime":1539532640}