{"hex":"01000000a0a0d65b01017aef5bbd2ba3782741e0493bdfc1d9c28771cab356e571f9a9c98756ebc20d0200000048473044022021fe3889a8e051122b6b09ec40a4079a14d79bb64c7519321e97363979451ff702202b856c55a4cc824123839aa93303c66d857fd20f0fee471b390913a65a1a419f01ffffffff0400000000000000000000a9a1d1010000002321020b1cd26fc4b9f080aea1cf7b667efd5e8453f70429056589831fa7f63506ddbfac77f2b0d1010000002321020b1cd26fc4b9f080aea1cf7b667efd5e8453f70429056589831fa7f63506ddbfac34210000000000001976a9149590579f878db6722db4322a713599a3d865ecb188ac00000000","txid":"2a3fafbcbfa11a968e4272d038375dbd59b64c1685588b69d23c440c76def784","version":1,"time":1540792480,"locktime":0,"vin":[{"txid":"0dc2eb5687c9a9f971e556b3ca7187c2d9c1df3b49e0412778a32bbd5bef7a01","vout":2,"scriptSig":{"asm":"3044022021fe3889a8e051122b6b09ec40a4079a14d79bb64c7519321e97363979451ff702202b856c55a4cc824123839aa93303c66d857fd20f0fee471b390913a65a1a419f01","hex":"473044022021fe3889a8e051122b6b09ec40a4079a14d79bb64c7519321e97363979451ff702202b856c55a4cc824123839aa93303c66d857fd20f0fee471b390913a65a1a419f01"},"sequence":4294967295}],"vout":[{"value":0,"n":0,"scriptPubKey":{"asm":"","type":"nonstandard"}},{"value":78.12,"n":1,"scriptPubKey":{"asm":"020b1cd26fc4b9f080aea1cf7b667efd5e8453f70429056589831fa7f63506ddbf OP_CHECKSIG","reqSigs":1,"type":"pubkey","addresses":["pECTDpfW4nW8hYte3f3F9ZQxwgWmBwmcYL"]}},{"value":78.13001847,"n":2,"scriptPubKey":{"asm":"020b1cd26fc4b9f080aea1cf7b667efd5e8453f70429056589831fa7f63506ddbf OP_CHECKSIG","reqSigs":1,"type":"pubkey","addresses":["pECTDpfW4nW8hYte3f3F9ZQxwgWmBwmcYL"]}},{"value":0.000085,"n":3,"scriptPubKey":{"asm":"OP_DUP OP_HASH160 9590579f878db6722db4322a713599a3d865ecb1 OP_EQUALVERIFY OP_CHECKSIG","reqSigs":1,"type":"pubkeyhash","addresses":["pKBPoNA3SJPY8i2H3PXAafpEbMr7NNikgL"]}}],"blockhash":"ade9dbb6cbfad5037fa279aa3185077edd56aa03624d2536a8733d364e2da845","confirmations":238,"blocktime":1540792480}