{"hex":"010000009ca0d65b01ebe58709342c4a978c5b005a570470fedccfb5bcba7e3c37fca49fd0e46b4eb3000000006b483045022100fc188c8731418754cfb685ae8a8e9a5b5f72d4212f219938452a86ffd6e16e25022020224bbaf5044f1db4279e58d870eb101ef237337a62dd12a0b49846f626fabb0121037472e51b79b539f00e9d8e3c421a7b6186f733c425f242eefe83fc30dd8b243bffffffff02f81e2e01000000001976a914586ee6023d1e7958e4e28e3ef8bfbfb99b61baab88ac80969800000000001976a914b0ce8642748d49f1cc613ef2ecf29e7d214262c188ac00000000","txid":"41990dd2f5673cfe70a87e7400fef49990696bb519e3b1c66f18f0a0a0f0fd17","version":1,"time":1540792480,"locktime":0,"vin":[{"txid":"b34e6be4d09fa4fc373c7ebabcb5cfdcfe7004575a005b8c974a2c340987e5eb","vout":0,"scriptSig":{"asm":"3045022100fc188c8731418754cfb685ae8a8e9a5b5f72d4212f219938452a86ffd6e16e25022020224bbaf5044f1db4279e58d870eb101ef237337a62dd12a0b49846f626fabb01 037472e51b79b539f00e9d8e3c421a7b6186f733c425f242eefe83fc30dd8b243b","hex":"483045022100fc188c8731418754cfb685ae8a8e9a5b5f72d4212f219938452a86ffd6e16e25022020224bbaf5044f1db4279e58d870eb101ef237337a62dd12a0b49846f626fabb0121037472e51b79b539f00e9d8e3c421a7b6186f733c425f242eefe83fc30dd8b243b"},"sequence":4294967295}],"vout":[{"value":0.197998,"n":0,"scriptPubKey":{"asm":"OP_DUP OP_HASH160 586ee6023d1e7958e4e28e3ef8bfbfb99b61baab OP_EQUALVERIFY OP_CHECKSIG","reqSigs":1,"type":"pubkeyhash","addresses":["pDcAWwuhhkun1gC8LfXt4jEp5MPvzzKc85"]}},{"value":0.1,"n":1,"scriptPubKey":{"asm":"OP_DUP OP_HASH160 b0ce8642748d49f1cc613ef2ecf29e7d214262c1 OP_EQUALVERIFY OP_CHECKSIG","reqSigs":1,"type":"pubkeyhash","addresses":["pMfSY3AcSDZ1N7wAM2xZLAyYbC3rciXuRH"]}}],"blockhash":"ade9dbb6cbfad5037fa279aa3185077edd56aa03624d2536a8733d364e2da845","confirmations":238,"blocktime":1540792480}