{"hex":"01000000f2a0c25b010000000000000000000000000000000000000000000000000000000000000000ffffffff04012b0102ffffffff0100000000000000001976a914e0b8346237dcd881be6d4ff1505e593cd7e1dd8b88ac00000000","txid":"016643d8effea2247cf6c317994ee934f46dfd2fbb277f51c276aa808632957a","version":1,"time":1539481844,"locktime":0,"vin":[{"coinbase":"012b0102","sequence":4294967295}],"vout":[{"value":0,"n":0,"scriptPubKey":{"asm":"OP_DUP OP_HASH160 e0b8346237dcd881be6d4ff1505e593cd7e1dd8b OP_EQUALVERIFY OP_CHECKSIG","reqSigs":1,"type":"pubkeyhash","addresses":["pS2nESJxsVp536GXKC9EJtZzrgUJYWBh6A"]}}],"blockhash":"00000ca90ca753fc709143e3f337fcca306389fa03aacde2bca708ef93621811","confirmations":402,"blocktime":1539481844}