{"hex":"0100000089c5e05b020796a167d48bb679360e91070ff4223f110667a028ea25e075a03a30c60750cf010000006b483045022100cbec4e0c089a4ea3721d3e7d3c7796fc91c7b4ecbd93948ce098d2f7787ae68d0220664788af8e0f9b189954a59cb78985bf8359152b70e6e4ca447deaca54ab5e1f01210231e93696233faf049a66c99e314aa7da759d0924a5e5ba431d00c4009110ab28ffffffff74c33887a575c72b3249d1f402b93e60d35dc1393381838c79b48fc22528a1ee010000006b483045022100ad9d0e5867a326d7fa9e925253b438a9ee9b881926312fca4f1845d528f65b6102202c0c86ebfb402141fc579b2c3c21de4892aad38d69c3ec56be7603b202a1a65c012102ba9eb2b4c15c593a3c4d6a7d03d9dc7b2ae9855e81255b501f3801b5d99e7431ffffffff024fc81000000000001976a9143e5789f7365f78d17b1a43c32a09741cbb3e532f88ac2d000000000000001976a914961e71c34635d2879f05b433e37a62c08c8acc7b88ac00000000","txid":"033457095c8135fefa867c746fafcbb9bf8bb9d8eb870cba147ff33e1ac73d0f","version":1,"time":1541457296,"locktime":0,"vin":[{"txid":"cf5007c6303aa075e025ea28a06706113f22f40f07910e3679b68bd467a19607","vout":1,"scriptSig":{"asm":"3045022100cbec4e0c089a4ea3721d3e7d3c7796fc91c7b4ecbd93948ce098d2f7787ae68d0220664788af8e0f9b189954a59cb78985bf8359152b70e6e4ca447deaca54ab5e1f01 0231e93696233faf049a66c99e314aa7da759d0924a5e5ba431d00c4009110ab28","hex":"483045022100cbec4e0c089a4ea3721d3e7d3c7796fc91c7b4ecbd93948ce098d2f7787ae68d0220664788af8e0f9b189954a59cb78985bf8359152b70e6e4ca447deaca54ab5e1f01210231e93696233faf049a66c99e314aa7da759d0924a5e5ba431d00c4009110ab28"},"sequence":4294967295},{"txid":"eea12825c28fb4798c83813339c15dd3603eb902f4d149322bc775a58738c374","vout":1,"scriptSig":{"asm":"3045022100ad9d0e5867a326d7fa9e925253b438a9ee9b881926312fca4f1845d528f65b6102202c0c86ebfb402141fc579b2c3c21de4892aad38d69c3ec56be7603b202a1a65c01 02ba9eb2b4c15c593a3c4d6a7d03d9dc7b2ae9855e81255b501f3801b5d99e7431","hex":"483045022100ad9d0e5867a326d7fa9e925253b438a9ee9b881926312fca4f1845d528f65b6102202c0c86ebfb402141fc579b2c3c21de4892aad38d69c3ec56be7603b202a1a65c012102ba9eb2b4c15c593a3c4d6a7d03d9dc7b2ae9855e81255b501f3801b5d99e7431"},"sequence":4294967295}],"vout":[{"value":0.01099855,"n":0,"scriptPubKey":{"asm":"OP_DUP OP_HASH160 3e5789f7365f78d17b1a43c32a09741cbb3e532f OP_EQUALVERIFY OP_CHECKSIG","reqSigs":1,"type":"pubkeyhash","addresses":["pBECxuks8oB2JbXJkbe3689GkNb14m5jF3"]}},{"value":4.5e-7,"n":1,"scriptPubKey":{"asm":"OP_DUP OP_HASH160 961e71c34635d2879f05b433e37a62c08c8acc7b OP_EQUALVERIFY OP_CHECKSIG","reqSigs":1,"type":"pubkeyhash","addresses":["pKEL2nxKoqMJKYcF6ZWJCaFRbowmACyhk4"]}}],"blockhash":"7de6a9035e63d506af455ca79e5dea4a56984b941c7ca49162ed74309bffafcd","confirmations":3,"blocktime":1541457296}