{"hex":"0100000090c5e05b018fa844947214f94313cecef4ac72903fb4b6c4e6ea667a74256aa42d70eb3d01010000004847304402201ef7eed188f9b848ceb1f67c8a17afc57a7c0911c2e7bcb613f0e3319a2b6ce1022014dd9f60f9fa7de47c48d215e9a642c1b4e8b80a2f92bd7a1e0acb222e5209dc01ffffffff04000000000000000000006dfaa3030000002321028d9be6ae35cf9126d1ddd81f7e9a33d77e64d908c42bf417d6424ba1da9106a6ac4faf09a4030000002321028d9be6ae35cf9126d1ddd81f7e9a33d77e64d908c42bf417d6424ba1da9106a6ac55000000000000001976a914239bf4dba7e2193b7f701a7b68d0e94c85d85fac88ac00000000","txid":"fed7c81636cd699f5a25cff9d4dcec225c10578c87e51a25b72a99ce6d7cf7e2","version":1,"time":1541457296,"locktime":0,"vin":[{"txid":"013deb702da46a25747a66eae6c4b6b43f9072acf4cece1343f914729444a88f","vout":1,"scriptSig":{"asm":"304402201ef7eed188f9b848ceb1f67c8a17afc57a7c0911c2e7bcb613f0e3319a2b6ce1022014dd9f60f9fa7de47c48d215e9a642c1b4e8b80a2f92bd7a1e0acb222e5209dc01","hex":"47304402201ef7eed188f9b848ceb1f67c8a17afc57a7c0911c2e7bcb613f0e3319a2b6ce1022014dd9f60f9fa7de47c48d215e9a642c1b4e8b80a2f92bd7a1e0acb222e5209dc01"},"sequence":4294967295}],"vout":[{"value":0,"n":0,"scriptPubKey":{"asm":"","type":"nonstandard"}},{"value":156.36,"n":1,"scriptPubKey":{"asm":"028d9be6ae35cf9126d1ddd81f7e9a33d77e64d908c42bf417d6424ba1da9106a6 OP_CHECKSIG","reqSigs":1,"type":"pubkey","addresses":["pG17eAwgEzq6zQQ7cLzvCMepRqGYMprwdz"]}},{"value":156.37000015,"n":2,"scriptPubKey":{"asm":"028d9be6ae35cf9126d1ddd81f7e9a33d77e64d908c42bf417d6424ba1da9106a6 OP_CHECKSIG","reqSigs":1,"type":"pubkey","addresses":["pG17eAwgEzq6zQQ7cLzvCMepRqGYMprwdz"]}},{"value":8.5e-7,"n":3,"scriptPubKey":{"asm":"OP_DUP OP_HASH160 239bf4dba7e2193b7f701a7b68d0e94c85d85fac OP_EQUALVERIFY OP_CHECKSIG","reqSigs":1,"type":"pubkeyhash","addresses":["p8nrgTxTfKDC3hvmSmFxDcxpYguUCo8yWb"]}}],"blockhash":"7de6a9035e63d506af455ca79e5dea4a56984b941c7ca49162ed74309bffafcd","confirmations":3,"blocktime":1541457296}