{"hex":"010000004017db5b01273761adbae65c36f1ba8ec0958cf1bbcbb71bd9187b644960f5f9f3e794f15f01000000494830450221009ebd5ee47b5d5583a810c9bffc41347541e22e4a5fffa78273ec1042cebbaf7402206a3402f2a61f86a7b3079dd44d084b96f9bb27df33ea3c43575334428541e2ce01ffffffff030000000000000000003591ab32000000002321026ef57679057df94a5f72e9fead08857f8d7253a593b2b1feed1b68e92df4a4c5ac87750200000000001976a914239bf4dba7e2193b7f701a7b68d0e94c85d85fac88ac00000000","txid":"f5d49af22b40226fd56bcbb65f9ea7cbdc1912a77428d723d670b9c3a20aed0d","version":1,"time":1541084992,"locktime":0,"vin":[{"txid":"5ff194e7f3f9f56049647b18d91bb7cbbbf18c95c08ebaf1365ce6baad613727","vout":1,"scriptSig":{"asm":"30450221009ebd5ee47b5d5583a810c9bffc41347541e22e4a5fffa78273ec1042cebbaf7402206a3402f2a61f86a7b3079dd44d084b96f9bb27df33ea3c43575334428541e2ce01","hex":"4830450221009ebd5ee47b5d5583a810c9bffc41347541e22e4a5fffa78273ec1042cebbaf7402206a3402f2a61f86a7b3079dd44d084b96f9bb27df33ea3c43575334428541e2ce01"},"sequence":4294967295}],"vout":[{"value":0,"n":0,"scriptPubKey":{"asm":"","type":"nonstandard"}},{"value":8.50104629,"n":1,"scriptPubKey":{"asm":"026ef57679057df94a5f72e9fead08857f8d7253a593b2b1feed1b68e92df4a4c5 OP_CHECKSIG","reqSigs":1,"type":"pubkey","addresses":["p5dRZ9MeyiKDma1pAUrsmvEK4NBmmdC4ZN"]}},{"value":0.00161159,"n":2,"scriptPubKey":{"asm":"OP_DUP OP_HASH160 239bf4dba7e2193b7f701a7b68d0e94c85d85fac OP_EQUALVERIFY OP_CHECKSIG","reqSigs":1,"type":"pubkeyhash","addresses":["p8nrgTxTfKDC3hvmSmFxDcxpYguUCo8yWb"]}}],"blockhash":"9a0f71ecc7798ed73b6c9862b07475a8f06c975450b4d278f627af99ba80d81f","confirmations":108,"blocktime":1541084992}