{"hex":"010000003317db5b01eb2ffa754fe11ee160622cb71e29a6e213ee239def0aed3cb7d0f8460ec4666e010000006a4730440220343e90395f40180a4ab07f8bf38c7f712e8697ab9e285a78089c15b97d4c312102204a412c3bd9cdae0da6e2b0ec502d20173f924ed2679c0ff2f95c71e736160bf10121025ee4fbabeb63e2d899f08753580c09314d636aa76509d0558f7f024b13f6d50affffffff02f92aa906000000001976a914dc1dc39cc84a372e034a8c2c5439d04b5b0f5d4d88ac390f4d0b000000001976a9142c4a20c26c8365f2b1569362c6e97a2028c652a488ac00000000","txid":"fe0859396cb4ddbd8a6f532126f92792ead6685a475ed02e8a4edf725d915ffd","version":1,"time":1541084992,"locktime":0,"vin":[{"txid":"6e66c40e46f8d0b73ced0aef9d23ee13e2a6291eb72c6260e11ee14f75fa2feb","vout":1,"scriptSig":{"asm":"30440220343e90395f40180a4ab07f8bf38c7f712e8697ab9e285a78089c15b97d4c312102204a412c3bd9cdae0da6e2b0ec502d20173f924ed2679c0ff2f95c71e736160bf101 025ee4fbabeb63e2d899f08753580c09314d636aa76509d0558f7f024b13f6d50a","hex":"4730440220343e90395f40180a4ab07f8bf38c7f712e8697ab9e285a78089c15b97d4c312102204a412c3bd9cdae0da6e2b0ec502d20173f924ed2679c0ff2f95c71e736160bf10121025ee4fbabeb63e2d899f08753580c09314d636aa76509d0558f7f024b13f6d50a"},"sequence":4294967295}],"vout":[{"value":1.11749881,"n":0,"scriptPubKey":{"asm":"OP_DUP OP_HASH160 dc1dc39cc84a372e034a8c2c5439d04b5b0f5d4d OP_EQUALVERIFY OP_CHECKSIG","reqSigs":1,"type":"pubkeyhash","addresses":["pRcSWxLdtJheMipB6KXVrKncDGxsgjB1Ps"]}},{"value":1.89599545,"n":1,"scriptPubKey":{"asm":"OP_DUP OP_HASH160 2c4a20c26c8365f2b1569362c6e97a2028c652a4 OP_EQUALVERIFY OP_CHECKSIG","reqSigs":1,"type":"pubkeyhash","addresses":["p9akjeWTEeJr2KTurTAKanzcM81jdHoMzs"]}}],"blockhash":"9a0f71ecc7798ed73b6c9862b07475a8f06c975450b4d278f627af99ba80d81f","confirmations":108,"blocktime":1541084992}