{"hex":"01000000107ed85b017ed88e866a3b49b53541a092a47241e002356aac932da033679ed5b0d6defc71010000004847304402205246ac2613e29df818be3502ad8f6d4c0a359d5bfcee37d10d5956acc93d65810220638b517724ea8860cad824742fb21fb21f54d941b9733e9b1b9d43abba28585f01ffffffff030000000000000000005079b3d1010000002321020b1cd26fc4b9f080aea1cf7b667efd5e8453f70429056589831fa7f63506ddbfac5d4c0100000000001976a914b9f3d781f7d99f65d068998a288759e0a638d31288ac00000000","txid":"8cf938545a667302f44e3ed9554d20b8561b6a1cd1915d4b08acbd4fbf681c49","version":1,"time":1540914704,"locktime":0,"vin":[{"txid":"71fcded6b0d59e6733a02d93ac6a3502e04172a492a04135b5493b6a868ed87e","vout":1,"scriptSig":{"asm":"304402205246ac2613e29df818be3502ad8f6d4c0a359d5bfcee37d10d5956acc93d65810220638b517724ea8860cad824742fb21fb21f54d941b9733e9b1b9d43abba28585f01","hex":"47304402205246ac2613e29df818be3502ad8f6d4c0a359d5bfcee37d10d5956acc93d65810220638b517724ea8860cad824742fb21fb21f54d941b9733e9b1b9d43abba28585f01"},"sequence":4294967295}],"vout":[{"value":0,"n":0,"scriptPubKey":{"asm":"","type":"nonstandard"}},{"value":78.1316744,"n":1,"scriptPubKey":{"asm":"020b1cd26fc4b9f080aea1cf7b667efd5e8453f70429056589831fa7f63506ddbf OP_CHECKSIG","reqSigs":1,"type":"pubkey","addresses":["pECTDpfW4nW8hYte3f3F9ZQxwgWmBwmcYL"]}},{"value":0.00085085,"n":2,"scriptPubKey":{"asm":"OP_DUP OP_HASH160 b9f3d781f7d99f65d068998a288759e0a638d312 OP_EQUALVERIFY OP_CHECKSIG","reqSigs":1,"type":"pubkeyhash","addresses":["pNVoKczQ6P92yawDZejgg9H8khMTR2Sf2j"]}}],"blockhash":"e4ba42aae4c1465ed1b6391bff834d4a6961cd40f07c6fa9b48a123e588be32d","confirmations":160,"blocktime":1540914704}