{"hex":"010000000c7ed85b01713526ffe898c5b8c55e5fc37e4d1130e1f38a0b4845828768da70605f6d6415010000006b483045022100b08597c418fabd7ae246d5f3187f3bfb773d9abfec83c9a8f8d06088101e9fb502204b9ce59ccad6be3615662a5382973dfb95000c6b5a19cb5bf8e492889a819d24012102eae05ddd7c19b953093c3f72a5183c2c5bb321d1d41862c94c02c937782cd421ffffffff0263c55905000000001976a91449d8ed3cf08fde2255926ceb8fc9308da4ff4fdc88aca067f705000000001976a91471d1bcf249ae0b0ce4d968303fafa6ad001c56ed88ac00000000","txid":"fa42acc325ae3c7515a35726241615e6fd9ae0866bd350d471cd5c146d82e9a5","version":1,"time":1540914704,"locktime":0,"vin":[{"txid":"15646d5f6070da68878245480b8af3e130114d7ec35f5ec5b8c598e8ff263571","vout":1,"scriptSig":{"asm":"3045022100b08597c418fabd7ae246d5f3187f3bfb773d9abfec83c9a8f8d06088101e9fb502204b9ce59ccad6be3615662a5382973dfb95000c6b5a19cb5bf8e492889a819d2401 02eae05ddd7c19b953093c3f72a5183c2c5bb321d1d41862c94c02c937782cd421","hex":"483045022100b08597c418fabd7ae246d5f3187f3bfb773d9abfec83c9a8f8d06088101e9fb502204b9ce59ccad6be3615662a5382973dfb95000c6b5a19cb5bf8e492889a819d24012102eae05ddd7c19b953093c3f72a5183c2c5bb321d1d41862c94c02c937782cd421"},"sequence":4294967295}],"vout":[{"value":0.89769315,"n":0,"scriptPubKey":{"asm":"OP_DUP OP_HASH160 49d8ed3cf08fde2255926ceb8fc9308da4ff4fdc OP_EQUALVERIFY OP_CHECKSIG","reqSigs":1,"type":"pubkeyhash","addresses":["pCH3Q3M9tgbRYUh2orHQAKBD6GMFRXfPaZ"]}},{"value":1.001,"n":1,"scriptPubKey":{"asm":"OP_DUP OP_HASH160 71d1bcf249ae0b0ce4d968303fafa6ad001c56ed OP_EQUALVERIFY OP_CHECKSIG","reqSigs":1,"type":"pubkeyhash","addresses":["pFvPpEpc9e6Jz2XnBhhp89UzaM6M4YLAnt"]}}],"blockhash":"e4ba42aae4c1465ed1b6391bff834d4a6961cd40f07c6fa9b48a123e588be32d","confirmations":160,"blocktime":1540914704}