{"hex":"01000000f0ecd45b014cea0add58b383032359b6cfff9aad676c70bef68231c5f25e0f391251a38a400200000049483045022100e1e52532550bfa5d6f2bac7bb9a2bc5c1eb3d7e827b48b98ff0cf3e79e9445c602207185bf3860fbb16b9203befcbbcac6819db4f8521529c80cf2d84b4179a7cce801ffffffff040000000000000000008028a546070000002321020b1cd26fc4b9f080aea1cf7b667efd5e8453f70429056589831fa7f63506ddbfac2529a546070000002321020b1cd26fc4b9f080aea1cf7b667efd5e8453f70429056589831fa7f63506ddbfac55000000000000001976a9140f0458597355a9fb43189a18c91b2668213960f888ac00000000","txid":"47685db39b2b3509e6722bb92852c2f37846f61c3817e23a4eaec5c992a1fc91","version":1,"time":1540680944,"locktime":0,"vin":[{"txid":"408aa35112390f5ef2c53182f6be706c67ad9affcfb659230383b358dd0aea4c","vout":2,"scriptSig":{"asm":"3045022100e1e52532550bfa5d6f2bac7bb9a2bc5c1eb3d7e827b48b98ff0cf3e79e9445c602207185bf3860fbb16b9203befcbbcac6819db4f8521529c80cf2d84b4179a7cce801","hex":"483045022100e1e52532550bfa5d6f2bac7bb9a2bc5c1eb3d7e827b48b98ff0cf3e79e9445c602207185bf3860fbb16b9203befcbbcac6819db4f8521529c80cf2d84b4179a7cce801"},"sequence":4294967295}],"vout":[{"value":0,"n":0,"scriptPubKey":{"asm":"","type":"nonstandard"}},{"value":312.5,"n":1,"scriptPubKey":{"asm":"020b1cd26fc4b9f080aea1cf7b667efd5e8453f70429056589831fa7f63506ddbf OP_CHECKSIG","reqSigs":1,"type":"pubkey","addresses":["pECTDpfW4nW8hYte3f3F9ZQxwgWmBwmcYL"]}},{"value":312.50000165,"n":2,"scriptPubKey":{"asm":"020b1cd26fc4b9f080aea1cf7b667efd5e8453f70429056589831fa7f63506ddbf OP_CHECKSIG","reqSigs":1,"type":"pubkey","addresses":["pECTDpfW4nW8hYte3f3F9ZQxwgWmBwmcYL"]}},{"value":8.5e-7,"n":3,"scriptPubKey":{"asm":"OP_DUP OP_HASH160 0f0458597355a9fb43189a18c91b2668213960f8 OP_EQUALVERIFY OP_CHECKSIG","reqSigs":1,"type":"pubkeyhash","addresses":["p6uyYVC7Ty7S1UZtPQtetPMTXYoKf6M8dh"]}}],"blockhash":"90ce84c850a00212c20f3528f76fcceb5cb495ba2ea42f33400f956908ceebf8","confirmations":275,"blocktime":1540680944}