{"hex":"01000000e4ecd45b01090e9aa264ef0350858a82ca3eae6cef326027b19c19a011c7e7537c77fd374d000000006a473044022025ff3abf06a754f615f069ce7235569982b9179af22df16683bfc398e8148cca02204f76df14ff7b3aa3972e9b0370f45c59dda252c2affdbdaabf2f30800ad7ce7d012102cc738d2387d0a897c5a5c932197d3eef843aa44db6158d0d3f69cb4fea86d798ffffffff02a1c91c00000000001976a914e599e5e91013440d5491110b3fb6499f3b8fae2b88aca0860100000000001976a9144096e7fc0812b091315c472b680ccd07686b0bde88ac00000000","txid":"6ed3d57e2826e620336de9e3b5feca4347a05d2098df10600ff0fbc6ce296c51","version":1,"time":1540680944,"locktime":0,"vin":[{"txid":"4d37fd777c53e7c711a0199cb1276032ef6cae3eca828a855003ef64a29a0e09","vout":0,"scriptSig":{"asm":"3044022025ff3abf06a754f615f069ce7235569982b9179af22df16683bfc398e8148cca02204f76df14ff7b3aa3972e9b0370f45c59dda252c2affdbdaabf2f30800ad7ce7d01 02cc738d2387d0a897c5a5c932197d3eef843aa44db6158d0d3f69cb4fea86d798","hex":"473044022025ff3abf06a754f615f069ce7235569982b9179af22df16683bfc398e8148cca02204f76df14ff7b3aa3972e9b0370f45c59dda252c2affdbdaabf2f30800ad7ce7d012102cc738d2387d0a897c5a5c932197d3eef843aa44db6158d0d3f69cb4fea86d798"},"sequence":4294967295}],"vout":[{"value":0.01886625,"n":0,"scriptPubKey":{"asm":"OP_DUP OP_HASH160 e599e5e91013440d5491110b3fb6499f3b8fae2b OP_EQUALVERIFY OP_CHECKSIG","reqSigs":1,"type":"pubkeyhash","addresses":["pSUbJfJqrKF6WYSMwLxophscjdXiXLYTYs"]}},{"value":0.001,"n":1,"scriptPubKey":{"asm":"OP_DUP OP_HASH160 4096e7fc0812b091315c472b680ccd07686b0bde OP_EQUALVERIFY OP_CHECKSIG","reqSigs":1,"type":"pubkeyhash","addresses":["pBS6E8Qhiibdi9hG31vjg6TTKrYusC17pQ"]}}],"blockhash":"90ce84c850a00212c20f3528f76fcceb5cb495ba2ea42f33400f956908ceebf8","confirmations":275,"blocktime":1540680944}