{"hex":"010000002086d85b01eabf986fb1cae1e920e6df404ff344511758027572e3ec0786a9e67e9831fd2c0100000049483045022100f1a6f10dcd3950902e9d79dd35c3bb773df057f71453840951db8742ebe49ba702205d80e0e8a4a8ef24fdca6a1d99e77368e62bbba05e21f6990f1030ec858b48fc01ffffffff0300000000000000000070b66dd3010000002321020b1cd26fc4b9f080aea1cf7b667efd5e8453f70429056589831fa7f63506ddbfac80fe210a000000001976a91497cf81798c9f5e48463f6e018e82c7f5d25f8e4c88ac00000000","txid":"63a263d3494ac7eae9f4b205a589db25f8b204a02b4608f2310c696ce9978f7a","version":1,"time":1540916768,"locktime":0,"vin":[{"txid":"2cfd31987ee6a98607ece372750258175144f34f40dfe620e9e1cab16f98bfea","vout":1,"scriptSig":{"asm":"3045022100f1a6f10dcd3950902e9d79dd35c3bb773df057f71453840951db8742ebe49ba702205d80e0e8a4a8ef24fdca6a1d99e77368e62bbba05e21f6990f1030ec858b48fc01","hex":"483045022100f1a6f10dcd3950902e9d79dd35c3bb773df057f71453840951db8742ebe49ba702205d80e0e8a4a8ef24fdca6a1d99e77368e62bbba05e21f6990f1030ec858b48fc01"},"sequence":4294967295}],"vout":[{"value":0,"n":0,"scriptPubKey":{"asm":"","type":"nonstandard"}},{"value":78.4215,"n":1,"scriptPubKey":{"asm":"020b1cd26fc4b9f080aea1cf7b667efd5e8453f70429056589831fa7f63506ddbf OP_CHECKSIG","reqSigs":1,"type":"pubkey","addresses":["pECTDpfW4nW8hYte3f3F9ZQxwgWmBwmcYL"]}},{"value":1.7,"n":2,"scriptPubKey":{"asm":"OP_DUP OP_HASH160 97cf81798c9f5e48463f6e018e82c7f5d25f8e4c OP_EQUALVERIFY OP_CHECKSIG","reqSigs":1,"type":"pubkeyhash","addresses":["pKPGpRbrLFtB8pJLBr7nVTxsjHpfbwG83K"]}}],"blockhash":"23e7608272d19759fa6ae1b74b5453f3bd4d87a77f4c7403dc9a2974e9675dc0","confirmations":156,"blocktime":1540916768}