{"hex":"010000001486d85b01bdaf2f8dcbde4aa89fa5621b0e13fdf4b55b714b73a5188863bc4e5275968a20010000006b483045022100bbd1989ba23575dc0fd63fe78779b050eb30a8f65a767390cc14c9ada21581b4022076b733107d07a6624a4e32e5214dc0af5401649b6376faf4709c4ab20db7f24f012102ba9eb2b4c15c593a3c4d6a7d03d9dc7b2ae9855e81255b501f3801b5d99e7431ffffffff0200c6665e740000001976a91455db5507d9bae91ef3390eaf6ed03f7e16e9d2df88ac005039278c0400001976a9144c28ee798243702bc4500cdb4da9004130bb47f688ac00000000","txid":"91b87ef3fb2d58e412a9387744c355bb37ef91fc40e96b41b27ee818b95c9de5","version":1,"time":1540916768,"locktime":0,"vin":[{"txid":"208a9675524ebc638818a5734b715bb5f4fd130e1b62a59fa84adecb8d2fafbd","vout":1,"scriptSig":{"asm":"3045022100bbd1989ba23575dc0fd63fe78779b050eb30a8f65a767390cc14c9ada21581b4022076b733107d07a6624a4e32e5214dc0af5401649b6376faf4709c4ab20db7f24f01 02ba9eb2b4c15c593a3c4d6a7d03d9dc7b2ae9855e81255b501f3801b5d99e7431","hex":"483045022100bbd1989ba23575dc0fd63fe78779b050eb30a8f65a767390cc14c9ada21581b4022076b733107d07a6624a4e32e5214dc0af5401649b6376faf4709c4ab20db7f24f012102ba9eb2b4c15c593a3c4d6a7d03d9dc7b2ae9855e81255b501f3801b5d99e7431"},"sequence":4294967295}],"vout":[{"value":4998,"n":0,"scriptPubKey":{"asm":"OP_DUP OP_HASH160 55db5507d9bae91ef3390eaf6ed03f7e16e9d2df OP_EQUALVERIFY OP_CHECKSIG","reqSigs":1,"type":"pubkeyhash","addresses":["pDNYPUa2UoRWGuuuDXbfKWZodQ91TZkGid"]}},{"value":50000,"n":1,"scriptPubKey":{"asm":"OP_DUP OP_HASH160 4c28ee798243702bc4500cdb4da9004130bb47f6 OP_EQUALVERIFY OP_CHECKSIG","reqSigs":1,"type":"pubkeyhash","addresses":["pCVGbFvFLapGyskXvwfxG2ss21bRU9FqUh"]}}],"blockhash":"23e7608272d19759fa6ae1b74b5453f3bd4d87a77f4c7403dc9a2974e9675dc0","confirmations":156,"blocktime":1540916768}