{"hex":"0100000080e4d95b0907d8b6cb9a8028d947abf09f43b4407feed3e4fb1d182b48a1702e3dc61fef1c030000006b483045022100daf60ed34aba7bb79ba26d379cac04246b0af0d4ac70380e3ea90a405e5f1afc02205e668456d23748f40bf8896f458a3c065010944778675b3f14d81559a4cba7f7012102b1bc1b9bb31a93198ddd4ab8e9d2abee656ad033761f1071919d791842ace534ffffffff166a09ddcf02dee27352bf2e7d2291e1fa4e66139660d0b35a5d2ccf4d36a38b020000006b483045022100bd78319a0091d5fa0de27c136b4388b1c275eb51ed52b31b31467cfa2121e5dd022019ed0e7b315d3a6511162410c759e1cd5d1c9712158af3e7877695985e455ee2012102b1bc1b9bb31a93198ddd4ab8e9d2abee656ad033761f1071919d791842ace534ffffffff22ed3e4b5d623c7b1b84f0d215daf6b5a844f9a2374754502025b88d9e978ed1030000006a47304402204aaa8a4c26869aafca5d9980041a0123682811e1506dac6e8e0dd41ed3126556022053a5270c8a6215b6d00186195a016a91ac10bb00d3adcf71d16cc5a44c1e7e89012102b1bc1b9bb31a93198ddd4ab8e9d2abee656ad033761f1071919d791842ace534ffffffff2a5699d74204e8464cfb2a5ddabc72b68510c4a078b99ae291ba5db3b0a4541a030000006b483045022100a25275c5563abdbaea07a3b8fc28d4ef0658136c6ea0d8c9ab4174ef59f4f16a02204db776bda22886519ec1d07128f7aba7f8d5d28316305f3911f6968f0c93dc7c012102b1bc1b9bb31a93198ddd4ab8e9d2abee656ad033761f1071919d791842ace534ffffffff2ee7ddd54b633707e73018741f0ad2560fcb4adcdfc2e20ed28ecc20beb7d1ce030000006a47304402201859ae3aea74eed9412bd6402d56287e41b2a3d19d28c0576df9ad19a7e1927b0220762d244ab060bf2f413157a3d4a1fc89c694de61a0b794cf02e4032b20dcbe48012102b1bc1b9bb31a93198ddd4ab8e9d2abee656ad033761f1071919d791842ace534ffffffff46440594aa41c2cf06967d4485e3d10744a0ce9e13ce5629284d10b927e4b746020000006b483045022100a9437a3a6cbf71e20e0930b24882ddbe9c7b3e0cbf38f6fab5a07eb08b4e7e1702200553edbb1e74b67900c66042d44e4ef8379e7098f9857f778d4e0f89b564a614012102b1bc1b9bb31a93198ddd4ab8e9d2abee656ad033761f1071919d791842ace534ffffffff4b629b0082652ddce67b8e6f5a1c084c95bf9f2c5bbfed99f4fd59bf1f56f4d8020000006a47304402206a928906868aa266ba0dea0ebb83ceb0a4dcbb22fa2a21e047436104e0b2102c02206515eade2e7d75c83a7198ed92455aff2403bcc769561abc1d552dcc0ec3cda2012102b1bc1b9bb31a93198ddd4ab8e9d2abee656ad033761f1071919d791842ace534ffffffff74c9c11e430519dab1421d902a75f67a7cfa75b57bb9e5c9a83ea9f07a708396020000006a473044022032f812b672f57e850045df6dc784d276a293cc0e3702700832fb52a8f2763b5b02202fca8a9f45708a62cff4a18baaf2abab357f38b3eeb839c47620bc2c36917ebf012102b1bc1b9bb31a93198ddd4ab8e9d2abee656ad033761f1071919d791842ace534ffffffff76efda1974aa3a93cd8509cef45e9f58b041d1e8104331ac6c5c1060bcc37508020000006a47304402203391e1dc04ce48475cd71872adb84032cc218469c875c89e9a2f7c92942b7f44022022e6d1a46a36d36b8138236c66213be81217842742f0dd61b169f1158d329f0a012102b1bc1b9bb31a93198ddd4ab8e9d2abee656ad033761f1071919d791842ace534ffffffff0300000000000000000012ac3d0a00000000232102b1bc1b9bb31a93198ddd4ab8e9d2abee656ad033761f1071919d791842ace534ac76280200000000001976a914868614ec264fbcc17e0fe25b544f0740a29a3ffa88ac00000000","txid":"22406e2f02f742ae41312e31cb0b6e97a81f120dd64f9e91203996771599eb53","version":1,"time":1541006464,"locktime":0,"vin":[{"txid":"1cef1fc63d2e70a1482b181dfbe4d3ee7f40b4439ff0ab47d928809acbb6d807","vout":3,"scriptSig":{"asm":"3045022100daf60ed34aba7bb79ba26d379cac04246b0af0d4ac70380e3ea90a405e5f1afc02205e668456d23748f40bf8896f458a3c065010944778675b3f14d81559a4cba7f701 02b1bc1b9bb31a93198ddd4ab8e9d2abee656ad033761f1071919d791842ace534","hex":"483045022100daf60ed34aba7bb79ba26d379cac04246b0af0d4ac70380e3ea90a405e5f1afc02205e668456d23748f40bf8896f458a3c065010944778675b3f14d81559a4cba7f7012102b1bc1b9bb31a93198ddd4ab8e9d2abee656ad033761f1071919d791842ace534"},"sequence":4294967295},{"txid":"8ba3364dcf2c5d5ab3d0609613664efae191227d2ebf5273e2de02cfdd096a16","vout":2,"scriptSig":{"asm":"3045022100bd78319a0091d5fa0de27c136b4388b1c275eb51ed52b31b31467cfa2121e5dd022019ed0e7b315d3a6511162410c759e1cd5d1c9712158af3e7877695985e455ee201 02b1bc1b9bb31a93198ddd4ab8e9d2abee656ad033761f1071919d791842ace534","hex":"483045022100bd78319a0091d5fa0de27c136b4388b1c275eb51ed52b31b31467cfa2121e5dd022019ed0e7b315d3a6511162410c759e1cd5d1c9712158af3e7877695985e455ee2012102b1bc1b9bb31a93198ddd4ab8e9d2abee656ad033761f1071919d791842ace534"},"sequence":4294967295},{"txid":"d18e979e8db8252050544737a2f944a8b5f6da15d2f0841b7b3c625d4b3eed22","vout":3,"scriptSig":{"asm":"304402204aaa8a4c26869aafca5d9980041a0123682811e1506dac6e8e0dd41ed3126556022053a5270c8a6215b6d00186195a016a91ac10bb00d3adcf71d16cc5a44c1e7e8901 02b1bc1b9bb31a93198ddd4ab8e9d2abee656ad033761f1071919d791842ace534","hex":"47304402204aaa8a4c26869aafca5d9980041a0123682811e1506dac6e8e0dd41ed3126556022053a5270c8a6215b6d00186195a016a91ac10bb00d3adcf71d16cc5a44c1e7e89012102b1bc1b9bb31a93198ddd4ab8e9d2abee656ad033761f1071919d791842ace534"},"sequence":4294967295},{"txid":"1a54a4b0b35dba91e29ab978a0c41085b672bcda5d2afb4c46e80442d799562a","vout":3,"scriptSig":{"asm":"3045022100a25275c5563abdbaea07a3b8fc28d4ef0658136c6ea0d8c9ab4174ef59f4f16a02204db776bda22886519ec1d07128f7aba7f8d5d28316305f3911f6968f0c93dc7c01 02b1bc1b9bb31a93198ddd4ab8e9d2abee656ad033761f1071919d791842ace534","hex":"483045022100a25275c5563abdbaea07a3b8fc28d4ef0658136c6ea0d8c9ab4174ef59f4f16a02204db776bda22886519ec1d07128f7aba7f8d5d28316305f3911f6968f0c93dc7c012102b1bc1b9bb31a93198ddd4ab8e9d2abee656ad033761f1071919d791842ace534"},"sequence":4294967295},{"txid":"ced1b7be20cc8ed20ee2c2dfdc4acb0f56d20a1f741830e70737634bd5dde72e","vout":3,"scriptSig":{"asm":"304402201859ae3aea74eed9412bd6402d56287e41b2a3d19d28c0576df9ad19a7e1927b0220762d244ab060bf2f413157a3d4a1fc89c694de61a0b794cf02e4032b20dcbe4801 02b1bc1b9bb31a93198ddd4ab8e9d2abee656ad033761f1071919d791842ace534","hex":"47304402201859ae3aea74eed9412bd6402d56287e41b2a3d19d28c0576df9ad19a7e1927b0220762d244ab060bf2f413157a3d4a1fc89c694de61a0b794cf02e4032b20dcbe48012102b1bc1b9bb31a93198ddd4ab8e9d2abee656ad033761f1071919d791842ace534"},"sequence":4294967295},{"txid":"46b7e427b9104d282956ce139ecea04407d1e385447d9606cfc241aa94054446","vout":2,"scriptSig":{"asm":"3045022100a9437a3a6cbf71e20e0930b24882ddbe9c7b3e0cbf38f6fab5a07eb08b4e7e1702200553edbb1e74b67900c66042d44e4ef8379e7098f9857f778d4e0f89b564a61401 02b1bc1b9bb31a93198ddd4ab8e9d2abee656ad033761f1071919d791842ace534","hex":"483045022100a9437a3a6cbf71e20e0930b24882ddbe9c7b3e0cbf38f6fab5a07eb08b4e7e1702200553edbb1e74b67900c66042d44e4ef8379e7098f9857f778d4e0f89b564a614012102b1bc1b9bb31a93198ddd4ab8e9d2abee656ad033761f1071919d791842ace534"},"sequence":4294967295},{"txid":"d8f4561fbf59fdf499edbf5b2c9fbf954c081c5a6f8e7be6dc2d6582009b624b","vout":2,"scriptSig":{"asm":"304402206a928906868aa266ba0dea0ebb83ceb0a4dcbb22fa2a21e047436104e0b2102c02206515eade2e7d75c83a7198ed92455aff2403bcc769561abc1d552dcc0ec3cda201 02b1bc1b9bb31a93198ddd4ab8e9d2abee656ad033761f1071919d791842ace534","hex":"47304402206a928906868aa266ba0dea0ebb83ceb0a4dcbb22fa2a21e047436104e0b2102c02206515eade2e7d75c83a7198ed92455aff2403bcc769561abc1d552dcc0ec3cda2012102b1bc1b9bb31a93198ddd4ab8e9d2abee656ad033761f1071919d791842ace534"},"sequence":4294967295},{"txid":"9683707af0a93ea8c9e5b97bb575fa7c7af6752a901d42b1da1905431ec1c974","vout":2,"scriptSig":{"asm":"3044022032f812b672f57e850045df6dc784d276a293cc0e3702700832fb52a8f2763b5b02202fca8a9f45708a62cff4a18baaf2abab357f38b3eeb839c47620bc2c36917ebf01 02b1bc1b9bb31a93198ddd4ab8e9d2abee656ad033761f1071919d791842ace534","hex":"473044022032f812b672f57e850045df6dc784d276a293cc0e3702700832fb52a8f2763b5b02202fca8a9f45708a62cff4a18baaf2abab357f38b3eeb839c47620bc2c36917ebf012102b1bc1b9bb31a93198ddd4ab8e9d2abee656ad033761f1071919d791842ace534"},"sequence":4294967295},{"txid":"0875c3bc60105c6cac314310e8d141b0589f5ef4ce0985cd933aaa7419daef76","vout":2,"scriptSig":{"asm":"304402203391e1dc04ce48475cd71872adb84032cc218469c875c89e9a2f7c92942b7f44022022e6d1a46a36d36b8138236c66213be81217842742f0dd61b169f1158d329f0a01 02b1bc1b9bb31a93198ddd4ab8e9d2abee656ad033761f1071919d791842ace534","hex":"47304402203391e1dc04ce48475cd71872adb84032cc218469c875c89e9a2f7c92942b7f44022022e6d1a46a36d36b8138236c66213be81217842742f0dd61b169f1158d329f0a012102b1bc1b9bb31a93198ddd4ab8e9d2abee656ad033761f1071919d791842ace534"},"sequence":4294967295}],"vout":[{"value":0,"n":0,"scriptPubKey":{"asm":"","type":"nonstandard"}},{"value":1.71813906,"n":1,"scriptPubKey":{"asm":"02b1bc1b9bb31a93198ddd4ab8e9d2abee656ad033761f1071919d791842ace534 OP_CHECKSIG","reqSigs":1,"type":"pubkey","addresses":["pTSiMnNaB4wjS22bEGEEkNcu17kmCfBCLj"]}},{"value":0.0014143,"n":2,"scriptPubKey":{"asm":"OP_DUP OP_HASH160 868614ec264fbcc17e0fe25b544f0740a29a3ffa OP_EQUALVERIFY OP_CHECKSIG","reqSigs":1,"type":"pubkeyhash","addresses":["pHosNaAavGxjBXaJVQnyrJDcTKDMVqKujz"]}}],"blockhash":"b85a6a09861bb26b6afb4adbcf94bfc2050bc07b382d9e7ff63b05af94246bff","confirmations":128,"blocktime":1541006464}