{"hex":"010000007ee4d95b01a48a1c78d39f51c2e85a3553cb39fef3a7331b0a86387eb003f393ad45d3e85c000000006b483045022100f1803ae8dc406e71849a9a37f112fcc85760ccb3466aa7172ddb87c53195517d02207c38379476957f6c261f1090ab5c5600d2b6d3393587045b9e8783f1006675b2012102ab8b56ce8a058c0adbaf61612b7e9110d818032dfcb56bf012c3ea0fb42bcbd8ffffffff02c1446501000000001976a9149189809103927ce6b2c3d3571dd7862d1935191688ac52e5ea09000000001976a914b8dcb39c03ef1c53fa17164ba77417215ef84efc88ac00000000","txid":"e5ac7c6bb2afc757fa57c70423c2c92de69fdc8f92de952d550eca249e3eaafe","version":1,"time":1541006464,"locktime":0,"vin":[{"txid":"5ce8d345ad93f303b07e38860a1b33a7f3fe39cb53355ae8c2519fd3781c8aa4","vout":0,"scriptSig":{"asm":"3045022100f1803ae8dc406e71849a9a37f112fcc85760ccb3466aa7172ddb87c53195517d02207c38379476957f6c261f1090ab5c5600d2b6d3393587045b9e8783f1006675b201 02ab8b56ce8a058c0adbaf61612b7e9110d818032dfcb56bf012c3ea0fb42bcbd8","hex":"483045022100f1803ae8dc406e71849a9a37f112fcc85760ccb3466aa7172ddb87c53195517d02207c38379476957f6c261f1090ab5c5600d2b6d3393587045b9e8783f1006675b2012102ab8b56ce8a058c0adbaf61612b7e9110d818032dfcb56bf012c3ea0fb42bcbd8"},"sequence":4294967295}],"vout":[{"value":0.23413953,"n":0,"scriptPubKey":{"asm":"OP_DUP OP_HASH160 9189809103927ce6b2c3d3571dd7862d19351916 OP_EQUALVERIFY OP_CHECKSIG","reqSigs":1,"type":"pubkeyhash","addresses":["pJp6uLoNUwJfWU928uoHULKi4hJwdaDuUR"]}},{"value":1.66389074,"n":1,"scriptPubKey":{"asm":"OP_DUP OP_HASH160 b8dcb39c03ef1c53fa17164ba77417215ef84efc OP_EQUALVERIFY OP_CHECKSIG","reqSigs":1,"type":"pubkeyhash","addresses":["pNQ2vcpDPfPYZ3Hx7Tkqy6c8UFht3HELXL"]}}],"blockhash":"b85a6a09861bb26b6afb4adbcf94bfc2050bc07b382d9e7ff63b05af94246bff","confirmations":128,"blocktime":1541006464}