{"hex":"010000006011db5b018dc8dfc37959587b11fa2e551a00a51a7bc891d35d6c054a4b4e6c519009697e0200000049483045022100e71bad1701890649353e8aa0c9c78230362b94d2aeb6b6ca3de04e4dca3c46e802204ca36a7a433d1d02ad852c1ba59bf5a6d49f971590073f601fb76b75855020fc01ffffffff0400000000000000000000a2941a1d00000023210210c18e3b5aba3a6167f17a2fd6b65419de165b4388a78f0e815f0e3bc60d34f3acc6a6941a1d00000023210210c18e3b5aba3a6167f17a2fd6b65419de165b4388a78f0e815f0e3bc60d34f3ac8e180000000000001976a914f6ea51b1cf22773ff3c68e8299209dc9d69d593f88ac00000000","txid":"e96dda1955135613476bbe494d1afa7c077e5eacec02d7bdf775ee1dee907375","version":1,"time":1541083488,"locktime":0,"vin":[{"txid":"7e690990516c4e4b4a056c5dd391c87b1aa5001a552efa117b585979c3dfc88d","vout":2,"scriptSig":{"asm":"3045022100e71bad1701890649353e8aa0c9c78230362b94d2aeb6b6ca3de04e4dca3c46e802204ca36a7a433d1d02ad852c1ba59bf5a6d49f971590073f601fb76b75855020fc01","hex":"483045022100e71bad1701890649353e8aa0c9c78230362b94d2aeb6b6ca3de04e4dca3c46e802204ca36a7a433d1d02ad852c1ba59bf5a6d49f971590073f601fb76b75855020fc01"},"sequence":4294967295}],"vout":[{"value":0,"n":0,"scriptPubKey":{"asm":"","type":"nonstandard"}},{"value":1250,"n":1,"scriptPubKey":{"asm":"0210c18e3b5aba3a6167f17a2fd6b65419de165b4388a78f0e815f0e3bc60d34f3 OP_CHECKSIG","reqSigs":1,"type":"pubkey","addresses":["pFf1Gp4G6PCkSUxUY1XLwNBH2ji6sBJMC3"]}},{"value":1250.00001222,"n":2,"scriptPubKey":{"asm":"0210c18e3b5aba3a6167f17a2fd6b65419de165b4388a78f0e815f0e3bc60d34f3 OP_CHECKSIG","reqSigs":1,"type":"pubkey","addresses":["pFf1Gp4G6PCkSUxUY1XLwNBH2ji6sBJMC3"]}},{"value":0.00006286,"n":3,"scriptPubKey":{"asm":"OP_DUP OP_HASH160 f6ea51b1cf22773ff3c68e8299209dc9d69d593f OP_EQUALVERIFY OP_CHECKSIG","reqSigs":1,"type":"pubkeyhash","addresses":["pU498g2Tze2KypwgCnomJXchMWH8HXyZb6"]}}],"blockhash":"9ba5372d1287c49354d43145ac0703b25645ba2a4f5f7fdd68b5af2825dadaba","confirmations":109,"blocktime":1541083488}