{"hex":"010000005e11db5b01199f6813162d6292a1cc89e27f8b0916a50b557a68114850250f35b466f8c4ad010000006b4830450221009b0ba8964048cf95d31a063f86c03f6d923ad8dcf355e5399c234dd5e1684461022079101afe4a4990470e75b3929442c117be70c6063ac1d372ff2628b838d32ea001210241a5dd2adca773202e2bff30a40c777ba6f16021e5df5168806409973891cd83ffffffff02612a8c00000000001976a914d17f9152d374b8528ffe6eea107cd658cf68ffbc88ac8cdc7000000000001976a914283bf42329d0684585e5abda3884d0eb625dd26888ac00000000","txid":"f5f805dad91f9a6d808cee830f955ea321732f531142a3384a67d7104786ad54","version":1,"time":1541083488,"locktime":0,"vin":[{"txid":"adc4f866b4350f25504811687a550ba516098b7fe289cca192622d1613689f19","vout":1,"scriptSig":{"asm":"30450221009b0ba8964048cf95d31a063f86c03f6d923ad8dcf355e5399c234dd5e1684461022079101afe4a4990470e75b3929442c117be70c6063ac1d372ff2628b838d32ea001 0241a5dd2adca773202e2bff30a40c777ba6f16021e5df5168806409973891cd83","hex":"4830450221009b0ba8964048cf95d31a063f86c03f6d923ad8dcf355e5399c234dd5e1684461022079101afe4a4990470e75b3929442c117be70c6063ac1d372ff2628b838d32ea001210241a5dd2adca773202e2bff30a40c777ba6f16021e5df5168806409973891cd83"},"sequence":4294967295}],"vout":[{"value":0.09185889,"n":0,"scriptPubKey":{"asm":"OP_DUP OP_HASH160 d17f9152d374b8528ffe6eea107cd658cf68ffbc OP_EQUALVERIFY OP_CHECKSIG","reqSigs":1,"type":"pubkeyhash","addresses":["pQeJFMZB8f3e6khvmdCu42tMwWAWEn8X28"]}},{"value":0.07396492,"n":1,"scriptPubKey":{"asm":"OP_DUP OP_HASH160 283bf42329d0684585e5abda3884d0eb625dd268 OP_EQUALVERIFY OP_CHECKSIG","reqSigs":1,"type":"pubkeyhash","addresses":["p9DK42pZRVFRWx7GbZ6TyaoDUz8Foq1RdY"]}}],"blockhash":"9ba5372d1287c49354d43145ac0703b25645ba2a4f5f7fdd68b5af2825dadaba","confirmations":109,"blocktime":1541083488}