{"hex":"010000001ea2c25b010000000000000000000000000000000000000000000000000000000000000000ffffffff04014d0101ffffffff0100000000000000001976a9143fd2ca377429a39edad9ce020dd5ca86d7d0902f88ac00000000","txid":"a1678c709868ffd0fbc4a64ecfe0dd674a0555fbd7fdc25f2888973af3250b48","version":1,"time":1539482142,"locktime":0,"vin":[{"coinbase":"014d0101","sequence":4294967295}],"vout":[{"value":0,"n":0,"scriptPubKey":{"asm":"OP_DUP OP_HASH160 3fd2ca377429a39edad9ce020dd5ca86d7d0902f OP_EQUALVERIFY OP_CHECKSIG","reqSigs":1,"type":"pubkeyhash","addresses":["pBN3HjKaK8ZDrJvSkVeJbnYgtm4n7bW7wA"]}}],"blockhash":"00000ce011c380c0ba8009b5d6fdb7bd18ca32fd79c1054221a26af108ebfff7","confirmations":82,"blocktime":1539482142}