{"hex":"010000004016d75b01c727f0f3fbf6f97cdff65b0b21d03ecbb3766794800343f81925b9e86340a96d0100000048473044022010933a866d7dd510b6bbd0da03f0dbd4ef2d5f64755422d5896d020d3fd54d2002201397f04a3d3547d0243f68d51e1559d82a3fd5d9264c02cd7d54736fb2a1e9c001ffffffff0300000000000000000030bba1d1010000002321020b1cd26fc4b9f080aea1cf7b667efd5e8453f70429056589831fa7f63506ddbfac0e670000000000001976a914647e9b327f6e6cc3bcd2b98cb8a85fc3160d6a4588ac00000000","txid":"2243e26da99897adef04fbdb0f324c1f05b181101075e9c8fcec9f32e55a9eff","version":1,"time":1540822592,"locktime":0,"vin":[{"txid":"6da94063e8b92519f8430380946776b3cb3ed0210b5bf6df7cf9f6fbf3f027c7","vout":1,"scriptSig":{"asm":"3044022010933a866d7dd510b6bbd0da03f0dbd4ef2d5f64755422d5896d020d3fd54d2002201397f04a3d3547d0243f68d51e1559d82a3fd5d9264c02cd7d54736fb2a1e9c001","hex":"473044022010933a866d7dd510b6bbd0da03f0dbd4ef2d5f64755422d5896d020d3fd54d2002201397f04a3d3547d0243f68d51e1559d82a3fd5d9264c02cd7d54736fb2a1e9c001"},"sequence":4294967295}],"vout":[{"value":0,"n":0,"scriptPubKey":{"asm":"","type":"nonstandard"}},{"value":78.12004656,"n":1,"scriptPubKey":{"asm":"020b1cd26fc4b9f080aea1cf7b667efd5e8453f70429056589831fa7f63506ddbf OP_CHECKSIG","reqSigs":1,"type":"pubkey","addresses":["pECTDpfW4nW8hYte3f3F9ZQxwgWmBwmcYL"]}},{"value":0.00026382,"n":2,"scriptPubKey":{"asm":"OP_DUP OP_HASH160 647e9b327f6e6cc3bcd2b98cb8a85fc3160d6a45 OP_EQUALVERIFY OP_CHECKSIG","reqSigs":1,"type":"pubkeyhash","addresses":["pEhwSeKiP8Q9UV5H4Vwts61nBy8VHfUUbd"]}}],"blockhash":"ce2c31679cb30587f7e7f562924118a1c0e2f7294e245d1d191b3f1dd324ad39","confirmations":199,"blocktime":1540822592}