{"hex":"010000003516d75b01d0bcd7f84903f40d842051274d32cad98b74158deff9e9af2f2b8b07c57e9beb010000006a473044022001f89f4e3af499eeaea6c14dc50b2b0cfc9730d57a4c31ceba3766b0a14c1778022022d18b14920512be850beb695fa3a696a5c8481d2dfb0c2a393e4a2dff34e0400121039e62604d3ea98a63d3da8d4f8a5fce5a1c74383873c7557aa5736187e61c9f7dffffffff02082c1100000000001976a9141db14f0e77818dbced65f010187668ea38e153ae88acb49dd901000000001976a914289b894188cc593421708e7e8977bf2237716adf88ac00000000","txid":"3b8b1715c8aa5da2f5135289fcec5ea6cc0e71d57c6671a0b8707ff21c33122c","version":1,"time":1540822592,"locktime":0,"vin":[{"txid":"eb9b7ec5078b2b2fafe9f9ef8d15748bd9ca324d275120840df40349f8d7bcd0","vout":1,"scriptSig":{"asm":"3044022001f89f4e3af499eeaea6c14dc50b2b0cfc9730d57a4c31ceba3766b0a14c1778022022d18b14920512be850beb695fa3a696a5c8481d2dfb0c2a393e4a2dff34e04001 039e62604d3ea98a63d3da8d4f8a5fce5a1c74383873c7557aa5736187e61c9f7d","hex":"473044022001f89f4e3af499eeaea6c14dc50b2b0cfc9730d57a4c31ceba3766b0a14c1778022022d18b14920512be850beb695fa3a696a5c8481d2dfb0c2a393e4a2dff34e0400121039e62604d3ea98a63d3da8d4f8a5fce5a1c74383873c7557aa5736187e61c9f7d"},"sequence":4294967295}],"vout":[{"value":0.01125384,"n":0,"scriptPubKey":{"asm":"OP_DUP OP_HASH160 1db14f0e77818dbced65f010187668ea38e153ae OP_EQUALVERIFY OP_CHECKSIG","reqSigs":1,"type":"pubkeyhash","addresses":["p8FaCuDLiXuxbkZgKrte5M9ixvVDeuE7Mi"]}},{"value":0.310389,"n":1,"scriptPubKey":{"asm":"OP_DUP OP_HASH160 289b894188cc593421708e7e8977bf2237716adf OP_EQUALVERIFY OP_CHECKSIG","reqSigs":1,"type":"pubkeyhash","addresses":["p9FHZDjXHPEdpVT38qcwDrz4jbvAFrUTes"]}}],"blockhash":"ce2c31679cb30587f7e7f562924118a1c0e2f7294e245d1d191b3f1dd324ad39","confirmations":199,"blocktime":1540822592}