{"hex":"01000000c088d85b015c34ca1d793d4e4553fcbf18559604945cdc336007c5fa09e3f79124d7bc0f14010000004847304402200b5d80b7517da869f858e27169a3e56b79affb8f32886cc2792f14adb8fd3a1402206198e1c3a6e8a416c0a71b7fe8594b8773cbea647774cf00c5db0cd23a921c5501ffffffff030000000000000000005c726bd3010000002321020b1cd26fc4b9f080aea1cf7b667efd5e8453f70429056589831fa7f63506ddbfac34210000000000001976a9146ee8ae815746df1e1038d51169f823db3353ab0488ac00000000","txid":"172dbc4764fd0ffeae55f103531a6bda0ec0df0d564f9699152db77b70e31da1","version":1,"time":1540917440,"locktime":0,"vin":[{"txid":"140fbcd72491f7e309fac5076033dc5c9404965518bffc53454e3d791dca345c","vout":1,"scriptSig":{"asm":"304402200b5d80b7517da869f858e27169a3e56b79affb8f32886cc2792f14adb8fd3a1402206198e1c3a6e8a416c0a71b7fe8594b8773cbea647774cf00c5db0cd23a921c5501","hex":"47304402200b5d80b7517da869f858e27169a3e56b79affb8f32886cc2792f14adb8fd3a1402206198e1c3a6e8a416c0a71b7fe8594b8773cbea647774cf00c5db0cd23a921c5501"},"sequence":4294967295}],"vout":[{"value":0,"n":0,"scriptPubKey":{"asm":"","type":"nonstandard"}},{"value":78.420015,"n":1,"scriptPubKey":{"asm":"020b1cd26fc4b9f080aea1cf7b667efd5e8453f70429056589831fa7f63506ddbf OP_CHECKSIG","reqSigs":1,"type":"pubkey","addresses":["pECTDpfW4nW8hYte3f3F9ZQxwgWmBwmcYL"]}},{"value":0.000085,"n":2,"scriptPubKey":{"asm":"OP_DUP OP_HASH160 6ee8ae815746df1e1038d51169f823db3353ab04 OP_EQUALVERIFY OP_CHECKSIG","reqSigs":1,"type":"pubkeyhash","addresses":["pFf1Gp4G6PCkSUxUY1XLwNBH2ji6sBJMC3"]}}],"blockhash":"50e8147d107b2b7db42ff4410bbc2e6d8520da1678c48563e32e7057bc2b46b8","confirmations":154,"blocktime":1540917440}