{"hex":"01000000b788d85b01628434def29e8565b6a148b39fff8a02d0a9378681783eced7b70d1fd04878fc000000006a47304402206f2c369c0c35d48c5a9d70de27cde940a6a5321450308b15a36dd9d9d729a80602200d1ee620577cebb747f552567fd42c819940d2e6497d28e7e0f3865b019cb4ec01210219083f93cc08306de6fad2e61e1d8f5a0d841acaf0cd2a3a59f68cb5e1faa023ffffffff02e0a92401000000001976a9144b44c074c1672ffb0f4b27e841de86c4fbbafdf488ac80969800000000001976a9144c28ee798243702bc4500cdb4da9004130bb47f688ac00000000","txid":"6e17790ab8830fdf68300ed9d8d7af36f06b10d7cc0cd0f297186c898dfa56e3","version":1,"time":1540917440,"locktime":0,"vin":[{"txid":"fc7848d01f0db7d7ce3e78818637a9d0028aff9fb348a1b665859ef2de348462","vout":0,"scriptSig":{"asm":"304402206f2c369c0c35d48c5a9d70de27cde940a6a5321450308b15a36dd9d9d729a80602200d1ee620577cebb747f552567fd42c819940d2e6497d28e7e0f3865b019cb4ec01 0219083f93cc08306de6fad2e61e1d8f5a0d841acaf0cd2a3a59f68cb5e1faa023","hex":"47304402206f2c369c0c35d48c5a9d70de27cde940a6a5321450308b15a36dd9d9d729a80602200d1ee620577cebb747f552567fd42c819940d2e6497d28e7e0f3865b019cb4ec01210219083f93cc08306de6fad2e61e1d8f5a0d841acaf0cd2a3a59f68cb5e1faa023"},"sequence":4294967295}],"vout":[{"value":0.1918,"n":0,"scriptPubKey":{"asm":"OP_DUP OP_HASH160 4b44c074c1672ffb0f4b27e841de86c4fbbafdf4 OP_EQUALVERIFY OP_CHECKSIG","reqSigs":1,"type":"pubkeyhash","addresses":["pCQZF3seTXsTq3qPz3aqSAu2TJKNibALNe"]}},{"value":0.1,"n":1,"scriptPubKey":{"asm":"OP_DUP OP_HASH160 4c28ee798243702bc4500cdb4da9004130bb47f6 OP_EQUALVERIFY OP_CHECKSIG","reqSigs":1,"type":"pubkeyhash","addresses":["pCVGbFvFLapGyskXvwfxG2ss21bRU9FqUh"]}}],"blockhash":"50e8147d107b2b7db42ff4410bbc2e6d8520da1678c48563e32e7057bc2b46b8","confirmations":154,"blocktime":1540917440}