{"hex":"010000001c4ad75b01133863971e8e9000c020f5cb738c2041d2745adb9d7df9887baa5d3eba613a20010000006b483045022100f4cdb9f5b98d7c663dfe5cca58d4f758d879454565abc0e89bbf0b121c83ffa202205a21c46b5dfbd84c9e090056c6ac375d11917a258702dc0e46749a5a0f562fc101210368436e780b63c1d4c04c0865d62de467dabaa2108dbb0ce8edef8f16c6f89654ffffffff0232bef901000000001976a9141455e316f79d10ec98e1bbb838a61bf748a6200988ac00e1f505000000001976a9148e44a6597bfd39a1e2f201ba2eb32206dbb585ad88ac00000000","txid":"8ae42eb7dad46d81fbf87896906bb0b70d5af2d2919947bb2e070ab9cedf6778","version":1,"time":1540835872,"locktime":0,"vin":[{"txid":"203a61ba3e5daa7b88f97d9ddb5a74d241208c73cbf520c000908e1e97633813","vout":1,"scriptSig":{"asm":"3045022100f4cdb9f5b98d7c663dfe5cca58d4f758d879454565abc0e89bbf0b121c83ffa202205a21c46b5dfbd84c9e090056c6ac375d11917a258702dc0e46749a5a0f562fc101 0368436e780b63c1d4c04c0865d62de467dabaa2108dbb0ce8edef8f16c6f89654","hex":"483045022100f4cdb9f5b98d7c663dfe5cca58d4f758d879454565abc0e89bbf0b121c83ffa202205a21c46b5dfbd84c9e090056c6ac375d11917a258702dc0e46749a5a0f562fc101210368436e780b63c1d4c04c0865d62de467dabaa2108dbb0ce8edef8f16c6f89654"},"sequence":4294967295}],"vout":[{"value":0.3314437,"n":0,"scriptPubKey":{"asm":"OP_DUP OP_HASH160 1455e316f79d10ec98e1bbb838a61bf748a62009 OP_EQUALVERIFY OP_CHECKSIG","reqSigs":1,"type":"pubkeyhash","addresses":["p7Q6c5cWz1R9m8AZYCqRZNFy9A4WyYKMHs"]}},{"value":1,"n":1,"scriptPubKey":{"asm":"OP_DUP OP_HASH160 8e44a6597bfd39a1e2f201ba2eb32206dbb585ad OP_EQUALVERIFY OP_CHECKSIG","reqSigs":1,"type":"pubkeyhash","addresses":["pJWpPpMxyuVJSMquh1yF7Wqfo99JU5TjQD"]}}],"blockhash":"4aafba567cc1d7bafe03006e7fe3238243db97386ea3159cb390460923833b5f","confirmations":189,"blocktime":1540835872}