{"hex":"01000000204ad75b010429398c3e9b72647a167f37d372d54c41da8e1bd1545ee5d65d57d9b1d47aa20100000048473044022066f31b821e7ab9e1a4e0eedff3974c77d8e9022ff9fc1f74db370ffc84068cd10220442878a4e1d470c9263f5115bae40584b82a4bfe96501acf83b5a4376b17d22101ffffffff0300000000000000000098e3a1d1010000002321020b1cd26fc4b9f080aea1cf7b667efd5e8453f70429056589831fa7f63506ddbfac084c0100000000001976a9148e3f6e3d2f029829ca356517f18e326c94cd54cd88ac00000000","txid":"a33769e0d94d206fb50ad158f2ce2751a6c4010deb3510371da2a2445165c5b7","version":1,"time":1540835872,"locktime":0,"vin":[{"txid":"a27ad4b1d9575dd6e55e54d11b8eda414cd572d3377f167a64729b3e8c392904","vout":1,"scriptSig":{"asm":"3044022066f31b821e7ab9e1a4e0eedff3974c77d8e9022ff9fc1f74db370ffc84068cd10220442878a4e1d470c9263f5115bae40584b82a4bfe96501acf83b5a4376b17d22101","hex":"473044022066f31b821e7ab9e1a4e0eedff3974c77d8e9022ff9fc1f74db370ffc84068cd10220442878a4e1d470c9263f5115bae40584b82a4bfe96501acf83b5a4376b17d22101"},"sequence":4294967295}],"vout":[{"value":0,"n":0,"scriptPubKey":{"asm":"","type":"nonstandard"}},{"value":78.12015,"n":1,"scriptPubKey":{"asm":"020b1cd26fc4b9f080aea1cf7b667efd5e8453f70429056589831fa7f63506ddbf OP_CHECKSIG","reqSigs":1,"type":"pubkey","addresses":["pECTDpfW4nW8hYte3f3F9ZQxwgWmBwmcYL"]}},{"value":0.00085,"n":2,"scriptPubKey":{"asm":"OP_DUP OP_HASH160 8e3f6e3d2f029829ca356517f18e326c94cd54cd OP_EQUALVERIFY OP_CHECKSIG","reqSigs":1,"type":"pubkeyhash","addresses":["pJWi9BXT9hsVaAft92RNcufBy1LZGU4RtT"]}}],"blockhash":"4aafba567cc1d7bafe03006e7fe3238243db97386ea3159cb390460923833b5f","confirmations":189,"blocktime":1540835872}