{"hex":"010000003038d65b0122ed3e4b5d623c7b1b84f0d215daf6b5a844f9a2374754502025b88d9e978ed10200000049483045022100f278dacd25cc1d7cff1cca9aeb38a73db4bee98108dcbba689a2a96562fba8e302206c5d191a1da8a0b3ea09e2f0969c244f4b46f47bf3ac7a193f2af6d9e3662cba01ffffffff0400000000000000000000a9a1d1010000002321020b1cd26fc4b9f080aea1cf7b667efd5e8453f70429056589831fa7f63506ddbfacf0f4b0d1010000002321020b1cd26fc4b9f080aea1cf7b667efd5e8453f70429056589831fa7f63506ddbfacad350000000000001976a9144c86b0b2edcbbfcf0d0112bbb160a541568205b788ac00000000","txid":"43d1e2ee6ed0ed2ee3338d15be73294f40308eca74b7838ab8e31c661d977111","version":1,"time":1540765744,"locktime":0,"vin":[{"txid":"d18e979e8db8252050544737a2f944a8b5f6da15d2f0841b7b3c625d4b3eed22","vout":2,"scriptSig":{"asm":"3045022100f278dacd25cc1d7cff1cca9aeb38a73db4bee98108dcbba689a2a96562fba8e302206c5d191a1da8a0b3ea09e2f0969c244f4b46f47bf3ac7a193f2af6d9e3662cba01","hex":"483045022100f278dacd25cc1d7cff1cca9aeb38a73db4bee98108dcbba689a2a96562fba8e302206c5d191a1da8a0b3ea09e2f0969c244f4b46f47bf3ac7a193f2af6d9e3662cba01"},"sequence":4294967295}],"vout":[{"value":0,"n":0,"scriptPubKey":{"asm":"","type":"nonstandard"}},{"value":78.12,"n":1,"scriptPubKey":{"asm":"020b1cd26fc4b9f080aea1cf7b667efd5e8453f70429056589831fa7f63506ddbf OP_CHECKSIG","reqSigs":1,"type":"pubkey","addresses":["pECTDpfW4nW8hYte3f3F9ZQxwgWmBwmcYL"]}},{"value":78.1300248,"n":2,"scriptPubKey":{"asm":"020b1cd26fc4b9f080aea1cf7b667efd5e8453f70429056589831fa7f63506ddbf OP_CHECKSIG","reqSigs":1,"type":"pubkey","addresses":["pECTDpfW4nW8hYte3f3F9ZQxwgWmBwmcYL"]}},{"value":0.00013741,"n":3,"scriptPubKey":{"asm":"OP_DUP OP_HASH160 4c86b0b2edcbbfcf0d0112bbb160a541568205b7 OP_EQUALVERIFY OP_CHECKSIG","reqSigs":1,"type":"pubkeyhash","addresses":["pCXCuj4F9uaYHMue5Nqy3XLKdLz4U9gRoi"]}}],"blockhash":"f38660756bbe78f8c8e52d99c690b036d81a9846d7ab153cabc1c7c08cf86aba","confirmations":260,"blocktime":1540765744}