{"hex":"010000002238d65b02ec4198e37806b703c34cc1269deefa39377e0db9ac4cbacdc97dc30e786eceea000000006b483045022100c7c966a77d1836713240b52ac059b83e7d3ea09f42df443554d1fad59ed2c18a02206a2a361a87d21a4e799258884597b999fafa62055d4b47caa5fd073a7c50e302012102c189b5486dc2771cc25227f9a9c2c3715814e24db8640079b8ec7b2f4874e9d6ffffffffec4198e37806b703c34cc1269deefa39377e0db9ac4cbacdc97dc30e786eceea010000006b4830450221009164a878c1be9fa1f98567318b3d188a721eb0496f1109d622351049a05db3260220399ccdd57b2143703d9f259dc3aa20af36e041752651755fe5152dd570f243f10121030005ba3d43eb33f845883af925a247e4e057ba38d59775460a0110615b99e88dffffffff0285621300000000001976a9147497242bd11fe2ede7052da7044e209675fb284388ac50b0f600000000001976a9140668351cf102a0a8e790ac0edcf1f7dc5a19005c88ac00000000","txid":"d7259e797a378467337e554fe2d724f13f8400b4ccea94fade74f3bc2a752232","version":1,"time":1540765744,"locktime":0,"vin":[{"txid":"eace6e780ec37dc9cdba4cacb90d7e3739faee9d26c14cc303b70678e39841ec","vout":0,"scriptSig":{"asm":"3045022100c7c966a77d1836713240b52ac059b83e7d3ea09f42df443554d1fad59ed2c18a02206a2a361a87d21a4e799258884597b999fafa62055d4b47caa5fd073a7c50e30201 02c189b5486dc2771cc25227f9a9c2c3715814e24db8640079b8ec7b2f4874e9d6","hex":"483045022100c7c966a77d1836713240b52ac059b83e7d3ea09f42df443554d1fad59ed2c18a02206a2a361a87d21a4e799258884597b999fafa62055d4b47caa5fd073a7c50e302012102c189b5486dc2771cc25227f9a9c2c3715814e24db8640079b8ec7b2f4874e9d6"},"sequence":4294967295},{"txid":"eace6e780ec37dc9cdba4cacb90d7e3739faee9d26c14cc303b70678e39841ec","vout":1,"scriptSig":{"asm":"30450221009164a878c1be9fa1f98567318b3d188a721eb0496f1109d622351049a05db3260220399ccdd57b2143703d9f259dc3aa20af36e041752651755fe5152dd570f243f101 030005ba3d43eb33f845883af925a247e4e057ba38d59775460a0110615b99e88d","hex":"4830450221009164a878c1be9fa1f98567318b3d188a721eb0496f1109d622351049a05db3260220399ccdd57b2143703d9f259dc3aa20af36e041752651755fe5152dd570f243f10121030005ba3d43eb33f845883af925a247e4e057ba38d59775460a0110615b99e88d"},"sequence":4294967295}],"vout":[{"value":0.01270405,"n":0,"scriptPubKey":{"asm":"OP_DUP OP_HASH160 7497242bd11fe2ede7052da7044e209675fb2843 OP_EQUALVERIFY OP_CHECKSIG","reqSigs":1,"type":"pubkeyhash","addresses":["pGB3eSREqWQ2X4XJ3unYx2935biwBNUdc2"]}},{"value":0.16166992,"n":1,"scriptPubKey":{"asm":"OP_DUP OP_HASH160 0668351cf102a0a8e790ac0edcf1f7dc5a19005c OP_EQUALVERIFY OP_CHECKSIG","reqSigs":1,"type":"pubkeyhash","addresses":["p68T6KSHEsi3FUdHyA6vWRdVeZuCFKqicW"]}}],"blockhash":"f38660756bbe78f8c8e52d99c690b036d81a9846d7ab153cabc1c7c08cf86aba","confirmations":260,"blocktime":1540765744}