{"hex":"01000000349ec25b010000000000000000000000000000000000000000000000000000000000000000ffffffff035b0102ffffffff0100000000000000001976a9144f4aa9d828b4b96f345cd81a9af79ced1d27fa8488ac00000000","txid":"f5495b97d6681e17cc4eb69d1082ad62ff4be0c52e80f50a215157f2bfe9ccc2","version":1,"time":1539481143,"locktime":0,"vin":[{"coinbase":"5b0102","sequence":4294967295}],"vout":[{"value":0,"n":0,"scriptPubKey":{"asm":"OP_DUP OP_HASH160 4f4aa9d828b4b96f345cd81a9af79ced1d27fa84 OP_EQUALVERIFY OP_CHECKSIG","reqSigs":1,"type":"pubkeyhash","addresses":["pCmq2ZtjWpTFFBdouy7R676W6PtFkLFtJA"]}}],"blockhash":"00000964af6471eb90e41d7d05b01b5b6b6a43503ecf1003f0795fb4118689d0","confirmations":434,"blocktime":1539481143}