{"hex":"01000000cc9fc25b010000000000000000000000000000000000000000000000000000000000000000ffffffff0401160103ffffffff0100000000000000001976a914665f64cfc8688e74e998dc26da700ebefdf18fed88ac00000000","txid":"c67c193c4a6662f83c77614cc96deb033caa4fe97bbb7411ed5cf391afc88082","version":1,"time":1539481558,"locktime":0,"vin":[{"coinbase":"01160103","sequence":4294967295}],"vout":[{"value":0,"n":0,"scriptPubKey":{"asm":"OP_DUP OP_HASH160 665f64cfc8688e74e998dc26da700ebefdf18fed OP_EQUALVERIFY OP_CHECKSIG","reqSigs":1,"type":"pubkeyhash","addresses":["pEssQMDVk6sui264FTGDmrfKqHAbk5WPHa"]}}],"blockhash":"00000da535a31275106c332ef16192c31344f0f0fe31656004c4b4d9a685501d","confirmations":423,"blocktime":1539481558}