{"hex":"01000000e779e05b01e1d8569b82456ec2c46c04d45a58867a74f9327ad99e2ef72e0870a9c2993e97000000006a47304402203d8220a9b63f62a1457a44f6ebe698f8b64a227252afba2d11e9f8b98f5bc39e0220038cacbbbbdfdbe2b96beae88785800ddb1b9caf0b18b1ae05a2503e0284af3a0121029e857134122939a57279b02312e296a02bcf0cf876ddc541bd372450215dbeacffffffff02193cb329730000001976a9141a5c381bcd27f1853c13c1e565b94de663e2f54788ac18b6b43f010000001976a9148b1e7011c43a32c8a721781e04efcf3a9d98879488ac00000000","txid":"5833feeee544f6a3bf9f876264c00de7ac87642128d76c77851ec1ea3e5ca6e4","version":1,"time":1541437936,"locktime":0,"vin":[{"txid":"973e99c2a970082ef72e9ed97a32f9747a86585ad4046cc4c26e45829b56d8e1","vout":0,"scriptSig":{"asm":"304402203d8220a9b63f62a1457a44f6ebe698f8b64a227252afba2d11e9f8b98f5bc39e0220038cacbbbbdfdbe2b96beae88785800ddb1b9caf0b18b1ae05a2503e0284af3a01 029e857134122939a57279b02312e296a02bcf0cf876ddc541bd372450215dbeac","hex":"47304402203d8220a9b63f62a1457a44f6ebe698f8b64a227252afba2d11e9f8b98f5bc39e0220038cacbbbbdfdbe2b96beae88785800ddb1b9caf0b18b1ae05a2503e0284af3a0121029e857134122939a57279b02312e296a02bcf0cf876ddc541bd372450215dbeac"},"sequence":4294967295}],"vout":[{"value":4946.20851225,"n":0,"scriptPubKey":{"asm":"OP_DUP OP_HASH160 1a5c381bcd27f1853c13c1e565b94de663e2f547 OP_EQUALVERIFY OP_CHECKSIG","reqSigs":1,"type":"pubkeyhash","addresses":["p7wxFCBqJKVDJgikPfyGX7YPtivmJJHd6z"]}},{"value":53.63775,"n":1,"scriptPubKey":{"asm":"OP_DUP OP_HASH160 8b1e7011c43a32c8a721781e04efcf3a9d988794 OP_EQUALVERIFY OP_CHECKSIG","reqSigs":1,"type":"pubkeyhash","addresses":["pJEAbDuirRNXs9ZpFFuRAi5gWWbvJDfrKc"]}}],"blockhash":"76941d6e17ae8bbbb2049f8f7b437826626dd6599f341dbd3f460ec69259a99b","confirmations":28,"blocktime":1541437936}