{"hex":"01000000f079e05b01e71b8ec2361e1c71cb161ddd82a631ccd19a4fb8ea46c4a676bc7d0a0762c8bb01000000484730440220155cbb221d3c44fe1ebf3701f960fb3836e4fc270813946935623ee8fd927ea702200fa562356a8d4fdec0e03156c97d01ffb2b7a4024a467045ecb11861eb3c057a01ffffffff04000000000000000000c01871a3030000002321026ef57679057df94a5f72e9fead08857f8d7253a593b2b1feed1b68e92df4a4c5ac6da689a3030000002321026ef57679057df94a5f72e9fead08857f8d7253a593b2b1feed1b68e92df4a4c5acd1228b00000000001976a91473471adebcd697ea1dc18e8db2582a74a6bab88188ac00000000","txid":"6f6e87fe894be3da7a029e6dd4260287b9468ac76263c127508c469e8d83a71e","version":1,"time":1541437936,"locktime":0,"vin":[{"txid":"bbc862070a7dbc76a6c446eab84f9ad1cc31a682dd1d16cb711c1e36c28e1be7","vout":1,"scriptSig":{"asm":"30440220155cbb221d3c44fe1ebf3701f960fb3836e4fc270813946935623ee8fd927ea702200fa562356a8d4fdec0e03156c97d01ffb2b7a4024a467045ecb11861eb3c057a01","hex":"4730440220155cbb221d3c44fe1ebf3701f960fb3836e4fc270813946935623ee8fd927ea702200fa562356a8d4fdec0e03156c97d01ffb2b7a4024a467045ecb11861eb3c057a01"},"sequence":4294967295}],"vout":[{"value":0,"n":0,"scriptPubKey":{"asm":"","type":"nonstandard"}},{"value":156.27,"n":1,"scriptPubKey":{"asm":"026ef57679057df94a5f72e9fead08857f8d7253a593b2b1feed1b68e92df4a4c5 OP_CHECKSIG","reqSigs":1,"type":"pubkey","addresses":["p5dRZ9MeyiKDma1pAUrsmvEK4NBmmdC4ZN"]}},{"value":156.28609133,"n":2,"scriptPubKey":{"asm":"026ef57679057df94a5f72e9fead08857f8d7253a593b2b1feed1b68e92df4a4c5 OP_CHECKSIG","reqSigs":1,"type":"pubkey","addresses":["p5dRZ9MeyiKDma1pAUrsmvEK4NBmmdC4ZN"]}},{"value":0.09118417,"n":3,"scriptPubKey":{"asm":"OP_DUP OP_HASH160 73471adebcd697ea1dc18e8db2582a74a6bab881 OP_EQUALVERIFY OP_CHECKSIG","reqSigs":1,"type":"pubkeyhash","addresses":["pG476E2NDDXyKLQPSQr8zUwis1yY3UyfR9"]}}],"blockhash":"76941d6e17ae8bbbb2049f8f7b437826626dd6599f341dbd3f460ec69259a99b","confirmations":28,"blocktime":1541437936}