{"hex":"01000000e579e05b030de9754b2a27be976bd6086f9c89b4502178e99909a884cb45dde9881c5156f8000000006b4830450221008b9f0beaa8e9b65c26f32f635ecd87e9a37d9d8653033ced6e5386996de9f79102200a832993677cebf96370b983a664ad7998d1c4b3cce678c08563ffed68f16153012102d649ff4c0255f876dd3ef596f29b685114a0f114f4cf28fdd6733ec597d8607fffffffff0de9754b2a27be976bd6086f9c89b4502178e99909a884cb45dde9881c5156f8010000006a473044022050688efbfd620fb3d0760ae12fb83cba29e19ff1245701ea99d60f4336389e6602204d4db68bae9591efca0af7b510828a9d8f5b2f01e36c055c542e8db9d5373cf00121025208e3279c4463e3fd4f61eabd1d0dedbd373f419e9f91e3a32db4af447a9ffbffffffffbd664faf3aa4e469ea5a5877e4b9fd7193c65555d0c58c5a55fd4999226a92d7010000006b4830450221008ab6ac420cfcab21984bac048afafd4f6fa0f74a088290c98e4d096f56a5a17d02201cd3546a9287643be2897b680786c92fbfe1f8c087ffc1ebeec387684bace6590121032dd43d66e9f92f77d20880c294faacd816b1eea621fcc5d524c419b427c74cabffffffff0231df6e04000000001976a9141a5c381bcd27f1853c13c1e565b94de663e2f54788ac18b6b43f010000001976a914a5969f4b068c8d1ba7993527072d3ae2ae936e0588ac00000000","txid":"ad0a278e7932cdcc2293ad83ae30ef1bc262b006cfdcafbb40dc386e25371ca7","version":1,"time":1541437936,"locktime":0,"vin":[{"txid":"f856511c88e9dd45cb84a80999e9782150b4899c6f08d66b97be272a4b75e90d","vout":0,"scriptSig":{"asm":"30450221008b9f0beaa8e9b65c26f32f635ecd87e9a37d9d8653033ced6e5386996de9f79102200a832993677cebf96370b983a664ad7998d1c4b3cce678c08563ffed68f1615301 02d649ff4c0255f876dd3ef596f29b685114a0f114f4cf28fdd6733ec597d8607f","hex":"4830450221008b9f0beaa8e9b65c26f32f635ecd87e9a37d9d8653033ced6e5386996de9f79102200a832993677cebf96370b983a664ad7998d1c4b3cce678c08563ffed68f16153012102d649ff4c0255f876dd3ef596f29b685114a0f114f4cf28fdd6733ec597d8607f"},"sequence":4294967295},{"txid":"f856511c88e9dd45cb84a80999e9782150b4899c6f08d66b97be272a4b75e90d","vout":1,"scriptSig":{"asm":"3044022050688efbfd620fb3d0760ae12fb83cba29e19ff1245701ea99d60f4336389e6602204d4db68bae9591efca0af7b510828a9d8f5b2f01e36c055c542e8db9d5373cf001 025208e3279c4463e3fd4f61eabd1d0dedbd373f419e9f91e3a32db4af447a9ffb","hex":"473044022050688efbfd620fb3d0760ae12fb83cba29e19ff1245701ea99d60f4336389e6602204d4db68bae9591efca0af7b510828a9d8f5b2f01e36c055c542e8db9d5373cf00121025208e3279c4463e3fd4f61eabd1d0dedbd373f419e9f91e3a32db4af447a9ffb"},"sequence":4294967295},{"txid":"d7926a229949fd555a8cc5d05555c69371fdb9e477585aea69e4a43aaf4f66bd","vout":1,"scriptSig":{"asm":"30450221008ab6ac420cfcab21984bac048afafd4f6fa0f74a088290c98e4d096f56a5a17d02201cd3546a9287643be2897b680786c92fbfe1f8c087ffc1ebeec387684bace65901 032dd43d66e9f92f77d20880c294faacd816b1eea621fcc5d524c419b427c74cab","hex":"4830450221008ab6ac420cfcab21984bac048afafd4f6fa0f74a088290c98e4d096f56a5a17d02201cd3546a9287643be2897b680786c92fbfe1f8c087ffc1ebeec387684bace6590121032dd43d66e9f92f77d20880c294faacd816b1eea621fcc5d524c419b427c74cab"},"sequence":4294967295}],"vout":[{"value":0.74374961,"n":0,"scriptPubKey":{"asm":"OP_DUP OP_HASH160 1a5c381bcd27f1853c13c1e565b94de663e2f547 OP_EQUALVERIFY OP_CHECKSIG","reqSigs":1,"type":"pubkeyhash","addresses":["p7wxFCBqJKVDJgikPfyGX7YPtivmJJHd6z"]}},{"value":53.63775,"n":1,"scriptPubKey":{"asm":"OP_DUP OP_HASH160 a5969f4b068c8d1ba7993527072d3ae2ae936e05 OP_EQUALVERIFY OP_CHECKSIG","reqSigs":1,"type":"pubkeyhash","addresses":["pLe88mrZah5DPVwopzLJ7fhARAyZeUer9s"]}}],"blockhash":"76941d6e17ae8bbbb2049f8f7b437826626dd6599f341dbd3f460ec69259a99b","confirmations":28,"blocktime":1541437936}