{"hex":"0100000080c2d65b01fee3f747490944d14b21d8b9b7137caaefe2f1fb51a4fb458406ce03c95e18b6020000004847304402200eb34d4946eadbae47d122f758ac908109fd7f8684cb4cb74d4cbd6069fe836902203c683b852020fe16390cb415f17f6a075aa4b120d9920b454186a56f26d9be1901ffffffff030000000000000000003f35b3d1010000002321020b1cd26fc4b9f080aea1cf7b667efd5e8453f70429056589831fa7f63506ddbfac50f80c00000000001976a914b9f3d781f7d99f65d068998a288759e0a638d31288ac00000000","txid":"710eae6eb8b12b8c9804ca570acf96cf7bd95788da4edf7efba5b0ea065e79ed","version":1,"time":1540801152,"locktime":0,"vin":[{"txid":"b6185ec903ce068445fba451fbf1e2efaa7c13b7b9d8214bd144094947f7e3fe","vout":2,"scriptSig":{"asm":"304402200eb34d4946eadbae47d122f758ac908109fd7f8684cb4cb74d4cbd6069fe836902203c683b852020fe16390cb415f17f6a075aa4b120d9920b454186a56f26d9be1901","hex":"47304402200eb34d4946eadbae47d122f758ac908109fd7f8684cb4cb74d4cbd6069fe836902203c683b852020fe16390cb415f17f6a075aa4b120d9920b454186a56f26d9be1901"},"sequence":4294967295}],"vout":[{"value":0,"n":0,"scriptPubKey":{"asm":"","type":"nonstandard"}},{"value":78.13150015,"n":1,"scriptPubKey":{"asm":"020b1cd26fc4b9f080aea1cf7b667efd5e8453f70429056589831fa7f63506ddbf OP_CHECKSIG","reqSigs":1,"type":"pubkey","addresses":["pECTDpfW4nW8hYte3f3F9ZQxwgWmBwmcYL"]}},{"value":0.0085,"n":2,"scriptPubKey":{"asm":"OP_DUP OP_HASH160 b9f3d781f7d99f65d068998a288759e0a638d312 OP_EQUALVERIFY OP_CHECKSIG","reqSigs":1,"type":"pubkeyhash","addresses":["pNVoKczQ6P92yawDZejgg9H8khMTR2Sf2j"]}}],"blockhash":"9c88a7482afaa117471f85cac9c52ca07b5a95e7547989cdd8fcd8758e2c6fd4","confirmations":220,"blocktime":1540801152}