{"hex":"010000007dc2d65b02628434def29e8565b6a148b39fff8a02d0a9378681783eced7b70d1fd04878fc010000006a47304402202109805a5ae0051740ce25e59a225bdde882fedfc2180499e8237c9ae8be6f4102203d50b19a3e2e8d8264e5e162386bd057edd96277a59119cb7d78148f5ea523b6012102efd7bafb2263a3e0420ab405d6a8a8811750b32eca46abdbc4cdbc4f451be517ffffffffa31a3ff48a3ee608f590d5adb0572a117bcefe15aa97ce001f5cb9c6a6f466b0010000006b483045022100e194716355ee5e9957062d71d1a3d52aea502770bde3fe1b221ce28b079b86490220508aa5a43edb1145b76e7a778572698441c3cb3252527fed2e6e7577fc7316cd012102efd7bafb2263a3e0420ab405d6a8a8811750b32eca46abdbc4cdbc4f451be517ffffffff02c07fdc0b000000001976a914e7e6269bf56e7fd201f7857dd90dcbfe2001f99288ac00ca9a3b000000001976a914ca8cf0c64c70fef01fd509b38009c1b160b4dc0d88ac00000000","txid":"8fb686582e37b07096f5c3db3182a90369967465f47a8332a4b4e13d1eddbd49","version":1,"time":1540801152,"locktime":0,"vin":[{"txid":"fc7848d01f0db7d7ce3e78818637a9d0028aff9fb348a1b665859ef2de348462","vout":1,"scriptSig":{"asm":"304402202109805a5ae0051740ce25e59a225bdde882fedfc2180499e8237c9ae8be6f4102203d50b19a3e2e8d8264e5e162386bd057edd96277a59119cb7d78148f5ea523b601 02efd7bafb2263a3e0420ab405d6a8a8811750b32eca46abdbc4cdbc4f451be517","hex":"47304402202109805a5ae0051740ce25e59a225bdde882fedfc2180499e8237c9ae8be6f4102203d50b19a3e2e8d8264e5e162386bd057edd96277a59119cb7d78148f5ea523b6012102efd7bafb2263a3e0420ab405d6a8a8811750b32eca46abdbc4cdbc4f451be517"},"sequence":4294967295},{"txid":"b066f4a6c6b95c1f00ce97aa15fece7b112a57b0add590f508e63e8af43f1aa3","vout":1,"scriptSig":{"asm":"3045022100e194716355ee5e9957062d71d1a3d52aea502770bde3fe1b221ce28b079b86490220508aa5a43edb1145b76e7a778572698441c3cb3252527fed2e6e7577fc7316cd01 02efd7bafb2263a3e0420ab405d6a8a8811750b32eca46abdbc4cdbc4f451be517","hex":"483045022100e194716355ee5e9957062d71d1a3d52aea502770bde3fe1b221ce28b079b86490220508aa5a43edb1145b76e7a778572698441c3cb3252527fed2e6e7577fc7316cd012102efd7bafb2263a3e0420ab405d6a8a8811750b32eca46abdbc4cdbc4f451be517"},"sequence":4294967295}],"vout":[{"value":1.99,"n":0,"scriptPubKey":{"asm":"OP_DUP OP_HASH160 e7e6269bf56e7fd201f7857dd90dcbfe2001f992 OP_EQUALVERIFY OP_CHECKSIG","reqSigs":1,"type":"pubkeyhash","addresses":["pSgk1BFMhzQcmEAV2eC6zxC1o61vwbjiaJ"]}},{"value":10,"n":1,"scriptPubKey":{"asm":"OP_DUP OP_HASH160 ca8cf0c64c70fef01fd509b38009c1b160b4dc0d OP_EQUALVERIFY OP_CHECKSIG","reqSigs":1,"type":"pubkeyhash","addresses":["pQ1ZYB5wqubqWCbYt86c6WKcDPrc56j4pK"]}}],"blockhash":"9c88a7482afaa117471f85cac9c52ca07b5a95e7547989cdd8fcd8758e2c6fd4","confirmations":220,"blocktime":1540801152}