{"hex":"01000000dbb4d95b032b443a5a891b928160bbcf7c29cf7edfaea39305b3a04fd078a082557911d1f6000000006b4830450221008b7c6aef65a196bd317644a4cc280b39f600c88ffc09f53564989a45ea38e3cd022044a2a9000ee72005ab461b4dd97c17cb51720ab9dc8a5921a634f85dac0ba7da0121029e857134122939a57279b02312e296a02bcf0cf876ddc541bd372450215dbeacffffffff2b443a5a891b928160bbcf7c29cf7edfaea39305b3a04fd078a082557911d1f6010000006b4830450221009b15779e26076243ff680f3b2cc83ec7aaa16a59397dcc02cb1a3ce69cabf97202207168b15e337386dce7018dd95a532a79ae43e087d76b672cc282ee920b69c29b012103e9c3255243bd46a927028f041b201f2de36cf3a6c204602dadb148eb50a086afffffffff45c61efbbfdf061f700d613255d6724af8e80e22471dfb64f700050ca03d6c5d010000006b48304502210086019733fcc0e57c2db69d50c3c01c48c9c8a71af0340facaedb2a5bc6fb44f702207276fda74d71e251724e81dbdfaa9af70e7e8170139c56b10c3a0e14efcf870f012103bee07e6ca92642113ab38fac44921e3bad07f873f22a33b0db30e101a54512d6ffffffff02795c2100000000001976a9144c28ee798243702bc4500cdb4da9004130bb47f688accb56be00000000001976a9143eee6642507f2f48041ead435656ff0d164f7a6e88ac00000000","txid":"3ba17b0e1af0417fd939d82fe5ee1be4981092873dbde6c6cc8a987fa007a498","version":1,"time":1540994272,"locktime":0,"vin":[{"txid":"f6d111795582a078d04fa0b30593a3aedf7ecf297ccfbb6081921b895a3a442b","vout":0,"scriptSig":{"asm":"30450221008b7c6aef65a196bd317644a4cc280b39f600c88ffc09f53564989a45ea38e3cd022044a2a9000ee72005ab461b4dd97c17cb51720ab9dc8a5921a634f85dac0ba7da01 029e857134122939a57279b02312e296a02bcf0cf876ddc541bd372450215dbeac","hex":"4830450221008b7c6aef65a196bd317644a4cc280b39f600c88ffc09f53564989a45ea38e3cd022044a2a9000ee72005ab461b4dd97c17cb51720ab9dc8a5921a634f85dac0ba7da0121029e857134122939a57279b02312e296a02bcf0cf876ddc541bd372450215dbeac"},"sequence":4294967295},{"txid":"f6d111795582a078d04fa0b30593a3aedf7ecf297ccfbb6081921b895a3a442b","vout":1,"scriptSig":{"asm":"30450221009b15779e26076243ff680f3b2cc83ec7aaa16a59397dcc02cb1a3ce69cabf97202207168b15e337386dce7018dd95a532a79ae43e087d76b672cc282ee920b69c29b01 03e9c3255243bd46a927028f041b201f2de36cf3a6c204602dadb148eb50a086af","hex":"4830450221009b15779e26076243ff680f3b2cc83ec7aaa16a59397dcc02cb1a3ce69cabf97202207168b15e337386dce7018dd95a532a79ae43e087d76b672cc282ee920b69c29b012103e9c3255243bd46a927028f041b201f2de36cf3a6c204602dadb148eb50a086af"},"sequence":4294967295},{"txid":"5d6c3da00c0500f764fb1d47220ee8f84a72d65532610d701f06dfbffb1ec645","vout":1,"scriptSig":{"asm":"304502210086019733fcc0e57c2db69d50c3c01c48c9c8a71af0340facaedb2a5bc6fb44f702207276fda74d71e251724e81dbdfaa9af70e7e8170139c56b10c3a0e14efcf870f01 03bee07e6ca92642113ab38fac44921e3bad07f873f22a33b0db30e101a54512d6","hex":"48304502210086019733fcc0e57c2db69d50c3c01c48c9c8a71af0340facaedb2a5bc6fb44f702207276fda74d71e251724e81dbdfaa9af70e7e8170139c56b10c3a0e14efcf870f012103bee07e6ca92642113ab38fac44921e3bad07f873f22a33b0db30e101a54512d6"},"sequence":4294967295}],"vout":[{"value":0.02186361,"n":0,"scriptPubKey":{"asm":"OP_DUP OP_HASH160 4c28ee798243702bc4500cdb4da9004130bb47f6 OP_EQUALVERIFY OP_CHECKSIG","reqSigs":1,"type":"pubkeyhash","addresses":["pCVGbFvFLapGyskXvwfxG2ss21bRU9FqUh"]}},{"value":0.12474059,"n":1,"scriptPubKey":{"asm":"OP_DUP OP_HASH160 3eee6642507f2f48041ead435656ff0d164f7a6e OP_EQUALVERIFY OP_CHECKSIG","reqSigs":1,"type":"pubkeyhash","addresses":["pBHKgtBDuXzY2QhFqewbxv1BNxBiTaZ4w1"]}}],"blockhash":"af82a286d648a8ba0259ee11550051efbcd26384bea4d7948364b5c8dbcf2382","confirmations":144,"blocktime":1540994272}