{"hex":"01000000e0b4d95b01c02a23ee567c995d038e49406ea343df85a96bad3887dc0bfb3d4e32f486b72d010000006a47304402207cd4b8acdc9c77ccaf9997378aa5a65c7286ca2e6e2b3f3e76617083771a3cb30220148a8ea8f42387250fd36f2696a91aa79a41b393a28f69f528c80e7e13a5e5160121037080154ad035d87bbe47e967ce43ddce5951865effbdda9b3c857d929ea146c7ffffffff04000000000000000000004429353a0000002321037080154ad035d87bbe47e967ce43ddce5951865effbdda9b3c857d929ea146c7ac504b29353a0000002321037080154ad035d87bbe47e967ce43ddce5951865effbdda9b3c857d929ea146c7ac6a290000000000001976a914b9f3d781f7d99f65d068998a288759e0a638d31288ac00000000","txid":"a8abcdfa6020f1487b52c18e93b7fdef6cbe3b4f62300e9598cb2fa8dae1ad2b","version":1,"time":1540994272,"locktime":0,"vin":[{"txid":"2db786f4324e3dfb0bdc8738ad6ba985df43a36e40498e035d997c56ee232ac0","vout":1,"scriptSig":{"asm":"304402207cd4b8acdc9c77ccaf9997378aa5a65c7286ca2e6e2b3f3e76617083771a3cb30220148a8ea8f42387250fd36f2696a91aa79a41b393a28f69f528c80e7e13a5e51601 037080154ad035d87bbe47e967ce43ddce5951865effbdda9b3c857d929ea146c7","hex":"47304402207cd4b8acdc9c77ccaf9997378aa5a65c7286ca2e6e2b3f3e76617083771a3cb30220148a8ea8f42387250fd36f2696a91aa79a41b393a28f69f528c80e7e13a5e5160121037080154ad035d87bbe47e967ce43ddce5951865effbdda9b3c857d929ea146c7"},"sequence":4294967295}],"vout":[{"value":0,"n":0,"scriptPubKey":{"asm":"","type":"nonstandard"}},{"value":2500,"n":1,"scriptPubKey":{"asm":"037080154ad035d87bbe47e967ce43ddce5951865effbdda9b3c857d929ea146c7 OP_CHECKSIG","reqSigs":1,"type":"pubkey","addresses":["pEhwSeKiP8Q9UV5H4Vwts61nBy8VHfUUbd"]}},{"value":2500.00001872,"n":2,"scriptPubKey":{"asm":"037080154ad035d87bbe47e967ce43ddce5951865effbdda9b3c857d929ea146c7 OP_CHECKSIG","reqSigs":1,"type":"pubkey","addresses":["pEhwSeKiP8Q9UV5H4Vwts61nBy8VHfUUbd"]}},{"value":0.00010602,"n":3,"scriptPubKey":{"asm":"OP_DUP OP_HASH160 b9f3d781f7d99f65d068998a288759e0a638d312 OP_EQUALVERIFY OP_CHECKSIG","reqSigs":1,"type":"pubkeyhash","addresses":["pNVoKczQ6P92yawDZejgg9H8khMTR2Sf2j"]}}],"blockhash":"af82a286d648a8ba0259ee11550051efbcd26384bea4d7948364b5c8dbcf2382","confirmations":144,"blocktime":1540994272}