{"hex":"01000000c68be05b03e4a65c3eeac11e85776cd728216487ace70dc06462879fbfa3f644e5eefe3358010000006a473044022054eb5e114b0f523ac142814ad103eb8f0e0c0d15731be671202517635cb6710e02206d7d44d73f68772ad30c9cd1a2f7c63c32a9627166783bcdf2a39c2bec3bc90f012102ae2b04098ddcdacefbe556618cdc127872b80ee0c946a511d91abe9c22729558ffffffff3639485c97006165d47686430abe9bb7d6f8c9c04f86fe0742c1d2b5de5aaf5d000000006a47304402204905e6aba726912c7d2164db40b43bb18f767b117d97c7e2a5b5f541213468570220340efe564afa9635d833a667ff13be436270eae06f7268363d162ceb56e123900121032ab97a1e592f24d0fa9ebf26dce507faae73764abdb788ad181d8ee7ba700977ffffffff3639485c97006165d47686430abe9bb7d6f8c9c04f86fe0742c1d2b5de5aaf5d010000006b4830450221008dc4bc18ad5b0b353c3783a5fee23f0562984604f33767024842eb1cc65c7ffe022005bd18a392af7fcfbc100d0ac26342b624fc58205824f070eaf928a155645da4012103ff3229e0a964456515c521a5d41d201dd63f9a245800c4c0bdba887bf4b51976ffffffff0242a72300000000001976a914f4b6d762fd9e7776ef5f11f0bfa8552c33abdef588ac8bee167e020000001976a9140b4cdbba8a2bcced8faf2b03c60939cf95a60cc488ac00000000","txid":"8c855a77b0d2cac39716c4b0b528990478f292524823f29349afa9bb6c6f84cc","version":1,"time":1541442512,"locktime":0,"vin":[{"txid":"5833feeee544f6a3bf9f876264c00de7ac87642128d76c77851ec1ea3e5ca6e4","vout":1,"scriptSig":{"asm":"3044022054eb5e114b0f523ac142814ad103eb8f0e0c0d15731be671202517635cb6710e02206d7d44d73f68772ad30c9cd1a2f7c63c32a9627166783bcdf2a39c2bec3bc90f01 02ae2b04098ddcdacefbe556618cdc127872b80ee0c946a511d91abe9c22729558","hex":"473044022054eb5e114b0f523ac142814ad103eb8f0e0c0d15731be671202517635cb6710e02206d7d44d73f68772ad30c9cd1a2f7c63c32a9627166783bcdf2a39c2bec3bc90f012102ae2b04098ddcdacefbe556618cdc127872b80ee0c946a511d91abe9c22729558"},"sequence":4294967295},{"txid":"5daf5adeb5d2c14207fe864fc0c9f8d6b79bbe0a438676d4656100975c483936","vout":0,"scriptSig":{"asm":"304402204905e6aba726912c7d2164db40b43bb18f767b117d97c7e2a5b5f541213468570220340efe564afa9635d833a667ff13be436270eae06f7268363d162ceb56e1239001 032ab97a1e592f24d0fa9ebf26dce507faae73764abdb788ad181d8ee7ba700977","hex":"47304402204905e6aba726912c7d2164db40b43bb18f767b117d97c7e2a5b5f541213468570220340efe564afa9635d833a667ff13be436270eae06f7268363d162ceb56e123900121032ab97a1e592f24d0fa9ebf26dce507faae73764abdb788ad181d8ee7ba700977"},"sequence":4294967295},{"txid":"5daf5adeb5d2c14207fe864fc0c9f8d6b79bbe0a438676d4656100975c483936","vout":1,"scriptSig":{"asm":"30450221008dc4bc18ad5b0b353c3783a5fee23f0562984604f33767024842eb1cc65c7ffe022005bd18a392af7fcfbc100d0ac26342b624fc58205824f070eaf928a155645da401 03ff3229e0a964456515c521a5d41d201dd63f9a245800c4c0bdba887bf4b51976","hex":"4830450221008dc4bc18ad5b0b353c3783a5fee23f0562984604f33767024842eb1cc65c7ffe022005bd18a392af7fcfbc100d0ac26342b624fc58205824f070eaf928a155645da4012103ff3229e0a964456515c521a5d41d201dd63f9a245800c4c0bdba887bf4b51976"},"sequence":4294967295}],"vout":[{"value":0.02336578,"n":0,"scriptPubKey":{"asm":"OP_DUP OP_HASH160 f4b6d762fd9e7776ef5f11f0bfa8552c33abdef5 OP_EQUALVERIFY OP_CHECKSIG","reqSigs":1,"type":"pubkeyhash","addresses":["pTrW7YymvrFddb5yeF9vb6krZVSXVm6Mt8"]}},{"value":107.05366667,"n":1,"scriptPubKey":{"asm":"OP_DUP OP_HASH160 0b4cdbba8a2bcced8faf2b03c60939cf95a60cc4 OP_EQUALVERIFY OP_CHECKSIG","reqSigs":1,"type":"pubkeyhash","addresses":["p6aKi2QUGxB5tK1UDVX3Nior3vk7MHBcVg"]}}],"blockhash":"19c26a2122d01f64536a91331f64b9852a5878cf2feed2b27509ca9d92842bbe","confirmations":19,"blocktime":1541442512}