{"hex":"01000000d08be05b0106633b883cd72d7c91b43758aeb58be19ea8894d1380a16c5ec152db8148ca27010000004847304402201ecb13f29d62bb46110054b40ab9ff2664cf5096d06df9fc34f8eb3d7216b30702201c68b5435b2605ae2bbd008293cf9efa249df9c3361c9f9328dcf6a5dc5fa74f01ffffffff03000000000000000000b6ea3a0a00000000232103ded637fb2e1237df3883677d705f85a97ed346e525b021a0c91a13b35307eb36ac29d98a00000000001976a914a539c7c64804ba10293866c3433100eabbe41ccf88ac00000000","txid":"fdeca88275bd23234b37e1e80a0265bc99cfccbd7b75f2b41323dfd8f4ee1e90","version":1,"time":1541442512,"locktime":0,"vin":[{"txid":"27ca4881db52c15e6ca180134d89a89ee18bb5ae5837b4917c2dd73c883b6306","vout":1,"scriptSig":{"asm":"304402201ecb13f29d62bb46110054b40ab9ff2664cf5096d06df9fc34f8eb3d7216b30702201c68b5435b2605ae2bbd008293cf9efa249df9c3361c9f9328dcf6a5dc5fa74f01","hex":"47304402201ecb13f29d62bb46110054b40ab9ff2664cf5096d06df9fc34f8eb3d7216b30702201c68b5435b2605ae2bbd008293cf9efa249df9c3361c9f9328dcf6a5dc5fa74f01"},"sequence":4294967295}],"vout":[{"value":0,"n":0,"scriptPubKey":{"asm":"","type":"nonstandard"}},{"value":1.71633334,"n":1,"scriptPubKey":{"asm":"03ded637fb2e1237df3883677d705f85a97ed346e525b021a0c91a13b35307eb36 OP_CHECKSIG","reqSigs":1,"type":"pubkey","addresses":["pKPGpRbrLFtB8pJLBr7nVTxsjHpfbwG83K"]}},{"value":0.09099561,"n":2,"scriptPubKey":{"asm":"OP_DUP OP_HASH160 a539c7c64804ba10293866c3433100eabbe41ccf OP_EQUALVERIFY OP_CHECKSIG","reqSigs":1,"type":"pubkeyhash","addresses":["pLcCv1RBNEWf4q17fiPMGMYqeFUvP9a826"]}}],"blockhash":"19c26a2122d01f64536a91331f64b9852a5878cf2feed2b27509ca9d92842bbe","confirmations":19,"blocktime":1541442512}