{"hex":"01000000ea76d85b0211db21b264e82a76528eb80096888d0bd53045f078e6130a3fa83a6b4a800185000000006a47304402200e5c9995efa6e1024a064c4d79398c6bd989351fc050c47cd6ba988564e9c79702207dba34df4d2ecd91fc7d9b01204396dac3dbfb15a0cb4fc7d82e9c4b8f7b0b1501210375e3f374cb2e9b4efc503628c9fc6fd798aa62ef452abd40a01cb9a3ba4de929ffffffff11db21b264e82a76528eb80096888d0bd53045f078e6130a3fa83a6b4a800185010000006a47304402205cb025ac4547d1176cc710934feb2a1add0d74d4ca0a8fb7258578028f32c6b102205b65e7cb80fb4e8ed3c6a868e7b224697f0f80511317ba8508dec9c6bc29255b0121031f2dceb42466415516807e849bb659799b9f8734517bbf5edd9b6619ae0ea3a6ffffffff02e4851e00000000001976a914fa2044c5b5624f10844652351d9b19629fd3ea1d88ac5d127f00000000001976a914f310f8b4ae9b2fd2862a3442bfbf046b50eaf5f788ac00000000","txid":"6454dfa0f2540603bba0e41ab0d2b21c2ee5d8c5fcf9575b61c5ae805f2bd494","version":1,"time":1540912880,"locktime":0,"vin":[{"txid":"8501804a6b3aa83f0a13e678f04530d50b8d889600b88e52762ae864b221db11","vout":0,"scriptSig":{"asm":"304402200e5c9995efa6e1024a064c4d79398c6bd989351fc050c47cd6ba988564e9c79702207dba34df4d2ecd91fc7d9b01204396dac3dbfb15a0cb4fc7d82e9c4b8f7b0b1501 0375e3f374cb2e9b4efc503628c9fc6fd798aa62ef452abd40a01cb9a3ba4de929","hex":"47304402200e5c9995efa6e1024a064c4d79398c6bd989351fc050c47cd6ba988564e9c79702207dba34df4d2ecd91fc7d9b01204396dac3dbfb15a0cb4fc7d82e9c4b8f7b0b1501210375e3f374cb2e9b4efc503628c9fc6fd798aa62ef452abd40a01cb9a3ba4de929"},"sequence":4294967295},{"txid":"8501804a6b3aa83f0a13e678f04530d50b8d889600b88e52762ae864b221db11","vout":1,"scriptSig":{"asm":"304402205cb025ac4547d1176cc710934feb2a1add0d74d4ca0a8fb7258578028f32c6b102205b65e7cb80fb4e8ed3c6a868e7b224697f0f80511317ba8508dec9c6bc29255b01 031f2dceb42466415516807e849bb659799b9f8734517bbf5edd9b6619ae0ea3a6","hex":"47304402205cb025ac4547d1176cc710934feb2a1add0d74d4ca0a8fb7258578028f32c6b102205b65e7cb80fb4e8ed3c6a868e7b224697f0f80511317ba8508dec9c6bc29255b0121031f2dceb42466415516807e849bb659799b9f8734517bbf5edd9b6619ae0ea3a6"},"sequence":4294967295}],"vout":[{"value":0.02000356,"n":0,"scriptPubKey":{"asm":"OP_DUP OP_HASH160 fa2044c5b5624f10844652351d9b19629fd3ea1d OP_EQUALVERIFY OP_CHECKSIG","reqSigs":1,"type":"pubkeyhash","addresses":["pUM7njACNuxb4RzcgkR2uXD5CGyJKDUHz7"]}},{"value":0.08327773,"n":1,"scriptPubKey":{"asm":"OP_DUP OP_HASH160 f310f8b4ae9b2fd2862a3442bfbf046b50eaf5f7 OP_EQUALVERIFY OP_CHECKSIG","reqSigs":1,"type":"pubkeyhash","addresses":["pThnjXBxfHt3Pkrb45PKA1QuBbQZzzvfUt"]}}],"blockhash":"705d4b5eaacaa98728a19f8af65ae0cb805390ed7c108156b26b704796362d73","confirmations":162,"blocktime":1540912880}