{"hex":"01000000f076d85b01d95f67b26248c1036a4dfd66ce20fa9dc664ee487ea052cf20c865cab30d221f010000004847304402206902dfaf1eae5b446942ab37127a8e585da9c9ebc077e3c2d52f9f29f6e11b8202205b6b46c21e85103c00ed6d9db8c1aeed96b3b2a6d2ab922d354a3ccf170fdfaa01ffffffff03000000000000000000026fb1d1010000002321020b1cd26fc4b9f080aea1cf7b667efd5e8453f70429056589831fa7f63506ddbfaca51b0000000000001976a9140383cbf635d4aaab0b3af12f3877f122911d227188ac00000000","txid":"c609e1f2c054de827168997f5d5f98f14fc9493b4d90c232af6c440d1ceb0a86","version":1,"time":1540912880,"locktime":0,"vin":[{"txid":"1f220db3ca65c820cf52a07e48ee64c69dfa20ce66fd4d6a03c14862b2675fd9","vout":1,"scriptSig":{"asm":"304402206902dfaf1eae5b446942ab37127a8e585da9c9ebc077e3c2d52f9f29f6e11b8202205b6b46c21e85103c00ed6d9db8c1aeed96b3b2a6d2ab922d354a3ccf170fdfaa01","hex":"47304402206902dfaf1eae5b446942ab37127a8e585da9c9ebc077e3c2d52f9f29f6e11b8202205b6b46c21e85103c00ed6d9db8c1aeed96b3b2a6d2ab922d354a3ccf170fdfaa01"},"sequence":4294967295}],"vout":[{"value":0,"n":0,"scriptPubKey":{"asm":"","type":"nonstandard"}},{"value":78.1303373,"n":1,"scriptPubKey":{"asm":"020b1cd26fc4b9f080aea1cf7b667efd5e8453f70429056589831fa7f63506ddbf OP_CHECKSIG","reqSigs":1,"type":"pubkey","addresses":["pECTDpfW4nW8hYte3f3F9ZQxwgWmBwmcYL"]}},{"value":0.00007077,"n":2,"scriptPubKey":{"asm":"OP_DUP OP_HASH160 0383cbf635d4aaab0b3af12f3877f122911d2271 OP_EQUALVERIFY OP_CHECKSIG","reqSigs":1,"type":"pubkeyhash","addresses":["p5sA7gHHpq5pfbFUafcJM8oF4ZCvf3vkks"]}}],"blockhash":"705d4b5eaacaa98728a19f8af65ae0cb805390ed7c108156b26b704796362d73","confirmations":162,"blocktime":1540912880}