{"hex":"010000005036d65b01035ce783562848b4c626ffe1e262201ed1454ca4e6fb17bf857204f0bda8e7d1020000004847304402201c792b0e2e98f224136005512fc697181b940d4237b9d2d6d2ea3af3cb9edd59022043ccf6e7cc04c477e86fefc78c1ba76e807cffe684a83084c0b4787c5cd158d501ffffffff0400000000000000000000a9a1d1010000002321020b1cd26fc4b9f080aea1cf7b667efd5e8453f70429056589831fa7f63506ddbfac71f5b0d1010000002321020b1cd26fc4b9f080aea1cf7b667efd5e8453f70429056589831fa7f63506ddbfacad350000000000001976a914868614ec264fbcc17e0fe25b544f0740a29a3ffa88ac00000000","txid":"287bf70638ec11f8a6a058a99fa3d5d5ec4dc835446c1f7a0e2229336bae2380","version":1,"time":1540765264,"locktime":0,"vin":[{"txid":"d1e7a8bdf0047285bf17fbe6a44c45d11e2062e2e1ff26c6b448285683e75c03","vout":2,"scriptSig":{"asm":"304402201c792b0e2e98f224136005512fc697181b940d4237b9d2d6d2ea3af3cb9edd59022043ccf6e7cc04c477e86fefc78c1ba76e807cffe684a83084c0b4787c5cd158d501","hex":"47304402201c792b0e2e98f224136005512fc697181b940d4237b9d2d6d2ea3af3cb9edd59022043ccf6e7cc04c477e86fefc78c1ba76e807cffe684a83084c0b4787c5cd158d501"},"sequence":4294967295}],"vout":[{"value":0,"n":0,"scriptPubKey":{"asm":"","type":"nonstandard"}},{"value":78.12,"n":1,"scriptPubKey":{"asm":"020b1cd26fc4b9f080aea1cf7b667efd5e8453f70429056589831fa7f63506ddbf OP_CHECKSIG","reqSigs":1,"type":"pubkey","addresses":["pECTDpfW4nW8hYte3f3F9ZQxwgWmBwmcYL"]}},{"value":78.13002609,"n":2,"scriptPubKey":{"asm":"020b1cd26fc4b9f080aea1cf7b667efd5e8453f70429056589831fa7f63506ddbf OP_CHECKSIG","reqSigs":1,"type":"pubkey","addresses":["pECTDpfW4nW8hYte3f3F9ZQxwgWmBwmcYL"]}},{"value":0.00013741,"n":3,"scriptPubKey":{"asm":"OP_DUP OP_HASH160 868614ec264fbcc17e0fe25b544f0740a29a3ffa OP_EQUALVERIFY OP_CHECKSIG","reqSigs":1,"type":"pubkeyhash","addresses":["pHosNaAavGxjBXaJVQnyrJDcTKDMVqKujz"]}}],"blockhash":"8e48bb975d0d2b2ff768a3a3041aa199a18849df1a505e203255853ab2fcc9ae","confirmations":262,"blocktime":1540765264}