{"hex":"010000004c36d65b016df975c064e591380e4fd1c9cd93150190c6977d91335a07a40ca119ccce88e5030000006b483045022100f4ad172acda629e3f042fe0d1fb44c2e5ddf61859d7d77c6b793c4b207d3b376022078ed1a8c5a9d5a2d54f4bb25b55ad35480637af04ddf4a848ad40cd0cbc1ecee0121029e857134122939a57279b02312e296a02bcf0cf876ddc541bd372450215dbeacffffffff020a0f2b09000000001976a9147497242bd11fe2ede7052da7044e209675fb284388ac50b0f600000000001976a9140668351cf102a0a8e790ac0edcf1f7dc5a19005c88ac00000000","txid":"f14961661e816e551b3ab9cfbe229f76ee96a8778504feb7644840957990a5f5","version":1,"time":1540765264,"locktime":0,"vin":[{"txid":"e588cecc19a10ca4075a33917d97c690011593cdc9d14f0e3891e564c075f96d","vout":3,"scriptSig":{"asm":"3045022100f4ad172acda629e3f042fe0d1fb44c2e5ddf61859d7d77c6b793c4b207d3b376022078ed1a8c5a9d5a2d54f4bb25b55ad35480637af04ddf4a848ad40cd0cbc1ecee01 029e857134122939a57279b02312e296a02bcf0cf876ddc541bd372450215dbeac","hex":"483045022100f4ad172acda629e3f042fe0d1fb44c2e5ddf61859d7d77c6b793c4b207d3b376022078ed1a8c5a9d5a2d54f4bb25b55ad35480637af04ddf4a848ad40cd0cbc1ecee0121029e857134122939a57279b02312e296a02bcf0cf876ddc541bd372450215dbeac"},"sequence":4294967295}],"vout":[{"value":1.53816842,"n":0,"scriptPubKey":{"asm":"OP_DUP OP_HASH160 7497242bd11fe2ede7052da7044e209675fb2843 OP_EQUALVERIFY OP_CHECKSIG","reqSigs":1,"type":"pubkeyhash","addresses":["pGB3eSREqWQ2X4XJ3unYx2935biwBNUdc2"]}},{"value":0.16166992,"n":1,"scriptPubKey":{"asm":"OP_DUP OP_HASH160 0668351cf102a0a8e790ac0edcf1f7dc5a19005c OP_EQUALVERIFY OP_CHECKSIG","reqSigs":1,"type":"pubkeyhash","addresses":["p68T6KSHEsi3FUdHyA6vWRdVeZuCFKqicW"]}}],"blockhash":"8e48bb975d0d2b2ff768a3a3041aa199a18849df1a505e203255853ab2fcc9ae","confirmations":262,"blocktime":1540765264}