{"hex":"010000000a6bdc5b0128a3c4252bf1551f5b1cdd95f57ff1fca5922814eb3a86996c25ed8d5361cdcf010000006b483045022100cbba9a67ecba6db6484a8873dd360b2bf83b1c4734a732a814db4b9055fecc7f0220404a4264da498d9ad447d54c3c3c261c6dc043d3748a2df21d3ac218e7387a5f0121033276d79c4cc94a68c99fa25ebfea71fd3b792ad0112c0fa5b1026757ab17bdefffffffff02aa384900000000001976a914a733ca87304be4e5c966241a84902b61b70ae48388acab1fb201000000001976a91445104d5eeb933585e6dd7e537d2c127a1628856788ac00000000","txid":"20daf0dcc1755f7ba7cb55c26298653cd4dfa199c4e0b8b95718263762a6abe3","version":1,"time":1541171984,"locktime":0,"vin":[{"txid":"cfcd61538ded256c99863aeb142892a5fcf17ff595dd1c5b1f55f12b25c4a328","vout":1,"scriptSig":{"asm":"3045022100cbba9a67ecba6db6484a8873dd360b2bf83b1c4734a732a814db4b9055fecc7f0220404a4264da498d9ad447d54c3c3c261c6dc043d3748a2df21d3ac218e7387a5f01 033276d79c4cc94a68c99fa25ebfea71fd3b792ad0112c0fa5b1026757ab17bdef","hex":"483045022100cbba9a67ecba6db6484a8873dd360b2bf83b1c4734a732a814db4b9055fecc7f0220404a4264da498d9ad447d54c3c3c261c6dc043d3748a2df21d3ac218e7387a5f0121033276d79c4cc94a68c99fa25ebfea71fd3b792ad0112c0fa5b1026757ab17bdef"},"sequence":4294967295}],"vout":[{"value":0.04798634,"n":0,"scriptPubKey":{"asm":"OP_DUP OP_HASH160 a733ca87304be4e5c966241a84902b61b70ae483 OP_EQUALVERIFY OP_CHECKSIG","reqSigs":1,"type":"pubkeyhash","addresses":["pLnf6FYy6ZCpnbU3s48WqAe5pQpUA5kgRs"]}},{"value":0.28450731,"n":1,"scriptPubKey":{"asm":"OP_DUP OP_HASH160 45104d5eeb933585e6dd7e537d2c127a16288567 OP_EQUALVERIFY OP_CHECKSIG","reqSigs":1,"type":"pubkeyhash","addresses":["pBqkMe7HWhSrTAZjvL5QpQVQzg5sTVTCnr"]}}],"blockhash":"869dbc0d0405c15900de422562c7f6d5f6fff9c2157d032e579809761ac249b2","confirmations":75,"blocktime":1541171984}