{"hex":"01000000106bdc5b01083142b24ecd913e2a9307aefd05b2d1add7a74209f480e789d44663317fe3ab0200000049483045022100a86a8afb237eac16154c83b723598defcb6e5daa4bb7f3fddf6b5b2cb4e3c85802203546e07eff7b0c4906482e538af1877eb1cbbaf99dc70b07a58e2110726cdf4801ffffffff04000000000000000000005a878d0e000000232103670be5afe77a215b42f2bc4bd7c1c5049117430d8e81c1de5c44e9ab4c566689ac81b6888d0e000000232103670be5afe77a215b42f2bc4bd7c1c5049117430d8e81c1de5c44e9ab4c566689ac765e0000000000001976a914b281632e032cac99462bf7779521442a307c52a088ac00000000","txid":"88f2d0a1c2f3ff23583c7af25e4b9ef2ff47fbf6ee99ad8212b7c4f3928800ad","version":1,"time":1541171984,"locktime":0,"vin":[{"txid":"abe37f316346d489e780f40942a7d7add1b205fdae07932a3e91cd4eb2423108","vout":2,"scriptSig":{"asm":"3045022100a86a8afb237eac16154c83b723598defcb6e5daa4bb7f3fddf6b5b2cb4e3c85802203546e07eff7b0c4906482e538af1877eb1cbbaf99dc70b07a58e2110726cdf4801","hex":"483045022100a86a8afb237eac16154c83b723598defcb6e5daa4bb7f3fddf6b5b2cb4e3c85802203546e07eff7b0c4906482e538af1877eb1cbbaf99dc70b07a58e2110726cdf4801"},"sequence":4294967295}],"vout":[{"value":0,"n":0,"scriptPubKey":{"asm":"","type":"nonstandard"}},{"value":625.04,"n":1,"scriptPubKey":{"asm":"03670be5afe77a215b42f2bc4bd7c1c5049117430d8e81c1de5c44e9ab4c566689 OP_CHECKSIG","reqSigs":1,"type":"pubkey","addresses":["pRVJAmbxV6TyzWMNW1oNoV1k3zM77bZrBx"]}},{"value":625.04089217,"n":2,"scriptPubKey":{"asm":"03670be5afe77a215b42f2bc4bd7c1c5049117430d8e81c1de5c44e9ab4c566689 OP_CHECKSIG","reqSigs":1,"type":"pubkey","addresses":["pRVJAmbxV6TyzWMNW1oNoV1k3zM77bZrBx"]}},{"value":0.00024182,"n":3,"scriptPubKey":{"asm":"OP_DUP OP_HASH160 b281632e032cac99462bf7779521442a307c52a0 OP_EQUALVERIFY OP_CHECKSIG","reqSigs":1,"type":"pubkeyhash","addresses":["pMpRUr5SqF4SLREGfNjMyHwaGCi3EHeLR1"]}}],"blockhash":"869dbc0d0405c15900de422562c7f6d5f6fff9c2157d032e579809761ac249b2","confirmations":75,"blocktime":1541171984}