{"hex":"01000000bd5cc35b010720bf23667ff67a36250a5014069e846e782176a701f3ddc79f1503c3983479000000006a4730440220645eefb2b392236ad0628082d706925e8af90e6b7c33a46a24f088c656d9463c022006ac926ff732479c7a6c6ae5d34d9c1096a225d09fb7bbfcf8aa85b364786acf0121036935d4c8e370083b232686360c462af086c0650fc939a0818b8546155715f548ffffffff02009eb20ac17923001976a9146e0610b32a59084b919e37b3465558c52279307788ac0088526a740000001976a914f644d7bb2dad64400ad72ff27a1b98cf981fdd7e88ac00000000","txid":"85841af337bf045a3dfe1521bb62050dacee5e892ff6c2e333d2e1fca616a430","version":1,"time":1539529920,"locktime":0,"vin":[{"txid":"793498c303159fc7ddf301a77621786e849e0614500a25367af67f6623bf2007","vout":0,"scriptSig":{"asm":"30440220645eefb2b392236ad0628082d706925e8af90e6b7c33a46a24f088c656d9463c022006ac926ff732479c7a6c6ae5d34d9c1096a225d09fb7bbfcf8aa85b364786acf01 036935d4c8e370083b232686360c462af086c0650fc939a0818b8546155715f548","hex":"4730440220645eefb2b392236ad0628082d706925e8af90e6b7c33a46a24f088c656d9463c022006ac926ff732479c7a6c6ae5d34d9c1096a225d09fb7bbfcf8aa85b364786acf0121036935d4c8e370083b232686360c462af086c0650fc939a0818b8546155715f548"},"sequence":4294967295}],"vout":[{"value":99854942,"n":0,"scriptPubKey":{"asm":"OP_DUP OP_HASH160 6e0610b32a59084b919e37b3465558c522793077 OP_EQUALVERIFY OP_CHECKSIG","reqSigs":1,"type":"pubkeyhash","addresses":["pFaKoE6xuZ2GoY4GHNoBDmqtpnzvUnmTAm"]}},{"value":5000,"n":1,"scriptPubKey":{"asm":"OP_DUP OP_HASH160 f644d7bb2dad64400ad72ff27a1b98cf981fdd7e OP_EQUALVERIFY OP_CHECKSIG","reqSigs":1,"type":"pubkeyhash","addresses":["pTziuAqinUjYFVy6Da9fmDBWUTdPjXTj23"]}}],"blockhash":"f9f3e266a750dc0013491e93501699585dc1127e9eab7bcf29d067094d6a6fda","confirmations":323,"blocktime":1539529920}