{"hex":"01000000c05cc35b01286a8042d736fef95c078b55ca55123377c01cbdc3a731bcc55ba63e353104a1010000004948304502210095e82837ba041018ff6e52249c7be54b66f3d744cf2c4b8be970d25d9c378bae0220622c105ebec4642d9cad5d0fada8218f79c9dce663953ca952b0e962fd152a6301ffffffff04000000000000000000806750480700000023210348b24f77eda58d2bf0bd56f764cfdeb0100d2f1058b2d5318f2f2fc9670e730eac806750480700000023210348b24f77eda58d2bf0bd56f764cfdeb0100d2f1058b2d5318f2f2fc9670e730eac80fe210a000000001976a9144c28ee798243702bc4500cdb4da9004130bb47f688ac00000000","txid":"e588cecc19a10ca4075a33917d97c690011593cdc9d14f0e3891e564c075f96d","version":1,"time":1539529920,"locktime":0,"vin":[{"txid":"a10431353ea65bc5bc31a7c3bd1cc077331255ca558b075cf9fe36d742806a28","vout":1,"scriptSig":{"asm":"304502210095e82837ba041018ff6e52249c7be54b66f3d744cf2c4b8be970d25d9c378bae0220622c105ebec4642d9cad5d0fada8218f79c9dce663953ca952b0e962fd152a6301","hex":"48304502210095e82837ba041018ff6e52249c7be54b66f3d744cf2c4b8be970d25d9c378bae0220622c105ebec4642d9cad5d0fada8218f79c9dce663953ca952b0e962fd152a6301"},"sequence":4294967295}],"vout":[{"value":0,"n":0,"scriptPubKey":{"asm":"","type":"nonstandard"}},{"value":312.78,"n":1,"scriptPubKey":{"asm":"0348b24f77eda58d2bf0bd56f764cfdeb0100d2f1058b2d5318f2f2fc9670e730e OP_CHECKSIG","reqSigs":1,"type":"pubkey","addresses":["p8X7huKtvdnnDzc17Xcxxh1Z9ww8ckxvVJ"]}},{"value":312.78,"n":2,"scriptPubKey":{"asm":"0348b24f77eda58d2bf0bd56f764cfdeb0100d2f1058b2d5318f2f2fc9670e730e OP_CHECKSIG","reqSigs":1,"type":"pubkey","addresses":["p8X7huKtvdnnDzc17Xcxxh1Z9ww8ckxvVJ"]}},{"value":1.7,"n":3,"scriptPubKey":{"asm":"OP_DUP OP_HASH160 4c28ee798243702bc4500cdb4da9004130bb47f6 OP_EQUALVERIFY OP_CHECKSIG","reqSigs":1,"type":"pubkeyhash","addresses":["pCVGbFvFLapGyskXvwfxG2ss21bRU9FqUh"]}}],"blockhash":"f9f3e266a750dc0013491e93501699585dc1127e9eab7bcf29d067094d6a6fda","confirmations":323,"blocktime":1539529920}