{"hex":"0100000088a1c25b010000000000000000000000000000000000000000000000000000000000000000ffffffff04013b0102ffffffff0100000000000000001976a914311a4700eec8c2c2868af8c704d3a0984ac4c4ec88ac00000000","txid":"a40d6928ca4437e37b95353c341f1776e3f410d7689fac147ed112303eeb0edc","version":1,"time":1539481999,"locktime":0,"vin":[{"coinbase":"013b0102","sequence":4294967295}],"vout":[{"value":0,"n":0,"scriptPubKey":{"asm":"OP_DUP OP_HASH160 311a4700eec8c2c2868af8c704d3a0984ac4c4ec OP_EQUALVERIFY OP_CHECKSIG","reqSigs":1,"type":"pubkeyhash","addresses":["pA2CntTk84Q5BvZzjCEfUqR4vEJLAbYEfY"]}}],"blockhash":"000006cc78988882e7dc7c6107291723786aa8c323a79e4f4424410d7f6e28e0","confirmations":386,"blocktime":1539481999}