{"hex":"010000009576d85b028976249c5c13cae6ce6726c11206c1db61a995f429e5532126b5b47c9c5dce82010000006b483045022100a2f09e7790f5f6c2480c9516b6a0a2310590be5e7b3bdb0870629aa1592da4dd0220175270b0ed3bd43dfaf567512a19086d691f244f815e20d5e40cf42494976aae0121024b3cb0e17898f0964c8d10d99bdd3929d992c9968c5b8a485fdf2fca1becaa96ffffffffb5bea178e9e32a80e7a64c71d0d6e62864af0ee1a4745825bcfc90935d546c43000000006b483045022100c1ff4f0b41b2ededc2c0cfc77b27c801364b9d5e957a97b17d774ede8f73ff35022065c1534f3d4e22f5d527d7785f3d4238921c8d250bde2152de264c5d299c40bd01210262d5969c363b4e63a0ecdcea03a3253b0f1f3a9edf123daf6120f3b28e03078affffffff026ba61e00000000001976a914cf3c4af353180abbe1a446fe91e92abace50246d88ac5d127f00000000001976a91403fc5eae340db065a93558c7c90cc174fa70cd1388ac00000000","txid":"8501804a6b3aa83f0a13e678f04530d50b8d889600b88e52762ae864b221db11","version":1,"time":1540912800,"locktime":0,"vin":[{"txid":"82ce5d9c7cb4b5262153e529f495a961dbc10612c12667cee6ca135c9c247689","vout":1,"scriptSig":{"asm":"3045022100a2f09e7790f5f6c2480c9516b6a0a2310590be5e7b3bdb0870629aa1592da4dd0220175270b0ed3bd43dfaf567512a19086d691f244f815e20d5e40cf42494976aae01 024b3cb0e17898f0964c8d10d99bdd3929d992c9968c5b8a485fdf2fca1becaa96","hex":"483045022100a2f09e7790f5f6c2480c9516b6a0a2310590be5e7b3bdb0870629aa1592da4dd0220175270b0ed3bd43dfaf567512a19086d691f244f815e20d5e40cf42494976aae0121024b3cb0e17898f0964c8d10d99bdd3929d992c9968c5b8a485fdf2fca1becaa96"},"sequence":4294967295},{"txid":"436c545d9390fcbc255874a4e10eaf6428e6d6d0714ca6e7802ae3e978a1beb5","vout":0,"scriptSig":{"asm":"3045022100c1ff4f0b41b2ededc2c0cfc77b27c801364b9d5e957a97b17d774ede8f73ff35022065c1534f3d4e22f5d527d7785f3d4238921c8d250bde2152de264c5d299c40bd01 0262d5969c363b4e63a0ecdcea03a3253b0f1f3a9edf123daf6120f3b28e03078a","hex":"483045022100c1ff4f0b41b2ededc2c0cfc77b27c801364b9d5e957a97b17d774ede8f73ff35022065c1534f3d4e22f5d527d7785f3d4238921c8d250bde2152de264c5d299c40bd01210262d5969c363b4e63a0ecdcea03a3253b0f1f3a9edf123daf6120f3b28e03078a"},"sequence":4294967295}],"vout":[{"value":0.02008683,"n":0,"scriptPubKey":{"asm":"OP_DUP OP_HASH160 cf3c4af353180abbe1a446fe91e92abace50246d OP_EQUALVERIFY OP_CHECKSIG","reqSigs":1,"type":"pubkeyhash","addresses":["pQSLJdVHcD3r9n4zPyiWsyo8PahAzn4dDP"]}},{"value":0.08327773,"n":1,"scriptPubKey":{"asm":"OP_DUP OP_HASH160 03fc5eae340db065a93558c7c90cc174fa70cd13 OP_EQUALVERIFY OP_CHECKSIG","reqSigs":1,"type":"pubkeyhash","addresses":["p5ueZFBWXFgNz7m3eNF2dJKRY7ieesmZNF"]}}],"blockhash":"45d1d4144593733e36d1c05348ed2f1679908eb418a8704f03603cee5b96a7b0","confirmations":163,"blocktime":1540912800}