{"hex":"01000000a076d85b01bcf9f11f19c27380ebce86103dc5f7ec1bea3ea55f0d018e6ce9b017662af9380200000049483045022100e329eecd5cbe9b67c5758ae229f6802ec515ae19d20f5d10d2ab20fa88cf79ef022013c6e25ec3a6aa09ec06d05e70f38d464f7a5bc322dfca1486597af6f17328b701ffffffff030000000000000000005bdb95d2010000002321020b1cd26fc4b9f080aea1cf7b667efd5e8453f70429056589831fa7f63506ddbfaca51b0000000000001976a914647e9b327f6e6cc3bcd2b98cb8a85fc3160d6a4588ac00000000","txid":"df3b3c3159e972f8c9cbbb2ca738ede516fdd41a5a0eac267cfcd9bfe8f58f56","version":1,"time":1540912800,"locktime":0,"vin":[{"txid":"38f92a6617b0e96c8e010d5fa53eea1becf7c53d1086ceeb8073c2191ff1f9bc","vout":2,"scriptSig":{"asm":"3045022100e329eecd5cbe9b67c5758ae229f6802ec515ae19d20f5d10d2ab20fa88cf79ef022013c6e25ec3a6aa09ec06d05e70f38d464f7a5bc322dfca1486597af6f17328b701","hex":"483045022100e329eecd5cbe9b67c5758ae229f6802ec515ae19d20f5d10d2ab20fa88cf79ef022013c6e25ec3a6aa09ec06d05e70f38d464f7a5bc322dfca1486597af6f17328b701"},"sequence":4294967295}],"vout":[{"value":0,"n":0,"scriptPubKey":{"asm":"","type":"nonstandard"}},{"value":78.28003675,"n":1,"scriptPubKey":{"asm":"020b1cd26fc4b9f080aea1cf7b667efd5e8453f70429056589831fa7f63506ddbf OP_CHECKSIG","reqSigs":1,"type":"pubkey","addresses":["pECTDpfW4nW8hYte3f3F9ZQxwgWmBwmcYL"]}},{"value":0.00007077,"n":2,"scriptPubKey":{"asm":"OP_DUP OP_HASH160 647e9b327f6e6cc3bcd2b98cb8a85fc3160d6a45 OP_EQUALVERIFY OP_CHECKSIG","reqSigs":1,"type":"pubkeyhash","addresses":["pEhwSeKiP8Q9UV5H4Vwts61nBy8VHfUUbd"]}}],"blockhash":"45d1d4144593733e36d1c05348ed2f1679908eb418a8704f03603cee5b96a7b0","confirmations":163,"blocktime":1540912800}