{"hex":"010000002ea0c25b010000000000000000000000000000000000000000000000000000000000000000ffffffff0401200103ffffffff0100000000000000001976a9141eb29cd1db4aaa07ded07c36f3534ffde537703f88ac00000000","txid":"cf3ec46635e72d3e2c13e6ad54e2ff02a59ccdf28dceb1cea927a910478a9d30","version":1,"time":1539481655,"locktime":0,"vin":[{"coinbase":"01200103","sequence":4294967295}],"vout":[{"value":0,"n":0,"scriptPubKey":{"asm":"OP_DUP OP_HASH160 1eb29cd1db4aaa07ded07c36f3534ffde537703f OP_EQUALVERIFY OP_CHECKSIG","reqSigs":1,"type":"pubkeyhash","addresses":["p8LtSgPPMYNLMp8VCdGAttGcxy4ChMRgiX"]}}],"blockhash":"00000adbc949d908a0765b2319f390946ba416dfc0055beee11885d74762a468","confirmations":127,"blocktime":1539481655}