{"hex":"0100000017a0c25b010000000000000000000000000000000000000000000000000000000000000000ffffffff04011d0102ffffffff0100000000000000001976a914b0ffe00dfa8af3b60d75828d70bb64092426ea2088ac00000000","txid":"d7c689ca85c28a1c2500308ac140e744a98bd994174552637b731913c328fff7","version":1,"time":1539481626,"locktime":0,"vin":[{"coinbase":"011d0102","sequence":4294967295}],"vout":[{"value":0,"n":0,"scriptPubKey":{"asm":"OP_DUP OP_HASH160 b0ffe00dfa8af3b60d75828d70bb64092426ea20 OP_EQUALVERIFY OP_CHECKSIG","reqSigs":1,"type":"pubkeyhash","addresses":["pMgTezKv28mW6gHEpkhxwAwbiLbXvR9kHD"]}}],"blockhash":"0000075cdf65491e749b3a182f5b9ba3e5dabe4660819cd7723f3f6f1ef7c74d","confirmations":130,"blocktime":1539481626}