{"hex":"0100000083a0c25b0164dcd5dd763a725bbb406a34e9b52ee1bab3422de7319e51e3d6e0aeec18c2f5000000006a4730440220652d8f309c5f5a4f8713d6a355c981e2e8e48302079855d968c518b10316d6c802200952e6f99672328c7c08a01b6b7184bc71d1d7d9e8dcaba81400f10bc4ea46880121034689ca45a8c10837fea1a778036b85a707d5d8626bfbc2160f455979fe3a46b0ffffffff020022060d958523001976a9140a558001231203de66399d86ae3cf8e46df203a488ac0088526a740000001976a91472b6511e39d54265243d0762ebe9a41b4868dfe588ac00000000","txid":"7cbb841f55d53e201c7119efbf9d1e2095816bf3521ff3be7f89ab71cf6abfee","version":1,"time":1539481769,"locktime":0,"vin":[{"txid":"f5c218ecaee0d6e3519e31e72d42b3bae12eb5e9346a40bb5b723a76ddd5dc64","vout":0,"scriptSig":{"asm":"30440220652d8f309c5f5a4f8713d6a355c981e2e8e48302079855d968c518b10316d6c802200952e6f99672328c7c08a01b6b7184bc71d1d7d9e8dcaba81400f10bc4ea468801 034689ca45a8c10837fea1a778036b85a707d5d8626bfbc2160f455979fe3a46b0","hex":"4730440220652d8f309c5f5a4f8713d6a355c981e2e8e48302079855d968c518b10316d6c802200952e6f99672328c7c08a01b6b7184bc71d1d7d9e8dcaba81400f10bc4ea46880121034689ca45a8c10837fea1a778036b85a707d5d8626bfbc2160f455979fe3a46b0"},"sequence":4294967295}],"vout":[{"value":99984994,"n":0,"scriptPubKey":{"asm":"OP_DUP OP_HASH160 0a558001231203de66399d86ae3cf8e46df203a4 OP_EQUALVERIFY OP_CHECKSIG","reqSigs":1,"type":"pubkeyhash","addresses":["p6VDPGZr9P1S1iR7MhbANab9UVQNwL2kUM"]}},{"value":5000,"n":1,"scriptPubKey":{"asm":"OP_DUP OP_HASH160 72b6511e39d54265243d0762ebe9a41b4868dfe5 OP_EQUALVERIFY OP_CHECKSIG","reqSigs":1,"type":"pubkeyhash","addresses":["pG17eAwgEzq6zQQ7cLzvCMepRqGYMprwdz"]}}],"blockhash":"00000ab9d856ed74ef7932a66a9650c530290ce192b333d77547023f05040fa7","confirmations":409,"blocktime":1539481769}