{"hex":"01000000a9a0c25b010000000000000000000000000000000000000000000000000000000000000000ffffffff0401240101ffffffff0100c2eb0b000000001976a9140f2e7e9596b5588b69e75a489456b37fd48b2ec888ac00000000","txid":"863526935331aa4cedabd8272a694b40deead19365145ba2f977cc9809d0e1dc","version":1,"time":1539481769,"locktime":0,"vin":[{"coinbase":"01240101","sequence":4294967295}],"vout":[{"value":2,"n":0,"scriptPubKey":{"asm":"OP_DUP OP_HASH160 0f2e7e9596b5588b69e75a489456b37fd48b2ec8 OP_EQUALVERIFY OP_CHECKSIG","reqSigs":1,"type":"pubkeyhash","addresses":["p6vr35KwzEodbGx2Tqp8uLkcMLPNmxZhJS"]}}],"blockhash":"00000ab9d856ed74ef7932a66a9650c530290ce192b333d77547023f05040fa7","confirmations":409,"blocktime":1539481769}