{"hex":"010000003039d65b012a5699d74204e8464cfb2a5ddabc72b68510c4a078b99ae291ba5db3b0a4541a0200000049483045022100e70fcd8c6e6e3fc0f958de3b5373d73d5202f32587af54ee59911b866d9a33a902203bf68351d8298f6ea43453af69abf68449d6423980524552d2ab2a73fc6f0ba101ffffffff04000000000000000000409452a3030000002321020b1cd26fc4b9f080aea1cf7b667efd5e8453f70429056589831fa7f63506ddbfac9b9552a3030000002321020b1cd26fc4b9f080aea1cf7b667efd5e8453f70429056589831fa7f63506ddbfacf0030000000000001976a91413cd926daa0b2e1422cabca27e3cbc3aebbee60e88ac00000000","txid":"0dc2eb5687c9a9f971e556b3ca7187c2d9c1df3b49e0412778a32bbd5bef7a01","version":1,"time":1540766000,"locktime":0,"vin":[{"txid":"1a54a4b0b35dba91e29ab978a0c41085b672bcda5d2afb4c46e80442d799562a","vout":2,"scriptSig":{"asm":"3045022100e70fcd8c6e6e3fc0f958de3b5373d73d5202f32587af54ee59911b866d9a33a902203bf68351d8298f6ea43453af69abf68449d6423980524552d2ab2a73fc6f0ba101","hex":"483045022100e70fcd8c6e6e3fc0f958de3b5373d73d5202f32587af54ee59911b866d9a33a902203bf68351d8298f6ea43453af69abf68449d6423980524552d2ab2a73fc6f0ba101"},"sequence":4294967295}],"vout":[{"value":0,"n":0,"scriptPubKey":{"asm":"","type":"nonstandard"}},{"value":156.25,"n":1,"scriptPubKey":{"asm":"020b1cd26fc4b9f080aea1cf7b667efd5e8453f70429056589831fa7f63506ddbf OP_CHECKSIG","reqSigs":1,"type":"pubkey","addresses":["pECTDpfW4nW8hYte3f3F9ZQxwgWmBwmcYL"]}},{"value":156.25000347,"n":2,"scriptPubKey":{"asm":"020b1cd26fc4b9f080aea1cf7b667efd5e8453f70429056589831fa7f63506ddbf OP_CHECKSIG","reqSigs":1,"type":"pubkey","addresses":["pECTDpfW4nW8hYte3f3F9ZQxwgWmBwmcYL"]}},{"value":0.00001008,"n":3,"scriptPubKey":{"asm":"OP_DUP OP_HASH160 13cd926daa0b2e1422cabca27e3cbc3aebbee60e OP_EQUALVERIFY OP_CHECKSIG","reqSigs":1,"type":"pubkeyhash","addresses":["p7MHJk1NCoVwVPjx7mEGWrpeSkLSYSZyuV"]}}],"blockhash":"f53faa7255db59e03ae5b6829b096447357262f431990f54de836d426615f2a2","confirmations":256,"blocktime":1540766000}