{"hex":"010000002139d65b0222981d82109141ce0c5ec4123aeb7957279cb46751f669c231c5b723e711b81d000000006b48304502210091390ab07de2f52714cfff31d8df2c3770783ae1b740d9a75c1c8e0f104a7c0d0220433e366aec767d63705a71570a981c550bad8d592b07cf4d3ceb1960b33afb0e0121029e857134122939a57279b02312e296a02bcf0cf876ddc541bd372450215dbeacffffffff2b49089652187cd60261bfe99fd91681c3f1a8ba991e85b0f12f3fce3ac6e612000000006b483045022100a8a743326f1cebad63b97a67f15baaa7cbb4193a5f626c1289c1aaec9a0ef7f902203bf189401332dcecbb9f4a71e0460c0027b8bbde52e999958ed9da58aeaeea83012102c189b5486dc2771cc25227f9a9c2c3715814e24db8640079b8ec7b2f4874e9d6ffffffff02c0c50f00000000001976a9147497242bd11fe2ede7052da7044e209675fb284388ac271f1200000000001976a914caf2ef10e549b8d75c5e21217255821a50eabc6d88ac00000000","txid":"7ad0f701045fb85f127b7c0d5378dedab3f063216a28165ae4e65b317ebb32a9","version":1,"time":1540766000,"locktime":0,"vin":[{"txid":"1db811e723b7c531c269f65167b49c275779eb3a12c45e0cce419110821d9822","vout":0,"scriptSig":{"asm":"304502210091390ab07de2f52714cfff31d8df2c3770783ae1b740d9a75c1c8e0f104a7c0d0220433e366aec767d63705a71570a981c550bad8d592b07cf4d3ceb1960b33afb0e01 029e857134122939a57279b02312e296a02bcf0cf876ddc541bd372450215dbeac","hex":"48304502210091390ab07de2f52714cfff31d8df2c3770783ae1b740d9a75c1c8e0f104a7c0d0220433e366aec767d63705a71570a981c550bad8d592b07cf4d3ceb1960b33afb0e0121029e857134122939a57279b02312e296a02bcf0cf876ddc541bd372450215dbeac"},"sequence":4294967295},{"txid":"12e6c63ace3f2ff1b0851e99baa8f1c38116d99fe9bf6102d67c18529608492b","vout":0,"scriptSig":{"asm":"3045022100a8a743326f1cebad63b97a67f15baaa7cbb4193a5f626c1289c1aaec9a0ef7f902203bf189401332dcecbb9f4a71e0460c0027b8bbde52e999958ed9da58aeaeea8301 02c189b5486dc2771cc25227f9a9c2c3715814e24db8640079b8ec7b2f4874e9d6","hex":"483045022100a8a743326f1cebad63b97a67f15baaa7cbb4193a5f626c1289c1aaec9a0ef7f902203bf189401332dcecbb9f4a71e0460c0027b8bbde52e999958ed9da58aeaeea83012102c189b5486dc2771cc25227f9a9c2c3715814e24db8640079b8ec7b2f4874e9d6"},"sequence":4294967295}],"vout":[{"value":0.01033664,"n":0,"scriptPubKey":{"asm":"OP_DUP OP_HASH160 7497242bd11fe2ede7052da7044e209675fb2843 OP_EQUALVERIFY OP_CHECKSIG","reqSigs":1,"type":"pubkeyhash","addresses":["pGB3eSREqWQ2X4XJ3unYx2935biwBNUdc2"]}},{"value":0.01187623,"n":1,"scriptPubKey":{"asm":"OP_DUP OP_HASH160 caf2ef10e549b8d75c5e21217255821a50eabc6d OP_EQUALVERIFY OP_CHECKSIG","reqSigs":1,"type":"pubkeyhash","addresses":["pQ3fio5LvKBgCNzyAn2J8w89LrmhPSZaPa"]}}],"blockhash":"f53faa7255db59e03ae5b6829b096447357262f431990f54de836d426615f2a2","confirmations":256,"blocktime":1540766000}