{"hex":"01000000149ec25b010000000000000000000000000000000000000000000000000000000000000000ffffffff03570101ffffffff0100000000000000001976a91450c321ec2dbf1b47e31e68170163b4ccb72163ec88ac00000000","txid":"51b52805c64ab3758a76af13d81fb54dbfc8e8d7637ca037a86093ea259066c6","version":1,"time":1539481108,"locktime":0,"vin":[{"coinbase":"570101","sequence":4294967295}],"vout":[{"value":0,"n":0,"scriptPubKey":{"asm":"OP_DUP OP_HASH160 50c321ec2dbf1b47e31e68170163b4ccb72163ec OP_EQUALVERIFY OP_CHECKSIG","reqSigs":1,"type":"pubkeyhash","addresses":["pCuc26YmLCReRwS54QeJfHrSSEv7nVWBx5"]}}],"blockhash":"0000043d347095714f5a482e314e0710d952113065bc01839096579310c8fff1","confirmations":152,"blocktime":1539481108}