{"hex":"01000000e59fc25b010000000000000000000000000000000000000000000000000000000000000000ffffffff0401180102ffffffff0100000000000000001976a914298da5d435cd3492f3b8f9895b11839f1a3ababf88ac00000000","txid":"0cf092f64522d8d9f17f50fe32b8aa212880a7e3912170929de0dc81803ea9e1","version":1,"time":1539481575,"locktime":0,"vin":[{"coinbase":"01180102","sequence":4294967295}],"vout":[{"value":0,"n":0,"scriptPubKey":{"asm":"OP_DUP OP_HASH160 298da5d435cd3492f3b8f9895b11839f1a3ababf OP_EQUALVERIFY OP_CHECKSIG","reqSigs":1,"type":"pubkeyhash","addresses":["p9LHbRuG2GooVZBuCUz7t9q11BCpWKu5MB"]}}],"blockhash":"00000a3c454c3ca06fbb17bc7723c2df1087560f272819edd895c12aea9374cf","confirmations":421,"blocktime":1539481575}