{"hex":"01000000f79fc25b010000000000000000000000000000000000000000000000000000000000000000ffffffff04011b0102ffffffff0100000000000000001976a9144ce9ef1587c181e725f9a5517986fa3d56fa66d488ac00000000","txid":"85922927e056175ab9412cecd6275c22df5b152fb1bbc9334f3e7195f61e5585","version":1,"time":1539481598,"locktime":0,"vin":[{"coinbase":"011b0102","sequence":4294967295}],"vout":[{"value":0,"n":0,"scriptPubKey":{"asm":"OP_DUP OP_HASH160 4ce9ef1587c181e725f9a5517986fa3d56fa66d4 OP_EQUALVERIFY OP_CHECKSIG","reqSigs":1,"type":"pubkeyhash","addresses":["pCZFoJGWJDirvEpQaQpAa28yu9PKEH1u2f"]}}],"blockhash":"0000031e099eebad4947a6994e316049b5836a0da7183b8de1ecfdbb54755a65","confirmations":418,"blocktime":1539481598}