{"hex":"01000000487edc5b014985987c04f09c0b32ea8c723c489ea60f6b03baae3d1cf64f28fa6eefa82c7d010000006a473044022032e7ec48257ce1e996be51e0ae78fdffeb8df18c4c75f41805b03aa4849471350220239e5dcc903720a4eb798ce13da25ca6bdce1c6cd22a31ec499ec6992d59ac140121026bc1f326fecd6ae418e49bd2d674c0d65746e390c687232a821d269df5b2667bffffffff028f865401000000001976a914c89ffdb547ce9bb344e616478fe1c2cf59ea46ec88aca78e3011000000001976a914492b21636ff79a76bae7ac75add56babe3d30ef288ac00000000","txid":"98ae691dbd41523950fcb44abbb43e97e901334e990809702f2551f0db0df07e","version":1,"time":1541176912,"locktime":0,"vin":[{"txid":"7d2ca8ef6efa284ff61c3daeba036b0fa69e483c728cea320b9cf0047c988549","vout":1,"scriptSig":{"asm":"3044022032e7ec48257ce1e996be51e0ae78fdffeb8df18c4c75f41805b03aa4849471350220239e5dcc903720a4eb798ce13da25ca6bdce1c6cd22a31ec499ec6992d59ac1401 026bc1f326fecd6ae418e49bd2d674c0d65746e390c687232a821d269df5b2667b","hex":"473044022032e7ec48257ce1e996be51e0ae78fdffeb8df18c4c75f41805b03aa4849471350220239e5dcc903720a4eb798ce13da25ca6bdce1c6cd22a31ec499ec6992d59ac140121026bc1f326fecd6ae418e49bd2d674c0d65746e390c687232a821d269df5b2667b"},"sequence":4294967295}],"vout":[{"value":0.22316687,"n":0,"scriptPubKey":{"asm":"OP_DUP OP_HASH160 c89ffdb547ce9bb344e616478fe1c2cf59ea46ec OP_EQUALVERIFY OP_CHECKSIG","reqSigs":1,"type":"pubkeyhash","addresses":["pPqP1SjVp7ofR8WEZXwtFYwn16DxTkTrqz"]}},{"value":2.88394919,"n":1,"scriptPubKey":{"asm":"OP_DUP OP_HASH160 492b21636ff79a76bae7ac75add56babe3d30ef2 OP_EQUALVERIFY OP_CHECKSIG","reqSigs":1,"type":"pubkeyhash","addresses":["pCDTCTqa4QfHsTgZZEZkEATughGAbFdGJF"]}}],"blockhash":"ebec3eb1352af3f96375df513186ad4d7ac4f0a4ea0e15d752d2de5ae3e638c3","confirmations":67,"blocktime":1541176912}