{"hex":"01000000507edc5b01c7a89a50fa64a19723e2d6b765490d875b7f710b5f9bfe6ae11dabe8a61c3b3e0200000049483045022100d3e6e7c7422e822485cc43ff2c6077d273967526aa84645ebac4bfdc0956a78d02207ff0e5b2aae8a9902fcaadea08f08048f58bca24bb1fdc6344c4b9161546405f01ffffffff040000000000000000008031e246070000002321026ef57679057df94a5f72e9fead08857f8d7253a593b2b1feed1b68e92df4a4c5aca4e0e246070000002321026ef57679057df94a5f72e9fead08857f8d7253a593b2b1feed1b68e92df4a4c5ac8ebd0300000000001976a914a539c7c64804ba10293866c3433100eabbe41ccf88ac00000000","txid":"bbc862070a7dbc76a6c446eab84f9ad1cc31a682dd1d16cb711c1e36c28e1be7","version":1,"time":1541176912,"locktime":0,"vin":[{"txid":"3e3b1ca6e8ab1de16afe9b5f0b717f5b870d4965b7d6e22397a164fa509aa8c7","vout":2,"scriptSig":{"asm":"3045022100d3e6e7c7422e822485cc43ff2c6077d273967526aa84645ebac4bfdc0956a78d02207ff0e5b2aae8a9902fcaadea08f08048f58bca24bb1fdc6344c4b9161546405f01","hex":"483045022100d3e6e7c7422e822485cc43ff2c6077d273967526aa84645ebac4bfdc0956a78d02207ff0e5b2aae8a9902fcaadea08f08048f58bca24bb1fdc6344c4b9161546405f01"},"sequence":4294967295}],"vout":[{"value":0,"n":0,"scriptPubKey":{"asm":"","type":"nonstandard"}},{"value":312.54,"n":1,"scriptPubKey":{"asm":"026ef57679057df94a5f72e9fead08857f8d7253a593b2b1feed1b68e92df4a4c5 OP_CHECKSIG","reqSigs":1,"type":"pubkey","addresses":["p5dRZ9MeyiKDma1pAUrsmvEK4NBmmdC4ZN"]}},{"value":312.54044836,"n":2,"scriptPubKey":{"asm":"026ef57679057df94a5f72e9fead08857f8d7253a593b2b1feed1b68e92df4a4c5 OP_CHECKSIG","reqSigs":1,"type":"pubkey","addresses":["p5dRZ9MeyiKDma1pAUrsmvEK4NBmmdC4ZN"]}},{"value":0.00245134,"n":3,"scriptPubKey":{"asm":"OP_DUP OP_HASH160 a539c7c64804ba10293866c3433100eabbe41ccf OP_EQUALVERIFY OP_CHECKSIG","reqSigs":1,"type":"pubkeyhash","addresses":["pLcCv1RBNEWf4q17fiPMGMYqeFUvP9a826"]}}],"blockhash":"ebec3eb1352af3f96375df513186ad4d7ac4f0a4ea0e15d752d2de5ae3e638c3","confirmations":67,"blocktime":1541176912}