{"hex":"010000006da1c25b010000000000000000000000000000000000000000000000000000000000000000ffffffff0401380101ffffffff0100000000000000001976a91408602148e5122340b9c8622e41406053374514ae88ac00000000","txid":"9b6e7c92ad378c1658c30d0280c0ffeeae9321e717e149dd88cd20010fd53a67","version":1,"time":1539481965,"locktime":0,"vin":[{"coinbase":"01380101","sequence":4294967295}],"vout":[{"value":0,"n":0,"scriptPubKey":{"asm":"OP_DUP OP_HASH160 08602148e5122340b9c8622e41406053374514ae OP_EQUALVERIFY OP_CHECKSIG","reqSigs":1,"type":"pubkeyhash","addresses":["p6JrmUGbszQhGzAeMSgyNqqqnPXKe2PuAS"]}}],"blockhash":"000002a88068fd3c4752e8d36568691d2a2cd1bd70df5293590b11b179396a4d","confirmations":389,"blocktime":1539481965}