{"hex":"01000000f19dc25b010000000000000000000000000000000000000000000000000000000000000000ffffffff03530101ffffffff0100000000000000001976a9142331eaf0582f800ff60e1ca296839f562b98029a88ac00000000","txid":"9bb3468b5fadd8018a2cdc41a968995bea90a8576104bc8cfeed0062185b7bdc","version":1,"time":1539481073,"locktime":0,"vin":[{"coinbase":"530101","sequence":4294967295}],"vout":[{"value":0,"n":0,"scriptPubKey":{"asm":"OP_DUP OP_HASH160 2331eaf0582f800ff60e1ca296839f562b98029a OP_EQUALVERIFY OP_CHECKSIG","reqSigs":1,"type":"pubkeyhash","addresses":["p8kfemHJwASTm15zBDFHy7XpUxfp154CwT"]}}],"blockhash":"00000191064caff1484d90bd17801efba3240cf4071427475bd612f19b63fa99","confirmations":156,"blocktime":1539481073}