{"hex":"010000006d2cdb5b02b1fcfa0b2f6f325c25fe242f958f29e64712735464b3b8d2e943f77765d85025010000006b4830450221009c7be3616a95830170308ff5a1212ca3fce655496a815d330139e59bf66ea9d802200637dcc51aa1185038d6b3a6a4ed1e731df529a67bea7b6f5cc830fdc457e6220121025074b853efd56b76cd38b17dba2cd85607ef96094166a71d57f9df20a5c66f19ffffffff9903282c85511f315e8a5485b2cdb7cdaeeb277a9345559dba962978b43680d3010000006a47304402200f3e82d043b50f919740ca97a72a05a8cb21cd03a758779a87ddf0e864c15ff40220080ce07c786c91b8aac4e7037442af2443aaf8cefc33029222f7de88403ca430012103496f336e7f70cbc1f1ec3f427f84bb9d48469b29642dd1753fb0032864a9d9e7ffffffff026c1b7e02000000001976a914dc69e1106f0c980a9d2ba57f5cb1d34826b6d7cd88aca4cad513000000001976a914f6c51ea2ff406a11a52917146cc62726c0a3ad4b88ac00000000","txid":"84bec5f5bb17c197bfa0b42ac537ae969121f9f2b2e906ea8568a91bbb43ead3","version":1,"time":1541090416,"locktime":0,"vin":[{"txid":"2550d86577f743e9d2b8b36454731247e6298f952f24fe255c326f2f0bfafcb1","vout":1,"scriptSig":{"asm":"30450221009c7be3616a95830170308ff5a1212ca3fce655496a815d330139e59bf66ea9d802200637dcc51aa1185038d6b3a6a4ed1e731df529a67bea7b6f5cc830fdc457e62201 025074b853efd56b76cd38b17dba2cd85607ef96094166a71d57f9df20a5c66f19","hex":"4830450221009c7be3616a95830170308ff5a1212ca3fce655496a815d330139e59bf66ea9d802200637dcc51aa1185038d6b3a6a4ed1e731df529a67bea7b6f5cc830fdc457e6220121025074b853efd56b76cd38b17dba2cd85607ef96094166a71d57f9df20a5c66f19"},"sequence":4294967295},{"txid":"d38036b4782996ba9d5545937a27ebaecdb7cdb285548a5e311f51852c280399","vout":1,"scriptSig":{"asm":"304402200f3e82d043b50f919740ca97a72a05a8cb21cd03a758779a87ddf0e864c15ff40220080ce07c786c91b8aac4e7037442af2443aaf8cefc33029222f7de88403ca43001 03496f336e7f70cbc1f1ec3f427f84bb9d48469b29642dd1753fb0032864a9d9e7","hex":"47304402200f3e82d043b50f919740ca97a72a05a8cb21cd03a758779a87ddf0e864c15ff40220080ce07c786c91b8aac4e7037442af2443aaf8cefc33029222f7de88403ca430012103496f336e7f70cbc1f1ec3f427f84bb9d48469b29642dd1753fb0032864a9d9e7"},"sequence":4294967295}],"vout":[{"value":0.41818988,"n":0,"scriptPubKey":{"asm":"OP_DUP OP_HASH160 dc69e1106f0c980a9d2ba57f5cb1d34826b6d7cd OP_EQUALVERIFY OP_CHECKSIG","reqSigs":1,"type":"pubkeyhash","addresses":["pRe1hXB2EhbzwMsr7TKJkbq5AGjT8MNTgN"]}},{"value":3.32778148,"n":1,"scriptPubKey":{"asm":"OP_DUP OP_HASH160 f6c51ea2ff406a11a52917146cc62726c0a3ad4b OP_EQUALVERIFY OP_CHECKSIG","reqSigs":1,"type":"pubkeyhash","addresses":["pU3Na1b2Zkq9ASc4U5AWUwCm52aTjEpi6X"]}}],"blockhash":"2fb77d54b750796385b465acf7216be7f7bbef991249ef7a3444da4882da4a83","confirmations":96,"blocktime":1541090416}