{"hex":"01000000702cdb5b0119486df7d390df0ea7297f2b45f3afaceaf17edc9f5378794b90ea599202043a0100000048473044022028bd6c34af76b7b476ef2f0cff1c27d8a22dd16be3187631813ee5c5ec7896d202206d3e1086c20416236a1df581aba05f4c8e1942a4a94a3d35cee2d6d4fcc4414001ffffffff030000000000000000002de1a2d1010000002321020b1cd26fc4b9f080aea1cf7b667efd5e8453f70429056589831fa7f63506ddbfaced500400000000001976a914c98c77a9774bba2295618369afffb431dfa7a76188ac00000000","txid":"f6fc24bac862322a02c10a0ecfcdf2540fce0f4a2e079c325a97279c8848676a","version":1,"time":1541090416,"locktime":0,"vin":[{"txid":"3a04029259ea904b7978539fdc7ef1eaacaff3452b7f29a70edf90d3f76d4819","vout":1,"scriptSig":{"asm":"3044022028bd6c34af76b7b476ef2f0cff1c27d8a22dd16be3187631813ee5c5ec7896d202206d3e1086c20416236a1df581aba05f4c8e1942a4a94a3d35cee2d6d4fcc4414001","hex":"473044022028bd6c34af76b7b476ef2f0cff1c27d8a22dd16be3187631813ee5c5ec7896d202206d3e1086c20416236a1df581aba05f4c8e1942a4a94a3d35cee2d6d4fcc4414001"},"sequence":4294967295}],"vout":[{"value":0,"n":0,"scriptPubKey":{"asm":"","type":"nonstandard"}},{"value":78.12079917,"n":1,"scriptPubKey":{"asm":"020b1cd26fc4b9f080aea1cf7b667efd5e8453f70429056589831fa7f63506ddbf OP_CHECKSIG","reqSigs":1,"type":"pubkey","addresses":["pECTDpfW4nW8hYte3f3F9ZQxwgWmBwmcYL"]}},{"value":0.00282861,"n":2,"scriptPubKey":{"asm":"OP_DUP OP_HASH160 c98c77a9774bba2295618369afffb431dfa7a761 OP_EQUALVERIFY OP_CHECKSIG","reqSigs":1,"type":"pubkeyhash","addresses":["pPvGJ7RaHWgFFf4mpU2Xn8sUqejUBfqoKj"]}}],"blockhash":"2fb77d54b750796385b465acf7216be7f7bbef991249ef7a3444da4882da4a83","confirmations":96,"blocktime":1541090416}