{"hex":"0100000014d3d55b02eb11a36a9f0805731d4ba8b2a87b9d94cad32230fe662e20a1f6a9e33e30fc5b000000006b483045022100b07642924648d6c012acac7158c5728e020c61f41767d4947e11ef4541e957e102205316fba69229f22e28fe787f97910afe0da6c7235cd477f493e5a807063c32ce0121029e857134122939a57279b02312e296a02bcf0cf876ddc541bd372450215dbeacffffffff090e9aa264ef0350858a82ca3eae6cef326027b19c19a011c7e7537c77fd374d010000006a473044022033ad7f28c7ea4cf857a52a55e1c042b00b6353ba192c662607484386f4cd2cd602204efe25333d8febd3bebc0d45de661aef14727ecd4bbba3ddd1f7ffb23bccabc701210327b54b594f4c02cbf71e1c57e7cf6755ab33f8bfa835b226c08b49e5f507c103ffffffff020b480f00000000001976a9144c28ee798243702bc4500cdb4da9004130bb47f688ac4b460200000000001976a914796d356b9bee1d8e5a0d09cdecf849f07340d83b88ac00000000","txid":"556eceae7990ed88e1d4f57916d250f2fb804c86e907880e02e466f107090f7b","version":1,"time":1540739872,"locktime":0,"vin":[{"txid":"5bfc303ee3a9f6a1202e66fe3022d3ca949d7ba8b2a84b1d7305089f6aa311eb","vout":0,"scriptSig":{"asm":"3045022100b07642924648d6c012acac7158c5728e020c61f41767d4947e11ef4541e957e102205316fba69229f22e28fe787f97910afe0da6c7235cd477f493e5a807063c32ce01 029e857134122939a57279b02312e296a02bcf0cf876ddc541bd372450215dbeac","hex":"483045022100b07642924648d6c012acac7158c5728e020c61f41767d4947e11ef4541e957e102205316fba69229f22e28fe787f97910afe0da6c7235cd477f493e5a807063c32ce0121029e857134122939a57279b02312e296a02bcf0cf876ddc541bd372450215dbeac"},"sequence":4294967295},{"txid":"4d37fd777c53e7c711a0199cb1276032ef6cae3eca828a855003ef64a29a0e09","vout":1,"scriptSig":{"asm":"3044022033ad7f28c7ea4cf857a52a55e1c042b00b6353ba192c662607484386f4cd2cd602204efe25333d8febd3bebc0d45de661aef14727ecd4bbba3ddd1f7ffb23bccabc701 0327b54b594f4c02cbf71e1c57e7cf6755ab33f8bfa835b226c08b49e5f507c103","hex":"473044022033ad7f28c7ea4cf857a52a55e1c042b00b6353ba192c662607484386f4cd2cd602204efe25333d8febd3bebc0d45de661aef14727ecd4bbba3ddd1f7ffb23bccabc701210327b54b594f4c02cbf71e1c57e7cf6755ab33f8bfa835b226c08b49e5f507c103"},"sequence":4294967295}],"vout":[{"value":0.01001483,"n":0,"scriptPubKey":{"asm":"OP_DUP OP_HASH160 4c28ee798243702bc4500cdb4da9004130bb47f6 OP_EQUALVERIFY OP_CHECKSIG","reqSigs":1,"type":"pubkeyhash","addresses":["pCVGbFvFLapGyskXvwfxG2ss21bRU9FqUh"]}},{"value":0.00149067,"n":1,"scriptPubKey":{"asm":"OP_DUP OP_HASH160 796d356b9bee1d8e5a0d09cdecf849f07340d83b OP_EQUALVERIFY OP_CHECKSIG","reqSigs":1,"type":"pubkeyhash","addresses":["pGccnsLTJ7VDqPX9MiHZBPPSGspZMjLfVE"]}}],"blockhash":"952285c44ad01145d650b7976e33bf386ae9867a42a0597ab4e6fe703c597063","confirmations":268,"blocktime":1540739872}