{"hex":"0100000020d3d55b01ccae0eff5238cc79db73e043ca43cdec71e4c01efe09910acecd04b8729bc1c2020000004847304402203df14118dd36d04837c1f767d077fe7744d65e4214c62bbfca7f8a53e5b62306022012f1fbbe0006f1b2f9559f8bb24c11f36db2b1e1d02edf59134accc0479e89f501ffffffff04000000000000000000409452a3030000002321020b1cd26fc4b9f080aea1cf7b667efd5e8453f70429056589831fa7f63506ddbfac3e9552a3030000002321020b1cd26fc4b9f080aea1cf7b667efd5e8453f70429056589831fa7f63506ddbfac7e000000000000001976a9149590579f878db6722db4322a713599a3d865ecb188ac00000000","txid":"aa569b81ffad9e3bcd4ff544d67477f94fea75ecdb9a08340f500ac65b72d7f2","version":1,"time":1540739872,"locktime":0,"vin":[{"txid":"c2c19b72b804cdce0a9109fe1ec0e471eccd43ca43e073db79cc3852ff0eaecc","vout":2,"scriptSig":{"asm":"304402203df14118dd36d04837c1f767d077fe7744d65e4214c62bbfca7f8a53e5b62306022012f1fbbe0006f1b2f9559f8bb24c11f36db2b1e1d02edf59134accc0479e89f501","hex":"47304402203df14118dd36d04837c1f767d077fe7744d65e4214c62bbfca7f8a53e5b62306022012f1fbbe0006f1b2f9559f8bb24c11f36db2b1e1d02edf59134accc0479e89f501"},"sequence":4294967295}],"vout":[{"value":0,"n":0,"scriptPubKey":{"asm":"","type":"nonstandard"}},{"value":156.25,"n":1,"scriptPubKey":{"asm":"020b1cd26fc4b9f080aea1cf7b667efd5e8453f70429056589831fa7f63506ddbf OP_CHECKSIG","reqSigs":1,"type":"pubkey","addresses":["pECTDpfW4nW8hYte3f3F9ZQxwgWmBwmcYL"]}},{"value":156.25000254,"n":2,"scriptPubKey":{"asm":"020b1cd26fc4b9f080aea1cf7b667efd5e8453f70429056589831fa7f63506ddbf OP_CHECKSIG","reqSigs":1,"type":"pubkey","addresses":["pECTDpfW4nW8hYte3f3F9ZQxwgWmBwmcYL"]}},{"value":0.00000126,"n":3,"scriptPubKey":{"asm":"OP_DUP OP_HASH160 9590579f878db6722db4322a713599a3d865ecb1 OP_EQUALVERIFY OP_CHECKSIG","reqSigs":1,"type":"pubkeyhash","addresses":["pKBPoNA3SJPY8i2H3PXAafpEbMr7NNikgL"]}}],"blockhash":"952285c44ad01145d650b7976e33bf386ae9867a42a0597ab4e6fe703c597063","confirmations":268,"blocktime":1540739872}