{"hex":"01000000b6ffd95b021fd9487888f57544bfb00394bf51512d7a0830744452e74f23cdc9ec84f50dbf000000006b483045022100c5cbd1e99e70bbb076b67637d74a3eda5eda67549c5b500696554b56ed6d03d502203371695c5cad6135ede4a279643e09691f215de50ef9ed58898d9f945fc94dd80121029e857134122939a57279b02312e296a02bcf0cf876ddc541bd372450215dbeacffffffff1fd9487888f57544bfb00394bf51512d7a0830744452e74f23cdc9ec84f50dbf010000006a47304402204cfa8d8ec26d0bc56b1126c99b7e3f6760fb56bb354ad0a4b0cfd4e08e456b7502206dc26785d3dd68a8ed8dcefbfe5eb4f0a24b3f9e85e46b335e7b3472dee88d29012102b53ebc526d4fa569a703b8d460026cb2cb7d9728802d812b987b9b516aa11819ffffffff0272172600000000001976a9144c28ee798243702bc4500cdb4da9004130bb47f688ac8ec1a302000000001976a9144eab8379e26a056e7c6f6201cad0f1775edabd8188ac00000000","txid":"8ac687d2493872f40a056bd7c2867e778cff09abcac76fbbb0ba5b985eeea315","version":1,"time":1541013440,"locktime":0,"vin":[{"txid":"bf0df584ecc9cd234fe752447430087a2d5151bf9403b0bf4475f5887848d91f","vout":0,"scriptSig":{"asm":"3045022100c5cbd1e99e70bbb076b67637d74a3eda5eda67549c5b500696554b56ed6d03d502203371695c5cad6135ede4a279643e09691f215de50ef9ed58898d9f945fc94dd801 029e857134122939a57279b02312e296a02bcf0cf876ddc541bd372450215dbeac","hex":"483045022100c5cbd1e99e70bbb076b67637d74a3eda5eda67549c5b500696554b56ed6d03d502203371695c5cad6135ede4a279643e09691f215de50ef9ed58898d9f945fc94dd80121029e857134122939a57279b02312e296a02bcf0cf876ddc541bd372450215dbeac"},"sequence":4294967295},{"txid":"bf0df584ecc9cd234fe752447430087a2d5151bf9403b0bf4475f5887848d91f","vout":1,"scriptSig":{"asm":"304402204cfa8d8ec26d0bc56b1126c99b7e3f6760fb56bb354ad0a4b0cfd4e08e456b7502206dc26785d3dd68a8ed8dcefbfe5eb4f0a24b3f9e85e46b335e7b3472dee88d2901 02b53ebc526d4fa569a703b8d460026cb2cb7d9728802d812b987b9b516aa11819","hex":"47304402204cfa8d8ec26d0bc56b1126c99b7e3f6760fb56bb354ad0a4b0cfd4e08e456b7502206dc26785d3dd68a8ed8dcefbfe5eb4f0a24b3f9e85e46b335e7b3472dee88d29012102b53ebc526d4fa569a703b8d460026cb2cb7d9728802d812b987b9b516aa11819"},"sequence":4294967295}],"vout":[{"value":0.0249637,"n":0,"scriptPubKey":{"asm":"OP_DUP OP_HASH160 4c28ee798243702bc4500cdb4da9004130bb47f6 OP_EQUALVERIFY OP_CHECKSIG","reqSigs":1,"type":"pubkeyhash","addresses":["pCVGbFvFLapGyskXvwfxG2ss21bRU9FqUh"]}},{"value":0.4428635,"n":1,"scriptPubKey":{"asm":"OP_DUP OP_HASH160 4eab8379e26a056e7c6f6201cad0f1775edabd81 OP_EQUALVERIFY OP_CHECKSIG","reqSigs":1,"type":"pubkeyhash","addresses":["pCiYNe7V4zxUHEjnBRLhtKguU7asfApFdU"]}}],"blockhash":"13a3c8b85a878d9cd5210d3f9ac0509510443e7db2fab1c806ca3c7e4e2fbf1f","confirmations":123,"blocktime":1541013440}