{"hex":"01000000c0ffd95b01bd095995dca309b2cd4376e7456321c3d7aa51439ee2f38fce6ca5cf47c0d4be010000006a47304402203f76a61c0c4ae404a5acc5447d7b715dd8e56915e8ce3430e75871be3ecb9a080220230f97411783cadfb47a4316ac9f3f512bebe949f4242fe28b7fb42fb90b7027012103c918da721a9564bfde1eb3e347ac352bf028a23eeafc2e69788601adb5b9dfabffffffff04000000000000000000004429353a000000232103c918da721a9564bfde1eb3e347ac352bf028a23eeafc2e69788601adb5b9dfabacf35d29353a000000232103c918da721a9564bfde1eb3e347ac352bf028a23eeafc2e69788601adb5b9dfabac0b930000000000001976a91405799d876e3b7c328ae01baece26d0f931b0f5fa88ac00000000","txid":"e9383c06513c71c67838e703de01b272e3955dc2f1bc8eadfda744a47478cc7a","version":1,"time":1541013440,"locktime":0,"vin":[{"txid":"bed4c047cfa56cce8ff3e29e4351aad7c3216345e77643cdb209a3dc955909bd","vout":1,"scriptSig":{"asm":"304402203f76a61c0c4ae404a5acc5447d7b715dd8e56915e8ce3430e75871be3ecb9a080220230f97411783cadfb47a4316ac9f3f512bebe949f4242fe28b7fb42fb90b702701 03c918da721a9564bfde1eb3e347ac352bf028a23eeafc2e69788601adb5b9dfab","hex":"47304402203f76a61c0c4ae404a5acc5447d7b715dd8e56915e8ce3430e75871be3ecb9a080220230f97411783cadfb47a4316ac9f3f512bebe949f4242fe28b7fb42fb90b7027012103c918da721a9564bfde1eb3e347ac352bf028a23eeafc2e69788601adb5b9dfab"},"sequence":4294967295}],"vout":[{"value":0,"n":0,"scriptPubKey":{"asm":"","type":"nonstandard"}},{"value":2500,"n":1,"scriptPubKey":{"asm":"03c918da721a9564bfde1eb3e347ac352bf028a23eeafc2e69788601adb5b9dfab OP_CHECKSIG","reqSigs":1,"type":"pubkey","addresses":["pK5Eddk3vr4yi7hrwuoQfuFmrHAeSuez22"]}},{"value":2500.00006643,"n":2,"scriptPubKey":{"asm":"03c918da721a9564bfde1eb3e347ac352bf028a23eeafc2e69788601adb5b9dfab OP_CHECKSIG","reqSigs":1,"type":"pubkey","addresses":["pK5Eddk3vr4yi7hrwuoQfuFmrHAeSuez22"]}},{"value":0.00037643,"n":3,"scriptPubKey":{"asm":"OP_DUP OP_HASH160 05799d876e3b7c328ae01baece26d0f931b0f5fa OP_EQUALVERIFY OP_CHECKSIG","reqSigs":1,"type":"pubkeyhash","addresses":["p63XGeVRkcywXEQJE5bkXjJFiugf8tT1er"]}}],"blockhash":"13a3c8b85a878d9cd5210d3f9ac0509510443e7db2fab1c806ca3c7e4e2fbf1f","confirmations":123,"blocktime":1541013440}