{"hex":"01000000ea23d65b020d777cec11fce7067df476e81da51dc64b5bc884211bc8295bf964fbace582c0010000006b483045022100cb7f2ac9cd6eaed342c3b4b35744dab9b655ba5ad4528a4a97262db443322ec9022076b3622994cf8acaaf4781c11164f3f7e831ca3ff79b9a620ef8815c9ce5ede601210279b5b42d943a5c378aef5903586726f1f49501835577b01ab9469d5fc988ddedffffffff24045b10ab74400a56dbfc178e0ee59ff1031c2b338738874a4fc74fe3ae1132000000006b4830450221009892d38139295f32e57ea0e51794608fe5e64413ee93bbfc178e32fbbd60958402202988d9a48f004999d7231b1860494fb281aff3851451b4e2065dfc664522dabb012102c54f2551fe4e8605795726f330ac71a9e94899ad8d013ebacab4a4c45b07df7effffffff0277440f00000000001976a9144c28ee798243702bc4500cdb4da9004130bb47f688ac46220000000000001976a9140debde1dc448c8fb69d3cf0675437f3f12d198f888ac00000000","txid":"1db811e723b7c531c269f65167b49c275779eb3a12c45e0cce419110821d9822","version":1,"time":1540760560,"locktime":0,"vin":[{"txid":"c082e5acfb64f95b29c81b2184c85b4bc61da51de876f47d06e7fc11ec7c770d","vout":1,"scriptSig":{"asm":"3045022100cb7f2ac9cd6eaed342c3b4b35744dab9b655ba5ad4528a4a97262db443322ec9022076b3622994cf8acaaf4781c11164f3f7e831ca3ff79b9a620ef8815c9ce5ede601 0279b5b42d943a5c378aef5903586726f1f49501835577b01ab9469d5fc988dded","hex":"483045022100cb7f2ac9cd6eaed342c3b4b35744dab9b655ba5ad4528a4a97262db443322ec9022076b3622994cf8acaaf4781c11164f3f7e831ca3ff79b9a620ef8815c9ce5ede601210279b5b42d943a5c378aef5903586726f1f49501835577b01ab9469d5fc988dded"},"sequence":4294967295},{"txid":"3211aee34fc74f4a873887332b1c03f19fe50e8e17fcdb560a4074ab105b0424","vout":0,"scriptSig":{"asm":"30450221009892d38139295f32e57ea0e51794608fe5e64413ee93bbfc178e32fbbd60958402202988d9a48f004999d7231b1860494fb281aff3851451b4e2065dfc664522dabb01 02c54f2551fe4e8605795726f330ac71a9e94899ad8d013ebacab4a4c45b07df7e","hex":"4830450221009892d38139295f32e57ea0e51794608fe5e64413ee93bbfc178e32fbbd60958402202988d9a48f004999d7231b1860494fb281aff3851451b4e2065dfc664522dabb012102c54f2551fe4e8605795726f330ac71a9e94899ad8d013ebacab4a4c45b07df7e"},"sequence":4294967295}],"vout":[{"value":0.01000567,"n":0,"scriptPubKey":{"asm":"OP_DUP OP_HASH160 4c28ee798243702bc4500cdb4da9004130bb47f6 OP_EQUALVERIFY OP_CHECKSIG","reqSigs":1,"type":"pubkeyhash","addresses":["pCVGbFvFLapGyskXvwfxG2ss21bRU9FqUh"]}},{"value":0.00008774,"n":1,"scriptPubKey":{"asm":"OP_DUP OP_HASH160 0debde1dc448c8fb69d3cf0675437f3f12d198f8 OP_EQUALVERIFY OP_CHECKSIG","reqSigs":1,"type":"pubkeyhash","addresses":["p6pBYa34PtaU7j4EdRJTzuJVZkkVoKkCTk"]}}],"blockhash":"9c71a698dabc942a91e712ce0ae5a5d5a1bcb8d4c6b16afd2d8ef23ed18fd1e0","confirmations":264,"blocktime":1540760560}