{"hex":"01000000f023d65b017081e2471cb37a22f2da61ca557c3e2f47a39b802d3becfb6e5ce604fec0b32a0100000049483045022100e84bff99bcbaf99337ffbe47fbf29d2bef0e3ab9650b389c177c15c0e36f7d2402202a4d4c6588edaad955c2e01435c5b2d68a80467dc802e95c3e503aff2bbcd82a01ffffffff040000000000000000008028a546070000002321020b1cd26fc4b9f080aea1cf7b667efd5e8453f70429056589831fa7f63506ddbfac8f28a546070000002321020b1cd26fc4b9f080aea1cf7b667efd5e8453f70429056589831fa7f63506ddbfac55000000000000001976a9148e3f6e3d2f029829ca356517f18e326c94cd54cd88ac00000000","txid":"e86b3aaf19619830d174d3d2fb23f770b1c6e054e59e327b03d03cee6459edcf","version":1,"time":1540760560,"locktime":0,"vin":[{"txid":"2ab3c0fe04e65c6efbec3b2d809ba3472f3e7c55ca61daf2227ab31c47e28170","vout":1,"scriptSig":{"asm":"3045022100e84bff99bcbaf99337ffbe47fbf29d2bef0e3ab9650b389c177c15c0e36f7d2402202a4d4c6588edaad955c2e01435c5b2d68a80467dc802e95c3e503aff2bbcd82a01","hex":"483045022100e84bff99bcbaf99337ffbe47fbf29d2bef0e3ab9650b389c177c15c0e36f7d2402202a4d4c6588edaad955c2e01435c5b2d68a80467dc802e95c3e503aff2bbcd82a01"},"sequence":4294967295}],"vout":[{"value":0,"n":0,"scriptPubKey":{"asm":"","type":"nonstandard"}},{"value":312.5,"n":1,"scriptPubKey":{"asm":"020b1cd26fc4b9f080aea1cf7b667efd5e8453f70429056589831fa7f63506ddbf OP_CHECKSIG","reqSigs":1,"type":"pubkey","addresses":["pECTDpfW4nW8hYte3f3F9ZQxwgWmBwmcYL"]}},{"value":312.50000015,"n":2,"scriptPubKey":{"asm":"020b1cd26fc4b9f080aea1cf7b667efd5e8453f70429056589831fa7f63506ddbf OP_CHECKSIG","reqSigs":1,"type":"pubkey","addresses":["pECTDpfW4nW8hYte3f3F9ZQxwgWmBwmcYL"]}},{"value":8.5e-7,"n":3,"scriptPubKey":{"asm":"OP_DUP OP_HASH160 8e3f6e3d2f029829ca356517f18e326c94cd54cd OP_EQUALVERIFY OP_CHECKSIG","reqSigs":1,"type":"pubkeyhash","addresses":["pJWi9BXT9hsVaAft92RNcufBy1LZGU4RtT"]}}],"blockhash":"9c71a698dabc942a91e712ce0ae5a5d5a1bcb8d4c6b16afd2d8ef23ed18fd1e0","confirmations":264,"blocktime":1540760560}