{"hex":"01000000faa1c25b010000000000000000000000000000000000000000000000000000000000000000ffffffff0401490102ffffffff0100000000000000001976a91436adb424f287ce4691b970dc8ffa79a5c264297488ac00000000","txid":"27b8264d8d526f0079461608d75deb394336cc29aa449b1705cee64fc481f811","version":1,"time":1539482109,"locktime":0,"vin":[{"coinbase":"01490102","sequence":4294967295}],"vout":[{"value":0,"n":0,"scriptPubKey":{"asm":"OP_DUP OP_HASH160 36adb424f287ce4691b970dc8ffa79a5c2642974 OP_EQUALVERIFY OP_CHECKSIG","reqSigs":1,"type":"pubkeyhash","addresses":["pAXgnD2sj57oDvgxDkG9w74CaZXDTEJxdS"]}}],"blockhash":"000007735da95b8b65f2fff8d14320473a3c7aa3e25e48760b9cd7817e3ecc5d","confirmations":86,"blocktime":1539482109}