{"hex":"01000000f019da5b0b13e356a0c993ed23aaeac954f1b1db7bbd60011820da54b887230b50fc769d64020000006a4730440220721f067117765312de5fcdfd91cf3dbe0b26ab0cd8cd5e3ce22707e406ce8184022053739606fdb0eaeceaef70451d40cf799842e6f687a171edf3107aaeb836935e012103b243e492fed06b260d1c6384b7578d20f178d778b69bc3ca5028e941e4ef64acffffffff385c087aff37c4c47b0149d47315235bdb04d64e26479748f0ccf2658b294809030000006b483045022100d4321e6f6adc3815794612366237f31ff239c41924ee731dcb2f345f1ed82743022048bc03db05d03287b70b0ec5c88e8f558f2132b7c92dba8cb49e3a9946281a22012103b243e492fed06b260d1c6384b7578d20f178d778b69bc3ca5028e941e4ef64acffffffff524f0095dc14edd6a4bfc74be8ebb72b151592811815aa9b75f15302b262c35d030000006b483045022100b8acbb706a306dd093681dbb8581c3b25989947546fb5daa23a84df6110c3cd70220336559549a317f8bd128e155929e8eb49fbb442cb09badef2dac085079e6e54f012103b243e492fed06b260d1c6384b7578d20f178d778b69bc3ca5028e941e4ef64acffffffff5c34ca1d793d4e4553fcbf18559604945cdc336007c5fa09e3f79124d7bc0f14020000006b483045022100c7ee930d2eae690280844b477c2ae9ef84e3262e0b172836ed3cd38da8c9b049022041bea473f612d27d3ee677f0e740585a11d77385e537de1fe9c061627c8309b4012103b243e492fed06b260d1c6384b7578d20f178d778b69bc3ca5028e941e4ef64acffffffff5c563446158534e1a1b5d8e766a6993cec8f1f175e36f5ffbb9f4073f5e331c8030000006b483045022100e9d5c490b5f282b30d95e5bab2e77e6f6c97bfc1531f1361a3eb84b7cf6336cc02201cda6c87d6ebb9d6594452f3887d3836c3aa25e5c7a2e71fd0297fe30a2c3a47012103b243e492fed06b260d1c6384b7578d20f178d778b69bc3ca5028e941e4ef64acffffffff679b9d553f793fb72be19f99b3735350dad6e23076f2960c157ea64f771e89a8030000006b483045022100b42a9abcec745005ba62c8364c8a4f406fe6fef0664c0fada8bca82a60bacbe00220199f0b419f23f57e66e5949940a88dce8a4e90d3448253e8b182f6eb143b4896012103b243e492fed06b260d1c6384b7578d20f178d778b69bc3ca5028e941e4ef64acffffffff6c602f234218aea31d1e22cb9ca852e8cf43733840a3e98cc837ccddaf00f383030000006a47304402206974a6c67a16718f6b1c634f77247831011011c6f1b79a1546af53da4585bcf802201e47d91373baa0b7adf72b3fd929efb33a11bb6c92d4917f0f40e6c9a5d7ccfe012103b243e492fed06b260d1c6384b7578d20f178d778b69bc3ca5028e941e4ef64acffffffffbd34f64e01e3f3056e6523bf5b43e5bab4436ead87042adb4e38a902b097121d020000006a47304402200ae06ad47c2960658cba27088d74b557381a0d7687b3e0e89a466ce1054111ee02205904bf9977981f2a9fc2da6672b0e44b7ea91df7624680f4439101f4f2f3c023012103b243e492fed06b260d1c6384b7578d20f178d778b69bc3ca5028e941e4ef64acffffffffce2d98de9a427a8bc91f56d544ec7fc0e334773ff0dc9d0f1cad6854ea6b7d0d030000006a473044022044fda641ca41ea705fb0861118710aaa5603a01f7c5165fd99d94e911b457dce02202726fdd40badd6406e74a8d54560c4b366da084a40ab62b5e6a6ff44e9f1bc1f012103b243e492fed06b260d1c6384b7578d20f178d778b69bc3ca5028e941e4ef64acfffffffff7f541b3a6c4115448530ef1e2098409af779c08b3d6eb98e8e802d660657812020000006a473044022000bc57f5422a2efbd0fcf06875565c6f999dc50ff4212bdeff104d1b03aac07f022019b709d94185d478b2ae32286ff741adde9c36bf1899d0bc87e39efc32f836b7012103b243e492fed06b260d1c6384b7578d20f178d778b69bc3ca5028e941e4ef64acffffffffc830612dfa68d2f742ce3056a48fb12e5b350ca3a4c3664e81fdcf5450160653030000006b483045022100f2b09c5ada2730dbca859b6169336417b2bb08aa8bf4d0f35a92733bb41e50f60220710713713e1f3ad09ac5398f0d381ad2e9099df8ab9288e6b064a236f257a271012103b243e492fed06b260d1c6384b7578d20f178d778b69bc3ca5028e941e4ef64acffffffff03000000000000000000b1b3ce3c00000000232103b243e492fed06b260d1c6384b7578d20f178d778b69bc3ca5028e941e4ef64acac68420000000000001976a9140c2d1eddba56317fb81d41241b8f40bbca7b5b5488ac00000000","txid":"476e68bf1fd28b6ec5037c873256aa60619486be65656d199e1a87e2c2b6e807","version":1,"time":1541020144,"locktime":0,"vin":[{"txid":"649d76fc500b2387b854da20180160bd7bdbb1f154c9eaaa23ed93c9a056e313","vout":2,"scriptSig":{"asm":"30440220721f067117765312de5fcdfd91cf3dbe0b26ab0cd8cd5e3ce22707e406ce8184022053739606fdb0eaeceaef70451d40cf799842e6f687a171edf3107aaeb836935e01 03b243e492fed06b260d1c6384b7578d20f178d778b69bc3ca5028e941e4ef64ac","hex":"4730440220721f067117765312de5fcdfd91cf3dbe0b26ab0cd8cd5e3ce22707e406ce8184022053739606fdb0eaeceaef70451d40cf799842e6f687a171edf3107aaeb836935e012103b243e492fed06b260d1c6384b7578d20f178d778b69bc3ca5028e941e4ef64ac"},"sequence":4294967295},{"txid":"0948298b65f2ccf0489747264ed604db5b231573d449017bc4c437ff7a085c38","vout":3,"scriptSig":{"asm":"3045022100d4321e6f6adc3815794612366237f31ff239c41924ee731dcb2f345f1ed82743022048bc03db05d03287b70b0ec5c88e8f558f2132b7c92dba8cb49e3a9946281a2201 03b243e492fed06b260d1c6384b7578d20f178d778b69bc3ca5028e941e4ef64ac","hex":"483045022100d4321e6f6adc3815794612366237f31ff239c41924ee731dcb2f345f1ed82743022048bc03db05d03287b70b0ec5c88e8f558f2132b7c92dba8cb49e3a9946281a22012103b243e492fed06b260d1c6384b7578d20f178d778b69bc3ca5028e941e4ef64ac"},"sequence":4294967295},{"txid":"5dc362b20253f1759baa1518819215152bb7ebe84bc7bfa4d6ed14dc95004f52","vout":3,"scriptSig":{"asm":"3045022100b8acbb706a306dd093681dbb8581c3b25989947546fb5daa23a84df6110c3cd70220336559549a317f8bd128e155929e8eb49fbb442cb09badef2dac085079e6e54f01 03b243e492fed06b260d1c6384b7578d20f178d778b69bc3ca5028e941e4ef64ac","hex":"483045022100b8acbb706a306dd093681dbb8581c3b25989947546fb5daa23a84df6110c3cd70220336559549a317f8bd128e155929e8eb49fbb442cb09badef2dac085079e6e54f012103b243e492fed06b260d1c6384b7578d20f178d778b69bc3ca5028e941e4ef64ac"},"sequence":4294967295},{"txid":"140fbcd72491f7e309fac5076033dc5c9404965518bffc53454e3d791dca345c","vout":2,"scriptSig":{"asm":"3045022100c7ee930d2eae690280844b477c2ae9ef84e3262e0b172836ed3cd38da8c9b049022041bea473f612d27d3ee677f0e740585a11d77385e537de1fe9c061627c8309b401 03b243e492fed06b260d1c6384b7578d20f178d778b69bc3ca5028e941e4ef64ac","hex":"483045022100c7ee930d2eae690280844b477c2ae9ef84e3262e0b172836ed3cd38da8c9b049022041bea473f612d27d3ee677f0e740585a11d77385e537de1fe9c061627c8309b4012103b243e492fed06b260d1c6384b7578d20f178d778b69bc3ca5028e941e4ef64ac"},"sequence":4294967295},{"txid":"c831e3f573409fbbfff5365e171f8fec3c99a666e7d8b5a1e13485154634565c","vout":3,"scriptSig":{"asm":"3045022100e9d5c490b5f282b30d95e5bab2e77e6f6c97bfc1531f1361a3eb84b7cf6336cc02201cda6c87d6ebb9d6594452f3887d3836c3aa25e5c7a2e71fd0297fe30a2c3a4701 03b243e492fed06b260d1c6384b7578d20f178d778b69bc3ca5028e941e4ef64ac","hex":"483045022100e9d5c490b5f282b30d95e5bab2e77e6f6c97bfc1531f1361a3eb84b7cf6336cc02201cda6c87d6ebb9d6594452f3887d3836c3aa25e5c7a2e71fd0297fe30a2c3a47012103b243e492fed06b260d1c6384b7578d20f178d778b69bc3ca5028e941e4ef64ac"},"sequence":4294967295},{"txid":"a8891e774fa67e150c96f27630e2d6da505373b3999fe12bb73f793f559d9b67","vout":3,"scriptSig":{"asm":"3045022100b42a9abcec745005ba62c8364c8a4f406fe6fef0664c0fada8bca82a60bacbe00220199f0b419f23f57e66e5949940a88dce8a4e90d3448253e8b182f6eb143b489601 03b243e492fed06b260d1c6384b7578d20f178d778b69bc3ca5028e941e4ef64ac","hex":"483045022100b42a9abcec745005ba62c8364c8a4f406fe6fef0664c0fada8bca82a60bacbe00220199f0b419f23f57e66e5949940a88dce8a4e90d3448253e8b182f6eb143b4896012103b243e492fed06b260d1c6384b7578d20f178d778b69bc3ca5028e941e4ef64ac"},"sequence":4294967295},{"txid":"83f300afddcc37c88ce9a340387343cfe852a89ccb221e1da3ae1842232f606c","vout":3,"scriptSig":{"asm":"304402206974a6c67a16718f6b1c634f77247831011011c6f1b79a1546af53da4585bcf802201e47d91373baa0b7adf72b3fd929efb33a11bb6c92d4917f0f40e6c9a5d7ccfe01 03b243e492fed06b260d1c6384b7578d20f178d778b69bc3ca5028e941e4ef64ac","hex":"47304402206974a6c67a16718f6b1c634f77247831011011c6f1b79a1546af53da4585bcf802201e47d91373baa0b7adf72b3fd929efb33a11bb6c92d4917f0f40e6c9a5d7ccfe012103b243e492fed06b260d1c6384b7578d20f178d778b69bc3ca5028e941e4ef64ac"},"sequence":4294967295},{"txid":"1d1297b002a9384edb2a0487ad6e43b4bae5435bbf23656e05f3e3014ef634bd","vout":2,"scriptSig":{"asm":"304402200ae06ad47c2960658cba27088d74b557381a0d7687b3e0e89a466ce1054111ee02205904bf9977981f2a9fc2da6672b0e44b7ea91df7624680f4439101f4f2f3c02301 03b243e492fed06b260d1c6384b7578d20f178d778b69bc3ca5028e941e4ef64ac","hex":"47304402200ae06ad47c2960658cba27088d74b557381a0d7687b3e0e89a466ce1054111ee02205904bf9977981f2a9fc2da6672b0e44b7ea91df7624680f4439101f4f2f3c023012103b243e492fed06b260d1c6384b7578d20f178d778b69bc3ca5028e941e4ef64ac"},"sequence":4294967295},{"txid":"0d7d6bea5468ad1c0f9ddcf03f7734e3c07fec44d5561fc98b7a429ade982dce","vout":3,"scriptSig":{"asm":"3044022044fda641ca41ea705fb0861118710aaa5603a01f7c5165fd99d94e911b457dce02202726fdd40badd6406e74a8d54560c4b366da084a40ab62b5e6a6ff44e9f1bc1f01 03b243e492fed06b260d1c6384b7578d20f178d778b69bc3ca5028e941e4ef64ac","hex":"473044022044fda641ca41ea705fb0861118710aaa5603a01f7c5165fd99d94e911b457dce02202726fdd40badd6406e74a8d54560c4b366da084a40ab62b5e6a6ff44e9f1bc1f012103b243e492fed06b260d1c6384b7578d20f178d778b69bc3ca5028e941e4ef64ac"},"sequence":4294967295},{"txid":"12786560d602e8e898ebd6b3089c77af098409e2f10e53485411c4a6b341f5f7","vout":2,"scriptSig":{"asm":"3044022000bc57f5422a2efbd0fcf06875565c6f999dc50ff4212bdeff104d1b03aac07f022019b709d94185d478b2ae32286ff741adde9c36bf1899d0bc87e39efc32f836b701 03b243e492fed06b260d1c6384b7578d20f178d778b69bc3ca5028e941e4ef64ac","hex":"473044022000bc57f5422a2efbd0fcf06875565c6f999dc50ff4212bdeff104d1b03aac07f022019b709d94185d478b2ae32286ff741adde9c36bf1899d0bc87e39efc32f836b7012103b243e492fed06b260d1c6384b7578d20f178d778b69bc3ca5028e941e4ef64ac"},"sequence":4294967295},{"txid":"5306165054cffd814e66c3a4a30c355b2eb18fa45630ce42f7d268fa2d6130c8","vout":3,"scriptSig":{"asm":"3045022100f2b09c5ada2730dbca859b6169336417b2bb08aa8bf4d0f35a92733bb41e50f60220710713713e1f3ad09ac5398f0d381ad2e9099df8ab9288e6b064a236f257a27101 03b243e492fed06b260d1c6384b7578d20f178d778b69bc3ca5028e941e4ef64ac","hex":"483045022100f2b09c5ada2730dbca859b6169336417b2bb08aa8bf4d0f35a92733bb41e50f60220710713713e1f3ad09ac5398f0d381ad2e9099df8ab9288e6b064a236f257a271012103b243e492fed06b260d1c6384b7578d20f178d778b69bc3ca5028e941e4ef64ac"},"sequence":4294967295}],"vout":[{"value":0,"n":0,"scriptPubKey":{"asm":"","type":"nonstandard"}},{"value":10.20179377,"n":1,"scriptPubKey":{"asm":"03b243e492fed06b260d1c6384b7578d20f178d778b69bc3ca5028e941e4ef64ac OP_CHECKSIG","reqSigs":1,"type":"pubkey","addresses":["pU498g2Tze2KypwgCnomJXchMWH8HXyZb6"]}},{"value":0.00017,"n":2,"scriptPubKey":{"asm":"OP_DUP OP_HASH160 0c2d1eddba56317fb81d41241b8f40bbca7b5b54 OP_EQUALVERIFY OP_CHECKSIG","reqSigs":1,"type":"pubkeyhash","addresses":["p6exN3FuZmZyQ7WNzLf7AweTLuHqDvcERN"]}}],"blockhash":"d12c0855ca3c1b36bf4e4aa5b5e54d90251a23762f60aec24466992ad5704b9c","confirmations":117,"blocktime":1541020144}