{"hex":"01000000e819da5b01b27bd801f5d115092c4b9e9ccee16628291dbb797fa1c3f2c6e367e71756c368000000006a473044022021d1b970acd046618ef6955b7de0a9f58a32bf93cae7c4212bca160a8bf1a791022011ca5aade25a6073b7cbdbb560b106d5d266f818923b34d53a39864a5d342b080121029e857134122939a57279b02312e296a02bcf0cf876ddc541bd372450215dbeacffffffff02bbab7900000000001976a9143296bf4802c2d5bf9f26772bf1b0e68fd63ee93388ac002d3101000000001976a9144399c2edb864b8e25066ac255ec475b84ad8e98788ac00000000","txid":"d228edd4a2e210af150e665dd838f712b5fa1cad89cce4abc51013b57586b4ab","version":1,"time":1541020144,"locktime":0,"vin":[{"txid":"68c35617e767e3c6f2c3a17f79bb1d292866e1ce9c9e4b2c0915d1f501d87bb2","vout":0,"scriptSig":{"asm":"3044022021d1b970acd046618ef6955b7de0a9f58a32bf93cae7c4212bca160a8bf1a791022011ca5aade25a6073b7cbdbb560b106d5d266f818923b34d53a39864a5d342b0801 029e857134122939a57279b02312e296a02bcf0cf876ddc541bd372450215dbeac","hex":"473044022021d1b970acd046618ef6955b7de0a9f58a32bf93cae7c4212bca160a8bf1a791022011ca5aade25a6073b7cbdbb560b106d5d266f818923b34d53a39864a5d342b080121029e857134122939a57279b02312e296a02bcf0cf876ddc541bd372450215dbeac"},"sequence":4294967295}],"vout":[{"value":0.07973819,"n":0,"scriptPubKey":{"asm":"OP_DUP OP_HASH160 3296bf4802c2d5bf9f26772bf1b0e68fd63ee933 OP_EQUALVERIFY OP_CHECKSIG","reqSigs":1,"type":"pubkeyhash","addresses":["pAA4aPu9SU5DRsrtvX5Qza8HE4FHPdzkgR"]}},{"value":0.2,"n":1,"scriptPubKey":{"asm":"OP_DUP OP_HASH160 4399c2edb864b8e25066ac255ec475b84ad8e987 OP_EQUALVERIFY OP_CHECKSIG","reqSigs":1,"type":"pubkeyhash","addresses":["pBi1g6C5hXnqrAhhEBVLBZQMHcEDaHQTxC"]}}],"blockhash":"d12c0855ca3c1b36bf4e4aa5b5e54d90251a23762f60aec24466992ad5704b9c","confirmations":117,"blocktime":1541020144}