{"hex":"0100000007a1c25b010000000000000000000000000000000000000000000000000000000000000000ffffffff04012e0102ffffffff0100000000000000001976a914c207655282efb06288c4bf2f5a02737558b5c47288ac00000000","txid":"258c0f3515c4d5d99bd5e6bcac3de598f9aec9d994adacee665fce0aa097c711","version":1,"time":1539481866,"locktime":0,"vin":[{"coinbase":"012e0102","sequence":4294967295}],"vout":[{"value":0,"n":0,"scriptPubKey":{"asm":"OP_DUP OP_HASH160 c207655282efb06288c4bf2f5a02737558b5c472 OP_EQUALVERIFY OP_CHECKSIG","reqSigs":1,"type":"pubkeyhash","addresses":["pPEW9nj12uC56qyT4brfTnKciDoY9DfkNi"]}}],"blockhash":"00000d29cd04f12a07c06e4ee45ba6e7f6f706d10f027317b98cff7293643d56","confirmations":399,"blocktime":1539481866}