{"hex":"010000008fa2c25b010000000000000000000000000000000000000000000000000000000000000000ffffffff04015a0102ffffffff0100000000000000001976a914581147b9db69db43efb299589dc63e47a4f0268588ac00000000","txid":"f3faf6a525a7e50605a39ab57ddf109e53d689cf8f68659a88f03ee19fd78ea7","version":1,"time":1539482262,"locktime":0,"vin":[{"coinbase":"015a0102","sequence":4294967295}],"vout":[{"value":0,"n":0,"scriptPubKey":{"asm":"OP_DUP OP_HASH160 581147b9db69db43efb299589dc63e47a4f02685 OP_EQUALVERIFY OP_CHECKSIG","reqSigs":1,"type":"pubkeyhash","addresses":["pDaENEZJa3ofUWNYMPyShjCGNBA2J8Q3Af"]}}],"blockhash":"0000023e3744bbda9cb16e171156323b0b4e7cb01374fca128173b28ac6edd20","confirmations":355,"blocktime":1539482262}