{"hex":"01000000c0e3d95b0107d8b6cb9a8028d947abf09f43b4407feed3e4fb1d182b48a1702e3dc61fef1c020000004847304402204c1b4577841f2e141efb792bdf41cc865b7abd5b3592c4fef4704e26e43f78a9022054ff7a4862a8209d9425e28718f33f9419d46ee7254fba801daa0ef4fc6eaa4101ffffffff04000000000000000000c020b58d0e0000002321026ef57679057df94a5f72e9fead08857f8d7253a593b2b1feed1b68e92df4a4c5ac1063c48d0e0000002321026ef57679057df94a5f72e9fead08857f8d7253a593b2b1feed1b68e92df4a4c5ac59000000000000001976a9145e1d99381eb53300f76a3cc6299ce81c71d0c2f788ac00000000","txid":"3471ee130876ec055c2c31260144ea6901af401e3590110a6da3e928dbfd518b","version":1,"time":1541006272,"locktime":0,"vin":[{"txid":"1cef1fc63d2e70a1482b181dfbe4d3ee7f40b4439ff0ab47d928809acbb6d807","vout":2,"scriptSig":{"asm":"304402204c1b4577841f2e141efb792bdf41cc865b7abd5b3592c4fef4704e26e43f78a9022054ff7a4862a8209d9425e28718f33f9419d46ee7254fba801daa0ef4fc6eaa4101","hex":"47304402204c1b4577841f2e141efb792bdf41cc865b7abd5b3592c4fef4704e26e43f78a9022054ff7a4862a8209d9425e28718f33f9419d46ee7254fba801daa0ef4fc6eaa4101"},"sequence":4294967295}],"vout":[{"value":0,"n":0,"scriptPubKey":{"asm":"","type":"nonstandard"}},{"value":625.07,"n":1,"scriptPubKey":{"asm":"026ef57679057df94a5f72e9fead08857f8d7253a593b2b1feed1b68e92df4a4c5 OP_CHECKSIG","reqSigs":1,"type":"pubkey","addresses":["p5dRZ9MeyiKDma1pAUrsmvEK4NBmmdC4ZN"]}},{"value":625.08000016,"n":2,"scriptPubKey":{"asm":"026ef57679057df94a5f72e9fead08857f8d7253a593b2b1feed1b68e92df4a4c5 OP_CHECKSIG","reqSigs":1,"type":"pubkey","addresses":["p5dRZ9MeyiKDma1pAUrsmvEK4NBmmdC4ZN"]}},{"value":8.9e-7,"n":3,"scriptPubKey":{"asm":"OP_DUP OP_HASH160 5e1d99381eb53300f76a3cc6299ce81c71d0c2f7 OP_EQUALVERIFY OP_CHECKSIG","reqSigs":1,"type":"pubkeyhash","addresses":["pE8DBH6VheNWCoBfLHY8coXmUqVnKuU1Z8"]}}],"blockhash":"8fbcc57b188c176921893385461b5db777f830e90fefd607c34bc417f2d60b1e","confirmations":130,"blocktime":1541006272}