{"hex":"01000000b1e3d95b01fb8b8c57df3637ebd466107818d5f60865355609ecf32d54f20bdb83acac3d2b000000006a47304402205a63f0601dbed3a8b93d74c367480f15cccd07dded2d6b4a3cafb7f057d39eab02201f0363bfe847e010c6924c9062f583515cdeb112714356bb28179606817283c30121029e857134122939a57279b02312e296a02bcf0cf876ddc541bd372450215dbeacffffffff0279981c00000000001976a9144c28ee798243702bc4500cdb4da9004130bb47f688ac119d0100000000001976a9148667db13911efbf2b1f95c8ed98d26e5b9df8e3788ac00000000","txid":"bef89446f44c454ca06cf4f27a0a82630a4382754aff34fae67fcf3ae94ac56d","version":1,"time":1541006272,"locktime":0,"vin":[{"txid":"2b3dacac83db0bf2542df3ec0956356508f6d518781066d4eb3736df578c8bfb","vout":0,"scriptSig":{"asm":"304402205a63f0601dbed3a8b93d74c367480f15cccd07dded2d6b4a3cafb7f057d39eab02201f0363bfe847e010c6924c9062f583515cdeb112714356bb28179606817283c301 029e857134122939a57279b02312e296a02bcf0cf876ddc541bd372450215dbeac","hex":"47304402205a63f0601dbed3a8b93d74c367480f15cccd07dded2d6b4a3cafb7f057d39eab02201f0363bfe847e010c6924c9062f583515cdeb112714356bb28179606817283c30121029e857134122939a57279b02312e296a02bcf0cf876ddc541bd372450215dbeac"},"sequence":4294967295}],"vout":[{"value":0.01874041,"n":0,"scriptPubKey":{"asm":"OP_DUP OP_HASH160 4c28ee798243702bc4500cdb4da9004130bb47f6 OP_EQUALVERIFY OP_CHECKSIG","reqSigs":1,"type":"pubkeyhash","addresses":["pCVGbFvFLapGyskXvwfxG2ss21bRU9FqUh"]}},{"value":0.00105745,"n":1,"scriptPubKey":{"asm":"OP_DUP OP_HASH160 8667db13911efbf2b1f95c8ed98d26e5b9df8e37 OP_EQUALVERIFY OP_CHECKSIG","reqSigs":1,"type":"pubkeyhash","addresses":["pHoFASF6NuWuvU7383zLKs2ZCRtEU2vN7T"]}}],"blockhash":"8fbcc57b188c176921893385461b5db777f830e90fefd607c34bc417f2d60b1e","confirmations":130,"blocktime":1541006272}