{"hex":"01000000801adb5b01b65c41583cd081afea18919fdf7471253b69dcdc670fbc1f41caf4b6ec5b0cbb010000004847304402203588d639ee0cc0e55e409d53b16cc224f3d4b98153e55797defca489e996c455022052375487a13a314f406cafffb6f82bcc61049f7ef5ad96f8fab8fc4a9af9f6a501ffffffff03000000000000000000acd89900000000002321028cb920f59c12d79842255d22f95cb209accfa6830daca59ba39d16355b6e3cc4ac7d6e0000000000001976a9147a58c93fa5e34c0e7c16492ee8061977495aac7c88ac00000000","txid":"b2b981a9cc575de3fc81446f3e6ea23f3a99f51c276ecff389c37f7f5717b8de","version":1,"time":1541085824,"locktime":0,"vin":[{"txid":"bb0c5becb6f4ca411fbc0f67dcdc693b257174df9f9118eaaf81d03c58415cb6","vout":1,"scriptSig":{"asm":"304402203588d639ee0cc0e55e409d53b16cc224f3d4b98153e55797defca489e996c455022052375487a13a314f406cafffb6f82bcc61049f7ef5ad96f8fab8fc4a9af9f6a501","hex":"47304402203588d639ee0cc0e55e409d53b16cc224f3d4b98153e55797defca489e996c455022052375487a13a314f406cafffb6f82bcc61049f7ef5ad96f8fab8fc4a9af9f6a501"},"sequence":4294967295}],"vout":[{"value":0,"n":0,"scriptPubKey":{"asm":"","type":"nonstandard"}},{"value":0.10082476,"n":1,"scriptPubKey":{"asm":"028cb920f59c12d79842255d22f95cb209accfa6830daca59ba39d16355b6e3cc4 OP_CHECKSIG","reqSigs":1,"type":"pubkey","addresses":["p8xHVRJ6JVee7NQuivDZCLKgwHCvMS4FJv"]}},{"value":0.00028285,"n":2,"scriptPubKey":{"asm":"OP_DUP OP_HASH160 7a58c93fa5e34c0e7c16492ee8061977495aac7c OP_EQUALVERIFY OP_CHECKSIG","reqSigs":1,"type":"pubkeyhash","addresses":["pGhV15RkjbtFhS6uHd3xCvPoNUNQoDMiqz"]}}],"blockhash":"336b5c9e1ce3ef001abc860b90d0380194f783b96e59a6730373ba68d50e1f76","confirmations":103,"blocktime":1541085824}