{"hex":"01000000761adb5b017fd84d4406d63e7661b348069220ef33a5bdaa8593c0222a01554cd741834b17000000006b483045022100ae8b72af0d03c8a931fe30636a033bd3516c74db0ba973bc34d031eedaccdffc02206a174f28d8841c3f1a0005338475f0a2abb9daf7db8b4da496dc604f8afd7c420121033ed3ecd5e5962490e9097d747bac5ebf7d6e447e898b931c4013bda5f9739736ffffffff0215957108000000001976a9140e3311f5a59cec0113b1025193bcb28e317e203388ac77c7fb01000000001976a914eef6bed3409f8d239de1229a7dde687b0b7a58ce88ac00000000","txid":"b8dfd35ec11cafc83c6831c9f00b681c538006435db1da9a4eba958b808820ed","version":1,"time":1541085824,"locktime":0,"vin":[{"txid":"174b8341d74c55012a22c09385aabda533ef20920648b361763ed606444dd87f","vout":0,"scriptSig":{"asm":"3045022100ae8b72af0d03c8a931fe30636a033bd3516c74db0ba973bc34d031eedaccdffc02206a174f28d8841c3f1a0005338475f0a2abb9daf7db8b4da496dc604f8afd7c4201 033ed3ecd5e5962490e9097d747bac5ebf7d6e447e898b931c4013bda5f9739736","hex":"483045022100ae8b72af0d03c8a931fe30636a033bd3516c74db0ba973bc34d031eedaccdffc02206a174f28d8841c3f1a0005338475f0a2abb9daf7db8b4da496dc604f8afd7c420121033ed3ecd5e5962490e9097d747bac5ebf7d6e447e898b931c4013bda5f9739736"},"sequence":4294967295}],"vout":[{"value":1.41661461,"n":0,"scriptPubKey":{"asm":"OP_DUP OP_HASH160 0e3311f5a59cec0113b1025193bcb28e317e2033 OP_EQUALVERIFY OP_CHECKSIG","reqSigs":1,"type":"pubkeyhash","addresses":["p6qeqooQhPTwPC5kj6oGNor3YQeUru6gXX"]}},{"value":0.33277815,"n":1,"scriptPubKey":{"asm":"OP_DUP OP_HASH160 eef6bed3409f8d239de1229a7dde687b0b7a58ce OP_EQUALVERIFY OP_CHECKSIG","reqSigs":1,"type":"pubkeyhash","addresses":["pTL6cXrv7Js6RNXZYJ9VsNN92VXYyj1Zi3"]}}],"blockhash":"336b5c9e1ce3ef001abc860b90d0380194f783b96e59a6730373ba68d50e1f76","confirmations":103,"blocktime":1541085824}