{"hex":"0100000065a1c25b010000000000000000000000000000000000000000000000000000000000000000ffffffff0401370102ffffffff0100000000000000001976a914cdbf58b19f93ec8c1f455d68089a29e1d45088c988ac00000000","txid":"f957320a882a3591c69707e0a53dd443ca704a91b537b77f84dcc72359ddabbd","version":1,"time":1539481960,"locktime":0,"vin":[{"coinbase":"01370102","sequence":4294967295}],"vout":[{"value":0,"n":0,"scriptPubKey":{"asm":"OP_DUP OP_HASH160 cdbf58b19f93ec8c1f455d68089a29e1d45088c9 OP_EQUALVERIFY OP_CHECKSIG","reqSigs":1,"type":"pubkeyhash","addresses":["pQJTx1sp5Vp7symZU54ZLMWsuJcKRcbe85"]}}],"blockhash":"0000016dd920bc5b7a3bcf4fcc055183532b61422ae2a67e2cd032e0ae2a658c","confirmations":390,"blocktime":1539481960}