{"hex":"0100000088a9c25b0190509f7b16d89873a269924982dc819c1cd6e1a49e534205407043d668e1c507000000006a47304402204321f5e9ff87e459237cd92479787a9cb2072dbeeb1494c9dd4973fc56184c21022018477b754fcd9c8c7fb31f70efa1274ca0279ba2d12dfa9c5347d639ffa74762012102bc7a475b61925a4141e736bb6f3e8da923ad261dffe60b3b62e238ac70865605ffffffff0200cc5f1fc27e23001976a914240fbea2cd4a0785899a1c5c68963b21ee02cd1188ac0088526a740000001976a91422d06420236528fe42b5c2302e36704d85b646de88ac00000000","txid":"0e7b034a5e886c399331c4c308a96aea14a5a9d19ba7060f805ad39f4282cdd9","version":1,"time":1539484048,"locktime":0,"vin":[{"txid":"07c5e168d64370400542539ea4e1d61c9c81dc82499269a27398d8167b9f5090","vout":0,"scriptSig":{"asm":"304402204321f5e9ff87e459237cd92479787a9cb2072dbeeb1494c9dd4973fc56184c21022018477b754fcd9c8c7fb31f70efa1274ca0279ba2d12dfa9c5347d639ffa7476201 02bc7a475b61925a4141e736bb6f3e8da923ad261dffe60b3b62e238ac70865605","hex":"47304402204321f5e9ff87e459237cd92479787a9cb2072dbeeb1494c9dd4973fc56184c21022018477b754fcd9c8c7fb31f70efa1274ca0279ba2d12dfa9c5347d639ffa74762012102bc7a475b61925a4141e736bb6f3e8da923ad261dffe60b3b62e238ac70865605"},"sequence":4294967295}],"vout":[{"value":99909964,"n":0,"scriptPubKey":{"asm":"OP_DUP OP_HASH160 240fbea2cd4a0785899a1c5c68963b21ee02cd11 OP_EQUALVERIFY OP_CHECKSIG","reqSigs":1,"type":"pubkeyhash","addresses":["p8qFPa36ikJsounDiNAWfhuqwEsUL1WY3Y"]}},{"value":5000,"n":1,"scriptPubKey":{"asm":"OP_DUP OP_HASH160 22d06420236528fe42b5c2302e36704d85b646de OP_EQUALVERIFY OP_CHECKSIG","reqSigs":1,"type":"pubkeyhash","addresses":["p8iepVjrqbjo1uNb8dyXKBBerSUv6zrPfw"]}}],"blockhash":"1f4f13cf944a511c8c75fcfa6e9ddaa374c01701a137f273c1836b1caf02e423","confirmations":330,"blocktime":1539484048}