{"hex":"0100000090a9c25b0145f294035769cdad9ee2ae822e5620760cc0637a8da90fb59bf1c05b4ecf78f40200000049483045022100b9e5aee7b5c7373c4ec50eba889e7d5c35015abc249ea078772b5942b6cad830022065cae4af47920ef79d0b29ea26169f698625b5f451ad3fbe6f807f498378eaf501ffffffff04000000000000000000c07a17900e0000002321028d9be6ae35cf9126d1ddd81f7e9a33d77e64d908c42bf417d6424ba1da9106a6ac00bd26900e0000002321028d9be6ae35cf9126d1ddd81f7e9a33d77e64d908c42bf417d6424ba1da9106a6ac80fe210a000000001976a9148e3f6e3d2f029829ca356517f18e326c94cd54cd88ac00000000","txid":"6c3f8db86b69e75b7392ebb3bd45efc4e745f0d43a9a5113aa4e2f9601c9f024","version":1,"time":1539484048,"locktime":0,"vin":[{"txid":"f478cf4e5bc0f19bb50fa98d7a63c00c7620562e82aee29eadcd69570394f245","vout":2,"scriptSig":{"asm":"3045022100b9e5aee7b5c7373c4ec50eba889e7d5c35015abc249ea078772b5942b6cad830022065cae4af47920ef79d0b29ea26169f698625b5f451ad3fbe6f807f498378eaf501","hex":"483045022100b9e5aee7b5c7373c4ec50eba889e7d5c35015abc249ea078772b5942b6cad830022065cae4af47920ef79d0b29ea26169f698625b5f451ad3fbe6f807f498378eaf501"},"sequence":4294967295}],"vout":[{"value":0,"n":0,"scriptPubKey":{"asm":"","type":"nonstandard"}},{"value":625.47,"n":1,"scriptPubKey":{"asm":"028d9be6ae35cf9126d1ddd81f7e9a33d77e64d908c42bf417d6424ba1da9106a6 OP_CHECKSIG","reqSigs":1,"type":"pubkey","addresses":["pG17eAwgEzq6zQQ7cLzvCMepRqGYMprwdz"]}},{"value":625.48,"n":2,"scriptPubKey":{"asm":"028d9be6ae35cf9126d1ddd81f7e9a33d77e64d908c42bf417d6424ba1da9106a6 OP_CHECKSIG","reqSigs":1,"type":"pubkey","addresses":["pG17eAwgEzq6zQQ7cLzvCMepRqGYMprwdz"]}},{"value":1.7,"n":3,"scriptPubKey":{"asm":"OP_DUP OP_HASH160 8e3f6e3d2f029829ca356517f18e326c94cd54cd OP_EQUALVERIFY OP_CHECKSIG","reqSigs":1,"type":"pubkeyhash","addresses":["pJWi9BXT9hsVaAft92RNcufBy1LZGU4RtT"]}}],"blockhash":"1f4f13cf944a511c8c75fcfa6e9ddaa374c01701a137f273c1836b1caf02e423","confirmations":44,"blocktime":1539484048}