{"hex":"01000000b066c35b01c30eab502a5fdf42ecbf840dfba90fbf158f1992b38b3d4838ca1dc7dac6b77601000000494830450221008abc0c13be713724d1e3f205e5627620df7fac1a90c680bfdc1fa7f61cb326f8022027006f05fecc89acced0935500302c1885640e329da4911766a91a0e20014f3101ffffffff030000000000000000008017b42c000000002321037e20b6f9df2b1191d7e929adc4ec86bb0a3b438e7822a1a46cd9d0caef60b746ac80fe210a000000001976a914b4297f2bb1ec22148c170ab2f943e6826c4d831d88ac00000000","txid":"6da7448d7ac9ad25c54311cf922348b5e06fc6d65ffee15129754150b1a1ebcc","version":1,"time":1539532464,"locktime":0,"vin":[{"txid":"76b7c6dac71dca38483d8bb392198f15bf0fa9fb0d84bfec42df5f2a50ab0ec3","vout":1,"scriptSig":{"asm":"30450221008abc0c13be713724d1e3f205e5627620df7fac1a90c680bfdc1fa7f61cb326f8022027006f05fecc89acced0935500302c1885640e329da4911766a91a0e20014f3101","hex":"4830450221008abc0c13be713724d1e3f205e5627620df7fac1a90c680bfdc1fa7f61cb326f8022027006f05fecc89acced0935500302c1885640e329da4911766a91a0e20014f3101"},"sequence":4294967295}],"vout":[{"value":0,"n":0,"scriptPubKey":{"asm":"","type":"nonstandard"}},{"value":7.5,"n":1,"scriptPubKey":{"asm":"037e20b6f9df2b1191d7e929adc4ec86bb0a3b438e7822a1a46cd9d0caef60b746 OP_CHECKSIG","reqSigs":1,"type":"pubkey","addresses":["p6vr35KwzEodbGx2Tqp8uLkcMLPNmxZhJS"]}},{"value":1.7,"n":2,"scriptPubKey":{"asm":"OP_DUP OP_HASH160 b4297f2bb1ec22148c170ab2f943e6826c4d831d OP_EQUALVERIFY OP_CHECKSIG","reqSigs":1,"type":"pubkeyhash","addresses":["pMyBYUpcH3ehvzacvgmtahza4iSykvMcUD"]}}],"blockhash":"0772907347aeb47bdb3ea2cd222b0f17ceb6c2ddf5a534f0aba0a4f9ace23abf","confirmations":313,"blocktime":1539532464}