{"hex":"010000008666c35b010ad79530b097f06c69d0a5e4ba432d2a8232d2f525e41f86cfe93e16aa39aa4c000000006b483045022100815c97e950920350fd9d85dee96996ae918e2e3b71bc83a90eadcad923e6fff302203eee19eec3a15a235715f006afdea0c2d2ef6e9d079c45aee141bac5ebc6ff11012103e7d84965605c029686489268c75cba1b72e3ca1749434f2f08c7b1fd3dc7f04effffffff0200e23c45067723001976a914f6dd11c6789c6465405ad3b6ffe0bdad9c38bef188ac0088526a740000001976a9144a50163d75b51d2dbbb7b2a59986e707833705d888ac00000000","txid":"fddc496d0bd8ebced9a492a4abb6c7f2d201d6ea12b1ffc3b582fe161ee26fd1","version":1,"time":1539532464,"locktime":0,"vin":[{"txid":"4caa39aa163ee9cf861fe425f5d232822a2d43bae4a5d0696cf097b03095d70a","vout":0,"scriptSig":{"asm":"3045022100815c97e950920350fd9d85dee96996ae918e2e3b71bc83a90eadcad923e6fff302203eee19eec3a15a235715f006afdea0c2d2ef6e9d079c45aee141bac5ebc6ff1101 03e7d84965605c029686489268c75cba1b72e3ca1749434f2f08c7b1fd3dc7f04e","hex":"483045022100815c97e950920350fd9d85dee96996ae918e2e3b71bc83a90eadcad923e6fff302203eee19eec3a15a235715f006afdea0c2d2ef6e9d079c45aee141bac5ebc6ff11012103e7d84965605c029686489268c75cba1b72e3ca1749434f2f08c7b1fd3dc7f04e"},"sequence":4294967295}],"vout":[{"value":99824930,"n":0,"scriptPubKey":{"asm":"OP_DUP OP_HASH160 f6dd11c6789c6465405ad3b6ffe0bdad9c38bef1 OP_EQUALVERIFY OP_CHECKSIG","reqSigs":1,"type":"pubkeyhash","addresses":["pU3sG4ypjC9iY4pe5JUNimvoC7KuYUsveJ"]}},{"value":5000,"n":1,"scriptPubKey":{"asm":"OP_DUP OP_HASH160 4a50163d75b51d2dbbb7b2a59986e707833705d8 OP_EQUALVERIFY OP_CHECKSIG","reqSigs":1,"type":"pubkeyhash","addresses":["pCKW9SAQCqUGY9LAu3CZjkVaZdBvRi2DKL"]}}],"blockhash":"0772907347aeb47bdb3ea2cd222b0f17ceb6c2ddf5a534f0aba0a4f9ace23abf","confirmations":27,"blocktime":1539532464}