{"hex":"010000001055e05b010df2b6532319c332a3a4def2e3b7c22bc6f8de84751cd051550ebaf8ab0586f60100000049483045022100cd39986c4eda67bb6f693abfd0182928f8f16819886b85196fe7e06809be1baa0220499cbca088a5913bf456c1b919eb67b71d3cfe776bca9f2d92e986b80e0d750901ffffffff0400000000000000000000a2941a1d000000232102fb3326e08108c9299e15e672caf2ed6f2a9885c7dc3fd8f2d139048597315283ac80b5941a1d000000232102fb3326e08108c9299e15e672caf2ed6f2a9885c7dc3fd8f2d139048597315283ac7d6e0000000000001976a91413cd926daa0b2e1422cabca27e3cbc3aebbee60e88ac00000000","txid":"4b16f8eafc5085f9821f7f8aae52e6cd34a0a144227cab8fdf8bc5b181db231a","version":1,"time":1541428496,"locktime":0,"vin":[{"txid":"f68605abf8ba0e5551d01c7584def8c62bc2b7e3f2dea4a332c3192353b6f20d","vout":1,"scriptSig":{"asm":"3045022100cd39986c4eda67bb6f693abfd0182928f8f16819886b85196fe7e06809be1baa0220499cbca088a5913bf456c1b919eb67b71d3cfe776bca9f2d92e986b80e0d750901","hex":"483045022100cd39986c4eda67bb6f693abfd0182928f8f16819886b85196fe7e06809be1baa0220499cbca088a5913bf456c1b919eb67b71d3cfe776bca9f2d92e986b80e0d750901"},"sequence":4294967295}],"vout":[{"value":0,"n":0,"scriptPubKey":{"asm":"","type":"nonstandard"}},{"value":1250,"n":1,"scriptPubKey":{"asm":"02fb3326e08108c9299e15e672caf2ed6f2a9885c7dc3fd8f2d139048597315283 OP_CHECKSIG","reqSigs":1,"type":"pubkey","addresses":["pTziuAqinUjYFVy6Da9fmDBWUTdPjXTj23"]}},{"value":1250.00004992,"n":2,"scriptPubKey":{"asm":"02fb3326e08108c9299e15e672caf2ed6f2a9885c7dc3fd8f2d139048597315283 OP_CHECKSIG","reqSigs":1,"type":"pubkey","addresses":["pTziuAqinUjYFVy6Da9fmDBWUTdPjXTj23"]}},{"value":0.00028285,"n":3,"scriptPubKey":{"asm":"OP_DUP OP_HASH160 13cd926daa0b2e1422cabca27e3cbc3aebbee60e OP_EQUALVERIFY OP_CHECKSIG","reqSigs":1,"type":"pubkeyhash","addresses":["p7MHJk1NCoVwVPjx7mEGWrpeSkLSYSZyuV"]}}],"blockhash":"a8ce2a4b695bbbf157923a5f068674c8ac96d8c9793c7f66e18ffc89742fa1d9","confirmations":37,"blocktime":1541428496}