{"hex":"010000001055e05b033adbbaa31370586efc9f05fa738eb1889cd7b18b99d1f417f8b5c12f60a7e10a010000006a47304402206987dc3f2f7d8084373fd4d92af091f47d1f0116c6556fe452f321ed59332a470220093758c21d73b9099c93ed378918a1adbeaa2dc67eca40a5286ad012be31eebe012103494180ac2da820441203d51ea5ef845037b851cc0461789d43be30169d980a6efffffffff6f62b3fe00ced52586d9b390ed4f0c3488ab80043caa50ecec9cf1ec35dc26f000000006b483045022100fd2b6da4c74d0970b79c00b05714dcf1945dd0e0bafe8291bd3fb26049b1836802202dc294b4e61101e42f3c96e9d7fb5a472cf919f2bbecfead35f6575345126e3d012102c389325aac10969b2cdbff37abc2a14b2e8e1e9cc2de613bd7dd309d168c1882ffffffffda77321aea356822dd0f9a88a14d3ba6b4a92399d69ac4915dfbc8513b0e66a4010000006b483045022100bed8ca70f4b3cf88fe640c1aa11a6a059df95abc7835409453d0a13f6dff3a2c022045435d1c4bf4ec1496e51183c568cb7ec323aeae33b1b985674827b1178f42870121029e857134122939a57279b02312e296a02bcf0cf876ddc541bd372450215dbeacffffffff0287321100000000001976a9146f5e588acf973f516219aca0887a6dfb1b396d6788ac77c7fb01000000001976a9144c1e7e3e59751a887750eec6fc7d976c240c15ff88ac00000000","txid":"7d6471fc8b76954f124b1e2ec610bc89c9087cc9216353eec384ba94d1275bdf","version":1,"time":1541428496,"locktime":0,"vin":[{"txid":"0ae1a7602fc1b5f817f4d1998bb1d79c88b18e73fa059ffc6e587013a3badb3a","vout":1,"scriptSig":{"asm":"304402206987dc3f2f7d8084373fd4d92af091f47d1f0116c6556fe452f321ed59332a470220093758c21d73b9099c93ed378918a1adbeaa2dc67eca40a5286ad012be31eebe01 03494180ac2da820441203d51ea5ef845037b851cc0461789d43be30169d980a6e","hex":"47304402206987dc3f2f7d8084373fd4d92af091f47d1f0116c6556fe452f321ed59332a470220093758c21d73b9099c93ed378918a1adbeaa2dc67eca40a5286ad012be31eebe012103494180ac2da820441203d51ea5ef845037b851cc0461789d43be30169d980a6e"},"sequence":4294967295},{"txid":"6fc25dc31ecfc9ce0ea5ca4300b88a48c3f0d40e399b6d5852ed0ce03f2bf6f6","vout":0,"scriptSig":{"asm":"3045022100fd2b6da4c74d0970b79c00b05714dcf1945dd0e0bafe8291bd3fb26049b1836802202dc294b4e61101e42f3c96e9d7fb5a472cf919f2bbecfead35f6575345126e3d01 02c389325aac10969b2cdbff37abc2a14b2e8e1e9cc2de613bd7dd309d168c1882","hex":"483045022100fd2b6da4c74d0970b79c00b05714dcf1945dd0e0bafe8291bd3fb26049b1836802202dc294b4e61101e42f3c96e9d7fb5a472cf919f2bbecfead35f6575345126e3d012102c389325aac10969b2cdbff37abc2a14b2e8e1e9cc2de613bd7dd309d168c1882"},"sequence":4294967295},{"txid":"a4660e3b51c8fb5d91c49ad69923a9b4a63b4da1889a0fdd226835ea1a3277da","vout":1,"scriptSig":{"asm":"3045022100bed8ca70f4b3cf88fe640c1aa11a6a059df95abc7835409453d0a13f6dff3a2c022045435d1c4bf4ec1496e51183c568cb7ec323aeae33b1b985674827b1178f428701 029e857134122939a57279b02312e296a02bcf0cf876ddc541bd372450215dbeac","hex":"483045022100bed8ca70f4b3cf88fe640c1aa11a6a059df95abc7835409453d0a13f6dff3a2c022045435d1c4bf4ec1496e51183c568cb7ec323aeae33b1b985674827b1178f42870121029e857134122939a57279b02312e296a02bcf0cf876ddc541bd372450215dbeac"},"sequence":4294967295}],"vout":[{"value":0.01127047,"n":0,"scriptPubKey":{"asm":"OP_DUP OP_HASH160 6f5e588acf973f516219aca0887a6dfb1b396d67 OP_EQUALVERIFY OP_CHECKSIG","reqSigs":1,"type":"pubkeyhash","addresses":["pFhSEGJEAadpDXgwoQvDG59bVc5zJ2YYJT"]}},{"value":0.33277815,"n":1,"scriptPubKey":{"asm":"OP_DUP OP_HASH160 4c1e7e3e59751a887750eec6fc7d976c240c15ff OP_EQUALVERIFY OP_CHECKSIG","reqSigs":1,"type":"pubkeyhash","addresses":["pCV45z66XxxSgxVgw9aT2xLvWEz7W8iM92"]}}],"blockhash":"a8ce2a4b695bbbf157923a5f068674c8ac96d8c9793c7f66e18ffc89742fa1d9","confirmations":37,"blocktime":1541428496}