{"hex":"01000000209ad65b011d936ccdb01fa75b2b17e0d7fec5503f0265a805eeb1d74dac4a7dd661b69afd01000000494830450221008ea576cd3d50a5d1cf09e185e8d1e3bb9618d5852f67ab3b52d597733fdf23ae02200fc7df3faa522535e2b660f2b7eda2129fd71b56f6f593cf2579ff8e95b331ed01ffffffff030000000000000000000fa9a1d1010000002321020b1cd26fc4b9f080aea1cf7b667efd5e8453f70429056589831fa7f63506ddbfac55000000000000001976a9147cf288aefa27580772a2e44d947f0a962553405d88ac00000000","txid":"347980b82f8de1a0f3d73aa58b18c2f227fed4b1c4bc828793ab43ed00bc2cb6","version":1,"time":1540790816,"locktime":0,"vin":[{"txid":"fd9ab661d67d4aac4dd7b1ee05a865023f50c5fed7e0172b5ba71fb0cd6c931d","vout":1,"scriptSig":{"asm":"30450221008ea576cd3d50a5d1cf09e185e8d1e3bb9618d5852f67ab3b52d597733fdf23ae02200fc7df3faa522535e2b660f2b7eda2129fd71b56f6f593cf2579ff8e95b331ed01","hex":"4830450221008ea576cd3d50a5d1cf09e185e8d1e3bb9618d5852f67ab3b52d597733fdf23ae02200fc7df3faa522535e2b660f2b7eda2129fd71b56f6f593cf2579ff8e95b331ed01"},"sequence":4294967295}],"vout":[{"value":0,"n":0,"scriptPubKey":{"asm":"","type":"nonstandard"}},{"value":78.12000015,"n":1,"scriptPubKey":{"asm":"020b1cd26fc4b9f080aea1cf7b667efd5e8453f70429056589831fa7f63506ddbf OP_CHECKSIG","reqSigs":1,"type":"pubkey","addresses":["pECTDpfW4nW8hYte3f3F9ZQxwgWmBwmcYL"]}},{"value":8.5e-7,"n":2,"scriptPubKey":{"asm":"OP_DUP OP_HASH160 7cf288aefa27580772a2e44d947f0a962553405d OP_EQUALVERIFY OP_CHECKSIG","reqSigs":1,"type":"pubkeyhash","addresses":["pGwEY3YdfsrsoLzpPy8zj5rEMTsKeC6Mb3"]}}],"blockhash":"8c610f3e951d7be106fe2ffcc26ad94817be5af5ff6e78d3a72cb5fcc75979f5","confirmations":241,"blocktime":1540790816}