{"hex":"010000001e9ad65b01b199f9b489ec594294d1a284cec88daec99e26d84112ffc60275d1ea969a46cf000000006a47304402203d26a90cf5460eff9df628c89992b55e772ff82f4ea2dce03098b0c6bc62496502205f183e54cdb1af511728056e1cd1ad1ac327ba881d4610d2c06b585aeae37114012102a5b5fdc8854b86b281d5742c55c430a442b871da5b608d34af5c3fa90ecb889bffffffff0242861200000000001976a914231eaf09b33cf44ebe44c344519c96248ae1663988ac10270000000000001976a9147644efb2f98070ab8304baf1c13f70d6ff68c27788ac00000000","txid":"7bf6d8bedea3b6cf5e6b922cfcd1ffca7e442605dbaeb425595e6d7d3da24904","version":1,"time":1540790816,"locktime":0,"vin":[{"txid":"cf469a96ead17502c6ff1241d8269ec9ae8dc8ce84a2d1944259ec89b4f999b1","vout":0,"scriptSig":{"asm":"304402203d26a90cf5460eff9df628c89992b55e772ff82f4ea2dce03098b0c6bc62496502205f183e54cdb1af511728056e1cd1ad1ac327ba881d4610d2c06b585aeae3711401 02a5b5fdc8854b86b281d5742c55c430a442b871da5b608d34af5c3fa90ecb889b","hex":"47304402203d26a90cf5460eff9df628c89992b55e772ff82f4ea2dce03098b0c6bc62496502205f183e54cdb1af511728056e1cd1ad1ac327ba881d4610d2c06b585aeae37114012102a5b5fdc8854b86b281d5742c55c430a442b871da5b608d34af5c3fa90ecb889b"},"sequence":4294967295}],"vout":[{"value":0.01214018,"n":0,"scriptPubKey":{"asm":"OP_DUP OP_HASH160 231eaf09b33cf44ebe44c344519c96248ae16639 OP_EQUALVERIFY OP_CHECKSIG","reqSigs":1,"type":"pubkeyhash","addresses":["p8kGcN2cDyT3mKt5j8otUQRm5HqrkZZjx4"]}},{"value":0.0001,"n":1,"scriptPubKey":{"asm":"OP_DUP OP_HASH160 7644efb2f98070ab8304baf1c13f70d6ff68c277 OP_EQUALVERIFY OP_CHECKSIG","reqSigs":1,"type":"pubkeyhash","addresses":["pGKvX7zTUoszjqX3isNoZuGqfxjuZZNAYs"]}}],"blockhash":"8c610f3e951d7be106fe2ffcc26ad94817be5af5ff6e78d3a72cb5fcc75979f5","confirmations":241,"blocktime":1540790816}