{"hex":"01000000605ed75b0129374c59086833139a18595d455cbd94c76aa2d1a7b2780d942de973e97a73580100000048473044022049dfe768ecfd2f610ffd44e4708edc756e12cf1b1dbcf69fb7a2cc96c3298c5602205fcd8fd2b72758bb089ddda6eb494dd5d22bbd07c271f381c1dfffbd51441a5801ffffffff030000000000000000004dd8aa32000000002321026ef57679057df94a5f72e9fead08857f8d7253a593b2b1feed1b68e92df4a4c5ac83ed0400000000001976a9147cf288aefa27580772a2e44d947f0a962553405d88ac00000000","txid":"156eff01e41ee98c46a6b7b80c7512484f00402e63adf7b51e1a5687148d2c84","version":1,"time":1540841056,"locktime":0,"vin":[{"txid":"58737ae973e92d940d78b2a7d1a26ac794bd5c455d59189a13336808594c3729","vout":1,"scriptSig":{"asm":"3044022049dfe768ecfd2f610ffd44e4708edc756e12cf1b1dbcf69fb7a2cc96c3298c5602205fcd8fd2b72758bb089ddda6eb494dd5d22bbd07c271f381c1dfffbd51441a5801","hex":"473044022049dfe768ecfd2f610ffd44e4708edc756e12cf1b1dbcf69fb7a2cc96c3298c5602205fcd8fd2b72758bb089ddda6eb494dd5d22bbd07c271f381c1dfffbd51441a5801"},"sequence":4294967295}],"vout":[{"value":0,"n":0,"scriptPubKey":{"asm":"","type":"nonstandard"}},{"value":8.50057293,"n":1,"scriptPubKey":{"asm":"026ef57679057df94a5f72e9fead08857f8d7253a593b2b1feed1b68e92df4a4c5 OP_CHECKSIG","reqSigs":1,"type":"pubkey","addresses":["p5dRZ9MeyiKDma1pAUrsmvEK4NBmmdC4ZN"]}},{"value":0.00322947,"n":2,"scriptPubKey":{"asm":"OP_DUP OP_HASH160 7cf288aefa27580772a2e44d947f0a962553405d OP_EQUALVERIFY OP_CHECKSIG","reqSigs":1,"type":"pubkeyhash","addresses":["pGwEY3YdfsrsoLzpPy8zj5rEMTsKeC6Mb3"]}}],"blockhash":"f98ec8ee6da80fc54aca6843045fba1f7d477d40c42bd93976ac57335203cb70","confirmations":184,"blocktime":1540841056}