{"hex":"01000000585ed75b0205127296f6e6ba2578f3e8923808949134612bb04dea0733ebf9c9482eefb630000000006b48304502210091b3f2d7ce38c9e223b19965f495ab24b43f90e1d657faab6298c65c9d414474022055484f584d8438740120c15164e8fcb00b8bcb85a6018cb6d0ae063c0b3cd5a8012103e88e4a0d84cc77faff444cf956d540e3fb8fc7bb455e19ea536f4feb45952c11fffffffff781295a45259f5c9eb6ba2ef506c75f9ad31fc014a25401e6039fd3155b5c7d010000006a47304402203d40a89fdc66736ef7f791de15f334d10dfa5e283ccd0045a46b081de3dd4e6d02201eaa45a10e5f757f9448f51c13e121c0723969ce0cf2cf0808f41b64cb0aef980121023cc82a075490c2988960795cd3380486f1f21af378d9d85bae6d6e28bd615a89ffffffff02beea2d00000000001976a91438ffb94801b72dfd2ba645cf40a4efae76e0499888ac0e68a516000000001976a9144b7482fa111ed8ab87d81a36e7b8455f3570ed5988ac00000000","txid":"fe1b1223ae238ec370bfee47198f504c39b0d0946e01221706621e18a8817ed7","version":1,"time":1540841056,"locktime":0,"vin":[{"txid":"30b6ef2e48c9f9eb3307ea4db02b61349194083892e8f37825bae6f696721205","vout":0,"scriptSig":{"asm":"304502210091b3f2d7ce38c9e223b19965f495ab24b43f90e1d657faab6298c65c9d414474022055484f584d8438740120c15164e8fcb00b8bcb85a6018cb6d0ae063c0b3cd5a801 03e88e4a0d84cc77faff444cf956d540e3fb8fc7bb455e19ea536f4feb45952c11","hex":"48304502210091b3f2d7ce38c9e223b19965f495ab24b43f90e1d657faab6298c65c9d414474022055484f584d8438740120c15164e8fcb00b8bcb85a6018cb6d0ae063c0b3cd5a8012103e88e4a0d84cc77faff444cf956d540e3fb8fc7bb455e19ea536f4feb45952c11"},"sequence":4294967295},{"txid":"7d5c5b15d39f03e60154a214c01fd39a5fc706f52ebab69e5c9f25455a2981f7","vout":1,"scriptSig":{"asm":"304402203d40a89fdc66736ef7f791de15f334d10dfa5e283ccd0045a46b081de3dd4e6d02201eaa45a10e5f757f9448f51c13e121c0723969ce0cf2cf0808f41b64cb0aef9801 023cc82a075490c2988960795cd3380486f1f21af378d9d85bae6d6e28bd615a89","hex":"47304402203d40a89fdc66736ef7f791de15f334d10dfa5e283ccd0045a46b081de3dd4e6d02201eaa45a10e5f757f9448f51c13e121c0723969ce0cf2cf0808f41b64cb0aef980121023cc82a075490c2988960795cd3380486f1f21af378d9d85bae6d6e28bd615a89"},"sequence":4294967295}],"vout":[{"value":0.03009214,"n":0,"scriptPubKey":{"asm":"OP_DUP OP_HASH160 38ffb94801b72dfd2ba645cf40a4efae76e04998 OP_EQUALVERIFY OP_CHECKSIG","reqSigs":1,"type":"pubkeyhash","addresses":["pAjxPSpjJ8eTWDaW9gvz1B57kppLXVssip"]}},{"value":3.7993883,"n":1,"scriptPubKey":{"asm":"OP_DUP OP_HASH160 4b7482fa111ed8ab87d81a36e7b8455f3570ed59 OP_EQUALVERIFY OP_CHECKSIG","reqSigs":1,"type":"pubkeyhash","addresses":["pCRYTTnhVebPj6qDKhoBAWgN8dqXKXcYGN"]}}],"blockhash":"f98ec8ee6da80fc54aca6843045fba1f7d477d40c42bd93976ac57335203cb70","confirmations":184,"blocktime":1540841056}