{"hex":"010000009bf6d95b02e4295952a1786c25fb55bf4812d13c39da30349f421080b6708a4987d2d0bc20000000006b483045022100e7532fef37d73af7147b65ffe067a4882c7a419b84d3708a980d56d228f518e00220125bf67a2618fedfdf4f2bae243d202010d306e153dd5ead4ab985aa1ac940590121028570432c1252b8ec432ec9dac49a2e6b66090964a42f8047daf848242c1d2d24ffffffffe4295952a1786c25fb55bf4812d13c39da30349f421080b6708a4987d2d0bc20010000006a473044022042031bf34b8bca215f2e430650de7c4960946e24d039d9e32618a848c48a0a0202204d28ad6aca28940fa5439408faafc894633b691f96c9fd609fdd7bd783f4a1ba012102ff160e2932db61929f1dbf34285692f4060f2dc1420a1699ba0a9f5601bd11e0ffffffff0208261000000000001976a914a480d57cb4b49b3afa33f00939e267b3020bc40888acacf88016000000001976a914d4b14dc9e42905152e9de213fc5071afde5bb0a488ac00000000","txid":"11ff64c14170e0fd9c5df3a50d58cb4711ed1d8626b4271e76becf42b69fdd16","version":1,"time":1541011104,"locktime":0,"vin":[{"txid":"20bcd0d287498a70b68010429f3430da393cd11248bf55fb256c78a1525929e4","vout":0,"scriptSig":{"asm":"3045022100e7532fef37d73af7147b65ffe067a4882c7a419b84d3708a980d56d228f518e00220125bf67a2618fedfdf4f2bae243d202010d306e153dd5ead4ab985aa1ac9405901 028570432c1252b8ec432ec9dac49a2e6b66090964a42f8047daf848242c1d2d24","hex":"483045022100e7532fef37d73af7147b65ffe067a4882c7a419b84d3708a980d56d228f518e00220125bf67a2618fedfdf4f2bae243d202010d306e153dd5ead4ab985aa1ac940590121028570432c1252b8ec432ec9dac49a2e6b66090964a42f8047daf848242c1d2d24"},"sequence":4294967295},{"txid":"20bcd0d287498a70b68010429f3430da393cd11248bf55fb256c78a1525929e4","vout":1,"scriptSig":{"asm":"3044022042031bf34b8bca215f2e430650de7c4960946e24d039d9e32618a848c48a0a0202204d28ad6aca28940fa5439408faafc894633b691f96c9fd609fdd7bd783f4a1ba01 02ff160e2932db61929f1dbf34285692f4060f2dc1420a1699ba0a9f5601bd11e0","hex":"473044022042031bf34b8bca215f2e430650de7c4960946e24d039d9e32618a848c48a0a0202204d28ad6aca28940fa5439408faafc894633b691f96c9fd609fdd7bd783f4a1ba012102ff160e2932db61929f1dbf34285692f4060f2dc1420a1699ba0a9f5601bd11e0"},"sequence":4294967295}],"vout":[{"value":0.01058312,"n":0,"scriptPubKey":{"asm":"OP_DUP OP_HASH160 a480d57cb4b49b3afa33f00939e267b3020bc408 OP_EQUALVERIFY OP_CHECKSIG","reqSigs":1,"type":"pubkeyhash","addresses":["pLYPMhot1DidLhTebZQFehVH3qtfiWkRwY"]}},{"value":3.7755102,"n":1,"scriptPubKey":{"asm":"OP_DUP OP_HASH160 d4b14dc9e42905152e9de213fc5071afde5bb0a4 OP_EQUALVERIFY OP_CHECKSIG","reqSigs":1,"type":"pubkeyhash","addresses":["pQwBrfLr5M7poFRTPLpgVpoCgBRA2pCfUV"]}}],"blockhash":"b3287eb23e226e81c48eb40b926d9129f26a49d536d82548d8632f8778aed61a","confirmations":126,"blocktime":1541011104}