{"hex":"01000000a0f6d95b012bade1daa82fcb98950e30624f3bbe6ceffdb7938ec1527b48f12060facdaba8010000004948304502210096df71b1ce5c36767d72388ed3fcdf6f9361282572487b1b3d295c317b79c79f02206e470e037a20ba8e76fc721855a749080c8388ea7b1b12eeeb4314b0f0ed816f01ffffffff0400000000000000000000a2941a1d0000002321037080154ad035d87bbe47e967ce43ddce5951865effbdda9b3c857d929ea146c7ac397f951a1d0000002321037080154ad035d87bbe47e967ce43ddce5951865effbdda9b3c857d929ea146c7ac96e50400000000001976a914239bf4dba7e2193b7f701a7b68d0e94c85d85fac88ac00000000","txid":"8890f10b349835a29a5e24a0b06a0483eb106b1810cca23e63321e8fd4e1173f","version":1,"time":1541011104,"locktime":0,"vin":[{"txid":"a8abcdfa6020f1487b52c18e93b7fdef6cbe3b4f62300e9598cb2fa8dae1ad2b","vout":1,"scriptSig":{"asm":"304502210096df71b1ce5c36767d72388ed3fcdf6f9361282572487b1b3d295c317b79c79f02206e470e037a20ba8e76fc721855a749080c8388ea7b1b12eeeb4314b0f0ed816f01","hex":"48304502210096df71b1ce5c36767d72388ed3fcdf6f9361282572487b1b3d295c317b79c79f02206e470e037a20ba8e76fc721855a749080c8388ea7b1b12eeeb4314b0f0ed816f01"},"sequence":4294967295}],"vout":[{"value":0,"n":0,"scriptPubKey":{"asm":"","type":"nonstandard"}},{"value":1250,"n":1,"scriptPubKey":{"asm":"037080154ad035d87bbe47e967ce43ddce5951865effbdda9b3c857d929ea146c7 OP_CHECKSIG","reqSigs":1,"type":"pubkey","addresses":["pEhwSeKiP8Q9UV5H4Vwts61nBy8VHfUUbd"]}},{"value":1250.00056633,"n":2,"scriptPubKey":{"asm":"037080154ad035d87bbe47e967ce43ddce5951865effbdda9b3c857d929ea146c7 OP_CHECKSIG","reqSigs":1,"type":"pubkey","addresses":["pEhwSeKiP8Q9UV5H4Vwts61nBy8VHfUUbd"]}},{"value":0.00320918,"n":3,"scriptPubKey":{"asm":"OP_DUP OP_HASH160 239bf4dba7e2193b7f701a7b68d0e94c85d85fac OP_EQUALVERIFY OP_CHECKSIG","reqSigs":1,"type":"pubkeyhash","addresses":["p8nrgTxTfKDC3hvmSmFxDcxpYguUCo8yWb"]}}],"blockhash":"b3287eb23e226e81c48eb40b926d9129f26a49d536d82548d8632f8778aed61a","confirmations":126,"blocktime":1541011104}