{"hex":"010000003ca0c25b010000000000000000000000000000000000000000000000000000000000000000ffffffff0401210102ffffffff0100000000000000001976a914e53ccfeddd16c2f61fa0f8f0b518754d48fd6e1b88ac00000000","txid":"3d883b66030a661505b97e33b0da38e7d55e4dc07a3db798055cbc17a884f1be","version":1,"time":1539481663,"locktime":0,"vin":[{"coinbase":"01210102","sequence":4294967295}],"vout":[{"value":0,"n":0,"scriptPubKey":{"asm":"OP_DUP OP_HASH160 e53ccfeddd16c2f61fa0f8f0b518754d48fd6e1b OP_EQUALVERIFY OP_CHECKSIG","reqSigs":1,"type":"pubkeyhash","addresses":["pSSfnwbLaAgNpVcx1YggRUTqG8aLwuwYij"]}}],"blockhash":"000001f32f80df87f6ef66ca8a3753cdbc9099cccffa110a8a09f1267352506a","confirmations":412,"blocktime":1539481663}