{"hex":"01000000604adb5b01024ce2ea31c31afc5b0931c95838aab58bdd7f8746737185bddd193312379a4e010000006b483045022100b265bb14e345b40c41601c8a11512448f966d64e14e7255b76b4af60b6be61aa02201a91fdcdfc19e3d1a7645449d29041a504d23ea51965fe7137936f1be867b749012102cdd894c89879e687bbd9442e3263819c4026661d89246e24d0c191f1d735807bffffffff04000000000000000000004429353a000000232102cdd894c89879e687bbd9442e3263819c4026661d89246e24d0c191f1d735807bac078229353a000000232102cdd894c89879e687bbd9442e3263819c4026661d89246e24d0c191f1d735807bac775f0100000000001976a914868614ec264fbcc17e0fe25b544f0740a29a3ffa88ac00000000","txid":"7d66c1f3889fd312af46cd0a35c65c1eaa06ee0a43ea982ee181515a2e9b32a3","version":1,"time":1541098080,"locktime":0,"vin":[{"txid":"4e9a37123319ddbd85717346877fdd8bb5aa3858c931095bfc1ac331eae24c02","vout":1,"scriptSig":{"asm":"3045022100b265bb14e345b40c41601c8a11512448f966d64e14e7255b76b4af60b6be61aa02201a91fdcdfc19e3d1a7645449d29041a504d23ea51965fe7137936f1be867b74901 02cdd894c89879e687bbd9442e3263819c4026661d89246e24d0c191f1d735807b","hex":"483045022100b265bb14e345b40c41601c8a11512448f966d64e14e7255b76b4af60b6be61aa02201a91fdcdfc19e3d1a7645449d29041a504d23ea51965fe7137936f1be867b749012102cdd894c89879e687bbd9442e3263819c4026661d89246e24d0c191f1d735807b"},"sequence":4294967295}],"vout":[{"value":0,"n":0,"scriptPubKey":{"asm":"","type":"nonstandard"}},{"value":2500,"n":1,"scriptPubKey":{"asm":"02cdd894c89879e687bbd9442e3263819c4026661d89246e24d0c191f1d735807b OP_CHECKSIG","reqSigs":1,"type":"pubkey","addresses":["pE8DBH6VheNWCoBfLHY8coXmUqVnKuU1Z8"]}},{"value":2500.00015879,"n":2,"scriptPubKey":{"asm":"02cdd894c89879e687bbd9442e3263819c4026661d89246e24d0c191f1d735807b OP_CHECKSIG","reqSigs":1,"type":"pubkey","addresses":["pE8DBH6VheNWCoBfLHY8coXmUqVnKuU1Z8"]}},{"value":0.00089975,"n":3,"scriptPubKey":{"asm":"OP_DUP OP_HASH160 868614ec264fbcc17e0fe25b544f0740a29a3ffa OP_EQUALVERIFY OP_CHECKSIG","reqSigs":1,"type":"pubkeyhash","addresses":["pHosNaAavGxjBXaJVQnyrJDcTKDMVqKujz"]}}],"blockhash":"01d243a663d90a100f9371c106cacd095435a4cc1f10e70cdac575d49d08a1e3","confirmations":81,"blocktime":1541098080}