{"hex":"01000000604adb5b01dce92b9a53de1c83051ed981ffe12b4c8fe8995eee60a9187f069adf78cf74b0010000006b483045022100dbc1ee59854870951109b0ae2928f606ecdd7d73d2f1b27fbf103e2160e3755c022070bc2d0a7c33ff6cbd72baeb6a59689ebe6455c3396befd3d98b7b53df56da24012103eadbcbb1be637098c26b137bac7a4a9b5131e1d81393278318bb46519637ff23ffffffff020e368c19000000001976a9141a71e7436353aff6519fe4d4e3bbc81f74f5071188acd7344f06000000001976a914beea5e002892963edcc659aca0fe94b5b0482c6e88ac00000000","txid":"8113671f03c2b0723f004fc5899fba44f89f83b39f6ec9ac5a8a57c6f22d1bbf","version":1,"time":1541098080,"locktime":0,"vin":[{"txid":"b074cf78df9a067f18a960ee5e99e88f4c2be1ff81d91e05831cde539a2be9dc","vout":1,"scriptSig":{"asm":"3045022100dbc1ee59854870951109b0ae2928f606ecdd7d73d2f1b27fbf103e2160e3755c022070bc2d0a7c33ff6cbd72baeb6a59689ebe6455c3396befd3d98b7b53df56da2401 03eadbcbb1be637098c26b137bac7a4a9b5131e1d81393278318bb46519637ff23","hex":"483045022100dbc1ee59854870951109b0ae2928f606ecdd7d73d2f1b27fbf103e2160e3755c022070bc2d0a7c33ff6cbd72baeb6a59689ebe6455c3396befd3d98b7b53df56da24012103eadbcbb1be637098c26b137bac7a4a9b5131e1d81393278318bb46519637ff23"},"sequence":4294967295}],"vout":[{"value":4.28619278,"n":0,"scriptPubKey":{"asm":"OP_DUP OP_HASH160 1a71e7436353aff6519fe4d4e3bbc81f74f50711 OP_EQUALVERIFY OP_CHECKSIG","reqSigs":1,"type":"pubkeyhash","addresses":["p7xQDqZrHtRqa4WXXqSrTwB9MWv8ZW5KxM"]}},{"value":1.05854167,"n":1,"scriptPubKey":{"asm":"OP_DUP OP_HASH160 beea5e002892963edcc659aca0fe94b5b0482c6e OP_EQUALVERIFY OP_CHECKSIG","reqSigs":1,"type":"pubkeyhash","addresses":["pNx3MGgSMCDyc4KiWDsaJNmH3TuRZSV6DR"]}}],"blockhash":"01d243a663d90a100f9371c106cacd095435a4cc1f10e70cdac575d49d08a1e3","confirmations":81,"blocktime":1541098080}