{"hex":"01000000a015d75b0109cc3ccf4905adefc97e14a57f73f2149358e8786fe0c378eb1d4382400f8319020000004948304502210081601203c5190ecbb2a3eaaf8d3aad8af53371fed2ead54c18bc8605300d0f87022029420660cc1bae235caee9156576e4dc662da2eb6942ea7da3086d05abed38a201ffffffff0400000000000000000000a9a1d1010000002321020b1cd26fc4b9f080aea1cf7b667efd5e8453f70429056589831fa7f63506ddbface6ebb0d1010000002321020b1cd26fc4b9f080aea1cf7b667efd5e8453f70429056589831fa7f63506ddbfac52030000000000001976a914b281632e032cac99462bf7779521442a307c52a088ac00000000","txid":"debd63dce3fa65d5875846f8c3a61d27e9de547d0e46ede361fdcfe3f96bf407","version":1,"time":1540822432,"locktime":0,"vin":[{"txid":"19830f4082431deb78c3e06f78e8589314f2737fa5147ec9efad0549cf3ccc09","vout":2,"scriptSig":{"asm":"304502210081601203c5190ecbb2a3eaaf8d3aad8af53371fed2ead54c18bc8605300d0f87022029420660cc1bae235caee9156576e4dc662da2eb6942ea7da3086d05abed38a201","hex":"48304502210081601203c5190ecbb2a3eaaf8d3aad8af53371fed2ead54c18bc8605300d0f87022029420660cc1bae235caee9156576e4dc662da2eb6942ea7da3086d05abed38a201"},"sequence":4294967295}],"vout":[{"value":0,"n":0,"scriptPubKey":{"asm":"","type":"nonstandard"}},{"value":78.12,"n":1,"scriptPubKey":{"asm":"020b1cd26fc4b9f080aea1cf7b667efd5e8453f70429056589831fa7f63506ddbf OP_CHECKSIG","reqSigs":1,"type":"pubkey","addresses":["pECTDpfW4nW8hYte3f3F9ZQxwgWmBwmcYL"]}},{"value":78.13000166,"n":2,"scriptPubKey":{"asm":"020b1cd26fc4b9f080aea1cf7b667efd5e8453f70429056589831fa7f63506ddbf OP_CHECKSIG","reqSigs":1,"type":"pubkey","addresses":["pECTDpfW4nW8hYte3f3F9ZQxwgWmBwmcYL"]}},{"value":0.0000085,"n":3,"scriptPubKey":{"asm":"OP_DUP OP_HASH160 b281632e032cac99462bf7779521442a307c52a0 OP_EQUALVERIFY OP_CHECKSIG","reqSigs":1,"type":"pubkeyhash","addresses":["pMpRUr5SqF4SLREGfNjMyHwaGCi3EHeLR1"]}}],"blockhash":"f7e8558a05ecd04616d6068767e5e3b1a64f159a33e87165388bc153812cd7b7","confirmations":200,"blocktime":1540822432}