{"hex":"010000009215d75b02df6c26ff88a218ff3a194cd140ac914abf3d1c09845fac9e76192bde392a0e4d000000006b483045022100fcbf05eeb9f86ab74dc17aea7920d9087e72335bc01535619a66187606ab2c90022066e81aa522f9428b9b0f879eb12f9b504179f81114b4bc1df90512e8bb1fbf97012102d948de54f7393d086a4f910fd097a998c7d989cd3b2267827f56f45f523f3824ffffffff6dd80780854b9c3be7980ff9aa7710e4bc5ebe0dd19c984517238efa47b278a7000000006a47304402206451a1b1be80ccc5dca2b72b365f584230062fa95e2d9d8583892003713e097002203a88472c03212df9107c46b080b2e988c9a9712a9756394087337c2e24acc31f0121029e857134122939a57279b02312e296a02bcf0cf876ddc541bd372450215dbeacffffffff02c65e0f00000000001976a9147dca19e02ec97f7df0bbc89d63e89f0454781fd988ac28460f00000000001976a9147f84cf2cc983882739a71404d679653504b484ec88ac00000000","txid":"edb9ea53a971a9e6766c57c7ad63139ffa7cdddea0056e3618ca768248eca580","version":1,"time":1540822432,"locktime":0,"vin":[{"txid":"4d0e2a39de2b19769eac5f84091c3dbf4a91ac40d14c193aff18a288ff266cdf","vout":0,"scriptSig":{"asm":"3045022100fcbf05eeb9f86ab74dc17aea7920d9087e72335bc01535619a66187606ab2c90022066e81aa522f9428b9b0f879eb12f9b504179f81114b4bc1df90512e8bb1fbf9701 02d948de54f7393d086a4f910fd097a998c7d989cd3b2267827f56f45f523f3824","hex":"483045022100fcbf05eeb9f86ab74dc17aea7920d9087e72335bc01535619a66187606ab2c90022066e81aa522f9428b9b0f879eb12f9b504179f81114b4bc1df90512e8bb1fbf97012102d948de54f7393d086a4f910fd097a998c7d989cd3b2267827f56f45f523f3824"},"sequence":4294967295},{"txid":"a778b247fa8e231745989cd10dbe5ebce41077aaf90f98e73b9c4b858007d86d","vout":0,"scriptSig":{"asm":"304402206451a1b1be80ccc5dca2b72b365f584230062fa95e2d9d8583892003713e097002203a88472c03212df9107c46b080b2e988c9a9712a9756394087337c2e24acc31f01 029e857134122939a57279b02312e296a02bcf0cf876ddc541bd372450215dbeac","hex":"47304402206451a1b1be80ccc5dca2b72b365f584230062fa95e2d9d8583892003713e097002203a88472c03212df9107c46b080b2e988c9a9712a9756394087337c2e24acc31f0121029e857134122939a57279b02312e296a02bcf0cf876ddc541bd372450215dbeac"},"sequence":4294967295}],"vout":[{"value":0.01007302,"n":0,"scriptPubKey":{"asm":"OP_DUP OP_HASH160 7dca19e02ec97f7df0bbc89d63e89f0454781fd9 OP_EQUALVERIFY OP_CHECKSIG","reqSigs":1,"type":"pubkeyhash","addresses":["pH1gmuvnFFwqAByRWLySuv1nSFKN8HJ2xu"]}},{"value":0.01001,"n":1,"scriptPubKey":{"asm":"OP_DUP OP_HASH160 7f84cf2cc983882739a71404d679653504b484ec OP_EQUALVERIFY OP_CHECKSIG","reqSigs":1,"type":"pubkeyhash","addresses":["pHAq7pRDDNbycbS1Hx492RbH2cp3aLK6eX"]}}],"blockhash":"f7e8558a05ecd04616d6068767e5e3b1a64f159a33e87165388bc153812cd7b7","confirmations":200,"blocktime":1540822432}