{"hex":"010000002028df5b047a8f97e96c690c31f208462ba004b2f825db89a505b2f4e9eac74a49d363a263020000006b483045022100a51ace08b96ece02a792e423bf5d859560226d39c9d6cb58506bb408ad60870102201e2858d6db31ddb4fe816a4d700831360742bcbf0f0444409d38949206312d48012103ded637fb2e1237df3883677d705f85a97ed346e525b021a0c91a13b35307eb36ffffffff1bb1b42604d85ecfc5f5e903c1a76755e875563cc27ce7790a4b1d40c89b3ac9030000006a47304402206d0c1854323f4cc935ae041daf71dab5a781b04582f9f7ad7f5ba09161005d16022073aa22a5652e102c24f9fb03dafa667173b6cd1ec60a6e52c6efbb6d4c0a95a4012103ded637fb2e1237df3883677d705f85a97ed346e525b021a0c91a13b35307eb36ffffffff54a0a10696b7b3c7f98a97c44fbf71a4d4d891edf2aac53e92a29692255fef02020000006b483045022100df4f49ea5d771c0ca4ffe899a628b4768980a431d1af42099feee7d3b844a75402206822b55dcf6c410dfdde479406f168357ceea63122d35f2d133fcbfb1cdd89ea012103ded637fb2e1237df3883677d705f85a97ed346e525b021a0c91a13b35307eb36ffffffff3144c6960dadd32c2ec14fe65d066cd6192e318919d2cc645ac006b58864e4ca020000006a473044022031f8fb1fdd17e5183a3ff4dbe9bfc104fbbb4ed26b8bc50355b7888d7bbf53d2022073c58e5731271d8fccbd680b068d3ff864041521b3ba85f512e52df56b55e831012103ded637fb2e1237df3883677d705f85a97ed346e525b021a0c91a13b35307eb36ffffffff03000000000000000000096a220a00000000232103ded637fb2e1237df3883677d705f85a97ed346e525b021a0c91a13b35307eb36ac34210000000000001976a9144c86b0b2edcbbfcf0d0112bbb160a541568205b788ac00000000","txid":"27ca4881db52c15e6ca180134d89a89ee18bb5ae5837b4917c2dd73c883b6306","version":1,"time":1541351456,"locktime":0,"vin":[{"txid":"63a263d3494ac7eae9f4b205a589db25f8b204a02b4608f2310c696ce9978f7a","vout":2,"scriptSig":{"asm":"3045022100a51ace08b96ece02a792e423bf5d859560226d39c9d6cb58506bb408ad60870102201e2858d6db31ddb4fe816a4d700831360742bcbf0f0444409d38949206312d4801 03ded637fb2e1237df3883677d705f85a97ed346e525b021a0c91a13b35307eb36","hex":"483045022100a51ace08b96ece02a792e423bf5d859560226d39c9d6cb58506bb408ad60870102201e2858d6db31ddb4fe816a4d700831360742bcbf0f0444409d38949206312d48012103ded637fb2e1237df3883677d705f85a97ed346e525b021a0c91a13b35307eb36"},"sequence":4294967295},{"txid":"c93a9bc8401d4b0a79e77cc23c5675e85567a7c103e9f5c5cf5ed80426b4b11b","vout":3,"scriptSig":{"asm":"304402206d0c1854323f4cc935ae041daf71dab5a781b04582f9f7ad7f5ba09161005d16022073aa22a5652e102c24f9fb03dafa667173b6cd1ec60a6e52c6efbb6d4c0a95a401 03ded637fb2e1237df3883677d705f85a97ed346e525b021a0c91a13b35307eb36","hex":"47304402206d0c1854323f4cc935ae041daf71dab5a781b04582f9f7ad7f5ba09161005d16022073aa22a5652e102c24f9fb03dafa667173b6cd1ec60a6e52c6efbb6d4c0a95a4012103ded637fb2e1237df3883677d705f85a97ed346e525b021a0c91a13b35307eb36"},"sequence":4294967295},{"txid":"02ef5f259296a2923ec5aaf2ed91d8d4a471bf4fc4978af9c7b3b79606a1a054","vout":2,"scriptSig":{"asm":"3045022100df4f49ea5d771c0ca4ffe899a628b4768980a431d1af42099feee7d3b844a75402206822b55dcf6c410dfdde479406f168357ceea63122d35f2d133fcbfb1cdd89ea01 03ded637fb2e1237df3883677d705f85a97ed346e525b021a0c91a13b35307eb36","hex":"483045022100df4f49ea5d771c0ca4ffe899a628b4768980a431d1af42099feee7d3b844a75402206822b55dcf6c410dfdde479406f168357ceea63122d35f2d133fcbfb1cdd89ea012103ded637fb2e1237df3883677d705f85a97ed346e525b021a0c91a13b35307eb36"},"sequence":4294967295},{"txid":"cae46488b506c05a64ccd21989312e19d66c065de64fc12e2cd3ad0d96c64431","vout":2,"scriptSig":{"asm":"3044022031f8fb1fdd17e5183a3ff4dbe9bfc104fbbb4ed26b8bc50355b7888d7bbf53d2022073c58e5731271d8fccbd680b068d3ff864041521b3ba85f512e52df56b55e83101 03ded637fb2e1237df3883677d705f85a97ed346e525b021a0c91a13b35307eb36","hex":"473044022031f8fb1fdd17e5183a3ff4dbe9bfc104fbbb4ed26b8bc50355b7888d7bbf53d2022073c58e5731271d8fccbd680b068d3ff864041521b3ba85f512e52df56b55e831012103ded637fb2e1237df3883677d705f85a97ed346e525b021a0c91a13b35307eb36"},"sequence":4294967295}],"vout":[{"value":0,"n":0,"scriptPubKey":{"asm":"","type":"nonstandard"}},{"value":1.70027529,"n":1,"scriptPubKey":{"asm":"03ded637fb2e1237df3883677d705f85a97ed346e525b021a0c91a13b35307eb36 OP_CHECKSIG","reqSigs":1,"type":"pubkey","addresses":["pKPGpRbrLFtB8pJLBr7nVTxsjHpfbwG83K"]}},{"value":0.000085,"n":2,"scriptPubKey":{"asm":"OP_DUP OP_HASH160 4c86b0b2edcbbfcf0d0112bbb160a541568205b7 OP_EQUALVERIFY OP_CHECKSIG","reqSigs":1,"type":"pubkeyhash","addresses":["pCXCuj4F9uaYHMue5Nqy3XLKdLz4U9gRoi"]}}],"blockhash":"b9545d113b8ed3bad14bbf562831f75f0d1b4d52001e4d3fed6b7734b0fb5e34","confirmations":48,"blocktime":1541351456}