{"hex":"010000001a28df5b01e3e24a289c5216d9e11c30e4491877e0313c699c14f1a817ca5114e9a7232dcd010000006b483045022100c4ab592c71994cb4578c066cf9e4d1b63d6d7f375d3d8f4791ec6d05f1176416022025443688f1bb48e4071f1215f9a4b5bbbfd48c171e5da7efffc0e24116cdcf700121027a63eb41fb5b1d0c41fa3e8bb739d687887b2e9d5191453467ee4b033887714affffffff0270235d05000000001976a9147bece4edf4ed4986d65ddf8acd65052d282cf7ab88ac80969800000000001976a9144c28ee798243702bc4500cdb4da9004130bb47f688ac00000000","txid":"a4660e3b51c8fb5d91c49ad69923a9b4a63b4da1889a0fdd226835ea1a3277da","version":1,"time":1541351456,"locktime":0,"vin":[{"txid":"cd2d23a7e91451ca17a8f1149c693c31e0771849e4301ce1d916529c284ae2e3","vout":1,"scriptSig":{"asm":"3045022100c4ab592c71994cb4578c066cf9e4d1b63d6d7f375d3d8f4791ec6d05f1176416022025443688f1bb48e4071f1215f9a4b5bbbfd48c171e5da7efffc0e24116cdcf7001 027a63eb41fb5b1d0c41fa3e8bb739d687887b2e9d5191453467ee4b033887714a","hex":"483045022100c4ab592c71994cb4578c066cf9e4d1b63d6d7f375d3d8f4791ec6d05f1176416022025443688f1bb48e4071f1215f9a4b5bbbfd48c171e5da7efffc0e24116cdcf700121027a63eb41fb5b1d0c41fa3e8bb739d687887b2e9d5191453467ee4b033887714a"},"sequence":4294967295}],"vout":[{"value":0.8999,"n":0,"scriptPubKey":{"asm":"OP_DUP OP_HASH160 7bece4edf4ed4986d65ddf8acd65052d282cf7ab OP_EQUALVERIFY OP_CHECKSIG","reqSigs":1,"type":"pubkeyhash","addresses":["pGqq715Ud8NHH9r4LQewguAosAP241hQb8"]}},{"value":0.1,"n":1,"scriptPubKey":{"asm":"OP_DUP OP_HASH160 4c28ee798243702bc4500cdb4da9004130bb47f6 OP_EQUALVERIFY OP_CHECKSIG","reqSigs":1,"type":"pubkeyhash","addresses":["pCVGbFvFLapGyskXvwfxG2ss21bRU9FqUh"]}}],"blockhash":"b9545d113b8ed3bad14bbf562831f75f0d1b4d52001e4d3fed6b7734b0fb5e34","confirmations":48,"blocktime":1541351456}