{"hex":"010000006f9ec25b010000000000000000000000000000000000000000000000000000000000000000ffffffff0401110101ffffffff0100000000000000001976a9149836a264aec4d19422273d0c791f8b0743b20c7a88ac00000000","txid":"10ade2816e856d2b3e2b7c222775cd8bbbd1a9b2499a998d8ee36c2fd3eae1b6","version":1,"time":1539481199,"locktime":0,"vin":[{"coinbase":"01110101","sequence":4294967295}],"vout":[{"value":0,"n":0,"scriptPubKey":{"asm":"OP_DUP OP_HASH160 9836a264aec4d19422273d0c791f8b0743b20c7a OP_EQUALVERIFY OP_CHECKSIG","reqSigs":1,"type":"pubkeyhash","addresses":["pKRQMvbXWRo3uX9wavY4Mo69FbY8PVFgzr"]}}],"blockhash":"0000062bea747d3d29971f6d49882d51c3e87469d079a99f01d9c65288b7b9c7","confirmations":428,"blocktime":1539481199}