{"hex":"01000000908ce05b05bd20a15aa83dfa085edb80df2a5400402e2b805865137f47aa3bd5023681ed0e020000006b48304502210086ba2cfc1e3a38860f5b759acb5281fa9f8abaed0f2afda7ef9754f6f8eb83f302204ef68de406e7a036deb18dfd53949aec109e7cfe23585bbecb35e5feabbd09dd012103c918da721a9564bfde1eb3e347ac352bf028a23eeafc2e69788601adb5b9dfabffffffffc0e567b79ce9355a1f12658e14d64639ab40a4bf46c37d0247f774271ca27307020000006a47304402204c0f76cec0e635c2108770302fa43f471eaddf9f1cbf6d5599176ebd23cbe2f202201fcf678bfa3ff48a645d9a403a9ba1d667e727d3f231c1b3becaa179055effed012103c918da721a9564bfde1eb3e347ac352bf028a23eeafc2e69788601adb5b9dfabffffffffc7a89a50fa64a19723e2d6b765490d875b7f710b5f9bfe6ae11dabe8a61c3b3e030000006a47304402201e16e7d831196ab9333258c09246b924e8ad610362320fc9e3a80789153aef8402201286ece2852333aa02065bee6ea62df53ff643ee6e6346aa0acb6785d4883ac0012103c918da721a9564bfde1eb3e347ac352bf028a23eeafc2e69788601adb5b9dfabffffffffcfceb683473f5b1ddd5d1c896112a4a22cd1faf9a0af56c79ae8605d1ffbd42b020000006a47304402205811326946530ea355c483344269985e8c23ca65837b18bef27dc76433e4daca02203559993dd25d7624c16f57c07717fe3d5b314e2e415921b8eb43a9b7710c878f012103c918da721a9564bfde1eb3e347ac352bf028a23eeafc2e69788601adb5b9dfabffffffffb774f9a40769b431d0b72d072cf18e8b8d9d7865e148b3748a4bbf9e309f1e7901000000484730440220695691ba67dcf7587438fb8c64d7f1cf961d3c6503c9bc149154cd9f300f9e5c02201f328e9384187fddabd677d9d3b13790b73891c5f24da8dfcf1c71880dcad75901ffffffff030000000000000000008bf5fc0b00000000232103c918da721a9564bfde1eb3e347ac352bf028a23eeafc2e69788601adb5b9dfabacc8a24200000000001976a914b281632e032cac99462bf7779521442a307c52a088ac00000000","txid":"4510244dfeed1b537bedd2e5ffb88c490c0209029e640bf14e508de16fb028c0","version":1,"time":1541442704,"locktime":0,"vin":[{"txid":"0eed813602d53baa477f136558802b2e4000542adf80db5e08fa3da85aa120bd","vout":2,"scriptSig":{"asm":"304502210086ba2cfc1e3a38860f5b759acb5281fa9f8abaed0f2afda7ef9754f6f8eb83f302204ef68de406e7a036deb18dfd53949aec109e7cfe23585bbecb35e5feabbd09dd01 03c918da721a9564bfde1eb3e347ac352bf028a23eeafc2e69788601adb5b9dfab","hex":"48304502210086ba2cfc1e3a38860f5b759acb5281fa9f8abaed0f2afda7ef9754f6f8eb83f302204ef68de406e7a036deb18dfd53949aec109e7cfe23585bbecb35e5feabbd09dd012103c918da721a9564bfde1eb3e347ac352bf028a23eeafc2e69788601adb5b9dfab"},"sequence":4294967295},{"txid":"0773a21c2774f747027dc346bfa440ab3946d6148e65121f5a35e99cb767e5c0","vout":2,"scriptSig":{"asm":"304402204c0f76cec0e635c2108770302fa43f471eaddf9f1cbf6d5599176ebd23cbe2f202201fcf678bfa3ff48a645d9a403a9ba1d667e727d3f231c1b3becaa179055effed01 03c918da721a9564bfde1eb3e347ac352bf028a23eeafc2e69788601adb5b9dfab","hex":"47304402204c0f76cec0e635c2108770302fa43f471eaddf9f1cbf6d5599176ebd23cbe2f202201fcf678bfa3ff48a645d9a403a9ba1d667e727d3f231c1b3becaa179055effed012103c918da721a9564bfde1eb3e347ac352bf028a23eeafc2e69788601adb5b9dfab"},"sequence":4294967295},{"txid":"3e3b1ca6e8ab1de16afe9b5f0b717f5b870d4965b7d6e22397a164fa509aa8c7","vout":3,"scriptSig":{"asm":"304402201e16e7d831196ab9333258c09246b924e8ad610362320fc9e3a80789153aef8402201286ece2852333aa02065bee6ea62df53ff643ee6e6346aa0acb6785d4883ac001 03c918da721a9564bfde1eb3e347ac352bf028a23eeafc2e69788601adb5b9dfab","hex":"47304402201e16e7d831196ab9333258c09246b924e8ad610362320fc9e3a80789153aef8402201286ece2852333aa02065bee6ea62df53ff643ee6e6346aa0acb6785d4883ac0012103c918da721a9564bfde1eb3e347ac352bf028a23eeafc2e69788601adb5b9dfab"},"sequence":4294967295},{"txid":"2bd4fb1f5d60e89ac756afa0f9fad12ca2a41261891c5ddd1d5b3f4783b6cecf","vout":2,"scriptSig":{"asm":"304402205811326946530ea355c483344269985e8c23ca65837b18bef27dc76433e4daca02203559993dd25d7624c16f57c07717fe3d5b314e2e415921b8eb43a9b7710c878f01 03c918da721a9564bfde1eb3e347ac352bf028a23eeafc2e69788601adb5b9dfab","hex":"47304402205811326946530ea355c483344269985e8c23ca65837b18bef27dc76433e4daca02203559993dd25d7624c16f57c07717fe3d5b314e2e415921b8eb43a9b7710c878f012103c918da721a9564bfde1eb3e347ac352bf028a23eeafc2e69788601adb5b9dfab"},"sequence":4294967295},{"txid":"791e9f309ebf4b8a74b348e165789d8d8b8ef12c072db7d031b46907a4f974b7","vout":1,"scriptSig":{"asm":"30440220695691ba67dcf7587438fb8c64d7f1cf961d3c6503c9bc149154cd9f300f9e5c02201f328e9384187fddabd677d9d3b13790b73891c5f24da8dfcf1c71880dcad75901","hex":"4730440220695691ba67dcf7587438fb8c64d7f1cf961d3c6503c9bc149154cd9f300f9e5c02201f328e9384187fddabd677d9d3b13790b73891c5f24da8dfcf1c71880dcad75901"},"sequence":4294967295}],"vout":[{"value":0,"n":0,"scriptPubKey":{"asm":"","type":"nonstandard"}},{"value":2.01127307,"n":1,"scriptPubKey":{"asm":"03c918da721a9564bfde1eb3e347ac352bf028a23eeafc2e69788601adb5b9dfab OP_CHECKSIG","reqSigs":1,"type":"pubkey","addresses":["pK5Eddk3vr4yi7hrwuoQfuFmrHAeSuez22"]}},{"value":0.04367048,"n":2,"scriptPubKey":{"asm":"OP_DUP OP_HASH160 b281632e032cac99462bf7779521442a307c52a0 OP_EQUALVERIFY OP_CHECKSIG","reqSigs":1,"type":"pubkeyhash","addresses":["pMpRUr5SqF4SLREGfNjMyHwaGCi3EHeLR1"]}}],"blockhash":"dd4df352aa3b936b5a4660715462d8d1cf3e36352d76d8663e1e276b4da8766c","confirmations":17,"blocktime":1541442704}