{"hex":"01000000838ce05b01204f06729d6bb46c5604ed6b0b11f4a409c3d38337ef1927b4b2f14381fc0455000000006a47304402200d0bf96da35df0f405a59caa7acea77dba2149bd4dd5983e5a187f1cc942714202201225a0cf3724775f57fa3fcbefac4c7a789b3934de1734dae270c9b36290616e01210310980bc4ce97d190f12bcd62c639af50e492f51c4ffdc672fc206575f66f7aebffffffff026161290c000000001976a914f4b6d762fd9e7776ef5f11f0bfa8552c33abdef588ac40243b32010000001976a9143c55ada465024ff628a253216fef08989749959a88ac00000000","txid":"f1e71680935eddacdde0d9dd0dc9042e63529b392ef763be43196439e9ed2992","version":1,"time":1541442704,"locktime":0,"vin":[{"txid":"5504fc8143f1b2b42719ef3783d3c309a4f4110b6bed04566cb46b9d72064f20","vout":0,"scriptSig":{"asm":"304402200d0bf96da35df0f405a59caa7acea77dba2149bd4dd5983e5a187f1cc942714202201225a0cf3724775f57fa3fcbefac4c7a789b3934de1734dae270c9b36290616e01 0310980bc4ce97d190f12bcd62c639af50e492f51c4ffdc672fc206575f66f7aeb","hex":"47304402200d0bf96da35df0f405a59caa7acea77dba2149bd4dd5983e5a187f1cc942714202201225a0cf3724775f57fa3fcbefac4c7a789b3934de1734dae270c9b36290616e01210310980bc4ce97d190f12bcd62c639af50e492f51c4ffdc672fc206575f66f7aeb"},"sequence":4294967295}],"vout":[{"value":2.04038497,"n":0,"scriptPubKey":{"asm":"OP_DUP OP_HASH160 f4b6d762fd9e7776ef5f11f0bfa8552c33abdef5 OP_EQUALVERIFY OP_CHECKSIG","reqSigs":1,"type":"pubkeyhash","addresses":["pTrW7YymvrFddb5yeF9vb6krZVSXVm6Mt8"]}},{"value":51.37704,"n":1,"scriptPubKey":{"asm":"OP_DUP OP_HASH160 3c55ada465024ff628a253216fef08989749959a OP_EQUALVERIFY OP_CHECKSIG","reqSigs":1,"type":"pubkeyhash","addresses":["pB3bPFJBZgGUyxv93ym6B8ah79foMBtLmS"]}}],"blockhash":"dd4df352aa3b936b5a4660715462d8d1cf3e36352d76d8663e1e276b4da8766c","confirmations":17,"blocktime":1541442704}