{"hex":"0100000022a0c25b010000000000000000000000000000000000000000000000000000000000000000ffffffff04011e0101ffffffff0100000000000000001976a9145991eec07e1e9bef6fa4ee7311cdb2bd532c837388ac00000000","txid":"338bfc26079286b16f2d856600a0f14dce4f726aefd43cd3150e455bec1d3a39","version":1,"time":1539481634,"locktime":0,"vin":[{"coinbase":"011e0101","sequence":4294967295}],"vout":[{"value":0,"n":0,"scriptPubKey":{"asm":"OP_DUP OP_HASH160 5991eec07e1e9bef6fa4ee7311cdb2bd532c8373 OP_EQUALVERIFY OP_CHECKSIG","reqSigs":1,"type":"pubkeyhash","addresses":["pDiBAMYPmPQTAqZeaNFZFkyGT7XknSfsWz"]}}],"blockhash":"00000734b698a370c7114f9536488beb9e72ed57aee2b029ee8ebca6675872bc","confirmations":129,"blocktime":1539481634}