{"hex":"010000003ac3d95b015fe353a57e3b4e3c5f8c513c4da550c65a77b7210f4dad47b267c7e43956e096010000006b483045022100c910fd78c31d3f0ae87b7d87b867538570b3f1e612792ba7b7e3cbd35fb73d2802201f51b0f22b946ff61611c6d61cb92e18324cb1300fafc2e377827c6e33524cb1012102de8815db44bcb25a9c040c02f809cc7e4db7d6564424457c3f27b30ddaa175c2ffffffff02fb528e00000000001976a9144c28ee798243702bc4500cdb4da9004130bb47f688accdfe6b02000000001976a914122a72b08384b1e5e7c9247c2ae2d6b6777dd7da88ac00000000","txid":"6b6d4fde36255acb3684161affc9da1cfaa42c8c8c5afee1471595b6eff19e3e","version":1,"time":1540997952,"locktime":0,"vin":[{"txid":"96e05639e4c767b247ad4d0f21b7775ac650a54d3c518c5f3c4e3b7ea553e35f","vout":1,"scriptSig":{"asm":"3045022100c910fd78c31d3f0ae87b7d87b867538570b3f1e612792ba7b7e3cbd35fb73d2802201f51b0f22b946ff61611c6d61cb92e18324cb1300fafc2e377827c6e33524cb101 02de8815db44bcb25a9c040c02f809cc7e4db7d6564424457c3f27b30ddaa175c2","hex":"483045022100c910fd78c31d3f0ae87b7d87b867538570b3f1e612792ba7b7e3cbd35fb73d2802201f51b0f22b946ff61611c6d61cb92e18324cb1300fafc2e377827c6e33524cb1012102de8815db44bcb25a9c040c02f809cc7e4db7d6564424457c3f27b30ddaa175c2"},"sequence":4294967295}],"vout":[{"value":0.09327355,"n":0,"scriptPubKey":{"asm":"OP_DUP OP_HASH160 4c28ee798243702bc4500cdb4da9004130bb47f6 OP_EQUALVERIFY OP_CHECKSIG","reqSigs":1,"type":"pubkeyhash","addresses":["pCVGbFvFLapGyskXvwfxG2ss21bRU9FqUh"]}},{"value":0.40632013,"n":1,"scriptPubKey":{"asm":"OP_DUP OP_HASH160 122a72b08384b1e5e7c9247c2ae2d6b6777dd7da OP_EQUALVERIFY OP_CHECKSIG","reqSigs":1,"type":"pubkeyhash","addresses":["p7CdDVpLf69g9HRgDzSdHhH8vGCvUxhhAD"]}}],"blockhash":"ed7bf5f600158e71fd18864a7cc9d8e046c67c13f8e023c0cc6328121a79695f","confirmations":134,"blocktime":1540997952}