{"hex":"0100000040c3d95b01679b9d553f793fb72be19f99b3735350dad6e23076f2960c157ea64f771e89a80100000049483045022100c1795473e921f834288f424479c2c0c897efc8168ea68a47c3b77d164f9c727002202e8e005bda7c987d46ef818c63de05f7f998912d38780428dffede5f9f5bad6001ffffffff04000000000000000000007f74a4030000002321028d9be6ae35cf9126d1ddd81f7e9a33d77e64d908c42bf417d6424ba1da9106a6accf9674a4030000002321028d9be6ae35cf9126d1ddd81f7e9a33d77e64d908c42bf417d6424ba1da9106a6ace9860000000000001976a9141992ad5700ade9422585b3e7af7cd994d29d4ca888ac00000000","txid":"dbc57a71ff302f6b446251337648f79a5e93651a5f5bfd4e15ba6e670570ea31","version":1,"time":1540997952,"locktime":0,"vin":[{"txid":"a8891e774fa67e150c96f27630e2d6da505373b3999fe12bb73f793f559d9b67","vout":1,"scriptSig":{"asm":"3045022100c1795473e921f834288f424479c2c0c897efc8168ea68a47c3b77d164f9c727002202e8e005bda7c987d46ef818c63de05f7f998912d38780428dffede5f9f5bad6001","hex":"483045022100c1795473e921f834288f424479c2c0c897efc8168ea68a47c3b77d164f9c727002202e8e005bda7c987d46ef818c63de05f7f998912d38780428dffede5f9f5bad6001"},"sequence":4294967295}],"vout":[{"value":0,"n":0,"scriptPubKey":{"asm":"","type":"nonstandard"}},{"value":156.44,"n":1,"scriptPubKey":{"asm":"028d9be6ae35cf9126d1ddd81f7e9a33d77e64d908c42bf417d6424ba1da9106a6 OP_CHECKSIG","reqSigs":1,"type":"pubkey","addresses":["pG17eAwgEzq6zQQ7cLzvCMepRqGYMprwdz"]}},{"value":156.44006095,"n":2,"scriptPubKey":{"asm":"028d9be6ae35cf9126d1ddd81f7e9a33d77e64d908c42bf417d6424ba1da9106a6 OP_CHECKSIG","reqSigs":1,"type":"pubkey","addresses":["pG17eAwgEzq6zQQ7cLzvCMepRqGYMprwdz"]}},{"value":0.00034537,"n":3,"scriptPubKey":{"asm":"OP_DUP OP_HASH160 1992ad5700ade9422585b3e7af7cd994d29d4ca8 OP_EQUALVERIFY OP_CHECKSIG","reqSigs":1,"type":"pubkeyhash","addresses":["p7snoofvhm9cmcDcAmpbzCVHFFEt2fdccj"]}}],"blockhash":"ed7bf5f600158e71fd18864a7cc9d8e046c67c13f8e023c0cc6328121a79695f","confirmations":134,"blocktime":1540997952}