{"hex":"01000000c199d45b029f1bea1c013365911b58895c2b85833b549084ed87ae4cbc08fb689fc2abd18c000000006b483045022100a2f2d7c05461773a4b615b28f4b46eaef2883bb95b97428d7e15237ec2ac17a00220652d7bb10eb07c444ecccb3369e1d7446c3e731bf7f3a14e727df6cfa1f8888b0121029e857134122939a57279b02312e296a02bcf0cf876ddc541bd372450215dbeacffffffff9f1bea1c013365911b58895c2b85833b549084ed87ae4cbc08fb689fc2abd18c010000006a4730440220320578960bf265800a99e5370194c6fc4378caeeb0c5ec2e83d9742518438d2602202120de6f900cba95962ecae4d56b71f1204c89a14a476a175677cf0f19e63e59012103eb46bd650cff4f7743442e97cafc35d2f8d8d8e2c1501009be3f49bc37b65067ffffffff02a7e71200000000001976a9144c28ee798243702bc4500cdb4da9004130bb47f688ac0dc61800000000001976a9147cdd612530848dcfe2911a97c380e8cf1a8be0d388ac00000000","txid":"5f0b88a0890ee10fe3abaedffbaea8cf4d3df836b23cfc87c027064f3cb7324f","version":1,"time":1540659664,"locktime":0,"vin":[{"txid":"8cd1abc29f68fb08bc4cae87ed8490543b83852b5c89581b916533011cea1b9f","vout":0,"scriptSig":{"asm":"3045022100a2f2d7c05461773a4b615b28f4b46eaef2883bb95b97428d7e15237ec2ac17a00220652d7bb10eb07c444ecccb3369e1d7446c3e731bf7f3a14e727df6cfa1f8888b01 029e857134122939a57279b02312e296a02bcf0cf876ddc541bd372450215dbeac","hex":"483045022100a2f2d7c05461773a4b615b28f4b46eaef2883bb95b97428d7e15237ec2ac17a00220652d7bb10eb07c444ecccb3369e1d7446c3e731bf7f3a14e727df6cfa1f8888b0121029e857134122939a57279b02312e296a02bcf0cf876ddc541bd372450215dbeac"},"sequence":4294967295},{"txid":"8cd1abc29f68fb08bc4cae87ed8490543b83852b5c89581b916533011cea1b9f","vout":1,"scriptSig":{"asm":"30440220320578960bf265800a99e5370194c6fc4378caeeb0c5ec2e83d9742518438d2602202120de6f900cba95962ecae4d56b71f1204c89a14a476a175677cf0f19e63e5901 03eb46bd650cff4f7743442e97cafc35d2f8d8d8e2c1501009be3f49bc37b65067","hex":"4730440220320578960bf265800a99e5370194c6fc4378caeeb0c5ec2e83d9742518438d2602202120de6f900cba95962ecae4d56b71f1204c89a14a476a175677cf0f19e63e59012103eb46bd650cff4f7743442e97cafc35d2f8d8d8e2c1501009be3f49bc37b65067"},"sequence":4294967295}],"vout":[{"value":0.01238951,"n":0,"scriptPubKey":{"asm":"OP_DUP OP_HASH160 4c28ee798243702bc4500cdb4da9004130bb47f6 OP_EQUALVERIFY OP_CHECKSIG","reqSigs":1,"type":"pubkeyhash","addresses":["pCVGbFvFLapGyskXvwfxG2ss21bRU9FqUh"]}},{"value":0.01623565,"n":1,"scriptPubKey":{"asm":"OP_DUP OP_HASH160 7cdd612530848dcfe2911a97c380e8cf1a8be0d3 OP_EQUALVERIFY OP_CHECKSIG","reqSigs":1,"type":"pubkeyhash","addresses":["pGvoCD217kWZusVSGBJh4AwrPDy4PAW78L"]}}],"blockhash":"2b2476dc69ca575b5c953b9e65dcc1297200bf01d42ec4c08dc629ca757dc488","confirmations":284,"blocktime":1540659664}