{"hex":"01000000d099d45b012f5904c7aebcc5a98542a26672bcc161de30381a47a6a08fe6c95edef6c5eeb00100000048473044022040f6014cfafca6077f52006cc974884fbcd1d9a4d09d50cc0e87b25bc5ce82e902201b7d4a4f71f47f69118e6df7bc441c20ada3364c0cac211bdd9d929654f4829901ffffffff03000000000000000000eae1000000000000232103531e7c29915e2f85123aade7131811bc4779e99af1d5f4a72ede586ee0b2c6c6ac63050000000000001976a914f0371486e89ca3a2057c60329aff065cd986aee188ac00000000","txid":"8ba3364dcf2c5d5ab3d0609613664efae191227d2ebf5273e2de02cfdd096a16","version":1,"time":1540659664,"locktime":0,"vin":[{"txid":"b0eec5f6de5ec9e68fa0a6471a3830de61c1bc7266a24285a9c5bcaec704592f","vout":1,"scriptSig":{"asm":"3044022040f6014cfafca6077f52006cc974884fbcd1d9a4d09d50cc0e87b25bc5ce82e902201b7d4a4f71f47f69118e6df7bc441c20ada3364c0cac211bdd9d929654f4829901","hex":"473044022040f6014cfafca6077f52006cc974884fbcd1d9a4d09d50cc0e87b25bc5ce82e902201b7d4a4f71f47f69118e6df7bc441c20ada3364c0cac211bdd9d929654f4829901"},"sequence":4294967295}],"vout":[{"value":0,"n":0,"scriptPubKey":{"asm":"","type":"nonstandard"}},{"value":0.00057834,"n":1,"scriptPubKey":{"asm":"03531e7c29915e2f85123aade7131811bc4779e99af1d5f4a72ede586ee0b2c6c6 OP_CHECKSIG","reqSigs":1,"type":"pubkey","addresses":["pLcCv1RBNEWf4q17fiPMGMYqeFUvP9a826"]}},{"value":0.00001379,"n":2,"scriptPubKey":{"asm":"OP_DUP OP_HASH160 f0371486e89ca3a2057c60329aff065cd986aee1 OP_EQUALVERIFY OP_CHECKSIG","reqSigs":1,"type":"pubkeyhash","addresses":["pTSiMnNaB4wjS22bEGEEkNcu17kmCfBCLj"]}}],"blockhash":"2b2476dc69ca575b5c953b9e65dcc1297200bf01d42ec4c08dc629ca757dc488","confirmations":284,"blocktime":1540659664}