{"hex":"010000005447d65b02230236ee6b37940ca2c8e4cd9c227953b403e5e245f97f744bdd6b86b2f3a620000000006a473044022026f8214b62d5d98974381ea64fa9f46c932939bd70a6e9a607db392f620d839c022002ce0b607c7c020ec82ebf0aba23c3b7c56c126cb4afaec015f9924faba2f5b00121029e857134122939a57279b02312e296a02bcf0cf876ddc541bd372450215dbeacffffffff230236ee6b37940ca2c8e4cd9c227953b403e5e245f97f744bdd6b86b2f3a620010000006a47304402200fca4153026e17790a5abd118ac2490a015ad7d694ced674bdae6c7effa9ef8402200fc5b3e51d19836218e0094d09ff4520f38c1fe42764320257555616a7f286d4012102f4158fd71b58b1ce00181b591901525e157a463f6645a56763d01e36b45206e9ffffffff02ce971500000000001976a91441bd2c9e4ced6ab1ee78c4d7f5697663626196ad88ac40407f00000000001976a91472879159dbd91f351851ef9cb7e3033e48363c1c88ac00000000","txid":"09b5ecbb31e8f7b40a06fd2f08819a6c0d86c63d11242ea2602fa43af1e14dfd","version":1,"time":1540769632,"locktime":0,"vin":[{"txid":"20a6f3b2866bdd4b747ff945e2e503b45379229ccde4c8a20c94376bee360223","vout":0,"scriptSig":{"asm":"3044022026f8214b62d5d98974381ea64fa9f46c932939bd70a6e9a607db392f620d839c022002ce0b607c7c020ec82ebf0aba23c3b7c56c126cb4afaec015f9924faba2f5b001 029e857134122939a57279b02312e296a02bcf0cf876ddc541bd372450215dbeac","hex":"473044022026f8214b62d5d98974381ea64fa9f46c932939bd70a6e9a607db392f620d839c022002ce0b607c7c020ec82ebf0aba23c3b7c56c126cb4afaec015f9924faba2f5b00121029e857134122939a57279b02312e296a02bcf0cf876ddc541bd372450215dbeac"},"sequence":4294967295},{"txid":"20a6f3b2866bdd4b747ff945e2e503b45379229ccde4c8a20c94376bee360223","vout":1,"scriptSig":{"asm":"304402200fca4153026e17790a5abd118ac2490a015ad7d694ced674bdae6c7effa9ef8402200fc5b3e51d19836218e0094d09ff4520f38c1fe42764320257555616a7f286d401 02f4158fd71b58b1ce00181b591901525e157a463f6645a56763d01e36b45206e9","hex":"47304402200fca4153026e17790a5abd118ac2490a015ad7d694ced674bdae6c7effa9ef8402200fc5b3e51d19836218e0094d09ff4520f38c1fe42764320257555616a7f286d4012102f4158fd71b58b1ce00181b591901525e157a463f6645a56763d01e36b45206e9"},"sequence":4294967295}],"vout":[{"value":0.01415118,"n":0,"scriptPubKey":{"asm":"OP_DUP OP_HASH160 41bd2c9e4ced6ab1ee78c4d7f5697663626196ad OP_EQUALVERIFY OP_CHECKSIG","reqSigs":1,"type":"pubkeyhash","addresses":["pBYAkEZdqCrZKUcyUxQ3eVBRTMKk3ARmg1"]}},{"value":0.0833952,"n":1,"scriptPubKey":{"asm":"OP_DUP OP_HASH160 72879159dbd91f351851ef9cb7e3033e48363c1c OP_EQUALVERIFY OP_CHECKSIG","reqSigs":1,"type":"pubkeyhash","addresses":["pFz9dzHdhtb2XaG2METSLSCGFMHsNYsS58"]}}],"blockhash":"6a041536dbd294403318afa86f9ee04daaff0066fcab0977245971219223d084","confirmations":251,"blocktime":1540769632}