{"hex":"010000006047d65b0191fca192c9c5ae4e3ae217381cf64678f3c25228b92b72e609352b9bb35d684702000000494830450221009f6622ea84d6256dfcf4b4f7b27f98e5545fd3e11a9fcaad32ae5f7191d4485802203f24e7e995fec25ba7c62b85b26a99f9bea1bcfa8ad14d85afc947428ece049101ffffffff04000000000000000000409452a3030000002321020b1cd26fc4b9f080aea1cf7b667efd5e8453f70429056589831fa7f63506ddbfacc89952a3030000002321020b1cd26fc4b9f080aea1cf7b667efd5e8453f70429056589831fa7f63506ddbfacb01b0000000000001976a9146ee8ae815746df1e1038d51169f823db3353ab0488ac00000000","txid":"3e191fa29121572d5c228366f5ba78e9adff7464056d911deded4890e8b6bc1b","version":1,"time":1540769632,"locktime":0,"vin":[{"txid":"47685db39b2b3509e6722bb92852c2f37846f61c3817e23a4eaec5c992a1fc91","vout":2,"scriptSig":{"asm":"30450221009f6622ea84d6256dfcf4b4f7b27f98e5545fd3e11a9fcaad32ae5f7191d4485802203f24e7e995fec25ba7c62b85b26a99f9bea1bcfa8ad14d85afc947428ece049101","hex":"4830450221009f6622ea84d6256dfcf4b4f7b27f98e5545fd3e11a9fcaad32ae5f7191d4485802203f24e7e995fec25ba7c62b85b26a99f9bea1bcfa8ad14d85afc947428ece049101"},"sequence":4294967295}],"vout":[{"value":0,"n":0,"scriptPubKey":{"asm":"","type":"nonstandard"}},{"value":156.25,"n":1,"scriptPubKey":{"asm":"020b1cd26fc4b9f080aea1cf7b667efd5e8453f70429056589831fa7f63506ddbf OP_CHECKSIG","reqSigs":1,"type":"pubkey","addresses":["pECTDpfW4nW8hYte3f3F9ZQxwgWmBwmcYL"]}},{"value":156.25001416,"n":2,"scriptPubKey":{"asm":"020b1cd26fc4b9f080aea1cf7b667efd5e8453f70429056589831fa7f63506ddbf OP_CHECKSIG","reqSigs":1,"type":"pubkey","addresses":["pECTDpfW4nW8hYte3f3F9ZQxwgWmBwmcYL"]}},{"value":0.00007088,"n":3,"scriptPubKey":{"asm":"OP_DUP OP_HASH160 6ee8ae815746df1e1038d51169f823db3353ab04 OP_EQUALVERIFY OP_CHECKSIG","reqSigs":1,"type":"pubkeyhash","addresses":["pFf1Gp4G6PCkSUxUY1XLwNBH2ji6sBJMC3"]}}],"blockhash":"6a041536dbd294403318afa86f9ee04daaff0066fcab0977245971219223d084","confirmations":251,"blocktime":1540769632}