{"hex":"010000001a2ed75b0212c3eade41d7f20b87278cf3f81ea23c136cbb78f1467b6b5773c90d00f505cd000000006b4830450221008f05a0b3a963a3a20e8cbeaaed1140b00a220a3a1548977fb7d631e78d8736e9022073aa38f562b320604c56aaa1e270e0da2e565747f1ec6abd494397b7c44f4673012102d0f72342f678115b56e7a9e0753c12392f97bfb166bb1f59239404b8da26d1dfffffffff12c3eade41d7f20b87278cf3f81ea23c136cbb78f1467b6b5773c90d00f505cd010000006a4730440220309f6389c3b3ea0b7f608390304cda51edab6956e81684f4d6474d9e071bca5f02205e942be715be2d6f8c33f4e001d19b34ea7ae6a079b6853564bd1c3e505477ab0121028859f3c0ae705e3ae13415984274f9560e394af9ab4df18a659495684d2868e3ffffffff02b97b3000000000001976a9145e89d87a7416a18dfeb0c9c8163eb67270af796a88ac476fed09000000001976a914375162dafa3916e7abb76dfd0a27bd7f7914e8f288ac00000000","txid":"d303e50c01108ab00d3b5ea65671b6659e7101ac7901bad5ebce2d0196e73955","version":1,"time":1540828704,"locktime":0,"vin":[{"txid":"cd05f5000dc973576b7b46f178bb6c133ca21ef8f38c27870bf2d741deeac312","vout":0,"scriptSig":{"asm":"30450221008f05a0b3a963a3a20e8cbeaaed1140b00a220a3a1548977fb7d631e78d8736e9022073aa38f562b320604c56aaa1e270e0da2e565747f1ec6abd494397b7c44f467301 02d0f72342f678115b56e7a9e0753c12392f97bfb166bb1f59239404b8da26d1df","hex":"4830450221008f05a0b3a963a3a20e8cbeaaed1140b00a220a3a1548977fb7d631e78d8736e9022073aa38f562b320604c56aaa1e270e0da2e565747f1ec6abd494397b7c44f4673012102d0f72342f678115b56e7a9e0753c12392f97bfb166bb1f59239404b8da26d1df"},"sequence":4294967295},{"txid":"cd05f5000dc973576b7b46f178bb6c133ca21ef8f38c27870bf2d741deeac312","vout":1,"scriptSig":{"asm":"30440220309f6389c3b3ea0b7f608390304cda51edab6956e81684f4d6474d9e071bca5f02205e942be715be2d6f8c33f4e001d19b34ea7ae6a079b6853564bd1c3e505477ab01 028859f3c0ae705e3ae13415984274f9560e394af9ab4df18a659495684d2868e3","hex":"4730440220309f6389c3b3ea0b7f608390304cda51edab6956e81684f4d6474d9e071bca5f02205e942be715be2d6f8c33f4e001d19b34ea7ae6a079b6853564bd1c3e505477ab0121028859f3c0ae705e3ae13415984274f9560e394af9ab4df18a659495684d2868e3"},"sequence":4294967295}],"vout":[{"value":0.03177401,"n":0,"scriptPubKey":{"asm":"OP_DUP OP_HASH160 5e89d87a7416a18dfeb0c9c8163eb67270af796a OP_EQUALVERIFY OP_CHECKSIG","reqSigs":1,"type":"pubkeyhash","addresses":["pEASrRG4Lrxfb5heeHvMakGRyeiQeJUY4m"]}},{"value":1.66555463,"n":1,"scriptPubKey":{"asm":"OP_DUP OP_HASH160 375162dafa3916e7abb76dfd0a27bd7f7914e8f2 OP_EQUALVERIFY OP_CHECKSIG","reqSigs":1,"type":"pubkeyhash","addresses":["pAb4s4jzpWdPFfXdEbYLv4ysFx7eofsY6e"]}}],"blockhash":"5710ce0a1a9580a1fc3122c7d72d7c8fa293481de1bc171a9c29687bf0daba91","confirmations":193,"blocktime":1540828704}