{"hex":"01000000202ed75b01e5f9966e30cad2c5cb540dc165673557643abe10544fab51e0d11906537176360100000049483045022100fb510c60c3f4805d4e3ab98dacfd4057ff0e60758d8597848be584b80847926102206b6fc0756f3e0b9d81b8dbfb9f9a65c064a8d9c822e310d09ead7583a08b320301ffffffff030000000000000000007e56b1d1010000002321020b1cd26fc4b9f080aea1cf7b667efd5e8453f70429056589831fa7f63506ddbfac03290200000000001976a91405799d876e3b7c328ae01baece26d0f931b0f5fa88ac00000000","txid":"e83355e265eff3caa2bed3e67f65f1c21701232eb8633cd313c0b4413e87b49a","version":1,"time":1540828704,"locktime":0,"vin":[{"txid":"367671530619d1e051ab4f5410be3a6457356765c10d54cbc5d2ca306e96f9e5","vout":1,"scriptSig":{"asm":"3045022100fb510c60c3f4805d4e3ab98dacfd4057ff0e60758d8597848be584b80847926102206b6fc0756f3e0b9d81b8dbfb9f9a65c064a8d9c822e310d09ead7583a08b320301","hex":"483045022100fb510c60c3f4805d4e3ab98dacfd4057ff0e60758d8597848be584b80847926102206b6fc0756f3e0b9d81b8dbfb9f9a65c064a8d9c822e310d09ead7583a08b320301"},"sequence":4294967295}],"vout":[{"value":0,"n":0,"scriptPubKey":{"asm":"","type":"nonstandard"}},{"value":78.13027454,"n":1,"scriptPubKey":{"asm":"020b1cd26fc4b9f080aea1cf7b667efd5e8453f70429056589831fa7f63506ddbf OP_CHECKSIG","reqSigs":1,"type":"pubkey","addresses":["pECTDpfW4nW8hYte3f3F9ZQxwgWmBwmcYL"]}},{"value":0.00141571,"n":2,"scriptPubKey":{"asm":"OP_DUP OP_HASH160 05799d876e3b7c328ae01baece26d0f931b0f5fa OP_EQUALVERIFY OP_CHECKSIG","reqSigs":1,"type":"pubkeyhash","addresses":["p63XGeVRkcywXEQJE5bkXjJFiugf8tT1er"]}}],"blockhash":"5710ce0a1a9580a1fc3122c7d72d7c8fa293481de1bc171a9c29687bf0daba91","confirmations":193,"blocktime":1540828704}