{"hex":"010000006af3da5b04465a0cda05d8b85095e141257ee4f7c23aa3dca960a9555736a826d25baabcc2000000006b483045022100b2bbc1745d3bce339b6a8085e7ca2d02efb37795e589b270a080c451c86dc1e502201c43ebf8ee2d60a5bfe072f76122dc61f8755ecd28483e254959b43f6907a5380121029e857134122939a57279b02312e296a02bcf0cf876ddc541bd372450215dbeacffffffff465a0cda05d8b85095e141257ee4f7c23aa3dca960a9555736a826d25baabcc2010000006a473044022076cfda94c4803d6dafb93578f047c81c4bddd937e5c97d6f98edc23b924855dd02203749383ceea40301390d65f8edab8c98a377432d340c7d095c553c284a38dd8f012103d5a868b94374e9f7778bb97b07be2aa6bda77b8b309206c0842d3b10ac466debfffffffffff1e285f1d8abab40aa9413effd23ca3b133599239ff191192bf2af3c018fb3000000006b483045022100a2dc5431de075522e4e595e9d8c14f15f71bbfc1ef833aa33765296e1ffdeed4022043babb74f894bba29b15d59dcfbc8f2c3d9abfd1c0a159fbc018779fcd826e580121029e857134122939a57279b02312e296a02bcf0cf876ddc541bd372450215dbeacffffffffabb48675b51310c5abe4cc89ad1cfab512f738d85d660e15af10e2a2d4ed28d2000000006b483045022100cc1634e2e04e5123897bf2d6f9460803acd8ac69775506510c156caa2a8fee330220453b6bc6fe4aaaa7d240f0e66cd2726eb4102b4f7d93f581ead27f1c4595703601210317aaf9fd0a42d6be8468979ba058cf6ec4a9e0e5addac4c96ac51e86b7524145ffffffff029c3b1300000000001976a9141ef2a847f61437da51b438d626bd9d25f655f61a88ac80969800000000001976a914ecfe4c0b8bee9a174bebec371d35e1a8c6e4c67788ac00000000","txid":"d606eb9733cf6e19e5021fea7862e412be1f96265ee930c946fcfa98ad86075e","version":1,"time":1541075824,"locktime":0,"vin":[{"txid":"c2bcaa5bd226a8365755a960a9dca33ac2f7e47e2541e19550b8d805da0c5a46","vout":0,"scriptSig":{"asm":"3045022100b2bbc1745d3bce339b6a8085e7ca2d02efb37795e589b270a080c451c86dc1e502201c43ebf8ee2d60a5bfe072f76122dc61f8755ecd28483e254959b43f6907a53801 029e857134122939a57279b02312e296a02bcf0cf876ddc541bd372450215dbeac","hex":"483045022100b2bbc1745d3bce339b6a8085e7ca2d02efb37795e589b270a080c451c86dc1e502201c43ebf8ee2d60a5bfe072f76122dc61f8755ecd28483e254959b43f6907a5380121029e857134122939a57279b02312e296a02bcf0cf876ddc541bd372450215dbeac"},"sequence":4294967295},{"txid":"c2bcaa5bd226a8365755a960a9dca33ac2f7e47e2541e19550b8d805da0c5a46","vout":1,"scriptSig":{"asm":"3044022076cfda94c4803d6dafb93578f047c81c4bddd937e5c97d6f98edc23b924855dd02203749383ceea40301390d65f8edab8c98a377432d340c7d095c553c284a38dd8f01 03d5a868b94374e9f7778bb97b07be2aa6bda77b8b309206c0842d3b10ac466deb","hex":"473044022076cfda94c4803d6dafb93578f047c81c4bddd937e5c97d6f98edc23b924855dd02203749383ceea40301390d65f8edab8c98a377432d340c7d095c553c284a38dd8f012103d5a868b94374e9f7778bb97b07be2aa6bda77b8b309206c0842d3b10ac466deb"},"sequence":4294967295},{"txid":"b38f013caff22b1991f19f239935133bca23fdef1394aa40ababd8f185e2f1ff","vout":0,"scriptSig":{"asm":"3045022100a2dc5431de075522e4e595e9d8c14f15f71bbfc1ef833aa33765296e1ffdeed4022043babb74f894bba29b15d59dcfbc8f2c3d9abfd1c0a159fbc018779fcd826e5801 029e857134122939a57279b02312e296a02bcf0cf876ddc541bd372450215dbeac","hex":"483045022100a2dc5431de075522e4e595e9d8c14f15f71bbfc1ef833aa33765296e1ffdeed4022043babb74f894bba29b15d59dcfbc8f2c3d9abfd1c0a159fbc018779fcd826e580121029e857134122939a57279b02312e296a02bcf0cf876ddc541bd372450215dbeac"},"sequence":4294967295},{"txid":"d228edd4a2e210af150e665dd838f712b5fa1cad89cce4abc51013b57586b4ab","vout":0,"scriptSig":{"asm":"3045022100cc1634e2e04e5123897bf2d6f9460803acd8ac69775506510c156caa2a8fee330220453b6bc6fe4aaaa7d240f0e66cd2726eb4102b4f7d93f581ead27f1c4595703601 0317aaf9fd0a42d6be8468979ba058cf6ec4a9e0e5addac4c96ac51e86b7524145","hex":"483045022100cc1634e2e04e5123897bf2d6f9460803acd8ac69775506510c156caa2a8fee330220453b6bc6fe4aaaa7d240f0e66cd2726eb4102b4f7d93f581ead27f1c4595703601210317aaf9fd0a42d6be8468979ba058cf6ec4a9e0e5addac4c96ac51e86b7524145"},"sequence":4294967295}],"vout":[{"value":0.01260444,"n":0,"scriptPubKey":{"asm":"OP_DUP OP_HASH160 1ef2a847f61437da51b438d626bd9d25f655f61a OP_EQUALVERIFY OP_CHECKSIG","reqSigs":1,"type":"pubkeyhash","addresses":["p8NDAb6EHrzdC6tp8zRMM7w2GqPK4Jidae"]}},{"value":0.1,"n":1,"scriptPubKey":{"asm":"OP_DUP OP_HASH160 ecfe4c0b8bee9a174bebec371d35e1a8c6e4c677 OP_EQUALVERIFY OP_CHECKSIG","reqSigs":1,"type":"pubkeyhash","addresses":["pT9gJr3XujTfqAvmjUf1Rm5WdZ5DR2RLbi"]}}],"blockhash":"62c4628bdf1ac10ecb8f361d82f8de4c66774c799501c83ade35d1a1887c555b","confirmations":114,"blocktime":1541075824}