{"hex":"0100000070f3da5b01934f1ef01f828a3b3975a179e8078d0e11a532ad65914c6c5ebc2c07b3ca753b010000006b483045022100ad02d11c97832e5b9cbbc9a1363b63df53221796ab508749b37bc027e2c92daf02207ad1dd244e6706486a70e8658706ca333dd8784832c0dc8f6bdbe3c96cc13c21012103f98fe2632fab54e64af25b30cb1601b07259379f488db5c93b4adbd6b962f5b9ffffffff04000000000000000000004429353a000000232103f98fe2632fab54e64af25b30cb1601b07259379f488db5c93b4adbd6b962f5b9acdc4929353a000000232103f98fe2632fab54e64af25b30cb1601b07259379f488db5c93b4adbd6b962f5b9ac34210000000000001976a91473471adebcd697ea1dc18e8db2582a74a6bab88188ac00000000","txid":"db0d4b126abc526f6f6ca15fc4028a7a31be507d433aa262559f847c0765a2f7","version":1,"time":1541075824,"locktime":0,"vin":[{"txid":"3b75cab3072cbc5e6c4c9165ad32a5110e8d07e879a175393b8a821ff01e4f93","vout":1,"scriptSig":{"asm":"3045022100ad02d11c97832e5b9cbbc9a1363b63df53221796ab508749b37bc027e2c92daf02207ad1dd244e6706486a70e8658706ca333dd8784832c0dc8f6bdbe3c96cc13c2101 03f98fe2632fab54e64af25b30cb1601b07259379f488db5c93b4adbd6b962f5b9","hex":"483045022100ad02d11c97832e5b9cbbc9a1363b63df53221796ab508749b37bc027e2c92daf02207ad1dd244e6706486a70e8658706ca333dd8784832c0dc8f6bdbe3c96cc13c21012103f98fe2632fab54e64af25b30cb1601b07259379f488db5c93b4adbd6b962f5b9"},"sequence":4294967295}],"vout":[{"value":0,"n":0,"scriptPubKey":{"asm":"","type":"nonstandard"}},{"value":2500,"n":1,"scriptPubKey":{"asm":"03f98fe2632fab54e64af25b30cb1601b07259379f488db5c93b4adbd6b962f5b9 OP_CHECKSIG","reqSigs":1,"type":"pubkey","addresses":["p7snoofvhm9cmcDcAmpbzCVHFFEt2fdccj"]}},{"value":2500.000015,"n":2,"scriptPubKey":{"asm":"03f98fe2632fab54e64af25b30cb1601b07259379f488db5c93b4adbd6b962f5b9 OP_CHECKSIG","reqSigs":1,"type":"pubkey","addresses":["p7snoofvhm9cmcDcAmpbzCVHFFEt2fdccj"]}},{"value":0.000085,"n":3,"scriptPubKey":{"asm":"OP_DUP OP_HASH160 73471adebcd697ea1dc18e8db2582a74a6bab881 OP_EQUALVERIFY OP_CHECKSIG","reqSigs":1,"type":"pubkeyhash","addresses":["pG476E2NDDXyKLQPSQr8zUwis1yY3UyfR9"]}}],"blockhash":"62c4628bdf1ac10ecb8f361d82f8de4c66774c799501c83ade35d1a1887c555b","confirmations":114,"blocktime":1541075824}