{"hex":"010000000aa2c25b010000000000000000000000000000000000000000000000000000000000000000ffffffff04014b0102ffffffff0100000000000000001976a914dc06941a15cf3c869b2169cf1f1979fab320d57d88ac00000000","txid":"d81e4610b3d8bbfc327a436bc67db8d43858c5bcd7259f9326a76a1d3ff14c41","version":1,"time":1539482125,"locktime":0,"vin":[{"coinbase":"014b0102","sequence":4294967295}],"vout":[{"value":0,"n":0,"scriptPubKey":{"asm":"OP_DUP OP_HASH160 dc06941a15cf3c869b2169cf1f1979fab320d57d OP_EQUALVERIFY OP_CHECKSIG","reqSigs":1,"type":"pubkeyhash","addresses":["pRbxjzVSqjzXMiraKqt2APK4aaAMqLqpns"]}}],"blockhash":"000006514926b0cf3be08f71a6d2978fd120ea56cb256b69a867f1b830eaa2e0","confirmations":84,"blocktime":1539482125}