{"hex":"010000006698d45b02d4737d30d11fb82d9bad567098de4a7bad82f9b1e31cad0d04f56919ee05c9c1000000006a473044022078999c841c03cbeb1766799951df3c96672f26340c1c31677c39c6a29ff3354b02203ac5f6f0109217410844e4e5837096cfc8bee8427658015882e064edd75792840121029e857134122939a57279b02312e296a02bcf0cf876ddc541bd372450215dbeacffffffffd4737d30d11fb82d9bad567098de4a7bad82f9b1e31cad0d04f56919ee05c9c1010000006b483045022100aaabe00c27452f437743f705c0389c9518abf0716df0d7e127b906571fc2a09e022027f9e7d2d07ce0ba06638d47497f4fcf70f7eddd6bf09af8f0bb2ba68771ab8c012103ca4100e752307c5690c6b073d06340603acee90bef76cd6cae90c6a56620bbadffffffff0282b31000000000001976a9144c28ee798243702bc4500cdb4da9004130bb47f688ac73580100000000001976a914100076c450cab2608cd06378380c6612a42a2fba88ac00000000","txid":"7602b8c29f0e4f7b7932e473e64ce2dfe6c505c08043368a18791713aaaea0b3","version":1,"time":1540659312,"locktime":0,"vin":[{"txid":"c1c905ee1969f5040dad1ce3b1f982ad7b4ade987056ad9b2db81fd1307d73d4","vout":0,"scriptSig":{"asm":"3044022078999c841c03cbeb1766799951df3c96672f26340c1c31677c39c6a29ff3354b02203ac5f6f0109217410844e4e5837096cfc8bee8427658015882e064edd757928401 029e857134122939a57279b02312e296a02bcf0cf876ddc541bd372450215dbeac","hex":"473044022078999c841c03cbeb1766799951df3c96672f26340c1c31677c39c6a29ff3354b02203ac5f6f0109217410844e4e5837096cfc8bee8427658015882e064edd75792840121029e857134122939a57279b02312e296a02bcf0cf876ddc541bd372450215dbeac"},"sequence":4294967295},{"txid":"c1c905ee1969f5040dad1ce3b1f982ad7b4ade987056ad9b2db81fd1307d73d4","vout":1,"scriptSig":{"asm":"3045022100aaabe00c27452f437743f705c0389c9518abf0716df0d7e127b906571fc2a09e022027f9e7d2d07ce0ba06638d47497f4fcf70f7eddd6bf09af8f0bb2ba68771ab8c01 03ca4100e752307c5690c6b073d06340603acee90bef76cd6cae90c6a56620bbad","hex":"483045022100aaabe00c27452f437743f705c0389c9518abf0716df0d7e127b906571fc2a09e022027f9e7d2d07ce0ba06638d47497f4fcf70f7eddd6bf09af8f0bb2ba68771ab8c012103ca4100e752307c5690c6b073d06340603acee90bef76cd6cae90c6a56620bbad"},"sequence":4294967295}],"vout":[{"value":0.0109453,"n":0,"scriptPubKey":{"asm":"OP_DUP OP_HASH160 4c28ee798243702bc4500cdb4da9004130bb47f6 OP_EQUALVERIFY OP_CHECKSIG","reqSigs":1,"type":"pubkeyhash","addresses":["pCVGbFvFLapGyskXvwfxG2ss21bRU9FqUh"]}},{"value":0.00088179,"n":1,"scriptPubKey":{"asm":"OP_DUP OP_HASH160 100076c450cab2608cd06378380c6612a42a2fba OP_EQUALVERIFY OP_CHECKSIG","reqSigs":1,"type":"pubkeyhash","addresses":["p71Ba1W6NtQtsCm7CHUnFugc99mK5yfh5A"]}}],"blockhash":"07ced38ec4f9939f0040d60a239ce88fc8ac2867d3bff77a6c056f7346c42855","confirmations":286,"blocktime":1540659312}