{"hex":"010000007098d45b01d16fe21e16fe82b5c3ffb112ead601d2f2c7b6aba492a4d9ceebd80b6d49dcfd010000006b483045022100a42a6193b11a483d76a35c44cb02fc6c7a1c253a9adc9c1f2a39d14a7cab349e02203e42a137c3836af6ed3f17ee39a052e5725080381982378cd0e6a548f20ec84001210225f56582c0abe2781838770c5c30998678f9fa83ab5fbd05d306fd8d18795aa9ffffffff04000000000000000000004429353a00000023210225f56582c0abe2781838770c5c30998678f9fa83ab5fbd05d306fd8d18795aa9ac0f4429353a00000023210225f56582c0abe2781838770c5c30998678f9fa83ab5fbd05d306fd8d18795aa9ac55000000000000001976a914c98c77a9774bba2295618369afffb431dfa7a76188ac00000000","txid":"8000a90f3b4d27ce9fc4fafe24f9e5c25c0fc06b77086e9d5088951369a4150f","version":1,"time":1540659312,"locktime":0,"vin":[{"txid":"fddc496d0bd8ebced9a492a4abb6c7f2d201d6ea12b1ffc3b582fe161ee26fd1","vout":1,"scriptSig":{"asm":"3045022100a42a6193b11a483d76a35c44cb02fc6c7a1c253a9adc9c1f2a39d14a7cab349e02203e42a137c3836af6ed3f17ee39a052e5725080381982378cd0e6a548f20ec84001 0225f56582c0abe2781838770c5c30998678f9fa83ab5fbd05d306fd8d18795aa9","hex":"483045022100a42a6193b11a483d76a35c44cb02fc6c7a1c253a9adc9c1f2a39d14a7cab349e02203e42a137c3836af6ed3f17ee39a052e5725080381982378cd0e6a548f20ec84001210225f56582c0abe2781838770c5c30998678f9fa83ab5fbd05d306fd8d18795aa9"},"sequence":4294967295}],"vout":[{"value":0,"n":0,"scriptPubKey":{"asm":"","type":"nonstandard"}},{"value":2500,"n":1,"scriptPubKey":{"asm":"0225f56582c0abe2781838770c5c30998678f9fa83ab5fbd05d306fd8d18795aa9 OP_CHECKSIG","reqSigs":1,"type":"pubkey","addresses":["pCKW9SAQCqUGY9LAu3CZjkVaZdBvRi2DKL"]}},{"value":2500.00000015,"n":2,"scriptPubKey":{"asm":"0225f56582c0abe2781838770c5c30998678f9fa83ab5fbd05d306fd8d18795aa9 OP_CHECKSIG","reqSigs":1,"type":"pubkey","addresses":["pCKW9SAQCqUGY9LAu3CZjkVaZdBvRi2DKL"]}},{"value":8.5e-7,"n":3,"scriptPubKey":{"asm":"OP_DUP OP_HASH160 c98c77a9774bba2295618369afffb431dfa7a761 OP_EQUALVERIFY OP_CHECKSIG","reqSigs":1,"type":"pubkeyhash","addresses":["pPvGJ7RaHWgFFf4mpU2Xn8sUqejUBfqoKj"]}}],"blockhash":"07ced38ec4f9939f0040d60a239ce88fc8ac2867d3bff77a6c056f7346c42855","confirmations":286,"blocktime":1540659312}