{"hex":"010000008f78dc5b04722f733d4a2dc090537e2803f3e0acd8601c3f4b86e4df733213b9b335df0733000000006a47304402202f43793e7c53c95bf5be7e95943951ba6a8f93796aaccadbedbba6a3919f5cca02201ff3735e70ce55ab295baa891849e7cdba7a7e05a6fbb6acb217068dc918cab2012102c1a58cdd601b4df2257c65dea657ad70469656d5c9f0304fabaa3ea680805e85ffffffff59d5e32af8300d79d71c0873bb68023101a078cd5e8698f6376de34771f47061010000006a473044022013ccb209d71b4b92b432b292cfaf4c588bea2e343537a9e929a174c10e571db502200eee604ea4a12ee43df66cd319fbf646bd65a0c17db2a763a9061fbc079ccb4f012103d57f08f5f0edd8aae0fa55fbe7a99dc408909af137b6906113693537563c0ff4ffffffff3d69e774cd8cc16d504a2863e6a7ad1500b5d9af0e153d4499890f0ac469fc0b010000006a473044022062df8cdbcb6affdb6eeb9e16d566288f5d56aaa171d1989dca949be986d4d68a0220536295f854de6f8ec79cf1037641400860833bc467e1ba25d1195afd2a11136e012103ad1e8a22f0b75232b062fc571724d6ee2c89100b4e0bba2491de1940b9838defffffffff5c6c47bf49a1f7801aad7ccd7eaa9615835e2246fff3fb5f7ba6797fcf39faba000000006b483045022100b6b898cd538b4eeab773918c3ed289fb8f1217d938a07a766c8f8ca5ed2ec3b0022000a1936d414957b837d394ab336535131c4e33e271163f80b3a580cb44b4e6d20121035203d07311ccf96c75c52ffcca07e5caa014243af4a371eeac9a6086228c05e4ffffffff0249e11100000000001976a91422f4b2d04ea5a91f97ff496cf285c8ec8510331188acc07b8912000000001976a91470a6c89e35dd535e7ad0869620d0357dc30da80688ac00000000","txid":"7d2ca8ef6efa284ff61c3daeba036b0fa69e483c728cea320b9cf0047c988549","version":1,"time":1541175440,"locktime":0,"vin":[{"txid":"3307df35b3b9133273dfe4864b3f1c60d8ace0f303287e5390c02d4a3d732f72","vout":0,"scriptSig":{"asm":"304402202f43793e7c53c95bf5be7e95943951ba6a8f93796aaccadbedbba6a3919f5cca02201ff3735e70ce55ab295baa891849e7cdba7a7e05a6fbb6acb217068dc918cab201 02c1a58cdd601b4df2257c65dea657ad70469656d5c9f0304fabaa3ea680805e85","hex":"47304402202f43793e7c53c95bf5be7e95943951ba6a8f93796aaccadbedbba6a3919f5cca02201ff3735e70ce55ab295baa891849e7cdba7a7e05a6fbb6acb217068dc918cab2012102c1a58cdd601b4df2257c65dea657ad70469656d5c9f0304fabaa3ea680805e85"},"sequence":4294967295},{"txid":"6170f47147e36d37f698865ecd78a001310268bb73081cd7790d30f82ae3d559","vout":1,"scriptSig":{"asm":"3044022013ccb209d71b4b92b432b292cfaf4c588bea2e343537a9e929a174c10e571db502200eee604ea4a12ee43df66cd319fbf646bd65a0c17db2a763a9061fbc079ccb4f01 03d57f08f5f0edd8aae0fa55fbe7a99dc408909af137b6906113693537563c0ff4","hex":"473044022013ccb209d71b4b92b432b292cfaf4c588bea2e343537a9e929a174c10e571db502200eee604ea4a12ee43df66cd319fbf646bd65a0c17db2a763a9061fbc079ccb4f012103d57f08f5f0edd8aae0fa55fbe7a99dc408909af137b6906113693537563c0ff4"},"sequence":4294967295},{"txid":"0bfc69c40a0f8999443d150eafd9b50015ada7e663284a506dc18ccd74e7693d","vout":1,"scriptSig":{"asm":"3044022062df8cdbcb6affdb6eeb9e16d566288f5d56aaa171d1989dca949be986d4d68a0220536295f854de6f8ec79cf1037641400860833bc467e1ba25d1195afd2a11136e01 03ad1e8a22f0b75232b062fc571724d6ee2c89100b4e0bba2491de1940b9838def","hex":"473044022062df8cdbcb6affdb6eeb9e16d566288f5d56aaa171d1989dca949be986d4d68a0220536295f854de6f8ec79cf1037641400860833bc467e1ba25d1195afd2a11136e012103ad1e8a22f0b75232b062fc571724d6ee2c89100b4e0bba2491de1940b9838def"},"sequence":4294967295},{"txid":"bafa39cf7f79a67b5ffbf3ff46225e831596aa7ecd7cad1a80f7a149bf476c5c","vout":0,"scriptSig":{"asm":"3045022100b6b898cd538b4eeab773918c3ed289fb8f1217d938a07a766c8f8ca5ed2ec3b0022000a1936d414957b837d394ab336535131c4e33e271163f80b3a580cb44b4e6d201 035203d07311ccf96c75c52ffcca07e5caa014243af4a371eeac9a6086228c05e4","hex":"483045022100b6b898cd538b4eeab773918c3ed289fb8f1217d938a07a766c8f8ca5ed2ec3b0022000a1936d414957b837d394ab336535131c4e33e271163f80b3a580cb44b4e6d20121035203d07311ccf96c75c52ffcca07e5caa014243af4a371eeac9a6086228c05e4"},"sequence":4294967295}],"vout":[{"value":0.01171785,"n":0,"scriptPubKey":{"asm":"OP_DUP OP_HASH160 22f4b2d04ea5a91f97ff496cf285c8ec85103311 OP_EQUALVERIFY OP_CHECKSIG","reqSigs":1,"type":"pubkeyhash","addresses":["p8jQKBDgT9MKkfZDEmYg61dXJzSnGRwDyX"]}},{"value":3.11,"n":1,"scriptPubKey":{"asm":"OP_DUP OP_HASH160 70a6c89e35dd535e7ad0869620d0357dc30da806 OP_EQUALVERIFY OP_CHECKSIG","reqSigs":1,"type":"pubkeyhash","addresses":["pFpDgXGb1Ro5ofniRSVvZvoYCp1ykSoKT3"]}}],"blockhash":"94ebe8392c45d70be7dd236a784d393d83cb0e7e02d2bce5013f7d309025e033","confirmations":68,"blocktime":1541175440}