{"hex":"010000009078dc5b0152157fc8bbf5c4555933a88d0e20b1f99a670ff74084fd06f23988fba91c8b46010000006b483045022100f43fd0202f945e87381ba872b44e695ad7adf83ee6cf4d72b5995fbdb5e1f3520220554145981d770b819dd34ad2ccf7b23f613b7da1ef333670290a0a401754e9980121029d605572ccc8246340b075632bc0da762bda79cae9e62bbf3ef22ff3b1b2f23fffffffff04000000000000000000004429353a0000002321029d605572ccc8246340b075632bc0da762bda79cae9e62bbf3ef22ff3b1b2f23fac3afa29353a0000002321029d605572ccc8246340b075632bc0da762bda79cae9e62bbf3ef22ff3b1b2f23fac9e080400000000001976a914239bf4dba7e2193b7f701a7b68d0e94c85d85fac88ac00000000","txid":"ed9b5a38d378abfffc26aaa2ad1345e93d6e03f75caa2181575409a23a473eaa","version":1,"time":1541175440,"locktime":0,"vin":[{"txid":"468b1ca9fb8839f206fd8440f70f679af9b1200e8da8335955c4f5bbc87f1552","vout":1,"scriptSig":{"asm":"3045022100f43fd0202f945e87381ba872b44e695ad7adf83ee6cf4d72b5995fbdb5e1f3520220554145981d770b819dd34ad2ccf7b23f613b7da1ef333670290a0a401754e99801 029d605572ccc8246340b075632bc0da762bda79cae9e62bbf3ef22ff3b1b2f23f","hex":"483045022100f43fd0202f945e87381ba872b44e695ad7adf83ee6cf4d72b5995fbdb5e1f3520220554145981d770b819dd34ad2ccf7b23f613b7da1ef333670290a0a401754e9980121029d605572ccc8246340b075632bc0da762bda79cae9e62bbf3ef22ff3b1b2f23f"},"sequence":4294967295}],"vout":[{"value":0,"n":0,"scriptPubKey":{"asm":"","type":"nonstandard"}},{"value":2500,"n":1,"scriptPubKey":{"asm":"029d605572ccc8246340b075632bc0da762bda79cae9e62bbf3ef22ff3b1b2f23f OP_CHECKSIG","reqSigs":1,"type":"pubkey","addresses":["p6uyYVC7Ty7S1UZtPQtetPMTXYoKf6M8dh"]}},{"value":2500.0004665,"n":2,"scriptPubKey":{"asm":"029d605572ccc8246340b075632bc0da762bda79cae9e62bbf3ef22ff3b1b2f23f OP_CHECKSIG","reqSigs":1,"type":"pubkey","addresses":["p6uyYVC7Ty7S1UZtPQtetPMTXYoKf6M8dh"]}},{"value":0.0026435,"n":3,"scriptPubKey":{"asm":"OP_DUP OP_HASH160 239bf4dba7e2193b7f701a7b68d0e94c85d85fac OP_EQUALVERIFY OP_CHECKSIG","reqSigs":1,"type":"pubkeyhash","addresses":["p8nrgTxTfKDC3hvmSmFxDcxpYguUCo8yWb"]}}],"blockhash":"94ebe8392c45d70be7dd236a784d393d83cb0e7e02d2bce5013f7d309025e033","confirmations":68,"blocktime":1541175440}