{"hex":"01000000e0c2d95b01531a5700187a96a001c252477d4853df32710ed0c302a43dd88ce43684187086020000004847304402203825a7ddade2622c3ee15a3153dcaf8e25417711d21323f6efa2a03e380b17f002206567a62da4675080d568e9e814f4885b4a28f196bd640dcc8fe4a216f27ed93a01ffffffff04000000000000000000805e1348070000002321028d9be6ae35cf9126d1ddd81f7e9a33d77e64d908c42bf417d6424ba1da9106a6ac2e961348070000002321028d9be6ae35cf9126d1ddd81f7e9a33d77e64d908c42bf417d6424ba1da9106a6ac823b0100000000001976a9149590579f878db6722db4322a713599a3d865ecb188ac00000000","txid":"20094b1326ee45b349e28d70f9909e176f7e5ecc7667dcd85a23ea55c5773ee7","version":1,"time":1540997856,"locktime":0,"vin":[{"txid":"8670188436e48cd83da402c3d00e7132df53487d4752c201a0967a1800571a53","vout":2,"scriptSig":{"asm":"304402203825a7ddade2622c3ee15a3153dcaf8e25417711d21323f6efa2a03e380b17f002206567a62da4675080d568e9e814f4885b4a28f196bd640dcc8fe4a216f27ed93a01","hex":"47304402203825a7ddade2622c3ee15a3153dcaf8e25417711d21323f6efa2a03e380b17f002206567a62da4675080d568e9e814f4885b4a28f196bd640dcc8fe4a216f27ed93a01"},"sequence":4294967295}],"vout":[{"value":0,"n":0,"scriptPubKey":{"asm":"","type":"nonstandard"}},{"value":312.74,"n":1,"scriptPubKey":{"asm":"028d9be6ae35cf9126d1ddd81f7e9a33d77e64d908c42bf417d6424ba1da9106a6 OP_CHECKSIG","reqSigs":1,"type":"pubkey","addresses":["pG17eAwgEzq6zQQ7cLzvCMepRqGYMprwdz"]}},{"value":312.74014254,"n":2,"scriptPubKey":{"asm":"028d9be6ae35cf9126d1ddd81f7e9a33d77e64d908c42bf417d6424ba1da9106a6 OP_CHECKSIG","reqSigs":1,"type":"pubkey","addresses":["pG17eAwgEzq6zQQ7cLzvCMepRqGYMprwdz"]}},{"value":0.0008077,"n":3,"scriptPubKey":{"asm":"OP_DUP OP_HASH160 9590579f878db6722db4322a713599a3d865ecb1 OP_EQUALVERIFY OP_CHECKSIG","reqSigs":1,"type":"pubkeyhash","addresses":["pKBPoNA3SJPY8i2H3PXAafpEbMr7NNikgL"]}}],"blockhash":"2f9c18a64bfcbf305462e06c587f40420d3d0a285c1fe7e2a6c7f3cd2f220492","confirmations":135,"blocktime":1540997856}