{"hex":"01000000d9c2d95b01a77c9ece060826d875f3f1558252d761236d2bc3ae7590a30ef6f4e49dd1b4b3010000006b48304502210082df906987123ecccb408168d8f8944e44644482abe8ea8867e2dc3071585aef0220648820af8017b109fcce7ef27879cc09b77777e8bcb1a7cb02b52798960dedb60121029e857134122939a57279b02312e296a02bcf0cf876ddc541bd372450215dbeacffffffff02ae764a00000000001976a9144c28ee798243702bc4500cdb4da9004130bb47f688ac22f7a905000000001976a91410124a165c8461773b209da5553e594d2385259b88ac00000000","txid":"c40e76b8d5400ae75b153ad87fa170a85a9db73528c425f12f288ff30cfe308c","version":1,"time":1540997856,"locktime":0,"vin":[{"txid":"b3b4d19de4f4f60ea39075aec32b6d2361d7528255f1f375d8260806ce9e7ca7","vout":1,"scriptSig":{"asm":"304502210082df906987123ecccb408168d8f8944e44644482abe8ea8867e2dc3071585aef0220648820af8017b109fcce7ef27879cc09b77777e8bcb1a7cb02b52798960dedb601 029e857134122939a57279b02312e296a02bcf0cf876ddc541bd372450215dbeac","hex":"48304502210082df906987123ecccb408168d8f8944e44644482abe8ea8867e2dc3071585aef0220648820af8017b109fcce7ef27879cc09b77777e8bcb1a7cb02b52798960dedb60121029e857134122939a57279b02312e296a02bcf0cf876ddc541bd372450215dbeac"},"sequence":4294967295}],"vout":[{"value":0.04880046,"n":0,"scriptPubKey":{"asm":"OP_DUP OP_HASH160 4c28ee798243702bc4500cdb4da9004130bb47f6 OP_EQUALVERIFY OP_CHECKSIG","reqSigs":1,"type":"pubkeyhash","addresses":["pCVGbFvFLapGyskXvwfxG2ss21bRU9FqUh"]}},{"value":0.9502493,"n":1,"scriptPubKey":{"asm":"OP_DUP OP_HASH160 10124a165c8461773b209da5553e594d2385259b OP_EQUALVERIFY OP_CHECKSIG","reqSigs":1,"type":"pubkeyhash","addresses":["p71YvYZEHomYjdnRsrEnsacP29Fxfm71CH"]}}],"blockhash":"2f9c18a64bfcbf305462e06c587f40420d3d0a285c1fe7e2a6c7f3cd2f220492","confirmations":135,"blocktime":1540997856}