{"hex":"010000002623db5b0392fde66d2f943f08915d9481df3aed7b3e256e7105c2f36c91227996f39ffb22000000006a47304402205f2cea69be152443301dd89434dbdbaf283a35b307910a776f01d8d0dcddbf520220236f5de704e842166ebd46f06e94ba1f6ad7802c1f9c9417590fbc3be7e2edfd012103ecb6ca0b1aa4d9f5caa5ef67600d364a3ac56fd7ec5dfacb36ee77274a67c4e9ffffffffed2088808b95ba4e9adab15d430680531c680bf0c931683cc8af1cc15ed3dfb8000000006a47304402202f6009ab5dd0fdbc298dd7136e5f38f069e049ed0e1dd991ecf6e1b69a2d40ee02206500109c07dc097321e7e4a777f13a14c5082fe4b001d150d6264cc4221362c6012103f183bb1f2748d07c913a73469f261e10f342d0d100609a5f33c32beddd7c6941ffffffff379f20f04900fb4f028c0fcb1993eaaeeba0fe96e0dde338569f1061d4259631010000006b483045022100b749db360c708d837269fa215de164b993800554afac07d1fa7552f2ceee373c02201e50273681c9877c85b254dd7365c946167cfb937117222411affdd683b6fe9b012102be96cacbec0c157cf8ea904cb31dd5d6bde6451ba59a2c10f5af1c15694099b4ffffffff0289661400000000001976a914ef75851d4ce300562b6332f54b5849ab06ac67bd88ac52e5ea09000000001976a914920cd94b172790728887bc1f545644cf72d8532588ac00000000","txid":"2550d86577f743e9d2b8b36454731247e6298f952f24fe255c326f2f0bfafcb1","version":1,"time":1541088048,"locktime":0,"vin":[{"txid":"22fb9ff3967922916cf3c205716e253e7bed3adf81945d91083f942f6de6fd92","vout":0,"scriptSig":{"asm":"304402205f2cea69be152443301dd89434dbdbaf283a35b307910a776f01d8d0dcddbf520220236f5de704e842166ebd46f06e94ba1f6ad7802c1f9c9417590fbc3be7e2edfd01 03ecb6ca0b1aa4d9f5caa5ef67600d364a3ac56fd7ec5dfacb36ee77274a67c4e9","hex":"47304402205f2cea69be152443301dd89434dbdbaf283a35b307910a776f01d8d0dcddbf520220236f5de704e842166ebd46f06e94ba1f6ad7802c1f9c9417590fbc3be7e2edfd012103ecb6ca0b1aa4d9f5caa5ef67600d364a3ac56fd7ec5dfacb36ee77274a67c4e9"},"sequence":4294967295},{"txid":"b8dfd35ec11cafc83c6831c9f00b681c538006435db1da9a4eba958b808820ed","vout":0,"scriptSig":{"asm":"304402202f6009ab5dd0fdbc298dd7136e5f38f069e049ed0e1dd991ecf6e1b69a2d40ee02206500109c07dc097321e7e4a777f13a14c5082fe4b001d150d6264cc4221362c601 03f183bb1f2748d07c913a73469f261e10f342d0d100609a5f33c32beddd7c6941","hex":"47304402202f6009ab5dd0fdbc298dd7136e5f38f069e049ed0e1dd991ecf6e1b69a2d40ee02206500109c07dc097321e7e4a777f13a14c5082fe4b001d150d6264cc4221362c6012103f183bb1f2748d07c913a73469f261e10f342d0d100609a5f33c32beddd7c6941"},"sequence":4294967295},{"txid":"319625d461109f5638e3dde096fea0ebaeea9319cb0f8c024ffb0049f0209f37","vout":1,"scriptSig":{"asm":"3045022100b749db360c708d837269fa215de164b993800554afac07d1fa7552f2ceee373c02201e50273681c9877c85b254dd7365c946167cfb937117222411affdd683b6fe9b01 02be96cacbec0c157cf8ea904cb31dd5d6bde6451ba59a2c10f5af1c15694099b4","hex":"483045022100b749db360c708d837269fa215de164b993800554afac07d1fa7552f2ceee373c02201e50273681c9877c85b254dd7365c946167cfb937117222411affdd683b6fe9b012102be96cacbec0c157cf8ea904cb31dd5d6bde6451ba59a2c10f5af1c15694099b4"},"sequence":4294967295}],"vout":[{"value":0.01336969,"n":0,"scriptPubKey":{"asm":"OP_DUP OP_HASH160 ef75851d4ce300562b6332f54b5849ab06ac67bd OP_EQUALVERIFY OP_CHECKSIG","reqSigs":1,"type":"pubkeyhash","addresses":["pTNiUz3JgGSEjkJ1UBBDaCsLCuMmD7j6Dz"]}},{"value":1.66389074,"n":1,"scriptPubKey":{"asm":"OP_DUP OP_HASH160 920cd94b172790728887bc1f545644cf72d85325 OP_EQUALVERIFY OP_CHECKSIG","reqSigs":1,"type":"pubkeyhash","addresses":["pJrpFTpUDy4wWXjYbJ8iNYdjcuRVR4bAvv"]}}],"blockhash":"90d99e1894c7d82c94122246565353d5a918691aa948398e4c601aad52b187b7","confirmations":97,"blocktime":1541088048}