{"hex":"010000003023db5b01189731812c307048409d2d44d35a17011d3282b429dfc89e76ffeb483ff9cd6d010000004948304502210098b8675f2240647fe62843a784b2a5982b727304f63a60e0e49ca851f59863b002202f96f7332bdd0e10f71e42b979b74f45e0066cc4dfe5bd9c81bcd9fef2e1e6b701ffffffff0300000000000000000027d6b1d1010000002321020b1cd26fc4b9f080aea1cf7b667efd5e8453f70429056589831fa7f63506ddbfac76280200000000001976a91405799d876e3b7c328ae01baece26d0f931b0f5fa88ac00000000","txid":"492dc6d492b7376ed961367ba1085788fe1a5562b8d9f19f53bf9f53be10c623","version":1,"time":1541088048,"locktime":0,"vin":[{"txid":"6dcdf93f48ebff769ec8df29b482321d01175ad3442d9d404870302c81319718","vout":1,"scriptSig":{"asm":"304502210098b8675f2240647fe62843a784b2a5982b727304f63a60e0e49ca851f59863b002202f96f7332bdd0e10f71e42b979b74f45e0066cc4dfe5bd9c81bcd9fef2e1e6b701","hex":"48304502210098b8675f2240647fe62843a784b2a5982b727304f63a60e0e49ca851f59863b002202f96f7332bdd0e10f71e42b979b74f45e0066cc4dfe5bd9c81bcd9fef2e1e6b701"},"sequence":4294967295}],"vout":[{"value":0,"n":0,"scriptPubKey":{"asm":"","type":"nonstandard"}},{"value":78.13060135,"n":1,"scriptPubKey":{"asm":"020b1cd26fc4b9f080aea1cf7b667efd5e8453f70429056589831fa7f63506ddbf OP_CHECKSIG","reqSigs":1,"type":"pubkey","addresses":["pECTDpfW4nW8hYte3f3F9ZQxwgWmBwmcYL"]}},{"value":0.0014143,"n":2,"scriptPubKey":{"asm":"OP_DUP OP_HASH160 05799d876e3b7c328ae01baece26d0f931b0f5fa OP_EQUALVERIFY OP_CHECKSIG","reqSigs":1,"type":"pubkeyhash","addresses":["p63XGeVRkcywXEQJE5bkXjJFiugf8tT1er"]}}],"blockhash":"90d99e1894c7d82c94122246565353d5a918691aa948398e4c601aad52b187b7","confirmations":97,"blocktime":1541088048}