{"hex":"01000000e8a2c25b010000000000000000000000000000000000000000000000000000000000000000ffffffff0401640101ffffffff0100000000000000001976a914b17b8017c7fcda51490cb43e6947c0afdb8eb48988ac00000000","txid":"aeda3ba8718e53f969322ff1eb003ec1403276f3b858c67181456809fd0bd8f0","version":1,"time":1539482344,"locktime":0,"vin":[{"coinbase":"01640101","sequence":4294967295}],"vout":[{"value":0,"n":0,"scriptPubKey":{"asm":"OP_DUP OP_HASH160 b17b8017c7fcda51490cb43e6947c0afdb8eb489 OP_EQUALVERIFY OP_CHECKSIG","reqSigs":1,"type":"pubkeyhash","addresses":["pMj1kcdhybHHQ6NVQAt2tZk9J5nLWfWPmp"]}}],"blockhash":"000007841ac4d7db6085daf6ab242e701a95dca00832a8ed82626e2832d30c47","confirmations":345,"blocktime":1539482344}