{"hex":"01000000b16cd75b01f0014e07e712c0b56b1986b78b3e3736c84f8dee84daee6861cefdc084d9ab7c010000006a47304402203a169523f42de834071fe9eccc1622d9fbfab91fcba3f0e44786e417c32c2899022073baf33fb5b86f83e5089c28b692335a6ef3d0eeaab838de2d52514e93cd2c6c012103c93fea15adce80a0ec312f7b510f94f9bb0884ffc7c730385747c88c5d315b6dffffffff023e7d3500000000001976a914e29e20cdfa846ae9e6a042a9ca6c5321eb384f1188acc65a5b00000000001976a914616ddb194116ff3705fe1dd1c48ad0c44dc054f288ac00000000","txid":"4377fcc7cee8ac8ac6be734910721f1481b3c41dc138b682563a084b890f3f12","version":1,"time":1540844736,"locktime":0,"vin":[{"txid":"7cabd984c0fdce6168eeda84ee8d4fc836373e8bb786196bb5c012e7074e01f0","vout":1,"scriptSig":{"asm":"304402203a169523f42de834071fe9eccc1622d9fbfab91fcba3f0e44786e417c32c2899022073baf33fb5b86f83e5089c28b692335a6ef3d0eeaab838de2d52514e93cd2c6c01 03c93fea15adce80a0ec312f7b510f94f9bb0884ffc7c730385747c88c5d315b6d","hex":"47304402203a169523f42de834071fe9eccc1622d9fbfab91fcba3f0e44786e417c32c2899022073baf33fb5b86f83e5089c28b692335a6ef3d0eeaab838de2d52514e93cd2c6c012103c93fea15adce80a0ec312f7b510f94f9bb0884ffc7c730385747c88c5d315b6d"},"sequence":4294967295}],"vout":[{"value":0.0350547,"n":0,"scriptPubKey":{"asm":"OP_DUP OP_HASH160 e29e20cdfa846ae9e6a042a9ca6c5321eb384f11 OP_EQUALVERIFY OP_CHECKSIG","reqSigs":1,"type":"pubkeyhash","addresses":["pSCpLzg8rQGyxsxJHGGBABxFKufdbuiqEV"]}},{"value":0.05987014,"n":1,"scriptPubKey":{"asm":"OP_DUP OP_HASH160 616ddb194116ff3705fe1dd1c48ad0c44dc054f2 OP_EQUALVERIFY OP_CHECKSIG","reqSigs":1,"type":"pubkeyhash","addresses":["pERjMEPXySdapBxNGfV5hoGeCnSasadCTg"]}}],"blockhash":"03545b878a98d91ee41333e52051ea452b5adff1415da47ebba6604d11c12357","confirmations":172,"blocktime":1540844736}