{"hex":"01000000c06cd75b01f2fcfee4934b3e42adc1ef4611ae7516ee2e8d09998ba3e2b2a93abd500159200100000049483045022100c0d15d5f564181c08ce3ea8eed8bee4ba0b567d70f6562d0d69a25a048f46ac40220586ad10af07602fc28b1a0d445f585ddb6443216beac1c5813e63abd3bc52dce01ffffffff0300000000000000000083aca1d1010000002321020b1cd26fc4b9f080aea1cf7b667efd5e8453f70429056589831fa7f63506ddbface0130000000000001976a914256b9b540806ec78f3cbc6d37188a2e1504616e688ac00000000","txid":"44f00e7a8febbe5df6d103d197c746e774fe4d1958cf6467c5e3b2a62ae475da","version":1,"time":1540844736,"locktime":0,"vin":[{"txid":"20590150bd3aa9b2e2a38b99098d2eee1675ae1146efc1ad423e4b93e4fefcf2","vout":1,"scriptSig":{"asm":"3045022100c0d15d5f564181c08ce3ea8eed8bee4ba0b567d70f6562d0d69a25a048f46ac40220586ad10af07602fc28b1a0d445f585ddb6443216beac1c5813e63abd3bc52dce01","hex":"483045022100c0d15d5f564181c08ce3ea8eed8bee4ba0b567d70f6562d0d69a25a048f46ac40220586ad10af07602fc28b1a0d445f585ddb6443216beac1c5813e63abd3bc52dce01"},"sequence":4294967295}],"vout":[{"value":0,"n":0,"scriptPubKey":{"asm":"","type":"nonstandard"}},{"value":78.12000899,"n":1,"scriptPubKey":{"asm":"020b1cd26fc4b9f080aea1cf7b667efd5e8453f70429056589831fa7f63506ddbf OP_CHECKSIG","reqSigs":1,"type":"pubkey","addresses":["pECTDpfW4nW8hYte3f3F9ZQxwgWmBwmcYL"]}},{"value":0.00005088,"n":2,"scriptPubKey":{"asm":"OP_DUP OP_HASH160 256b9b540806ec78f3cbc6d37188a2e1504616e6 OP_EQUALVERIFY OP_CHECKSIG","reqSigs":1,"type":"pubkeyhash","addresses":["p8xS7T8mkTz7MJV9EcYkBri1Zi12wCV83N"]}}],"blockhash":"03545b878a98d91ee41333e52051ea452b5adff1415da47ebba6604d11c12357","confirmations":172,"blocktime":1540844736}