{"hex":"01000000099ec25b010000000000000000000000000000000000000000000000000000000000000000ffffffff03560102ffffffff0100000000000000001976a914a510687e4adef1b733f9eb040782eadd3aac978988ac00000000","txid":"572bcd1b6ab206ef635e51100ab76ca3c82e8070923c715f33d6afe18f19993d","version":1,"time":1539481100,"locktime":0,"vin":[{"coinbase":"560102","sequence":4294967295}],"vout":[{"value":0,"n":0,"scriptPubKey":{"asm":"OP_DUP OP_HASH160 a510687e4adef1b733f9eb040782eadd3aac9789 OP_EQUALVERIFY OP_CHECKSIG","reqSigs":1,"type":"pubkeyhash","addresses":["pLbMMRBNpdVFqcH64Va6v7biJaoyt1dzdY"]}}],"blockhash":"00000db40d36c6d9c9efe3c141a8b4eb6be6d69a582b3483f9c15f5ac2d49f25","confirmations":439,"blocktime":1539481100}