{"hex":"010000001064dc5b01469849590d6e9af4e674c9c38207c1612cb63cc3d7111a06c08091edda6137af0100000049483045022100a68f415ab30eb1979fdaadb4a5c9f73ec0dce8d40316977a37debbf141736ab90220009c5fbd3f46658d787d68762eab02d0a1d1a1ce2611549ec925ee44d79fe6aa01ffffffff03000000000000000000ea8f250a0000000023210210c18e3b5aba3a6167f17a2fd6b65419de165b4388a78f0e815f0e3bc60d34f3ac7d6e0000000000001976a914b4297f2bb1ec22148c170ab2f943e6826c4d831d88ac00000000","txid":"551945e199cda5378d42b3d915798ddb7f50a7caebe64ca885b7ea57b573d987","version":1,"time":1541170192,"locktime":0,"vin":[{"txid":"af3761daed9180c0061a11d7c33cb62c61c10782c3c974e6f49a6e0d59499846","vout":1,"scriptSig":{"asm":"3045022100a68f415ab30eb1979fdaadb4a5c9f73ec0dce8d40316977a37debbf141736ab90220009c5fbd3f46658d787d68762eab02d0a1d1a1ce2611549ec925ee44d79fe6aa01","hex":"483045022100a68f415ab30eb1979fdaadb4a5c9f73ec0dce8d40316977a37debbf141736ab90220009c5fbd3f46658d787d68762eab02d0a1d1a1ce2611549ec925ee44d79fe6aa01"},"sequence":4294967295}],"vout":[{"value":0,"n":0,"scriptPubKey":{"asm":"","type":"nonstandard"}},{"value":1.70233834,"n":1,"scriptPubKey":{"asm":"0210c18e3b5aba3a6167f17a2fd6b65419de165b4388a78f0e815f0e3bc60d34f3 OP_CHECKSIG","reqSigs":1,"type":"pubkey","addresses":["pFf1Gp4G6PCkSUxUY1XLwNBH2ji6sBJMC3"]}},{"value":0.00028285,"n":2,"scriptPubKey":{"asm":"OP_DUP OP_HASH160 b4297f2bb1ec22148c170ab2f943e6826c4d831d OP_EQUALVERIFY OP_CHECKSIG","reqSigs":1,"type":"pubkeyhash","addresses":["pMyBYUpcH3ehvzacvgmtahza4iSykvMcUD"]}}],"blockhash":"372293b8c5592da4510223adffae6ba3227bb6f7e779c0fb984fed063bf43944","confirmations":78,"blocktime":1541170192}