{"hex":"010000000a64dc5b01afd929a9f032b1dc46fd252ce1fa238f4b8c8ddefd4e5a02ea82824d8ee0ee87010000006a4730440220681042f0ef40d1bdcb590f7ed4e1239ef53551a02ac13d5c302bb2fc0277efaf02204fd3f47531acb04044c3919179375ce4f3ddfc332668baa9cb20abdbc94ed194012102507fadfc1df5be879ed22ac088fbeaf070e431a955f341419ca2b4e8c4f63fb1ffffffff02f00cf703000000001976a9146d230bef2bb42cac470f6da8586d100f9c02faf988ac77c7fb01000000001976a914ff94786f0a58a4e4079cf9ccc0898a358301d88888ac00000000","txid":"cfcd61538ded256c99863aeb142892a5fcf17ff595dd1c5b1f55f12b25c4a328","version":1,"time":1541170192,"locktime":0,"vin":[{"txid":"87eee08e4d8282ea025a4efdde8d8c4b8f23fae12c25fd46dcb132f0a929d9af","vout":1,"scriptSig":{"asm":"30440220681042f0ef40d1bdcb590f7ed4e1239ef53551a02ac13d5c302bb2fc0277efaf02204fd3f47531acb04044c3919179375ce4f3ddfc332668baa9cb20abdbc94ed19401 02507fadfc1df5be879ed22ac088fbeaf070e431a955f341419ca2b4e8c4f63fb1","hex":"4730440220681042f0ef40d1bdcb590f7ed4e1239ef53551a02ac13d5c302bb2fc0277efaf02204fd3f47531acb04044c3919179375ce4f3ddfc332668baa9cb20abdbc94ed194012102507fadfc1df5be879ed22ac088fbeaf070e431a955f341419ca2b4e8c4f63fb1"},"sequence":4294967295}],"vout":[{"value":0.66522352,"n":0,"scriptPubKey":{"asm":"OP_DUP OP_HASH160 6d230bef2bb42cac470f6da8586d100f9c02faf9 OP_EQUALVERIFY OP_CHECKSIG","reqSigs":1,"type":"pubkeyhash","addresses":["pFVdqhNEbkikZ2kCCu5MvYnLgSLDE8HEtw"]}},{"value":0.33277815,"n":1,"scriptPubKey":{"asm":"OP_DUP OP_HASH160 ff94786f0a58a4e4079cf9ccc0898a358301d888 OP_EQUALVERIFY OP_CHECKSIG","reqSigs":1,"type":"pubkeyhash","addresses":["pUqxNXfux8kvoNVksZyryCdFLMDevQx5iC"]}}],"blockhash":"372293b8c5592da4510223adffae6ba3227bb6f7e779c0fb984fed063bf43944","confirmations":78,"blocktime":1541170192}