{"hex":"01000000209ddc5b0176efda1974aa3a93cd8509cef45e9f58b041d1e8104331ac6c5c1060bcc3750801000000494830450221008c89b055161a27950ead9e38789e255bc063f1743cb1d696b00c5447afd505b102207b20add56bdf66e81246e3a485710257ad86e245c11b89cd041a504a483a10d001ffffffff0300000000000000000047e58c0200000000232102a0ffdcd26bc595776e6ad72bf63c12428f5a915eaca2bad49b753e858d5ea8e3accb4f0000000000001976a914a539c7c64804ba10293866c3433100eabbe41ccf88ac00000000","txid":"7b4c62fff142eef09d80c268145ed6dd9014c7b7e18ca4c4316c323e085a43bb","version":1,"time":1541184800,"locktime":0,"vin":[{"txid":"0875c3bc60105c6cac314310e8d141b0589f5ef4ce0985cd933aaa7419daef76","vout":1,"scriptSig":{"asm":"30450221008c89b055161a27950ead9e38789e255bc063f1743cb1d696b00c5447afd505b102207b20add56bdf66e81246e3a485710257ad86e245c11b89cd041a504a483a10d001","hex":"4830450221008c89b055161a27950ead9e38789e255bc063f1743cb1d696b00c5447afd505b102207b20add56bdf66e81246e3a485710257ad86e245c11b89cd041a504a483a10d001"},"sequence":4294967295}],"vout":[{"value":0,"n":0,"scriptPubKey":{"asm":"","type":"nonstandard"}},{"value":0.42788167,"n":1,"scriptPubKey":{"asm":"02a0ffdcd26bc595776e6ad72bf63c12428f5a915eaca2bad49b753e858d5ea8e3 OP_CHECKSIG","reqSigs":1,"type":"pubkey","addresses":["p8iepVjrqbjo1uNb8dyXKBBerSUv6zrPfw"]}},{"value":0.00020427,"n":2,"scriptPubKey":{"asm":"OP_DUP OP_HASH160 a539c7c64804ba10293866c3433100eabbe41ccf OP_EQUALVERIFY OP_CHECKSIG","reqSigs":1,"type":"pubkeyhash","addresses":["pLcCv1RBNEWf4q17fiPMGMYqeFUvP9a826"]}}],"blockhash":"f07422f73ac3cee13bd684d752694482a46324845badd341970a858ae89cb4db","confirmations":57,"blocktime":1541184800}