{"hex":"01000000199ddc5b0188a567e31b431e0585fe22b94c52f1b0c0f78635c4266238f28c2b261d8aeca1000000006b483045022100c134f460c0be2a1548eb487261929252e608c984511ed1dd2431082946b70a99022018a2a8e2d926fc4528d797621ec963dd410ecc175537ce83292d71aa2fe0d52b0121033cc441b497e3e89787e71dc73d6bddda07788373f127a335b88fd038fe8339b5ffffffff02f074cf02000000001976a914a0bc50cbc85a730329193b22c9b867955da73a7588ac8eb66e01000000001976a9142149a4a43c551ed1242913494c0b8c1121cd47f488ac00000000","txid":"b7881d38d27437f4b61c9ec6790f9df22c0ad01cc5029a09ff67daa8fa8e204c","version":1,"time":1541184800,"locktime":0,"vin":[{"txid":"a1ec8a1d262b8cf2386226c43586f7c0b0f1524cb922fe85051e431be367a588","vout":0,"scriptSig":{"asm":"3045022100c134f460c0be2a1548eb487261929252e608c984511ed1dd2431082946b70a99022018a2a8e2d926fc4528d797621ec963dd410ecc175537ce83292d71aa2fe0d52b01 033cc441b497e3e89787e71dc73d6bddda07788373f127a335b88fd038fe8339b5","hex":"483045022100c134f460c0be2a1548eb487261929252e608c984511ed1dd2431082946b70a99022018a2a8e2d926fc4528d797621ec963dd410ecc175537ce83292d71aa2fe0d52b0121033cc441b497e3e89787e71dc73d6bddda07788373f127a335b88fd038fe8339b5"},"sequence":4294967295}],"vout":[{"value":0.4715032,"n":0,"scriptPubKey":{"asm":"OP_DUP OP_HASH160 a0bc50cbc85a730329193b22c9b867955da73a75 OP_EQUALVERIFY OP_CHECKSIG","reqSigs":1,"type":"pubkeyhash","addresses":["pLCTuo99wQaKNy9R15ombfzNsTpB6CZ45z"]}},{"value":0.2403291,"n":1,"scriptPubKey":{"asm":"OP_DUP OP_HASH160 2149a4a43c551ed1242913494c0b8c1121cd47f4 OP_EQUALVERIFY OP_CHECKSIG","reqSigs":1,"type":"pubkeyhash","addresses":["p8aairGzTWQXeBT6n1pWEnPWdRPiuHxPCG"]}}],"blockhash":"f07422f73ac3cee13bd684d752694482a46324845badd341970a858ae89cb4db","confirmations":57,"blocktime":1541184800}