{"hex":"01000000207fd85b0103734bce9d83d9e5ee8ece42b7686d6006bd8a620a3ff4c9593435f1cc132b79010000004948304502210096d62d8460a92ddaa9710af5a761298511bd65cddae3cf812f8c6fc012da0f8102200afcaaee9c5dc495c085632f24115d72319ff68135d1a78c6a9c452e95f80e1401ffffffff0400000000000000000000a9a1d1010000002321020b1cd26fc4b9f080aea1cf7b667efd5e8453f70429056589831fa7f63506ddbfacd825b1d1010000002321020b1cd26fc4b9f080aea1cf7b667efd5e8453f70429056589831fa7f63506ddbfac084c0100000000001976a914239bf4dba7e2193b7f701a7b68d0e94c85d85fac88ac00000000","txid":"76a80485d893b87061c4c68ad2e0e47c8044253008d8822b68ac08bdab80c131","version":1,"time":1540914976,"locktime":0,"vin":[{"txid":"792b13ccf1353459c9f43f0a628abd06606d68b742ce8eeee5d9839dce4b7303","vout":1,"scriptSig":{"asm":"304502210096d62d8460a92ddaa9710af5a761298511bd65cddae3cf812f8c6fc012da0f8102200afcaaee9c5dc495c085632f24115d72319ff68135d1a78c6a9c452e95f80e1401","hex":"48304502210096d62d8460a92ddaa9710af5a761298511bd65cddae3cf812f8c6fc012da0f8102200afcaaee9c5dc495c085632f24115d72319ff68135d1a78c6a9c452e95f80e1401"},"sequence":4294967295}],"vout":[{"value":0,"n":0,"scriptPubKey":{"asm":"","type":"nonstandard"}},{"value":78.12,"n":1,"scriptPubKey":{"asm":"020b1cd26fc4b9f080aea1cf7b667efd5e8453f70429056589831fa7f63506ddbf OP_CHECKSIG","reqSigs":1,"type":"pubkey","addresses":["pECTDpfW4nW8hYte3f3F9ZQxwgWmBwmcYL"]}},{"value":78.13015,"n":2,"scriptPubKey":{"asm":"020b1cd26fc4b9f080aea1cf7b667efd5e8453f70429056589831fa7f63506ddbf OP_CHECKSIG","reqSigs":1,"type":"pubkey","addresses":["pECTDpfW4nW8hYte3f3F9ZQxwgWmBwmcYL"]}},{"value":0.00085,"n":3,"scriptPubKey":{"asm":"OP_DUP OP_HASH160 239bf4dba7e2193b7f701a7b68d0e94c85d85fac OP_EQUALVERIFY OP_CHECKSIG","reqSigs":1,"type":"pubkeyhash","addresses":["p8nrgTxTfKDC3hvmSmFxDcxpYguUCo8yWb"]}}],"blockhash":"69389454977636da6c3ad372e7158e4780759a656fe423af73ecbd2ae9aaa5d7","confirmations":159,"blocktime":1540914976}