{"hex":"01000000197fd85b01a5e9826d145ccd71d450d36b86e09afde61516242657a315753cae25c3ac42fa010000006a47304402202648c1cf695cb5b41915606890177070fcd893c213c8ef9ebb4b41791ca8840002204057aa5ef3a072622187c6246a9094a301888188955311d3d394be5c9bb9f3d901210377c4763404fa975991db0df0b888e2a142c7e19f8bc0d8591e26f67b2863d3f2ffffffff0100e1f505000000001976a9145406781aed3a1a82fcacb071bec361df709d5fe188ac00000000","txid":"d490379617d3f2cb0bf22d03e00270e8a8df7afee8c7a680675634f2374f4739","version":1,"time":1540914976,"locktime":0,"vin":[{"txid":"fa42acc325ae3c7515a35726241615e6fd9ae0866bd350d471cd5c146d82e9a5","vout":1,"scriptSig":{"asm":"304402202648c1cf695cb5b41915606890177070fcd893c213c8ef9ebb4b41791ca8840002204057aa5ef3a072622187c6246a9094a301888188955311d3d394be5c9bb9f3d901 0377c4763404fa975991db0df0b888e2a142c7e19f8bc0d8591e26f67b2863d3f2","hex":"47304402202648c1cf695cb5b41915606890177070fcd893c213c8ef9ebb4b41791ca8840002204057aa5ef3a072622187c6246a9094a301888188955311d3d394be5c9bb9f3d901210377c4763404fa975991db0df0b888e2a142c7e19f8bc0d8591e26f67b2863d3f2"},"sequence":4294967295}],"vout":[{"value":1,"n":0,"scriptPubKey":{"asm":"OP_DUP OP_HASH160 5406781aed3a1a82fcacb071bec361df709d5fe1 OP_EQUALVERIFY OP_CHECKSIG","reqSigs":1,"type":"pubkeyhash","addresses":["pDCriJcWy4ey9gFnWapJJoLeoMEV9JY1WZ"]}}],"blockhash":"69389454977636da6c3ad372e7158e4780759a656fe423af73ecbd2ae9aaa5d7","confirmations":159,"blocktime":1540914976}