{"hex":"01000000d1a1c25b010000000000000000000000000000000000000000000000000000000000000000ffffffff0401440102ffffffff0100000000000000001976a9144d6f01e9b0e48da39f78e29497fa13cb8d2e033d88ac00000000","txid":"1b074cd81b7a6a3f7450e5d7b80c2a92803c96c244d6e82ee27d4d3245fe1e59","version":1,"time":1539482068,"locktime":0,"vin":[{"coinbase":"01440102","sequence":4294967295}],"vout":[{"value":0,"n":0,"scriptPubKey":{"asm":"OP_DUP OP_HASH160 4d6f01e9b0e48da39f78e29497fa13cb8d2e033d OP_EQUALVERIFY OP_CHECKSIG","reqSigs":1,"type":"pubkeyhash","addresses":["pCc1DQnQUeDfyAy7dDpvgB7s4EHPf2zm4x"]}}],"blockhash":"000000de32b5a5dd386d11d34715c53de7d4d411f3dfc239613d7fac6d7cdad7","confirmations":91,"blocktime":1539482068}