{"hex":"01000000e19dc25b010000000000000000000000000000000000000000000000000000000000000000ffffffff03510101ffffffff010000c16ff28623001976a914c2980d50c719ecdbbcce7abcda3148a14f692cf988ac00000000","txid":"5b4149f8456b3982ec731010b32ea0ca29b9890f9066ceb9dd20822c70a97ede","version":1,"time":1539481057,"locktime":0,"vin":[{"coinbase":"510101","sequence":4294967295}],"vout":[{"value":100000000,"n":0,"scriptPubKey":{"asm":"OP_DUP OP_HASH160 c2980d50c719ecdbbcce7abcda3148a14f692cf9 OP_EQUALVERIFY OP_CHECKSIG","reqSigs":1,"type":"pubkeyhash","addresses":["pPHVSgP2sxWkgtpHbBwtxEnc1JBSaVvRrs"]}}],"blockhash":"00000f226b2369dd227393168bfada4b4a494c1003c337906e76a2c69a60c0d1","confirmations":444,"blocktime":1539481057}