{"hex":"010000009aa2c25b010000000000000000000000000000000000000000000000000000000000000000ffffffff04015b0101ffffffff0100000000000000001976a91487f27a7adb214a09fd1f1aa679d1dd9babd1425d88ac00000000","txid":"51d025f8540221ad9c93cc3fc4f4e1d21baa1546c5dbe856acda62853128cd7e","version":1,"time":1539482266,"locktime":0,"vin":[{"coinbase":"015b0101","sequence":4294967295}],"vout":[{"value":0,"n":0,"scriptPubKey":{"asm":"OP_DUP OP_HASH160 87f27a7adb214a09fd1f1aa679d1dd9babd1425d OP_EQUALVERIFY OP_CHECKSIG","reqSigs":1,"type":"pubkeyhash","addresses":["pHwPuJLry7dqG9FMHwpNEKUZNuM2cwmKpZ"]}}],"blockhash":"00000a0374abb679c619083e279084a2ae56fc0b5a4938fd1c501bd65fed5125","confirmations":354,"blocktime":1539482266}