{"hex":"0100000068a2c25b010000000000000000000000000000000000000000000000000000000000000000ffffffff0401560102ffffffff0100000000000000001976a91480b571402ca9e80a73f5e45d58f7e02d3d99d04788ac00000000","txid":"906590a2f6e9a02d4df6e402ad7498dbca5fc283627d4955ff95a58e2a4cbb03","version":1,"time":1539482219,"locktime":0,"vin":[{"coinbase":"01560102","sequence":4294967295}],"vout":[{"value":0,"n":0,"scriptPubKey":{"asm":"OP_DUP OP_HASH160 80b571402ca9e80a73f5e45d58f7e02d3d99d047 OP_EQUALVERIFY OP_CHECKSIG","reqSigs":1,"type":"pubkeyhash","addresses":["pHH846dEbi466QCcedcUjs5Y7CtZxpTTug"]}}],"blockhash":"0000083f136d640fe815e75e94fad0e6cc2bc801f8e4e9594ffd2fc8ee876f8d","confirmations":73,"blocktime":1539482219}