{"hex":"0100000050bcd95b01112ef102d1c6e42f75c68971944bb7410bf4df8c44f2cec9211d62ab7b7acecf0200000049483045022100c90a13b4a2215f9e594f88bcd55fa5487c4c562f48a030abcf5fec72acc9c46502200e5266db0f3ca2914ab8f7fb35f6fb7b586360f7f193286bbc5d3d6f0a01a3b701ffffffff04000000000000000000805e1348070000002321028d9be6ae35cf9126d1ddd81f7e9a33d77e64d908c42bf417d6424ba1da9106a6ac40681348070000002321028d9be6ae35cf9126d1ddd81f7e9a33d77e64d908c42bf417d6424ba1da9106a6ac3e370000000000001976a914b281632e032cac99462bf7779521442a307c52a088ac00000000","txid":"11f04439d8e145a9a4ba62d628d29cd4af0137aa67d144a74e45ef93aab87a21","version":1,"time":1540996176,"locktime":0,"vin":[{"txid":"cfce7a7bab621d21c9cef2448cdff40b41b74b947189c6752fe4c6d102f12e11","vout":2,"scriptSig":{"asm":"3045022100c90a13b4a2215f9e594f88bcd55fa5487c4c562f48a030abcf5fec72acc9c46502200e5266db0f3ca2914ab8f7fb35f6fb7b586360f7f193286bbc5d3d6f0a01a3b701","hex":"483045022100c90a13b4a2215f9e594f88bcd55fa5487c4c562f48a030abcf5fec72acc9c46502200e5266db0f3ca2914ab8f7fb35f6fb7b586360f7f193286bbc5d3d6f0a01a3b701"},"sequence":4294967295}],"vout":[{"value":0,"n":0,"scriptPubKey":{"asm":"","type":"nonstandard"}},{"value":312.74,"n":1,"scriptPubKey":{"asm":"028d9be6ae35cf9126d1ddd81f7e9a33d77e64d908c42bf417d6424ba1da9106a6 OP_CHECKSIG","reqSigs":1,"type":"pubkey","addresses":["pG17eAwgEzq6zQQ7cLzvCMepRqGYMprwdz"]}},{"value":312.74002496,"n":2,"scriptPubKey":{"asm":"028d9be6ae35cf9126d1ddd81f7e9a33d77e64d908c42bf417d6424ba1da9106a6 OP_CHECKSIG","reqSigs":1,"type":"pubkey","addresses":["pG17eAwgEzq6zQQ7cLzvCMepRqGYMprwdz"]}},{"value":0.00014142,"n":3,"scriptPubKey":{"asm":"OP_DUP OP_HASH160 b281632e032cac99462bf7779521442a307c52a0 OP_EQUALVERIFY OP_CHECKSIG","reqSigs":1,"type":"pubkeyhash","addresses":["pMpRUr5SqF4SLREGfNjMyHwaGCi3EHeLR1"]}}],"blockhash":"c5c03242d5151bfae3e97a0b96c0e31410102ac2d0adfbb8d1f20ddfcfa2e688","confirmations":138,"blocktime":1540996176}