{"hex":"0100000045bcd95b010e029a184d4b967f4d3dd6eac737dbf8c751bb38aa84387b75eaaaaf05250333010000006a473044022001a2e0310fc709f297b93e59ba4739e8830d13308c3ff1c8ffe85e7c62c621ce0220483c110bf9c4f88fdc466e51dfa217a830f63ef48d1e0081b091aa2eac91cc3a01210382b7e9872db918074e83c975f9b3e2a009d796132e7f613e513d0b0b3418e3b1ffffffff027986fb01000000001976a9145ad401ac687a60636f26b2b2798aaf317c51698588acbbe3fd00000000001976a9146339105f72a326eaeddd807f6d6d0f83845e411088ac00000000","txid":"70c5d47b39d82faae48f55fb0b9f825020e107cd0cbc8f27af442e41620c14d0","version":1,"time":1540996176,"locktime":0,"vin":[{"txid":"33032505afaaea757b3884aa38bb51c7f8db37c7ead63d4d7f964b4d189a020e","vout":1,"scriptSig":{"asm":"3044022001a2e0310fc709f297b93e59ba4739e8830d13308c3ff1c8ffe85e7c62c621ce0220483c110bf9c4f88fdc466e51dfa217a830f63ef48d1e0081b091aa2eac91cc3a01 0382b7e9872db918074e83c975f9b3e2a009d796132e7f613e513d0b0b3418e3b1","hex":"473044022001a2e0310fc709f297b93e59ba4739e8830d13308c3ff1c8ffe85e7c62c621ce0220483c110bf9c4f88fdc466e51dfa217a830f63ef48d1e0081b091aa2eac91cc3a01210382b7e9872db918074e83c975f9b3e2a009d796132e7f613e513d0b0b3418e3b1"},"sequence":4294967295}],"vout":[{"value":0.33261177,"n":0,"scriptPubKey":{"asm":"OP_DUP OP_HASH160 5ad401ac687a60636f26b2b2798aaf317c516985 OP_EQUALVERIFY OP_CHECKSIG","reqSigs":1,"type":"pubkeyhash","addresses":["pDppzSdYqqkBh2eRmKpnxbX8yhFKvU2rTU"]}},{"value":0.16638907,"n":1,"scriptPubKey":{"asm":"OP_DUP OP_HASH160 6339105f72a326eaeddd807f6d6d0f83845e4110 OP_EQUALVERIFY OP_CHECKSIG","reqSigs":1,"type":"pubkeyhash","addresses":["pEbDTa1bJ4PnnqfE17iBnRHcV2PkxzMdrk"]}}],"blockhash":"c5c03242d5151bfae3e97a0b96c0e31410102ac2d0adfbb8d1f20ddfcfa2e688","confirmations":138,"blocktime":1540996176}