{"hex":"010000007085d85b0103734bce9d83d9e5ee8ece42b7686d6006bd8a620a3ff4c9593435f1cc132b79020000004847304402207725473f47e692699a0eb556510bdbeacc4a09d96b8de610fa21d4132688428f02200d40558097050403425103dd2bd4fb7512d795d2f97f1e6563a4aae9d4b1b74601ffffffff0400000000000000000000a9a1d1010000002321020b1cd26fc4b9f080aea1cf7b667efd5e8453f70429056589831fa7f63506ddbfacc86fb3d1010000002321020b1cd26fc4b9f080aea1cf7b667efd5e8453f70429056589831fa7f63506ddbfac084c0100000000001976a9149590579f878db6722db4322a713599a3d865ecb188ac00000000","txid":"994e5537c747adaf5aa4201f91365a1d5230738aa9472ff76beb88afdfbcc957","version":1,"time":1540916592,"locktime":0,"vin":[{"txid":"792b13ccf1353459c9f43f0a628abd06606d68b742ce8eeee5d9839dce4b7303","vout":2,"scriptSig":{"asm":"304402207725473f47e692699a0eb556510bdbeacc4a09d96b8de610fa21d4132688428f02200d40558097050403425103dd2bd4fb7512d795d2f97f1e6563a4aae9d4b1b74601","hex":"47304402207725473f47e692699a0eb556510bdbeacc4a09d96b8de610fa21d4132688428f02200d40558097050403425103dd2bd4fb7512d795d2f97f1e6563a4aae9d4b1b74601"},"sequence":4294967295}],"vout":[{"value":0,"n":0,"scriptPubKey":{"asm":"","type":"nonstandard"}},{"value":78.12,"n":1,"scriptPubKey":{"asm":"020b1cd26fc4b9f080aea1cf7b667efd5e8453f70429056589831fa7f63506ddbf OP_CHECKSIG","reqSigs":1,"type":"pubkey","addresses":["pECTDpfW4nW8hYte3f3F9ZQxwgWmBwmcYL"]}},{"value":78.13165,"n":2,"scriptPubKey":{"asm":"020b1cd26fc4b9f080aea1cf7b667efd5e8453f70429056589831fa7f63506ddbf OP_CHECKSIG","reqSigs":1,"type":"pubkey","addresses":["pECTDpfW4nW8hYte3f3F9ZQxwgWmBwmcYL"]}},{"value":0.00085,"n":3,"scriptPubKey":{"asm":"OP_DUP OP_HASH160 9590579f878db6722db4322a713599a3d865ecb1 OP_EQUALVERIFY OP_CHECKSIG","reqSigs":1,"type":"pubkeyhash","addresses":["pKBPoNA3SJPY8i2H3PXAafpEbMr7NNikgL"]}}],"blockhash":"75d1d3f4af0e06886e4e3bf9c418aac47ac82ec376530833dd55fc97f7397532","confirmations":158,"blocktime":1540916592}