{"hex":"010000006785d85b0239474f37f234566780a6c7e8fe7adfa8e87002e0032df20bcbf2d317963790d4000000006a47304402204d59060ab021912736a5284e9ea08e5ad1c63c7190c2ba11e910909a1aacbd3202201a57811e8f77f9d1a9dc035f457f89c282026b6f8eb2e28b4b99c120bab7029a012102a8db3b6c38d8fc0f93e5e6bcffcb7ce00d41434b83a866e5d79aceda2e93d950ffffffff94d42b5f80aec5615b57f9fcc5d8e52e1cb2d2b01ae4a0bb030654f2a0df5464000000006a47304402203b0c2be44954978db9fa993d6ebf807ac9a1760a20d75997d149467fc58a5e3802204bfb1e5c094cd4758156c53729352a23772c11dfbfb7241ead3b7ff4d433fd240121020b6646b3e53a14acb539c75f7b55c7197d5b163a731e23facccb1192adff0400ffffffff0244ff1c00000000001976a9140ace2ffb37bf36922508dfdc702dcc47278cc7ca88ac00e1f505000000001976a914fcde44126fd42331ad348fd1dcbd16b50a87aee988ac00000000","txid":"b5430ef50bbd0af79e3c10bc05e532fa1283e70b29df15ef2129e4240c37a816","version":1,"time":1540916592,"locktime":0,"vin":[{"txid":"d490379617d3f2cb0bf22d03e00270e8a8df7afee8c7a680675634f2374f4739","vout":0,"scriptSig":{"asm":"304402204d59060ab021912736a5284e9ea08e5ad1c63c7190c2ba11e910909a1aacbd3202201a57811e8f77f9d1a9dc035f457f89c282026b6f8eb2e28b4b99c120bab7029a01 02a8db3b6c38d8fc0f93e5e6bcffcb7ce00d41434b83a866e5d79aceda2e93d950","hex":"47304402204d59060ab021912736a5284e9ea08e5ad1c63c7190c2ba11e910909a1aacbd3202201a57811e8f77f9d1a9dc035f457f89c282026b6f8eb2e28b4b99c120bab7029a012102a8db3b6c38d8fc0f93e5e6bcffcb7ce00d41434b83a866e5d79aceda2e93d950"},"sequence":4294967295},{"txid":"6454dfa0f2540603bba0e41ab0d2b21c2ee5d8c5fcf9575b61c5ae805f2bd494","vout":0,"scriptSig":{"asm":"304402203b0c2be44954978db9fa993d6ebf807ac9a1760a20d75997d149467fc58a5e3802204bfb1e5c094cd4758156c53729352a23772c11dfbfb7241ead3b7ff4d433fd2401 020b6646b3e53a14acb539c75f7b55c7197d5b163a731e23facccb1192adff0400","hex":"47304402203b0c2be44954978db9fa993d6ebf807ac9a1760a20d75997d149467fc58a5e3802204bfb1e5c094cd4758156c53729352a23772c11dfbfb7241ead3b7ff4d433fd240121020b6646b3e53a14acb539c75f7b55c7197d5b163a731e23facccb1192adff0400"},"sequence":4294967295}],"vout":[{"value":0.01900356,"n":0,"scriptPubKey":{"asm":"OP_DUP OP_HASH160 0ace2ffb37bf36922508dfdc702dcc47278cc7ca OP_EQUALVERIFY OP_CHECKSIG","reqSigs":1,"type":"pubkeyhash","addresses":["p6Xhxn3YP4bGKcj7PFdMVVxezaxKvJGeWL"]}},{"value":1,"n":1,"scriptPubKey":{"asm":"OP_DUP OP_HASH160 fcde44126fd42331ad348fd1dcbd16b50a87aee9 OP_EQUALVERIFY OP_CHECKSIG","reqSigs":1,"type":"pubkeyhash","addresses":["pUbckMQoxv51M7u1QBqVUWNkLkPNZRfk5J"]}}],"blockhash":"75d1d3f4af0e06886e4e3bf9c418aac47ac82ec376530833dd55fc97f7397532","confirmations":158,"blocktime":1540916592}