{"hex":"01000000a071dc5b01b517f1c4d2848066499dc8dbdb9e25f432842c138812dd8a2c555bc65671860b0100000049483045022100bc3fa14d26296337f746fe46cdbd9b0a5b84111ca06eb37b626cb8e6e118155d022064ccc2d62eb42b0d7bda7049bcf3b5eb30902f90941922678b16521e279938ed01ffffffff0400000000000000000000514a8d0e00000023210210c18e3b5aba3a6167f17a2fd6b65419de165b4388a78f0e815f0e3bc60d34f3ac78384c8d0e00000023210210c18e3b5aba3a6167f17a2fd6b65419de165b4388a78f0e815f0e3bc60d34f3ac51ca0a00000000001976a914a539c7c64804ba10293866c3433100eabbe41ccf88ac00000000","txid":"0e3de04b61e8bf50faa729693e4e123be8ddeb000d8120a5bb1263d00927ad2d","version":1,"time":1541173664,"locktime":0,"vin":[{"txid":"0b867156c65b552c8add1288132c8432f4259edbdbc89d49668084d2c4f117b5","vout":1,"scriptSig":{"asm":"3045022100bc3fa14d26296337f746fe46cdbd9b0a5b84111ca06eb37b626cb8e6e118155d022064ccc2d62eb42b0d7bda7049bcf3b5eb30902f90941922678b16521e279938ed01","hex":"483045022100bc3fa14d26296337f746fe46cdbd9b0a5b84111ca06eb37b626cb8e6e118155d022064ccc2d62eb42b0d7bda7049bcf3b5eb30902f90941922678b16521e279938ed01"},"sequence":4294967295}],"vout":[{"value":0,"n":0,"scriptPubKey":{"asm":"","type":"nonstandard"}},{"value":625,"n":1,"scriptPubKey":{"asm":"0210c18e3b5aba3a6167f17a2fd6b65419de165b4388a78f0e815f0e3bc60d34f3 OP_CHECKSIG","reqSigs":1,"type":"pubkey","addresses":["pFf1Gp4G6PCkSUxUY1XLwNBH2ji6sBJMC3"]}},{"value":625.00124792,"n":2,"scriptPubKey":{"asm":"0210c18e3b5aba3a6167f17a2fd6b65419de165b4388a78f0e815f0e3bc60d34f3 OP_CHECKSIG","reqSigs":1,"type":"pubkey","addresses":["pFf1Gp4G6PCkSUxUY1XLwNBH2ji6sBJMC3"]}},{"value":0.00707153,"n":3,"scriptPubKey":{"asm":"OP_DUP OP_HASH160 a539c7c64804ba10293866c3433100eabbe41ccf OP_EQUALVERIFY OP_CHECKSIG","reqSigs":1,"type":"pubkeyhash","addresses":["pLcCv1RBNEWf4q17fiPMGMYqeFUvP9a826"]}}],"blockhash":"e71a4e3279b7dc5bf55113e6c33af733a636812430e42ed075b0a9a6a9a0f658","confirmations":72,"blocktime":1541173664}