{"hex":"010000009971dc5b03c1b146ece0db01df2fb9d7d4a30ab43f7a8a40fa60d92db01301b11cd47a5f73000000006a47304402204fa4f9251cacc7526b3ae6789d6bdba7569e17ced902bf069b0862743f6bd37502204cefddf3d0c18131d115d7f6e7e3db214e7c49e83b5daeadc36abe3029c0fa11012102f6adfbf759e5a3579cb726207a52d410f59e911fdc38db15c1e50296e45438f4ffffffffbf1b2df2c6578a5aacc96e9fb3839ff844ba9f89c54f003f72b0c2031f671381000000006b483045022100b66bb594b62fb4358a7f1b116fb2e690758624b54d6db9844aaf4959c4a4ff0e02204806e34ea7576b6057e6bf7a907f7bcad91ad4ccf31e3b6b569064362ca54b11012102c4e1353f1e4301277b4bd412bf6b6625580d543c6886866049e2c41f093b8dabffffffff5c6c47bf49a1f7801aad7ccd7eaa9615835e2246fff3fb5f7ba6797fcf39faba010000006a473044022041658237920aaddb7e61837b182c172671f0c3855bad2dbb1a035319233be5e7022074182f43879a91d1e6623031eb668aaa7466bdc792b5b46be6fd187a60887ba4012102cfb912c3b14bb5a498eb5931cfcb62bc9d71f5012f79a3d09b5bfbb342db7b1cffffffff0208249202000000001976a914a0cb9f57cb079cbe02718275ffefc01248bfbbb588ac9a7a9631000000001976a914f9044bc7484ce974c4cc29b7923b3604a6b630be88ac00000000","txid":"b33a27549ad7e1acbcf3dec161fce301208029e963a7e6ad3f951319409d6afe","version":1,"time":1541173664,"locktime":0,"vin":[{"txid":"735f7ad41cb10113b02dd960fa408a7a3fb40aa3d4d7b92fdf01dbe0ec46b1c1","vout":0,"scriptSig":{"asm":"304402204fa4f9251cacc7526b3ae6789d6bdba7569e17ced902bf069b0862743f6bd37502204cefddf3d0c18131d115d7f6e7e3db214e7c49e83b5daeadc36abe3029c0fa1101 02f6adfbf759e5a3579cb726207a52d410f59e911fdc38db15c1e50296e45438f4","hex":"47304402204fa4f9251cacc7526b3ae6789d6bdba7569e17ced902bf069b0862743f6bd37502204cefddf3d0c18131d115d7f6e7e3db214e7c49e83b5daeadc36abe3029c0fa11012102f6adfbf759e5a3579cb726207a52d410f59e911fdc38db15c1e50296e45438f4"},"sequence":4294967295},{"txid":"8113671f03c2b0723f004fc5899fba44f89f83b39f6ec9ac5a8a57c6f22d1bbf","vout":0,"scriptSig":{"asm":"3045022100b66bb594b62fb4358a7f1b116fb2e690758624b54d6db9844aaf4959c4a4ff0e02204806e34ea7576b6057e6bf7a907f7bcad91ad4ccf31e3b6b569064362ca54b1101 02c4e1353f1e4301277b4bd412bf6b6625580d543c6886866049e2c41f093b8dab","hex":"483045022100b66bb594b62fb4358a7f1b116fb2e690758624b54d6db9844aaf4959c4a4ff0e02204806e34ea7576b6057e6bf7a907f7bcad91ad4ccf31e3b6b569064362ca54b11012102c4e1353f1e4301277b4bd412bf6b6625580d543c6886866049e2c41f093b8dab"},"sequence":4294967295},{"txid":"bafa39cf7f79a67b5ffbf3ff46225e831596aa7ecd7cad1a80f7a149bf476c5c","vout":1,"scriptSig":{"asm":"3044022041658237920aaddb7e61837b182c172671f0c3855bad2dbb1a035319233be5e7022074182f43879a91d1e6623031eb668aaa7466bdc792b5b46be6fd187a60887ba401 02cfb912c3b14bb5a498eb5931cfcb62bc9d71f5012f79a3d09b5bfbb342db7b1c","hex":"473044022041658237920aaddb7e61837b182c172671f0c3855bad2dbb1a035319233be5e7022074182f43879a91d1e6623031eb668aaa7466bdc792b5b46be6fd187a60887ba4012102cfb912c3b14bb5a498eb5931cfcb62bc9d71f5012f79a3d09b5bfbb342db7b1c"},"sequence":4294967295}],"vout":[{"value":0.43131912,"n":0,"scriptPubKey":{"asm":"OP_DUP OP_HASH160 a0cb9f57cb079cbe02718275ffefc01248bfbbb5 OP_EQUALVERIFY OP_CHECKSIG","reqSigs":1,"type":"pubkeyhash","addresses":["pLCnFLGqzqvYZUB9fcXBodLXor6jXmVqLm"]}},{"value":8.3194537,"n":1,"scriptPubKey":{"asm":"OP_DUP OP_HASH160 f9044bc7484ce974c4cc29b7923b3604a6b630be OP_EQUALVERIFY OP_CHECKSIG","reqSigs":1,"type":"pubkeyhash","addresses":["pUFFbxpnVEeTU9WJtahH2fgoDx92kRShPT"]}}],"blockhash":"e71a4e3279b7dc5bf55113e6c33af733a636812430e42ed075b0a9a6a9a0f658","confirmations":72,"blocktime":1541173664}