{"hex":"01000000d0bad85b01481cdea08b17dfd4fafbc08d2d991d6838da95c017f4d94f4a072b6bc266ff960200000049483045022100de5a32c1a503970d82a23c05564b19903b3f6e65ebaf409b679af07ebfea14f902207289b396cc49d6b34f435b62f5432f028d8ae74e5ff03412d7d429ca6e0edef601ffffffff0400000000000000000000514a8d0e000000232102c70f997963ce3f3ea88266ee3e0c833058cd21ae02eae02cd993b9664c686d89ac765f4a8d0e000000232102c70f997963ce3f3ea88266ee3e0c833058cd21ae02eae02cd993b9664c686d89acdb120000000000001976a914f6ea51b1cf22773ff3c68e8299209dc9d69d593f88ac00000000","txid":"5306165054cffd814e66c3a4a30c355b2eb18fa45630ce42f7d268fa2d6130c8","version":1,"time":1540930256,"locktime":0,"vin":[{"txid":"96ff66c26b2b074a4fd9f417c095da38681d992d8dc0fbfad4df178ba0de1c48","vout":2,"scriptSig":{"asm":"3045022100de5a32c1a503970d82a23c05564b19903b3f6e65ebaf409b679af07ebfea14f902207289b396cc49d6b34f435b62f5432f028d8ae74e5ff03412d7d429ca6e0edef601","hex":"483045022100de5a32c1a503970d82a23c05564b19903b3f6e65ebaf409b679af07ebfea14f902207289b396cc49d6b34f435b62f5432f028d8ae74e5ff03412d7d429ca6e0edef601"},"sequence":4294967295}],"vout":[{"value":0,"n":0,"scriptPubKey":{"asm":"","type":"nonstandard"}},{"value":625,"n":1,"scriptPubKey":{"asm":"02c70f997963ce3f3ea88266ee3e0c833058cd21ae02eae02cd993b9664c686d89 OP_CHECKSIG","reqSigs":1,"type":"pubkey","addresses":["pTQJsZTT2bpmhnKWdT3rdczVS5MaBuXxyB"]}},{"value":625.00003702,"n":2,"scriptPubKey":{"asm":"02c70f997963ce3f3ea88266ee3e0c833058cd21ae02eae02cd993b9664c686d89 OP_CHECKSIG","reqSigs":1,"type":"pubkey","addresses":["pTQJsZTT2bpmhnKWdT3rdczVS5MaBuXxyB"]}},{"value":0.00004827,"n":3,"scriptPubKey":{"asm":"OP_DUP OP_HASH160 f6ea51b1cf22773ff3c68e8299209dc9d69d593f OP_EQUALVERIFY OP_CHECKSIG","reqSigs":1,"type":"pubkeyhash","addresses":["pU498g2Tze2KypwgCnomJXchMWH8HXyZb6"]}}],"blockhash":"9b34543f7e5fd3076b54e2d4d9a547bfa8cecc122adac2d4fb0dc3594dc211fb","confirmations":146,"blocktime":1540930256}