{"hex":"01000000cbbad85b014f5178eb192d4f09937761a3a2384e9251c320a0f348aed40f65cece2d4800ea010000006a473044022067780e9541f89a6cb37e1a542e72e46dc5905f617e37616395b9369758a8362402200adb42867a818fd76ce7f5a5f35ca5e8576f26bc147d6f33dc85790248f10b0001210246db8cde215f026b9dddb6c86f92da94776c3b7fabe0629defabdb89ae2ba950ffffffff021e09443b000000001976a91492b6cd41a4c7654a4b06aad3bc04a8489c0f701588acb3aa5600000000001976a9148a44b29e900fae897bbcb8fd025c45baaceecd4388ac00000000","txid":"5d6c3da00c0500f764fb1d47220ee8f84a72d65532610d701f06dfbffb1ec645","version":1,"time":1540930256,"locktime":0,"vin":[{"txid":"ea00482dcece650fd4ae48f3a020c351924e38a2a3617793094f2d19eb78514f","vout":1,"scriptSig":{"asm":"3044022067780e9541f89a6cb37e1a542e72e46dc5905f617e37616395b9369758a8362402200adb42867a818fd76ce7f5a5f35ca5e8576f26bc147d6f33dc85790248f10b0001 0246db8cde215f026b9dddb6c86f92da94776c3b7fabe0629defabdb89ae2ba950","hex":"473044022067780e9541f89a6cb37e1a542e72e46dc5905f617e37616395b9369758a8362402200adb42867a818fd76ce7f5a5f35ca5e8576f26bc147d6f33dc85790248f10b0001210246db8cde215f026b9dddb6c86f92da94776c3b7fabe0629defabdb89ae2ba950"},"sequence":4294967295}],"vout":[{"value":9.94314526,"n":0,"scriptPubKey":{"asm":"OP_DUP OP_HASH160 92b6cd41a4c7654a4b06aad3bc04a8489c0f7015 OP_EQUALVERIFY OP_CHECKSIG","reqSigs":1,"type":"pubkeyhash","addresses":["pJvKr19TYdvBenTGhfUwt9JAoRo1svQBwL"]}},{"value":0.05679795,"n":1,"scriptPubKey":{"asm":"OP_DUP OP_HASH160 8a44b29e900fae897bbcb8fd025c45baaceecd43 OP_EQUALVERIFY OP_CHECKSIG","reqSigs":1,"type":"pubkeyhash","addresses":["pJ9fkP1PF4RLhcCPkuHMMEpCp5mLZqTWyD"]}}],"blockhash":"9b34543f7e5fd3076b54e2d4d9a547bfa8cecc122adac2d4fb0dc3594dc211fb","confirmations":146,"blocktime":1540930256}