{"hex":"01000000d0bad85b011ad329f4a5e2c29ca91b5b40f75ff4e647171241ec6681f1f8c580098c9f784a0200000048473044022060abe704baffc69c17efb284458cb5c3f78a9a3197e84141ca8c916adc9c190102203c514c781744f327b14767dc40bf14e336504e4ffa472e6cd726494b84343ae801ffffffff040000000000000000000064bda30300000023210348b24f77eda58d2bf0bd56f764cfdeb0100d2f1058b2d5318f2f2fc9670e730eaca084bda30300000023210348b24f77eda58d2bf0bd56f764cfdeb0100d2f1058b2d5318f2f2fc9670e730eacdb120000000000001976a91422d06420236528fe42b5c2302e36704d85b646de88ac00000000","txid":"6197d36efb96386b35315e67c1f27cdd862b216c4f7014b760743c6384326273","version":1,"time":1540930256,"locktime":0,"vin":[{"txid":"4a789f8c0980c5f8f18166ec41121747e6f45ff7405b1ba99cc2e2a5f429d31a","vout":2,"scriptSig":{"asm":"3044022060abe704baffc69c17efb284458cb5c3f78a9a3197e84141ca8c916adc9c190102203c514c781744f327b14767dc40bf14e336504e4ffa472e6cd726494b84343ae801","hex":"473044022060abe704baffc69c17efb284458cb5c3f78a9a3197e84141ca8c916adc9c190102203c514c781744f327b14767dc40bf14e336504e4ffa472e6cd726494b84343ae801"},"sequence":4294967295}],"vout":[{"value":0,"n":0,"scriptPubKey":{"asm":"","type":"nonstandard"}},{"value":156.32,"n":1,"scriptPubKey":{"asm":"0348b24f77eda58d2bf0bd56f764cfdeb0100d2f1058b2d5318f2f2fc9670e730e OP_CHECKSIG","reqSigs":1,"type":"pubkey","addresses":["p8X7huKtvdnnDzc17Xcxxh1Z9ww8ckxvVJ"]}},{"value":156.32008352,"n":2,"scriptPubKey":{"asm":"0348b24f77eda58d2bf0bd56f764cfdeb0100d2f1058b2d5318f2f2fc9670e730e OP_CHECKSIG","reqSigs":1,"type":"pubkey","addresses":["p8X7huKtvdnnDzc17Xcxxh1Z9ww8ckxvVJ"]}},{"value":0.00004827,"n":3,"scriptPubKey":{"asm":"OP_DUP OP_HASH160 22d06420236528fe42b5c2302e36704d85b646de OP_EQUALVERIFY OP_CHECKSIG","reqSigs":1,"type":"pubkeyhash","addresses":["p8iepVjrqbjo1uNb8dyXKBBerSUv6zrPfw"]}}],"blockhash":"f1d73f37aef26907d579f44ead3423de41d5dae9bf98c0dd64761884472280ed","confirmations":2,"blocktime":1540930256}