{"hex":"01000000e0a9c25b01f710a1f70282ba5a53e0445a2288892570934e593aa3cc1449977fea6365ca3a0100000049483045022100fe2ab16098613e62d58cd6672cdcfec3136138e79159a7144a4a442cdcb67cc002200573eaa49e1b072fd5b8567ff25bdaaee5747e2d147f7402372638009e784f4101ffffffff040000000000000000008053e41b1d00000023210348b24f77eda58d2bf0bd56f764cfdeb0100d2f1058b2d5318f2f2fc9670e730eacc095f31b1d00000023210348b24f77eda58d2bf0bd56f764cfdeb0100d2f1058b2d5318f2f2fc9670e730eac80fe210a000000001976a91413cd926daa0b2e1422cabca27e3cbc3aebbee60e88ac00000000","txid":"5bbb536e09e285be47e6e484cfc289f715af0065fda995feda5389ac0c981a87","version":1,"time":1539484128,"locktime":0,"vin":[{"txid":"3aca6563ea7f974914cca33a594e9370258988225a44e0535aba8202f7a110f7","vout":1,"scriptSig":{"asm":"3045022100fe2ab16098613e62d58cd6672cdcfec3136138e79159a7144a4a442cdcb67cc002200573eaa49e1b072fd5b8567ff25bdaaee5747e2d147f7402372638009e784f4101","hex":"483045022100fe2ab16098613e62d58cd6672cdcfec3136138e79159a7144a4a442cdcb67cc002200573eaa49e1b072fd5b8567ff25bdaaee5747e2d147f7402372638009e784f4101"},"sequence":4294967295}],"vout":[{"value":0,"n":0,"scriptPubKey":{"asm":"","type":"nonstandard"}},{"value":1250.22,"n":1,"scriptPubKey":{"asm":"0348b24f77eda58d2bf0bd56f764cfdeb0100d2f1058b2d5318f2f2fc9670e730e OP_CHECKSIG","reqSigs":1,"type":"pubkey","addresses":["p8X7huKtvdnnDzc17Xcxxh1Z9ww8ckxvVJ"]}},{"value":1250.23,"n":2,"scriptPubKey":{"asm":"0348b24f77eda58d2bf0bd56f764cfdeb0100d2f1058b2d5318f2f2fc9670e730e OP_CHECKSIG","reqSigs":1,"type":"pubkey","addresses":["p8X7huKtvdnnDzc17Xcxxh1Z9ww8ckxvVJ"]}},{"value":1.7,"n":3,"scriptPubKey":{"asm":"OP_DUP OP_HASH160 13cd926daa0b2e1422cabca27e3cbc3aebbee60e OP_EQUALVERIFY OP_CHECKSIG","reqSigs":1,"type":"pubkeyhash","addresses":["p7MHJk1NCoVwVPjx7mEGWrpeSkLSYSZyuV"]}}],"blockhash":"10603b7a2591697b0683a2e9142ee276ba67e69c19b5897027ff41b0326d2449","confirmations":325,"blocktime":1539484128}