{"hex":"01000000d0a9c25b01024ce2ea31c31afc5b0931c95838aab58bdd7f8746737185bddd193312379a4e000000006a4730440220237e7179f53afa442502ec77f5f639152025be42d80ad5c6ac8ddaf95754cd2402201dba3280f6b5ea5159db6ad30828614b59e4277c6d0cb2c2d71fef0c8808c312012102ea3b00a7200995d352ec2196bafd459c8667511e950c869f70796fc6b9d6f876ffffffff02005a28d07b7c23001976a91466bb932061e2b83c5477ff7d3aa56ed7cf231ca588ac0088526a740000001976a9148ed189b44bba56ef2095854efd11229aa16bf8e488ac00000000","txid":"ca42de4206c58e76d569a824ed8dc57ba8d461ac1edac90783294572eb8ea2cb","version":1,"time":1539484128,"locktime":0,"vin":[{"txid":"4e9a37123319ddbd85717346877fdd8bb5aa3858c931095bfc1ac331eae24c02","vout":0,"scriptSig":{"asm":"30440220237e7179f53afa442502ec77f5f639152025be42d80ad5c6ac8ddaf95754cd2402201dba3280f6b5ea5159db6ad30828614b59e4277c6d0cb2c2d71fef0c8808c31201 02ea3b00a7200995d352ec2196bafd459c8667511e950c869f70796fc6b9d6f876","hex":"4730440220237e7179f53afa442502ec77f5f639152025be42d80ad5c6ac8ddaf95754cd2402201dba3280f6b5ea5159db6ad30828614b59e4277c6d0cb2c2d71fef0c8808c312012102ea3b00a7200995d352ec2196bafd459c8667511e950c869f70796fc6b9d6f876"},"sequence":4294967295}],"vout":[{"value":99884954,"n":0,"scriptPubKey":{"asm":"OP_DUP OP_HASH160 66bb932061e2b83c5477ff7d3aa56ed7cf231ca5 OP_EQUALVERIFY OP_CHECKSIG","reqSigs":1,"type":"pubkeyhash","addresses":["pEumqC5QP74kGaNhFUi1dtQK6RcsGQgL7K"]}},{"value":5000,"n":1,"scriptPubKey":{"asm":"OP_DUP OP_HASH160 8ed189b44bba56ef2095854efd11229aa16bf8e4 OP_EQUALVERIFY OP_CHECKSIG","reqSigs":1,"type":"pubkeyhash","addresses":["pJZjAtqMwq9jFa2kTVK5K8psT7erMHW8FX"]}}],"blockhash":"10603b7a2591697b0683a2e9142ee276ba67e69c19b5897027ff41b0326d2449","confirmations":325,"blocktime":1539484128}