{"hex":"01000000a362e05b05b153b27499adebce63344c1319cb5f1bec36ab8d3bfe89b34114c3cbf5c7130f000000006a47304402202390fb29041432acd360797b28e25b4999ca928dc03cef7337209c3305da426d022076f173bcc6f79d31124c9c41b7b58c2ec23b9ee57ecc64ff8ac08f65f3612499012103a61f2c8405827a4b0f8424f5917306302668d32cae2b33919da090be940c74efffffffffbc575483cfc8e8efb47e37e36d6b1c19a1f18aa7353f714b3b9f4931b70321b8000000006b483045022100fe8710e336f6c89f09e2dda40f660ae72c54988c88cc4910564cd1786b09db84022077af08efe94d21f7c3ff87a47ac55f13973463d605c4221f5bb309f5767b6d3d012102a8a09bc94e5948ee2ae82d121920e551d80b686425a199ebd9d20b348bb6a9e5fffffffff6f62b3fe00ced52586d9b390ed4f0c3488ab80043caa50ecec9cf1ec35dc26f010000006a47304402202021f0e0667bde1fd4c70d62e57ce4cc423e1e0d23ae7dcbebfd5891d96b3ccd02203c48709b9853c52c42706d5374acd5da50545a5c35abb15c8c47f4a43b2f15bd01210231a5c8098ca6be5bf44d0b0fa41b45feec9485be3ea4c7a3667b1ca9acdb63edffffffff35d260839c5915fa60be29d158f3588e745bf08d127f801c432bd746201e38f9000000006b483045022100ed5978390a28b0d2433d23bd44b8c82e5444edcfc6d3df41695f72c33a55096302204027dfdb92d5204c00f562ec637ec8d1005d0f7b1973b0ade3cb886a4f757d91012103a61f2c8405827a4b0f8424f5917306302668d32cae2b33919da090be940c74efffffffff35d260839c5915fa60be29d158f3588e745bf08d127f801c432bd746201e38f9010000006a4730440220694ea625e74c7cab48e624f55140689088b81bf49d0134293133d3c353e0e4c8022073b3a7ea489adbc447c059cf38ece355122fcff34b4b99af14d75e15e2b86516012103694e1a76b36bfe36bfb5adb94ab29be8f84b1f076e74804bf5c514f733d47e0fffffffff0243fa0f00000000001976a914a2e34c0340530a9c124e11c619e3e0ab57b2b16b88acf7b90c06000000001976a914f7d54bb26a4e3e740708f8749e45220586fcd8cc88ac00000000","txid":"09080e2b7f8280dc50129e98aa6a6f87934f04788333e11dad7df9c85f96128b","version":1,"time":1541431984,"locktime":0,"vin":[{"txid":"0f13c7f5cbc31441b389fe3b8dab36ec1b5fcb19134c3463ceebad9974b253b1","vout":0,"scriptSig":{"asm":"304402202390fb29041432acd360797b28e25b4999ca928dc03cef7337209c3305da426d022076f173bcc6f79d31124c9c41b7b58c2ec23b9ee57ecc64ff8ac08f65f361249901 03a61f2c8405827a4b0f8424f5917306302668d32cae2b33919da090be940c74ef","hex":"47304402202390fb29041432acd360797b28e25b4999ca928dc03cef7337209c3305da426d022076f173bcc6f79d31124c9c41b7b58c2ec23b9ee57ecc64ff8ac08f65f3612499012103a61f2c8405827a4b0f8424f5917306302668d32cae2b33919da090be940c74ef"},"sequence":4294967295},{"txid":"b82103b731499f3b4b713f35a78af1a1191c6b6de3377eb4efe8c8cf835457bc","vout":0,"scriptSig":{"asm":"3045022100fe8710e336f6c89f09e2dda40f660ae72c54988c88cc4910564cd1786b09db84022077af08efe94d21f7c3ff87a47ac55f13973463d605c4221f5bb309f5767b6d3d01 02a8a09bc94e5948ee2ae82d121920e551d80b686425a199ebd9d20b348bb6a9e5","hex":"483045022100fe8710e336f6c89f09e2dda40f660ae72c54988c88cc4910564cd1786b09db84022077af08efe94d21f7c3ff87a47ac55f13973463d605c4221f5bb309f5767b6d3d012102a8a09bc94e5948ee2ae82d121920e551d80b686425a199ebd9d20b348bb6a9e5"},"sequence":4294967295},{"txid":"6fc25dc31ecfc9ce0ea5ca4300b88a48c3f0d40e399b6d5852ed0ce03f2bf6f6","vout":1,"scriptSig":{"asm":"304402202021f0e0667bde1fd4c70d62e57ce4cc423e1e0d23ae7dcbebfd5891d96b3ccd02203c48709b9853c52c42706d5374acd5da50545a5c35abb15c8c47f4a43b2f15bd01 0231a5c8098ca6be5bf44d0b0fa41b45feec9485be3ea4c7a3667b1ca9acdb63ed","hex":"47304402202021f0e0667bde1fd4c70d62e57ce4cc423e1e0d23ae7dcbebfd5891d96b3ccd02203c48709b9853c52c42706d5374acd5da50545a5c35abb15c8c47f4a43b2f15bd01210231a5c8098ca6be5bf44d0b0fa41b45feec9485be3ea4c7a3667b1ca9acdb63ed"},"sequence":4294967295},{"txid":"f9381e2046d72b431c807f128df05b748e58f358d129be60fa15599c8360d235","vout":0,"scriptSig":{"asm":"3045022100ed5978390a28b0d2433d23bd44b8c82e5444edcfc6d3df41695f72c33a55096302204027dfdb92d5204c00f562ec637ec8d1005d0f7b1973b0ade3cb886a4f757d9101 03a61f2c8405827a4b0f8424f5917306302668d32cae2b33919da090be940c74ef","hex":"483045022100ed5978390a28b0d2433d23bd44b8c82e5444edcfc6d3df41695f72c33a55096302204027dfdb92d5204c00f562ec637ec8d1005d0f7b1973b0ade3cb886a4f757d91012103a61f2c8405827a4b0f8424f5917306302668d32cae2b33919da090be940c74ef"},"sequence":4294967295},{"txid":"f9381e2046d72b431c807f128df05b748e58f358d129be60fa15599c8360d235","vout":1,"scriptSig":{"asm":"30440220694ea625e74c7cab48e624f55140689088b81bf49d0134293133d3c353e0e4c8022073b3a7ea489adbc447c059cf38ece355122fcff34b4b99af14d75e15e2b8651601 03694e1a76b36bfe36bfb5adb94ab29be8f84b1f076e74804bf5c514f733d47e0f","hex":"4730440220694ea625e74c7cab48e624f55140689088b81bf49d0134293133d3c353e0e4c8022073b3a7ea489adbc447c059cf38ece355122fcff34b4b99af14d75e15e2b86516012103694e1a76b36bfe36bfb5adb94ab29be8f84b1f076e74804bf5c514f733d47e0f"},"sequence":4294967295}],"vout":[{"value":0.01047107,"n":0,"scriptPubKey":{"asm":"OP_DUP OP_HASH160 a2e34c0340530a9c124e11c619e3e0ab57b2b16b OP_EQUALVERIFY OP_CHECKSIG","reqSigs":1,"type":"pubkeyhash","addresses":["pLPqxecNg6nN6ZHfuYBrBktLavcGmU4TCj"]}},{"value":1.01497335,"n":1,"scriptPubKey":{"asm":"OP_DUP OP_HASH160 f7d54bb26a4e3e740708f8749e45220586fcd8cc OP_EQUALVERIFY OP_CHECKSIG","reqSigs":1,"type":"pubkeyhash","addresses":["pU8zd8ccdjNRorNDfNFPeXQJg5tx46b1q9"]}}],"blockhash":"de7f4cefb8cb8f93b4687855619a2a3a9ece771dac243b0e4cf601282be62658","confirmations":32,"blocktime":1541431984}