{"hex":"01000000b062e05b015f5004637bb36b54d23537eecc9fef3fbb05353f91a55898e1b1af0801c8772a010000004847304402201201539811f47a6ee981d8f653857db8e0fcddbf5a96d29172bf5f9632657b69022050d80638328f574490a26846a4e41df84b25c9d7ff3ae737d51bd5631c23851d01ffffffff0400000000000000000040ebb0d101000000232103670be5afe77a215b42f2bc4bd7c1c5049117430d8e81c1de5c44e9ab4c566689acb926b1d101000000232103670be5afe77a215b42f2bc4bd7c1c5049117430d8e81c1de5c44e9ab4c566689ac00510100000000001976a9144c86b0b2edcbbfcf0d0112bbb160a541568205b788ac00000000","txid":"f65f81337cbb10fac4258c45bff25191cd578f7801d104bbd1ffaa6a392616d6","version":1,"time":1541431984,"locktime":0,"vin":[{"txid":"2a77c80108afb1e19858a5913f3505bb3fef9fccee3735d2546bb37b6304505f","vout":1,"scriptSig":{"asm":"304402201201539811f47a6ee981d8f653857db8e0fcddbf5a96d29172bf5f9632657b69022050d80638328f574490a26846a4e41df84b25c9d7ff3ae737d51bd5631c23851d01","hex":"47304402201201539811f47a6ee981d8f653857db8e0fcddbf5a96d29172bf5f9632657b69022050d80638328f574490a26846a4e41df84b25c9d7ff3ae737d51bd5631c23851d01"},"sequence":4294967295}],"vout":[{"value":0,"n":0,"scriptPubKey":{"asm":"","type":"nonstandard"}},{"value":78.13,"n":1,"scriptPubKey":{"asm":"03670be5afe77a215b42f2bc4bd7c1c5049117430d8e81c1de5c44e9ab4c566689 OP_CHECKSIG","reqSigs":1,"type":"pubkey","addresses":["pRVJAmbxV6TyzWMNW1oNoV1k3zM77bZrBx"]}},{"value":78.13015225,"n":2,"scriptPubKey":{"asm":"03670be5afe77a215b42f2bc4bd7c1c5049117430d8e81c1de5c44e9ab4c566689 OP_CHECKSIG","reqSigs":1,"type":"pubkey","addresses":["pRVJAmbxV6TyzWMNW1oNoV1k3zM77bZrBx"]}},{"value":0.00086272,"n":3,"scriptPubKey":{"asm":"OP_DUP OP_HASH160 4c86b0b2edcbbfcf0d0112bbb160a541568205b7 OP_EQUALVERIFY OP_CHECKSIG","reqSigs":1,"type":"pubkeyhash","addresses":["pCXCuj4F9uaYHMue5Nqy3XLKdLz4U9gRoi"]}}],"blockhash":"de7f4cefb8cb8f93b4687855619a2a3a9ece771dac243b0e4cf601282be62658","confirmations":32,"blocktime":1541431984}