{"hex":"0100000093f9d95b01feaa3e9e24ca0e552d95de928fdc9fe62dc9c22304c757fa57c7afb26b7cace5010000006b48304502210091e4da82736d56350f2183dd3f672064494654730a40b4bf9d2db2972308100e02205d1245191e9c3f4bdab3228a97cc6758c52c7064ff0f8845e0ddb7ed28fd157e012102d1c427cba647409169f2492ac4386fd5fedf1181c9e44cdf4afa8bc8bfc11a8dffffffff027014cb02000000001976a914e62bb4860cf5b11b5246b1fab7cc81c52dc5e36488ac74fe1d07000000001976a91440213f0e00c218017648b4161057b014349553f388ac00000000","txid":"326d15bcb5016714d00bbd7babef31beaaf7e01dcdc7b6d37d366047e9112e94","version":1,"time":1541011872,"locktime":0,"vin":[{"txid":"e5ac7c6bb2afc757fa57c70423c2c92de69fdc8f92de952d550eca249e3eaafe","vout":1,"scriptSig":{"asm":"304502210091e4da82736d56350f2183dd3f672064494654730a40b4bf9d2db2972308100e02205d1245191e9c3f4bdab3228a97cc6758c52c7064ff0f8845e0ddb7ed28fd157e01 02d1c427cba647409169f2492ac4386fd5fedf1181c9e44cdf4afa8bc8bfc11a8d","hex":"48304502210091e4da82736d56350f2183dd3f672064494654730a40b4bf9d2db2972308100e02205d1245191e9c3f4bdab3228a97cc6758c52c7064ff0f8845e0ddb7ed28fd157e012102d1c427cba647409169f2492ac4386fd5fedf1181c9e44cdf4afa8bc8bfc11a8d"},"sequence":4294967295}],"vout":[{"value":0.46863472,"n":0,"scriptPubKey":{"asm":"OP_DUP OP_HASH160 e62bb4860cf5b11b5246b1fab7cc81c52dc5e364 OP_EQUALVERIFY OP_CHECKSIG","reqSigs":1,"type":"pubkeyhash","addresses":["pSXbyWpnaPi19xXrNLxXobUidgHYGtXfED"]}},{"value":1.19406196,"n":1,"scriptPubKey":{"asm":"OP_DUP OP_HASH160 40213f0e00c218017648b4161057b014349553f3 OP_EQUALVERIFY OP_CHECKSIG","reqSigs":1,"type":"pubkeyhash","addresses":["pBPfGybdewbGB1mTZPoC716wA1B9obD5XE"]}}],"blockhash":"ca598579850926b31e09a95f65f8e5395539b02b54ab3ac9d339295dec987c8f","confirmations":125,"blocktime":1541011872}