{"hex":"01000000a0f9d95b010f15a469139588509d6e08776bc00f5cc2e5f924fefac49fce274d3b0fa900800100000049483045022100e72965ab7ceb65fa2f1bcd34de191413abc416aecf25a3ae2f5926a1c2a81b2702202ab8828a97fd4e71b21d0b7673c55ef007cb0275e632c1c73730d94f96b0382601ffffffff0400000000000000000000a2941a1d00000023210225f56582c0abe2781838770c5c30998678f9fa83ab5fbd05d306fd8d18795aa9acf7e7941a1d00000023210225f56582c0abe2781838770c5c30998678f9fa83ab5fbd05d306fd8d18795aa9ac778c0100000000001976a91405799d876e3b7c328ae01baece26d0f931b0f5fa88ac00000000","txid":"88d526779e289b74a4ffcac878d2520f29940ae9cfbc295d0313131f8c36548f","version":1,"time":1541011872,"locktime":0,"vin":[{"txid":"8000a90f3b4d27ce9fc4fafe24f9e5c25c0fc06b77086e9d5088951369a4150f","vout":1,"scriptSig":{"asm":"3045022100e72965ab7ceb65fa2f1bcd34de191413abc416aecf25a3ae2f5926a1c2a81b2702202ab8828a97fd4e71b21d0b7673c55ef007cb0275e632c1c73730d94f96b0382601","hex":"483045022100e72965ab7ceb65fa2f1bcd34de191413abc416aecf25a3ae2f5926a1c2a81b2702202ab8828a97fd4e71b21d0b7673c55ef007cb0275e632c1c73730d94f96b0382601"},"sequence":4294967295}],"vout":[{"value":0,"n":0,"scriptPubKey":{"asm":"","type":"nonstandard"}},{"value":1250,"n":1,"scriptPubKey":{"asm":"0225f56582c0abe2781838770c5c30998678f9fa83ab5fbd05d306fd8d18795aa9 OP_CHECKSIG","reqSigs":1,"type":"pubkey","addresses":["pCKW9SAQCqUGY9LAu3CZjkVaZdBvRi2DKL"]}},{"value":1250.00017911,"n":2,"scriptPubKey":{"asm":"0225f56582c0abe2781838770c5c30998678f9fa83ab5fbd05d306fd8d18795aa9 OP_CHECKSIG","reqSigs":1,"type":"pubkey","addresses":["pCKW9SAQCqUGY9LAu3CZjkVaZdBvRi2DKL"]}},{"value":0.00101495,"n":3,"scriptPubKey":{"asm":"OP_DUP OP_HASH160 05799d876e3b7c328ae01baece26d0f931b0f5fa OP_EQUALVERIFY OP_CHECKSIG","reqSigs":1,"type":"pubkeyhash","addresses":["p63XGeVRkcywXEQJE5bkXjJFiugf8tT1er"]}}],"blockhash":"ca598579850926b31e09a95f65f8e5395539b02b54ab3ac9d339295dec987c8f","confirmations":125,"blocktime":1541011872}