{"hex":"01000000698de05b09cc846f6cbba9af4993f223485292f278049928b5b0c41697c3cad2b0775a858c000000006a47304402201df5b73a76abb83d53345eba30b41c0fe3d91ba5ae82481349353ba97f86d41f02203d0d128e953f9081391b6fcc2f930c05268b3c6b59e0ea47041e2481eddd815c01210310980bc4ce97d190f12bcd62c639af50e492f51c4ffdc672fc206575f66f7aebfffffffff7656eb51871dbe95b6e730e7937646088076cd90df47df08e028cc1c6fbba3e000000006a47304402203098dccc6598ff18de17dc2f34ddaf08f3e51a180930d91bbac65e1ec82b522e022013ed33789c4015afe06f6becd670021be40ce61b9fa79b0290e12ab00e0e1dca01210220e9af62be63edc30c74a84d9f874cdb5e70aff1de02e07cfab37d29375fe47dfffffffff7656eb51871dbe95b6e730e7937646088076cd90df47df08e028cc1c6fbba3e010000006b483045022100cc42a4773a7652d7f228f54d4ca491fc4016f51252e9fa60526af4987a31a1340220185ada888255b4a6a92315c5c408ca15cf4111a30d1638094a816f9534697f490121024ee36191d40039f8b303a7677287652b23f19c8fb16242b58f5c6abaa4fb84b2ffffffff9229ede939641943be63f72e399b52632e04c90dddd9e0ddacdd5e938016e7f10100000069463043021f1f5a2b16d8871ad520adc636ebdb9c02d92e74e0158a73e9243c6e2867f10802200c3cac7a27d4168e4c79a625973a50acb4406032cb3497e321b44382e1dfb8be0121036963313b872da26247686b32893c1d771314b5000fb911bc9d639bbdaa573e7cffffffff204f06729d6bb46c5604ed6b0b11f4a409c3d38337ef1927b4b2f14381fc0455010000006b4830450221009928973eec2a0764a931bb5bff64616aef6d5ba082f095f5dcf2b0692097bb0c0220484fa9dbc8341a25aadc04e8f8cdcd4d82d0bb7593506416c35b1af14f0275f60121029b2db522e8e6f6f465a04db6fb4ca292fb3895c02fb81df6f97bc22df0dd31bbffffffff6f6769ac9bf29d2dabac97034e5c75e6b4c9782b2b37b588f56bceb109710178000000006a47304402207666b0a540e868925376ab7d17f1f25902b29d08a6d6ed5b2f25cbb5ab41cf5f0220368a03b94576682ea88064f7f2ac404673aa26821aec2fe604d83026a5cd1887012103a28d20bc24ce4238dfc506f12d5fc38b7fcd09f2cd9b427ea19e1904fda48981ffffffff6f6769ac9bf29d2dabac97034e5c75e6b4c9782b2b37b588f56bceb109710178010000006b483045022100b90f815bd5767b2550975d46ccde2913a7e8bbbc481af97f43310137752a824e0220276aae3d15d0d50a5c8e50d56a4c78481fbe075a1fb5433aec3e5e6999450ea901210239fd47fb903897f8378f58b74281a5c4dd725772d4c202dabc250ca84097926fffffffff7a0aad28d082bd98b36598274c429af6b720c7c1cf90ca210cd6b7de96280919000000006a4730440220446826f93618f293e6451eef293de589c2fbab3a50f6c74a5ac6a2da743eae9702203f6f73a73cf0daf46b290b4812cd92d602ff5bb15c684131dc4ed7d14ad4d5b001210310980bc4ce97d190f12bcd62c639af50e492f51c4ffdc672fc206575f66f7aebffffffff7a0aad28d082bd98b36598274c429af6b720c7c1cf90ca210cd6b7de96280919010000006b48304502210090a990dde1115cb322684d218353590a633fc0f03d5e5aa011f9972821e9877e0220377f9531c2c867dec8b378a9f052c606337a51329555382c3bd500fa1bf05e11012103adea30d0861ab59b71372c56cdcf62726429324c8aace7fdf746809acbfb8557ffffffff02f19d0f00000000001976a914f4b6d762fd9e7776ef5f11f0bfa8552c33abdef588acb0a89f7d020000001976a9149d43f4c30209a0af684fb43b3c1ac487a39f4f5388ac00000000","txid":"0027e999ab560e20fc9880dec367e9e13df884d40464cd53a36912baa6b7734e","version":1,"time":1541442928,"locktime":0,"vin":[{"txid":"8c855a77b0d2cac39716c4b0b528990478f292524823f29349afa9bb6c6f84cc","vout":0,"scriptSig":{"asm":"304402201df5b73a76abb83d53345eba30b41c0fe3d91ba5ae82481349353ba97f86d41f02203d0d128e953f9081391b6fcc2f930c05268b3c6b59e0ea47041e2481eddd815c01 0310980bc4ce97d190f12bcd62c639af50e492f51c4ffdc672fc206575f66f7aeb","hex":"47304402201df5b73a76abb83d53345eba30b41c0fe3d91ba5ae82481349353ba97f86d41f02203d0d128e953f9081391b6fcc2f930c05268b3c6b59e0ea47041e2481eddd815c01210310980bc4ce97d190f12bcd62c639af50e492f51c4ffdc672fc206575f66f7aeb"},"sequence":4294967295},{"txid":"3ebafbc6c18c028ef07df40dd96c0788606437790e736e5be9db7118b56e65f7","vout":0,"scriptSig":{"asm":"304402203098dccc6598ff18de17dc2f34ddaf08f3e51a180930d91bbac65e1ec82b522e022013ed33789c4015afe06f6becd670021be40ce61b9fa79b0290e12ab00e0e1dca01 0220e9af62be63edc30c74a84d9f874cdb5e70aff1de02e07cfab37d29375fe47d","hex":"47304402203098dccc6598ff18de17dc2f34ddaf08f3e51a180930d91bbac65e1ec82b522e022013ed33789c4015afe06f6becd670021be40ce61b9fa79b0290e12ab00e0e1dca01210220e9af62be63edc30c74a84d9f874cdb5e70aff1de02e07cfab37d29375fe47d"},"sequence":4294967295},{"txid":"3ebafbc6c18c028ef07df40dd96c0788606437790e736e5be9db7118b56e65f7","vout":1,"scriptSig":{"asm":"3045022100cc42a4773a7652d7f228f54d4ca491fc4016f51252e9fa60526af4987a31a1340220185ada888255b4a6a92315c5c408ca15cf4111a30d1638094a816f9534697f4901 024ee36191d40039f8b303a7677287652b23f19c8fb16242b58f5c6abaa4fb84b2","hex":"483045022100cc42a4773a7652d7f228f54d4ca491fc4016f51252e9fa60526af4987a31a1340220185ada888255b4a6a92315c5c408ca15cf4111a30d1638094a816f9534697f490121024ee36191d40039f8b303a7677287652b23f19c8fb16242b58f5c6abaa4fb84b2"},"sequence":4294967295},{"txid":"f1e71680935eddacdde0d9dd0dc9042e63529b392ef763be43196439e9ed2992","vout":1,"scriptSig":{"asm":"3043021f1f5a2b16d8871ad520adc636ebdb9c02d92e74e0158a73e9243c6e2867f10802200c3cac7a27d4168e4c79a625973a50acb4406032cb3497e321b44382e1dfb8be01 036963313b872da26247686b32893c1d771314b5000fb911bc9d639bbdaa573e7c","hex":"463043021f1f5a2b16d8871ad520adc636ebdb9c02d92e74e0158a73e9243c6e2867f10802200c3cac7a27d4168e4c79a625973a50acb4406032cb3497e321b44382e1dfb8be0121036963313b872da26247686b32893c1d771314b5000fb911bc9d639bbdaa573e7c"},"sequence":4294967295},{"txid":"5504fc8143f1b2b42719ef3783d3c309a4f4110b6bed04566cb46b9d72064f20","vout":1,"scriptSig":{"asm":"30450221009928973eec2a0764a931bb5bff64616aef6d5ba082f095f5dcf2b0692097bb0c0220484fa9dbc8341a25aadc04e8f8cdcd4d82d0bb7593506416c35b1af14f0275f601 029b2db522e8e6f6f465a04db6fb4ca292fb3895c02fb81df6f97bc22df0dd31bb","hex":"4830450221009928973eec2a0764a931bb5bff64616aef6d5ba082f095f5dcf2b0692097bb0c0220484fa9dbc8341a25aadc04e8f8cdcd4d82d0bb7593506416c35b1af14f0275f60121029b2db522e8e6f6f465a04db6fb4ca292fb3895c02fb81df6f97bc22df0dd31bb"},"sequence":4294967295},{"txid":"78017109b1ce6bf588b5372b2b78c9b4e6755c4e0397acab2d9df29bac69676f","vout":0,"scriptSig":{"asm":"304402207666b0a540e868925376ab7d17f1f25902b29d08a6d6ed5b2f25cbb5ab41cf5f0220368a03b94576682ea88064f7f2ac404673aa26821aec2fe604d83026a5cd188701 03a28d20bc24ce4238dfc506f12d5fc38b7fcd09f2cd9b427ea19e1904fda48981","hex":"47304402207666b0a540e868925376ab7d17f1f25902b29d08a6d6ed5b2f25cbb5ab41cf5f0220368a03b94576682ea88064f7f2ac404673aa26821aec2fe604d83026a5cd1887012103a28d20bc24ce4238dfc506f12d5fc38b7fcd09f2cd9b427ea19e1904fda48981"},"sequence":4294967295},{"txid":"78017109b1ce6bf588b5372b2b78c9b4e6755c4e0397acab2d9df29bac69676f","vout":1,"scriptSig":{"asm":"3045022100b90f815bd5767b2550975d46ccde2913a7e8bbbc481af97f43310137752a824e0220276aae3d15d0d50a5c8e50d56a4c78481fbe075a1fb5433aec3e5e6999450ea901 0239fd47fb903897f8378f58b74281a5c4dd725772d4c202dabc250ca84097926f","hex":"483045022100b90f815bd5767b2550975d46ccde2913a7e8bbbc481af97f43310137752a824e0220276aae3d15d0d50a5c8e50d56a4c78481fbe075a1fb5433aec3e5e6999450ea901210239fd47fb903897f8378f58b74281a5c4dd725772d4c202dabc250ca84097926f"},"sequence":4294967295},{"txid":"19092896deb7d60c21ca90cfc1c720b7f69a424c279865b398bd82d028ad0a7a","vout":0,"scriptSig":{"asm":"30440220446826f93618f293e6451eef293de589c2fbab3a50f6c74a5ac6a2da743eae9702203f6f73a73cf0daf46b290b4812cd92d602ff5bb15c684131dc4ed7d14ad4d5b001 0310980bc4ce97d190f12bcd62c639af50e492f51c4ffdc672fc206575f66f7aeb","hex":"4730440220446826f93618f293e6451eef293de589c2fbab3a50f6c74a5ac6a2da743eae9702203f6f73a73cf0daf46b290b4812cd92d602ff5bb15c684131dc4ed7d14ad4d5b001210310980bc4ce97d190f12bcd62c639af50e492f51c4ffdc672fc206575f66f7aeb"},"sequence":4294967295},{"txid":"19092896deb7d60c21ca90cfc1c720b7f69a424c279865b398bd82d028ad0a7a","vout":1,"scriptSig":{"asm":"304502210090a990dde1115cb322684d218353590a633fc0f03d5e5aa011f9972821e9877e0220377f9531c2c867dec8b378a9f052c606337a51329555382c3bd500fa1bf05e1101 03adea30d0861ab59b71372c56cdcf62726429324c8aace7fdf746809acbfb8557","hex":"48304502210090a990dde1115cb322684d218353590a633fc0f03d5e5aa011f9972821e9877e0220377f9531c2c867dec8b378a9f052c606337a51329555382c3bd500fa1bf05e11012103adea30d0861ab59b71372c56cdcf62726429324c8aace7fdf746809acbfb8557"},"sequence":4294967295}],"vout":[{"value":0.01023473,"n":0,"scriptPubKey":{"asm":"OP_DUP OP_HASH160 f4b6d762fd9e7776ef5f11f0bfa8552c33abdef5 OP_EQUALVERIFY OP_CHECKSIG","reqSigs":1,"type":"pubkeyhash","addresses":["pTrW7YymvrFddb5yeF9vb6krZVSXVm6Mt8"]}},{"value":106.9755,"n":1,"scriptPubKey":{"asm":"OP_DUP OP_HASH160 9d43f4c30209a0af684fb43b3c1ac487a39f4f53 OP_EQUALVERIFY OP_CHECKSIG","reqSigs":1,"type":"pubkeyhash","addresses":["pKt7hVhLexpc3b28ggptWqKMo47hucsj6u"]}}],"blockhash":"768d542348fc3eb03460ce978656d877173daf54a14966bd98f9f43f27595516","confirmations":15,"blocktime":1541442928}