{"hex":"01000000708de05b011ea7838d9e468c5027c16362c78a46b9870226d46d9e027adae34b89fe876e6f0100000049483045022100ae5d05788369561572937ba23f1356e39fad2bb36a7a2f6c2d008d85a5a121670220397e9aa7198f94fb5206c77aefb3dfebfec7626c279f0e6211f46da6192d6b1201ffffffff04000000000000000000802dc0d1010000002321026ef57679057df94a5f72e9fead08857f8d7253a593b2b1feed1b68e92df4a4c5ac5967c9d1010000002321026ef57679057df94a5f72e9fead08857f8d7253a593b2b1feed1b68e92df4a4c5ac35bf8a00000000001976a9144c86b0b2edcbbfcf0d0112bbb160a541568205b788ac00000000","txid":"1501a758ebf90e3450a8ba31cdaf90a5e6911749cf769e39c7b4cddf0e402b1a","version":1,"time":1541442928,"locktime":0,"vin":[{"txid":"6f6e87fe894be3da7a029e6dd4260287b9468ac76263c127508c469e8d83a71e","vout":1,"scriptSig":{"asm":"3045022100ae5d05788369561572937ba23f1356e39fad2bb36a7a2f6c2d008d85a5a121670220397e9aa7198f94fb5206c77aefb3dfebfec7626c279f0e6211f46da6192d6b1201","hex":"483045022100ae5d05788369561572937ba23f1356e39fad2bb36a7a2f6c2d008d85a5a121670220397e9aa7198f94fb5206c77aefb3dfebfec7626c279f0e6211f46da6192d6b1201"},"sequence":4294967295}],"vout":[{"value":0,"n":0,"scriptPubKey":{"asm":"","type":"nonstandard"}},{"value":78.14,"n":1,"scriptPubKey":{"asm":"026ef57679057df94a5f72e9fead08857f8d7253a593b2b1feed1b68e92df4a4c5 OP_CHECKSIG","reqSigs":1,"type":"pubkey","addresses":["p5dRZ9MeyiKDma1pAUrsmvEK4NBmmdC4ZN"]}},{"value":78.14604633,"n":2,"scriptPubKey":{"asm":"026ef57679057df94a5f72e9fead08857f8d7253a593b2b1feed1b68e92df4a4c5 OP_CHECKSIG","reqSigs":1,"type":"pubkey","addresses":["p5dRZ9MeyiKDma1pAUrsmvEK4NBmmdC4ZN"]}},{"value":0.09092917,"n":3,"scriptPubKey":{"asm":"OP_DUP OP_HASH160 4c86b0b2edcbbfcf0d0112bbb160a541568205b7 OP_EQUALVERIFY OP_CHECKSIG","reqSigs":1,"type":"pubkeyhash","addresses":["pCXCuj4F9uaYHMue5Nqy3XLKdLz4U9gRoi"]}}],"blockhash":"768d542348fc3eb03460ce978656d877173daf54a14966bd98f9f43f27595516","confirmations":15,"blocktime":1541442928}