{"hex":"01000000b095d65b01cfed5964ee3cd0037b329ee554e0c6b170f723fbd2d374d130986119af3a6be8010000004847304402201c178085cdc1775d258dadd1012599abd778f54b0486c0b1d85da468d325b6b90220445a5387f0f79c7282a46951e0a6e43f77f523d578eb877577351a3cfb662d4301ffffffff04000000000000000000409452a3030000002321020b1cd26fc4b9f080aea1cf7b667efd5e8453f70429056589831fa7f63506ddbfac4f9452a3030000002321020b1cd26fc4b9f080aea1cf7b667efd5e8453f70429056589831fa7f63506ddbfac55000000000000001976a914a539c7c64804ba10293866c3433100eabbe41ccf88ac00000000","txid":"19830f4082431deb78c3e06f78e8589314f2737fa5147ec9efad0549cf3ccc09","version":1,"time":1540789680,"locktime":0,"vin":[{"txid":"e86b3aaf19619830d174d3d2fb23f770b1c6e054e59e327b03d03cee6459edcf","vout":1,"scriptSig":{"asm":"304402201c178085cdc1775d258dadd1012599abd778f54b0486c0b1d85da468d325b6b90220445a5387f0f79c7282a46951e0a6e43f77f523d578eb877577351a3cfb662d4301","hex":"47304402201c178085cdc1775d258dadd1012599abd778f54b0486c0b1d85da468d325b6b90220445a5387f0f79c7282a46951e0a6e43f77f523d578eb877577351a3cfb662d4301"},"sequence":4294967295}],"vout":[{"value":0,"n":0,"scriptPubKey":{"asm":"","type":"nonstandard"}},{"value":156.25,"n":1,"scriptPubKey":{"asm":"020b1cd26fc4b9f080aea1cf7b667efd5e8453f70429056589831fa7f63506ddbf OP_CHECKSIG","reqSigs":1,"type":"pubkey","addresses":["pECTDpfW4nW8hYte3f3F9ZQxwgWmBwmcYL"]}},{"value":156.25000015,"n":2,"scriptPubKey":{"asm":"020b1cd26fc4b9f080aea1cf7b667efd5e8453f70429056589831fa7f63506ddbf OP_CHECKSIG","reqSigs":1,"type":"pubkey","addresses":["pECTDpfW4nW8hYte3f3F9ZQxwgWmBwmcYL"]}},{"value":8.5e-7,"n":3,"scriptPubKey":{"asm":"OP_DUP OP_HASH160 a539c7c64804ba10293866c3433100eabbe41ccf OP_EQUALVERIFY OP_CHECKSIG","reqSigs":1,"type":"pubkeyhash","addresses":["pLcCv1RBNEWf4q17fiPMGMYqeFUvP9a826"]}}],"blockhash":"255521ccba7aae1ab21957d594d739b0c8b0f7e20648639b720a71a4dbf6d639","confirmations":248,"blocktime":1540789680}