{"hex":"01000000a295d65b01758bdcce4576520f6ea41daa70ed06e0c831eaff452d36998f172054b21ae924000000006b483045022100ee9949bb8aa1a758beaf32ff552446622f9fee10103c070f6a36aab73f302ff20220388249be9f2cb3363a0668a3eb708cbc267c03cea44f2b9ec65f5e5ae8b35a9f0121035946be63fdfa788c588ffc17dcf15ca3fe612b8656b38bcfb001be09762ef813ffffffff02e2c11300000000001976a9147644efb2f98070ab8304baf1c13f70d6ff68c27788aca0860100000000001976a9147644efb2f98070ab8304baf1c13f70d6ff68c27788ac00000000","txid":"92d627b1fa601e593347178bc3f0344496ae7138a4b076f6102fbf0a7ab736ba","version":1,"time":1540789680,"locktime":0,"vin":[{"txid":"24e91ab25420178f99362d45ffea31c8e006ed70aa1da46e0f527645cedc8b75","vout":0,"scriptSig":{"asm":"3045022100ee9949bb8aa1a758beaf32ff552446622f9fee10103c070f6a36aab73f302ff20220388249be9f2cb3363a0668a3eb708cbc267c03cea44f2b9ec65f5e5ae8b35a9f01 035946be63fdfa788c588ffc17dcf15ca3fe612b8656b38bcfb001be09762ef813","hex":"483045022100ee9949bb8aa1a758beaf32ff552446622f9fee10103c070f6a36aab73f302ff20220388249be9f2cb3363a0668a3eb708cbc267c03cea44f2b9ec65f5e5ae8b35a9f0121035946be63fdfa788c588ffc17dcf15ca3fe612b8656b38bcfb001be09762ef813"},"sequence":4294967295}],"vout":[{"value":0.01294818,"n":0,"scriptPubKey":{"asm":"OP_DUP OP_HASH160 7644efb2f98070ab8304baf1c13f70d6ff68c277 OP_EQUALVERIFY OP_CHECKSIG","reqSigs":1,"type":"pubkeyhash","addresses":["pGKvX7zTUoszjqX3isNoZuGqfxjuZZNAYs"]}},{"value":0.001,"n":1,"scriptPubKey":{"asm":"OP_DUP OP_HASH160 7644efb2f98070ab8304baf1c13f70d6ff68c277 OP_EQUALVERIFY OP_CHECKSIG","reqSigs":1,"type":"pubkeyhash","addresses":["pGKvX7zTUoszjqX3isNoZuGqfxjuZZNAYs"]}}],"blockhash":"255521ccba7aae1ab21957d594d739b0c8b0f7e20648639b720a71a4dbf6d639","confirmations":248,"blocktime":1540789680}