{"hex":"01000000108bd85b0179c61a931c280ea9db526366908dd21329cb2b7ac6af8c332c719e8e706f5bb6010000004847304402201fedff4947d59dee9f3b71b1589385bfe7759d2933d5c214ffd2229b88f3ad1802207459af5d686383dab66b3c0cf7b2a99874dce57f6a0fcb638a6617ab44108db901ffffffff03000000000000000000a874b1d1010000002321020b1cd26fc4b9f080aea1cf7b667efd5e8453f70429056589831fa7f63506ddbfac9a6e0000000000001976a9147a58c93fa5e34c0e7c16492ee8061977495aac7c88ac00000000","txid":"6dcdf93f48ebff769ec8df29b482321d01175ad3442d9d404870302c81319718","version":1,"time":1540918032,"locktime":0,"vin":[{"txid":"b65b6f708e9e712c338cafc67a2bcb2913d28d90666352dba90e281c931ac679","vout":1,"scriptSig":{"asm":"304402201fedff4947d59dee9f3b71b1589385bfe7759d2933d5c214ffd2229b88f3ad1802207459af5d686383dab66b3c0cf7b2a99874dce57f6a0fcb638a6617ab44108db901","hex":"47304402201fedff4947d59dee9f3b71b1589385bfe7759d2933d5c214ffd2229b88f3ad1802207459af5d686383dab66b3c0cf7b2a99874dce57f6a0fcb638a6617ab44108db901"},"sequence":4294967295}],"vout":[{"value":0,"n":0,"scriptPubKey":{"asm":"","type":"nonstandard"}},{"value":78.13035176,"n":1,"scriptPubKey":{"asm":"020b1cd26fc4b9f080aea1cf7b667efd5e8453f70429056589831fa7f63506ddbf OP_CHECKSIG","reqSigs":1,"type":"pubkey","addresses":["pECTDpfW4nW8hYte3f3F9ZQxwgWmBwmcYL"]}},{"value":0.00028314,"n":2,"scriptPubKey":{"asm":"OP_DUP OP_HASH160 7a58c93fa5e34c0e7c16492ee8061977495aac7c OP_EQUALVERIFY OP_CHECKSIG","reqSigs":1,"type":"pubkeyhash","addresses":["pGhV15RkjbtFhS6uHd3xCvPoNUNQoDMiqz"]}}],"blockhash":"d4bfe386f08ee872e6aadb412e31ad5e7904a536a08436733ae421f56985beef","confirmations":153,"blocktime":1540918032}