{"hex":"010000000d8bd85b01a5e9826d145ccd71d450d36b86e09afde61516242657a315753cae25c3ac42fa000000006b483045022100eeacc4197c3c7ef8ebffcbec85608d9519383ef2a031126fc8ac58899fc8b82a02201d0d1e4349847fe38b390ab0385e174cb0b38ddd20f62d77245ab963ae8be6af012103992ddda46e633f3b15fd38c9521b3aeeeb5bb93e06f5a60db27b6ea4e0025327ffffffff02cff95c03000000001976a914d11312b5f3ea3f8c3d4fe2050b94ee72f0cc768a88ac7549fc01000000001976a9144a41553579afc15d3b84e42fdc2e208ad37ff0b888ac00000000","txid":"8462cbc4a54e6148d70a0b102c489d933be86956afa8c74488a46f7e682b3c7c","version":1,"time":1540918032,"locktime":0,"vin":[{"txid":"fa42acc325ae3c7515a35726241615e6fd9ae0866bd350d471cd5c146d82e9a5","vout":0,"scriptSig":{"asm":"3045022100eeacc4197c3c7ef8ebffcbec85608d9519383ef2a031126fc8ac58899fc8b82a02201d0d1e4349847fe38b390ab0385e174cb0b38ddd20f62d77245ab963ae8be6af01 03992ddda46e633f3b15fd38c9521b3aeeeb5bb93e06f5a60db27b6ea4e0025327","hex":"483045022100eeacc4197c3c7ef8ebffcbec85608d9519383ef2a031126fc8ac58899fc8b82a02201d0d1e4349847fe38b390ab0385e174cb0b38ddd20f62d77245ab963ae8be6af012103992ddda46e633f3b15fd38c9521b3aeeeb5bb93e06f5a60db27b6ea4e0025327"},"sequence":4294967295}],"vout":[{"value":0.56424911,"n":0,"scriptPubKey":{"asm":"OP_DUP OP_HASH160 d11312b5f3ea3f8c3d4fe2050b94ee72f0cc768a OP_EQUALVERIFY OP_CHECKSIG","reqSigs":1,"type":"pubkeyhash","addresses":["pQc4H262MgxWFjNioN8UDxMw1tmP33uqsQ"]}},{"value":0.33311093,"n":1,"scriptPubKey":{"asm":"OP_DUP OP_HASH160 4a41553579afc15d3b84e42fdc2e208ad37ff0b8 OP_EQUALVERIFY OP_CHECKSIG","reqSigs":1,"type":"pubkeyhash","addresses":["pCKCUJkLWzyY5SdYbkcWNZh7SbVhwDLsZM"]}}],"blockhash":"d4bfe386f08ee872e6aadb412e31ad5e7904a536a08436733ae421f56985beef","confirmations":153,"blocktime":1540918032}