{"hex":"01000000ea85d85b0125f282a8df836ef1ae7ca40fa49be855fc8ee77e69c878b78e8fe340e4a0dc57010000006a47304402206fb522aeacdd0196de7400acb126b15a9869aa5ab1da81049ae0aa8762f89e99022043bf8f8a51af8b2a93af0a52fce95916f3f984a3d2cad61c36673f332de40f67012102ba9eb2b4c15c593a3c4d6a7d03d9dc7b2ae9855e81255b501f3801b5d99e7431ffffffff0260fdd517000000001976a9144d03d617812e168cb44973f5e469c626b4aa1b2d88ac00e1f505000000001976a9144c28ee798243702bc4500cdb4da9004130bb47f688ac00000000","txid":"c5deb2aaab2092e7d94d09d251049e97b2ebafd1fd1ae60d47026f5148f49bb4","version":1,"time":1540916720,"locktime":0,"vin":[{"txid":"57dca0e440e38f8eb778c8697ee78efc55e89ba40fa47caef16e83dfa882f225","vout":1,"scriptSig":{"asm":"304402206fb522aeacdd0196de7400acb126b15a9869aa5ab1da81049ae0aa8762f89e99022043bf8f8a51af8b2a93af0a52fce95916f3f984a3d2cad61c36673f332de40f6701 02ba9eb2b4c15c593a3c4d6a7d03d9dc7b2ae9855e81255b501f3801b5d99e7431","hex":"47304402206fb522aeacdd0196de7400acb126b15a9869aa5ab1da81049ae0aa8762f89e99022043bf8f8a51af8b2a93af0a52fce95916f3f984a3d2cad61c36673f332de40f67012102ba9eb2b4c15c593a3c4d6a7d03d9dc7b2ae9855e81255b501f3801b5d99e7431"},"sequence":4294967295}],"vout":[{"value":3.999,"n":0,"scriptPubKey":{"asm":"OP_DUP OP_HASH160 4d03d617812e168cb44973f5e469c626b4aa1b2d OP_EQUALVERIFY OP_CHECKSIG","reqSigs":1,"type":"pubkeyhash","addresses":["pCZnq2X96TNj5zuJUD3pLnabheMWYSnVqT"]}},{"value":1,"n":1,"scriptPubKey":{"asm":"OP_DUP OP_HASH160 4c28ee798243702bc4500cdb4da9004130bb47f6 OP_EQUALVERIFY OP_CHECKSIG","reqSigs":1,"type":"pubkeyhash","addresses":["pCVGbFvFLapGyskXvwfxG2ss21bRU9FqUh"]}}],"blockhash":"92062f90f64d41353c4ea0c3b29f7499e3f3bbf50c0d21661d25d519f06d569e","confirmations":157,"blocktime":1540916720}