{"hex":"01000000f085d85b0110a9d6d080fe188af6fd76850ef3d3b1c08665816b27b1745869bf1c206e09ac010000004847304402204ce655f888eeaf95db674de79beb6496bbab4a74ce7013ecd5e3160fbee61be002202271fd8825cf57587ef9afd7093385c99479d8547eb083bb2e748788ccb9ab7e01ffffffff0300000000000000000039a5b1d1010000002321020b1cd26fc4b9f080aea1cf7b667efd5e8453f70429056589831fa7f63506ddbfac084c0100000000001976a91422d06420236528fe42b5c2302e36704d85b646de88ac00000000","txid":"ea36fb52b63e8fc4e1f418118d76042ad70bbc297ad1a0d5fb4a9c91dfa2aaad","version":1,"time":1540916720,"locktime":0,"vin":[{"txid":"ac096e201cbf695874b1276b816586c0b1d3f30e8576fdf68a18fe80d0d6a910","vout":1,"scriptSig":{"asm":"304402204ce655f888eeaf95db674de79beb6496bbab4a74ce7013ecd5e3160fbee61be002202271fd8825cf57587ef9afd7093385c99479d8547eb083bb2e748788ccb9ab7e01","hex":"47304402204ce655f888eeaf95db674de79beb6496bbab4a74ce7013ecd5e3160fbee61be002202271fd8825cf57587ef9afd7093385c99479d8547eb083bb2e748788ccb9ab7e01"},"sequence":4294967295}],"vout":[{"value":0,"n":0,"scriptPubKey":{"asm":"","type":"nonstandard"}},{"value":78.13047609,"n":1,"scriptPubKey":{"asm":"020b1cd26fc4b9f080aea1cf7b667efd5e8453f70429056589831fa7f63506ddbf OP_CHECKSIG","reqSigs":1,"type":"pubkey","addresses":["pECTDpfW4nW8hYte3f3F9ZQxwgWmBwmcYL"]}},{"value":0.00085,"n":2,"scriptPubKey":{"asm":"OP_DUP OP_HASH160 22d06420236528fe42b5c2302e36704d85b646de OP_EQUALVERIFY OP_CHECKSIG","reqSigs":1,"type":"pubkeyhash","addresses":["p8iepVjrqbjo1uNb8dyXKBBerSUv6zrPfw"]}}],"blockhash":"92062f90f64d41353c4ea0c3b29f7499e3f3bbf50c0d21661d25d519f06d569e","confirmations":157,"blocktime":1540916720}