{"hex":"01000000e69bdc5b02d7444573d79e67bdd0e23501cfdcab5f3777c63821518c5763fb517773abbb54000000006a473044022048f2c4e60e9054308f981a533d2d567c1dfc397e17f65db0b29e07abbdc1149602206df803770011eb3270977208d0600911614aa16ba8339e625e0c1479731a79410121033773e9a9f7b90e92f64e2d81ac29eeb22096c468ba311b84c0698fb91d3dd5eeffffffffe45bb42b780de26b224fe7e16df7f5bace68cb7fac5185a29e2fcbcad3e064d5010000006b483045022100b2b407cfa4855354d0bad6373305a2fc8e1705527d7e3e587df98c12df001699022027b5e167e75256a045b2f363c4817194de0c8bcc71e66af368b1bfc8ae020fd4012103518e1cb2f9bee4ca367c205cae50fec982470b6f1005574340c4266496d2eec4ffffffff02906f1300000000001976a914040c7bc45188392e470c4f882e1b2d96fd26f32388ac24b28300000000001976a914729706021e589355e35320a6e039c6ac6c4efc8688ac00000000","txid":"7c7a5e0fac6e776214ebe594a804ca99ab4868eb6ad6215343b8533e3083aaac","version":1,"time":1541184496,"locktime":0,"vin":[{"txid":"54bbab737751fb63578c512138c677375fabdccf0135e2d0bd679ed7734544d7","vout":0,"scriptSig":{"asm":"3044022048f2c4e60e9054308f981a533d2d567c1dfc397e17f65db0b29e07abbdc1149602206df803770011eb3270977208d0600911614aa16ba8339e625e0c1479731a794101 033773e9a9f7b90e92f64e2d81ac29eeb22096c468ba311b84c0698fb91d3dd5ee","hex":"473044022048f2c4e60e9054308f981a533d2d567c1dfc397e17f65db0b29e07abbdc1149602206df803770011eb3270977208d0600911614aa16ba8339e625e0c1479731a79410121033773e9a9f7b90e92f64e2d81ac29eeb22096c468ba311b84c0698fb91d3dd5ee"},"sequence":4294967295},{"txid":"d564e0d3cacb2f9ea28551ac7fcb68cebaf5f76de1e74f226be20d782bb45be4","vout":1,"scriptSig":{"asm":"3045022100b2b407cfa4855354d0bad6373305a2fc8e1705527d7e3e587df98c12df001699022027b5e167e75256a045b2f363c4817194de0c8bcc71e66af368b1bfc8ae020fd401 03518e1cb2f9bee4ca367c205cae50fec982470b6f1005574340c4266496d2eec4","hex":"483045022100b2b407cfa4855354d0bad6373305a2fc8e1705527d7e3e587df98c12df001699022027b5e167e75256a045b2f363c4817194de0c8bcc71e66af368b1bfc8ae020fd4012103518e1cb2f9bee4ca367c205cae50fec982470b6f1005574340c4266496d2eec4"},"sequence":4294967295}],"vout":[{"value":0.01273744,"n":0,"scriptPubKey":{"asm":"OP_DUP OP_HASH160 040c7bc45188392e470c4f882e1b2d96fd26f323 OP_EQUALVERIFY OP_CHECKSIG","reqSigs":1,"type":"pubkeyhash","addresses":["p5uyrqdEnAXuhg9UpQWPDSVJbLesoxTuqN"]}},{"value":0.0863082,"n":1,"scriptPubKey":{"asm":"OP_DUP OP_HASH160 729706021e589355e35320a6e039c6ac6c4efc86 OP_EQUALVERIFY OP_CHECKSIG","reqSigs":1,"type":"pubkeyhash","addresses":["pFzU9sM63UnHz7HFLqtvsLXEzmZxMMmfKk"]}}],"blockhash":"c3aed8134aafcc7831b916a7ddc0d34a715a42d0bcb4a9275e213bf006d66022","confirmations":58,"blocktime":1541184496}