{"hex":"01000000f09bdc5b01ad008892f3c4b71282ad99eef6fb47fff29e4b5ef27a3c5823fff3c2a1d0f2880100000049483045022100f398f7cc6a1ed7eeb7f8f424fdf61289438c85aab6b2b156a0f6d61cacf300fe02206b25b3945e4926787df424284387bd5cb46817f149ec573ee39e6393c92cbee301ffffffff0400000000000000000000adc34607000000232103670be5afe77a215b42f2bc4bd7c1c5049117430d8e81c1de5c44e9ab4c566689ac0fb2c34607000000232103670be5afe77a215b42f2bc4bd7c1c5049117430d8e81c1de5c44e9ab4c566689aca71c0000000000001976a914239bf4dba7e2193b7f701a7b68d0e94c85d85fac88ac00000000","txid":"dab2c2af004557708068414552144460727b8fcba04c2dbdce2697cdae99430e","version":1,"time":1541184496,"locktime":0,"vin":[{"txid":"88f2d0a1c2f3ff23583c7af25e4b9ef2ff47fbf6ee99ad8212b7c4f3928800ad","vout":1,"scriptSig":{"asm":"3045022100f398f7cc6a1ed7eeb7f8f424fdf61289438c85aab6b2b156a0f6d61cacf300fe02206b25b3945e4926787df424284387bd5cb46817f149ec573ee39e6393c92cbee301","hex":"483045022100f398f7cc6a1ed7eeb7f8f424fdf61289438c85aab6b2b156a0f6d61cacf300fe02206b25b3945e4926787df424284387bd5cb46817f149ec573ee39e6393c92cbee301"},"sequence":4294967295}],"vout":[{"value":0,"n":0,"scriptPubKey":{"asm":"","type":"nonstandard"}},{"value":312.52,"n":1,"scriptPubKey":{"asm":"03670be5afe77a215b42f2bc4bd7c1c5049117430d8e81c1de5c44e9ab4c566689 OP_CHECKSIG","reqSigs":1,"type":"pubkey","addresses":["pRVJAmbxV6TyzWMNW1oNoV1k3zM77bZrBx"]}},{"value":312.52001295,"n":2,"scriptPubKey":{"asm":"03670be5afe77a215b42f2bc4bd7c1c5049117430d8e81c1de5c44e9ab4c566689 OP_CHECKSIG","reqSigs":1,"type":"pubkey","addresses":["pRVJAmbxV6TyzWMNW1oNoV1k3zM77bZrBx"]}},{"value":0.00007335,"n":3,"scriptPubKey":{"asm":"OP_DUP OP_HASH160 239bf4dba7e2193b7f701a7b68d0e94c85d85fac OP_EQUALVERIFY OP_CHECKSIG","reqSigs":1,"type":"pubkeyhash","addresses":["p8nrgTxTfKDC3hvmSmFxDcxpYguUCo8yWb"]}}],"blockhash":"c3aed8134aafcc7831b916a7ddc0d34a715a42d0bcb4a9275e213bf006d66022","confirmations":58,"blocktime":1541184496}