{"hex":"01000000d073dc5b01d551b45c5212e25c7b7caf118a387956e66f9147500c16b5e966dff4b034a8420100000048473044022046ab6f6ea57328370ff65b0c8d52eea04287f34e3d727c17950f1c886071ab5d0220234ade31f8dd764ebb7fcdc506aedd9ca14de957f36d8d97ee7973b0429d34fb01ffffffff03000000000000000000d41f441400000000232102fe0f32861c5e187f37917d5839a130aede206c882635d6d980145021bd993f06ac85050000000000001976a9144c86b0b2edcbbfcf0d0112bbb160a541568205b788ac00000000","txid":"0ff94c13c162d5f30abbbc43535514c52bde03188d53da21068cc96f1aa8ad85","version":1,"time":1541174224,"locktime":0,"vin":[{"txid":"42a834b0f4df66e9b5160c5047916fe65679388a11af7c7b5ce212525cb451d5","vout":1,"scriptSig":{"asm":"3044022046ab6f6ea57328370ff65b0c8d52eea04287f34e3d727c17950f1c886071ab5d0220234ade31f8dd764ebb7fcdc506aedd9ca14de957f36d8d97ee7973b0429d34fb01","hex":"473044022046ab6f6ea57328370ff65b0c8d52eea04287f34e3d727c17950f1c886071ab5d0220234ade31f8dd764ebb7fcdc506aedd9ca14de957f36d8d97ee7973b0429d34fb01"},"sequence":4294967295}],"vout":[{"value":0,"n":0,"scriptPubKey":{"asm":"","type":"nonstandard"}},{"value":3.40008916,"n":1,"scriptPubKey":{"asm":"02fe0f32861c5e187f37917d5839a130aede206c882635d6d980145021bd993f06 OP_CHECKSIG","reqSigs":1,"type":"pubkey","addresses":["p7MHJk1NCoVwVPjx7mEGWrpeSkLSYSZyuV"]}},{"value":0.00001413,"n":2,"scriptPubKey":{"asm":"OP_DUP OP_HASH160 4c86b0b2edcbbfcf0d0112bbb160a541568205b7 OP_EQUALVERIFY OP_CHECKSIG","reqSigs":1,"type":"pubkeyhash","addresses":["pCXCuj4F9uaYHMue5Nqy3XLKdLz4U9gRoi"]}}],"blockhash":"d9abbae199269fec41725c4904bd1dd588117517f6b9754ae9674fa1e70df1f9","confirmations":70,"blocktime":1541174224}