{"hex":"01000000ce73dc5b01e3aba66237261857b9b8e0c499a1dfd43c659862c255cba77b5f75c1dcf0da20000000006a473044022067332eba759d888b2dce8b97e5d3d16d32927267aa8fd466c03ad042924273ac022035673f124d4f801e5cf19e28b115bf3a1d8726bc8bac19447e10ff9e1029ca180121032dc291051da5d84cceb0df954c985519b8e79d6b33f54f7dff46c79186c48b52ffffffff0298ce2f00000000001976a91451407e175793ad53b5b67f875631440f6698abca88ac93631900000000001976a914357c459718fd52a196309720c22fd18a09458b3a88ac00000000","txid":"6170f47147e36d37f698865ecd78a001310268bb73081cd7790d30f82ae3d559","version":1,"time":1541174224,"locktime":0,"vin":[{"txid":"20daf0dcc1755f7ba7cb55c26298653cd4dfa199c4e0b8b95718263762a6abe3","vout":0,"scriptSig":{"asm":"3044022067332eba759d888b2dce8b97e5d3d16d32927267aa8fd466c03ad042924273ac022035673f124d4f801e5cf19e28b115bf3a1d8726bc8bac19447e10ff9e1029ca1801 032dc291051da5d84cceb0df954c985519b8e79d6b33f54f7dff46c79186c48b52","hex":"473044022067332eba759d888b2dce8b97e5d3d16d32927267aa8fd466c03ad042924273ac022035673f124d4f801e5cf19e28b115bf3a1d8726bc8bac19447e10ff9e1029ca180121032dc291051da5d84cceb0df954c985519b8e79d6b33f54f7dff46c79186c48b52"},"sequence":4294967295}],"vout":[{"value":0.0313308,"n":0,"scriptPubKey":{"asm":"OP_DUP OP_HASH160 51407e175793ad53b5b67f875631440f6698abca OP_EQUALVERIFY OP_CHECKSIG","reqSigs":1,"type":"pubkeyhash","addresses":["pCxCCGHN3yiNYPXsLnPXm6PXWbt8CpL2md"]}},{"value":0.01663891,"n":1,"scriptPubKey":{"asm":"OP_DUP OP_HASH160 357c459718fd52a196309720c22fd18a09458b3a OP_EQUALVERIFY OP_CHECKSIG","reqSigs":1,"type":"pubkeyhash","addresses":["pARNtRxewsS1Q56WSy9w1wymvvLxmFwcDv"]}}],"blockhash":"d9abbae199269fec41725c4904bd1dd588117517f6b9754ae9674fa1e70df1f9","confirmations":70,"blocktime":1541174224}