{"hex":"01000000b09ad65b011d936ccdb01fa75b2b17e0d7fec5503f0265a805eeb1d74dac4a7dd661b69afd0200000049483045022100e836b08f23b41ff1712992447fb13927d84ce16b5fbd19aacdd92d67146e24b80220553146088caa71ac9663925b97dc640fd1948b10ee625d718b8e41f4fcb23d4e01ffffffff03000000000000000000e6f4b0d1010000002321020b1cd26fc4b9f080aea1cf7b667efd5e8453f70429056589831fa7f63506ddbfac55000000000000001976a914b4297f2bb1ec22148c170ab2f943e6826c4d831d88ac00000000","txid":"367671530619d1e051ab4f5410be3a6457356765c10d54cbc5d2ca306e96f9e5","version":1,"time":1540790960,"locktime":0,"vin":[{"txid":"fd9ab661d67d4aac4dd7b1ee05a865023f50c5fed7e0172b5ba71fb0cd6c931d","vout":2,"scriptSig":{"asm":"3045022100e836b08f23b41ff1712992447fb13927d84ce16b5fbd19aacdd92d67146e24b80220553146088caa71ac9663925b97dc640fd1948b10ee625d718b8e41f4fcb23d4e01","hex":"483045022100e836b08f23b41ff1712992447fb13927d84ce16b5fbd19aacdd92d67146e24b80220553146088caa71ac9663925b97dc640fd1948b10ee625d718b8e41f4fcb23d4e01"},"sequence":4294967295}],"vout":[{"value":0,"n":0,"scriptPubKey":{"asm":"","type":"nonstandard"}},{"value":78.1300247,"n":1,"scriptPubKey":{"asm":"020b1cd26fc4b9f080aea1cf7b667efd5e8453f70429056589831fa7f63506ddbf OP_CHECKSIG","reqSigs":1,"type":"pubkey","addresses":["pECTDpfW4nW8hYte3f3F9ZQxwgWmBwmcYL"]}},{"value":8.5e-7,"n":2,"scriptPubKey":{"asm":"OP_DUP OP_HASH160 b4297f2bb1ec22148c170ab2f943e6826c4d831d OP_EQUALVERIFY OP_CHECKSIG","reqSigs":1,"type":"pubkeyhash","addresses":["pMyBYUpcH3ehvzacvgmtahza4iSykvMcUD"]}}],"blockhash":"5890a46c8520fbdbce2d003ee352a1df981f7ae36106ac0a321eea4fa8035033","confirmations":240,"blocktime":1540790960}