{"hex":"01000000ae9ad65b010449a23d7d6d5e5925b4aedb0526447ecaffd1fc2c926b5ecfb6a3debed8f67b000000006b483045022100a181187884764ba4d9cf75690cab42ac0d3b23047e7487bb9b407032c70d9a28022079c7fd0ee97eb2f46d9f2df41ef93f5c9f4effea3d1b241b38672dba75240024012102ff004ec57ca758ba28f26d3f89eafbb557b6b1303d1d447e6d4211e61f643a97ffffffff02ce5e1200000000001976a914da6735acb77323128691c58c114042103239806988ac10270000000000001976a9147644efb2f98070ab8304baf1c13f70d6ff68c27788ac00000000","txid":"deda336257f31012cd7d8208969e5b8122c1552de6a8ad702b43edf0c83b18f9","version":1,"time":1540790960,"locktime":0,"vin":[{"txid":"7bf6d8bedea3b6cf5e6b922cfcd1ffca7e442605dbaeb425595e6d7d3da24904","vout":0,"scriptSig":{"asm":"3045022100a181187884764ba4d9cf75690cab42ac0d3b23047e7487bb9b407032c70d9a28022079c7fd0ee97eb2f46d9f2df41ef93f5c9f4effea3d1b241b38672dba7524002401 02ff004ec57ca758ba28f26d3f89eafbb557b6b1303d1d447e6d4211e61f643a97","hex":"483045022100a181187884764ba4d9cf75690cab42ac0d3b23047e7487bb9b407032c70d9a28022079c7fd0ee97eb2f46d9f2df41ef93f5c9f4effea3d1b241b38672dba75240024012102ff004ec57ca758ba28f26d3f89eafbb557b6b1303d1d447e6d4211e61f643a97"},"sequence":4294967295}],"vout":[{"value":0.01203918,"n":0,"scriptPubKey":{"asm":"OP_DUP OP_HASH160 da6735acb77323128691c58c1140421032398069 OP_EQUALVERIFY OP_CHECKSIG","reqSigs":1,"type":"pubkeyhash","addresses":["pRTP9f7ZAjForFEsmAZsGiNS2VVAYDf1xy"]}},{"value":0.0001,"n":1,"scriptPubKey":{"asm":"OP_DUP OP_HASH160 7644efb2f98070ab8304baf1c13f70d6ff68c277 OP_EQUALVERIFY OP_CHECKSIG","reqSigs":1,"type":"pubkeyhash","addresses":["pGKvX7zTUoszjqX3isNoZuGqfxjuZZNAYs"]}}],"blockhash":"5890a46c8520fbdbce2d003ee352a1df981f7ae36106ac0a321eea4fa8035033","confirmations":240,"blocktime":1540790960}