{"hex":"0100000080ace05b01e73e77c555ea235ad8dc6776cc5e7e6f179e90f9708de249b345ee26134b09200200000049483045022100afea61108fd18969e00e7c0c096b2032d2acf3e98b366a79a60b08e57254fa68022061cb51b3abe94180634f9dd98512cd877ad29b903f003c7de082adca3efcd24f01ffffffff0400000000000000000040af09a4030000002321028d9be6ae35cf9126d1ddd81f7e9a33d77e64d908c42bf417d6424ba1da9106a6ac2b5e0aa4030000002321028d9be6ae35cf9126d1ddd81f7e9a33d77e64d908c42bf417d6424ba1da9106a6acafa30200000000001976a9144c86b0b2edcbbfcf0d0112bbb160a541568205b788ac00000000","txid":"a992957997e45908f035cc00cc8067073720e3ab060effe256a5ed66193cb567","version":1,"time":1541450880,"locktime":0,"vin":[{"txid":"20094b1326ee45b349e28d70f9909e176f7e5ecc7667dcd85a23ea55c5773ee7","vout":2,"scriptSig":{"asm":"3045022100afea61108fd18969e00e7c0c096b2032d2acf3e98b366a79a60b08e57254fa68022061cb51b3abe94180634f9dd98512cd877ad29b903f003c7de082adca3efcd24f01","hex":"483045022100afea61108fd18969e00e7c0c096b2032d2acf3e98b366a79a60b08e57254fa68022061cb51b3abe94180634f9dd98512cd877ad29b903f003c7de082adca3efcd24f01"},"sequence":4294967295}],"vout":[{"value":0,"n":0,"scriptPubKey":{"asm":"","type":"nonstandard"}},{"value":156.37,"n":1,"scriptPubKey":{"asm":"028d9be6ae35cf9126d1ddd81f7e9a33d77e64d908c42bf417d6424ba1da9106a6 OP_CHECKSIG","reqSigs":1,"type":"pubkey","addresses":["pG17eAwgEzq6zQQ7cLzvCMepRqGYMprwdz"]}},{"value":156.37044779,"n":2,"scriptPubKey":{"asm":"028d9be6ae35cf9126d1ddd81f7e9a33d77e64d908c42bf417d6424ba1da9106a6 OP_CHECKSIG","reqSigs":1,"type":"pubkey","addresses":["pG17eAwgEzq6zQQ7cLzvCMepRqGYMprwdz"]}},{"value":0.00172975,"n":3,"scriptPubKey":{"asm":"OP_DUP OP_HASH160 4c86b0b2edcbbfcf0d0112bbb160a541568205b7 OP_EQUALVERIFY OP_CHECKSIG","reqSigs":1,"type":"pubkeyhash","addresses":["pCXCuj4F9uaYHMue5Nqy3XLKdLz4U9gRoi"]}}],"blockhash":"6042fbbbf5f6bedabc368fb05a6a83e7efc814a0c12b6dafec135ff0610cb784","confirmations":7,"blocktime":1541450880}