{"hex":"0100000079ace05b0190166f05f86dc16039a5bade751ee8bd6b8d75b5a1b0cb4ca3045272bdc7b3b1010000006a47304402201592e7ce1e558686dea6cbbcaf4cc6420b99794bfc1f70ecb542db2939a8a52202200be693db5cd68307f1074bf83747050396d3e5ff68d67b3b1d139f83380602d901210297b261ace011f3cd9147aacabbfce81048fcc43b987b335c8b8a73fabbc9da2effffffff02ac30c615000000001976a914b36b2ef2891f0d154c3c3ad3151858343c9dda0f88acc32d210c000000001976a91493766d9f745c004f74ef5913c86f1f2b043d05cc88ac00000000","txid":"f39ebb2bf49a181c17ab110956432d28c650277dc4f0a38e72ab73dd29a523bb","version":1,"time":1541450880,"locktime":0,"vin":[{"txid":"b1b3c7bd725204a34ccbb0a1b5758d6bbde81e75debaa53960c16df8056f1690","vout":1,"scriptSig":{"asm":"304402201592e7ce1e558686dea6cbbcaf4cc6420b99794bfc1f70ecb542db2939a8a52202200be693db5cd68307f1074bf83747050396d3e5ff68d67b3b1d139f83380602d901 0297b261ace011f3cd9147aacabbfce81048fcc43b987b335c8b8a73fabbc9da2e","hex":"47304402201592e7ce1e558686dea6cbbcaf4cc6420b99794bfc1f70ecb542db2939a8a52202200be693db5cd68307f1074bf83747050396d3e5ff68d67b3b1d139f83380602d901210297b261ace011f3cd9147aacabbfce81048fcc43b987b335c8b8a73fabbc9da2e"},"sequence":4294967295}],"vout":[{"value":3.65310124,"n":0,"scriptPubKey":{"asm":"OP_DUP OP_HASH160 b36b2ef2891f0d154c3c3ad3151858343c9dda0f OP_EQUALVERIFY OP_CHECKSIG","reqSigs":1,"type":"pubkeyhash","addresses":["pMuFZGwGPatDeyGpnmkoc8h2FBh9noaY4C"]}},{"value":2.03500995,"n":1,"scriptPubKey":{"asm":"OP_DUP OP_HASH160 93766d9f745c004f74ef5913c86f1f2b043d05cc OP_EQUALVERIFY OP_CHECKSIG","reqSigs":1,"type":"pubkeyhash","addresses":["pJzHQSYU4giz8AxWBcEg2BxAMbgomvJh96"]}}],"blockhash":"6042fbbbf5f6bedabc368fb05a6a83e7efc814a0c12b6dafec135ff0610cb784","confirmations":7,"blocktime":1541450880}