{"hex":"01000000c068d75b02114956db78a1fa90b970d1c62a02d53ecc85a841cb827538b67976d1c4c8849f000000006b48304502210090c4f8715c44efcb4160b33637a99c507916a5fa0d372f7be4657b1d0ae4e64c022018848a5ec79121cada0375aadc4c2af19e70633f1a691c6dde8b5d610e1f00fd012102a9855e47420e380da6468e61840418d009ba96032357831ec7f3b3b3421e258fffffffff114956db78a1fa90b970d1c62a02d53ecc85a841cb827538b67976d1c4c8849f010000006b4830450221008d872e2f8ef17b1eaf67cc0ead6b77e7df8672f27d24ddd8b6a502d891a2218f0220779b12d9d62018ccb5915de49a95962d484b3148dc9a536c8f51f0964567e0db012103791ceca79a3bd5baf38073de583fcc58af800d04b34255e602efc30a0f155c87ffffffff0276fa2500000000001976a9140df16e09a73c2202bbfaab9348c54af2a25dcf0688accede2101000000001976a914f8649a3265ae1b81e93e9fd1def2117d4f414e7b88ac00000000","txid":"89dfdc02a24c8801e914268b2ddfcd7ad995119c07092b9a70482c75051ee1d0","version":1,"time":1540843728,"locktime":0,"vin":[{"txid":"9f84c8c4d17679b6387582cb41a885cc3ed5022ac6d170b990faa178db564911","vout":0,"scriptSig":{"asm":"304502210090c4f8715c44efcb4160b33637a99c507916a5fa0d372f7be4657b1d0ae4e64c022018848a5ec79121cada0375aadc4c2af19e70633f1a691c6dde8b5d610e1f00fd01 02a9855e47420e380da6468e61840418d009ba96032357831ec7f3b3b3421e258f","hex":"48304502210090c4f8715c44efcb4160b33637a99c507916a5fa0d372f7be4657b1d0ae4e64c022018848a5ec79121cada0375aadc4c2af19e70633f1a691c6dde8b5d610e1f00fd012102a9855e47420e380da6468e61840418d009ba96032357831ec7f3b3b3421e258f"},"sequence":4294967295},{"txid":"9f84c8c4d17679b6387582cb41a885cc3ed5022ac6d170b990faa178db564911","vout":1,"scriptSig":{"asm":"30450221008d872e2f8ef17b1eaf67cc0ead6b77e7df8672f27d24ddd8b6a502d891a2218f0220779b12d9d62018ccb5915de49a95962d484b3148dc9a536c8f51f0964567e0db01 03791ceca79a3bd5baf38073de583fcc58af800d04b34255e602efc30a0f155c87","hex":"4830450221008d872e2f8ef17b1eaf67cc0ead6b77e7df8672f27d24ddd8b6a502d891a2218f0220779b12d9d62018ccb5915de49a95962d484b3148dc9a536c8f51f0964567e0db012103791ceca79a3bd5baf38073de583fcc58af800d04b34255e602efc30a0f155c87"},"sequence":4294967295}],"vout":[{"value":0.0248895,"n":0,"scriptPubKey":{"asm":"OP_DUP OP_HASH160 0df16e09a73c2202bbfaab9348c54af2a25dcf06 OP_EQUALVERIFY OP_CHECKSIG","reqSigs":1,"type":"pubkeyhash","addresses":["p6pJD3BFK9i1GFXV5fytKREUiybW7gtp18"]}},{"value":0.18996942,"n":1,"scriptPubKey":{"asm":"OP_DUP OP_HASH160 f8649a3265ae1b81e93e9fd1def2117d4f414e7b OP_EQUALVERIFY OP_CHECKSIG","reqSigs":1,"type":"pubkeyhash","addresses":["pUBxJFa4i9xBrhjHJVdTpc65UqGwtxb4nL"]}}],"blockhash":"11081cb6442fa79e62a354791ea897da9a19e466c7e633624860ffb56c03a82b","confirmations":174,"blocktime":1540843728}