{"hex":"01000000d068d75b0184f7de760c443cd2698b5885164cb659bd5d3738d072428e961aa1bfbcaf3f2a01000000484730440220422e934213733ee524212962613b8eee214762130e0f7abf64aea37ee94b6b52022024156d14222e8c5bcc220fd46430daf2e34006eec5575839e92de4c4ff144f5e01ffffffff0300000000000000000022b4a1d1010000002321020b1cd26fc4b9f080aea1cf7b667efd5e8453f70429056589831fa7f63506ddbfac123f0000000000001976a91466429c93e46136b2db3fe752c257b3dba5e7649c88ac00000000","txid":"ce70bac6053c315951fcae21d202f5437269907836eb52795629e80e6dbabc93","version":1,"time":1540843728,"locktime":0,"vin":[{"txid":"2a3fafbcbfa11a968e4272d038375dbd59b64c1685588b69d23c440c76def784","vout":1,"scriptSig":{"asm":"30440220422e934213733ee524212962613b8eee214762130e0f7abf64aea37ee94b6b52022024156d14222e8c5bcc220fd46430daf2e34006eec5575839e92de4c4ff144f5e01","hex":"4730440220422e934213733ee524212962613b8eee214762130e0f7abf64aea37ee94b6b52022024156d14222e8c5bcc220fd46430daf2e34006eec5575839e92de4c4ff144f5e01"},"sequence":4294967295}],"vout":[{"value":0,"n":0,"scriptPubKey":{"asm":"","type":"nonstandard"}},{"value":78.1200285,"n":1,"scriptPubKey":{"asm":"020b1cd26fc4b9f080aea1cf7b667efd5e8453f70429056589831fa7f63506ddbf OP_CHECKSIG","reqSigs":1,"type":"pubkey","addresses":["pECTDpfW4nW8hYte3f3F9ZQxwgWmBwmcYL"]}},{"value":0.00016146,"n":2,"scriptPubKey":{"asm":"OP_DUP OP_HASH160 66429c93e46136b2db3fe752c257b3dba5e7649c OP_EQUALVERIFY OP_CHECKSIG","reqSigs":1,"type":"pubkeyhash","addresses":["pEsGvXfg7BMJ91FueYCRJrpJCEzDnhWNzu"]}}],"blockhash":"11081cb6442fa79e62a354791ea897da9a19e466c7e633624860ffb56c03a82b","confirmations":174,"blocktime":1540843728}