{"hex":"01000000c7a2c25b010000000000000000000000000000000000000000000000000000000000000000ffffffff04015f0101ffffffff0100000000000000001976a914f2e7a35671d6b5b25a49f6dd831a5953128a600c88ac00000000","txid":"97a7b917b9b8a236f40d64f8f92b70c1718f4f162eceb1b49eb7bda66f43a061","version":1,"time":1539482311,"locktime":0,"vin":[{"coinbase":"015f0101","sequence":4294967295}],"vout":[{"value":0,"n":0,"scriptPubKey":{"asm":"OP_DUP OP_HASH160 f2e7a35671d6b5b25a49f6dd831a5953128a600c OP_EQUALVERIFY OP_CHECKSIG","reqSigs":1,"type":"pubkeyhash","addresses":["pTgwDd15HexidbL1LEqc5XtFzaWTTq15Bp"]}}],"blockhash":"0000025b616ef4ecf4199292f737ae75ecef576e4ba14e200717c1bb3867b820","confirmations":64,"blocktime":1539482311}