{"hex":"0100000040a4d65b01dfa15d1ccaa34fa89c8c405d30186090fe240aadf830d2e726e1c753fc0bbc5302000000494830450221008283b27570e0b201f100c6e99939ceccfdb166d10a1da344d8131fc7763cdff7022069e48bee377da03702a892885c8f62f4ba43e05ae4a41f19f2f18ecef31882ae01ffffffff0400000000000000000000a9a1d1010000002321020b1cd26fc4b9f080aea1cf7b667efd5e8453f70429056589831fa7f63506ddbfac1c15b2d1010000002321020b1cd26fc4b9f080aea1cf7b667efd5e8453f70429056589831fa7f63506ddbfac287c0600000000001976a91473471adebcd697ea1dc18e8db2582a74a6bab88188ac00000000","txid":"02468537669aace4e98c8b115d5be65a8fe277b6f4c5d76c571fbb5485055edc","version":1,"time":1540793408,"locktime":0,"vin":[{"txid":"53bc0bfc53c7e126e7d230f8ad0a24fe906018305d408c9ca84fa3ca1c5da1df","vout":2,"scriptSig":{"asm":"30450221008283b27570e0b201f100c6e99939ceccfdb166d10a1da344d8131fc7763cdff7022069e48bee377da03702a892885c8f62f4ba43e05ae4a41f19f2f18ecef31882ae01","hex":"4830450221008283b27570e0b201f100c6e99939ceccfdb166d10a1da344d8131fc7763cdff7022069e48bee377da03702a892885c8f62f4ba43e05ae4a41f19f2f18ecef31882ae01"},"sequence":4294967295}],"vout":[{"value":0,"n":0,"scriptPubKey":{"asm":"","type":"nonstandard"}},{"value":78.12,"n":1,"scriptPubKey":{"asm":"020b1cd26fc4b9f080aea1cf7b667efd5e8453f70429056589831fa7f63506ddbf OP_CHECKSIG","reqSigs":1,"type":"pubkey","addresses":["pECTDpfW4nW8hYte3f3F9ZQxwgWmBwmcYL"]}},{"value":78.13076252,"n":2,"scriptPubKey":{"asm":"020b1cd26fc4b9f080aea1cf7b667efd5e8453f70429056589831fa7f63506ddbf OP_CHECKSIG","reqSigs":1,"type":"pubkey","addresses":["pECTDpfW4nW8hYte3f3F9ZQxwgWmBwmcYL"]}},{"value":0.00425,"n":3,"scriptPubKey":{"asm":"OP_DUP OP_HASH160 73471adebcd697ea1dc18e8db2582a74a6bab881 OP_EQUALVERIFY OP_CHECKSIG","reqSigs":1,"type":"pubkeyhash","addresses":["pG476E2NDDXyKLQPSQr8zUwis1yY3UyfR9"]}}],"blockhash":"fcd3b7dd33a6c394378a589921414d0938ff9fdb145196bf6532c799ac6062c1","confirmations":236,"blocktime":1540793408}