{"hex":"010000003ba4d65b0143cc4a3afa893ce160117f4f83352e0b35f1d8e59d20e4abee1f91ecd888b0b3010000006a47304402202058796a0c912d0414702b31d8a50bf8ef7db2262ea0bdea859620452b425ad2022045b31c79ed7291e3e855514df99bb658f707c8367c29a2a93dccce1a8d8c5ae30121027a63eb41fb5b1d0c41fa3e8bb739d687887b2e9d5191453467ee4b033887714affffffff02e0c3c51d000000001976a914c2343f365d8a646897cf530d923f2de3e2e71e8b88ac0065cd1d000000001976a914ca8cf0c64c70fef01fd509b38009c1b160b4dc0d88ac00000000","txid":"432c0445ab8e6029fdde7f90198aa5e48f315acd2b2e5e791cb95fff77aecd8f","version":1,"time":1540793408,"locktime":0,"vin":[{"txid":"b3b088d8ec911feeabe4209de5d8f1350b2e35834f7f1160e13c89fa3a4acc43","vout":1,"scriptSig":{"asm":"304402202058796a0c912d0414702b31d8a50bf8ef7db2262ea0bdea859620452b425ad2022045b31c79ed7291e3e855514df99bb658f707c8367c29a2a93dccce1a8d8c5ae301 027a63eb41fb5b1d0c41fa3e8bb739d687887b2e9d5191453467ee4b033887714a","hex":"47304402202058796a0c912d0414702b31d8a50bf8ef7db2262ea0bdea859620452b425ad2022045b31c79ed7291e3e855514df99bb658f707c8367c29a2a93dccce1a8d8c5ae30121027a63eb41fb5b1d0c41fa3e8bb739d687887b2e9d5191453467ee4b033887714a"},"sequence":4294967295}],"vout":[{"value":4.995,"n":0,"scriptPubKey":{"asm":"OP_DUP OP_HASH160 c2343f365d8a646897cf530d923f2de3e2e71e8b OP_EQUALVERIFY OP_CHECKSIG","reqSigs":1,"type":"pubkeyhash","addresses":["pPFRt6nQAZme87WR1QfVHqTwvD2VaDEYjh"]}},{"value":5,"n":1,"scriptPubKey":{"asm":"OP_DUP OP_HASH160 ca8cf0c64c70fef01fd509b38009c1b160b4dc0d OP_EQUALVERIFY OP_CHECKSIG","reqSigs":1,"type":"pubkeyhash","addresses":["pQ1ZYB5wqubqWCbYt86c6WKcDPrc56j4pK"]}}],"blockhash":"fcd3b7dd33a6c394378a589921414d0938ff9fdb145196bf6532c799ac6062c1","confirmations":236,"blocktime":1540793408}