{"hex":"01000000a2a2c25b010000000000000000000000000000000000000000000000000000000000000000ffffffff04015c0103ffffffff0100000000000000001976a91421f8d9a106abd063309c505e76a2ba0a4c0f5d0788ac00000000","txid":"a28c4fcbd3f14e0a0afed2a0daa7086873f90cee434f7345e69d7dec4c3e700a","version":1,"time":1539482288,"locktime":0,"vin":[{"coinbase":"015c0103","sequence":4294967295}],"vout":[{"value":0,"n":0,"scriptPubKey":{"asm":"OP_DUP OP_HASH160 21f8d9a106abd063309c505e76a2ba0a4c0f5d07 OP_EQUALVERIFY OP_CHECKSIG","reqSigs":1,"type":"pubkeyhash","addresses":["p8eCcSm3W7X2dy324LSyEFedqoxrC3eCCG"]}}],"blockhash":"00000a7ed50e82e2837967ef7367ecc6a6e9ec1acf80ee259a897a220153d169","confirmations":67,"blocktime":1539482288}