{"hex":"010000000074d75b014b629b0082652ddce67b8e6f5a1c084c95bf9f2c5bbfed99f4fd59bf1f56f4d80100000049483045022100e684a07528efefcb1e975c8e6e0c8a47974538621f7a0c569ce8cc3e9c15ca180220740d9128629eb93ddbb6601998c43c06bca376020924e992231e0bfc7d47cd9f01ffffffff03000000000000000000a75bb3d1010000002321020b1cd26fc4b9f080aea1cf7b667efd5e8453f70429056589831fa7f63506ddbfac9a6e0000000000001976a9140383cbf635d4aaab0b3af12f3877f122911d227188ac00000000","txid":"44c75d48f840670daae83e7d3b98e8e782d1ca8d46cd995309ba80f043dda37a","version":1,"time":1540846592,"locktime":0,"vin":[{"txid":"d8f4561fbf59fdf499edbf5b2c9fbf954c081c5a6f8e7be6dc2d6582009b624b","vout":1,"scriptSig":{"asm":"3045022100e684a07528efefcb1e975c8e6e0c8a47974538621f7a0c569ce8cc3e9c15ca180220740d9128629eb93ddbb6601998c43c06bca376020924e992231e0bfc7d47cd9f01","hex":"483045022100e684a07528efefcb1e975c8e6e0c8a47974538621f7a0c569ce8cc3e9c15ca180220740d9128629eb93ddbb6601998c43c06bca376020924e992231e0bfc7d47cd9f01"},"sequence":4294967295}],"vout":[{"value":0,"n":0,"scriptPubKey":{"asm":"","type":"nonstandard"}},{"value":78.13159847,"n":1,"scriptPubKey":{"asm":"020b1cd26fc4b9f080aea1cf7b667efd5e8453f70429056589831fa7f63506ddbf OP_CHECKSIG","reqSigs":1,"type":"pubkey","addresses":["pECTDpfW4nW8hYte3f3F9ZQxwgWmBwmcYL"]}},{"value":0.00028314,"n":2,"scriptPubKey":{"asm":"OP_DUP OP_HASH160 0383cbf635d4aaab0b3af12f3877f122911d2271 OP_EQUALVERIFY OP_CHECKSIG","reqSigs":1,"type":"pubkeyhash","addresses":["p5sA7gHHpq5pfbFUafcJM8oF4ZCvf3vkks"]}}],"blockhash":"9a372b181ef3871e2714df8cec217b47e04177b5c29da8e5bef365eacc738c46","confirmations":169,"blocktime":1540846592}