{"hex":"01000000f273d75b0222bf762e62b7231e893e5f46bdb4365b3ef24d7d6f80ce45fad4f6991974da72000000006b4830450221009deecb4d4c40d84a69085149284b58ee723c7d87a76f6061e739905abf53039f0220366f545bcb0b162163f3fdc1c11dfc602ce1f67c48f48e1cc931304ded8ff853012103726d8ec68be53b169776b117013a8b14ed12dd3fa017814ffecc090875579b5cffffffff22bf762e62b7231e893e5f46bdb4365b3ef24d7d6f80ce45fad4f6991974da72010000006a473044022070b0413262a420eb68fc9894511c83a90d2f845ed5f1c024bc3588a1251e222002202f06d7e054d8c496415032e6c7842bf0f077fd7b9adbb98ac21002bccca61160012103ea1ddd40422790fb0f445743762dabd3b63c782bb3f3a15ca53379bec96243d0ffffffff0230cb1f00000000001976a9140b4a8af90ddee83a113db4c65a8bc7b5aecc8ec888ac7549fc01000000001976a91469b441be8b857c5e37d8a6df493ca95d662f1b8288ac00000000","txid":"f3460e80c756049c3f0f5ad1ac962933831c95d9c8a34a3d97ab7b2ff3fe632a","version":1,"time":1540846592,"locktime":0,"vin":[{"txid":"72da741999f6d4fa45ce806f7d4df23e5b36b4bd465f3e891e23b7622e76bf22","vout":0,"scriptSig":{"asm":"30450221009deecb4d4c40d84a69085149284b58ee723c7d87a76f6061e739905abf53039f0220366f545bcb0b162163f3fdc1c11dfc602ce1f67c48f48e1cc931304ded8ff85301 03726d8ec68be53b169776b117013a8b14ed12dd3fa017814ffecc090875579b5c","hex":"4830450221009deecb4d4c40d84a69085149284b58ee723c7d87a76f6061e739905abf53039f0220366f545bcb0b162163f3fdc1c11dfc602ce1f67c48f48e1cc931304ded8ff853012103726d8ec68be53b169776b117013a8b14ed12dd3fa017814ffecc090875579b5c"},"sequence":4294967295},{"txid":"72da741999f6d4fa45ce806f7d4df23e5b36b4bd465f3e891e23b7622e76bf22","vout":1,"scriptSig":{"asm":"3044022070b0413262a420eb68fc9894511c83a90d2f845ed5f1c024bc3588a1251e222002202f06d7e054d8c496415032e6c7842bf0f077fd7b9adbb98ac21002bccca6116001 03ea1ddd40422790fb0f445743762dabd3b63c782bb3f3a15ca53379bec96243d0","hex":"473044022070b0413262a420eb68fc9894511c83a90d2f845ed5f1c024bc3588a1251e222002202f06d7e054d8c496415032e6c7842bf0f077fd7b9adbb98ac21002bccca61160012103ea1ddd40422790fb0f445743762dabd3b63c782bb3f3a15ca53379bec96243d0"},"sequence":4294967295}],"vout":[{"value":0.02083632,"n":0,"scriptPubKey":{"asm":"OP_DUP OP_HASH160 0b4a8af90ddee83a113db4c65a8bc7b5aecc8ec8 OP_EQUALVERIFY OP_CHECKSIG","reqSigs":1,"type":"pubkeyhash","addresses":["p6aGw9LduMrxhhdwfyv5Yxzf62ixZg5A63"]}},{"value":0.33311093,"n":1,"scriptPubKey":{"asm":"OP_DUP OP_HASH160 69b441be8b857c5e37d8a6df493ca95d662f1b82 OP_EQUALVERIFY OP_CHECKSIG","reqSigs":1,"type":"pubkeyhash","addresses":["pFBV6JyY9nddJCaii6uxZDTWf9Ky4ab8rV"]}}],"blockhash":"9a372b181ef3871e2714df8cec217b47e04177b5c29da8e5bef365eacc738c46","confirmations":169,"blocktime":1540846592}