{"hex":"01000000d0a9c25b0124f0c901962f4eaa13519a3ad4f045e7c4ef45bdb3eb92735be7696bb88d3f6c0100000048473044022005b7105412c90055de7b13fe86d4b3efdb40fefe65de613750c5a93e8b48fae102201a14779c9575926622f464161ebe216e25c63153dfab9713370396941f6f18b901ffffffff0400000000000000000000fee848070000002321028d9be6ae35cf9126d1ddd81f7e9a33d77e64d908c42bf417d6424ba1da9106a6ac4040f848070000002321028d9be6ae35cf9126d1ddd81f7e9a33d77e64d908c42bf417d6424ba1da9106a6ac80fe210a000000001976a9147cf288aefa27580772a2e44d947f0a962553405d88ac00000000","txid":"242c01cb7dab4878b5e8146e316ad3b77a0c8b063187317751002b8176211fd5","version":1,"time":1539484112,"locktime":0,"vin":[{"txid":"6c3f8db86b69e75b7392ebb3bd45efc4e745f0d43a9a5113aa4e2f9601c9f024","vout":1,"scriptSig":{"asm":"3044022005b7105412c90055de7b13fe86d4b3efdb40fefe65de613750c5a93e8b48fae102201a14779c9575926622f464161ebe216e25c63153dfab9713370396941f6f18b901","hex":"473044022005b7105412c90055de7b13fe86d4b3efdb40fefe65de613750c5a93e8b48fae102201a14779c9575926622f464161ebe216e25c63153dfab9713370396941f6f18b901"},"sequence":4294967295}],"vout":[{"value":0,"n":0,"scriptPubKey":{"asm":"","type":"nonstandard"}},{"value":312.88,"n":1,"scriptPubKey":{"asm":"028d9be6ae35cf9126d1ddd81f7e9a33d77e64d908c42bf417d6424ba1da9106a6 OP_CHECKSIG","reqSigs":1,"type":"pubkey","addresses":["pG17eAwgEzq6zQQ7cLzvCMepRqGYMprwdz"]}},{"value":312.89,"n":2,"scriptPubKey":{"asm":"028d9be6ae35cf9126d1ddd81f7e9a33d77e64d908c42bf417d6424ba1da9106a6 OP_CHECKSIG","reqSigs":1,"type":"pubkey","addresses":["pG17eAwgEzq6zQQ7cLzvCMepRqGYMprwdz"]}},{"value":1.7,"n":3,"scriptPubKey":{"asm":"OP_DUP OP_HASH160 7cf288aefa27580772a2e44d947f0a962553405d OP_EQUALVERIFY OP_CHECKSIG","reqSigs":1,"type":"pubkeyhash","addresses":["pGwEY3YdfsrsoLzpPy8zj5rEMTsKeC6Mb3"]}}],"blockhash":"89023d544e11c2d890277ca452a24a031b075357d8dbd0e9714fc8a3eb2156e6","confirmations":326,"blocktime":1539484112}