{"hex":"01000000c2a9c25b01d05c888b66ea2895d6c9d7ad649041a92473edc824bc8e9f7e49cdb187903624000000006b483045022100aa98c12812d06af41421aeb360303fa013205ed4b6241ba8ed6eac6c2f4fd74c02202aa29b7b803a7cc04782df2f362bc7d373dbc861b30918988acd071a4836649b012102307f006f9a4def5b5780267cffc1bbcad1602f97a6279f5d85ffc55d7b5d64edffffffff0200a46646f07c23001976a914b700b10ea3d946344b6022dfe596836d060c87b088ac0088526a740000001976a9145e1d99381eb53300f76a3cc6299ce81c71d0c2f788ac00000000","txid":"4e9a37123319ddbd85717346877fdd8bb5aa3858c931095bfc1ac331eae24c02","version":1,"time":1539484112,"locktime":0,"vin":[{"txid":"24369087b1cd497e9f8ebc24c8ed7324a9419064add7c9d69528ea668b885cd0","vout":0,"scriptSig":{"asm":"3045022100aa98c12812d06af41421aeb360303fa013205ed4b6241ba8ed6eac6c2f4fd74c02202aa29b7b803a7cc04782df2f362bc7d373dbc861b30918988acd071a4836649b01 02307f006f9a4def5b5780267cffc1bbcad1602f97a6279f5d85ffc55d7b5d64ed","hex":"483045022100aa98c12812d06af41421aeb360303fa013205ed4b6241ba8ed6eac6c2f4fd74c02202aa29b7b803a7cc04782df2f362bc7d373dbc861b30918988acd071a4836649b012102307f006f9a4def5b5780267cffc1bbcad1602f97a6279f5d85ffc55d7b5d64ed"},"sequence":4294967295}],"vout":[{"value":99889956,"n":0,"scriptPubKey":{"asm":"OP_DUP OP_HASH160 b700b10ea3d946344b6022dfe596836d060c87b0 OP_EQUALVERIFY OP_CHECKSIG","reqSigs":1,"type":"pubkeyhash","addresses":["pNECgsAk9qThM8i24SkCCDRYFfwhoQwGGK"]}},{"value":5000,"n":1,"scriptPubKey":{"asm":"OP_DUP OP_HASH160 5e1d99381eb53300f76a3cc6299ce81c71d0c2f7 OP_EQUALVERIFY OP_CHECKSIG","reqSigs":1,"type":"pubkeyhash","addresses":["pE8DBH6VheNWCoBfLHY8coXmUqVnKuU1Z8"]}}],"blockhash":"89023d544e11c2d890277ca452a24a031b075357d8dbd0e9714fc8a3eb2156e6","confirmations":326,"blocktime":1539484112}