{"hex":"010000002178dc5b01722f733d4a2dc090537e2803f3e0acd8601c3f4b86e4df733213b9b335df0733010000006b483045022100a300cf38ee6b2fe00eb5e0c105c3f8e2503e1cef7ebbf5a37eb41849658a3d620220301e16acd0cd14a0288c020e6d0bf4beb938ffff84d40ae7c76526e3346449cd0121037e3ba15fbe14d74b967dc63dd7690b43f97d83001dcd15e2debe88511930138effffffff02d3b7c31a000000001976a91430ebfce0e612564cd849aafa7269bb286063150d88ac8490e40c000000001976a91442e96287b677020642e99b5020e7f86d4bfdb48188ac00000000","txid":"0bfc69c40a0f8999443d150eafd9b50015ada7e663284a506dc18ccd74e7693d","version":1,"time":1541175344,"locktime":0,"vin":[{"txid":"3307df35b3b9133273dfe4864b3f1c60d8ace0f303287e5390c02d4a3d732f72","vout":1,"scriptSig":{"asm":"3045022100a300cf38ee6b2fe00eb5e0c105c3f8e2503e1cef7ebbf5a37eb41849658a3d620220301e16acd0cd14a0288c020e6d0bf4beb938ffff84d40ae7c76526e3346449cd01 037e3ba15fbe14d74b967dc63dd7690b43f97d83001dcd15e2debe88511930138e","hex":"483045022100a300cf38ee6b2fe00eb5e0c105c3f8e2503e1cef7ebbf5a37eb41849658a3d620220301e16acd0cd14a0288c020e6d0bf4beb938ffff84d40ae7c76526e3346449cd0121037e3ba15fbe14d74b967dc63dd7690b43f97d83001dcd15e2debe88511930138e"},"sequence":4294967295}],"vout":[{"value":4.49034195,"n":0,"scriptPubKey":{"asm":"OP_DUP OP_HASH160 30ebfce0e612564cd849aafa7269bb286063150d OP_EQUALVERIFY OP_CHECKSIG","reqSigs":1,"type":"pubkeyhash","addresses":["pA1FLdhurc7FQXUfeqG2HAK1FvpA79WKTT"]}},{"value":2.16305796,"n":1,"scriptPubKey":{"asm":"OP_DUP OP_HASH160 42e96287b677020642e99b5020e7f86d4bfdb481 OP_EQUALVERIFY OP_CHECKSIG","reqSigs":1,"type":"pubkeyhash","addresses":["pBeNPERor2RanPkEVEWcQ3gvtTeZZhE7vJ"]}}],"blockhash":"cc5b42c1d613b91ff5a4a1a43a28ae8378bb33fd16aedeb168e2c137fcbfbcf4","confirmations":69,"blocktime":1541175344}