{"hex":"010000003078dc5b019fd024d1e944343b3721bf118aeae0ef667bf221edb58afb3c2820dc2e1ec216010000006a473044022072b37f88f1315adb408794035d50e33fbf258437b4039ab4bb1cd8792269f9ff02205dfdb16244e599930a39f92cc4a62e97fa6ddd7df81263831f67b4e9d802a437012103d8331a1033ecdf1802be315dcbe6b8edb833f44cd900cb6d34dc783958852bf3ffffffff04000000000000000000004429353a000000232103d8331a1033ecdf1802be315dcbe6b8edb833f44cd900cb6d34dc783958852bf3acbec229353a000000232103d8331a1033ecdf1802be315dcbe6b8edb833f44cd900cb6d34dc783958852bf3ac33ce0200000000001976a914868614ec264fbcc17e0fe25b544f0740a29a3ffa88ac00000000","txid":"1ecf6fa4161d80450d795228fb00ef24e3661be1a7b683c496ded29343a25860","version":1,"time":1541175344,"locktime":0,"vin":[{"txid":"16c21e2edc20283cfb8ab5ed21f27b66efe0ea8a11bf21373b3444e9d124d09f","vout":1,"scriptSig":{"asm":"3044022072b37f88f1315adb408794035d50e33fbf258437b4039ab4bb1cd8792269f9ff02205dfdb16244e599930a39f92cc4a62e97fa6ddd7df81263831f67b4e9d802a43701 03d8331a1033ecdf1802be315dcbe6b8edb833f44cd900cb6d34dc783958852bf3","hex":"473044022072b37f88f1315adb408794035d50e33fbf258437b4039ab4bb1cd8792269f9ff02205dfdb16244e599930a39f92cc4a62e97fa6ddd7df81263831f67b4e9d802a437012103d8331a1033ecdf1802be315dcbe6b8edb833f44cd900cb6d34dc783958852bf3"},"sequence":4294967295}],"vout":[{"value":0,"n":0,"scriptPubKey":{"asm":"","type":"nonstandard"}},{"value":2500,"n":1,"scriptPubKey":{"asm":"03d8331a1033ecdf1802be315dcbe6b8edb833f44cd900cb6d34dc783958852bf3 OP_CHECKSIG","reqSigs":1,"type":"pubkey","addresses":["pPvGJ7RaHWgFFf4mpU2Xn8sUqejUBfqoKj"]}},{"value":2500.00032446,"n":2,"scriptPubKey":{"asm":"03d8331a1033ecdf1802be315dcbe6b8edb833f44cd900cb6d34dc783958852bf3 OP_CHECKSIG","reqSigs":1,"type":"pubkey","addresses":["pPvGJ7RaHWgFFf4mpU2Xn8sUqejUBfqoKj"]}},{"value":0.00183859,"n":3,"scriptPubKey":{"asm":"OP_DUP OP_HASH160 868614ec264fbcc17e0fe25b544f0740a29a3ffa OP_EQUALVERIFY OP_CHECKSIG","reqSigs":1,"type":"pubkeyhash","addresses":["pHosNaAavGxjBXaJVQnyrJDcTKDMVqKujz"]}}],"blockhash":"cc5b42c1d613b91ff5a4a1a43a28ae8378bb33fd16aedeb168e2c137fcbfbcf4","confirmations":69,"blocktime":1541175344}