{"hex":"010000003aa2c25b010000000000000000000000000000000000000000000000000000000000000000ffffffff0401510101ffffffff0100000000000000001976a9141b9372a12b0fddfcfd534a0fd4d06fc3f3af7c5788ac00000000","txid":"986c60c53176bdf3c526a44c1fda72fab98ac97576e76f6cdbdd79830fff00ad","version":1,"time":1539482171,"locktime":0,"vin":[{"coinbase":"01510101","sequence":4294967295}],"vout":[{"value":0,"n":0,"scriptPubKey":{"asm":"OP_DUP OP_HASH160 1b9372a12b0fddfcfd534a0fd4d06fc3f3af7c57 OP_EQUALVERIFY OP_CHECKSIG","reqSigs":1,"type":"pubkeyhash","addresses":["p84P5jdKY6MPAkd67DruronxqVt9yKXC3A"]}}],"blockhash":"00000896d9dfc2f29e42ce320833a44d1283c6e9a507f1cc6add697f9910a8b3","confirmations":78,"blocktime":1539482171}