{"hex":"0100000000c7d95b01679b9d553f793fb72be19f99b3735350dad6e23076f2960c157ea64f771e89a802000000484730440220377c51fff8b725db002cc94490fed428bc5c9e82c5f84330573f6a3d211e740e022074961d7e1288ccec061acd2c835341822200773fd062443b033b71c4b7e09e0601ffffffff04000000000000000000007f74a4030000002321028d9be6ae35cf9126d1ddd81f7e9a33d77e64d908c42bf417d6424ba1da9106a6acfec183a4030000002321028d9be6ae35cf9126d1ddd81f7e9a33d77e64d908c42bf417d6424ba1da9106a6ac31040000000000001976a914256b9b540806ec78f3cbc6d37188a2e1504616e688ac00000000","txid":"2ce3d0fe5ba52b3585c8433ff854c749ca5e277a0ea3a62e472feaf24748acf0","version":1,"time":1540998912,"locktime":0,"vin":[{"txid":"a8891e774fa67e150c96f27630e2d6da505373b3999fe12bb73f793f559d9b67","vout":2,"scriptSig":{"asm":"30440220377c51fff8b725db002cc94490fed428bc5c9e82c5f84330573f6a3d211e740e022074961d7e1288ccec061acd2c835341822200773fd062443b033b71c4b7e09e0601","hex":"4730440220377c51fff8b725db002cc94490fed428bc5c9e82c5f84330573f6a3d211e740e022074961d7e1288ccec061acd2c835341822200773fd062443b033b71c4b7e09e0601"},"sequence":4294967295}],"vout":[{"value":0,"n":0,"scriptPubKey":{"asm":"","type":"nonstandard"}},{"value":156.44,"n":1,"scriptPubKey":{"asm":"028d9be6ae35cf9126d1ddd81f7e9a33d77e64d908c42bf417d6424ba1da9106a6 OP_CHECKSIG","reqSigs":1,"type":"pubkey","addresses":["pG17eAwgEzq6zQQ7cLzvCMepRqGYMprwdz"]}},{"value":156.4500019,"n":2,"scriptPubKey":{"asm":"028d9be6ae35cf9126d1ddd81f7e9a33d77e64d908c42bf417d6424ba1da9106a6 OP_CHECKSIG","reqSigs":1,"type":"pubkey","addresses":["pG17eAwgEzq6zQQ7cLzvCMepRqGYMprwdz"]}},{"value":0.00001073,"n":3,"scriptPubKey":{"asm":"OP_DUP OP_HASH160 256b9b540806ec78f3cbc6d37188a2e1504616e6 OP_EQUALVERIFY OP_CHECKSIG","reqSigs":1,"type":"pubkeyhash","addresses":["p8xS7T8mkTz7MJV9EcYkBri1Zi12wCV83N"]}}],"blockhash":"5fecab8b8eaf4ef84069053ed2b8987a1d61fc207aecacc84c59f00813f915d0","confirmations":130,"blocktime":1540998912}