{"hex":"01000000f5c6d95b018c30fe0cf38f282ff125c42835b79d5aa870a17fd83a155be70a40d5b8760ec4000000006b483045022100c3461fa5d5e899ea83158b7143b019eb70622c7f0002c1b4cab2f157364b70e6022048a32c073f73bd028ec5e7aa378bbae69232ec29cfb9e8188d37687e9203194d0121029e857134122939a57279b02312e296a02bcf0cf876ddc541bd372450215dbeacffffffff02d4293700000000001976a9144c28ee798243702bc4500cdb4da9004130bb47f688aceb471300000000001976a914f6ef5e10b4f6e1ebbe207d2270b519e4e5c765b988ac00000000","txid":"f3da5ef95f8d1f245f0ef4c644e72167132f1afc2c6f36cd1263f42002f8b9ab","version":1,"time":1540998912,"locktime":0,"vin":[{"txid":"c40e76b8d5400ae75b153ad87fa170a85a9db73528c425f12f288ff30cfe308c","vout":0,"scriptSig":{"asm":"3045022100c3461fa5d5e899ea83158b7143b019eb70622c7f0002c1b4cab2f157364b70e6022048a32c073f73bd028ec5e7aa378bbae69232ec29cfb9e8188d37687e9203194d01 029e857134122939a57279b02312e296a02bcf0cf876ddc541bd372450215dbeac","hex":"483045022100c3461fa5d5e899ea83158b7143b019eb70622c7f0002c1b4cab2f157364b70e6022048a32c073f73bd028ec5e7aa378bbae69232ec29cfb9e8188d37687e9203194d0121029e857134122939a57279b02312e296a02bcf0cf876ddc541bd372450215dbeac"},"sequence":4294967295}],"vout":[{"value":0.03615188,"n":0,"scriptPubKey":{"asm":"OP_DUP OP_HASH160 4c28ee798243702bc4500cdb4da9004130bb47f6 OP_EQUALVERIFY OP_CHECKSIG","reqSigs":1,"type":"pubkeyhash","addresses":["pCVGbFvFLapGyskXvwfxG2ss21bRU9FqUh"]}},{"value":0.01263595,"n":1,"scriptPubKey":{"asm":"OP_DUP OP_HASH160 f6ef5e10b4f6e1ebbe207d2270b519e4e5c765b9 OP_EQUALVERIFY OP_CHECKSIG","reqSigs":1,"type":"pubkeyhash","addresses":["pU4FBSKKyNKMpt9kuyiZpQqNSApFzMc9fM"]}}],"blockhash":"5fecab8b8eaf4ef84069053ed2b8987a1d61fc207aecacc84c59f00813f915d0","confirmations":130,"blocktime":1540998912}