{"hex":"01000000f0a6c25b01aa8f8ec02ac1fff4a311d2fda395b6382952d207e4e451da2ed75f68149eed4a020000006a47304402201ad0643f1c94d8b2a688831c186bedff5e175afcbc63ddeafdfa53e80c677235022033903cd20e9477e4061c43bed8a5d3e22fde12317e4a70e7a798fca7ef764ee70121033b457af556a3bfe40b5e35256855a938fb82f71b91dac5e92aa7e441023e7b57ffffffff0300000000000000000000c2eb0b000000002321033b457af556a3bfe40b5e35256855a938fb82f71b91dac5e92aa7e441023e7b57ac80fe210a000000001976a9148e3f6e3d2f029829ca356517f18e326c94cd54cd88ac00000000","txid":"1be313f4cb54b231b60100260b597d580c21f7443550b04e975ea2a7d32c9f6a","version":1,"time":1539483376,"locktime":0,"vin":[{"txid":"4aed9e14685fd72eda51e4e407d2522938b695a3fdd211a3f4ffc12ac08e8faa","vout":2,"scriptSig":{"asm":"304402201ad0643f1c94d8b2a688831c186bedff5e175afcbc63ddeafdfa53e80c677235022033903cd20e9477e4061c43bed8a5d3e22fde12317e4a70e7a798fca7ef764ee701 033b457af556a3bfe40b5e35256855a938fb82f71b91dac5e92aa7e441023e7b57","hex":"47304402201ad0643f1c94d8b2a688831c186bedff5e175afcbc63ddeafdfa53e80c677235022033903cd20e9477e4061c43bed8a5d3e22fde12317e4a70e7a798fca7ef764ee70121033b457af556a3bfe40b5e35256855a938fb82f71b91dac5e92aa7e441023e7b57"},"sequence":4294967295}],"vout":[{"value":0,"n":0,"scriptPubKey":{"asm":"","type":"nonstandard"}},{"value":2,"n":1,"scriptPubKey":{"asm":"033b457af556a3bfe40b5e35256855a938fb82f71b91dac5e92aa7e441023e7b57 OP_CHECKSIG","reqSigs":1,"type":"pubkey","addresses":["pJWi9BXT9hsVaAft92RNcufBy1LZGU4RtT"]}},{"value":1.7,"n":2,"scriptPubKey":{"asm":"OP_DUP OP_HASH160 8e3f6e3d2f029829ca356517f18e326c94cd54cd OP_EQUALVERIFY OP_CHECKSIG","reqSigs":1,"type":"pubkeyhash","addresses":["pJWi9BXT9hsVaAft92RNcufBy1LZGU4RtT"]}}],"blockhash":"efd6764074524c8926b3cdde57ac2d46ad18b360c9ecf3226bb875f6eba3545e","confirmations":335,"blocktime":1539483376}