{"hex":"01000000e2a6c25b01934f1ef01f828a3b3975a179e8078d0e11a532ad65914c6c5ebc2c07b3ca753b000000006a47304402207f7fdd3dc85dbdd22a15e35730e677952e65b2d42c74e58f03da0b39faa402820220195deaadb94e2ecf4995c4da46e771aeb16c3e179dc2b49d6ef6303aa60d109301210377e4fe3af21ad1aa7d91c3f152a8fe75f93e2b260cbe1014d1ba19a650f6293bffffffff02003e976e088123001976a914365ab8fbee0674185de208c800fb4bfe19d8275d88ac0088526a740000001976a9140383cbf635d4aaab0b3af12f3877f122911d227188ac00000000","txid":"df2a54b6ac7e1300d26d5238db9a3e9235db3961f85924c01320e752da6f12b0","version":1,"time":1539483376,"locktime":0,"vin":[{"txid":"3b75cab3072cbc5e6c4c9165ad32a5110e8d07e879a175393b8a821ff01e4f93","vout":0,"scriptSig":{"asm":"304402207f7fdd3dc85dbdd22a15e35730e677952e65b2d42c74e58f03da0b39faa402820220195deaadb94e2ecf4995c4da46e771aeb16c3e179dc2b49d6ef6303aa60d109301 0377e4fe3af21ad1aa7d91c3f152a8fe75f93e2b260cbe1014d1ba19a650f6293b","hex":"47304402207f7fdd3dc85dbdd22a15e35730e677952e65b2d42c74e58f03da0b39faa402820220195deaadb94e2ecf4995c4da46e771aeb16c3e179dc2b49d6ef6303aa60d109301210377e4fe3af21ad1aa7d91c3f152a8fe75f93e2b260cbe1014d1ba19a650f6293b"},"sequence":4294967295}],"vout":[{"value":99934974,"n":0,"scriptPubKey":{"asm":"OP_DUP OP_HASH160 365ab8fbee0674185de208c800fb4bfe19d8275d OP_EQUALVERIFY OP_CHECKSIG","reqSigs":1,"type":"pubkeyhash","addresses":["pAVyNadrVkxXBA8XnicL46tZhBTtSdEzCR"]}},{"value":5000,"n":1,"scriptPubKey":{"asm":"OP_DUP OP_HASH160 0383cbf635d4aaab0b3af12f3877f122911d2271 OP_EQUALVERIFY OP_CHECKSIG","reqSigs":1,"type":"pubkeyhash","addresses":["p5sA7gHHpq5pfbFUafcJM8oF4ZCvf3vkks"]}}],"blockhash":"efd6764074524c8926b3cdde57ac2d46ad18b360c9ecf3226bb875f6eba3545e","confirmations":335,"blocktime":1539483376}