{"hex":"0100000020a5d65b011bbcb6e89048eded1d916d056474ffade978baf56683225c2d572191a21f193e0100000049483045022100b8d6a74788d788b48453dc76d0baa7bde94c2776e8eb92fbff51632b147abb8502203ace8cbf8789dfa20117c8bd5b41c0a3251169e39969d0b7184c7b21615b305601ffffffff0400000000000000000000a9a1d1010000002321020b1cd26fc4b9f080aea1cf7b667efd5e8453f70429056589831fa7f63506ddbfac7060b1d1010000002321020b1cd26fc4b9f080aea1cf7b667efd5e8453f70429056589831fa7f63506ddbfac10980200000000001976a9146ee8ae815746df1e1038d51169f823db3353ab0488ac00000000","txid":"20590150bd3aa9b2e2a38b99098d2eee1675ae1146efc1ad423e4b93e4fefcf2","version":1,"time":1540793632,"locktime":0,"vin":[{"txid":"3e191fa29121572d5c228366f5ba78e9adff7464056d911deded4890e8b6bc1b","vout":1,"scriptSig":{"asm":"3045022100b8d6a74788d788b48453dc76d0baa7bde94c2776e8eb92fbff51632b147abb8502203ace8cbf8789dfa20117c8bd5b41c0a3251169e39969d0b7184c7b21615b305601","hex":"483045022100b8d6a74788d788b48453dc76d0baa7bde94c2776e8eb92fbff51632b147abb8502203ace8cbf8789dfa20117c8bd5b41c0a3251169e39969d0b7184c7b21615b305601"},"sequence":4294967295}],"vout":[{"value":0,"n":0,"scriptPubKey":{"asm":"","type":"nonstandard"}},{"value":78.12,"n":1,"scriptPubKey":{"asm":"020b1cd26fc4b9f080aea1cf7b667efd5e8453f70429056589831fa7f63506ddbf OP_CHECKSIG","reqSigs":1,"type":"pubkey","addresses":["pECTDpfW4nW8hYte3f3F9ZQxwgWmBwmcYL"]}},{"value":78.1303,"n":2,"scriptPubKey":{"asm":"020b1cd26fc4b9f080aea1cf7b667efd5e8453f70429056589831fa7f63506ddbf OP_CHECKSIG","reqSigs":1,"type":"pubkey","addresses":["pECTDpfW4nW8hYte3f3F9ZQxwgWmBwmcYL"]}},{"value":0.0017,"n":3,"scriptPubKey":{"asm":"OP_DUP OP_HASH160 6ee8ae815746df1e1038d51169f823db3353ab04 OP_EQUALVERIFY OP_CHECKSIG","reqSigs":1,"type":"pubkeyhash","addresses":["pFf1Gp4G6PCkSUxUY1XLwNBH2ji6sBJMC3"]}}],"blockhash":"a88b404f8eeacdb944e6f48c0a9c574a1b5ebdab89d0334d0c4e8023fcf9416f","confirmations":235,"blocktime":1540793632}