{"hex":"010000001da5d65b018fcdae77ff5fb91c795e2e2bcd5a318fe4a58a19907fdefd29608eab45042c43000000006b483045022100e466c4b655438e05f1a0f835444aafb8bee300151ee47ce0a065c795ac8428ec02201d578dfc2b3c6be0adcd3b6f643b01b7cc566de165b7780d84787342d9850bdd01210268f96ffea023f8d20988efae754a647b709ee8a7597061fdfbadc7bfe1eda682ffffffff02a0f4d611000000001976a9147842d94eb1494c54873b20cadf2bb9180930a90c88ac00c2eb0b000000001976a914ca8cf0c64c70fef01fd509b38009c1b160b4dc0d88ac00000000","txid":"a1580ece1176092027844299b5fbf2e37b7530cbe857eac158629ace23881212","version":1,"time":1540793632,"locktime":0,"vin":[{"txid":"432c0445ab8e6029fdde7f90198aa5e48f315acd2b2e5e791cb95fff77aecd8f","vout":0,"scriptSig":{"asm":"3045022100e466c4b655438e05f1a0f835444aafb8bee300151ee47ce0a065c795ac8428ec02201d578dfc2b3c6be0adcd3b6f643b01b7cc566de165b7780d84787342d9850bdd01 0268f96ffea023f8d20988efae754a647b709ee8a7597061fdfbadc7bfe1eda682","hex":"483045022100e466c4b655438e05f1a0f835444aafb8bee300151ee47ce0a065c795ac8428ec02201d578dfc2b3c6be0adcd3b6f643b01b7cc566de165b7780d84787342d9850bdd01210268f96ffea023f8d20988efae754a647b709ee8a7597061fdfbadc7bfe1eda682"},"sequence":4294967295}],"vout":[{"value":2.993,"n":0,"scriptPubKey":{"asm":"OP_DUP OP_HASH160 7842d94eb1494c54873b20cadf2bb9180930a90c OP_EQUALVERIFY OP_CHECKSIG","reqSigs":1,"type":"pubkeyhash","addresses":["pGWTNTwDNaZCGdHBMNnMB3m6dNoJjpRPom"]}},{"value":2,"n":1,"scriptPubKey":{"asm":"OP_DUP OP_HASH160 ca8cf0c64c70fef01fd509b38009c1b160b4dc0d OP_EQUALVERIFY OP_CHECKSIG","reqSigs":1,"type":"pubkeyhash","addresses":["pQ1ZYB5wqubqWCbYt86c6WKcDPrc56j4pK"]}}],"blockhash":"a88b404f8eeacdb944e6f48c0a9c574a1b5ebdab89d0334d0c4e8023fcf9416f","confirmations":235,"blocktime":1540793632}