{"hex":"01000000d2a0c25b010000000000000000000000000000000000000000000000000000000000000000ffffffff0401280102ffffffff0100000000000000001976a9149a75bc088ebfbbe6d573e8c4d033a322fcb32b7c88ac00000000","txid":"7e6c9e03b447571b2d6ecea64a8079840b23d23b47925d01f384ef4b7c997b1e","version":1,"time":1539481817,"locktime":0,"vin":[{"coinbase":"01280102","sequence":4294967295}],"vout":[{"value":0,"n":0,"scriptPubKey":{"asm":"OP_DUP OP_HASH160 9a75bc088ebfbbe6d573e8c4d033a322fcb32b7c OP_EQUALVERIFY OP_CHECKSIG","reqSigs":1,"type":"pubkeyhash","addresses":["pKdHJaqoQmjdmTPJYGZPPZtHr6MFkGFXGm"]}}],"blockhash":"00000b9bd3b4f58cae731322483344b07d7886faf4198d2da0a0d6302451260e","confirmations":405,"blocktime":1539481817}