{"hex":"01000000a0c1d95b01531a5700187a96a001c252477d4853df32710ed0c302a43dd88ce4368418708601000000494830450221009a9e8d14273ba9242282ac027ba02527075bcb42b90e98f3be1cc897003f42e302204fd913d0d6a3a815b07368f40e1a7bcc5262d5805a657f58310fca4dcf25d00401ffffffff04000000000000000000401c0448070000002321028d9be6ae35cf9126d1ddd81f7e9a33d77e64d908c42bf417d6424ba1da9106a6acb93b1448070000002321028d9be6ae35cf9126d1ddd81f7e9a33d77e64d908c42bf417d6424ba1da9106a6ac96e50400000000001976a9149590579f878db6722db4322a713599a3d865ecb188ac00000000","txid":"013deb702da46a25747a66eae6c4b6b43f9072acf4cece1343f914729444a88f","version":1,"time":1540997536,"locktime":0,"vin":[{"txid":"8670188436e48cd83da402c3d00e7132df53487d4752c201a0967a1800571a53","vout":1,"scriptSig":{"asm":"30450221009a9e8d14273ba9242282ac027ba02527075bcb42b90e98f3be1cc897003f42e302204fd913d0d6a3a815b07368f40e1a7bcc5262d5805a657f58310fca4dcf25d00401","hex":"4830450221009a9e8d14273ba9242282ac027ba02527075bcb42b90e98f3be1cc897003f42e302204fd913d0d6a3a815b07368f40e1a7bcc5262d5805a657f58310fca4dcf25d00401"},"sequence":4294967295}],"vout":[{"value":0,"n":0,"scriptPubKey":{"asm":"","type":"nonstandard"}},{"value":312.73,"n":1,"scriptPubKey":{"asm":"028d9be6ae35cf9126d1ddd81f7e9a33d77e64d908c42bf417d6424ba1da9106a6 OP_CHECKSIG","reqSigs":1,"type":"pubkey","addresses":["pG17eAwgEzq6zQQ7cLzvCMepRqGYMprwdz"]}},{"value":312.74056633,"n":2,"scriptPubKey":{"asm":"028d9be6ae35cf9126d1ddd81f7e9a33d77e64d908c42bf417d6424ba1da9106a6 OP_CHECKSIG","reqSigs":1,"type":"pubkey","addresses":["pG17eAwgEzq6zQQ7cLzvCMepRqGYMprwdz"]}},{"value":0.00320918,"n":3,"scriptPubKey":{"asm":"OP_DUP OP_HASH160 9590579f878db6722db4322a713599a3d865ecb1 OP_EQUALVERIFY OP_CHECKSIG","reqSigs":1,"type":"pubkeyhash","addresses":["pKBPoNA3SJPY8i2H3PXAafpEbMr7NNikgL"]}}],"blockhash":"3462f7892736a37e36b59fd3c3a190807b0a84eb686dd9e3b6f429d09da9a382","confirmations":136,"blocktime":1540997536}