{"hex":"010000009ec1d95b0681812ad13e5cd8c8869f9e808aa77faff309d3bf160c6a84a8c537872bd034ff010000006a47304402203aa6578ec4709f66a2f7b6e6f0945679be225e716d3adad3e5ae921a79d03bb00220226059c3be490350e404ca953b74e9a71bf0f4a54d65d43b165e640d87f71b100121020d43fd95cc037f30529e91b7bb6741e62a1c1c2e1fb749289fcedb937d7ba584ffffffffa48a1c78d39f51c2e85a3553cb39fef3a7331b0a86387eb003f393ad45d3e85c010000006b483045022100f8c5779b41f9fdea647177f41c6252ba8c49e73732abdcf9ec337257c3f64ac802202b0d1244f09e7ad1c6fce319b5790a152a75f8321e177c6ab420d59907d529bb01210215f68aba99040d524d1e50a5c986b3b4849e9d260217c5c23aad2c4371a2288dffffffff27d31d619ad3cf7a4bbf2c39c7d54fbec0997705c86ebb6bf23e1e5dea8de7e0000000006b483045022100cf2c04551a19f8872cfceb7b83b5c687ad35e3f6ea6b3a85b5b5250208e867af022073990bb7a367ab93ff1158f6fc64a56f3f7b9787c7e5b814c7c305dde317e7630121030aaa20c40331f5d430ee86103479c3d4568f069e0daf2314d7fc7ddd1785d4ddffffffffd0140c62412e44af278fbc0ccd07e12050829f0bfb558fe4aa2fd8397bd4c570000000006b483045022100b6907a337c8de1b33f79264e0f5be979ddb4c152c479750ed8750a68790c547c02202819b1a969ffc992051a0baa33faa8845ef9353f5dcd83534b838367802dd23501210309353bfb669438b5473efe78f43afe77ec15377be2680dd8fa0337f503183789ffffffff5fe353a57e3b4e3c5f8c513c4da550c65a77b7210f4dad47b267c7e43956e096000000006a473044022079f5c38b7ef9944aa9b7e3e8b1a7de73cd994e2bf20ad548267d56a59918c3990220158570f0fc0c5257c9c38a11baf19da0baed77f030f3e15ae020b0e58b119297012102910c660acd6f5a2031b0fc39c5b41fdf8ec69ecf9cf445eb6a7506ca08923fa1ffffffff9525b1713d197a2816a3864ae197b6e38e90611d5108004077792b086a03ebf0010000006b483045022100f70e0d7a6b65450647533241e9996d7530fcf2617b19329cf929956e7b35f2b302201ae10845e605536e5a56d18d8d096085201e7cc2963117737ba23201e847a76d01210390b3e06fe3fcab7ba78dbb055ce66159b1ff1bfc442bbe4ce9468db818e159c1ffffffff0296680f00000000001976a91447a82d6becabf010219b05e9aba315d1696c7c9c88acacf88016000000001976a91424cd9f5c33d44b3d80733b7d7c4a203934a117d688ac00000000","txid":"6b82cd7130c94e0febc82feb6e2172dd9c347e0dddfbc86bb6dbcf3788eb14db","version":1,"time":1540997536,"locktime":0,"vin":[{"txid":"ff34d02b8737c5a8846a0c16bfd309f3af7fa78a809e9f86c8d85c3ed12a8181","vout":1,"scriptSig":{"asm":"304402203aa6578ec4709f66a2f7b6e6f0945679be225e716d3adad3e5ae921a79d03bb00220226059c3be490350e404ca953b74e9a71bf0f4a54d65d43b165e640d87f71b1001 020d43fd95cc037f30529e91b7bb6741e62a1c1c2e1fb749289fcedb937d7ba584","hex":"47304402203aa6578ec4709f66a2f7b6e6f0945679be225e716d3adad3e5ae921a79d03bb00220226059c3be490350e404ca953b74e9a71bf0f4a54d65d43b165e640d87f71b100121020d43fd95cc037f30529e91b7bb6741e62a1c1c2e1fb749289fcedb937d7ba584"},"sequence":4294967295},{"txid":"5ce8d345ad93f303b07e38860a1b33a7f3fe39cb53355ae8c2519fd3781c8aa4","vout":1,"scriptSig":{"asm":"3045022100f8c5779b41f9fdea647177f41c6252ba8c49e73732abdcf9ec337257c3f64ac802202b0d1244f09e7ad1c6fce319b5790a152a75f8321e177c6ab420d59907d529bb01 0215f68aba99040d524d1e50a5c986b3b4849e9d260217c5c23aad2c4371a2288d","hex":"483045022100f8c5779b41f9fdea647177f41c6252ba8c49e73732abdcf9ec337257c3f64ac802202b0d1244f09e7ad1c6fce319b5790a152a75f8321e177c6ab420d59907d529bb01210215f68aba99040d524d1e50a5c986b3b4849e9d260217c5c23aad2c4371a2288d"},"sequence":4294967295},{"txid":"e0e78dea5d1e3ef26bbb6ec8057799c0be4fd5c7392cbf4b7acfd39a611dd327","vout":0,"scriptSig":{"asm":"3045022100cf2c04551a19f8872cfceb7b83b5c687ad35e3f6ea6b3a85b5b5250208e867af022073990bb7a367ab93ff1158f6fc64a56f3f7b9787c7e5b814c7c305dde317e76301 030aaa20c40331f5d430ee86103479c3d4568f069e0daf2314d7fc7ddd1785d4dd","hex":"483045022100cf2c04551a19f8872cfceb7b83b5c687ad35e3f6ea6b3a85b5b5250208e867af022073990bb7a367ab93ff1158f6fc64a56f3f7b9787c7e5b814c7c305dde317e7630121030aaa20c40331f5d430ee86103479c3d4568f069e0daf2314d7fc7ddd1785d4dd"},"sequence":4294967295},{"txid":"70c5d47b39d82faae48f55fb0b9f825020e107cd0cbc8f27af442e41620c14d0","vout":0,"scriptSig":{"asm":"3045022100b6907a337c8de1b33f79264e0f5be979ddb4c152c479750ed8750a68790c547c02202819b1a969ffc992051a0baa33faa8845ef9353f5dcd83534b838367802dd23501 0309353bfb669438b5473efe78f43afe77ec15377be2680dd8fa0337f503183789","hex":"483045022100b6907a337c8de1b33f79264e0f5be979ddb4c152c479750ed8750a68790c547c02202819b1a969ffc992051a0baa33faa8845ef9353f5dcd83534b838367802dd23501210309353bfb669438b5473efe78f43afe77ec15377be2680dd8fa0337f503183789"},"sequence":4294967295},{"txid":"96e05639e4c767b247ad4d0f21b7775ac650a54d3c518c5f3c4e3b7ea553e35f","vout":0,"scriptSig":{"asm":"3044022079f5c38b7ef9944aa9b7e3e8b1a7de73cd994e2bf20ad548267d56a59918c3990220158570f0fc0c5257c9c38a11baf19da0baed77f030f3e15ae020b0e58b11929701 02910c660acd6f5a2031b0fc39c5b41fdf8ec69ecf9cf445eb6a7506ca08923fa1","hex":"473044022079f5c38b7ef9944aa9b7e3e8b1a7de73cd994e2bf20ad548267d56a59918c3990220158570f0fc0c5257c9c38a11baf19da0baed77f030f3e15ae020b0e58b119297012102910c660acd6f5a2031b0fc39c5b41fdf8ec69ecf9cf445eb6a7506ca08923fa1"},"sequence":4294967295},{"txid":"f0eb036a082b7977400008511d61908ee3b697e14a86a316287a193d71b12595","vout":1,"scriptSig":{"asm":"3045022100f70e0d7a6b65450647533241e9996d7530fcf2617b19329cf929956e7b35f2b302201ae10845e605536e5a56d18d8d096085201e7cc2963117737ba23201e847a76d01 0390b3e06fe3fcab7ba78dbb055ce66159b1ff1bfc442bbe4ce9468db818e159c1","hex":"483045022100f70e0d7a6b65450647533241e9996d7530fcf2617b19329cf929956e7b35f2b302201ae10845e605536e5a56d18d8d096085201e7cc2963117737ba23201e847a76d01210390b3e06fe3fcab7ba78dbb055ce66159b1ff1bfc442bbe4ce9468db818e159c1"},"sequence":4294967295}],"vout":[{"value":0.01009814,"n":0,"scriptPubKey":{"asm":"OP_DUP OP_HASH160 47a82d6becabf010219b05e9aba315d1696c7c9c OP_EQUALVERIFY OP_CHECKSIG","reqSigs":1,"type":"pubkeyhash","addresses":["pC5TeVqjKrcuZEXUQTMATQzNnQBaqJH9U8"]}},{"value":3.7755102,"n":1,"scriptPubKey":{"asm":"OP_DUP OP_HASH160 24cd9f5c33d44b3d80733b7d7c4a203934a117d6 OP_EQUALVERIFY OP_CHECKSIG","reqSigs":1,"type":"pubkeyhash","addresses":["p8uArWiqGbsqTGMg3buiAf4TK3P3pKF3df"]}}],"blockhash":"3462f7892736a37e36b59fd3c3a190807b0a84eb686dd9e3b6f429d09da9a382","confirmations":136,"blocktime":1540997536}