{"hex":"010000007da2c25b010000000000000000000000000000000000000000000000000000000000000000ffffffff0401580101ffffffff0100000000000000001976a914ac5630d3dfcf262b22b7bb7d4747898f359a1b8988ac00000000","txid":"a1e0077f0bd8b648cc1d2e2582a4099fa769e3ee30520fc88c98bbdfb23d9e39","version":1,"time":1539482238,"locktime":0,"vin":[{"coinbase":"01580101","sequence":4294967295}],"vout":[{"value":0,"n":0,"scriptPubKey":{"asm":"OP_DUP OP_HASH160 ac5630d3dfcf262b22b7bb7d4747898f359a1b89 OP_EQUALVERIFY OP_CHECKSIG","reqSigs":1,"type":"pubkeyhash","addresses":["pMFogLXa8UEbLZVur8mUcYiiZCcGWkBYB9"]}}],"blockhash":"00000880d633c1d72d1b66a53e8cabd1a2a08b4e14a7eebcb509640632fd6ca2","confirmations":357,"blocktime":1539482238}