{"hex":"0100000086a2c25b010000000000000000000000000000000000000000000000000000000000000000ffffffff0401590101ffffffff0100000000000000001976a91423446a7cc9d129642d0ba63d930b628e4ff1282188ac00000000","txid":"5c04840f4dda4191b4e4e41580e386be5713cd81f58c9b9dfa74f8df8abfb07e","version":1,"time":1539482246,"locktime":0,"vin":[{"coinbase":"01590101","sequence":4294967295}],"vout":[{"value":0,"n":0,"scriptPubKey":{"asm":"OP_DUP OP_HASH160 23446a7cc9d129642d0ba63d930b628e4ff12821 OP_EQUALVERIFY OP_CHECKSIG","reqSigs":1,"type":"pubkeyhash","addresses":["p8m3p3XJc9aG61G2onFHdAMRMMDXhZU1Lx"]}}],"blockhash":"00000b1608e8648019b00101e8302104affc4501d122842654652684f4c03dfc","confirmations":356,"blocktime":1539482246}