{"hex":"01000000a0f0c45b0139a07eb99ed7d503520bf47e1e90eaebeda6fa98a3960407c9f8acb60ab891340100000049483045022100b612d3abe44e883dfdeba4b1e6731702d5ae76d9b701e8516b96124b5489723202201ce7e4045efeda5446821ac632eca748843e7fcb09dc1ffdb2d280b3f323661601ffffffff04000000000000000000c03328a40300000023210348b24f77eda58d2bf0bd56f764cfdeb0100d2f1058b2d5318f2f2fc9670e730eac563428a40300000023210348b24f77eda58d2bf0bd56f764cfdeb0100d2f1058b2d5318f2f2fc9670e730eac52030000000000001976a9144c86b0b2edcbbfcf0d0112bbb160a541568205b788ac00000000","txid":"098099d8f106b25394b84c32ec6212215056498b769a2825d2ed6d50b927bd2a","version":1,"time":1539633312,"locktime":0,"vin":[{"txid":"3491b80ab6acf8c9070496a398faa6edebea901e7ef40b5203d5d79eb97ea039","vout":1,"scriptSig":{"asm":"3045022100b612d3abe44e883dfdeba4b1e6731702d5ae76d9b701e8516b96124b5489723202201ce7e4045efeda5446821ac632eca748843e7fcb09dc1ffdb2d280b3f323661601","hex":"483045022100b612d3abe44e883dfdeba4b1e6731702d5ae76d9b701e8516b96124b5489723202201ce7e4045efeda5446821ac632eca748843e7fcb09dc1ffdb2d280b3f323661601"},"sequence":4294967295}],"vout":[{"value":0,"n":0,"scriptPubKey":{"asm":"","type":"nonstandard"}},{"value":156.39,"n":1,"scriptPubKey":{"asm":"0348b24f77eda58d2bf0bd56f764cfdeb0100d2f1058b2d5318f2f2fc9670e730e OP_CHECKSIG","reqSigs":1,"type":"pubkey","addresses":["p8X7huKtvdnnDzc17Xcxxh1Z9ww8ckxvVJ"]}},{"value":156.3900015,"n":2,"scriptPubKey":{"asm":"0348b24f77eda58d2bf0bd56f764cfdeb0100d2f1058b2d5318f2f2fc9670e730e OP_CHECKSIG","reqSigs":1,"type":"pubkey","addresses":["p8X7huKtvdnnDzc17Xcxxh1Z9ww8ckxvVJ"]}},{"value":0.0000085,"n":3,"scriptPubKey":{"asm":"OP_DUP OP_HASH160 4c86b0b2edcbbfcf0d0112bbb160a541568205b7 OP_EQUALVERIFY OP_CHECKSIG","reqSigs":1,"type":"pubkeyhash","addresses":["pCXCuj4F9uaYHMue5Nqy3XLKdLz4U9gRoi"]}}],"blockhash":"5b25b5a15de6890883dc18cddc6be857a3f446696cc01df2373cd7f7d3e00e7f","confirmations":18,"blocktime":1539633312}