{"hex":"0100000096f0c45b01e6fdc30fbd9360e467fe64a06b98cbc747a4ef8381a7a9a390268be5d93ed44a000000006a47304402207cd981934b8395199556932cb6ae0747b1215bee49b8dc8168ad3af62fd088a602204581a15ddfc758e3872d88b7ff751ffe702c1fdd11a17039c0baf20b0f339e4e01210370bd2d87004d8464e588f0620466b10fb32f15cf50be8ffe884f530914f37216ffffffff02300a7a00000000001976a9144284393b657923585af057a58b6c3628ef45d28d88ac40420f00000000001976a91425f6952ab7e6a1bead71487afb3a101fdf9a3b4e88ac00000000","txid":"f8037e18d2724f1a14581e9f83a04e13145b3bb6fda56d94e98dabee6523a736","version":1,"time":1539633312,"locktime":0,"vin":[{"txid":"4ad43ed9e58b2690a3a9a78183efa447c7cb986ba064fe67e46093bd0fc3fde6","vout":0,"scriptSig":{"asm":"304402207cd981934b8395199556932cb6ae0747b1215bee49b8dc8168ad3af62fd088a602204581a15ddfc758e3872d88b7ff751ffe702c1fdd11a17039c0baf20b0f339e4e01 0370bd2d87004d8464e588f0620466b10fb32f15cf50be8ffe884f530914f37216","hex":"47304402207cd981934b8395199556932cb6ae0747b1215bee49b8dc8168ad3af62fd088a602204581a15ddfc758e3872d88b7ff751ffe702c1fdd11a17039c0baf20b0f339e4e01210370bd2d87004d8464e588f0620466b10fb32f15cf50be8ffe884f530914f37216"},"sequence":4294967295}],"vout":[{"value":0.07998,"n":0,"scriptPubKey":{"asm":"OP_DUP OP_HASH160 4284393b657923585af057a58b6c3628ef45d28d OP_EQUALVERIFY OP_CHECKSIG","reqSigs":1,"type":"pubkeyhash","addresses":["pBcHCRLx7yXnzGL4fMenSsbdLJukVpdThn"]}},{"value":0.01,"n":1,"scriptPubKey":{"asm":"OP_DUP OP_HASH160 25f6952ab7e6a1bead71487afb3a101fdf9a3b4e OP_EQUALVERIFY OP_CHECKSIG","reqSigs":1,"type":"pubkeyhash","addresses":["p91JbfivSeiuKo6732hysiGfwTbopsYV1S"]}}],"blockhash":"5b25b5a15de6890883dc18cddc6be857a3f446696cc01df2373cd7f7d3e00e7f","confirmations":18,"blocktime":1539633312}