{"hex":"0100000050ced65b011b9e9c0158fbc5fe3780dc093d9a4eb6652d132ab2a4be64371603510664c13e020000004847304402201c9567e96383fd02cdea545357e125f683194a92026782458b2c5a19d036e7f002200f1d388b064f19725f5dbb33b0b89115570766982260b3a3d06144322c559b0f01ffffffff0300000000000000000004ecb0d1010000002321020b1cd26fc4b9f080aea1cf7b667efd5e8453f70429056589831fa7f63506ddbfaca8030000000000001976a91494663191b35c746d9b53200027af769cfd8a5ec588ac00000000","txid":"2bd4fb1f5d60e89ac756afa0f9fad12ca2a41261891c5ddd1d5b3f4783b6cecf","version":1,"time":1540804176,"locktime":0,"vin":[{"txid":"3ec164065103163764bea4b22a132d65b64e9a3d09dc8037fec5fb58019c9e1b","vout":2,"scriptSig":{"asm":"304402201c9567e96383fd02cdea545357e125f683194a92026782458b2c5a19d036e7f002200f1d388b064f19725f5dbb33b0b89115570766982260b3a3d06144322c559b0f01","hex":"47304402201c9567e96383fd02cdea545357e125f683194a92026782458b2c5a19d036e7f002200f1d388b064f19725f5dbb33b0b89115570766982260b3a3d06144322c559b0f01"},"sequence":4294967295}],"vout":[{"value":0,"n":0,"scriptPubKey":{"asm":"","type":"nonstandard"}},{"value":78.13000196,"n":1,"scriptPubKey":{"asm":"020b1cd26fc4b9f080aea1cf7b667efd5e8453f70429056589831fa7f63506ddbf OP_CHECKSIG","reqSigs":1,"type":"pubkey","addresses":["pECTDpfW4nW8hYte3f3F9ZQxwgWmBwmcYL"]}},{"value":0.00000936,"n":2,"scriptPubKey":{"asm":"OP_DUP OP_HASH160 94663191b35c746d9b53200027af769cfd8a5ec5 OP_EQUALVERIFY OP_CHECKSIG","reqSigs":1,"type":"pubkeyhash","addresses":["pK5Eddk3vr4yi7hrwuoQfuFmrHAeSuez22"]}}],"blockhash":"97f335ccbff1ff45dc7a32f365b5efca64d8d10c8993b2b5f02ecfbe47be5c81","confirmations":210,"blocktime":1540804176}