{"hex":"0100000042ced65b021c5c8e89e6893d1005382646d0d683e920fbf5a8acba5f3e1c86e758664c4de2000000006b483045022100e03160ff1121d17b8b3aa7a1536113ae7524995d884882fda01dafe7e077b79c022017114c3c3b32bf2d6d83dcdea94c8d446a2300da65e6fa0043df4c4b1b5fa8440121029e857134122939a57279b02312e296a02bcf0cf876ddc541bd372450215dbeacffffffff1c5c8e89e6893d1005382646d0d683e920fbf5a8acba5f3e1c86e758664c4de2010000006b483045022100c7f44a62377a8a50a5a7278b70751e295afef9b694f1642e12bbbc1d8f563fb202201b781bccca0ff75a3b47ded63ae931db75ea7a9c4f92758b9b5622b70519f6bb01210337c75ecf9e28c4cb8b86926d60d2fc7bcd59ccc75987fd61d04a4e8e356431e1ffffffff0211261200000000001976a9144c28ee798243702bc4500cdb4da9004130bb47f688ac7fd11000000000001976a9142ef50090522baa1937c24c66f841d0d771eea4ac88ac00000000","txid":"b86725961defde4e212f24766f547c7d74918b0c956249305de61b75ce214b5a","version":1,"time":1540804176,"locktime":0,"vin":[{"txid":"e24d4c6658e7861c3e5fbaaca8f5fb20e983d6d046263805103d89e6898e5c1c","vout":0,"scriptSig":{"asm":"3045022100e03160ff1121d17b8b3aa7a1536113ae7524995d884882fda01dafe7e077b79c022017114c3c3b32bf2d6d83dcdea94c8d446a2300da65e6fa0043df4c4b1b5fa84401 029e857134122939a57279b02312e296a02bcf0cf876ddc541bd372450215dbeac","hex":"483045022100e03160ff1121d17b8b3aa7a1536113ae7524995d884882fda01dafe7e077b79c022017114c3c3b32bf2d6d83dcdea94c8d446a2300da65e6fa0043df4c4b1b5fa8440121029e857134122939a57279b02312e296a02bcf0cf876ddc541bd372450215dbeac"},"sequence":4294967295},{"txid":"e24d4c6658e7861c3e5fbaaca8f5fb20e983d6d046263805103d89e6898e5c1c","vout":1,"scriptSig":{"asm":"3045022100c7f44a62377a8a50a5a7278b70751e295afef9b694f1642e12bbbc1d8f563fb202201b781bccca0ff75a3b47ded63ae931db75ea7a9c4f92758b9b5622b70519f6bb01 0337c75ecf9e28c4cb8b86926d60d2fc7bcd59ccc75987fd61d04a4e8e356431e1","hex":"483045022100c7f44a62377a8a50a5a7278b70751e295afef9b694f1642e12bbbc1d8f563fb202201b781bccca0ff75a3b47ded63ae931db75ea7a9c4f92758b9b5622b70519f6bb01210337c75ecf9e28c4cb8b86926d60d2fc7bcd59ccc75987fd61d04a4e8e356431e1"},"sequence":4294967295}],"vout":[{"value":0.01189393,"n":0,"scriptPubKey":{"asm":"OP_DUP OP_HASH160 4c28ee798243702bc4500cdb4da9004130bb47f6 OP_EQUALVERIFY OP_CHECKSIG","reqSigs":1,"type":"pubkeyhash","addresses":["pCVGbFvFLapGyskXvwfxG2ss21bRU9FqUh"]}},{"value":0.01102207,"n":1,"scriptPubKey":{"asm":"OP_DUP OP_HASH160 2ef50090522baa1937c24c66f841d0d771eea4ac OP_EQUALVERIFY OP_CHECKSIG","reqSigs":1,"type":"pubkeyhash","addresses":["p9prnafMtsUS9LzSS4Dr93GU3nR8p8GTty"]}}],"blockhash":"97f335ccbff1ff45dc7a32f365b5efca64d8d10c8993b2b5f02ecfbe47be5c81","confirmations":210,"blocktime":1540804176}