{"hex":"01000000de33db5b01cd62d18073bdba22daaf1338dd5a5541923c8fd3044fa29478c64cfb66464d12000000006b483045022100bc011fe6cf380a4d8598507addc97b559ee8e787e5bf2bc65aba72aad0b2d436022074d65871c10d4a33c2eb93bcd2ebad67c3a263df2a7a9a1d04b27cf42e25c84a012102834b52845820def783f0e9a3a457dcecf71e7d2cd7b92dcc32a53e09da4a74d6ffffffff0294c38a08000000001976a914826ad63b7060cd4e7c11359350dadbd34b96c8d888acb3425205000000001976a914b1f9491df93f00c0a2b43d69df69e5aa1b964b4988ac00000000","txid":"82a8b4910da5dbaec28327ebcf1d1473664ee8a34feea6605876b069071950d2","version":1,"time":1541092320,"locktime":0,"vin":[{"txid":"124d4666fb4cc67894a24f04d38f3c9241555add3813afda22babd7380d162cd","vout":0,"scriptSig":{"asm":"3045022100bc011fe6cf380a4d8598507addc97b559ee8e787e5bf2bc65aba72aad0b2d436022074d65871c10d4a33c2eb93bcd2ebad67c3a263df2a7a9a1d04b27cf42e25c84a01 02834b52845820def783f0e9a3a457dcecf71e7d2cd7b92dcc32a53e09da4a74d6","hex":"483045022100bc011fe6cf380a4d8598507addc97b559ee8e787e5bf2bc65aba72aad0b2d436022074d65871c10d4a33c2eb93bcd2ebad67c3a263df2a7a9a1d04b27cf42e25c84a012102834b52845820def783f0e9a3a457dcecf71e7d2cd7b92dcc32a53e09da4a74d6"},"sequence":4294967295}],"vout":[{"value":1.43311764,"n":0,"scriptPubKey":{"asm":"OP_DUP OP_HASH160 826ad63b7060cd4e7c11359350dadbd34b96c8d8 OP_EQUALVERIFY OP_CHECKSIG","reqSigs":1,"type":"pubkeyhash","addresses":["pHSA2oDM739qzpp4EnHzZcA8VDvXBBS1cm"]}},{"value":0.89277107,"n":1,"scriptPubKey":{"asm":"OP_DUP OP_HASH160 b1f9491df93f00c0a2b43d69df69e5aa1b964b49 OP_EQUALVERIFY OP_CHECKSIG","reqSigs":1,"type":"pubkeyhash","addresses":["pMmcSKxMLCgwKYTzisQtGv4jkwbpzwAwjZ"]}}],"blockhash":"f540ac5648c1b593a190085ba1f428b2c9002772992ded5814b7be78a87fe5b1","confirmations":91,"blocktime":1541092320}