{"hex":"01000000e033db5b0131c180abbd08ac682b82d808302544807ce4e0d28ac6c46170b893d88504a876020000004847304402200b1dacdcd8532f34677fcae17628d942128766486b10a61c51ad6f04bc915ef202202319f28329f76d4262347be18d78e0fdd1f085e7620cf3fcd40d990719c1aa3701ffffffff03000000000000000000285ab1d1010000002321020b1cd26fc4b9f080aea1cf7b667efd5e8453f70429056589831fa7f63506ddbfac6d280100000000001976a914b281632e032cac99462bf7779521442a307c52a088ac00000000","txid":"be2529f57f04062d308ac835f2a591fbf57bc60d4ef4371692975e7eb33f3dcb","version":1,"time":1541092320,"locktime":0,"vin":[{"txid":"76a80485d893b87061c4c68ad2e0e47c8044253008d8822b68ac08bdab80c131","vout":2,"scriptSig":{"asm":"304402200b1dacdcd8532f34677fcae17628d942128766486b10a61c51ad6f04bc915ef202202319f28329f76d4262347be18d78e0fdd1f085e7620cf3fcd40d990719c1aa3701","hex":"47304402200b1dacdcd8532f34677fcae17628d942128766486b10a61c51ad6f04bc915ef202202319f28329f76d4262347be18d78e0fdd1f085e7620cf3fcd40d990719c1aa3701"},"sequence":4294967295}],"vout":[{"value":0,"n":0,"scriptPubKey":{"asm":"","type":"nonstandard"}},{"value":78.13028392,"n":1,"scriptPubKey":{"asm":"020b1cd26fc4b9f080aea1cf7b667efd5e8453f70429056589831fa7f63506ddbf OP_CHECKSIG","reqSigs":1,"type":"pubkey","addresses":["pECTDpfW4nW8hYte3f3F9ZQxwgWmBwmcYL"]}},{"value":0.00075885,"n":2,"scriptPubKey":{"asm":"OP_DUP OP_HASH160 b281632e032cac99462bf7779521442a307c52a0 OP_EQUALVERIFY OP_CHECKSIG","reqSigs":1,"type":"pubkeyhash","addresses":["pMpRUr5SqF4SLREGfNjMyHwaGCi3EHeLR1"]}}],"blockhash":"f540ac5648c1b593a190085ba1f428b2c9002772992ded5814b7be78a87fe5b1","confirmations":91,"blocktime":1541092320}