{"hex":"0100000010a7c25b013ea85e5a8097d2383cf20b64e9e39dd9fb2bee57f8e930e9e3126290459722e70100000049483045022100e36ad95810dd17eaef6ae5dfcdf90e6975cd36bded01056c94c404c3363ff6e002203a546f9623b4458092285ef4b827051ef1e5931bc1b448f09a0858f28db1ba9101ffffffff0300000000000000000080cb783100000000232102f3989f15f82309adefe5e4f6bf746db84b8df805e22eecc7bd374f31e8daa38aac80fe210a000000001976a91400eadc74da710bda77ce2fa5b8d39eabf1783dfa88ac00000000","txid":"024becb49e3bbabd614b5a2e762732d5d96d43d615ad6a90b0aa4f481945d478","version":1,"time":1539483408,"locktime":0,"vin":[{"txid":"e7229745906212e3e930e9f857ee2bfbd99de3e9640bf23c38d297805a5ea83e","vout":1,"scriptSig":{"asm":"3045022100e36ad95810dd17eaef6ae5dfcdf90e6975cd36bded01056c94c404c3363ff6e002203a546f9623b4458092285ef4b827051ef1e5931bc1b448f09a0858f28db1ba9101","hex":"483045022100e36ad95810dd17eaef6ae5dfcdf90e6975cd36bded01056c94c404c3363ff6e002203a546f9623b4458092285ef4b827051ef1e5931bc1b448f09a0858f28db1ba9101"},"sequence":4294967295}],"vout":[{"value":0,"n":0,"scriptPubKey":{"asm":"","type":"nonstandard"}},{"value":8.3,"n":1,"scriptPubKey":{"asm":"02f3989f15f82309adefe5e4f6bf746db84b8df805e22eecc7bd374f31e8daa38a OP_CHECKSIG","reqSigs":1,"type":"pubkey","addresses":["pS6kv8sUdNg7tBDNfNMnPMqsD2dQR4HfTQ"]}},{"value":1.7,"n":2,"scriptPubKey":{"asm":"OP_DUP OP_HASH160 00eadc74da710bda77ce2fa5b8d39eabf1783dfa OP_EQUALVERIFY OP_CHECKSIG","reqSigs":1,"type":"pubkeyhash","addresses":["p5dRZ9MeyiKDma1pAUrsmvEK4NBmmdC4ZN"]}}],"blockhash":"d6e5888bdf3b8d95133532690461fbebf511e679cd79d1ce8f85bef8a0035e88","confirmations":47,"blocktime":1539483408}