{"hex":"0100000000a7c25b01bd095995dca309b2cd4376e7456321c3d7aa51439ee2f38fce6ca5cf47c0d4be000000006a47304402205d204fb777a88446bf992fcacbb0df78ba16bc004f89b750780aa78a1179422c022016ae5eb537231f9a9f7a8339e4ea4fe67aa5a673682a6c3dad7650ab02970046012103a0a14dceaa90ccd30464b8b51d7e2bae631cb04c01f7d7dfd24721f1c8f90674ffffffff0200aa1a821f8023001976a91430835288d813c4eaf47a0c50d0c5fe795e98234988ac0088526a740000001976a9144c28ee798243702bc4500cdb4da9004130bb47f688ac00000000","txid":"4c79487b2782b3521d6583344232f3f1b5a99c1fc044f13c0716d87b21709d74","version":1,"time":1539483408,"locktime":0,"vin":[{"txid":"bed4c047cfa56cce8ff3e29e4351aad7c3216345e77643cdb209a3dc955909bd","vout":0,"scriptSig":{"asm":"304402205d204fb777a88446bf992fcacbb0df78ba16bc004f89b750780aa78a1179422c022016ae5eb537231f9a9f7a8339e4ea4fe67aa5a673682a6c3dad7650ab0297004601 03a0a14dceaa90ccd30464b8b51d7e2bae631cb04c01f7d7dfd24721f1c8f90674","hex":"47304402205d204fb777a88446bf992fcacbb0df78ba16bc004f89b750780aa78a1179422c022016ae5eb537231f9a9f7a8339e4ea4fe67aa5a673682a6c3dad7650ab02970046012103a0a14dceaa90ccd30464b8b51d7e2bae631cb04c01f7d7dfd24721f1c8f90674"},"sequence":4294967295}],"vout":[{"value":99924970,"n":0,"scriptPubKey":{"asm":"OP_DUP OP_HASH160 30835288d813c4eaf47a0c50d0c5fe795e982349 OP_EQUALVERIFY OP_CHECKSIG","reqSigs":1,"type":"pubkeyhash","addresses":["p9y5xMUJT1sedwQzGiqykutysvAnDutaLs"]}},{"value":5000,"n":1,"scriptPubKey":{"asm":"OP_DUP OP_HASH160 4c28ee798243702bc4500cdb4da9004130bb47f6 OP_EQUALVERIFY OP_CHECKSIG","reqSigs":1,"type":"pubkeyhash","addresses":["pCVGbFvFLapGyskXvwfxG2ss21bRU9FqUh"]}}],"blockhash":"d6e5888bdf3b8d95133532690461fbebf511e679cd79d1ce8f85bef8a0035e88","confirmations":333,"blocktime":1539483408}