{"hex":"01000000a08ddc5b0128de3dbef5711d9b486168c5999b46743851ebd433c5f5322b891a0d6edcd77c0100000048473044022058a7e3fec7af55e8d88d3718c86c977fd8098dc2e6fa4bfc4cb8e5d10d1e309c0220087da56a206c53b46548aa65572d7c31cd168432446218fcd98ed8c5a2b9096a01ffffffff030000000000000000004661370a000000002321022b01163a24c36970e0de72765d03cbe1bc061255204b7edd50710f2a6f4cabc5ac2f054500000000001976a914b281632e032cac99462bf7779521442a307c52a088ac00000000","txid":"577116d710fd7a8882e5a2ded1d91ceb1bbf080bcdae74fa16dbc4716fa733a9","version":1,"time":1541180832,"locktime":0,"vin":[{"txid":"7cd7dc6e0d1a892b32f5c533d4eb513874469b99c56861489b1d71f5be3dde28","vout":1,"scriptSig":{"asm":"3044022058a7e3fec7af55e8d88d3718c86c977fd8098dc2e6fa4bfc4cb8e5d10d1e309c0220087da56a206c53b46548aa65572d7c31cd168432446218fcd98ed8c5a2b9096a01","hex":"473044022058a7e3fec7af55e8d88d3718c86c977fd8098dc2e6fa4bfc4cb8e5d10d1e309c0220087da56a206c53b46548aa65572d7c31cd168432446218fcd98ed8c5a2b9096a01"},"sequence":4294967295}],"vout":[{"value":0,"n":0,"scriptPubKey":{"asm":"","type":"nonstandard"}},{"value":1.71401542,"n":1,"scriptPubKey":{"asm":"022b01163a24c36970e0de72765d03cbe1bc061255204b7edd50710f2a6f4cabc5 OP_CHECKSIG","reqSigs":1,"type":"pubkey","addresses":["pKBPoNA3SJPY8i2H3PXAafpEbMr7NNikgL"]}},{"value":0.04523311,"n":2,"scriptPubKey":{"asm":"OP_DUP OP_HASH160 b281632e032cac99462bf7779521442a307c52a0 OP_EQUALVERIFY OP_CHECKSIG","reqSigs":1,"type":"pubkeyhash","addresses":["pMpRUr5SqF4SLREGfNjMyHwaGCi3EHeLR1"]}}],"blockhash":"671198ee40de27b4adaca9c6b47e38eb344cef579f3f4f9def14f69f515ca8be","confirmations":62,"blocktime":1541180832}