{"hex":"01000000928ddc5b07fe6a9d401913953fade6a763e929802001e3fc61c1def3bcace1d79a54273ab3000000006a47304402200e9057e9a0e41de18162e90c8bc77d0f3528c95397c4450e315400718cb0cd470220086ba0c3602e1bd8d13073d42f81aaf3aafc03613260b32d73b614ba30b22d0d012102423e36c24c0132fdaba6cb64521547477c4e48b3a29a55ce80f07bdd213e5a13fffffffffe6a9d401913953fade6a763e929802001e3fc61c1def3bcace1d79a54273ab3010000006a47304402205bcaeb34faab6defd895f4ad142eac2dae57ce61bd865e18a8b5d2fd69205af8022049034c5b85fe399a8b1f8ac9cf961493549b13c2bfb017cf0cf6ec2661b3d6b7012102d7a978f15372acba1f45778bb0b619393f7ebe327756527210fb450550f13ca6ffffffffe3aba66237261857b9b8e0c499a1dfd43c659862c255cba77b5f75c1dcf0da20010000006a47304402204faf11b08e9739f5f480149bdd0f1c351b7ccb8715a43c6b3289f2ff44c6eccd02202468e87dc0cfe27727079d3ccd14b95ce9d73b8db9038d41ae8777c34a0ce80501210328e2c32955014b6e278b8da55fe91ebec81c616f8c32f41353c2b7e77d71f9a0ffffffff88a567e31b431e0585fe22b94c52f1b0c0f78635c4266238f28c2b261d8aeca1010000006b483045022100d90ab39103c0a638c66ab09fc447d7e1e677fa127885573427ce2b5d8fbb28a20220160a3c2cfed749e0d8baff4bc511f125eecd409ea0d21210e579110d49f5ec130121036aa1c0f1bcc39ada7f340c48095d96464f5b4d1d3161d88b28045a7755478f99ffffffffba9e04dd56596483ea09922ad9f7330419127ef1e1d4574a1d245a6e847756cd000000006b483045022100f969f5424a21f552b067257e006f9676f9f804927577f6459d9361547e951b5d022020b67170cdfbc7778b41045a5c6060cf2f8d7265cd67973963a4d99fb718e5d2012103b9dc03adbf92e94ec9b157a977a42a7f9798a2faa2d7f447a4e3cce8037dd92affffffff8f78ea98a88f3038d6a5aa11bb066dcb67e9468977be6d06e62c963665475e4d000000006a4730440220319f7e20cd8dcc172aed433440eaaeaf163144ae833a6f21974ad95a753f571e022002fdefc2a2fad2aae1620fa2f8e2315204665d1b17bf39a7b9ba5689b40d1ef801210295f8383a2b65e1fb8bf053fed338ff0ae739bc3b9d6705819a23990e23b2ae7effffffff90dd79236f4692747bc6d86b2047dbcf7f9a77feb786110bf167eaba40bdd83b000000006a47304402204488a6becfc891240a5158ee00073b3bd3e470a9e701d30f4f12e4977fc5cf5d02205154f0a25e05b4e9aa83a54dccce53b1b40f84ecd52074818fad741139a38a4c012103eb65153ac064ec98eddc209577759f96fb350e20f3760e564ed302a3e2d32010ffffffff0263651200000000001976a914c8f867c727fde0be21c67ec39fbcca17029877d888aced50303d010000001976a914129858a4a5ef19af0906328c7bbe8cda14c8338c88ac00000000","txid":"f3161fe9dc67d2dab1fddefa2bfb99b2c5d8bf6298056e6d7d09b769e2afc361","version":1,"time":1541180832,"locktime":0,"vin":[{"txid":"b33a27549ad7e1acbcf3dec161fce301208029e963a7e6ad3f951319409d6afe","vout":0,"scriptSig":{"asm":"304402200e9057e9a0e41de18162e90c8bc77d0f3528c95397c4450e315400718cb0cd470220086ba0c3602e1bd8d13073d42f81aaf3aafc03613260b32d73b614ba30b22d0d01 02423e36c24c0132fdaba6cb64521547477c4e48b3a29a55ce80f07bdd213e5a13","hex":"47304402200e9057e9a0e41de18162e90c8bc77d0f3528c95397c4450e315400718cb0cd470220086ba0c3602e1bd8d13073d42f81aaf3aafc03613260b32d73b614ba30b22d0d012102423e36c24c0132fdaba6cb64521547477c4e48b3a29a55ce80f07bdd213e5a13"},"sequence":4294967295},{"txid":"b33a27549ad7e1acbcf3dec161fce301208029e963a7e6ad3f951319409d6afe","vout":1,"scriptSig":{"asm":"304402205bcaeb34faab6defd895f4ad142eac2dae57ce61bd865e18a8b5d2fd69205af8022049034c5b85fe399a8b1f8ac9cf961493549b13c2bfb017cf0cf6ec2661b3d6b701 02d7a978f15372acba1f45778bb0b619393f7ebe327756527210fb450550f13ca6","hex":"47304402205bcaeb34faab6defd895f4ad142eac2dae57ce61bd865e18a8b5d2fd69205af8022049034c5b85fe399a8b1f8ac9cf961493549b13c2bfb017cf0cf6ec2661b3d6b7012102d7a978f15372acba1f45778bb0b619393f7ebe327756527210fb450550f13ca6"},"sequence":4294967295},{"txid":"20daf0dcc1755f7ba7cb55c26298653cd4dfa199c4e0b8b95718263762a6abe3","vout":1,"scriptSig":{"asm":"304402204faf11b08e9739f5f480149bdd0f1c351b7ccb8715a43c6b3289f2ff44c6eccd02202468e87dc0cfe27727079d3ccd14b95ce9d73b8db9038d41ae8777c34a0ce80501 0328e2c32955014b6e278b8da55fe91ebec81c616f8c32f41353c2b7e77d71f9a0","hex":"47304402204faf11b08e9739f5f480149bdd0f1c351b7ccb8715a43c6b3289f2ff44c6eccd02202468e87dc0cfe27727079d3ccd14b95ce9d73b8db9038d41ae8777c34a0ce80501210328e2c32955014b6e278b8da55fe91ebec81c616f8c32f41353c2b7e77d71f9a0"},"sequence":4294967295},{"txid":"a1ec8a1d262b8cf2386226c43586f7c0b0f1524cb922fe85051e431be367a588","vout":1,"scriptSig":{"asm":"3045022100d90ab39103c0a638c66ab09fc447d7e1e677fa127885573427ce2b5d8fbb28a20220160a3c2cfed749e0d8baff4bc511f125eecd409ea0d21210e579110d49f5ec1301 036aa1c0f1bcc39ada7f340c48095d96464f5b4d1d3161d88b28045a7755478f99","hex":"483045022100d90ab39103c0a638c66ab09fc447d7e1e677fa127885573427ce2b5d8fbb28a20220160a3c2cfed749e0d8baff4bc511f125eecd409ea0d21210e579110d49f5ec130121036aa1c0f1bcc39ada7f340c48095d96464f5b4d1d3161d88b28045a7755478f99"},"sequence":4294967295},{"txid":"cd5677846e5a241d4a57d4e1f17e12190433f7d92a9209ea83645956dd049eba","vout":0,"scriptSig":{"asm":"3045022100f969f5424a21f552b067257e006f9676f9f804927577f6459d9361547e951b5d022020b67170cdfbc7778b41045a5c6060cf2f8d7265cd67973963a4d99fb718e5d201 03b9dc03adbf92e94ec9b157a977a42a7f9798a2faa2d7f447a4e3cce8037dd92a","hex":"483045022100f969f5424a21f552b067257e006f9676f9f804927577f6459d9361547e951b5d022020b67170cdfbc7778b41045a5c6060cf2f8d7265cd67973963a4d99fb718e5d2012103b9dc03adbf92e94ec9b157a977a42a7f9798a2faa2d7f447a4e3cce8037dd92a"},"sequence":4294967295},{"txid":"4d5e476536962ce6066dbe778946e967cb6d06bb11aaa5d638308fa898ea788f","vout":0,"scriptSig":{"asm":"30440220319f7e20cd8dcc172aed433440eaaeaf163144ae833a6f21974ad95a753f571e022002fdefc2a2fad2aae1620fa2f8e2315204665d1b17bf39a7b9ba5689b40d1ef801 0295f8383a2b65e1fb8bf053fed338ff0ae739bc3b9d6705819a23990e23b2ae7e","hex":"4730440220319f7e20cd8dcc172aed433440eaaeaf163144ae833a6f21974ad95a753f571e022002fdefc2a2fad2aae1620fa2f8e2315204665d1b17bf39a7b9ba5689b40d1ef801210295f8383a2b65e1fb8bf053fed338ff0ae739bc3b9d6705819a23990e23b2ae7e"},"sequence":4294967295},{"txid":"3bd8bd40baea67f10b1186b7fe779a7fcfdb47206bd8c67b7492466f2379dd90","vout":0,"scriptSig":{"asm":"304402204488a6becfc891240a5158ee00073b3bd3e470a9e701d30f4f12e4977fc5cf5d02205154f0a25e05b4e9aa83a54dccce53b1b40f84ecd52074818fad741139a38a4c01 03eb65153ac064ec98eddc209577759f96fb350e20f3760e564ed302a3e2d32010","hex":"47304402204488a6becfc891240a5158ee00073b3bd3e470a9e701d30f4f12e4977fc5cf5d02205154f0a25e05b4e9aa83a54dccce53b1b40f84ecd52074818fad741139a38a4c012103eb65153ac064ec98eddc209577759f96fb350e20f3760e564ed302a3e2d32010"},"sequence":4294967295}],"vout":[{"value":0.01205603,"n":0,"scriptPubKey":{"asm":"OP_DUP OP_HASH160 c8f867c727fde0be21c67ec39fbcca17029877d8 OP_EQUALVERIFY OP_CHECKSIG","reqSigs":1,"type":"pubkeyhash","addresses":["pPsCvac2YHeqo24rrLfZSCsnjaestgTW1B"]}},{"value":53.21543917,"n":1,"scriptPubKey":{"asm":"OP_DUP OP_HASH160 129858a4a5ef19af0906328c7bbe8cda14c8338c OP_EQUALVERIFY OP_CHECKSIG","reqSigs":1,"type":"pubkeyhash","addresses":["p7EtsMyGbns95RxXg7KFTTgTXxrUZSwuvs"]}}],"blockhash":"671198ee40de27b4adaca9c6b47e38eb344cef579f3f4f9def14f69f515ca8be","confirmations":62,"blocktime":1541180832}