{"hex":"01000000f0c2d65b0175ea5dec4b00568d8d3ef38484e7aca6b3b7c725ee6506e1919e1a14c36a589f000000006b483045022100f2adeb983664f43b9da83b4b987c4254558609155070fb96eaeb385855f38b1c0220511c04f66c489654c056e00a39418c0ed47f916a6473029d57db80f4efbd78010121032cccd4ce6c7193af67b8e465066011392ed01881c555997e14f83f14cdccd287ffffffff03000000000000000000e0e8b107000000002321032cccd4ce6c7193af67b8e465066011392ed01881c555997e14f83f14cdccd287ac80fe210a000000001976a9147a58c93fa5e34c0e7c16492ee8061977495aac7c88ac00000000","txid":"32728ea753972b9b38aa3fdf9d630e788d0c3786cefa2f6648cc1e06364ad575","version":1,"time":1540801264,"locktime":0,"vin":[{"txid":"9f586ac3141a9e91e10665ee25c7b7b3a6ace78484f33e8d8d56004bec5dea75","vout":0,"scriptSig":{"asm":"3045022100f2adeb983664f43b9da83b4b987c4254558609155070fb96eaeb385855f38b1c0220511c04f66c489654c056e00a39418c0ed47f916a6473029d57db80f4efbd780101 032cccd4ce6c7193af67b8e465066011392ed01881c555997e14f83f14cdccd287","hex":"483045022100f2adeb983664f43b9da83b4b987c4254558609155070fb96eaeb385855f38b1c0220511c04f66c489654c056e00a39418c0ed47f916a6473029d57db80f4efbd78010121032cccd4ce6c7193af67b8e465066011392ed01881c555997e14f83f14cdccd287"},"sequence":4294967295}],"vout":[{"value":0,"n":0,"scriptPubKey":{"asm":"","type":"nonstandard"}},{"value":1.291,"n":1,"scriptPubKey":{"asm":"032cccd4ce6c7193af67b8e465066011392ed01881c555997e14f83f14cdccd287 OP_CHECKSIG","reqSigs":1,"type":"pubkey","addresses":["pJbsZbQMo2gyEtoF26JNF6fP5VSt3bbX2m"]}},{"value":1.7,"n":2,"scriptPubKey":{"asm":"OP_DUP OP_HASH160 7a58c93fa5e34c0e7c16492ee8061977495aac7c OP_EQUALVERIFY OP_CHECKSIG","reqSigs":1,"type":"pubkeyhash","addresses":["pGhV15RkjbtFhS6uHd3xCvPoNUNQoDMiqz"]}}],"blockhash":"20b92dbae821111337d6b4940438c466ca2da965bbab789afaaa1debd6793f6a","confirmations":219,"blocktime":1540801264}