{"hex":"01000000e9c2d65b01a31a3ff48a3ee608f590d5adb0572a117bcefe15aa97ce001f5cb9c6a6f466b0000000006a473044022038595853f526d449ab9cdbcbf9bbd3b1e8cdccb6ed4a1eed296f41bb27b7a41902201fda7a868f6f3b07b9e86975d16b13f86f5462d63a31334e1f0ca54d09df1b89012103e616e0990fb9e67276053de44e8f9e06bb026b43a581a58290137f806b9dfe92ffffffff02c0fe2108761707001976a9147bac3583e723698ef6011c038f02cbd723a6aa8b88ac007c6af4011707001976a914b19311f6bbf8610d652384c00d234acd86f49b7688ac00000000","txid":"f7425d9d620a6ee280a5ff8816d65f542ba5296bc21a6bb03c461a80b8ee5338","version":1,"time":1540801264,"locktime":0,"vin":[{"txid":"b066f4a6c6b95c1f00ce97aa15fece7b112a57b0add590f508e63e8af43f1aa3","vout":0,"scriptSig":{"asm":"3044022038595853f526d449ab9cdbcbf9bbd3b1e8cdccb6ed4a1eed296f41bb27b7a41902201fda7a868f6f3b07b9e86975d16b13f86f5462d63a31334e1f0ca54d09df1b8901 03e616e0990fb9e67276053de44e8f9e06bb026b43a581a58290137f806b9dfe92","hex":"473044022038595853f526d449ab9cdbcbf9bbd3b1e8cdccb6ed4a1eed296f41bb27b7a41902201fda7a868f6f3b07b9e86975d16b13f86f5462d63a31334e1f0ca54d09df1b89012103e616e0990fb9e67276053de44e8f9e06bb026b43a581a58290137f806b9dfe92"},"sequence":4294967295}],"vout":[{"value":19961205.47,"n":0,"scriptPubKey":{"asm":"OP_DUP OP_HASH160 7bac3583e723698ef6011c038f02cbd723a6aa8b OP_EQUALVERIFY OP_CHECKSIG","reqSigs":1,"type":"pubkeyhash","addresses":["pGpVcbTFASWVrBzEaKt4x2xVaqWM666fpf"]}},{"value":19956220,"n":1,"scriptPubKey":{"asm":"OP_DUP OP_HASH160 b19311f6bbf8610d652384c00d234acd86f49b76 OP_EQUALVERIFY OP_CHECKSIG","reqSigs":1,"type":"pubkeyhash","addresses":["pMjVzGrYDm6bSsjacvkedmhB6zYLmU3zVu"]}}],"blockhash":"20b92dbae821111337d6b4940438c466ca2da965bbab789afaaa1debd6793f6a","confirmations":219,"blocktime":1540801264}