{"hex":"010000001212d75b02c8e55bad1bf9338aedda27c9fd4a3bd9cf7f2eadefacf55767a84d0b7a1b2901010000006b483045022100d8b1d53c52f299c8eb1f1d2ed50388780ace18db4756ad99ecb48d826edb861802200f84ad5da4b303e1848feabf4ddba01a01c94843f9a96e2439998b4532f4ac0b0121037ddb8b9ce865762e24d41a4ab0ee2b39331e461d13af985706cde84198dfd494ffffffffda04300d16db52c4df1e4cb3d5654b4b88cfdac5d4152709377674c391f0480d010000006a4730440220506ddc99102c770723323759ea9d79d6c5aad3b68d966b80d3a6f1d11fd4faa10220476fd5c1dd26551d6a4fafec042cabeba1ca304bc073b25af80192b9058f570a012102eceda6c8a7023b54bfb092414cd97b97a7bc3ec21917065609892110ae00fa46ffffffff02da774b00000000001976a9144c28ee798243702bc4500cdb4da9004130bb47f688acfa42eb01000000001976a914ca6917f217a491454c07f2214eb3b2ce60be0d9d88ac00000000","txid":"eb9b7ec5078b2b2fafe9f9ef8d15748bd9ca324d275120840df40349f8d7bcd0","version":1,"time":1540821536,"locktime":0,"vin":[{"txid":"01291b7a0b4da86757f5acefad2e7fcfd93b4afdc927daed8a33f91bad5be5c8","vout":1,"scriptSig":{"asm":"3045022100d8b1d53c52f299c8eb1f1d2ed50388780ace18db4756ad99ecb48d826edb861802200f84ad5da4b303e1848feabf4ddba01a01c94843f9a96e2439998b4532f4ac0b01 037ddb8b9ce865762e24d41a4ab0ee2b39331e461d13af985706cde84198dfd494","hex":"483045022100d8b1d53c52f299c8eb1f1d2ed50388780ace18db4756ad99ecb48d826edb861802200f84ad5da4b303e1848feabf4ddba01a01c94843f9a96e2439998b4532f4ac0b0121037ddb8b9ce865762e24d41a4ab0ee2b39331e461d13af985706cde84198dfd494"},"sequence":4294967295},{"txid":"0d48f091c3747637092715d4c5dacf884b4b65d5b34c1edfc452db160d3004da","vout":1,"scriptSig":{"asm":"30440220506ddc99102c770723323759ea9d79d6c5aad3b68d966b80d3a6f1d11fd4faa10220476fd5c1dd26551d6a4fafec042cabeba1ca304bc073b25af80192b9058f570a01 02eceda6c8a7023b54bfb092414cd97b97a7bc3ec21917065609892110ae00fa46","hex":"4730440220506ddc99102c770723323759ea9d79d6c5aad3b68d966b80d3a6f1d11fd4faa10220476fd5c1dd26551d6a4fafec042cabeba1ca304bc073b25af80192b9058f570a012102eceda6c8a7023b54bfb092414cd97b97a7bc3ec21917065609892110ae00fa46"},"sequence":4294967295}],"vout":[{"value":0.04945882,"n":0,"scriptPubKey":{"asm":"OP_DUP OP_HASH160 4c28ee798243702bc4500cdb4da9004130bb47f6 OP_EQUALVERIFY OP_CHECKSIG","reqSigs":1,"type":"pubkeyhash","addresses":["pCVGbFvFLapGyskXvwfxG2ss21bRU9FqUh"]}},{"value":0.32195322,"n":1,"scriptPubKey":{"asm":"OP_DUP OP_HASH160 ca6917f217a491454c07f2214eb3b2ce60be0d9d OP_EQUALVERIFY OP_CHECKSIG","reqSigs":1,"type":"pubkeyhash","addresses":["pPzpbUvjugxd2xQwJrNqxfjnKEjYrh3RqQ"]}}],"blockhash":"b11fbfe146ac1d1cc3f68a2c5b297d9ba8d3b5e53f8547e5d760f1c310de313c","confirmations":201,"blocktime":1540821536}