{"hex":"010000002012d75b0109cc3ccf4905adefc97e14a57f73f2149358e8786fe0c378eb1d4382400f83190100000049483045022100ac39650e7806fa41f6d867489992c422f512a95d7e7c03d846fcb8c6f4bb55a502203b878e6575452833170975db459bf5b6b8eb1410a2a9392730c3ede7b4443f1001ffffffff0400000000000000000000a9a1d1010000002321020b1cd26fc4b9f080aea1cf7b667efd5e8453f70429056589831fa7f63506ddbfac1efeb0d1010000002321020b1cd26fc4b9f080aea1cf7b667efd5e8453f70429056589831fa7f63506ddbface56a0000000000001976a914239bf4dba7e2193b7f701a7b68d0e94c85d85fac88ac00000000","txid":"e5bb71880ac0ff5d75a69e62e4af627100598ea6a94208fcc41a0047a5c837a1","version":1,"time":1540821536,"locktime":0,"vin":[{"txid":"19830f4082431deb78c3e06f78e8589314f2737fa5147ec9efad0549cf3ccc09","vout":1,"scriptSig":{"asm":"3045022100ac39650e7806fa41f6d867489992c422f512a95d7e7c03d846fcb8c6f4bb55a502203b878e6575452833170975db459bf5b6b8eb1410a2a9392730c3ede7b4443f1001","hex":"483045022100ac39650e7806fa41f6d867489992c422f512a95d7e7c03d846fcb8c6f4bb55a502203b878e6575452833170975db459bf5b6b8eb1410a2a9392730c3ede7b4443f1001"},"sequence":4294967295}],"vout":[{"value":0,"n":0,"scriptPubKey":{"asm":"","type":"nonstandard"}},{"value":78.12,"n":1,"scriptPubKey":{"asm":"020b1cd26fc4b9f080aea1cf7b667efd5e8453f70429056589831fa7f63506ddbf OP_CHECKSIG","reqSigs":1,"type":"pubkey","addresses":["pECTDpfW4nW8hYte3f3F9ZQxwgWmBwmcYL"]}},{"value":78.1300483,"n":2,"scriptPubKey":{"asm":"020b1cd26fc4b9f080aea1cf7b667efd5e8453f70429056589831fa7f63506ddbf OP_CHECKSIG","reqSigs":1,"type":"pubkey","addresses":["pECTDpfW4nW8hYte3f3F9ZQxwgWmBwmcYL"]}},{"value":0.00027365,"n":3,"scriptPubKey":{"asm":"OP_DUP OP_HASH160 239bf4dba7e2193b7f701a7b68d0e94c85d85fac OP_EQUALVERIFY OP_CHECKSIG","reqSigs":1,"type":"pubkeyhash","addresses":["p8nrgTxTfKDC3hvmSmFxDcxpYguUCo8yWb"]}}],"blockhash":"b11fbfe146ac1d1cc3f68a2c5b297d9ba8d3b5e53f8547e5d760f1c310de313c","confirmations":201,"blocktime":1540821536}