{"hex":"01000000d0a7d65b011bbcb6e89048eded1d916d056474ffade978baf56683225c2d572191a21f193e020000004847304402203137e08966357cfbcb51cad778f17f13c3139e4dc138dc03f648108ad4510d590220789cdeab5de8514522f56fe1aa697b1331631d15e17fe1ecf814dee3282f95ee01ffffffff0400000000000000000000a9a1d1010000002321020b1cd26fc4b9f080aea1cf7b667efd5e8453f70429056589831fa7f63506ddbfacf865b1d1010000002321020b1cd26fc4b9f080aea1cf7b667efd5e8453f70429056589831fa7f63506ddbfac10980200000000001976a914f6ea51b1cf22773ff3c68e8299209dc9d69d593f88ac00000000","txid":"5dc362b20253f1759baa1518819215152bb7ebe84bc7bfa4d6ed14dc95004f52","version":1,"time":1540794320,"locktime":0,"vin":[{"txid":"3e191fa29121572d5c228366f5ba78e9adff7464056d911deded4890e8b6bc1b","vout":2,"scriptSig":{"asm":"304402203137e08966357cfbcb51cad778f17f13c3139e4dc138dc03f648108ad4510d590220789cdeab5de8514522f56fe1aa697b1331631d15e17fe1ecf814dee3282f95ee01","hex":"47304402203137e08966357cfbcb51cad778f17f13c3139e4dc138dc03f648108ad4510d590220789cdeab5de8514522f56fe1aa697b1331631d15e17fe1ecf814dee3282f95ee01"},"sequence":4294967295}],"vout":[{"value":0,"n":0,"scriptPubKey":{"asm":"","type":"nonstandard"}},{"value":78.12,"n":1,"scriptPubKey":{"asm":"020b1cd26fc4b9f080aea1cf7b667efd5e8453f70429056589831fa7f63506ddbf OP_CHECKSIG","reqSigs":1,"type":"pubkey","addresses":["pECTDpfW4nW8hYte3f3F9ZQxwgWmBwmcYL"]}},{"value":78.13031416,"n":2,"scriptPubKey":{"asm":"020b1cd26fc4b9f080aea1cf7b667efd5e8453f70429056589831fa7f63506ddbf OP_CHECKSIG","reqSigs":1,"type":"pubkey","addresses":["pECTDpfW4nW8hYte3f3F9ZQxwgWmBwmcYL"]}},{"value":0.0017,"n":3,"scriptPubKey":{"asm":"OP_DUP OP_HASH160 f6ea51b1cf22773ff3c68e8299209dc9d69d593f OP_EQUALVERIFY OP_CHECKSIG","reqSigs":1,"type":"pubkeyhash","addresses":["pU498g2Tze2KypwgCnomJXchMWH8HXyZb6"]}}],"blockhash":"9a7bd85bd45cdaaf3da3a1f0c0885d199abb098ccbcd031563136de1006593fd","confirmations":234,"blocktime":1540794320}