{"hex":"01000000cca7d65b0112128823ce9a6258c1ea57e8cb30757be3f2fbb59942842720097611ce0e58a1000000006a473044022016b90f3aea16e8c6b05bab032526eac64598a9bb81f018aa5b9f12779b189b99022019a929513819f97a2b18d3fd8284a9bc74fbe44583b069673da93bccf559edb101210230fcae7281c31af302f190e4105d4f89ca483a27882c1520340516feedc51400ffffffff026025e805000000001976a9148f395fe562d0d651fd407a8479d7d42de5a5bdae88ac00c2eb0b000000001976a914ca8cf0c64c70fef01fd509b38009c1b160b4dc0d88ac00000000","txid":"9f586ac3141a9e91e10665ee25c7b7b3a6ace78484f33e8d8d56004bec5dea75","version":1,"time":1540794320,"locktime":0,"vin":[{"txid":"a1580ece1176092027844299b5fbf2e37b7530cbe857eac158629ace23881212","vout":0,"scriptSig":{"asm":"3044022016b90f3aea16e8c6b05bab032526eac64598a9bb81f018aa5b9f12779b189b99022019a929513819f97a2b18d3fd8284a9bc74fbe44583b069673da93bccf559edb101 0230fcae7281c31af302f190e4105d4f89ca483a27882c1520340516feedc51400","hex":"473044022016b90f3aea16e8c6b05bab032526eac64598a9bb81f018aa5b9f12779b189b99022019a929513819f97a2b18d3fd8284a9bc74fbe44583b069673da93bccf559edb101210230fcae7281c31af302f190e4105d4f89ca483a27882c1520340516feedc51400"},"sequence":4294967295}],"vout":[{"value":0.991,"n":0,"scriptPubKey":{"asm":"OP_DUP OP_HASH160 8f395fe562d0d651fd407a8479d7d42de5a5bdae OP_EQUALVERIFY OP_CHECKSIG","reqSigs":1,"type":"pubkeyhash","addresses":["pJbsZbQMo2gyEtoF26JNF6fP5VSt3bbX2m"]}},{"value":2,"n":1,"scriptPubKey":{"asm":"OP_DUP OP_HASH160 ca8cf0c64c70fef01fd509b38009c1b160b4dc0d OP_EQUALVERIFY OP_CHECKSIG","reqSigs":1,"type":"pubkeyhash","addresses":["pQ1ZYB5wqubqWCbYt86c6WKcDPrc56j4pK"]}}],"blockhash":"9a7bd85bd45cdaaf3da3a1f0c0885d199abb098ccbcd031563136de1006593fd","confirmations":234,"blocktime":1540794320}