{"hex":"01000000b0c4e05b01eb58ed6a83dcb901c2d09b646f2a898b487d0f99fbc9030a3c55bdf4f6eb3671010000004948304502210096a22045345801ca52612481305b33a24e2aead714c27fb7736141c2a9257f070220371c8e36d264e60e6d1d7018541a4c36ed2737eda277a5e8a6e5cd3ea7dee57d01ffffffff04000000000000000000409452a30300000023210210c18e3b5aba3a6167f17a2fd6b65419de165b4388a78f0e815f0e3bc60d34f3ac4f9452a30300000023210210c18e3b5aba3a6167f17a2fd6b65419de165b4388a78f0e815f0e3bc60d34f3ac55000000000000001976a914239bf4dba7e2193b7f701a7b68d0e94c85d85fac88ac00000000","txid":"06ab56069b06a8c6870b67533256c00e50e40a5817661a36fdffa5a7f53980d0","version":1,"time":1541457072,"locktime":0,"vin":[{"txid":"7136ebf6f4bd553c0a03c9fb990f7d488b892a6f649bd0c201b9dc836aed58eb","vout":1,"scriptSig":{"asm":"304502210096a22045345801ca52612481305b33a24e2aead714c27fb7736141c2a9257f070220371c8e36d264e60e6d1d7018541a4c36ed2737eda277a5e8a6e5cd3ea7dee57d01","hex":"48304502210096a22045345801ca52612481305b33a24e2aead714c27fb7736141c2a9257f070220371c8e36d264e60e6d1d7018541a4c36ed2737eda277a5e8a6e5cd3ea7dee57d01"},"sequence":4294967295}],"vout":[{"value":0,"n":0,"scriptPubKey":{"asm":"","type":"nonstandard"}},{"value":156.25,"n":1,"scriptPubKey":{"asm":"0210c18e3b5aba3a6167f17a2fd6b65419de165b4388a78f0e815f0e3bc60d34f3 OP_CHECKSIG","reqSigs":1,"type":"pubkey","addresses":["pFf1Gp4G6PCkSUxUY1XLwNBH2ji6sBJMC3"]}},{"value":156.25000015,"n":2,"scriptPubKey":{"asm":"0210c18e3b5aba3a6167f17a2fd6b65419de165b4388a78f0e815f0e3bc60d34f3 OP_CHECKSIG","reqSigs":1,"type":"pubkey","addresses":["pFf1Gp4G6PCkSUxUY1XLwNBH2ji6sBJMC3"]}},{"value":8.5e-7,"n":3,"scriptPubKey":{"asm":"OP_DUP OP_HASH160 239bf4dba7e2193b7f701a7b68d0e94c85d85fac OP_EQUALVERIFY OP_CHECKSIG","reqSigs":1,"type":"pubkeyhash","addresses":["p8nrgTxTfKDC3hvmSmFxDcxpYguUCo8yWb"]}}],"blockhash":"b9fc0001229d73eff7dd8216849f9b226bee5c4401e64b4b70f767c0e7b5754c","confirmations":4,"blocktime":1541457072}