{"hex":"01000000a6c4e05b01089706a3ab90b9961403d1d1cf6cd1a42a320b45a5e8432ae57dcc272f56bd04000000006b48304502210092923520342ea9feb411e0231249622a2a038e22c282c055b9da719a63ed600d02205fd44d77a0a9d2b8d1c03c44dd2a9133c6f8329c6241ff8b6db9b3a3b01cf6740121030ad6b53b5642105e96c761001c38eb5b034e996dc4db9aff066daad6490874b2ffffffff021c940f00000000001976a9143ca165c2a430c579aa995470e40d21cd064e251b88ac58020000000000001976a914b0ea01a7b57990d538def839b5f78f7b678cc23a88ac00000000","txid":"bebe8943f24406eb4a1f4bbb0882e867d94e1565db15beea946f2d8969c095ea","version":1,"time":1541457072,"locktime":0,"vin":[{"txid":"04bd562f27cc7de52a43e8a5450b322aa4d16ccfd1d1031496b990aba3069708","vout":0,"scriptSig":{"asm":"304502210092923520342ea9feb411e0231249622a2a038e22c282c055b9da719a63ed600d02205fd44d77a0a9d2b8d1c03c44dd2a9133c6f8329c6241ff8b6db9b3a3b01cf67401 030ad6b53b5642105e96c761001c38eb5b034e996dc4db9aff066daad6490874b2","hex":"48304502210092923520342ea9feb411e0231249622a2a038e22c282c055b9da719a63ed600d02205fd44d77a0a9d2b8d1c03c44dd2a9133c6f8329c6241ff8b6db9b3a3b01cf6740121030ad6b53b5642105e96c761001c38eb5b034e996dc4db9aff066daad6490874b2"},"sequence":4294967295}],"vout":[{"value":0.01020956,"n":0,"scriptPubKey":{"asm":"OP_DUP OP_HASH160 3ca165c2a430c579aa995470e40d21cd064e251b OP_EQUALVERIFY OP_CHECKSIG","reqSigs":1,"type":"pubkeyhash","addresses":["pB5A6JxHKRfC693BhxqhHWc2UCWir7p71F"]}},{"value":0.000006,"n":1,"scriptPubKey":{"asm":"OP_DUP OP_HASH160 b0ea01a7b57990d538def839b5f78f7b678cc23a OP_EQUALVERIFY OP_CHECKSIG","reqSigs":1,"type":"pubkeyhash","addresses":["pMg1TXE5wFeJrcVNHfFHCh5fWjgvSkPciC"]}}],"blockhash":"b9fc0001229d73eff7dd8216849f9b226bee5c4401e64b4b70f767c0e7b5754c","confirmations":4,"blocktime":1541457072}