{"hex":"01000000c7a6c25b01c02a23ee567c995d038e49406ea343df85a96bad3887dc0bfb3d4e32f486b72d000000006b483045022100db41022f6d2cc356b7e6e63cb52108a4aec48d75cacc31f75a40bce0a44e3cf102204c75e0c7d685ebd71ace30e0bd4d675cf3c5a888b50c3dbc848d24bcaadf0e9c0121027fa86692b5fb65dd49439623e83472e3de46a8c6503b73019df1925db8593679ffffffff0200d2135bf18123001976a914dfa116f613e9125b6f1441acda38016574afe2b388ac0088526a740000001976a9147cf288aefa27580772a2e44d947f0a962553405d88ac00000000","txid":"72b210f9fb1f05d83eb0f00121937316d7a1b477e8283554620a2a8cd3592fb6","version":1,"time":1539483344,"locktime":0,"vin":[{"txid":"2db786f4324e3dfb0bdc8738ad6ba985df43a36e40498e035d997c56ee232ac0","vout":0,"scriptSig":{"asm":"3045022100db41022f6d2cc356b7e6e63cb52108a4aec48d75cacc31f75a40bce0a44e3cf102204c75e0c7d685ebd71ace30e0bd4d675cf3c5a888b50c3dbc848d24bcaadf0e9c01 027fa86692b5fb65dd49439623e83472e3de46a8c6503b73019df1925db8593679","hex":"483045022100db41022f6d2cc356b7e6e63cb52108a4aec48d75cacc31f75a40bce0a44e3cf102204c75e0c7d685ebd71ace30e0bd4d675cf3c5a888b50c3dbc848d24bcaadf0e9c0121027fa86692b5fb65dd49439623e83472e3de46a8c6503b73019df1925db8593679"},"sequence":4294967295}],"vout":[{"value":99944978,"n":0,"scriptPubKey":{"asm":"OP_DUP OP_HASH160 dfa116f613e9125b6f1441acda38016574afe2b3 OP_EQUALVERIFY OP_CHECKSIG","reqSigs":1,"type":"pubkeyhash","addresses":["pRw1sC5PFPJ48ktxmyYRpg9MtLiujiepNM"]}},{"value":5000,"n":1,"scriptPubKey":{"asm":"OP_DUP OP_HASH160 7cf288aefa27580772a2e44d947f0a962553405d OP_EQUALVERIFY OP_CHECKSIG","reqSigs":1,"type":"pubkeyhash","addresses":["pGwEY3YdfsrsoLzpPy8zj5rEMTsKeC6Mb3"]}}],"blockhash":"5e2e5f23a93a63356e72a824906ce7a892e2d5834f6f55d9cf0197cbd68f6c58","confirmations":337,"blocktime":1539483344}