{"hex":"01000000d0a6c25b0123039c1dbd23ecaed97cb1a9c2e469821199a107120d74d7581e73ab033084c1020000004948304502210088274759846256761fcc903a5de31a284daf9a5253050b41196c01bf659add4202206a85af09c9703a003dfb2c5431a42d64ebc9281665cacb4b8b79039e91d6775101ffffffff040000000000000000004074741e1d0000002321028d9be6ae35cf9126d1ddd81f7e9a33d77e64d908c42bf417d6424ba1da9106a6ac4074741e1d0000002321028d9be6ae35cf9126d1ddd81f7e9a33d77e64d908c42bf417d6424ba1da9106a6ac80fe210a000000001976a9148e3f6e3d2f029829ca356517f18e326c94cd54cd88ac00000000","txid":"84c5dba9e13d89f004fd4fc7999c19c18411c6dc0f549ac4f20896cb2b3e82a3","version":1,"time":1539483344,"locktime":0,"vin":[{"txid":"c1843003ab731e58d7740d1207a199118269e4c2a9b17cd9aeec23bd1d9c0323","vout":2,"scriptSig":{"asm":"304502210088274759846256761fcc903a5de31a284daf9a5253050b41196c01bf659add4202206a85af09c9703a003dfb2c5431a42d64ebc9281665cacb4b8b79039e91d6775101","hex":"48304502210088274759846256761fcc903a5de31a284daf9a5253050b41196c01bf659add4202206a85af09c9703a003dfb2c5431a42d64ebc9281665cacb4b8b79039e91d6775101"},"sequence":4294967295}],"vout":[{"value":0,"n":0,"scriptPubKey":{"asm":"","type":"nonstandard"}},{"value":1250.65,"n":1,"scriptPubKey":{"asm":"028d9be6ae35cf9126d1ddd81f7e9a33d77e64d908c42bf417d6424ba1da9106a6 OP_CHECKSIG","reqSigs":1,"type":"pubkey","addresses":["pG17eAwgEzq6zQQ7cLzvCMepRqGYMprwdz"]}},{"value":1250.65,"n":2,"scriptPubKey":{"asm":"028d9be6ae35cf9126d1ddd81f7e9a33d77e64d908c42bf417d6424ba1da9106a6 OP_CHECKSIG","reqSigs":1,"type":"pubkey","addresses":["pG17eAwgEzq6zQQ7cLzvCMepRqGYMprwdz"]}},{"value":1.7,"n":3,"scriptPubKey":{"asm":"OP_DUP OP_HASH160 8e3f6e3d2f029829ca356517f18e326c94cd54cd OP_EQUALVERIFY OP_CHECKSIG","reqSigs":1,"type":"pubkeyhash","addresses":["pJWi9BXT9hsVaAft92RNcufBy1LZGU4RtT"]}}],"blockhash":"5e2e5f23a93a63356e72a824906ce7a892e2d5834f6f55d9cf0197cbd68f6c58","confirmations":337,"blocktime":1539483344}