{"hex":"0100000030c5d65b03bcf9f11f19c27380ebce86103dc5f7ec1bea3ea55f0d018e6ce9b017662af938030000006b483045022100d2811038b04a6d341e6448b65c66f3a85292df48523c7d0e4f22418710ad2b510220480ed5926ee9e9dcee6ec79ec9ea865a9ea5e00ac7011432078baa6e3bd2e5a7012103c918da721a9564bfde1eb3e347ac352bf028a23eeafc2e69788601adb5b9dfabffffffffccae0eff5238cc79db73e043ca43cdec71e4c01efe09910acecd04b8729bc1c2030000006a47304402202d8902734cad75744b6dbb672a7e918cdfd2c6eeb5dfec5bb30feea6cdbcf1d802200095a96e2f890e9920004c41910257b277d0661ab9bf71d61b0edcc4274a3fe7012103c918da721a9564bfde1eb3e347ac352bf028a23eeafc2e69788601adb5b9dfabffffffffd450fa22b1c9a4a898d3fccf6a3e22abf221427c6c5ea7ca96b9ccab9ab306d6030000006b483045022100db49fd47fbc82164eee72deb84ed32af443f411e34afdd124048b6af224640c1022015e9e2705ac67877afd4c519fbe3c94789a02a8e47bff27aadde0244199c67ad012103c918da721a9564bfde1eb3e347ac352bf028a23eeafc2e69788601adb5b9dfabffffffff0300000000000000000002f8eb0b00000000232103c918da721a9564bfde1eb3e347ac352bf028a23eeafc2e69788601adb5b9dfabac80fe210a000000001976a91466429c93e46136b2db3fe752c257b3dba5e7649c88ac00000000","txid":"c7375cd6b4876c09786a74767dcb7d364efd25c7adecb1aabd2b77956a46c3b8","version":1,"time":1540801840,"locktime":0,"vin":[{"txid":"38f92a6617b0e96c8e010d5fa53eea1becf7c53d1086ceeb8073c2191ff1f9bc","vout":3,"scriptSig":{"asm":"3045022100d2811038b04a6d341e6448b65c66f3a85292df48523c7d0e4f22418710ad2b510220480ed5926ee9e9dcee6ec79ec9ea865a9ea5e00ac7011432078baa6e3bd2e5a701 03c918da721a9564bfde1eb3e347ac352bf028a23eeafc2e69788601adb5b9dfab","hex":"483045022100d2811038b04a6d341e6448b65c66f3a85292df48523c7d0e4f22418710ad2b510220480ed5926ee9e9dcee6ec79ec9ea865a9ea5e00ac7011432078baa6e3bd2e5a7012103c918da721a9564bfde1eb3e347ac352bf028a23eeafc2e69788601adb5b9dfab"},"sequence":4294967295},{"txid":"c2c19b72b804cdce0a9109fe1ec0e471eccd43ca43e073db79cc3852ff0eaecc","vout":3,"scriptSig":{"asm":"304402202d8902734cad75744b6dbb672a7e918cdfd2c6eeb5dfec5bb30feea6cdbcf1d802200095a96e2f890e9920004c41910257b277d0661ab9bf71d61b0edcc4274a3fe701 03c918da721a9564bfde1eb3e347ac352bf028a23eeafc2e69788601adb5b9dfab","hex":"47304402202d8902734cad75744b6dbb672a7e918cdfd2c6eeb5dfec5bb30feea6cdbcf1d802200095a96e2f890e9920004c41910257b277d0661ab9bf71d61b0edcc4274a3fe7012103c918da721a9564bfde1eb3e347ac352bf028a23eeafc2e69788601adb5b9dfab"},"sequence":4294967295},{"txid":"d606b39aabccb996caa75e6c7c4221f2ab223e6acffcd398a8a4c9b122fa50d4","vout":3,"scriptSig":{"asm":"3045022100db49fd47fbc82164eee72deb84ed32af443f411e34afdd124048b6af224640c1022015e9e2705ac67877afd4c519fbe3c94789a02a8e47bff27aadde0244199c67ad01 03c918da721a9564bfde1eb3e347ac352bf028a23eeafc2e69788601adb5b9dfab","hex":"483045022100db49fd47fbc82164eee72deb84ed32af443f411e34afdd124048b6af224640c1022015e9e2705ac67877afd4c519fbe3c94789a02a8e47bff27aadde0244199c67ad012103c918da721a9564bfde1eb3e347ac352bf028a23eeafc2e69788601adb5b9dfab"},"sequence":4294967295}],"vout":[{"value":0,"n":0,"scriptPubKey":{"asm":"","type":"nonstandard"}},{"value":2.00013826,"n":1,"scriptPubKey":{"asm":"03c918da721a9564bfde1eb3e347ac352bf028a23eeafc2e69788601adb5b9dfab OP_CHECKSIG","reqSigs":1,"type":"pubkey","addresses":["pK5Eddk3vr4yi7hrwuoQfuFmrHAeSuez22"]}},{"value":1.7,"n":2,"scriptPubKey":{"asm":"OP_DUP OP_HASH160 66429c93e46136b2db3fe752c257b3dba5e7649c OP_EQUALVERIFY OP_CHECKSIG","reqSigs":1,"type":"pubkeyhash","addresses":["pEsGvXfg7BMJ91FueYCRJrpJCEzDnhWNzu"]}}],"blockhash":"94f351950a56ce157971126cf59c8f0a7ed1fe187e767709dbdac67b9052651c","confirmations":215,"blocktime":1540801840}