{"hex":"010000002ec5d65b01c79573e858cf31e3cc6df45ae0c0ae4fcb64100ba893ae438532e644d81e7399000000006b4830450221008b5a88596b2b261887a8e0c0f0fb48abdb0175e8063abb2a8ddc1b6ab3f5f7ac02201603ee761f3202ccb43ddc08d35a91815984bb9a608cac291917d2b50b49925701210296c45e3d4fc4870214c92cafb80978c63cc5b5c55c4ff75cbbb7f7e82ff304c1ffffffff0240e532c0730000001976a914fba7268abcecdd6501e57257588d1474800cff3b88ac007c6af4011707001976a914e0d43ee21fcd1fe8c0b70d5fc6495b2205abf15288ac00000000","txid":"f34018098fccbcb99535688a71af252ed38118fcd2cc7b7638fbbd92d58d50c2","version":1,"time":1540801840,"locktime":0,"vin":[{"txid":"99731ed844e6328543ae93a80b1064cb4faec0e05af46dcce331cf58e87395c7","vout":0,"scriptSig":{"asm":"30450221008b5a88596b2b261887a8e0c0f0fb48abdb0175e8063abb2a8ddc1b6ab3f5f7ac02201603ee761f3202ccb43ddc08d35a91815984bb9a608cac291917d2b50b49925701 0296c45e3d4fc4870214c92cafb80978c63cc5b5c55c4ff75cbbb7f7e82ff304c1","hex":"4830450221008b5a88596b2b261887a8e0c0f0fb48abdb0175e8063abb2a8ddc1b6ab3f5f7ac02201603ee761f3202ccb43ddc08d35a91815984bb9a608cac291917d2b50b49925701210296c45e3d4fc4870214c92cafb80978c63cc5b5c55c4ff75cbbb7f7e82ff304c1"},"sequence":4294967295}],"vout":[{"value":4971.458,"n":0,"scriptPubKey":{"asm":"OP_DUP OP_HASH160 fba7268abcecdd6501e57257588d1474800cff3b OP_EQUALVERIFY OP_CHECKSIG","reqSigs":1,"type":"pubkeyhash","addresses":["pUVC3gLn8DDgFmRV9YcTV8Yp5KakcWgVk1"]}},{"value":19956220,"n":1,"scriptPubKey":{"asm":"OP_DUP OP_HASH160 e0d43ee21fcd1fe8c0b70d5fc6495b2205abf152 OP_EQUALVERIFY OP_CHECKSIG","reqSigs":1,"type":"pubkeyhash","addresses":["pS3Mpm6JWGxvJNJnkZTSoVhUfLTcgM2tej"]}}],"blockhash":"94f351950a56ce157971126cf59c8f0a7ed1fe187e767709dbdac67b9052651c","confirmations":215,"blocktime":1540801840}