{"hex":"01000000b0d3d65b01385c087aff37c4c47b0149d47315235bdb04d64e26479748f0ccf2658b2948090200000049483045022100f2a43ef1e1292a470993a408871ec8643e7ee3f8dd05289d6210e3627ea44be7022040e5a8121fd892a2a7cadd3bd91d3cd39c525645d6223dd43442a72f8f48833b01ffffffff0400000000000000000000a9a1d1010000002321020b1cd26fc4b9f080aea1cf7b667efd5e8453f70429056589831fa7f63506ddbfac51ecb0d1010000002321020b1cd26fc4b9f080aea1cf7b667efd5e8453f70429056589831fa7f63506ddbfac5f050000000000001976a914f6ea51b1cf22773ff3c68e8299209dc9d69d593f88ac00000000","txid":"0d7d6bea5468ad1c0f9ddcf03f7734e3c07fec44d5561fc98b7a429ade982dce","version":1,"time":1540805552,"locktime":0,"vin":[{"txid":"0948298b65f2ccf0489747264ed604db5b231573d449017bc4c437ff7a085c38","vout":2,"scriptSig":{"asm":"3045022100f2a43ef1e1292a470993a408871ec8643e7ee3f8dd05289d6210e3627ea44be7022040e5a8121fd892a2a7cadd3bd91d3cd39c525645d6223dd43442a72f8f48833b01","hex":"483045022100f2a43ef1e1292a470993a408871ec8643e7ee3f8dd05289d6210e3627ea44be7022040e5a8121fd892a2a7cadd3bd91d3cd39c525645d6223dd43442a72f8f48833b01"},"sequence":4294967295}],"vout":[{"value":0,"n":0,"scriptPubKey":{"asm":"","type":"nonstandard"}},{"value":78.12,"n":1,"scriptPubKey":{"asm":"020b1cd26fc4b9f080aea1cf7b667efd5e8453f70429056589831fa7f63506ddbf OP_CHECKSIG","reqSigs":1,"type":"pubkey","addresses":["pECTDpfW4nW8hYte3f3F9ZQxwgWmBwmcYL"]}},{"value":78.13000273,"n":2,"scriptPubKey":{"asm":"020b1cd26fc4b9f080aea1cf7b667efd5e8453f70429056589831fa7f63506ddbf OP_CHECKSIG","reqSigs":1,"type":"pubkey","addresses":["pECTDpfW4nW8hYte3f3F9ZQxwgWmBwmcYL"]}},{"value":0.00001375,"n":3,"scriptPubKey":{"asm":"OP_DUP OP_HASH160 f6ea51b1cf22773ff3c68e8299209dc9d69d593f OP_EQUALVERIFY OP_CHECKSIG","reqSigs":1,"type":"pubkeyhash","addresses":["pU498g2Tze2KypwgCnomJXchMWH8HXyZb6"]}}],"blockhash":"eb8a1e6c98112c3a308ef8c99021a3627c576790bb5d28ebbe059c1cbfefc465","confirmations":205,"blocktime":1540805552}