{"hex":"01000000a2d3d65b01b2147d530664bfc8ca93dcbb6f74788795a6ce1ec1f598cb7e1cdf7e21052547000000006a473044022034d52d30225adfa53ebf887b6fca3ee7b6c02d5119467cb58f82c090cd349f4e02207ea484aa3d66cb2b197d6090a6b9e2efb177ab50a50637aac070c52964db09820121029e857134122939a57279b02312e296a02bcf0cf876ddc541bd372450215dbeacffffffff02e6b92300000000001976a914b8728f4e4d51584d404f63b0c607d27e1efef8a988ac6fb21800000000001976a9144096e7fc0812b091315c472b680ccd07686b0bde88ac00000000","txid":"d21173b34e45359f47178f1fe925f4ba485701b0b1584ce6443b3a50b67902bc","version":1,"time":1540805552,"locktime":0,"vin":[{"txid":"472505217edf1c7ecb98f5c11ecea6958778746fbbdc93cac8bf6406537d14b2","vout":0,"scriptSig":{"asm":"3044022034d52d30225adfa53ebf887b6fca3ee7b6c02d5119467cb58f82c090cd349f4e02207ea484aa3d66cb2b197d6090a6b9e2efb177ab50a50637aac070c52964db098201 029e857134122939a57279b02312e296a02bcf0cf876ddc541bd372450215dbeac","hex":"473044022034d52d30225adfa53ebf887b6fca3ee7b6c02d5119467cb58f82c090cd349f4e02207ea484aa3d66cb2b197d6090a6b9e2efb177ab50a50637aac070c52964db09820121029e857134122939a57279b02312e296a02bcf0cf876ddc541bd372450215dbeac"},"sequence":4294967295}],"vout":[{"value":0.0234135,"n":0,"scriptPubKey":{"asm":"OP_DUP OP_HASH160 b8728f4e4d51584d404f63b0c607d27e1efef8a9 OP_EQUALVERIFY OP_CHECKSIG","reqSigs":1,"type":"pubkeyhash","addresses":["pNMqmkoRJEwGogJcj3uWcwNmQ9VVGpQ7qx"]}},{"value":0.01618543,"n":1,"scriptPubKey":{"asm":"OP_DUP OP_HASH160 4096e7fc0812b091315c472b680ccd07686b0bde OP_EQUALVERIFY OP_CHECKSIG","reqSigs":1,"type":"pubkeyhash","addresses":["pBS6E8Qhiibdi9hG31vjg6TTKrYusC17pQ"]}}],"blockhash":"eb8a1e6c98112c3a308ef8c99021a3627c576790bb5d28ebbe059c1cbfefc465","confirmations":205,"blocktime":1540805552}