{"hex":"01000000bfa2c25b010000000000000000000000000000000000000000000000000000000000000000ffffffff04015e0101ffffffff0100000000000000001976a9142af6e6a3b0cb8c18c7ad2a5639eea570ba5c5cdd88ac00000000","txid":"dd7919a8ba9d23ee693479e32e624e0b64e6ea55bc6dd6555ffb1f1e3ed376d9","version":1,"time":1539482303,"locktime":0,"vin":[{"coinbase":"015e0101","sequence":4294967295}],"vout":[{"value":0,"n":0,"scriptPubKey":{"asm":"OP_DUP OP_HASH160 2af6e6a3b0cb8c18c7ad2a5639eea570ba5c5cdd OP_EQUALVERIFY OP_CHECKSIG","reqSigs":1,"type":"pubkeyhash","addresses":["p9TkMjt7fm6psMHbG1kMYsUsVhDAZd72H7"]}}],"blockhash":"00000467402da92d669948638d19a161ef090a573f76ea331fca469bb04a8c3c","confirmations":65,"blocktime":1539482303}