{"hex":"01000000231cdb5b01ed2088808b95ba4e9adab15d430680531c680bf0c931683cc8af1cc15ed3dfb8010000006b483045022100ba92dfbe3aca587498993dd426935bb8deffa36294ed93de56d14fdbd1a3b12f022042392ca7744c3615f34b974ee91fb72d7002dfdeb492e8aff5b65f01f2f34e4b012102e5449c122b2f0c7f01716ec236d8fe7cd697ce7fd9a65dc414e1c2bc34842948ffffffff02e7096301000000001976a91419e24d90b60da2e4ed335410a37ca0a2dccbb7d988ac80969800000000001976a9143cd553ea2d96f28eabac473c85adf804ce880d8888ac00000000","txid":"22fb9ff3967922916cf3c205716e253e7bed3adf81945d91083f942f6de6fd92","version":1,"time":1541086256,"locktime":0,"vin":[{"txid":"b8dfd35ec11cafc83c6831c9f00b681c538006435db1da9a4eba958b808820ed","vout":1,"scriptSig":{"asm":"3045022100ba92dfbe3aca587498993dd426935bb8deffa36294ed93de56d14fdbd1a3b12f022042392ca7744c3615f34b974ee91fb72d7002dfdeb492e8aff5b65f01f2f34e4b01 02e5449c122b2f0c7f01716ec236d8fe7cd697ce7fd9a65dc414e1c2bc34842948","hex":"483045022100ba92dfbe3aca587498993dd426935bb8deffa36294ed93de56d14fdbd1a3b12f022042392ca7744c3615f34b974ee91fb72d7002dfdeb492e8aff5b65f01f2f34e4b012102e5449c122b2f0c7f01716ec236d8fe7cd697ce7fd9a65dc414e1c2bc34842948"},"sequence":4294967295}],"vout":[{"value":0.23267815,"n":0,"scriptPubKey":{"asm":"OP_DUP OP_HASH160 19e24d90b60da2e4ed335410a37ca0a2dccbb7d9 OP_EQUALVERIFY OP_CHECKSIG","reqSigs":1,"type":"pubkeyhash","addresses":["p7uSCJrbjsU96iABo6HFk1dBHJyzMB2gkB"]}},{"value":0.1,"n":1,"scriptPubKey":{"asm":"OP_DUP OP_HASH160 3cd553ea2d96f28eabac473c85adf804ce880d88 OP_EQUALVERIFY OP_CHECKSIG","reqSigs":1,"type":"pubkeyhash","addresses":["pB6EJVPL1Nx2JNmcwZc5vU4Wz3wCyefGwa"]}}],"blockhash":"55a88e3ef20795d4d863043fe7706f5b182ae0d820ce92723f84e1bb22394b66","confirmations":102,"blocktime":1541086256}