{"hex":"01000000301cdb5b01deb817577f7fc389f3cf6e271cf5993a3fa26e3e6f4481fce35d57cca981b9b20100000049483045022100d664b4a130814003044ba42553344cf61d606b620f77b840c05dc4883d60dc4a0220301194e38c8d1f3ce4a1bd80a9c15aeec3dc765ea826c6edb4fa78bc38027c2801ffffffff0300000000000000000088de9900000000002321028cb920f59c12d79842255d22f95cb209accfa6830daca59ba39d16355b6e3cc4ac34210000000000001976a914b4297f2bb1ec22148c170ab2f943e6826c4d831d88ac00000000","txid":"f1bee1ba7322f002fb9cef7188979a4476cdd152ec5b39884d83c755a507ebf1","version":1,"time":1541086256,"locktime":0,"vin":[{"txid":"b2b981a9cc575de3fc81446f3e6ea23f3a99f51c276ecff389c37f7f5717b8de","vout":1,"scriptSig":{"asm":"3045022100d664b4a130814003044ba42553344cf61d606b620f77b840c05dc4883d60dc4a0220301194e38c8d1f3ce4a1bd80a9c15aeec3dc765ea826c6edb4fa78bc38027c2801","hex":"483045022100d664b4a130814003044ba42553344cf61d606b620f77b840c05dc4883d60dc4a0220301194e38c8d1f3ce4a1bd80a9c15aeec3dc765ea826c6edb4fa78bc38027c2801"},"sequence":4294967295}],"vout":[{"value":0,"n":0,"scriptPubKey":{"asm":"","type":"nonstandard"}},{"value":0.10083976,"n":1,"scriptPubKey":{"asm":"028cb920f59c12d79842255d22f95cb209accfa6830daca59ba39d16355b6e3cc4 OP_CHECKSIG","reqSigs":1,"type":"pubkey","addresses":["p8xHVRJ6JVee7NQuivDZCLKgwHCvMS4FJv"]}},{"value":0.000085,"n":2,"scriptPubKey":{"asm":"OP_DUP OP_HASH160 b4297f2bb1ec22148c170ab2f943e6826c4d831d OP_EQUALVERIFY OP_CHECKSIG","reqSigs":1,"type":"pubkeyhash","addresses":["pMyBYUpcH3ehvzacvgmtahza4iSykvMcUD"]}}],"blockhash":"55a88e3ef20795d4d863043fe7706f5b182ae0d820ce92723f84e1bb22394b66","confirmations":102,"blocktime":1541086256}