{"hex":"01000000b07ae05b010f1602d00d8bae12894cd41e557dac2608269372d92fe95a5165c480a05e254f010000004847304402206aacda77cf16dee78ee3da604d75092c5301a886603f6c8174b9affadcb1c5770220539fa08757b7f19713fa822b05f80a1f84ff3dbc29779ea947ba2a640d9c97e901ffffffff0400000000000000000000a2941a1d0000002321022cb20f58eb2ca4b47bc97c5fa4ef998482ec570ad269a2395877d5e31cb04af8aca0b0941a1d0000002321022cb20f58eb2ca4b47bc97c5fa4ef998482ec570ad269a2395877d5e31cb04af8acde520000000000001976a91413cd926daa0b2e1422cabca27e3cbc3aebbee60e88ac00000000","txid":"1f6d8ac69fef983c7abb7ea217dda9fe9b1db77ce1d891dbf3b93357d443a518","version":1,"time":1541438128,"locktime":0,"vin":[{"txid":"4f255ea080c465515ae92fd97293260826ac7d551ed44c8912ae8b0dd002160f","vout":1,"scriptSig":{"asm":"304402206aacda77cf16dee78ee3da604d75092c5301a886603f6c8174b9affadcb1c5770220539fa08757b7f19713fa822b05f80a1f84ff3dbc29779ea947ba2a640d9c97e901","hex":"47304402206aacda77cf16dee78ee3da604d75092c5301a886603f6c8174b9affadcb1c5770220539fa08757b7f19713fa822b05f80a1f84ff3dbc29779ea947ba2a640d9c97e901"},"sequence":4294967295}],"vout":[{"value":0,"n":0,"scriptPubKey":{"asm":"","type":"nonstandard"}},{"value":1250,"n":1,"scriptPubKey":{"asm":"022cb20f58eb2ca4b47bc97c5fa4ef998482ec570ad269a2395877d5e31cb04af8 OP_CHECKSIG","reqSigs":1,"type":"pubkey","addresses":["pEvnPPdEgpysWtMLoQJddPXrMXSY4VJxwR"]}},{"value":1250.00003744,"n":2,"scriptPubKey":{"asm":"022cb20f58eb2ca4b47bc97c5fa4ef998482ec570ad269a2395877d5e31cb04af8 OP_CHECKSIG","reqSigs":1,"type":"pubkey","addresses":["pEvnPPdEgpysWtMLoQJddPXrMXSY4VJxwR"]}},{"value":0.00021214,"n":3,"scriptPubKey":{"asm":"OP_DUP OP_HASH160 13cd926daa0b2e1422cabca27e3cbc3aebbee60e OP_EQUALVERIFY OP_CHECKSIG","reqSigs":1,"type":"pubkeyhash","addresses":["p7MHJk1NCoVwVPjx7mEGWrpeSkLSYSZyuV"]}}],"blockhash":"9ca5afbd46b5da2d3bf731f4ccef33d6edb140c12f3af91a085c9b6172de26de","confirmations":27,"blocktime":1541438128}