{"hex":"01000000ac7ae05b023adbbaa31370586efc9f05fa738eb1889cd7b18b99d1f417f8b5c12f60a7e10a000000006a473044022016672b2c16952cc9262fee199454a0639898b6080d2ed0054fe3bee599544f190220172fe4cf9a63584563d3ce5696cc0860245c87db074136bab18773c87d6c8f6d0121033e4a1b53245d395498093719a9f68720babc78ffbca26500f4a2cb3e6e0413cfffffffff3f5b1e62f19405c93235349cc588963803083c48294d53caf3d2df078a4ededf000000006b483045022100b6576d37408159f611798856ec4daabf997b47d4a4e112f35a66c809c41a4796022008c126141ac7a7be84bc33628957d11f59b457b8077943b36b893ebaaa3b0664012102622c15b7740c3716dac460d14566f92375135996ce29f904e459b910791c3b56ffffffff023bdb1000000000001976a9148c590bc1e04613145031d4910fdb4d9f495cdb9188ac99d57c01000000001976a914fb4888e9170cdf89bd98987c518a98f8e810431188ac00000000","txid":"a8be197547a091487acc7e2a4aa8d580645be696a3a8388cf6d52d3d520112d9","version":1,"time":1541438128,"locktime":0,"vin":[{"txid":"0ae1a7602fc1b5f817f4d1998bb1d79c88b18e73fa059ffc6e587013a3badb3a","vout":0,"scriptSig":{"asm":"3044022016672b2c16952cc9262fee199454a0639898b6080d2ed0054fe3bee599544f190220172fe4cf9a63584563d3ce5696cc0860245c87db074136bab18773c87d6c8f6d01 033e4a1b53245d395498093719a9f68720babc78ffbca26500f4a2cb3e6e0413cf","hex":"473044022016672b2c16952cc9262fee199454a0639898b6080d2ed0054fe3bee599544f190220172fe4cf9a63584563d3ce5696cc0860245c87db074136bab18773c87d6c8f6d0121033e4a1b53245d395498093719a9f68720babc78ffbca26500f4a2cb3e6e0413cf"},"sequence":4294967295},{"txid":"dfde4e8a07dfd2f3ca534d29483c0803389688c59c343532c90594f1621e5b3f","vout":0,"scriptSig":{"asm":"3045022100b6576d37408159f611798856ec4daabf997b47d4a4e112f35a66c809c41a4796022008c126141ac7a7be84bc33628957d11f59b457b8077943b36b893ebaaa3b066401 02622c15b7740c3716dac460d14566f92375135996ce29f904e459b910791c3b56","hex":"483045022100b6576d37408159f611798856ec4daabf997b47d4a4e112f35a66c809c41a4796022008c126141ac7a7be84bc33628957d11f59b457b8077943b36b893ebaaa3b0664012102622c15b7740c3716dac460d14566f92375135996ce29f904e459b910791c3b56"},"sequence":4294967295}],"vout":[{"value":0.01104699,"n":0,"scriptPubKey":{"asm":"OP_DUP OP_HASH160 8c590bc1e04613145031d4910fdb4d9f495cdb91 OP_EQUALVERIFY OP_CHECKSIG","reqSigs":1,"type":"pubkeyhash","addresses":["pJLfUafgrC8TGjDAEG88DhpL7usKJbDuGW"]}},{"value":0.24958361,"n":1,"scriptPubKey":{"asm":"OP_DUP OP_HASH160 fb4888e9170cdf89bd98987c518a98f8e8104311 OP_EQUALVERIFY OP_CHECKSIG","reqSigs":1,"type":"pubkeyhash","addresses":["pUTEhfLDhmx9YY551Z8su4Mq4evDWKRW6b"]}}],"blockhash":"9ca5afbd46b5da2d3bf731f4ccef33d6edb140c12f3af91a085c9b6172de26de","confirmations":27,"blocktime":1541438128}