{"hex":"01000000cf5cc35b0130a416a6fce1d233e3c2f62f895eeeac0d0562bb2115fe3d5a04bf37f31a8485000000006b48304502210095caf4d2aac5f8510d1193be4f820d8d076625b1075ddb3d8614d16db081fef60220415019996af321474a7e4ed47174631519f266e63b8c8269c2b565743f8a65c4012103c40230f9601646121b45a153ed4156e8ddc3c00ad693f3ab5aef3924b123f59cffffffff02005474944c7923001976a914fd1c75ee6a52e2beb98571393795c4ca5309c0d088ac0088526a740000001976a91405799d876e3b7c328ae01baece26d0f931b0f5fa88ac00000000","txid":"2bab1004682883bb8d592cd7abfac813a4358af304f1011f1bc586691342b83f","version":1,"time":1539529936,"locktime":0,"vin":[{"txid":"85841af337bf045a3dfe1521bb62050dacee5e892ff6c2e333d2e1fca616a430","vout":0,"scriptSig":{"asm":"304502210095caf4d2aac5f8510d1193be4f820d8d076625b1075ddb3d8614d16db081fef60220415019996af321474a7e4ed47174631519f266e63b8c8269c2b565743f8a65c401 03c40230f9601646121b45a153ed4156e8ddc3c00ad693f3ab5aef3924b123f59c","hex":"48304502210095caf4d2aac5f8510d1193be4f820d8d076625b1075ddb3d8614d16db081fef60220415019996af321474a7e4ed47174631519f266e63b8c8269c2b565743f8a65c4012103c40230f9601646121b45a153ed4156e8ddc3c00ad693f3ab5aef3924b123f59c"},"sequence":4294967295}],"vout":[{"value":99849940,"n":0,"scriptPubKey":{"asm":"OP_DUP OP_HASH160 fd1c75ee6a52e2beb98571393795c4ca5309c0d0 OP_EQUALVERIFY OP_CHECKSIG","reqSigs":1,"type":"pubkeyhash","addresses":["pUcuFikN8ay8NQskRiVmp3RCeNtuh5YdP9"]}},{"value":5000,"n":1,"scriptPubKey":{"asm":"OP_DUP OP_HASH160 05799d876e3b7c328ae01baece26d0f931b0f5fa OP_EQUALVERIFY OP_CHECKSIG","reqSigs":1,"type":"pubkeyhash","addresses":["p63XGeVRkcywXEQJE5bkXjJFiugf8tT1er"]}}],"blockhash":"89ec4c4d6b5b8f319580ef6de46d0e9c54068fc5557f2af66ad84c8c890f6ec9","confirmations":32,"blocktime":1539529936}