{"hex":"01000000d05cc35b0178d44519484faab0906aad15d6436dd9d53227762e5a4b61bdba3b9eb4ec4b02010000004847304402205265759125091b94e17a9a6aaf9a6833e076a0d1e6a9f7c9d28b804eae82f863022039a5ccfb6c25d210f92921fa299550b853f98f71d5bde9368a0e33566f480d6601ffffffff03000000000000000000008f423300000000232102f3989f15f82309adefe5e4f6bf746db84b8df805e22eecc7bd374f31e8daa38aac80fe210a000000001976a9148e3f6e3d2f029829ca356517f18e326c94cd54cd88ac00000000","txid":"8b94a2e7c7c721a460f1d154a7da9f4095703fb8066a442797a4653e00a5d5aa","version":1,"time":1539529936,"locktime":0,"vin":[{"txid":"024becb49e3bbabd614b5a2e762732d5d96d43d615ad6a90b0aa4f481945d478","vout":1,"scriptSig":{"asm":"304402205265759125091b94e17a9a6aaf9a6833e076a0d1e6a9f7c9d28b804eae82f863022039a5ccfb6c25d210f92921fa299550b853f98f71d5bde9368a0e33566f480d6601","hex":"47304402205265759125091b94e17a9a6aaf9a6833e076a0d1e6a9f7c9d28b804eae82f863022039a5ccfb6c25d210f92921fa299550b853f98f71d5bde9368a0e33566f480d6601"},"sequence":4294967295}],"vout":[{"value":0,"n":0,"scriptPubKey":{"asm":"","type":"nonstandard"}},{"value":8.6,"n":1,"scriptPubKey":{"asm":"02f3989f15f82309adefe5e4f6bf746db84b8df805e22eecc7bd374f31e8daa38a OP_CHECKSIG","reqSigs":1,"type":"pubkey","addresses":["pS6kv8sUdNg7tBDNfNMnPMqsD2dQR4HfTQ"]}},{"value":1.7,"n":2,"scriptPubKey":{"asm":"OP_DUP OP_HASH160 8e3f6e3d2f029829ca356517f18e326c94cd54cd OP_EQUALVERIFY OP_CHECKSIG","reqSigs":1,"type":"pubkeyhash","addresses":["pJWi9BXT9hsVaAft92RNcufBy1LZGU4RtT"]}}],"blockhash":"89ec4c4d6b5b8f319580ef6de46d0e9c54068fc5557f2af66ad84c8c890f6ec9","confirmations":32,"blocktime":1539529936}