{"hex":"01000000e093e05b0110a7a66a0003eede866a0129e89cb26af2b5714207d9bd00042545346e202d64020000004847304402202e3ac9034b7ef54dd7511cd1f83d8deec3b7b72af9920af5be36899a67e24f1702203e2784613366462df1a61dc78e33faee1392ad0f3ed2301ae382eccf2f70a9e901ffffffff0400000000000000000000a2941a1d00000023210294b7b76140c3334aa3bcf4a7b79dd36807c0e0a3391d002cd9b4a8009683e8fcacccd2941a1d00000023210294b7b76140c3334aa3bcf4a7b79dd36807c0e0a3391d002cd9b4a8009683e8fcac7d6e0000000000001976a9144c86b0b2edcbbfcf0d0112bbb160a541568205b788ac00000000","txid":"b60013a3eba4e6d8ea84fa3162a3684c5e0d6b7412510a8d7ab9f1ae314fc69a","version":1,"time":1541444576,"locktime":0,"vin":[{"txid":"642d206e3445250400bdd9074271b5f26ab29ce829016a86deee03006aa6a710","vout":2,"scriptSig":{"asm":"304402202e3ac9034b7ef54dd7511cd1f83d8deec3b7b72af9920af5be36899a67e24f1702203e2784613366462df1a61dc78e33faee1392ad0f3ed2301ae382eccf2f70a9e901","hex":"47304402202e3ac9034b7ef54dd7511cd1f83d8deec3b7b72af9920af5be36899a67e24f1702203e2784613366462df1a61dc78e33faee1392ad0f3ed2301ae382eccf2f70a9e901"},"sequence":4294967295}],"vout":[{"value":0,"n":0,"scriptPubKey":{"asm":"","type":"nonstandard"}},{"value":1250,"n":1,"scriptPubKey":{"asm":"0294b7b76140c3334aa3bcf4a7b79dd36807c0e0a3391d002cd9b4a8009683e8fc OP_CHECKSIG","reqSigs":1,"type":"pubkey","addresses":["pJZjAtqMwq9jFa2kTVK5K8psT7erMHW8FX"]}},{"value":1250.00012492,"n":2,"scriptPubKey":{"asm":"0294b7b76140c3334aa3bcf4a7b79dd36807c0e0a3391d002cd9b4a8009683e8fc OP_CHECKSIG","reqSigs":1,"type":"pubkey","addresses":["pJZjAtqMwq9jFa2kTVK5K8psT7erMHW8FX"]}},{"value":0.00028285,"n":3,"scriptPubKey":{"asm":"OP_DUP OP_HASH160 4c86b0b2edcbbfcf0d0112bbb160a541568205b7 OP_EQUALVERIFY OP_CHECKSIG","reqSigs":1,"type":"pubkeyhash","addresses":["pCXCuj4F9uaYHMue5Nqy3XLKdLz4U9gRoi"]}}],"blockhash":"74257200e0a5f2fc74f65db07d2034c47b49e06bee7a5c3c0b705f164d59a937","confirmations":13,"blocktime":1541444576}