{"hex":"01000000d393e05b01fe4bb49278b7e31f4a869dd5c66a85878fae257eefd176231bc47ff445a1b95c000000006a47304402206bf29ed0d45cb30610ce310c5a9e4d0cd558005dc319769cef861511ba4d447502207ce56dbd8318b0bb49f85a3980cc0b99e1fd7156a9099e36ec0ce32afc2306d4012103e88d74ae017c5bba194e087c117368af01c63fe64334569ec1e9a7392e18a34bffffffff02a68d5c00000000001976a9140d4d8fba7a71091ff12a31f8ceb9c35d3423342088ac77c7fb01000000001976a9144e242bd550b5b6498868e83710cd41a02a47ffd088ac00000000","txid":"f91dd0462e7e1e33c05f21761ffa004f1baed7c80c08cb7ca141055cccdbf81e","version":1,"time":1541444576,"locktime":0,"vin":[{"txid":"5cb9a145f47fc41b2376d1ef7e25ae8f87856ac6d59d864a1fe3b77892b44bfe","vout":0,"scriptSig":{"asm":"304402206bf29ed0d45cb30610ce310c5a9e4d0cd558005dc319769cef861511ba4d447502207ce56dbd8318b0bb49f85a3980cc0b99e1fd7156a9099e36ec0ce32afc2306d401 03e88d74ae017c5bba194e087c117368af01c63fe64334569ec1e9a7392e18a34b","hex":"47304402206bf29ed0d45cb30610ce310c5a9e4d0cd558005dc319769cef861511ba4d447502207ce56dbd8318b0bb49f85a3980cc0b99e1fd7156a9099e36ec0ce32afc2306d4012103e88d74ae017c5bba194e087c117368af01c63fe64334569ec1e9a7392e18a34b"},"sequence":4294967295}],"vout":[{"value":0.06065574,"n":0,"scriptPubKey":{"asm":"OP_DUP OP_HASH160 0d4d8fba7a71091ff12a31f8ceb9c35d34233420 OP_EQUALVERIFY OP_CHECKSIG","reqSigs":1,"type":"pubkeyhash","addresses":["p6kuuGBgRz93G5TnfXmLvx6rmvKPsgze5t"]}},{"value":0.33277815,"n":1,"scriptPubKey":{"asm":"OP_DUP OP_HASH160 4e242bd550b5b6498868e83710cd41a02a47ffd0 OP_EQUALVERIFY OP_CHECKSIG","reqSigs":1,"type":"pubkeyhash","addresses":["pCfkEtWr8jzNnRhaHh6RBgJy6HerhxWSpw"]}}],"blockhash":"74257200e0a5f2fc74f65db07d2034c47b49e06bee7a5c3c0b705f164d59a937","confirmations":13,"blocktime":1541444576}