{"hex":"01000000c0b5d95b051b2bb1f13f26ab493a26e581ce26aaede3bd97eb35ed96f6a87f093d11caf01f030000006b483045022100e54744282a0d33328016050538aef4eb2218e781cf7ccfee79674b48faf1ca7f02204c177da0c69be497558d7fe28ec55209378a692017a71ee53cfbd16f631625d2012102a0ffdcd26bc595776e6ad72bf63c12428f5a915eaca2bad49b753e858d5ea8e3ffffffff3ac0ac693093b52a472ef5006a6ec88e3ce3eba0b825ea9ea54d8da81b1cdba6030000006a47304402202c516a57fdb0b20958accffce20018838b496ebebdb5c708962f99ea1a0a9dc1022023901921d211ec5562a90ac125d00f33c358d6cb55c043684f5930e21729455e012102a0ffdcd26bc595776e6ad72bf63c12428f5a915eaca2bad49b753e858d5ea8e3ffffffff6c11ed5b7a75a08b4b332fb538ca3c4299beba4e313c3dc8b8fa2c4370ed9146020000006b483045022100f312d60a53bd80385bdb31ec86b7870e3e6d1dcb48cbc486f56000097336748002202ee95d21761949bf7077ea189d0a821fe94924020d0d54a132b9920b6b072a8c012102a0ffdcd26bc595776e6ad72bf63c12428f5a915eaca2bad49b753e858d5ea8e3ffffffff978c093e1a0b314b4ef65277ecc1356d5992043c61115a045ad0f44fd3a912f6030000006a47304402201eaa06b1a3661987c9cc4cc57d26e9253c368252936971f42dfa69458411f01d02205cb3851e47aaf5c588822794d913555498098a5d943a808dd193400c49784520012102a0ffdcd26bc595776e6ad72bf63c12428f5a915eaca2bad49b753e858d5ea8e3ffffffffadaaa2df919c4afbd5a0d17a29bc0bd72a04768d1118f4e1c48f3eb652fb36ea020000006a47304402201bae849cec163fe92138105fd705ea63c88b1e335c6b07b2ed233117fc764ed40220017019072dfe39b923d318bb692c70c3e7c33d0d8fa2325e008b948c45d8cbf9012102a0ffdcd26bc595776e6ad72bf63c12428f5a915eaca2bad49b753e858d5ea8e3ffffffff0300000000000000000032d78c0200000000232102a0ffdcd26bc595776e6ad72bf63c12428f5a915eaca2bad49b753e858d5ea8e3ac38c70000000000001976a914f0371486e89ca3a2057c60329aff065cd986aee188ac00000000","txid":"0875c3bc60105c6cac314310e8d141b0589f5ef4ce0985cd933aaa7419daef76","version":1,"time":1540994496,"locktime":0,"vin":[{"txid":"1ff0ca113d097fa8f696ed35eb97bde3edaa26ce81e5263a49ab263ff1b12b1b","vout":3,"scriptSig":{"asm":"3045022100e54744282a0d33328016050538aef4eb2218e781cf7ccfee79674b48faf1ca7f02204c177da0c69be497558d7fe28ec55209378a692017a71ee53cfbd16f631625d201 02a0ffdcd26bc595776e6ad72bf63c12428f5a915eaca2bad49b753e858d5ea8e3","hex":"483045022100e54744282a0d33328016050538aef4eb2218e781cf7ccfee79674b48faf1ca7f02204c177da0c69be497558d7fe28ec55209378a692017a71ee53cfbd16f631625d2012102a0ffdcd26bc595776e6ad72bf63c12428f5a915eaca2bad49b753e858d5ea8e3"},"sequence":4294967295},{"txid":"a6db1c1ba88d4da59eea25b8a0ebe33c8ec86e6a00f52e472ab5933069acc03a","vout":3,"scriptSig":{"asm":"304402202c516a57fdb0b20958accffce20018838b496ebebdb5c708962f99ea1a0a9dc1022023901921d211ec5562a90ac125d00f33c358d6cb55c043684f5930e21729455e01 02a0ffdcd26bc595776e6ad72bf63c12428f5a915eaca2bad49b753e858d5ea8e3","hex":"47304402202c516a57fdb0b20958accffce20018838b496ebebdb5c708962f99ea1a0a9dc1022023901921d211ec5562a90ac125d00f33c358d6cb55c043684f5930e21729455e012102a0ffdcd26bc595776e6ad72bf63c12428f5a915eaca2bad49b753e858d5ea8e3"},"sequence":4294967295},{"txid":"4691ed70432cfab8c83d3c314ebabe99423cca38b52f334b8ba0757a5bed116c","vout":2,"scriptSig":{"asm":"3045022100f312d60a53bd80385bdb31ec86b7870e3e6d1dcb48cbc486f56000097336748002202ee95d21761949bf7077ea189d0a821fe94924020d0d54a132b9920b6b072a8c01 02a0ffdcd26bc595776e6ad72bf63c12428f5a915eaca2bad49b753e858d5ea8e3","hex":"483045022100f312d60a53bd80385bdb31ec86b7870e3e6d1dcb48cbc486f56000097336748002202ee95d21761949bf7077ea189d0a821fe94924020d0d54a132b9920b6b072a8c012102a0ffdcd26bc595776e6ad72bf63c12428f5a915eaca2bad49b753e858d5ea8e3"},"sequence":4294967295},{"txid":"f612a9d34ff4d05a045a11613c0492596d35c1ec7752f64e4b310b1a3e098c97","vout":3,"scriptSig":{"asm":"304402201eaa06b1a3661987c9cc4cc57d26e9253c368252936971f42dfa69458411f01d02205cb3851e47aaf5c588822794d913555498098a5d943a808dd193400c4978452001 02a0ffdcd26bc595776e6ad72bf63c12428f5a915eaca2bad49b753e858d5ea8e3","hex":"47304402201eaa06b1a3661987c9cc4cc57d26e9253c368252936971f42dfa69458411f01d02205cb3851e47aaf5c588822794d913555498098a5d943a808dd193400c49784520012102a0ffdcd26bc595776e6ad72bf63c12428f5a915eaca2bad49b753e858d5ea8e3"},"sequence":4294967295},{"txid":"ea36fb52b63e8fc4e1f418118d76042ad70bbc297ad1a0d5fb4a9c91dfa2aaad","vout":2,"scriptSig":{"asm":"304402201bae849cec163fe92138105fd705ea63c88b1e335c6b07b2ed233117fc764ed40220017019072dfe39b923d318bb692c70c3e7c33d0d8fa2325e008b948c45d8cbf901 02a0ffdcd26bc595776e6ad72bf63c12428f5a915eaca2bad49b753e858d5ea8e3","hex":"47304402201bae849cec163fe92138105fd705ea63c88b1e335c6b07b2ed233117fc764ed40220017019072dfe39b923d318bb692c70c3e7c33d0d8fa2325e008b948c45d8cbf9012102a0ffdcd26bc595776e6ad72bf63c12428f5a915eaca2bad49b753e858d5ea8e3"},"sequence":4294967295}],"vout":[{"value":0,"n":0,"scriptPubKey":{"asm":"","type":"nonstandard"}},{"value":0.42784562,"n":1,"scriptPubKey":{"asm":"02a0ffdcd26bc595776e6ad72bf63c12428f5a915eaca2bad49b753e858d5ea8e3 OP_CHECKSIG","reqSigs":1,"type":"pubkey","addresses":["p8iepVjrqbjo1uNb8dyXKBBerSUv6zrPfw"]}},{"value":0.00051,"n":2,"scriptPubKey":{"asm":"OP_DUP OP_HASH160 f0371486e89ca3a2057c60329aff065cd986aee1 OP_EQUALVERIFY OP_CHECKSIG","reqSigs":1,"type":"pubkeyhash","addresses":["pTSiMnNaB4wjS22bEGEEkNcu17kmCfBCLj"]}}],"blockhash":"479b8ace7d5beab53c06a3ada175bca9c4ca0fc11d6b01c21f6446e5495b27ca","confirmations":141,"blocktime":1540994496}