{"hex":"01000000bcb5d95b026376218a33ab1a2838fe2c2cac945242ca32469f42d3ad0b081689ad727cdd29000000006b483045022100823199609fe4acb3f51d79b56a750d57e6ea1115b2e82a18144a9b3e9d12e60b02203dd36481f56fd032996fc7e1864c356e8ee753786bab1eae1bb14983a3f2c886012103cbc43c4c35c4bd13e41faeea0a24dfac8749bbde70925d6af47767390095580efffffffff7a5bac7ea1925d5db17153aecb9a3d0c5bb16c7f703dfae389f1a84dad43832000000006a47304402200d94e1a2eceee619db907ac9f448d1f6ccc16ff2e44b10aaa4a37b4a3152a8930220626424ddb24a1f81e2a1bccf43492ffe2ee64ec395db0b725cb2ac73d081f81f0121029e857134122939a57279b02312e296a02bcf0cf876ddc541bd372450215dbeacffffffff02a09b4700000000001976a9144acf4ae63fe846ae6780363c15b23aee744fe6a888ac80f0fa02000000001976a914731861f4e6c4a5508e39acded60ccbf901ba517c88ac00000000","txid":"96e05639e4c767b247ad4d0f21b7775ac650a54d3c518c5f3c4e3b7ea553e35f","version":1,"time":1540994496,"locktime":0,"vin":[{"txid":"29dd7c72ad8916080badd3429f4632ca425294ac2c2cfe38281aab338a217663","vout":0,"scriptSig":{"asm":"3045022100823199609fe4acb3f51d79b56a750d57e6ea1115b2e82a18144a9b3e9d12e60b02203dd36481f56fd032996fc7e1864c356e8ee753786bab1eae1bb14983a3f2c88601 03cbc43c4c35c4bd13e41faeea0a24dfac8749bbde70925d6af47767390095580e","hex":"483045022100823199609fe4acb3f51d79b56a750d57e6ea1115b2e82a18144a9b3e9d12e60b02203dd36481f56fd032996fc7e1864c356e8ee753786bab1eae1bb14983a3f2c886012103cbc43c4c35c4bd13e41faeea0a24dfac8749bbde70925d6af47767390095580e"},"sequence":4294967295},{"txid":"3238d4da841a9f38aedf03f7c716bbc5d0a3b9ec3a1517dbd52519eac7baa5f7","vout":0,"scriptSig":{"asm":"304402200d94e1a2eceee619db907ac9f448d1f6ccc16ff2e44b10aaa4a37b4a3152a8930220626424ddb24a1f81e2a1bccf43492ffe2ee64ec395db0b725cb2ac73d081f81f01 029e857134122939a57279b02312e296a02bcf0cf876ddc541bd372450215dbeac","hex":"47304402200d94e1a2eceee619db907ac9f448d1f6ccc16ff2e44b10aaa4a37b4a3152a8930220626424ddb24a1f81e2a1bccf43492ffe2ee64ec395db0b725cb2ac73d081f81f0121029e857134122939a57279b02312e296a02bcf0cf876ddc541bd372450215dbeac"},"sequence":4294967295}],"vout":[{"value":0.04692896,"n":0,"scriptPubKey":{"asm":"OP_DUP OP_HASH160 4acf4ae63fe846ae6780363c15b23aee744fe6a8 OP_EQUALVERIFY OP_CHECKSIG","reqSigs":1,"type":"pubkeyhash","addresses":["pCN8XqmcmhHag7nJb9fiPmCMRcqYHR5gpg"]}},{"value":0.5,"n":1,"scriptPubKey":{"asm":"OP_DUP OP_HASH160 731861f4e6c4a5508e39acded60ccbf901ba517c OP_EQUALVERIFY OP_CHECKSIG","reqSigs":1,"type":"pubkeyhash","addresses":["pG397uFsite1BeTBbiaVt7AXXQkfhhRke2"]}}],"blockhash":"479b8ace7d5beab53c06a3ada175bca9c4ca0fc11d6b01c21f6446e5495b27ca","confirmations":141,"blocktime":1540994496}