{"hex":"01000000bbb5d95b02ed1def78a287ba66735f06ba874a5e28aba8980ecec506c7356b3d1ddb45fb95000000006a4730440220243cba627cf13593dcd4709dc99f1850134d6ce5e214fc0eafe882cfca04835c022073b86324e62f277e4970a7dd1397c58a3fa6aae5a42d83bbab4af952d1bab944012103a4fdb242ccaea58101af80d13083fecdf5b5b91944f137e5b35424f750fe5320ffffffffed1def78a287ba66735f06ba874a5e28aba8980ecec506c7356b3d1ddb45fb95010000006b483045022100b4272fd54b69a1417d14f19da28c68be545bd06213569037aa0ea642bf27fc1902205237d26b075f13e6a5e7a15eb6bb4e648a71d10327fa2e148cf52c8e5dfc0e840121029e857134122939a57279b02312e296a02bcf0cf876ddc541bd372450215dbeacffffffff020d0a2100000000001976a914caf2ef10e549b8d75c5e21217255821a50eabc6d88ac80969800000000001976a9144c28ee798243702bc4500cdb4da9004130bb47f688ac00000000","txid":"9f053735ae7eb97bc14c01c69175a7d07859df392a1d282d69663bf189b89faa","version":1,"time":1540994496,"locktime":0,"vin":[{"txid":"95fb45db1d3d6b35c706c5ce0e98a8ab285e4a87ba065f7366ba87a278ef1ded","vout":0,"scriptSig":{"asm":"30440220243cba627cf13593dcd4709dc99f1850134d6ce5e214fc0eafe882cfca04835c022073b86324e62f277e4970a7dd1397c58a3fa6aae5a42d83bbab4af952d1bab94401 03a4fdb242ccaea58101af80d13083fecdf5b5b91944f137e5b35424f750fe5320","hex":"4730440220243cba627cf13593dcd4709dc99f1850134d6ce5e214fc0eafe882cfca04835c022073b86324e62f277e4970a7dd1397c58a3fa6aae5a42d83bbab4af952d1bab944012103a4fdb242ccaea58101af80d13083fecdf5b5b91944f137e5b35424f750fe5320"},"sequence":4294967295},{"txid":"95fb45db1d3d6b35c706c5ce0e98a8ab285e4a87ba065f7366ba87a278ef1ded","vout":1,"scriptSig":{"asm":"3045022100b4272fd54b69a1417d14f19da28c68be545bd06213569037aa0ea642bf27fc1902205237d26b075f13e6a5e7a15eb6bb4e648a71d10327fa2e148cf52c8e5dfc0e8401 029e857134122939a57279b02312e296a02bcf0cf876ddc541bd372450215dbeac","hex":"483045022100b4272fd54b69a1417d14f19da28c68be545bd06213569037aa0ea642bf27fc1902205237d26b075f13e6a5e7a15eb6bb4e648a71d10327fa2e148cf52c8e5dfc0e840121029e857134122939a57279b02312e296a02bcf0cf876ddc541bd372450215dbeac"},"sequence":4294967295}],"vout":[{"value":0.02165261,"n":0,"scriptPubKey":{"asm":"OP_DUP OP_HASH160 caf2ef10e549b8d75c5e21217255821a50eabc6d OP_EQUALVERIFY OP_CHECKSIG","reqSigs":1,"type":"pubkeyhash","addresses":["pQ3fio5LvKBgCNzyAn2J8w89LrmhPSZaPa"]}},{"value":0.1,"n":1,"scriptPubKey":{"asm":"OP_DUP OP_HASH160 4c28ee798243702bc4500cdb4da9004130bb47f6 OP_EQUALVERIFY OP_CHECKSIG","reqSigs":1,"type":"pubkeyhash","addresses":["pCVGbFvFLapGyskXvwfxG2ss21bRU9FqUh"]}}],"blockhash":"479b8ace7d5beab53c06a3ada175bca9c4ca0fc11d6b01c21f6446e5495b27ca","confirmations":141,"blocktime":1540994496}