{"hex":"01000000f0b4dc5b01f0ac4847f2ea2f472ea6a30e7a275eca49c754f83f43c885352ba55bfed0e32c010000004847304402205ff9aacfd179514dac2622e56bdf62ed6c902f98f3756a41f10b801fa43570f8022018b03e828a62887c4013d81733fff145001f1f289ce2b966afde638dc6404cfc01ffffffff04000000000000000000803f3ad2010000002321028d9be6ae35cf9126d1ddd81f7e9a33d77e64d908c42bf417d6424ba1da9106a6acf47f3ad2010000002321028d9be6ae35cf9126d1ddd81f7e9a33d77e64d908c42bf417d6424ba1da9106a6ac3c6d0100000000001976a91466429c93e46136b2db3fe752c257b3dba5e7649c88ac00000000","txid":"696ecd80519b1d91175a14cced12c65cc039a2f9c3327d0e51cfb4bf3d8988aa","version":1,"time":1541190896,"locktime":0,"vin":[{"txid":"2ce3d0fe5ba52b3585c8433ff854c749ca5e277a0ea3a62e472feaf24748acf0","vout":1,"scriptSig":{"asm":"304402205ff9aacfd179514dac2622e56bdf62ed6c902f98f3756a41f10b801fa43570f8022018b03e828a62887c4013d81733fff145001f1f289ce2b966afde638dc6404cfc01","hex":"47304402205ff9aacfd179514dac2622e56bdf62ed6c902f98f3756a41f10b801fa43570f8022018b03e828a62887c4013d81733fff145001f1f289ce2b966afde638dc6404cfc01"},"sequence":4294967295}],"vout":[{"value":0,"n":0,"scriptPubKey":{"asm":"","type":"nonstandard"}},{"value":78.22,"n":1,"scriptPubKey":{"asm":"028d9be6ae35cf9126d1ddd81f7e9a33d77e64d908c42bf417d6424ba1da9106a6 OP_CHECKSIG","reqSigs":1,"type":"pubkey","addresses":["pG17eAwgEzq6zQQ7cLzvCMepRqGYMprwdz"]}},{"value":78.220165,"n":2,"scriptPubKey":{"asm":"028d9be6ae35cf9126d1ddd81f7e9a33d77e64d908c42bf417d6424ba1da9106a6 OP_CHECKSIG","reqSigs":1,"type":"pubkey","addresses":["pG17eAwgEzq6zQQ7cLzvCMepRqGYMprwdz"]}},{"value":0.000935,"n":3,"scriptPubKey":{"asm":"OP_DUP OP_HASH160 66429c93e46136b2db3fe752c257b3dba5e7649c OP_EQUALVERIFY OP_CHECKSIG","reqSigs":1,"type":"pubkeyhash","addresses":["pEsGvXfg7BMJ91FueYCRJrpJCEzDnhWNzu"]}}],"blockhash":"44be13ad4e17814d0c886e563096da98a241452d1c990395e29137026ae49b2d","confirmations":54,"blocktime":1541190896}