{"hex":"01000000edb4dc5b02e45bb42b780de26b224fe7e16df7f5bace68cb7fac5185a29e2fcbcad3e064d5000000006b4830450221008f9afa979c67aae9b34d1837b9ef4ad9cf966a884df8fa5b72b5f089ca158e3e02202f79b160c5b594d805fed3f0c56ebdda8638dd083eaa8dc835c656adba69495e012102ec60d27bc40ed117952fe2163ffef96ff8bfdb841effdaebac4532cb388540a2ffffffff5544cb08e4841ae9d256a2f0fa6e5fb9d488c355a74a97136952b04ba2f70472010000006b48304502210093099ea446944a4ef771922733ad44ae7fa1770b7a86d258cd1a5b509bb4ee400220643bffbf0c4ca4029c08ead9c62c013ec92975d1b2c0c48f8601f4538f429b28012102510ccbb0dbad26dfcead46eaabbdac37a3c4704f8e2e784d6b82aa8819ea5df6ffffffff0264fa3400000000001976a9146c74416751146a42a4bd0f00a9e309a8c68f7af988ac80778e06000000001976a914966b0bd4b325ff6b50a6357d4fdfcf351d46915688ac00000000","txid":"f3a502c18b41198ab2e338d603e86fc66d32e2f4c8fa2633b5d4a7b922a21eb2","version":1,"time":1541190896,"locktime":0,"vin":[{"txid":"d564e0d3cacb2f9ea28551ac7fcb68cebaf5f76de1e74f226be20d782bb45be4","vout":0,"scriptSig":{"asm":"30450221008f9afa979c67aae9b34d1837b9ef4ad9cf966a884df8fa5b72b5f089ca158e3e02202f79b160c5b594d805fed3f0c56ebdda8638dd083eaa8dc835c656adba69495e01 02ec60d27bc40ed117952fe2163ffef96ff8bfdb841effdaebac4532cb388540a2","hex":"4830450221008f9afa979c67aae9b34d1837b9ef4ad9cf966a884df8fa5b72b5f089ca158e3e02202f79b160c5b594d805fed3f0c56ebdda8638dd083eaa8dc835c656adba69495e012102ec60d27bc40ed117952fe2163ffef96ff8bfdb841effdaebac4532cb388540a2"},"sequence":4294967295},{"txid":"7204f7a24bb0526913974aa755c388d4b95f6efaf0a256d2e91a84e408cb4455","vout":1,"scriptSig":{"asm":"304502210093099ea446944a4ef771922733ad44ae7fa1770b7a86d258cd1a5b509bb4ee400220643bffbf0c4ca4029c08ead9c62c013ec92975d1b2c0c48f8601f4538f429b2801 02510ccbb0dbad26dfcead46eaabbdac37a3c4704f8e2e784d6b82aa8819ea5df6","hex":"48304502210093099ea446944a4ef771922733ad44ae7fa1770b7a86d258cd1a5b509bb4ee400220643bffbf0c4ca4029c08ead9c62c013ec92975d1b2c0c48f8601f4538f429b28012102510ccbb0dbad26dfcead46eaabbdac37a3c4704f8e2e784d6b82aa8819ea5df6"},"sequence":4294967295}],"vout":[{"value":0.03471972,"n":0,"scriptPubKey":{"asm":"OP_DUP OP_HASH160 6c74416751146a42a4bd0f00a9e309a8c68f7af9 OP_EQUALVERIFY OP_CHECKSIG","reqSigs":1,"type":"pubkeyhash","addresses":["pFS2Szi4TuQx6HShyLbX9tj57KiHCp9XDz"]}},{"value":1.1,"n":1,"scriptPubKey":{"asm":"OP_DUP OP_HASH160 966b0bd4b325ff6b50a6357d4fdfcf351d469156 OP_EQUALVERIFY OP_CHECKSIG","reqSigs":1,"type":"pubkeyhash","addresses":["pKFuoBUiUKGYn5W8mofYitSjXiH3VTEuy8"]}}],"blockhash":"44be13ad4e17814d0c886e563096da98a241452d1c990395e29137026ae49b2d","confirmations":54,"blocktime":1541190896}