{"hex":"0100000096a1c25b010000000000000000000000000000000000000000000000000000000000000000ffffffff04013c0102ffffffff0100000000000000001976a914a44afdab22d33b9cd38db75461709fa70b5d5a9788ac00000000","txid":"e857ebd093aed622be3f18f710cef63e77d1795014a091028a38c8bba0df2b1d","version":1,"time":1539482009,"locktime":0,"vin":[{"coinbase":"013c0102","sequence":4294967295}],"vout":[{"value":0,"n":0,"scriptPubKey":{"asm":"OP_DUP OP_HASH160 a44afdab22d33b9cd38db75461709fa70b5d5a97 OP_EQUALVERIFY OP_CHECKSIG","reqSigs":1,"type":"pubkeyhash","addresses":["pLXGrdAPMHYCibf8Y93ogPLhVih1HadMwi"]}}],"blockhash":"00000c21c164ebaad8be0358c6e96d30a2948d3a8d0b6a720704ec1cbaa06e25","confirmations":385,"blocktime":1539482009}