{"hex":"01000000c09fc25b010000000000000000000000000000000000000000000000000000000000000000ffffffff0401140101ffffffff0100000000000000001976a914029c0b0e217f7baa6afe955b7e4753d5578586bf88ac00000000","txid":"f14bbaae5892826bed6826e4d54bfb82574fbacdbcb350d416110916cb3ecd6d","version":1,"time":1539481536,"locktime":0,"vin":[{"coinbase":"01140101","sequence":4294967295}],"vout":[{"value":0,"n":0,"scriptPubKey":{"asm":"OP_DUP OP_HASH160 029c0b0e217f7baa6afe955b7e4753d5578586bf OP_EQUALVERIFY OP_CHECKSIG","reqSigs":1,"type":"pubkeyhash","addresses":["p5nNVADb35VhgHGLd2qv8a1FnD2J3xn1oT"]}}],"blockhash":"00000c9dd60425887a981ea47c7bdb172e3cf8d01bcf34554e86ce8e15b378b3","confirmations":139,"blocktime":1539481536}