{"hex":"01000000c5a1c25b010000000000000000000000000000000000000000000000000000000000000000ffffffff0401420101ffffffff0100000000000000001976a9149fe7217405e060acf20468efb1b063b4b8e50fa788ac00000000","txid":"c7741b18ea284ce535432e4833e66ea6b9fcb51371753c4688c1be810fe042b7","version":1,"time":1539482053,"locktime":0,"vin":[{"coinbase":"01420101","sequence":4294967295}],"vout":[{"value":0,"n":0,"scriptPubKey":{"asm":"OP_DUP OP_HASH160 9fe7217405e060acf20468efb1b063b4b8e50fa7 OP_EQUALVERIFY OP_CHECKSIG","reqSigs":1,"type":"pubkeyhash","addresses":["pL84XSukNzMAdqzqcgQYxRFqzZZW6v9su7"]}}],"blockhash":"000009bd2a646e933664e79ea49ff915688635bf475f9f0066c9b1b35d1e4cd5","confirmations":379,"blocktime":1539482053}