{"hex":"01000000d7a6c25b01b62f59d38c2a0a62543528e877b4a1d71673932101f0b03ed8051ffbf910b272000000006b483045022100c57803258d215a43f2758cda6c9bedd321ff29ba04923bb5db53ed1c251d509902202fb73819f021eca1306e66142f5ea39426a8591688948d69cda2aa049083eac50121035d89a5f3b769645aed7e2bd9307fa55fd387573f4c9bd30937e4ad23c049846affffffff020088d5e47c8123001976a91484030c9bf18e07cf69803f273701923359afd68788ac0088526a740000001976a9141992ad5700ade9422585b3e7af7cd994d29d4ca888ac00000000","txid":"3b75cab3072cbc5e6c4c9165ad32a5110e8d07e879a175393b8a821ff01e4f93","version":1,"time":1539483360,"locktime":0,"vin":[{"txid":"72b210f9fb1f05d83eb0f00121937316d7a1b477e8283554620a2a8cd3592fb6","vout":0,"scriptSig":{"asm":"3045022100c57803258d215a43f2758cda6c9bedd321ff29ba04923bb5db53ed1c251d509902202fb73819f021eca1306e66142f5ea39426a8591688948d69cda2aa049083eac501 035d89a5f3b769645aed7e2bd9307fa55fd387573f4c9bd30937e4ad23c049846a","hex":"483045022100c57803258d215a43f2758cda6c9bedd321ff29ba04923bb5db53ed1c251d509902202fb73819f021eca1306e66142f5ea39426a8591688948d69cda2aa049083eac50121035d89a5f3b769645aed7e2bd9307fa55fd387573f4c9bd30937e4ad23c049846a"},"sequence":4294967295}],"vout":[{"value":99939976,"n":0,"scriptPubKey":{"asm":"OP_DUP OP_HASH160 84030c9bf18e07cf69803f273701923359afd687 OP_EQUALVERIFY OP_CHECKSIG","reqSigs":1,"type":"pubkeyhash","addresses":["pHab3tka1h1gCsq4aZgkY2HY3DnGVUTpSw"]}},{"value":5000,"n":1,"scriptPubKey":{"asm":"OP_DUP OP_HASH160 1992ad5700ade9422585b3e7af7cd994d29d4ca8 OP_EQUALVERIFY OP_CHECKSIG","reqSigs":1,"type":"pubkeyhash","addresses":["p7snoofvhm9cmcDcAmpbzCVHFFEt2fdccj"]}}],"blockhash":"ce39a7c5879571edb346152f6b648609f0d823f952c5c81d649898528e5330de","confirmations":50,"blocktime":1539483360}