{"hex":"01000000e0a6c25b0164dcd5dd763a725bbb406a34e9b52ee1bab3422de7319e51e3d6e0aeec18c2f5010000006a473044022031757242964284e3dc9973292a77fc7909f7015d400826544a8de9a0b2fea78d022074ed148a68219f07d9ef92089a46ffc6f24decb3eae040833990f0be6ad60192012103670be5afe77a215b42f2bc4bd7c1c5049117430d8e81c1de5c44e9ab4c566689ffffffff04000000000000000000c0250e363a000000232103670be5afe77a215b42f2bc4bd7c1c5049117430d8e81c1de5c44e9ab4c566689acc0250e363a000000232103670be5afe77a215b42f2bc4bd7c1c5049117430d8e81c1de5c44e9ab4c566689ac80fe210a000000001976a9148e3f6e3d2f029829ca356517f18e326c94cd54cd88ac00000000","txid":"c6d2927283ceca67a318fce504072dbb7fb1ea44a7c57b13ab4782fa14e7e3d6","version":1,"time":1539483360,"locktime":0,"vin":[{"txid":"f5c218ecaee0d6e3519e31e72d42b3bae12eb5e9346a40bb5b723a76ddd5dc64","vout":1,"scriptSig":{"asm":"3044022031757242964284e3dc9973292a77fc7909f7015d400826544a8de9a0b2fea78d022074ed148a68219f07d9ef92089a46ffc6f24decb3eae040833990f0be6ad6019201 03670be5afe77a215b42f2bc4bd7c1c5049117430d8e81c1de5c44e9ab4c566689","hex":"473044022031757242964284e3dc9973292a77fc7909f7015d400826544a8de9a0b2fea78d022074ed148a68219f07d9ef92089a46ffc6f24decb3eae040833990f0be6ad60192012103670be5afe77a215b42f2bc4bd7c1c5049117430d8e81c1de5c44e9ab4c566689"},"sequence":4294967295}],"vout":[{"value":0,"n":0,"scriptPubKey":{"asm":"","type":"nonstandard"}},{"value":2500.15,"n":1,"scriptPubKey":{"asm":"03670be5afe77a215b42f2bc4bd7c1c5049117430d8e81c1de5c44e9ab4c566689 OP_CHECKSIG","reqSigs":1,"type":"pubkey","addresses":["pRVJAmbxV6TyzWMNW1oNoV1k3zM77bZrBx"]}},{"value":2500.15,"n":2,"scriptPubKey":{"asm":"03670be5afe77a215b42f2bc4bd7c1c5049117430d8e81c1de5c44e9ab4c566689 OP_CHECKSIG","reqSigs":1,"type":"pubkey","addresses":["pRVJAmbxV6TyzWMNW1oNoV1k3zM77bZrBx"]}},{"value":1.7,"n":3,"scriptPubKey":{"asm":"OP_DUP OP_HASH160 8e3f6e3d2f029829ca356517f18e326c94cd54cd OP_EQUALVERIFY OP_CHECKSIG","reqSigs":1,"type":"pubkeyhash","addresses":["pJWi9BXT9hsVaAft92RNcufBy1LZGU4RtT"]}}],"blockhash":"ce39a7c5879571edb346152f6b648609f0d823f952c5c81d649898528e5330de","confirmations":50,"blocktime":1539483360}