{"hex":"01000000109bd45b0122811d87bdf92457706705c5e743c169d41d7c7b1a22d5db3bcccec41160766e010000006a47304402206cd57997c1625fc96f7a2b06e36a75cad617aaaa357aaddf81a0149ff449a674022033329f0bb4ec44b76a3112ef1011a2d03ca278ffd44cd9c942d4a54bbb13c2f80121020b1cd26fc4b9f080aea1cf7b667efd5e8453f70429056589831fa7f63506ddbfffffffff04000000000000000000004429353a0000002321020b1cd26fc4b9f080aea1cf7b667efd5e8453f70429056589831fa7f63506ddbfac844429353a0000002321020b1cd26fc4b9f080aea1cf7b667efd5e8453f70429056589831fa7f63506ddbfacec020000000000001976a9141992ad5700ade9422585b3e7af7cd994d29d4ca888ac00000000","txid":"453eda2de91eb76c40bfb5d55738621e7b71c1d99fdadf8ea0b1c09cdaff0dca","version":1,"time":1540659984,"locktime":0,"vin":[{"txid":"6e766011c4cecc3bdbd5221a7b7c1dd469c143e7c50567705724f9bd871d8122","vout":1,"scriptSig":{"asm":"304402206cd57997c1625fc96f7a2b06e36a75cad617aaaa357aaddf81a0149ff449a674022033329f0bb4ec44b76a3112ef1011a2d03ca278ffd44cd9c942d4a54bbb13c2f801 020b1cd26fc4b9f080aea1cf7b667efd5e8453f70429056589831fa7f63506ddbf","hex":"47304402206cd57997c1625fc96f7a2b06e36a75cad617aaaa357aaddf81a0149ff449a674022033329f0bb4ec44b76a3112ef1011a2d03ca278ffd44cd9c942d4a54bbb13c2f80121020b1cd26fc4b9f080aea1cf7b667efd5e8453f70429056589831fa7f63506ddbf"},"sequence":4294967295}],"vout":[{"value":0,"n":0,"scriptPubKey":{"asm":"","type":"nonstandard"}},{"value":2500,"n":1,"scriptPubKey":{"asm":"020b1cd26fc4b9f080aea1cf7b667efd5e8453f70429056589831fa7f63506ddbf OP_CHECKSIG","reqSigs":1,"type":"pubkey","addresses":["pECTDpfW4nW8hYte3f3F9ZQxwgWmBwmcYL"]}},{"value":2500.00000132,"n":2,"scriptPubKey":{"asm":"020b1cd26fc4b9f080aea1cf7b667efd5e8453f70429056589831fa7f63506ddbf OP_CHECKSIG","reqSigs":1,"type":"pubkey","addresses":["pECTDpfW4nW8hYte3f3F9ZQxwgWmBwmcYL"]}},{"value":0.00000748,"n":3,"scriptPubKey":{"asm":"OP_DUP OP_HASH160 1992ad5700ade9422585b3e7af7cd994d29d4ca8 OP_EQUALVERIFY OP_CHECKSIG","reqSigs":1,"type":"pubkeyhash","addresses":["p7snoofvhm9cmcDcAmpbzCVHFFEt2fdccj"]}}],"blockhash":"7f05da4bcf0bf5e0289e6589b8992e773965cae165944311a091c371d897e781","confirmations":283,"blocktime":1540659984}