{"hex":"010000000b9bd45b01c40415fb0c24983990c273af90090c049bcecda86252f5f60ca1acc15847ac8b000000006b483045022100c3a874fea9e5f7df6bfd4337a24e8347d21b28ec1987e407253e181b00ba2ff6022018aaa54d41297cc2fa9391204715857fb10a2259119d65182a61b8c4bcb28d9d0121029e857134122939a57279b02312e296a02bcf0cf876ddc541bd372450215dbeacffffffff023b871000000000001976a9144c28ee798243702bc4500cdb4da9004130bb47f688ac82700d00000000001976a9140b83c17efb237d8906079338f6864994d362942f88ac00000000","txid":"bcc11e046fd47aa454335d91d3e4621caecd7de0719bc6c3ac7329147c1bc126","version":1,"time":1540659984,"locktime":0,"vin":[{"txid":"8bac4758c1aca10cf6f55262a8cdce9b040c0990af73c2903998240cfb1504c4","vout":0,"scriptSig":{"asm":"3045022100c3a874fea9e5f7df6bfd4337a24e8347d21b28ec1987e407253e181b00ba2ff6022018aaa54d41297cc2fa9391204715857fb10a2259119d65182a61b8c4bcb28d9d01 029e857134122939a57279b02312e296a02bcf0cf876ddc541bd372450215dbeac","hex":"483045022100c3a874fea9e5f7df6bfd4337a24e8347d21b28ec1987e407253e181b00ba2ff6022018aaa54d41297cc2fa9391204715857fb10a2259119d65182a61b8c4bcb28d9d0121029e857134122939a57279b02312e296a02bcf0cf876ddc541bd372450215dbeac"},"sequence":4294967295}],"vout":[{"value":0.01083195,"n":0,"scriptPubKey":{"asm":"OP_DUP OP_HASH160 4c28ee798243702bc4500cdb4da9004130bb47f6 OP_EQUALVERIFY OP_CHECKSIG","reqSigs":1,"type":"pubkeyhash","addresses":["pCVGbFvFLapGyskXvwfxG2ss21bRU9FqUh"]}},{"value":0.0088077,"n":1,"scriptPubKey":{"asm":"OP_DUP OP_HASH160 0b83c17efb237d8906079338f6864994d362942f OP_EQUALVERIFY OP_CHECKSIG","reqSigs":1,"type":"pubkeyhash","addresses":["p6bTUNYLEZHqrRChNXNeca1h6vaepr2kfs"]}}],"blockhash":"7f05da4bcf0bf5e0289e6589b8992e773965cae165944311a091c371d897e781","confirmations":283,"blocktime":1540659984}