{"hex":"01000000afa1c25b010000000000000000000000000000000000000000000000000000000000000000ffffffff04013f0101ffffffff0100000000000000001976a914e69b7af32c3f0a7cce008fe52f22ab1707b1138c88ac00000000","txid":"4384663d17cac30b01857d0ba7a7de015e999584f93a97b2651aa579d7dc5bc8","version":1,"time":1539482031,"locktime":0,"vin":[{"coinbase":"013f0101","sequence":4294967295}],"vout":[{"value":0,"n":0,"scriptPubKey":{"asm":"OP_DUP OP_HASH160 e69b7af32c3f0a7cce008fe52f22ab1707b1138c OP_EQUALVERIFY OP_CHECKSIG","reqSigs":1,"type":"pubkeyhash","addresses":["pSZusnW1BMqj4uFk3HCqygugw5pxaADUcT"]}}],"blockhash":"00000d2fc9b2832f0c4bc22dc0c8dd69ae3472d9ac9702d4e91ee44e0d7fadd1","confirmations":382,"blocktime":1539482031}