{"hex":"010000006075d85b01bcf9f11f19c27380ebce86103dc5f7ec1bea3ea55f0d018e6ce9b017662af9380100000049483045022100e411518f49163e6800792962b5ea4558431f3f142cbc7f53bb952ce60c12dfcf02201410c27550d787cc6bc01b695e7a9959e41f3ff13184e996c7f080deff1cd04401ffffffff03000000000000000000459e86d2010000002321020b1cd26fc4b9f080aea1cf7b667efd5e8453f70429056589831fa7f63506ddbfac9a6e0000000000001976a91494663191b35c746d9b53200027af769cfd8a5ec588ac00000000","txid":"0773a21c2774f747027dc346bfa440ab3946d6148e65121f5a35e99cb767e5c0","version":1,"time":1540912480,"locktime":0,"vin":[{"txid":"38f92a6617b0e96c8e010d5fa53eea1becf7c53d1086ceeb8073c2191ff1f9bc","vout":1,"scriptSig":{"asm":"3045022100e411518f49163e6800792962b5ea4558431f3f142cbc7f53bb952ce60c12dfcf02201410c27550d787cc6bc01b695e7a9959e41f3ff13184e996c7f080deff1cd04401","hex":"483045022100e411518f49163e6800792962b5ea4558431f3f142cbc7f53bb952ce60c12dfcf02201410c27550d787cc6bc01b695e7a9959e41f3ff13184e996c7f080deff1cd04401"},"sequence":4294967295}],"vout":[{"value":0,"n":0,"scriptPubKey":{"asm":"","type":"nonstandard"}},{"value":78.27004997,"n":1,"scriptPubKey":{"asm":"020b1cd26fc4b9f080aea1cf7b667efd5e8453f70429056589831fa7f63506ddbf OP_CHECKSIG","reqSigs":1,"type":"pubkey","addresses":["pECTDpfW4nW8hYte3f3F9ZQxwgWmBwmcYL"]}},{"value":0.00028314,"n":2,"scriptPubKey":{"asm":"OP_DUP OP_HASH160 94663191b35c746d9b53200027af769cfd8a5ec5 OP_EQUALVERIFY OP_CHECKSIG","reqSigs":1,"type":"pubkeyhash","addresses":["pK5Eddk3vr4yi7hrwuoQfuFmrHAeSuez22"]}}],"blockhash":"65abfde1e4c92a0d6aebab9a23d9cbb393c67ea3424b5acebfcd861c2da6a7b4","confirmations":164,"blocktime":1540912480}