{"hex":"010000005375d85b025524f3026ed82eea5070a104a5de806f51a0857e5db22f1b3636d1f920efd918000000006a4730440220300fdfec843a3a73f65fc95f09ae6042a42089646c65f3528ea7b664a876d5e9022027b83f09c63b41ec6326467a8a4cb508df471b4e8447a00a9e3eb72778deeb750121029586e400fc3778a7c8954c51ab5f62d5b04cfa41945d6c0fa3250a6a55100efdffffffff5524f3026ed82eea5070a104a5de806f51a0857e5db22f1b3636d1f920efd918010000006b483045022100e06bdbf3aa96e4e447bc07a844d39a3d0e79c1481e8794fb7ef5febf1883aa4c02205e62b6b5170e782615b1321c6419c79f57b235ee29b49aae8f43f92dd576e4fa0121035421f0ac9e78fd29d639bb2a1a133122825a8bdd7ca2d7709723c16bac5af707ffffffff02f2c61e00000000001976a914b1177ae5c22e9bde3673a2654a75e6566bedfbc188ac7549fc01000000001976a9143534f0ac70c3b893e04a8b67f41f4e1d6f7c0ed688ac00000000","txid":"436c545d9390fcbc255874a4e10eaf6428e6d6d0714ca6e7802ae3e978a1beb5","version":1,"time":1540912480,"locktime":0,"vin":[{"txid":"18d9ef20f9d136361b2fb25d7e85a0516f80dea504a17050ea2ed86e02f32455","vout":0,"scriptSig":{"asm":"30440220300fdfec843a3a73f65fc95f09ae6042a42089646c65f3528ea7b664a876d5e9022027b83f09c63b41ec6326467a8a4cb508df471b4e8447a00a9e3eb72778deeb7501 029586e400fc3778a7c8954c51ab5f62d5b04cfa41945d6c0fa3250a6a55100efd","hex":"4730440220300fdfec843a3a73f65fc95f09ae6042a42089646c65f3528ea7b664a876d5e9022027b83f09c63b41ec6326467a8a4cb508df471b4e8447a00a9e3eb72778deeb750121029586e400fc3778a7c8954c51ab5f62d5b04cfa41945d6c0fa3250a6a55100efd"},"sequence":4294967295},{"txid":"18d9ef20f9d136361b2fb25d7e85a0516f80dea504a17050ea2ed86e02f32455","vout":1,"scriptSig":{"asm":"3045022100e06bdbf3aa96e4e447bc07a844d39a3d0e79c1481e8794fb7ef5febf1883aa4c02205e62b6b5170e782615b1321c6419c79f57b235ee29b49aae8f43f92dd576e4fa01 035421f0ac9e78fd29d639bb2a1a133122825a8bdd7ca2d7709723c16bac5af707","hex":"483045022100e06bdbf3aa96e4e447bc07a844d39a3d0e79c1481e8794fb7ef5febf1883aa4c02205e62b6b5170e782615b1321c6419c79f57b235ee29b49aae8f43f92dd576e4fa0121035421f0ac9e78fd29d639bb2a1a133122825a8bdd7ca2d7709723c16bac5af707"},"sequence":4294967295}],"vout":[{"value":0.0201701,"n":0,"scriptPubKey":{"asm":"OP_DUP OP_HASH160 b1177ae5c22e9bde3673a2654a75e6566bedfbc1 OP_EQUALVERIFY OP_CHECKSIG","reqSigs":1,"type":"pubkeyhash","addresses":["pMgww5nQLDS1uhuckvg6Eca4S5tCoA4fhP"]}},{"value":0.33311093,"n":1,"scriptPubKey":{"asm":"OP_DUP OP_HASH160 3534f0ac70c3b893e04a8b67f41f4e1d6f7c0ed6 OP_EQUALVERIFY OP_CHECKSIG","reqSigs":1,"type":"pubkeyhash","addresses":["pAPuSDZTX84BBtfDNb4Z2a3JYChnGpcP1D"]}}],"blockhash":"65abfde1e4c92a0d6aebab9a23d9cbb393c67ea3424b5acebfcd861c2da6a7b4","confirmations":164,"blocktime":1540912480}