{"hex":"01000000e0a1c25b010000000000000000000000000000000000000000000000000000000000000000ffffffff0401460102ffffffff0100000000000000001976a914ec57949e7b35a26033c504b7f9f595ca4f9359bd88ac00000000","txid":"3da846b47dd48a80f2ee86ebd5651c57909c8997e74ea1337910adea6b0ce4bf","version":1,"time":1539482083,"locktime":0,"vin":[{"coinbase":"01460102","sequence":4294967295}],"vout":[{"value":0,"n":0,"scriptPubKey":{"asm":"OP_DUP OP_HASH160 ec57949e7b35a26033c504b7f9f595ca4f9359bd OP_EQUALVERIFY OP_CHECKSIG","reqSigs":1,"type":"pubkeyhash","addresses":["pT6EbBQwxApsG2fALtgnJS5iFKLEUJivwu"]}}],"blockhash":"00000a5fdcc15d501f1155c73e9d26e324c2de37db4ba7b2e99699b52cb5af11","confirmations":89,"blocktime":1539482083}