{"hex":"01000000f020db5b010882840b912e45f91be8ead5b45cbf7c88c8506523b3ba61926598d9d379ea4d0100000049483045022100857085aac90bf7b132ff2bbfb373a779b2088bd23b6c9074b6fcc5565f1cca3302207ce2ef5d8ac949516ffa4a891366edc16f5ce342837f1703377c5085f33737cf01ffffffff0300000000000000000000aa6bd3010000002321020b1cd26fc4b9f080aea1cf7b667efd5e8453f70429056589831fa7f63506ddbfac75100000000000001976a91413cd926daa0b2e1422cabca27e3cbc3aebbee60e88ac00000000","txid":"0308aefc3488e306d4cb89e54bd1373309ff9b4ec8932015288e2ddbd7e37ecd","version":1,"time":1541087472,"locktime":0,"vin":[{"txid":"4dea79d3d998659261bab3236550c8887cbf5cb4d5eae81bf9452e910b848208","vout":1,"scriptSig":{"asm":"3045022100857085aac90bf7b132ff2bbfb373a779b2088bd23b6c9074b6fcc5565f1cca3302207ce2ef5d8ac949516ffa4a891366edc16f5ce342837f1703377c5085f33737cf01","hex":"483045022100857085aac90bf7b132ff2bbfb373a779b2088bd23b6c9074b6fcc5565f1cca3302207ce2ef5d8ac949516ffa4a891366edc16f5ce342837f1703377c5085f33737cf01"},"sequence":4294967295}],"vout":[{"value":0,"n":0,"scriptPubKey":{"asm":"","type":"nonstandard"}},{"value":78.42015744,"n":1,"scriptPubKey":{"asm":"020b1cd26fc4b9f080aea1cf7b667efd5e8453f70429056589831fa7f63506ddbf OP_CHECKSIG","reqSigs":1,"type":"pubkey","addresses":["pECTDpfW4nW8hYte3f3F9ZQxwgWmBwmcYL"]}},{"value":0.00004213,"n":2,"scriptPubKey":{"asm":"OP_DUP OP_HASH160 13cd926daa0b2e1422cabca27e3cbc3aebbee60e OP_EQUALVERIFY OP_CHECKSIG","reqSigs":1,"type":"pubkeyhash","addresses":["p7MHJk1NCoVwVPjx7mEGWrpeSkLSYSZyuV"]}}],"blockhash":"068594221af4c1cf4659fea91299f49d5f9d035925769c40d22053910bc67c24","confirmations":99,"blocktime":1541087472}