{"hex":"01000000eb20db5b01379f20f04900fb4f028c0fcb1993eaaeeba0fe96e0dde338569f1061d4259631000000006a47304402207f6b0ebe0a2840f728cc6b108c7b08c8d3fc070818e8f0d49f21bbbf9dfdf795022008f2840edb8888e8e778869b5584df80ef3bb35d40279597a0008b379cb8494f01210345e4fce093bc1434d688ae5cde257fa7b20c604ff129e1f8f297486190b7ceb2ffffffff021a9d1f00000000001976a91467c1f3674d48a0efefe88e1c8689a7c52d8a38c788aca2a34b00000000001976a914a9cd128e26663c4ab807553618fd905efd0529e488ac00000000","txid":"39a019dd59583c081e6769ccfbbf2dab2d1a550c5a301c08459cf45a876b6438","version":1,"time":1541087472,"locktime":0,"vin":[{"txid":"319625d461109f5638e3dde096fea0ebaeea9319cb0f8c024ffb0049f0209f37","vout":0,"scriptSig":{"asm":"304402207f6b0ebe0a2840f728cc6b108c7b08c8d3fc070818e8f0d49f21bbbf9dfdf795022008f2840edb8888e8e778869b5584df80ef3bb35d40279597a0008b379cb8494f01 0345e4fce093bc1434d688ae5cde257fa7b20c604ff129e1f8f297486190b7ceb2","hex":"47304402207f6b0ebe0a2840f728cc6b108c7b08c8d3fc070818e8f0d49f21bbbf9dfdf795022008f2840edb8888e8e778869b5584df80ef3bb35d40279597a0008b379cb8494f01210345e4fce093bc1434d688ae5cde257fa7b20c604ff129e1f8f297486190b7ceb2"},"sequence":4294967295}],"vout":[{"value":0.02071834,"n":0,"scriptPubKey":{"asm":"OP_DUP OP_HASH160 67c1f3674d48a0efefe88e1c8689a7c52d8a38c7 OP_EQUALVERIFY OP_CHECKSIG","reqSigs":1,"type":"pubkeyhash","addresses":["pF1C9QF7sAppiSu6LYmjWAF4xC7QD9vuhP"]}},{"value":0.0495709,"n":1,"scriptPubKey":{"asm":"OP_DUP OP_HASH160 a9cd128e26663c4ab807553618fd905efd0529e4 OP_EQUALVERIFY OP_CHECKSIG","reqSigs":1,"type":"pubkeyhash","addresses":["pM2Q4oySwmUJrw3VEzMWrtEgJMy4Vbv1GK"]}}],"blockhash":"068594221af4c1cf4659fea91299f49d5f9d035925769c40d22053910bc67c24","confirmations":99,"blocktime":1541087472}