{"hex":"0100000074a3c25b01643c0d86367e2a75cfad005132d75fb6994f79c65bba611e70c94a3bff22d921000000006b483045022100b030f90922621b05e2f90caeda13560167537e51943ce451d3ad25c4bf45664e02200d38d70130ce0252dbab356f4022b9d2feeafb8f991a5163cf010ece0dd2932a012103324cf022aafb73b8fc8aab2306e2d488322687dbf472a9e4caa65177cc90cc7dffffffff0200fa0c34c38323001976a914b50a80ede2603cf6ef1b587728fe04acc71493b288ac0088526a740000001976a91400eadc74da710bda77ce2fa5b8d39eabf1783dfa88ac00000000","txid":"4576423a0188ae53afbcd64c3c00f3c3976016ee8b92db40b7cfd338665508d5","version":1,"time":1539482496,"locktime":0,"vin":[{"txid":"21d922ff3b4ac9701e61ba5bc6794f99b65fd7325100adcf752a7e36860d3c64","vout":0,"scriptSig":{"asm":"3045022100b030f90922621b05e2f90caeda13560167537e51943ce451d3ad25c4bf45664e02200d38d70130ce0252dbab356f4022b9d2feeafb8f991a5163cf010ece0dd2932a01 03324cf022aafb73b8fc8aab2306e2d488322687dbf472a9e4caa65177cc90cc7d","hex":"483045022100b030f90922621b05e2f90caeda13560167537e51943ce451d3ad25c4bf45664e02200d38d70130ce0252dbab356f4022b9d2feeafb8f991a5163cf010ece0dd2932a012103324cf022aafb73b8fc8aab2306e2d488322687dbf472a9e4caa65177cc90cc7d"},"sequence":4294967295}],"vout":[{"value":99964986,"n":0,"scriptPubKey":{"asm":"OP_DUP OP_HASH160 b50a80ede2603cf6ef1b587728fe04acc71493b2 OP_EQUALVERIFY OP_CHECKSIG","reqSigs":1,"type":"pubkeyhash","addresses":["pN3q6EQBdrcyoyHPtyMYwjmN52ybfML8Jb"]}},{"value":5000,"n":1,"scriptPubKey":{"asm":"OP_DUP OP_HASH160 00eadc74da710bda77ce2fa5b8d39eabf1783dfa OP_EQUALVERIFY OP_CHECKSIG","reqSigs":1,"type":"pubkeyhash","addresses":["p5dRZ9MeyiKDma1pAUrsmvEK4NBmmdC4ZN"]}}],"blockhash":"f1277b9dfdd8ea538b3395ef8740cf9f047830e7f2612308ad22720cc455fd6a","confirmations":341,"blocktime":1539482496}