{"hex":"0100000080a3c25b0128dd95effca4266acf9d784f1ecb3c0dbe9f7500bfe79588b7563c72935cf076010000004847304402202f713982aa45fefa0ebeff2878bd5eda73d0c00078749cd61a62710246f7bf59022069b96fa86a6e7d0fc51429e13205ac33113f1563cf6d450c4b23a1f6fb02e09d01ffffffff020000000000000000000046c323000000002321037e20b6f9df2b1191d7e929adc4ec86bb0a3b438e7822a1a46cd9d0caef60b746ac00000000","txid":"5954296992c357d30ab52f3effaed969294099af2d1a4f4c78a8fbc5e5dd2e8f","version":1,"time":1539482496,"locktime":0,"vin":[{"txid":"76f05c93723c56b78895e7bf00759fbe0d3ccb1e4f789dcf6a26a4fcef95dd28","vout":1,"scriptSig":{"asm":"304402202f713982aa45fefa0ebeff2878bd5eda73d0c00078749cd61a62710246f7bf59022069b96fa86a6e7d0fc51429e13205ac33113f1563cf6d450c4b23a1f6fb02e09d01","hex":"47304402202f713982aa45fefa0ebeff2878bd5eda73d0c00078749cd61a62710246f7bf59022069b96fa86a6e7d0fc51429e13205ac33113f1563cf6d450c4b23a1f6fb02e09d01"},"sequence":4294967295}],"vout":[{"value":0,"n":0,"scriptPubKey":{"asm":"","type":"nonstandard"}},{"value":6,"n":1,"scriptPubKey":{"asm":"037e20b6f9df2b1191d7e929adc4ec86bb0a3b438e7822a1a46cd9d0caef60b746 OP_CHECKSIG","reqSigs":1,"type":"pubkey","addresses":["p6vr35KwzEodbGx2Tqp8uLkcMLPNmxZhJS"]}}],"blockhash":"f1277b9dfdd8ea538b3395ef8740cf9f047830e7f2612308ad22720cc455fd6a","confirmations":55,"blocktime":1539482496}