{"hex":"01000000ac38d65b02cbff42e8881a9dea3b7777f2471f08e087fba20fd3be14a6beb899619c2a4a9f000000006b483045022100acbe4433838a748e3e18ffc42ad670a900d1c85af48de0615149bc7754da056802207bbf50ae4188256edf47a64d55a4a05fea5a3778521ce1249c04679d3bf3f499012102c189b5486dc2771cc25227f9a9c2c3715814e24db8640079b8ec7b2f4874e9d6ffffffffcbff42e8881a9dea3b7777f2471f08e087fba20fd3be14a6beb899619c2a4a9f010000006a4730440220388a8af45958214549613138870572027ee24c70f718bf9fcdffedc8eff18b3802207b7b820d18f8e16d4414271d653ff9e8eace2742a7b0cc3c0838dd59f9a7e2b20121030005ba3d43eb33f845883af925a247e4e057ba38d59775460a0110615b99e88dffffffff0239e41200000000001976a9147497242bd11fe2ede7052da7044e209675fb284388ac50b0f600000000001976a9143b5abf350eb95e7cbc13d41ba2f36e9a46b1e97888ac00000000","txid":"96559cdcd974507b3ef9dd202891504eb9a48f51c2bc18e3591ea49f4b29347b","version":1,"time":1540765872,"locktime":0,"vin":[{"txid":"9f4a2a9c6199b8bea614bed30fa2fb87e0081f47f277773bea9d1a88e842ffcb","vout":0,"scriptSig":{"asm":"3045022100acbe4433838a748e3e18ffc42ad670a900d1c85af48de0615149bc7754da056802207bbf50ae4188256edf47a64d55a4a05fea5a3778521ce1249c04679d3bf3f49901 02c189b5486dc2771cc25227f9a9c2c3715814e24db8640079b8ec7b2f4874e9d6","hex":"483045022100acbe4433838a748e3e18ffc42ad670a900d1c85af48de0615149bc7754da056802207bbf50ae4188256edf47a64d55a4a05fea5a3778521ce1249c04679d3bf3f499012102c189b5486dc2771cc25227f9a9c2c3715814e24db8640079b8ec7b2f4874e9d6"},"sequence":4294967295},{"txid":"9f4a2a9c6199b8bea614bed30fa2fb87e0081f47f277773bea9d1a88e842ffcb","vout":1,"scriptSig":{"asm":"30440220388a8af45958214549613138870572027ee24c70f718bf9fcdffedc8eff18b3802207b7b820d18f8e16d4414271d653ff9e8eace2742a7b0cc3c0838dd59f9a7e2b201 030005ba3d43eb33f845883af925a247e4e057ba38d59775460a0110615b99e88d","hex":"4730440220388a8af45958214549613138870572027ee24c70f718bf9fcdffedc8eff18b3802207b7b820d18f8e16d4414271d653ff9e8eace2742a7b0cc3c0838dd59f9a7e2b20121030005ba3d43eb33f845883af925a247e4e057ba38d59775460a0110615b99e88d"},"sequence":4294967295}],"vout":[{"value":0.01238073,"n":0,"scriptPubKey":{"asm":"OP_DUP OP_HASH160 7497242bd11fe2ede7052da7044e209675fb2843 OP_EQUALVERIFY OP_CHECKSIG","reqSigs":1,"type":"pubkeyhash","addresses":["pGB3eSREqWQ2X4XJ3unYx2935biwBNUdc2"]}},{"value":0.16166992,"n":1,"scriptPubKey":{"asm":"OP_DUP OP_HASH160 3b5abf350eb95e7cbc13d41ba2f36e9a46b1e978 OP_EQUALVERIFY OP_CHECKSIG","reqSigs":1,"type":"pubkeyhash","addresses":["pAxQnEEM9rXgoK2L7pYWKD7ft4TDcELnLK"]}}],"blockhash":"b2b16a8d33cabd2ef558277cd29ed802db4b0b00c0a08bc2f3b03f4fa3e2a3ef","confirmations":258,"blocktime":1540765872}