{"hex":"01000000b038d65b0128c23a2be483e7c0727ccc32851f33c50c01298da8bbc3d2b8c3beb2c6685d53020000004847304402200112ac93d33e3da2bb5efbd9e24a45ab0d128e2395b0f3f192ab0c1842d9609402201c5f2b79db5f9a9fd7e928711528d4ca295fead69d0298498d8151f2b6a4ade401ffffffff0400000000000000000000a9a1d1010000002321020b1cd26fc4b9f080aea1cf7b667efd5e8453f70429056589831fa7f63506ddbfacd7f4b0d1010000002321020b1cd26fc4b9f080aea1cf7b667efd5e8453f70429056589831fa7f63506ddbfacad350000000000001976a914647e9b327f6e6cc3bcd2b98cb8a85fc3160d6a4588ac00000000","txid":"fd9ab661d67d4aac4dd7b1ee05a865023f50c5fed7e0172b5ba71fb0cd6c931d","version":1,"time":1540765872,"locktime":0,"vin":[{"txid":"535d68c6b2bec3b8d2c3bba88d29010cc5331f8532cc7c72c0e783e42b3ac228","vout":2,"scriptSig":{"asm":"304402200112ac93d33e3da2bb5efbd9e24a45ab0d128e2395b0f3f192ab0c1842d9609402201c5f2b79db5f9a9fd7e928711528d4ca295fead69d0298498d8151f2b6a4ade401","hex":"47304402200112ac93d33e3da2bb5efbd9e24a45ab0d128e2395b0f3f192ab0c1842d9609402201c5f2b79db5f9a9fd7e928711528d4ca295fead69d0298498d8151f2b6a4ade401"},"sequence":4294967295}],"vout":[{"value":0,"n":0,"scriptPubKey":{"asm":"","type":"nonstandard"}},{"value":78.12,"n":1,"scriptPubKey":{"asm":"020b1cd26fc4b9f080aea1cf7b667efd5e8453f70429056589831fa7f63506ddbf OP_CHECKSIG","reqSigs":1,"type":"pubkey","addresses":["pECTDpfW4nW8hYte3f3F9ZQxwgWmBwmcYL"]}},{"value":78.13002455,"n":2,"scriptPubKey":{"asm":"020b1cd26fc4b9f080aea1cf7b667efd5e8453f70429056589831fa7f63506ddbf OP_CHECKSIG","reqSigs":1,"type":"pubkey","addresses":["pECTDpfW4nW8hYte3f3F9ZQxwgWmBwmcYL"]}},{"value":0.00013741,"n":3,"scriptPubKey":{"asm":"OP_DUP OP_HASH160 647e9b327f6e6cc3bcd2b98cb8a85fc3160d6a45 OP_EQUALVERIFY OP_CHECKSIG","reqSigs":1,"type":"pubkeyhash","addresses":["pEhwSeKiP8Q9UV5H4Vwts61nBy8VHfUUbd"]}}],"blockhash":"b2b16a8d33cabd2ef558277cd29ed802db4b0b00c0a08bc2f3b03f4fa3e2a3ef","confirmations":258,"blocktime":1540765872}