{"hex":"01000000fad8d95b0227d31d619ad3cf7a4bbf2c39c7d54fbec0997705c86ebb6bf23e1e5dea8de7e0010000006b483045022100c80b6b2b5dfd1536f28f38aaa641aae61fdd41d33625194055a185b6ceb49cbb02202af9aba65eb1bcd622b967521e470cd6b6c8733dd47d7e294662745ce1a6c2ee012102d3fa09cf49d9a7d6ff5a4fdbd7adc44d690a77b0be7bd9fa3f8bc0ed5fa44b25ffffffffdb14eb8837cfdbb66bc8fbdd0d7e349cdd72216eeb2fc8eb0f4ec93071cd826b000000006b483045022100a745c08f63b6527f746362601d75d7974bee5a75cf6d47a9cffdf5082c3982ce02205afdde639b5e56cfb3c38f25a4995e67d5583b9fc6320e74f1cbb436e421f8c2012103519b2549c28c436857f50dde7790e9271c6def13e4d15390ee4b36d9c8128901ffffffff025e551600000000001976a9144c28ee798243702bc4500cdb4da9004130bb47f688acc2d71801000000001976a914e268a1cef61876bcc0ce34ed269a97e1e16d0cad88ac00000000","txid":"0f9c9012b11e22f366a4ee29a0004d5c46b6991f66fef583a0d2f1e59b6491f1","version":1,"time":1541003520,"locktime":0,"vin":[{"txid":"e0e78dea5d1e3ef26bbb6ec8057799c0be4fd5c7392cbf4b7acfd39a611dd327","vout":1,"scriptSig":{"asm":"3045022100c80b6b2b5dfd1536f28f38aaa641aae61fdd41d33625194055a185b6ceb49cbb02202af9aba65eb1bcd622b967521e470cd6b6c8733dd47d7e294662745ce1a6c2ee01 02d3fa09cf49d9a7d6ff5a4fdbd7adc44d690a77b0be7bd9fa3f8bc0ed5fa44b25","hex":"483045022100c80b6b2b5dfd1536f28f38aaa641aae61fdd41d33625194055a185b6ceb49cbb02202af9aba65eb1bcd622b967521e470cd6b6c8733dd47d7e294662745ce1a6c2ee012102d3fa09cf49d9a7d6ff5a4fdbd7adc44d690a77b0be7bd9fa3f8bc0ed5fa44b25"},"sequence":4294967295},{"txid":"6b82cd7130c94e0febc82feb6e2172dd9c347e0dddfbc86bb6dbcf3788eb14db","vout":0,"scriptSig":{"asm":"3045022100a745c08f63b6527f746362601d75d7974bee5a75cf6d47a9cffdf5082c3982ce02205afdde639b5e56cfb3c38f25a4995e67d5583b9fc6320e74f1cbb436e421f8c201 03519b2549c28c436857f50dde7790e9271c6def13e4d15390ee4b36d9c8128901","hex":"483045022100a745c08f63b6527f746362601d75d7974bee5a75cf6d47a9cffdf5082c3982ce02205afdde639b5e56cfb3c38f25a4995e67d5583b9fc6320e74f1cbb436e421f8c2012103519b2549c28c436857f50dde7790e9271c6def13e4d15390ee4b36d9c8128901"},"sequence":4294967295}],"vout":[{"value":0.01463646,"n":0,"scriptPubKey":{"asm":"OP_DUP OP_HASH160 4c28ee798243702bc4500cdb4da9004130bb47f6 OP_EQUALVERIFY OP_CHECKSIG","reqSigs":1,"type":"pubkeyhash","addresses":["pCVGbFvFLapGyskXvwfxG2ss21bRU9FqUh"]}},{"value":0.18405314,"n":1,"scriptPubKey":{"asm":"OP_DUP OP_HASH160 e268a1cef61876bcc0ce34ed269a97e1e16d0cad OP_EQUALVERIFY OP_CHECKSIG","reqSigs":1,"type":"pubkeyhash","addresses":["pSBiG2FvXNYejCMGFuaETfuTLqA7qWuVp4"]}}],"blockhash":"d30c07269f11e8fff685a9b97609bca915fa6e65c9a4246253c72fc043c126ee","confirmations":132,"blocktime":1541003520}