{"hex":"0100000000d9d95b07112ef102d1c6e42f75c68971944bb7410bf4df8c44f2cec9211d62ab7b7acecf030000006a473044022020fdbe277e242f965921222a1cc8e772f0c94fb94290a4c4950c81a803bf6667022052665ebfcb0af86035be8e20a7d7d037bae641cc049e40bffaf598645da25b3d01210210c18e3b5aba3a6167f17a2fd6b65419de165b4388a78f0e815f0e3bc60d34f3ffffffff1bbcb6e89048eded1d916d056474ffade978baf56683225c2d572191a21f193e030000006a4730440220374558ce2145198cd2f73e30f89046e772e9c9e8d1b47650d2b20598c44a2f3d02202f71d71ac1122f273f6ba1a2c5279b6360690a7431c31ac6e3eb4e5809de110f01210210c18e3b5aba3a6167f17a2fd6b65419de165b4388a78f0e815f0e3bc60d34f3ffffffff881de81a2df9501b4b48d7355ac7bc64a6a5e0d1dae04abbaf9faf8067b9a492020000006a4730440220707559deda809fb5becf8c73d1b445a2f68dac53d1bc00a8cc4587cac369360b02204cff5d6c33906a05c1e834db55aa4c059f64b9a1eeb760796671cb8423d61bd701210210c18e3b5aba3a6167f17a2fd6b65419de165b4388a78f0e815f0e3bc60d34f3ffffffffa11de3707bb72d1599964f560ddfc00eda6b1a5303f155aefe0ffd6447bc2d17020000006a47304402204b87ce7c1a6d03faa0f720ff967f0320fe40481d7c10816eb956c4b5a55d82af02201a0127d4809234cf90aea93e091b2fa5e00d123cc572bd79e443c6800a9539d201210210c18e3b5aba3a6167f17a2fd6b65419de165b4388a78f0e815f0e3bc60d34f3ffffffffccef6e92c52773a3308379f1dec3617c652bb39ed54af03d78da5154c5273ee9030000006b48304502210081496b5d5ec216479ba291176bcb641d2893412ba868bfdc858733287b17f9770220516f1df3043829cf6093b560ec79bf41792fc22b0d2e543e45fc86181263c9a701210210c18e3b5aba3a6167f17a2fd6b65419de165b4388a78f0e815f0e3bc60d34f3ffffffffeca001818654b6f249c879d7be6f605dff99e5ce5171a5a5b6a622028ab1bcd4030000006b483045022100e68945672f1c8cb979eebf39d6ba746ed91de34f94d53e4aadfdc6bd19b1582402207466f3be4bf7525bc9deb4039dc88dc5a2c5e35d4b9b7ffa0975795951af44f501210210c18e3b5aba3a6167f17a2fd6b65419de165b4388a78f0e815f0e3bc60d34f3fffffffff2fcfee4934b3e42adc1ef4611ae7516ee2e8d09998ba3e2b2a93abd50015920030000006b483045022100d21f7125b80c98b4c21b9869de88212603d07f34421c7314790e09b03c0ffb180220669f2e72ee2206aa12f1f2686be8a3cc27e7ebb17c08f238c2427f04f791e99f01210210c18e3b5aba3a6167f17a2fd6b65419de165b4388a78f0e815f0e3bc60d34f3ffffffff030000000000000000006c07250a0000000023210210c18e3b5aba3a6167f17a2fd6b65419de165b4388a78f0e815f0e3bc60d34f3ac1c3d0000000000001976a9147a58c93fa5e34c0e7c16492ee8061977495aac7c88ac00000000","txid":"5bf409828eac291c20c6f6886e74a96b464e67d4c759db9e89eb0f28fcd47a11","version":1,"time":1541003520,"locktime":0,"vin":[{"txid":"cfce7a7bab621d21c9cef2448cdff40b41b74b947189c6752fe4c6d102f12e11","vout":3,"scriptSig":{"asm":"3044022020fdbe277e242f965921222a1cc8e772f0c94fb94290a4c4950c81a803bf6667022052665ebfcb0af86035be8e20a7d7d037bae641cc049e40bffaf598645da25b3d01 0210c18e3b5aba3a6167f17a2fd6b65419de165b4388a78f0e815f0e3bc60d34f3","hex":"473044022020fdbe277e242f965921222a1cc8e772f0c94fb94290a4c4950c81a803bf6667022052665ebfcb0af86035be8e20a7d7d037bae641cc049e40bffaf598645da25b3d01210210c18e3b5aba3a6167f17a2fd6b65419de165b4388a78f0e815f0e3bc60d34f3"},"sequence":4294967295},{"txid":"3e191fa29121572d5c228366f5ba78e9adff7464056d911deded4890e8b6bc1b","vout":3,"scriptSig":{"asm":"30440220374558ce2145198cd2f73e30f89046e772e9c9e8d1b47650d2b20598c44a2f3d02202f71d71ac1122f273f6ba1a2c5279b6360690a7431c31ac6e3eb4e5809de110f01 0210c18e3b5aba3a6167f17a2fd6b65419de165b4388a78f0e815f0e3bc60d34f3","hex":"4730440220374558ce2145198cd2f73e30f89046e772e9c9e8d1b47650d2b20598c44a2f3d02202f71d71ac1122f273f6ba1a2c5279b6360690a7431c31ac6e3eb4e5809de110f01210210c18e3b5aba3a6167f17a2fd6b65419de165b4388a78f0e815f0e3bc60d34f3"},"sequence":4294967295},{"txid":"92a4b96780af9fafbb4ae0dad1e0a5a664bcc75a35d7484b1b50f92d1ae81d88","vout":2,"scriptSig":{"asm":"30440220707559deda809fb5becf8c73d1b445a2f68dac53d1bc00a8cc4587cac369360b02204cff5d6c33906a05c1e834db55aa4c059f64b9a1eeb760796671cb8423d61bd701 0210c18e3b5aba3a6167f17a2fd6b65419de165b4388a78f0e815f0e3bc60d34f3","hex":"4730440220707559deda809fb5becf8c73d1b445a2f68dac53d1bc00a8cc4587cac369360b02204cff5d6c33906a05c1e834db55aa4c059f64b9a1eeb760796671cb8423d61bd701210210c18e3b5aba3a6167f17a2fd6b65419de165b4388a78f0e815f0e3bc60d34f3"},"sequence":4294967295},{"txid":"172dbc4764fd0ffeae55f103531a6bda0ec0df0d564f9699152db77b70e31da1","vout":2,"scriptSig":{"asm":"304402204b87ce7c1a6d03faa0f720ff967f0320fe40481d7c10816eb956c4b5a55d82af02201a0127d4809234cf90aea93e091b2fa5e00d123cc572bd79e443c6800a9539d201 0210c18e3b5aba3a6167f17a2fd6b65419de165b4388a78f0e815f0e3bc60d34f3","hex":"47304402204b87ce7c1a6d03faa0f720ff967f0320fe40481d7c10816eb956c4b5a55d82af02201a0127d4809234cf90aea93e091b2fa5e00d123cc572bd79e443c6800a9539d201210210c18e3b5aba3a6167f17a2fd6b65419de165b4388a78f0e815f0e3bc60d34f3"},"sequence":4294967295},{"txid":"e93e27c55451da783df04ad59eb32b657c61c3def1798330a37327c5926eefcc","vout":3,"scriptSig":{"asm":"304502210081496b5d5ec216479ba291176bcb641d2893412ba868bfdc858733287b17f9770220516f1df3043829cf6093b560ec79bf41792fc22b0d2e543e45fc86181263c9a701 0210c18e3b5aba3a6167f17a2fd6b65419de165b4388a78f0e815f0e3bc60d34f3","hex":"48304502210081496b5d5ec216479ba291176bcb641d2893412ba868bfdc858733287b17f9770220516f1df3043829cf6093b560ec79bf41792fc22b0d2e543e45fc86181263c9a701210210c18e3b5aba3a6167f17a2fd6b65419de165b4388a78f0e815f0e3bc60d34f3"},"sequence":4294967295},{"txid":"d4bcb18a0222a6b6a5a57151cee599ff5d606fbed779c849f2b654868101a0ec","vout":3,"scriptSig":{"asm":"3045022100e68945672f1c8cb979eebf39d6ba746ed91de34f94d53e4aadfdc6bd19b1582402207466f3be4bf7525bc9deb4039dc88dc5a2c5e35d4b9b7ffa0975795951af44f501 0210c18e3b5aba3a6167f17a2fd6b65419de165b4388a78f0e815f0e3bc60d34f3","hex":"483045022100e68945672f1c8cb979eebf39d6ba746ed91de34f94d53e4aadfdc6bd19b1582402207466f3be4bf7525bc9deb4039dc88dc5a2c5e35d4b9b7ffa0975795951af44f501210210c18e3b5aba3a6167f17a2fd6b65419de165b4388a78f0e815f0e3bc60d34f3"},"sequence":4294967295},{"txid":"20590150bd3aa9b2e2a38b99098d2eee1675ae1146efc1ad423e4b93e4fefcf2","vout":3,"scriptSig":{"asm":"3045022100d21f7125b80c98b4c21b9869de88212603d07f34421c7314790e09b03c0ffb180220669f2e72ee2206aa12f1f2686be8a3cc27e7ebb17c08f238c2427f04f791e99f01 0210c18e3b5aba3a6167f17a2fd6b65419de165b4388a78f0e815f0e3bc60d34f3","hex":"483045022100d21f7125b80c98b4c21b9869de88212603d07f34421c7314790e09b03c0ffb180220669f2e72ee2206aa12f1f2686be8a3cc27e7ebb17c08f238c2427f04f791e99f01210210c18e3b5aba3a6167f17a2fd6b65419de165b4388a78f0e815f0e3bc60d34f3"},"sequence":4294967295}],"vout":[{"value":0,"n":0,"scriptPubKey":{"asm":"","type":"nonstandard"}},{"value":1.70198892,"n":1,"scriptPubKey":{"asm":"0210c18e3b5aba3a6167f17a2fd6b65419de165b4388a78f0e815f0e3bc60d34f3 OP_CHECKSIG","reqSigs":1,"type":"pubkey","addresses":["pFf1Gp4G6PCkSUxUY1XLwNBH2ji6sBJMC3"]}},{"value":0.00015644,"n":2,"scriptPubKey":{"asm":"OP_DUP OP_HASH160 7a58c93fa5e34c0e7c16492ee8061977495aac7c OP_EQUALVERIFY OP_CHECKSIG","reqSigs":1,"type":"pubkeyhash","addresses":["pGhV15RkjbtFhS6uHd3xCvPoNUNQoDMiqz"]}}],"blockhash":"d30c07269f11e8fff685a9b97609bca915fa6e65c9a4246253c72fc043c126ee","confirmations":132,"blocktime":1541003520}