{"hex":"010000002da2c25b010000000000000000000000000000000000000000000000000000000000000000ffffffff04014f0101ffffffff0100000000000000001976a914227edab8512bf7bc3e04b4c4d6a9346891bacac188ac00000000","txid":"9cf894e32b34ee0e30042eafdc45946872cfdadd65d13e7677dd8e48f7f22134","version":1,"time":1539482157,"locktime":0,"vin":[{"coinbase":"014f0101","sequence":4294967295}],"vout":[{"value":0,"n":0,"scriptPubKey":{"asm":"OP_DUP OP_HASH160 227edab8512bf7bc3e04b4c4d6a9346891bacac1 OP_EQUALVERIFY OP_CHECKSIG","reqSigs":1,"type":"pubkeyhash","addresses":["p8gy9Dxhim3KvwmWtt2jh7PMnzaWbsVbVH"]}}],"blockhash":"0000004adfdeec2ca7124d514129bf7e0eaf9bf0472b3c631f2b4815fb8c3f25","confirmations":366,"blocktime":1539482157}