{"hex":"0100000000c2d65b01fee3f747490944d14b21d8b9b7137caaefe2f1fb51a4fb458406ce03c95e18b60100000049483045022100f1c8b8d851de8e1db9eb55a890677b108ab768b83e2443f67d431b1a414bf1ac0220677fafc4c80a08f95d061820f66a9fb01fd828b8b29493d5713fae16eee2f50c01ffffffff03000000000000000000f0f2a3d1010000002321020b1cd26fc4b9f080aea1cf7b667efd5e8453f70429056589831fa7f63506ddbfac50f80c00000000001976a914f0371486e89ca3a2057c60329aff065cd986aee188ac00000000","txid":"46b7e427b9104d282956ce139ecea04407d1e385447d9606cfc241aa94054446","version":1,"time":1540801024,"locktime":0,"vin":[{"txid":"b6185ec903ce068445fba451fbf1e2efaa7c13b7b9d8214bd144094947f7e3fe","vout":1,"scriptSig":{"asm":"3045022100f1c8b8d851de8e1db9eb55a890677b108ab768b83e2443f67d431b1a414bf1ac0220677fafc4c80a08f95d061820f66a9fb01fd828b8b29493d5713fae16eee2f50c01","hex":"483045022100f1c8b8d851de8e1db9eb55a890677b108ab768b83e2443f67d431b1a414bf1ac0220677fafc4c80a08f95d061820f66a9fb01fd828b8b29493d5713fae16eee2f50c01"},"sequence":4294967295}],"vout":[{"value":0,"n":0,"scriptPubKey":{"asm":"","type":"nonstandard"}},{"value":78.1215,"n":1,"scriptPubKey":{"asm":"020b1cd26fc4b9f080aea1cf7b667efd5e8453f70429056589831fa7f63506ddbf OP_CHECKSIG","reqSigs":1,"type":"pubkey","addresses":["pECTDpfW4nW8hYte3f3F9ZQxwgWmBwmcYL"]}},{"value":0.0085,"n":2,"scriptPubKey":{"asm":"OP_DUP OP_HASH160 f0371486e89ca3a2057c60329aff065cd986aee1 OP_EQUALVERIFY OP_CHECKSIG","reqSigs":1,"type":"pubkeyhash","addresses":["pTSiMnNaB4wjS22bEGEEkNcu17kmCfBCLj"]}}],"blockhash":"ae3e2efa8e343d32d7de3208dc0093d5478c43f27057e43d3774809715a74942","confirmations":221,"blocktime":1540801024}