{"hex":"01000000f6c1d65b01dd886ea63fc34fb35b6af51ae51a4900bbe58540bb3f24830c67dbe49ba0a45b000000006b483045022100ee7295edef7afd38abeb9a3cea6d3932f6bd099bfb0eb97ff9024ab59e7b33a002206fd5ac9a3e8547be9000b86f0972cd0ef126e633a7efb74d4e45cf9811029f51012102f5c34d804b15f85e7e9f5f11c5ed70cf52af25af8737fdff697243082c51a950ffffffff02c03c7808782e0e001976a9147f148aa6b02f35b83b246a89b9329efba1f1946088ac00ca9a3b000000001976a914b19311f6bbf8610d652384c00d234acd86f49b7688ac00000000","txid":"b066f4a6c6b95c1f00ce97aa15fece7b112a57b0add590f508e63e8af43f1aa3","version":1,"time":1540801024,"locktime":0,"vin":[{"txid":"5ba4a09be4db670c83243fbb4085e5bb00491ae51af56a5bb34fc33fa66e88dd","vout":0,"scriptSig":{"asm":"3045022100ee7295edef7afd38abeb9a3cea6d3932f6bd099bfb0eb97ff9024ab59e7b33a002206fd5ac9a3e8547be9000b86f0972cd0ef126e633a7efb74d4e45cf9811029f5101 02f5c34d804b15f85e7e9f5f11c5ed70cf52af25af8737fdff697243082c51a950","hex":"483045022100ee7295edef7afd38abeb9a3cea6d3932f6bd099bfb0eb97ff9024ab59e7b33a002206fd5ac9a3e8547be9000b86f0972cd0ef126e633a7efb74d4e45cf9811029f51012102f5c34d804b15f85e7e9f5f11c5ed70cf52af25af8737fdff697243082c51a950"},"sequence":4294967295}],"vout":[{"value":39917427.47,"n":0,"scriptPubKey":{"asm":"OP_DUP OP_HASH160 7f148aa6b02f35b83b246a89b9329efba1f19460 OP_EQUALVERIFY OP_CHECKSIG","reqSigs":1,"type":"pubkeyhash","addresses":["pH8WdKjZMySWGmoY1eXnjRdyEhAjKBRmca"]}},{"value":10,"n":1,"scriptPubKey":{"asm":"OP_DUP OP_HASH160 b19311f6bbf8610d652384c00d234acd86f49b76 OP_EQUALVERIFY OP_CHECKSIG","reqSigs":1,"type":"pubkeyhash","addresses":["pMjVzGrYDm6bSsjacvkedmhB6zYLmU3zVu"]}}],"blockhash":"ae3e2efa8e343d32d7de3208dc0093d5478c43f27057e43d3774809715a74942","confirmations":221,"blocktime":1540801024}