{"hex":"01000000d1a9e05b011ef8dbcc5c0541a17ccb080cc8d7ae1b4f00fa1f76215fc0331e7e2e46d01df9010000006a473044022060d20745e9fbb47b4d6f57cf331a78802d4c827921b7b04fc809b9c557ca7479022056a4ce885cdc824c9beba12c1a400479b1e23db3e63843d1abb31014a83c7e4601210297428563b08b2892282338d1099a7099be18fba71dacda3a53769ab6cc9b1262ffffffff0293f66901000000001976a914b36b2ef2891f0d154c3c3ad3151858343c9dda0f88ac9aab9100000000001976a914c34409ea2837c0bf5897f05e2a6066dbfc7d455c88ac00000000","txid":"53a683b72388cdca9b0ac0fbe633319d5a3481741f47b407bf81efab36d0a3b7","version":1,"time":1541450208,"locktime":0,"vin":[{"txid":"f91dd0462e7e1e33c05f21761ffa004f1baed7c80c08cb7ca141055cccdbf81e","vout":1,"scriptSig":{"asm":"3044022060d20745e9fbb47b4d6f57cf331a78802d4c827921b7b04fc809b9c557ca7479022056a4ce885cdc824c9beba12c1a400479b1e23db3e63843d1abb31014a83c7e4601 0297428563b08b2892282338d1099a7099be18fba71dacda3a53769ab6cc9b1262","hex":"473044022060d20745e9fbb47b4d6f57cf331a78802d4c827921b7b04fc809b9c557ca7479022056a4ce885cdc824c9beba12c1a400479b1e23db3e63843d1abb31014a83c7e4601210297428563b08b2892282338d1099a7099be18fba71dacda3a53769ab6cc9b1262"},"sequence":4294967295}],"vout":[{"value":0.23721619,"n":0,"scriptPubKey":{"asm":"OP_DUP OP_HASH160 b36b2ef2891f0d154c3c3ad3151858343c9dda0f OP_EQUALVERIFY OP_CHECKSIG","reqSigs":1,"type":"pubkeyhash","addresses":["pMuFZGwGPatDeyGpnmkoc8h2FBh9noaY4C"]}},{"value":0.0954665,"n":1,"scriptPubKey":{"asm":"OP_DUP OP_HASH160 c34409ea2837c0bf5897f05e2a6066dbfc7d455c OP_EQUALVERIFY OP_CHECKSIG","reqSigs":1,"type":"pubkeyhash","addresses":["pPM3UXUbEG9YCBvMQpSfnfniFQzR5gnHqd"]}}],"blockhash":"d0fa524d904bcbc47d32ac38d3b08eda7c2a70cf46cc3ca9eac5e60236ca9160","confirmations":9,"blocktime":1541450208}