{"hex":"01000000e0a9e05b014597986af905adffd9847cb4b54c2cbbf45aad773890b1ce02089c5231327f2001000000484730440220761c96fadd9989e4d7104f421fba99ca1f8d5afd90cba2343c43401106698b73022064936ca2dc3c4ad8857ad370b01ee7d1ce3812995e07c1b40e6899e719b6804401ffffffff03000000000000000000587e0cd20100000023210348b24f77eda58d2bf0bd56f764cfdeb0100d2f1058b2d5318f2f2fc9670e730eacb21f0000000000001976a914239bf4dba7e2193b7f701a7b68d0e94c85d85fac88ac00000000","txid":"b04f4058f026da42e60cb4d627cf413d2ccf243cfb087127faab0f10dec7a34b","version":1,"time":1541450208,"locktime":0,"vin":[{"txid":"207f3231529c0802ceb1903877ad5af4bb2c4cb5b47c84d9ffad05f96a989745","vout":1,"scriptSig":{"asm":"30440220761c96fadd9989e4d7104f421fba99ca1f8d5afd90cba2343c43401106698b73022064936ca2dc3c4ad8857ad370b01ee7d1ce3812995e07c1b40e6899e719b6804401","hex":"4730440220761c96fadd9989e4d7104f421fba99ca1f8d5afd90cba2343c43401106698b73022064936ca2dc3c4ad8857ad370b01ee7d1ce3812995e07c1b40e6899e719b6804401"},"sequence":4294967295}],"vout":[{"value":0,"n":0,"scriptPubKey":{"asm":"","type":"nonstandard"}},{"value":78.19001432,"n":1,"scriptPubKey":{"asm":"0348b24f77eda58d2bf0bd56f764cfdeb0100d2f1058b2d5318f2f2fc9670e730e OP_CHECKSIG","reqSigs":1,"type":"pubkey","addresses":["p8X7huKtvdnnDzc17Xcxxh1Z9ww8ckxvVJ"]}},{"value":0.00008114,"n":2,"scriptPubKey":{"asm":"OP_DUP OP_HASH160 239bf4dba7e2193b7f701a7b68d0e94c85d85fac OP_EQUALVERIFY OP_CHECKSIG","reqSigs":1,"type":"pubkeyhash","addresses":["p8nrgTxTfKDC3hvmSmFxDcxpYguUCo8yWb"]}}],"blockhash":"d0fa524d904bcbc47d32ac38d3b08eda7c2a70cf46cc3ca9eac5e60236ca9160","confirmations":9,"blocktime":1541450208}