{"hex":"0100000073a2c25b010000000000000000000000000000000000000000000000000000000000000000ffffffff0401570102ffffffff0100000000000000001976a914aac9a23d0d69ab5e379e525642e64afb6d47d36488ac00000000","txid":"7c6c0cc3c731517cd7abcf96adc0f7bf109521fe8630891a369515e33f60cd6c","version":1,"time":1539482230,"locktime":0,"vin":[{"coinbase":"01570102","sequence":4294967295}],"vout":[{"value":0,"n":0,"scriptPubKey":{"asm":"OP_DUP OP_HASH160 aac9a23d0d69ab5e379e525642e64afb6d47d364 OP_EQUALVERIFY OP_CHECKSIG","reqSigs":1,"type":"pubkeyhash","addresses":["pM7cd5J6SNScL65F39WwshPgAYBiAaVRrd"]}}],"blockhash":"00000e4dfa0f9561f5a56264605eba99dac1893c58db05732634f8a9953ca441","confirmations":72,"blocktime":1539482230}