{"hex":"0100000050a1e05b066058a24393d2de96c483b6a7e11b66e324ef00fb2852790d45801d16a46fcf1e030000006a4730440220678b2201188f15bb541b1d664ee864df40ccb26c8b482517eb45845fb925da35022020acd83ab3cee3f5636b5abae27e91e071773bd2af6a8b412a0dff91a5c0fa96012102ddc638d0e4db35a090f68ef0080e42c44787bc03abdca3aedd301485dd70c1f6ffffffff2f5904c7aebcc5a98542a26672bcc161de30381a47a6a08fe6c95edef6c5eeb0020000006a47304402204d48159c2203c84e48ca06feedf9cea137bcf0af3b466fe53dcbabd47a4ac97502200581806d86a1864ee34ef9dd6f08b0c0c3b9e09d293ece574c2075f5caa11194012102ddc638d0e4db35a090f68ef0080e42c44787bc03abdca3aedd301485dd70c1f6ffffffff56571278dec823e34d0ddd22c4d73868de4fa1896cd94278873f61305577e969020000006a473044022041119ec0b21a5eaf0ec499bcd3fdee59a2f3b4658917de35cd84c54aa79b8d9f02200d7692da1a0488a81be5933d006c6fce2940f9fd145e4f1548ea56ef5a219490012102ddc638d0e4db35a090f68ef0080e42c44787bc03abdca3aedd301485dd70c1f6ffffffff8023ae6b3329220e7a1f6c4435c84decd5d5a39fa958a0a6f811ec3806f77b28030000006a473044022073650d9308f41d7ff02995dcbb42c21bbcaf2d8db814e8a1a5e8d729ac7305a302200d0c37de22f12ef106a036335878b0659b624dcdd9611a5f3c2012b5a157c8ae012102ddc638d0e4db35a090f68ef0080e42c44787bc03abdca3aedd301485dd70c1f6ffffffff53eb991577963920919e4fd60d121fa8976e0bcb312e3141ae42f7022f6e4022020000006a47304402207ccf249ffa42f68b2172d22d6ddc125efb4d0d8b5c52c9a8048db05328ac01a002207f0d35ec47fe6f0d81758fd2848ea6816364c3cb1d2f393be65c4ca303c6215b012102ddc638d0e4db35a090f68ef0080e42c44787bc03abdca3aedd301485dd70c1f6ffffffffa3329b2e5a5181e12e98ea430aee06aa1e5cc6350acd46af12d39f88f3c1667d030000006b4830450221008a87a1853d6de960b058d6470ad2b8aca4870c4c03e791205e87b8be6995da67022013fc5d1e34965ce630eea46387c8d590ffdb6d72c426eb066df18c939264c68d012102ddc638d0e4db35a090f68ef0080e42c44787bc03abdca3aedd301485dd70c1f6ffffffff03000000000000000000c1120e0000000000232102ddc638d0e4db35a090f68ef0080e42c44787bc03abdca3aedd301485dd70c1f6ac4d610700000000001976a91466429c93e46136b2db3fe752c257b3dba5e7649c88ac00000000","txid":"a9d9e936f992631b411d9c9282a2ad94af37223da65a30d5369b727c45880340","version":1,"time":1541448016,"locktime":0,"vin":[{"txid":"1ecf6fa4161d80450d795228fb00ef24e3661be1a7b683c496ded29343a25860","vout":3,"scriptSig":{"asm":"30440220678b2201188f15bb541b1d664ee864df40ccb26c8b482517eb45845fb925da35022020acd83ab3cee3f5636b5abae27e91e071773bd2af6a8b412a0dff91a5c0fa9601 02ddc638d0e4db35a090f68ef0080e42c44787bc03abdca3aedd301485dd70c1f6","hex":"4730440220678b2201188f15bb541b1d664ee864df40ccb26c8b482517eb45845fb925da35022020acd83ab3cee3f5636b5abae27e91e071773bd2af6a8b412a0dff91a5c0fa96012102ddc638d0e4db35a090f68ef0080e42c44787bc03abdca3aedd301485dd70c1f6"},"sequence":4294967295},{"txid":"b0eec5f6de5ec9e68fa0a6471a3830de61c1bc7266a24285a9c5bcaec704592f","vout":2,"scriptSig":{"asm":"304402204d48159c2203c84e48ca06feedf9cea137bcf0af3b466fe53dcbabd47a4ac97502200581806d86a1864ee34ef9dd6f08b0c0c3b9e09d293ece574c2075f5caa1119401 02ddc638d0e4db35a090f68ef0080e42c44787bc03abdca3aedd301485dd70c1f6","hex":"47304402204d48159c2203c84e48ca06feedf9cea137bcf0af3b466fe53dcbabd47a4ac97502200581806d86a1864ee34ef9dd6f08b0c0c3b9e09d293ece574c2075f5caa11194012102ddc638d0e4db35a090f68ef0080e42c44787bc03abdca3aedd301485dd70c1f6"},"sequence":4294967295},{"txid":"69e9775530613f877842d96c89a14fde6838d7c422dd0d4de323c8de78125756","vout":2,"scriptSig":{"asm":"3044022041119ec0b21a5eaf0ec499bcd3fdee59a2f3b4658917de35cd84c54aa79b8d9f02200d7692da1a0488a81be5933d006c6fce2940f9fd145e4f1548ea56ef5a21949001 02ddc638d0e4db35a090f68ef0080e42c44787bc03abdca3aedd301485dd70c1f6","hex":"473044022041119ec0b21a5eaf0ec499bcd3fdee59a2f3b4658917de35cd84c54aa79b8d9f02200d7692da1a0488a81be5933d006c6fce2940f9fd145e4f1548ea56ef5a219490012102ddc638d0e4db35a090f68ef0080e42c44787bc03abdca3aedd301485dd70c1f6"},"sequence":4294967295},{"txid":"287bf70638ec11f8a6a058a99fa3d5d5ec4dc835446c1f7a0e2229336bae2380","vout":3,"scriptSig":{"asm":"3044022073650d9308f41d7ff02995dcbb42c21bbcaf2d8db814e8a1a5e8d729ac7305a302200d0c37de22f12ef106a036335878b0659b624dcdd9611a5f3c2012b5a157c8ae01 02ddc638d0e4db35a090f68ef0080e42c44787bc03abdca3aedd301485dd70c1f6","hex":"473044022073650d9308f41d7ff02995dcbb42c21bbcaf2d8db814e8a1a5e8d729ac7305a302200d0c37de22f12ef106a036335878b0659b624dcdd9611a5f3c2012b5a157c8ae012102ddc638d0e4db35a090f68ef0080e42c44787bc03abdca3aedd301485dd70c1f6"},"sequence":4294967295},{"txid":"22406e2f02f742ae41312e31cb0b6e97a81f120dd64f9e91203996771599eb53","vout":2,"scriptSig":{"asm":"304402207ccf249ffa42f68b2172d22d6ddc125efb4d0d8b5c52c9a8048db05328ac01a002207f0d35ec47fe6f0d81758fd2848ea6816364c3cb1d2f393be65c4ca303c6215b01 02ddc638d0e4db35a090f68ef0080e42c44787bc03abdca3aedd301485dd70c1f6","hex":"47304402207ccf249ffa42f68b2172d22d6ddc125efb4d0d8b5c52c9a8048db05328ac01a002207f0d35ec47fe6f0d81758fd2848ea6816364c3cb1d2f393be65c4ca303c6215b012102ddc638d0e4db35a090f68ef0080e42c44787bc03abdca3aedd301485dd70c1f6"},"sequence":4294967295},{"txid":"7d66c1f3889fd312af46cd0a35c65c1eaa06ee0a43ea982ee181515a2e9b32a3","vout":3,"scriptSig":{"asm":"30450221008a87a1853d6de960b058d6470ad2b8aca4870c4c03e791205e87b8be6995da67022013fc5d1e34965ce630eea46387c8d590ffdb6d72c426eb066df18c939264c68d01 02ddc638d0e4db35a090f68ef0080e42c44787bc03abdca3aedd301485dd70c1f6","hex":"4830450221008a87a1853d6de960b058d6470ad2b8aca4870c4c03e791205e87b8be6995da67022013fc5d1e34965ce630eea46387c8d590ffdb6d72c426eb066df18c939264c68d012102ddc638d0e4db35a090f68ef0080e42c44787bc03abdca3aedd301485dd70c1f6"},"sequence":4294967295}],"vout":[{"value":0,"n":0,"scriptPubKey":{"asm":"","type":"nonstandard"}},{"value":0.00922305,"n":1,"scriptPubKey":{"asm":"02ddc638d0e4db35a090f68ef0080e42c44787bc03abdca3aedd301485dd70c1f6 OP_CHECKSIG","reqSigs":1,"type":"pubkey","addresses":["pHosNaAavGxjBXaJVQnyrJDcTKDMVqKujz"]}},{"value":0.00483661,"n":2,"scriptPubKey":{"asm":"OP_DUP OP_HASH160 66429c93e46136b2db3fe752c257b3dba5e7649c OP_EQUALVERIFY OP_CHECKSIG","reqSigs":1,"type":"pubkeyhash","addresses":["pEsGvXfg7BMJ91FueYCRJrpJCEzDnhWNzu"]}}],"blockhash":"ff1d5fcc08602dfea23bb96b696e2070ae48008ec5ba4f81f0c04624b0715f17","confirmations":11,"blocktime":1541448016}