{"hex":"010000004ba1e05b02fe4bb49278b7e31f4a869dd5c66a85878fae257eefd176231bc47ff445a1b95c010000006a47304402203207597442551d24e8ce14c70f7d52372528303581552d61639c4fbf9e66f54d0220107f3e87051b495e3e21e4130c5fa15e8f47972ff6e8a60ca3315317e19124fb012103a80b1137a0ca7acf01671ac3f1c6414c4397759f5a1a49ca82f6590b07ea27d5ffffffffdb15f544763b6abc65cea225911493a7400d94100cad6633f2a4009989564c89010000006a473044022039f907098184e87d520259af790286fdea662a9de01ea2df61e02e44bc873070022021c1852642bb2e88a76d750a4f4e703f22dd77571e07352582cb7096f8a37680012102e3d96e0f324fbe1226e372024009ad3f69b19ab643d845116274a5cae29cd0d1ffffffff0282b41000000000001976a914582433f9cccd211986c5b8d8fd65dac6813fc91788ac5b79ea21000000001976a914cfa71bc2f39c23e2623a9ae5837d3d2974e9163c88ac00000000","txid":"b1b3c7bd725204a34ccbb0a1b5758d6bbde81e75debaa53960c16df8056f1690","version":1,"time":1541448016,"locktime":0,"vin":[{"txid":"5cb9a145f47fc41b2376d1ef7e25ae8f87856ac6d59d864a1fe3b77892b44bfe","vout":1,"scriptSig":{"asm":"304402203207597442551d24e8ce14c70f7d52372528303581552d61639c4fbf9e66f54d0220107f3e87051b495e3e21e4130c5fa15e8f47972ff6e8a60ca3315317e19124fb01 03a80b1137a0ca7acf01671ac3f1c6414c4397759f5a1a49ca82f6590b07ea27d5","hex":"47304402203207597442551d24e8ce14c70f7d52372528303581552d61639c4fbf9e66f54d0220107f3e87051b495e3e21e4130c5fa15e8f47972ff6e8a60ca3315317e19124fb012103a80b1137a0ca7acf01671ac3f1c6414c4397759f5a1a49ca82f6590b07ea27d5"},"sequence":4294967295},{"txid":"894c56899900a4f23366ad0c10940d40a793149125a2ce65bc6a3b7644f515db","vout":1,"scriptSig":{"asm":"3044022039f907098184e87d520259af790286fdea662a9de01ea2df61e02e44bc873070022021c1852642bb2e88a76d750a4f4e703f22dd77571e07352582cb7096f8a3768001 02e3d96e0f324fbe1226e372024009ad3f69b19ab643d845116274a5cae29cd0d1","hex":"473044022039f907098184e87d520259af790286fdea662a9de01ea2df61e02e44bc873070022021c1852642bb2e88a76d750a4f4e703f22dd77571e07352582cb7096f8a37680012102e3d96e0f324fbe1226e372024009ad3f69b19ab643d845116274a5cae29cd0d1"},"sequence":4294967295}],"vout":[{"value":0.01094786,"n":0,"scriptPubKey":{"asm":"OP_DUP OP_HASH160 582433f9cccd211986c5b8d8fd65dac6813fc917 OP_EQUALVERIFY OP_CHECKSIG","reqSigs":1,"type":"pubkeyhash","addresses":["pDad31xMoZkJ6YWZ423adCDc5nJVAKET22"]}},{"value":5.69014619,"n":1,"scriptPubKey":{"asm":"OP_DUP OP_HASH160 cfa71bc2f39c23e2623a9ae5837d3d2974e9163c OP_EQUALVERIFY OP_CHECKSIG","reqSigs":1,"type":"pubkeyhash","addresses":["pQUYGK611JwryYNfzxTT7aShULyc7XMdUy"]}}],"blockhash":"ff1d5fcc08602dfea23bb96b696e2070ae48008ec5ba4f81f0c04624b0715f17","confirmations":11,"blocktime":1541448016}