{"hex":"0100000010a1c25b010000000000000000000000000000000000000000000000000000000000000000ffffffff04012f0101ffffffff0100000000000000001976a914d291ec8efc9e0dbba0e4c68c20019c6085046fbe88ac00000000","txid":"d6e317cafa5d454190789836efe4307329617a13b7ae22f0014137c47117a744","version":1,"time":1539481873,"locktime":0,"vin":[{"coinbase":"012f0101","sequence":4294967295}],"vout":[{"value":0,"n":0,"scriptPubKey":{"asm":"OP_DUP OP_HASH160 d291ec8efc9e0dbba0e4c68c20019c6085046fbe OP_EQUALVERIFY OP_CHECKSIG","reqSigs":1,"type":"pubkeyhash","addresses":["pQjxuyHCT1JXUU1YMPa4TgWhX3sZhtTb8m"]}}],"blockhash":"000005539f010622f0949096f36f5c5662c3d268d8bdd16f4aeb02f0fb21b2d4","confirmations":112,"blocktime":1539481873}