{"hex":"01000000e3a9c25b01cba28eeb7245298307c9da1eac61d4a87bc58ded24a869d5768ec50642de42ca000000006a47304402202cd540314513cc5daae4b867bb267026659ef7abb24fdf0c4fbb666c74e67a2302207665dbdb7a7c7c62165e4abc76de45ddf5d6fe410ab4a670419c670c81dea70c012103d84602b753cc862643ec1979d01f132d2502ffc1c210f7c0afacbda94d15f1fbffffffff020010ea59077c23001976a914e746256f5312f33f9af30ac5ef7db7603ef4d8e788ac0088526a740000001976a9140f0458597355a9fb43189a18c91b2668213960f888ac00000000","txid":"468b1ca9fb8839f206fd8440f70f679af9b1200e8da8335955c4f5bbc87f1552","version":1,"time":1539484144,"locktime":0,"vin":[{"txid":"ca42de4206c58e76d569a824ed8dc57ba8d461ac1edac90783294572eb8ea2cb","vout":0,"scriptSig":{"asm":"304402202cd540314513cc5daae4b867bb267026659ef7abb24fdf0c4fbb666c74e67a2302207665dbdb7a7c7c62165e4abc76de45ddf5d6fe410ab4a670419c670c81dea70c01 03d84602b753cc862643ec1979d01f132d2502ffc1c210f7c0afacbda94d15f1fb","hex":"47304402202cd540314513cc5daae4b867bb267026659ef7abb24fdf0c4fbb666c74e67a2302207665dbdb7a7c7c62165e4abc76de45ddf5d6fe410ab4a670419c670c81dea70c012103d84602b753cc862643ec1979d01f132d2502ffc1c210f7c0afacbda94d15f1fb"},"sequence":4294967295}],"vout":[{"value":99879952,"n":0,"scriptPubKey":{"asm":"OP_DUP OP_HASH160 e746256f5312f33f9af30ac5ef7db7603ef4d8e7 OP_EQUALVERIFY OP_CHECKSIG","reqSigs":1,"type":"pubkeyhash","addresses":["pSdSKs4KUdHnn7pCPf7u3CXNJM5Kny6jAh"]}},{"value":5000,"n":1,"scriptPubKey":{"asm":"OP_DUP OP_HASH160 0f0458597355a9fb43189a18c91b2668213960f8 OP_EQUALVERIFY OP_CHECKSIG","reqSigs":1,"type":"pubkeyhash","addresses":["p6uyYVC7Ty7S1UZtPQtetPMTXYoKf6M8dh"]}}],"blockhash":"7cd2607a4570bbbc007e4202482ea460e1e426c984d0614fe5fefa7bcc93ba0f","confirmations":324,"blocktime":1539484144}