{"hex":"01000000f0a9c25b01f710a1f70282ba5a53e0445a2288892570934e593aa3cc1449977fea6365ca3a020000004847304402204e8af9135c57d885263d850941bb95b63a17b18ce675e5890484305ebcfe524102207d21c8d44655685099cd7a24d4bdc34f6c8aaf38ce7d74f82448ada7b31a0f1d01ffffffff040000000000000000008053e41b1d00000023210348b24f77eda58d2bf0bd56f764cfdeb0100d2f1058b2d5318f2f2fc9670e730eacc095f31b1d00000023210348b24f77eda58d2bf0bd56f764cfdeb0100d2f1058b2d5318f2f2fc9670e730eac80fe210a000000001976a91400eadc74da710bda77ce2fa5b8d39eabf1783dfa88ac00000000","txid":"ecc62b3c9649feed2e903cc4dbdb597ac4f4cfa5c5bf97dca7bd27392a2e0966","version":1,"time":1539484144,"locktime":0,"vin":[{"txid":"3aca6563ea7f974914cca33a594e9370258988225a44e0535aba8202f7a110f7","vout":2,"scriptSig":{"asm":"304402204e8af9135c57d885263d850941bb95b63a17b18ce675e5890484305ebcfe524102207d21c8d44655685099cd7a24d4bdc34f6c8aaf38ce7d74f82448ada7b31a0f1d01","hex":"47304402204e8af9135c57d885263d850941bb95b63a17b18ce675e5890484305ebcfe524102207d21c8d44655685099cd7a24d4bdc34f6c8aaf38ce7d74f82448ada7b31a0f1d01"},"sequence":4294967295}],"vout":[{"value":0,"n":0,"scriptPubKey":{"asm":"","type":"nonstandard"}},{"value":1250.22,"n":1,"scriptPubKey":{"asm":"0348b24f77eda58d2bf0bd56f764cfdeb0100d2f1058b2d5318f2f2fc9670e730e OP_CHECKSIG","reqSigs":1,"type":"pubkey","addresses":["p8X7huKtvdnnDzc17Xcxxh1Z9ww8ckxvVJ"]}},{"value":1250.23,"n":2,"scriptPubKey":{"asm":"0348b24f77eda58d2bf0bd56f764cfdeb0100d2f1058b2d5318f2f2fc9670e730e OP_CHECKSIG","reqSigs":1,"type":"pubkey","addresses":["p8X7huKtvdnnDzc17Xcxxh1Z9ww8ckxvVJ"]}},{"value":1.7,"n":3,"scriptPubKey":{"asm":"OP_DUP OP_HASH160 00eadc74da710bda77ce2fa5b8d39eabf1783dfa OP_EQUALVERIFY OP_CHECKSIG","reqSigs":1,"type":"pubkeyhash","addresses":["p5dRZ9MeyiKDma1pAUrsmvEK4NBmmdC4ZN"]}}],"blockhash":"7cd2607a4570bbbc007e4202482ea460e1e426c984d0614fe5fefa7bcc93ba0f","confirmations":324,"blocktime":1539484144}