{"hex":"01000000c701da5b0615a3ee5e985bbab0bb6fc7caab09ff8c777e86c2d76b050af4723849d287c68a000000006a473044022045a7e4c5297e472fbcadcd8c9167c145f9069b4f6b70846aacb978ef63294df40220481fb97ce3b3a3787aae752053cc2982ab7cae62284e29655ef2c0a65799f1ee0121029e857134122939a57279b02312e296a02bcf0cf876ddc541bd372450215dbeacffffffff15a3ee5e985bbab0bb6fc7caab09ff8c777e86c2d76b050af4723849d287c68a010000006b4830450221008de54db99313d16fd86dd0bb44cf2b56317bf419c9e98373b06774b018f4f86a022024261c7873758878f5bb065a3bbb9d54dba23ea83dc8e7df8576462052e98cca012102f4f42cf356a58de19d799708804934478ba5b53c79d31c93023f29c756596d9ffffffffffff1e285f1d8abab40aa9413effd23ca3b133599239ff191192bf2af3c018fb3010000006a473044022008d9f52fb030ca36ea687d6aab362b79044b138b68d38e1f8e4ed784ff35100d02202de5a327b3c03509d037a291df9db83d0ef7cdd62dafd64136996ea252868edc01210233131a8dbd30e77201f2b27854f22493c9b00b0195647bec62ce6d08abd01ce1fffffffffeaa3e9e24ca0e552d95de928fdc9fe62dc9c22304c757fa57c7afb26b7cace5000000006b483045022100b2cf20d1f610cfe632cac60471d636be089eb18ab155c1a6fef2b83b5776576b02207bc63de84d4044fb1043546610853f03ea395dbc2d4b94b9773dc29b992a0051012103e9e4d1de3a26e42ad5733e9f395685b736f9815caca171d2a5f55da91f39a00fffffffff942e11e94760367dd3b6c7cd1de0f7aabe31efab7bbd0bd0146701b5bc156d32010000006a473044022069753e6030f0bc52ec0273b44b445d947d4f2e422200a3067cbe3252f3261b25022041c5099b1a57cc4ccdd07cb583154f8ff84029035f95dd06b3bcf7b02175aecf012102a154173bfa61d05b4a59dd6674d994d5b7aa361b2762fe3d6d3d3abd69240ed4ffffffff16dd9fb642cfbe761e27b426861ded1147cb580da5f35d9cfde07041c164ff11010000006b4830450221009f54d103f0b81f1ca6b1e0f464e24e1fa0a39dfd879772c1c2551374dfdfd01002202cc5369c260ec29b0aaf9765a017381b8776d48846af5e4318b35bdb84edd28701210327aedb20c6b449ed3ce98d800ae336d0d199469302d87cd1303b44aea9c09a87ffffffff0206ca1300000000001976a9143195dbfdddba8cae044b1156625c795eb757cbaa88ac0375c121000000001976a914d66eb042ee47f8fec3031e4df4a978bb1382735e88ac00000000","txid":"91221e958a70a0196cf1ce69bd40dea8f224e05839f9e5e113fd775984b06364","version":1,"time":1541013968,"locktime":0,"vin":[{"txid":"8ac687d2493872f40a056bd7c2867e778cff09abcac76fbbb0ba5b985eeea315","vout":0,"scriptSig":{"asm":"3044022045a7e4c5297e472fbcadcd8c9167c145f9069b4f6b70846aacb978ef63294df40220481fb97ce3b3a3787aae752053cc2982ab7cae62284e29655ef2c0a65799f1ee01 029e857134122939a57279b02312e296a02bcf0cf876ddc541bd372450215dbeac","hex":"473044022045a7e4c5297e472fbcadcd8c9167c145f9069b4f6b70846aacb978ef63294df40220481fb97ce3b3a3787aae752053cc2982ab7cae62284e29655ef2c0a65799f1ee0121029e857134122939a57279b02312e296a02bcf0cf876ddc541bd372450215dbeac"},"sequence":4294967295},{"txid":"8ac687d2493872f40a056bd7c2867e778cff09abcac76fbbb0ba5b985eeea315","vout":1,"scriptSig":{"asm":"30450221008de54db99313d16fd86dd0bb44cf2b56317bf419c9e98373b06774b018f4f86a022024261c7873758878f5bb065a3bbb9d54dba23ea83dc8e7df8576462052e98cca01 02f4f42cf356a58de19d799708804934478ba5b53c79d31c93023f29c756596d9f","hex":"4830450221008de54db99313d16fd86dd0bb44cf2b56317bf419c9e98373b06774b018f4f86a022024261c7873758878f5bb065a3bbb9d54dba23ea83dc8e7df8576462052e98cca012102f4f42cf356a58de19d799708804934478ba5b53c79d31c93023f29c756596d9f"},"sequence":4294967295},{"txid":"b38f013caff22b1991f19f239935133bca23fdef1394aa40ababd8f185e2f1ff","vout":1,"scriptSig":{"asm":"3044022008d9f52fb030ca36ea687d6aab362b79044b138b68d38e1f8e4ed784ff35100d02202de5a327b3c03509d037a291df9db83d0ef7cdd62dafd64136996ea252868edc01 0233131a8dbd30e77201f2b27854f22493c9b00b0195647bec62ce6d08abd01ce1","hex":"473044022008d9f52fb030ca36ea687d6aab362b79044b138b68d38e1f8e4ed784ff35100d02202de5a327b3c03509d037a291df9db83d0ef7cdd62dafd64136996ea252868edc01210233131a8dbd30e77201f2b27854f22493c9b00b0195647bec62ce6d08abd01ce1"},"sequence":4294967295},{"txid":"e5ac7c6bb2afc757fa57c70423c2c92de69fdc8f92de952d550eca249e3eaafe","vout":0,"scriptSig":{"asm":"3045022100b2cf20d1f610cfe632cac60471d636be089eb18ab155c1a6fef2b83b5776576b02207bc63de84d4044fb1043546610853f03ea395dbc2d4b94b9773dc29b992a005101 03e9e4d1de3a26e42ad5733e9f395685b736f9815caca171d2a5f55da91f39a00f","hex":"483045022100b2cf20d1f610cfe632cac60471d636be089eb18ab155c1a6fef2b83b5776576b02207bc63de84d4044fb1043546610853f03ea395dbc2d4b94b9773dc29b992a0051012103e9e4d1de3a26e42ad5733e9f395685b736f9815caca171d2a5f55da91f39a00f"},"sequence":4294967295},{"txid":"326d15bcb5016714d00bbd7babef31beaaf7e01dcdc7b6d37d366047e9112e94","vout":1,"scriptSig":{"asm":"3044022069753e6030f0bc52ec0273b44b445d947d4f2e422200a3067cbe3252f3261b25022041c5099b1a57cc4ccdd07cb583154f8ff84029035f95dd06b3bcf7b02175aecf01 02a154173bfa61d05b4a59dd6674d994d5b7aa361b2762fe3d6d3d3abd69240ed4","hex":"473044022069753e6030f0bc52ec0273b44b445d947d4f2e422200a3067cbe3252f3261b25022041c5099b1a57cc4ccdd07cb583154f8ff84029035f95dd06b3bcf7b02175aecf012102a154173bfa61d05b4a59dd6674d994d5b7aa361b2762fe3d6d3d3abd69240ed4"},"sequence":4294967295},{"txid":"11ff64c14170e0fd9c5df3a50d58cb4711ed1d8626b4271e76becf42b69fdd16","vout":1,"scriptSig":{"asm":"30450221009f54d103f0b81f1ca6b1e0f464e24e1fa0a39dfd879772c1c2551374dfdfd01002202cc5369c260ec29b0aaf9765a017381b8776d48846af5e4318b35bdb84edd28701 0327aedb20c6b449ed3ce98d800ae336d0d199469302d87cd1303b44aea9c09a87","hex":"4830450221009f54d103f0b81f1ca6b1e0f464e24e1fa0a39dfd879772c1c2551374dfdfd01002202cc5369c260ec29b0aaf9765a017381b8776d48846af5e4318b35bdb84edd28701210327aedb20c6b449ed3ce98d800ae336d0d199469302d87cd1303b44aea9c09a87"},"sequence":4294967295}],"vout":[{"value":0.01296902,"n":0,"scriptPubKey":{"asm":"OP_DUP OP_HASH160 3195dbfdddba8cae044b1156625c795eb757cbaa OP_EQUALVERIFY OP_CHECKSIG","reqSigs":1,"type":"pubkeyhash","addresses":["pA4kqWpM1R53hc8mNRS4NT9Wv8b7sQECnd"]}},{"value":5.66326531,"n":1,"scriptPubKey":{"asm":"OP_DUP OP_HASH160 d66eb042ee47f8fec3031e4df4a978bb1382735e OP_EQUALVERIFY OP_CHECKSIG","reqSigs":1,"type":"pubkeyhash","addresses":["pR6PQXizrYS3ACkp12B2y5YLDsoDsLwzJA"]}}],"blockhash":"e352fd2f725543b7e78d3b961d07e33f2e0fcb5b4ec8fa4338a054d51f4ca196","confirmations":122,"blocktime":1541013968}