{"hex":"01000000d001da5b01d6e3e714fa8247ab137bc5a744eab17fbb2d0704e5fc18a367cace837292d2c60100000049483045022100ca0fb66b1774014982205bc5f83e7fd09e44e3c250af16d17d45ade0e98a370a02206eefea7bbc6d5c4059a9fd257994ea43e53afbf8fca697e00348f6ab6c857b1401ffffffff04000000000000000000c071ff1a1d000000232103670be5afe77a215b42f2bc4bd7c1c5049117430d8e81c1de5c44e9ab4c566689acd5ff0f1b1d000000232103670be5afe77a215b42f2bc4bd7c1c5049117430d8e81c1de5c44e9ab4c566689ac61580700000000001976a9140c2d1eddba56317fb81d41241b8f40bbca7b5b5488ac00000000","txid":"abe37f316346d489e780f40942a7d7add1b205fdae07932a3e91cd4eb2423108","version":1,"time":1541013968,"locktime":0,"vin":[{"txid":"c6d2927283ceca67a318fce504072dbb7fb1ea44a7c57b13ab4782fa14e7e3d6","vout":1,"scriptSig":{"asm":"3045022100ca0fb66b1774014982205bc5f83e7fd09e44e3c250af16d17d45ade0e98a370a02206eefea7bbc6d5c4059a9fd257994ea43e53afbf8fca697e00348f6ab6c857b1401","hex":"483045022100ca0fb66b1774014982205bc5f83e7fd09e44e3c250af16d17d45ade0e98a370a02206eefea7bbc6d5c4059a9fd257994ea43e53afbf8fca697e00348f6ab6c857b1401"},"sequence":4294967295}],"vout":[{"value":0,"n":0,"scriptPubKey":{"asm":"","type":"nonstandard"}},{"value":1250.07,"n":1,"scriptPubKey":{"asm":"03670be5afe77a215b42f2bc4bd7c1c5049117430d8e81c1de5c44e9ab4c566689 OP_CHECKSIG","reqSigs":1,"type":"pubkey","addresses":["pRVJAmbxV6TyzWMNW1oNoV1k3zM77bZrBx"]}},{"value":1250.08084949,"n":2,"scriptPubKey":{"asm":"03670be5afe77a215b42f2bc4bd7c1c5049117430d8e81c1de5c44e9ab4c566689 OP_CHECKSIG","reqSigs":1,"type":"pubkey","addresses":["pRVJAmbxV6TyzWMNW1oNoV1k3zM77bZrBx"]}},{"value":0.00481377,"n":3,"scriptPubKey":{"asm":"OP_DUP OP_HASH160 0c2d1eddba56317fb81d41241b8f40bbca7b5b54 OP_EQUALVERIFY OP_CHECKSIG","reqSigs":1,"type":"pubkeyhash","addresses":["p6exN3FuZmZyQ7WNzLf7AweTLuHqDvcERN"]}}],"blockhash":"e352fd2f725543b7e78d3b961d07e33f2e0fcb5b4ec8fa4338a054d51f4ca196","confirmations":122,"blocktime":1541013968}