{"hex":"01000000dca1c25b010000000000000000000000000000000000000000000000000000000000000000ffffffff0401450101ffffffff0100000000000000001976a914b66dda3eb158eaea9b749b3c4d60db07a88255a988ac00000000","txid":"b980187e324b133bffd47a5830610c0093e12f019f91ceaaf0a6ae22431e5d15","version":1,"time":1539482076,"locktime":0,"vin":[{"coinbase":"01450101","sequence":4294967295}],"vout":[{"value":0,"n":0,"scriptPubKey":{"asm":"OP_DUP OP_HASH160 b66dda3eb158eaea9b749b3c4d60db07a88255a9 OP_EQUALVERIFY OP_CHECKSIG","reqSigs":1,"type":"pubkeyhash","addresses":["pNBAnJg2JLVr2RQYL3n16LjDk7hjmc2MSx"]}}],"blockhash":"00000279703751e82f9013a01c4b1547f54768793ace37cfbc72328a42986b08","confirmations":376,"blocktime":1539482076}