{"hex":"010000004da2c25b010000000000000000000000000000000000000000000000000000000000000000ffffffff0401530102ffffffff0100000000000000001976a91422a895923b18a3a01f9504c1d40c85f1f1ddf2ec88ac00000000","txid":"503132b7229d480168acd28b89ea793658b5d219ac8a89b9d9b14e240d9fb892","version":1,"time":1539482192,"locktime":0,"vin":[{"coinbase":"01530102","sequence":4294967295}],"vout":[{"value":0,"n":0,"scriptPubKey":{"asm":"OP_DUP OP_HASH160 22a895923b18a3a01f9504c1d40c85f1f1ddf2ec OP_EQUALVERIFY OP_CHECKSIG","reqSigs":1,"type":"pubkeyhash","addresses":["p8hq8fgNW6Y9Huk5G7Q3Xu6YwEHCpGD2RV"]}}],"blockhash":"000001214eb8e718b2b2747e8e8e79d7efe13b97249083b1c9556e67f8c1b128","confirmations":362,"blocktime":1539482192}