{"hex":"01000000fc40d65b03168f4ef32d194b84e2adbd57399fa1993ef3240d33824a1a0e688b6a3189d2c7010000006a47304402204770b0ab6b82a24029eec8954509f6eeba56ab9609a190ffc9fb8b37f3c7642002204fbded8da75eecbde881ae0cdac080666a1dc1c1993f0ea04fab8a6b5029f5b9012103696a98c6d1587cbe7f27173b1d4ce8dfce3372e25221e6dcb347612c40bf842bffffffff22981d82109141ce0c5ec4123aeb7957279cb46751f669c231c5b723e711b81d010000006b483045022100e2fc51df369fc7bdcfbb30383844f0cacea8dcab14428862a30040306e40b6fe02206715739210dc8cd085ba2b8c008c5486db7cb1473eb7f89f766ee0251a30f7b0012102e3077cbb87fb7ff2eaf0329e75665b3a93dd5946233c525a0252116740d5f2e2ffffffffd4321812ce76b6aedef6df06d97dfe316c01f5d3353b0b34f48b418ba3ff6fe8000000006a47304402203145c1ab363119c49b892e8880e1f4a36c0967e7ce18531676f349e02dac90aa02204f50908a0efa61c9a575768032dbc0142c23893161bc6e3245a6746795448d0a012102c189b5486dc2771cc25227f9a9c2c3715814e24db8640079b8ec7b2f4874e9d6ffffffff027a4e0f00000000001976a91455e4221b2ddd0dc98df8da3d884f3aad0a75c8ee88ac53d3aa00000000001976a914896263bf2bd054d1e80babdec3f28ef7b15011f188ac00000000","txid":"0d48f091c3747637092715d4c5dacf884b4b65d5b34c1edfc452db160d3004da","version":1,"time":1540768000,"locktime":0,"vin":[{"txid":"c7d289316a8b680e1a4a82330d24f33e99a19f3957bdade2844b192df34e8f16","vout":1,"scriptSig":{"asm":"304402204770b0ab6b82a24029eec8954509f6eeba56ab9609a190ffc9fb8b37f3c7642002204fbded8da75eecbde881ae0cdac080666a1dc1c1993f0ea04fab8a6b5029f5b901 03696a98c6d1587cbe7f27173b1d4ce8dfce3372e25221e6dcb347612c40bf842b","hex":"47304402204770b0ab6b82a24029eec8954509f6eeba56ab9609a190ffc9fb8b37f3c7642002204fbded8da75eecbde881ae0cdac080666a1dc1c1993f0ea04fab8a6b5029f5b9012103696a98c6d1587cbe7f27173b1d4ce8dfce3372e25221e6dcb347612c40bf842b"},"sequence":4294967295},{"txid":"1db811e723b7c531c269f65167b49c275779eb3a12c45e0cce419110821d9822","vout":1,"scriptSig":{"asm":"3045022100e2fc51df369fc7bdcfbb30383844f0cacea8dcab14428862a30040306e40b6fe02206715739210dc8cd085ba2b8c008c5486db7cb1473eb7f89f766ee0251a30f7b001 02e3077cbb87fb7ff2eaf0329e75665b3a93dd5946233c525a0252116740d5f2e2","hex":"483045022100e2fc51df369fc7bdcfbb30383844f0cacea8dcab14428862a30040306e40b6fe02206715739210dc8cd085ba2b8c008c5486db7cb1473eb7f89f766ee0251a30f7b0012102e3077cbb87fb7ff2eaf0329e75665b3a93dd5946233c525a0252116740d5f2e2"},"sequence":4294967295},{"txid":"e86fffa38b418bf4340b3b35d3f5016c31fe7dd906dff6deaeb676ce121832d4","vout":0,"scriptSig":{"asm":"304402203145c1ab363119c49b892e8880e1f4a36c0967e7ce18531676f349e02dac90aa02204f50908a0efa61c9a575768032dbc0142c23893161bc6e3245a6746795448d0a01 02c189b5486dc2771cc25227f9a9c2c3715814e24db8640079b8ec7b2f4874e9d6","hex":"47304402203145c1ab363119c49b892e8880e1f4a36c0967e7ce18531676f349e02dac90aa02204f50908a0efa61c9a575768032dbc0142c23893161bc6e3245a6746795448d0a012102c189b5486dc2771cc25227f9a9c2c3715814e24db8640079b8ec7b2f4874e9d6"},"sequence":4294967295}],"vout":[{"value":0.0100313,"n":0,"scriptPubKey":{"asm":"OP_DUP OP_HASH160 55e4221b2ddd0dc98df8da3d884f3aad0a75c8ee OP_EQUALVERIFY OP_CHECKSIG","reqSigs":1,"type":"pubkeyhash","addresses":["pDNivz7xnxMPvsqf35zCQVcLcAsskees4T"]}},{"value":0.11195219,"n":1,"scriptPubKey":{"asm":"OP_DUP OP_HASH160 896263bf2bd054d1e80babdec3f28ef7b15011f1 OP_EQUALVERIFY OP_CHECKSIG","reqSigs":1,"type":"pubkeyhash","addresses":["pJ4zeDbnoYHN9swg4HBJ6KuBZaL3Wiojsr"]}}],"blockhash":"86c44ffd8659c923773f70cd6075debff43f5267bced6ab19e4215fd09d763df","confirmations":253,"blocktime":1540768000}