{"hex":"010000000041d65b017081e2471cb37a22f2da61ca557c3e2f47a39b802d3becfb6e5ce604fec0b32a0200000048473044022066ce4ad33c493637a0dcf5c9ff6b0549189f4f7a199362f12196a781b532e620022029ec03f054ea7a4149e797a45af52aceaff7a52d818b3ab1fc17032a807ef05e01ffffffff040000000000000000008028a546070000002321020b1cd26fc4b9f080aea1cf7b667efd5e8453f70429056589831fa7f63506ddbfacd231a546070000002321020b1cd26fc4b9f080aea1cf7b667efd5e8453f70429056589831fa7f63506ddbfac2b250000000000001976a9146ee8ae815746df1e1038d51169f823db3353ab0488ac00000000","txid":"d4bcb18a0222a6b6a5a57151cee599ff5d606fbed779c849f2b654868101a0ec","version":1,"time":1540768000,"locktime":0,"vin":[{"txid":"2ab3c0fe04e65c6efbec3b2d809ba3472f3e7c55ca61daf2227ab31c47e28170","vout":2,"scriptSig":{"asm":"3044022066ce4ad33c493637a0dcf5c9ff6b0549189f4f7a199362f12196a781b532e620022029ec03f054ea7a4149e797a45af52aceaff7a52d818b3ab1fc17032a807ef05e01","hex":"473044022066ce4ad33c493637a0dcf5c9ff6b0549189f4f7a199362f12196a781b532e620022029ec03f054ea7a4149e797a45af52aceaff7a52d818b3ab1fc17032a807ef05e01"},"sequence":4294967295}],"vout":[{"value":0,"n":0,"scriptPubKey":{"asm":"","type":"nonstandard"}},{"value":312.5,"n":1,"scriptPubKey":{"asm":"020b1cd26fc4b9f080aea1cf7b667efd5e8453f70429056589831fa7f63506ddbf OP_CHECKSIG","reqSigs":1,"type":"pubkey","addresses":["pECTDpfW4nW8hYte3f3F9ZQxwgWmBwmcYL"]}},{"value":312.50002386,"n":2,"scriptPubKey":{"asm":"020b1cd26fc4b9f080aea1cf7b667efd5e8453f70429056589831fa7f63506ddbf OP_CHECKSIG","reqSigs":1,"type":"pubkey","addresses":["pECTDpfW4nW8hYte3f3F9ZQxwgWmBwmcYL"]}},{"value":0.00009515,"n":3,"scriptPubKey":{"asm":"OP_DUP OP_HASH160 6ee8ae815746df1e1038d51169f823db3353ab04 OP_EQUALVERIFY OP_CHECKSIG","reqSigs":1,"type":"pubkeyhash","addresses":["pFf1Gp4G6PCkSUxUY1XLwNBH2ji6sBJMC3"]}}],"blockhash":"86c44ffd8659c923773f70cd6075debff43f5267bced6ab19e4215fd09d763df","confirmations":253,"blocktime":1540768000}