{"hex":"01000000a7bfd65b01b7855faeaa317e9b0759bc60dc2a15d42a9cf9b86ba16953fb85deb9308154bb000000006b4830450221009748a4208cd23ae0cf258ca1d5ebe7a2608e7cfa51014f770502a0c217d5da6c0220543c6659e28c10a8192132ef4f20523298b7374b6d797316d5f1deb7f0945e870121039946aadb046d8e958358f6eb85933fb5594e517fb8f29dd1517ecb2fd5e00bdfffffffff0200492244782e0e001976a91477e6b807b5f1e5cd8b5f5942ee6314193a03e14c88ac00c8234f421707001976a914ca0b9c52c700894a6661ee461c94bfeb54c305cb88ac00000000","txid":"5ba4a09be4db670c83243fbb4085e5bb00491ae51af56a5bb34fc33fa66e88dd","version":1,"time":1540800432,"locktime":0,"vin":[{"txid":"bb548130b9de85fb5369a16bb8f99c2ad4152adc60bc59079b7e31aaae5f85b7","vout":0,"scriptSig":{"asm":"30450221009748a4208cd23ae0cf258ca1d5ebe7a2608e7cfa51014f770502a0c217d5da6c0220543c6659e28c10a8192132ef4f20523298b7374b6d797316d5f1deb7f0945e8701 039946aadb046d8e958358f6eb85933fb5594e517fb8f29dd1517ecb2fd5e00bdf","hex":"4830450221009748a4208cd23ae0cf258ca1d5ebe7a2608e7cfa51014f770502a0c217d5da6c0220543c6659e28c10a8192132ef4f20523298b7374b6d797316d5f1deb7f0945e870121039946aadb046d8e958358f6eb85933fb5594e517fb8f29dd1517ecb2fd5e00bdf"},"sequence":4294967295}],"vout":[{"value":39917437.48,"n":0,"scriptPubKey":{"asm":"OP_DUP OP_HASH160 77e6b807b5f1e5cd8b5f5942ee6314193a03e14c OP_EQUALVERIFY OP_CHECKSIG","reqSigs":1,"type":"pubkeyhash","addresses":["pGUZ1AJxK798WXwg3XU8XDs4GriuXUuce6"]}},{"value":19958984,"n":1,"scriptPubKey":{"asm":"OP_DUP OP_HASH160 ca0b9c52c700894a6661ee461c94bfeb54c305cb OP_EQUALVERIFY OP_CHECKSIG","reqSigs":1,"type":"pubkeyhash","addresses":["pPxtcBCE1tycUb36teemJYsmMynrU4FBp6"]}}],"blockhash":"4f85b40cb2d1bcf0fb06d0282373cec6604d74383a2e7ccdf07a61a4f308226e","confirmations":223,"blocktime":1540800432}