{"hex":"01000000b0bfd65b01ba763991814118d59ac6f49e7641584654b035353c886a723447df61832b03c20100000048473044022020a4fcc67a37284d1670910d29a6deaefe84724988149b72113386d2331e7bfa022032d1aa51147e5368a5656606a1d609a21406894c2822b9351d413e110a593fee01ffffffff03000000000000000000806c6bd3010000002321020b1cd26fc4b9f080aea1cf7b667efd5e8453f70429056589831fa7f63506ddbfac80fe210a000000001976a9147cf288aefa27580772a2e44d947f0a962553405d88ac00000000","txid":"61d2a1dfbd4369d28a699bd8288a73a3fbc96047839a6536b03117d413663712","version":1,"time":1540800432,"locktime":0,"vin":[{"txid":"c2032b8361df4734726a883c3535b054465841769ef4c69ad5184181913976ba","vout":1,"scriptSig":{"asm":"3044022020a4fcc67a37284d1670910d29a6deaefe84724988149b72113386d2331e7bfa022032d1aa51147e5368a5656606a1d609a21406894c2822b9351d413e110a593fee01","hex":"473044022020a4fcc67a37284d1670910d29a6deaefe84724988149b72113386d2331e7bfa022032d1aa51147e5368a5656606a1d609a21406894c2822b9351d413e110a593fee01"},"sequence":4294967295}],"vout":[{"value":0,"n":0,"scriptPubKey":{"asm":"","type":"nonstandard"}},{"value":78.42,"n":1,"scriptPubKey":{"asm":"020b1cd26fc4b9f080aea1cf7b667efd5e8453f70429056589831fa7f63506ddbf OP_CHECKSIG","reqSigs":1,"type":"pubkey","addresses":["pECTDpfW4nW8hYte3f3F9ZQxwgWmBwmcYL"]}},{"value":1.7,"n":2,"scriptPubKey":{"asm":"OP_DUP OP_HASH160 7cf288aefa27580772a2e44d947f0a962553405d OP_EQUALVERIFY OP_CHECKSIG","reqSigs":1,"type":"pubkeyhash","addresses":["pGwEY3YdfsrsoLzpPy8zj5rEMTsKeC6Mb3"]}}],"blockhash":"4f85b40cb2d1bcf0fb06d0282373cec6604d74383a2e7ccdf07a61a4f308226e","confirmations":223,"blocktime":1540800432}