{"hex":"01000000008ddc5b018b51fddb28e9a36d0a1190351e40af0169ea440126312c5c05ec760813ee71340100000048473044022017cb46c1715341fc300bd0d22f2485b46209b675701aa1a6d13fb76cfcaedeb0022011bb2790f1f0045701edfb0098ed01f2a97b418ed7787389b66efc0d126422e701ffffffff0400000000000000000040efd246070000002321026ef57679057df94a5f72e9fead08857f8d7253a593b2b1feed1b68e92df4a4c5ac8f31e246070000002321026ef57679057df94a5f72e9fead08857f8d7253a593b2b1feed1b68e92df4a4c5ac55000000000000001976a914a539c7c64804ba10293866c3433100eabbe41ccf88ac00000000","txid":"025ed8b0591e5cbbf88a294c6ca4c353fdb08f0b3ff8aae184100d74f65ba77b","version":1,"time":1541180672,"locktime":0,"vin":[{"txid":"3471ee130876ec055c2c31260144ea6901af401e3590110a6da3e928dbfd518b","vout":1,"scriptSig":{"asm":"3044022017cb46c1715341fc300bd0d22f2485b46209b675701aa1a6d13fb76cfcaedeb0022011bb2790f1f0045701edfb0098ed01f2a97b418ed7787389b66efc0d126422e701","hex":"473044022017cb46c1715341fc300bd0d22f2485b46209b675701aa1a6d13fb76cfcaedeb0022011bb2790f1f0045701edfb0098ed01f2a97b418ed7787389b66efc0d126422e701"},"sequence":4294967295}],"vout":[{"value":0,"n":0,"scriptPubKey":{"asm":"","type":"nonstandard"}},{"value":312.53,"n":1,"scriptPubKey":{"asm":"026ef57679057df94a5f72e9fead08857f8d7253a593b2b1feed1b68e92df4a4c5 OP_CHECKSIG","reqSigs":1,"type":"pubkey","addresses":["p5dRZ9MeyiKDma1pAUrsmvEK4NBmmdC4ZN"]}},{"value":312.54000015,"n":2,"scriptPubKey":{"asm":"026ef57679057df94a5f72e9fead08857f8d7253a593b2b1feed1b68e92df4a4c5 OP_CHECKSIG","reqSigs":1,"type":"pubkey","addresses":["p5dRZ9MeyiKDma1pAUrsmvEK4NBmmdC4ZN"]}},{"value":8.5e-7,"n":3,"scriptPubKey":{"asm":"OP_DUP OP_HASH160 a539c7c64804ba10293866c3433100eabbe41ccf OP_EQUALVERIFY OP_CHECKSIG","reqSigs":1,"type":"pubkeyhash","addresses":["pLcCv1RBNEWf4q17fiPMGMYqeFUvP9a826"]}}],"blockhash":"64cf87a58eb0ce058a43a64e2a0c0199ee9a2996d5dc5ea2175a23e4f7ceee06","confirmations":63,"blocktime":1541180672}