{"hex":"01000000ff8cdc5b013ff8729fd69b6765dbcdf9c803110a48c18976d712e6e57dce93c1c3603c461a000000006a4730440220214c46642cbe881466a3229ea44462c1186f21626aff8d28a8e0d943972dd25f0220056d0dfe2635e89b56f068c119a151b1671f3a4449cafe5c7a4ef312f66d8d18012102ac0b0f72c1c1afa913bf6baacc3be9857d8b770f77e2d91c743c162adb91869dffffffff022e741000000000001976a914dcd3f68fde929a8e8a80abc6146b94ec799c3c6088ace8030000000000001976a9142f34c4d705ead0f96be4a943ba52d64be4d9746788ac00000000","txid":"3bd8bd40baea67f10b1186b7fe779a7fcfdb47206bd8c67b7492466f2379dd90","version":1,"time":1541180672,"locktime":0,"vin":[{"txid":"1a463c60c3c193ce7de5e612d77689c1480a1103c8f9cddb65679bd69f72f83f","vout":0,"scriptSig":{"asm":"30440220214c46642cbe881466a3229ea44462c1186f21626aff8d28a8e0d943972dd25f0220056d0dfe2635e89b56f068c119a151b1671f3a4449cafe5c7a4ef312f66d8d1801 02ac0b0f72c1c1afa913bf6baacc3be9857d8b770f77e2d91c743c162adb91869d","hex":"4730440220214c46642cbe881466a3229ea44462c1186f21626aff8d28a8e0d943972dd25f0220056d0dfe2635e89b56f068c119a151b1671f3a4449cafe5c7a4ef312f66d8d18012102ac0b0f72c1c1afa913bf6baacc3be9857d8b770f77e2d91c743c162adb91869d"},"sequence":4294967295}],"vout":[{"value":0.01078318,"n":0,"scriptPubKey":{"asm":"OP_DUP OP_HASH160 dcd3f68fde929a8e8a80abc6146b94ec799c3c60 OP_EQUALVERIFY OP_CHECKSIG","reqSigs":1,"type":"pubkeyhash","addresses":["pRgCnN7kbUubhWiWk9PSH2Fgt3nCptTYne"]}},{"value":0.00001,"n":1,"scriptPubKey":{"asm":"OP_DUP OP_HASH160 2f34c4d705ead0f96be4a943ba52d64be4d97467 OP_EQUALVERIFY OP_CHECKSIG","reqSigs":1,"type":"pubkeyhash","addresses":["p9rBBAnFbWMe2F7Xyjnef6hWsN7kCpAPpG"]}}],"blockhash":"64cf87a58eb0ce058a43a64e2a0c0199ee9a2996d5dc5ea2175a23e4f7ceee06","confirmations":63,"blocktime":1541180672}