{"hex":"01000000e0c3d65b0167128e35ea4a3708028c759ac7b1e8203fd3979627b94ec88fa2bc05ce9faad7010000004948304502210091732cd512db636da50f7499dbd3fb4674757d5ca0a40309ef7b95d3d04f62ed02205d0f2805d47e0bc8c2a2b63ad8d36e15ee1be3e5e63d3571c8d2325000973d8d01ffffffff03000000000000000000301ea2d1010000002321020b1cd26fc4b9f080aea1cf7b667efd5e8453f70429056589831fa7f63506ddbfac10980200000000001976a914239bf4dba7e2193b7f701a7b68d0e94c85d85fac88ac00000000","txid":"3a04029259ea904b7978539fdc7ef1eaacaff3452b7f29a70edf90d3f76d4819","version":1,"time":1540801504,"locktime":0,"vin":[{"txid":"d7aa9fce05bca28fc84eb9279697d33f20e8b1c79a758c0208374aea358e1267","vout":1,"scriptSig":{"asm":"304502210091732cd512db636da50f7499dbd3fb4674757d5ca0a40309ef7b95d3d04f62ed02205d0f2805d47e0bc8c2a2b63ad8d36e15ee1be3e5e63d3571c8d2325000973d8d01","hex":"48304502210091732cd512db636da50f7499dbd3fb4674757d5ca0a40309ef7b95d3d04f62ed02205d0f2805d47e0bc8c2a2b63ad8d36e15ee1be3e5e63d3571c8d2325000973d8d01"},"sequence":4294967295}],"vout":[{"value":0,"n":0,"scriptPubKey":{"asm":"","type":"nonstandard"}},{"value":78.1203,"n":1,"scriptPubKey":{"asm":"020b1cd26fc4b9f080aea1cf7b667efd5e8453f70429056589831fa7f63506ddbf OP_CHECKSIG","reqSigs":1,"type":"pubkey","addresses":["pECTDpfW4nW8hYte3f3F9ZQxwgWmBwmcYL"]}},{"value":0.0017,"n":2,"scriptPubKey":{"asm":"OP_DUP OP_HASH160 239bf4dba7e2193b7f701a7b68d0e94c85d85fac OP_EQUALVERIFY OP_CHECKSIG","reqSigs":1,"type":"pubkeyhash","addresses":["p8nrgTxTfKDC3hvmSmFxDcxpYguUCo8yWb"]}}],"blockhash":"911dc6f3b42eb618a5b46bb514639ba94f0c122352d929fcec40f3a276f7f0d6","confirmations":218,"blocktime":1540801504}