{"hex":"01000000d1c3d65b013853eeb8801a463cb06b1ac26b29a52b545fd61688ffa580e26e0a629d5d42f7000000006b4830450221009439dd6d3b9b78e8192677fb69f30423996ac738ad8ee120d40ce96f335a905702207e00b3564b2ae39c0aa1398cc3e40f45a3efb680ee19d6b97686cb85135787a1012102d44481a1dec3fafcbbaec3fdd2449c3f3812f94e33172057b50dc79daacb3434ffffffff02802f33fc751707001976a9145f47f75be3ac25386b78965908e69b99849c4a0588ac00c2eb0b000000001976a914e0d43ee21fcd1fe8c0b70d5fc6495b2205abf15288ac00000000","txid":"7c408ff8be128cb90ce092b18dc59cee962af5101c972d6f8feb78c1268b61f5","version":1,"time":1540801504,"locktime":0,"vin":[{"txid":"f7425d9d620a6ee280a5ff8816d65f542ba5296bc21a6bb03c461a80b8ee5338","vout":0,"scriptSig":{"asm":"30450221009439dd6d3b9b78e8192677fb69f30423996ac738ad8ee120d40ce96f335a905702207e00b3564b2ae39c0aa1398cc3e40f45a3efb680ee19d6b97686cb85135787a101 02d44481a1dec3fafcbbaec3fdd2449c3f3812f94e33172057b50dc79daacb3434","hex":"4830450221009439dd6d3b9b78e8192677fb69f30423996ac738ad8ee120d40ce96f335a905702207e00b3564b2ae39c0aa1398cc3e40f45a3efb680ee19d6b97686cb85135787a1012102d44481a1dec3fafcbbaec3fdd2449c3f3812f94e33172057b50dc79daacb3434"},"sequence":4294967295}],"vout":[{"value":19961203.468,"n":0,"scriptPubKey":{"asm":"OP_DUP OP_HASH160 5f47f75be3ac25386b78965908e69b99849c4a05 OP_EQUALVERIFY OP_CHECKSIG","reqSigs":1,"type":"pubkeyhash","addresses":["pEENcEQEGfD2UpEZsEHpKMs2iHmo2Ks7Qx"]}},{"value":2,"n":1,"scriptPubKey":{"asm":"OP_DUP OP_HASH160 e0d43ee21fcd1fe8c0b70d5fc6495b2205abf152 OP_EQUALVERIFY OP_CHECKSIG","reqSigs":1,"type":"pubkeyhash","addresses":["pS3Mpm6JWGxvJNJnkZTSoVhUfLTcgM2tej"]}}],"blockhash":"911dc6f3b42eb618a5b46bb514639ba94f0c122352d929fcec40f3a276f7f0d6","confirmations":218,"blocktime":1540801504}