{"hex":"0100000013bfd65b0230eb0f73cb227a24dbcc4c454059251c2a36f586068b3aee08e700387236788d010000006b483045022100c3250fb0b13078f847cb43726845bdcb2a3a8921238071156dd87dc2835a8f0c02202f501d868ca19d3dd0afbcaeda075ca77bff53462160c7e550e6be95d4302ee90121032509022da3c32f5ed8f092f556495ebb87a84af38d2dc20db2ba87c1027f0723ffffffffb7855faeaa317e9b0759bc60dc2a15d42a9cf9b86ba16953fb85deb9308154bb010000006a47304402201f5b1a81c70cd143b4ae9a1a1efb6c658eb2e5fd4494ca8954e6b0b5757dde6f022078f333cfc17c14ce030aa1973fb3d39c75767b8c1edb38036a7bcddf7cefbe910121032509022da3c32f5ed8f092f556495ebb87a84af38d2dc20db2ba87c1027f0723ffffffff02c07fdc0b000000001976a9144d21d3ac9cd87ff3a8aaeffc1c0a8b4c5cc4b1da88ac00ca9a3b000000001976a914ca8cf0c64c70fef01fd509b38009c1b160b4dc0d88ac00000000","txid":"63335dfe5b7ad9ece484eb3027777e6ddd3ef1a42e746b09c5ce6499770aae22","version":1,"time":1540800288,"locktime":0,"vin":[{"txid":"8d7836723800e708ee3a8b0686f5362a1c255940454cccdb247a22cb730feb30","vout":1,"scriptSig":{"asm":"3045022100c3250fb0b13078f847cb43726845bdcb2a3a8921238071156dd87dc2835a8f0c02202f501d868ca19d3dd0afbcaeda075ca77bff53462160c7e550e6be95d4302ee901 032509022da3c32f5ed8f092f556495ebb87a84af38d2dc20db2ba87c1027f0723","hex":"483045022100c3250fb0b13078f847cb43726845bdcb2a3a8921238071156dd87dc2835a8f0c02202f501d868ca19d3dd0afbcaeda075ca77bff53462160c7e550e6be95d4302ee90121032509022da3c32f5ed8f092f556495ebb87a84af38d2dc20db2ba87c1027f0723"},"sequence":4294967295},{"txid":"bb548130b9de85fb5369a16bb8f99c2ad4152adc60bc59079b7e31aaae5f85b7","vout":1,"scriptSig":{"asm":"304402201f5b1a81c70cd143b4ae9a1a1efb6c658eb2e5fd4494ca8954e6b0b5757dde6f022078f333cfc17c14ce030aa1973fb3d39c75767b8c1edb38036a7bcddf7cefbe9101 032509022da3c32f5ed8f092f556495ebb87a84af38d2dc20db2ba87c1027f0723","hex":"47304402201f5b1a81c70cd143b4ae9a1a1efb6c658eb2e5fd4494ca8954e6b0b5757dde6f022078f333cfc17c14ce030aa1973fb3d39c75767b8c1edb38036a7bcddf7cefbe910121032509022da3c32f5ed8f092f556495ebb87a84af38d2dc20db2ba87c1027f0723"},"sequence":4294967295}],"vout":[{"value":1.99,"n":0,"scriptPubKey":{"asm":"OP_DUP OP_HASH160 4d21d3ac9cd87ff3a8aaeffc1c0a8b4c5cc4b1da OP_EQUALVERIFY OP_CHECKSIG","reqSigs":1,"type":"pubkeyhash","addresses":["pCaQkonPJWx4zjuNyS1atYTQJoXJr6uLyk"]}},{"value":10,"n":1,"scriptPubKey":{"asm":"OP_DUP OP_HASH160 ca8cf0c64c70fef01fd509b38009c1b160b4dc0d OP_EQUALVERIFY OP_CHECKSIG","reqSigs":1,"type":"pubkeyhash","addresses":["pQ1ZYB5wqubqWCbYt86c6WKcDPrc56j4pK"]}}],"blockhash":"4b29ea6ce07516e9a70203913b4ee96749ed87bb4c2885da92b2f7fa9e7c7f69","confirmations":224,"blocktime":1540800288}