{"hex":"0100000020bfd65b01e194d43b503f7bd8fdbe69fa4c16023ab0b3d4d18fb22025a91531318c5ffd51020000004847304402207274754d35366273ec3a1fa1ebe9864ac2cd8881fdd4cd3fc48896dd336dcd6102200b3ff9a746329e68ef16971d0b3c89a7cb88d91c28df98e5ef4a07aceb5c883801ffffffff03000000000000000000a93eb3d1010000002321020b1cd26fc4b9f080aea1cf7b667efd5e8453f70429056589831fa7f63506ddbfac50f80c00000000001976a9140c2d1eddba56317fb81d41241b8f40bbca7b5b5488ac00000000","txid":"71fcded6b0d59e6733a02d93ac6a3502e04172a492a04135b5493b6a868ed87e","version":1,"time":1540800288,"locktime":0,"vin":[{"txid":"51fd5f8c313115a92520b28fd1d4b3b03a02164cfa69befdd87b3f503bd494e1","vout":2,"scriptSig":{"asm":"304402207274754d35366273ec3a1fa1ebe9864ac2cd8881fdd4cd3fc48896dd336dcd6102200b3ff9a746329e68ef16971d0b3c89a7cb88d91c28df98e5ef4a07aceb5c883801","hex":"47304402207274754d35366273ec3a1fa1ebe9864ac2cd8881fdd4cd3fc48896dd336dcd6102200b3ff9a746329e68ef16971d0b3c89a7cb88d91c28df98e5ef4a07aceb5c883801"},"sequence":4294967295}],"vout":[{"value":0,"n":0,"scriptPubKey":{"asm":"","type":"nonstandard"}},{"value":78.13152425,"n":1,"scriptPubKey":{"asm":"020b1cd26fc4b9f080aea1cf7b667efd5e8453f70429056589831fa7f63506ddbf OP_CHECKSIG","reqSigs":1,"type":"pubkey","addresses":["pECTDpfW4nW8hYte3f3F9ZQxwgWmBwmcYL"]}},{"value":0.0085,"n":2,"scriptPubKey":{"asm":"OP_DUP OP_HASH160 0c2d1eddba56317fb81d41241b8f40bbca7b5b54 OP_EQUALVERIFY OP_CHECKSIG","reqSigs":1,"type":"pubkeyhash","addresses":["p6exN3FuZmZyQ7WNzLf7AweTLuHqDvcERN"]}}],"blockhash":"4b29ea6ce07516e9a70203913b4ee96749ed87bb4c2885da92b2f7fa9e7c7f69","confirmations":224,"blocktime":1540800288}