{"hex":"01000000a0c4d65b0167128e35ea4a3708028c759ac7b1e8203fd3979627b94ec88fa2bc05ce9faad70200000049483045022100a468aaec694e099eaf46233ab60074149384c29d07803ebb080c96e1d7f7180c0220491b61f125159d8bebfb31f16f2174d841becf973978c50dec1f8b61be4bdf8501ffffffff03000000000000000000cf3bb3d1010000002321020b1cd26fc4b9f080aea1cf7b667efd5e8453f70429056589831fa7f63506ddbfac50f80c00000000001976a91405799d876e3b7c328ae01baece26d0f931b0f5fa88ac00000000","txid":"319c9036ba514b8547c04ccf79a1ef61200beaaef71f110dab7dd0f1129ebebd","version":1,"time":1540801696,"locktime":0,"vin":[{"txid":"d7aa9fce05bca28fc84eb9279697d33f20e8b1c79a758c0208374aea358e1267","vout":2,"scriptSig":{"asm":"3045022100a468aaec694e099eaf46233ab60074149384c29d07803ebb080c96e1d7f7180c0220491b61f125159d8bebfb31f16f2174d841becf973978c50dec1f8b61be4bdf8501","hex":"483045022100a468aaec694e099eaf46233ab60074149384c29d07803ebb080c96e1d7f7180c0220491b61f125159d8bebfb31f16f2174d841becf973978c50dec1f8b61be4bdf8501"},"sequence":4294967295}],"vout":[{"value":0,"n":0,"scriptPubKey":{"asm":"","type":"nonstandard"}},{"value":78.13151695,"n":1,"scriptPubKey":{"asm":"020b1cd26fc4b9f080aea1cf7b667efd5e8453f70429056589831fa7f63506ddbf OP_CHECKSIG","reqSigs":1,"type":"pubkey","addresses":["pECTDpfW4nW8hYte3f3F9ZQxwgWmBwmcYL"]}},{"value":0.0085,"n":2,"scriptPubKey":{"asm":"OP_DUP OP_HASH160 05799d876e3b7c328ae01baece26d0f931b0f5fa OP_EQUALVERIFY OP_CHECKSIG","reqSigs":1,"type":"pubkeyhash","addresses":["p63XGeVRkcywXEQJE5bkXjJFiugf8tT1er"]}}],"blockhash":"0614339ee7e230c0129c3e0b8bf9055a345bf90ed5566125bdb5ba0aac26cbcd","confirmations":217,"blocktime":1540801696}