{"hex":"0100000090c4d65b01f5618b26c178eb8f6f2d971c10f52a96ee9cc58db192e00cb98c12bef88f407c000000006a47304402200a2ff7374a5b1109e81568188166d69aa75169a35ce064af2e3fb93821c415670220067d71a03704ff40bd25e7dbbc94f45c605c0f303c6855ecc06b81f5d81a898e012102fce3095827503ae30c11db08925df92db0206c058a03204a3078ff057e233167ffffffff02402389c0751707001976a914a3abece152742e64a05b2fcc911f4dbc8e30945f88ac00ca9a3b000000001976a914e0d43ee21fcd1fe8c0b70d5fc6495b2205abf15288ac00000000","txid":"99731ed844e6328543ae93a80b1064cb4faec0e05af46dcce331cf58e87395c7","version":1,"time":1540801696,"locktime":0,"vin":[{"txid":"7c408ff8be128cb90ce092b18dc59cee962af5101c972d6f8feb78c1268b61f5","vout":0,"scriptSig":{"asm":"304402200a2ff7374a5b1109e81568188166d69aa75169a35ce064af2e3fb93821c415670220067d71a03704ff40bd25e7dbbc94f45c605c0f303c6855ecc06b81f5d81a898e01 02fce3095827503ae30c11db08925df92db0206c058a03204a3078ff057e233167","hex":"47304402200a2ff7374a5b1109e81568188166d69aa75169a35ce064af2e3fb93821c415670220067d71a03704ff40bd25e7dbbc94f45c605c0f303c6855ecc06b81f5d81a898e012102fce3095827503ae30c11db08925df92db0206c058a03204a3078ff057e233167"},"sequence":4294967295}],"vout":[{"value":19961193.458,"n":0,"scriptPubKey":{"asm":"OP_DUP OP_HASH160 a3abece152742e64a05b2fcc911f4dbc8e30945f OP_EQUALVERIFY OP_CHECKSIG","reqSigs":1,"type":"pubkeyhash","addresses":["pLTzJZ6BYuZ6vtP5hkvgFvQsmdptAtPtdv"]}},{"value":10,"n":1,"scriptPubKey":{"asm":"OP_DUP OP_HASH160 e0d43ee21fcd1fe8c0b70d5fc6495b2205abf152 OP_EQUALVERIFY OP_CHECKSIG","reqSigs":1,"type":"pubkeyhash","addresses":["pS3Mpm6JWGxvJNJnkZTSoVhUfLTcgM2tej"]}}],"blockhash":"0614339ee7e230c0129c3e0b8bf9055a345bf90ed5566125bdb5ba0aac26cbcd","confirmations":217,"blocktime":1540801696}