{"hex":"01000000715cc35b0177293f4b7a1fda1d289a8d9fea5d4d8c187ef3d66fca2c51008c3ddb2a0edb53000000006a473044022030c26462286ee1a3a83d02e607397bbcf7d53949ee04927eaff62a94626d0cc002204c1c53a51ac2a9e175dfaff86b3fc0ddc57d75f1264430d7e9408f75069e711b0121030ffeba7999e690649ada9acd0b2d0b921f98ae2e90e02d12087304db320bf62cffffffff02007c6d6d1e7b23001976a91484824e5a7b85c1ebe64491808ebf4c7d812b230e88ac0088526a740000001976a914b4297f2bb1ec22148c170ab2f943e6826c4d831d88ac00000000","txid":"86f15389b200de51926b684c73a3e0856e7974de1fe4d7ee149ac9309e968efa","version":1,"time":1539529856,"locktime":0,"vin":[{"txid":"53db0e2adb3d8c00512cca6fd6f37e188c4d5dea9f8d9a281dda1f7a4b3f2977","vout":0,"scriptSig":{"asm":"3044022030c26462286ee1a3a83d02e607397bbcf7d53949ee04927eaff62a94626d0cc002204c1c53a51ac2a9e175dfaff86b3fc0ddc57d75f1264430d7e9408f75069e711b01 030ffeba7999e690649ada9acd0b2d0b921f98ae2e90e02d12087304db320bf62c","hex":"473044022030c26462286ee1a3a83d02e607397bbcf7d53949ee04927eaff62a94626d0cc002204c1c53a51ac2a9e175dfaff86b3fc0ddc57d75f1264430d7e9408f75069e711b0121030ffeba7999e690649ada9acd0b2d0b921f98ae2e90e02d12087304db320bf62c"},"sequence":4294967295}],"vout":[{"value":99869948,"n":0,"scriptPubKey":{"asm":"OP_DUP OP_HASH160 84824e5a7b85c1ebe64491808ebf4c7d812b230e OP_EQUALVERIFY OP_CHECKSIG","reqSigs":1,"type":"pubkeyhash","addresses":["pHdDVrLhdAwAdmDg1Ss9e46KYii8e2DYgX"]}},{"value":5000,"n":1,"scriptPubKey":{"asm":"OP_DUP OP_HASH160 b4297f2bb1ec22148c170ab2f943e6826c4d831d OP_EQUALVERIFY OP_CHECKSIG","reqSigs":1,"type":"pubkeyhash","addresses":["pMyBYUpcH3ehvzacvgmtahza4iSykvMcUD"]}}],"blockhash":"02efd8a727c15a0171b1ef369d56d4de3552204808eb2b37b1e00ebdc4c8b99d","confirmations":322,"blocktime":1539529856}