{"hex":"01000000805cc35b0166092e2a3927bda7dc97bfc5a5cff4c47a59dbdbc43c902eedfe49963c2bc6ec0200000049483045022100e2fa4ff03de99e8d1f5bf1ce11da25137ea94b4158439e8cab9173a86e127d3202202ea32cf612cbfb1bc5e22d5650d488abaf64481c3152e1a6eddeaf704c6d3eb101ffffffff04000000000000000000800bd78e0e00000023210348b24f77eda58d2bf0bd56f764cfdeb0100d2f1058b2d5318f2f2fc9670e730eacc04de68e0e00000023210348b24f77eda58d2bf0bd56f764cfdeb0100d2f1058b2d5318f2f2fc9670e730eac80fe210a000000001976a91413cd926daa0b2e1422cabca27e3cbc3aebbee60e88ac00000000","txid":"a10431353ea65bc5bc31a7c3bd1cc077331255ca558b075cf9fe36d742806a28","version":1,"time":1539529856,"locktime":0,"vin":[{"txid":"ecc62b3c9649feed2e903cc4dbdb597ac4f4cfa5c5bf97dca7bd27392a2e0966","vout":2,"scriptSig":{"asm":"3045022100e2fa4ff03de99e8d1f5bf1ce11da25137ea94b4158439e8cab9173a86e127d3202202ea32cf612cbfb1bc5e22d5650d488abaf64481c3152e1a6eddeaf704c6d3eb101","hex":"483045022100e2fa4ff03de99e8d1f5bf1ce11da25137ea94b4158439e8cab9173a86e127d3202202ea32cf612cbfb1bc5e22d5650d488abaf64481c3152e1a6eddeaf704c6d3eb101"},"sequence":4294967295}],"vout":[{"value":0,"n":0,"scriptPubKey":{"asm":"","type":"nonstandard"}},{"value":625.26,"n":1,"scriptPubKey":{"asm":"0348b24f77eda58d2bf0bd56f764cfdeb0100d2f1058b2d5318f2f2fc9670e730e OP_CHECKSIG","reqSigs":1,"type":"pubkey","addresses":["p8X7huKtvdnnDzc17Xcxxh1Z9ww8ckxvVJ"]}},{"value":625.27,"n":2,"scriptPubKey":{"asm":"0348b24f77eda58d2bf0bd56f764cfdeb0100d2f1058b2d5318f2f2fc9670e730e OP_CHECKSIG","reqSigs":1,"type":"pubkey","addresses":["p8X7huKtvdnnDzc17Xcxxh1Z9ww8ckxvVJ"]}},{"value":1.7,"n":3,"scriptPubKey":{"asm":"OP_DUP OP_HASH160 13cd926daa0b2e1422cabca27e3cbc3aebbee60e OP_EQUALVERIFY OP_CHECKSIG","reqSigs":1,"type":"pubkeyhash","addresses":["p7MHJk1NCoVwVPjx7mEGWrpeSkLSYSZyuV"]}}],"blockhash":"02efd8a727c15a0171b1ef369d56d4de3552204808eb2b37b1e00ebdc4c8b99d","confirmations":36,"blocktime":1539529856}