{"hex":"01000000e05ae05b013f17e1d48f1e32633ea2cc10186b10eb83046ab0a0245e9aa23598340bf19088020000004847304402205767d337455f473c5fb00477b3ef9bd44ae168be858df3eb584c4d73b4f27beb02207d820147b763aee54cb97acb7c7d0fffba2ee7b45661f8e002e88ae46774f4aa01ffffffff0400000000000000000000514a8d0e0000002321037080154ad035d87bbe47e967ce43ddce5951865effbdda9b3c857d929ea146c7ac41334b8d0e0000002321037080154ad035d87bbe47e967ce43ddce5951865effbdda9b3c857d929ea146c7ac811c0000000000001976a9144c86b0b2edcbbfcf0d0112bbb160a541568205b788ac00000000","txid":"d2e1614d3de133dac9bb43b4198a536943c91c2bd9d64dd9669755e7a6f96604","version":1,"time":1541429984,"locktime":0,"vin":[{"txid":"8890f10b349835a29a5e24a0b06a0483eb106b1810cca23e63321e8fd4e1173f","vout":2,"scriptSig":{"asm":"304402205767d337455f473c5fb00477b3ef9bd44ae168be858df3eb584c4d73b4f27beb02207d820147b763aee54cb97acb7c7d0fffba2ee7b45661f8e002e88ae46774f4aa01","hex":"47304402205767d337455f473c5fb00477b3ef9bd44ae168be858df3eb584c4d73b4f27beb02207d820147b763aee54cb97acb7c7d0fffba2ee7b45661f8e002e88ae46774f4aa01"},"sequence":4294967295}],"vout":[{"value":0,"n":0,"scriptPubKey":{"asm":"","type":"nonstandard"}},{"value":625,"n":1,"scriptPubKey":{"asm":"037080154ad035d87bbe47e967ce43ddce5951865effbdda9b3c857d929ea146c7 OP_CHECKSIG","reqSigs":1,"type":"pubkey","addresses":["pEhwSeKiP8Q9UV5H4Vwts61nBy8VHfUUbd"]}},{"value":625.00057921,"n":2,"scriptPubKey":{"asm":"037080154ad035d87bbe47e967ce43ddce5951865effbdda9b3c857d929ea146c7 OP_CHECKSIG","reqSigs":1,"type":"pubkey","addresses":["pEhwSeKiP8Q9UV5H4Vwts61nBy8VHfUUbd"]}},{"value":0.00007297,"n":3,"scriptPubKey":{"asm":"OP_DUP OP_HASH160 4c86b0b2edcbbfcf0d0112bbb160a541568205b7 OP_EQUALVERIFY OP_CHECKSIG","reqSigs":1,"type":"pubkeyhash","addresses":["pCXCuj4F9uaYHMue5Nqy3XLKdLz4U9gRoi"]}}],"blockhash":"1b8172ca3f1ca363295f05f5892237b71452eb9e668220b4e0f90bf8375abaec","confirmations":34,"blocktime":1541429984}