{"hex":"01000000d25ae05b01b153b27499adebce63344c1319cb5f1bec36ab8d3bfe89b34114c3cbf5c7130f010000006b483045022100dd593dd7307c1276c7ed6dcbaf346c623bca43acfebfbb148d68ca26814b7ce8022077f2952d17728257e246c2ada6b8f75847e64b4bd77327b0b233386a44cd54df012103b37a87d0ae5a7dafe50b2361483cead7e8902ed6d204bf30365f9b389822c4b1ffffffff0254061601000000001976a914bce2a1b388fde1a079291bc55c291bdb74f783eb88ac3b028300000000001976a914bb175d4d3c97e49f4a665f93d89074aaaedaa84a88ac00000000","txid":"f9381e2046d72b431c807f128df05b748e58f358d129be60fa15599c8360d235","version":1,"time":1541429984,"locktime":0,"vin":[{"txid":"0f13c7f5cbc31441b389fe3b8dab36ec1b5fcb19134c3463ceebad9974b253b1","vout":1,"scriptSig":{"asm":"3045022100dd593dd7307c1276c7ed6dcbaf346c623bca43acfebfbb148d68ca26814b7ce8022077f2952d17728257e246c2ada6b8f75847e64b4bd77327b0b233386a44cd54df01 03b37a87d0ae5a7dafe50b2361483cead7e8902ed6d204bf30365f9b389822c4b1","hex":"483045022100dd593dd7307c1276c7ed6dcbaf346c623bca43acfebfbb148d68ca26814b7ce8022077f2952d17728257e246c2ada6b8f75847e64b4bd77327b0b233386a44cd54df012103b37a87d0ae5a7dafe50b2361483cead7e8902ed6d204bf30365f9b389822c4b1"},"sequence":4294967295}],"vout":[{"value":0.18220628,"n":0,"scriptPubKey":{"asm":"OP_DUP OP_HASH160 bce2a1b388fde1a079291bc55c291bdb74f783eb OP_EQUALVERIFY OP_CHECKSIG","reqSigs":1,"type":"pubkeyhash","addresses":["pNmJjQso36kA2ZywGPoxPHtdKSyL7vfyh7"]}},{"value":0.08585787,"n":1,"scriptPubKey":{"asm":"OP_DUP OP_HASH160 bb175d4d3c97e49f4a665f93d89074aaaedaa84a OP_EQUALVERIFY OP_CHECKSIG","reqSigs":1,"type":"pubkeyhash","addresses":["pNbpYy9qQZcuWymu7MBYhYTWoreMfMCoPo"]}}],"blockhash":"1b8172ca3f1ca363295f05f5892237b71452eb9e668220b4e0f90bf8375abaec","confirmations":34,"blocktime":1541429984}