{"hex":"01000000a073e05b0129bf178bbf3e4b08c2355c54e32a34178c98ad0778a19585f8281ca8a8629e20010000006b483045022100cdaaab2760c51285f8112e2328290137946f70fb9676454e86bc7d51e90cfe3102204b986ee38fa9a6cc3ff687cf15dfc4c19f7cb2ac43c2802e168ceb694af66ecf012102ddc638d0e4db35a090f68ef0080e42c44787bc03abdca3aedd301485dd70c1f6ffffffff04000000000000000000004429353a000000232102ddc638d0e4db35a090f68ef0080e42c44787bc03abdca3aedd301485dd70c1f6ac1c4529353a000000232102ddc638d0e4db35a090f68ef0080e42c44787bc03abdca3aedd301485dd70c1f6ac45060000000000001976a914b4297f2bb1ec22148c170ab2f943e6826c4d831d88ac00000000","txid":"c5fc40dd4b8f936c9084d119b0634a430192b60dc79498c034efc7d4d4829f60","version":1,"time":1541436320,"locktime":0,"vin":[{"txid":"209e62a8a81c28f88595a17807ad988c17342ae3545c35c2084b3ebf8b17bf29","vout":1,"scriptSig":{"asm":"3045022100cdaaab2760c51285f8112e2328290137946f70fb9676454e86bc7d51e90cfe3102204b986ee38fa9a6cc3ff687cf15dfc4c19f7cb2ac43c2802e168ceb694af66ecf01 02ddc638d0e4db35a090f68ef0080e42c44787bc03abdca3aedd301485dd70c1f6","hex":"483045022100cdaaab2760c51285f8112e2328290137946f70fb9676454e86bc7d51e90cfe3102204b986ee38fa9a6cc3ff687cf15dfc4c19f7cb2ac43c2802e168ceb694af66ecf012102ddc638d0e4db35a090f68ef0080e42c44787bc03abdca3aedd301485dd70c1f6"},"sequence":4294967295}],"vout":[{"value":0,"n":0,"scriptPubKey":{"asm":"","type":"nonstandard"}},{"value":2500,"n":1,"scriptPubKey":{"asm":"02ddc638d0e4db35a090f68ef0080e42c44787bc03abdca3aedd301485dd70c1f6 OP_CHECKSIG","reqSigs":1,"type":"pubkey","addresses":["pHosNaAavGxjBXaJVQnyrJDcTKDMVqKujz"]}},{"value":2500.00000284,"n":2,"scriptPubKey":{"asm":"02ddc638d0e4db35a090f68ef0080e42c44787bc03abdca3aedd301485dd70c1f6 OP_CHECKSIG","reqSigs":1,"type":"pubkey","addresses":["pHosNaAavGxjBXaJVQnyrJDcTKDMVqKujz"]}},{"value":0.00001605,"n":3,"scriptPubKey":{"asm":"OP_DUP OP_HASH160 b4297f2bb1ec22148c170ab2f943e6826c4d831d OP_EQUALVERIFY OP_CHECKSIG","reqSigs":1,"type":"pubkeyhash","addresses":["pMyBYUpcH3ehvzacvgmtahza4iSykvMcUD"]}}],"blockhash":"8fcd58c771ef75c23d4b65ff5258bdba18a7a2f888ce63c51c83466656569f1d","confirmations":29,"blocktime":1541436320}