{"hex":"010000009273e05b01bd664faf3aa4e469ea5a5877e4b9fd7193c65555d0c58c5a55fd4999226a92d7000000006a47304402204ec59637e0e4d48db9fad183d41ef6bec22dd98df2925871ef4b679a422503ad02207742213e644598ccef5ee39b36f566c7107d4972b099f5d4bb1c7e12bfbbbc0801210354ab2169ea9576f3acc37617dd53e7d6febdb8e07d67bc47330c74cd5a2a2134ffffffff0280a17801000000001976a914e813b55b9aa04c426c3c98b16581b37e7edad52a88ac80d31c00000000001976a914130799447898349b699c55ccbfc4592bcd52326088ac00000000","txid":"dfde4e8a07dfd2f3ca534d29483c0803389688c59c343532c90594f1621e5b3f","version":1,"time":1541436320,"locktime":0,"vin":[{"txid":"d7926a229949fd555a8cc5d05555c69371fdb9e477585aea69e4a43aaf4f66bd","vout":0,"scriptSig":{"asm":"304402204ec59637e0e4d48db9fad183d41ef6bec22dd98df2925871ef4b679a422503ad02207742213e644598ccef5ee39b36f566c7107d4972b099f5d4bb1c7e12bfbbbc0801 0354ab2169ea9576f3acc37617dd53e7d6febdb8e07d67bc47330c74cd5a2a2134","hex":"47304402204ec59637e0e4d48db9fad183d41ef6bec22dd98df2925871ef4b679a422503ad02207742213e644598ccef5ee39b36f566c7107d4972b099f5d4bb1c7e12bfbbbc0801210354ab2169ea9576f3acc37617dd53e7d6febdb8e07d67bc47330c74cd5a2a2134"},"sequence":4294967295}],"vout":[{"value":0.2468288,"n":0,"scriptPubKey":{"asm":"OP_DUP OP_HASH160 e813b55b9aa04c426c3c98b16581b37e7edad52a OP_EQUALVERIFY OP_CHECKSIG","reqSigs":1,"type":"pubkeyhash","addresses":["pShgaaMSPLR7kmeeKo2y8sK9tXwA9hU7tq"]}},{"value":0.01889152,"n":1,"scriptPubKey":{"asm":"OP_DUP OP_HASH160 130799447898349b699c55ccbfc4592bcd523260 OP_EQUALVERIFY OP_CHECKSIG","reqSigs":1,"type":"pubkeyhash","addresses":["p7HC9KMk3Z3KdsYRwjEEnZLa3BdBWC5wrZ"]}}],"blockhash":"8fcd58c771ef75c23d4b65ff5258bdba18a7a2f888ce63c51c83466656569f1d","confirmations":29,"blocktime":1541436320}