{"hex":"010000002d36db5b053d4363753753c38725fca8df21c94c10d547501ea21625741b2b7b6271bf60be010000006a4730440220446bf9de84eb70b777d440240d59fb41ff996ae0ccc4902978903a3078190171022023de836c23641564d97244d054df699508b145fb0e5728c3b49bc42d1565bf900121027b7b296ce4cd884a113851dc8a36d3ad7100ed8150a7ea4a65087060216febdaffffffffec91dfefbf58726a972a236a64a78cdabc8d95141d5d4267f2852908ec756f68010000006b483045022100f6e5e6f6912753725d7f047ee3f7aad74faffff5f9b71321afd6f77451ee87b70220167d3c59583f0ae3ed3fbc7b83b9d6f17e420254f48f1165c27933780dc39cf701210347fb0d31411bae64e9a35375992fdafc5522d6c99e147868b693e330b1646f3affffffff0d90f72e77986b5e527403a4a016354b50c50b4f4283d2024f0762de8a7910d7010000006a4730440220394f933a27d54ba291054534427d31115a724ba30d4fd383dbf754943927b4d0022067de7f18d4e74409a29f082733af757a0679875b5959fdfeaba08def8d0932220121029165b62244ec4c36bc016aba2d250d4474f7887c185bcace417ed7b43356f986ffffffffada665f7e48e136670b0b6f29483d1a9bee572d258df42ab1b7b1543fbce07fb010000006a47304402202bb639ac63041b658dc561e2949f397a3a796332bde01453d2dc219225a5c3ce02204e8e46e0b4410bf911d098cd6b4f91a708d489238eb0545f90ad1e7541f777f601210233176d8154f7d04e2d2450b0390ea792b10ef1edd013e703c5f1452fbc470d2fffffffff38646b875af49c45081c305a0c551a2dab2dbffbcc69671e083c5859dd19a039000000006a4730440220128c79fd33b6a18d9e02bae7b60f895a55f0cf292dfef78f0ffccb452c35546802206cbea48d7d22ec7a5f38b587b8f13fb1e1029f983d47c2b4c1bc41d325a2659b0121031376a5340acd31684b0f9c9cfe39da1e0dcd3846217048acdea5905dd7175996ffffffff0262450f00000000001976a914775231cc4cedf2749b36eedd520761d3938fa7fb88ac8a7b1000000000001976a914e73783d5dcd0d239c5c2d9b7ac6957ac0a884b8a88ac00000000","txid":"57f6285f38336a2430568b3913edf8419238ebe11fdac62602190bc432f33e55","version":1,"time":1541092912,"locktime":0,"vin":[{"txid":"be60bf71627b2b1b742516a21e5047d5104cc921dfa8fc2587c353377563433d","vout":1,"scriptSig":{"asm":"30440220446bf9de84eb70b777d440240d59fb41ff996ae0ccc4902978903a3078190171022023de836c23641564d97244d054df699508b145fb0e5728c3b49bc42d1565bf9001 027b7b296ce4cd884a113851dc8a36d3ad7100ed8150a7ea4a65087060216febda","hex":"4730440220446bf9de84eb70b777d440240d59fb41ff996ae0ccc4902978903a3078190171022023de836c23641564d97244d054df699508b145fb0e5728c3b49bc42d1565bf900121027b7b296ce4cd884a113851dc8a36d3ad7100ed8150a7ea4a65087060216febda"},"sequence":4294967295},{"txid":"686f75ec082985f267425d1d14958dbcda8ca7646a232a976a7258bfefdf91ec","vout":1,"scriptSig":{"asm":"3045022100f6e5e6f6912753725d7f047ee3f7aad74faffff5f9b71321afd6f77451ee87b70220167d3c59583f0ae3ed3fbc7b83b9d6f17e420254f48f1165c27933780dc39cf701 0347fb0d31411bae64e9a35375992fdafc5522d6c99e147868b693e330b1646f3a","hex":"483045022100f6e5e6f6912753725d7f047ee3f7aad74faffff5f9b71321afd6f77451ee87b70220167d3c59583f0ae3ed3fbc7b83b9d6f17e420254f48f1165c27933780dc39cf701210347fb0d31411bae64e9a35375992fdafc5522d6c99e147868b693e330b1646f3a"},"sequence":4294967295},{"txid":"d710798ade62074f02d283424f0bc5504b3516a0a40374525e6b98772ef7900d","vout":1,"scriptSig":{"asm":"30440220394f933a27d54ba291054534427d31115a724ba30d4fd383dbf754943927b4d0022067de7f18d4e74409a29f082733af757a0679875b5959fdfeaba08def8d09322201 029165b62244ec4c36bc016aba2d250d4474f7887c185bcace417ed7b43356f986","hex":"4730440220394f933a27d54ba291054534427d31115a724ba30d4fd383dbf754943927b4d0022067de7f18d4e74409a29f082733af757a0679875b5959fdfeaba08def8d0932220121029165b62244ec4c36bc016aba2d250d4474f7887c185bcace417ed7b43356f986"},"sequence":4294967295},{"txid":"fb07cefb43157b1bab42df58d272e5bea9d18394f2b6b07066138ee4f765a6ad","vout":1,"scriptSig":{"asm":"304402202bb639ac63041b658dc561e2949f397a3a796332bde01453d2dc219225a5c3ce02204e8e46e0b4410bf911d098cd6b4f91a708d489238eb0545f90ad1e7541f777f601 0233176d8154f7d04e2d2450b0390ea792b10ef1edd013e703c5f1452fbc470d2f","hex":"47304402202bb639ac63041b658dc561e2949f397a3a796332bde01453d2dc219225a5c3ce02204e8e46e0b4410bf911d098cd6b4f91a708d489238eb0545f90ad1e7541f777f601210233176d8154f7d04e2d2450b0390ea792b10ef1edd013e703c5f1452fbc470d2f"},"sequence":4294967295},{"txid":"39a019dd59583c081e6769ccfbbf2dab2d1a550c5a301c08459cf45a876b6438","vout":0,"scriptSig":{"asm":"30440220128c79fd33b6a18d9e02bae7b60f895a55f0cf292dfef78f0ffccb452c35546802206cbea48d7d22ec7a5f38b587b8f13fb1e1029f983d47c2b4c1bc41d325a2659b01 031376a5340acd31684b0f9c9cfe39da1e0dcd3846217048acdea5905dd7175996","hex":"4730440220128c79fd33b6a18d9e02bae7b60f895a55f0cf292dfef78f0ffccb452c35546802206cbea48d7d22ec7a5f38b587b8f13fb1e1029f983d47c2b4c1bc41d325a2659b0121031376a5340acd31684b0f9c9cfe39da1e0dcd3846217048acdea5905dd7175996"},"sequence":4294967295}],"vout":[{"value":0.01000802,"n":0,"scriptPubKey":{"asm":"OP_DUP OP_HASH160 775231cc4cedf2749b36eedd520761d3938fa7fb OP_EQUALVERIFY OP_CHECKSIG","reqSigs":1,"type":"pubkeyhash","addresses":["pGRV5WUVCaWZcpzjFtiGsSxSGYcPBcipjF"]}},{"value":0.01080202,"n":1,"scriptPubKey":{"asm":"OP_DUP OP_HASH160 e73783d5dcd0d239c5c2d9b7ac6957ac0a884b8a OP_EQUALVERIFY OP_CHECKSIG","reqSigs":1,"type":"pubkeyhash","addresses":["pSd8oGSG6RoA83XsaijGFpfkP8JXiCQ5gB"]}}],"blockhash":"0a66e750e1c2c1fde806c8266cb59107cb7289a1d0de89ce4f57551e872cb08a","confirmations":90,"blocktime":1541092912}