{"hex":"010000003036db5b01369e0ed1c024d9a8a3aaa962989aa742960ac91b1b77a7e2b6bed666a6d7238d010000004847304402203ee6e7f0bf92391716b80a5b3d3dbc554a0ceefb9d3c25b02703a61445c6f61202200be0784b259351feb7a44c812f2e6a1e62259ec70a5530b09dca8672cc79f2fc01ffffffff030000000000000000009627b1d1010000002321020b1cd26fc4b9f080aea1cf7b667efd5e8453f70429056589831fa7f63506ddbfac96030000000000001976a914f644d7bb2dad64400ad72ff27a1b98cf981fdd7e88ac00000000","txid":"f64e0e9bdd0e268efb73682936f09b03eb34d5f1f0a62e399ee2cd7db08a4cc6","version":1,"time":1541092912,"locktime":0,"vin":[{"txid":"8d23d7a666d6beb6e2a7771b1bc90a9642a79a9862a9aaa3a8d924c0d10e9e36","vout":1,"scriptSig":{"asm":"304402203ee6e7f0bf92391716b80a5b3d3dbc554a0ceefb9d3c25b02703a61445c6f61202200be0784b259351feb7a44c812f2e6a1e62259ec70a5530b09dca8672cc79f2fc01","hex":"47304402203ee6e7f0bf92391716b80a5b3d3dbc554a0ceefb9d3c25b02703a61445c6f61202200be0784b259351feb7a44c812f2e6a1e62259ec70a5530b09dca8672cc79f2fc01"},"sequence":4294967295}],"vout":[{"value":0,"n":0,"scriptPubKey":{"asm":"","type":"nonstandard"}},{"value":78.13015446,"n":1,"scriptPubKey":{"asm":"020b1cd26fc4b9f080aea1cf7b667efd5e8453f70429056589831fa7f63506ddbf OP_CHECKSIG","reqSigs":1,"type":"pubkey","addresses":["pECTDpfW4nW8hYte3f3F9ZQxwgWmBwmcYL"]}},{"value":0.00000918,"n":2,"scriptPubKey":{"asm":"OP_DUP OP_HASH160 f644d7bb2dad64400ad72ff27a1b98cf981fdd7e OP_EQUALVERIFY OP_CHECKSIG","reqSigs":1,"type":"pubkeyhash","addresses":["pTziuAqinUjYFVy6Da9fmDBWUTdPjXTj23"]}}],"blockhash":"0a66e750e1c2c1fde806c8266cb59107cb7289a1d0de89ce4f57551e872cb08a","confirmations":90,"blocktime":1541092912}