{"hex":"01000000301edb5b0107f46bf9e3cffd61e3ed460e7d54dee9271da6c3f8465887d565fae3dc63bdde0200000049483045022100fd930b1676245ece5ab57ea87b45c6caa4c75f6dfa3e996af43e9c66f0ba69b4022012937569dacc41f091b1229428513b23881eb8d4658508c3693d1fd6f842171101ffffffff03000000000000000000f5ebb0d1010000002321020b1cd26fc4b9f080aea1cf7b667efd5e8453f70429056589831fa7f63506ddbfac55000000000000001976a91466429c93e46136b2db3fe752c257b3dba5e7649c88ac00000000","txid":"181b12348c82239d3dcafe19eb0c91a23ed08b6f40dbb19222671935b565c1e5","version":1,"time":1541086768,"locktime":0,"vin":[{"txid":"debd63dce3fa65d5875846f8c3a61d27e9de547d0e46ede361fdcfe3f96bf407","vout":2,"scriptSig":{"asm":"3045022100fd930b1676245ece5ab57ea87b45c6caa4c75f6dfa3e996af43e9c66f0ba69b4022012937569dacc41f091b1229428513b23881eb8d4658508c3693d1fd6f842171101","hex":"483045022100fd930b1676245ece5ab57ea87b45c6caa4c75f6dfa3e996af43e9c66f0ba69b4022012937569dacc41f091b1229428513b23881eb8d4658508c3693d1fd6f842171101"},"sequence":4294967295}],"vout":[{"value":0,"n":0,"scriptPubKey":{"asm":"","type":"nonstandard"}},{"value":78.13000181,"n":1,"scriptPubKey":{"asm":"020b1cd26fc4b9f080aea1cf7b667efd5e8453f70429056589831fa7f63506ddbf OP_CHECKSIG","reqSigs":1,"type":"pubkey","addresses":["pECTDpfW4nW8hYte3f3F9ZQxwgWmBwmcYL"]}},{"value":8.5e-7,"n":2,"scriptPubKey":{"asm":"OP_DUP OP_HASH160 66429c93e46136b2db3fe752c257b3dba5e7649c OP_EQUALVERIFY OP_CHECKSIG","reqSigs":1,"type":"pubkeyhash","addresses":["pEsGvXfg7BMJ91FueYCRJrpJCEzDnhWNzu"]}}],"blockhash":"fbfee1df3e51c255f02f5385ac7c6472807b474ff571893ddfdae4c832339006","confirmations":100,"blocktime":1541086768}