{"hex":"01000000281edb5b01ed4c63a3d5050aad3449dc6cb8c2f3b94343331555fc8dcf79453aced9884b3c000000006a47304402200ebc4cc32fdc858f8582e40ad1cf385a207bcd21799f6ce214d2f9aa6acc4b4c02204000677632854e3b7429095d173bb9061baee5793e07c2e8d55dfeb71a664fd50121031471ec44387d4996e4f7109847048f2d720bcccd0158745b4acd10dd4a6a7c54ffffffff02600b1100000000001976a914ed8ec980ed10685651ce03ccdb69e4f49d44e54a88ac990b0000000000001976a914d0468dc00308c86c7d78d891f984748c47b2af7088ac00000000","txid":"be60bf71627b2b1b742516a21e5047d5104cc921dfa8fc2587c353377563433d","version":1,"time":1541086768,"locktime":0,"vin":[{"txid":"3c4b88d9ce3a4579cf8dfc5515334343b9f3c2b86cdc4934ad0a05d5a3634ced","vout":0,"scriptSig":{"asm":"304402200ebc4cc32fdc858f8582e40ad1cf385a207bcd21799f6ce214d2f9aa6acc4b4c02204000677632854e3b7429095d173bb9061baee5793e07c2e8d55dfeb71a664fd501 031471ec44387d4996e4f7109847048f2d720bcccd0158745b4acd10dd4a6a7c54","hex":"47304402200ebc4cc32fdc858f8582e40ad1cf385a207bcd21799f6ce214d2f9aa6acc4b4c02204000677632854e3b7429095d173bb9061baee5793e07c2e8d55dfeb71a664fd50121031471ec44387d4996e4f7109847048f2d720bcccd0158745b4acd10dd4a6a7c54"},"sequence":4294967295}],"vout":[{"value":0.01117024,"n":0,"scriptPubKey":{"asm":"OP_DUP OP_HASH160 ed8ec980ed10685651ce03ccdb69e4f49d44e54a OP_EQUALVERIFY OP_CHECKSIG","reqSigs":1,"type":"pubkeyhash","addresses":["pTCfQC8EoCq64bAfQ1YDEYxTPbQhnUVRhv"]}},{"value":0.00002969,"n":1,"scriptPubKey":{"asm":"OP_DUP OP_HASH160 d0468dc00308c86c7d78d891f984748c47b2af70 OP_EQUALVERIFY OP_CHECKSIG","reqSigs":1,"type":"pubkeyhash","addresses":["pQXqGmGZKZjfGWz15fjEC3KB27ytN5KkDU"]}}],"blockhash":"fbfee1df3e51c255f02f5385ac7c6472807b474ff571893ddfdae4c832339006","confirmations":100,"blocktime":1541086768}