{"hex":"01000000b060d75b0134f903185bfb77d641ab2e94b5b39961c40effae4929a307eaab57d3805f5fb1010000006b4830450221008bff4f3b8e475c80c01ce056f6045b5182f87389166b4e08eee09f51332ce4a402205131d0f7c0af2158ef87487b3957d02dd112dfcd35b9786ff4347dc55c6640620121027a63eb41fb5b1d0c41fa3e8bb739d687887b2e9d5191453467ee4b033887714affffffff0400000000000000000000e49127a18b03002321027a63eb41fb5b1d0c41fa3e8bb739d687887b2e9d5191453467ee4b033887714aacf8089327a18b03002321027a63eb41fb5b1d0c41fa3e8bb739d687887b2e9d5191453467ee4b033887714aac287c0600000000001976a914647e9b327f6e6cc3bcd2b98cb8a85fc3160d6a4588ac00000000","txid":"42bda8ad338c59452157dfb548f98c827a48f829a54c04d8e60930f8c0126d61","version":1,"time":1540841648,"locktime":0,"vin":[{"txid":"b15f5f80d357abea07a32949aeff0ec46199b3b5942eab41d677fb5b1803f934","vout":1,"scriptSig":{"asm":"30450221008bff4f3b8e475c80c01ce056f6045b5182f87389166b4e08eee09f51332ce4a402205131d0f7c0af2158ef87487b3957d02dd112dfcd35b9786ff4347dc55c66406201 027a63eb41fb5b1d0c41fa3e8bb739d687887b2e9d5191453467ee4b033887714a","hex":"4830450221008bff4f3b8e475c80c01ce056f6045b5182f87389166b4e08eee09f51332ce4a402205131d0f7c0af2158ef87487b3957d02dd112dfcd35b9786ff4347dc55c6640620121027a63eb41fb5b1d0c41fa3e8bb739d687887b2e9d5191453467ee4b033887714a"},"sequence":4294967295}],"vout":[{"value":0,"n":0,"scriptPubKey":{"asm":"","type":"nonstandard"}},{"value":9979492,"n":1,"scriptPubKey":{"asm":"027a63eb41fb5b1d0c41fa3e8bb739d687887b2e9d5191453467ee4b033887714a OP_CHECKSIG","reqSigs":1,"type":"pubkey","addresses":["pMfSY3AcSDZ1N7wAM2xZLAyYbC3rciXuRH"]}},{"value":9979492.00075,"n":2,"scriptPubKey":{"asm":"027a63eb41fb5b1d0c41fa3e8bb739d687887b2e9d5191453467ee4b033887714a OP_CHECKSIG","reqSigs":1,"type":"pubkey","addresses":["pMfSY3AcSDZ1N7wAM2xZLAyYbC3rciXuRH"]}},{"value":0.00425,"n":3,"scriptPubKey":{"asm":"OP_DUP OP_HASH160 647e9b327f6e6cc3bcd2b98cb8a85fc3160d6a45 OP_EQUALVERIFY OP_CHECKSIG","reqSigs":1,"type":"pubkeyhash","addresses":["pEhwSeKiP8Q9UV5H4Vwts61nBy8VHfUUbd"]}}],"blockhash":"859ef6ba74e908c3c2da0d19166d378e2a8a03289ba11ef3c9a4b4921f6a4fda","confirmations":181,"blocktime":1540841648}