{"hex":"01000000a360d75b015cf2b7402cc33a1f873f26054b93c216533ba87abfe00d35f37ce58debf248cb010000006a4730440220214b679faab9233b9791ba7abf6acf1f16a32d001f7d21b6b46366c88f6b2d7102202d5e9120db30a9da95fe899c040454ead0688a2861e170b9e43aa1dba2fa55e00121027a63eb41fb5b1d0c41fa3e8bb739d687887b2e9d5191453467ee4b033887714affffffff02e06d66860b0000001976a914aa5a682efe12f2ab4b34cef7d86a3b4e832fc82888ac0065cd1d000000001976a914805f9cd336ce36b4ef07af38b4d3f9a18b14898888ac00000000","txid":"57dca0e440e38f8eb778c8697ee78efc55e89ba40fa47caef16e83dfa882f225","version":1,"time":1540841648,"locktime":0,"vin":[{"txid":"cb48f2eb8de57cf3350de0bf7aa83b5316c2934b05263f871f3ac32c40b7f25c","vout":1,"scriptSig":{"asm":"30440220214b679faab9233b9791ba7abf6acf1f16a32d001f7d21b6b46366c88f6b2d7102202d5e9120db30a9da95fe899c040454ead0688a2861e170b9e43aa1dba2fa55e001 027a63eb41fb5b1d0c41fa3e8bb739d687887b2e9d5191453467ee4b033887714a","hex":"4730440220214b679faab9233b9791ba7abf6acf1f16a32d001f7d21b6b46366c88f6b2d7102202d5e9120db30a9da95fe899c040454ead0688a2861e170b9e43aa1dba2fa55e00121027a63eb41fb5b1d0c41fa3e8bb739d687887b2e9d5191453467ee4b033887714a"},"sequence":4294967295}],"vout":[{"value":494.995,"n":0,"scriptPubKey":{"asm":"OP_DUP OP_HASH160 aa5a682efe12f2ab4b34cef7d86a3b4e832fc828 OP_EQUALVERIFY OP_CHECKSIG","reqSigs":1,"type":"pubkeyhash","addresses":["pM5KNuKeSWPpraru8iVVPeJ4vJTrrK8WXC"]}},{"value":5,"n":1,"scriptPubKey":{"asm":"OP_DUP OP_HASH160 805f9cd336ce36b4ef07af38b4d3f9a18b148988 OP_EQUALVERIFY OP_CHECKSIG","reqSigs":1,"type":"pubkeyhash","addresses":["pHFMEYFUrjkStDazXCisF2fPCQGhG4AXwB"]}}],"blockhash":"859ef6ba74e908c3c2da0d19166d378e2a8a03289ba11ef3c9a4b4921f6a4fda","confirmations":181,"blocktime":1540841648}