{"hex":"01000000e07be05b013c34c141623c57856e7c1cf9ebcc3b98eddced8c708f8a71d3446580566f61a80100000048473044022041cd9400705b2af545fbf481616ee3db0331c5debc123836aedd5f1d57b6bce90220723635ba19b303e9596e6d063f45e3e898a6764c666a93c449a13dbf86d7473a01ffffffff040000000000000000008028a5460700000023210210c18e3b5aba3a6167f17a2fd6b65419de165b4388a78f0e815f0e3bc60d34f3ac466eb1460700000023210210c18e3b5aba3a6167f17a2fd6b65419de165b4388a78f0e815f0e3bc60d34f3ac608b4500000000001976a914256b9b540806ec78f3cbc6d37188a2e1504616e688ac00000000","txid":"7136ebf6f4bd553c0a03c9fb990f7d488b892a6f649bd0c201b9dc836aed58eb","version":1,"time":1541438432,"locktime":0,"vin":[{"txid":"a8616f56806544d3718a8f708ceddced983bccebf91c7c6e85573c6241c1343c","vout":1,"scriptSig":{"asm":"3044022041cd9400705b2af545fbf481616ee3db0331c5debc123836aedd5f1d57b6bce90220723635ba19b303e9596e6d063f45e3e898a6764c666a93c449a13dbf86d7473a01","hex":"473044022041cd9400705b2af545fbf481616ee3db0331c5debc123836aedd5f1d57b6bce90220723635ba19b303e9596e6d063f45e3e898a6764c666a93c449a13dbf86d7473a01"},"sequence":4294967295}],"vout":[{"value":0,"n":0,"scriptPubKey":{"asm":"","type":"nonstandard"}},{"value":312.5,"n":1,"scriptPubKey":{"asm":"0210c18e3b5aba3a6167f17a2fd6b65419de165b4388a78f0e815f0e3bc60d34f3 OP_CHECKSIG","reqSigs":1,"type":"pubkey","addresses":["pFf1Gp4G6PCkSUxUY1XLwNBH2ji6sBJMC3"]}},{"value":312.50804294,"n":2,"scriptPubKey":{"asm":"0210c18e3b5aba3a6167f17a2fd6b65419de165b4388a78f0e815f0e3bc60d34f3 OP_CHECKSIG","reqSigs":1,"type":"pubkey","addresses":["pFf1Gp4G6PCkSUxUY1XLwNBH2ji6sBJMC3"]}},{"value":0.04557664,"n":3,"scriptPubKey":{"asm":"OP_DUP OP_HASH160 256b9b540806ec78f3cbc6d37188a2e1504616e6 OP_EQUALVERIFY OP_CHECKSIG","reqSigs":1,"type":"pubkeyhash","addresses":["p8xS7T8mkTz7MJV9EcYkBri1Zi12wCV83N"]}}],"blockhash":"1ecaec27a8bc34526e62d7dbbd48c3e7d215df361ea83310eaad6aeefede60c5","confirmations":26,"blocktime":1541438432}