{"hex":"01000000d97be05b02d91201523d2dd5f68c38a8a396e65b6480d5a84a2a7ecc7a4891a0477519bea8010000006b483045022100be5a0d37900b09b00f6f7b4847118de80d1838b6a5a02a03889495accfc7e4d8022067a28c77ac4c4e68e3176b942e4d069e387bc6e6fb450147753ea5f824cba0ab012102e4516c59026a03f4e9327e04527609c79aed4a2892308656c0cb9a9df1924a7fffffffffa71c37256e38dc40bbafdccf06b062c21bef30ae83ad9322cccd32798e270aad010000006b483045022100afc544d4441a2a617918a418dfe319aafd466c32b8f800cdde525a2382e4d2af022073eaf09f7948c742fd8682101be486db9b267d2eafb34761ffa9df3dc7d05e64012102b84d26eb964ad3908fd95f622f5baeacca5a65560fdc4e9a2e384b494875f411ffffffff02cebc4601000000001976a9141a5c381bcd27f1853c13c1e565b94de663e2f54788acbdfd983f010000001976a914eb5393ad24eb5152ed0beeca17d7e1e3da8fe9d688ac00000000","txid":"d69c9ecb183a4fbaaef2330be7a614fee6dd1097a25f7ef0cf45764c0f18ab76","version":1,"time":1541438432,"locktime":0,"vin":[{"txid":"a8be197547a091487acc7e2a4aa8d580645be696a3a8388cf6d52d3d520112d9","vout":1,"scriptSig":{"asm":"3045022100be5a0d37900b09b00f6f7b4847118de80d1838b6a5a02a03889495accfc7e4d8022067a28c77ac4c4e68e3176b942e4d069e387bc6e6fb450147753ea5f824cba0ab01 02e4516c59026a03f4e9327e04527609c79aed4a2892308656c0cb9a9df1924a7f","hex":"483045022100be5a0d37900b09b00f6f7b4847118de80d1838b6a5a02a03889495accfc7e4d8022067a28c77ac4c4e68e3176b942e4d069e387bc6e6fb450147753ea5f824cba0ab012102e4516c59026a03f4e9327e04527609c79aed4a2892308656c0cb9a9df1924a7f"},"sequence":4294967295},{"txid":"ad0a278e7932cdcc2293ad83ae30ef1bc262b006cfdcafbb40dc386e25371ca7","vout":1,"scriptSig":{"asm":"3045022100afc544d4441a2a617918a418dfe319aafd466c32b8f800cdde525a2382e4d2af022073eaf09f7948c742fd8682101be486db9b267d2eafb34761ffa9df3dc7d05e6401 02b84d26eb964ad3908fd95f622f5baeacca5a65560fdc4e9a2e384b494875f411","hex":"483045022100afc544d4441a2a617918a418dfe319aafd466c32b8f800cdde525a2382e4d2af022073eaf09f7948c742fd8682101be486db9b267d2eafb34761ffa9df3dc7d05e64012102b84d26eb964ad3908fd95f622f5baeacca5a65560fdc4e9a2e384b494875f411"},"sequence":4294967295}],"vout":[{"value":0.2141307,"n":0,"scriptPubKey":{"asm":"OP_DUP OP_HASH160 1a5c381bcd27f1853c13c1e565b94de663e2f547 OP_EQUALVERIFY OP_CHECKSIG","reqSigs":1,"type":"pubkeyhash","addresses":["p7wxFCBqJKVDJgikPfyGX7YPtivmJJHd6z"]}},{"value":53.61958333,"n":1,"scriptPubKey":{"asm":"OP_DUP OP_HASH160 eb5393ad24eb5152ed0beeca17d7e1e3da8fe9d6 OP_EQUALVERIFY OP_CHECKSIG","reqSigs":1,"type":"pubkeyhash","addresses":["pSzs7oodSAYQkwKhYZDcMKNGmvJSXZNCkw"]}}],"blockhash":"1ecaec27a8bc34526e62d7dbbd48c3e7d215df361ea83310eaad6aeefede60c5","confirmations":26,"blocktime":1541438432}