{"hex":"0100000070a0c25b018edb3a097145ea82a6e7a6c5fdd32223ba35488a27b993207fe4a73c45eee2fc000000006a473044022055e6e634c075a1f1e026b5ff77d97a909156529620e0141e5bf6c2ec036e53110220656981c5cb722358c0776e1cfeef7fe1101fbf37d0bf1b3b4d916cdae9f27ab9012102f3989f15f82309adefe5e4f6bf746db84b8df805e22eecc7bd374f31e8daa38affffffff020000000000000000000084d71700000000232102f3989f15f82309adefe5e4f6bf746db84b8df805e22eecc7bd374f31e8daa38aac00000000","txid":"ce7ca994ee91f32b987a443c9f04f5d47ddb242385faceb8070b1a7e9c0c56b9","version":1,"time":1539481712,"locktime":0,"vin":[{"txid":"fce2ee453ca7e47f2093b9278a4835ba2322d3fdc5a6e7a682ea4571093adb8e","vout":0,"scriptSig":{"asm":"3044022055e6e634c075a1f1e026b5ff77d97a909156529620e0141e5bf6c2ec036e53110220656981c5cb722358c0776e1cfeef7fe1101fbf37d0bf1b3b4d916cdae9f27ab901 02f3989f15f82309adefe5e4f6bf746db84b8df805e22eecc7bd374f31e8daa38a","hex":"473044022055e6e634c075a1f1e026b5ff77d97a909156529620e0141e5bf6c2ec036e53110220656981c5cb722358c0776e1cfeef7fe1101fbf37d0bf1b3b4d916cdae9f27ab9012102f3989f15f82309adefe5e4f6bf746db84b8df805e22eecc7bd374f31e8daa38a"},"sequence":4294967295}],"vout":[{"value":0,"n":0,"scriptPubKey":{"asm":"","type":"nonstandard"}},{"value":4,"n":1,"scriptPubKey":{"asm":"02f3989f15f82309adefe5e4f6bf746db84b8df805e22eecc7bd374f31e8daa38a OP_CHECKSIG","reqSigs":1,"type":"pubkey","addresses":["pS6kv8sUdNg7tBDNfNMnPMqsD2dQR4HfTQ"]}}],"blockhash":"b292a7016c362b5778cfc73a589a122008faccc4c5311ed769b51dcbe397eeac","confirmations":124,"blocktime":1539481712}