{"hex":"0100000069a0c25b01f70503938898327e6ada8f7175de9af37c2a7f7da68f24cbdba8d62ff3c95420000000006b483045022100c945618edb241a794a9100e08fa5e6f361583a9b21d708d62d0fb860fb77d5b80220434281032055eb8924ccbf8e7259530b9b364f659d0a4d0486b3ade630f4abce012103092e8fbb7dabcf071f1fa6bf7e74d34bce587b0f3aedff15dd736001dd44bb6cffffffff02006c4483098623001976a9145e90cbd8aa1c00291eec2b04ebe2cb4ada96b8b788ac0088526a740000001976a914dac3e240ed99729ba64c9830e6d54c85296dbacd88ac00000000","txid":"f5c218ecaee0d6e3519e31e72d42b3bae12eb5e9346a40bb5b723a76ddd5dc64","version":1,"time":1539481712,"locktime":0,"vin":[{"txid":"2054c9f32fd6a8dbcb248fa67d7f2a7cf39ade75718fda6a7e329888930305f7","vout":0,"scriptSig":{"asm":"3045022100c945618edb241a794a9100e08fa5e6f361583a9b21d708d62d0fb860fb77d5b80220434281032055eb8924ccbf8e7259530b9b364f659d0a4d0486b3ade630f4abce01 03092e8fbb7dabcf071f1fa6bf7e74d34bce587b0f3aedff15dd736001dd44bb6c","hex":"483045022100c945618edb241a794a9100e08fa5e6f361583a9b21d708d62d0fb860fb77d5b80220434281032055eb8924ccbf8e7259530b9b364f659d0a4d0486b3ade630f4abce012103092e8fbb7dabcf071f1fa6bf7e74d34bce587b0f3aedff15dd736001dd44bb6c"},"sequence":4294967295}],"vout":[{"value":99989996,"n":0,"scriptPubKey":{"asm":"OP_DUP OP_HASH160 5e90cbd8aa1c00291eec2b04ebe2cb4ada96b8b7 OP_EQUALVERIFY OP_CHECKSIG","reqSigs":1,"type":"pubkeyhash","addresses":["pEAbBMnSVXfcosLtnuAyjk1wWJydNVN49B"]}},{"value":5000,"n":1,"scriptPubKey":{"asm":"OP_DUP OP_HASH160 dac3e240ed99729ba64c9830e6d54c85296dbacd OP_EQUALVERIFY OP_CHECKSIG","reqSigs":1,"type":"pubkeyhash","addresses":["pRVJAmbxV6TyzWMNW1oNoV1k3zM77bZrBx"]}}],"blockhash":"b292a7016c362b5778cfc73a589a122008faccc4c5311ed769b51dcbe397eeac","confirmations":124,"blocktime":1539481712}