{"hex":"010000008028d15b01cceba1b15041752951e1fe5fd6c66fe0b5482392cf1143c525adc97a8d44a76d020000006a47304402206ed76c995274be3050f6f22c1e647ad0f3a61f885967f5faaaa806a49186d87b022054bb6fdc5367abfd2bd4af709096b0d2b422f1b2e6f897620de9f8c34aa12ef9012102c1f46322b7b35df7d03b1b344424906fdd4464990c52ef24779c8089ae2e04aaffffffff0300000000000000000022ff210a00000000232102c1f46322b7b35df7d03b1b344424906fdd4464990c52ef24779c8089ae2e04aaac90030000000000001976a9144a50163d75b51d2dbbb7b2a59986e707833705d888ac00000000","txid":"26b026a48dec973dab914270bbab86c51d53f55085c8e9fad7b55795c6d378b5","version":1,"time":1540434048,"locktime":0,"vin":[{"txid":"6da7448d7ac9ad25c54311cf922348b5e06fc6d65ffee15129754150b1a1ebcc","vout":2,"scriptSig":{"asm":"304402206ed76c995274be3050f6f22c1e647ad0f3a61f885967f5faaaa806a49186d87b022054bb6fdc5367abfd2bd4af709096b0d2b422f1b2e6f897620de9f8c34aa12ef901 02c1f46322b7b35df7d03b1b344424906fdd4464990c52ef24779c8089ae2e04aa","hex":"47304402206ed76c995274be3050f6f22c1e647ad0f3a61f885967f5faaaa806a49186d87b022054bb6fdc5367abfd2bd4af709096b0d2b422f1b2e6f897620de9f8c34aa12ef9012102c1f46322b7b35df7d03b1b344424906fdd4464990c52ef24779c8089ae2e04aa"},"sequence":4294967295}],"vout":[{"value":0,"n":0,"scriptPubKey":{"asm":"","type":"nonstandard"}},{"value":1.70000162,"n":1,"scriptPubKey":{"asm":"02c1f46322b7b35df7d03b1b344424906fdd4464990c52ef24779c8089ae2e04aa OP_CHECKSIG","reqSigs":1,"type":"pubkey","addresses":["pMyBYUpcH3ehvzacvgmtahza4iSykvMcUD"]}},{"value":0.00000912,"n":2,"scriptPubKey":{"asm":"OP_DUP OP_HASH160 4a50163d75b51d2dbbb7b2a59986e707833705d8 OP_EQUALVERIFY OP_CHECKSIG","reqSigs":1,"type":"pubkeyhash","addresses":["pCKW9SAQCqUGY9LAu3CZjkVaZdBvRi2DKL"]}}],"blockhash":"e76283512108177c8836e9aeeedc30d00d323d6e08448a66b147f8f9434bfda2","confirmations":292,"blocktime":1540434048}