{"hex":"010000007328d15b022f70d2ff025333d68b36fc142b76ebe353c4febbcf409d90839187c102b7fe1f000000006a473044022064edfda4f3123b54d0328671b40073e896c5477690a1d1c8a06faa3bccc7c0f10220340d3932d4376f263164754510344f25aa84b2248e0d703b4f13da8ba0c8c9320121029e857134122939a57279b02312e296a02bcf0cf876ddc541bd372450215dbeacffffffff2f70d2ff025333d68b36fc142b76ebe353c4febbcf409d90839187c102b7fe1f010000006b483045022100f596e7175b0cb79237dcab4256cf779bf4b4f5ae1e08aa239bd49b63c4485c0b02200568f5f20f5c606ccfad8148a026513719649ea7b676ff5cc98e627955dd3a3d012102486490e430a0e99cde3ad594ba9073c636ed34a14639e0c33b3c39c81b5ba2c4ffffffff02d0041b00000000001976a9144c28ee798243702bc4500cdb4da9004130bb47f688aca7661000000000001976a91427eb54f755e07b2a6606d5474ae23149116a81cf88ac00000000","txid":"87397784ab16ebef9cce5cda213113845e0cf90c81138a00718edc9ffd2a670f","version":1,"time":1540434048,"locktime":0,"vin":[{"txid":"1ffeb702c1879183909d40cfbbfec453e3eb762b14fc368bd6335302ffd2702f","vout":0,"scriptSig":{"asm":"3044022064edfda4f3123b54d0328671b40073e896c5477690a1d1c8a06faa3bccc7c0f10220340d3932d4376f263164754510344f25aa84b2248e0d703b4f13da8ba0c8c93201 029e857134122939a57279b02312e296a02bcf0cf876ddc541bd372450215dbeac","hex":"473044022064edfda4f3123b54d0328671b40073e896c5477690a1d1c8a06faa3bccc7c0f10220340d3932d4376f263164754510344f25aa84b2248e0d703b4f13da8ba0c8c9320121029e857134122939a57279b02312e296a02bcf0cf876ddc541bd372450215dbeac"},"sequence":4294967295},{"txid":"1ffeb702c1879183909d40cfbbfec453e3eb762b14fc368bd6335302ffd2702f","vout":1,"scriptSig":{"asm":"3045022100f596e7175b0cb79237dcab4256cf779bf4b4f5ae1e08aa239bd49b63c4485c0b02200568f5f20f5c606ccfad8148a026513719649ea7b676ff5cc98e627955dd3a3d01 02486490e430a0e99cde3ad594ba9073c636ed34a14639e0c33b3c39c81b5ba2c4","hex":"483045022100f596e7175b0cb79237dcab4256cf779bf4b4f5ae1e08aa239bd49b63c4485c0b02200568f5f20f5c606ccfad8148a026513719649ea7b676ff5cc98e627955dd3a3d012102486490e430a0e99cde3ad594ba9073c636ed34a14639e0c33b3c39c81b5ba2c4"},"sequence":4294967295}],"vout":[{"value":0.01770704,"n":0,"scriptPubKey":{"asm":"OP_DUP OP_HASH160 4c28ee798243702bc4500cdb4da9004130bb47f6 OP_EQUALVERIFY OP_CHECKSIG","reqSigs":1,"type":"pubkeyhash","addresses":["pCVGbFvFLapGyskXvwfxG2ss21bRU9FqUh"]}},{"value":0.01074855,"n":1,"scriptPubKey":{"asm":"OP_DUP OP_HASH160 27eb54f755e07b2a6606d5474ae23149116a81cf OP_EQUALVERIFY OP_CHECKSIG","reqSigs":1,"type":"pubkeyhash","addresses":["p9BeULKbpPSVC2rmSB3ZRkhDxPnJFQ3aPE"]}}],"blockhash":"e76283512108177c8836e9aeeedc30d00d323d6e08448a66b147f8f9434bfda2","confirmations":6,"blocktime":1540434048}