{"hex":"01000000d0e3d95b0110a7a66a0003eede866a0129e89cb26af2b5714207d9bd00042545346e202d6401000000494830450221009ab89e213884e7429010545ac72e5403ce28513af02c3033e8232be8b1f948a802204124d619e8af919414a376a6d3c18d313f6995a5246624e8efa1a7646c01e84701ffffffff0400000000000000000000a2941a1d00000023210294b7b76140c3334aa3bcf4a7b79dd36807c0e0a3391d002cd9b4a8009683e8fcacf3ad971a1d00000023210294b7b76140c3334aa3bcf4a7b79dd36807c0e0a3391d002cd9b4a8009683e8fcacb5431100000000001976a914a539c7c64804ba10293866c3433100eabbe41ccf88ac00000000","txid":"126f0279512fbb7b46791bece1fd009fd16645d7e257d924b5827700149ce4b6","version":1,"time":1541006288,"locktime":0,"vin":[{"txid":"642d206e3445250400bdd9074271b5f26ab29ce829016a86deee03006aa6a710","vout":1,"scriptSig":{"asm":"30450221009ab89e213884e7429010545ac72e5403ce28513af02c3033e8232be8b1f948a802204124d619e8af919414a376a6d3c18d313f6995a5246624e8efa1a7646c01e84701","hex":"4830450221009ab89e213884e7429010545ac72e5403ce28513af02c3033e8232be8b1f948a802204124d619e8af919414a376a6d3c18d313f6995a5246624e8efa1a7646c01e84701"},"sequence":4294967295}],"vout":[{"value":0,"n":0,"scriptPubKey":{"asm":"","type":"nonstandard"}},{"value":1250,"n":1,"scriptPubKey":{"asm":"0294b7b76140c3334aa3bcf4a7b79dd36807c0e0a3391d002cd9b4a8009683e8fc OP_CHECKSIG","reqSigs":1,"type":"pubkey","addresses":["pJZjAtqMwq9jFa2kTVK5K8psT7erMHW8FX"]}},{"value":1250.00199667,"n":2,"scriptPubKey":{"asm":"0294b7b76140c3334aa3bcf4a7b79dd36807c0e0a3391d002cd9b4a8009683e8fc OP_CHECKSIG","reqSigs":1,"type":"pubkey","addresses":["pJZjAtqMwq9jFa2kTVK5K8psT7erMHW8FX"]}},{"value":0.01131445,"n":3,"scriptPubKey":{"asm":"OP_DUP OP_HASH160 a539c7c64804ba10293866c3433100eabbe41ccf OP_EQUALVERIFY OP_CHECKSIG","reqSigs":1,"type":"pubkeyhash","addresses":["pLcCv1RBNEWf4q17fiPMGMYqeFUvP9a826"]}}],"blockhash":"49f7cc5137262b1072b48284df1acb506880daa042bbf8d84d5189e5f01b7f1f","confirmations":129,"blocktime":1541006288}