{"hex":"01000000cee3d95b080e029a184d4b967f4d3dd6eac737dbf8c751bb38aa84387b75eaaaaf05250333000000006b483045022100c68b59c439319e095b8fa51b9dc9e3bfdb36e47940e6545fd1044d2be14d6f8402204bef3dd54e36e53840e1286597b9ce2297287a8f638c57f790e8b2ffe356f5bb012102976fc8f2ecb566fc3821a73bca841d7785cc0e61d644b437125bf542af3cb7aaffffffff6376218a33ab1a2838fe2c2cac945242ca32469f42d3ad0b081689ad727cdd29010000006b4830450221009e00959b46c34edd6b105c0e3f03c9c8e5df7267ed9a50b92f828853126c460602202d42b741395db7a1965a5762f47764091000a6d4e52ed700259302e5993dc5a6012103ea8abd5404d8b798fecf09cb093b8efc1d77f61133236de457b66cadb5dca495ffffffffb49bf448516f02470de61afdd1afebb2979e0451d2094dd9e79220abaab2dec5010000006b4830450221008b037ab97235688caa5d423e65456c00a7e4077b5600e02201d411636d59aef302202d6e20e32c4b370a6348b87d778cc4f81d7fceeabe386261e80f899e09a6c6650121029e857134122939a57279b02312e296a02bcf0cf876ddc541bd372450215dbeacffffffff3e9ef1efb6951547e1fe5a8c8c2ca4fa1cdac9ff1a168436cb5a2536de4f6d6b000000006a47304402201386e45b4bc8fe6fd5715cefccb5f750247310aa0b42d3881d4ce775a1d0917d022071f2c0f594a8869d04802bf4f4dfaddeb249521fe4b3701ea0d9bd4f58eeb6480121029e857134122939a57279b02312e296a02bcf0cf876ddc541bd372450215dbeacffffffff3e9ef1efb6951547e1fe5a8c8c2ca4fa1cdac9ff1a168436cb5a2536de4f6d6b010000006a473044022029fd695e60e63ae7c3c9ae881e86684cfa843189ee3869eeda1169514622a83102204fd80b382d5afe0cb7196793d28bf9697b9436ec18887799e546428ded2901cf012103d83e01867ccc3cd2015845dd044a2cb4286e99096c54da28946196b756e14775ffffffff8c30fe0cf38f282ff125c42835b79d5aa870a17fd83a155be70a40d5b8760ec4010000006b483045022100ba0e2ff7c5b3bb84fa108b1b31cb3dc010ee3f25d953d56f3321e9dd7c181b0b02200d9978c7fec317f42f044325cc8511e4808dd1d710e71562eda3fd0c7b3b76a6012103c87672458067b2492cdc355b7033e293c2686d935b796613c846577010646de6fffffffff191649be5f1d2a083f5fe661f99b6465c4d00a029eea466f3221eb112909c0f010000006b483045022100a3ab4d507ba4958756e61b2ae0f127e444f2f1ac55bf6092529f3ce14c279e0a0220612bcd29a9a48ed80966e50f9908c057e6ebdd53697c44ef8529503a91b72d390121037c276322ed829a02ec039297cfa3789636ab10fa5968904b90a3d81b8f3ffd2fffffffffabb9f80220f46312cd366f2cfc1a2f136721e744c6f40e5f241f8d5ff95edaf3000000006a47304402204e8c53e4810b101b1bba4b27f10a45f99964137afe46cd024e55bff3694fc7c302207d432fab4b5c4637fd1e7ce7b8ce3849482272449a1859a47945c08f491d048c0121029e857134122939a57279b02312e296a02bcf0cf876ddc541bd372450215dbeacffffffff023a471000000000001976a9149eca45b75014114a7b51e390a61d49b51ee52ea688ac902a574f000000001976a9148bdf947413faf3cd63901c4fd90fa5f7d8a78b7388ac00000000","txid":"e9cc666d5137955cd05cafa703ff5a23fbfd8aba5d9e6df97bae1211a813e5b3","version":1,"time":1541006288,"locktime":0,"vin":[{"txid":"33032505afaaea757b3884aa38bb51c7f8db37c7ead63d4d7f964b4d189a020e","vout":0,"scriptSig":{"asm":"3045022100c68b59c439319e095b8fa51b9dc9e3bfdb36e47940e6545fd1044d2be14d6f8402204bef3dd54e36e53840e1286597b9ce2297287a8f638c57f790e8b2ffe356f5bb01 02976fc8f2ecb566fc3821a73bca841d7785cc0e61d644b437125bf542af3cb7aa","hex":"483045022100c68b59c439319e095b8fa51b9dc9e3bfdb36e47940e6545fd1044d2be14d6f8402204bef3dd54e36e53840e1286597b9ce2297287a8f638c57f790e8b2ffe356f5bb012102976fc8f2ecb566fc3821a73bca841d7785cc0e61d644b437125bf542af3cb7aa"},"sequence":4294967295},{"txid":"29dd7c72ad8916080badd3429f4632ca425294ac2c2cfe38281aab338a217663","vout":1,"scriptSig":{"asm":"30450221009e00959b46c34edd6b105c0e3f03c9c8e5df7267ed9a50b92f828853126c460602202d42b741395db7a1965a5762f47764091000a6d4e52ed700259302e5993dc5a601 03ea8abd5404d8b798fecf09cb093b8efc1d77f61133236de457b66cadb5dca495","hex":"4830450221009e00959b46c34edd6b105c0e3f03c9c8e5df7267ed9a50b92f828853126c460602202d42b741395db7a1965a5762f47764091000a6d4e52ed700259302e5993dc5a6012103ea8abd5404d8b798fecf09cb093b8efc1d77f61133236de457b66cadb5dca495"},"sequence":4294967295},{"txid":"c5deb2aaab2092e7d94d09d251049e97b2ebafd1fd1ae60d47026f5148f49bb4","vout":1,"scriptSig":{"asm":"30450221008b037ab97235688caa5d423e65456c00a7e4077b5600e02201d411636d59aef302202d6e20e32c4b370a6348b87d778cc4f81d7fceeabe386261e80f899e09a6c66501 029e857134122939a57279b02312e296a02bcf0cf876ddc541bd372450215dbeac","hex":"4830450221008b037ab97235688caa5d423e65456c00a7e4077b5600e02201d411636d59aef302202d6e20e32c4b370a6348b87d778cc4f81d7fceeabe386261e80f899e09a6c6650121029e857134122939a57279b02312e296a02bcf0cf876ddc541bd372450215dbeac"},"sequence":4294967295},{"txid":"6b6d4fde36255acb3684161affc9da1cfaa42c8c8c5afee1471595b6eff19e3e","vout":0,"scriptSig":{"asm":"304402201386e45b4bc8fe6fd5715cefccb5f750247310aa0b42d3881d4ce775a1d0917d022071f2c0f594a8869d04802bf4f4dfaddeb249521fe4b3701ea0d9bd4f58eeb64801 029e857134122939a57279b02312e296a02bcf0cf876ddc541bd372450215dbeac","hex":"47304402201386e45b4bc8fe6fd5715cefccb5f750247310aa0b42d3881d4ce775a1d0917d022071f2c0f594a8869d04802bf4f4dfaddeb249521fe4b3701ea0d9bd4f58eeb6480121029e857134122939a57279b02312e296a02bcf0cf876ddc541bd372450215dbeac"},"sequence":4294967295},{"txid":"6b6d4fde36255acb3684161affc9da1cfaa42c8c8c5afee1471595b6eff19e3e","vout":1,"scriptSig":{"asm":"3044022029fd695e60e63ae7c3c9ae881e86684cfa843189ee3869eeda1169514622a83102204fd80b382d5afe0cb7196793d28bf9697b9436ec18887799e546428ded2901cf01 03d83e01867ccc3cd2015845dd044a2cb4286e99096c54da28946196b756e14775","hex":"473044022029fd695e60e63ae7c3c9ae881e86684cfa843189ee3869eeda1169514622a83102204fd80b382d5afe0cb7196793d28bf9697b9436ec18887799e546428ded2901cf012103d83e01867ccc3cd2015845dd044a2cb4286e99096c54da28946196b756e14775"},"sequence":4294967295},{"txid":"c40e76b8d5400ae75b153ad87fa170a85a9db73528c425f12f288ff30cfe308c","vout":1,"scriptSig":{"asm":"3045022100ba0e2ff7c5b3bb84fa108b1b31cb3dc010ee3f25d953d56f3321e9dd7c181b0b02200d9978c7fec317f42f044325cc8511e4808dd1d710e71562eda3fd0c7b3b76a601 03c87672458067b2492cdc355b7033e293c2686d935b796613c846577010646de6","hex":"483045022100ba0e2ff7c5b3bb84fa108b1b31cb3dc010ee3f25d953d56f3321e9dd7c181b0b02200d9978c7fec317f42f044325cc8511e4808dd1d710e71562eda3fd0c7b3b76a6012103c87672458067b2492cdc355b7033e293c2686d935b796613c846577010646de6"},"sequence":4294967295},{"txid":"0f9c9012b11e22f366a4ee29a0004d5c46b6991f66fef583a0d2f1e59b6491f1","vout":1,"scriptSig":{"asm":"3045022100a3ab4d507ba4958756e61b2ae0f127e444f2f1ac55bf6092529f3ce14c279e0a0220612bcd29a9a48ed80966e50f9908c057e6ebdd53697c44ef8529503a91b72d3901 037c276322ed829a02ec039297cfa3789636ab10fa5968904b90a3d81b8f3ffd2f","hex":"483045022100a3ab4d507ba4958756e61b2ae0f127e444f2f1ac55bf6092529f3ce14c279e0a0220612bcd29a9a48ed80966e50f9908c057e6ebdd53697c44ef8529503a91b72d390121037c276322ed829a02ec039297cfa3789636ab10fa5968904b90a3d81b8f3ffd2f"},"sequence":4294967295},{"txid":"f3da5ef95f8d1f245f0ef4c644e72167132f1afc2c6f36cd1263f42002f8b9ab","vout":0,"scriptSig":{"asm":"304402204e8c53e4810b101b1bba4b27f10a45f99964137afe46cd024e55bff3694fc7c302207d432fab4b5c4637fd1e7ce7b8ce3849482272449a1859a47945c08f491d048c01 029e857134122939a57279b02312e296a02bcf0cf876ddc541bd372450215dbeac","hex":"47304402204e8c53e4810b101b1bba4b27f10a45f99964137afe46cd024e55bff3694fc7c302207d432fab4b5c4637fd1e7ce7b8ce3849482272449a1859a47945c08f491d048c0121029e857134122939a57279b02312e296a02bcf0cf876ddc541bd372450215dbeac"},"sequence":4294967295}],"vout":[{"value":0.0106681,"n":0,"scriptPubKey":{"asm":"OP_DUP OP_HASH160 9eca45b75014114a7b51e390a61d49b51ee52ea6 OP_EQUALVERIFY OP_CHECKSIG","reqSigs":1,"type":"pubkeyhash","addresses":["pL2BH9DfhqDVwGoe8RUmqiY7mQyemJeF8k"]}},{"value":13.31112592,"n":1,"scriptPubKey":{"asm":"OP_DUP OP_HASH160 8bdf947413faf3cd63901c4fd90fa5f7d8a78b73 OP_EQUALVERIFY OP_CHECKSIG","reqSigs":1,"type":"pubkeyhash","addresses":["pJJ9xyR7gagtjRDsGhUwNHL2Nugnufkquu"]}}],"blockhash":"49f7cc5137262b1072b48284df1acb506880daa042bbf8d84d5189e5f01b7f1f","confirmations":129,"blocktime":1541006288}