{"hex":"010000001069e05b01e73e77c555ea235ad8dc6776cc5e7e6f179e90f9708de249b345ee26134b09200100000049483045022100992b82e176e05ce1e1bacc0f3dd43e08b49a2e66ae87487d0e97181329b0f33b022073b53c7fd13efe83ebc24b10a436675f04da55a64e1f9ead9254ff550f47346101ffffffff0400000000000000000040af09a4030000002321028d9be6ae35cf9126d1ddd81f7e9a33d77e64d908c42bf417d6424ba1da9106a6acc3310aa4030000002321028d9be6ae35cf9126d1ddd81f7e9a33d77e64d908c42bf417d6424ba1da9106a6ac8ce30200000000001976a914239bf4dba7e2193b7f701a7b68d0e94c85d85fac88ac00000000","txid":"d272f026036f8d2cf20768b4abbc852c301a1e9e83944c41bbe8931c978b9dd3","version":1,"time":1541433616,"locktime":0,"vin":[{"txid":"20094b1326ee45b349e28d70f9909e176f7e5ecc7667dcd85a23ea55c5773ee7","vout":1,"scriptSig":{"asm":"3045022100992b82e176e05ce1e1bacc0f3dd43e08b49a2e66ae87487d0e97181329b0f33b022073b53c7fd13efe83ebc24b10a436675f04da55a64e1f9ead9254ff550f47346101","hex":"483045022100992b82e176e05ce1e1bacc0f3dd43e08b49a2e66ae87487d0e97181329b0f33b022073b53c7fd13efe83ebc24b10a436675f04da55a64e1f9ead9254ff550f47346101"},"sequence":4294967295}],"vout":[{"value":0,"n":0,"scriptPubKey":{"asm":"","type":"nonstandard"}},{"value":156.37,"n":1,"scriptPubKey":{"asm":"028d9be6ae35cf9126d1ddd81f7e9a33d77e64d908c42bf417d6424ba1da9106a6 OP_CHECKSIG","reqSigs":1,"type":"pubkey","addresses":["pG17eAwgEzq6zQQ7cLzvCMepRqGYMprwdz"]}},{"value":156.37033411,"n":2,"scriptPubKey":{"asm":"028d9be6ae35cf9126d1ddd81f7e9a33d77e64d908c42bf417d6424ba1da9106a6 OP_CHECKSIG","reqSigs":1,"type":"pubkey","addresses":["pG17eAwgEzq6zQQ7cLzvCMepRqGYMprwdz"]}},{"value":0.00189324,"n":3,"scriptPubKey":{"asm":"OP_DUP OP_HASH160 239bf4dba7e2193b7f701a7b68d0e94c85d85fac OP_EQUALVERIFY OP_CHECKSIG","reqSigs":1,"type":"pubkeyhash","addresses":["p8nrgTxTfKDC3hvmSmFxDcxpYguUCo8yWb"]}}],"blockhash":"3b1cd44b216b9cccef7ed479189b9c84a8313f32f0ed2ffbd84295fe187d2dad","confirmations":30,"blocktime":1541433616}