{"hex":"010000000469e05b02bc575483cfc8e8efb47e37e36d6b1c19a1f18aa7353f714b3b9f4931b70321b8010000006b483045022100c978c3467caed38152cced964871ddee4c1971afbdfae647b5adcfecadfbcd9f02200a5bab161b19e1cafe62800bcb1c00dbcd1700c5e251abd1868a4826f236b6180121037069438efb02652b442c9b84b478b71e99351367b1604bac220738b85271f34affffffff330982d92551eee7e99a72f3161a71b27df40d6d749203cce6edf9b448b5cfb8000000006a4730440220413ad9bf4dacf82f23f68967d6e42f43cccd27dc7d76d6d752b1263b3ae44d96022037996a990cd3a5f879ec93ef96a4698293c1e15189b9f33b6b35d797b182693a01210297aee62016124d13b15cc5d4c1b29e6dd86bb4de46b982ace24d619d09dc9029ffffffff02617c9501000000001976a91488554927a27e5d3488f3649a840388612e96a4e388ac0fac460d000000001976a9146a90dcdaec8bc2574d3314b55afb17b88cff712788ac00000000","txid":"d7926a229949fd555a8cc5d05555c69371fdb9e477585aea69e4a43aaf4f66bd","version":1,"time":1541433616,"locktime":0,"vin":[{"txid":"b82103b731499f3b4b713f35a78af1a1191c6b6de3377eb4efe8c8cf835457bc","vout":1,"scriptSig":{"asm":"3045022100c978c3467caed38152cced964871ddee4c1971afbdfae647b5adcfecadfbcd9f02200a5bab161b19e1cafe62800bcb1c00dbcd1700c5e251abd1868a4826f236b61801 037069438efb02652b442c9b84b478b71e99351367b1604bac220738b85271f34a","hex":"483045022100c978c3467caed38152cced964871ddee4c1971afbdfae647b5adcfecadfbcd9f02200a5bab161b19e1cafe62800bcb1c00dbcd1700c5e251abd1868a4826f236b6180121037069438efb02652b442c9b84b478b71e99351367b1604bac220738b85271f34a"},"sequence":4294967295},{"txid":"b8cfb548b4f9ede6cc0392746d0df47db2711a16f3729ae9e7ee5125d9820933","vout":0,"scriptSig":{"asm":"30440220413ad9bf4dacf82f23f68967d6e42f43cccd27dc7d76d6d752b1263b3ae44d96022037996a990cd3a5f879ec93ef96a4698293c1e15189b9f33b6b35d797b182693a01 0297aee62016124d13b15cc5d4c1b29e6dd86bb4de46b982ace24d619d09dc9029","hex":"4730440220413ad9bf4dacf82f23f68967d6e42f43cccd27dc7d76d6d752b1263b3ae44d96022037996a990cd3a5f879ec93ef96a4698293c1e15189b9f33b6b35d797b182693a01210297aee62016124d13b15cc5d4c1b29e6dd86bb4de46b982ace24d619d09dc9029"},"sequence":4294967295}],"vout":[{"value":0.26573921,"n":0,"scriptPubKey":{"asm":"OP_DUP OP_HASH160 88554927a27e5d3488f3649a840388612e96a4e3 OP_EQUALVERIFY OP_CHECKSIG","reqSigs":1,"type":"pubkeyhash","addresses":["pHySGZ2hGFYaSmiuB9AQ4A6hwjKZ4KdV6s"]}},{"value":2.22735375,"n":1,"scriptPubKey":{"asm":"OP_DUP OP_HASH160 6a90dcdaec8bc2574d3314b55afb17b88cff7127 OP_EQUALVERIFY OP_CHECKSIG","reqSigs":1,"type":"pubkeyhash","addresses":["pFG3NH3m9kh3P44vCB7BphEZVMmkgJgDnF"]}}],"blockhash":"3b1cd44b216b9cccef7ed479189b9c84a8313f32f0ed2ffbd84295fe187d2dad","confirmations":30,"blocktime":1541433616}