{"hex":"01000000c001d75b06531a5700187a96a001c252477d4853df32710ed0c302a43dd88ce43684187086030000006b483045022100a2e418b4d9ee9347ba3166ba05fd9766667414e8a87fedb57c4337614db4c4b20220146ca5bc17f696bfb4ac7cceac78c4e4563e6a868dcf7481b113ef9ff512a8a00121026ef57679057df94a5f72e9fead08857f8d7253a593b2b1feed1b68e92df4a4c5ffffffff66092e2a3927bda7dc97bfc5a5cff4c47a59dbdbc43c902eedfe49963c2bc6ec030000006b483045022100b59531ef85f68f2e378a55c5e59df8a97e78544864e1313e3ca32b578f082db502206ef926cd62a9d1b6249c9202350a1d7375b57d2fd20fe79f1d022348de9e54780121026ef57679057df94a5f72e9fead08857f8d7253a593b2b1feed1b68e92df4a4c5ffffffff78d44519484faab0906aad15d6436dd9d53227762e5a4b61bdba3b9eb4ec4b02020000006a47304402207012f6b005109578d94e71798247aab142ec89cc00b8f85848cf248dd936489f02200b3bfcb73c6b2e002b91c002e49c3eafd642166e989524fade4cbefc4fb4bba90121026ef57679057df94a5f72e9fead08857f8d7253a593b2b1feed1b68e92df4a4c5ffffffffa4fdb4b1c3db30af8fb447575e74214c9299d739801e612ea55d87de33a994a8020000006a47304402205338e1ab29d05627a45d2d13bb6500593ef1580e2372483b8820b5a897040a4702206d12f6295cccdb71266758958a6eb92a16f9b04461d5ca63a75e95a180669de10121026ef57679057df94a5f72e9fead08857f8d7253a593b2b1feed1b68e92df4a4c5ffffffffc8482308dd9f2ddd40b5c0d4bc098b727d3325918c85998fedcc8befa1434133030000006a473044022050a66e4f2dc24549fbf8a24eeec8a50fb5cff828686fc39e528cd7d544026f2c022061537b89f80bf73597aa79ab7c7d1b83bb3e04cfc6f01b2d77a2b4ab842f05520121026ef57679057df94a5f72e9fead08857f8d7253a593b2b1feed1b68e92df4a4c5ffffffff72a61b6d99b37cc281a91146860be5049e4e16ca45931fafb51e07dae016f85f030000006a47304402200773e57104dc8e33ec54b21ed72074f59271675dd2f7d2fef1ed19e399a706050220398322f11756aff6ff44ffe995cffe2441c081dc1b93c772802502d9b2b3ddb70121026ef57679057df94a5f72e9fead08857f8d7253a593b2b1feed1b68e92df4a4c5ffffffff03000000000000000000aef9a932000000002321026ef57679057df94a5f72e9fead08857f8d7253a593b2b1feed1b68e92df4a4c5accd040000000000001976a914b281632e032cac99462bf7779521442a307c52a088ac00000000","txid":"58737ae973e92d940d78b2a7d1a26ac794bd5c455d59189a13336808594c3729","version":1,"time":1540817344,"locktime":0,"vin":[{"txid":"8670188436e48cd83da402c3d00e7132df53487d4752c201a0967a1800571a53","vout":3,"scriptSig":{"asm":"3045022100a2e418b4d9ee9347ba3166ba05fd9766667414e8a87fedb57c4337614db4c4b20220146ca5bc17f696bfb4ac7cceac78c4e4563e6a868dcf7481b113ef9ff512a8a001 026ef57679057df94a5f72e9fead08857f8d7253a593b2b1feed1b68e92df4a4c5","hex":"483045022100a2e418b4d9ee9347ba3166ba05fd9766667414e8a87fedb57c4337614db4c4b20220146ca5bc17f696bfb4ac7cceac78c4e4563e6a868dcf7481b113ef9ff512a8a00121026ef57679057df94a5f72e9fead08857f8d7253a593b2b1feed1b68e92df4a4c5"},"sequence":4294967295},{"txid":"ecc62b3c9649feed2e903cc4dbdb597ac4f4cfa5c5bf97dca7bd27392a2e0966","vout":3,"scriptSig":{"asm":"3045022100b59531ef85f68f2e378a55c5e59df8a97e78544864e1313e3ca32b578f082db502206ef926cd62a9d1b6249c9202350a1d7375b57d2fd20fe79f1d022348de9e547801 026ef57679057df94a5f72e9fead08857f8d7253a593b2b1feed1b68e92df4a4c5","hex":"483045022100b59531ef85f68f2e378a55c5e59df8a97e78544864e1313e3ca32b578f082db502206ef926cd62a9d1b6249c9202350a1d7375b57d2fd20fe79f1d022348de9e54780121026ef57679057df94a5f72e9fead08857f8d7253a593b2b1feed1b68e92df4a4c5"},"sequence":4294967295},{"txid":"024becb49e3bbabd614b5a2e762732d5d96d43d615ad6a90b0aa4f481945d478","vout":2,"scriptSig":{"asm":"304402207012f6b005109578d94e71798247aab142ec89cc00b8f85848cf248dd936489f02200b3bfcb73c6b2e002b91c002e49c3eafd642166e989524fade4cbefc4fb4bba901 026ef57679057df94a5f72e9fead08857f8d7253a593b2b1feed1b68e92df4a4c5","hex":"47304402207012f6b005109578d94e71798247aab142ec89cc00b8f85848cf248dd936489f02200b3bfcb73c6b2e002b91c002e49c3eafd642166e989524fade4cbefc4fb4bba90121026ef57679057df94a5f72e9fead08857f8d7253a593b2b1feed1b68e92df4a4c5"},"sequence":4294967295},{"txid":"a894a933de875da52e611e8039d799924c21745e5747b48faf30dbc3b1b4fda4","vout":2,"scriptSig":{"asm":"304402205338e1ab29d05627a45d2d13bb6500593ef1580e2372483b8820b5a897040a4702206d12f6295cccdb71266758958a6eb92a16f9b04461d5ca63a75e95a180669de101 026ef57679057df94a5f72e9fead08857f8d7253a593b2b1feed1b68e92df4a4c5","hex":"47304402205338e1ab29d05627a45d2d13bb6500593ef1580e2372483b8820b5a897040a4702206d12f6295cccdb71266758958a6eb92a16f9b04461d5ca63a75e95a180669de10121026ef57679057df94a5f72e9fead08857f8d7253a593b2b1feed1b68e92df4a4c5"},"sequence":4294967295},{"txid":"334143a1ef8bcced8f99858c9125337d728b09bcd4c0b540dd2d9fdd082348c8","vout":3,"scriptSig":{"asm":"3044022050a66e4f2dc24549fbf8a24eeec8a50fb5cff828686fc39e528cd7d544026f2c022061537b89f80bf73597aa79ab7c7d1b83bb3e04cfc6f01b2d77a2b4ab842f055201 026ef57679057df94a5f72e9fead08857f8d7253a593b2b1feed1b68e92df4a4c5","hex":"473044022050a66e4f2dc24549fbf8a24eeec8a50fb5cff828686fc39e528cd7d544026f2c022061537b89f80bf73597aa79ab7c7d1b83bb3e04cfc6f01b2d77a2b4ab842f05520121026ef57679057df94a5f72e9fead08857f8d7253a593b2b1feed1b68e92df4a4c5"},"sequence":4294967295},{"txid":"5ff816e0da071eb5af1f9345ca164e9e04e50b864611a981c27cb3996d1ba672","vout":3,"scriptSig":{"asm":"304402200773e57104dc8e33ec54b21ed72074f59271675dd2f7d2fef1ed19e399a706050220398322f11756aff6ff44ffe995cffe2441c081dc1b93c772802502d9b2b3ddb701 026ef57679057df94a5f72e9fead08857f8d7253a593b2b1feed1b68e92df4a4c5","hex":"47304402200773e57104dc8e33ec54b21ed72074f59271675dd2f7d2fef1ed19e399a706050220398322f11756aff6ff44ffe995cffe2441c081dc1b93c772802502d9b2b3ddb70121026ef57679057df94a5f72e9fead08857f8d7253a593b2b1feed1b68e92df4a4c5"},"sequence":4294967295}],"vout":[{"value":0,"n":0,"scriptPubKey":{"asm":"","type":"nonstandard"}},{"value":8.50000302,"n":1,"scriptPubKey":{"asm":"026ef57679057df94a5f72e9fead08857f8d7253a593b2b1feed1b68e92df4a4c5 OP_CHECKSIG","reqSigs":1,"type":"pubkey","addresses":["p5dRZ9MeyiKDma1pAUrsmvEK4NBmmdC4ZN"]}},{"value":0.00001229,"n":2,"scriptPubKey":{"asm":"OP_DUP OP_HASH160 b281632e032cac99462bf7779521442a307c52a0 OP_EQUALVERIFY OP_CHECKSIG","reqSigs":1,"type":"pubkeyhash","addresses":["pMpRUr5SqF4SLREGfNjMyHwaGCi3EHeLR1"]}}],"blockhash":"e82794f3f1828d700386c0e9dbbcc2dff6480d7c1ecc5a010f76701fcfcbb957","confirmations":203,"blocktime":1540817344}