{"hex":"01000000b301d75b037c644d027b344119d6b3cf7912afbe024230264ccdcbb8619c7b1600e3e9c0bf010000006b483045022100c05eeb41ebcb7589a33c4fb73ec778b07956cb3314c0e19c4a310e6b5e5fd47c02201763c7d9967fb26c0e16e095d2c177456fe886ba6c609cc84aba8a3d840b69af0121024dc2de9912f77928aca86ebb63fe00b76c6d7f4d051bc8f31b69a44f80b24868ffffffffbc0279b6503a3b44e64c58b1b0015748baf425e91f8f17479f35454eb37311d2000000006a47304402206f5f70fd3711b782402e5fe7b2995e21e5cbbf8fc1b94ea0a820e3c4e30c1ae5022002377d361a8dfa430df98f258810d1a3bc7edd51d0f5660d1f81c62b73e0ef2c01210277f81d2aa3721784d78653cca0fc097abf38dd6d3f58db4c9121a58a18a3867effffffffba36b77a0abf2f10f676b0a43871ae964434f0c38b174733591e60fab127d692010000006a47304402200133a7c37b59e3ef8d4fd7723348158aba43068412e7614eccb608ba25705c230220304dd41a067ad61e0fe8f846d5f56f8aab979e5d0aab023a482c36750eba679d0121024dc2de9912f77928aca86ebb63fe00b76c6d7f4d051bc8f31b69a44f80b24868ffffffff02944e0f00000000001976a9144c28ee798243702bc4500cdb4da9004130bb47f688ac5c131600000000001976a9141cd9d3226e2c05a56b05c2b276780860e3d6c4ac88ac00000000","txid":"a778b247fa8e231745989cd10dbe5ebce41077aaf90f98e73b9c4b858007d86d","version":1,"time":1540817344,"locktime":0,"vin":[{"txid":"bfc0e9e300167b9c61b8cbcd4c26304202beaf1279cfb3d61941347b024d647c","vout":1,"scriptSig":{"asm":"3045022100c05eeb41ebcb7589a33c4fb73ec778b07956cb3314c0e19c4a310e6b5e5fd47c02201763c7d9967fb26c0e16e095d2c177456fe886ba6c609cc84aba8a3d840b69af01 024dc2de9912f77928aca86ebb63fe00b76c6d7f4d051bc8f31b69a44f80b24868","hex":"483045022100c05eeb41ebcb7589a33c4fb73ec778b07956cb3314c0e19c4a310e6b5e5fd47c02201763c7d9967fb26c0e16e095d2c177456fe886ba6c609cc84aba8a3d840b69af0121024dc2de9912f77928aca86ebb63fe00b76c6d7f4d051bc8f31b69a44f80b24868"},"sequence":4294967295},{"txid":"d21173b34e45359f47178f1fe925f4ba485701b0b1584ce6443b3a50b67902bc","vout":0,"scriptSig":{"asm":"304402206f5f70fd3711b782402e5fe7b2995e21e5cbbf8fc1b94ea0a820e3c4e30c1ae5022002377d361a8dfa430df98f258810d1a3bc7edd51d0f5660d1f81c62b73e0ef2c01 0277f81d2aa3721784d78653cca0fc097abf38dd6d3f58db4c9121a58a18a3867e","hex":"47304402206f5f70fd3711b782402e5fe7b2995e21e5cbbf8fc1b94ea0a820e3c4e30c1ae5022002377d361a8dfa430df98f258810d1a3bc7edd51d0f5660d1f81c62b73e0ef2c01210277f81d2aa3721784d78653cca0fc097abf38dd6d3f58db4c9121a58a18a3867e"},"sequence":4294967295},{"txid":"92d627b1fa601e593347178bc3f0344496ae7138a4b076f6102fbf0a7ab736ba","vout":1,"scriptSig":{"asm":"304402200133a7c37b59e3ef8d4fd7723348158aba43068412e7614eccb608ba25705c230220304dd41a067ad61e0fe8f846d5f56f8aab979e5d0aab023a482c36750eba679d01 024dc2de9912f77928aca86ebb63fe00b76c6d7f4d051bc8f31b69a44f80b24868","hex":"47304402200133a7c37b59e3ef8d4fd7723348158aba43068412e7614eccb608ba25705c230220304dd41a067ad61e0fe8f846d5f56f8aab979e5d0aab023a482c36750eba679d0121024dc2de9912f77928aca86ebb63fe00b76c6d7f4d051bc8f31b69a44f80b24868"},"sequence":4294967295}],"vout":[{"value":0.01003156,"n":0,"scriptPubKey":{"asm":"OP_DUP OP_HASH160 4c28ee798243702bc4500cdb4da9004130bb47f6 OP_EQUALVERIFY OP_CHECKSIG","reqSigs":1,"type":"pubkeyhash","addresses":["pCVGbFvFLapGyskXvwfxG2ss21bRU9FqUh"]}},{"value":0.01446748,"n":1,"scriptPubKey":{"asm":"OP_DUP OP_HASH160 1cd9d3226e2c05a56b05c2b276780860e3d6c4ac OP_EQUALVERIFY OP_CHECKSIG","reqSigs":1,"type":"pubkeyhash","addresses":["p8B84ofSjsoRPMCJZ2wxewd6m6ZBJKLsXp"]}}],"blockhash":"e82794f3f1828d700386c0e9dbbcc2dff6480d7c1ecc5a010f76701fcfcbb957","confirmations":203,"blocktime":1540817344}