{"hex":"01000000a0c3d85b0b12376613d41731b036659a834760c9fba3738a28d89b698ad26943bddfa1d261020000006a47304402207fcb61fea0256a9278daa82e8851c225b3de4ac69c35d4704fa1714e0735417b0220799c3ead238d5a28b1306aa74e219283d0acc5db45481b46f9f2abe0a8b0fe6b0121025df7a8765a76942a46d4bbbd50efa025172f77c8a702ee26a529597d1f9816feffffffff1b9e9c0158fbc5fe3780dc093d9a4eb6652d132ab2a4be64371603510664c13e030000006a47304402206bebc1f847eb329936b68c9e022c8872a697f161d2feebd7ea1b266504e3acd50220601de366d268f7935929714aca947cd702a372c9d68383818905a701f5cc2b660121025df7a8765a76942a46d4bbbd50efa025172f77c8a702ee26a529597d1f9816feffffffff39a07eb99ed7d503520bf47e1e90eaebeda6fa98a3960407c9f8acb60ab89134030000006a47304402204373f3c3d694683932bbda2f31672cb3f80a330a7facb5095ea751f1384c87c30220627b85f136b76c7ce4536544cf80b854001b1fa8fe0b655c9250dc5d2efd0c6b0121025df7a8765a76942a46d4bbbd50efa025172f77c8a702ee26a529597d1f9816feffffffff4cea0add58b383032359b6cfff9aad676c70bef68231c5f25e0f391251a38a40030000006a47304402202a0fc2a732efeb0a0e4f3011d1610cf7bae7d67f5344b50c168c5223540cdc10022013e738b317f52de811d4dffae6ec4094ecd1e8ccf314e357397b352f538920c70121025df7a8765a76942a46d4bbbd50efa025172f77c8a702ee26a529597d1f9816feffffffff511f8ef514203fa8c1f2be1b76c2cedcf428970708358ac774bc391f383312ea020000006a4730440220543171d255703fae5bf0f2ed74880aa4ebf775d869abacd3680f4b96d5ea06ff0220785b4d48ad9c45d211d90da65d284e1b63a7087657f161d50d8d33e6b5f95d800121025df7a8765a76942a46d4bbbd50efa025172f77c8a702ee26a529597d1f9816feffffffff842c8d1487561a1eb5f7ad632e40004f4812750cb8b7a6468ce91ee401ff6e15020000006a47304402204f3689bd144daa33759af1f10f1328a373867f55ceb34c55822ed97e755f9f510220339c61d858857f661ffba68f529379714b8c63f1722e4449f8db34d07269f5370121025df7a8765a76942a46d4bbbd50efa025172f77c8a702ee26a529597d1f9816feffffffffb62cbc00ed43ab938782bcc4b1d4fe27f2c2188ba53ad7f3a0e18d2fb8807934020000006a4730440220575cfb048dbab62d8a886430a079f1775409a3567fcfb500e8a45bc438b9bba102202dbc7e8c06a5accc70e945d65c08dc2e051d6928535a91c0ab140b1cba47d9560121025df7a8765a76942a46d4bbbd50efa025172f77c8a702ee26a529597d1f9816feffffffffc727f0f3fbf6f97cdff65b0b21d03ecbb3766794800343f81925b9e86340a96d030000006a47304402201ffef4370c6408d09ca4befb2dc8f94ed2fbaa7d38d4534859a0088bc38c4b5302203d82e818caa0d41a80b1a2a6fbec9eb2cbd6439f9c33905a9d2d7595a63999630121025df7a8765a76942a46d4bbbd50efa025172f77c8a702ee26a529597d1f9816feffffffffd51f2176812b005177318731068b0c7ab7d36a316e14e8b57848ab7dcb012c24030000006a47304402205457ff5cb397af4435abcc7b3d90b5810a8142405495f62ed78bed4752da3a2f02206b713b904fecd869a6896e89676ef76c0d9bcc6807744c1e2fbe37f0685d865c0121025df7a8765a76942a46d4bbbd50efa025172f77c8a702ee26a529597d1f9816feffffffffd95f67b26248c1036a4dfd66ce20fa9dc664ee487ea052cf20c865cab30d221f020000006b483045022100fd9859618545cc2761ab1c279d1f3b500bc2ba7bed2bc8329896b4a131bbd50002207b39710fe3d57bb66a75e61ba65a272adf36a1d79fe769960af7dd2b2163ea530121025df7a8765a76942a46d4bbbd50efa025172f77c8a702ee26a529597d1f9816feffffffffdecb2a7f6fe76b64bcddd08ac4b72ae68c570f353986747d6ef708da69cae897030000006b4830450221009c47ad3d7e847e8f870294b9ad1e2948e130bad33788105baf6034116cf4f78702201f794abb70a8700e5e534a49ba345c5d8f0003da2b8f0261ad9264a5518f24c00121025df7a8765a76942a46d4bbbd50efa025172f77c8a702ee26a529597d1f9816feffffffff03000000000000000000f0db6d1e000000002321025df7a8765a76942a46d4bbbd50efa025172f77c8a702ee26a529597d1f9816feac084c0100000000001976a9140383cbf635d4aaab0b3af12f3877f122911d227188ac00000000","txid":"cf81ac54e33b5a88db2f23b8404cf2eb7e6a9145281251cede02d33ffe66d08d","version":1,"time":1540932512,"locktime":0,"vin":[{"txid":"61d2a1dfbd4369d28a699bd8288a73a3fbc96047839a6536b03117d413663712","vout":2,"scriptSig":{"asm":"304402207fcb61fea0256a9278daa82e8851c225b3de4ac69c35d4704fa1714e0735417b0220799c3ead238d5a28b1306aa74e219283d0acc5db45481b46f9f2abe0a8b0fe6b01 025df7a8765a76942a46d4bbbd50efa025172f77c8a702ee26a529597d1f9816fe","hex":"47304402207fcb61fea0256a9278daa82e8851c225b3de4ac69c35d4704fa1714e0735417b0220799c3ead238d5a28b1306aa74e219283d0acc5db45481b46f9f2abe0a8b0fe6b0121025df7a8765a76942a46d4bbbd50efa025172f77c8a702ee26a529597d1f9816fe"},"sequence":4294967295},{"txid":"3ec164065103163764bea4b22a132d65b64e9a3d09dc8037fec5fb58019c9e1b","vout":3,"scriptSig":{"asm":"304402206bebc1f847eb329936b68c9e022c8872a697f161d2feebd7ea1b266504e3acd50220601de366d268f7935929714aca947cd702a372c9d68383818905a701f5cc2b6601 025df7a8765a76942a46d4bbbd50efa025172f77c8a702ee26a529597d1f9816fe","hex":"47304402206bebc1f847eb329936b68c9e022c8872a697f161d2feebd7ea1b266504e3acd50220601de366d268f7935929714aca947cd702a372c9d68383818905a701f5cc2b660121025df7a8765a76942a46d4bbbd50efa025172f77c8a702ee26a529597d1f9816fe"},"sequence":4294967295},{"txid":"3491b80ab6acf8c9070496a398faa6edebea901e7ef40b5203d5d79eb97ea039","vout":3,"scriptSig":{"asm":"304402204373f3c3d694683932bbda2f31672cb3f80a330a7facb5095ea751f1384c87c30220627b85f136b76c7ce4536544cf80b854001b1fa8fe0b655c9250dc5d2efd0c6b01 025df7a8765a76942a46d4bbbd50efa025172f77c8a702ee26a529597d1f9816fe","hex":"47304402204373f3c3d694683932bbda2f31672cb3f80a330a7facb5095ea751f1384c87c30220627b85f136b76c7ce4536544cf80b854001b1fa8fe0b655c9250dc5d2efd0c6b0121025df7a8765a76942a46d4bbbd50efa025172f77c8a702ee26a529597d1f9816fe"},"sequence":4294967295},{"txid":"408aa35112390f5ef2c53182f6be706c67ad9affcfb659230383b358dd0aea4c","vout":3,"scriptSig":{"asm":"304402202a0fc2a732efeb0a0e4f3011d1610cf7bae7d67f5344b50c168c5223540cdc10022013e738b317f52de811d4dffae6ec4094ecd1e8ccf314e357397b352f538920c701 025df7a8765a76942a46d4bbbd50efa025172f77c8a702ee26a529597d1f9816fe","hex":"47304402202a0fc2a732efeb0a0e4f3011d1610cf7bae7d67f5344b50c168c5223540cdc10022013e738b317f52de811d4dffae6ec4094ecd1e8ccf314e357397b352f538920c70121025df7a8765a76942a46d4bbbd50efa025172f77c8a702ee26a529597d1f9816fe"},"sequence":4294967295},{"txid":"ea1233381f39bc74c78a3508079728f4dccec2761bbef2c1a83f2014f58e1f51","vout":2,"scriptSig":{"asm":"30440220543171d255703fae5bf0f2ed74880aa4ebf775d869abacd3680f4b96d5ea06ff0220785b4d48ad9c45d211d90da65d284e1b63a7087657f161d50d8d33e6b5f95d8001 025df7a8765a76942a46d4bbbd50efa025172f77c8a702ee26a529597d1f9816fe","hex":"4730440220543171d255703fae5bf0f2ed74880aa4ebf775d869abacd3680f4b96d5ea06ff0220785b4d48ad9c45d211d90da65d284e1b63a7087657f161d50d8d33e6b5f95d800121025df7a8765a76942a46d4bbbd50efa025172f77c8a702ee26a529597d1f9816fe"},"sequence":4294967295},{"txid":"156eff01e41ee98c46a6b7b80c7512484f00402e63adf7b51e1a5687148d2c84","vout":2,"scriptSig":{"asm":"304402204f3689bd144daa33759af1f10f1328a373867f55ceb34c55822ed97e755f9f510220339c61d858857f661ffba68f529379714b8c63f1722e4449f8db34d07269f53701 025df7a8765a76942a46d4bbbd50efa025172f77c8a702ee26a529597d1f9816fe","hex":"47304402204f3689bd144daa33759af1f10f1328a373867f55ceb34c55822ed97e755f9f510220339c61d858857f661ffba68f529379714b8c63f1722e4449f8db34d07269f5370121025df7a8765a76942a46d4bbbd50efa025172f77c8a702ee26a529597d1f9816fe"},"sequence":4294967295},{"txid":"347980b82f8de1a0f3d73aa58b18c2f227fed4b1c4bc828793ab43ed00bc2cb6","vout":2,"scriptSig":{"asm":"30440220575cfb048dbab62d8a886430a079f1775409a3567fcfb500e8a45bc438b9bba102202dbc7e8c06a5accc70e945d65c08dc2e051d6928535a91c0ab140b1cba47d95601 025df7a8765a76942a46d4bbbd50efa025172f77c8a702ee26a529597d1f9816fe","hex":"4730440220575cfb048dbab62d8a886430a079f1775409a3567fcfb500e8a45bc438b9bba102202dbc7e8c06a5accc70e945d65c08dc2e051d6928535a91c0ab140b1cba47d9560121025df7a8765a76942a46d4bbbd50efa025172f77c8a702ee26a529597d1f9816fe"},"sequence":4294967295},{"txid":"6da94063e8b92519f8430380946776b3cb3ed0210b5bf6df7cf9f6fbf3f027c7","vout":3,"scriptSig":{"asm":"304402201ffef4370c6408d09ca4befb2dc8f94ed2fbaa7d38d4534859a0088bc38c4b5302203d82e818caa0d41a80b1a2a6fbec9eb2cbd6439f9c33905a9d2d7595a639996301 025df7a8765a76942a46d4bbbd50efa025172f77c8a702ee26a529597d1f9816fe","hex":"47304402201ffef4370c6408d09ca4befb2dc8f94ed2fbaa7d38d4534859a0088bc38c4b5302203d82e818caa0d41a80b1a2a6fbec9eb2cbd6439f9c33905a9d2d7595a63999630121025df7a8765a76942a46d4bbbd50efa025172f77c8a702ee26a529597d1f9816fe"},"sequence":4294967295},{"txid":"242c01cb7dab4878b5e8146e316ad3b77a0c8b063187317751002b8176211fd5","vout":3,"scriptSig":{"asm":"304402205457ff5cb397af4435abcc7b3d90b5810a8142405495f62ed78bed4752da3a2f02206b713b904fecd869a6896e89676ef76c0d9bcc6807744c1e2fbe37f0685d865c01 025df7a8765a76942a46d4bbbd50efa025172f77c8a702ee26a529597d1f9816fe","hex":"47304402205457ff5cb397af4435abcc7b3d90b5810a8142405495f62ed78bed4752da3a2f02206b713b904fecd869a6896e89676ef76c0d9bcc6807744c1e2fbe37f0685d865c0121025df7a8765a76942a46d4bbbd50efa025172f77c8a702ee26a529597d1f9816fe"},"sequence":4294967295},{"txid":"1f220db3ca65c820cf52a07e48ee64c69dfa20ce66fd4d6a03c14862b2675fd9","vout":2,"scriptSig":{"asm":"3045022100fd9859618545cc2761ab1c279d1f3b500bc2ba7bed2bc8329896b4a131bbd50002207b39710fe3d57bb66a75e61ba65a272adf36a1d79fe769960af7dd2b2163ea5301 025df7a8765a76942a46d4bbbd50efa025172f77c8a702ee26a529597d1f9816fe","hex":"483045022100fd9859618545cc2761ab1c279d1f3b500bc2ba7bed2bc8329896b4a131bbd50002207b39710fe3d57bb66a75e61ba65a272adf36a1d79fe769960af7dd2b2163ea530121025df7a8765a76942a46d4bbbd50efa025172f77c8a702ee26a529597d1f9816fe"},"sequence":4294967295},{"txid":"97e8ca69da08f76e7d748639350f578ce62ab7c48ad0ddbc646be76f7f2acbde","vout":3,"scriptSig":{"asm":"30450221009c47ad3d7e847e8f870294b9ad1e2948e130bad33788105baf6034116cf4f78702201f794abb70a8700e5e534a49ba345c5d8f0003da2b8f0261ad9264a5518f24c001 025df7a8765a76942a46d4bbbd50efa025172f77c8a702ee26a529597d1f9816fe","hex":"4830450221009c47ad3d7e847e8f870294b9ad1e2948e130bad33788105baf6034116cf4f78702201f794abb70a8700e5e534a49ba345c5d8f0003da2b8f0261ad9264a5518f24c00121025df7a8765a76942a46d4bbbd50efa025172f77c8a702ee26a529597d1f9816fe"},"sequence":4294967295}],"vout":[{"value":0,"n":0,"scriptPubKey":{"asm":"","type":"nonstandard"}},{"value":5.10516208,"n":1,"scriptPubKey":{"asm":"025df7a8765a76942a46d4bbbd50efa025172f77c8a702ee26a529597d1f9816fe OP_CHECKSIG","reqSigs":1,"type":"pubkey","addresses":["pGwEY3YdfsrsoLzpPy8zj5rEMTsKeC6Mb3"]}},{"value":0.00085,"n":2,"scriptPubKey":{"asm":"OP_DUP OP_HASH160 0383cbf635d4aaab0b3af12f3877f122911d2271 OP_EQUALVERIFY OP_CHECKSIG","reqSigs":1,"type":"pubkeyhash","addresses":["p5sA7gHHpq5pfbFUafcJM8oF4ZCvf3vkks"]}}],"blockhash":"547f7b0ea5a1b2b6ed447a8cf43eac83dd49fcaccfdf21cf14524c947dccb927","confirmations":1,"blocktime":1540932512}