{"hex":"010000009ac3d85b01d00208a0d31451ef21d87a0ed335c7c99bcda8c191c01b921e3b7d87da298e37010000006b483045022100e76867a455cb7a6791ac12f36e49ba9c87c869a23d72db2ed9e90d23d5d2269b022039b52b983bfa8fecba79cf804ba21459d6c4d60b853b680e1eacc8c45adc07c601210386edbc6764ac5622de00b43bf5d50f098011427dfc7945e87fa881ed768b946bffffffff0227f14e5d000000001976a914f54ccf9b0a3b1996d471315abd2ccb3d90e4dc3f88ac00e1f505000000001976a914ff4a65d2c66bb0b2dba1b17fc119c2f00b19165b88ac00000000","txid":"ff34d02b8737c5a8846a0c16bfd309f3af7fa78a809e9f86c8d85c3ed12a8181","version":1,"time":1540932512,"locktime":0,"vin":[{"txid":"378e29da877d3b1e921bc091c1a8cd9bc9c735d30e7ad821ef5114d3a00802d0","vout":1,"scriptSig":{"asm":"3045022100e76867a455cb7a6791ac12f36e49ba9c87c869a23d72db2ed9e90d23d5d2269b022039b52b983bfa8fecba79cf804ba21459d6c4d60b853b680e1eacc8c45adc07c601 0386edbc6764ac5622de00b43bf5d50f098011427dfc7945e87fa881ed768b946b","hex":"483045022100e76867a455cb7a6791ac12f36e49ba9c87c869a23d72db2ed9e90d23d5d2269b022039b52b983bfa8fecba79cf804ba21459d6c4d60b853b680e1eacc8c45adc07c601210386edbc6764ac5622de00b43bf5d50f098011427dfc7945e87fa881ed768b946b"},"sequence":4294967295}],"vout":[{"value":15.65454631,"n":0,"scriptPubKey":{"asm":"OP_DUP OP_HASH160 f54ccf9b0a3b1996d471315abd2ccb3d90e4dc3f OP_EQUALVERIFY OP_CHECKSIG","reqSigs":1,"type":"pubkeyhash","addresses":["pTubmd67KAWgU1Gx7uNnaD3s87p7G44euG"]}},{"value":1,"n":1,"scriptPubKey":{"asm":"OP_DUP OP_HASH160 ff4a65d2c66bb0b2dba1b17fc119c2f00b19165b OP_EQUALVERIFY OP_CHECKSIG","reqSigs":1,"type":"pubkeyhash","addresses":["pUpRdsKc8vpawwEjgS8Fi66rkU1kVYEmBp"]}}],"blockhash":"6ee62e69181013727f2b3b5377419fcb8f2cd3adff8f9b827cdc6854431549db","confirmations":145,"blocktime":1540932512}