{"hex":"01000000a0c3d85b01b0126fda52e72013c02459f86139db35923e9adb38526dd200137eacb6542adf010000006a473044022016259de40ee8c5380029d84249eb4d83ec7f576003cec22008f849b3a96f00cf0220733cafd22dbc4ef5144c2f367234cd7a93df64a819443ec29b15ea70dfe2aac501210343c16d47fe552dca75755c8ab5eb7a2c71012f54ddf672334c06bebcbe8a45f0ffffffff04000000000000000000004429353a00000023210343c16d47fe552dca75755c8ab5eb7a2c71012f54ddf672334c06bebcbe8a45f0ac987e29353a00000023210343c16d47fe552dca75755c8ab5eb7a2c71012f54ddf672334c06bebcbe8a45f0ac084c0100000000001976a91405799d876e3b7c328ae01baece26d0f931b0f5fa88ac00000000","txid":"fd0ef3853e395defbb77f6fd541d1f739c256bafd87350adea60ab8abc867192","version":1,"time":1540932512,"locktime":0,"vin":[{"txid":"df2a54b6ac7e1300d26d5238db9a3e9235db3961f85924c01320e752da6f12b0","vout":1,"scriptSig":{"asm":"3044022016259de40ee8c5380029d84249eb4d83ec7f576003cec22008f849b3a96f00cf0220733cafd22dbc4ef5144c2f367234cd7a93df64a819443ec29b15ea70dfe2aac501 0343c16d47fe552dca75755c8ab5eb7a2c71012f54ddf672334c06bebcbe8a45f0","hex":"473044022016259de40ee8c5380029d84249eb4d83ec7f576003cec22008f849b3a96f00cf0220733cafd22dbc4ef5144c2f367234cd7a93df64a819443ec29b15ea70dfe2aac501210343c16d47fe552dca75755c8ab5eb7a2c71012f54ddf672334c06bebcbe8a45f0"},"sequence":4294967295}],"vout":[{"value":0,"n":0,"scriptPubKey":{"asm":"","type":"nonstandard"}},{"value":2500,"n":1,"scriptPubKey":{"asm":"0343c16d47fe552dca75755c8ab5eb7a2c71012f54ddf672334c06bebcbe8a45f0 OP_CHECKSIG","reqSigs":1,"type":"pubkey","addresses":["p5sA7gHHpq5pfbFUafcJM8oF4ZCvf3vkks"]}},{"value":2500.00015,"n":2,"scriptPubKey":{"asm":"0343c16d47fe552dca75755c8ab5eb7a2c71012f54ddf672334c06bebcbe8a45f0 OP_CHECKSIG","reqSigs":1,"type":"pubkey","addresses":["p5sA7gHHpq5pfbFUafcJM8oF4ZCvf3vkks"]}},{"value":0.00085,"n":3,"scriptPubKey":{"asm":"OP_DUP OP_HASH160 05799d876e3b7c328ae01baece26d0f931b0f5fa OP_EQUALVERIFY OP_CHECKSIG","reqSigs":1,"type":"pubkeyhash","addresses":["p63XGeVRkcywXEQJE5bkXjJFiugf8tT1er"]}}],"blockhash":"6ee62e69181013727f2b3b5377419fcb8f2cd3adff8f9b827cdc6854431549db","confirmations":145,"blocktime":1540932512}