{"hex":"01000000a0d6dc5b012ee7ddd54b633707e73018741f0ad2560fcb4adcdfc2e20ed28ecc20beb7d1ce0100000049483045022100a32f2ea82f1ed44341118a63156bca002983b7afd744dfbf0d7045b4f82c1d8902201b00b779103df2f12d45f45dd01b19bb61143874a36c474ddc82423a6b27ff2201ffffffff04000000000000000000c021aea30300000023210348b24f77eda58d2bf0bd56f764cfdeb0100d2f1058b2d5318f2f2fc9670e730eac989ebda30300000023210348b24f77eda58d2bf0bd56f764cfdeb0100d2f1058b2d5318f2f2fc9670e730eac084c0100000000001976a914239bf4dba7e2193b7f701a7b68d0e94c85d85fac88ac00000000","txid":"9d9e07b1e6bc4257715a4eec1575f385c4c76e2a42bfdd1d9c92cf43df3f3b51","version":1,"time":1541199520,"locktime":0,"vin":[{"txid":"ced1b7be20cc8ed20ee2c2dfdc4acb0f56d20a1f741830e70737634bd5dde72e","vout":1,"scriptSig":{"asm":"3045022100a32f2ea82f1ed44341118a63156bca002983b7afd744dfbf0d7045b4f82c1d8902201b00b779103df2f12d45f45dd01b19bb61143874a36c474ddc82423a6b27ff2201","hex":"483045022100a32f2ea82f1ed44341118a63156bca002983b7afd744dfbf0d7045b4f82c1d8902201b00b779103df2f12d45f45dd01b19bb61143874a36c474ddc82423a6b27ff2201"},"sequence":4294967295}],"vout":[{"value":0,"n":0,"scriptPubKey":{"asm":"","type":"nonstandard"}},{"value":156.31,"n":1,"scriptPubKey":{"asm":"0348b24f77eda58d2bf0bd56f764cfdeb0100d2f1058b2d5318f2f2fc9670e730e OP_CHECKSIG","reqSigs":1,"type":"pubkey","addresses":["p8X7huKtvdnnDzc17Xcxxh1Z9ww8ckxvVJ"]}},{"value":156.32015,"n":2,"scriptPubKey":{"asm":"0348b24f77eda58d2bf0bd56f764cfdeb0100d2f1058b2d5318f2f2fc9670e730e OP_CHECKSIG","reqSigs":1,"type":"pubkey","addresses":["p8X7huKtvdnnDzc17Xcxxh1Z9ww8ckxvVJ"]}},{"value":0.00085,"n":3,"scriptPubKey":{"asm":"OP_DUP OP_HASH160 239bf4dba7e2193b7f701a7b68d0e94c85d85fac OP_EQUALVERIFY OP_CHECKSIG","reqSigs":1,"type":"pubkeyhash","addresses":["p8nrgTxTfKDC3hvmSmFxDcxpYguUCo8yWb"]}}],"blockhash":"831828363a653be004def5457aef52719bdf85784dfc8197cec5dc92e840c38e","confirmations":51,"blocktime":1541199520}