{"hex":"0100000096d6dc5b02b5880121033f0974265101b074a5ee84bc3092c271d5b741eb2d76d9d6454b84000000006a47304402206b2285f8f11b603b77dbad9eba0747222152a8b6049c54a62702550600ee9c8e0220584a11eacb080726f049055d34796859c185b4569c7bdbaa3f85ff5e350ba47801210273949335c40428e3b46363323b2dd877aa876e4912b5b3adca51155081d3c5e9ffffffff7765dccce02c5d86055d4c53d23bfa3b7a46a26b1f03465eaaad98283b0652d3010000006b483045022100f028df4e44174b645f08273316825c76fd37109958193d6a7f1e18e2b0820ddd02207acf608254526cce45e724f0bd24e6ec021be33f97b1dd3109d9d1d4f63decda0121034572ea4a32e1aa0d9866a4379a1a804baa9f0a1e8d7691c7ccd2e143e31f34baffffffff02dc721d00000000001976a9140469043f826d85c55efd778fde7b5328ecc9876e88ac00e1f505000000001976a91460d85a9ba3155a96a93e9a9dcab8fa1301632e8c88ac00000000","txid":"df465cabb3c65c087cd6df4c201b84aca860d0b0bce6f4ab178afd1a5aa1d933","version":1,"time":1541199520,"locktime":0,"vin":[{"txid":"844b45d6d9762deb41b7d571c29230bc84eea574b001512674093f03210188b5","vout":0,"scriptSig":{"asm":"304402206b2285f8f11b603b77dbad9eba0747222152a8b6049c54a62702550600ee9c8e0220584a11eacb080726f049055d34796859c185b4569c7bdbaa3f85ff5e350ba47801 0273949335c40428e3b46363323b2dd877aa876e4912b5b3adca51155081d3c5e9","hex":"47304402206b2285f8f11b603b77dbad9eba0747222152a8b6049c54a62702550600ee9c8e0220584a11eacb080726f049055d34796859c185b4569c7bdbaa3f85ff5e350ba47801210273949335c40428e3b46363323b2dd877aa876e4912b5b3adca51155081d3c5e9"},"sequence":4294967295},{"txid":"d352063b2898adaa5e46031f6ba2467a3bfa3bd2534c5d05865d2ce0ccdc6577","vout":1,"scriptSig":{"asm":"3045022100f028df4e44174b645f08273316825c76fd37109958193d6a7f1e18e2b0820ddd02207acf608254526cce45e724f0bd24e6ec021be33f97b1dd3109d9d1d4f63decda01 034572ea4a32e1aa0d9866a4379a1a804baa9f0a1e8d7691c7ccd2e143e31f34ba","hex":"483045022100f028df4e44174b645f08273316825c76fd37109958193d6a7f1e18e2b0820ddd02207acf608254526cce45e724f0bd24e6ec021be33f97b1dd3109d9d1d4f63decda0121034572ea4a32e1aa0d9866a4379a1a804baa9f0a1e8d7691c7ccd2e143e31f34ba"},"sequence":4294967295}],"vout":[{"value":0.01929948,"n":0,"scriptPubKey":{"asm":"OP_DUP OP_HASH160 0469043f826d85c55efd778fde7b5328ecc9876e OP_EQUALVERIFY OP_CHECKSIG","reqSigs":1,"type":"pubkeyhash","addresses":["p5wti9sSocPBWur6cQiU8ED22hCUc6SdF5"]}},{"value":1,"n":1,"scriptPubKey":{"asm":"OP_DUP OP_HASH160 60d85a9ba3155a96a93e9a9dcab8fa1301632e8c OP_EQUALVERIFY OP_CHECKSIG","reqSigs":1,"type":"pubkeyhash","addresses":["pENeFf2HHWxLTzDBU8kWaM1ZETMLr62VYb"]}}],"blockhash":"831828363a653be004def5457aef52719bdf85784dfc8197cec5dc92e840c38e","confirmations":51,"blocktime":1541199520}