{"hex":"010000003da1c25b010000000000000000000000000000000000000000000000000000000000000000ffffffff0401340102ffffffff0100000000000000001976a914f76b542c1905e072d59db93d2e2813fbd7d0618788ac00000000","txid":"903ab713ef1ed83ae699b9458984a81abef5f29ce245b45fbe88cebb0a107808","version":1,"time":1539481920,"locktime":0,"vin":[{"coinbase":"01340102","sequence":4294967295}],"vout":[{"value":0,"n":0,"scriptPubKey":{"asm":"OP_DUP OP_HASH160 f76b542c1905e072d59db93d2e2813fbd7d06187 OP_EQUALVERIFY OP_CHECKSIG","reqSigs":1,"type":"pubkeyhash","addresses":["pU6ogRW93gRU2rWR5rwE2Z7bUSrNfbseTw"]}}],"blockhash":"00000f4e5229d9f925172a46d128d726f6d6558c02370861858248766f7577f9","confirmations":393,"blocktime":1539481920}