{"hex":"0100000072a1c25b010000000000000000000000000000000000000000000000000000000000000000ffffffff0401390102ffffffff0100000000000000001976a914ab27f2b39cdda9db3f07293fd4ee04db8c5696b388ac00000000","txid":"c2a14268b246f5e1ca42d2f3e85b25520592e6eec4b3b61a1da1165b8a55b5a5","version":1,"time":1539481973,"locktime":0,"vin":[{"coinbase":"01390102","sequence":4294967295}],"vout":[{"value":0,"n":0,"scriptPubKey":{"asm":"OP_DUP OP_HASH160 ab27f2b39cdda9db3f07293fd4ee04db8c5696b3 OP_EQUALVERIFY OP_CHECKSIG","reqSigs":1,"type":"pubkeyhash","addresses":["pM9Zc9Xvvr7hdizcbjHaaSBLS7ZLwiXdAL"]}}],"blockhash":"00000980e4c55e661618b31064245adfb52e4125252a008b14625fbb1cd270f9","confirmations":388,"blocktime":1539481973}