{"hex":"010000002aedd45b01975579979b4f137f35c6aa5e8727101cb12966ebaea4c2f2d474ac89f61b8c78000000006b483045022100a6b8cfdeb204ebd579f751b024d4ed293302c70d07b5e2549936a3c615c2875a02201f549b089e02d1fb37c989416624c41430eefdc312e5d2a8e5dca673175e5e3d01210263f46ed0a8ce44a7d6ba4a1b819d4b41303b2881093146d28cb6ecb8fca517f8ffffffff0295341800000000001976a914e599e5e91013440d5491110b3fb6499f3b8fae2b88aca0860100000000001976a9144096e7fc0812b091315c472b680ccd07686b0bde88ac00000000","txid":"7a2439b85d6bcf53afe2415b4c64b1d3f010b5c55d75e75790dbe558f656fa67","version":1,"time":1540681008,"locktime":0,"vin":[{"txid":"788c1bf689ac74d4f2c2a4aeeb6629b11c1027875eaac6357f134f9b97795597","vout":0,"scriptSig":{"asm":"3045022100a6b8cfdeb204ebd579f751b024d4ed293302c70d07b5e2549936a3c615c2875a02201f549b089e02d1fb37c989416624c41430eefdc312e5d2a8e5dca673175e5e3d01 0263f46ed0a8ce44a7d6ba4a1b819d4b41303b2881093146d28cb6ecb8fca517f8","hex":"483045022100a6b8cfdeb204ebd579f751b024d4ed293302c70d07b5e2549936a3c615c2875a02201f549b089e02d1fb37c989416624c41430eefdc312e5d2a8e5dca673175e5e3d01210263f46ed0a8ce44a7d6ba4a1b819d4b41303b2881093146d28cb6ecb8fca517f8"},"sequence":4294967295}],"vout":[{"value":0.01586325,"n":0,"scriptPubKey":{"asm":"OP_DUP OP_HASH160 e599e5e91013440d5491110b3fb6499f3b8fae2b OP_EQUALVERIFY OP_CHECKSIG","reqSigs":1,"type":"pubkeyhash","addresses":["pSUbJfJqrKF6WYSMwLxophscjdXiXLYTYs"]}},{"value":0.001,"n":1,"scriptPubKey":{"asm":"OP_DUP OP_HASH160 4096e7fc0812b091315c472b680ccd07686b0bde OP_EQUALVERIFY OP_CHECKSIG","reqSigs":1,"type":"pubkeyhash","addresses":["pBS6E8Qhiibdi9hG31vjg6TTKrYusC17pQ"]}}],"blockhash":"abb58e9eb2dffb4752db6c0aa3be95062e7f307b7f3f9a651c74392fa50963ff","confirmations":272,"blocktime":1540681008}