{"hex":"0100000030edd45b01f90d4f7278006731f909230c396eafcb53f6dbc77fcec6c2f2bb3fd748b3b1880100000049483045022100c1474eaa81e5d5a98d810ee175b4416936579f08e05ff29c0355f3770db0418202207b2d2538d8315ecaef66b4b7e63460799538f3d85150c919c8cfe396df07134601ffffffff040000000000000000008028a546070000002321020b1cd26fc4b9f080aea1cf7b667efd5e8453f70429056589831fa7f63506ddbfac8f28a546070000002321020b1cd26fc4b9f080aea1cf7b667efd5e8453f70429056589831fa7f63506ddbfac55000000000000001976a9141992ad5700ade9422585b3e7af7cd994d29d4ca888ac00000000","txid":"76a8c2948ae76de99ec5c7a4c11f02b6790cb73e9effd8a9f043f4fc2e525cf4","version":1,"time":1540681008,"locktime":0,"vin":[{"txid":"88b1b348d73fbbf2c2c6ce7fc7dbf653cbaf6e390c2309f931670078724f0df9","vout":1,"scriptSig":{"asm":"3045022100c1474eaa81e5d5a98d810ee175b4416936579f08e05ff29c0355f3770db0418202207b2d2538d8315ecaef66b4b7e63460799538f3d85150c919c8cfe396df07134601","hex":"483045022100c1474eaa81e5d5a98d810ee175b4416936579f08e05ff29c0355f3770db0418202207b2d2538d8315ecaef66b4b7e63460799538f3d85150c919c8cfe396df07134601"},"sequence":4294967295}],"vout":[{"value":0,"n":0,"scriptPubKey":{"asm":"","type":"nonstandard"}},{"value":312.5,"n":1,"scriptPubKey":{"asm":"020b1cd26fc4b9f080aea1cf7b667efd5e8453f70429056589831fa7f63506ddbf OP_CHECKSIG","reqSigs":1,"type":"pubkey","addresses":["pECTDpfW4nW8hYte3f3F9ZQxwgWmBwmcYL"]}},{"value":312.50000015,"n":2,"scriptPubKey":{"asm":"020b1cd26fc4b9f080aea1cf7b667efd5e8453f70429056589831fa7f63506ddbf OP_CHECKSIG","reqSigs":1,"type":"pubkey","addresses":["pECTDpfW4nW8hYte3f3F9ZQxwgWmBwmcYL"]}},{"value":8.5e-7,"n":3,"scriptPubKey":{"asm":"OP_DUP OP_HASH160 1992ad5700ade9422585b3e7af7cd994d29d4ca8 OP_EQUALVERIFY OP_CHECKSIG","reqSigs":1,"type":"pubkeyhash","addresses":["p7snoofvhm9cmcDcAmpbzCVHFFEt2fdccj"]}}],"blockhash":"abb58e9eb2dffb4752db6c0aa3be95062e7f307b7f3f9a651c74392fa50963ff","confirmations":272,"blocktime":1540681008}