{"hex":"010000001c4edf5b0441cf68c4136c164227e85045dc79add2ded981438268ee2c6527360a6372a30d000000006b4830450221008faedddfa82a337c55894e405e6335795a6fd3e2f4272411937a2348b5b1c97a02203b1b0ea920be646cdd38d4d8d56069b0aaa813ee347e222b2b10f1e229b76c890121025a0c96451925eb20db6f9a6b662a86b5bbf87f0d6d46c0346eeab80bdfabbeb3ffffffffb5880121033f0974265101b074a5ee84bc3092c271d5b741eb2d76d9d6454b84010000006a473044022037f69c1c011ca57add228c148484b59ff500e573548ec828a96bbe7a9a93178002206b8a7a1bbde9148bb943bbb87312c497d14fc052341ced96f2064526fba81dff0121025ef14da3e99704d07b14e4357f466687bbb8f8d45de5ac94c43e5377490621caffffffff33d9a15a1afd8a17abf4e6bcb0d060a8ac841b204cdfd67c085cc6b3ab5c46df000000006a47304402206bf5697ea32add0589fbf15f74b6dd254b41dcb242df447e21458b02092f9dd902207b14466fe6bff851ed2c6abc27ef7f881eb185bc4ed10652b1d449e5247fa9c70121020d7f30abb4c297bc8fa769257ec015c7fd3e58f138ca59bff4c9bdc075082a3cffffffff7765dccce02c5d86055d4c53d23bfa3b7a46a26b1f03465eaaad98283b0652d30000000068453042021f0d41821e5aea8bbbdbcb4969e4ac569419fee6edc66050e9f4798b42c66f8a021f220e5b636122e3fef03aeeff2d88735ec4428f6b2b24cfd40f3fa6fdf6e88a0121026e2580bffe7dddc75cd76cf79b4b7d48d2b335968f6efef8bbabd52f9d9e8a8bffffffff02d2701500000000001976a914dc41e6c17547389f1389748e7787d6327601162788ac002d3101000000001976a9147394ef0d3bbf31a547711dbb5bf91f6183e7aec288ac00000000","txid":"0ae1a7602fc1b5f817f4d1998bb1d79c88b18e73fa059ffc6e587013a3badb3a","version":1,"time":1541361184,"locktime":0,"vin":[{"txid":"0da372630a3627652cee68824381d9ded2ad79dc4550e82742166c13c468cf41","vout":0,"scriptSig":{"asm":"30450221008faedddfa82a337c55894e405e6335795a6fd3e2f4272411937a2348b5b1c97a02203b1b0ea920be646cdd38d4d8d56069b0aaa813ee347e222b2b10f1e229b76c8901 025a0c96451925eb20db6f9a6b662a86b5bbf87f0d6d46c0346eeab80bdfabbeb3","hex":"4830450221008faedddfa82a337c55894e405e6335795a6fd3e2f4272411937a2348b5b1c97a02203b1b0ea920be646cdd38d4d8d56069b0aaa813ee347e222b2b10f1e229b76c890121025a0c96451925eb20db6f9a6b662a86b5bbf87f0d6d46c0346eeab80bdfabbeb3"},"sequence":4294967295},{"txid":"844b45d6d9762deb41b7d571c29230bc84eea574b001512674093f03210188b5","vout":1,"scriptSig":{"asm":"3044022037f69c1c011ca57add228c148484b59ff500e573548ec828a96bbe7a9a93178002206b8a7a1bbde9148bb943bbb87312c497d14fc052341ced96f2064526fba81dff01 025ef14da3e99704d07b14e4357f466687bbb8f8d45de5ac94c43e5377490621ca","hex":"473044022037f69c1c011ca57add228c148484b59ff500e573548ec828a96bbe7a9a93178002206b8a7a1bbde9148bb943bbb87312c497d14fc052341ced96f2064526fba81dff0121025ef14da3e99704d07b14e4357f466687bbb8f8d45de5ac94c43e5377490621ca"},"sequence":4294967295},{"txid":"df465cabb3c65c087cd6df4c201b84aca860d0b0bce6f4ab178afd1a5aa1d933","vout":0,"scriptSig":{"asm":"304402206bf5697ea32add0589fbf15f74b6dd254b41dcb242df447e21458b02092f9dd902207b14466fe6bff851ed2c6abc27ef7f881eb185bc4ed10652b1d449e5247fa9c701 020d7f30abb4c297bc8fa769257ec015c7fd3e58f138ca59bff4c9bdc075082a3c","hex":"47304402206bf5697ea32add0589fbf15f74b6dd254b41dcb242df447e21458b02092f9dd902207b14466fe6bff851ed2c6abc27ef7f881eb185bc4ed10652b1d449e5247fa9c70121020d7f30abb4c297bc8fa769257ec015c7fd3e58f138ca59bff4c9bdc075082a3c"},"sequence":4294967295},{"txid":"d352063b2898adaa5e46031f6ba2467a3bfa3bd2534c5d05865d2ce0ccdc6577","vout":0,"scriptSig":{"asm":"3042021f0d41821e5aea8bbbdbcb4969e4ac569419fee6edc66050e9f4798b42c66f8a021f220e5b636122e3fef03aeeff2d88735ec4428f6b2b24cfd40f3fa6fdf6e88a01 026e2580bffe7dddc75cd76cf79b4b7d48d2b335968f6efef8bbabd52f9d9e8a8b","hex":"453042021f0d41821e5aea8bbbdbcb4969e4ac569419fee6edc66050e9f4798b42c66f8a021f220e5b636122e3fef03aeeff2d88735ec4428f6b2b24cfd40f3fa6fdf6e88a0121026e2580bffe7dddc75cd76cf79b4b7d48d2b335968f6efef8bbabd52f9d9e8a8b"},"sequence":4294967295}],"vout":[{"value":0.01405138,"n":0,"scriptPubKey":{"asm":"OP_DUP OP_HASH160 dc41e6c17547389f1389748e7787d63276011627 OP_EQUALVERIFY OP_CHECKSIG","reqSigs":1,"type":"pubkeyhash","addresses":["pRdBopLor8HV9KsEXAtvdSc31L1b5o8M8a"]}},{"value":0.2,"n":1,"scriptPubKey":{"asm":"OP_DUP OP_HASH160 7394ef0d3bbf31a547711dbb5bf91f6183e7aec2 OP_EQUALVERIFY OP_CHECKSIG","reqSigs":1,"type":"pubkeyhash","addresses":["pG5iKsGoH47xtpnBSL5nP6dyGpNUYk9Hgt"]}}],"blockhash":"62e0c73ddfc90412f92d7c018e38d4a19f56791df23e5c469782a6880ee5bbf2","confirmations":45,"blocktime":1541361184}