{"hex":"01000000204edf5b013b9d23441e979fb2b9884cc8146147a3d77b18e812e41c1591c05c3769f37dc80200000048473044022021673d41ff547fb39f58603fd9b3525082d1b2840976ac49ea10a07c794c9baf0220463b39cc8c0f6c5aa6202d087915e7550856678379ed6035b757627c1c5448c001ffffffff0400000000000000000000a2941a1d000000232103b243e492fed06b260d1c6384b7578d20f178d778b69bc3ca5028e941e4ef64acacb570951a1d000000232103b243e492fed06b260d1c6384b7578d20f178d778b69bc3ca5028e941e4ef64acac68420000000000001976a914b281632e032cac99462bf7779521442a307c52a088ac00000000","txid":"b492c61d8aa0ed7110cedbcd73687fc85b222e77ce02ea471bb20774b3137fe3","version":1,"time":1541361184,"locktime":0,"vin":[{"txid":"c87df369375cc091151ce412e8187bd7a3476114c84c88b9b29f971e44239d3b","vout":2,"scriptSig":{"asm":"3044022021673d41ff547fb39f58603fd9b3525082d1b2840976ac49ea10a07c794c9baf0220463b39cc8c0f6c5aa6202d087915e7550856678379ed6035b757627c1c5448c001","hex":"473044022021673d41ff547fb39f58603fd9b3525082d1b2840976ac49ea10a07c794c9baf0220463b39cc8c0f6c5aa6202d087915e7550856678379ed6035b757627c1c5448c001"},"sequence":4294967295}],"vout":[{"value":0,"n":0,"scriptPubKey":{"asm":"","type":"nonstandard"}},{"value":1250,"n":1,"scriptPubKey":{"asm":"03b243e492fed06b260d1c6384b7578d20f178d778b69bc3ca5028e941e4ef64ac OP_CHECKSIG","reqSigs":1,"type":"pubkey","addresses":["pU498g2Tze2KypwgCnomJXchMWH8HXyZb6"]}},{"value":1250.00052917,"n":2,"scriptPubKey":{"asm":"03b243e492fed06b260d1c6384b7578d20f178d778b69bc3ca5028e941e4ef64ac OP_CHECKSIG","reqSigs":1,"type":"pubkey","addresses":["pU498g2Tze2KypwgCnomJXchMWH8HXyZb6"]}},{"value":0.00017,"n":3,"scriptPubKey":{"asm":"OP_DUP OP_HASH160 b281632e032cac99462bf7779521442a307c52a0 OP_EQUALVERIFY OP_CHECKSIG","reqSigs":1,"type":"pubkeyhash","addresses":["pMpRUr5SqF4SLREGfNjMyHwaGCi3EHeLR1"]}}],"blockhash":"62e0c73ddfc90412f92d7c018e38d4a19f56791df23e5c469782a6880ee5bbf2","confirmations":45,"blocktime":1541361184}