{"hex":"010000007da1c25b010000000000000000000000000000000000000000000000000000000000000000ffffffff04013a0104ffffffff0100000000000000001976a914e0d3448e6526920be59fceeea8f060ef0e89db9588ac00000000","txid":"5484f282175a80ee4906142888f71561d5eb127827ee90a2e71c74ffcfdc9363","version":1,"time":1539481988,"locktime":0,"vin":[{"coinbase":"013a0104","sequence":4294967295}],"vout":[{"value":0,"n":0,"scriptPubKey":{"asm":"OP_DUP OP_HASH160 e0d3448e6526920be59fceeea8f060ef0e89db95 OP_EQUALVERIFY OP_CHECKSIG","reqSigs":1,"type":"pubkeyhash","addresses":["pS3LepV2MB3je8dw4pe7Two8PRKkBvp1j8"]}}],"blockhash":"0000049de0db025da76314202ddaa7f0f56a0730aee4ae777d63e285187711aa","confirmations":387,"blocktime":1539481988}