{"hex":"01000000ec9fc25b010000000000000000000000000000000000000000000000000000000000000000ffffffff0401190101ffffffff0100000000000000001976a91434552a2a16a72f0cb0d878fccb9212fde2368a5f88ac00000000","txid":"117a33425e0ed09a864924fe614b380f2990018fd435e044dfef1ae12bcec36b","version":1,"time":1539481580,"locktime":0,"vin":[{"coinbase":"01190101","sequence":4294967295}],"vout":[{"value":0,"n":0,"scriptPubKey":{"asm":"OP_DUP OP_HASH160 34552a2a16a72f0cb0d878fccb9212fde2368a5f OP_EQUALVERIFY OP_CHECKSIG","reqSigs":1,"type":"pubkeyhash","addresses":["pAKHN2awwdBxKCV1AJ2aR5owggDuXX67tf"]}}],"blockhash":"00000ebee3064ad1ec1a7f2236a17e995177ca3d7db3149e6e4e292770887ff1","confirmations":134,"blocktime":1539481580}