{"hex":"010000002d9ec25b010000000000000000000000000000000000000000000000000000000000000000ffffffff035a0101ffffffff0100000000000000001976a914e9b00c949c7c8f31991faec9fec3620491658e5388ac00000000","txid":"1656f36b284508986a8682bf8e0ebde95cce6c1c63c34c7858d3a3862c441863","version":1,"time":1539481133,"locktime":0,"vin":[{"coinbase":"5a0101","sequence":4294967295}],"vout":[{"value":0,"n":0,"scriptPubKey":{"asm":"OP_DUP OP_HASH160 e9b00c949c7c8f31991faec9fec3620491658e53 OP_EQUALVERIFY OP_CHECKSIG","reqSigs":1,"type":"pubkeyhash","addresses":["pSrCYWawdwV6yeXn8LBvufirsw3UaY3bjL"]}}],"blockhash":"000000e0ef91c155a7814d74cdc1bf01018741024affb5d33919ef8926d8f493","confirmations":149,"blocktime":1539481133}