{"hex":"0100000074c3e05b0190cafcc2af44d70d97d231e8c081043c81e5e71911c3ea6d18ad99b845b351e4000000006a473044022018e3c2326a969d2b124d676ae9d562ed0bff2fddf8f450f3022ac04ab6bb93e0022006d06d68c7e92c32156e402b3cc363af93a01c5e39bb485520eb28d0164cf31c012103d9b9a0507109e102aab878ca6385233b9c847235deb7d530fc6598fbed83e247ffffffff02d8960f00000000001976a914d07d3cc0093fd75d1855a66a3584dd0d44573e2988ac2d000000000000001976a91425aea9ec187256d6eaec1b56ee15ffadcdd36a0988ac00000000","txid":"04bd562f27cc7de52a43e8a5450b322aa4d16ccfd1d1031496b990aba3069708","version":1,"time":1541456768,"locktime":0,"vin":[{"txid":"e451b345b899ad186deac31119e7e5813c0481c0e831d2970dd744afc2fcca90","vout":0,"scriptSig":{"asm":"3044022018e3c2326a969d2b124d676ae9d562ed0bff2fddf8f450f3022ac04ab6bb93e0022006d06d68c7e92c32156e402b3cc363af93a01c5e39bb485520eb28d0164cf31c01 03d9b9a0507109e102aab878ca6385233b9c847235deb7d530fc6598fbed83e247","hex":"473044022018e3c2326a969d2b124d676ae9d562ed0bff2fddf8f450f3022ac04ab6bb93e0022006d06d68c7e92c32156e402b3cc363af93a01c5e39bb485520eb28d0164cf31c012103d9b9a0507109e102aab878ca6385233b9c847235deb7d530fc6598fbed83e247"},"sequence":4294967295}],"vout":[{"value":0.01021656,"n":0,"scriptPubKey":{"asm":"OP_DUP OP_HASH160 d07d3cc0093fd75d1855a66a3584dd0d44573e29 OP_EQUALVERIFY OP_CHECKSIG","reqSigs":1,"type":"pubkeyhash","addresses":["pQYxnFGTXBHWXkramZG8M6mU6UuHzwrrde"]}},{"value":4.5e-7,"n":1,"scriptPubKey":{"asm":"OP_DUP OP_HASH160 25aea9ec187256d6eaec1b56ee15ffadcdd36a09 OP_EQUALVERIFY OP_CHECKSIG","reqSigs":1,"type":"pubkeyhash","addresses":["p8ypSetGNXQeZ5Cz61ciiwjZ4rRhgweTSn"]}}],"blockhash":"0554fd98a9fde88e289116a63ba077cbd711a578f02300ca7d6665e685731e46","confirmations":5,"blocktime":1541456768}