{"hex":"0100000080c3e05b017acc7874a444a7fdad8ebcf1c25d95e372b201de03e73878c6713c51063c38e902000000484730440220273a39bd45724b0e44a3eda419b56752a686ba22db7087f418a3a44a2e76107f02201c8393ffa9368a85221957128bd22a376465f827bac1b374d85134c2f469456b01ffffffff0400000000000000000000a2941a1d000000232103c918da721a9564bfde1eb3e347ac352bf028a23eeafc2e69788601adb5b9dfabac02bc941a1d000000232103c918da721a9564bfde1eb3e347ac352bf028a23eeafc2e69788601adb5b9dfabac55000000000000001976a91466429c93e46136b2db3fe752c257b3dba5e7649c88ac00000000","txid":"36f0f60ceb6f2f0e345541d4dc169302335e48b8db48ed9551812b6545e145a8","version":1,"time":1541456768,"locktime":0,"vin":[{"txid":"e9383c06513c71c67838e703de01b272e3955dc2f1bc8eadfda744a47478cc7a","vout":2,"scriptSig":{"asm":"30440220273a39bd45724b0e44a3eda419b56752a686ba22db7087f418a3a44a2e76107f02201c8393ffa9368a85221957128bd22a376465f827bac1b374d85134c2f469456b01","hex":"4730440220273a39bd45724b0e44a3eda419b56752a686ba22db7087f418a3a44a2e76107f02201c8393ffa9368a85221957128bd22a376465f827bac1b374d85134c2f469456b01"},"sequence":4294967295}],"vout":[{"value":0,"n":0,"scriptPubKey":{"asm":"","type":"nonstandard"}},{"value":1250,"n":1,"scriptPubKey":{"asm":"03c918da721a9564bfde1eb3e347ac352bf028a23eeafc2e69788601adb5b9dfab OP_CHECKSIG","reqSigs":1,"type":"pubkey","addresses":["pK5Eddk3vr4yi7hrwuoQfuFmrHAeSuez22"]}},{"value":1250.00006658,"n":2,"scriptPubKey":{"asm":"03c918da721a9564bfde1eb3e347ac352bf028a23eeafc2e69788601adb5b9dfab OP_CHECKSIG","reqSigs":1,"type":"pubkey","addresses":["pK5Eddk3vr4yi7hrwuoQfuFmrHAeSuez22"]}},{"value":8.5e-7,"n":3,"scriptPubKey":{"asm":"OP_DUP OP_HASH160 66429c93e46136b2db3fe752c257b3dba5e7649c OP_EQUALVERIFY OP_CHECKSIG","reqSigs":1,"type":"pubkeyhash","addresses":["pEsGvXfg7BMJ91FueYCRJrpJCEzDnhWNzu"]}}],"blockhash":"0554fd98a9fde88e289116a63ba077cbd711a578f02300ca7d6665e685731e46","confirmations":5,"blocktime":1541456768}