{"hex":"0100000020f4d45b01ccae0eff5238cc79db73e043ca43cdec71e4c01efe09910acecd04b8729bc1c2010000004948304502210091beb8d7617b98d92e7b050c0f74196c2400b2ac802124dcc32d0b5ec818320d02205fd9126333543cc54e60f341da9df33d84da1546ae4c640c1064e0347010c8e501ffffffff04000000000000000000409452a3030000002321020b1cd26fc4b9f080aea1cf7b667efd5e8453f70429056589831fa7f63506ddbfac4f9452a3030000002321020b1cd26fc4b9f080aea1cf7b667efd5e8453f70429056589831fa7f63506ddbfac55000000000000001976a914a539c7c64804ba10293866c3433100eabbe41ccf88ac00000000","txid":"0209fd42e44e2db553eb49d850beb34f7350ea2efc07ded13282c14af7d064af","version":1,"time":1540682784,"locktime":0,"vin":[{"txid":"c2c19b72b804cdce0a9109fe1ec0e471eccd43ca43e073db79cc3852ff0eaecc","vout":1,"scriptSig":{"asm":"304502210091beb8d7617b98d92e7b050c0f74196c2400b2ac802124dcc32d0b5ec818320d02205fd9126333543cc54e60f341da9df33d84da1546ae4c640c1064e0347010c8e501","hex":"48304502210091beb8d7617b98d92e7b050c0f74196c2400b2ac802124dcc32d0b5ec818320d02205fd9126333543cc54e60f341da9df33d84da1546ae4c640c1064e0347010c8e501"},"sequence":4294967295}],"vout":[{"value":0,"n":0,"scriptPubKey":{"asm":"","type":"nonstandard"}},{"value":156.25,"n":1,"scriptPubKey":{"asm":"020b1cd26fc4b9f080aea1cf7b667efd5e8453f70429056589831fa7f63506ddbf OP_CHECKSIG","reqSigs":1,"type":"pubkey","addresses":["pECTDpfW4nW8hYte3f3F9ZQxwgWmBwmcYL"]}},{"value":156.25000015,"n":2,"scriptPubKey":{"asm":"020b1cd26fc4b9f080aea1cf7b667efd5e8453f70429056589831fa7f63506ddbf OP_CHECKSIG","reqSigs":1,"type":"pubkey","addresses":["pECTDpfW4nW8hYte3f3F9ZQxwgWmBwmcYL"]}},{"value":8.5e-7,"n":3,"scriptPubKey":{"asm":"OP_DUP OP_HASH160 a539c7c64804ba10293866c3433100eabbe41ccf OP_EQUALVERIFY OP_CHECKSIG","reqSigs":1,"type":"pubkeyhash","addresses":["pLcCv1RBNEWf4q17fiPMGMYqeFUvP9a826"]}}],"blockhash":"acf83919b4cc88e2471d660622d0511a42b3454e32b5c8d5738a7f18c139465e","confirmations":269,"blocktime":1540682784}