{"hex":"0100000010f4d45b0185ca3db7c2dcc5f4a1f32e4d6686151e9a397a6a5454acf40f2946ff73cfe86d000000006a47304402204840ddb013f2df2213afa16d8bb0e7f769e02fbf15b8d78bb104f16140da100302205d93b4bf6b0feed44e49fde88f832b9223010f75d2dff237f1cb4b7fdcc0fe290121029e857134122939a57279b02312e296a02bcf0cf876ddc541bd372450215dbeacffffffff024b081000000000001976a9144c28ee798243702bc4500cdb4da9004130bb47f688ac70220000000000001976a914f92731b41c749efbe6e2381d513b014e9afd2aeb88ac00000000","txid":"5bfc303ee3a9f6a1202e66fe3022d3ca949d7ba8b2a84b1d7305089f6aa311eb","version":1,"time":1540682784,"locktime":0,"vin":[{"txid":"6de8cf73ff46290ff4ac54546a7a399a1e1586664d2ef3a1f4c5dcc2b73dca85","vout":0,"scriptSig":{"asm":"304402204840ddb013f2df2213afa16d8bb0e7f769e02fbf15b8d78bb104f16140da100302205d93b4bf6b0feed44e49fde88f832b9223010f75d2dff237f1cb4b7fdcc0fe2901 029e857134122939a57279b02312e296a02bcf0cf876ddc541bd372450215dbeac","hex":"47304402204840ddb013f2df2213afa16d8bb0e7f769e02fbf15b8d78bb104f16140da100302205d93b4bf6b0feed44e49fde88f832b9223010f75d2dff237f1cb4b7fdcc0fe290121029e857134122939a57279b02312e296a02bcf0cf876ddc541bd372450215dbeac"},"sequence":4294967295}],"vout":[{"value":0.01050699,"n":0,"scriptPubKey":{"asm":"OP_DUP OP_HASH160 4c28ee798243702bc4500cdb4da9004130bb47f6 OP_EQUALVERIFY OP_CHECKSIG","reqSigs":1,"type":"pubkeyhash","addresses":["pCVGbFvFLapGyskXvwfxG2ss21bRU9FqUh"]}},{"value":0.00008816,"n":1,"scriptPubKey":{"asm":"OP_DUP OP_HASH160 f92731b41c749efbe6e2381d513b014e9afd2aeb OP_EQUALVERIFY OP_CHECKSIG","reqSigs":1,"type":"pubkeyhash","addresses":["pUFyQjELRk3wfMHQAChgZLXrXTNNZSLNb9"]}}],"blockhash":"acf83919b4cc88e2471d660622d0511a42b3454e32b5c8d5738a7f18c139465e","confirmations":269,"blocktime":1540682784}