{"hex":"01000000b03adb5b01f1eb07a555c7834d88395bec52d1cd76449a978871ef9cfb02f02273bae1bef1010000004847304402207da3ab5e326e4007fe2c615633cad1973dbba4c7cd5262d1ed89f229acf9813d02200a58c2af4d3d440f75c56f5cf87acdc61d6b0aca2d72edd67c1320df217fdfa301ffffffff0300000000000000000008f29900000000002321028cb920f59c12d79842255d22f95cb209accfa6830daca59ba39d16355b6e3cc4ac7d6e0000000000001976a9149590579f878db6722db4322a713599a3d865ecb188ac00000000","txid":"2c33bd569743fb2ef2aafaa55913b9e2df7a8ff9faa6ecaa2bfd7a98a7a5c544","version":1,"time":1541094064,"locktime":0,"vin":[{"txid":"f1bee1ba7322f002fb9cef7188979a4476cdd152ec5b39884d83c755a507ebf1","vout":1,"scriptSig":{"asm":"304402207da3ab5e326e4007fe2c615633cad1973dbba4c7cd5262d1ed89f229acf9813d02200a58c2af4d3d440f75c56f5cf87acdc61d6b0aca2d72edd67c1320df217fdfa301","hex":"47304402207da3ab5e326e4007fe2c615633cad1973dbba4c7cd5262d1ed89f229acf9813d02200a58c2af4d3d440f75c56f5cf87acdc61d6b0aca2d72edd67c1320df217fdfa301"},"sequence":4294967295}],"vout":[{"value":0,"n":0,"scriptPubKey":{"asm":"","type":"nonstandard"}},{"value":0.10088968,"n":1,"scriptPubKey":{"asm":"028cb920f59c12d79842255d22f95cb209accfa6830daca59ba39d16355b6e3cc4 OP_CHECKSIG","reqSigs":1,"type":"pubkey","addresses":["p8xHVRJ6JVee7NQuivDZCLKgwHCvMS4FJv"]}},{"value":0.00028285,"n":2,"scriptPubKey":{"asm":"OP_DUP OP_HASH160 9590579f878db6722db4322a713599a3d865ecb1 OP_EQUALVERIFY OP_CHECKSIG","reqSigs":1,"type":"pubkeyhash","addresses":["pKBPoNA3SJPY8i2H3PXAafpEbMr7NNikgL"]}}],"blockhash":"098cce9fa7fe09b3f295d5e9551a45bad8f3165d14934a14191e2b53212aeb40","confirmations":86,"blocktime":1541094064}