{"hex":"01000000ac3adb5b012c5c921b02c8356aec28a9d3bcfa272b9bab9c77f74c622466c8e550c2aec129000000006b483045022100af8ca1a250f1b6a0c95327d8e4c285ef94f6961566178b406f612b9ba7d98682022037f38d385719f6643bf27a475a8fb45f59fa2d4f6e43dcc6c4bcdef03ba3f227012102dea6cd55cde143c09e65558f62c83ffc565d2c9d7c52da30d926f06e1c3d7074ffffffff02a92d3e01000000001976a9144e9be865a46f1660c40b69683c9c848b47a1e91088ac77c7fb01000000001976a9144483fe31a0a02e43c7aa58cc5822d154d9ce814d88ac00000000","txid":"5b0d22c21da5cde7badeec97b87d100d9e66d9dc521c5633aee4334fd096c91f","version":1,"time":1541094064,"locktime":0,"vin":[{"txid":"29c1aec250e5c86624624cf7779cab9b2b27fabcd3a928ec6a35c8021b925c2c","vout":0,"scriptSig":{"asm":"3045022100af8ca1a250f1b6a0c95327d8e4c285ef94f6961566178b406f612b9ba7d98682022037f38d385719f6643bf27a475a8fb45f59fa2d4f6e43dcc6c4bcdef03ba3f22701 02dea6cd55cde143c09e65558f62c83ffc565d2c9d7c52da30d926f06e1c3d7074","hex":"483045022100af8ca1a250f1b6a0c95327d8e4c285ef94f6961566178b406f612b9ba7d98682022037f38d385719f6643bf27a475a8fb45f59fa2d4f6e43dcc6c4bcdef03ba3f227012102dea6cd55cde143c09e65558f62c83ffc565d2c9d7c52da30d926f06e1c3d7074"},"sequence":4294967295}],"vout":[{"value":0.20852137,"n":0,"scriptPubKey":{"asm":"OP_DUP OP_HASH160 4e9be865a46f1660c40b69683c9c848b47a1e910 OP_EQUALVERIFY OP_CHECKSIG","reqSigs":1,"type":"pubkeyhash","addresses":["pCiDgLDu4oaywVFUCFzwGiVR1p6t1kS3vi"]}},{"value":0.33277815,"n":1,"scriptPubKey":{"asm":"OP_DUP OP_HASH160 4483fe31a0a02e43c7aa58cc5822d154d9ce814d OP_EQUALVERIFY OP_CHECKSIG","reqSigs":1,"type":"pubkeyhash","addresses":["pBnrGnEB3UUBbDa1RQgBj873ASaqSfoFQu"]}}],"blockhash":"098cce9fa7fe09b3f295d5e9551a45bad8f3165d14934a14191e2b53212aeb40","confirmations":86,"blocktime":1541094064}