{"hex":"01000000b072dc5b011ad329f4a5e2c29ca91b5b40f75ff4e647171241ec6681f1f8c580098c9f784a0200000048473044022026707f7f10286ecb3b0872d447480da4a4536ce9eab1c9e7f03ec69627866c3a022029fa12b4330e837931d94ecc42cec7ea7da47ff1a562ce17d00eaaabca51b89501ffffffff040000000000000000000064bda30300000023210348b24f77eda58d2bf0bd56f764cfdeb0100d2f1058b2d5318f2f2fc9670e730eac4607bfa30300000023210348b24f77eda58d2bf0bd56f764cfdeb0100d2f1058b2d5318f2f2fc9670e730eacdaa10800000000001976a914256b9b540806ec78f3cbc6d37188a2e1504616e688ac00000000","txid":"08bfb2f97b555c0d0bcbe7815f662ebc814ab431cd13674a3e040164fff90a97","version":1,"time":1541173936,"locktime":0,"vin":[{"txid":"4a789f8c0980c5f8f18166ec41121747e6f45ff7405b1ba99cc2e2a5f429d31a","vout":2,"scriptSig":{"asm":"3044022026707f7f10286ecb3b0872d447480da4a4536ce9eab1c9e7f03ec69627866c3a022029fa12b4330e837931d94ecc42cec7ea7da47ff1a562ce17d00eaaabca51b89501","hex":"473044022026707f7f10286ecb3b0872d447480da4a4536ce9eab1c9e7f03ec69627866c3a022029fa12b4330e837931d94ecc42cec7ea7da47ff1a562ce17d00eaaabca51b89501"},"sequence":4294967295}],"vout":[{"value":0,"n":0,"scriptPubKey":{"asm":"","type":"nonstandard"}},{"value":156.32,"n":1,"scriptPubKey":{"asm":"0348b24f77eda58d2bf0bd56f764cfdeb0100d2f1058b2d5318f2f2fc9670e730e OP_CHECKSIG","reqSigs":1,"type":"pubkey","addresses":["p8X7huKtvdnnDzc17Xcxxh1Z9ww8ckxvVJ"]}},{"value":156.32107334,"n":2,"scriptPubKey":{"asm":"0348b24f77eda58d2bf0bd56f764cfdeb0100d2f1058b2d5318f2f2fc9670e730e OP_CHECKSIG","reqSigs":1,"type":"pubkey","addresses":["p8X7huKtvdnnDzc17Xcxxh1Z9ww8ckxvVJ"]}},{"value":0.00565722,"n":3,"scriptPubKey":{"asm":"OP_DUP OP_HASH160 256b9b540806ec78f3cbc6d37188a2e1504616e6 OP_EQUALVERIFY OP_CHECKSIG","reqSigs":1,"type":"pubkeyhash","addresses":["p8xS7T8mkTz7MJV9EcYkBri1Zi12wCV83N"]}}],"blockhash":"9488263e57fe3c2ec4db9292a55b584b1179c13f4e4eaed37c8fbc6686a68b63","confirmations":71,"blocktime":1541173936}