{"hex":"01000000a172dc5b01c1b146ece0db01df2fb9d7d4a30ab43f7a8a40fa60d92db01301b11cd47a5f73010000006a47304402207d016962042c6d78b2025c032433d0439cc979e165db56f2bfaa6622962a2776022013b6004f0a5e51c3d91aef595b2a078b2cec8ad1d2d3e36e5329e783d340df6e012102d7a978f15372acba1f45778bb0b619393f7ebe327756527210fb450550f13ca6ffffffff02b3e48205000000001976a914dcb31a4fe6609c7215a95d84819ec6fc5b6ed3e288ac4895ab27000000001976a914f63bff727c1ab51d01f38586191dd817c2ced9d388ac00000000","txid":"3307df35b3b9133273dfe4864b3f1c60d8ace0f303287e5390c02d4a3d732f72","version":1,"time":1541173936,"locktime":0,"vin":[{"txid":"735f7ad41cb10113b02dd960fa408a7a3fb40aa3d4d7b92fdf01dbe0ec46b1c1","vout":1,"scriptSig":{"asm":"304402207d016962042c6d78b2025c032433d0439cc979e165db56f2bfaa6622962a2776022013b6004f0a5e51c3d91aef595b2a078b2cec8ad1d2d3e36e5329e783d340df6e01 02d7a978f15372acba1f45778bb0b619393f7ebe327756527210fb450550f13ca6","hex":"47304402207d016962042c6d78b2025c032433d0439cc979e165db56f2bfaa6622962a2776022013b6004f0a5e51c3d91aef595b2a078b2cec8ad1d2d3e36e5329e783d340df6e012102d7a978f15372acba1f45778bb0b619393f7ebe327756527210fb450550f13ca6"},"sequence":4294967295}],"vout":[{"value":0.92464307,"n":0,"scriptPubKey":{"asm":"OP_DUP OP_HASH160 dcb31a4fe6609c7215a95d84819ec6fc5b6ed3e2 OP_EQUALVERIFY OP_CHECKSIG","reqSigs":1,"type":"pubkeyhash","addresses":["pRfXRBqaeT3USyCs4YdnbXGSBCbSDetXbY"]}},{"value":6.65556296,"n":1,"scriptPubKey":{"asm":"OP_DUP OP_HASH160 f63bff727c1ab51d01f38586191dd817c2ced9d3 OP_EQUALVERIFY OP_CHECKSIG","reqSigs":1,"type":"pubkeyhash","addresses":["pTzYJcrAXSvF5UhmxarCrgKtTGHKmQeU1H"]}}],"blockhash":"9488263e57fe3c2ec4db9292a55b584b1179c13f4e4eaed37c8fbc6686a68b63","confirmations":71,"blocktime":1541173936}