{"hex":"0100000023cfd65b029a6abcab1b22cb047b1dd4a48793bd5496e23c66fc017a70dc482d3eb1dbc4fe000000006b483045022100fbc37a1cf823241866d70641b249937c70bcc28c95d11ab8b4cfb5308cd33d3802201228b775d5807fd0dfd5a48e3d29d416b22e6ff57cc62718f2b8fa1ae88ff1d40121029e857134122939a57279b02312e296a02bcf0cf876ddc541bd372450215dbeacffffffff9a6abcab1b22cb047b1dd4a48793bd5496e23c66fc017a70dc482d3eb1dbc4fe010000006a47304402207495bdc19710bc7421c28822a46df1eaa00eda74a38becb1eaff08cb309ee1f202206dc3730b7e39ba9e1a321b4504510624a56c255bce54bb56819e1c7e8de80102012103063e8c0f7e602d912e44ba10ba5e513da84bad305420b91e73663e4d7c5a2853ffffffff02281e1200000000001976a9144c28ee798243702bc4500cdb4da9004130bb47f688acccd01000000000001976a914436ebf1e3707dd639bd2e98f385b6681d6b3275f88ac00000000","txid":"a95c3572e62207bc3644604a508e0af5f570945d725720d32dca03e9038c6a8a","version":1,"time":1540804400,"locktime":0,"vin":[{"txid":"fec4dbb13e2d48dc707a01fc663ce29654bd9387a4d41d7b04cb221babbc6a9a","vout":0,"scriptSig":{"asm":"3045022100fbc37a1cf823241866d70641b249937c70bcc28c95d11ab8b4cfb5308cd33d3802201228b775d5807fd0dfd5a48e3d29d416b22e6ff57cc62718f2b8fa1ae88ff1d401 029e857134122939a57279b02312e296a02bcf0cf876ddc541bd372450215dbeac","hex":"483045022100fbc37a1cf823241866d70641b249937c70bcc28c95d11ab8b4cfb5308cd33d3802201228b775d5807fd0dfd5a48e3d29d416b22e6ff57cc62718f2b8fa1ae88ff1d40121029e857134122939a57279b02312e296a02bcf0cf876ddc541bd372450215dbeac"},"sequence":4294967295},{"txid":"fec4dbb13e2d48dc707a01fc663ce29654bd9387a4d41d7b04cb221babbc6a9a","vout":1,"scriptSig":{"asm":"304402207495bdc19710bc7421c28822a46df1eaa00eda74a38becb1eaff08cb309ee1f202206dc3730b7e39ba9e1a321b4504510624a56c255bce54bb56819e1c7e8de8010201 03063e8c0f7e602d912e44ba10ba5e513da84bad305420b91e73663e4d7c5a2853","hex":"47304402207495bdc19710bc7421c28822a46df1eaa00eda74a38becb1eaff08cb309ee1f202206dc3730b7e39ba9e1a321b4504510624a56c255bce54bb56819e1c7e8de80102012103063e8c0f7e602d912e44ba10ba5e513da84bad305420b91e73663e4d7c5a2853"},"sequence":4294967295}],"vout":[{"value":0.01187368,"n":0,"scriptPubKey":{"asm":"OP_DUP OP_HASH160 4c28ee798243702bc4500cdb4da9004130bb47f6 OP_EQUALVERIFY OP_CHECKSIG","reqSigs":1,"type":"pubkeyhash","addresses":["pCVGbFvFLapGyskXvwfxG2ss21bRU9FqUh"]}},{"value":0.01102028,"n":1,"scriptPubKey":{"asm":"OP_DUP OP_HASH160 436ebf1e3707dd639bd2e98f385b6681d6b3275f OP_EQUALVERIFY OP_CHECKSIG","reqSigs":1,"type":"pubkeyhash","addresses":["pBh89N3moWneTK1bV6wHiWp6PC8zudLQNz"]}}],"blockhash":"1b9767a25e542c70c83440c0c2395715a0c3c8aed43d1a8c59701823be95db64","confirmations":208,"blocktime":1540804400}