{"hex":"0100000030cfd65b0172a61b6d99b37cc281a91146860be5049e4e16ca45931fafb51e07dae016f85f0200000049483045022100d0ffa247f8d234120eeda14f03067b2c7d4b52e18525deaabd316f7ea25a4eff02203bd22488c602b6be3789abf3f0f6a2de906ab3d6db70c1ace361c003777b0b2201ffffffff0400000000000000000000a9a1d1010000002321020b1cd26fc4b9f080aea1cf7b667efd5e8453f70429056589831fa7f63506ddbfac04ecb0d1010000002321020b1cd26fc4b9f080aea1cf7b667efd5e8453f70429056589831fa7f63506ddbfaca8030000000000001976a91422d06420236528fe42b5c2302e36704d85b646de88ac00000000","txid":"f612a9d34ff4d05a045a11613c0492596d35c1ec7752f64e4b310b1a3e098c97","version":1,"time":1540804400,"locktime":0,"vin":[{"txid":"5ff816e0da071eb5af1f9345ca164e9e04e50b864611a981c27cb3996d1ba672","vout":2,"scriptSig":{"asm":"3045022100d0ffa247f8d234120eeda14f03067b2c7d4b52e18525deaabd316f7ea25a4eff02203bd22488c602b6be3789abf3f0f6a2de906ab3d6db70c1ace361c003777b0b2201","hex":"483045022100d0ffa247f8d234120eeda14f03067b2c7d4b52e18525deaabd316f7ea25a4eff02203bd22488c602b6be3789abf3f0f6a2de906ab3d6db70c1ace361c003777b0b2201"},"sequence":4294967295}],"vout":[{"value":0,"n":0,"scriptPubKey":{"asm":"","type":"nonstandard"}},{"value":78.12,"n":1,"scriptPubKey":{"asm":"020b1cd26fc4b9f080aea1cf7b667efd5e8453f70429056589831fa7f63506ddbf OP_CHECKSIG","reqSigs":1,"type":"pubkey","addresses":["pECTDpfW4nW8hYte3f3F9ZQxwgWmBwmcYL"]}},{"value":78.13000196,"n":2,"scriptPubKey":{"asm":"020b1cd26fc4b9f080aea1cf7b667efd5e8453f70429056589831fa7f63506ddbf OP_CHECKSIG","reqSigs":1,"type":"pubkey","addresses":["pECTDpfW4nW8hYte3f3F9ZQxwgWmBwmcYL"]}},{"value":0.00000936,"n":3,"scriptPubKey":{"asm":"OP_DUP OP_HASH160 22d06420236528fe42b5c2302e36704d85b646de OP_EQUALVERIFY OP_CHECKSIG","reqSigs":1,"type":"pubkeyhash","addresses":["p8iepVjrqbjo1uNb8dyXKBBerSUv6zrPfw"]}}],"blockhash":"1b9767a25e542c70c83440c0c2395715a0c3c8aed43d1a8c59701823be95db64","confirmations":208,"blocktime":1540804400}