{"hex":"01000000e366c35b019fd024d1e944343b3721bf118aeae0ef667bf221edb58afb3c2820dc2e1ec216000000006a47304402201ded78653692a26aab2c7bc3922425c0ccad374964aa7358b2f3b9c923a624ac02202d8b34821a2184ed4f9fe93afe5718d26b8b336d562761c840a9a9d16ab87a790121029dfbdaa645ff7fca54bb467cdbcdeb68fa5f67bd426d6f82a8e4525ca3a024c3ffffffff02004ec0581d7623001976a914f41ca053c8aac756a92d3cfe95a332ec77b05cf988ac0088526a740000001976a9145eeafc4f9a587560449f79f9619843f8bff8757c88ac00000000","txid":"6e766011c4cecc3bdbd5221a7b7c1dd469c143e7c50567705724f9bd871d8122","version":1,"time":1539532528,"locktime":0,"vin":[{"txid":"16c21e2edc20283cfb8ab5ed21f27b66efe0ea8a11bf21373b3444e9d124d09f","vout":0,"scriptSig":{"asm":"304402201ded78653692a26aab2c7bc3922425c0ccad374964aa7358b2f3b9c923a624ac02202d8b34821a2184ed4f9fe93afe5718d26b8b336d562761c840a9a9d16ab87a7901 029dfbdaa645ff7fca54bb467cdbcdeb68fa5f67bd426d6f82a8e4525ca3a024c3","hex":"47304402201ded78653692a26aab2c7bc3922425c0ccad374964aa7358b2f3b9c923a624ac02202d8b34821a2184ed4f9fe93afe5718d26b8b336d562761c840a9a9d16ab87a790121029dfbdaa645ff7fca54bb467cdbcdeb68fa5f67bd426d6f82a8e4525ca3a024c3"},"sequence":4294967295}],"vout":[{"value":99814926,"n":0,"scriptPubKey":{"asm":"OP_DUP OP_HASH160 f41ca053c8aac756a92d3cfe95a332ec77b05cf9 OP_EQUALVERIFY OP_CHECKSIG","reqSigs":1,"type":"pubkeyhash","addresses":["pToKNW1A71Vdm3afWS3CSc3f3E3d2LvrrP"]}},{"value":5000,"n":1,"scriptPubKey":{"asm":"OP_DUP OP_HASH160 5eeafc4f9a587560449f79f9619843f8bff8757c OP_EQUALVERIFY OP_CHECKSIG","reqSigs":1,"type":"pubkeyhash","addresses":["pECTDpfW4nW8hYte3f3F9ZQxwgWmBwmcYL"]}}],"blockhash":"38cdcf6a493c662c386a59c1f5ddc2cfd8db5746f5b298f37b078ce5a41dff67","confirmations":25,"blocktime":1539532528}