{"hex":"01000000f066c35b01cceba1b15041752951e1fe5fd6c66fe0b5482392cf1143c525adc97a8d44a76d0100000049483045022100ffeb5ebbed1a38db03a1dbc0bdf0fc282365011ea0b546a742cc4c28e0e3d41f0220486bdf1bc600bff3877c34d51308aadb8b7fd7d2e03ff41d9444acbbfe24594301ffffffff0300000000000000000000db7d2e000000002321037e20b6f9df2b1191d7e929adc4ec86bb0a3b438e7822a1a46cd9d0caef60b746ac80fe210a000000001976a91466429c93e46136b2db3fe752c257b3dba5e7649c88ac00000000","txid":"b45dfdb3ff4141937874a435fa8a1c8a3ba5ff9dff28141aff494d0ebe4d3465","version":1,"time":1539532528,"locktime":0,"vin":[{"txid":"6da7448d7ac9ad25c54311cf922348b5e06fc6d65ffee15129754150b1a1ebcc","vout":1,"scriptSig":{"asm":"3045022100ffeb5ebbed1a38db03a1dbc0bdf0fc282365011ea0b546a742cc4c28e0e3d41f0220486bdf1bc600bff3877c34d51308aadb8b7fd7d2e03ff41d9444acbbfe24594301","hex":"483045022100ffeb5ebbed1a38db03a1dbc0bdf0fc282365011ea0b546a742cc4c28e0e3d41f0220486bdf1bc600bff3877c34d51308aadb8b7fd7d2e03ff41d9444acbbfe24594301"},"sequence":4294967295}],"vout":[{"value":0,"n":0,"scriptPubKey":{"asm":"","type":"nonstandard"}},{"value":7.8,"n":1,"scriptPubKey":{"asm":"037e20b6f9df2b1191d7e929adc4ec86bb0a3b438e7822a1a46cd9d0caef60b746 OP_CHECKSIG","reqSigs":1,"type":"pubkey","addresses":["p6vr35KwzEodbGx2Tqp8uLkcMLPNmxZhJS"]}},{"value":1.7,"n":2,"scriptPubKey":{"asm":"OP_DUP OP_HASH160 66429c93e46136b2db3fe752c257b3dba5e7649c OP_EQUALVERIFY OP_CHECKSIG","reqSigs":1,"type":"pubkeyhash","addresses":["pEsGvXfg7BMJ91FueYCRJrpJCEzDnhWNzu"]}}],"blockhash":"38cdcf6a493c662c386a59c1f5ddc2cfd8db5746f5b298f37b078ce5a41dff67","confirmations":25,"blocktime":1539532528}