{"hex":"010000006132db5b01d3ea43bb1ba96885ea06e9b2f2f9219196ae37c52ab4a0bf97c117bbf5c5be84010000006a47304402204276bc17667422deb851c1a6937a55a3435a4264fa9b550469bcbb9569465eeb0220067c8f7ae8e92d5fb97fe24b99636c15ccfce3d5adcecf85b71b9021c743c4e101210320440c2e07ebc6f3322ef32684eec8f56757ab29d352e8a7c8af76451b43d552ffffffff020463de0d000000001976a9147d10f33a336e868bde16d686a810ad144b777e6d88ac00e1f505000000001976a9142191e4d1778d3ffc9a3e913d4d5a99ddae6beaf488ac00000000","txid":"124d4666fb4cc67894a24f04d38f3c9241555add3813afda22babd7380d162cd","version":1,"time":1541091952,"locktime":0,"vin":[{"txid":"84bec5f5bb17c197bfa0b42ac537ae969121f9f2b2e906ea8568a91bbb43ead3","vout":1,"scriptSig":{"asm":"304402204276bc17667422deb851c1a6937a55a3435a4264fa9b550469bcbb9569465eeb0220067c8f7ae8e92d5fb97fe24b99636c15ccfce3d5adcecf85b71b9021c743c4e101 0320440c2e07ebc6f3322ef32684eec8f56757ab29d352e8a7c8af76451b43d552","hex":"47304402204276bc17667422deb851c1a6937a55a3435a4264fa9b550469bcbb9569465eeb0220067c8f7ae8e92d5fb97fe24b99636c15ccfce3d5adcecf85b71b9021c743c4e101210320440c2e07ebc6f3322ef32684eec8f56757ab29d352e8a7c8af76451b43d552"},"sequence":4294967295}],"vout":[{"value":2.32678148,"n":0,"scriptPubKey":{"asm":"OP_DUP OP_HASH160 7d10f33a336e868bde16d686a810ad144b777e6d OP_EQUALVERIFY OP_CHECKSIG","reqSigs":1,"type":"pubkeyhash","addresses":["pGwryQ4XbTcT2qEAZV4QeFuErqJzTjs46v"]}},{"value":1,"n":1,"scriptPubKey":{"asm":"OP_DUP OP_HASH160 2191e4d1778d3ffc9a3e913d4d5a99ddae6beaf4 OP_EQUALVERIFY OP_CHECKSIG","reqSigs":1,"type":"pubkeyhash","addresses":["p8c5Gv6tFQQAan2GBS6gCjTAyKRGaERTf1"]}}],"blockhash":"f9926d5f6d440db6254c676b26f23db86c7de730bb4a99052cac5d4c6c6cf623","confirmations":94,"blocktime":1541091952}