{"hex":"010000007032db5b011bb1b42604d85ecfc5f5e903c1a76755e875563cc27ce7790a4b1d40c89b3ac90200000049483045022100f731213df0b686e9859ad6f64c8be886c55fc3dbba72712a2630f825d34336e902201dcc90cd5be68e4a500e417a2ed597a7f95bd22b1cd5dfbefd790605bf4e1fed01ffffffff030000000000000000002035b1d1010000002321020b1cd26fc4b9f080aea1cf7b667efd5e8453f70429056589831fa7f63506ddbfac084c0100000000001976a91413cd926daa0b2e1422cabca27e3cbc3aebbee60e88ac00000000","txid":"3c6e7e035f2576bb30d69d97fa67b3c15d335d10e295fdc6dea85b3d83864b88","version":1,"time":1541091952,"locktime":0,"vin":[{"txid":"c93a9bc8401d4b0a79e77cc23c5675e85567a7c103e9f5c5cf5ed80426b4b11b","vout":2,"scriptSig":{"asm":"3045022100f731213df0b686e9859ad6f64c8be886c55fc3dbba72712a2630f825d34336e902201dcc90cd5be68e4a500e417a2ed597a7f95bd22b1cd5dfbefd790605bf4e1fed01","hex":"483045022100f731213df0b686e9859ad6f64c8be886c55fc3dbba72712a2630f825d34336e902201dcc90cd5be68e4a500e417a2ed597a7f95bd22b1cd5dfbefd790605bf4e1fed01"},"sequence":4294967295}],"vout":[{"value":0,"n":0,"scriptPubKey":{"asm":"","type":"nonstandard"}},{"value":78.13018912,"n":1,"scriptPubKey":{"asm":"020b1cd26fc4b9f080aea1cf7b667efd5e8453f70429056589831fa7f63506ddbf OP_CHECKSIG","reqSigs":1,"type":"pubkey","addresses":["pECTDpfW4nW8hYte3f3F9ZQxwgWmBwmcYL"]}},{"value":0.00085,"n":2,"scriptPubKey":{"asm":"OP_DUP OP_HASH160 13cd926daa0b2e1422cabca27e3cbc3aebbee60e OP_EQUALVERIFY OP_CHECKSIG","reqSigs":1,"type":"pubkeyhash","addresses":["p7MHJk1NCoVwVPjx7mEGWrpeSkLSYSZyuV"]}}],"blockhash":"f9926d5f6d440db6254c676b26f23db86c7de730bb4a99052cac5d4c6c6cf623","confirmations":94,"blocktime":1541091952}