{"hex":"010000007df3d45b02975579979b4f137f35c6aa5e8727101cb12966ebaea4c2f2d474ac89f61b8c78010000006b483045022100a530e44a6f3ed8e1a7f3cfa7998b64e297e3866e2f90cd3d3799a06613bcd8f002201d861e8cc72427b99b74d70d2803f2415eaf33c0485a9e0a7216553a8546044e01210327b54b594f4c02cbf71e1c57e7cf6755ab33f8bfa835b226c08b49e5f507c103ffffffff7ac9e39efe07b83b072d47afaab250ea0fdb6be49a4c472845169caf89afafa2010000006b4830450221009453ecfa2a5bc865da56046f821d189145be8e029ca1ad5589f5c38b2c6c41140220720e295f69853ad738d63c73b0658fc2e2122361ab314f575bebf1c127287c2801210350ff3a46c4019dbe994e5d36c0ec6134229ee74a6db39f0190af226f12ad2daaffffffff021f2b1000000000001976a9144c28ee798243702bc4500cdb4da9004130bb47f688acbf090400000000001976a91477deacf5c7006fb2f5344516a0784d4cb18a4d7488ac00000000","txid":"6de8cf73ff46290ff4ac54546a7a399a1e1586664d2ef3a1f4c5dcc2b73dca85","version":1,"time":1540682624,"locktime":0,"vin":[{"txid":"788c1bf689ac74d4f2c2a4aeeb6629b11c1027875eaac6357f134f9b97795597","vout":1,"scriptSig":{"asm":"3045022100a530e44a6f3ed8e1a7f3cfa7998b64e297e3866e2f90cd3d3799a06613bcd8f002201d861e8cc72427b99b74d70d2803f2415eaf33c0485a9e0a7216553a8546044e01 0327b54b594f4c02cbf71e1c57e7cf6755ab33f8bfa835b226c08b49e5f507c103","hex":"483045022100a530e44a6f3ed8e1a7f3cfa7998b64e297e3866e2f90cd3d3799a06613bcd8f002201d861e8cc72427b99b74d70d2803f2415eaf33c0485a9e0a7216553a8546044e01210327b54b594f4c02cbf71e1c57e7cf6755ab33f8bfa835b226c08b49e5f507c103"},"sequence":4294967295},{"txid":"a2afaf89af9c164528474c9ae46bdb0fea50b2aaaf472d073bb807fe9ee3c97a","vout":1,"scriptSig":{"asm":"30450221009453ecfa2a5bc865da56046f821d189145be8e029ca1ad5589f5c38b2c6c41140220720e295f69853ad738d63c73b0658fc2e2122361ab314f575bebf1c127287c2801 0350ff3a46c4019dbe994e5d36c0ec6134229ee74a6db39f0190af226f12ad2daa","hex":"4830450221009453ecfa2a5bc865da56046f821d189145be8e029ca1ad5589f5c38b2c6c41140220720e295f69853ad738d63c73b0658fc2e2122361ab314f575bebf1c127287c2801210350ff3a46c4019dbe994e5d36c0ec6134229ee74a6db39f0190af226f12ad2daa"},"sequence":4294967295}],"vout":[{"value":0.01059615,"n":0,"scriptPubKey":{"asm":"OP_DUP OP_HASH160 4c28ee798243702bc4500cdb4da9004130bb47f6 OP_EQUALVERIFY OP_CHECKSIG","reqSigs":1,"type":"pubkeyhash","addresses":["pCVGbFvFLapGyskXvwfxG2ss21bRU9FqUh"]}},{"value":0.00264639,"n":1,"scriptPubKey":{"asm":"OP_DUP OP_HASH160 77deacf5c7006fb2f5344516a0784d4cb18a4d74 OP_EQUALVERIFY OP_CHECKSIG","reqSigs":1,"type":"pubkeyhash","addresses":["pGUPNJmAHBr2gDnvAGowJW1qtc9vQXTVWE"]}}],"blockhash":"a41b11047fb826e2e1859a280df4341e0cccfa48bec95c5e052a4bbf4893b5d3","confirmations":270,"blocktime":1540682624}