{"hex":"0100000080f3d45b01d12a8294b2416b767a05dd84b8ce422b3cb695f768c43561777de114f13814290200000048473044022053cef7747710244cc670482e726a417774784a76a87093fcf328de9d573a897902204219d47080fc38ba9adb5ce2c7161d95a142604c758ba7071295d45f65dd539501ffffffff04000000000000000000409452a3030000002321020b1cd26fc4b9f080aea1cf7b667efd5e8453f70429056589831fa7f63506ddbfac779452a3030000002321020b1cd26fc4b9f080aea1cf7b667efd5e8453f70429056589831fa7f63506ddbface0000000000000001976a914f0371486e89ca3a2057c60329aff065cd986aee188ac00000000","txid":"d18e979e8db8252050544737a2f944a8b5f6da15d2f0841b7b3c625d4b3eed22","version":1,"time":1540682624,"locktime":0,"vin":[{"txid":"291438f114e17d776135c468f795b63c2b42ceb884dd057a766b41b294822ad1","vout":2,"scriptSig":{"asm":"3044022053cef7747710244cc670482e726a417774784a76a87093fcf328de9d573a897902204219d47080fc38ba9adb5ce2c7161d95a142604c758ba7071295d45f65dd539501","hex":"473044022053cef7747710244cc670482e726a417774784a76a87093fcf328de9d573a897902204219d47080fc38ba9adb5ce2c7161d95a142604c758ba7071295d45f65dd539501"},"sequence":4294967295}],"vout":[{"value":0,"n":0,"scriptPubKey":{"asm":"","type":"nonstandard"}},{"value":156.25,"n":1,"scriptPubKey":{"asm":"020b1cd26fc4b9f080aea1cf7b667efd5e8453f70429056589831fa7f63506ddbf OP_CHECKSIG","reqSigs":1,"type":"pubkey","addresses":["pECTDpfW4nW8hYte3f3F9ZQxwgWmBwmcYL"]}},{"value":156.25000055,"n":2,"scriptPubKey":{"asm":"020b1cd26fc4b9f080aea1cf7b667efd5e8453f70429056589831fa7f63506ddbf OP_CHECKSIG","reqSigs":1,"type":"pubkey","addresses":["pECTDpfW4nW8hYte3f3F9ZQxwgWmBwmcYL"]}},{"value":0.00000224,"n":3,"scriptPubKey":{"asm":"OP_DUP OP_HASH160 f0371486e89ca3a2057c60329aff065cd986aee1 OP_EQUALVERIFY OP_CHECKSIG","reqSigs":1,"type":"pubkeyhash","addresses":["pTSiMnNaB4wjS22bEGEEkNcu17kmCfBCLj"]}}],"blockhash":"a41b11047fb826e2e1859a280df4341e0cccfa48bec95c5e052a4bbf4893b5d3","confirmations":270,"blocktime":1540682624}