{"hex":"0100000089a3c25b01d508556638d3cfb740db928bee166097c3f3003c4cd6bcaf53ae88013a427645000000006a473044022048386acc6f897ce1063bd8a68042120db42b80f94d67e8769993179fb1d16e6402201cb38e414c84b85b0bff842bd84a1e35fd4eb83d92da63acd7683c88f7c62bae012102199122c472f98f2723d6628648d99fd42e125785772c2f171f1600188a39e208ffffffff0200b0cebd4e8323001976a91447d6579db852f695b82148343aee3390daf2a1c088ac0088526a740000001976a914f6ea51b1cf22773ff3c68e8299209dc9d69d593f88ac00000000","txid":"b56e5857983043c6d0c1ed4c768448cf496fd0ce82df8339d5c647e79d5fdcf1","version":1,"time":1539482512,"locktime":0,"vin":[{"txid":"4576423a0188ae53afbcd64c3c00f3c3976016ee8b92db40b7cfd338665508d5","vout":0,"scriptSig":{"asm":"3044022048386acc6f897ce1063bd8a68042120db42b80f94d67e8769993179fb1d16e6402201cb38e414c84b85b0bff842bd84a1e35fd4eb83d92da63acd7683c88f7c62bae01 02199122c472f98f2723d6628648d99fd42e125785772c2f171f1600188a39e208","hex":"473044022048386acc6f897ce1063bd8a68042120db42b80f94d67e8769993179fb1d16e6402201cb38e414c84b85b0bff842bd84a1e35fd4eb83d92da63acd7683c88f7c62bae012102199122c472f98f2723d6628648d99fd42e125785772c2f171f1600188a39e208"},"sequence":4294967295}],"vout":[{"value":99959984,"n":0,"scriptPubKey":{"asm":"OP_DUP OP_HASH160 47d6579db852f695b82148343aee3390daf2a1c0 OP_EQUALVERIFY OP_CHECKSIG","reqSigs":1,"type":"pubkeyhash","addresses":["pC6Qx5x4GAU3JxFKBMQNmqGsp164Ck9fJ2"]}},{"value":5000,"n":1,"scriptPubKey":{"asm":"OP_DUP OP_HASH160 f6ea51b1cf22773ff3c68e8299209dc9d69d593f OP_EQUALVERIFY OP_CHECKSIG","reqSigs":1,"type":"pubkeyhash","addresses":["pU498g2Tze2KypwgCnomJXchMWH8HXyZb6"]}}],"blockhash":"5761a384b1247db973ec7c9f79877cdaf5eb98f0f9c03ae4496ca0b96e576a28","confirmations":54,"blocktime":1539482512}