{"hex":"0100000090a3c25b013a9ab4a5ed4f2b43339592c4bacec67d5d8eafeb34fda0a739227a05f4991688010000004847304402206605154d744035b20cd96a12501bcfb3bd54070cd24c167945e4f7f7219106e602205cbe32cc10184d6bb1592d0e64dd9275105426aa0a10a4d3200943aa066e45e401ffffffff020000000000000000000008af2f00000000232102f3989f15f82309adefe5e4f6bf746db84b8df805e22eecc7bd374f31e8daa38aac00000000","txid":"e7229745906212e3e930e9f857ee2bfbd99de3e9640bf23c38d297805a5ea83e","version":1,"time":1539482512,"locktime":0,"vin":[{"txid":"881699f4057a2239a7a0fd34ebaf8e5d7dc6cebac4929533432b4feda5b49a3a","vout":1,"scriptSig":{"asm":"304402206605154d744035b20cd96a12501bcfb3bd54070cd24c167945e4f7f7219106e602205cbe32cc10184d6bb1592d0e64dd9275105426aa0a10a4d3200943aa066e45e401","hex":"47304402206605154d744035b20cd96a12501bcfb3bd54070cd24c167945e4f7f7219106e602205cbe32cc10184d6bb1592d0e64dd9275105426aa0a10a4d3200943aa066e45e401"},"sequence":4294967295}],"vout":[{"value":0,"n":0,"scriptPubKey":{"asm":"","type":"nonstandard"}},{"value":8,"n":1,"scriptPubKey":{"asm":"02f3989f15f82309adefe5e4f6bf746db84b8df805e22eecc7bd374f31e8daa38a OP_CHECKSIG","reqSigs":1,"type":"pubkey","addresses":["pS6kv8sUdNg7tBDNfNMnPMqsD2dQR4HfTQ"]}}],"blockhash":"5761a384b1247db973ec7c9f79877cdaf5eb98f0f9c03ae4496ca0b96e576a28","confirmations":54,"blocktime":1539482512}