{"hex":"0100000062a2c25b010000000000000000000000000000000000000000000000000000000000000000ffffffff0401550101ffffffff0100000000000000001976a914ee29d5bc9982ba444a19b5329ce00906ce837eb688ac00000000","txid":"b0c63d158340a27b83f39eace2da2e9c2fc410bff58f1e5eb53b76b826d4692e","version":1,"time":1539482210,"locktime":0,"vin":[{"coinbase":"01550101","sequence":4294967295}],"vout":[{"value":0,"n":0,"scriptPubKey":{"asm":"OP_DUP OP_HASH160 ee29d5bc9982ba444a19b5329ce00906ce837eb6 OP_EQUALVERIFY OP_CHECKSIG","reqSigs":1,"type":"pubkeyhash","addresses":["pTFs96r7vAKhaQ71UPGoVk1F6CCRXHP8NH"]}}],"blockhash":"00000a65261c65700777d3b962ad9463d31116b552cffb2eb05dfa9ab7141c69","confirmations":74,"blocktime":1539482210}