{"hex":"01000000b0a6c25b018f2edde5c5fba8784c4f1a2daf99402969d9aeff3e2fb50ad357c392692954590100000049483045022100cafa0da8b094705dade0abe2515e4b19d8a2c7599f7d1be5c63f68b6a59eee26022075f4bd9cbff185b07c7f80fe32f12dc232cfbba69f115bb2d8d41e0818f0124101ffffffff0300000000000000000080098d25000000002321037e20b6f9df2b1191d7e929adc4ec86bb0a3b438e7822a1a46cd9d0caef60b746ac80fe210a000000001976a9148e3f6e3d2f029829ca356517f18e326c94cd54cd88ac00000000","txid":"4aed9e14685fd72eda51e4e407d2522938b695a3fdd211a3f4ffc12ac08e8faa","version":1,"time":1539483312,"locktime":0,"vin":[{"txid":"5954296992c357d30ab52f3effaed969294099af2d1a4f4c78a8fbc5e5dd2e8f","vout":1,"scriptSig":{"asm":"3045022100cafa0da8b094705dade0abe2515e4b19d8a2c7599f7d1be5c63f68b6a59eee26022075f4bd9cbff185b07c7f80fe32f12dc232cfbba69f115bb2d8d41e0818f0124101","hex":"483045022100cafa0da8b094705dade0abe2515e4b19d8a2c7599f7d1be5c63f68b6a59eee26022075f4bd9cbff185b07c7f80fe32f12dc232cfbba69f115bb2d8d41e0818f0124101"},"sequence":4294967295}],"vout":[{"value":0,"n":0,"scriptPubKey":{"asm":"","type":"nonstandard"}},{"value":6.3,"n":1,"scriptPubKey":{"asm":"037e20b6f9df2b1191d7e929adc4ec86bb0a3b438e7822a1a46cd9d0caef60b746 OP_CHECKSIG","reqSigs":1,"type":"pubkey","addresses":["p6vr35KwzEodbGx2Tqp8uLkcMLPNmxZhJS"]}},{"value":1.7,"n":2,"scriptPubKey":{"asm":"OP_DUP OP_HASH160 8e3f6e3d2f029829ca356517f18e326c94cd54cd OP_EQUALVERIFY OP_CHECKSIG","reqSigs":1,"type":"pubkeyhash","addresses":["pJWi9BXT9hsVaAft92RNcufBy1LZGU4RtT"]}}],"blockhash":"024a4e112f441df5e9e4cd5351c90d4556f93ba8a184b9a101fef0337f5b2628","confirmations":53,"blocktime":1539483312}