{"hex":"01000000afa6c25b01f1dc5f9de747c6d53983df82ced06f49cf4884764cedc1d0c643309857586eb5000000006a473044022022b21036cd30515a79bbed2be10446355ee29eb09358b2f2db84cb90f7b9ed7402205efe85dbeed72ef9dfe1d4469f40708636643df9ab49632458e1549e5ee8607f01210212119cc26c65405a541cd7737d0f723190864824de5496940aecfa9270e45f5bffffffff0200669047da8223001976a914e585eedb6ca6fa27762f30bf0c74ed5ed8a78efa88ac0088526a740000001976a91413cd926daa0b2e1422cabca27e3cbc3aebbee60e88ac00000000","txid":"54600bcf06d43515cc9f37cfc49031e8f95b4cf1248607141f10c429ce510a63","version":1,"time":1539483312,"locktime":0,"vin":[{"txid":"b56e5857983043c6d0c1ed4c768448cf496fd0ce82df8339d5c647e79d5fdcf1","vout":0,"scriptSig":{"asm":"3044022022b21036cd30515a79bbed2be10446355ee29eb09358b2f2db84cb90f7b9ed7402205efe85dbeed72ef9dfe1d4469f40708636643df9ab49632458e1549e5ee8607f01 0212119cc26c65405a541cd7737d0f723190864824de5496940aecfa9270e45f5b","hex":"473044022022b21036cd30515a79bbed2be10446355ee29eb09358b2f2db84cb90f7b9ed7402205efe85dbeed72ef9dfe1d4469f40708636643df9ab49632458e1549e5ee8607f01210212119cc26c65405a541cd7737d0f723190864824de5496940aecfa9270e45f5b"},"sequence":4294967295}],"vout":[{"value":99954982,"n":0,"scriptPubKey":{"asm":"OP_DUP OP_HASH160 e585eedb6ca6fa27762f30bf0c74ed5ed8a78efa OP_EQUALVERIFY OP_CHECKSIG","reqSigs":1,"type":"pubkeyhash","addresses":["pSUBPTw65hvX2BRM463dmBhuMWajezDmzD"]}},{"value":5000,"n":1,"scriptPubKey":{"asm":"OP_DUP OP_HASH160 13cd926daa0b2e1422cabca27e3cbc3aebbee60e OP_EQUALVERIFY OP_CHECKSIG","reqSigs":1,"type":"pubkeyhash","addresses":["p7MHJk1NCoVwVPjx7mEGWrpeSkLSYSZyuV"]}}],"blockhash":"024a4e112f441df5e9e4cd5351c90d4556f93ba8a184b9a101fef0337f5b2628","confirmations":53,"blocktime":1539483312}