{"hex":"0100000040a3c25b01dce1d00998cc77f9a25b146593d1eade404b692a27d8abed4caa315393263586000000006a4730440220268ae544319465e750e03542f61db05e9db806f88eb07cba2f2928c9a0f16cfd02202961cbae79bda5cbfe74d1b25004a5cd357225ec6fc9e2d7e856255a3637bdb90121037e20b6f9df2b1191d7e929adc4ec86bb0a3b438e7822a1a46cd9d0caef60b746ffffffff020000000000000000000084d717000000002321037e20b6f9df2b1191d7e929adc4ec86bb0a3b438e7822a1a46cd9d0caef60b746ac00000000","txid":"76f05c93723c56b78895e7bf00759fbe0d3ccb1e4f789dcf6a26a4fcef95dd28","version":1,"time":1539482432,"locktime":0,"vin":[{"txid":"863526935331aa4cedabd8272a694b40deead19365145ba2f977cc9809d0e1dc","vout":0,"scriptSig":{"asm":"30440220268ae544319465e750e03542f61db05e9db806f88eb07cba2f2928c9a0f16cfd02202961cbae79bda5cbfe74d1b25004a5cd357225ec6fc9e2d7e856255a3637bdb901 037e20b6f9df2b1191d7e929adc4ec86bb0a3b438e7822a1a46cd9d0caef60b746","hex":"4730440220268ae544319465e750e03542f61db05e9db806f88eb07cba2f2928c9a0f16cfd02202961cbae79bda5cbfe74d1b25004a5cd357225ec6fc9e2d7e856255a3637bdb90121037e20b6f9df2b1191d7e929adc4ec86bb0a3b438e7822a1a46cd9d0caef60b746"},"sequence":4294967295}],"vout":[{"value":0,"n":0,"scriptPubKey":{"asm":"","type":"nonstandard"}},{"value":4,"n":1,"scriptPubKey":{"asm":"037e20b6f9df2b1191d7e929adc4ec86bb0a3b438e7822a1a46cd9d0caef60b746 OP_CHECKSIG","reqSigs":1,"type":"pubkey","addresses":["p6vr35KwzEodbGx2Tqp8uLkcMLPNmxZhJS"]}}],"blockhash":"b72616a60c9fb10c19543824b6a0699d94d74080a146897be681d15096208fc3","confirmations":344,"blocktime":1539482432}