{"hex":"0100000030a3c25b01eebf6acf71ab897fbef31f52f36b8195201e9dbfef19711c203ed5551f84bb7c000000006a473044022060c573ca4cf0a0d871de25043d42c17be22cabfb429d42742867f2402b47feea02206689090a46b5ac33425c4c7a3fe8731a08604c47dac3b38c6616be80dbafa98f0121027c7b5ef92b402a905b2ff0614a3f11dcf3bfe3c06e4ca4799685f8955b367fa7ffffffff0200d8c796208523001976a914c0b6f2d63a1ff9c41174f09cd56ad7623461df7c88ac0088526a740000001976a91420a1d7d85cd0229e18400cec13b55b9628be885388ac00000000","txid":"e16388d219eda8c07e96013782dddc13854fa9a110708a429c6baab752485839","version":1,"time":1539482432,"locktime":0,"vin":[{"txid":"7cbb841f55d53e201c7119efbf9d1e2095816bf3521ff3be7f89ab71cf6abfee","vout":0,"scriptSig":{"asm":"3044022060c573ca4cf0a0d871de25043d42c17be22cabfb429d42742867f2402b47feea02206689090a46b5ac33425c4c7a3fe8731a08604c47dac3b38c6616be80dbafa98f01 027c7b5ef92b402a905b2ff0614a3f11dcf3bfe3c06e4ca4799685f8955b367fa7","hex":"473044022060c573ca4cf0a0d871de25043d42c17be22cabfb429d42742867f2402b47feea02206689090a46b5ac33425c4c7a3fe8731a08604c47dac3b38c6616be80dbafa98f0121027c7b5ef92b402a905b2ff0614a3f11dcf3bfe3c06e4ca4799685f8955b367fa7"},"sequence":4294967295}],"vout":[{"value":99979992,"n":0,"scriptPubKey":{"asm":"OP_DUP OP_HASH160 c0b6f2d63a1ff9c41174f09cd56ad7623461df7c OP_EQUALVERIFY OP_CHECKSIG","reqSigs":1,"type":"pubkeyhash","addresses":["pP7Z72XyUQ5iKRTgaSgrHb5MY1RvY3oSkA"]}},{"value":5000,"n":1,"scriptPubKey":{"asm":"OP_DUP OP_HASH160 20a1d7d85cd0229e18400cec13b55b9628be8853 OP_EQUALVERIFY OP_CHECKSIG","reqSigs":1,"type":"pubkeyhash","addresses":["p8X7huKtvdnnDzc17Xcxxh1Z9ww8ckxvVJ"]}}],"blockhash":"b72616a60c9fb10c19543824b6a0699d94d74080a146897be681d15096208fc3","confirmations":344,"blocktime":1539482432}