{"hex":"01000000a7e5c45b01990809df5f11668722d0e1b3588e566f1fbb2000fa2430b2adf02f7016b66e79010000006a473044022017a6855d852622e5b47ae10cf60d76988c61dfc022d275244d8e4a8f50322a4502207a9d62e61bf58f9000a817690515567b9b157976390367dd5096aa82f84227b8012102f8ae4f92ef12729c479ddf6c55542da65ce775722b01e2510125faa812e9bbb7ffffffff0258508900000000001976a9143bac559b2949b7363c943a666fab1ad783b8aa6288ac40420f00000000001976a914c46c9dbade9b203e53bdd9d0dd2b648d161df24488ac00000000","txid":"4ad43ed9e58b2690a3a9a78183efa447c7cb986ba064fe67e46093bd0fc3fde6","version":1,"time":1539630544,"locktime":0,"vin":[{"txid":"796eb616702ff0adb23024fa0020bb1f6f568e58b3e1d0228766115fdf090899","vout":1,"scriptSig":{"asm":"3044022017a6855d852622e5b47ae10cf60d76988c61dfc022d275244d8e4a8f50322a4502207a9d62e61bf58f9000a817690515567b9b157976390367dd5096aa82f84227b801 02f8ae4f92ef12729c479ddf6c55542da65ce775722b01e2510125faa812e9bbb7","hex":"473044022017a6855d852622e5b47ae10cf60d76988c61dfc022d275244d8e4a8f50322a4502207a9d62e61bf58f9000a817690515567b9b157976390367dd5096aa82f84227b8012102f8ae4f92ef12729c479ddf6c55542da65ce775722b01e2510125faa812e9bbb7"},"sequence":4294967295}],"vout":[{"value":0.08999,"n":0,"scriptPubKey":{"asm":"OP_DUP OP_HASH160 3bac559b2949b7363c943a666fab1ad783b8aa62 OP_EQUALVERIFY OP_CHECKSIG","reqSigs":1,"type":"pubkeyhash","addresses":["pAz6X2Yj6BLEmZL21j6JqLgfe8BYvViB24"]}},{"value":0.01,"n":1,"scriptPubKey":{"asm":"OP_DUP OP_HASH160 c46c9dbade9b203e53bdd9d0dd2b648d161df244 OP_EQUALVERIFY OP_CHECKSIG","reqSigs":1,"type":"pubkeyhash","addresses":["pPTAm5uuQJGoWX9Hh58XuF2GCPbFbep2qJ"]}}],"blockhash":"46e9f987e84ab2259b2651d5ede2d641848571edf8befe9a94ac32a6db195e87","confirmations":305,"blocktime":1539630544}