{"hex":"01000000d0e5c45b01115cf179db4250ba2bc5ede4c64079d29516e223fdb68ab7002a9d75089ee2570200000048473044022067a56f5fc466d933a1ee4f318fdf2b99b63860e931f4acad6eab7ff141f1e00202201eee7b4f7fdafd17dc47a3a45d83000bda5d946533604e65e1afa3fec7a83a5801ffffffff04000000000000000000c0856b470700000023210348b24f77eda58d2bf0bd56f764cfdeb0100d2f1058b2d5318f2f2fc9670e730eac56866b470700000023210348b24f77eda58d2bf0bd56f764cfdeb0100d2f1058b2d5318f2f2fc9670e730eac52030000000000001976a914b9f3d781f7d99f65d068998a288759e0a638d31288ac00000000","txid":"f9303db61281a13870d6a651f6feb248053e9b5be893c24f7e758c70175e82d8","version":1,"time":1539630544,"locktime":0,"vin":[{"txid":"57e29e08759d2a00b78ab6fd23e21695d27940c6e4edc52bba5042db79f15c11","vout":2,"scriptSig":{"asm":"3044022067a56f5fc466d933a1ee4f318fdf2b99b63860e931f4acad6eab7ff141f1e00202201eee7b4f7fdafd17dc47a3a45d83000bda5d946533604e65e1afa3fec7a83a5801","hex":"473044022067a56f5fc466d933a1ee4f318fdf2b99b63860e931f4acad6eab7ff141f1e00202201eee7b4f7fdafd17dc47a3a45d83000bda5d946533604e65e1afa3fec7a83a5801"},"sequence":4294967295}],"vout":[{"value":0,"n":0,"scriptPubKey":{"asm":"","type":"nonstandard"}},{"value":312.63,"n":1,"scriptPubKey":{"asm":"0348b24f77eda58d2bf0bd56f764cfdeb0100d2f1058b2d5318f2f2fc9670e730e OP_CHECKSIG","reqSigs":1,"type":"pubkey","addresses":["p8X7huKtvdnnDzc17Xcxxh1Z9ww8ckxvVJ"]}},{"value":312.6300015,"n":2,"scriptPubKey":{"asm":"0348b24f77eda58d2bf0bd56f764cfdeb0100d2f1058b2d5318f2f2fc9670e730e OP_CHECKSIG","reqSigs":1,"type":"pubkey","addresses":["p8X7huKtvdnnDzc17Xcxxh1Z9ww8ckxvVJ"]}},{"value":0.0000085,"n":3,"scriptPubKey":{"asm":"OP_DUP OP_HASH160 b9f3d781f7d99f65d068998a288759e0a638d312 OP_EQUALVERIFY OP_CHECKSIG","reqSigs":1,"type":"pubkeyhash","addresses":["pNVoKczQ6P92yawDZejgg9H8khMTR2Sf2j"]}}],"blockhash":"46e9f987e84ab2259b2651d5ede2d641848571edf8befe9a94ac32a6db195e87","confirmations":19,"blocktime":1539630544}