{"hex":"01000000aaf6d55b02eb11a36a9f0805731d4ba8b2a87b9d94cad32230fe662e20a1f6a9e33e30fc5b010000006a4730440220082c2148678b471fc8f7ff7b16d19368f87b62d34397e6cf825cd6b2189ecb5002203b3ef29133417b134a0619d88f5b57840114317474899067302f14cd13cd58d0012102675c5ece8faf3a80865c0679dc9339f66a85dd519ed28e77b29af4adb6f91d83ffffffff7b0f0907f166e4020e8807e9864c80fbf250d21679f5d4e188ed9079aece6e55000000006a47304402205d630899bea5849733b90ff5b2eec9cd733235e31798d56d09bd860d7175f0a5022043d829cc09c51d5efc8aae055e5729f8d8627130fabd95b681dc23d3d8be3b590121029e857134122939a57279b02312e296a02bcf0cf876ddc541bd372450215dbeacffffffff02bf470f00000000001976a9144c28ee798243702bc4500cdb4da9004130bb47f688ac58220000000000001976a9147b32a32ee43c19d849b0dfbf2535a38fcb4c909188ac00000000","txid":"c082e5acfb64f95b29c81b2184c85b4bc61da51de876f47d06e7fc11ec7c770d","version":1,"time":1540748976,"locktime":0,"vin":[{"txid":"5bfc303ee3a9f6a1202e66fe3022d3ca949d7ba8b2a84b1d7305089f6aa311eb","vout":1,"scriptSig":{"asm":"30440220082c2148678b471fc8f7ff7b16d19368f87b62d34397e6cf825cd6b2189ecb5002203b3ef29133417b134a0619d88f5b57840114317474899067302f14cd13cd58d001 02675c5ece8faf3a80865c0679dc9339f66a85dd519ed28e77b29af4adb6f91d83","hex":"4730440220082c2148678b471fc8f7ff7b16d19368f87b62d34397e6cf825cd6b2189ecb5002203b3ef29133417b134a0619d88f5b57840114317474899067302f14cd13cd58d0012102675c5ece8faf3a80865c0679dc9339f66a85dd519ed28e77b29af4adb6f91d83"},"sequence":4294967295},{"txid":"556eceae7990ed88e1d4f57916d250f2fb804c86e907880e02e466f107090f7b","vout":0,"scriptSig":{"asm":"304402205d630899bea5849733b90ff5b2eec9cd733235e31798d56d09bd860d7175f0a5022043d829cc09c51d5efc8aae055e5729f8d8627130fabd95b681dc23d3d8be3b5901 029e857134122939a57279b02312e296a02bcf0cf876ddc541bd372450215dbeac","hex":"47304402205d630899bea5849733b90ff5b2eec9cd733235e31798d56d09bd860d7175f0a5022043d829cc09c51d5efc8aae055e5729f8d8627130fabd95b681dc23d3d8be3b590121029e857134122939a57279b02312e296a02bcf0cf876ddc541bd372450215dbeac"},"sequence":4294967295}],"vout":[{"value":0.01001407,"n":0,"scriptPubKey":{"asm":"OP_DUP OP_HASH160 4c28ee798243702bc4500cdb4da9004130bb47f6 OP_EQUALVERIFY OP_CHECKSIG","reqSigs":1,"type":"pubkeyhash","addresses":["pCVGbFvFLapGyskXvwfxG2ss21bRU9FqUh"]}},{"value":0.00008792,"n":1,"scriptPubKey":{"asm":"OP_DUP OP_HASH160 7b32a32ee43c19d849b0dfbf2535a38fcb4c9091 OP_EQUALVERIFY OP_CHECKSIG","reqSigs":1,"type":"pubkeyhash","addresses":["pGmyyejEAQ5ToqtGkHSPAMWowzLDMoQDdB"]}}],"blockhash":"377434ec0bec2f5ca975e62090544a386423213cfe0ee78d5fa27e045441fb02","confirmations":267,"blocktime":1540748976}