{"hex":"01000000b0f6d55b01f45c522efcf443f0a9d8ff9e3eb70c79b6021fc1a4c7c59ee96de78a94c2a8760100000049483045022100e94f9ec952b5eaf6592fc76d89c1fa1baab751ec70419d35b1a4e6f0ad212ced02205fea523442c8668a16b3e5e22413b984220afcc29797bb34b36524a737abb86a01ffffffff04000000000000000000409452a3030000002321020b1cd26fc4b9f080aea1cf7b667efd5e8453f70429056589831fa7f63506ddbfac4f9452a3030000002321020b1cd26fc4b9f080aea1cf7b667efd5e8453f70429056589831fa7f63506ddbfac55000000000000001976a914256b9b540806ec78f3cbc6d37188a2e1504616e688ac00000000","txid":"e6bb03cf7a5e6f64fe27066ac936814bed27384661c3ab23ac096268959df53c","version":1,"time":1540748976,"locktime":0,"vin":[{"txid":"76a8c2948ae76de99ec5c7a4c11f02b6790cb73e9effd8a9f043f4fc2e525cf4","vout":1,"scriptSig":{"asm":"3045022100e94f9ec952b5eaf6592fc76d89c1fa1baab751ec70419d35b1a4e6f0ad212ced02205fea523442c8668a16b3e5e22413b984220afcc29797bb34b36524a737abb86a01","hex":"483045022100e94f9ec952b5eaf6592fc76d89c1fa1baab751ec70419d35b1a4e6f0ad212ced02205fea523442c8668a16b3e5e22413b984220afcc29797bb34b36524a737abb86a01"},"sequence":4294967295}],"vout":[{"value":0,"n":0,"scriptPubKey":{"asm":"","type":"nonstandard"}},{"value":156.25,"n":1,"scriptPubKey":{"asm":"020b1cd26fc4b9f080aea1cf7b667efd5e8453f70429056589831fa7f63506ddbf OP_CHECKSIG","reqSigs":1,"type":"pubkey","addresses":["pECTDpfW4nW8hYte3f3F9ZQxwgWmBwmcYL"]}},{"value":156.25000015,"n":2,"scriptPubKey":{"asm":"020b1cd26fc4b9f080aea1cf7b667efd5e8453f70429056589831fa7f63506ddbf OP_CHECKSIG","reqSigs":1,"type":"pubkey","addresses":["pECTDpfW4nW8hYte3f3F9ZQxwgWmBwmcYL"]}},{"value":8.5e-7,"n":3,"scriptPubKey":{"asm":"OP_DUP OP_HASH160 256b9b540806ec78f3cbc6d37188a2e1504616e6 OP_EQUALVERIFY OP_CHECKSIG","reqSigs":1,"type":"pubkeyhash","addresses":["p8xS7T8mkTz7MJV9EcYkBri1Zi12wCV83N"]}}],"blockhash":"377434ec0bec2f5ca975e62090544a386423213cfe0ee78d5fa27e045441fb02","confirmations":267,"blocktime":1540748976}