{"hex":"01000000f09fc25b010000000000000000000000000000000000000000000000000000000000000000ffffffff04011a0101ffffffff0100000000000000001976a9140a84f986285963dfa43816241237066c028da83088ac00000000","txid":"18136cab811871acabd12e0e3fa79515e8e2973df724cc811c5da5d16c418802","version":1,"time":1539481584,"locktime":0,"vin":[{"coinbase":"011a0101","sequence":4294967295}],"vout":[{"value":0,"n":0,"scriptPubKey":{"asm":"OP_DUP OP_HASH160 0a84f986285963dfa43816241237066c028da830 OP_EQUALVERIFY OP_CHECKSIG","reqSigs":1,"type":"pubkeyhash","addresses":["p6WCFsJvGuhCTMJ3Xw5KwJeoWZ5DyjD4Hn"]}}],"blockhash":"0000067ee03341ede2bcdeb2e6cb6f102607cb7ba362d4ee200322cb59cb93dd","confirmations":419,"blocktime":1539481584}