{"hex":"01000000d020d15b01d8825e17708c757e4fc293e85b9b3e0548b2fef651a6d67038a18112b63d30f90100000049483045022100b967ef8b01c4de232699eee2042062e99f23479e877b28393bc74c5d425564dd0220291c044d0fbc2e77ca40ccf4e8f926c554a07d392fa1f9066f0fac19a7c5d16801ffffffff04000000000000000000c021aea30300000023210348b24f77eda58d2bf0bd56f764cfdeb0100d2f1058b2d5318f2f2fc9670e730eaca264bda30300000023210348b24f77eda58d2bf0bd56f764cfdeb0100d2f1058b2d5318f2f2fc9670e730eac94030000000000001976a91405799d876e3b7c328ae01baece26d0f931b0f5fa88ac00000000","txid":"ae9147c3045e48068031f1c9d403ce9c266f4cca2f2ea3c74c666b58188136e5","version":1,"time":1540432080,"locktime":0,"vin":[{"txid":"f9303db61281a13870d6a651f6feb248053e9b5be893c24f7e758c70175e82d8","vout":1,"scriptSig":{"asm":"3045022100b967ef8b01c4de232699eee2042062e99f23479e877b28393bc74c5d425564dd0220291c044d0fbc2e77ca40ccf4e8f926c554a07d392fa1f9066f0fac19a7c5d16801","hex":"483045022100b967ef8b01c4de232699eee2042062e99f23479e877b28393bc74c5d425564dd0220291c044d0fbc2e77ca40ccf4e8f926c554a07d392fa1f9066f0fac19a7c5d16801"},"sequence":4294967295}],"vout":[{"value":0,"n":0,"scriptPubKey":{"asm":"","type":"nonstandard"}},{"value":156.31,"n":1,"scriptPubKey":{"asm":"0348b24f77eda58d2bf0bd56f764cfdeb0100d2f1058b2d5318f2f2fc9670e730e OP_CHECKSIG","reqSigs":1,"type":"pubkey","addresses":["p8X7huKtvdnnDzc17Xcxxh1Z9ww8ckxvVJ"]}},{"value":156.32000162,"n":2,"scriptPubKey":{"asm":"0348b24f77eda58d2bf0bd56f764cfdeb0100d2f1058b2d5318f2f2fc9670e730e OP_CHECKSIG","reqSigs":1,"type":"pubkey","addresses":["p8X7huKtvdnnDzc17Xcxxh1Z9ww8ckxvVJ"]}},{"value":0.00000916,"n":3,"scriptPubKey":{"asm":"OP_DUP OP_HASH160 05799d876e3b7c328ae01baece26d0f931b0f5fa OP_EQUALVERIFY OP_CHECKSIG","reqSigs":1,"type":"pubkeyhash","addresses":["p63XGeVRkcywXEQJE5bkXjJFiugf8tT1er"]}}],"blockhash":"38b4bc8351007b12004bdb263545d61bfcf5b59ba59dc4eb3c5c826a6511b380","confirmations":294,"blocktime":1540432080}