{"hex":"01000000c020d15b01c0f6666fb5ecda2e08b9e0835d3ac7ee4d30ea604df9204f28b0f40c521625aa010000006b483045022100951b21ef7a313fefbfcf73320e7c335c8c3ee24c301f60387c9194ecd1c4bff602203b969ffb3df7d033be973dcc883bc604a484d437e4c39a74a099b98dd4751e9401210251861de4cc73b9e807c05d640b4ef5b1f924f6bcafe2c91c43d46541932d3df0ffffffff0258576b00000000001976a9144c28ee798243702bc4500cdb4da9004130bb47f688ac4c761000000000001976a914c0d92e5e5deefe1d44234f7ad046fd950febc66c88ac00000000","txid":"d9f84dc7046d683ca7572e7d495cf311c3bdb4050ca79b96339a59c1ffecb0e9","version":1,"time":1540432080,"locktime":0,"vin":[{"txid":"aa2516520cf4b0284f20f94d60ea304deec73a5d83e0b9082edaecb56f66f6c0","vout":1,"scriptSig":{"asm":"3045022100951b21ef7a313fefbfcf73320e7c335c8c3ee24c301f60387c9194ecd1c4bff602203b969ffb3df7d033be973dcc883bc604a484d437e4c39a74a099b98dd4751e9401 0251861de4cc73b9e807c05d640b4ef5b1f924f6bcafe2c91c43d46541932d3df0","hex":"483045022100951b21ef7a313fefbfcf73320e7c335c8c3ee24c301f60387c9194ecd1c4bff602203b969ffb3df7d033be973dcc883bc604a484d437e4c39a74a099b98dd4751e9401210251861de4cc73b9e807c05d640b4ef5b1f924f6bcafe2c91c43d46541932d3df0"},"sequence":4294967295}],"vout":[{"value":0.07034712,"n":0,"scriptPubKey":{"asm":"OP_DUP OP_HASH160 4c28ee798243702bc4500cdb4da9004130bb47f6 OP_EQUALVERIFY OP_CHECKSIG","reqSigs":1,"type":"pubkeyhash","addresses":["pCVGbFvFLapGyskXvwfxG2ss21bRU9FqUh"]}},{"value":0.0107886,"n":1,"scriptPubKey":{"asm":"OP_DUP OP_HASH160 c0d92e5e5deefe1d44234f7ad046fd950febc66c OP_EQUALVERIFY OP_CHECKSIG","reqSigs":1,"type":"pubkeyhash","addresses":["pP8G7YdtaBSrgYwwLmW49maizgKpmQQAFz"]}}],"blockhash":"38b4bc8351007b12004bdb263545d61bfcf5b59ba59dc4eb3c5c826a6511b380","confirmations":8,"blocktime":1540432080}