{"hex":"01000000b194d85b0216a8370c24e42921ef15df290be78312fa32e505bc103c9ef70abd0bf50e43b5000000006a47304402206562bd57e285c710ec51abbad187b246c16f5b10f12da03db2c93899845bb18e022020bf09313bbda5524c358121af4e1d338f7985f7fece47df338bdf379fd7b8fc012102f24e90fdcf5a75317b44df9bfead2103ec859845e7676c28ce968cf75939a4acffffffff16a8370c24e42921ef15df290be78312fa32e505bc103c9ef70abd0bf50e43b5010000006b483045022100c7898af613c80fc39718326d1d9a981ad5fdf369e0925134e5554520aa8cf94202206a02bcfd48a07e7f4a90ffe5c2d6816375ddc65b9941f6606c91380dbda25de7012103be085907b7452e4a9cd15ae2b39bbca276c17d1a1c8bbc90bcb0d3467ae36a24ffffffff02a4781b00000000001976a914ffea70eb665fdbf0bd1d50720618447181d9ddfb88ac00e1f505000000001976a91494a9e994e9e53bf94909fbc0bd9009c9d9d470de88ac00000000","txid":"4e5d9a3838c688912acfe695af433762c43f9c6602792355c7a01e821e645de8","version":1,"time":1540920512,"locktime":0,"vin":[{"txid":"b5430ef50bbd0af79e3c10bc05e532fa1283e70b29df15ef2129e4240c37a816","vout":0,"scriptSig":{"asm":"304402206562bd57e285c710ec51abbad187b246c16f5b10f12da03db2c93899845bb18e022020bf09313bbda5524c358121af4e1d338f7985f7fece47df338bdf379fd7b8fc01 02f24e90fdcf5a75317b44df9bfead2103ec859845e7676c28ce968cf75939a4ac","hex":"47304402206562bd57e285c710ec51abbad187b246c16f5b10f12da03db2c93899845bb18e022020bf09313bbda5524c358121af4e1d338f7985f7fece47df338bdf379fd7b8fc012102f24e90fdcf5a75317b44df9bfead2103ec859845e7676c28ce968cf75939a4ac"},"sequence":4294967295},{"txid":"b5430ef50bbd0af79e3c10bc05e532fa1283e70b29df15ef2129e4240c37a816","vout":1,"scriptSig":{"asm":"3045022100c7898af613c80fc39718326d1d9a981ad5fdf369e0925134e5554520aa8cf94202206a02bcfd48a07e7f4a90ffe5c2d6816375ddc65b9941f6606c91380dbda25de701 03be085907b7452e4a9cd15ae2b39bbca276c17d1a1c8bbc90bcb0d3467ae36a24","hex":"483045022100c7898af613c80fc39718326d1d9a981ad5fdf369e0925134e5554520aa8cf94202206a02bcfd48a07e7f4a90ffe5c2d6816375ddc65b9941f6606c91380dbda25de7012103be085907b7452e4a9cd15ae2b39bbca276c17d1a1c8bbc90bcb0d3467ae36a24"},"sequence":4294967295}],"vout":[{"value":0.01800356,"n":0,"scriptPubKey":{"asm":"OP_DUP OP_HASH160 ffea70eb665fdbf0bd1d50720618447181d9ddfb OP_EQUALVERIFY OP_CHECKSIG","reqSigs":1,"type":"pubkeyhash","addresses":["pUsjMshYihopvuwPQiRD7NL7GqCzKbj83R"]}},{"value":1,"n":1,"scriptPubKey":{"asm":"OP_DUP OP_HASH160 94a9e994e9e53bf94909fbc0bd9009c9d9d470de OP_EQUALVERIFY OP_CHECKSIG","reqSigs":1,"type":"pubkeyhash","addresses":["pK6dkpTC9qHUwogQNWTa893udwkVYYpHtS"]}}],"blockhash":"7b69cd8e35d9406210478b709da770b7c1b2ed8199956d485b0a7530a0a95d72","confirmations":152,"blocktime":1540920512}