{"hex":"01000000c094d85b01ed795e06eab0a5fb7edf4eda8857d97bcf96cf0a57ca04988c2bb1b86eae0e710100000048473044022027ca2f4f96fc76ba023139a9ca6ca5ae9ab387784cf3363866981a490a6cf42d022054359e8e748736cac3bbb64fcfcd222bb637ac20c97e443564af79dd58a5287901ffffffff03000000000000000000d76fb3d1010000002321020b1cd26fc4b9f080aea1cf7b667efd5e8453f70429056589831fa7f63506ddbfac084c0100000000001976a914f644d7bb2dad64400ad72ff27a1b98cf981fdd7e88ac00000000","txid":"cda332f39003138295718953c2d7f3ff342bbabc7eaec7866967069da89d5fbe","version":1,"time":1540920512,"locktime":0,"vin":[{"txid":"710eae6eb8b12b8c9804ca570acf96cf7bd95788da4edf7efba5b0ea065e79ed","vout":1,"scriptSig":{"asm":"3044022027ca2f4f96fc76ba023139a9ca6ca5ae9ab387784cf3363866981a490a6cf42d022054359e8e748736cac3bbb64fcfcd222bb637ac20c97e443564af79dd58a5287901","hex":"473044022027ca2f4f96fc76ba023139a9ca6ca5ae9ab387784cf3363866981a490a6cf42d022054359e8e748736cac3bbb64fcfcd222bb637ac20c97e443564af79dd58a5287901"},"sequence":4294967295}],"vout":[{"value":0,"n":0,"scriptPubKey":{"asm":"","type":"nonstandard"}},{"value":78.13165015,"n":1,"scriptPubKey":{"asm":"020b1cd26fc4b9f080aea1cf7b667efd5e8453f70429056589831fa7f63506ddbf OP_CHECKSIG","reqSigs":1,"type":"pubkey","addresses":["pECTDpfW4nW8hYte3f3F9ZQxwgWmBwmcYL"]}},{"value":0.00085,"n":2,"scriptPubKey":{"asm":"OP_DUP OP_HASH160 f644d7bb2dad64400ad72ff27a1b98cf981fdd7e OP_EQUALVERIFY OP_CHECKSIG","reqSigs":1,"type":"pubkeyhash","addresses":["pTziuAqinUjYFVy6Da9fmDBWUTdPjXTj23"]}}],"blockhash":"7b69cd8e35d9406210478b709da770b7c1b2ed8199956d485b0a7530a0a95d72","confirmations":152,"blocktime":1540920512}