{"hex":"01000000a0a2d65b01dfa15d1ccaa34fa89c8c405d30186090fe240aadf830d2e726e1c753fc0bbc5301000000484730440220563a7e354c5f836e06b1474d9375babcfa64559ee1149aae56213f36e3960cc002201b94e3b750ef5dde61631f7e4651ceb5ae5a1f9085a5fbe0e6c6574b37a06eaa01ffffffff0400000000000000000000a9a1d1010000002321020b1cd26fc4b9f080aea1cf7b667efd5e8453f70429056589831fa7f63506ddbfac3035b3d1010000002321020b1cd26fc4b9f080aea1cf7b667efd5e8453f70429056589831fa7f63506ddbfac50f80c00000000001976a91405799d876e3b7c328ae01baece26d0f931b0f5fa88ac00000000","txid":"250954a35b573462934566b000a643190e9a21acca674e32be57febc8ce8b4c4","version":1,"time":1540792992,"locktime":0,"vin":[{"txid":"53bc0bfc53c7e126e7d230f8ad0a24fe906018305d408c9ca84fa3ca1c5da1df","vout":1,"scriptSig":{"asm":"30440220563a7e354c5f836e06b1474d9375babcfa64559ee1149aae56213f36e3960cc002201b94e3b750ef5dde61631f7e4651ceb5ae5a1f9085a5fbe0e6c6574b37a06eaa01","hex":"4730440220563a7e354c5f836e06b1474d9375babcfa64559ee1149aae56213f36e3960cc002201b94e3b750ef5dde61631f7e4651ceb5ae5a1f9085a5fbe0e6c6574b37a06eaa01"},"sequence":4294967295}],"vout":[{"value":0,"n":0,"scriptPubKey":{"asm":"","type":"nonstandard"}},{"value":78.12,"n":1,"scriptPubKey":{"asm":"020b1cd26fc4b9f080aea1cf7b667efd5e8453f70429056589831fa7f63506ddbf OP_CHECKSIG","reqSigs":1,"type":"pubkey","addresses":["pECTDpfW4nW8hYte3f3F9ZQxwgWmBwmcYL"]}},{"value":78.1315,"n":2,"scriptPubKey":{"asm":"020b1cd26fc4b9f080aea1cf7b667efd5e8453f70429056589831fa7f63506ddbf OP_CHECKSIG","reqSigs":1,"type":"pubkey","addresses":["pECTDpfW4nW8hYte3f3F9ZQxwgWmBwmcYL"]}},{"value":0.0085,"n":3,"scriptPubKey":{"asm":"OP_DUP OP_HASH160 05799d876e3b7c328ae01baece26d0f931b0f5fa OP_EQUALVERIFY OP_CHECKSIG","reqSigs":1,"type":"pubkeyhash","addresses":["p63XGeVRkcywXEQJE5bkXjJFiugf8tT1er"]}}],"blockhash":"5cc7056b0c7c07110cb680e07c04e9b741fb3ee3ac47482e9d4107da80ff38eb","confirmations":237,"blocktime":1540792992}