{"hex":"010000009ea2d65b0436a72365eeab8de9946da5fdb63b5b14134ea0839f1e58141a4f72d2187e03f8010000006a47304402200ca9a3ead2b1d775e199c0fe28627cea5df3a5d244f47f159c7c648488a66a0102202f0ec439710e668f8f5b87c7dabb9c1d682fa0750d7dbed5263cbe70e93bd47d0121033a9dd62222be13f56503a3e0ecda03a4bd2e478e565f97bfe1b2e57485778e68ffffffff7da2c9f01f7173c5e540cf7cca2b1c2df9635b059cb47307e540daab75dfbfe3010000006b48304502210084033dc6d2d432ed637daed5c2887080c1d7d369eac47c43b492f1b7e5022162022035a7ef7a7ea0bc9f7ac5bacc976b633131d665ab20bc9799a772cecdb4247bf70121028b704f87302179806bf73b65b1539589094c39eb4bd302be0b20e14c1147eb6cffffffffbd34f64e01e3f3056e6523bf5b43e5bab4436ead87042adb4e38a902b097121d010000004847304402205f7df11f414ec5ef8d7a75451e1c01287a03d37b0a318516d49c54d5cd504f8702206b61d4bdab4e1f213c812797da3d987fc291bcfd8dd508f9eb7085a8f6741fa601ffffffff17fdf0a0a0f0186fc6b1e319b56b699099f4fe00747ea870fe3c67f5d20d9941000000006a473044022034e317378872bd5fdc5f6175fbf83452fb0b7744ef7a42044aaa5bfd9088266a0220136445fef0e9a454c1e693c260bdc66e2037a70a926984659c18dc39a7242e370121026b7204b11c74a2e7650ed615d4a9f493f652d7648ead8aad225d5e60c3cf7d3affffffff0278761b00000000001976a914e46b2f92154795665ea0684cd7656b76dc0b31ec88ac00ca9a3b000000001976a914b0ce8642748d49f1cc613ef2ecf29e7d214262c188ac00000000","txid":"b3b088d8ec911feeabe4209de5d8f1350b2e35834f7f1160e13c89fa3a4acc43","version":1,"time":1540792992,"locktime":0,"vin":[{"txid":"f8037e18d2724f1a14581e9f83a04e13145b3bb6fda56d94e98dabee6523a736","vout":1,"scriptSig":{"asm":"304402200ca9a3ead2b1d775e199c0fe28627cea5df3a5d244f47f159c7c648488a66a0102202f0ec439710e668f8f5b87c7dabb9c1d682fa0750d7dbed5263cbe70e93bd47d01 033a9dd62222be13f56503a3e0ecda03a4bd2e478e565f97bfe1b2e57485778e68","hex":"47304402200ca9a3ead2b1d775e199c0fe28627cea5df3a5d244f47f159c7c648488a66a0102202f0ec439710e668f8f5b87c7dabb9c1d682fa0750d7dbed5263cbe70e93bd47d0121033a9dd62222be13f56503a3e0ecda03a4bd2e478e565f97bfe1b2e57485778e68"},"sequence":4294967295},{"txid":"e3bfdf75abda40e50773b49c055b63f92d1c2bca7ccf40e5c573711ff0c9a27d","vout":1,"scriptSig":{"asm":"304502210084033dc6d2d432ed637daed5c2887080c1d7d369eac47c43b492f1b7e5022162022035a7ef7a7ea0bc9f7ac5bacc976b633131d665ab20bc9799a772cecdb4247bf701 028b704f87302179806bf73b65b1539589094c39eb4bd302be0b20e14c1147eb6c","hex":"48304502210084033dc6d2d432ed637daed5c2887080c1d7d369eac47c43b492f1b7e5022162022035a7ef7a7ea0bc9f7ac5bacc976b633131d665ab20bc9799a772cecdb4247bf70121028b704f87302179806bf73b65b1539589094c39eb4bd302be0b20e14c1147eb6c"},"sequence":4294967295},{"txid":"1d1297b002a9384edb2a0487ad6e43b4bae5435bbf23656e05f3e3014ef634bd","vout":1,"scriptSig":{"asm":"304402205f7df11f414ec5ef8d7a75451e1c01287a03d37b0a318516d49c54d5cd504f8702206b61d4bdab4e1f213c812797da3d987fc291bcfd8dd508f9eb7085a8f6741fa601","hex":"47304402205f7df11f414ec5ef8d7a75451e1c01287a03d37b0a318516d49c54d5cd504f8702206b61d4bdab4e1f213c812797da3d987fc291bcfd8dd508f9eb7085a8f6741fa601"},"sequence":4294967295},{"txid":"41990dd2f5673cfe70a87e7400fef49990696bb519e3b1c66f18f0a0a0f0fd17","vout":0,"scriptSig":{"asm":"3044022034e317378872bd5fdc5f6175fbf83452fb0b7744ef7a42044aaa5bfd9088266a0220136445fef0e9a454c1e693c260bdc66e2037a70a926984659c18dc39a7242e3701 026b7204b11c74a2e7650ed615d4a9f493f652d7648ead8aad225d5e60c3cf7d3a","hex":"473044022034e317378872bd5fdc5f6175fbf83452fb0b7744ef7a42044aaa5bfd9088266a0220136445fef0e9a454c1e693c260bdc66e2037a70a926984659c18dc39a7242e370121026b7204b11c74a2e7650ed615d4a9f493f652d7648ead8aad225d5e60c3cf7d3a"},"sequence":4294967295}],"vout":[{"value":0.017998,"n":0,"scriptPubKey":{"asm":"OP_DUP OP_HASH160 e46b2f92154795665ea0684cd7656b76dc0b31ec OP_EQUALVERIFY OP_CHECKSIG","reqSigs":1,"type":"pubkeyhash","addresses":["pSNLfqvrRfnYbbWLEd4AZ4JsQo7STYtWy2"]}},{"value":10,"n":1,"scriptPubKey":{"asm":"OP_DUP OP_HASH160 b0ce8642748d49f1cc613ef2ecf29e7d214262c1 OP_EQUALVERIFY OP_CHECKSIG","reqSigs":1,"type":"pubkeyhash","addresses":["pMfSY3AcSDZ1N7wAM2xZLAyYbC3rciXuRH"]}}],"blockhash":"5cc7056b0c7c07110cb680e07c04e9b741fb3ee3ac47482e9d4107da80ff38eb","confirmations":237,"blocktime":1540792992}