{"hex":"01000000f05fd75b01877d2eb6e6cc6aba858b0de34e4edc98a6be6de98b6de967989bedcae78eec030100000049483045022100bc031e556b17cc7f93421f939707c7fe490b6ec2ef568f14fc525f4f27d81abc02201b91ff1535dd3e02db1d04611daa3a3ab6c891e4c8f23fe65b655a7a3735476501ffffffff03000000000000000000da1e441400000000232102fe0f32861c5e187f37917d5839a130aede206c882635d6d980145021bd993f06ac52030000000000001976a9140f0458597355a9fb43189a18c91b2668213960f888ac00000000","txid":"42a834b0f4df66e9b5160c5047916fe65679388a11af7c7b5ce212525cb451d5","version":1,"time":1540841456,"locktime":0,"vin":[{"txid":"03ec8ee7caed9b9867e96d8be96dbea698dc4e4ee30d8b85ba6acce6b62e7d87","vout":1,"scriptSig":{"asm":"3045022100bc031e556b17cc7f93421f939707c7fe490b6ec2ef568f14fc525f4f27d81abc02201b91ff1535dd3e02db1d04611daa3a3ab6c891e4c8f23fe65b655a7a3735476501","hex":"483045022100bc031e556b17cc7f93421f939707c7fe490b6ec2ef568f14fc525f4f27d81abc02201b91ff1535dd3e02db1d04611daa3a3ab6c891e4c8f23fe65b655a7a3735476501"},"sequence":4294967295}],"vout":[{"value":0,"n":0,"scriptPubKey":{"asm":"","type":"nonstandard"}},{"value":3.40008666,"n":1,"scriptPubKey":{"asm":"02fe0f32861c5e187f37917d5839a130aede206c882635d6d980145021bd993f06 OP_CHECKSIG","reqSigs":1,"type":"pubkey","addresses":["p7MHJk1NCoVwVPjx7mEGWrpeSkLSYSZyuV"]}},{"value":0.0000085,"n":2,"scriptPubKey":{"asm":"OP_DUP OP_HASH160 0f0458597355a9fb43189a18c91b2668213960f8 OP_EQUALVERIFY OP_CHECKSIG","reqSigs":1,"type":"pubkeyhash","addresses":["p6uyYVC7Ty7S1UZtPQtetPMTXYoKf6M8dh"]}}],"blockhash":"b90ab5089a5d1326c8200d879c0d4b16119b8bfc1c00173944790250f09f5545","confirmations":182,"blocktime":1540841456}