{"hex":"01000000e05fd75b0117fdf0a0a0f0186fc6b1e319b56b699099f4fe00747ea870fe3c67f5d20d9941010000006a47304402200e4f584dec2ececda67091ad2d51cec25eef5fe7a14b8a94f9828d37d5ba7a6c02201bd754ebf4dd8e01de5aecb5414f39721f64ef8e6291fdab64775d17286a5aa40121027a63eb41fb5b1d0c41fa3e8bb739d687887b2e9d5191453467ee4b033887714affffffff0258508900000000001976a9141cd136dd5327046bfb10cac06e1ab1e9e6b0d93b88ac40420f00000000001976a914805f9cd336ce36b4ef07af38b4d3f9a18b14898888ac00000000","txid":"eea12825c28fb4798c83813339c15dd3603eb902f4d149322bc775a58738c374","version":1,"time":1540841456,"locktime":0,"vin":[{"txid":"41990dd2f5673cfe70a87e7400fef49990696bb519e3b1c66f18f0a0a0f0fd17","vout":1,"scriptSig":{"asm":"304402200e4f584dec2ececda67091ad2d51cec25eef5fe7a14b8a94f9828d37d5ba7a6c02201bd754ebf4dd8e01de5aecb5414f39721f64ef8e6291fdab64775d17286a5aa401 027a63eb41fb5b1d0c41fa3e8bb739d687887b2e9d5191453467ee4b033887714a","hex":"47304402200e4f584dec2ececda67091ad2d51cec25eef5fe7a14b8a94f9828d37d5ba7a6c02201bd754ebf4dd8e01de5aecb5414f39721f64ef8e6291fdab64775d17286a5aa40121027a63eb41fb5b1d0c41fa3e8bb739d687887b2e9d5191453467ee4b033887714a"},"sequence":4294967295}],"vout":[{"value":0.08999,"n":0,"scriptPubKey":{"asm":"OP_DUP OP_HASH160 1cd136dd5327046bfb10cac06e1ab1e9e6b0d93b OP_EQUALVERIFY OP_CHECKSIG","reqSigs":1,"type":"pubkeyhash","addresses":["p8AwkYQHPDeX5vn5CWEJzXQ1pUhqAv7ki6"]}},{"value":0.01,"n":1,"scriptPubKey":{"asm":"OP_DUP OP_HASH160 805f9cd336ce36b4ef07af38b4d3f9a18b148988 OP_EQUALVERIFY OP_CHECKSIG","reqSigs":1,"type":"pubkeyhash","addresses":["pHFMEYFUrjkStDazXCisF2fPCQGhG4AXwB"]}}],"blockhash":"b90ab5089a5d1326c8200d879c0d4b16119b8bfc1c00173944790250f09f5545","confirmations":182,"blocktime":1540841456}