{"hex":"01000000b035d65b01035ce783562848b4c626ffe1e262201ed1454ca4e6fb17bf857204f0bda8e7d1010000004847304402206943b613a6953afbdea38d3433f46d840bb2c3b66376905fd26b458a68d9e18102203a1a5a528c43d1e72f94bc2e22b685d5580a2367af9abc064bef5e369e9af10901ffffffff0400000000000000000000a9a1d1010000002321020b1cd26fc4b9f080aea1cf7b667efd5e8453f70429056589831fa7f63506ddbfac04ecb0d1010000002321020b1cd26fc4b9f080aea1cf7b667efd5e8453f70429056589831fa7f63506ddbfac52040000000000001976a9140c2d1eddba56317fb81d41241b8f40bbca7b5b5488ac00000000","txid":"52794aaa30ea148f7a09e65af2613035235ab51508603a67c6c6c06059faab50","version":1,"time":1540765104,"locktime":0,"vin":[{"txid":"d1e7a8bdf0047285bf17fbe6a44c45d11e2062e2e1ff26c6b448285683e75c03","vout":1,"scriptSig":{"asm":"304402206943b613a6953afbdea38d3433f46d840bb2c3b66376905fd26b458a68d9e18102203a1a5a528c43d1e72f94bc2e22b685d5580a2367af9abc064bef5e369e9af10901","hex":"47304402206943b613a6953afbdea38d3433f46d840bb2c3b66376905fd26b458a68d9e18102203a1a5a528c43d1e72f94bc2e22b685d5580a2367af9abc064bef5e369e9af10901"},"sequence":4294967295}],"vout":[{"value":0,"n":0,"scriptPubKey":{"asm":"","type":"nonstandard"}},{"value":78.12,"n":1,"scriptPubKey":{"asm":"020b1cd26fc4b9f080aea1cf7b667efd5e8453f70429056589831fa7f63506ddbf OP_CHECKSIG","reqSigs":1,"type":"pubkey","addresses":["pECTDpfW4nW8hYte3f3F9ZQxwgWmBwmcYL"]}},{"value":78.13000196,"n":2,"scriptPubKey":{"asm":"020b1cd26fc4b9f080aea1cf7b667efd5e8453f70429056589831fa7f63506ddbf OP_CHECKSIG","reqSigs":1,"type":"pubkey","addresses":["pECTDpfW4nW8hYte3f3F9ZQxwgWmBwmcYL"]}},{"value":0.00001106,"n":3,"scriptPubKey":{"asm":"OP_DUP OP_HASH160 0c2d1eddba56317fb81d41241b8f40bbca7b5b54 OP_EQUALVERIFY OP_CHECKSIG","reqSigs":1,"type":"pubkeyhash","addresses":["p6exN3FuZmZyQ7WNzLf7AweTLuHqDvcERN"]}}],"blockhash":"ff6d877ab196e1a7e65246129dd70332174fc1a069fd7a798dcc15decc689f84","confirmations":263,"blocktime":1540765104}