{"hex":"01000000a335d65b0426871fc212531417051c9527ad89680f8c453966b63216ca74260bbf995c09b4000000006b483045022100d187a1d1ca48e9de79a228e1ea1fc718c3a66ae525e578b37a86ef7984b51bcf02202fb733aad366f66868d92be5e8f63a2993fdbb69110d943fa7c7d9d88c357d990121029e857134122939a57279b02312e296a02bcf0cf876ddc541bd372450215dbeacffffffff67fa56f658e5db9057e7755dc5b510f0d3b1644c5b41e2af53cf6b5db839247a010000006b483045022100d06931f636fbf9cdef129a54d8e27f1d0d58fce450037ec03c0b1db2084184c5022047bb18949e20f26cfeaae490221bde23276bffd44ca72e68de3521a35120ff4101210327b54b594f4c02cbf71e1c57e7cf6755ab33f8bfa835b226c08b49e5f507c103ffffffff92eaa9077f4725f7e9c2a99e91f95172a3630a8bb6ff3c2b8f9bebe4e9c6daee010000006a47304402204c66a4ed81b865c61e0580bc09a14b10a8a608a02471b866c5eacccac3298dde02204a99ad3b4738efc05b60d0fafe942787a0233c920d65ad294fdc6d4ec098bc3b01210327b54b594f4c02cbf71e1c57e7cf6755ab33f8bfa835b226c08b49e5f507c103ffffffff24045b10ab74400a56dbfc178e0ee59ff1031c2b338738874a4fc74fe3ae1132010000006a473044022054e81aa562dba082caef12c445cbea1e9ae23d8682706e30e1bcedc56dfc5816022037f4c48039f51e4d7866b652bc739815bbdbd0b4656b5da4b558dca08b22f72e012103b2b6d21a18bfd553c9af3097bfeb1cf9a1ea3aa38c02811ef39e8b3819cb78a4ffffffff02925c0f00000000001976a9144c28ee798243702bc4500cdb4da9004130bb47f688acd1e01300000000001976a914c28ae2ac9ce429e4d2d627e2ee3927a9eac25c0888ac00000000","txid":"58706ef332191cb2d570c5fa95d9eb1155acf5b3d0df95dbe89a1b7ebbf9c61c","version":1,"time":1540765104,"locktime":0,"vin":[{"txid":"b4095c99bf0b2674ca1632b66639458c0f6889ad27951c0517145312c21f8726","vout":0,"scriptSig":{"asm":"3045022100d187a1d1ca48e9de79a228e1ea1fc718c3a66ae525e578b37a86ef7984b51bcf02202fb733aad366f66868d92be5e8f63a2993fdbb69110d943fa7c7d9d88c357d9901 029e857134122939a57279b02312e296a02bcf0cf876ddc541bd372450215dbeac","hex":"483045022100d187a1d1ca48e9de79a228e1ea1fc718c3a66ae525e578b37a86ef7984b51bcf02202fb733aad366f66868d92be5e8f63a2993fdbb69110d943fa7c7d9d88c357d990121029e857134122939a57279b02312e296a02bcf0cf876ddc541bd372450215dbeac"},"sequence":4294967295},{"txid":"7a2439b85d6bcf53afe2415b4c64b1d3f010b5c55d75e75790dbe558f656fa67","vout":1,"scriptSig":{"asm":"3045022100d06931f636fbf9cdef129a54d8e27f1d0d58fce450037ec03c0b1db2084184c5022047bb18949e20f26cfeaae490221bde23276bffd44ca72e68de3521a35120ff4101 0327b54b594f4c02cbf71e1c57e7cf6755ab33f8bfa835b226c08b49e5f507c103","hex":"483045022100d06931f636fbf9cdef129a54d8e27f1d0d58fce450037ec03c0b1db2084184c5022047bb18949e20f26cfeaae490221bde23276bffd44ca72e68de3521a35120ff4101210327b54b594f4c02cbf71e1c57e7cf6755ab33f8bfa835b226c08b49e5f507c103"},"sequence":4294967295},{"txid":"eedac6e9e4eb9b8f2b3cffb68b0a63a37251f9919ea9c2e9f725477f07a9ea92","vout":1,"scriptSig":{"asm":"304402204c66a4ed81b865c61e0580bc09a14b10a8a608a02471b866c5eacccac3298dde02204a99ad3b4738efc05b60d0fafe942787a0233c920d65ad294fdc6d4ec098bc3b01 0327b54b594f4c02cbf71e1c57e7cf6755ab33f8bfa835b226c08b49e5f507c103","hex":"47304402204c66a4ed81b865c61e0580bc09a14b10a8a608a02471b866c5eacccac3298dde02204a99ad3b4738efc05b60d0fafe942787a0233c920d65ad294fdc6d4ec098bc3b01210327b54b594f4c02cbf71e1c57e7cf6755ab33f8bfa835b226c08b49e5f507c103"},"sequence":4294967295},{"txid":"3211aee34fc74f4a873887332b1c03f19fe50e8e17fcdb560a4074ab105b0424","vout":1,"scriptSig":{"asm":"3044022054e81aa562dba082caef12c445cbea1e9ae23d8682706e30e1bcedc56dfc5816022037f4c48039f51e4d7866b652bc739815bbdbd0b4656b5da4b558dca08b22f72e01 03b2b6d21a18bfd553c9af3097bfeb1cf9a1ea3aa38c02811ef39e8b3819cb78a4","hex":"473044022054e81aa562dba082caef12c445cbea1e9ae23d8682706e30e1bcedc56dfc5816022037f4c48039f51e4d7866b652bc739815bbdbd0b4656b5da4b558dca08b22f72e012103b2b6d21a18bfd553c9af3097bfeb1cf9a1ea3aa38c02811ef39e8b3819cb78a4"},"sequence":4294967295}],"vout":[{"value":0.01006738,"n":0,"scriptPubKey":{"asm":"OP_DUP OP_HASH160 4c28ee798243702bc4500cdb4da9004130bb47f6 OP_EQUALVERIFY OP_CHECKSIG","reqSigs":1,"type":"pubkeyhash","addresses":["pCVGbFvFLapGyskXvwfxG2ss21bRU9FqUh"]}},{"value":0.01302737,"n":1,"scriptPubKey":{"asm":"OP_DUP OP_HASH160 c28ae2ac9ce429e4d2d627e2ee3927a9eac25c08 OP_EQUALVERIFY OP_CHECKSIG","reqSigs":1,"type":"pubkeyhash","addresses":["pPHDfrHnkFwBQHLTgNeDnLRRLUAFPASP7G"]}}],"blockhash":"ff6d877ab196e1a7e65246129dd70332174fc1a069fd7a798dcc15decc689f84","confirmations":263,"blocktime":1540765104}