{"hex":"0100000020bcd65b018023ae6b3329220e7a1f6c4435c84decd5d5a39fa958a0a6f811ec3806f77b28010000004948304502210082c2d3f342566e23586a3b9498f7ae62d417b8dd814a4eb35475f25540143ce302205ce9a7f5d5cdd268c9e7639b0e499a7abd8ec3de43d298ee3c7aa5fc0e76c80801ffffffff03000000000000000000806c6bd3010000002321020b1cd26fc4b9f080aea1cf7b667efd5e8453f70429056589831fa7f63506ddbfac80fe210a000000001976a914f6ea51b1cf22773ff3c68e8299209dc9d69d593f88ac00000000","txid":"140fbcd72491f7e309fac5076033dc5c9404965518bffc53454e3d791dca345c","version":1,"time":1540799520,"locktime":0,"vin":[{"txid":"287bf70638ec11f8a6a058a99fa3d5d5ec4dc835446c1f7a0e2229336bae2380","vout":1,"scriptSig":{"asm":"304502210082c2d3f342566e23586a3b9498f7ae62d417b8dd814a4eb35475f25540143ce302205ce9a7f5d5cdd268c9e7639b0e499a7abd8ec3de43d298ee3c7aa5fc0e76c80801","hex":"48304502210082c2d3f342566e23586a3b9498f7ae62d417b8dd814a4eb35475f25540143ce302205ce9a7f5d5cdd268c9e7639b0e499a7abd8ec3de43d298ee3c7aa5fc0e76c80801"},"sequence":4294967295}],"vout":[{"value":0,"n":0,"scriptPubKey":{"asm":"","type":"nonstandard"}},{"value":78.42,"n":1,"scriptPubKey":{"asm":"020b1cd26fc4b9f080aea1cf7b667efd5e8453f70429056589831fa7f63506ddbf OP_CHECKSIG","reqSigs":1,"type":"pubkey","addresses":["pECTDpfW4nW8hYte3f3F9ZQxwgWmBwmcYL"]}},{"value":1.7,"n":2,"scriptPubKey":{"asm":"OP_DUP OP_HASH160 f6ea51b1cf22773ff3c68e8299209dc9d69d593f OP_EQUALVERIFY OP_CHECKSIG","reqSigs":1,"type":"pubkeyhash","addresses":["pU498g2Tze2KypwgCnomJXchMWH8HXyZb6"]}}],"blockhash":"0ef2a6a6328f1f800a54be5ce0fabce3aabac5d2289b19acc44f8ff75f4c8078","confirmations":227,"blocktime":1540799520}