{"hex":"0100000017bcd65b0156450af550f97ec13df3589f90992b5c75bac5e2e85572bab106d04df7cb655f000000006b483045022100f2ab87d1bc15921be178a5d6e201b67a04f5e87f6dac027ab578cbfc981791b202202d340a262f45f02d39c82bbdf878ab3d6e012b667f49e10197ea2e5dc647f45d0121022c52828323cf2e3e7f3f5ffd653708d11557059592fc6ea9ea2a5a2e35209dc2ffffffff0240dfdbdaba4515001976a914286361ddb02ab413b90730809c9f963fa62717da88ac0040d1e4cd1607001976a9142503c5d237a2cb7faf15ea3354f6e3735a4404a588ac00000000","txid":"2daff7d8e04f198815a8bf81be1af6daa6e6a9f19048e37a04d1e5e8ee9d245f","version":1,"time":1540799520,"locktime":0,"vin":[{"txid":"5f65cbf74dd006b1ba7255e8e2c5ba755c2b99909f58f33dc17ef950f50a4556","vout":0,"scriptSig":{"asm":"3045022100f2ab87d1bc15921be178a5d6e201b67a04f5e87f6dac027ab578cbfc981791b202202d340a262f45f02d39c82bbdf878ab3d6e012b667f49e10197ea2e5dc647f45d01 022c52828323cf2e3e7f3f5ffd653708d11557059592fc6ea9ea2a5a2e35209dc2","hex":"483045022100f2ab87d1bc15921be178a5d6e201b67a04f5e87f6dac027ab578cbfc981791b202202d340a262f45f02d39c82bbdf878ab3d6e012b667f49e10197ea2e5dc647f45d0121022c52828323cf2e3e7f3f5ffd653708d11557059592fc6ea9ea2a5a2e35209dc2"},"sequence":4294967295}],"vout":[{"value":59876433.49,"n":0,"scriptPubKey":{"asm":"OP_DUP OP_HASH160 286361ddb02ab413b90730809c9f963fa62717da OP_EQUALVERIFY OP_CHECKSIG","reqSigs":1,"type":"pubkeyhash","addresses":["p9E8HafbNuRzPKU6Y8PvgzN4QUFTm2CHgv"]}},{"value":19953984,"n":1,"scriptPubKey":{"asm":"OP_DUP OP_HASH160 2503c5d237a2cb7faf15ea3354f6e3735a4404a5 OP_EQUALVERIFY OP_CHECKSIG","reqSigs":1,"type":"pubkeyhash","addresses":["p8vHiwLu79vnQZwEEGQtAYMDoy8XA8T5no"]}}],"blockhash":"0ef2a6a6328f1f800a54be5ce0fabce3aabac5d2289b19acc44f8ff75f4c8078","confirmations":227,"blocktime":1540799520}