{"hex":"01000000936ad75b024c99a08bdf653577ac96920e8bb9ca7689bbf94997e143307bbaf9d18386120c010000006a47304402202b5a3c3c37e77b496f72d746155aac5974b48d80d565a2694a9a51b719a4e0b802200ac57fb87b120843902492819ca25ee67baa524c8f93c92374ad5d4fa5a1e62601210392938d13e8f3f35a453783745a5612d5033558cc384c452fb5dc4e533c77c027ffffffffd0e11e05752c48709a2b09079c1195d97acddf2d8b2614e901884ca202dcdf89000000006a47304402206b70465e18231ed9259927cefc714f959515b00eea06e2e844f23bf54cc8b2f0022075de54e8355f4791ce1253d05aaab8d677acee8cd11765f5896866dd2a85f7f80121026305a59bbf18eb9477f0c8a0707f9693ece3e67a2b607a132542fbff6d000672ffffffff02db6f2300000000001976a91499b343218a936f30da95e63f02b7f1d6bdad160e88ac476fed09000000001976a91403b67b26a2afb7ec1861bbc8055ad277b58ad67088ac00000000","txid":"5565e855684ce162a5bea9a9aec287a947fa7b06075e71fa9099ed988502deff","version":1,"time":1540844192,"locktime":0,"vin":[{"txid":"0c128683d1f9ba7b3043e19749f9bb8976cab98b0e9296ac773565df8ba0994c","vout":1,"scriptSig":{"asm":"304402202b5a3c3c37e77b496f72d746155aac5974b48d80d565a2694a9a51b719a4e0b802200ac57fb87b120843902492819ca25ee67baa524c8f93c92374ad5d4fa5a1e62601 0392938d13e8f3f35a453783745a5612d5033558cc384c452fb5dc4e533c77c027","hex":"47304402202b5a3c3c37e77b496f72d746155aac5974b48d80d565a2694a9a51b719a4e0b802200ac57fb87b120843902492819ca25ee67baa524c8f93c92374ad5d4fa5a1e62601210392938d13e8f3f35a453783745a5612d5033558cc384c452fb5dc4e533c77c027"},"sequence":4294967295},{"txid":"89dfdc02a24c8801e914268b2ddfcd7ad995119c07092b9a70482c75051ee1d0","vout":0,"scriptSig":{"asm":"304402206b70465e18231ed9259927cefc714f959515b00eea06e2e844f23bf54cc8b2f0022075de54e8355f4791ce1253d05aaab8d677acee8cd11765f5896866dd2a85f7f801 026305a59bbf18eb9477f0c8a0707f9693ece3e67a2b607a132542fbff6d000672","hex":"47304402206b70465e18231ed9259927cefc714f959515b00eea06e2e844f23bf54cc8b2f0022075de54e8355f4791ce1253d05aaab8d677acee8cd11765f5896866dd2a85f7f80121026305a59bbf18eb9477f0c8a0707f9693ece3e67a2b607a132542fbff6d000672"},"sequence":4294967295}],"vout":[{"value":0.02322395,"n":0,"scriptPubKey":{"asm":"OP_DUP OP_HASH160 99b343218a936f30da95e63f02b7f1d6bdad160e OP_EQUALVERIFY OP_CHECKSIG","reqSigs":1,"type":"pubkeyhash","addresses":["pKZGLQx4RHgr9RfiDfa5nQjtpA6BSSzYZ7"]}},{"value":1.66555463,"n":1,"scriptPubKey":{"asm":"OP_DUP OP_HASH160 03b67b26a2afb7ec1861bbc8055ad277b58ad670 OP_EQUALVERIFY OP_CHECKSIG","reqSigs":1,"type":"pubkeyhash","addresses":["p5tCqHcYS7LC2UZuxeNmHUmJUN1FpVMuNv"]}}],"blockhash":"276c93a23691b11615c2714aa9031b74049c43995524bd8e7dc3978dad98db48","confirmations":173,"blocktime":1540844192}