{"hex":"01000000a06ad75b0184f7de760c443cd2698b5885164cb659bd5d3738d072428e961aa1bfbcaf3f2a0200000049483045022100af1cd8baa21fbb50e6b65b48d356b4931fce9ed7a8a697917c82ef97f10d48650220473b6e16c39cdd30710f05bf2a50e01debe1afdfdcf5dbabfbdb6d8b4ef1e12301ffffffff030000000000000000000f54b1d1010000002321020b1cd26fc4b9f080aea1cf7b667efd5e8453f70429056589831fa7f63506ddbfac03290200000000001976a91413cd926daa0b2e1422cabca27e3cbc3aebbee60e88ac00000000","txid":"d0ff343ab45540e31fe5f75c53206e7c8fd208a33d9719e743b0f6715d019427","version":1,"time":1540844192,"locktime":0,"vin":[{"txid":"2a3fafbcbfa11a968e4272d038375dbd59b64c1685588b69d23c440c76def784","vout":2,"scriptSig":{"asm":"3045022100af1cd8baa21fbb50e6b65b48d356b4931fce9ed7a8a697917c82ef97f10d48650220473b6e16c39cdd30710f05bf2a50e01debe1afdfdcf5dbabfbdb6d8b4ef1e12301","hex":"483045022100af1cd8baa21fbb50e6b65b48d356b4931fce9ed7a8a697917c82ef97f10d48650220473b6e16c39cdd30710f05bf2a50e01debe1afdfdcf5dbabfbdb6d8b4ef1e12301"},"sequence":4294967295}],"vout":[{"value":0,"n":0,"scriptPubKey":{"asm":"","type":"nonstandard"}},{"value":78.13026831,"n":1,"scriptPubKey":{"asm":"020b1cd26fc4b9f080aea1cf7b667efd5e8453f70429056589831fa7f63506ddbf OP_CHECKSIG","reqSigs":1,"type":"pubkey","addresses":["pECTDpfW4nW8hYte3f3F9ZQxwgWmBwmcYL"]}},{"value":0.00141571,"n":2,"scriptPubKey":{"asm":"OP_DUP OP_HASH160 13cd926daa0b2e1422cabca27e3cbc3aebbee60e OP_EQUALVERIFY OP_CHECKSIG","reqSigs":1,"type":"pubkeyhash","addresses":["p7MHJk1NCoVwVPjx7mEGWrpeSkLSYSZyuV"]}}],"blockhash":"276c93a23691b11615c2714aa9031b74049c43995524bd8e7dc3978dad98db48","confirmations":173,"blocktime":1540844192}