{"hex":"010000007073d75b01dc5e058554bb1f576cd7c5f4b677e28f5ae65b5d118b8ce9e4ac9a66378546020200000048473044022078903b23511252d663f20406fe95b991443516ed1594cb09d8022bbe6d64f38002200da4e38f6cdd93a39075a3d78cdbf687454638b8bc95ae17d5f5680c8db82ed501ffffffff03000000000000000000a128b2d1010000002321020b1cd26fc4b9f080aea1cf7b667efd5e8453f70429056589831fa7f63506ddbfac9a6e0000000000001976a91422d06420236528fe42b5c2302e36704d85b646de88ac00000000","txid":"4691ed70432cfab8c83d3c314ebabe99423cca38b52f334b8ba0757a5bed116c","version":1,"time":1540846448,"locktime":0,"vin":[{"txid":"02468537669aace4e98c8b115d5be65a8fe277b6f4c5d76c571fbb5485055edc","vout":2,"scriptSig":{"asm":"3044022078903b23511252d663f20406fe95b991443516ed1594cb09d8022bbe6d64f38002200da4e38f6cdd93a39075a3d78cdbf687454638b8bc95ae17d5f5680c8db82ed501","hex":"473044022078903b23511252d663f20406fe95b991443516ed1594cb09d8022bbe6d64f38002200da4e38f6cdd93a39075a3d78cdbf687454638b8bc95ae17d5f5680c8db82ed501"},"sequence":4294967295}],"vout":[{"value":0,"n":0,"scriptPubKey":{"asm":"","type":"nonstandard"}},{"value":78.13081249,"n":1,"scriptPubKey":{"asm":"020b1cd26fc4b9f080aea1cf7b667efd5e8453f70429056589831fa7f63506ddbf OP_CHECKSIG","reqSigs":1,"type":"pubkey","addresses":["pECTDpfW4nW8hYte3f3F9ZQxwgWmBwmcYL"]}},{"value":0.00028314,"n":2,"scriptPubKey":{"asm":"OP_DUP OP_HASH160 22d06420236528fe42b5c2302e36704d85b646de OP_EQUALVERIFY OP_CHECKSIG","reqSigs":1,"type":"pubkeyhash","addresses":["p8iepVjrqbjo1uNb8dyXKBBerSUv6zrPfw"]}}],"blockhash":"34cb652cd68150f0c4ad94215cf74c3d9f34eccc1c2431ad91392b5029ea4eae","confirmations":169,"blocktime":1540846448}