{"hex":"010000006973d75b05123f0f894b083a5682b638c11dc4b381141f72104973bec68aace8cec7fc7743000000006b483045022100ad7e2e159e2365a967b0551040967617248bc3cd3fe621af249d66c66a6cb9e102203f15724c0375d352b751a43b6b68e3a0f155e9b33fe0e0e16a1d83b47d08673501210395e1fffa65214556971b0ddb980b9f00117d53cc1d289534c32bf9f9c6d1f3ddffffffff123f0f894b083a5682b638c11dc4b381141f72104973bec68aace8cec7fc7743010000006a47304402206833110d0f6462c7b701786e69f2a5efae1074d4aebd5263f46ccc2f57a07988022053e6344c0cf9c262e8664618ba479549ba64f46e76fd79807b84ed5afa182e9e0121020b2d6b1a300fcd226bffc44ee5c8168884f873d6c650fae34a03db395e389195ffffffff0fc1f85966a75374075f4fb3ce270e9fc81383e0de9b54a901b176c928a4ed6d000000006a473044022076894d949bb92e464897e38465cae7b1a50947a1ce1a46c51e307370b3f65607022000f599032978b56f2cbe578a9c928fe6cd79eb5dda03ecb1510e431a7cc945f20121033386d5c81840681b5e9f59b51c86c6a7cdfce51ee2df6abb20702be6839cfe69ffffffffd77e81a8181e62061722016e94d0b0394c508f1947eebf70c38e23ae23121bfe000000006a47304402205d762b5a431eec00df4cdfea37ad430adc2dbbd346bbc57871b8c6a93b63b467022017cd61d9f9cf42f5a528625f7049f76f52adfc7f861b22a73670c670e95aa3e90121020162e002bfb0a522ebd48acb1360a3a2042bdb6cd4ea96bbe61262db9df69d93ffffffffffde028598ed9990fa715e07067bfa47a987c2aea9a9bea562e14c6855e86555000000006b483045022100f671393f4f2ba3c94c9bad47766d97ffa8a28655366f5866c2607a68fbbb35e1022059950bc6ba379ff6c68139e7ab3d42855976c6de0d101e7641dacd736964259f0121034ed69b33908b31062718b23fb33afe0a16dfb585c25938e7c81d4c3d1c95bdf7ffffffff024f4d2000000000001976a914213b33fba28facd9aad461406daba72e1243921c88ac7549fc01000000001976a9148cad26fffa80adb212ee3dff989bf9363f0ec73988ac00000000","txid":"72da741999f6d4fa45ce806f7d4df23e5b36b4bd465f3e891e23b7622e76bf22","version":1,"time":1540846448,"locktime":0,"vin":[{"txid":"4377fcc7cee8ac8ac6be734910721f1481b3c41dc138b682563a084b890f3f12","vout":0,"scriptSig":{"asm":"3045022100ad7e2e159e2365a967b0551040967617248bc3cd3fe621af249d66c66a6cb9e102203f15724c0375d352b751a43b6b68e3a0f155e9b33fe0e0e16a1d83b47d08673501 0395e1fffa65214556971b0ddb980b9f00117d53cc1d289534c32bf9f9c6d1f3dd","hex":"483045022100ad7e2e159e2365a967b0551040967617248bc3cd3fe621af249d66c66a6cb9e102203f15724c0375d352b751a43b6b68e3a0f155e9b33fe0e0e16a1d83b47d08673501210395e1fffa65214556971b0ddb980b9f00117d53cc1d289534c32bf9f9c6d1f3dd"},"sequence":4294967295},{"txid":"4377fcc7cee8ac8ac6be734910721f1481b3c41dc138b682563a084b890f3f12","vout":1,"scriptSig":{"asm":"304402206833110d0f6462c7b701786e69f2a5efae1074d4aebd5263f46ccc2f57a07988022053e6344c0cf9c262e8664618ba479549ba64f46e76fd79807b84ed5afa182e9e01 020b2d6b1a300fcd226bffc44ee5c8168884f873d6c650fae34a03db395e389195","hex":"47304402206833110d0f6462c7b701786e69f2a5efae1074d4aebd5263f46ccc2f57a07988022053e6344c0cf9c262e8664618ba479549ba64f46e76fd79807b84ed5afa182e9e0121020b2d6b1a300fcd226bffc44ee5c8168884f873d6c650fae34a03db395e389195"},"sequence":4294967295},{"txid":"6deda428c976b101a9549bdee08313c89f0e27ceb34f5f077453a76659f8c10f","vout":0,"scriptSig":{"asm":"3044022076894d949bb92e464897e38465cae7b1a50947a1ce1a46c51e307370b3f65607022000f599032978b56f2cbe578a9c928fe6cd79eb5dda03ecb1510e431a7cc945f201 033386d5c81840681b5e9f59b51c86c6a7cdfce51ee2df6abb20702be6839cfe69","hex":"473044022076894d949bb92e464897e38465cae7b1a50947a1ce1a46c51e307370b3f65607022000f599032978b56f2cbe578a9c928fe6cd79eb5dda03ecb1510e431a7cc945f20121033386d5c81840681b5e9f59b51c86c6a7cdfce51ee2df6abb20702be6839cfe69"},"sequence":4294967295},{"txid":"fe1b1223ae238ec370bfee47198f504c39b0d0946e01221706621e18a8817ed7","vout":0,"scriptSig":{"asm":"304402205d762b5a431eec00df4cdfea37ad430adc2dbbd346bbc57871b8c6a93b63b467022017cd61d9f9cf42f5a528625f7049f76f52adfc7f861b22a73670c670e95aa3e901 020162e002bfb0a522ebd48acb1360a3a2042bdb6cd4ea96bbe61262db9df69d93","hex":"47304402205d762b5a431eec00df4cdfea37ad430adc2dbbd346bbc57871b8c6a93b63b467022017cd61d9f9cf42f5a528625f7049f76f52adfc7f861b22a73670c670e95aa3e90121020162e002bfb0a522ebd48acb1360a3a2042bdb6cd4ea96bbe61262db9df69d93"},"sequence":4294967295},{"txid":"5565e855684ce162a5bea9a9aec287a947fa7b06075e71fa9099ed988502deff","vout":0,"scriptSig":{"asm":"3045022100f671393f4f2ba3c94c9bad47766d97ffa8a28655366f5866c2607a68fbbb35e1022059950bc6ba379ff6c68139e7ab3d42855976c6de0d101e7641dacd736964259f01 034ed69b33908b31062718b23fb33afe0a16dfb585c25938e7c81d4c3d1c95bdf7","hex":"483045022100f671393f4f2ba3c94c9bad47766d97ffa8a28655366f5866c2607a68fbbb35e1022059950bc6ba379ff6c68139e7ab3d42855976c6de0d101e7641dacd736964259f0121034ed69b33908b31062718b23fb33afe0a16dfb585c25938e7c81d4c3d1c95bdf7"},"sequence":4294967295}],"vout":[{"value":0.02116943,"n":0,"scriptPubKey":{"asm":"OP_DUP OP_HASH160 213b33fba28facd9aad461406daba72e1243921c OP_EQUALVERIFY OP_CHECKSIG","reqSigs":1,"type":"pubkeyhash","addresses":["p8aHRY5FCfRzwV9wxgc1XYjWjHWeTGsy8Z"]}},{"value":0.33311093,"n":1,"scriptPubKey":{"asm":"OP_DUP OP_HASH160 8cad26fffa80adb212ee3dff989bf9363f0ec739 OP_EQUALVERIFY OP_CHECKSIG","reqSigs":1,"type":"pubkeyhash","addresses":["pJNQEQ1aVYaygCR9dY2BpW7BWfpgt6qdxt"]}}],"blockhash":"34cb652cd68150f0c4ad94215cf74c3d9f34eccc1c2431ad91392b5029ea4eae","confirmations":169,"blocktime":1540846448}