{"hex":"01000000c0cce05b011ea7838d9e468c5027c16362c78a46b9870226d46d9e027adae34b89fe876e6f0200000049483045022100dc096476c983a87ceb3a073fc51504f7672eeee8999ba3fcf87c0116e3baa02e022030b62d6e5258db378cdbbeb8ce7b2c7bd6743bb6851da54e23e946051c13c27901ffffffff04000000000000000000802dc0d1010000002321026ef57679057df94a5f72e9fead08857f8d7253a593b2b1feed1b68e92df4a4c5accbcfc9d1010000002321026ef57679057df94a5f72e9fead08857f8d7253a593b2b1feed1b68e92df4a4c5ac3eec0100000000001976a91413cd926daa0b2e1422cabca27e3cbc3aebbee60e88ac00000000","txid":"3eaf9f2d022f094181f5a74f3536d59c962326bddeab98259fc26f3ba2c7e70f","version":1,"time":1541459136,"locktime":0,"vin":[{"txid":"6f6e87fe894be3da7a029e6dd4260287b9468ac76263c127508c469e8d83a71e","vout":2,"scriptSig":{"asm":"3045022100dc096476c983a87ceb3a073fc51504f7672eeee8999ba3fcf87c0116e3baa02e022030b62d6e5258db378cdbbeb8ce7b2c7bd6743bb6851da54e23e946051c13c27901","hex":"483045022100dc096476c983a87ceb3a073fc51504f7672eeee8999ba3fcf87c0116e3baa02e022030b62d6e5258db378cdbbeb8ce7b2c7bd6743bb6851da54e23e946051c13c27901"},"sequence":4294967295}],"vout":[{"value":0,"n":0,"scriptPubKey":{"asm":"","type":"nonstandard"}},{"value":78.14,"n":1,"scriptPubKey":{"asm":"026ef57679057df94a5f72e9fead08857f8d7253a593b2b1feed1b68e92df4a4c5 OP_CHECKSIG","reqSigs":1,"type":"pubkey","addresses":["p5dRZ9MeyiKDma1pAUrsmvEK4NBmmdC4ZN"]}},{"value":78.14631371,"n":2,"scriptPubKey":{"asm":"026ef57679057df94a5f72e9fead08857f8d7253a593b2b1feed1b68e92df4a4c5 OP_CHECKSIG","reqSigs":1,"type":"pubkey","addresses":["p5dRZ9MeyiKDma1pAUrsmvEK4NBmmdC4ZN"]}},{"value":0.00126014,"n":3,"scriptPubKey":{"asm":"OP_DUP OP_HASH160 13cd926daa0b2e1422cabca27e3cbc3aebbee60e OP_EQUALVERIFY OP_CHECKSIG","reqSigs":1,"type":"pubkeyhash","addresses":["p7MHJk1NCoVwVPjx7mEGWrpeSkLSYSZyuV"]}}],"blockhash":"58ef1f525ac5b3efa3264483a9f857b60b2fc17082c3e2ca2dfc59ffcef56358","confirmations":1,"blocktime":1541459136}