{"hex":"01000000b2cce05b01328338843acc4cedfe33c690a7df64bcfac4d915048419bcce12a794e4551c8a010000006a47304402201886afb77770b397d5e5cc3a5f94f45b3b5447d0702bebf205c031c66dbd02d1022033e8c5d639e7a387508551604f5e87c87d5a6168befbddbb15cfcffda90a79f501210383cb29c80f3c2ff8858ffeed2b961ef3a01068f7e371d25104a6530a1e918e16ffffffff027c961400000000001976a9144f0958a195718b28ed2776ee5c40ba86559e86ff88acc825d608000000001976a914700533d493a5bd0b95186ea958e443edeb1f47db88ac00000000","txid":"b01f7edb348c18a5670879aed3a9df8cbdf0dae7245c708f13db17d15ac9878c","version":1,"time":1541459136,"locktime":0,"vin":[{"txid":"8a1c55e494a712cebc19840415d9c4fabc64dfa790c633feed4ccc3a84388332","vout":1,"scriptSig":{"asm":"304402201886afb77770b397d5e5cc3a5f94f45b3b5447d0702bebf205c031c66dbd02d1022033e8c5d639e7a387508551604f5e87c87d5a6168befbddbb15cfcffda90a79f501 0383cb29c80f3c2ff8858ffeed2b961ef3a01068f7e371d25104a6530a1e918e16","hex":"47304402201886afb77770b397d5e5cc3a5f94f45b3b5447d0702bebf205c031c66dbd02d1022033e8c5d639e7a387508551604f5e87c87d5a6168befbddbb15cfcffda90a79f501210383cb29c80f3c2ff8858ffeed2b961ef3a01068f7e371d25104a6530a1e918e16"},"sequence":4294967295}],"vout":[{"value":0.01349244,"n":0,"scriptPubKey":{"asm":"OP_DUP OP_HASH160 4f0958a195718b28ed2776ee5c40ba86559e86ff OP_EQUALVERIFY OP_CHECKSIG","reqSigs":1,"type":"pubkeyhash","addresses":["pCkUnFFnZxLHLkj3BKFdzxDhHRZu8w5DFT"]}},{"value":1.48252104,"n":1,"scriptPubKey":{"asm":"OP_DUP OP_HASH160 700533d493a5bd0b95186ea958e443edeb1f47db OP_EQUALVERIFY OP_CHECKSIG","reqSigs":1,"type":"pubkeyhash","addresses":["pFkt7fTsmMh3EN6uCSWLdB8pj748REZGL9"]}}],"blockhash":"58ef1f525ac5b3efa3264483a9f857b60b2fc17082c3e2ca2dfc59ffcef56358","confirmations":1,"blocktime":1541459136}