{"hex":"010000000033d75b0181f478e83b6b1a8a3f80526fe9b6561afd35b2a0c3742f237946044926048b2d0200000049483045022100e8db7dac99bb9a570013ef195bf48b84a57c6e94dfa860a2a10ba432a052d23a022010c84afd1d9b10a3e24ea668d5e984343dc36b699894034e922afa2f4cdd28a501ffffffff03000000000000000000d2ffb0d1010000002321020b1cd26fc4b9f080aea1cf7b667efd5e8453f70429056589831fa7f63506ddbfac9a6e0000000000001976a914a539c7c64804ba10293866c3433100eabbe41ccf88ac00000000","txid":"1687eb2ea989359e357bc7d4814620232785d54256409eb11c0e330f06077acc","version":1,"time":1540829952,"locktime":0,"vin":[{"txid":"2d8b042649044679232f74c3a0b235fd1a56b6e96f52803f8a1a6b3be878f481","vout":2,"scriptSig":{"asm":"3045022100e8db7dac99bb9a570013ef195bf48b84a57c6e94dfa860a2a10ba432a052d23a022010c84afd1d9b10a3e24ea668d5e984343dc36b699894034e922afa2f4cdd28a501","hex":"483045022100e8db7dac99bb9a570013ef195bf48b84a57c6e94dfa860a2a10ba432a052d23a022010c84afd1d9b10a3e24ea668d5e984343dc36b699894034e922afa2f4cdd28a501"},"sequence":4294967295}],"vout":[{"value":0,"n":0,"scriptPubKey":{"asm":"","type":"nonstandard"}},{"value":78.13005266,"n":1,"scriptPubKey":{"asm":"020b1cd26fc4b9f080aea1cf7b667efd5e8453f70429056589831fa7f63506ddbf OP_CHECKSIG","reqSigs":1,"type":"pubkey","addresses":["pECTDpfW4nW8hYte3f3F9ZQxwgWmBwmcYL"]}},{"value":0.00028314,"n":2,"scriptPubKey":{"asm":"OP_DUP OP_HASH160 a539c7c64804ba10293866c3433100eabbe41ccf OP_EQUALVERIFY OP_CHECKSIG","reqSigs":1,"type":"pubkeyhash","addresses":["pLcCv1RBNEWf4q17fiPMGMYqeFUvP9a826"]}}],"blockhash":"3b95823d78f62f8cba201b13d02536ce0abafe8bc696102417b91644faf043dd","confirmations":191,"blocktime":1540829952}