{"hex":"01000000fb32d75b03cbca1e8760c11108665b281eb9c79125a1f254b2f583d50e33de5250c8d9e17d000000006a4730440220107fd4ffe72749b0aff8423cf82b313eaa9a7893ef0cec795f50407d6c6c84b8022044af95d1f3918a4dbbcfac0a80899dfe55a9aa9ee1b7f2b6d2859475654767c20121029e857134122939a57279b02312e296a02bcf0cf876ddc541bd372450215dbeacffffffff34d2e97a3cab29cd8fe85719f12d9c51c0d07b6c932834b7250fb1e7d9d81bc3010000006b48304502210091d68766fb187ebb24fae9b53b2708af84dd1e953399d733fce7488cda4a690902205f326aa99c034a315e24f1c6093f69cc8971a90802a26fb74f36724cd62c0d05012103b69af20fb253c59120d6f631d45f4c2510b8a7214efd930b7e27b3910736e617ffffffff5215e591a1a7878e33af0e2c95dd6223ea900541b40d4ba19fb34469c63910f9000000006a47304402207d4c5a031965cebf94b2dab0da1f98aae53e9eff8f9633f9e45a5db23ccd06e002202f1e46b50d16eb318e6c04e6f9cd2bbf56aada1d74e82223a1c0a9cb819296670121029e857134122939a57279b02312e296a02bcf0cf876ddc541bd372450215dbeacffffffff02a1881000000000001976a914cf6dc3f4ef5fef2274dd3d020793d6a4eb6269c488ac7549fc01000000001976a91484a57bff8940e07be01b9e3a30da97c0ed159a3f88ac00000000","txid":"69c00af9c5670ba80bb5451718a1f1c7c316b2e5b735ebfd0ad0e80097afaf06","version":1,"time":1540829952,"locktime":0,"vin":[{"txid":"7de1d9c85052de330ed583f5b254f2a12591c7b91e285b660811c160871ecacb","vout":0,"scriptSig":{"asm":"30440220107fd4ffe72749b0aff8423cf82b313eaa9a7893ef0cec795f50407d6c6c84b8022044af95d1f3918a4dbbcfac0a80899dfe55a9aa9ee1b7f2b6d2859475654767c201 029e857134122939a57279b02312e296a02bcf0cf876ddc541bd372450215dbeac","hex":"4730440220107fd4ffe72749b0aff8423cf82b313eaa9a7893ef0cec795f50407d6c6c84b8022044af95d1f3918a4dbbcfac0a80899dfe55a9aa9ee1b7f2b6d2859475654767c20121029e857134122939a57279b02312e296a02bcf0cf876ddc541bd372450215dbeac"},"sequence":4294967295},{"txid":"c31bd8d9e7b10f25b73428936c7bd0c0519c2df11957e88fcd29ab3c7ae9d234","vout":1,"scriptSig":{"asm":"304502210091d68766fb187ebb24fae9b53b2708af84dd1e953399d733fce7488cda4a690902205f326aa99c034a315e24f1c6093f69cc8971a90802a26fb74f36724cd62c0d0501 03b69af20fb253c59120d6f631d45f4c2510b8a7214efd930b7e27b3910736e617","hex":"48304502210091d68766fb187ebb24fae9b53b2708af84dd1e953399d733fce7488cda4a690902205f326aa99c034a315e24f1c6093f69cc8971a90802a26fb74f36724cd62c0d05012103b69af20fb253c59120d6f631d45f4c2510b8a7214efd930b7e27b3910736e617"},"sequence":4294967295},{"txid":"f91039c66944b39fa14b0db4410590ea2362dd952c0eaf338e87a7a191e51552","vout":0,"scriptSig":{"asm":"304402207d4c5a031965cebf94b2dab0da1f98aae53e9eff8f9633f9e45a5db23ccd06e002202f1e46b50d16eb318e6c04e6f9cd2bbf56aada1d74e82223a1c0a9cb8192966701 029e857134122939a57279b02312e296a02bcf0cf876ddc541bd372450215dbeac","hex":"47304402207d4c5a031965cebf94b2dab0da1f98aae53e9eff8f9633f9e45a5db23ccd06e002202f1e46b50d16eb318e6c04e6f9cd2bbf56aada1d74e82223a1c0a9cb819296670121029e857134122939a57279b02312e296a02bcf0cf876ddc541bd372450215dbeac"},"sequence":4294967295}],"vout":[{"value":0.01083553,"n":0,"scriptPubKey":{"asm":"OP_DUP OP_HASH160 cf6dc3f4ef5fef2274dd3d020793d6a4eb6269c4 OP_EQUALVERIFY OP_CHECKSIG","reqSigs":1,"type":"pubkeyhash","addresses":["pQTMa3yKPze4K61ENdHNKaAaNuVsScqjo9"]}},{"value":0.33311093,"n":1,"scriptPubKey":{"asm":"OP_DUP OP_HASH160 84a57bff8940e07be01b9e3a30da97c0ed159a3f OP_EQUALVERIFY OP_CHECKSIG","reqSigs":1,"type":"pubkeyhash","addresses":["pHdwe5kBZ4Y5dwRseKPUTndCLydQ5REAd6"]}}],"blockhash":"3b95823d78f62f8cba201b13d02536ce0abafe8bc696102417b91644faf043dd","confirmations":191,"blocktime":1540829952}