{"hex":"01000000639ec25b010000000000000000000000000000000000000000000000000000000000000000ffffffff03600102ffffffff0100000000000000001976a914555eb3b11480e81fdebbeba0dd5bead4a68de03088ac00000000","txid":"bda63c51ac70cb3215e886c19b968be8d73fcab6eabb722111ea11c85e70085a","version":1,"time":1539481194,"locktime":0,"vin":[{"coinbase":"600102","sequence":4294967295}],"vout":[{"value":0,"n":0,"scriptPubKey":{"asm":"OP_DUP OP_HASH160 555eb3b11480e81fdebbeba0dd5bead4a68de030 OP_EQUALVERIFY OP_CHECKSIG","reqSigs":1,"type":"pubkeyhash","addresses":["pDKy61stAL8gy7Yrz5tnMC3FTxN37CMhzw"]}}],"blockhash":"00000db4122afb874c6001c6abea1a29e31374f8d57107534064034be8f68974","confirmations":143,"blocktime":1539481194}