{"hex":"0100000007edd45b0192eaa9077f4725f7e9c2a99e91f95172a3630a8bb6ff3c2b8f9bebe4e9c6daee000000006a473044022026e041cc17d79c8c91735803ea038da8c6c24eaeb5de363a128a8804fe5910b2022075d8f0905e003fdee7c913243dd0cdd851c1b8aaa4c954e8be2b2758cb1d603f01210263f46ed0a8ce44a7d6ba4a1b819d4b41303b2881093146d28cb6ecb8fca517f8ffffffff0299bb1900000000001976a914e599e5e91013440d5491110b3fb6499f3b8fae2b88aca0860100000000001976a9144096e7fc0812b091315c472b680ccd07686b0bde88ac00000000","txid":"788c1bf689ac74d4f2c2a4aeeb6629b11c1027875eaac6357f134f9b97795597","version":1,"time":1540680976,"locktime":0,"vin":[{"txid":"eedac6e9e4eb9b8f2b3cffb68b0a63a37251f9919ea9c2e9f725477f07a9ea92","vout":0,"scriptSig":{"asm":"3044022026e041cc17d79c8c91735803ea038da8c6c24eaeb5de363a128a8804fe5910b2022075d8f0905e003fdee7c913243dd0cdd851c1b8aaa4c954e8be2b2758cb1d603f01 0263f46ed0a8ce44a7d6ba4a1b819d4b41303b2881093146d28cb6ecb8fca517f8","hex":"473044022026e041cc17d79c8c91735803ea038da8c6c24eaeb5de363a128a8804fe5910b2022075d8f0905e003fdee7c913243dd0cdd851c1b8aaa4c954e8be2b2758cb1d603f01210263f46ed0a8ce44a7d6ba4a1b819d4b41303b2881093146d28cb6ecb8fca517f8"},"sequence":4294967295}],"vout":[{"value":0.01686425,"n":0,"scriptPubKey":{"asm":"OP_DUP OP_HASH160 e599e5e91013440d5491110b3fb6499f3b8fae2b OP_EQUALVERIFY OP_CHECKSIG","reqSigs":1,"type":"pubkeyhash","addresses":["pSUbJfJqrKF6WYSMwLxophscjdXiXLYTYs"]}},{"value":0.001,"n":1,"scriptPubKey":{"asm":"OP_DUP OP_HASH160 4096e7fc0812b091315c472b680ccd07686b0bde OP_EQUALVERIFY OP_CHECKSIG","reqSigs":1,"type":"pubkeyhash","addresses":["pBS6E8Qhiibdi9hG31vjg6TTKrYusC17pQ"]}}],"blockhash":"9b2913418afee45f8684529928d4220ea093dc7e32e242baf7fa81280d67053d","confirmations":273,"blocktime":1540680976}