{"hex":"0100000010edd45b01decb2a7f6fe76b64bcddd08ac4b72ae68c570f353986747d6ef708da69cae89702000000484730440220013770239931a092df14403389e2982a0a6b2b5a22fc2975a4778331690e19d6022041af0c7ff3f8fabb8469ba31f816cc25b4849830afc207eed42df30d1d2a502701ffffffff040000000000000000008028a546070000002321020b1cd26fc4b9f080aea1cf7b667efd5e8453f70429056589831fa7f63506ddbfac6729a546070000002321020b1cd26fc4b9f080aea1cf7b667efd5e8453f70429056589831fa7f63506ddbfac55000000000000001976a91494663191b35c746d9b53200027af769cfd8a5ec588ac00000000","txid":"c2c19b72b804cdce0a9109fe1ec0e471eccd43ca43e073db79cc3852ff0eaecc","version":1,"time":1540680976,"locktime":0,"vin":[{"txid":"97e8ca69da08f76e7d748639350f578ce62ab7c48ad0ddbc646be76f7f2acbde","vout":2,"scriptSig":{"asm":"30440220013770239931a092df14403389e2982a0a6b2b5a22fc2975a4778331690e19d6022041af0c7ff3f8fabb8469ba31f816cc25b4849830afc207eed42df30d1d2a502701","hex":"4730440220013770239931a092df14403389e2982a0a6b2b5a22fc2975a4778331690e19d6022041af0c7ff3f8fabb8469ba31f816cc25b4849830afc207eed42df30d1d2a502701"},"sequence":4294967295}],"vout":[{"value":0,"n":0,"scriptPubKey":{"asm":"","type":"nonstandard"}},{"value":312.5,"n":1,"scriptPubKey":{"asm":"020b1cd26fc4b9f080aea1cf7b667efd5e8453f70429056589831fa7f63506ddbf OP_CHECKSIG","reqSigs":1,"type":"pubkey","addresses":["pECTDpfW4nW8hYte3f3F9ZQxwgWmBwmcYL"]}},{"value":312.50000231,"n":2,"scriptPubKey":{"asm":"020b1cd26fc4b9f080aea1cf7b667efd5e8453f70429056589831fa7f63506ddbf OP_CHECKSIG","reqSigs":1,"type":"pubkey","addresses":["pECTDpfW4nW8hYte3f3F9ZQxwgWmBwmcYL"]}},{"value":8.5e-7,"n":3,"scriptPubKey":{"asm":"OP_DUP OP_HASH160 94663191b35c746d9b53200027af769cfd8a5ec5 OP_EQUALVERIFY OP_CHECKSIG","reqSigs":1,"type":"pubkeyhash","addresses":["pK5Eddk3vr4yi7hrwuoQfuFmrHAeSuez22"]}}],"blockhash":"9b2913418afee45f8684529928d4220ea093dc7e32e242baf7fa81280d67053d","confirmations":273,"blocktime":1540680976}