{"hex":"0100000049fada5b01eb2ffa754fe11ee160622cb71e29a6e213ee239def0aed3cb7d0f8460ec4666e000000006a473044022062128284e8568e36bb73273b3ad338ecf89d18747b451d19612c7ceedcf61ca8022020032c09ba9e15322df863036125df8f7eabfcd2c8ad025807bdd59b1050e6fd0121029e857134122939a57279b02312e296a02bcf0cf876ddc541bd372450215dbeacffffffff02d0272c03000000001976a9149851dc03ecfc44d47567da063fd4e6399b780a6088ac4eafad00000000001976a914f341305764d7323f5262a496d79bf454b51386c688ac00000000","txid":"5f5461532e8d1e304ff0d8467754d6094e2119362a1f1b4d8f13f986a0e6dc54","version":1,"time":1541077584,"locktime":0,"vin":[{"txid":"6e66c40e46f8d0b73ced0aef9d23ee13e2a6291eb72c6260e11ee14f75fa2feb","vout":0,"scriptSig":{"asm":"3044022062128284e8568e36bb73273b3ad338ecf89d18747b451d19612c7ceedcf61ca8022020032c09ba9e15322df863036125df8f7eabfcd2c8ad025807bdd59b1050e6fd01 029e857134122939a57279b02312e296a02bcf0cf876ddc541bd372450215dbeac","hex":"473044022062128284e8568e36bb73273b3ad338ecf89d18747b451d19612c7ceedcf61ca8022020032c09ba9e15322df863036125df8f7eabfcd2c8ad025807bdd59b1050e6fd0121029e857134122939a57279b02312e296a02bcf0cf876ddc541bd372450215dbeac"},"sequence":4294967295}],"vout":[{"value":0.53225424,"n":0,"scriptPubKey":{"asm":"OP_DUP OP_HASH160 9851dc03ecfc44d47567da063fd4e6399b780a60 OP_EQUALVERIFY OP_CHECKSIG","reqSigs":1,"type":"pubkeyhash","addresses":["pKRxyZG4cmHcKNDstzhfxaLyeSmbAh6BxY"]}},{"value":0.11382606,"n":1,"scriptPubKey":{"asm":"OP_DUP OP_HASH160 f341305764d7323f5262a496d79bf454b51386c6 OP_EQUALVERIFY OP_CHECKSIG","reqSigs":1,"type":"pubkeyhash","addresses":["pTinVihz8GxVPnoXppUsPgHtBjKTJ33YNv"]}}],"blockhash":"f9a2504d8793187b16db2b8a9037251ea18b11325c2a30337f3bbdcc512830bc","confirmations":113,"blocktime":1541077584}