{"hex":"0100000050fada5b01c8482308dd9f2ddd40b5c0d4bc098b727d3325918c85998fedcc8befa14341330100000049483045022100a3f9275a637fb8220515861335b9c46e4535ef928bc2a9f6c4681c2e111a6baa022067bf91859c6bfcc078e66a2d933b22ddf0ab926805cc2f4be8758d3a8656b5e101ffffffff04000000000000000000401c0448070000002321028d9be6ae35cf9126d1ddd81f7e9a33d77e64d908c42bf417d6424ba1da9106a6ac2c651348070000002321028d9be6ae35cf9126d1ddd81f7e9a33d77e64d908c42bf417d6424ba1da9106a6acca250000000000001976a91466429c93e46136b2db3fe752c257b3dba5e7649c88ac00000000","txid":"7e12a6cd0c35c093c6338b3ed654f749fce5b734c5c73c50b518fb2af23a148b","version":1,"time":1541077584,"locktime":0,"vin":[{"txid":"334143a1ef8bcced8f99858c9125337d728b09bcd4c0b540dd2d9fdd082348c8","vout":1,"scriptSig":{"asm":"3045022100a3f9275a637fb8220515861335b9c46e4535ef928bc2a9f6c4681c2e111a6baa022067bf91859c6bfcc078e66a2d933b22ddf0ab926805cc2f4be8758d3a8656b5e101","hex":"483045022100a3f9275a637fb8220515861335b9c46e4535ef928bc2a9f6c4681c2e111a6baa022067bf91859c6bfcc078e66a2d933b22ddf0ab926805cc2f4be8758d3a8656b5e101"},"sequence":4294967295}],"vout":[{"value":0,"n":0,"scriptPubKey":{"asm":"","type":"nonstandard"}},{"value":312.73,"n":1,"scriptPubKey":{"asm":"028d9be6ae35cf9126d1ddd81f7e9a33d77e64d908c42bf417d6424ba1da9106a6 OP_CHECKSIG","reqSigs":1,"type":"pubkey","addresses":["pG17eAwgEzq6zQQ7cLzvCMepRqGYMprwdz"]}},{"value":312.74001708,"n":2,"scriptPubKey":{"asm":"028d9be6ae35cf9126d1ddd81f7e9a33d77e64d908c42bf417d6424ba1da9106a6 OP_CHECKSIG","reqSigs":1,"type":"pubkey","addresses":["pG17eAwgEzq6zQQ7cLzvCMepRqGYMprwdz"]}},{"value":0.00009674,"n":3,"scriptPubKey":{"asm":"OP_DUP OP_HASH160 66429c93e46136b2db3fe752c257b3dba5e7649c OP_EQUALVERIFY OP_CHECKSIG","reqSigs":1,"type":"pubkeyhash","addresses":["pEsGvXfg7BMJ91FueYCRJrpJCEzDnhWNzu"]}}],"blockhash":"f9a2504d8793187b16db2b8a9037251ea18b11325c2a30337f3bbdcc512830bc","confirmations":113,"blocktime":1541077584}