{"hex":"010000004d21db5b013d4363753753c38725fca8df21c94c10d547501ea21625741b2b7b6271bf60be000000006b48304502210091faedbb6bbffa882a240b16272ed1c59a7d4fd5034df4521db175955e8a466b022003ccab0bcc92d5ac2fc55c32dd3c45780035c069080967a938c06f29f60979f601210345e4fce093bc1434d688ae5cde257fa7b20c604ff129e1f8f297486190b7ceb2ffffffff025bf61000000000001976a91467c1f3674d48a0efefe88e1c8689a7c52d8a38c788aca1140000000000001976a914ab91903cb43f7a86c5fe23597032f840ae975a4088ac00000000","txid":"686f75ec082985f267425d1d14958dbcda8ca7646a232a976a7258bfefdf91ec","version":1,"time":1541087568,"locktime":0,"vin":[{"txid":"be60bf71627b2b1b742516a21e5047d5104cc921dfa8fc2587c353377563433d","vout":0,"scriptSig":{"asm":"304502210091faedbb6bbffa882a240b16272ed1c59a7d4fd5034df4521db175955e8a466b022003ccab0bcc92d5ac2fc55c32dd3c45780035c069080967a938c06f29f60979f601 0345e4fce093bc1434d688ae5cde257fa7b20c604ff129e1f8f297486190b7ceb2","hex":"48304502210091faedbb6bbffa882a240b16272ed1c59a7d4fd5034df4521db175955e8a466b022003ccab0bcc92d5ac2fc55c32dd3c45780035c069080967a938c06f29f60979f601210345e4fce093bc1434d688ae5cde257fa7b20c604ff129e1f8f297486190b7ceb2"},"sequence":4294967295}],"vout":[{"value":0.01111643,"n":0,"scriptPubKey":{"asm":"OP_DUP OP_HASH160 67c1f3674d48a0efefe88e1c8689a7c52d8a38c7 OP_EQUALVERIFY OP_CHECKSIG","reqSigs":1,"type":"pubkeyhash","addresses":["pF1C9QF7sAppiSu6LYmjWAF4xC7QD9vuhP"]}},{"value":0.00005281,"n":1,"scriptPubKey":{"asm":"OP_DUP OP_HASH160 ab91903cb43f7a86c5fe23597032f840ae975a40 OP_EQUALVERIFY OP_CHECKSIG","reqSigs":1,"type":"pubkeyhash","addresses":["pMBk8S3uHcFEbbXbzh7JAafnZGDYAiiwfx"]}}],"blockhash":"73f8d37711a36827189190b426ce110a0bafa7eab04fa8ab0d2cfe9d5cf72998","confirmations":98,"blocktime":1541087568}