{"hex":"010000005021db5b010bd72a00a183ea6106c05e57f472c3a76995dc1a72d2bfb75a1aa8687e8b246501000000494830450221009201835cefe4fdc49c5ac1df69071d4c127c6c435c6b9f512a980fea347611150220267d6ecd7ce0f26165443b9f2e621b8e0f99b54eb780fa4e73b05829146a030001ffffffff03000000000000000000e96ab1d1010000002321020b1cd26fc4b9f080aea1cf7b667efd5e8453f70429056589831fa7f63506ddbfac55000000000000001976a9144c86b0b2edcbbfcf0d0112bbb160a541568205b788ac00000000","txid":"741f768cfefa87de1360cf6273cb0c47338196dea1f52240634cf95d1f1bf12b","version":1,"time":1541087568,"locktime":0,"vin":[{"txid":"65248b7e68a81a5ab7bfd2721adc9569a7c372f4575ec00661ea83a1002ad70b","vout":1,"scriptSig":{"asm":"30450221009201835cefe4fdc49c5ac1df69071d4c127c6c435c6b9f512a980fea347611150220267d6ecd7ce0f26165443b9f2e621b8e0f99b54eb780fa4e73b05829146a030001","hex":"4830450221009201835cefe4fdc49c5ac1df69071d4c127c6c435c6b9f512a980fea347611150220267d6ecd7ce0f26165443b9f2e621b8e0f99b54eb780fa4e73b05829146a030001"},"sequence":4294967295}],"vout":[{"value":0,"n":0,"scriptPubKey":{"asm":"","type":"nonstandard"}},{"value":78.13032681,"n":1,"scriptPubKey":{"asm":"020b1cd26fc4b9f080aea1cf7b667efd5e8453f70429056589831fa7f63506ddbf OP_CHECKSIG","reqSigs":1,"type":"pubkey","addresses":["pECTDpfW4nW8hYte3f3F9ZQxwgWmBwmcYL"]}},{"value":8.5e-7,"n":2,"scriptPubKey":{"asm":"OP_DUP OP_HASH160 4c86b0b2edcbbfcf0d0112bbb160a541568205b7 OP_EQUALVERIFY OP_CHECKSIG","reqSigs":1,"type":"pubkeyhash","addresses":["pCXCuj4F9uaYHMue5Nqy3XLKdLz4U9gRoi"]}}],"blockhash":"73f8d37711a36827189190b426ce110a0bafa7eab04fa8ab0d2cfe9d5cf72998","confirmations":98,"blocktime":1541087568}