{"hex":"01000000703adb5b0144ac58389832913e09e99e449cc9e60f7267ad6724f93465d43efda9b68351cd0100000049483045022100e160698613cd869d40fe99c36b6055a16af25eb9468079d8028c923281f02c2b0220444abedcbe2c78a8884900d0963ceda09f307a8b0253892139fe9c67e43cc0e501ffffffff0300000000000000000089acb4d1010000002321020b1cd26fc4b9f080aea1cf7b667efd5e8453f70429056589831fa7f63506ddbfacf8ee0600000000001976a914b4297f2bb1ec22148c170ab2f943e6826c4d831d88ac00000000","txid":"3854f238eee40397e0e3544dcc4aaeb739834ee683c090880cdf454b7a4db2b0","version":1,"time":1541094000,"locktime":0,"vin":[{"txid":"cd5183b6a9fd3ed46534f92467ad67720fe6c99c449ee9093e9132983858ac44","vout":1,"scriptSig":{"asm":"3045022100e160698613cd869d40fe99c36b6055a16af25eb9468079d8028c923281f02c2b0220444abedcbe2c78a8884900d0963ceda09f307a8b0253892139fe9c67e43cc0e501","hex":"483045022100e160698613cd869d40fe99c36b6055a16af25eb9468079d8028c923281f02c2b0220444abedcbe2c78a8884900d0963ceda09f307a8b0253892139fe9c67e43cc0e501"},"sequence":4294967295}],"vout":[{"value":0,"n":0,"scriptPubKey":{"asm":"","type":"nonstandard"}},{"value":78.13246089,"n":1,"scriptPubKey":{"asm":"020b1cd26fc4b9f080aea1cf7b667efd5e8453f70429056589831fa7f63506ddbf OP_CHECKSIG","reqSigs":1,"type":"pubkey","addresses":["pECTDpfW4nW8hYte3f3F9ZQxwgWmBwmcYL"]}},{"value":0.00454392,"n":2,"scriptPubKey":{"asm":"OP_DUP OP_HASH160 b4297f2bb1ec22148c170ab2f943e6826c4d831d OP_EQUALVERIFY OP_CHECKSIG","reqSigs":1,"type":"pubkeyhash","addresses":["pMyBYUpcH3ehvzacvgmtahza4iSykvMcUD"]}}],"blockhash":"6290b73d560f5f9aef92990acb5ac33f256312d933c884e3d005d461ce391965","confirmations":87,"blocktime":1541094000}