{"hex":"01000000613adb5b032c5c921b02c8356aec28a9d3bcfa272b9bab9c77f74c622466c8e550c2aec129010000006b483045022100b4847963344a54dd9063120f1159e8c04cfe8959c04de7b1ce61b946f34dce0902205a8ddf4243171eb880b0fabfe2187b569e17e97373bc69db894aa75280d447d7012102f864a123d9fbc81835e230e72412dcb5da0ca25213255e9d2e2749f00c03fe1dfffffffff5dd15115a350ff71c6bdeec4d065ebb15fef933c5d70d6c6263386dd82130a0000000006b4830450221009d38852173e6acedb7ef0c602cc59f97ea558d25e48cfa71b026cf733acfd1a5022005550f5cc665f21df3c35d4d28216a8bba607a73a6ff7b465addb443d634a326012103c5a9356a26d838cf7d1f49c8d85bd8133235838a9c4c4a3427527cfc3aee472affffffff553ef332c40b190226c6da1fe1eb389241f8ed13398b5630246a33385f28f657000000006a47304402202e841d000268145ae6bea2962f97134b02368a1b16b34c3d6bf3f5ddd44de8160220249378f324a85eee25d04b2b9ef00dad68fc007da8bb4d5e73b8616599b6361301210287b59e71e41ea8de46acb373a6d8fc163285883947dd1c99407adaf9fc163b4affffffff0204531700000000001976a914694ddcfb4c915ab50a152bfff9ecfb91d2a395bc88ac6308dd1f000000001976a914a43c74d77f7ddfbbc7017db65e5686db308bb1bb88ac00000000","txid":"b074cf78df9a067f18a960ee5e99e88f4c2be1ff81d91e05831cde539a2be9dc","version":1,"time":1541094000,"locktime":0,"vin":[{"txid":"29c1aec250e5c86624624cf7779cab9b2b27fabcd3a928ec6a35c8021b925c2c","vout":1,"scriptSig":{"asm":"3045022100b4847963344a54dd9063120f1159e8c04cfe8959c04de7b1ce61b946f34dce0902205a8ddf4243171eb880b0fabfe2187b569e17e97373bc69db894aa75280d447d701 02f864a123d9fbc81835e230e72412dcb5da0ca25213255e9d2e2749f00c03fe1d","hex":"483045022100b4847963344a54dd9063120f1159e8c04cfe8959c04de7b1ce61b946f34dce0902205a8ddf4243171eb880b0fabfe2187b569e17e97373bc69db894aa75280d447d7012102f864a123d9fbc81835e230e72412dcb5da0ca25213255e9d2e2749f00c03fe1d"},"sequence":4294967295},{"txid":"a03021d86d3863626c0dd7c533f9fe15bb5e064decde6b1cf70f355a1115ddf5","vout":0,"scriptSig":{"asm":"30450221009d38852173e6acedb7ef0c602cc59f97ea558d25e48cfa71b026cf733acfd1a5022005550f5cc665f21df3c35d4d28216a8bba607a73a6ff7b465addb443d634a32601 03c5a9356a26d838cf7d1f49c8d85bd8133235838a9c4c4a3427527cfc3aee472a","hex":"4830450221009d38852173e6acedb7ef0c602cc59f97ea558d25e48cfa71b026cf733acfd1a5022005550f5cc665f21df3c35d4d28216a8bba607a73a6ff7b465addb443d634a326012103c5a9356a26d838cf7d1f49c8d85bd8133235838a9c4c4a3427527cfc3aee472a"},"sequence":4294967295},{"txid":"57f6285f38336a2430568b3913edf8419238ebe11fdac62602190bc432f33e55","vout":0,"scriptSig":{"asm":"304402202e841d000268145ae6bea2962f97134b02368a1b16b34c3d6bf3f5ddd44de8160220249378f324a85eee25d04b2b9ef00dad68fc007da8bb4d5e73b8616599b6361301 0287b59e71e41ea8de46acb373a6d8fc163285883947dd1c99407adaf9fc163b4a","hex":"47304402202e841d000268145ae6bea2962f97134b02368a1b16b34c3d6bf3f5ddd44de8160220249378f324a85eee25d04b2b9ef00dad68fc007da8bb4d5e73b8616599b6361301210287b59e71e41ea8de46acb373a6d8fc163285883947dd1c99407adaf9fc163b4a"},"sequence":4294967295}],"vout":[{"value":0.0152858,"n":0,"scriptPubKey":{"asm":"OP_DUP OP_HASH160 694ddcfb4c915ab50a152bfff9ecfb91d2a395bc OP_EQUALVERIFY OP_CHECKSIG","reqSigs":1,"type":"pubkeyhash","addresses":["pF9NRsu8PigZPQYt4ngvpuVjucmDt1yRZY"]}},{"value":5.34579299,"n":1,"scriptPubKey":{"asm":"OP_DUP OP_HASH160 a43c74d77f7ddfbbc7017db65e5686db308bb1bb OP_EQUALVERIFY OP_CHECKSIG","reqSigs":1,"type":"pubkeyhash","addresses":["pLWySkWWRLdxBqQdoyLnkbZcxtKEnpQWXs"]}}],"blockhash":"6290b73d560f5f9aef92990acb5ac33f256312d933c884e3d005d461ce391965","confirmations":87,"blocktime":1541094000}