{"hex":"0100000050b5d95b018beba6846b1d6550ceedbc9c277da1bb30ec664d117fa29cee39666eeb5fcbd8010000006b483045022100e6a3cf034597e614ab6838ee52c35c3b6547b855b6140836624b0660314b42e4022037748da3a0291f193bac2b1d116ac2e4e756571b6cacadeb963c99d53b18258e012102bbb1ce5e998c1d152b40dd69d0837159f0a5596b2f04ef3b887978a6cbada80cffffffff04000000000000000000004429353a000000232102bbb1ce5e998c1d152b40dd69d0837159f0a5596b2f04ef3b887978a6cbada80cacdc4929353a000000232102bbb1ce5e998c1d152b40dd69d0837159f0a5596b2f04ef3b887978a6cbada80cac34210000000000001976a91473471adebcd697ea1dc18e8db2582a74a6bab88188ac00000000","txid":"94da929bfe7621f288e852fa4462fa99a351daaaa4c3fdb2870400fd2e0cabfb","version":1,"time":1540994384,"locktime":0,"vin":[{"txid":"d8cb5feb6e6639ee9ca27f114d66ec30bba17d279cbcedce50651d6b84a6eb8b","vout":1,"scriptSig":{"asm":"3045022100e6a3cf034597e614ab6838ee52c35c3b6547b855b6140836624b0660314b42e4022037748da3a0291f193bac2b1d116ac2e4e756571b6cacadeb963c99d53b18258e01 02bbb1ce5e998c1d152b40dd69d0837159f0a5596b2f04ef3b887978a6cbada80c","hex":"483045022100e6a3cf034597e614ab6838ee52c35c3b6547b855b6140836624b0660314b42e4022037748da3a0291f193bac2b1d116ac2e4e756571b6cacadeb963c99d53b18258e012102bbb1ce5e998c1d152b40dd69d0837159f0a5596b2f04ef3b887978a6cbada80c"},"sequence":4294967295}],"vout":[{"value":0,"n":0,"scriptPubKey":{"asm":"","type":"nonstandard"}},{"value":2500,"n":1,"scriptPubKey":{"asm":"02bbb1ce5e998c1d152b40dd69d0837159f0a5596b2f04ef3b887978a6cbada80c OP_CHECKSIG","reqSigs":1,"type":"pubkey","addresses":["pNVoKczQ6P92yawDZejgg9H8khMTR2Sf2j"]}},{"value":2500.000015,"n":2,"scriptPubKey":{"asm":"02bbb1ce5e998c1d152b40dd69d0837159f0a5596b2f04ef3b887978a6cbada80c OP_CHECKSIG","reqSigs":1,"type":"pubkey","addresses":["pNVoKczQ6P92yawDZejgg9H8khMTR2Sf2j"]}},{"value":0.000085,"n":3,"scriptPubKey":{"asm":"OP_DUP OP_HASH160 73471adebcd697ea1dc18e8db2582a74a6bab881 OP_EQUALVERIFY OP_CHECKSIG","reqSigs":1,"type":"pubkeyhash","addresses":["pG476E2NDDXyKLQPSQr8zUwis1yY3UyfR9"]}}],"blockhash":"e12479cbb1c07bb03b13243e3ae8950f726ff86b345ce7c318481ec849f2de84","confirmations":142,"blocktime":1540994384}