{"hex":"010000004cb5d95b02e356fa8d896c1897f2d00cccd7106bf036afd7d8d90e3068df0f83b80a79176e0100000069463043022027972b1308d02663c1cb35acdf5a2fa756e595ec8106c3b7731df4dffeb2028b021f215e025503d20c6c552c9175551d9055f780060d6e2c3a810fd6df9d5f707c0121029e857134122939a57279b02312e296a02bcf0cf876ddc541bd372450215dbeacffffffff0d90f72e77986b5e527403a4a016354b50c50b4f4283d2024f0762de8a7910d7000000006b483045022100c333655098784f3608479c580073a26d7a614f5ac6d9853e9090e06235cb63b30220280c8c11982fdd8261e506d07485502283aa00be9471ea86373a28038aced70d01210361edad4bb078df772b3a0afd02999217847d95f2e746e3231019716990621df1ffffffff021d312100000000001976a914caf2ef10e549b8d75c5e21217255821a50eabc6d88ac80969800000000001976a9144c28ee798243702bc4500cdb4da9004130bb47f688ac00000000","txid":"95fb45db1d3d6b35c706c5ce0e98a8ab285e4a87ba065f7366ba87a278ef1ded","version":1,"time":1540994384,"locktime":0,"vin":[{"txid":"6e17790ab8830fdf68300ed9d8d7af36f06b10d7cc0cd0f297186c898dfa56e3","vout":1,"scriptSig":{"asm":"3043022027972b1308d02663c1cb35acdf5a2fa756e595ec8106c3b7731df4dffeb2028b021f215e025503d20c6c552c9175551d9055f780060d6e2c3a810fd6df9d5f707c01 029e857134122939a57279b02312e296a02bcf0cf876ddc541bd372450215dbeac","hex":"463043022027972b1308d02663c1cb35acdf5a2fa756e595ec8106c3b7731df4dffeb2028b021f215e025503d20c6c552c9175551d9055f780060d6e2c3a810fd6df9d5f707c0121029e857134122939a57279b02312e296a02bcf0cf876ddc541bd372450215dbeac"},"sequence":4294967295},{"txid":"d710798ade62074f02d283424f0bc5504b3516a0a40374525e6b98772ef7900d","vout":0,"scriptSig":{"asm":"3045022100c333655098784f3608479c580073a26d7a614f5ac6d9853e9090e06235cb63b30220280c8c11982fdd8261e506d07485502283aa00be9471ea86373a28038aced70d01 0361edad4bb078df772b3a0afd02999217847d95f2e746e3231019716990621df1","hex":"483045022100c333655098784f3608479c580073a26d7a614f5ac6d9853e9090e06235cb63b30220280c8c11982fdd8261e506d07485502283aa00be9471ea86373a28038aced70d01210361edad4bb078df772b3a0afd02999217847d95f2e746e3231019716990621df1"},"sequence":4294967295}],"vout":[{"value":0.02175261,"n":0,"scriptPubKey":{"asm":"OP_DUP OP_HASH160 caf2ef10e549b8d75c5e21217255821a50eabc6d OP_EQUALVERIFY OP_CHECKSIG","reqSigs":1,"type":"pubkeyhash","addresses":["pQ3fio5LvKBgCNzyAn2J8w89LrmhPSZaPa"]}},{"value":0.1,"n":1,"scriptPubKey":{"asm":"OP_DUP OP_HASH160 4c28ee798243702bc4500cdb4da9004130bb47f6 OP_EQUALVERIFY OP_CHECKSIG","reqSigs":1,"type":"pubkeyhash","addresses":["pCVGbFvFLapGyskXvwfxG2ss21bRU9FqUh"]}}],"blockhash":"e12479cbb1c07bb03b13243e3ae8950f726ff86b345ce7c318481ec849f2de84","confirmations":142,"blocktime":1540994384}