{"hex":"010000005ed2d45b01e229855d0b624fb24cf13d0bc457e7b66ced1855dccbb1019d54c3b65cd8ef16000000006a473044022066d91798d981579f987a8f15c1b9d2802fb09a284972cdb34b348bd258a39e8702207595c07b7d2cd9f0d478a05557b4dec4ac66c72921690f2f1c9a41ed69e461b1012102587712fadac2ccec8061ff53ff85912edcc1e70059b1e147ed526365a4f32ba0ffffffff02340a1100000000001976a914b2067a24fae81fbcefb73e16dd484f55874d04be88aca0860100000000001976a914ec12950ac569b86c549d98f06403cf4e17ed0f3e88ac00000000","txid":"71fc9c51c31656b9aef7c06f170ced8c4b1aeebe9072cb5978358dffdecc7594","version":1,"time":1540674144,"locktime":0,"vin":[{"txid":"16efd85cb6c3549d01b1cbdc5518ed6cb6e757c40b3df14cb24f620b5d8529e2","vout":0,"scriptSig":{"asm":"3044022066d91798d981579f987a8f15c1b9d2802fb09a284972cdb34b348bd258a39e8702207595c07b7d2cd9f0d478a05557b4dec4ac66c72921690f2f1c9a41ed69e461b101 02587712fadac2ccec8061ff53ff85912edcc1e70059b1e147ed526365a4f32ba0","hex":"473044022066d91798d981579f987a8f15c1b9d2802fb09a284972cdb34b348bd258a39e8702207595c07b7d2cd9f0d478a05557b4dec4ac66c72921690f2f1c9a41ed69e461b1012102587712fadac2ccec8061ff53ff85912edcc1e70059b1e147ed526365a4f32ba0"},"sequence":4294967295}],"vout":[{"value":0.01116724,"n":0,"scriptPubKey":{"asm":"OP_DUP OP_HASH160 b2067a24fae81fbcefb73e16dd484f55874d04be OP_EQUALVERIFY OP_CHECKSIG","reqSigs":1,"type":"pubkeyhash","addresses":["pMmtEtaGsMUr8E8jWr7VUWZNmZ84zHGfSp"]}},{"value":0.001,"n":1,"scriptPubKey":{"asm":"OP_DUP OP_HASH160 ec12950ac569b86c549d98f06403cf4e17ed0f3e OP_EQUALVERIFY OP_CHECKSIG","reqSigs":1,"type":"pubkeyhash","addresses":["pT4ow6EkJvbvBFA5GkVTfiHDEBUVzCN9Hv"]}}],"blockhash":"554693ad8f8872a544774539638a64e8194247550e9806ed397d2406fc760357","confirmations":279,"blocktime":1540674144}