{"hex":"0100000060d2d45b01a475759fe3ecc034c33ed37427f7d5043de9123c730750b39921799a2897a8900200000049483045022100ef204207b0243b502b5afbc4a3df04b101f356e2d3dd409b960f4369c412f04e02207bb0781a6ad5a24aacaa21ae7f7fb51ff32e58aa2d0f03a37416a8a6d69169b301ffffffff0400000000000000000000514a8d0e0000002321020b1cd26fc4b9f080aea1cf7b667efd5e8453f70429056589831fa7f63506ddbfacd8514a8d0e0000002321020b1cd26fc4b9f080aea1cf7b667efd5e8453f70429056589831fa7f63506ddbfac55000000000000001976a9147cf288aefa27580772a2e44d947f0a962553405d88ac00000000","txid":"97e8ca69da08f76e7d748639350f578ce62ab7c48ad0ddbc646be76f7f2acbde","version":1,"time":1540674144,"locktime":0,"vin":[{"txid":"90a897289a792199b35007733c12e93d04d5f72774d33ec334c0ece39f7575a4","vout":2,"scriptSig":{"asm":"3045022100ef204207b0243b502b5afbc4a3df04b101f356e2d3dd409b960f4369c412f04e02207bb0781a6ad5a24aacaa21ae7f7fb51ff32e58aa2d0f03a37416a8a6d69169b301","hex":"483045022100ef204207b0243b502b5afbc4a3df04b101f356e2d3dd409b960f4369c412f04e02207bb0781a6ad5a24aacaa21ae7f7fb51ff32e58aa2d0f03a37416a8a6d69169b301"},"sequence":4294967295}],"vout":[{"value":0,"n":0,"scriptPubKey":{"asm":"","type":"nonstandard"}},{"value":625,"n":1,"scriptPubKey":{"asm":"020b1cd26fc4b9f080aea1cf7b667efd5e8453f70429056589831fa7f63506ddbf OP_CHECKSIG","reqSigs":1,"type":"pubkey","addresses":["pECTDpfW4nW8hYte3f3F9ZQxwgWmBwmcYL"]}},{"value":625.00000216,"n":2,"scriptPubKey":{"asm":"020b1cd26fc4b9f080aea1cf7b667efd5e8453f70429056589831fa7f63506ddbf OP_CHECKSIG","reqSigs":1,"type":"pubkey","addresses":["pECTDpfW4nW8hYte3f3F9ZQxwgWmBwmcYL"]}},{"value":8.5e-7,"n":3,"scriptPubKey":{"asm":"OP_DUP OP_HASH160 7cf288aefa27580772a2e44d947f0a962553405d OP_EQUALVERIFY OP_CHECKSIG","reqSigs":1,"type":"pubkeyhash","addresses":["pGwEY3YdfsrsoLzpPy8zj5rEMTsKeC6Mb3"]}}],"blockhash":"554693ad8f8872a544774539638a64e8194247550e9806ed397d2406fc760357","confirmations":279,"blocktime":1540674144}