{"hex":"01000000a0bcd95b0124f0c901962f4eaa13519a3ad4f045e7c4ef45bdb3eb92735be7696bb88d3f6c0200000049483045022100fa9ee860c116d64f6d812635aebc90047a0a30226a4b0943c7b38ba857cbadf6022019867e9dad2ebe6fe9b3ab7f3f8279ee5b9d4e35bc6acc42721bc456978a7fef01ffffffff04000000000000000000805e1348070000002321028d9be6ae35cf9126d1ddd81f7e9a33d77e64d908c42bf417d6424ba1da9106a6ac90691348070000002321028d9be6ae35cf9126d1ddd81f7e9a33d77e64d908c42bf417d6424ba1da9106a6acad3e0000000000001976a91413cd926daa0b2e1422cabca27e3cbc3aebbee60e88ac00000000","txid":"366018fe8a4d125f06458431d1064108981851d0ed08b9e263397db0683a25d4","version":1,"time":1540996256,"locktime":0,"vin":[{"txid":"6c3f8db86b69e75b7392ebb3bd45efc4e745f0d43a9a5113aa4e2f9601c9f024","vout":2,"scriptSig":{"asm":"3045022100fa9ee860c116d64f6d812635aebc90047a0a30226a4b0943c7b38ba857cbadf6022019867e9dad2ebe6fe9b3ab7f3f8279ee5b9d4e35bc6acc42721bc456978a7fef01","hex":"483045022100fa9ee860c116d64f6d812635aebc90047a0a30226a4b0943c7b38ba857cbadf6022019867e9dad2ebe6fe9b3ab7f3f8279ee5b9d4e35bc6acc42721bc456978a7fef01"},"sequence":4294967295}],"vout":[{"value":0,"n":0,"scriptPubKey":{"asm":"","type":"nonstandard"}},{"value":312.74,"n":1,"scriptPubKey":{"asm":"028d9be6ae35cf9126d1ddd81f7e9a33d77e64d908c42bf417d6424ba1da9106a6 OP_CHECKSIG","reqSigs":1,"type":"pubkey","addresses":["pG17eAwgEzq6zQQ7cLzvCMepRqGYMprwdz"]}},{"value":312.74002832,"n":2,"scriptPubKey":{"asm":"028d9be6ae35cf9126d1ddd81f7e9a33d77e64d908c42bf417d6424ba1da9106a6 OP_CHECKSIG","reqSigs":1,"type":"pubkey","addresses":["pG17eAwgEzq6zQQ7cLzvCMepRqGYMprwdz"]}},{"value":0.00016045,"n":3,"scriptPubKey":{"asm":"OP_DUP OP_HASH160 13cd926daa0b2e1422cabca27e3cbc3aebbee60e OP_EQUALVERIFY OP_CHECKSIG","reqSigs":1,"type":"pubkeyhash","addresses":["p7MHJk1NCoVwVPjx7mEGWrpeSkLSYSZyuV"]}}],"blockhash":"f44cbc20e0d27da4c0db725bbcaeac4810a650d53c8cbd1ed4fa235cafb76ee6","confirmations":137,"blocktime":1540996256}