{"hex":"0100000092bcd95b03d0140c62412e44af278fbc0ccd07e12050829f0bfb558fe4aa2fd8397bd4c570010000006a473044022019efb3b946763cad3d27a39919dc60d3a0d14418bd73931c17dff7ea00114aa102204ffafc790a85611db8a637e13a134b447b88cd2ce6168ffd814af92b416455ec012102d3fa09cf49d9a7d6ff5a4fdbd7adc44d690a77b0be7bd9fa3f8bc0ed5fa44b25ffffffffaa9fb889f13b66692d281d2a39df5978d0a77591c6014cc17bb97eae3537059f000000006b483045022100ef5eade407cb9d13f7ff9c8ac9e75b99d758defb4bf587d522a8ea92b391e82e022069e821784d0c22e41a42d9d3bcf19489cb6dbd5ac2509ce6edb42aa61670edfa012103a4fdb242ccaea58101af80d13083fecdf5b5b91944f137e5b35424f750fe5320ffffffff9525b1713d197a2816a3864ae197b6e38e90611d5108004077792b086a03ebf0000000006b483045022100bf6042111255f8d9fc39d278034390f5bcb50c3e3d457d679c2aedc2878c12be022073c89be52e3f02b793f69f2b80f4569776328f2705ad07a3b7841bd7c0b1b16c0121035353554643dd87356c8fdc2f3bdab365736ee4277af939a6c76759255c4d1cbeffffffff02c5611200000000001976a914a61f5537956762f7e009620cda7a88178f74a43488ac6f0c2001000000001976a9146339105f72a326eaeddd807f6d6d0f83845e411088ac00000000","txid":"e0e78dea5d1e3ef26bbb6ec8057799c0be4fd5c7392cbf4b7acfd39a611dd327","version":1,"time":1540996256,"locktime":0,"vin":[{"txid":"70c5d47b39d82faae48f55fb0b9f825020e107cd0cbc8f27af442e41620c14d0","vout":1,"scriptSig":{"asm":"3044022019efb3b946763cad3d27a39919dc60d3a0d14418bd73931c17dff7ea00114aa102204ffafc790a85611db8a637e13a134b447b88cd2ce6168ffd814af92b416455ec01 02d3fa09cf49d9a7d6ff5a4fdbd7adc44d690a77b0be7bd9fa3f8bc0ed5fa44b25","hex":"473044022019efb3b946763cad3d27a39919dc60d3a0d14418bd73931c17dff7ea00114aa102204ffafc790a85611db8a637e13a134b447b88cd2ce6168ffd814af92b416455ec012102d3fa09cf49d9a7d6ff5a4fdbd7adc44d690a77b0be7bd9fa3f8bc0ed5fa44b25"},"sequence":4294967295},{"txid":"9f053735ae7eb97bc14c01c69175a7d07859df392a1d282d69663bf189b89faa","vout":0,"scriptSig":{"asm":"3045022100ef5eade407cb9d13f7ff9c8ac9e75b99d758defb4bf587d522a8ea92b391e82e022069e821784d0c22e41a42d9d3bcf19489cb6dbd5ac2509ce6edb42aa61670edfa01 03a4fdb242ccaea58101af80d13083fecdf5b5b91944f137e5b35424f750fe5320","hex":"483045022100ef5eade407cb9d13f7ff9c8ac9e75b99d758defb4bf587d522a8ea92b391e82e022069e821784d0c22e41a42d9d3bcf19489cb6dbd5ac2509ce6edb42aa61670edfa012103a4fdb242ccaea58101af80d13083fecdf5b5b91944f137e5b35424f750fe5320"},"sequence":4294967295},{"txid":"f0eb036a082b7977400008511d61908ee3b697e14a86a316287a193d71b12595","vout":0,"scriptSig":{"asm":"3045022100bf6042111255f8d9fc39d278034390f5bcb50c3e3d457d679c2aedc2878c12be022073c89be52e3f02b793f69f2b80f4569776328f2705ad07a3b7841bd7c0b1b16c01 035353554643dd87356c8fdc2f3bdab365736ee4277af939a6c76759255c4d1cbe","hex":"483045022100bf6042111255f8d9fc39d278034390f5bcb50c3e3d457d679c2aedc2878c12be022073c89be52e3f02b793f69f2b80f4569776328f2705ad07a3b7841bd7c0b1b16c0121035353554643dd87356c8fdc2f3bdab365736ee4277af939a6c76759255c4d1cbe"},"sequence":4294967295}],"vout":[{"value":0.01204677,"n":0,"scriptPubKey":{"asm":"OP_DUP OP_HASH160 a61f5537956762f7e009620cda7a88178f74a434 OP_EQUALVERIFY OP_CHECKSIG","reqSigs":1,"type":"pubkeyhash","addresses":["pLgwubXGaaFQu2PZ4f1UYwMdCFsULYcJXd"]}},{"value":0.18877551,"n":1,"scriptPubKey":{"asm":"OP_DUP OP_HASH160 6339105f72a326eaeddd807f6d6d0f83845e4110 OP_EQUALVERIFY OP_CHECKSIG","reqSigs":1,"type":"pubkeyhash","addresses":["pEbDTa1bJ4PnnqfE17iBnRHcV2PkxzMdrk"]}}],"blockhash":"f44cbc20e0d27da4c0db725bbcaeac4810a650d53c8cbd1ed4fa235cafb76ee6","confirmations":137,"blocktime":1540996256}