{"hex":"01000000a0cfd65b015abf35cadd5de6dd51876447a02531d43cd1288657cfd54254142783ad3176590100000049483045022100fc8ad683f806e3c597bfa463ccd174921a0c504ec6c0123bc2ef050dab3cfccd0220268f8125f77d1981d0b069f2b3ed00964030973c4954b75f8d6d53fa2f0a7dd501ffffffff03000000000000000000b5a9a1d1010000002321020b1cd26fc4b9f080aea1cf7b667efd5e8453f70429056589831fa7f63506ddbfaca8030000000000001976a914647e9b327f6e6cc3bcd2b98cb8a85fc3160d6a4588ac00000000","txid":"141059b170f470b811cb6ea12cc114c88c3dc38db4295e7d81171c8ce7b72be1","version":1,"time":1540804512,"locktime":0,"vin":[{"txid":"597631ad8327145442d5cf578628d13cd43125a047648751dde65dddca35bf5a","vout":1,"scriptSig":{"asm":"3045022100fc8ad683f806e3c597bfa463ccd174921a0c504ec6c0123bc2ef050dab3cfccd0220268f8125f77d1981d0b069f2b3ed00964030973c4954b75f8d6d53fa2f0a7dd501","hex":"483045022100fc8ad683f806e3c597bfa463ccd174921a0c504ec6c0123bc2ef050dab3cfccd0220268f8125f77d1981d0b069f2b3ed00964030973c4954b75f8d6d53fa2f0a7dd501"},"sequence":4294967295}],"vout":[{"value":0,"n":0,"scriptPubKey":{"asm":"","type":"nonstandard"}},{"value":78.12000181,"n":1,"scriptPubKey":{"asm":"020b1cd26fc4b9f080aea1cf7b667efd5e8453f70429056589831fa7f63506ddbf OP_CHECKSIG","reqSigs":1,"type":"pubkey","addresses":["pECTDpfW4nW8hYte3f3F9ZQxwgWmBwmcYL"]}},{"value":0.00000936,"n":2,"scriptPubKey":{"asm":"OP_DUP OP_HASH160 647e9b327f6e6cc3bcd2b98cb8a85fc3160d6a45 OP_EQUALVERIFY OP_CHECKSIG","reqSigs":1,"type":"pubkeyhash","addresses":["pEhwSeKiP8Q9UV5H4Vwts61nBy8VHfUUbd"]}}],"blockhash":"48b558937f96d0b364a90af62a99b52f0218f4c7abb8de3069013cae7c4c6f4a","confirmations":207,"blocktime":1540804512}