{"hex":"0100000097cfd65b028a6a8c03e903ca2dd32057725d9470f5f50a8e504a604436bc0722e672355ca9000000006a473044022024b91d2067be285bd1bc4e54531cb131794ccc85af2b45c9f44902f58467f53702201c3180a0cfe56fc1bc677c4e24375be2e9aa9bf36f22c42920510c76a124d9310121029e857134122939a57279b02312e296a02bcf0cf876ddc541bd372450215dbeacffffffff8a6a8c03e903ca2dd32057725d9470f5f50a8e504a604436bc0722e672355ca9010000006946304302204d010041e4ca522a5ed764c3d0f820d2275dbd92c75291b65a1e0a67546bba49021f677c692c7d965109c2962ebcedc3f151b6c8d40eb7fab34bc1ecc2bc5a682a0121021ffeef16b16c08a77cf76ed2422c71c53b1daf654a7f3591fabfe3f0716e41c8ffffffff021f191200000000001976a9144c28ee798243702bc4500cdb4da9004130bb47f688ac87d11000000000001976a914d075c0505ac78b078883234e2ea9b0db81a4c69888ac00000000","txid":"dbb24d106375d9de96cd1bd3d8a24eef610affa9077deddec0b1abaaefea47e4","version":1,"time":1540804512,"locktime":0,"vin":[{"txid":"a95c3572e62207bc3644604a508e0af5f570945d725720d32dca03e9038c6a8a","vout":0,"scriptSig":{"asm":"3044022024b91d2067be285bd1bc4e54531cb131794ccc85af2b45c9f44902f58467f53702201c3180a0cfe56fc1bc677c4e24375be2e9aa9bf36f22c42920510c76a124d93101 029e857134122939a57279b02312e296a02bcf0cf876ddc541bd372450215dbeac","hex":"473044022024b91d2067be285bd1bc4e54531cb131794ccc85af2b45c9f44902f58467f53702201c3180a0cfe56fc1bc677c4e24375be2e9aa9bf36f22c42920510c76a124d9310121029e857134122939a57279b02312e296a02bcf0cf876ddc541bd372450215dbeac"},"sequence":4294967295},{"txid":"a95c3572e62207bc3644604a508e0af5f570945d725720d32dca03e9038c6a8a","vout":1,"scriptSig":{"asm":"304302204d010041e4ca522a5ed764c3d0f820d2275dbd92c75291b65a1e0a67546bba49021f677c692c7d965109c2962ebcedc3f151b6c8d40eb7fab34bc1ecc2bc5a682a01 021ffeef16b16c08a77cf76ed2422c71c53b1daf654a7f3591fabfe3f0716e41c8","hex":"46304302204d010041e4ca522a5ed764c3d0f820d2275dbd92c75291b65a1e0a67546bba49021f677c692c7d965109c2962ebcedc3f151b6c8d40eb7fab34bc1ecc2bc5a682a0121021ffeef16b16c08a77cf76ed2422c71c53b1daf654a7f3591fabfe3f0716e41c8"},"sequence":4294967295}],"vout":[{"value":0.01186079,"n":0,"scriptPubKey":{"asm":"OP_DUP OP_HASH160 4c28ee798243702bc4500cdb4da9004130bb47f6 OP_EQUALVERIFY OP_CHECKSIG","reqSigs":1,"type":"pubkeyhash","addresses":["pCVGbFvFLapGyskXvwfxG2ss21bRU9FqUh"]}},{"value":0.01102215,"n":1,"scriptPubKey":{"asm":"OP_DUP OP_HASH160 d075c0505ac78b078883234e2ea9b0db81a4c698 OP_EQUALVERIFY OP_CHECKSIG","reqSigs":1,"type":"pubkeyhash","addresses":["pQYop737rN8YiMgVbD1hoJghs1SYPMwNMM"]}}],"blockhash":"48b558937f96d0b364a90af62a99b52f0218f4c7abb8de3069013cae7c4c6f4a","confirmations":207,"blocktime":1540804512}