{"hex":"0100000060e3d45b01591ca1f2acabe9572988b26f4046dec0554a4acbd8216a51c3766a4cc897e372020000004847304402204a0a7c0d73e4a3b8125eb5cd0406e795e8a3f4e485b95bdc89811e58dce9b10c022024f424f671e9d9350b676dc069a0fbc5c1e208452a4ab533edc2a7260d20840701ffffffff0400000000000000000000514a8d0e0000002321020b1cd26fc4b9f080aea1cf7b667efd5e8453f70429056589831fa7f63506ddbfacc2534a8d0e0000002321020b1cd26fc4b9f080aea1cf7b667efd5e8453f70429056589831fa7f63506ddbfac5f090000000000001976a9145e1d99381eb53300f76a3cc6299ce81c71d0c2f788ac00000000","txid":"2ab3c0fe04e65c6efbec3b2d809ba3472f3e7c55ca61daf2227ab31c47e28170","version":1,"time":1540678496,"locktime":0,"vin":[{"txid":"72e397c84c6a76c3516a21d8cb4a4a55c0de46406fb2882957e9abacf2a11c59","vout":2,"scriptSig":{"asm":"304402204a0a7c0d73e4a3b8125eb5cd0406e795e8a3f4e485b95bdc89811e58dce9b10c022024f424f671e9d9350b676dc069a0fbc5c1e208452a4ab533edc2a7260d20840701","hex":"47304402204a0a7c0d73e4a3b8125eb5cd0406e795e8a3f4e485b95bdc89811e58dce9b10c022024f424f671e9d9350b676dc069a0fbc5c1e208452a4ab533edc2a7260d20840701"},"sequence":4294967295}],"vout":[{"value":0,"n":0,"scriptPubKey":{"asm":"","type":"nonstandard"}},{"value":625,"n":1,"scriptPubKey":{"asm":"020b1cd26fc4b9f080aea1cf7b667efd5e8453f70429056589831fa7f63506ddbf OP_CHECKSIG","reqSigs":1,"type":"pubkey","addresses":["pECTDpfW4nW8hYte3f3F9ZQxwgWmBwmcYL"]}},{"value":625.00000706,"n":2,"scriptPubKey":{"asm":"020b1cd26fc4b9f080aea1cf7b667efd5e8453f70429056589831fa7f63506ddbf OP_CHECKSIG","reqSigs":1,"type":"pubkey","addresses":["pECTDpfW4nW8hYte3f3F9ZQxwgWmBwmcYL"]}},{"value":0.00002399,"n":3,"scriptPubKey":{"asm":"OP_DUP OP_HASH160 5e1d99381eb53300f76a3cc6299ce81c71d0c2f7 OP_EQUALVERIFY OP_CHECKSIG","reqSigs":1,"type":"pubkeyhash","addresses":["pE8DBH6VheNWCoBfLHY8coXmUqVnKuU1Z8"]}}],"blockhash":"6964c91c1f9342c4c8611530b52723a6fa95296643bd54facdbe7497439590a1","confirmations":277,"blocktime":1540678496}