{"hex":"0100000056e3d45b044f32b73c4f0627c087fc3cb236f83d4dcfa8aefbdfaeabe30fe10e89a0880b5f010000006a47304402201a9d7a45efa27ed30e002eceb01b5900bcb245d30fed93e99cc778d49c2007fb0220455baa9ade353e0e892e5047a175902b72df26cb7869a2abd9d2eaeebd7e4d1e012103027524c68ab764959f4bfc01811ff7cfd671d0142af694e20e40c817e76276a2ffffffff4f3069e0b1f7b1f6c7ab9a623a8ea4fd26d38ac082788d5042a8b92815138a7a000000006a473044022003854fb39a56dac02277879395dc7ceba2d0e5b86f1f506d172a53766b0b04d702206ced3f7243f591a4acd6d76a0a18f61db8c9a5d8f5625f21920d9524726bddf3012102587712fadac2ccec8061ff53ff85912edcc1e70059b1e147ed526365a4f32ba0ffffffff4f3069e0b1f7b1f6c7ab9a623a8ea4fd26d38ac082788d5042a8b92815138a7a010000006b483045022100ce06023e77dad90ba5963ede520099914dd5695aeb8a1992ce4189ff8ff6391a02203f32e40d3b0b9bc975d087b5c4899451927596abd95ed6c8e5b3804caf477e17012103f5cbc0ceafa1140053e4a9da7cdebecc65bffb360618ed524c4e545956de60d1ffffffff9475ccdeff8d357859cb7290beee1a4b8ced0c176fc0f7aeb95616c3519cfc71000000006b483045022100e6918c8177435647508556b7e3fb3faf7810d8ab1acdd1cf52ae320225ab7069022015f8aafc34d65f6b2186c93b2e864ef0f5a642ac523bd3c66bcfbdcdaeabc6b7012102587712fadac2ccec8061ff53ff85912edcc1e70059b1e147ed526365a4f32ba0ffffffff0253800f00000000001976a914297a3466bbad7079e9dea29a5722c353dd2cd5ae88ac07142b00000000001976a91483eedcdbbde6bfeb7957f260555a00500cc53c8e88ac00000000","txid":"6fdf057565a990070364af8a2e3396c19252d0940670498537ff01587da08e7f","version":1,"time":1540678496,"locktime":0,"vin":[{"txid":"5f0b88a0890ee10fe3abaedffbaea8cf4d3df836b23cfc87c027064f3cb7324f","vout":1,"scriptSig":{"asm":"304402201a9d7a45efa27ed30e002eceb01b5900bcb245d30fed93e99cc778d49c2007fb0220455baa9ade353e0e892e5047a175902b72df26cb7869a2abd9d2eaeebd7e4d1e01 03027524c68ab764959f4bfc01811ff7cfd671d0142af694e20e40c817e76276a2","hex":"47304402201a9d7a45efa27ed30e002eceb01b5900bcb245d30fed93e99cc778d49c2007fb0220455baa9ade353e0e892e5047a175902b72df26cb7869a2abd9d2eaeebd7e4d1e012103027524c68ab764959f4bfc01811ff7cfd671d0142af694e20e40c817e76276a2"},"sequence":4294967295},{"txid":"7a8a131528b9a842508d7882c08ad326fda48e3a629aabc7f6b1f7b1e069304f","vout":0,"scriptSig":{"asm":"3044022003854fb39a56dac02277879395dc7ceba2d0e5b86f1f506d172a53766b0b04d702206ced3f7243f591a4acd6d76a0a18f61db8c9a5d8f5625f21920d9524726bddf301 02587712fadac2ccec8061ff53ff85912edcc1e70059b1e147ed526365a4f32ba0","hex":"473044022003854fb39a56dac02277879395dc7ceba2d0e5b86f1f506d172a53766b0b04d702206ced3f7243f591a4acd6d76a0a18f61db8c9a5d8f5625f21920d9524726bddf3012102587712fadac2ccec8061ff53ff85912edcc1e70059b1e147ed526365a4f32ba0"},"sequence":4294967295},{"txid":"7a8a131528b9a842508d7882c08ad326fda48e3a629aabc7f6b1f7b1e069304f","vout":1,"scriptSig":{"asm":"3045022100ce06023e77dad90ba5963ede520099914dd5695aeb8a1992ce4189ff8ff6391a02203f32e40d3b0b9bc975d087b5c4899451927596abd95ed6c8e5b3804caf477e1701 03f5cbc0ceafa1140053e4a9da7cdebecc65bffb360618ed524c4e545956de60d1","hex":"483045022100ce06023e77dad90ba5963ede520099914dd5695aeb8a1992ce4189ff8ff6391a02203f32e40d3b0b9bc975d087b5c4899451927596abd95ed6c8e5b3804caf477e17012103f5cbc0ceafa1140053e4a9da7cdebecc65bffb360618ed524c4e545956de60d1"},"sequence":4294967295},{"txid":"71fc9c51c31656b9aef7c06f170ced8c4b1aeebe9072cb5978358dffdecc7594","vout":0,"scriptSig":{"asm":"3045022100e6918c8177435647508556b7e3fb3faf7810d8ab1acdd1cf52ae320225ab7069022015f8aafc34d65f6b2186c93b2e864ef0f5a642ac523bd3c66bcfbdcdaeabc6b701 02587712fadac2ccec8061ff53ff85912edcc1e70059b1e147ed526365a4f32ba0","hex":"483045022100e6918c8177435647508556b7e3fb3faf7810d8ab1acdd1cf52ae320225ab7069022015f8aafc34d65f6b2186c93b2e864ef0f5a642ac523bd3c66bcfbdcdaeabc6b7012102587712fadac2ccec8061ff53ff85912edcc1e70059b1e147ed526365a4f32ba0"},"sequence":4294967295}],"vout":[{"value":0.01015891,"n":0,"scriptPubKey":{"asm":"OP_DUP OP_HASH160 297a3466bbad7079e9dea29a5722c353dd2cd5ae OP_EQUALVERIFY OP_CHECKSIG","reqSigs":1,"type":"pubkeyhash","addresses":["p9KtJW3GGuEnN3rQ8cbCNgFYd1cG66YBiD"]}},{"value":0.02823175,"n":1,"scriptPubKey":{"asm":"OP_DUP OP_HASH160 83eedcdbbde6bfeb7957f260555a00500cc53c8e OP_EQUALVERIFY OP_CHECKSIG","reqSigs":1,"type":"pubkeyhash","addresses":["pHaAsJrUYo1rZjLeoXkqeFXkuMxnWSy1nj"]}}],"blockhash":"6964c91c1f9342c4c8611530b52723a6fa95296643bd54facdbe7497439590a1","confirmations":277,"blocktime":1540678496}