{"hex":"01000000e9a0c25b010000000000000000000000000000000000000000000000000000000000000000ffffffff04012a0102ffffffff0100000000000000001976a91491fc2b3bf9b19b8d8210e0e94029ed5a79560f9088ac00000000","txid":"6e66e0b6668483068eced72caa4d1306133595a0d76ebc90b865b8b2763354e1","version":1,"time":1539481836,"locktime":0,"vin":[{"coinbase":"012a0102","sequence":4294967295}],"vout":[{"value":0,"n":0,"scriptPubKey":{"asm":"OP_DUP OP_HASH160 91fc2b3bf9b19b8d8210e0e94029ed5a79560f90 OP_EQUALVERIFY OP_CHECKSIG","reqSigs":1,"type":"pubkeyhash","addresses":["pJrUGXEr1oG3SXn345fudcWC8wazfJDq6W"]}}],"blockhash":"00000007e48a386c5eec0cd06815623986bcd10d19d8a3e26e0d693df64e2710","confirmations":117,"blocktime":1539481836}