{"hex":"01000000ae70d85b022a63fef32f7bab973d4aa3c8d9951c83332996acd15a0f3f9c0456c7800e46f3000000006b483045022100a27f74a7437ad5bc0236c47e9f1120d3a3ee97a4c20cab46d2516c370896411b02205562c3ff2d207c1c8f38c55a51969061d5838911c4483ff09dc96536ed006c6f012102ff869a9d94b2597607804c2fb077abd2831916ac0be4874f26b2916c6aa40597ffffffff2a63fef32f7bab973d4aa3c8d9951c83332996acd15a0f3f9c0456c7800e46f3010000006a473044022067f089f7b35675387233fc7d848bcc94ea8ca9435dedb0aa3ec3c5b17fb26a5b0220419198c7de0b529ebafe22a54b749384372815a6bd036f830d978555f9afc5fc0121036f213ca3543c469d6a8b2341b1c806168a795f51fd97ac588efd480ca12ef5e7ffffffff0211491f00000000001976a91404dc64790dd1eb9581e7deb6c7f6906d4a143b6488ac7549fc01000000001976a9148a9ced3c6ff582b306c5b6130c42ab5c266a862788ac00000000","txid":"18d9ef20f9d136361b2fb25d7e85a0516f80dea504a17050ea2ed86e02f32455","version":1,"time":1540911280,"locktime":0,"vin":[{"txid":"f3460e80c756049c3f0f5ad1ac962933831c95d9c8a34a3d97ab7b2ff3fe632a","vout":0,"scriptSig":{"asm":"3045022100a27f74a7437ad5bc0236c47e9f1120d3a3ee97a4c20cab46d2516c370896411b02205562c3ff2d207c1c8f38c55a51969061d5838911c4483ff09dc96536ed006c6f01 02ff869a9d94b2597607804c2fb077abd2831916ac0be4874f26b2916c6aa40597","hex":"483045022100a27f74a7437ad5bc0236c47e9f1120d3a3ee97a4c20cab46d2516c370896411b02205562c3ff2d207c1c8f38c55a51969061d5838911c4483ff09dc96536ed006c6f012102ff869a9d94b2597607804c2fb077abd2831916ac0be4874f26b2916c6aa40597"},"sequence":4294967295},{"txid":"f3460e80c756049c3f0f5ad1ac962933831c95d9c8a34a3d97ab7b2ff3fe632a","vout":1,"scriptSig":{"asm":"3044022067f089f7b35675387233fc7d848bcc94ea8ca9435dedb0aa3ec3c5b17fb26a5b0220419198c7de0b529ebafe22a54b749384372815a6bd036f830d978555f9afc5fc01 036f213ca3543c469d6a8b2341b1c806168a795f51fd97ac588efd480ca12ef5e7","hex":"473044022067f089f7b35675387233fc7d848bcc94ea8ca9435dedb0aa3ec3c5b17fb26a5b0220419198c7de0b529ebafe22a54b749384372815a6bd036f830d978555f9afc5fc0121036f213ca3543c469d6a8b2341b1c806168a795f51fd97ac588efd480ca12ef5e7"},"sequence":4294967295}],"vout":[{"value":0.02050321,"n":0,"scriptPubKey":{"asm":"OP_DUP OP_HASH160 04dc64790dd1eb9581e7deb6c7f6906d4a143b64 OP_EQUALVERIFY OP_CHECKSIG","reqSigs":1,"type":"pubkeyhash","addresses":["p5zGvcMGJq69Lv8izbMAyqkSVfriq1pDQh"]}},{"value":0.33311093,"n":1,"scriptPubKey":{"asm":"OP_DUP OP_HASH160 8a9ced3c6ff582b306c5b6130c42ab5c266a8627 OP_EQUALVERIFY OP_CHECKSIG","reqSigs":1,"type":"pubkeyhash","addresses":["pJBVSdswfEb3zWcjZCU1nKxPqgGs3Hnf1U"]}}],"blockhash":"55bc5329c56da467e18879d7edf5d500a58bdea43de3721d82a98a4d8fd43578","confirmations":166,"blocktime":1540911280}