{"hex":"01000000b070d85b01524f0095dc14edd6a4bfc74be8ebb72b151592811815aa9b75f15302b262c35d0100000048473044022009fc00df99a7b9235b477c0f966be1063aca3d94988ced6054af21297b6370ef022022d5f66c29f7e30c1afd9583c9d5aceb9df4e07b3a0d92557f07436689fb21b501ffffffff0300000000000000000085bca1d1010000002321020b1cd26fc4b9f080aea1cf7b667efd5e8453f70429056589831fa7f63506ddbfac9a6e0000000000001976a91405799d876e3b7c328ae01baece26d0f931b0f5fa88ac00000000","txid":"79efc6951edfb4bc12e5020f8a219f5bc1ef6cd8b764a21f1d4613faa72beaaf","version":1,"time":1540911280,"locktime":0,"vin":[{"txid":"5dc362b20253f1759baa1518819215152bb7ebe84bc7bfa4d6ed14dc95004f52","vout":1,"scriptSig":{"asm":"3044022009fc00df99a7b9235b477c0f966be1063aca3d94988ced6054af21297b6370ef022022d5f66c29f7e30c1afd9583c9d5aceb9df4e07b3a0d92557f07436689fb21b501","hex":"473044022009fc00df99a7b9235b477c0f966be1063aca3d94988ced6054af21297b6370ef022022d5f66c29f7e30c1afd9583c9d5aceb9df4e07b3a0d92557f07436689fb21b501"},"sequence":4294967295}],"vout":[{"value":0,"n":0,"scriptPubKey":{"asm":"","type":"nonstandard"}},{"value":78.12004997,"n":1,"scriptPubKey":{"asm":"020b1cd26fc4b9f080aea1cf7b667efd5e8453f70429056589831fa7f63506ddbf OP_CHECKSIG","reqSigs":1,"type":"pubkey","addresses":["pECTDpfW4nW8hYte3f3F9ZQxwgWmBwmcYL"]}},{"value":0.00028314,"n":2,"scriptPubKey":{"asm":"OP_DUP OP_HASH160 05799d876e3b7c328ae01baece26d0f931b0f5fa OP_EQUALVERIFY OP_CHECKSIG","reqSigs":1,"type":"pubkeyhash","addresses":["p63XGeVRkcywXEQJE5bkXjJFiugf8tT1er"]}}],"blockhash":"55bc5329c56da467e18879d7edf5d500a58bdea43de3721d82a98a4d8fd43578","confirmations":166,"blocktime":1540911280}