{"hex":"010000009099dc5b012abd27b9506dedd225289a768b495650211262ec324cb89453b206f1d8998009010000004847304402202fab9ff0fe22fb69825d6884f5fb86c86e9f34e8c2f3f427aa464bf83473a56d0220286a31de8b2b6e1b32d83f0e572ab1f0be8fcb6fae6981b38306e74a42da40b201ffffffff04000000000000000000c0780cd20100000023210348b24f77eda58d2bf0bd56f764cfdeb0100d2f1058b2d5318f2f2fc9670e730eac0fbb1bd20100000023210348b24f77eda58d2bf0bd56f764cfdeb0100d2f1058b2d5318f2f2fc9670e730eac55000000000000001976a914256b9b540806ec78f3cbc6d37188a2e1504616e688ac00000000","txid":"5bc8218f36fed147897a3d988de4ceb6cdf4aedfc0ef9fe7924d1894a2d00a0c","version":1,"time":1541183888,"locktime":0,"vin":[{"txid":"098099d8f106b25394b84c32ec6212215056498b769a2825d2ed6d50b927bd2a","vout":1,"scriptSig":{"asm":"304402202fab9ff0fe22fb69825d6884f5fb86c86e9f34e8c2f3f427aa464bf83473a56d0220286a31de8b2b6e1b32d83f0e572ab1f0be8fcb6fae6981b38306e74a42da40b201","hex":"47304402202fab9ff0fe22fb69825d6884f5fb86c86e9f34e8c2f3f427aa464bf83473a56d0220286a31de8b2b6e1b32d83f0e572ab1f0be8fcb6fae6981b38306e74a42da40b201"},"sequence":4294967295}],"vout":[{"value":0,"n":0,"scriptPubKey":{"asm":"","type":"nonstandard"}},{"value":78.19,"n":1,"scriptPubKey":{"asm":"0348b24f77eda58d2bf0bd56f764cfdeb0100d2f1058b2d5318f2f2fc9670e730e OP_CHECKSIG","reqSigs":1,"type":"pubkey","addresses":["p8X7huKtvdnnDzc17Xcxxh1Z9ww8ckxvVJ"]}},{"value":78.20000015,"n":2,"scriptPubKey":{"asm":"0348b24f77eda58d2bf0bd56f764cfdeb0100d2f1058b2d5318f2f2fc9670e730e OP_CHECKSIG","reqSigs":1,"type":"pubkey","addresses":["p8X7huKtvdnnDzc17Xcxxh1Z9ww8ckxvVJ"]}},{"value":8.5e-7,"n":3,"scriptPubKey":{"asm":"OP_DUP OP_HASH160 256b9b540806ec78f3cbc6d37188a2e1504616e6 OP_EQUALVERIFY OP_CHECKSIG","reqSigs":1,"type":"pubkeyhash","addresses":["p8xS7T8mkTz7MJV9EcYkBri1Zi12wCV83N"]}}],"blockhash":"82450972e0d8f9938b11d1f83ba8755e5f2b71b085b636f913234167c225abc4","confirmations":59,"blocktime":1541183888}