{"hex":"010000008b99dc5b0161c3afe269b7097d6d6e059862bfd8c5b299fb2bfadefdb1dad267dce91f16f3000000006a47304402207a60aa3e662965776102b3370f65be22fb82770af0ab102675e63dc4209b69c002205795ef61edf7128ab80ef62575f7fe3e7df243b2d4ec9d88df6045530a1cd07c012103cd616e3bfb97faade9188e55e9bc4473f3c5942bdb4a3328aae23b184d8004f7ffffffff02cf211200000000001976a914c43994dd2aad4a6febb09f7b4172ed4c0589f7d088ac30430000000000001976a914be3c9281f0ad98f01a9875bb2eaebafe6d4c088e88ac00000000","txid":"54bbab737751fb63578c512138c677375fabdccf0135e2d0bd679ed7734544d7","version":1,"time":1541183888,"locktime":0,"vin":[{"txid":"f3161fe9dc67d2dab1fddefa2bfb99b2c5d8bf6298056e6d7d09b769e2afc361","vout":0,"scriptSig":{"asm":"304402207a60aa3e662965776102b3370f65be22fb82770af0ab102675e63dc4209b69c002205795ef61edf7128ab80ef62575f7fe3e7df243b2d4ec9d88df6045530a1cd07c01 03cd616e3bfb97faade9188e55e9bc4473f3c5942bdb4a3328aae23b184d8004f7","hex":"47304402207a60aa3e662965776102b3370f65be22fb82770af0ab102675e63dc4209b69c002205795ef61edf7128ab80ef62575f7fe3e7df243b2d4ec9d88df6045530a1cd07c012103cd616e3bfb97faade9188e55e9bc4473f3c5942bdb4a3328aae23b184d8004f7"},"sequence":4294967295}],"vout":[{"value":0.01188303,"n":0,"scriptPubKey":{"asm":"OP_DUP OP_HASH160 c43994dd2aad4a6febb09f7b4172ed4c0589f7d0 OP_EQUALVERIFY OP_CHECKSIG","reqSigs":1,"type":"pubkeyhash","addresses":["pPS7d8uHXck7dPwX9U8qx4VYjgFMmecHDU"]}},{"value":0.000172,"n":1,"scriptPubKey":{"asm":"OP_DUP OP_HASH160 be3c9281f0ad98f01a9875bb2eaebafe6d4c088e OP_EQUALVERIFY OP_CHECKSIG","reqSigs":1,"type":"pubkeyhash","addresses":["pNtT9nnRJVmcn1jePgEtP9vqZQTbLx31GX"]}}],"blockhash":"82450972e0d8f9938b11d1f83ba8755e5f2b71b085b636f913234167c225abc4","confirmations":59,"blocktime":1541183888}