{"hex":"01000000002dd15b01fe067f4f3585601a0a62cd11cc64fbea79108b0c615f4e6cb2b49d24134f3f8402000000484730440220373958a20d4a98eeeca51c064e50e6d270070795634fa977d8b87c2b99ccdae302204ea7012cbf3d75be7e44810326d159b9d21551dc8bb16411b5dbab3c8e2d918601ffffffff04000000000000000000c021aea30300000023210348b24f77eda58d2bf0bd56f764cfdeb0100d2f1058b2d5318f2f2fc9670e730eaced69bda30300000023210348b24f77eda58d2bf0bd56f764cfdeb0100d2f1058b2d5318f2f2fc9670e730eac5a000000000000001976a914a539c7c64804ba10293866c3433100eabbe41ccf88ac00000000","txid":"38c85670ed6d414559e782e3dbafe06554f9316ec5175091118ac5a721f72fc1","version":1,"time":1540435200,"locktime":0,"vin":[{"txid":"843f4f13249db4b26c4e5f610c8b1079eafb64cc11cd620a1a6085354f7f06fe","vout":2,"scriptSig":{"asm":"30440220373958a20d4a98eeeca51c064e50e6d270070795634fa977d8b87c2b99ccdae302204ea7012cbf3d75be7e44810326d159b9d21551dc8bb16411b5dbab3c8e2d918601","hex":"4730440220373958a20d4a98eeeca51c064e50e6d270070795634fa977d8b87c2b99ccdae302204ea7012cbf3d75be7e44810326d159b9d21551dc8bb16411b5dbab3c8e2d918601"},"sequence":4294967295}],"vout":[{"value":0,"n":0,"scriptPubKey":{"asm":"","type":"nonstandard"}},{"value":156.31,"n":1,"scriptPubKey":{"asm":"0348b24f77eda58d2bf0bd56f764cfdeb0100d2f1058b2d5318f2f2fc9670e730e OP_CHECKSIG","reqSigs":1,"type":"pubkey","addresses":["p8X7huKtvdnnDzc17Xcxxh1Z9ww8ckxvVJ"]}},{"value":156.32001517,"n":2,"scriptPubKey":{"asm":"0348b24f77eda58d2bf0bd56f764cfdeb0100d2f1058b2d5318f2f2fc9670e730e OP_CHECKSIG","reqSigs":1,"type":"pubkey","addresses":["p8X7huKtvdnnDzc17Xcxxh1Z9ww8ckxvVJ"]}},{"value":9e-7,"n":3,"scriptPubKey":{"asm":"OP_DUP OP_HASH160 a539c7c64804ba10293866c3433100eabbe41ccf OP_EQUALVERIFY OP_CHECKSIG","reqSigs":1,"type":"pubkeyhash","addresses":["pLcCv1RBNEWf4q17fiPMGMYqeFUvP9a826"]}}],"blockhash":"3f5b507129314b6ec37817d4e96d93b49b6a0c0c91ec36308c8bf2b3571f5f0d","confirmations":290,"blocktime":1540435200}