{"hex":"01000000f32cd15b02b912867af6d714888665135640e04479c009c4df74bd011cb548f42a27f46cd4000000006a47304402207fa80c057023e62f51419e4b89b91d615789b4d9a5558ed528cd558c58f41fd2022023716cc067349ba5d3b311dff367e968cb08f77ab47a96fc11c8f679cb03af5e0121029e857134122939a57279b02312e296a02bcf0cf876ddc541bd372450215dbeacffffffffb912867af6d714888665135640e04479c009c4df74bd011cb548f42a27f46cd4010000006b483045022100ba538d02fcaf9a7802fc66cc361f8f6d075222cedfff072e0cae9111526ba45e02204c40bbba6693c15b3a230098d6cac372cf384e57dac486780520b9baf3f9a86901210313fabc9509b89fb8d04ccb3ad31bef2562458da1969be726d8086e806680b187ffffffff02ac681000000000001976a9144c28ee798243702bc4500cdb4da9004130bb47f688ac1aa40100000000001976a9144c3d3fd260b170417b827fae4739db1b0559ed7188ac00000000","txid":"d5520d8b5ed2b36f0c5a86c3f84cf5c84d03e0fe3399d11ec68235291deeae4b","version":1,"time":1540435200,"locktime":0,"vin":[{"txid":"d46cf4272af448b51c01bd74dfc409c07944e040561365868814d7f67a8612b9","vout":0,"scriptSig":{"asm":"304402207fa80c057023e62f51419e4b89b91d615789b4d9a5558ed528cd558c58f41fd2022023716cc067349ba5d3b311dff367e968cb08f77ab47a96fc11c8f679cb03af5e01 029e857134122939a57279b02312e296a02bcf0cf876ddc541bd372450215dbeac","hex":"47304402207fa80c057023e62f51419e4b89b91d615789b4d9a5558ed528cd558c58f41fd2022023716cc067349ba5d3b311dff367e968cb08f77ab47a96fc11c8f679cb03af5e0121029e857134122939a57279b02312e296a02bcf0cf876ddc541bd372450215dbeac"},"sequence":4294967295},{"txid":"d46cf4272af448b51c01bd74dfc409c07944e040561365868814d7f67a8612b9","vout":1,"scriptSig":{"asm":"3045022100ba538d02fcaf9a7802fc66cc361f8f6d075222cedfff072e0cae9111526ba45e02204c40bbba6693c15b3a230098d6cac372cf384e57dac486780520b9baf3f9a86901 0313fabc9509b89fb8d04ccb3ad31bef2562458da1969be726d8086e806680b187","hex":"483045022100ba538d02fcaf9a7802fc66cc361f8f6d075222cedfff072e0cae9111526ba45e02204c40bbba6693c15b3a230098d6cac372cf384e57dac486780520b9baf3f9a86901210313fabc9509b89fb8d04ccb3ad31bef2562458da1969be726d8086e806680b187"},"sequence":4294967295}],"vout":[{"value":0.01075372,"n":0,"scriptPubKey":{"asm":"OP_DUP OP_HASH160 4c28ee798243702bc4500cdb4da9004130bb47f6 OP_EQUALVERIFY OP_CHECKSIG","reqSigs":1,"type":"pubkeyhash","addresses":["pCVGbFvFLapGyskXvwfxG2ss21bRU9FqUh"]}},{"value":0.00107546,"n":1,"scriptPubKey":{"asm":"OP_DUP OP_HASH160 4c3d3fd260b170417b827fae4739db1b0559ed71 OP_EQUALVERIFY OP_CHECKSIG","reqSigs":1,"type":"pubkeyhash","addresses":["pCVgvxgi85xFqmxXBNCpythbRaLG95vqkK"]}}],"blockhash":"3f5b507129314b6ec37817d4e96d93b49b6a0c0c91ec36308c8bf2b3571f5f0d","confirmations":290,"blocktime":1540435200}