{"hex":"010000006d9ce05b014e73b7a6ba1269a353cd6404d484f83de1e967c3de8098fc200e56ab99e92700010000006b483045022100f2c70bc99115690e8b6b3eded2300db68b8d9ba381de9111358603fe45ed096102203da42df1d99270a69376858bec479c6d854ade921c63eedde32737b699b517f101210229cfa76d356056e0f3f37e9301e2126641fd0a3251266a73c56f49ba0e1b7b9effffffff029f80ac5b020000001976a914b013d0bbfb6d44f3ba0eb41da02f2a644189254e88ac5b79ea21000000001976a914d77cc2e4cfa139eae920916f705f515214ae766588ac00000000","txid":"894c56899900a4f23366ad0c10940d40a793149125a2ce65bc6a3b7644f515db","version":1,"time":1541446768,"locktime":0,"vin":[{"txid":"0027e999ab560e20fc9880dec367e9e13df884d40464cd53a36912baa6b7734e","vout":1,"scriptSig":{"asm":"3045022100f2c70bc99115690e8b6b3eded2300db68b8d9ba381de9111358603fe45ed096102203da42df1d99270a69376858bec479c6d854ade921c63eedde32737b699b517f101 0229cfa76d356056e0f3f37e9301e2126641fd0a3251266a73c56f49ba0e1b7b9e","hex":"483045022100f2c70bc99115690e8b6b3eded2300db68b8d9ba381de9111358603fe45ed096102203da42df1d99270a69376858bec479c6d854ade921c63eedde32737b699b517f101210229cfa76d356056e0f3f37e9301e2126641fd0a3251266a73c56f49ba0e1b7b9e"},"sequence":4294967295}],"vout":[{"value":101.27966367,"n":0,"scriptPubKey":{"asm":"OP_DUP OP_HASH160 b013d0bbfb6d44f3ba0eb41da02f2a644189254e OP_EQUALVERIFY OP_CHECKSIG","reqSigs":1,"type":"pubkeyhash","addresses":["pMbasGF7J72MLMZtZF4P9y93bxzDpFcEaw"]}},{"value":5.69014619,"n":1,"scriptPubKey":{"asm":"OP_DUP OP_HASH160 d77cc2e4cfa139eae920916f705f515214ae7665 OP_EQUALVERIFY OP_CHECKSIG","reqSigs":1,"type":"pubkeyhash","addresses":["pRBxwWubAeo5T5WydLatrPd8pXw3HdqPP9"]}}],"blockhash":"aedf46950597431a7dd77bddbb1fca7645d5377e63f6977f7ea4136914454cb7","confirmations":12,"blocktime":1541446768}