{"hex":"01000000709ce05b011e4af53a5fb7764b01528b0959201b3738815f7e79f79ed15d4b29a5fc137726010000006b4830450221009e69812e6ad5132096cf58048a19cefc2cb3fa450dc91868a6abe9afe966f6260220159f10162fe776f02920dfca5b0b1410f6b2c9a604f78b69ffeff1902094a65d012102301e5abfdd93aee969ae50eb89dbe0c4da60cf5c8f300b5dbd501887076027b1ffffffff04000000000000000000004429353a000000232102301e5abfdd93aee969ae50eb89dbe0c4da60cf5c8f300b5dbd501887076027b1ac69912a353a000000232102301e5abfdd93aee969ae50eb89dbe0c4da60cf5c8f300b5dbd501887076027b1ac4d610700000000001976a914b281632e032cac99462bf7779521442a307c52a088ac00000000","txid":"fd7813568be5fa6c01f1e70d0bdf9a4b0dab2069a9171594cc34d295a009fce7","version":1,"time":1541446768,"locktime":0,"vin":[{"txid":"267713fca5294b5dd19ef7797e5f8138371b2059098b52014b76b75f3af54a1e","vout":1,"scriptSig":{"asm":"30450221009e69812e6ad5132096cf58048a19cefc2cb3fa450dc91868a6abe9afe966f6260220159f10162fe776f02920dfca5b0b1410f6b2c9a604f78b69ffeff1902094a65d01 02301e5abfdd93aee969ae50eb89dbe0c4da60cf5c8f300b5dbd501887076027b1","hex":"4830450221009e69812e6ad5132096cf58048a19cefc2cb3fa450dc91868a6abe9afe966f6260220159f10162fe776f02920dfca5b0b1410f6b2c9a604f78b69ffeff1902094a65d012102301e5abfdd93aee969ae50eb89dbe0c4da60cf5c8f300b5dbd501887076027b1"},"sequence":4294967295}],"vout":[{"value":0,"n":0,"scriptPubKey":{"asm":"","type":"nonstandard"}},{"value":2500,"n":1,"scriptPubKey":{"asm":"02301e5abfdd93aee969ae50eb89dbe0c4da60cf5c8f300b5dbd501887076027b1 OP_CHECKSIG","reqSigs":1,"type":"pubkey","addresses":["p8xS7T8mkTz7MJV9EcYkBri1Zi12wCV83N"]}},{"value":2500.00085353,"n":2,"scriptPubKey":{"asm":"02301e5abfdd93aee969ae50eb89dbe0c4da60cf5c8f300b5dbd501887076027b1 OP_CHECKSIG","reqSigs":1,"type":"pubkey","addresses":["p8xS7T8mkTz7MJV9EcYkBri1Zi12wCV83N"]}},{"value":0.00483661,"n":3,"scriptPubKey":{"asm":"OP_DUP OP_HASH160 b281632e032cac99462bf7779521442a307c52a0 OP_EQUALVERIFY OP_CHECKSIG","reqSigs":1,"type":"pubkeyhash","addresses":["pMpRUr5SqF4SLREGfNjMyHwaGCi3EHeLR1"]}}],"blockhash":"aedf46950597431a7dd77bddbb1fca7645d5377e63f6977f7ea4136914454cb7","confirmations":12,"blocktime":1541446768}