{"hex":"0100000069e1d95b02f191649be5f1d2a083f5fe661f99b6465c4d00a029eea466f3221eb112909c0f000000006a473044022040715aa69c3598f18760be4ae4165e40fe2d6dfce00fae07cac97f4ae468a736022056539ef08fc747907f108702211626a058d06a454304269e210c0bf86edad4550121029e857134122939a57279b02312e296a02bcf0cf876ddc541bd372450215dbeacffffffffabb9f80220f46312cd366f2cfc1a2f136721e744c6f40e5f241f8d5ff95edaf3010000006b483045022100b5ca75cf12004dcbb980426e74015d9e5c7cb41c434231a153583f7d9bf34375022024f2d77a14e76973f7d7b2bf55e1bd206950f8afdbacc0d420064a6586baf705012102c125879d157ee5b636bb4e1e6002d98fd54e136fb07477487a41b014f7a5e6edffffffff02f3351e00000000001976a9144c28ee798243702bc4500cdb4da9004130bb47f688ac6c640b00000000001976a9142ec67b6e38f3ffae9302312634a1a3b259af520588ac00000000","txid":"2b3dacac83db0bf2542df3ec0956356508f6d518781066d4eb3736df578c8bfb","version":1,"time":1541005680,"locktime":0,"vin":[{"txid":"0f9c9012b11e22f366a4ee29a0004d5c46b6991f66fef583a0d2f1e59b6491f1","vout":0,"scriptSig":{"asm":"3044022040715aa69c3598f18760be4ae4165e40fe2d6dfce00fae07cac97f4ae468a736022056539ef08fc747907f108702211626a058d06a454304269e210c0bf86edad45501 029e857134122939a57279b02312e296a02bcf0cf876ddc541bd372450215dbeac","hex":"473044022040715aa69c3598f18760be4ae4165e40fe2d6dfce00fae07cac97f4ae468a736022056539ef08fc747907f108702211626a058d06a454304269e210c0bf86edad4550121029e857134122939a57279b02312e296a02bcf0cf876ddc541bd372450215dbeac"},"sequence":4294967295},{"txid":"f3da5ef95f8d1f245f0ef4c644e72167132f1afc2c6f36cd1263f42002f8b9ab","vout":1,"scriptSig":{"asm":"3045022100b5ca75cf12004dcbb980426e74015d9e5c7cb41c434231a153583f7d9bf34375022024f2d77a14e76973f7d7b2bf55e1bd206950f8afdbacc0d420064a6586baf70501 02c125879d157ee5b636bb4e1e6002d98fd54e136fb07477487a41b014f7a5e6ed","hex":"483045022100b5ca75cf12004dcbb980426e74015d9e5c7cb41c434231a153583f7d9bf34375022024f2d77a14e76973f7d7b2bf55e1bd206950f8afdbacc0d420064a6586baf705012102c125879d157ee5b636bb4e1e6002d98fd54e136fb07477487a41b014f7a5e6ed"},"sequence":4294967295}],"vout":[{"value":0.01979891,"n":0,"scriptPubKey":{"asm":"OP_DUP OP_HASH160 4c28ee798243702bc4500cdb4da9004130bb47f6 OP_EQUALVERIFY OP_CHECKSIG","reqSigs":1,"type":"pubkeyhash","addresses":["pCVGbFvFLapGyskXvwfxG2ss21bRU9FqUh"]}},{"value":0.00746604,"n":1,"scriptPubKey":{"asm":"OP_DUP OP_HASH160 2ec67b6e38f3ffae9302312634a1a3b259af5205 OP_EQUALVERIFY OP_CHECKSIG","reqSigs":1,"type":"pubkeyhash","addresses":["p9ou4K1bSiZ4qcYQ2qhbiS4CgqhejyAsx3"]}}],"blockhash":"198b402c82c6c26439a5e432b4f9815d4ce58d4b3dc13b1b79d8495290268bd8","confirmations":131,"blocktime":1541005680}