{"hex":"0100000070e1d95b014fe2c4584a9e51e789519ab0e86b47e1305e374b5a0787503924335654d512f2010000006a47304402205e5527e7a0694734b586c9e88533e19a775a6f006775a7e69a5f62e467a218cf02207610e2511dc4bd1b4c1a4823747ebf371bd11733ced1df743426bf534d8b69b901210210c18e3b5aba3a6167f17a2fd6b65419de165b4388a78f0e815f0e3bc60d34f3ffffffff04000000000000000000004429353a00000023210210c18e3b5aba3a6167f17a2fd6b65419de165b4388a78f0e815f0e3bc60d34f3ac704429353a00000023210210c18e3b5aba3a6167f17a2fd6b65419de165b4388a78f0e815f0e3bc60d34f3ac7a020000000000001976a914b281632e032cac99462bf7779521442a307c52a088ac00000000","txid":"7e690990516c4e4b4a056c5dd391c87b1aa5001a552efa117b585979c3dfc88d","version":1,"time":1541005680,"locktime":0,"vin":[{"txid":"f212d554563324395087075a4b375e30e1476be8b09a5189e7519e4a58c4e24f","vout":1,"scriptSig":{"asm":"304402205e5527e7a0694734b586c9e88533e19a775a6f006775a7e69a5f62e467a218cf02207610e2511dc4bd1b4c1a4823747ebf371bd11733ced1df743426bf534d8b69b901 0210c18e3b5aba3a6167f17a2fd6b65419de165b4388a78f0e815f0e3bc60d34f3","hex":"47304402205e5527e7a0694734b586c9e88533e19a775a6f006775a7e69a5f62e467a218cf02207610e2511dc4bd1b4c1a4823747ebf371bd11733ced1df743426bf534d8b69b901210210c18e3b5aba3a6167f17a2fd6b65419de165b4388a78f0e815f0e3bc60d34f3"},"sequence":4294967295}],"vout":[{"value":0,"n":0,"scriptPubKey":{"asm":"","type":"nonstandard"}},{"value":2500,"n":1,"scriptPubKey":{"asm":"0210c18e3b5aba3a6167f17a2fd6b65419de165b4388a78f0e815f0e3bc60d34f3 OP_CHECKSIG","reqSigs":1,"type":"pubkey","addresses":["pFf1Gp4G6PCkSUxUY1XLwNBH2ji6sBJMC3"]}},{"value":2500.00000112,"n":2,"scriptPubKey":{"asm":"0210c18e3b5aba3a6167f17a2fd6b65419de165b4388a78f0e815f0e3bc60d34f3 OP_CHECKSIG","reqSigs":1,"type":"pubkey","addresses":["pFf1Gp4G6PCkSUxUY1XLwNBH2ji6sBJMC3"]}},{"value":0.00000634,"n":3,"scriptPubKey":{"asm":"OP_DUP OP_HASH160 b281632e032cac99462bf7779521442a307c52a0 OP_EQUALVERIFY OP_CHECKSIG","reqSigs":1,"type":"pubkeyhash","addresses":["pMpRUr5SqF4SLREGfNjMyHwaGCi3EHeLR1"]}}],"blockhash":"198b402c82c6c26439a5e432b4f9815d4ce58d4b3dc13b1b79d8495290268bd8","confirmations":131,"blocktime":1541005680}