{"hex":"010000006b9fc25b01de7ea9702c8220ddb9ce66900f89b929caa02eb3101073ec82396b45f849415b000000006b4830450221008548ac07cb53c6c2114d7eafd4293caa8fc2c53b5b193470d9b391cfd49a0b2b0220550745a763197e2921345b88a77f87ea1bcaf1b893504b27f5cbcb5eafd86666012103c409cd5633d6fcc716394006038d777918abd0bf430c1fb1fe3dd8775cff1495ffffffff0200b682f97d8623001976a9142453022ed1db110c1b05de2b1b7ffb8babccddd688ac0088526a740000001976a9148e3f6e3d2f029829ca356517f18e326c94cd54cd88ac00000000","txid":"2054c9f32fd6a8dbcb248fa67d7f2a7cf39ade75718fda6a7e329888930305f7","version":1,"time":1539481522,"locktime":0,"vin":[{"txid":"5b4149f8456b3982ec731010b32ea0ca29b9890f9066ceb9dd20822c70a97ede","vout":0,"scriptSig":{"asm":"30450221008548ac07cb53c6c2114d7eafd4293caa8fc2c53b5b193470d9b391cfd49a0b2b0220550745a763197e2921345b88a77f87ea1bcaf1b893504b27f5cbcb5eafd8666601 03c409cd5633d6fcc716394006038d777918abd0bf430c1fb1fe3dd8775cff1495","hex":"4830450221008548ac07cb53c6c2114d7eafd4293caa8fc2c53b5b193470d9b391cfd49a0b2b0220550745a763197e2921345b88a77f87ea1bcaf1b893504b27f5cbcb5eafd86666012103c409cd5633d6fcc716394006038d777918abd0bf430c1fb1fe3dd8775cff1495"},"sequence":4294967295}],"vout":[{"value":99994998,"n":0,"scriptPubKey":{"asm":"OP_DUP OP_HASH160 2453022ed1db110c1b05de2b1b7ffb8babccddd6 OP_EQUALVERIFY OP_CHECKSIG","reqSigs":1,"type":"pubkeyhash","addresses":["p8rdy9N3LaqarvE9GMDQhnC4doU4L6r8cZ"]}},{"value":5000,"n":1,"scriptPubKey":{"asm":"OP_DUP OP_HASH160 8e3f6e3d2f029829ca356517f18e326c94cd54cd OP_EQUALVERIFY OP_CHECKSIG","reqSigs":1,"type":"pubkeyhash","addresses":["pJWi9BXT9hsVaAft92RNcufBy1LZGU4RtT"]}}],"blockhash":"000004fc5caa326a0b596fca9da4e56fbabc37e89d22cf79b1add375789d0de9","confirmations":141,"blocktime":1539481522}