{"hex":"01000000aa9fc25b010000000000000000000000000000000000000000000000000000000000000000ffffffff0401120104ffffffff0100c2eb0b000000001976a914e178c533dc2ffa9f8b9ac8b925d736ba8f6bf26488ac00000000","txid":"fce2ee453ca7e47f2093b9278a4835ba2322d3fdc5a6e7a682ea4571093adb8e","version":1,"time":1539481522,"locktime":0,"vin":[{"coinbase":"01120104","sequence":4294967295}],"vout":[{"value":2,"n":0,"scriptPubKey":{"asm":"OP_DUP OP_HASH160 e178c533dc2ffa9f8b9ac8b925d736ba8f6bf264 OP_EQUALVERIFY OP_CHECKSIG","reqSigs":1,"type":"pubkeyhash","addresses":["pS6kv8sUdNg7tBDNfNMnPMqsD2dQR4HfTQ"]}}],"blockhash":"000004fc5caa326a0b596fca9da4e56fbabc37e89d22cf79b1add375789d0de9","confirmations":427,"blocktime":1539481522}