{"hex":"01000000109bd65b01017aef5bbd2ba3782741e0493bdfc1d9c28771cab356e571f9a9c98756ebc20d010000004847304402206f6ee81fe65259af1b03ed5c593acf3c8ae886cb2c56f64de72f7039c8af07df02206c6ecee6c57fcc5c37e6721ecaa28f0b90f05ba7f98066375a7d84b7c6826cbf01ffffffff0400000000000000000000a9a1d1010000002321020b1cd26fc4b9f080aea1cf7b667efd5e8453f70429056589831fa7f63506ddbfac4febb0d1010000002321020b1cd26fc4b9f080aea1cf7b667efd5e8453f70429056589831fa7f63506ddbfac55000000000000001976a9140f0458597355a9fb43189a18c91b2668213960f888ac00000000","txid":"a27ad4b1d9575dd6e55e54d11b8eda414cd572d3377f167a64729b3e8c392904","version":1,"time":1540791056,"locktime":0,"vin":[{"txid":"0dc2eb5687c9a9f971e556b3ca7187c2d9c1df3b49e0412778a32bbd5bef7a01","vout":1,"scriptSig":{"asm":"304402206f6ee81fe65259af1b03ed5c593acf3c8ae886cb2c56f64de72f7039c8af07df02206c6ecee6c57fcc5c37e6721ecaa28f0b90f05ba7f98066375a7d84b7c6826cbf01","hex":"47304402206f6ee81fe65259af1b03ed5c593acf3c8ae886cb2c56f64de72f7039c8af07df02206c6ecee6c57fcc5c37e6721ecaa28f0b90f05ba7f98066375a7d84b7c6826cbf01"},"sequence":4294967295}],"vout":[{"value":0,"n":0,"scriptPubKey":{"asm":"","type":"nonstandard"}},{"value":78.12,"n":1,"scriptPubKey":{"asm":"020b1cd26fc4b9f080aea1cf7b667efd5e8453f70429056589831fa7f63506ddbf OP_CHECKSIG","reqSigs":1,"type":"pubkey","addresses":["pECTDpfW4nW8hYte3f3F9ZQxwgWmBwmcYL"]}},{"value":78.13000015,"n":2,"scriptPubKey":{"asm":"020b1cd26fc4b9f080aea1cf7b667efd5e8453f70429056589831fa7f63506ddbf OP_CHECKSIG","reqSigs":1,"type":"pubkey","addresses":["pECTDpfW4nW8hYte3f3F9ZQxwgWmBwmcYL"]}},{"value":8.5e-7,"n":3,"scriptPubKey":{"asm":"OP_DUP OP_HASH160 0f0458597355a9fb43189a18c91b2668213960f8 OP_EQUALVERIFY OP_CHECKSIG","reqSigs":1,"type":"pubkeyhash","addresses":["p6uyYVC7Ty7S1UZtPQtetPMTXYoKf6M8dh"]}}],"blockhash":"3ada42f62270a837bd3b7104db40cff3eb5fd100fc484f998a0a5d32e59ab3c3","confirmations":239,"blocktime":1540791056}