{"hex":"010000000e9bd65b01f9183bc8f0ed432b70ada8e62d55c122815b9e9608827dcd1210f3576233dade000000006a47304402200e85434392d817b501e9fa7cf707ed766f7047ea61f70e175f84bd6d2e3422ec02203b48a82227304bb3a98f3ed4f601e54edf3c464cc24c8671a15074f630d7ad8c0121031d529e9799b721582979eb63f36866512f3c0b47dc7f12a072e115949d3bab9dffffffff025a371200000000001976a914e21e2e709494718fdbfff48d847bb6021b12c4e888ac10270000000000001976a9147644efb2f98070ab8304baf1c13f70d6ff68c27788ac00000000","txid":"bfc0e9e300167b9c61b8cbcd4c26304202beaf1279cfb3d61941347b024d647c","version":1,"time":1540791056,"locktime":0,"vin":[{"txid":"deda336257f31012cd7d8208969e5b8122c1552de6a8ad702b43edf0c83b18f9","vout":0,"scriptSig":{"asm":"304402200e85434392d817b501e9fa7cf707ed766f7047ea61f70e175f84bd6d2e3422ec02203b48a82227304bb3a98f3ed4f601e54edf3c464cc24c8671a15074f630d7ad8c01 031d529e9799b721582979eb63f36866512f3c0b47dc7f12a072e115949d3bab9d","hex":"47304402200e85434392d817b501e9fa7cf707ed766f7047ea61f70e175f84bd6d2e3422ec02203b48a82227304bb3a98f3ed4f601e54edf3c464cc24c8671a15074f630d7ad8c0121031d529e9799b721582979eb63f36866512f3c0b47dc7f12a072e115949d3bab9d"},"sequence":4294967295}],"vout":[{"value":0.01193818,"n":0,"scriptPubKey":{"asm":"OP_DUP OP_HASH160 e21e2e709494718fdbfff48d847bb6021b12c4e8 OP_EQUALVERIFY OP_CHECKSIG","reqSigs":1,"type":"pubkeyhash","addresses":["pSAB56kk9FvYiiDQ5GppwY8EdrxKFrjKCA"]}},{"value":0.0001,"n":1,"scriptPubKey":{"asm":"OP_DUP OP_HASH160 7644efb2f98070ab8304baf1c13f70d6ff68c277 OP_EQUALVERIFY OP_CHECKSIG","reqSigs":1,"type":"pubkeyhash","addresses":["pGKvX7zTUoszjqX3isNoZuGqfxjuZZNAYs"]}}],"blockhash":"3ada42f62270a837bd3b7104db40cff3eb5fd100fc484f998a0a5d32e59ab3c3","confirmations":239,"blocktime":1540791056}