{"hex":"01000000e02adf5b01ad008892f3c4b71282ad99eef6fb47fff29e4b5ef27a3c5823fff3c2a1d0f2880200000048473044022003dcd507351ae20a53d43a59cabd9e1b39fed674efdba0954344f1b25f3664db02200c5bb60575a145f9ae22a96269cddee6334556b9cdbc06e7da6a254cf900021901ffffffff0400000000000000000000adc34607000000232103670be5afe77a215b42f2bc4bd7c1c5049117430d8e81c1de5c44e9ab4c566689ac1944c54607000000232103670be5afe77a215b42f2bc4bd7c1c5049117430d8e81c1de5c44e9ab4c566689ac084c0100000000001976a914b281632e032cac99462bf7779521442a307c52a088ac00000000","txid":"415f96a0c2245a4744f008bc1d780767b1112ff5509fc3ac9f9eada7f65ee4d8","version":1,"time":1541352160,"locktime":0,"vin":[{"txid":"88f2d0a1c2f3ff23583c7af25e4b9ef2ff47fbf6ee99ad8212b7c4f3928800ad","vout":2,"scriptSig":{"asm":"3044022003dcd507351ae20a53d43a59cabd9e1b39fed674efdba0954344f1b25f3664db02200c5bb60575a145f9ae22a96269cddee6334556b9cdbc06e7da6a254cf900021901","hex":"473044022003dcd507351ae20a53d43a59cabd9e1b39fed674efdba0954344f1b25f3664db02200c5bb60575a145f9ae22a96269cddee6334556b9cdbc06e7da6a254cf900021901"},"sequence":4294967295}],"vout":[{"value":0,"n":0,"scriptPubKey":{"asm":"","type":"nonstandard"}},{"value":312.52,"n":1,"scriptPubKey":{"asm":"03670be5afe77a215b42f2bc4bd7c1c5049117430d8e81c1de5c44e9ab4c566689 OP_CHECKSIG","reqSigs":1,"type":"pubkey","addresses":["pRVJAmbxV6TyzWMNW1oNoV1k3zM77bZrBx"]}},{"value":312.52104217,"n":2,"scriptPubKey":{"asm":"03670be5afe77a215b42f2bc4bd7c1c5049117430d8e81c1de5c44e9ab4c566689 OP_CHECKSIG","reqSigs":1,"type":"pubkey","addresses":["pRVJAmbxV6TyzWMNW1oNoV1k3zM77bZrBx"]}},{"value":0.00085,"n":3,"scriptPubKey":{"asm":"OP_DUP OP_HASH160 b281632e032cac99462bf7779521442a307c52a0 OP_EQUALVERIFY OP_CHECKSIG","reqSigs":1,"type":"pubkeyhash","addresses":["pMpRUr5SqF4SLREGfNjMyHwaGCi3EHeLR1"]}}],"blockhash":"a8aa129cf88ecf298a350cb01ce0f585132e34a46cdee06882d02c4a1b643105","confirmations":47,"blocktime":1541352160}