{"hex":"01000000d12adf5b0175d54a36061ecc48662fface86370c8d780e639ddf3faa389b2b9753a78e72320100000049483045022100c830fdfe4b941c89ca0f233da395c1e99c4c291d37744f3f771ff65f66a837ba02207db3165e720fc35ba0540e5f1bfe767a55a7be9e1f15e6e0b5c03a65aaadf99d01ffffffff024081ba01000000001976a9144b15378a4eb969a274b066a80abc8c9ec160b52088ac00e1f505000000001976a914fdde016c930ade4929f0609226ee8db5b1b07b7888ac00000000","txid":"d6abb9e96387820775ae883f0adad37ade1b8abe5647718f6779a146805d72f0","version":1,"time":1541352160,"locktime":0,"vin":[{"txid":"32728ea753972b9b38aa3fdf9d630e788d0c3786cefa2f6648cc1e06364ad575","vout":1,"scriptSig":{"asm":"3045022100c830fdfe4b941c89ca0f233da395c1e99c4c291d37744f3f771ff65f66a837ba02207db3165e720fc35ba0540e5f1bfe767a55a7be9e1f15e6e0b5c03a65aaadf99d01","hex":"483045022100c830fdfe4b941c89ca0f233da395c1e99c4c291d37744f3f771ff65f66a837ba02207db3165e720fc35ba0540e5f1bfe767a55a7be9e1f15e6e0b5c03a65aaadf99d01"},"sequence":4294967295}],"vout":[{"value":0.29,"n":0,"scriptPubKey":{"asm":"OP_DUP OP_HASH160 4b15378a4eb969a274b066a80abc8c9ec160b520 OP_EQUALVERIFY OP_CHECKSIG","reqSigs":1,"type":"pubkeyhash","addresses":["pCPaJGmS9Dx4arbSRbBVfxajNNprF6fbN1"]}},{"value":1,"n":1,"scriptPubKey":{"asm":"OP_DUP OP_HASH160 fdde016c930ade4929f0609226ee8db5b1b07b78 OP_EQUALVERIFY OP_CHECKSIG","reqSigs":1,"type":"pubkeyhash","addresses":["pUgu7TNpXg6YTRR48qgmDdRrYog88eMs1m"]}}],"blockhash":"a8aa129cf88ecf298a350cb01ce0f585132e34a46cdee06882d02c4a1b643105","confirmations":47,"blocktime":1541352160}