{"hex":"01000000e8d2d45b032588e5551d40350b1105791f3870fab04b351a6191edb1555770c953a71b1e68030000006b483045022100c684a9f729e438a35f14e7ff3f7c4ac6df60f55cc6a82459591edd3a9dcdd1c302205156d8e966ae58a1475e534118b66df574c6f1ff39835a88169b153a3d212a420121029e857134122939a57279b02312e296a02bcf0cf876ddc541bd372450215dbeacffffffff80ca9b93c738f61fad3c8212ecab2773c6c272bc5b1ef3ec1890613a5a7f2ccc010000006a47304402207974880a5c25d3c3f24cdf2c4ec3c1540964dc1890fd7880ac94bbb199fbf2dd022040908efa46de333c567c94115a151b022b8b1b7d06281f698554df3a4340c09c012103f5cbc0ceafa1140053e4a9da7cdebecc65bffb360618ed524c4e545956de60d1ffffffff9475ccdeff8d357859cb7290beee1a4b8ced0c176fc0f7aeb95616c3519cfc71010000006a4730440220534980187297334a59402f13d5b191d8656dda3e707f83508df26e67175289f90220008e03aa432b8f67e91ddbe7e8e777e6643a01c9dba2f48345166b3d6d2e5bca012103f5cbc0ceafa1140053e4a9da7cdebecc65bffb360618ed524c4e545956de60d1ffffffff021c480f00000000001976a914b2067a24fae81fbcefb73e16dd484f55874d04be88ac04870100000000001976a914ec12950ac569b86c549d98f06403cf4e17ed0f3e88ac00000000","txid":"7a8a131528b9a842508d7882c08ad326fda48e3a629aabc7f6b1f7b1e069304f","version":1,"time":1540674288,"locktime":0,"vin":[{"txid":"681e1ba753c9705755b1ed91611a354bb0fa70381f7905110b35401d55e58825","vout":3,"scriptSig":{"asm":"3045022100c684a9f729e438a35f14e7ff3f7c4ac6df60f55cc6a82459591edd3a9dcdd1c302205156d8e966ae58a1475e534118b66df574c6f1ff39835a88169b153a3d212a4201 029e857134122939a57279b02312e296a02bcf0cf876ddc541bd372450215dbeac","hex":"483045022100c684a9f729e438a35f14e7ff3f7c4ac6df60f55cc6a82459591edd3a9dcdd1c302205156d8e966ae58a1475e534118b66df574c6f1ff39835a88169b153a3d212a420121029e857134122939a57279b02312e296a02bcf0cf876ddc541bd372450215dbeac"},"sequence":4294967295},{"txid":"cc2c7f5a3a619018ecf31e5bbc72c2c67327abec12823cad1ff638c7939bca80","vout":1,"scriptSig":{"asm":"304402207974880a5c25d3c3f24cdf2c4ec3c1540964dc1890fd7880ac94bbb199fbf2dd022040908efa46de333c567c94115a151b022b8b1b7d06281f698554df3a4340c09c01 03f5cbc0ceafa1140053e4a9da7cdebecc65bffb360618ed524c4e545956de60d1","hex":"47304402207974880a5c25d3c3f24cdf2c4ec3c1540964dc1890fd7880ac94bbb199fbf2dd022040908efa46de333c567c94115a151b022b8b1b7d06281f698554df3a4340c09c012103f5cbc0ceafa1140053e4a9da7cdebecc65bffb360618ed524c4e545956de60d1"},"sequence":4294967295},{"txid":"71fc9c51c31656b9aef7c06f170ced8c4b1aeebe9072cb5978358dffdecc7594","vout":1,"scriptSig":{"asm":"30440220534980187297334a59402f13d5b191d8656dda3e707f83508df26e67175289f90220008e03aa432b8f67e91ddbe7e8e777e6643a01c9dba2f48345166b3d6d2e5bca01 03f5cbc0ceafa1140053e4a9da7cdebecc65bffb360618ed524c4e545956de60d1","hex":"4730440220534980187297334a59402f13d5b191d8656dda3e707f83508df26e67175289f90220008e03aa432b8f67e91ddbe7e8e777e6643a01c9dba2f48345166b3d6d2e5bca012103f5cbc0ceafa1140053e4a9da7cdebecc65bffb360618ed524c4e545956de60d1"},"sequence":4294967295}],"vout":[{"value":0.010015,"n":0,"scriptPubKey":{"asm":"OP_DUP OP_HASH160 b2067a24fae81fbcefb73e16dd484f55874d04be OP_EQUALVERIFY OP_CHECKSIG","reqSigs":1,"type":"pubkeyhash","addresses":["pMmtEtaGsMUr8E8jWr7VUWZNmZ84zHGfSp"]}},{"value":0.001001,"n":1,"scriptPubKey":{"asm":"OP_DUP OP_HASH160 ec12950ac569b86c549d98f06403cf4e17ed0f3e OP_EQUALVERIFY OP_CHECKSIG","reqSigs":1,"type":"pubkeyhash","addresses":["pT4ow6EkJvbvBFA5GkVTfiHDEBUVzCN9Hv"]}}],"blockhash":"fa6e8d5a8ea3f3d3dd868a25f196e3fad8e423269fd53c74b6e704eb2488bb44","confirmations":278,"blocktime":1540674288}