{"hex":"01000000f0d2d45b01591ca1f2acabe9572988b26f4046dec0554a4acbd8216a51c3766a4cc897e372010000004847304402203be6809bbea3236b73f89d956b57314ecb517362a6710527e056440239fa8d1802204968862216d68277d7ec31dce7b8c9787fce4e3af5ebf7ce1c0fabba0bf6aa8701ffffffff0400000000000000000000514a8d0e0000002321020b1cd26fc4b9f080aea1cf7b667efd5e8453f70429056589831fa7f63506ddbfac0f514a8d0e0000002321020b1cd26fc4b9f080aea1cf7b667efd5e8453f70429056589831fa7f63506ddbfac55000000000000001976a9149590579f878db6722db4322a713599a3d865ecb188ac00000000","txid":"88b1b348d73fbbf2c2c6ce7fc7dbf653cbaf6e390c2309f931670078724f0df9","version":1,"time":1540674288,"locktime":0,"vin":[{"txid":"72e397c84c6a76c3516a21d8cb4a4a55c0de46406fb2882957e9abacf2a11c59","vout":1,"scriptSig":{"asm":"304402203be6809bbea3236b73f89d956b57314ecb517362a6710527e056440239fa8d1802204968862216d68277d7ec31dce7b8c9787fce4e3af5ebf7ce1c0fabba0bf6aa8701","hex":"47304402203be6809bbea3236b73f89d956b57314ecb517362a6710527e056440239fa8d1802204968862216d68277d7ec31dce7b8c9787fce4e3af5ebf7ce1c0fabba0bf6aa8701"},"sequence":4294967295}],"vout":[{"value":0,"n":0,"scriptPubKey":{"asm":"","type":"nonstandard"}},{"value":625,"n":1,"scriptPubKey":{"asm":"020b1cd26fc4b9f080aea1cf7b667efd5e8453f70429056589831fa7f63506ddbf OP_CHECKSIG","reqSigs":1,"type":"pubkey","addresses":["pECTDpfW4nW8hYte3f3F9ZQxwgWmBwmcYL"]}},{"value":625.00000015,"n":2,"scriptPubKey":{"asm":"020b1cd26fc4b9f080aea1cf7b667efd5e8453f70429056589831fa7f63506ddbf OP_CHECKSIG","reqSigs":1,"type":"pubkey","addresses":["pECTDpfW4nW8hYte3f3F9ZQxwgWmBwmcYL"]}},{"value":8.5e-7,"n":3,"scriptPubKey":{"asm":"OP_DUP OP_HASH160 9590579f878db6722db4322a713599a3d865ecb1 OP_EQUALVERIFY OP_CHECKSIG","reqSigs":1,"type":"pubkeyhash","addresses":["pKBPoNA3SJPY8i2H3PXAafpEbMr7NNikgL"]}}],"blockhash":"fa6e8d5a8ea3f3d3dd868a25f196e3fad8e423269fd53c74b6e704eb2488bb44","confirmations":278,"blocktime":1540674288}