{"hex":"0100000050cce05b01d05c888b66ea2895d6c9d7ad649041a92473edc824bc8e9f7e49cdb187903624010000006b483045022100bc7353c2e30c4aca4095f0268779bf53d37258bc1ad2dff352899c48d0ed5e3e02203941b52bd31921af2d86d176890c5b9bfd9ce1c758d2f6a49cb270ad240fe8180121038203df7741d8d75364cab84b331db5003dc160e8a356242454490336a57a1365ffffffff04000000000000000000004429353a0000002321038203df7741d8d75364cab84b331db5003dc160e8a356242454490336a57a1365acbf9b29353a0000002321038203df7741d8d75364cab84b331db5003dc160e8a356242454490336a57a1365ac36f10100000000001976a9144c86b0b2edcbbfcf0d0112bbb160a541568205b788ac00000000","txid":"7870da939e6b6b3672183e7bcff912325cf62b897e6b7c81a0ad76ff4efaec07","version":1,"time":1541459024,"locktime":0,"vin":[{"txid":"24369087b1cd497e9f8ebc24c8ed7324a9419064add7c9d69528ea668b885cd0","vout":1,"scriptSig":{"asm":"3045022100bc7353c2e30c4aca4095f0268779bf53d37258bc1ad2dff352899c48d0ed5e3e02203941b52bd31921af2d86d176890c5b9bfd9ce1c758d2f6a49cb270ad240fe81801 038203df7741d8d75364cab84b331db5003dc160e8a356242454490336a57a1365","hex":"483045022100bc7353c2e30c4aca4095f0268779bf53d37258bc1ad2dff352899c48d0ed5e3e02203941b52bd31921af2d86d176890c5b9bfd9ce1c758d2f6a49cb270ad240fe8180121038203df7741d8d75364cab84b331db5003dc160e8a356242454490336a57a1365"},"sequence":4294967295}],"vout":[{"value":0,"n":0,"scriptPubKey":{"asm":"","type":"nonstandard"}},{"value":2500,"n":1,"scriptPubKey":{"asm":"038203df7741d8d75364cab84b331db5003dc160e8a356242454490336a57a1365 OP_CHECKSIG","reqSigs":1,"type":"pubkey","addresses":["p8nrgTxTfKDC3hvmSmFxDcxpYguUCo8yWb"]}},{"value":2500.00022463,"n":2,"scriptPubKey":{"asm":"038203df7741d8d75364cab84b331db5003dc160e8a356242454490336a57a1365 OP_CHECKSIG","reqSigs":1,"type":"pubkey","addresses":["p8nrgTxTfKDC3hvmSmFxDcxpYguUCo8yWb"]}},{"value":0.00127286,"n":3,"scriptPubKey":{"asm":"OP_DUP OP_HASH160 4c86b0b2edcbbfcf0d0112bbb160a541568205b7 OP_EQUALVERIFY OP_CHECKSIG","reqSigs":1,"type":"pubkeyhash","addresses":["pCXCuj4F9uaYHMue5Nqy3XLKdLz4U9gRoi"]}}],"blockhash":"dc44de7e4e3d88b1fc85f2cf2e967d9abb2d774db508c6cf55230ff5c86cdfa4","confirmations":2,"blocktime":1541459024}