{"hex":"010000004ecce05b04179a37f78012af2f05da3c14e0685428e7227f58a2d33acf00fbe50bfda77f62000000006b483045022100a0bc44fd8da3dfe7e94c5619db0cb504a6417c517677e2de5aecc59c95c6f14c02204d1f75c68fa1dc3c7728e2f1d4966bc009f12847b2fdee76bbd12a52245ee002012102bbb1ce5e998c1d152b40dd69d0837159f0a5596b2f04ef3b887978a6cbada80cffffffff36e7f822f2b7fd805a2209cb0c20f7ad621061b58323ff5fd28a124bb6dee7c6010000006b483045022100c7828bc3d9a16964285192aea5f83b17dd48a57931767f0c28d901b0d1ea280d02202abd713e09056dab56841e7f18c95eb82baedaa8d55ff885480713251df684ee012102b02d280feb199a2eb601256ff7b7cf162f20017e39340675a297800a87ebc148ffffffff4f9139ed351fa696c9cec1d8ac172e16fc3b57f4058816a83d6891c86ed32ba7010000006a47304402200a43c7f95caf3ec18fc4aa49c7bb34ea9be054ab3d6f55bef4a1a66f4ca5165502205f197bce8989e382daaaf2883df203c928bfb5fc8d2a85fb70f06d35dc26b3c7012102b02d280feb199a2eb601256ff7b7cf162f20017e39340675a297800a87ebc148ffffffffbf63615e52333e0a53551a2eb3c1d352211ee7e3767e1e205c439e5aea9b4ab1010000006b483045022100867acd795924f95c3cca4adedec871560100eaa13495477a1f1ccfab5ca6c93202200b657ccc28a80596ee3e559c1a2e6b7e1b4b74fa0cd9883aab3b4fc5d568775c012102b02d280feb199a2eb601256ff7b7cf162f20017e39340675a297800a87ebc148ffffffff029aaf1500000000001976a914b9f3d781f7d99f65d068998a288759e0a638d31288ac60ffec08000000001976a914c0033a095c376c3dead742ffc47e3a3624176ccf88ac00000000","txid":"8a1c55e494a712cebc19840415d9c4fabc64dfa790c633feed4ccc3a84388332","version":1,"time":1541459024,"locktime":0,"vin":[{"txid":"627fa7fd0be5fb00cf3ad3a2587f22e7285468e0143cda052faf1280f7379a17","vout":0,"scriptSig":{"asm":"3045022100a0bc44fd8da3dfe7e94c5619db0cb504a6417c517677e2de5aecc59c95c6f14c02204d1f75c68fa1dc3c7728e2f1d4966bc009f12847b2fdee76bbd12a52245ee00201 02bbb1ce5e998c1d152b40dd69d0837159f0a5596b2f04ef3b887978a6cbada80c","hex":"483045022100a0bc44fd8da3dfe7e94c5619db0cb504a6417c517677e2de5aecc59c95c6f14c02204d1f75c68fa1dc3c7728e2f1d4966bc009f12847b2fdee76bbd12a52245ee002012102bbb1ce5e998c1d152b40dd69d0837159f0a5596b2f04ef3b887978a6cbada80c"},"sequence":4294967295},{"txid":"c6e7deb64b128ad25fff2383b5611062adf7200ccb09225a80fdb7f222f8e736","vout":1,"scriptSig":{"asm":"3045022100c7828bc3d9a16964285192aea5f83b17dd48a57931767f0c28d901b0d1ea280d02202abd713e09056dab56841e7f18c95eb82baedaa8d55ff885480713251df684ee01 02b02d280feb199a2eb601256ff7b7cf162f20017e39340675a297800a87ebc148","hex":"483045022100c7828bc3d9a16964285192aea5f83b17dd48a57931767f0c28d901b0d1ea280d02202abd713e09056dab56841e7f18c95eb82baedaa8d55ff885480713251df684ee012102b02d280feb199a2eb601256ff7b7cf162f20017e39340675a297800a87ebc148"},"sequence":4294967295},{"txid":"a72bd36ec891683da8168805f4573bfc162e17acd8c1cec996a61f35ed39914f","vout":1,"scriptSig":{"asm":"304402200a43c7f95caf3ec18fc4aa49c7bb34ea9be054ab3d6f55bef4a1a66f4ca5165502205f197bce8989e382daaaf2883df203c928bfb5fc8d2a85fb70f06d35dc26b3c701 02b02d280feb199a2eb601256ff7b7cf162f20017e39340675a297800a87ebc148","hex":"47304402200a43c7f95caf3ec18fc4aa49c7bb34ea9be054ab3d6f55bef4a1a66f4ca5165502205f197bce8989e382daaaf2883df203c928bfb5fc8d2a85fb70f06d35dc26b3c7012102b02d280feb199a2eb601256ff7b7cf162f20017e39340675a297800a87ebc148"},"sequence":4294967295},{"txid":"b14a9bea5a9e435c201e7e76e3e71e2152d3c1b32e1a55530a3e33525e6163bf","vout":1,"scriptSig":{"asm":"3045022100867acd795924f95c3cca4adedec871560100eaa13495477a1f1ccfab5ca6c93202200b657ccc28a80596ee3e559c1a2e6b7e1b4b74fa0cd9883aab3b4fc5d568775c01 02b02d280feb199a2eb601256ff7b7cf162f20017e39340675a297800a87ebc148","hex":"483045022100867acd795924f95c3cca4adedec871560100eaa13495477a1f1ccfab5ca6c93202200b657ccc28a80596ee3e559c1a2e6b7e1b4b74fa0cd9883aab3b4fc5d568775c012102b02d280feb199a2eb601256ff7b7cf162f20017e39340675a297800a87ebc148"},"sequence":4294967295}],"vout":[{"value":0.0142121,"n":0,"scriptPubKey":{"asm":"OP_DUP OP_HASH160 b9f3d781f7d99f65d068998a288759e0a638d312 OP_EQUALVERIFY OP_CHECKSIG","reqSigs":1,"type":"pubkeyhash","addresses":["pNVoKczQ6P92yawDZejgg9H8khMTR2Sf2j"]}},{"value":1.497496,"n":1,"scriptPubKey":{"asm":"OP_DUP OP_HASH160 c0033a095c376c3dead742ffc47e3a3624176ccf OP_EQUALVERIFY OP_CHECKSIG","reqSigs":1,"type":"pubkeyhash","addresses":["pP3qojS4CJ2W68uZoeLagZHGRcSHdUy6uK"]}}],"blockhash":"dc44de7e4e3d88b1fc85f2cf2e967d9abb2d774db508c6cf55230ff5c86cdfa4","confirmations":2,"blocktime":1541459024}