{"hex":"01000000943bdb5b0338ff9743e7670c9864dbc7e1332fcb0c5f63a0e1f61bbee52d611b5dfdf69b15000000006b483045022100af158e9bb91f58623101729eae8a3505b1fe6015c8ef3d713249442a2942509a022013a32a91ce2e05a32a80237be0972d08a6ded95fae1d69dbd9618976495307f8012102341389e5d215c69d7248b7940a9b462408f632edad0e5c3c906c26b33ff6703affffffffba9e04dd56596483ea09922ad9f7330419127ef1e1d4574a1d245a6e847756cd010000006b4830450221008853a5ae1ef6790e9da5631cc2ab2b8e72d1e9936fb175d8ee754bb07b7d896602203316bb48de9405284c857ab7ce180a4c7c69a549965e2893547329e2ba597e12012102348131b1092fe2e04a71a1185f720ade61eb0b88e98db1bbf6a8f672fec8d20effffffff553ef332c40b190226c6da1fe1eb389241f8ed13398b5630246a33385f28f657010000006a4730440220231c09d6cbd2305cd48d811f44bff3ceeb5c620f78e6470aa8abf47ef2e56df902202084435cca214c50897d75de7bc3b8c946c89ec5a23d78dd5b40bd32c80af507012103b9886b53f49219d3a6e67e24085f78f12fd0b2963d3bd25851dda8b81b43aa87ffffffff02fba31200000000001976a91445d6bb67308610d36fcae225600aaad77304f2f888ac1c13f836000000001976a91454381c0dacb1c5cea1830e318b23ce4bbb792d8788ac00000000","txid":"003d81d414885e23b457dca9715cce55c7a9ca21add0fd25f511600e8c7b0160","version":1,"time":1541094304,"locktime":0,"vin":[{"txid":"159bf6fd5d1b612de5be1bf6e1a0635f0ccb2f33e1c7db64980c67e74397ff38","vout":0,"scriptSig":{"asm":"3045022100af158e9bb91f58623101729eae8a3505b1fe6015c8ef3d713249442a2942509a022013a32a91ce2e05a32a80237be0972d08a6ded95fae1d69dbd9618976495307f801 02341389e5d215c69d7248b7940a9b462408f632edad0e5c3c906c26b33ff6703a","hex":"483045022100af158e9bb91f58623101729eae8a3505b1fe6015c8ef3d713249442a2942509a022013a32a91ce2e05a32a80237be0972d08a6ded95fae1d69dbd9618976495307f8012102341389e5d215c69d7248b7940a9b462408f632edad0e5c3c906c26b33ff6703a"},"sequence":4294967295},{"txid":"cd5677846e5a241d4a57d4e1f17e12190433f7d92a9209ea83645956dd049eba","vout":1,"scriptSig":{"asm":"30450221008853a5ae1ef6790e9da5631cc2ab2b8e72d1e9936fb175d8ee754bb07b7d896602203316bb48de9405284c857ab7ce180a4c7c69a549965e2893547329e2ba597e1201 02348131b1092fe2e04a71a1185f720ade61eb0b88e98db1bbf6a8f672fec8d20e","hex":"4830450221008853a5ae1ef6790e9da5631cc2ab2b8e72d1e9936fb175d8ee754bb07b7d896602203316bb48de9405284c857ab7ce180a4c7c69a549965e2893547329e2ba597e12012102348131b1092fe2e04a71a1185f720ade61eb0b88e98db1bbf6a8f672fec8d20e"},"sequence":4294967295},{"txid":"57f6285f38336a2430568b3913edf8419238ebe11fdac62602190bc432f33e55","vout":1,"scriptSig":{"asm":"30440220231c09d6cbd2305cd48d811f44bff3ceeb5c620f78e6470aa8abf47ef2e56df902202084435cca214c50897d75de7bc3b8c946c89ec5a23d78dd5b40bd32c80af50701 03b9886b53f49219d3a6e67e24085f78f12fd0b2963d3bd25851dda8b81b43aa87","hex":"4730440220231c09d6cbd2305cd48d811f44bff3ceeb5c620f78e6470aa8abf47ef2e56df902202084435cca214c50897d75de7bc3b8c946c89ec5a23d78dd5b40bd32c80af507012103b9886b53f49219d3a6e67e24085f78f12fd0b2963d3bd25851dda8b81b43aa87"},"sequence":4294967295}],"vout":[{"value":0.01221627,"n":0,"scriptPubKey":{"asm":"OP_DUP OP_HASH160 45d6bb67308610d36fcae225600aaad77304f2f8 OP_EQUALVERIFY OP_CHECKSIG","reqSigs":1,"type":"pubkeyhash","addresses":["pBur4nXbrBvuyvSH8hvfR3A7QqYtnURb7A"]}},{"value":9.22227484,"n":1,"scriptPubKey":{"asm":"OP_DUP OP_HASH160 54381c0dacb1c5cea1830e318b23ce4bbb792d87 OP_EQUALVERIFY OP_CHECKSIG","reqSigs":1,"type":"pubkeyhash","addresses":["pDDtBP5gk6PeMdvfebKPGXiSrvYsQjZ8rP"]}}],"blockhash":"9c7b91074d00b704a72dd8149dfee3b4cff9c2483abed03e443429bd60203190","confirmations":84,"blocktime":1541094304}