{"hex":"01000000a03bdb5b0177811e07a3dbafb14970bfa85afd0498a18ae75276e9b17c257b495bff482850010000004847304402202773fe4004eed590e9167aa251469e60f3ca5445be40861d11196acd6d99709a02201056cf59b0c71105ea4f636e0aca66895a6a7fa763eb439e173692c1243cf59f01ffffffff03000000000000000000c62a9e00000000002321028cb920f59c12d79842255d22f95cb209accfa6830daca59ba39d16355b6e3cc4ac14f60b00000000001976a9145e1d99381eb53300f76a3cc6299ce81c71d0c2f788ac00000000","txid":"c1c1a2b46837dacaf63402954f0b9ec663b20415f391f3e403f3e1b5b1b1db4a","version":1,"time":1541094304,"locktime":0,"vin":[{"txid":"502848ff5b497b257cb1e97652e78aa19804fd5aa8bf7049b1afdba3071e8177","vout":1,"scriptSig":{"asm":"304402202773fe4004eed590e9167aa251469e60f3ca5445be40861d11196acd6d99709a02201056cf59b0c71105ea4f636e0aca66895a6a7fa763eb439e173692c1243cf59f01","hex":"47304402202773fe4004eed590e9167aa251469e60f3ca5445be40861d11196acd6d99709a02201056cf59b0c71105ea4f636e0aca66895a6a7fa763eb439e173692c1243cf59f01"},"sequence":4294967295}],"vout":[{"value":0,"n":0,"scriptPubKey":{"asm":"","type":"nonstandard"}},{"value":0.10365638,"n":1,"scriptPubKey":{"asm":"028cb920f59c12d79842255d22f95cb209accfa6830daca59ba39d16355b6e3cc4 OP_CHECKSIG","reqSigs":1,"type":"pubkey","addresses":["p8xHVRJ6JVee7NQuivDZCLKgwHCvMS4FJv"]}},{"value":0.00783892,"n":2,"scriptPubKey":{"asm":"OP_DUP OP_HASH160 5e1d99381eb53300f76a3cc6299ce81c71d0c2f7 OP_EQUALVERIFY OP_CHECKSIG","reqSigs":1,"type":"pubkeyhash","addresses":["pE8DBH6VheNWCoBfLHY8coXmUqVnKuU1Z8"]}}],"blockhash":"9c7b91074d00b704a72dd8149dfee3b4cff9c2483abed03e443429bd60203190","confirmations":84,"blocktime":1541094304}