{"hex":"010000008054d75b01d508556638d3cfb740db928bee166097c3f3003c4cd6bcaf53ae88013a427645010000006b483045022100edc78025bfedcd4fad640953bc29516228d8d8d2667bcb931af330e149b952cc0220571fd60ab0dad62c14a65406eaa5cd82b584f8c30019f77d9f9111d9106b546a0121026ef57679057df94a5f72e9fead08857f8d7253a593b2b1feed1b68e92df4a4c5ffffffff04000000000000000000004429353a0000002321026ef57679057df94a5f72e9fead08857f8d7253a593b2b1feed1b68e92df4a4c5ac987e29353a0000002321026ef57679057df94a5f72e9fead08857f8d7253a593b2b1feed1b68e92df4a4c5ac084c0100000000001976a914f644d7bb2dad64400ad72ff27a1b98cf981fdd7e88ac00000000","txid":"5b934e7af6a8a5583f9b265765c288282834b5896d149b0d5d869dfb7217da21","version":1,"time":1540838528,"locktime":0,"vin":[{"txid":"4576423a0188ae53afbcd64c3c00f3c3976016ee8b92db40b7cfd338665508d5","vout":1,"scriptSig":{"asm":"3045022100edc78025bfedcd4fad640953bc29516228d8d8d2667bcb931af330e149b952cc0220571fd60ab0dad62c14a65406eaa5cd82b584f8c30019f77d9f9111d9106b546a01 026ef57679057df94a5f72e9fead08857f8d7253a593b2b1feed1b68e92df4a4c5","hex":"483045022100edc78025bfedcd4fad640953bc29516228d8d8d2667bcb931af330e149b952cc0220571fd60ab0dad62c14a65406eaa5cd82b584f8c30019f77d9f9111d9106b546a0121026ef57679057df94a5f72e9fead08857f8d7253a593b2b1feed1b68e92df4a4c5"},"sequence":4294967295}],"vout":[{"value":0,"n":0,"scriptPubKey":{"asm":"","type":"nonstandard"}},{"value":2500,"n":1,"scriptPubKey":{"asm":"026ef57679057df94a5f72e9fead08857f8d7253a593b2b1feed1b68e92df4a4c5 OP_CHECKSIG","reqSigs":1,"type":"pubkey","addresses":["p5dRZ9MeyiKDma1pAUrsmvEK4NBmmdC4ZN"]}},{"value":2500.00015,"n":2,"scriptPubKey":{"asm":"026ef57679057df94a5f72e9fead08857f8d7253a593b2b1feed1b68e92df4a4c5 OP_CHECKSIG","reqSigs":1,"type":"pubkey","addresses":["p5dRZ9MeyiKDma1pAUrsmvEK4NBmmdC4ZN"]}},{"value":0.00085,"n":3,"scriptPubKey":{"asm":"OP_DUP OP_HASH160 f644d7bb2dad64400ad72ff27a1b98cf981fdd7e OP_EQUALVERIFY OP_CHECKSIG","reqSigs":1,"type":"pubkeyhash","addresses":["pTziuAqinUjYFVy6Da9fmDBWUTdPjXTj23"]}}],"blockhash":"8fa63b6c7ad6ed4767274c72965a91b3d1500413cf52e9203b9dc01f169ff378","confirmations":185,"blocktime":1540838528}