{"hex":"010000007254d75b01c2508dd592bdfb38767bccd2fc1881d32e25af718a683595b9bccc8f091840f3000000006a47304402205aea84f1a6c17ee248b29cfc62aa909ebeac994b4119be62eb12c6ee3965ad7202206def1119679d4fd00d89516afb32e8e02ec38a837fa17d7ca866ad8cfed274a20121030ad2cdedb937502e0c3463b757350ae11fe2abdbbd9e0055ab53c6b6f8b65fb7ffffffff02a07d3bba730000001976a91464e76b0523c6b380fe59d1e47c6c178af2e2e41688ac00e1f505000000001976a914b0ce8642748d49f1cc613ef2ecf29e7d214262c188ac00000000","txid":"cd2d23a7e91451ca17a8f1149c693c31e0771849e4301ce1d916529c284ae2e3","version":1,"time":1540838528,"locktime":0,"vin":[{"txid":"f34018098fccbcb99535688a71af252ed38118fcd2cc7b7638fbbd92d58d50c2","vout":0,"scriptSig":{"asm":"304402205aea84f1a6c17ee248b29cfc62aa909ebeac994b4119be62eb12c6ee3965ad7202206def1119679d4fd00d89516afb32e8e02ec38a837fa17d7ca866ad8cfed274a201 030ad2cdedb937502e0c3463b757350ae11fe2abdbbd9e0055ab53c6b6f8b65fb7","hex":"47304402205aea84f1a6c17ee248b29cfc62aa909ebeac994b4119be62eb12c6ee3965ad7202206def1119679d4fd00d89516afb32e8e02ec38a837fa17d7ca866ad8cfed274a20121030ad2cdedb937502e0c3463b757350ae11fe2abdbbd9e0055ab53c6b6f8b65fb7"},"sequence":4294967295}],"vout":[{"value":4970.457,"n":0,"scriptPubKey":{"asm":"OP_DUP OP_HASH160 64e76b0523c6b380fe59d1e47c6c178af2e2e416 OP_EQUALVERIFY OP_CHECKSIG","reqSigs":1,"type":"pubkeyhash","addresses":["pEk716YX4BMvVVMXXZP5upRDmDpkez46rp"]}},{"value":1,"n":1,"scriptPubKey":{"asm":"OP_DUP OP_HASH160 b0ce8642748d49f1cc613ef2ecf29e7d214262c1 OP_EQUALVERIFY OP_CHECKSIG","reqSigs":1,"type":"pubkeyhash","addresses":["pMfSY3AcSDZ1N7wAM2xZLAyYbC3rciXuRH"]}}],"blockhash":"8fa63b6c7ad6ed4767274c72965a91b3d1500413cf52e9203b9dc01f169ff378","confirmations":185,"blocktime":1540838528}