{"hex":"01000000b019db5b01643c0d86367e2a75cfad005132d75fb6994f79c65bba611e70c94a3bff22d921010000006a47304402207abbee5d1ef30c6ef65277ee4c01e230201e636ba6992a66829873baf092ee160220260ac6fc19b745e23a20a022a14a8bb39b94e98686aaa4a7d94653ea8326cb28012102b1bc1b9bb31a93198ddd4ab8e9d2abee656ad033761f1071919d791842ace534ffffffff04000000000000000000004429353a000000232102b1bc1b9bb31a93198ddd4ab8e9d2abee656ad033761f1071919d791842ace534ac31be29353a000000232102b1bc1b9bb31a93198ddd4ab8e9d2abee656ad033761f1071919d791842ace534ac6bb40200000000001976a9144c86b0b2edcbbfcf0d0112bbb160a541568205b788ac00000000","txid":"a250df25bc204f7400ca7babd7bd035df2a01f19648b106070b9dbeac481c00f","version":1,"time":1541085616,"locktime":0,"vin":[{"txid":"21d922ff3b4ac9701e61ba5bc6794f99b65fd7325100adcf752a7e36860d3c64","vout":1,"scriptSig":{"asm":"304402207abbee5d1ef30c6ef65277ee4c01e230201e636ba6992a66829873baf092ee160220260ac6fc19b745e23a20a022a14a8bb39b94e98686aaa4a7d94653ea8326cb2801 02b1bc1b9bb31a93198ddd4ab8e9d2abee656ad033761f1071919d791842ace534","hex":"47304402207abbee5d1ef30c6ef65277ee4c01e230201e636ba6992a66829873baf092ee160220260ac6fc19b745e23a20a022a14a8bb39b94e98686aaa4a7d94653ea8326cb28012102b1bc1b9bb31a93198ddd4ab8e9d2abee656ad033761f1071919d791842ace534"},"sequence":4294967295}],"vout":[{"value":0,"n":0,"scriptPubKey":{"asm":"","type":"nonstandard"}},{"value":2500,"n":1,"scriptPubKey":{"asm":"02b1bc1b9bb31a93198ddd4ab8e9d2abee656ad033761f1071919d791842ace534 OP_CHECKSIG","reqSigs":1,"type":"pubkey","addresses":["pTSiMnNaB4wjS22bEGEEkNcu17kmCfBCLj"]}},{"value":2500.00031281,"n":2,"scriptPubKey":{"asm":"02b1bc1b9bb31a93198ddd4ab8e9d2abee656ad033761f1071919d791842ace534 OP_CHECKSIG","reqSigs":1,"type":"pubkey","addresses":["pTSiMnNaB4wjS22bEGEEkNcu17kmCfBCLj"]}},{"value":0.00177259,"n":3,"scriptPubKey":{"asm":"OP_DUP OP_HASH160 4c86b0b2edcbbfcf0d0112bbb160a541568205b7 OP_EQUALVERIFY OP_CHECKSIG","reqSigs":1,"type":"pubkeyhash","addresses":["pCXCuj4F9uaYHMue5Nqy3XLKdLz4U9gRoi"]}}],"blockhash":"ca24643a136dedb719f95925bfa7516dab5ba566275c7638a5c8edc6d583d28c","confirmations":104,"blocktime":1541085616}