{"hex":"01000000ae19db5b036aec7e2dd8427e1e3402db59e050caf4898b768e2194669705d7c7391d52d349000000006a473044022011abc1fbc58c90436b6e34ad364cc7d28d38b928d5b9775f2199d8590b7252200220608a0c9673ca034e455bed0514b647e20b003b202030407361b7209691044e7d0121027a8bf700e9b837578c91807147e50efee0fffc0838ce426cb43b1460a00e0ca6ffffffffe9cf464910672ffc717e2bd6d03760f610a6d7086d5bed6918306ca7703bb417010000006b4830450221009eb8acb0e1b3a746ebf71a14fdcb30531ef5f9129acfacbacc078ee3517470e2022034c392b21031713be5a1596134273e818e536be1d4c34b565e4e661525f855c0012102a63ec66de0531efbe91fecfe2bcfa0f40e077c65303d22ea9a4a5223cbc9e815ffffffff7fd84d4406d63e7661b348069220ef33a5bdaa8593c0222a01554cd741834b17010000006b483045022100ba6733ab9f969b997c0adc25cc668744ebbdd651361be5d132e2bbe9c6e9d1e702205868ff1b533de3cc9f6308ca7d79acc721e37eb8fdf89674ad25373f510b57a90121033b5f9314b77196c06870af7d02faf03cd06f5e30ef115756637fa1d72cf91e41ffffffff026c1d1500000000001976a914afe501efb318ef03b40cabf72d7117a4ae526c5e88aca8146e0c000000001976a9140c7acbc66036be0ae99fe3f4097c9f685e8f23e788ac00000000","txid":"d38036b4782996ba9d5545937a27ebaecdb7cdb285548a5e311f51852c280399","version":1,"time":1541085616,"locktime":0,"vin":[{"txid":"49d3521d39c7d705976694218e768b89f4ca50e059db02341e7e42d82d7eec6a","vout":0,"scriptSig":{"asm":"3044022011abc1fbc58c90436b6e34ad364cc7d28d38b928d5b9775f2199d8590b7252200220608a0c9673ca034e455bed0514b647e20b003b202030407361b7209691044e7d01 027a8bf700e9b837578c91807147e50efee0fffc0838ce426cb43b1460a00e0ca6","hex":"473044022011abc1fbc58c90436b6e34ad364cc7d28d38b928d5b9775f2199d8590b7252200220608a0c9673ca034e455bed0514b647e20b003b202030407361b7209691044e7d0121027a8bf700e9b837578c91807147e50efee0fffc0838ce426cb43b1460a00e0ca6"},"sequence":4294967295},{"txid":"17b43b70a76c301869ed5b6d08d7a610f66037d0d62b7e71fc2f67104946cfe9","vout":1,"scriptSig":{"asm":"30450221009eb8acb0e1b3a746ebf71a14fdcb30531ef5f9129acfacbacc078ee3517470e2022034c392b21031713be5a1596134273e818e536be1d4c34b565e4e661525f855c001 02a63ec66de0531efbe91fecfe2bcfa0f40e077c65303d22ea9a4a5223cbc9e815","hex":"4830450221009eb8acb0e1b3a746ebf71a14fdcb30531ef5f9129acfacbacc078ee3517470e2022034c392b21031713be5a1596134273e818e536be1d4c34b565e4e661525f855c0012102a63ec66de0531efbe91fecfe2bcfa0f40e077c65303d22ea9a4a5223cbc9e815"},"sequence":4294967295},{"txid":"174b8341d74c55012a22c09385aabda533ef20920648b361763ed606444dd87f","vout":1,"scriptSig":{"asm":"3045022100ba6733ab9f969b997c0adc25cc668744ebbdd651361be5d132e2bbe9c6e9d1e702205868ff1b533de3cc9f6308ca7d79acc721e37eb8fdf89674ad25373f510b57a901 033b5f9314b77196c06870af7d02faf03cd06f5e30ef115756637fa1d72cf91e41","hex":"483045022100ba6733ab9f969b997c0adc25cc668744ebbdd651361be5d132e2bbe9c6e9d1e702205868ff1b533de3cc9f6308ca7d79acc721e37eb8fdf89674ad25373f510b57a90121033b5f9314b77196c06870af7d02faf03cd06f5e30ef115756637fa1d72cf91e41"},"sequence":4294967295}],"vout":[{"value":0.01383788,"n":0,"scriptPubKey":{"asm":"OP_DUP OP_HASH160 afe501efb318ef03b40cabf72d7117a4ae526c5e OP_EQUALVERIFY OP_CHECKSIG","reqSigs":1,"type":"pubkeyhash","addresses":["pMacnzySEADG75tRNvs4XmEquiXJBGfazs"]}},{"value":2.0854084,"n":1,"scriptPubKey":{"asm":"OP_DUP OP_HASH160 0c7acbc66036be0ae99fe3f4097c9f685e8f23e7 OP_EQUALVERIFY OP_CHECKSIG","reqSigs":1,"type":"pubkeyhash","addresses":["p6gZR2HBr8qGhQPysttYLMCXLFymeyvnDk"]}}],"blockhash":"ca24643a136dedb719f95925bfa7516dab5ba566275c7638a5c8edc6d583d28c","confirmations":104,"blocktime":1541085616}