{"hex":"010000004066dc5b0190509f7b16d89873a269924982dc819c1cd6e1a49e534205407043d668e1c507010000006b483045022100c81f31f2f12f27bf67ecb0a23e15d7609fd42b1acd82a7f44bde36a27fd455d70220582dab3bb66526bb7c1bb40681a3a5feba0318127f6d80e4079ece73f3b8ecc20121022b01163a24c36970e0de72765d03cbe1bc061255204b7edd50710f2a6f4cabc5ffffffff04000000000000000000004429353a0000002321022b01163a24c36970e0de72765d03cbe1bc061255204b7edd50710f2a6f4cabc5ac7e4729353a0000002321022b01163a24c36970e0de72765d03cbe1bc061255204b7edd50710f2a6f4cabc5acc8130000000000001976a9144c86b0b2edcbbfcf0d0112bbb160a541568205b788ac00000000","txid":"c3111665c7e55bd846a357aaa329d2170e4cf23d5fdf5e02e0a3d9e27b029bee","version":1,"time":1541170752,"locktime":0,"vin":[{"txid":"07c5e168d64370400542539ea4e1d61c9c81dc82499269a27398d8167b9f5090","vout":1,"scriptSig":{"asm":"3045022100c81f31f2f12f27bf67ecb0a23e15d7609fd42b1acd82a7f44bde36a27fd455d70220582dab3bb66526bb7c1bb40681a3a5feba0318127f6d80e4079ece73f3b8ecc201 022b01163a24c36970e0de72765d03cbe1bc061255204b7edd50710f2a6f4cabc5","hex":"483045022100c81f31f2f12f27bf67ecb0a23e15d7609fd42b1acd82a7f44bde36a27fd455d70220582dab3bb66526bb7c1bb40681a3a5feba0318127f6d80e4079ece73f3b8ecc20121022b01163a24c36970e0de72765d03cbe1bc061255204b7edd50710f2a6f4cabc5"},"sequence":4294967295}],"vout":[{"value":0,"n":0,"scriptPubKey":{"asm":"","type":"nonstandard"}},{"value":2500,"n":1,"scriptPubKey":{"asm":"022b01163a24c36970e0de72765d03cbe1bc061255204b7edd50710f2a6f4cabc5 OP_CHECKSIG","reqSigs":1,"type":"pubkey","addresses":["pKBPoNA3SJPY8i2H3PXAafpEbMr7NNikgL"]}},{"value":2500.00000894,"n":2,"scriptPubKey":{"asm":"022b01163a24c36970e0de72765d03cbe1bc061255204b7edd50710f2a6f4cabc5 OP_CHECKSIG","reqSigs":1,"type":"pubkey","addresses":["pKBPoNA3SJPY8i2H3PXAafpEbMr7NNikgL"]}},{"value":0.00005064,"n":3,"scriptPubKey":{"asm":"OP_DUP OP_HASH160 4c86b0b2edcbbfcf0d0112bbb160a541568205b7 OP_EQUALVERIFY OP_CHECKSIG","reqSigs":1,"type":"pubkeyhash","addresses":["pCXCuj4F9uaYHMue5Nqy3XLKdLz4U9gRoi"]}}],"blockhash":"834eeafcef23a7673a21e9013d340148ba691b304d295896fb8a3b9d1da757cc","confirmations":77,"blocktime":1541170752}