{"hex":"010000003766dc5b03afd929a9f032b1dc46fd252ce1fa238f4b8c8ddefd4e5a02ea82824d8ee0ee87000000006a4730440220171d3c39c5547d5419e6e4b10a6d6c3032f8f17563a2dedc377d67dfd3d6b5c902204e2ffbc1a2f2910fc08286b49f94c905343037af857faf8919ce0bb5b40eac9b012102d3c6dce12d97530563926f78dbc9f00029102449e9406c9b65f0b9cb295a23efffffffff38ff9743e7670c9864dbc7e1332fcb0c5f63a0e1f61bbee52d611b5dfdf69b15010000006b483045022100e778b32c71677c43a8606463d2e268745ae41409041546658c22937bfda366a702202547fcb3ee5a21d0a316f27de49816f5ccd5a255493d87d1d18b96d2cc0ee035012103c37b8873e2764feb83c2b819bf523e1af2be0af0fa27bdf5b9950f69994005b4ffffffff82d4f0ba82cd414fa9009d1ffe09b6ee14f90c3581e84d8728d259ed0961dfbf000000006a4730440220178f6856259157053289dc75491ac1ec0d92457126ec6547ca66c1ea1033e8cf02203a795322de5c33895dd5bdc08204a37216035b520a3771617bc5f75553a1fd69012102be89e23fda178db4fbb787f286572d1929900613f76de5be6e14cd3f1de4ae47ffffffff02d7932900000000001976a9149e46d07b1b1f7534339d6d8f0c1f6e35752b335a88aca6ea5a00000000001976a91457a830a9203162cba1b19836ec525402ee7aee2988ac00000000","txid":"c8b80d6cede3ef0eef47f081bc29b240f8464ab48169cee95bd0091d9ccfce7c","version":1,"time":1541170752,"locktime":0,"vin":[{"txid":"87eee08e4d8282ea025a4efdde8d8c4b8f23fae12c25fd46dcb132f0a929d9af","vout":0,"scriptSig":{"asm":"30440220171d3c39c5547d5419e6e4b10a6d6c3032f8f17563a2dedc377d67dfd3d6b5c902204e2ffbc1a2f2910fc08286b49f94c905343037af857faf8919ce0bb5b40eac9b01 02d3c6dce12d97530563926f78dbc9f00029102449e9406c9b65f0b9cb295a23ef","hex":"4730440220171d3c39c5547d5419e6e4b10a6d6c3032f8f17563a2dedc377d67dfd3d6b5c902204e2ffbc1a2f2910fc08286b49f94c905343037af857faf8919ce0bb5b40eac9b012102d3c6dce12d97530563926f78dbc9f00029102449e9406c9b65f0b9cb295a23ef"},"sequence":4294967295},{"txid":"159bf6fd5d1b612de5be1bf6e1a0635f0ccb2f33e1c7db64980c67e74397ff38","vout":1,"scriptSig":{"asm":"3045022100e778b32c71677c43a8606463d2e268745ae41409041546658c22937bfda366a702202547fcb3ee5a21d0a316f27de49816f5ccd5a255493d87d1d18b96d2cc0ee03501 03c37b8873e2764feb83c2b819bf523e1af2be0af0fa27bdf5b9950f69994005b4","hex":"483045022100e778b32c71677c43a8606463d2e268745ae41409041546658c22937bfda366a702202547fcb3ee5a21d0a316f27de49816f5ccd5a255493d87d1d18b96d2cc0ee035012103c37b8873e2764feb83c2b819bf523e1af2be0af0fa27bdf5b9950f69994005b4"},"sequence":4294967295},{"txid":"bfdf6109ed59d228874de881350cf914eeb609fe1f9d00a94f41cd82baf0d482","vout":0,"scriptSig":{"asm":"30440220178f6856259157053289dc75491ac1ec0d92457126ec6547ca66c1ea1033e8cf02203a795322de5c33895dd5bdc08204a37216035b520a3771617bc5f75553a1fd6901 02be89e23fda178db4fbb787f286572d1929900613f76de5be6e14cd3f1de4ae47","hex":"4730440220178f6856259157053289dc75491ac1ec0d92457126ec6547ca66c1ea1033e8cf02203a795322de5c33895dd5bdc08204a37216035b520a3771617bc5f75553a1fd69012102be89e23fda178db4fbb787f286572d1929900613f76de5be6e14cd3f1de4ae47"},"sequence":4294967295}],"vout":[{"value":0.02724823,"n":0,"scriptPubKey":{"asm":"OP_DUP OP_HASH160 9e46d07b1b1f7534339d6d8f0c1f6e35752b335a OP_EQUALVERIFY OP_CHECKSIG","reqSigs":1,"type":"pubkeyhash","addresses":["pKyToHRiFz7VnmMDjVpgfuom8JxuhMMdku"]}},{"value":0.0595831,"n":1,"scriptPubKey":{"asm":"OP_DUP OP_HASH160 57a830a9203162cba1b19836ec525402ee7aee29 OP_EQUALVERIFY OP_CHECKSIG","reqSigs":1,"type":"pubkeyhash","addresses":["pDY4USrAaE1jstdEd2vtDSW7hEsocwkziu"]}}],"blockhash":"834eeafcef23a7673a21e9013d340148ba691b304d295896fb8a3b9d1da757cc","confirmations":77,"blocktime":1541170752}