{"hex":"0100000027a0c25b010000000000000000000000000000000000000000000000000000000000000000ffffffff04011f0101ffffffff0100000000000000001976a9145103b68937ad36e373b4fa2bb32b85c729981d8d88ac00000000","txid":"2899465613d38237e7d9288da217e6ed4521956863f91fadc9db334f90a34451","version":1,"time":1539481639,"locktime":0,"vin":[{"coinbase":"011f0101","sequence":4294967295}],"vout":[{"value":0,"n":0,"scriptPubKey":{"asm":"OP_DUP OP_HASH160 5103b68937ad36e373b4fa2bb32b85c729981d8d OP_EQUALVERIFY OP_CHECKSIG","reqSigs":1,"type":"pubkeyhash","addresses":["pCvwPEH7hwfae8hafP6hu5WUMpSzNJgceV"]}}],"blockhash":"00000721933ebf0a3dcc07fa898c8955147161f68a0495b163cb74087d3cb259","confirmations":128,"blocktime":1539481639}