{"hex":"01000000a6a1c25b010000000000000000000000000000000000000000000000000000000000000000ffffffff04013e0101ffffffff0100000000000000001976a9148f946cb64f6fbd1cfd8b52fcecd1f4571c3dd5a788ac00000000","txid":"31f1ce696b5bdaf9e3d986b24e3072a2a15b25e0e4b5c150aeeef0b7d76005a3","version":1,"time":1539482022,"locktime":0,"vin":[{"coinbase":"013e0101","sequence":4294967295}],"vout":[{"value":0,"n":0,"scriptPubKey":{"asm":"OP_DUP OP_HASH160 8f946cb64f6fbd1cfd8b52fcecd1f4571c3dd5a7 OP_EQUALVERIFY OP_CHECKSIG","reqSigs":1,"type":"pubkeyhash","addresses":["pJdkds2DStKDspAGU2rFWuB5kfSoAfSh7K"]}}],"blockhash":"000006c07f4d2b305dee2f41bb4e5732269db4ac2c4845e29182e6ae53b046b8","confirmations":97,"blocktime":1539482022}