{"hex":"01000000489ec25b010000000000000000000000000000000000000000000000000000000000000000ffffffff035d0101ffffffff0100000000000000001976a91432830fe29d252ce67d74af1d9ca127c3495eb9c088ac00000000","txid":"f8875403b30ecb5aeafa2f85ce6ff88caafd721cbe2b8ae50fdb1eee0b3950fe","version":1,"time":1539481160,"locktime":0,"vin":[{"coinbase":"5d0101","sequence":4294967295}],"vout":[{"value":0,"n":0,"scriptPubKey":{"asm":"OP_DUP OP_HASH160 32830fe29d252ce67d74af1d9ca127c3495eb9c0 OP_EQUALVERIFY OP_CHECKSIG","reqSigs":1,"type":"pubkeyhash","addresses":["pA9ezeYKMhSMKAriVRuGoW7MTivMuEPXVb"]}}],"blockhash":"00000032962577985b7f3d13ecc5edc4ed78230ab131a57b8457237fb7e0a9c7","confirmations":432,"blocktime":1539481160}