{"hex":"01000000ab24d75b08c8e55bad1bf9338aedda27c9fd4a3bd9cf7f2eadefacf55767a84d0b7a1b2901000000006a47304402200841f613e2b640aab63293cc1c5c11c3286be1827898baabe7404776487125bb022027692574908d05ab6483bf40a1b9d4bf5d4ffc0f759022d81268328af69e5f680121029e857134122939a57279b02312e296a02bcf0cf876ddc541bd372450215dbeacfffffffff7d9b45a209f56c7c36354450963e1e92f88fa15a67ca23bfb90d5041f3f1810010000006b483045022100f77d3aa09595681f595cfd6e57393c70dad5327ca381b164befd3aff2316e6c902200e2060df0358d596bbdb3f2b204beaae89a3e920327251e9eb46edc53973961501210274198e8b0c36c1768684858c1f7fdfeb7b58653a3257eaa102fbc0882d1cd11dffffffff5e69d04e0315906db3a9e980c4b177a9462d68c635b278e4e105e1264a03c318000000006b483045022100e493417ab4a1031fd4ad48523c8b837ae6f78c1abd5fb369db8d653fe8a804520220772a8e5cb438cfdc99fa1d08dacbf18829b9e127d0fd85e1e141a41f47a637ab0121029e857134122939a57279b02312e296a02bcf0cf876ddc541bd372450215dbeacffffffff5e69d04e0315906db3a9e980c4b177a9462d68c635b278e4e105e1264a03c318010000006a47304402200bb84c71a262b902d213c0e22d298c18ad412fecbb87d113dcc4dcf6c9dd0e2602203f1651f27fa48c7fc1658194006ca6c1805afc70af98022e8c27ecba09d0e781012103e0b36209a07f63a1de32cf88045ca6aa94c5d7e3bb109ce070088b02c18ae805ffffffffd0bcd7f84903f40d842051274d32cad98b74158deff9e9af2f2b8b07c57e9beb000000006b48304502210082c624e56c28daa2113fc76063de2fad5f8d092e4133599000484bd8312417e202207198ac277075e1af74db0c5f02d278e9baa8be8064629ffe7b110f20070439010121029e857134122939a57279b02312e296a02bcf0cf876ddc541bd372450215dbeacffffffff34d2e97a3cab29cd8fe85719f12d9c51c0d07b6c932834b7250fb1e7d9d81bc3000000006b483045022100f1f0201794e187b8d17f7eb515d566655bc6d60999a387fe958166d8dcee515e02206419d3fa511283963d022c40850a69cd4dde528fd3ca05b616c97163d28a7eed0121029e857134122939a57279b02312e296a02bcf0cf876ddc541bd372450215dbeacffffffffb809c82353f3a3d6ce74502b9f949caf34363fc09b5fc89f1992d2364ef889bb010000006a473044022015df479d82eb44350c9daba245e759e2c2cc69591145932be473db3def72eb5f022028d14924c219431efd8018ac0f99e8e6c6295bb5bb9f5d48ac5804361e0a20690121024dc2de9912f77928aca86ebb63fe00b76c6d7f4d051bc8f31b69a44f80b24868ffffffff80a5ec488276ca18366e05a0dedd7cfa9f1363adc7576c76e6a971a953eab9ed000000006b48304502210082f74d6aa9f11156c91ca440935c65580aef71eb3a8f2b5a890afd8ac69747b802207936ae94bbdcb8e8cb5ee997b777cc99eaf150d4b4295eab28a88bfd90884e4101210244f4df40223ed520ff838de72a9426db861ecb87faef014fd0b97467e3ae2650ffffffff02e3530f00000000001976a914ad2e26e7d709166ef708cad6c5b6d28860b53dea88ac58f17e00000000001976a91475806b390be14172b823ab7a8977ca3a4d3061a088ac00000000","txid":"9db65468817a0e6f3a5addb37c4c5d6b11885e57860edb3abde14418bba44883","version":1,"time":1540826288,"locktime":0,"vin":[{"txid":"01291b7a0b4da86757f5acefad2e7fcfd93b4afdc927daed8a33f91bad5be5c8","vout":0,"scriptSig":{"asm":"304402200841f613e2b640aab63293cc1c5c11c3286be1827898baabe7404776487125bb022027692574908d05ab6483bf40a1b9d4bf5d4ffc0f759022d81268328af69e5f6801 029e857134122939a57279b02312e296a02bcf0cf876ddc541bd372450215dbeac","hex":"47304402200841f613e2b640aab63293cc1c5c11c3286be1827898baabe7404776487125bb022027692574908d05ab6483bf40a1b9d4bf5d4ffc0f759022d81268328af69e5f680121029e857134122939a57279b02312e296a02bcf0cf876ddc541bd372450215dbeac"},"sequence":4294967295},{"txid":"10183f1f04d590fb3ba27ca615fa882fe9e16309455463c3c7569f205ab4d9f7","vout":1,"scriptSig":{"asm":"3045022100f77d3aa09595681f595cfd6e57393c70dad5327ca381b164befd3aff2316e6c902200e2060df0358d596bbdb3f2b204beaae89a3e920327251e9eb46edc53973961501 0274198e8b0c36c1768684858c1f7fdfeb7b58653a3257eaa102fbc0882d1cd11d","hex":"483045022100f77d3aa09595681f595cfd6e57393c70dad5327ca381b164befd3aff2316e6c902200e2060df0358d596bbdb3f2b204beaae89a3e920327251e9eb46edc53973961501210274198e8b0c36c1768684858c1f7fdfeb7b58653a3257eaa102fbc0882d1cd11d"},"sequence":4294967295},{"txid":"18c3034a26e105e1e478b235c6682d46a977b1c480e9a9b36d9015034ed0695e","vout":0,"scriptSig":{"asm":"3045022100e493417ab4a1031fd4ad48523c8b837ae6f78c1abd5fb369db8d653fe8a804520220772a8e5cb438cfdc99fa1d08dacbf18829b9e127d0fd85e1e141a41f47a637ab01 029e857134122939a57279b02312e296a02bcf0cf876ddc541bd372450215dbeac","hex":"483045022100e493417ab4a1031fd4ad48523c8b837ae6f78c1abd5fb369db8d653fe8a804520220772a8e5cb438cfdc99fa1d08dacbf18829b9e127d0fd85e1e141a41f47a637ab0121029e857134122939a57279b02312e296a02bcf0cf876ddc541bd372450215dbeac"},"sequence":4294967295},{"txid":"18c3034a26e105e1e478b235c6682d46a977b1c480e9a9b36d9015034ed0695e","vout":1,"scriptSig":{"asm":"304402200bb84c71a262b902d213c0e22d298c18ad412fecbb87d113dcc4dcf6c9dd0e2602203f1651f27fa48c7fc1658194006ca6c1805afc70af98022e8c27ecba09d0e78101 03e0b36209a07f63a1de32cf88045ca6aa94c5d7e3bb109ce070088b02c18ae805","hex":"47304402200bb84c71a262b902d213c0e22d298c18ad412fecbb87d113dcc4dcf6c9dd0e2602203f1651f27fa48c7fc1658194006ca6c1805afc70af98022e8c27ecba09d0e781012103e0b36209a07f63a1de32cf88045ca6aa94c5d7e3bb109ce070088b02c18ae805"},"sequence":4294967295},{"txid":"eb9b7ec5078b2b2fafe9f9ef8d15748bd9ca324d275120840df40349f8d7bcd0","vout":0,"scriptSig":{"asm":"304502210082c624e56c28daa2113fc76063de2fad5f8d092e4133599000484bd8312417e202207198ac277075e1af74db0c5f02d278e9baa8be8064629ffe7b110f200704390101 029e857134122939a57279b02312e296a02bcf0cf876ddc541bd372450215dbeac","hex":"48304502210082c624e56c28daa2113fc76063de2fad5f8d092e4133599000484bd8312417e202207198ac277075e1af74db0c5f02d278e9baa8be8064629ffe7b110f20070439010121029e857134122939a57279b02312e296a02bcf0cf876ddc541bd372450215dbeac"},"sequence":4294967295},{"txid":"c31bd8d9e7b10f25b73428936c7bd0c0519c2df11957e88fcd29ab3c7ae9d234","vout":0,"scriptSig":{"asm":"3045022100f1f0201794e187b8d17f7eb515d566655bc6d60999a387fe958166d8dcee515e02206419d3fa511283963d022c40850a69cd4dde528fd3ca05b616c97163d28a7eed01 029e857134122939a57279b02312e296a02bcf0cf876ddc541bd372450215dbeac","hex":"483045022100f1f0201794e187b8d17f7eb515d566655bc6d60999a387fe958166d8dcee515e02206419d3fa511283963d022c40850a69cd4dde528fd3ca05b616c97163d28a7eed0121029e857134122939a57279b02312e296a02bcf0cf876ddc541bd372450215dbeac"},"sequence":4294967295},{"txid":"bb89f84e36d292199fc85f9bc03f3634af9c949f2b5074ced6a3f35323c809b8","vout":1,"scriptSig":{"asm":"3044022015df479d82eb44350c9daba245e759e2c2cc69591145932be473db3def72eb5f022028d14924c219431efd8018ac0f99e8e6c6295bb5bb9f5d48ac5804361e0a206901 024dc2de9912f77928aca86ebb63fe00b76c6d7f4d051bc8f31b69a44f80b24868","hex":"473044022015df479d82eb44350c9daba245e759e2c2cc69591145932be473db3def72eb5f022028d14924c219431efd8018ac0f99e8e6c6295bb5bb9f5d48ac5804361e0a20690121024dc2de9912f77928aca86ebb63fe00b76c6d7f4d051bc8f31b69a44f80b24868"},"sequence":4294967295},{"txid":"edb9ea53a971a9e6766c57c7ad63139ffa7cdddea0056e3618ca768248eca580","vout":0,"scriptSig":{"asm":"304502210082f74d6aa9f11156c91ca440935c65580aef71eb3a8f2b5a890afd8ac69747b802207936ae94bbdcb8e8cb5ee997b777cc99eaf150d4b4295eab28a88bfd90884e4101 0244f4df40223ed520ff838de72a9426db861ecb87faef014fd0b97467e3ae2650","hex":"48304502210082f74d6aa9f11156c91ca440935c65580aef71eb3a8f2b5a890afd8ac69747b802207936ae94bbdcb8e8cb5ee997b777cc99eaf150d4b4295eab28a88bfd90884e4101210244f4df40223ed520ff838de72a9426db861ecb87faef014fd0b97467e3ae2650"},"sequence":4294967295}],"vout":[{"value":0.01004515,"n":0,"scriptPubKey":{"asm":"OP_DUP OP_HASH160 ad2e26e7d709166ef708cad6c5b6d28860b53dea OP_EQUALVERIFY OP_CHECKSIG","reqSigs":1,"type":"pubkeyhash","addresses":["pMLGPb38DrsvLydG6aTj3d7XdWMrz5o5Hw"]}},{"value":0.0831932,"n":1,"scriptPubKey":{"asm":"OP_DUP OP_HASH160 75806b390be14172b823ab7a8977ca3a4d3061a0 OP_EQUALVERIFY OP_CHECKSIG","reqSigs":1,"type":"pubkeyhash","addresses":["pGFs6r5pokiHHu1SLjvVA9hbz6rPJyjSuw"]}}],"blockhash":"989403d426a9b71536b545a033209e6b6c0297352933cd6c3f05f38448a19c02","confirmations":195,"blocktime":1540826288}