{"hex":"01000000b024d75b013ac0ac693093b52a472ef5006a6ec88e3ce3eba0b825ea9ea54d8da81b1cdba60100000048473044022025ac13f4343f550c3f12ed26c65609608c5a77f253f027ed7098a7e08641000802205fe12a3ccfc75daf8590703d6ec733e54998d3014852d9d5881d92a3aac5c9f601ffffffff03000000000000000000e0b6ded1010000002321020b1cd26fc4b9f080aea1cf7b667efd5e8453f70429056589831fa7f63506ddbfac9f1b0000000000001976a9147cf288aefa27580772a2e44d947f0a962553405d88ac00000000","txid":"ea1233381f39bc74c78a3508079728f4dccec2761bbef2c1a83f2014f58e1f51","version":1,"time":1540826288,"locktime":0,"vin":[{"txid":"a6db1c1ba88d4da59eea25b8a0ebe33c8ec86e6a00f52e472ab5933069acc03a","vout":1,"scriptSig":{"asm":"3044022025ac13f4343f550c3f12ed26c65609608c5a77f253f027ed7098a7e08641000802205fe12a3ccfc75daf8590703d6ec733e54998d3014852d9d5881d92a3aac5c9f601","hex":"473044022025ac13f4343f550c3f12ed26c65609608c5a77f253f027ed7098a7e08641000802205fe12a3ccfc75daf8590703d6ec733e54998d3014852d9d5881d92a3aac5c9f601"},"sequence":4294967295}],"vout":[{"value":0,"n":0,"scriptPubKey":{"asm":"","type":"nonstandard"}},{"value":78.16001248,"n":1,"scriptPubKey":{"asm":"020b1cd26fc4b9f080aea1cf7b667efd5e8453f70429056589831fa7f63506ddbf OP_CHECKSIG","reqSigs":1,"type":"pubkey","addresses":["pECTDpfW4nW8hYte3f3F9ZQxwgWmBwmcYL"]}},{"value":0.00007071,"n":2,"scriptPubKey":{"asm":"OP_DUP OP_HASH160 7cf288aefa27580772a2e44d947f0a962553405d OP_EQUALVERIFY OP_CHECKSIG","reqSigs":1,"type":"pubkeyhash","addresses":["pGwEY3YdfsrsoLzpPy8zj5rEMTsKeC6Mb3"]}}],"blockhash":"989403d426a9b71536b545a033209e6b6c0297352933cd6c3f05f38448a19c02","confirmations":195,"blocktime":1540826288}