{"hex":"01000000f03adb5b0144c5a5a7987afd2baaeca6faf98f7adfe2b91359a5faaaf22efb439756bd332c0100000049483045022100f57a4e648b8361449a389db191a4fc81a3049648edc050db24970fd886a2a78102200bba270aab698b1dd7b540b44b807dee95cd35a884f3a6b411a76473ff1e229801ffffffff03000000000000000000670e9c00000000002321028cb920f59c12d79842255d22f95cb209accfa6830daca59ba39d16355b6e3cc4ac14f60b00000000001976a9140c2d1eddba56317fb81d41241b8f40bbca7b5b5488ac00000000","txid":"502848ff5b497b257cb1e97652e78aa19804fd5aa8bf7049b1afdba3071e8177","version":1,"time":1541094128,"locktime":0,"vin":[{"txid":"2c33bd569743fb2ef2aafaa55913b9e2df7a8ff9faa6ecaa2bfd7a98a7a5c544","vout":1,"scriptSig":{"asm":"3045022100f57a4e648b8361449a389db191a4fc81a3049648edc050db24970fd886a2a78102200bba270aab698b1dd7b540b44b807dee95cd35a884f3a6b411a76473ff1e229801","hex":"483045022100f57a4e648b8361449a389db191a4fc81a3049648edc050db24970fd886a2a78102200bba270aab698b1dd7b540b44b807dee95cd35a884f3a6b411a76473ff1e229801"},"sequence":4294967295}],"vout":[{"value":0,"n":0,"scriptPubKey":{"asm":"","type":"nonstandard"}},{"value":0.10227303,"n":1,"scriptPubKey":{"asm":"028cb920f59c12d79842255d22f95cb209accfa6830daca59ba39d16355b6e3cc4 OP_CHECKSIG","reqSigs":1,"type":"pubkey","addresses":["p8xHVRJ6JVee7NQuivDZCLKgwHCvMS4FJv"]}},{"value":0.00783892,"n":2,"scriptPubKey":{"asm":"OP_DUP OP_HASH160 0c2d1eddba56317fb81d41241b8f40bbca7b5b54 OP_EQUALVERIFY OP_CHECKSIG","reqSigs":1,"type":"pubkeyhash","addresses":["p6exN3FuZmZyQ7WNzLf7AweTLuHqDvcERN"]}}],"blockhash":"7973762738849365f468099f1d217f71be50f134adee9fc2ece2d39e93782b5e","confirmations":85,"blocktime":1541094128}