{"hex":"01000000e83adb5b0109eb1ecef715d6a2e0842c2a5e85349d2abc701b1469fcab7ecaf07bb5843b2e000000006b483045022100f6f75b62956bff23356657f9f710ac7888667f775d93a4579664458fc644ea2d02204495a73ccefcbdae0f113eea0fea6d865694913abf609713c0fee4a6c4a12df90121030e7175605fcfaa7aa0044824955ed9202802d4820160d34d084579b55e4b3963ffffffff028857cddf000000001976a91435e420d611b5806ce88264665a23a219f55ce7a788ac1c13f836000000001976a9141fcbd501bf1e735d6c583b957924d6228969ee7688ac00000000","txid":"cd5677846e5a241d4a57d4e1f17e12190433f7d92a9209ea83645956dd049eba","version":1,"time":1541094128,"locktime":0,"vin":[{"txid":"2e3b84b57bf0ca7eabfc69141b70bc2a9d34855e2a2c84e0a2d615f7ce1eeb09","vout":0,"scriptSig":{"asm":"3045022100f6f75b62956bff23356657f9f710ac7888667f775d93a4579664458fc644ea2d02204495a73ccefcbdae0f113eea0fea6d865694913abf609713c0fee4a6c4a12df901 030e7175605fcfaa7aa0044824955ed9202802d4820160d34d084579b55e4b3963","hex":"483045022100f6f75b62956bff23356657f9f710ac7888667f775d93a4579664458fc644ea2d02204495a73ccefcbdae0f113eea0fea6d865694913abf609713c0fee4a6c4a12df90121030e7175605fcfaa7aa0044824955ed9202802d4820160d34d084579b55e4b3963"},"sequence":4294967295}],"vout":[{"value":37.54776456,"n":0,"scriptPubKey":{"asm":"OP_DUP OP_HASH160 35e420d611b5806ce88264665a23a219f55ce7a7 OP_EQUALVERIFY OP_CHECKSIG","reqSigs":1,"type":"pubkeyhash","addresses":["pATXJW6Hz8FTcgCZh8vHzJ6z264yNgJ82B"]}},{"value":9.22227484,"n":1,"scriptPubKey":{"asm":"OP_DUP OP_HASH160 1fcbd501bf1e735d6c583b957924d6228969ee76 OP_EQUALVERIFY OP_CHECKSIG","reqSigs":1,"type":"pubkeyhash","addresses":["p8ShL9mSFw93mEupJGJjjj26pvJ5299txp"]}}],"blockhash":"7973762738849365f468099f1d217f71be50f134adee9fc2ece2d39e93782b5e","confirmations":85,"blocktime":1541094128}