{"hex":"0100000000a7c25b0139584852b7aa6b9c428a7010a1a94f8513dcdd823701967ec0a8ed19d28863e1010000006b483045022100aec2ce51ddb6a630078c11c98be3f63c0f1d78f37c964d5383805c85398c139b022010bc2c0c35f319fa3232beaa0f7968c1677273b748fec0a9e60ae876568b461701210348b24f77eda58d2bf0bd56f764cfdeb0100d2f1058b2d5318f2f2fc9670e730effffffff04000000000000000000c0250e363a00000023210348b24f77eda58d2bf0bd56f764cfdeb0100d2f1058b2d5318f2f2fc9670e730eacc0250e363a00000023210348b24f77eda58d2bf0bd56f764cfdeb0100d2f1058b2d5318f2f2fc9670e730eac80fe210a000000001976a9148e3f6e3d2f029829ca356517f18e326c94cd54cd88ac00000000","txid":"3aca6563ea7f974914cca33a594e9370258988225a44e0535aba8202f7a110f7","version":1,"time":1539483392,"locktime":0,"vin":[{"txid":"e16388d219eda8c07e96013782dddc13854fa9a110708a429c6baab752485839","vout":1,"scriptSig":{"asm":"3045022100aec2ce51ddb6a630078c11c98be3f63c0f1d78f37c964d5383805c85398c139b022010bc2c0c35f319fa3232beaa0f7968c1677273b748fec0a9e60ae876568b461701 0348b24f77eda58d2bf0bd56f764cfdeb0100d2f1058b2d5318f2f2fc9670e730e","hex":"483045022100aec2ce51ddb6a630078c11c98be3f63c0f1d78f37c964d5383805c85398c139b022010bc2c0c35f319fa3232beaa0f7968c1677273b748fec0a9e60ae876568b461701210348b24f77eda58d2bf0bd56f764cfdeb0100d2f1058b2d5318f2f2fc9670e730e"},"sequence":4294967295}],"vout":[{"value":0,"n":0,"scriptPubKey":{"asm":"","type":"nonstandard"}},{"value":2500.15,"n":1,"scriptPubKey":{"asm":"0348b24f77eda58d2bf0bd56f764cfdeb0100d2f1058b2d5318f2f2fc9670e730e OP_CHECKSIG","reqSigs":1,"type":"pubkey","addresses":["p8X7huKtvdnnDzc17Xcxxh1Z9ww8ckxvVJ"]}},{"value":2500.15,"n":2,"scriptPubKey":{"asm":"0348b24f77eda58d2bf0bd56f764cfdeb0100d2f1058b2d5318f2f2fc9670e730e OP_CHECKSIG","reqSigs":1,"type":"pubkey","addresses":["p8X7huKtvdnnDzc17Xcxxh1Z9ww8ckxvVJ"]}},{"value":1.7,"n":3,"scriptPubKey":{"asm":"OP_DUP OP_HASH160 8e3f6e3d2f029829ca356517f18e326c94cd54cd OP_EQUALVERIFY OP_CHECKSIG","reqSigs":1,"type":"pubkeyhash","addresses":["pJWi9BXT9hsVaAft92RNcufBy1LZGU4RtT"]}}],"blockhash":"e73071ecea203d472ac92a865b2110df7ccdb204d54a7084c42efb67f701f40b","confirmations":48,"blocktime":1539483392}