{"hex":"01000000f3a6c25b01b0126fda52e72013c02459f86139db35923e9adb38526dd200137eacb6542adf000000006b483045022100e36d369535d6277e65172f1a25241fb899d6128f80a5967477667b6036e604c202205edeab32d03a50a7a4123c5707c7e8d14b112ebf71883a8e94d0c2733dbf9274012102951f428f84d1f4b88d662ede8b395962c806617c751ea8df3975f1d95338204effffffff0200f458f8938023001976a914b6a78b53dc95a73a234d20bbf2dbbd5f8a91ac4a88ac0088526a740000001976a91494663191b35c746d9b53200027af769cfd8a5ec588ac00000000","txid":"bed4c047cfa56cce8ff3e29e4351aad7c3216345e77643cdb209a3dc955909bd","version":1,"time":1539483392,"locktime":0,"vin":[{"txid":"df2a54b6ac7e1300d26d5238db9a3e9235db3961f85924c01320e752da6f12b0","vout":0,"scriptSig":{"asm":"3045022100e36d369535d6277e65172f1a25241fb899d6128f80a5967477667b6036e604c202205edeab32d03a50a7a4123c5707c7e8d14b112ebf71883a8e94d0c2733dbf927401 02951f428f84d1f4b88d662ede8b395962c806617c751ea8df3975f1d95338204e","hex":"483045022100e36d369535d6277e65172f1a25241fb899d6128f80a5967477667b6036e604c202205edeab32d03a50a7a4123c5707c7e8d14b112ebf71883a8e94d0c2733dbf9274012102951f428f84d1f4b88d662ede8b395962c806617c751ea8df3975f1d95338204e"},"sequence":4294967295}],"vout":[{"value":99929972,"n":0,"scriptPubKey":{"asm":"OP_DUP OP_HASH160 b6a78b53dc95a73a234d20bbf2dbbd5f8a91ac4a OP_EQUALVERIFY OP_CHECKSIG","reqSigs":1,"type":"pubkeyhash","addresses":["pNCMtoBqnTP7tEoR5BFh64ogNvW1rNymSy"]}},{"value":5000,"n":1,"scriptPubKey":{"asm":"OP_DUP OP_HASH160 94663191b35c746d9b53200027af769cfd8a5ec5 OP_EQUALVERIFY OP_CHECKSIG","reqSigs":1,"type":"pubkeyhash","addresses":["pK5Eddk3vr4yi7hrwuoQfuFmrHAeSuez22"]}}],"blockhash":"e73071ecea203d472ac92a865b2110df7ccdb204d54a7084c42efb67f701f40b","confirmations":334,"blocktime":1539483392}