{"hex":"010000001061d75b0121da1772fb9d865d0d9b146d89b534282888c26557269b3f58a5a8f67a4e935b0100000049483045022100c00fcaa46657b16dd86b0d34c3fd24ed5d4237b0f7771048c775c8bce9f48455022067925581f909895215c3e3791450a8fd533ee33b3c1cec48b87aa530ef9ef68e01ffffffff04000000000000000000c083791b1d0000002321026ef57679057df94a5f72e9fead08857f8d7253a593b2b1feed1b68e92df4a4c5acc083791b1d0000002321026ef57679057df94a5f72e9fead08857f8d7253a593b2b1feed1b68e92df4a4c5ac80fe210a000000001976a914f0371486e89ca3a2057c60329aff065cd986aee188ac00000000","txid":"1cef1fc63d2e70a1482b181dfbe4d3ee7f40b4439ff0ab47d928809acbb6d807","version":1,"time":1540841744,"locktime":0,"vin":[{"txid":"5b934e7af6a8a5583f9b265765c288282834b5896d149b0d5d869dfb7217da21","vout":1,"scriptSig":{"asm":"3045022100c00fcaa46657b16dd86b0d34c3fd24ed5d4237b0f7771048c775c8bce9f48455022067925581f909895215c3e3791450a8fd533ee33b3c1cec48b87aa530ef9ef68e01","hex":"483045022100c00fcaa46657b16dd86b0d34c3fd24ed5d4237b0f7771048c775c8bce9f48455022067925581f909895215c3e3791450a8fd533ee33b3c1cec48b87aa530ef9ef68e01"},"sequence":4294967295}],"vout":[{"value":0,"n":0,"scriptPubKey":{"asm":"","type":"nonstandard"}},{"value":1250.15,"n":1,"scriptPubKey":{"asm":"026ef57679057df94a5f72e9fead08857f8d7253a593b2b1feed1b68e92df4a4c5 OP_CHECKSIG","reqSigs":1,"type":"pubkey","addresses":["p5dRZ9MeyiKDma1pAUrsmvEK4NBmmdC4ZN"]}},{"value":1250.15,"n":2,"scriptPubKey":{"asm":"026ef57679057df94a5f72e9fead08857f8d7253a593b2b1feed1b68e92df4a4c5 OP_CHECKSIG","reqSigs":1,"type":"pubkey","addresses":["p5dRZ9MeyiKDma1pAUrsmvEK4NBmmdC4ZN"]}},{"value":1.7,"n":3,"scriptPubKey":{"asm":"OP_DUP OP_HASH160 f0371486e89ca3a2057c60329aff065cd986aee1 OP_EQUALVERIFY OP_CHECKSIG","reqSigs":1,"type":"pubkeyhash","addresses":["pTSiMnNaB4wjS22bEGEEkNcu17kmCfBCLj"]}}],"blockhash":"070f4c4854cc1b6598844f629a1add0befe60486e80bc9897dfdae5b641612f4","confirmations":180,"blocktime":1540841744}