{"hex":"010000000d61d75b01616d12c0f83009e6d8044ca529f8487a828cf948b5df572145598c33ada8bd420100000049483045022100a5e92388f7628c34160a4aca8a671263a58af1b2be7e252eb187cc10c9c9d7dd02201c8671032cb1f0c433dab536a3ff1c83c9e80ae00cd057ea78635371ec833cfc01ffffffff02004a1a8aa08603001976a9143e4dfb07dcad321821ce27aa897243bef97f897988ac00d88b91000500001976a914805f9cd336ce36b4ef07af38b4d3f9a18b14898888ac00000000","txid":"208a9675524ebc638818a5734b715bb5f4fd130e1b62a59fa84adecb8d2fafbd","version":1,"time":1540841744,"locktime":0,"vin":[{"txid":"42bda8ad338c59452157dfb548f98c827a48f829a54c04d8e60930f8c0126d61","vout":1,"scriptSig":{"asm":"3045022100a5e92388f7628c34160a4aca8a671263a58af1b2be7e252eb187cc10c9c9d7dd02201c8671032cb1f0c433dab536a3ff1c83c9e80ae00cd057ea78635371ec833cfc01","hex":"483045022100a5e92388f7628c34160a4aca8a671263a58af1b2be7e252eb187cc10c9c9d7dd02201c8671032cb1f0c433dab536a3ff1c83c9e80ae00cd057ea78635371ec833cfc01"},"sequence":4294967295}],"vout":[{"value":9924490,"n":0,"scriptPubKey":{"asm":"OP_DUP OP_HASH160 3e4dfb07dcad321821ce27aa897243bef97f8979 OP_EQUALVERIFY OP_CHECKSIG","reqSigs":1,"type":"pubkeyhash","addresses":["pBE1WnW5YVEks6uZnP1T12FF6QjjBigSmH"]}},{"value":55000,"n":1,"scriptPubKey":{"asm":"OP_DUP OP_HASH160 805f9cd336ce36b4ef07af38b4d3f9a18b148988 OP_EQUALVERIFY OP_CHECKSIG","reqSigs":1,"type":"pubkeyhash","addresses":["pHFMEYFUrjkStDazXCisF2fPCQGhG4AXwB"]}}],"blockhash":"070f4c4854cc1b6598844f629a1add0befe60486e80bc9897dfdae5b641612f4","confirmations":180,"blocktime":1540841744}