{"hex":"01000000701ada5b01d6e3e714fa8247ab137bc5a744eab17fbb2d0704e5fc18a367cace837292d2c60200000048473044022066c3246cfd053716b5c36f24135e04055dbd1337e4ceb1ab014fda1ecc249abd02206a31477c4fd3ae5ea3086dcfd5ec684053710b17d81d020f6da6125988cd0e8501ffffffff04000000000000000000c071ff1a1d000000232103670be5afe77a215b42f2bc4bd7c1c5049117430d8e81c1de5c44e9ab4c566689acdcb90e1b1d000000232103670be5afe77a215b42f2bc4bd7c1c5049117430d8e81c1de5c44e9ab4c566689ac34210000000000001976a914b4297f2bb1ec22148c170ab2f943e6826c4d831d88ac00000000","txid":"29bf76b3de63dce42154eb0b07b796da4772f23c0698e236fba3f852bfc551d2","version":1,"time":1541020272,"locktime":0,"vin":[{"txid":"c6d2927283ceca67a318fce504072dbb7fb1ea44a7c57b13ab4782fa14e7e3d6","vout":2,"scriptSig":{"asm":"3044022066c3246cfd053716b5c36f24135e04055dbd1337e4ceb1ab014fda1ecc249abd02206a31477c4fd3ae5ea3086dcfd5ec684053710b17d81d020f6da6125988cd0e8501","hex":"473044022066c3246cfd053716b5c36f24135e04055dbd1337e4ceb1ab014fda1ecc249abd02206a31477c4fd3ae5ea3086dcfd5ec684053710b17d81d020f6da6125988cd0e8501"},"sequence":4294967295}],"vout":[{"value":0,"n":0,"scriptPubKey":{"asm":"","type":"nonstandard"}},{"value":1250.07,"n":1,"scriptPubKey":{"asm":"03670be5afe77a215b42f2bc4bd7c1c5049117430d8e81c1de5c44e9ab4c566689 OP_CHECKSIG","reqSigs":1,"type":"pubkey","addresses":["pRVJAmbxV6TyzWMNW1oNoV1k3zM77bZrBx"]}},{"value":1250.080015,"n":2,"scriptPubKey":{"asm":"03670be5afe77a215b42f2bc4bd7c1c5049117430d8e81c1de5c44e9ab4c566689 OP_CHECKSIG","reqSigs":1,"type":"pubkey","addresses":["pRVJAmbxV6TyzWMNW1oNoV1k3zM77bZrBx"]}},{"value":0.000085,"n":3,"scriptPubKey":{"asm":"OP_DUP OP_HASH160 b4297f2bb1ec22148c170ab2f943e6826c4d831d OP_EQUALVERIFY OP_CHECKSIG","reqSigs":1,"type":"pubkeyhash","addresses":["pMyBYUpcH3ehvzacvgmtahza4iSykvMcUD"]}}],"blockhash":"9fcfd80d742257ab016ea305e40dd1bef2b4408dd3daf93ab5cf002831a31ca2","confirmations":116,"blocktime":1541020272}