{"hex":"010000005e1ada5b01abb48675b51310c5abe4cc89ad1cfab512f738d85d660e15af10e2a2d4ed28d2010000006a473044022078077aefd2aba5ed13ef6b2506c2299525471fe3c85820a0e31c16ab187b1dcc022030162820c185c7ab51e47f88faa222fe40d07045564fae69ce79706a965105550121031a6b297f3930cf94c823f91a8aff7f0a2b8fdda38cb5efd8ae0e7fdf574c5066ffffffff02706f9800000000001976a914256468fca7f0dc69fc16f686a3f1a3af29974b3888ac80969800000000001976a914a8b8a82f92004e74cb07dffa5b1a6089df676e2688ac00000000","txid":"e0ccb58b7e2b295347e3f15e4e9708590b07ef9480c65b64a57d90c2bd99aaa0","version":1,"time":1541020272,"locktime":0,"vin":[{"txid":"d228edd4a2e210af150e665dd838f712b5fa1cad89cce4abc51013b57586b4ab","vout":1,"scriptSig":{"asm":"3044022078077aefd2aba5ed13ef6b2506c2299525471fe3c85820a0e31c16ab187b1dcc022030162820c185c7ab51e47f88faa222fe40d07045564fae69ce79706a9651055501 031a6b297f3930cf94c823f91a8aff7f0a2b8fdda38cb5efd8ae0e7fdf574c5066","hex":"473044022078077aefd2aba5ed13ef6b2506c2299525471fe3c85820a0e31c16ab187b1dcc022030162820c185c7ab51e47f88faa222fe40d07045564fae69ce79706a965105550121031a6b297f3930cf94c823f91a8aff7f0a2b8fdda38cb5efd8ae0e7fdf574c5066"},"sequence":4294967295}],"vout":[{"value":0.0999,"n":0,"scriptPubKey":{"asm":"OP_DUP OP_HASH160 256468fca7f0dc69fc16f686a3f1a3af29974b38 OP_EQUALVERIFY OP_CHECKSIG","reqSigs":1,"type":"pubkeyhash","addresses":["p8xHVRJ6JVee7NQuivDZCLKgwHCvMS4FJv"]}},{"value":0.1,"n":1,"scriptPubKey":{"asm":"OP_DUP OP_HASH160 a8b8a82f92004e74cb07dffa5b1a6089df676e26 OP_EQUALVERIFY OP_CHECKSIG","reqSigs":1,"type":"pubkeyhash","addresses":["pLvgw8BdoWu4ZkMTo3huMMDwin1u5wkb4i"]}}],"blockhash":"9fcfd80d742257ab016ea305e40dd1bef2b4408dd3daf93ab5cf002831a31ca2","confirmations":116,"blocktime":1541020272}