{"hex":"0100000002a1c25b010000000000000000000000000000000000000000000000000000000000000000ffffffff04012d0101ffffffff0100000000000000001976a91480ece630be4e670f96c92d8451423d22392c8c0d88ac00000000","txid":"91cfb00f28daaf1b20d9847fe7b92b5689be3352e9c3fcec59a1d50063a99669","version":1,"time":1539481858,"locktime":0,"vin":[{"coinbase":"012d0101","sequence":4294967295}],"vout":[{"value":0,"n":0,"scriptPubKey":{"asm":"OP_DUP OP_HASH160 80ece630be4e670f96c92d8451423d22392c8c0d OP_EQUALVERIFY OP_CHECKSIG","reqSigs":1,"type":"pubkeyhash","addresses":["pHJGVJZHaMdrT89TPMaYPzfxxgxCJAfGHB"]}}],"blockhash":"00000c8b17454f9347329a44ba710b3737f7699863c097c85c9471e8335c5598","confirmations":400,"blocktime":1539481858}