{"hex":"01000000e469c35b015c6243167fc6dbceab9fd15b87d4ff3b21c71344a873df60cc8ddd4899f2e397000000006b483045022100c19344ca71997e1987ce8533077441ddaaf0294b03c483e2dd82c22e2b7860c40220187e5a8518d7c0ada1b2a8847dd31fe1dc80604dc7b814a55ceb3b40ec34ef5f01210206165e5dbd4be3c63119407ce83b0250d3d3d36079c6161c1a560f28bc72cd07ffffffff020026c77f4b7423001976a91487d6281bcb3dcdb780163e1f34df924c02cbce3d88ac0088526a740000001976a914868614ec264fbcc17e0fe25b544f0740a29a3ffa88ac00000000","txid":"209e62a8a81c28f88595a17807ad988c17342ae3545c35c2084b3ebf8b17bf29","version":1,"time":1539533296,"locktime":0,"vin":[{"txid":"97e3f29948dd8dcc60df73a84413c7213bffd4875bd19fabcedbc67f1643625c","vout":0,"scriptSig":{"asm":"3045022100c19344ca71997e1987ce8533077441ddaaf0294b03c483e2dd82c22e2b7860c40220187e5a8518d7c0ada1b2a8847dd31fe1dc80604dc7b814a55ceb3b40ec34ef5f01 0206165e5dbd4be3c63119407ce83b0250d3d3d36079c6161c1a560f28bc72cd07","hex":"483045022100c19344ca71997e1987ce8533077441ddaaf0294b03c483e2dd82c22e2b7860c40220187e5a8518d7c0ada1b2a8847dd31fe1dc80604dc7b814a55ceb3b40ec34ef5f01210206165e5dbd4be3c63119407ce83b0250d3d3d36079c6161c1a560f28bc72cd07"},"sequence":4294967295}],"vout":[{"value":99794918,"n":0,"scriptPubKey":{"asm":"OP_DUP OP_HASH160 87d6281bcb3dcdb780163e1f34df924c02cbce3d OP_EQUALVERIFY OP_CHECKSIG","reqSigs":1,"type":"pubkeyhash","addresses":["pHvoyUAk98CsAyJ8jEXa5QXWXzN76xGsVA"]}},{"value":5000,"n":1,"scriptPubKey":{"asm":"OP_DUP OP_HASH160 868614ec264fbcc17e0fe25b544f0740a29a3ffa OP_EQUALVERIFY OP_CHECKSIG","reqSigs":1,"type":"pubkeyhash","addresses":["pHosNaAavGxjBXaJVQnyrJDcTKDMVqKujz"]}}],"blockhash":"42f1070fadf7d4bab43f92fd522943297b94a15f11431d00596a954f307193e5","confirmations":21,"blocktime":1539533296}