{"hex":"01000000f069c35b01f7f541b3a6c4115448530ef1e2098409af779c08b3d6eb98e8e802d6606578120100000049483045022100ff3f8820d8cfdd3037e1371c52508836bab10e9e74aba395e009bd5cae6efe33022015a54743374aabd897edea213c831209f9256136641ec3c7173fc983791e128a01ffffffff0300000000000000000000621132000000002321037e20b6f9df2b1191d7e929adc4ec86bb0a3b438e7822a1a46cd9d0caef60b746ac80fe210a000000001976a91400eadc74da710bda77ce2fa5b8d39eabf1783dfa88ac00000000","txid":"a894a933de875da52e611e8039d799924c21745e5747b48faf30dbc3b1b4fda4","version":1,"time":1539533296,"locktime":0,"vin":[{"txid":"12786560d602e8e898ebd6b3089c77af098409e2f10e53485411c4a6b341f5f7","vout":1,"scriptSig":{"asm":"3045022100ff3f8820d8cfdd3037e1371c52508836bab10e9e74aba395e009bd5cae6efe33022015a54743374aabd897edea213c831209f9256136641ec3c7173fc983791e128a01","hex":"483045022100ff3f8820d8cfdd3037e1371c52508836bab10e9e74aba395e009bd5cae6efe33022015a54743374aabd897edea213c831209f9256136641ec3c7173fc983791e128a01"},"sequence":4294967295}],"vout":[{"value":0,"n":0,"scriptPubKey":{"asm":"","type":"nonstandard"}},{"value":8.4,"n":1,"scriptPubKey":{"asm":"037e20b6f9df2b1191d7e929adc4ec86bb0a3b438e7822a1a46cd9d0caef60b746 OP_CHECKSIG","reqSigs":1,"type":"pubkey","addresses":["p6vr35KwzEodbGx2Tqp8uLkcMLPNmxZhJS"]}},{"value":1.7,"n":2,"scriptPubKey":{"asm":"OP_DUP OP_HASH160 00eadc74da710bda77ce2fa5b8d39eabf1783dfa OP_EQUALVERIFY OP_CHECKSIG","reqSigs":1,"type":"pubkeyhash","addresses":["p5dRZ9MeyiKDma1pAUrsmvEK4NBmmdC4ZN"]}}],"blockhash":"42f1070fadf7d4bab43f92fd522943297b94a15f11431d00596a954f307193e5","confirmations":21,"blocktime":1539533296}