{"hex":"010000006097d65b01ea2a1c1cc5fd3670178b02df8b96a0b2d0d548334c552194011ff3c26a9a46850100000049483045022100a1a6b779bce248065a175108b5e31c4099407c0630aa399e16ebf3a4b3e1fadd0220434383a234f38128816c6318a76b4dca43bc74a4a0aeaabd07bf1f37e95ed0e201ffffffff04000000000000000000409452a3030000002321020b1cd26fc4b9f080aea1cf7b667efd5e8453f70429056589831fa7f63506ddbfac4f9452a3030000002321020b1cd26fc4b9f080aea1cf7b667efd5e8453f70429056589831fa7f63506ddbfac55000000000000001976a91473471adebcd697ea1dc18e8db2582a74a6bab88188ac00000000","txid":"55c21a9cd889c7967005c394f68225873db0abb5a7358e2700576243776cf06c","version":1,"time":1540790112,"locktime":0,"vin":[{"txid":"85469a6ac2f31f019421554c3348d5d0b2a0968bdf028b177036fdc51c1c2aea","vout":1,"scriptSig":{"asm":"3045022100a1a6b779bce248065a175108b5e31c4099407c0630aa399e16ebf3a4b3e1fadd0220434383a234f38128816c6318a76b4dca43bc74a4a0aeaabd07bf1f37e95ed0e201","hex":"483045022100a1a6b779bce248065a175108b5e31c4099407c0630aa399e16ebf3a4b3e1fadd0220434383a234f38128816c6318a76b4dca43bc74a4a0aeaabd07bf1f37e95ed0e201"},"sequence":4294967295}],"vout":[{"value":0,"n":0,"scriptPubKey":{"asm":"","type":"nonstandard"}},{"value":156.25,"n":1,"scriptPubKey":{"asm":"020b1cd26fc4b9f080aea1cf7b667efd5e8453f70429056589831fa7f63506ddbf OP_CHECKSIG","reqSigs":1,"type":"pubkey","addresses":["pECTDpfW4nW8hYte3f3F9ZQxwgWmBwmcYL"]}},{"value":156.25000015,"n":2,"scriptPubKey":{"asm":"020b1cd26fc4b9f080aea1cf7b667efd5e8453f70429056589831fa7f63506ddbf OP_CHECKSIG","reqSigs":1,"type":"pubkey","addresses":["pECTDpfW4nW8hYte3f3F9ZQxwgWmBwmcYL"]}},{"value":8.5e-7,"n":3,"scriptPubKey":{"asm":"OP_DUP OP_HASH160 73471adebcd697ea1dc18e8db2582a74a6bab881 OP_EQUALVERIFY OP_CHECKSIG","reqSigs":1,"type":"pubkeyhash","addresses":["pG476E2NDDXyKLQPSQr8zUwis1yY3UyfR9"]}}],"blockhash":"c00c5c3e025c496f56f307d0f921cd60ac2f3ecd61cb0474d5908f5c36f91691","confirmations":246,"blocktime":1540790112}