{"hex":"010000005197d65b018ca87970ac43982352256f1a2bf04004aec965a0c832782c546de823fa754a75000000006b483045022100ff7d6247776d41cdbb3a7dbd61b37d2b95c13c48e13bcc8a75d9460440c7ec67022025fcbfaab39bb838451e0627a166686065ab14544c6dea7506d5c07cbc3c22a0012102a4ca4f1847d32f10d979dd5c3972bc4d893eecbb774f2f789f0dee138f576fbaffffffff02fa721300000000001976a914b19b130923b8f35e2c3e0741121fed0803821e2a88ac10270000000000001976a9147644efb2f98070ab8304baf1c13f70d6ff68c27788ac00000000","txid":"717a6b6cfb8b83cbc7f279cb7393ec300e7fe2920607225e9dba14a97ab77146","version":1,"time":1540790112,"locktime":0,"vin":[{"txid":"754a75fa23e86d542c7832c8a065c9ae0440f02b1a6f2552239843ac7079a88c","vout":0,"scriptSig":{"asm":"3045022100ff7d6247776d41cdbb3a7dbd61b37d2b95c13c48e13bcc8a75d9460440c7ec67022025fcbfaab39bb838451e0627a166686065ab14544c6dea7506d5c07cbc3c22a001 02a4ca4f1847d32f10d979dd5c3972bc4d893eecbb774f2f789f0dee138f576fba","hex":"483045022100ff7d6247776d41cdbb3a7dbd61b37d2b95c13c48e13bcc8a75d9460440c7ec67022025fcbfaab39bb838451e0627a166686065ab14544c6dea7506d5c07cbc3c22a0012102a4ca4f1847d32f10d979dd5c3972bc4d893eecbb774f2f789f0dee138f576fba"},"sequence":4294967295}],"vout":[{"value":0.01274618,"n":0,"scriptPubKey":{"asm":"OP_DUP OP_HASH160 b19b130923b8f35e2c3e0741121fed0803821e2a OP_EQUALVERIFY OP_CHECKSIG","reqSigs":1,"type":"pubkeyhash","addresses":["pMjfaR1kRexuwzZxjMDFzs6uVECerJmTqS"]}},{"value":0.0001,"n":1,"scriptPubKey":{"asm":"OP_DUP OP_HASH160 7644efb2f98070ab8304baf1c13f70d6ff68c277 OP_EQUALVERIFY OP_CHECKSIG","reqSigs":1,"type":"pubkeyhash","addresses":["pGKvX7zTUoszjqX3isNoZuGqfxjuZZNAYs"]}}],"blockhash":"c00c5c3e025c496f56f307d0f921cd60ac2f3ecd61cb0474d5908f5c36f91691","confirmations":246,"blocktime":1540790112}