{"hex":"0100000080aed85b011ad329f4a5e2c29ca91b5b40f75ff4e647171241ec6681f1f8c580098c9f784a01000000484730440220478521436d33ab98a2805b0b477b95182773957fd4e8a1e02387328704a3d0500220014df09c77b7e472b93259ed44372712bb6ed2774f6a4be32506e9287a9336bf01ffffffff04000000000000000000c021aea30300000023210348b24f77eda58d2bf0bd56f764cfdeb0100d2f1058b2d5318f2f2fc9670e730eac286abda30300000023210348b24f77eda58d2bf0bd56f764cfdeb0100d2f1058b2d5318f2f2fc9670e730eacdf220000000000001976a9145e1d99381eb53300f76a3cc6299ce81c71d0c2f788ac00000000","txid":"061ab7f3b3da4eabffee0db67a5ee4fff6edb3f6fa35b76a104b4c4b9bd4834a","version":1,"time":1540927104,"locktime":0,"vin":[{"txid":"4a789f8c0980c5f8f18166ec41121747e6f45ff7405b1ba99cc2e2a5f429d31a","vout":1,"scriptSig":{"asm":"30440220478521436d33ab98a2805b0b477b95182773957fd4e8a1e02387328704a3d0500220014df09c77b7e472b93259ed44372712bb6ed2774f6a4be32506e9287a9336bf01","hex":"4730440220478521436d33ab98a2805b0b477b95182773957fd4e8a1e02387328704a3d0500220014df09c77b7e472b93259ed44372712bb6ed2774f6a4be32506e9287a9336bf01"},"sequence":4294967295}],"vout":[{"value":0,"n":0,"scriptPubKey":{"asm":"","type":"nonstandard"}},{"value":156.31,"n":1,"scriptPubKey":{"asm":"0348b24f77eda58d2bf0bd56f764cfdeb0100d2f1058b2d5318f2f2fc9670e730e OP_CHECKSIG","reqSigs":1,"type":"pubkey","addresses":["p8X7huKtvdnnDzc17Xcxxh1Z9ww8ckxvVJ"]}},{"value":156.32001576,"n":2,"scriptPubKey":{"asm":"0348b24f77eda58d2bf0bd56f764cfdeb0100d2f1058b2d5318f2f2fc9670e730e OP_CHECKSIG","reqSigs":1,"type":"pubkey","addresses":["p8X7huKtvdnnDzc17Xcxxh1Z9ww8ckxvVJ"]}},{"value":0.00008927,"n":3,"scriptPubKey":{"asm":"OP_DUP OP_HASH160 5e1d99381eb53300f76a3cc6299ce81c71d0c2f7 OP_EQUALVERIFY OP_CHECKSIG","reqSigs":1,"type":"pubkeyhash","addresses":["pE8DBH6VheNWCoBfLHY8coXmUqVnKuU1Z8"]}}],"blockhash":"4a81ece8894fd1de87be15253159da619d269dac9e68705b47cdf4946b01394a","confirmations":3,"blocktime":1540927104}