{"hex":"0100000080aed85b0107d8b6cb9a8028d947abf09f43b4407feed3e4fb1d182b48a1702e3dc61fef1c0100000049483045022100b4ddbeca899edf624d9fc0125132ae48cd799d1fde8c614d50d85c135e01f7610220608a2e0bc6144b75169241c5e8d883b766c0060c79374b8ff3dc75c7e01eb5a201ffffffff04000000000000000000c020b58d0e0000002321026ef57679057df94a5f72e9fead08857f8d7253a593b2b1feed1b68e92df4a4c5ac2869c48d0e0000002321026ef57679057df94a5f72e9fead08857f8d7253a593b2b1feed1b68e92df4a4c5acdf220000000000001976a91494663191b35c746d9b53200027af769cfd8a5ec588ac00000000","txid":"3e3b1ca6e8ab1de16afe9b5f0b717f5b870d4965b7d6e22397a164fa509aa8c7","version":1,"time":1540927104,"locktime":0,"vin":[{"txid":"1cef1fc63d2e70a1482b181dfbe4d3ee7f40b4439ff0ab47d928809acbb6d807","vout":1,"scriptSig":{"asm":"3045022100b4ddbeca899edf624d9fc0125132ae48cd799d1fde8c614d50d85c135e01f7610220608a2e0bc6144b75169241c5e8d883b766c0060c79374b8ff3dc75c7e01eb5a201","hex":"483045022100b4ddbeca899edf624d9fc0125132ae48cd799d1fde8c614d50d85c135e01f7610220608a2e0bc6144b75169241c5e8d883b766c0060c79374b8ff3dc75c7e01eb5a201"},"sequence":4294967295}],"vout":[{"value":0,"n":0,"scriptPubKey":{"asm":"","type":"nonstandard"}},{"value":625.07,"n":1,"scriptPubKey":{"asm":"026ef57679057df94a5f72e9fead08857f8d7253a593b2b1feed1b68e92df4a4c5 OP_CHECKSIG","reqSigs":1,"type":"pubkey","addresses":["p5dRZ9MeyiKDma1pAUrsmvEK4NBmmdC4ZN"]}},{"value":625.08001576,"n":2,"scriptPubKey":{"asm":"026ef57679057df94a5f72e9fead08857f8d7253a593b2b1feed1b68e92df4a4c5 OP_CHECKSIG","reqSigs":1,"type":"pubkey","addresses":["p5dRZ9MeyiKDma1pAUrsmvEK4NBmmdC4ZN"]}},{"value":0.00008927,"n":3,"scriptPubKey":{"asm":"OP_DUP OP_HASH160 94663191b35c746d9b53200027af769cfd8a5ec5 OP_EQUALVERIFY OP_CHECKSIG","reqSigs":1,"type":"pubkeyhash","addresses":["pK5Eddk3vr4yi7hrwuoQfuFmrHAeSuez22"]}}],"blockhash":"4a9ac858136168ece9e374944bb75890bef76a22f2077b4f49a6da8937337fdb","confirmations":147,"blocktime":1540927104}