{"hex":"0100000077aed85b0149bddd1e3de1b4a432837af46574966903a98231dbc3f59670b0372e5886b68f010000006b483045022100a99e7965cca1f36c8a76b0b6035bc4f25579bee887003e5771e08c6e9c7aa8950220595b9e91d890e2e4371361169c85fd7d5e7b0461a5b03a3a56e7ea267648964501210246db8cde215f026b9dddb6c86f92da94776c3b7fabe0629defabdb89ae2ba950ffffffff02385bfa3a000000001976a9144c28ee798243702bc4500cdb4da9004130bb47f688acc145a000000000001976a914ea0b87592297e58eb3347e3a71a5df6ad99e228a88ac00000000","txid":"58c07369575adf72fcd8d26510d6ce8e5b2b1c9bd75adc98c143cc6ea9816517","version":1,"time":1540927104,"locktime":0,"vin":[{"txid":"8fb686582e37b07096f5c3db3182a90369967465f47a8332a4b4e13d1eddbd49","vout":1,"scriptSig":{"asm":"3045022100a99e7965cca1f36c8a76b0b6035bc4f25579bee887003e5771e08c6e9c7aa8950220595b9e91d890e2e4371361169c85fd7d5e7b0461a5b03a3a56e7ea267648964501 0246db8cde215f026b9dddb6c86f92da94776c3b7fabe0629defabdb89ae2ba950","hex":"483045022100a99e7965cca1f36c8a76b0b6035bc4f25579bee887003e5771e08c6e9c7aa8950220595b9e91d890e2e4371361169c85fd7d5e7b0461a5b03a3a56e7ea267648964501210246db8cde215f026b9dddb6c86f92da94776c3b7fabe0629defabdb89ae2ba950"},"sequence":4294967295}],"vout":[{"value":9.8948588,"n":0,"scriptPubKey":{"asm":"OP_DUP OP_HASH160 4c28ee798243702bc4500cdb4da9004130bb47f6 OP_EQUALVERIFY OP_CHECKSIG","reqSigs":1,"type":"pubkeyhash","addresses":["pCVGbFvFLapGyskXvwfxG2ss21bRU9FqUh"]}},{"value":0.10503617,"n":1,"scriptPubKey":{"asm":"OP_DUP OP_HASH160 ea0b87592297e58eb3347e3a71a5df6ad99e228a OP_EQUALVERIFY OP_CHECKSIG","reqSigs":1,"type":"pubkeyhash","addresses":["pSt68d3W5AjZGCFv6dvLxENsWK8B6nmdgq"]}}],"blockhash":"4a9ac858136168ece9e374944bb75890bef76a22f2077b4f49a6da8937337fdb","confirmations":147,"blocktime":1540927104}