{"hex":"01000000d718db5b016aec7e2dd8427e1e3402db59e050caf4898b768e2194669705d7c7391d52d349010000006b483045022100bebced2db749dfc78942bb84866f068e762b7a101395725d59b5a339da57fb5002202153163b03397d4eb922afdd62fca646cb2a91604fbd72219a5eb2dc1725946c012103fa1c6ac16cfccbc98f935e736efce8a5ccd48ee4b5380f9a74f47a3286a8e759ffffffff0289de6d0a000000001976a9142e5272b93dddc00b1f499b374640345c31c1a72088acf222290c000000001976a914008401b8f8536661cc99d3475567553492c171ce88ac00000000","txid":"174b8341d74c55012a22c09385aabda533ef20920648b361763ed606444dd87f","version":1,"time":1541085408,"locktime":0,"vin":[{"txid":"49d3521d39c7d705976694218e768b89f4ca50e059db02341e7e42d82d7eec6a","vout":1,"scriptSig":{"asm":"3045022100bebced2db749dfc78942bb84866f068e762b7a101395725d59b5a339da57fb5002202153163b03397d4eb922afdd62fca646cb2a91604fbd72219a5eb2dc1725946c01 03fa1c6ac16cfccbc98f935e736efce8a5ccd48ee4b5380f9a74f47a3286a8e759","hex":"483045022100bebced2db749dfc78942bb84866f068e762b7a101395725d59b5a339da57fb5002202153163b03397d4eb922afdd62fca646cb2a91604fbd72219a5eb2dc1725946c012103fa1c6ac16cfccbc98f935e736efce8a5ccd48ee4b5380f9a74f47a3286a8e759"},"sequence":4294967295}],"vout":[{"value":1.74972553,"n":0,"scriptPubKey":{"asm":"OP_DUP OP_HASH160 2e5272b93dddc00b1f499b374640345c31c1a720 OP_EQUALVERIFY OP_CHECKSIG","reqSigs":1,"type":"pubkeyhash","addresses":["p9mW48K4htsqCgUhUYNfPhhv88Hy4xtTXX"]}},{"value":2.04022514,"n":1,"scriptPubKey":{"asm":"OP_DUP OP_HASH160 008401b8f8536661cc99d3475567553492c171ce OP_EQUALVERIFY OP_CHECKSIG","reqSigs":1,"type":"pubkeyhash","addresses":["p5bJLhCMyPAJ1wUVXtuqeDetGL6jyBQpU9"]}}],"blockhash":"d65e1d890a14997a4e6060861223d7d5a698c19c421da6d9f84bb1fa49fdbcc0","confirmations":105,"blocktime":1541085408}