{"hex":"01000000e018db5b018feee558dd64357b001bb24197de708e455d9f862039ea96d41ab5f0c28e64e20100000049483045022100b0179082b7bb1bc4aa8856f7193321107315670ce8fcf187497e4c658e1f17740220024a7ece2958364800c978e5698a2f9a8f3ca38c5d706908e8a7794235fadcf101ffffffff030000000000000000002cc59900000000002321028cb920f59c12d79842255d22f95cb209accfa6830daca59ba39d16355b6e3cc4ac6aa50200000000001976a914a539c7c64804ba10293866c3433100eabbe41ccf88ac00000000","txid":"bb0c5becb6f4ca411fbc0f67dcdc693b257174df9f9118eaaf81d03c58415cb6","version":1,"time":1541085408,"locktime":0,"vin":[{"txid":"e2648ec2f0b51ad496ea3920869f5d458e70de9741b21b007b3564dd58e5ee8f","vout":1,"scriptSig":{"asm":"3045022100b0179082b7bb1bc4aa8856f7193321107315670ce8fcf187497e4c658e1f17740220024a7ece2958364800c978e5698a2f9a8f3ca38c5d706908e8a7794235fadcf101","hex":"483045022100b0179082b7bb1bc4aa8856f7193321107315670ce8fcf187497e4c658e1f17740220024a7ece2958364800c978e5698a2f9a8f3ca38c5d706908e8a7794235fadcf101"},"sequence":4294967295}],"vout":[{"value":0,"n":0,"scriptPubKey":{"asm":"","type":"nonstandard"}},{"value":0.10077484,"n":1,"scriptPubKey":{"asm":"028cb920f59c12d79842255d22f95cb209accfa6830daca59ba39d16355b6e3cc4 OP_CHECKSIG","reqSigs":1,"type":"pubkey","addresses":["p8xHVRJ6JVee7NQuivDZCLKgwHCvMS4FJv"]}},{"value":0.00173418,"n":2,"scriptPubKey":{"asm":"OP_DUP OP_HASH160 a539c7c64804ba10293866c3433100eabbe41ccf OP_EQUALVERIFY OP_CHECKSIG","reqSigs":1,"type":"pubkeyhash","addresses":["pLcCv1RBNEWf4q17fiPMGMYqeFUvP9a826"]}}],"blockhash":"d65e1d890a14997a4e6060861223d7d5a698c19c421da6d9f84bb1fa49fdbcc0","confirmations":105,"blocktime":1541085408}