{"hex":"01000000361ddb5b0192fde66d2f943f08915d9481df3aed7b3e256e7105c2f36c91227996f39ffb22010000006b483045022100c09b75eafbfa17df7115b6ae1bbfa3ac727d167671500f1d99cb70fcb220418002202f6e0f82c880dfb6224ec5fb49705b6d0ada1c45317b7322994b3753edb95214012102c65ddc15ea1dbfd799abb793402a138504cb48cec24d58bcde887ddb8aeceb9dffffffff0219546b00000000001976a914ed8ec980ed10685651ce03ccdb69e4f49d44e54a88acd4362d00000000001976a9147a6e12fc73faa3bd491155f0cc0fac45e7cdb49388ac00000000","txid":"319625d461109f5638e3dde096fea0ebaeea9319cb0f8c024ffb0049f0209f37","version":1,"time":1541086528,"locktime":0,"vin":[{"txid":"22fb9ff3967922916cf3c205716e253e7bed3adf81945d91083f942f6de6fd92","vout":1,"scriptSig":{"asm":"3045022100c09b75eafbfa17df7115b6ae1bbfa3ac727d167671500f1d99cb70fcb220418002202f6e0f82c880dfb6224ec5fb49705b6d0ada1c45317b7322994b3753edb9521401 02c65ddc15ea1dbfd799abb793402a138504cb48cec24d58bcde887ddb8aeceb9d","hex":"483045022100c09b75eafbfa17df7115b6ae1bbfa3ac727d167671500f1d99cb70fcb220418002202f6e0f82c880dfb6224ec5fb49705b6d0ada1c45317b7322994b3753edb95214012102c65ddc15ea1dbfd799abb793402a138504cb48cec24d58bcde887ddb8aeceb9d"},"sequence":4294967295}],"vout":[{"value":0.07033881,"n":0,"scriptPubKey":{"asm":"OP_DUP OP_HASH160 ed8ec980ed10685651ce03ccdb69e4f49d44e54a OP_EQUALVERIFY OP_CHECKSIG","reqSigs":1,"type":"pubkeyhash","addresses":["pTCfQC8EoCq64bAfQ1YDEYxTPbQhnUVRhv"]}},{"value":0.02963156,"n":1,"scriptPubKey":{"asm":"OP_DUP OP_HASH160 7a6e12fc73faa3bd491155f0cc0fac45e7cdb493 OP_EQUALVERIFY OP_CHECKSIG","reqSigs":1,"type":"pubkeyhash","addresses":["pGhvWCKF9JCGGBHaRCBK54QLE7QskvCwmZ"]}}],"blockhash":"4662a47e4187b28ef53d0a86ad6325e339a2b8c2c1be8dfce93665c7ad2e4a9d","confirmations":101,"blocktime":1541086528}