{"hex":"01000000401ddb5b0107f46bf9e3cffd61e3ed460e7d54dee9271da6c3f8465887d565fae3dc63bdde0100000049483045022100825409ce3538af3f9b1a5fe4d10ef1eb853c4fbc442b99ed368ef3565d8377e602206387064d94160af715d890984ac7f879a74a0323892c25355b589970b4c4f11701ffffffff03000000000000000000bdaaa1d1010000002321020b1cd26fc4b9f080aea1cf7b667efd5e8453f70429056589831fa7f63506ddbfacd6090000000000001976a91497cf81798c9f5e48463f6e018e82c7f5d25f8e4c88ac00000000","txid":"cae46488b506c05a64ccd21989312e19d66c065de64fc12e2cd3ad0d96c64431","version":1,"time":1541086528,"locktime":0,"vin":[{"txid":"debd63dce3fa65d5875846f8c3a61d27e9de547d0e46ede361fdcfe3f96bf407","vout":1,"scriptSig":{"asm":"3045022100825409ce3538af3f9b1a5fe4d10ef1eb853c4fbc442b99ed368ef3565d8377e602206387064d94160af715d890984ac7f879a74a0323892c25355b589970b4c4f11701","hex":"483045022100825409ce3538af3f9b1a5fe4d10ef1eb853c4fbc442b99ed368ef3565d8377e602206387064d94160af715d890984ac7f879a74a0323892c25355b589970b4c4f11701"},"sequence":4294967295}],"vout":[{"value":0,"n":0,"scriptPubKey":{"asm":"","type":"nonstandard"}},{"value":78.12000445,"n":1,"scriptPubKey":{"asm":"020b1cd26fc4b9f080aea1cf7b667efd5e8453f70429056589831fa7f63506ddbf OP_CHECKSIG","reqSigs":1,"type":"pubkey","addresses":["pECTDpfW4nW8hYte3f3F9ZQxwgWmBwmcYL"]}},{"value":0.00002518,"n":2,"scriptPubKey":{"asm":"OP_DUP OP_HASH160 97cf81798c9f5e48463f6e018e82c7f5d25f8e4c OP_EQUALVERIFY OP_CHECKSIG","reqSigs":1,"type":"pubkeyhash","addresses":["pKPGpRbrLFtB8pJLBr7nVTxsjHpfbwG83K"]}}],"blockhash":"4662a47e4187b28ef53d0a86ad6325e339a2b8c2c1be8dfce93665c7ad2e4a9d","confirmations":101,"blocktime":1541086528}