{"hex":"01000000505de05b01c52ddef2c3cf26e1c20a2836d32f50042a970b0326f6c051640b44dea45c78a60100000049483045022100a4034c344eb3144afcacc989d00aed0ad0bb4183fc4a78f3e247d033bb63b23402204a8bf478306ea7192dcfeaf74ff7f1fe475d614a8abb7d9b60c1183283d4425301ffffffff0300000000000000000086dd0800000000002321037080154ad035d87bbe47e967ce43ddce5951865effbdda9b3c857d929ea146c7acdaa10800000000001976a914b4297f2bb1ec22148c170ab2f943e6826c4d831d88ac00000000","txid":"13d3aabd85ee6d274e052feae81bc7a7c150e1af0d7634968263f16693c00a4f","version":1,"time":1541430608,"locktime":0,"vin":[{"txid":"a6785ca4de440b6451c0f626030b972a04502fd336280ac2e126cfc3f2de2dc5","vout":1,"scriptSig":{"asm":"3045022100a4034c344eb3144afcacc989d00aed0ad0bb4183fc4a78f3e247d033bb63b23402204a8bf478306ea7192dcfeaf74ff7f1fe475d614a8abb7d9b60c1183283d4425301","hex":"483045022100a4034c344eb3144afcacc989d00aed0ad0bb4183fc4a78f3e247d033bb63b23402204a8bf478306ea7192dcfeaf74ff7f1fe475d614a8abb7d9b60c1183283d4425301"},"sequence":4294967295}],"vout":[{"value":0,"n":0,"scriptPubKey":{"asm":"","type":"nonstandard"}},{"value":0.00580998,"n":1,"scriptPubKey":{"asm":"037080154ad035d87bbe47e967ce43ddce5951865effbdda9b3c857d929ea146c7 OP_CHECKSIG","reqSigs":1,"type":"pubkey","addresses":["pEhwSeKiP8Q9UV5H4Vwts61nBy8VHfUUbd"]}},{"value":0.00565722,"n":2,"scriptPubKey":{"asm":"OP_DUP OP_HASH160 b4297f2bb1ec22148c170ab2f943e6826c4d831d OP_EQUALVERIFY OP_CHECKSIG","reqSigs":1,"type":"pubkeyhash","addresses":["pMyBYUpcH3ehvzacvgmtahza4iSykvMcUD"]}}],"blockhash":"db1ae9c4ff189c17aa68c9925487f31438684dd192d843b2be04a9f51b4cfd2a","confirmations":33,"blocktime":1541430608}