{"hex":"010000004e5de05b018b1f42fad0af0859ee19bc88f3b9e2d0f93c5b1b048a89e149008780ca8a19cc000000006a473044022055538d77fd499208aa3024d7e4fc67319791b86e14b31f2e9a654d0d16f31535022047410f9806f3264b21d83ffa43559f68981754a09f73acb0a75316b807444a15012102e6c31c7a57701bf71a1ff7a446ec37e9016d65db9b73314b9b1e735f468d50e7ffffffff02312c830f010000001976a914813c1ccd97f2c8b147d7db669d9c2b0877cd506588ac4895ab27000000001976a9140e26a8d0305da01490ef633f2c007f6cf8ea1d8c88ac00000000","txid":"f856511c88e9dd45cb84a80999e9782150b4899c6f08d66b97be272a4b75e90d","version":1,"time":1541430608,"locktime":0,"vin":[{"txid":"cc198aca80870049e1898a041b5b3cf9d0e2b9f388bc19ee5908afd0fa421f8b","vout":0,"scriptSig":{"asm":"3044022055538d77fd499208aa3024d7e4fc67319791b86e14b31f2e9a654d0d16f31535022047410f9806f3264b21d83ffa43559f68981754a09f73acb0a75316b807444a1501 02e6c31c7a57701bf71a1ff7a446ec37e9016d65db9b73314b9b1e735f468d50e7","hex":"473044022055538d77fd499208aa3024d7e4fc67319791b86e14b31f2e9a654d0d16f31535022047410f9806f3264b21d83ffa43559f68981754a09f73acb0a75316b807444a15012102e6c31c7a57701bf71a1ff7a446ec37e9016d65db9b73314b9b1e735f468d50e7"},"sequence":4294967295}],"vout":[{"value":45.55222065,"n":0,"scriptPubKey":{"asm":"OP_DUP OP_HASH160 813c1ccd97f2c8b147d7db669d9c2b0877cd5065 OP_EQUALVERIFY OP_CHECKSIG","reqSigs":1,"type":"pubkeyhash","addresses":["pHKuP9Cj6C4UTHrnXHwmAX89we4KTjyv3q"]}},{"value":6.65556296,"n":1,"scriptPubKey":{"asm":"OP_DUP OP_HASH160 0e26a8d0305da01490ef633f2c007f6cf8ea1d8c OP_EQUALVERIFY OP_CHECKSIG","reqSigs":1,"type":"pubkeyhash","addresses":["p6qPyVgCxYVrbqs2XqDKdM4vEWuNH68nUz"]}}],"blockhash":"db1ae9c4ff189c17aa68c9925487f31438684dd192d843b2be04a9f51b4cfd2a","confirmations":33,"blocktime":1541430608}