{"hex":"01000000a1a1c25b010000000000000000000000000000000000000000000000000000000000000000ffffffff04013d0101ffffffff0100000000000000001976a91495626ef762027e8c4a93d07e25a314ef00be90bb88ac00000000","txid":"8b4efbeffa26b066e40c73838272e87909fdda4e36f6d466670a570e4f146036","version":1,"time":1539482017,"locktime":0,"vin":[{"coinbase":"013d0101","sequence":4294967295}],"vout":[{"value":0,"n":0,"scriptPubKey":{"asm":"OP_DUP OP_HASH160 95626ef762027e8c4a93d07e25a314ef00be90bb OP_EQUALVERIFY OP_CHECKSIG","reqSigs":1,"type":"pubkeyhash","addresses":["pKASoZjNcZF1iEDQww6ooAtHvRX3wRmYad"]}}],"blockhash":"0000095ceaa43f913ff4c0c96e75d6cefe4df3a086e56bc9e7a57d2e490e3cb3","confirmations":384,"blocktime":1539482017}