{"hex":"0100000031a2c25b010000000000000000000000000000000000000000000000000000000000000000ffffffff0401500102ffffffff0100000000000000001976a914c5d086e82c104131d48f1446b7b0c09281b72e8e88ac00000000","txid":"4ffbffac67c2373492cb803339b20aa6888419e6708682e02c169a0440191beb","version":1,"time":1539482164,"locktime":0,"vin":[{"coinbase":"01500102","sequence":4294967295}],"vout":[{"value":0,"n":0,"scriptPubKey":{"asm":"OP_DUP OP_HASH160 c5d086e82c104131d48f1446b7b0c09281b72e8e OP_EQUALVERIFY OP_CHECKSIG","reqSigs":1,"type":"pubkeyhash","addresses":["pPaX8CpwpjN1acfk4C6Mzv28spPqBspRHz"]}}],"blockhash":"000008dcfc313df08af3dc5cde40f5f3b9d118e7637825d0be94f689d8203fc1","confirmations":79,"blocktime":1539482164}