{"hex":"010000006c66c35b01669b9fbf00295eed5e4aa7724b713f4b7217c399fbb5318a9a71a6ccad2c3ddb000000006b483045022100b65b3b6d41887216c68e3858b7307f469996fe4a1e6f43b1cd61c0515c24fb8802207bedd597a11d33cb8989170ac5ffd958ab742ca8e6828968ec8644df973ffabf01210251e0fd17a030afd99df85c2b9315d26d40d2716641b1e75d01c358d1158f1d50ffffffff020076b931ef7723001976a914833fc6fdf0a3ab35f5aae246bcacf291fb6bbf3188ac0088526a740000001976a91466ec743fabf4c4372ba7784f6dcad77313a1dea688ac00000000","txid":"4730042e5a6a3c818d2fcaf5615409b3a21db09136d66acae3f90c7709b3192c","version":1,"time":1539532400,"locktime":0,"vin":[{"txid":"db3d2cadcca6719a8a31b5fb99c317724b3f714b72a74a5eed5e2900bf9f9b66","vout":0,"scriptSig":{"asm":"3045022100b65b3b6d41887216c68e3858b7307f469996fe4a1e6f43b1cd61c0515c24fb8802207bedd597a11d33cb8989170ac5ffd958ab742ca8e6828968ec8644df973ffabf01 0251e0fd17a030afd99df85c2b9315d26d40d2716641b1e75d01c358d1158f1d50","hex":"483045022100b65b3b6d41887216c68e3858b7307f469996fe4a1e6f43b1cd61c0515c24fb8802207bedd597a11d33cb8989170ac5ffd958ab742ca8e6828968ec8644df973ffabf01210251e0fd17a030afd99df85c2b9315d26d40d2716641b1e75d01c358d1158f1d50"},"sequence":4294967295}],"vout":[{"value":99834934,"n":0,"scriptPubKey":{"asm":"OP_DUP OP_HASH160 833fc6fdf0a3ab35f5aae246bcacf291fb6bbf31 OP_EQUALVERIFY OP_CHECKSIG","reqSigs":1,"type":"pubkeyhash","addresses":["pHWZ8AGmcNUHCH8AFrQoodCotZduTC1DYH"]}},{"value":5000,"n":1,"scriptPubKey":{"asm":"OP_DUP OP_HASH160 66ec743fabf4c4372ba7784f6dcad77313a1dea6 OP_EQUALVERIFY OP_CHECKSIG","reqSigs":1,"type":"pubkeyhash","addresses":["pEvnPPdEgpysWtMLoQJddPXrMXSY4VJxwR"]}}],"blockhash":"1a912eb0a253b36eac12f2ed6ccf2722bf3e303805f8727441a176c56b83f826","confirmations":29,"blocktime":1539532400}