{"hex":"010000007066c35b01009f0c622f7b8b228d4b99d2dffcfafa2e297018712f885267b5f90086cc21ef0100000048473044022048814c6dbb782a5f8539ab8330a97ded75e38568e3c7c6887321a65092ea2b230220327fcc8abe09e473a1be57c8ab6b62dcf3d5de28d96f5b2acddc0800c3cf06fe01ffffffff030000000000000000000054ea2a000000002321037e20b6f9df2b1191d7e929adc4ec86bb0a3b438e7822a1a46cd9d0caef60b746ac80fe210a000000001976a9148e3f6e3d2f029829ca356517f18e326c94cd54cd88ac00000000","txid":"76b7c6dac71dca38483d8bb392198f15bf0fa9fb0d84bfec42df5f2a50ab0ec3","version":1,"time":1539532400,"locktime":0,"vin":[{"txid":"ef21cc8600f9b56752882f711870292efafafcdfd2994b8d228b7b2f620c9f00","vout":1,"scriptSig":{"asm":"3044022048814c6dbb782a5f8539ab8330a97ded75e38568e3c7c6887321a65092ea2b230220327fcc8abe09e473a1be57c8ab6b62dcf3d5de28d96f5b2acddc0800c3cf06fe01","hex":"473044022048814c6dbb782a5f8539ab8330a97ded75e38568e3c7c6887321a65092ea2b230220327fcc8abe09e473a1be57c8ab6b62dcf3d5de28d96f5b2acddc0800c3cf06fe01"},"sequence":4294967295}],"vout":[{"value":0,"n":0,"scriptPubKey":{"asm":"","type":"nonstandard"}},{"value":7.2,"n":1,"scriptPubKey":{"asm":"037e20b6f9df2b1191d7e929adc4ec86bb0a3b438e7822a1a46cd9d0caef60b746 OP_CHECKSIG","reqSigs":1,"type":"pubkey","addresses":["p6vr35KwzEodbGx2Tqp8uLkcMLPNmxZhJS"]}},{"value":1.7,"n":2,"scriptPubKey":{"asm":"OP_DUP OP_HASH160 8e3f6e3d2f029829ca356517f18e326c94cd54cd OP_EQUALVERIFY OP_CHECKSIG","reqSigs":1,"type":"pubkeyhash","addresses":["pJWi9BXT9hsVaAft92RNcufBy1LZGU4RtT"]}}],"blockhash":"1a912eb0a253b36eac12f2ed6ccf2722bf3e303805f8727441a176c56b83f826","confirmations":29,"blocktime":1539532400}