{"hex":"01000000f05cc35b01286a8042d736fef95c078b55ca55123377c01cbdc3a731bcc55ba63e353104a102000000484730440220553105e2b8319d556e0712a8730392e6237543b9cb0208904fcdceb58e7fe10002203770cc80a9078d3e0725504223fde79fbd27546456c89b282c7eca38d22f3c8601ffffffff04000000000000000000806750480700000023210348b24f77eda58d2bf0bd56f764cfdeb0100d2f1058b2d5318f2f2fc9670e730eacc0a95f480700000023210348b24f77eda58d2bf0bd56f764cfdeb0100d2f1058b2d5318f2f2fc9670e730eac80fe210a000000001976a9147cf288aefa27580772a2e44d947f0a962553405d88ac00000000","txid":"3491b80ab6acf8c9070496a398faa6edebea901e7ef40b5203d5d79eb97ea039","version":1,"time":1539529968,"locktime":0,"vin":[{"txid":"a10431353ea65bc5bc31a7c3bd1cc077331255ca558b075cf9fe36d742806a28","vout":2,"scriptSig":{"asm":"30440220553105e2b8319d556e0712a8730392e6237543b9cb0208904fcdceb58e7fe10002203770cc80a9078d3e0725504223fde79fbd27546456c89b282c7eca38d22f3c8601","hex":"4730440220553105e2b8319d556e0712a8730392e6237543b9cb0208904fcdceb58e7fe10002203770cc80a9078d3e0725504223fde79fbd27546456c89b282c7eca38d22f3c8601"},"sequence":4294967295}],"vout":[{"value":0,"n":0,"scriptPubKey":{"asm":"","type":"nonstandard"}},{"value":312.78,"n":1,"scriptPubKey":{"asm":"0348b24f77eda58d2bf0bd56f764cfdeb0100d2f1058b2d5318f2f2fc9670e730e OP_CHECKSIG","reqSigs":1,"type":"pubkey","addresses":["p8X7huKtvdnnDzc17Xcxxh1Z9ww8ckxvVJ"]}},{"value":312.79,"n":2,"scriptPubKey":{"asm":"0348b24f77eda58d2bf0bd56f764cfdeb0100d2f1058b2d5318f2f2fc9670e730e OP_CHECKSIG","reqSigs":1,"type":"pubkey","addresses":["p8X7huKtvdnnDzc17Xcxxh1Z9ww8ckxvVJ"]}},{"value":1.7,"n":3,"scriptPubKey":{"asm":"OP_DUP OP_HASH160 7cf288aefa27580772a2e44d947f0a962553405d OP_EQUALVERIFY OP_CHECKSIG","reqSigs":1,"type":"pubkeyhash","addresses":["pGwEY3YdfsrsoLzpPy8zj5rEMTsKeC6Mb3"]}}],"blockhash":"ad23900b1f2c2215037c921b53393e7db6c9bd24db0519385d7cb663014f7c72","confirmations":30,"blocktime":1539529968}