{"hex":"01000000e65cc35b01cdcdd70cf60d11c297edbe90fd79e937ca2518358b46ade4a0749422c99b2be5000000006b483045022100d2142e05bc8f6f245334d5d83b7b2e2d15c4c5a173b05dddfe0662a6c200777902205f81c82efabd9ebfcfb446de9970c620b24eaf421519cdb1f0fd83095493da02012102de2e8bf5143927c2dc1bcbf6b27bbc5c5460b31d8323750d26f61fdce3455f5bffffffff0200c0f7a7637823001976a914ab525aba663b533d0b9ee33914aef90a29e8e59488ac0088526a740000001976a914efc2a483bdfa98e828f72233b02924e96e8251a188ac00000000","txid":"db3d2cadcca6719a8a31b5fb99c317724b3f714b72a74a5eed5e2900bf9f9b66","version":1,"time":1539529968,"locktime":0,"vin":[{"txid":"e52b9bc9229474a0e4ad468b351825ca37e979fd90beed97c2110df60cd7cdcd","vout":0,"scriptSig":{"asm":"3045022100d2142e05bc8f6f245334d5d83b7b2e2d15c4c5a173b05dddfe0662a6c200777902205f81c82efabd9ebfcfb446de9970c620b24eaf421519cdb1f0fd83095493da0201 02de2e8bf5143927c2dc1bcbf6b27bbc5c5460b31d8323750d26f61fdce3455f5b","hex":"483045022100d2142e05bc8f6f245334d5d83b7b2e2d15c4c5a173b05dddfe0662a6c200777902205f81c82efabd9ebfcfb446de9970c620b24eaf421519cdb1f0fd83095493da02012102de2e8bf5143927c2dc1bcbf6b27bbc5c5460b31d8323750d26f61fdce3455f5b"},"sequence":4294967295}],"vout":[{"value":99839936,"n":0,"scriptPubKey":{"asm":"OP_DUP OP_HASH160 ab525aba663b533d0b9ee33914aef90a29e8e594 OP_EQUALVERIFY OP_CHECKSIG","reqSigs":1,"type":"pubkeyhash","addresses":["pMASQbMFDMnEZVK97D7xGAZkddnesTFNfr"]}},{"value":5000,"n":1,"scriptPubKey":{"asm":"OP_DUP OP_HASH160 efc2a483bdfa98e828f72233b02924e96e8251a1 OP_EQUALVERIFY OP_CHECKSIG","reqSigs":1,"type":"pubkeyhash","addresses":["pTQJsZTT2bpmhnKWdT3rdczVS5MaBuXxyB"]}}],"blockhash":"ad23900b1f2c2215037c921b53393e7db6c9bd24db0519385d7cb663014f7c72","confirmations":320,"blocktime":1539529968}