{"hex":"01000000e3b7d95b01f7a5bac7ea1925d5db17153aecb9a3d0c5bb16c7f703dfae389f1a84dad43832010000006b4830450221009474b06e3f197f726186f08b5a1bdac24f98451b3e4265b77f7c7918646a04f2022076b2c1c5d3d247f04f8da5ffafce3cf03afdb92ca2cc8fa99b57ff615d1f26ea01210224a889d4ae7a9bac0d620292d6782dab1eee79e934dcf5625638b51ee795c7d2ffffffff0232671a00000000001976a914aa9ea2f831ab40d27fbd6bef7293b9284a73923688acbbe3fd00000000001976a91495601cdb54af0e90753726a8efbd752bfcc0ee1b88ac00000000","txid":"29f9b120a0b5ab1dde60045d9612b42114069d7a17e7a00f31ae294d447ed4b4","version":1,"time":1540995056,"locktime":0,"vin":[{"txid":"3238d4da841a9f38aedf03f7c716bbc5d0a3b9ec3a1517dbd52519eac7baa5f7","vout":1,"scriptSig":{"asm":"30450221009474b06e3f197f726186f08b5a1bdac24f98451b3e4265b77f7c7918646a04f2022076b2c1c5d3d247f04f8da5ffafce3cf03afdb92ca2cc8fa99b57ff615d1f26ea01 0224a889d4ae7a9bac0d620292d6782dab1eee79e934dcf5625638b51ee795c7d2","hex":"4830450221009474b06e3f197f726186f08b5a1bdac24f98451b3e4265b77f7c7918646a04f2022076b2c1c5d3d247f04f8da5ffafce3cf03afdb92ca2cc8fa99b57ff615d1f26ea01210224a889d4ae7a9bac0d620292d6782dab1eee79e934dcf5625638b51ee795c7d2"},"sequence":4294967295}],"vout":[{"value":0.01730354,"n":0,"scriptPubKey":{"asm":"OP_DUP OP_HASH160 aa9ea2f831ab40d27fbd6bef7293b9284a739236 OP_EQUALVERIFY OP_CHECKSIG","reqSigs":1,"type":"pubkeyhash","addresses":["pM6j7aeNtq7U5er6XJTm8JuUN3h2LHwBFb"]}},{"value":0.16638907,"n":1,"scriptPubKey":{"asm":"OP_DUP OP_HASH160 95601cdb54af0e90753726a8efbd752bfcc0ee1b OP_EQUALVERIFY OP_CHECKSIG","reqSigs":1,"type":"pubkeyhash","addresses":["pKAQ2KMWKvzCxJVDgsWyNiCc7cRX2HLkog"]}}],"blockhash":"2b309b788bfdbfa56c9dcd1a273e10562fb5aa2783fbbf750a38bb9572237179","confirmations":140,"blocktime":1540995056}