{"hex":"01000000f0b7d95b05aa83a35a385204682941fb1c6a979790a7a26584b4f22b8d70119f6761e5eca2020000006a473044022004bcb0f8a37bc19d132d6d50d65ece7e7f90ea9f2dd5584992482e975531f429022037579a9ee4d6669acfe1c98c42a4ac6a7d0d27f2cf536217b6563df8a366177901210294b7b76140c3334aa3bcf4a7b79dd36807c0e0a3391d002cd9b4a8009683e8fcffffffff28c23a2be483e7c0727ccc32851f33c50c01298da8bbc3d2b8c3beb2c6685d53030000006b483045022100e2898589d30881977346184457bc323152dc2e5af624ef2bb675e487359c369102206d9a4cb65902a50ef49120d6efd08e66b166aee57c7669386d684aa30e468a4001210294b7b76140c3334aa3bcf4a7b79dd36807c0e0a3391d002cd9b4a8009683e8fcffffffff74f971a648b760dbc7c68cdd6637163bb874aa1fd97dc59d89f81607e98375df020000006b483045022100c663f32550a91e533c5c02b6816b8ec16a7c98e440b3ca603f81d702e1be7dcc0220580062dd7426f846f145038560802d30e89d9842ecfdf579c9c4a8437d95444401210294b7b76140c3334aa3bcf4a7b79dd36807c0e0a3391d002cd9b4a8009683e8fcffffffffdabdb4f0ab7391665a77e13f0b54bb072fec4548dd3ae2a03b2695d783c67d4f020000006b483045022100810ace2a7e5ecd4ad873bbeae53a420eed49de2b670698bf35c8c97dd1454b76022070833041a4fbef7a82901bf5760990e851d323def02b382301f0ba5f3cd46a6101210294b7b76140c3334aa3bcf4a7b79dd36807c0e0a3391d002cd9b4a8009683e8fcffffffff273761adbae65c36f1ba8ec0958cf1bbcbb71bd9187b644960f5f9f3e794f15f020000006b4830450221008e91fb9620c06b66bdc34031cf8ccf7eba41ef750205186fe9acaaef928cb88002201c399232b760ce610e747d84fd34dad7e32b3ae5b901f1893eefc38e0c9f71ed01210294b7b76140c3334aa3bcf4a7b79dd36807c0e0a3391d002cd9b4a8009683e8fcffffffff030000000000000000001abe250a0000000023210294b7b76140c3334aa3bcf4a7b79dd36807c0e0a3391d002cd9b4a8009683e8fcac3e370000000000001976a91422d06420236528fe42b5c2302e36704d85b646de88ac00000000","txid":"946d22b81fbabbdbe8f31f12ead9725b0d3f95edac424e97b0c119b2e165095b","version":1,"time":1540995056,"locktime":0,"vin":[{"txid":"a2ece561679f11708d2bf2b48465a2a79097976a1cfb4129680452385aa383aa","vout":2,"scriptSig":{"asm":"3044022004bcb0f8a37bc19d132d6d50d65ece7e7f90ea9f2dd5584992482e975531f429022037579a9ee4d6669acfe1c98c42a4ac6a7d0d27f2cf536217b6563df8a366177901 0294b7b76140c3334aa3bcf4a7b79dd36807c0e0a3391d002cd9b4a8009683e8fc","hex":"473044022004bcb0f8a37bc19d132d6d50d65ece7e7f90ea9f2dd5584992482e975531f429022037579a9ee4d6669acfe1c98c42a4ac6a7d0d27f2cf536217b6563df8a366177901210294b7b76140c3334aa3bcf4a7b79dd36807c0e0a3391d002cd9b4a8009683e8fc"},"sequence":4294967295},{"txid":"535d68c6b2bec3b8d2c3bba88d29010cc5331f8532cc7c72c0e783e42b3ac228","vout":3,"scriptSig":{"asm":"3045022100e2898589d30881977346184457bc323152dc2e5af624ef2bb675e487359c369102206d9a4cb65902a50ef49120d6efd08e66b166aee57c7669386d684aa30e468a4001 0294b7b76140c3334aa3bcf4a7b79dd36807c0e0a3391d002cd9b4a8009683e8fc","hex":"483045022100e2898589d30881977346184457bc323152dc2e5af624ef2bb675e487359c369102206d9a4cb65902a50ef49120d6efd08e66b166aee57c7669386d684aa30e468a4001210294b7b76140c3334aa3bcf4a7b79dd36807c0e0a3391d002cd9b4a8009683e8fc"},"sequence":4294967295},{"txid":"df7583e90716f8899dc57dd91faa74b83b163766dd8cc6c7db60b748a671f974","vout":2,"scriptSig":{"asm":"3045022100c663f32550a91e533c5c02b6816b8ec16a7c98e440b3ca603f81d702e1be7dcc0220580062dd7426f846f145038560802d30e89d9842ecfdf579c9c4a8437d95444401 0294b7b76140c3334aa3bcf4a7b79dd36807c0e0a3391d002cd9b4a8009683e8fc","hex":"483045022100c663f32550a91e533c5c02b6816b8ec16a7c98e440b3ca603f81d702e1be7dcc0220580062dd7426f846f145038560802d30e89d9842ecfdf579c9c4a8437d95444401210294b7b76140c3334aa3bcf4a7b79dd36807c0e0a3391d002cd9b4a8009683e8fc"},"sequence":4294967295},{"txid":"4f7dc683d795263ba0e23add4845ec2f07bb540b3fe1775a669173abf0b4bdda","vout":2,"scriptSig":{"asm":"3045022100810ace2a7e5ecd4ad873bbeae53a420eed49de2b670698bf35c8c97dd1454b76022070833041a4fbef7a82901bf5760990e851d323def02b382301f0ba5f3cd46a6101 0294b7b76140c3334aa3bcf4a7b79dd36807c0e0a3391d002cd9b4a8009683e8fc","hex":"483045022100810ace2a7e5ecd4ad873bbeae53a420eed49de2b670698bf35c8c97dd1454b76022070833041a4fbef7a82901bf5760990e851d323def02b382301f0ba5f3cd46a6101210294b7b76140c3334aa3bcf4a7b79dd36807c0e0a3391d002cd9b4a8009683e8fc"},"sequence":4294967295},{"txid":"5ff194e7f3f9f56049647b18d91bb7cbbbf18c95c08ebaf1365ce6baad613727","vout":2,"scriptSig":{"asm":"30450221008e91fb9620c06b66bdc34031cf8ccf7eba41ef750205186fe9acaaef928cb88002201c399232b760ce610e747d84fd34dad7e32b3ae5b901f1893eefc38e0c9f71ed01 0294b7b76140c3334aa3bcf4a7b79dd36807c0e0a3391d002cd9b4a8009683e8fc","hex":"4830450221008e91fb9620c06b66bdc34031cf8ccf7eba41ef750205186fe9acaaef928cb88002201c399232b760ce610e747d84fd34dad7e32b3ae5b901f1893eefc38e0c9f71ed01210294b7b76140c3334aa3bcf4a7b79dd36807c0e0a3391d002cd9b4a8009683e8fc"},"sequence":4294967295}],"vout":[{"value":0,"n":0,"scriptPubKey":{"asm":"","type":"nonstandard"}},{"value":1.70245658,"n":1,"scriptPubKey":{"asm":"0294b7b76140c3334aa3bcf4a7b79dd36807c0e0a3391d002cd9b4a8009683e8fc OP_CHECKSIG","reqSigs":1,"type":"pubkey","addresses":["pJZjAtqMwq9jFa2kTVK5K8psT7erMHW8FX"]}},{"value":0.00014142,"n":2,"scriptPubKey":{"asm":"OP_DUP OP_HASH160 22d06420236528fe42b5c2302e36704d85b646de OP_EQUALVERIFY OP_CHECKSIG","reqSigs":1,"type":"pubkeyhash","addresses":["p8iepVjrqbjo1uNb8dyXKBBerSUv6zrPfw"]}}],"blockhash":"2b309b788bfdbfa56c9dcd1a273e10562fb5aa2783fbbf750a38bb9572237179","confirmations":140,"blocktime":1540995056}