{"hex":"01000000a0a7e05b01a217244b4de05404ffdb5ba40f3f088a897ad25fe71f83277adaa13643b861990100000048473044022073ad5dfd766033c275bb766e583f7e536d5876fb9cb2ca6a0d56e137b99de6af0220531cc5f81f5d45006985dcd6e634ea07a23cdbf93d86d507ff66efe8c1cc691501ffffffff0400000000000000000000a2941a1d000000232103d34eaffeafde46fde143c9a315fd9b15346917b41cead4876c1c25892c798698ac40a3941a1d000000232103d34eaffeafde46fde143c9a315fd9b15346917b41cead4876c1c25892c798698ac12070000000000001976a9144c86b0b2edcbbfcf0d0112bbb160a541568205b788ac00000000","txid":"031f55a8c9ca3eae6e0b1f84b520ecc5ca4f4971492d7576fcba7666511ae2b8","version":1,"time":1541449632,"locktime":0,"vin":[{"txid":"9961b84336a1da7a27831fe75fd27a898a083f0fa45bdbff0454e04d4b2417a2","vout":1,"scriptSig":{"asm":"3044022073ad5dfd766033c275bb766e583f7e536d5876fb9cb2ca6a0d56e137b99de6af0220531cc5f81f5d45006985dcd6e634ea07a23cdbf93d86d507ff66efe8c1cc691501","hex":"473044022073ad5dfd766033c275bb766e583f7e536d5876fb9cb2ca6a0d56e137b99de6af0220531cc5f81f5d45006985dcd6e634ea07a23cdbf93d86d507ff66efe8c1cc691501"},"sequence":4294967295}],"vout":[{"value":0,"n":0,"scriptPubKey":{"asm":"","type":"nonstandard"}},{"value":1250,"n":1,"scriptPubKey":{"asm":"03d34eaffeafde46fde143c9a315fd9b15346917b41cead4876c1c25892c798698 OP_CHECKSIG","reqSigs":1,"type":"pubkey","addresses":["p6exN3FuZmZyQ7WNzLf7AweTLuHqDvcERN"]}},{"value":1250.0000032,"n":2,"scriptPubKey":{"asm":"03d34eaffeafde46fde143c9a315fd9b15346917b41cead4876c1c25892c798698 OP_CHECKSIG","reqSigs":1,"type":"pubkey","addresses":["p6exN3FuZmZyQ7WNzLf7AweTLuHqDvcERN"]}},{"value":0.0000181,"n":3,"scriptPubKey":{"asm":"OP_DUP OP_HASH160 4c86b0b2edcbbfcf0d0112bbb160a541568205b7 OP_EQUALVERIFY OP_CHECKSIG","reqSigs":1,"type":"pubkeyhash","addresses":["pCXCuj4F9uaYHMue5Nqy3XLKdLz4U9gRoi"]}}],"blockhash":"7a7d3f0deba8a80aa0fd2f51ffc5d3ce1efe2e589ceb3397d1d3319b5f6545a2","confirmations":10,"blocktime":1541449632}