{"hex":"010000009aa7e05b011ef8dbcc5c0541a17ccb080cc8d7ae1b4f00fa1f76215fc0331e7e2e46d01df9000000006b483045022100cc5d9285c5d734acac61b411bf8b0e101d5e3395473cecc8946516722abf1e5e0220670eeb28ed52449566b96d2882077116ca9bb78396de31f185a291afc8863f070121034d1075365e61b42140c1e84a733e356c0815cf42100797cf3ca74981763ae9d5ffffffff02b1043c00000000001976a914b36b2ef2891f0d154c3c3ad3151858343c9dda0f88aca3802000000000001976a91491a158a8b0710165839b5bdc02b99383e455878e88ac00000000","txid":"e2c678e8c695cce30cc463bd5d3a7736c727436dbe77757f6b5aefa7382f6141","version":1,"time":1541449632,"locktime":0,"vin":[{"txid":"f91dd0462e7e1e33c05f21761ffa004f1baed7c80c08cb7ca141055cccdbf81e","vout":0,"scriptSig":{"asm":"3045022100cc5d9285c5d734acac61b411bf8b0e101d5e3395473cecc8946516722abf1e5e0220670eeb28ed52449566b96d2882077116ca9bb78396de31f185a291afc8863f0701 034d1075365e61b42140c1e84a733e356c0815cf42100797cf3ca74981763ae9d5","hex":"483045022100cc5d9285c5d734acac61b411bf8b0e101d5e3395473cecc8946516722abf1e5e0220670eeb28ed52449566b96d2882077116ca9bb78396de31f185a291afc8863f070121034d1075365e61b42140c1e84a733e356c0815cf42100797cf3ca74981763ae9d5"},"sequence":4294967295}],"vout":[{"value":0.03933361,"n":0,"scriptPubKey":{"asm":"OP_DUP OP_HASH160 b36b2ef2891f0d154c3c3ad3151858343c9dda0f OP_EQUALVERIFY OP_CHECKSIG","reqSigs":1,"type":"pubkeyhash","addresses":["pMuFZGwGPatDeyGpnmkoc8h2FBh9noaY4C"]}},{"value":0.02130083,"n":1,"scriptPubKey":{"asm":"OP_DUP OP_HASH160 91a158a8b0710165839b5bdc02b99383e455878e OP_EQUALVERIFY OP_CHECKSIG","reqSigs":1,"type":"pubkeyhash","addresses":["pJpbU4SNGgPWHHUDtDNCUU1kd2yExeFzR2"]}}],"blockhash":"7a7d3f0deba8a80aa0fd2f51ffc5d3ce1efe2e589ceb3397d1d3319b5f6545a2","confirmations":10,"blocktime":1541449632}