{"hex":"01000000e099d65b0150abfa5960c0c6c6673a600815b55a23353061f25ae6097a8f14ea30aa4a7952010000004847304402205596be6df7fce3b887387cbcf3cd59fcbfb7169bdbd742bc09677c8baf8196cf02204c7e0dffbc74a4fe1c35ba9c55b41ca6d6922d4ca69465ffcfc7bc270096e06c01ffffffff030000000000000000000fa9a1d1010000002321020b1cd26fc4b9f080aea1cf7b667efd5e8453f70429056589831fa7f63506ddbfac55000000000000001976a914256b9b540806ec78f3cbc6d37188a2e1504616e688ac00000000","txid":"597631ad8327145442d5cf578628d13cd43125a047648751dde65dddca35bf5a","version":1,"time":1540790752,"locktime":0,"vin":[{"txid":"52794aaa30ea148f7a09e65af2613035235ab51508603a67c6c6c06059faab50","vout":1,"scriptSig":{"asm":"304402205596be6df7fce3b887387cbcf3cd59fcbfb7169bdbd742bc09677c8baf8196cf02204c7e0dffbc74a4fe1c35ba9c55b41ca6d6922d4ca69465ffcfc7bc270096e06c01","hex":"47304402205596be6df7fce3b887387cbcf3cd59fcbfb7169bdbd742bc09677c8baf8196cf02204c7e0dffbc74a4fe1c35ba9c55b41ca6d6922d4ca69465ffcfc7bc270096e06c01"},"sequence":4294967295}],"vout":[{"value":0,"n":0,"scriptPubKey":{"asm":"","type":"nonstandard"}},{"value":78.12000015,"n":1,"scriptPubKey":{"asm":"020b1cd26fc4b9f080aea1cf7b667efd5e8453f70429056589831fa7f63506ddbf OP_CHECKSIG","reqSigs":1,"type":"pubkey","addresses":["pECTDpfW4nW8hYte3f3F9ZQxwgWmBwmcYL"]}},{"value":8.5e-7,"n":2,"scriptPubKey":{"asm":"OP_DUP OP_HASH160 256b9b540806ec78f3cbc6d37188a2e1504616e6 OP_EQUALVERIFY OP_CHECKSIG","reqSigs":1,"type":"pubkeyhash","addresses":["p8xS7T8mkTz7MJV9EcYkBri1Zi12wCV83N"]}}],"blockhash":"592cc2b462615443dcf91579a19626777e2c4cee1b77a224ba4c302a40f61170","confirmations":243,"blocktime":1540790752}