{"hex":"01000000d299d65b0190374451d3b1ceab9410548a9571ae2a2b6d0b03c1db6e7734768b14b91c95cf000000006a473044022015607f7271c8d67051479ca9bc595d3d392a263020b1df22bd415a1e180df27602203dfb97fc369ff9532ee6c08eabd86222d075a4e2545ef4530df1fbaa445823b30121033cbe2567a4b63d5838b7a821e3e8a046cc0539acdb36b55c2addf51c68040f07ffffffff022ad51200000000001976a914006a5e6297ea5ddd3bf903b14cd2a12ce70e90c288ac10270000000000001976a9147644efb2f98070ab8304baf1c13f70d6ff68c27788ac00000000","txid":"547ff18bf7615f1197ad39c6ab03437d0afcf3a327e423b02fb2c9a3972b7ef6","version":1,"time":1540790752,"locktime":0,"vin":[{"txid":"cf951cb9148b7634776edbc1030b6d2b2aae71958a541094abceb1d351443790","vout":0,"scriptSig":{"asm":"3044022015607f7271c8d67051479ca9bc595d3d392a263020b1df22bd415a1e180df27602203dfb97fc369ff9532ee6c08eabd86222d075a4e2545ef4530df1fbaa445823b301 033cbe2567a4b63d5838b7a821e3e8a046cc0539acdb36b55c2addf51c68040f07","hex":"473044022015607f7271c8d67051479ca9bc595d3d392a263020b1df22bd415a1e180df27602203dfb97fc369ff9532ee6c08eabd86222d075a4e2545ef4530df1fbaa445823b30121033cbe2567a4b63d5838b7a821e3e8a046cc0539acdb36b55c2addf51c68040f07"},"sequence":4294967295}],"vout":[{"value":0.01234218,"n":0,"scriptPubKey":{"asm":"OP_DUP OP_HASH160 006a5e6297ea5ddd3bf903b14cd2a12ce70e90c2 OP_EQUALVERIFY OP_CHECKSIG","reqSigs":1,"type":"pubkeyhash","addresses":["p5amdLCWxNAYJfav4nCHoWsZRPnnfwTvbD"]}},{"value":0.0001,"n":1,"scriptPubKey":{"asm":"OP_DUP OP_HASH160 7644efb2f98070ab8304baf1c13f70d6ff68c277 OP_EQUALVERIFY OP_CHECKSIG","reqSigs":1,"type":"pubkeyhash","addresses":["pGKvX7zTUoszjqX3isNoZuGqfxjuZZNAYs"]}}],"blockhash":"592cc2b462615443dcf91579a19626777e2c4cee1b77a224ba4c302a40f61170","confirmations":243,"blocktime":1540790752}