{"hex":"01000000d31bc55b010fd7cfca9b08d45d66fd6a4f3d792a8c8a4e05e49fdfa18d2f2055fea2bbb478000000006a47304402202bd54a09391a259920afe4613d3c89838c3e23fa7801b3b5d475681dd3a12c0c02200abd66efad3e95443b572a30ed3af01601d4390793ec382e475585f3d28f9b50012102010ad4f1742c76a2015b4fbca99330d707e1e033222e886fb4817cdab970f6bfffffffff022ca6f802000000001976a9144430c2cfc9432905347235d771cfc85cdadc962988aca0860100000000001976a9148ee32644ebae63b27714829f4e34e2299d2b827a88ac00000000","txid":"cf5007c6303aa075e025ea28a06706113f22f40f07910e3679b68bd467a19607","version":1,"time":1539644384,"locktime":0,"vin":[{"txid":"78b4bba2fe55202f8da1df9fe4054e8a8c2a793d4f6afd665dd4089bcacfd70f","vout":0,"scriptSig":{"asm":"304402202bd54a09391a259920afe4613d3c89838c3e23fa7801b3b5d475681dd3a12c0c02200abd66efad3e95443b572a30ed3af01601d4390793ec382e475585f3d28f9b5001 02010ad4f1742c76a2015b4fbca99330d707e1e033222e886fb4817cdab970f6bf","hex":"47304402202bd54a09391a259920afe4613d3c89838c3e23fa7801b3b5d475681dd3a12c0c02200abd66efad3e95443b572a30ed3af01601d4390793ec382e475585f3d28f9b50012102010ad4f1742c76a2015b4fbca99330d707e1e033222e886fb4817cdab970f6bf"},"sequence":4294967295}],"vout":[{"value":0.498499,"n":0,"scriptPubKey":{"asm":"OP_DUP OP_HASH160 4430c2cfc9432905347235d771cfc85cdadc9629 OP_EQUALVERIFY OP_CHECKSIG","reqSigs":1,"type":"pubkeyhash","addresses":["pBm8ZirnYwHBh5BYPx7JcrLij4HsqHDDDu"]}},{"value":0.001,"n":1,"scriptPubKey":{"asm":"OP_DUP OP_HASH160 8ee32644ebae63b27714829f4e34e2299d2b827a OP_EQUALVERIFY OP_CHECKSIG","reqSigs":1,"type":"pubkeyhash","addresses":["pJa6GZwDrCSkEShcFEws6H3dHbASWnDSjH"]}}],"blockhash":"38cf5a077eb47de825195b097fc6e4697abe62bfcb7629687545b1a5313672c4","confirmations":14,"blocktime":1539644384}