{"hex":"01000000e01bc55b016c602f234218aea31d1e22cb9ca852e8cf43733840a3e98cc837ccddaf00f3830100000049483045022100e4e43801909333ecfe626126e2be28aa5b34893b4f72bc4133fcd2ea72bb8f3f022036296d7153fb3781dee9b1ca1922ceb52236c21341ac7b9322cfe68f76f1131a01ffffffff04000000000000000000c0856b470700000023210348b24f77eda58d2bf0bd56f764cfdeb0100d2f1058b2d5318f2f2fc9670e730eaccf856b470700000023210348b24f77eda58d2bf0bd56f764cfdeb0100d2f1058b2d5318f2f2fc9670e730eac55000000000000001976a914f0371486e89ca3a2057c60329aff065cd986aee188ac00000000","txid":"ced1b7be20cc8ed20ee2c2dfdc4acb0f56d20a1f741830e70737634bd5dde72e","version":1,"time":1539644384,"locktime":0,"vin":[{"txid":"83f300afddcc37c88ce9a340387343cfe852a89ccb221e1da3ae1842232f606c","vout":1,"scriptSig":{"asm":"3045022100e4e43801909333ecfe626126e2be28aa5b34893b4f72bc4133fcd2ea72bb8f3f022036296d7153fb3781dee9b1ca1922ceb52236c21341ac7b9322cfe68f76f1131a01","hex":"483045022100e4e43801909333ecfe626126e2be28aa5b34893b4f72bc4133fcd2ea72bb8f3f022036296d7153fb3781dee9b1ca1922ceb52236c21341ac7b9322cfe68f76f1131a01"},"sequence":4294967295}],"vout":[{"value":0,"n":0,"scriptPubKey":{"asm":"","type":"nonstandard"}},{"value":312.63,"n":1,"scriptPubKey":{"asm":"0348b24f77eda58d2bf0bd56f764cfdeb0100d2f1058b2d5318f2f2fc9670e730e OP_CHECKSIG","reqSigs":1,"type":"pubkey","addresses":["p8X7huKtvdnnDzc17Xcxxh1Z9ww8ckxvVJ"]}},{"value":312.63000015,"n":2,"scriptPubKey":{"asm":"0348b24f77eda58d2bf0bd56f764cfdeb0100d2f1058b2d5318f2f2fc9670e730e OP_CHECKSIG","reqSigs":1,"type":"pubkey","addresses":["p8X7huKtvdnnDzc17Xcxxh1Z9ww8ckxvVJ"]}},{"value":8.5e-7,"n":3,"scriptPubKey":{"asm":"OP_DUP OP_HASH160 f0371486e89ca3a2057c60329aff065cd986aee1 OP_EQUALVERIFY OP_CHECKSIG","reqSigs":1,"type":"pubkeyhash","addresses":["pTSiMnNaB4wjS22bEGEEkNcu17kmCfBCLj"]}}],"blockhash":"38cf5a077eb47de825195b097fc6e4697abe62bfcb7629687545b1a5313672c4","confirmations":14,"blocktime":1539644384}