{"hex":"0100000030f7c45b0139a07eb99ed7d503520bf47e1e90eaebeda6fa98a3960407c9f8acb60ab89134020000004847304402200e9ba4bb399539efd3a622997821ac8f5d73576221e069cd3e18d85e0a8a7c4b0220040a283eacd4813a3642e07f23b11416bda01d62a7421dcd1954ed9fdb95d32e01ffffffff04000000000000000000c03328a40300000023210348b24f77eda58d2bf0bd56f764cfdeb0100d2f1058b2d5318f2f2fc9670e730eac2c7737a40300000023210348b24f77eda58d2bf0bd56f764cfdeb0100d2f1058b2d5318f2f2fc9670e730eaca4060000000000001976a9144c28ee798243702bc4500cdb4da9004130bb47f688ac00000000","txid":"681e1ba753c9705755b1ed91611a354bb0fa70381f7905110b35401d55e58825","version":1,"time":1539634992,"locktime":0,"vin":[{"txid":"3491b80ab6acf8c9070496a398faa6edebea901e7ef40b5203d5d79eb97ea039","vout":2,"scriptSig":{"asm":"304402200e9ba4bb399539efd3a622997821ac8f5d73576221e069cd3e18d85e0a8a7c4b0220040a283eacd4813a3642e07f23b11416bda01d62a7421dcd1954ed9fdb95d32e01","hex":"47304402200e9ba4bb399539efd3a622997821ac8f5d73576221e069cd3e18d85e0a8a7c4b0220040a283eacd4813a3642e07f23b11416bda01d62a7421dcd1954ed9fdb95d32e01"},"sequence":4294967295}],"vout":[{"value":0,"n":0,"scriptPubKey":{"asm":"","type":"nonstandard"}},{"value":156.39,"n":1,"scriptPubKey":{"asm":"0348b24f77eda58d2bf0bd56f764cfdeb0100d2f1058b2d5318f2f2fc9670e730e OP_CHECKSIG","reqSigs":1,"type":"pubkey","addresses":["p8X7huKtvdnnDzc17Xcxxh1Z9ww8ckxvVJ"]}},{"value":156.400003,"n":2,"scriptPubKey":{"asm":"0348b24f77eda58d2bf0bd56f764cfdeb0100d2f1058b2d5318f2f2fc9670e730e OP_CHECKSIG","reqSigs":1,"type":"pubkey","addresses":["p8X7huKtvdnnDzc17Xcxxh1Z9ww8ckxvVJ"]}},{"value":0.000017,"n":3,"scriptPubKey":{"asm":"OP_DUP OP_HASH160 4c28ee798243702bc4500cdb4da9004130bb47f6 OP_EQUALVERIFY OP_CHECKSIG","reqSigs":1,"type":"pubkeyhash","addresses":["pCVGbFvFLapGyskXvwfxG2ss21bRU9FqUh"]}}],"blockhash":"a5cea49acd36befc3c17a7b5c55218622d6f89de054b05e61fe19f6ca95f31b0","confirmations":17,"blocktime":1539634992}