{"hex":"0100000027f7c45b0136a72365eeab8de9946da5fdb63b5b14134ea0839f1e58141a4f72d2187e03f8000000006a47304402206985c340cbdc552883735d972fa7908a8180665b2f86ccbe95afcb83b17995b302203118d991acfe886b58d74ab58ef00c2767016d56ba1c652c057321770a48068c0121022de16c4d2af2017520424b7bb4aa19a6d3694082f08e395674efadd80963ba37ffffffff02e07d5b00000000001976a9142a5dd6c981f536b1180f74ea127107e972fad9ca88ac80841e00000000001976a914adf093e2285531b72f3d2eab9d6212b166a1f64788ac00000000","txid":"e3bfdf75abda40e50773b49c055b63f92d1c2bca7ccf40e5c573711ff0c9a27d","version":1,"time":1539634992,"locktime":0,"vin":[{"txid":"f8037e18d2724f1a14581e9f83a04e13145b3bb6fda56d94e98dabee6523a736","vout":0,"scriptSig":{"asm":"304402206985c340cbdc552883735d972fa7908a8180665b2f86ccbe95afcb83b17995b302203118d991acfe886b58d74ab58ef00c2767016d56ba1c652c057321770a48068c01 022de16c4d2af2017520424b7bb4aa19a6d3694082f08e395674efadd80963ba37","hex":"47304402206985c340cbdc552883735d972fa7908a8180665b2f86ccbe95afcb83b17995b302203118d991acfe886b58d74ab58ef00c2767016d56ba1c652c057321770a48068c0121022de16c4d2af2017520424b7bb4aa19a6d3694082f08e395674efadd80963ba37"},"sequence":4294967295}],"vout":[{"value":0.05996,"n":0,"scriptPubKey":{"asm":"OP_DUP OP_HASH160 2a5dd6c981f536b1180f74ea127107e972fad9ca OP_EQUALVERIFY OP_CHECKSIG","reqSigs":1,"type":"pubkeyhash","addresses":["p9Qazp1TuF2hzA6KoABiRRLjPomnnjrB3h"]}},{"value":0.02,"n":1,"scriptPubKey":{"asm":"OP_DUP OP_HASH160 adf093e2285531b72f3d2eab9d6212b166a1f647 OP_EQUALVERIFY OP_CHECKSIG","reqSigs":1,"type":"pubkeyhash","addresses":["pMQHJXDPHsmGfrbDz4yBorf4hG6FuNLWsb"]}}],"blockhash":"a5cea49acd36befc3c17a7b5c55218622d6f89de054b05e61fe19f6ca95f31b0","confirmations":17,"blocktime":1539634992}