{"hex":"01000000b20edb5b0154dce6a086f9138f4d1b1f2a3619214e09d6547746d8f04f301e8d2e5361545f000000006b483045022100e1800a8648d8372ae79a0ffb1859818ff2d179915ca73a5710dfa2f036eccd2902207523aac652852a3c46df4dd0edade7d50b15156aacf2850a88049ca61b566177012103335eb77784d6cf6e96596657a75da82900a3e935c7aca60d62657b49c2183046ffffffff02d7cc1d01000000001976a914ec878bac23ad242ec6b5df8d01cac9618ba7f83f88ac5dd40d02000000001976a9140eac91c01876df09cb985f0b1dffeb4c7bf67ff188ac00000000","txid":"3d8eb1c1ab6e53c59a8816c06e98490c633a8c736ba911229ab9d543e2c6e7c3","version":1,"time":1541082816,"locktime":0,"vin":[{"txid":"5f5461532e8d1e304ff0d8467754d6094e2119362a1f1b4d8f13f986a0e6dc54","vout":0,"scriptSig":{"asm":"3045022100e1800a8648d8372ae79a0ffb1859818ff2d179915ca73a5710dfa2f036eccd2902207523aac652852a3c46df4dd0edade7d50b15156aacf2850a88049ca61b56617701 03335eb77784d6cf6e96596657a75da82900a3e935c7aca60d62657b49c2183046","hex":"483045022100e1800a8648d8372ae79a0ffb1859818ff2d179915ca73a5710dfa2f036eccd2902207523aac652852a3c46df4dd0edade7d50b15156aacf2850a88049ca61b566177012103335eb77784d6cf6e96596657a75da82900a3e935c7aca60d62657b49c2183046"},"sequence":4294967295}],"vout":[{"value":0.18730199,"n":0,"scriptPubKey":{"asm":"OP_DUP OP_HASH160 ec878bac23ad242ec6b5df8d01cac9618ba7f83f OP_EQUALVERIFY OP_CHECKSIG","reqSigs":1,"type":"pubkeyhash","addresses":["pT7E3rHfew5HbfhkzWtPDgxjtiLjQsfgAB"]}},{"value":0.34460765,"n":1,"scriptPubKey":{"asm":"OP_DUP OP_HASH160 0eac91c01876df09cb985f0b1dffeb4c7bf67ff1 OP_EQUALVERIFY OP_CHECKSIG","reqSigs":1,"type":"pubkeyhash","addresses":["p6tAPiem9U88jYAQLXEVhM3Ak4em8wSoZf"]}}],"blockhash":"d2f5c6bfabe61e769422e1eecbf7f687da7e5a99faad28cfab244ec6201259d0","confirmations":111,"blocktime":1541082816}