{"hex":"01000000c00edb5b01d9cd82429fd35a800f06a79bd1a9a514ea6aa908c3c43193396c885e4a037b0e010000006b483045022100c87c202c0d258cde9f7ee6d789edef2cc6a1812305b935f1dc944c465b1c9e5702203aecf421312e97aef4a77dace8a02eb40bcd5371b23dd7a531ba54747f564069012102a0ffdcd26bc595776e6ad72bf63c12428f5a915eaca2bad49b753e858d5ea8e3ffffffff04000000000000000000004429353a000000232102a0ffdcd26bc595776e6ad72bf63c12428f5a915eaca2bad49b753e858d5ea8e3ac315829353a000000232102a0ffdcd26bc595776e6ad72bf63c12428f5a915eaca2bad49b753e858d5ea8e3ac6b720000000000001976a9144c86b0b2edcbbfcf0d0112bbb160a541568205b788ac00000000","txid":"79c7b7051393b7862a06da2ba9e870294c83a59fdbca8b8565393980057503b8","version":1,"time":1541082816,"locktime":0,"vin":[{"txid":"0e7b034a5e886c399331c4c308a96aea14a5a9d19ba7060f805ad39f4282cdd9","vout":1,"scriptSig":{"asm":"3045022100c87c202c0d258cde9f7ee6d789edef2cc6a1812305b935f1dc944c465b1c9e5702203aecf421312e97aef4a77dace8a02eb40bcd5371b23dd7a531ba54747f56406901 02a0ffdcd26bc595776e6ad72bf63c12428f5a915eaca2bad49b753e858d5ea8e3","hex":"483045022100c87c202c0d258cde9f7ee6d789edef2cc6a1812305b935f1dc944c465b1c9e5702203aecf421312e97aef4a77dace8a02eb40bcd5371b23dd7a531ba54747f564069012102a0ffdcd26bc595776e6ad72bf63c12428f5a915eaca2bad49b753e858d5ea8e3"},"sequence":4294967295}],"vout":[{"value":0,"n":0,"scriptPubKey":{"asm":"","type":"nonstandard"}},{"value":2500,"n":1,"scriptPubKey":{"asm":"02a0ffdcd26bc595776e6ad72bf63c12428f5a915eaca2bad49b753e858d5ea8e3 OP_CHECKSIG","reqSigs":1,"type":"pubkey","addresses":["p8iepVjrqbjo1uNb8dyXKBBerSUv6zrPfw"]}},{"value":2500.00005169,"n":2,"scriptPubKey":{"asm":"02a0ffdcd26bc595776e6ad72bf63c12428f5a915eaca2bad49b753e858d5ea8e3 OP_CHECKSIG","reqSigs":1,"type":"pubkey","addresses":["p8iepVjrqbjo1uNb8dyXKBBerSUv6zrPfw"]}},{"value":0.00029291,"n":3,"scriptPubKey":{"asm":"OP_DUP OP_HASH160 4c86b0b2edcbbfcf0d0112bbb160a541568205b7 OP_EQUALVERIFY OP_CHECKSIG","reqSigs":1,"type":"pubkeyhash","addresses":["pCXCuj4F9uaYHMue5Nqy3XLKdLz4U9gRoi"]}}],"blockhash":"d2f5c6bfabe61e769422e1eecbf7f687da7e5a99faad28cfab244ec6201259d0","confirmations":111,"blocktime":1541082816}