{"hex":"01000000c932db5b06176581a96ecc43c198dc5ad79b1c2b5b8eced61065d2d8fc72df5a576973c058000000006a47304402206c81ff32220be6bfe7fdf119b4f710d19c684ea400a7084353c0d3c96a30212d0220113b1b94270cb10d06c929bf0513440370bfed72019e8d87b0ebf463c33f7d430121029e857134122939a57279b02312e296a02bcf0cf876ddc541bd372450215dbeacffffffff45c61efbbfdf061f700d613255d6724af8e80e22471dfb64f700050ca03d6c5d000000006b483045022100b8040073af541163d7a8a5de86540a358f8d2c63eb54fa95263848e516871a9f02201df00e91e5dd26b0cf14c8e28e0e71996f585dd18e1dcbfb107d6eeaaa1ea88b012102f38c67c31e69cedff9e2e7099aaa16f6d78524cf62059b24bc51ce00671e1f9dffffffff81812ad13e5cd8c8869f9e808aa77faff309d3bf160c6a84a8c537872bd034ff000000006a47304402205bf54b6169d58fdc842038892feb9fdd1e397ae09622fce63c6c98bfe65913a602204cb4ed263fc95871f22bc5b4ca2ec255a96527b242a2260750284c04a48bd8f00121023f75bd12e0618f8dbeedc7806fd254dc43612bc1a050b0f3f339047328e6e1bbffffffffb27bd801f5d115092c4b9e9ccee16628291dbb797fa1c3f2c6e367e71756c368010000006b4830450221008bddedf48d119545d836cddb78d52f2eef5ce3b318f11636634e1819cb33f7270220026312ebade6513a3bf5f78e61a51ad36f3360847e81912247bce0c005f8f670012102e81f74eeb8173099654d430a1e871da849b87aa7877ea38319c780cc8368d625ffffffffcd62d18073bdba22daaf1338dd5a5541923c8fd3044fa29478c64cfb66464d12010000006b483045022100c07a8a63571b5b9077c8ce9a30289f8139e951351edc409e88a585f4bffeaadb022010c31114574661088b6bbe74f671ed908d9dcc0b13f43a029fe11a77aeea695a0121035c77a540465d63b95e91ad2cf1d5809c1a151793a9dfb26faeb3e81df5f77addffffffffd3ea43bb1ba96885ea06e9b2f2f9219196ae37c52ab4a0bf97c117bbf5c5be84000000006a473044022034faf3b2afa9c368cd279063d1bac924a17033e560abd1cae37341b1cd02112b022024bf273594a37396b3583a931f59ff051a8c2d4316e7df87c8b22c11401fb8f10121023fee197b0852781598e7bc1959cb5bfb210d60f1c355e003c82ee7feaf1a8b23ffffffff02eaf58300000000001976a9141d2f667e20e0da395e18a2ee2746542c59db491488ac3783a834010000001976a914c2feac2108dbd3a23b54fe0650fa3296f054054c88ac00000000","txid":"7c2c75d135a09239af179dd0579c025515b076b7ab85f424b7156e211a443545","version":1,"time":1541092048,"locktime":0,"vin":[{"txid":"58c07369575adf72fcd8d26510d6ce8e5b2b1c9bd75adc98c143cc6ea9816517","vout":0,"scriptSig":{"asm":"304402206c81ff32220be6bfe7fdf119b4f710d19c684ea400a7084353c0d3c96a30212d0220113b1b94270cb10d06c929bf0513440370bfed72019e8d87b0ebf463c33f7d4301 029e857134122939a57279b02312e296a02bcf0cf876ddc541bd372450215dbeac","hex":"47304402206c81ff32220be6bfe7fdf119b4f710d19c684ea400a7084353c0d3c96a30212d0220113b1b94270cb10d06c929bf0513440370bfed72019e8d87b0ebf463c33f7d430121029e857134122939a57279b02312e296a02bcf0cf876ddc541bd372450215dbeac"},"sequence":4294967295},{"txid":"5d6c3da00c0500f764fb1d47220ee8f84a72d65532610d701f06dfbffb1ec645","vout":0,"scriptSig":{"asm":"3045022100b8040073af541163d7a8a5de86540a358f8d2c63eb54fa95263848e516871a9f02201df00e91e5dd26b0cf14c8e28e0e71996f585dd18e1dcbfb107d6eeaaa1ea88b01 02f38c67c31e69cedff9e2e7099aaa16f6d78524cf62059b24bc51ce00671e1f9d","hex":"483045022100b8040073af541163d7a8a5de86540a358f8d2c63eb54fa95263848e516871a9f02201df00e91e5dd26b0cf14c8e28e0e71996f585dd18e1dcbfb107d6eeaaa1ea88b012102f38c67c31e69cedff9e2e7099aaa16f6d78524cf62059b24bc51ce00671e1f9d"},"sequence":4294967295},{"txid":"ff34d02b8737c5a8846a0c16bfd309f3af7fa78a809e9f86c8d85c3ed12a8181","vout":0,"scriptSig":{"asm":"304402205bf54b6169d58fdc842038892feb9fdd1e397ae09622fce63c6c98bfe65913a602204cb4ed263fc95871f22bc5b4ca2ec255a96527b242a2260750284c04a48bd8f001 023f75bd12e0618f8dbeedc7806fd254dc43612bc1a050b0f3f339047328e6e1bb","hex":"47304402205bf54b6169d58fdc842038892feb9fdd1e397ae09622fce63c6c98bfe65913a602204cb4ed263fc95871f22bc5b4ca2ec255a96527b242a2260750284c04a48bd8f00121023f75bd12e0618f8dbeedc7806fd254dc43612bc1a050b0f3f339047328e6e1bb"},"sequence":4294967295},{"txid":"68c35617e767e3c6f2c3a17f79bb1d292866e1ce9c9e4b2c0915d1f501d87bb2","vout":1,"scriptSig":{"asm":"30450221008bddedf48d119545d836cddb78d52f2eef5ce3b318f11636634e1819cb33f7270220026312ebade6513a3bf5f78e61a51ad36f3360847e81912247bce0c005f8f67001 02e81f74eeb8173099654d430a1e871da849b87aa7877ea38319c780cc8368d625","hex":"4830450221008bddedf48d119545d836cddb78d52f2eef5ce3b318f11636634e1819cb33f7270220026312ebade6513a3bf5f78e61a51ad36f3360847e81912247bce0c005f8f670012102e81f74eeb8173099654d430a1e871da849b87aa7877ea38319c780cc8368d625"},"sequence":4294967295},{"txid":"124d4666fb4cc67894a24f04d38f3c9241555add3813afda22babd7380d162cd","vout":1,"scriptSig":{"asm":"3045022100c07a8a63571b5b9077c8ce9a30289f8139e951351edc409e88a585f4bffeaadb022010c31114574661088b6bbe74f671ed908d9dcc0b13f43a029fe11a77aeea695a01 035c77a540465d63b95e91ad2cf1d5809c1a151793a9dfb26faeb3e81df5f77add","hex":"483045022100c07a8a63571b5b9077c8ce9a30289f8139e951351edc409e88a585f4bffeaadb022010c31114574661088b6bbe74f671ed908d9dcc0b13f43a029fe11a77aeea695a0121035c77a540465d63b95e91ad2cf1d5809c1a151793a9dfb26faeb3e81df5f77add"},"sequence":4294967295},{"txid":"84bec5f5bb17c197bfa0b42ac537ae969121f9f2b2e906ea8568a91bbb43ead3","vout":0,"scriptSig":{"asm":"3044022034faf3b2afa9c368cd279063d1bac924a17033e560abd1cae37341b1cd02112b022024bf273594a37396b3583a931f59ff051a8c2d4316e7df87c8b22c11401fb8f101 023fee197b0852781598e7bc1959cb5bfb210d60f1c355e003c82ee7feaf1a8b23","hex":"473044022034faf3b2afa9c368cd279063d1bac924a17033e560abd1cae37341b1cd02112b022024bf273594a37396b3583a931f59ff051a8c2d4316e7df87c8b22c11401fb8f10121023fee197b0852781598e7bc1959cb5bfb210d60f1c355e003c82ee7feaf1a8b23"},"sequence":4294967295}],"vout":[{"value":0.0864817,"n":0,"scriptPubKey":{"asm":"OP_DUP OP_HASH160 1d2f667e20e0da395e18a2ee2746542c59db4914 OP_EQUALVERIFY OP_CHECKSIG","reqSigs":1,"type":"pubkeyhash","addresses":["p8CtahkuEt24UBjMWoaPLBvMyue7gsfHHP"]}},{"value":51.78426167,"n":1,"scriptPubKey":{"asm":"OP_DUP OP_HASH160 c2feac2108dbd3a23b54fe0650fa3296f054054c OP_EQUALVERIFY OP_CHECKSIG","reqSigs":1,"type":"pubkeyhash","addresses":["pPKcNsHPeAiiJH8NqNzVfUJY9h4UhRjPa6"]}}],"blockhash":"fd5b5ea6e34cf86c8050974ab0caba988152c2dd7dfa8749e4b4fd65899ccd96","confirmations":93,"blocktime":1541092048}