{"hex":"01000000d032db5b012794015d71f6b043e719973da308d28f7c6e20535cf7e51fe34055b43a34ffd00100000048473044022061a5f211bd92b7b92d355c2b063cedbe0aff848b108ae6b110c807fe06e83fb00220475b8025d3d6642c8bbc5f0b8c1414499e85c600230464866c93e493abe8949501ffffffff030000000000000000004b2ebdd1010000002321020b1cd26fc4b9f080aea1cf7b667efd5e8453f70429056589831fa7f63506ddbfacfe294300000000001976a9147a58c93fa5e34c0e7c16492ee8061977495aac7c88ac00000000","txid":"967bc84c4760b87cba1ebb28f25826a6fd9dc29a0c62ece1d4565e2b718e0b9f","version":1,"time":1541092048,"locktime":0,"vin":[{"txid":"d0ff343ab45540e31fe5f75c53206e7c8fd208a33d9719e743b0f6715d019427","vout":1,"scriptSig":{"asm":"3044022061a5f211bd92b7b92d355c2b063cedbe0aff848b108ae6b110c807fe06e83fb00220475b8025d3d6642c8bbc5f0b8c1414499e85c600230464866c93e493abe8949501","hex":"473044022061a5f211bd92b7b92d355c2b063cedbe0aff848b108ae6b110c807fe06e83fb00220475b8025d3d6642c8bbc5f0b8c1414499e85c600230464866c93e493abe8949501"},"sequence":4294967295}],"vout":[{"value":0,"n":0,"scriptPubKey":{"asm":"","type":"nonstandard"}},{"value":78.13803595,"n":1,"scriptPubKey":{"asm":"020b1cd26fc4b9f080aea1cf7b667efd5e8453f70429056589831fa7f63506ddbf OP_CHECKSIG","reqSigs":1,"type":"pubkey","addresses":["pECTDpfW4nW8hYte3f3F9ZQxwgWmBwmcYL"]}},{"value":0.04401662,"n":2,"scriptPubKey":{"asm":"OP_DUP OP_HASH160 7a58c93fa5e34c0e7c16492ee8061977495aac7c OP_EQUALVERIFY OP_CHECKSIG","reqSigs":1,"type":"pubkeyhash","addresses":["pGhV15RkjbtFhS6uHd3xCvPoNUNQoDMiqz"]}}],"blockhash":"fd5b5ea6e34cf86c8050974ab0caba988152c2dd7dfa8749e4b4fd65899ccd96","confirmations":93,"blocktime":1541092048}