{"hex":"01000000f067df5b018b51fddb28e9a36d0a1190351e40af0169ea440126312c5c05ec760813ee7134020000004847304402200d3762bf1e606388a60b55df9ab2e6de628ea8f2b8ac08c136a0d961577233f8022072898901918603efd00882da3647b09ddf0f58be39441ba248ac50e4ee06e08d01ffffffff040000000000000000008031e246070000002321026ef57679057df94a5f72e9fead08857f8d7253a593b2b1feed1b68e92df4a4c5ac7489e246070000002321026ef57679057df94a5f72e9fead08857f8d7253a593b2b1feed1b68e92df4a4c5ac0cf20100000000001976a91413cd926daa0b2e1422cabca27e3cbc3aebbee60e88ac00000000","txid":"9e9beebc3c0f0b6ca11070f81f6315487a3ace9fe30b42ee10bc2c9bab05c371","version":1,"time":1541367792,"locktime":0,"vin":[{"txid":"3471ee130876ec055c2c31260144ea6901af401e3590110a6da3e928dbfd518b","vout":2,"scriptSig":{"asm":"304402200d3762bf1e606388a60b55df9ab2e6de628ea8f2b8ac08c136a0d961577233f8022072898901918603efd00882da3647b09ddf0f58be39441ba248ac50e4ee06e08d01","hex":"47304402200d3762bf1e606388a60b55df9ab2e6de628ea8f2b8ac08c136a0d961577233f8022072898901918603efd00882da3647b09ddf0f58be39441ba248ac50e4ee06e08d01"},"sequence":4294967295}],"vout":[{"value":0,"n":0,"scriptPubKey":{"asm":"","type":"nonstandard"}},{"value":312.54,"n":1,"scriptPubKey":{"asm":"026ef57679057df94a5f72e9fead08857f8d7253a593b2b1feed1b68e92df4a4c5 OP_CHECKSIG","reqSigs":1,"type":"pubkey","addresses":["p5dRZ9MeyiKDma1pAUrsmvEK4NBmmdC4ZN"]}},{"value":312.54022516,"n":2,"scriptPubKey":{"asm":"026ef57679057df94a5f72e9fead08857f8d7253a593b2b1feed1b68e92df4a4c5 OP_CHECKSIG","reqSigs":1,"type":"pubkey","addresses":["p5dRZ9MeyiKDma1pAUrsmvEK4NBmmdC4ZN"]}},{"value":0.001275,"n":3,"scriptPubKey":{"asm":"OP_DUP OP_HASH160 13cd926daa0b2e1422cabca27e3cbc3aebbee60e OP_EQUALVERIFY OP_CHECKSIG","reqSigs":1,"type":"pubkeyhash","addresses":["p7MHJk1NCoVwVPjx7mEGWrpeSkLSYSZyuV"]}}],"blockhash":"220f87e97a14780a30cbfe33d4a4ba01326e95e1508cf0c2d083f2e92d7dbf42","confirmations":40,"blocktime":1541367792}