{"hex":"01000000ec67df5b01fbab0c2efd000487b2fdc3a4aada51a399fa6244fa52e888f22176fe9b92da94020000004847304402200c9156b1d1770681b3233d23cdc8e9710777a5d84d9fac87f6a0a0be787050bb0220349cb8e90baa2fbdc212e5518f3c2a177542b895e34e2bd04b157f421929d14701ffffffff020c962d323a0000001976a914b9f3d781f7d99f65d068998a288759e0a638d31288ac80f0fa02000000001976a914303edce037bc854a60086ec9bfac016cd61cabc188ac00000000","txid":"a72bd36ec891683da8168805f4573bfc162e17acd8c1cec996a61f35ed39914f","version":1,"time":1541367792,"locktime":0,"vin":[{"txid":"94da929bfe7621f288e852fa4462fa99a351daaaa4c3fdb2870400fd2e0cabfb","vout":2,"scriptSig":{"asm":"304402200c9156b1d1770681b3233d23cdc8e9710777a5d84d9fac87f6a0a0be787050bb0220349cb8e90baa2fbdc212e5518f3c2a177542b895e34e2bd04b157f421929d14701","hex":"47304402200c9156b1d1770681b3233d23cdc8e9710777a5d84d9fac87f6a0a0be787050bb0220349cb8e90baa2fbdc212e5518f3c2a177542b895e34e2bd04b157f421929d14701"},"sequence":4294967295}],"vout":[{"value":2499.499515,"n":0,"scriptPubKey":{"asm":"OP_DUP OP_HASH160 b9f3d781f7d99f65d068998a288759e0a638d312 OP_EQUALVERIFY OP_CHECKSIG","reqSigs":1,"type":"pubkeyhash","addresses":["pNVoKczQ6P92yawDZejgg9H8khMTR2Sf2j"]}},{"value":0.5,"n":1,"scriptPubKey":{"asm":"OP_DUP OP_HASH160 303edce037bc854a60086ec9bfac016cd61cabc1 OP_EQUALVERIFY OP_CHECKSIG","reqSigs":1,"type":"pubkeyhash","addresses":["p9wfwhPBHvqwGkQdKsiENmaX7TTLTdLruG"]}}],"blockhash":"220f87e97a14780a30cbfe33d4a4ba01326e95e1508cf0c2d083f2e92d7dbf42","confirmations":40,"blocktime":1541367792}