{"hex":"01000000eb67df5b01581c3efeda045c021dd835ae0b429f1f0b43997c73db284cf194acf121eed37a010000006b48304502210083e7378d75028da565e49dbcbcfaf025289ebd789d19a2c2ecc9263273a34d40022025ad8227e84156791e832afc6c8ede2f8ea513443f891423f4dd85751e1f3a9c0121028034480bac098a61bfdb060f24571ec2f8abfde47ba06ceb8bf2df5c73547529ffffffff02b0d4df0e000000001976a914b9f3d781f7d99f65d068998a288759e0a638d31288ac80f0fa02000000001976a914303edce037bc854a60086ec9bfac016cd61cabc188ac00000000","txid":"b14a9bea5a9e435c201e7e76e3e71e2152d3c1b32e1a55530a3e33525e6163bf","version":1,"time":1541367792,"locktime":0,"vin":[{"txid":"7ad3ee21f1ac94f14c28db737c99430b1f9f420bae35d81d025c04dafe3e1c58","vout":1,"scriptSig":{"asm":"304502210083e7378d75028da565e49dbcbcfaf025289ebd789d19a2c2ecc9263273a34d40022025ad8227e84156791e832afc6c8ede2f8ea513443f891423f4dd85751e1f3a9c01 028034480bac098a61bfdb060f24571ec2f8abfde47ba06ceb8bf2df5c73547529","hex":"48304502210083e7378d75028da565e49dbcbcfaf025289ebd789d19a2c2ecc9263273a34d40022025ad8227e84156791e832afc6c8ede2f8ea513443f891423f4dd85751e1f3a9c0121028034480bac098a61bfdb060f24571ec2f8abfde47ba06ceb8bf2df5c73547529"},"sequence":4294967295}],"vout":[{"value":2.4955,"n":0,"scriptPubKey":{"asm":"OP_DUP OP_HASH160 b9f3d781f7d99f65d068998a288759e0a638d312 OP_EQUALVERIFY OP_CHECKSIG","reqSigs":1,"type":"pubkeyhash","addresses":["pNVoKczQ6P92yawDZejgg9H8khMTR2Sf2j"]}},{"value":0.5,"n":1,"scriptPubKey":{"asm":"OP_DUP OP_HASH160 303edce037bc854a60086ec9bfac016cd61cabc1 OP_EQUALVERIFY OP_CHECKSIG","reqSigs":1,"type":"pubkeyhash","addresses":["p9wfwhPBHvqwGkQdKsiENmaX7TTLTdLruG"]}}],"blockhash":"220f87e97a14780a30cbfe33d4a4ba01326e95e1508cf0c2d083f2e92d7dbf42","confirmations":40,"blocktime":1541367792}