{"hex":"01000000eb67df5b017a8b54b387bee14d0a06fc20a4ff14ce394d8292d6b52e9f0887ecf2dd57e379000000006b483045022100d230371ba2cb526e68bf9dcfc4dbbf43aff48537207dc0dd16d8031890b47d2b02205ec18416f8fd28951fc1defbb94f127e7119f90aeeb10a8ef2f78af239a6a538012102bbb1ce5e998c1d152b40dd69d0837159f0a5596b2f04ef3b887978a6cbada80cffffffff02505947203a0000001976a914b9f3d781f7d99f65d068998a288759e0a638d31288ac80f0fa02000000001976a914303edce037bc854a60086ec9bfac016cd61cabc188ac00000000","txid":"c6e7deb64b128ad25fff2383b5611062adf7200ccb09225a80fdb7f222f8e736","version":1,"time":1541367792,"locktime":0,"vin":[{"txid":"79e357ddf2ec87089f2eb5d692824d39ce14ffa420fc060a4de1be87b3548b7a","vout":0,"scriptSig":{"asm":"3045022100d230371ba2cb526e68bf9dcfc4dbbf43aff48537207dc0dd16d8031890b47d2b02205ec18416f8fd28951fc1defbb94f127e7119f90aeeb10a8ef2f78af239a6a53801 02bbb1ce5e998c1d152b40dd69d0837159f0a5596b2f04ef3b887978a6cbada80c","hex":"483045022100d230371ba2cb526e68bf9dcfc4dbbf43aff48537207dc0dd16d8031890b47d2b02205ec18416f8fd28951fc1defbb94f127e7119f90aeeb10a8ef2f78af239a6a538012102bbb1ce5e998c1d152b40dd69d0837159f0a5596b2f04ef3b887978a6cbada80c"},"sequence":4294967295}],"vout":[{"value":2496.4965,"n":0,"scriptPubKey":{"asm":"OP_DUP OP_HASH160 b9f3d781f7d99f65d068998a288759e0a638d312 OP_EQUALVERIFY OP_CHECKSIG","reqSigs":1,"type":"pubkeyhash","addresses":["pNVoKczQ6P92yawDZejgg9H8khMTR2Sf2j"]}},{"value":0.5,"n":1,"scriptPubKey":{"asm":"OP_DUP OP_HASH160 303edce037bc854a60086ec9bfac016cd61cabc1 OP_EQUALVERIFY OP_CHECKSIG","reqSigs":1,"type":"pubkeyhash","addresses":["p9wfwhPBHvqwGkQdKsiENmaX7TTLTdLruG"]}}],"blockhash":"220f87e97a14780a30cbfe33d4a4ba01326e95e1508cf0c2d083f2e92d7dbf42","confirmations":40,"blocktime":1541367792}