{"hex":"01000000001ad15b0128af7587f8892ebf84be2433eb0a069d7474365d29362c754635bd8239b144050100000049483045022100d03c62518a85826fce321b7f300ecc00b7d70d5229bb0aa54de1f8f9fb0adec902207b8e97a4b107d440528f011af7576053727e901ec5a29ef4bc58b9cff36e0d5e01ffffffff04000000000000000000c021aea30300000023210348b24f77eda58d2bf0bd56f764cfdeb0100d2f1058b2d5318f2f2fc9670e730eacc268bda30300000023210348b24f77eda58d2bf0bd56f764cfdeb0100d2f1058b2d5318f2f2fc9670e730eacf01a0000000000001976a914b9f3d781f7d99f65d068998a288759e0a638d31288ac00000000","txid":"3b077feaa273d8fd8fc0bc0b66f1fc8253411772e9ed72da2a853a6e96c852f8","version":1,"time":1540430336,"locktime":0,"vin":[{"txid":"0544b13982bd3546752c36295d3674749d060aeb3324be84bf2e89f88775af28","vout":1,"scriptSig":{"asm":"3045022100d03c62518a85826fce321b7f300ecc00b7d70d5229bb0aa54de1f8f9fb0adec902207b8e97a4b107d440528f011af7576053727e901ec5a29ef4bc58b9cff36e0d5e01","hex":"483045022100d03c62518a85826fce321b7f300ecc00b7d70d5229bb0aa54de1f8f9fb0adec902207b8e97a4b107d440528f011af7576053727e901ec5a29ef4bc58b9cff36e0d5e01"},"sequence":4294967295}],"vout":[{"value":0,"n":0,"scriptPubKey":{"asm":"","type":"nonstandard"}},{"value":156.31,"n":1,"scriptPubKey":{"asm":"0348b24f77eda58d2bf0bd56f764cfdeb0100d2f1058b2d5318f2f2fc9670e730e OP_CHECKSIG","reqSigs":1,"type":"pubkey","addresses":["p8X7huKtvdnnDzc17Xcxxh1Z9ww8ckxvVJ"]}},{"value":156.32001218,"n":2,"scriptPubKey":{"asm":"0348b24f77eda58d2bf0bd56f764cfdeb0100d2f1058b2d5318f2f2fc9670e730e OP_CHECKSIG","reqSigs":1,"type":"pubkey","addresses":["p8X7huKtvdnnDzc17Xcxxh1Z9ww8ckxvVJ"]}},{"value":0.00006896,"n":3,"scriptPubKey":{"asm":"OP_DUP OP_HASH160 b9f3d781f7d99f65d068998a288759e0a638d312 OP_EQUALVERIFY OP_CHECKSIG","reqSigs":1,"type":"pubkeyhash","addresses":["pNVoKczQ6P92yawDZejgg9H8khMTR2Sf2j"]}}],"blockhash":"22321ad7a9368cb9bf065d0749b6e19f7365c6eaa266975e6dcf975ac827ac34","confirmations":296,"blocktime":1540430336}