{"hex":"01000000fe19d15b01e1d8569b82456ec2c46c04d45a58867a74f9327ad99e2ef72e0870a9c2993e97010000006b483045022100c8c376b8bffbc493b9b9075b8905b9f87bc4d0639c2683b7949b561eb535cdae02206e978a61a44e7684bb141a53c49345faec0cff5ed668a69808c8ab186e273890012103947acfeaa638f825b423a91b03ab3b00a4afc7ade9dd684c67e60602873f5f19ffffffff02f4a41c00000000001976a9144c28ee798243702bc4500cdb4da9004130bb47f688acdad17b00000000001976a91484d11aba81e0b4961c89028f9ec7b28763c0fd0288ac00000000","txid":"aa2516520cf4b0284f20f94d60ea304deec73a5d83e0b9082edaecb56f66f6c0","version":1,"time":1540430336,"locktime":0,"vin":[{"txid":"973e99c2a970082ef72e9ed97a32f9747a86585ad4046cc4c26e45829b56d8e1","vout":1,"scriptSig":{"asm":"3045022100c8c376b8bffbc493b9b9075b8905b9f87bc4d0639c2683b7949b561eb535cdae02206e978a61a44e7684bb141a53c49345faec0cff5ed668a69808c8ab186e27389001 03947acfeaa638f825b423a91b03ab3b00a4afc7ade9dd684c67e60602873f5f19","hex":"483045022100c8c376b8bffbc493b9b9075b8905b9f87bc4d0639c2683b7949b561eb535cdae02206e978a61a44e7684bb141a53c49345faec0cff5ed668a69808c8ab186e273890012103947acfeaa638f825b423a91b03ab3b00a4afc7ade9dd684c67e60602873f5f19"},"sequence":4294967295}],"vout":[{"value":0.01877236,"n":0,"scriptPubKey":{"asm":"OP_DUP OP_HASH160 4c28ee798243702bc4500cdb4da9004130bb47f6 OP_EQUALVERIFY OP_CHECKSIG","reqSigs":1,"type":"pubkeyhash","addresses":["pCVGbFvFLapGyskXvwfxG2ss21bRU9FqUh"]}},{"value":0.0811465,"n":1,"scriptPubKey":{"asm":"OP_DUP OP_HASH160 84d11aba81e0b4961c89028f9ec7b28763c0fd02 OP_EQUALVERIFY OP_CHECKSIG","reqSigs":1,"type":"pubkeyhash","addresses":["pHeqtrcPE2K4Kwd9UWv5cymNyDV3WuxqKB"]}}],"blockhash":"22321ad7a9368cb9bf065d0749b6e19f7365c6eaa266975e6dcf975ac827ac34","confirmations":10,"blocktime":1540430336}