{"hex":"010000002013da5b01131a84455ad7dde90abe4b1744fe5a0bac7cf57737bfb4893a8f4a07dfbc32830200000048473044022071d134dde58e7ebe135f1eb4307c8e48654e024fcd50127f25b9c510b607599302203ca75bf407de7d195ff14a8a0040997e52041cdc625b78a68db4cb2debd72c9201ffffffff0400000000000000000000514a8d0e0000002321026ef57679057df94a5f72e9fead08857f8d7253a593b2b1feed1b68e92df4a4c5acc95c4e8d0e0000002321026ef57679057df94a5f72e9fead08857f8d7253a593b2b1feed1b68e92df4a4c5ac61781300000000001976a914b4297f2bb1ec22148c170ab2f943e6826c4d831d88ac00000000","txid":"500ab3ff551f7acfa3b9fdd8f7948a0eecded38a9e5060e9cda302a6865eee99","version":1,"time":1541018400,"locktime":0,"vin":[{"txid":"8332bcdf074a8f3a89b4bf3777f57cac0b5afe44174bbe0ae9ddd75a45841a13","vout":2,"scriptSig":{"asm":"3044022071d134dde58e7ebe135f1eb4307c8e48654e024fcd50127f25b9c510b607599302203ca75bf407de7d195ff14a8a0040997e52041cdc625b78a68db4cb2debd72c9201","hex":"473044022071d134dde58e7ebe135f1eb4307c8e48654e024fcd50127f25b9c510b607599302203ca75bf407de7d195ff14a8a0040997e52041cdc625b78a68db4cb2debd72c9201"},"sequence":4294967295}],"vout":[{"value":0,"n":0,"scriptPubKey":{"asm":"","type":"nonstandard"}},{"value":625,"n":1,"scriptPubKey":{"asm":"026ef57679057df94a5f72e9fead08857f8d7253a593b2b1feed1b68e92df4a4c5 OP_CHECKSIG","reqSigs":1,"type":"pubkey","addresses":["p5dRZ9MeyiKDma1pAUrsmvEK4NBmmdC4ZN"]}},{"value":625.00265161,"n":2,"scriptPubKey":{"asm":"026ef57679057df94a5f72e9fead08857f8d7253a593b2b1feed1b68e92df4a4c5 OP_CHECKSIG","reqSigs":1,"type":"pubkey","addresses":["p5dRZ9MeyiKDma1pAUrsmvEK4NBmmdC4ZN"]}},{"value":0.01276001,"n":3,"scriptPubKey":{"asm":"OP_DUP OP_HASH160 b4297f2bb1ec22148c170ab2f943e6826c4d831d OP_EQUALVERIFY OP_CHECKSIG","reqSigs":1,"type":"pubkeyhash","addresses":["pMyBYUpcH3ehvzacvgmtahza4iSykvMcUD"]}}],"blockhash":"9c5244d92703a3e211b34d671d7b61f54f4489f19354d0389ada2f4b52feda8f","confirmations":118,"blocktime":1541018400}