{"hex":"010000001613da5b03dcd40ee7a294ad719c185c3aba41e12b810363f1e414f590a2ce39f0de4908ec000000006a47304402201f0d1e03d822a71980eb63d468359c7c40073da59b03e79aeffa4e67f50c25c902201dcd52d1ffdac956bd2b2165709a0cd7ec2f20ae34e6c4786f9b486615950e8a0121029e857134122939a57279b02312e296a02bcf0cf876ddc541bd372450215dbeacffffffffdcd40ee7a294ad719c185c3aba41e12b810363f1e414f590a2ce39f0de4908ec010000006b483045022100adfb85f652871828c69a43aa3fe2d5a7c61c3c315952dbc878e473d36d9f60a4022061588324f56122202a8c4aaf3cdb59b01a09dfe970725c11e91197e33e1decc3012102740593ec45ee5f2147e7ddabe7e0b3de629b19a58172990c420f4e5298cc1a14ffffffffb3e513a81112ae7bf96d9e5dba8afdfb235aff03a7af5cd05c9537516d66cce9010000006a4730440220596f4744d049b1d28376108c79289e4ecf8ac02c5ff2c84448bfd510a2d226a0022011eba7757298eca70d19534dfb8756af4c6e459fa1f9884d02a3afdafef37819012103ee3517a2e19eb32d56980925441d8e2cf82933ca3b790efc452c2cc740b9dfa0ffffffff02db26ab01000000001976a9144c28ee798243702bc4500cdb4da9004130bb47f688ac722b7a59000000001976a914c2e6d753ddf3b792ebb17f91ecc938a9c32b18c788ac00000000","txid":"68c35617e767e3c6f2c3a17f79bb1d292866e1ce9c9e4b2c0915d1f501d87bb2","version":1,"time":1541018400,"locktime":0,"vin":[{"txid":"ec0849def039cea290f514e4f16303812be141ba3a5c189c71ad94a2e70ed4dc","vout":0,"scriptSig":{"asm":"304402201f0d1e03d822a71980eb63d468359c7c40073da59b03e79aeffa4e67f50c25c902201dcd52d1ffdac956bd2b2165709a0cd7ec2f20ae34e6c4786f9b486615950e8a01 029e857134122939a57279b02312e296a02bcf0cf876ddc541bd372450215dbeac","hex":"47304402201f0d1e03d822a71980eb63d468359c7c40073da59b03e79aeffa4e67f50c25c902201dcd52d1ffdac956bd2b2165709a0cd7ec2f20ae34e6c4786f9b486615950e8a0121029e857134122939a57279b02312e296a02bcf0cf876ddc541bd372450215dbeac"},"sequence":4294967295},{"txid":"ec0849def039cea290f514e4f16303812be141ba3a5c189c71ad94a2e70ed4dc","vout":1,"scriptSig":{"asm":"3045022100adfb85f652871828c69a43aa3fe2d5a7c61c3c315952dbc878e473d36d9f60a4022061588324f56122202a8c4aaf3cdb59b01a09dfe970725c11e91197e33e1decc301 02740593ec45ee5f2147e7ddabe7e0b3de629b19a58172990c420f4e5298cc1a14","hex":"483045022100adfb85f652871828c69a43aa3fe2d5a7c61c3c315952dbc878e473d36d9f60a4022061588324f56122202a8c4aaf3cdb59b01a09dfe970725c11e91197e33e1decc3012102740593ec45ee5f2147e7ddabe7e0b3de629b19a58172990c420f4e5298cc1a14"},"sequence":4294967295},{"txid":"e9cc666d5137955cd05cafa703ff5a23fbfd8aba5d9e6df97bae1211a813e5b3","vout":1,"scriptSig":{"asm":"30440220596f4744d049b1d28376108c79289e4ecf8ac02c5ff2c84448bfd510a2d226a0022011eba7757298eca70d19534dfb8756af4c6e459fa1f9884d02a3afdafef3781901 03ee3517a2e19eb32d56980925441d8e2cf82933ca3b790efc452c2cc740b9dfa0","hex":"4730440220596f4744d049b1d28376108c79289e4ecf8ac02c5ff2c84448bfd510a2d226a0022011eba7757298eca70d19534dfb8756af4c6e459fa1f9884d02a3afdafef37819012103ee3517a2e19eb32d56980925441d8e2cf82933ca3b790efc452c2cc740b9dfa0"},"sequence":4294967295}],"vout":[{"value":0.27993819,"n":0,"scriptPubKey":{"asm":"OP_DUP OP_HASH160 4c28ee798243702bc4500cdb4da9004130bb47f6 OP_EQUALVERIFY OP_CHECKSIG","reqSigs":1,"type":"pubkeyhash","addresses":["pCVGbFvFLapGyskXvwfxG2ss21bRU9FqUh"]}},{"value":15.01178738,"n":1,"scriptPubKey":{"asm":"OP_DUP OP_HASH160 c2e6d753ddf3b792ebb17f91ecc938a9c32b18c7 OP_EQUALVERIFY OP_CHECKSIG","reqSigs":1,"type":"pubkeyhash","addresses":["pPK7q3TCxqe3fxnLP4rPVN4h4viMiMRBSj"]}}],"blockhash":"9c5244d92703a3e211b34d671d7b61f54f4489f19354d0389ada2f4b52feda8f","confirmations":118,"blocktime":1541018400}