{"hex":"01000000da36da5b01e37d23b5e7e689d289f9e071868a0b22792fd161de94650884fc0aec49cdbc7e000000006b483045022100f9e77c74e379e1d4e38e7eba705376e33494b17e552cb17f64f5e9c60cf862b902202c4d3b97e5c54c3626c63fb71d56481481f993d5b33616824ca7391992ab8722012103467c38a04a649124f727d88ba3589f55dcc582617fa4602a772e418dee41125bffffffff029403da03000000001976a9144c28ee798243702bc4500cdb4da9004130bb47f688acd11ef911000000001976a91482a901a255c6dd26b003a538157d069fb9d83fd988ac00000000","txid":"6e66c40e46f8d0b73ced0aef9d23ee13e2a6291eb72c6260e11ee14f75fa2feb","version":1,"time":1541027552,"locktime":0,"vin":[{"txid":"7ebccd49ec0afc84086594de61d12f79220b8a8671e0f989d289e6e7b5237de3","vout":0,"scriptSig":{"asm":"3045022100f9e77c74e379e1d4e38e7eba705376e33494b17e552cb17f64f5e9c60cf862b902202c4d3b97e5c54c3626c63fb71d56481481f993d5b33616824ca7391992ab872201 03467c38a04a649124f727d88ba3589f55dcc582617fa4602a772e418dee41125b","hex":"483045022100f9e77c74e379e1d4e38e7eba705376e33494b17e552cb17f64f5e9c60cf862b902202c4d3b97e5c54c3626c63fb71d56481481f993d5b33616824ca7391992ab8722012103467c38a04a649124f727d88ba3589f55dcc582617fa4602a772e418dee41125b"},"sequence":4294967295}],"vout":[{"value":0.64619412,"n":0,"scriptPubKey":{"asm":"OP_DUP OP_HASH160 4c28ee798243702bc4500cdb4da9004130bb47f6 OP_EQUALVERIFY OP_CHECKSIG","reqSigs":1,"type":"pubkeyhash","addresses":["pCVGbFvFLapGyskXvwfxG2ss21bRU9FqUh"]}},{"value":3.01539025,"n":1,"scriptPubKey":{"asm":"OP_DUP OP_HASH160 82a901a255c6dd26b003a538157d069fb9d83fd9 OP_EQUALVERIFY OP_CHECKSIG","reqSigs":1,"type":"pubkeyhash","addresses":["pHTSWQuAcph1VbJMBWL3UqpkAG6pUC9Mrs"]}}],"blockhash":"d272ddc97d1184c27ae87a9b296cd1bac4f1dd01c4a8229285d7ddae3e11f39a","confirmations":115,"blocktime":1541027552}