{"hex":"01000000e036da5b09369e0ed1c024d9a8a3aaa962989aa742960ac91b1b77a7e2b6bed666a6d7238d020000006b483045022100aa82c2d3116016958bb5d35b34a786d64c3a9cd36d7c955d3cb06cafa91e26bf022049d64b1605d667bfe90cb2260e4fa2733dbcab78a74882fe344c366c480fa430012103f98fe2632fab54e64af25b30cb1601b07259379f488db5c93b4adbd6b962f5b9ffffffff10a9d6d080fe188af6fd76850ef3d3b1c08665816b27b1745869bf1c206e09ac020000006a47304402203e7c16a151c24f67c2d727ce1cf305b35acfa6e08e52bb7212983a8b1e3cfdfb02206fdb6eae7070c22d1a4fadc7ddc377fc0da31d13887b657b69e2e6d687cfdd6c012103f98fe2632fab54e64af25b30cb1601b07259379f488db5c93b4adbd6b962f5b9ffffffff67128e35ea4a3708028c759ac7b1e8203fd3979627b94ec88fa2bc05ce9faad7030000006a47304402200e6b78fc488b052f7b10901498b0535f1578c57ed3eb939d03e8754f29b9357e02205d59f670783a6a77ff59c1d7a4f334ef5fc3501e4287a6ff19822ae948a00373012103f98fe2632fab54e64af25b30cb1601b07259379f488db5c93b4adbd6b962f5b9ffffffff81f478e83b6b1a8a3f80526fe9b6561afd35b2a0c3742f237946044926048b2d030000006b483045022100f1fc7946a8faf08fdc73b06edb1013a959e07871fa072d759e3d93ebf2a6a3a202201c3c488819bc97de507f09cb3e7e183dadb43782ac2f979977ae97f2182f9f23012103f98fe2632fab54e64af25b30cb1601b07259379f488db5c93b4adbd6b962f5b9ffffffffca0dffda9cc0b1a08edfda9fd9c1717b1e623857d5b5bf406cb71ee92dda3e45030000006b483045022100db8c82d28dad10cad4e6e5cc1498dca6ca5949311988e6dd1bbf284dc78ca90c0220552bcf210f9883288f81b29fa46840edb336d8b0c45acc467abaf5f2a575bb74012103f98fe2632fab54e64af25b30cb1601b07259379f488db5c93b4adbd6b962f5b9ffffffffe194d43b503f7bd8fdbe69fa4c16023ab0b3d4d18fb22025a91531318c5ffd51030000006b483045022100c3d24fbe1d962d5f38b8f5ce1ba29a3bc08e1c9a7fa11a46307c2a2d1171b0fe02201f46f7c901e31cf4be14d72908b3d8038efab8009dc5235c90d2b38e1e97f981012103f98fe2632fab54e64af25b30cb1601b07259379f488db5c93b4adbd6b962f5b9ffffffffea2a1c1cc5fd3670178b02df8b96a0b2d0d548334c552194011ff3c26a9a4685030000006a473044022075189f96a4b18670765edcaadb0738f2e1af7f710941399264754867c37224fd02203089c53e2a7da3a6477ae21a5841cfd36db281bedbbf4b2e3f2844fbdf28f407012103f98fe2632fab54e64af25b30cb1601b07259379f488db5c93b4adbd6b962f5b9fffffffff45c522efcf443f0a9d8ff9e3eb70c79b6021fc1a4c7c59ee96de78a94c2a876030000006b483045022100e9cd8313a0712c98dd6ffea4012233c7b7d762bb272a25f5b1bb912637b1225c02204af0425d7b650e7e44b013bc7f499b5fe625e3bbcd89ecb5400f10f8cc8b6a8d012103f98fe2632fab54e64af25b30cb1601b07259379f488db5c93b4adbd6b962f5b9ffffffff31ea7005676eba154efd5b5f1a65935e9af74876335162446b2f30ff717ac5db030000006b4830450221008ec338e349843940550d99544fac294820014758352af3899617b48e82eb5c1a022059d194ebf4ffdf8ba742f6a8a0fda7d4e4eab433dca3b17ae302bd3ea33a59c9012103f98fe2632fab54e64af25b30cb1601b07259379f488db5c93b4adbd6b962f5b9ffffffff03000000000000000000987c050000000000232103f98fe2632fab54e64af25b30cb1601b07259379f488db5c93b4adbd6b962f5b9ac6eea0300000000001976a914a539c7c64804ba10293866c3433100eabbe41ccf88ac00000000","txid":"af31cb7aae71e20d00e5b3cc586eb31f36462287f4639ea3efbb6df6c9be079b","version":1,"time":1541027552,"locktime":0,"vin":[{"txid":"8d23d7a666d6beb6e2a7771b1bc90a9642a79a9862a9aaa3a8d924c0d10e9e36","vout":2,"scriptSig":{"asm":"3045022100aa82c2d3116016958bb5d35b34a786d64c3a9cd36d7c955d3cb06cafa91e26bf022049d64b1605d667bfe90cb2260e4fa2733dbcab78a74882fe344c366c480fa43001 03f98fe2632fab54e64af25b30cb1601b07259379f488db5c93b4adbd6b962f5b9","hex":"483045022100aa82c2d3116016958bb5d35b34a786d64c3a9cd36d7c955d3cb06cafa91e26bf022049d64b1605d667bfe90cb2260e4fa2733dbcab78a74882fe344c366c480fa430012103f98fe2632fab54e64af25b30cb1601b07259379f488db5c93b4adbd6b962f5b9"},"sequence":4294967295},{"txid":"ac096e201cbf695874b1276b816586c0b1d3f30e8576fdf68a18fe80d0d6a910","vout":2,"scriptSig":{"asm":"304402203e7c16a151c24f67c2d727ce1cf305b35acfa6e08e52bb7212983a8b1e3cfdfb02206fdb6eae7070c22d1a4fadc7ddc377fc0da31d13887b657b69e2e6d687cfdd6c01 03f98fe2632fab54e64af25b30cb1601b07259379f488db5c93b4adbd6b962f5b9","hex":"47304402203e7c16a151c24f67c2d727ce1cf305b35acfa6e08e52bb7212983a8b1e3cfdfb02206fdb6eae7070c22d1a4fadc7ddc377fc0da31d13887b657b69e2e6d687cfdd6c012103f98fe2632fab54e64af25b30cb1601b07259379f488db5c93b4adbd6b962f5b9"},"sequence":4294967295},{"txid":"d7aa9fce05bca28fc84eb9279697d33f20e8b1c79a758c0208374aea358e1267","vout":3,"scriptSig":{"asm":"304402200e6b78fc488b052f7b10901498b0535f1578c57ed3eb939d03e8754f29b9357e02205d59f670783a6a77ff59c1d7a4f334ef5fc3501e4287a6ff19822ae948a0037301 03f98fe2632fab54e64af25b30cb1601b07259379f488db5c93b4adbd6b962f5b9","hex":"47304402200e6b78fc488b052f7b10901498b0535f1578c57ed3eb939d03e8754f29b9357e02205d59f670783a6a77ff59c1d7a4f334ef5fc3501e4287a6ff19822ae948a00373012103f98fe2632fab54e64af25b30cb1601b07259379f488db5c93b4adbd6b962f5b9"},"sequence":4294967295},{"txid":"2d8b042649044679232f74c3a0b235fd1a56b6e96f52803f8a1a6b3be878f481","vout":3,"scriptSig":{"asm":"3045022100f1fc7946a8faf08fdc73b06edb1013a959e07871fa072d759e3d93ebf2a6a3a202201c3c488819bc97de507f09cb3e7e183dadb43782ac2f979977ae97f2182f9f2301 03f98fe2632fab54e64af25b30cb1601b07259379f488db5c93b4adbd6b962f5b9","hex":"483045022100f1fc7946a8faf08fdc73b06edb1013a959e07871fa072d759e3d93ebf2a6a3a202201c3c488819bc97de507f09cb3e7e183dadb43782ac2f979977ae97f2182f9f23012103f98fe2632fab54e64af25b30cb1601b07259379f488db5c93b4adbd6b962f5b9"},"sequence":4294967295},{"txid":"453eda2de91eb76c40bfb5d55738621e7b71c1d99fdadf8ea0b1c09cdaff0dca","vout":3,"scriptSig":{"asm":"3045022100db8c82d28dad10cad4e6e5cc1498dca6ca5949311988e6dd1bbf284dc78ca90c0220552bcf210f9883288f81b29fa46840edb336d8b0c45acc467abaf5f2a575bb7401 03f98fe2632fab54e64af25b30cb1601b07259379f488db5c93b4adbd6b962f5b9","hex":"483045022100db8c82d28dad10cad4e6e5cc1498dca6ca5949311988e6dd1bbf284dc78ca90c0220552bcf210f9883288f81b29fa46840edb336d8b0c45acc467abaf5f2a575bb74012103f98fe2632fab54e64af25b30cb1601b07259379f488db5c93b4adbd6b962f5b9"},"sequence":4294967295},{"txid":"51fd5f8c313115a92520b28fd1d4b3b03a02164cfa69befdd87b3f503bd494e1","vout":3,"scriptSig":{"asm":"3045022100c3d24fbe1d962d5f38b8f5ce1ba29a3bc08e1c9a7fa11a46307c2a2d1171b0fe02201f46f7c901e31cf4be14d72908b3d8038efab8009dc5235c90d2b38e1e97f98101 03f98fe2632fab54e64af25b30cb1601b07259379f488db5c93b4adbd6b962f5b9","hex":"483045022100c3d24fbe1d962d5f38b8f5ce1ba29a3bc08e1c9a7fa11a46307c2a2d1171b0fe02201f46f7c901e31cf4be14d72908b3d8038efab8009dc5235c90d2b38e1e97f981012103f98fe2632fab54e64af25b30cb1601b07259379f488db5c93b4adbd6b962f5b9"},"sequence":4294967295},{"txid":"85469a6ac2f31f019421554c3348d5d0b2a0968bdf028b177036fdc51c1c2aea","vout":3,"scriptSig":{"asm":"3044022075189f96a4b18670765edcaadb0738f2e1af7f710941399264754867c37224fd02203089c53e2a7da3a6477ae21a5841cfd36db281bedbbf4b2e3f2844fbdf28f40701 03f98fe2632fab54e64af25b30cb1601b07259379f488db5c93b4adbd6b962f5b9","hex":"473044022075189f96a4b18670765edcaadb0738f2e1af7f710941399264754867c37224fd02203089c53e2a7da3a6477ae21a5841cfd36db281bedbbf4b2e3f2844fbdf28f407012103f98fe2632fab54e64af25b30cb1601b07259379f488db5c93b4adbd6b962f5b9"},"sequence":4294967295},{"txid":"76a8c2948ae76de99ec5c7a4c11f02b6790cb73e9effd8a9f043f4fc2e525cf4","vout":3,"scriptSig":{"asm":"3045022100e9cd8313a0712c98dd6ffea4012233c7b7d762bb272a25f5b1bb912637b1225c02204af0425d7b650e7e44b013bc7f499b5fe625e3bbcd89ecb5400f10f8cc8b6a8d01 03f98fe2632fab54e64af25b30cb1601b07259379f488db5c93b4adbd6b962f5b9","hex":"483045022100e9cd8313a0712c98dd6ffea4012233c7b7d762bb272a25f5b1bb912637b1225c02204af0425d7b650e7e44b013bc7f499b5fe625e3bbcd89ecb5400f10f8cc8b6a8d012103f98fe2632fab54e64af25b30cb1601b07259379f488db5c93b4adbd6b962f5b9"},"sequence":4294967295},{"txid":"dbc57a71ff302f6b446251337648f79a5e93651a5f5bfd4e15ba6e670570ea31","vout":3,"scriptSig":{"asm":"30450221008ec338e349843940550d99544fac294820014758352af3899617b48e82eb5c1a022059d194ebf4ffdf8ba742f6a8a0fda7d4e4eab433dca3b17ae302bd3ea33a59c901 03f98fe2632fab54e64af25b30cb1601b07259379f488db5c93b4adbd6b962f5b9","hex":"4830450221008ec338e349843940550d99544fac294820014758352af3899617b48e82eb5c1a022059d194ebf4ffdf8ba742f6a8a0fda7d4e4eab433dca3b17ae302bd3ea33a59c9012103f98fe2632fab54e64af25b30cb1601b07259379f488db5c93b4adbd6b962f5b9"},"sequence":4294967295}],"vout":[{"value":0,"n":0,"scriptPubKey":{"asm":"","type":"nonstandard"}},{"value":0.00359576,"n":1,"scriptPubKey":{"asm":"03f98fe2632fab54e64af25b30cb1601b07259379f488db5c93b4adbd6b962f5b9 OP_CHECKSIG","reqSigs":1,"type":"pubkey","addresses":["p7snoofvhm9cmcDcAmpbzCVHFFEt2fdccj"]}},{"value":0.00256622,"n":2,"scriptPubKey":{"asm":"OP_DUP OP_HASH160 a539c7c64804ba10293866c3433100eabbe41ccf OP_EQUALVERIFY OP_CHECKSIG","reqSigs":1,"type":"pubkeyhash","addresses":["pLcCv1RBNEWf4q17fiPMGMYqeFUvP9a826"]}}],"blockhash":"d272ddc97d1184c27ae87a9b296cd1bac4f1dd01c4a8229285d7ddae3e11f39a","confirmations":115,"blocktime":1541027552}