{"hex":"01000000d436da5b02ada665f7e48e136670b0b6f29483d1a9bee572d258df42ab1b7b1543fbce07fb000000006a473044022075efd52d379dba65074aadb1452bc6315faf6f048bee73db255ccf93c7f7e58c02206740a63b88b356cacede597cb2e2184a2e76846d5479eb089e85157cdce3bf5601210370f84cc9c96a719982cb2bb4ad9f4b007dcfd8e0c3c4b30e25cacf14f7fda191ffffffff6dc54ae93acf7fe6fa34ff4a7582430a63820a7af2f46ca04c454cf44694f8be010000006b483045022100f29ffbb3cfbb081e1d3ff1b1b438b07e28380db67a31485e21142dabeb5c1bb102204075c637e973561ca6631f3a3f8306430c12d7b9d01ba90b96ce041f308255cc0121030133a702ac1d3b7d26cc81c9b092d93c13d2f20096aed314c2fb39eb7c98ce5effffffff02d2ba0f00000000001976a9144c28ee798243702bc4500cdb4da9004130bb47f688ac87a60500000000001976a914c134fcb8a6bc957059c9eb5ae0e5e794ca6a761388ac00000000","txid":"c2bcaa5bd226a8365755a960a9dca33ac2f7e47e2541e19550b8d805da0c5a46","version":1,"time":1541027552,"locktime":0,"vin":[{"txid":"fb07cefb43157b1bab42df58d272e5bea9d18394f2b6b07066138ee4f765a6ad","vout":0,"scriptSig":{"asm":"3044022075efd52d379dba65074aadb1452bc6315faf6f048bee73db255ccf93c7f7e58c02206740a63b88b356cacede597cb2e2184a2e76846d5479eb089e85157cdce3bf5601 0370f84cc9c96a719982cb2bb4ad9f4b007dcfd8e0c3c4b30e25cacf14f7fda191","hex":"473044022075efd52d379dba65074aadb1452bc6315faf6f048bee73db255ccf93c7f7e58c02206740a63b88b356cacede597cb2e2184a2e76846d5479eb089e85157cdce3bf5601210370f84cc9c96a719982cb2bb4ad9f4b007dcfd8e0c3c4b30e25cacf14f7fda191"},"sequence":4294967295},{"txid":"bef89446f44c454ca06cf4f27a0a82630a4382754aff34fae67fcf3ae94ac56d","vout":1,"scriptSig":{"asm":"3045022100f29ffbb3cfbb081e1d3ff1b1b438b07e28380db67a31485e21142dabeb5c1bb102204075c637e973561ca6631f3a3f8306430c12d7b9d01ba90b96ce041f308255cc01 030133a702ac1d3b7d26cc81c9b092d93c13d2f20096aed314c2fb39eb7c98ce5e","hex":"483045022100f29ffbb3cfbb081e1d3ff1b1b438b07e28380db67a31485e21142dabeb5c1bb102204075c637e973561ca6631f3a3f8306430c12d7b9d01ba90b96ce041f308255cc0121030133a702ac1d3b7d26cc81c9b092d93c13d2f20096aed314c2fb39eb7c98ce5e"},"sequence":4294967295}],"vout":[{"value":0.01030866,"n":0,"scriptPubKey":{"asm":"OP_DUP OP_HASH160 4c28ee798243702bc4500cdb4da9004130bb47f6 OP_EQUALVERIFY OP_CHECKSIG","reqSigs":1,"type":"pubkeyhash","addresses":["pCVGbFvFLapGyskXvwfxG2ss21bRU9FqUh"]}},{"value":0.00370311,"n":1,"scriptPubKey":{"asm":"OP_DUP OP_HASH160 c134fcb8a6bc957059c9eb5ae0e5e794ca6a7613 OP_EQUALVERIFY OP_CHECKSIG","reqSigs":1,"type":"pubkeyhash","addresses":["pPAA6LsnKEyrQCD2yVA6rLv9xXrXwgqYpJ"]}}],"blockhash":"d272ddc97d1184c27ae87a9b296cd1bac4f1dd01c4a8229285d7ddae3e11f39a","confirmations":115,"blocktime":1541027552}