{"hex":"01000000faa0c25b010000000000000000000000000000000000000000000000000000000000000000ffffffff04012c0102ffffffff0100000000000000001976a914c0d72ff01c30fe613aaff63a3c26ddf29d34a3f788ac00000000","txid":"fd463806697358ad8b7f91d501cf4d20ff1b616f021bce7e4ef57335ac31ed39","version":1,"time":1539481853,"locktime":0,"vin":[{"coinbase":"012c0102","sequence":4294967295}],"vout":[{"value":0,"n":0,"scriptPubKey":{"asm":"OP_DUP OP_HASH160 c0d72ff01c30fe613aaff63a3c26ddf29d34a3f7 OP_EQUALVERIFY OP_CHECKSIG","reqSigs":1,"type":"pubkeyhash","addresses":["pP8Dj1X5MgYKtEdyHtL6orYPxZyRmY3rco"]}}],"blockhash":"00000c5095e542a81db174bdd610d20bab08571e9398637ca49448ffe4dc57bd","confirmations":115,"blocktime":1539481853}