{"hex":"010000004967d75b02f0014e07e712c0b56b1986b78b3e3736c84f8dee84daee6861cefdc084d9ab7c000000006a47304402200cb739a71c5767e16126cead9d8147f98aa36644f48124f9478161897c529c3b022017c299b72b5e39dfa3540feb0abfbef6922a4eb8177da820eba4d7edc892e669012103a685e30311ed2ae83a0065eb6b91b1e1661e35de6b5bc07eb56e14fc5b83dd42ffffffff1b5c201ca523fa2a740ac084cf1d258116e380e65a25bcde5d8a6ebe085d800f010000006a47304402202066c08c58a4176f275d5aa4a2d933acfdc783d045517fcb58cbdeaee2638f8e022057afa455885d8111078509ccfa21a84ca18891f8ae1d3f5ff568e1c10943e8c3012102758d1ab454c5438d07999899fbd93c564b11a99e69b71e47157ffa91689ee1d3ffffffff020d4b1700000000001976a914c36bac320e7ac76ac47d7ef7510c6d52dee15fee88accede2101000000001976a914f0869aa18706c4f96dabca6eecfd1835e5e2f58588ac00000000","txid":"49a1a0077b26627ea99afa82417828226b547014b7201a33ebbf263c973573ee","version":1,"time":1540843344,"locktime":0,"vin":[{"txid":"7cabd984c0fdce6168eeda84ee8d4fc836373e8bb786196bb5c012e7074e01f0","vout":0,"scriptSig":{"asm":"304402200cb739a71c5767e16126cead9d8147f98aa36644f48124f9478161897c529c3b022017c299b72b5e39dfa3540feb0abfbef6922a4eb8177da820eba4d7edc892e66901 03a685e30311ed2ae83a0065eb6b91b1e1661e35de6b5bc07eb56e14fc5b83dd42","hex":"47304402200cb739a71c5767e16126cead9d8147f98aa36644f48124f9478161897c529c3b022017c299b72b5e39dfa3540feb0abfbef6922a4eb8177da820eba4d7edc892e669012103a685e30311ed2ae83a0065eb6b91b1e1661e35de6b5bc07eb56e14fc5b83dd42"},"sequence":4294967295},{"txid":"0f805d08be6e8a5ddebc255ae680e31681251dcf84c00a742afa23a51c205c1b","vout":1,"scriptSig":{"asm":"304402202066c08c58a4176f275d5aa4a2d933acfdc783d045517fcb58cbdeaee2638f8e022057afa455885d8111078509ccfa21a84ca18891f8ae1d3f5ff568e1c10943e8c301 02758d1ab454c5438d07999899fbd93c564b11a99e69b71e47157ffa91689ee1d3","hex":"47304402202066c08c58a4176f275d5aa4a2d933acfdc783d045517fcb58cbdeaee2638f8e022057afa455885d8111078509ccfa21a84ca18891f8ae1d3f5ff568e1c10943e8c3012102758d1ab454c5438d07999899fbd93c564b11a99e69b71e47157ffa91689ee1d3"},"sequence":4294967295}],"vout":[{"value":0.01526541,"n":0,"scriptPubKey":{"asm":"OP_DUP OP_HASH160 c36bac320e7ac76ac47d7ef7510c6d52dee15fee OP_EQUALVERIFY OP_CHECKSIG","reqSigs":1,"type":"pubkeyhash","addresses":["pPMrxLbDvaNuDuLWvzDYdufFDqwMXZd2B6"]}},{"value":0.18996942,"n":1,"scriptPubKey":{"asm":"OP_DUP OP_HASH160 f0869aa18706c4f96dabca6eecfd1835e5e2f585 OP_EQUALVERIFY OP_CHECKSIG","reqSigs":1,"type":"pubkeyhash","addresses":["pTUMdCMfuuoG1NLKBJ4wEKMkG8cToZnKyh"]}}],"blockhash":"31cb5961d0c6d0fb36bf096c99d7503287f73ce46946efb3101c11015a02bc31","confirmations":176,"blocktime":1540843344}