{"hex":"010000005067d75b01c4a84efde058d71a1696fa179e022a6580ce5f7e8696c0ea4bce8a36ea7985dd0200000049483045022100b61eb9873e716841b399b91e9b98961f2d12399cfe208c77071dea97aae3dcde022057d71a5149c13133408a6a347701a95090f7d0c8f9849c77d6efbda1e1a409ba01ffffffff0400000000000000000000a2941a1d000000232102c70f997963ce3f3ea88266ee3e0c833058cd21ae02eae02cd993b9664c686d89acba0e951a1d000000232102c70f997963ce3f3ea88266ee3e0c833058cd21ae02eae02cd993b9664c686d89ac123f0000000000001976a9140c2d1eddba56317fb81d41241b8f40bbca7b5b5488ac00000000","txid":"40208aa1a1adef9562280770c187abd30af57450899c22ee1801dc0dcf1bd6b1","version":1,"time":1540843344,"locktime":0,"vin":[{"txid":"dd8579ea368ace4beac096867e5fce80652a029e17fa96161ad758e0fd4ea8c4","vout":2,"scriptSig":{"asm":"3045022100b61eb9873e716841b399b91e9b98961f2d12399cfe208c77071dea97aae3dcde022057d71a5149c13133408a6a347701a95090f7d0c8f9849c77d6efbda1e1a409ba01","hex":"483045022100b61eb9873e716841b399b91e9b98961f2d12399cfe208c77071dea97aae3dcde022057d71a5149c13133408a6a347701a95090f7d0c8f9849c77d6efbda1e1a409ba01"},"sequence":4294967295}],"vout":[{"value":0,"n":0,"scriptPubKey":{"asm":"","type":"nonstandard"}},{"value":1250,"n":1,"scriptPubKey":{"asm":"02c70f997963ce3f3ea88266ee3e0c833058cd21ae02eae02cd993b9664c686d89 OP_CHECKSIG","reqSigs":1,"type":"pubkey","addresses":["pTQJsZTT2bpmhnKWdT3rdczVS5MaBuXxyB"]}},{"value":1250.00027834,"n":2,"scriptPubKey":{"asm":"02c70f997963ce3f3ea88266ee3e0c833058cd21ae02eae02cd993b9664c686d89 OP_CHECKSIG","reqSigs":1,"type":"pubkey","addresses":["pTQJsZTT2bpmhnKWdT3rdczVS5MaBuXxyB"]}},{"value":0.00016146,"n":3,"scriptPubKey":{"asm":"OP_DUP OP_HASH160 0c2d1eddba56317fb81d41241b8f40bbca7b5b54 OP_EQUALVERIFY OP_CHECKSIG","reqSigs":1,"type":"pubkeyhash","addresses":["p6exN3FuZmZyQ7WNzLf7AweTLuHqDvcERN"]}}],"blockhash":"31cb5961d0c6d0fb36bf096c99d7503287f73ce46946efb3101c11015a02bc31","confirmations":176,"blocktime":1540843344}