{"hex":"01000000605dd85b01aa83a35a385204682941fb1c6a979790a7a26584b4f22b8d70119f6761e5eca2010000004847304402206eae84835449e49e859dc55b1ba1933eb8c1859e7adbebbdfdb3967dd76ef36b02202bfc88bced8eed8b97d8c27ccbb2799cb07dc87ff77ec0e775295f4291b77a8701ffffffff03000000000000000000af2f6cd3010000002321020b1cd26fc4b9f080aea1cf7b667efd5e8453f70429056589831fa7f63506ddbfac07520400000000001976a91494663191b35c746d9b53200027af769cfd8a5ec588ac00000000","txid":"0eed813602d53baa477f136558802b2e4000542adf80db5e08fa3da85aa120bd","version":1,"time":1540906336,"locktime":0,"vin":[{"txid":"a2ece561679f11708d2bf2b48465a2a79097976a1cfb4129680452385aa383aa","vout":1,"scriptSig":{"asm":"304402206eae84835449e49e859dc55b1ba1933eb8c1859e7adbebbdfdb3967dd76ef36b02202bfc88bced8eed8b97d8c27ccbb2799cb07dc87ff77ec0e775295f4291b77a8701","hex":"47304402206eae84835449e49e859dc55b1ba1933eb8c1859e7adbebbdfdb3967dd76ef36b02202bfc88bced8eed8b97d8c27ccbb2799cb07dc87ff77ec0e775295f4291b77a8701"},"sequence":4294967295}],"vout":[{"value":0,"n":0,"scriptPubKey":{"asm":"","type":"nonstandard"}},{"value":78.42049967,"n":1,"scriptPubKey":{"asm":"020b1cd26fc4b9f080aea1cf7b667efd5e8453f70429056589831fa7f63506ddbf OP_CHECKSIG","reqSigs":1,"type":"pubkey","addresses":["pECTDpfW4nW8hYte3f3F9ZQxwgWmBwmcYL"]}},{"value":0.00283143,"n":2,"scriptPubKey":{"asm":"OP_DUP OP_HASH160 94663191b35c746d9b53200027af769cfd8a5ec5 OP_EQUALVERIFY OP_CHECKSIG","reqSigs":1,"type":"pubkeyhash","addresses":["pK5Eddk3vr4yi7hrwuoQfuFmrHAeSuez22"]}}],"blockhash":"9e889abaebdf06eb2f5f15104324b773fbda2dacd54bba294c1799e6e3b19dba","confirmations":168,"blocktime":1540906336}