{"hex":"01000000515dd85b01d77e81a8181e62061722016e94d0b0394c508f1947eebf70c38e23ae23121bfe010000006a4730440220566568297b9647b87c34a05b6aea627d4de4ca063242b5d4fbfc9aad2e9b722d02204c672324d139a1a3c60106fa3db0f67f3678481ef7cd90d70c2baa1b5e2350e80121037369f582770a3b861e80af97990f5f5cd5b3dbf235f02cca484f32ec6c9056e8ffffffff024a74c502000000001976a914a06fb79a3a5c8e48402169e08d8d8a370f0b552988ac8ededa13000000001976a914135e8b6ca2d26dfceb7705a4503bb0941f01ab9788ac00000000","txid":"9a35aa99e3fc91bc6fbb38c333e695d5bc38baadbb14505a7b05c5fa05a1ac0d","version":1,"time":1540906336,"locktime":0,"vin":[{"txid":"fe1b1223ae238ec370bfee47198f504c39b0d0946e01221706621e18a8817ed7","vout":1,"scriptSig":{"asm":"30440220566568297b9647b87c34a05b6aea627d4de4ca063242b5d4fbfc9aad2e9b722d02204c672324d139a1a3c60106fa3db0f67f3678481ef7cd90d70c2baa1b5e2350e801 037369f582770a3b861e80af97990f5f5cd5b3dbf235f02cca484f32ec6c9056e8","hex":"4730440220566568297b9647b87c34a05b6aea627d4de4ca063242b5d4fbfc9aad2e9b722d02204c672324d139a1a3c60106fa3db0f67f3678481ef7cd90d70c2baa1b5e2350e80121037369f582770a3b861e80af97990f5f5cd5b3dbf235f02cca484f32ec6c9056e8"},"sequence":4294967295}],"vout":[{"value":0.46494794,"n":0,"scriptPubKey":{"asm":"OP_DUP OP_HASH160 a06fb79a3a5c8e48402169e08d8d8a370f0b5529 OP_EQUALVERIFY OP_CHECKSIG","reqSigs":1,"type":"pubkeyhash","addresses":["pLAt9ePCfiji15eLb7ywRgxWgX64CLyLk8"]}},{"value":3.33110926,"n":1,"scriptPubKey":{"asm":"OP_DUP OP_HASH160 135e8b6ca2d26dfceb7705a4503bb0941f01ab97 OP_EQUALVERIFY OP_CHECKSIG","reqSigs":1,"type":"pubkeyhash","addresses":["p7JzJRfkgyhaUjDAdBTeNJtv8iDD1vVGpP"]}}],"blockhash":"9e889abaebdf06eb2f5f15104324b773fbda2dacd54bba294c1799e6e3b19dba","confirmations":168,"blocktime":1540906336}