{"hex":"01000000d0b9d65b01b7cf05fd9b0734c28f018be813a31f6387a4b1ed6e8f35d4080de61bb2f539ec01000000484730440220090a5aeb43b7f818c2d4b237ccb8fa39f2654616a71a740f68c27e25afd8cd510220527c96834650f4c64ac248f238ef6e94115d8453ae717d6cef1e5c7585af613c01ffffffff03000000000000000000f0f2a3d1010000002321020b1cd26fc4b9f080aea1cf7b667efd5e8453f70429056589831fa7f63506ddbfac50f80c00000000001976a914b9f3d781f7d99f65d068998a288759e0a638d31288ac00000000","txid":"2cfd31987ee6a98607ece372750258175144f34f40dfe620e9e1cab16f98bfea","version":1,"time":1540798928,"locktime":0,"vin":[{"txid":"ec39f5b21be60d08d4358f6eedb1a487631fa313e88b018fc234079bfd05cfb7","vout":1,"scriptSig":{"asm":"30440220090a5aeb43b7f818c2d4b237ccb8fa39f2654616a71a740f68c27e25afd8cd510220527c96834650f4c64ac248f238ef6e94115d8453ae717d6cef1e5c7585af613c01","hex":"4730440220090a5aeb43b7f818c2d4b237ccb8fa39f2654616a71a740f68c27e25afd8cd510220527c96834650f4c64ac248f238ef6e94115d8453ae717d6cef1e5c7585af613c01"},"sequence":4294967295}],"vout":[{"value":0,"n":0,"scriptPubKey":{"asm":"","type":"nonstandard"}},{"value":78.1215,"n":1,"scriptPubKey":{"asm":"020b1cd26fc4b9f080aea1cf7b667efd5e8453f70429056589831fa7f63506ddbf OP_CHECKSIG","reqSigs":1,"type":"pubkey","addresses":["pECTDpfW4nW8hYte3f3F9ZQxwgWmBwmcYL"]}},{"value":0.0085,"n":2,"scriptPubKey":{"asm":"OP_DUP OP_HASH160 b9f3d781f7d99f65d068998a288759e0a638d312 OP_EQUALVERIFY OP_CHECKSIG","reqSigs":1,"type":"pubkeyhash","addresses":["pNVoKczQ6P92yawDZejgg9H8khMTR2Sf2j"]}}],"blockhash":"95ee328d826553e498f10954f8f0139b69eb15d49cf087e01e73d162f8ab96fb","confirmations":229,"blocktime":1540798928}