{"hex":"01000000c7b9d65b0134f903185bfb77d641ab2e94b5b39961c40effae4929a307eaab57d3805f5fb1000000006b483045022100f8126250dfc1ee47a8f487d1f424920b3910c1b4890918261cb58ce66750c30f022029f7e7d991dd2c6deccedce79102d2390bd8bd449fe7fa7122806733cb32e311012103424be17fc33c5e5c44ab445c372cdf33b4ec9a8cb0e11105a73978edf58ab4d3ffffffff0240e198cb885c1c001976a91421825c4377caba4069ef3166a1dede65b00449f688ac00ca9a3b000000001976a9142503c5d237a2cb7faf15ea3354f6e3735a4404a588ac00000000","txid":"5f65cbf74dd006b1ba7255e8e2c5ba755c2b99909f58f33dc17ef950f50a4556","version":1,"time":1540798928,"locktime":0,"vin":[{"txid":"b15f5f80d357abea07a32949aeff0ec46199b3b5942eab41d677fb5b1803f934","vout":0,"scriptSig":{"asm":"3045022100f8126250dfc1ee47a8f487d1f424920b3910c1b4890918261cb58ce66750c30f022029f7e7d991dd2c6deccedce79102d2390bd8bd449fe7fa7122806733cb32e31101 03424be17fc33c5e5c44ab445c372cdf33b4ec9a8cb0e11105a73978edf58ab4d3","hex":"483045022100f8126250dfc1ee47a8f487d1f424920b3910c1b4890918261cb58ce66750c30f022029f7e7d991dd2c6deccedce79102d2390bd8bd449fe7fa7122806733cb32e311012103424be17fc33c5e5c44ab445c372cdf33b4ec9a8cb0e11105a73978edf58ab4d3"},"sequence":4294967295}],"vout":[{"value":79830419.49,"n":0,"scriptPubKey":{"asm":"OP_DUP OP_HASH160 21825c4377caba4069ef3166a1dede65b00449f6 OP_EQUALVERIFY OP_CHECKSIG","reqSigs":1,"type":"pubkeyhash","addresses":["p8bkfdpZF4ZssWWVNh3E3zx8cccyRjL2rs"]}},{"value":10,"n":1,"scriptPubKey":{"asm":"OP_DUP OP_HASH160 2503c5d237a2cb7faf15ea3354f6e3735a4404a5 OP_EQUALVERIFY OP_CHECKSIG","reqSigs":1,"type":"pubkeyhash","addresses":["p8vHiwLu79vnQZwEEGQtAYMDoy8XA8T5no"]}}],"blockhash":"95ee328d826553e498f10954f8f0139b69eb15d49cf087e01e73d162f8ab96fb","confirmations":229,"blocktime":1540798928}