{"hex":"01000000a037d65b0122ed3e4b5d623c7b1b84f0d215daf6b5a844f9a2374754502025b88d9e978ed1010000004948304502210097fee9de8c5d09951dfe6ca0da1a71c075b7a1149d9785f42415cf15e3cd9a7c02206b919de66d602ebf457d82b5b9fb299a3c52a67177cc9a6c1eaf4c6f952bf6ce01ffffffff0400000000000000000000a9a1d1010000002321020b1cd26fc4b9f080aea1cf7b667efd5e8453f70429056589831fa7f63506ddbfacb9f4b0d1010000002321020b1cd26fc4b9f080aea1cf7b667efd5e8453f70429056589831fa7f63506ddbfacad350000000000001976a9141992ad5700ade9422585b3e7af7cd994d29d4ca888ac00000000","txid":"51fd5f8c313115a92520b28fd1d4b3b03a02164cfa69befdd87b3f503bd494e1","version":1,"time":1540765600,"locktime":0,"vin":[{"txid":"d18e979e8db8252050544737a2f944a8b5f6da15d2f0841b7b3c625d4b3eed22","vout":1,"scriptSig":{"asm":"304502210097fee9de8c5d09951dfe6ca0da1a71c075b7a1149d9785f42415cf15e3cd9a7c02206b919de66d602ebf457d82b5b9fb299a3c52a67177cc9a6c1eaf4c6f952bf6ce01","hex":"48304502210097fee9de8c5d09951dfe6ca0da1a71c075b7a1149d9785f42415cf15e3cd9a7c02206b919de66d602ebf457d82b5b9fb299a3c52a67177cc9a6c1eaf4c6f952bf6ce01"},"sequence":4294967295}],"vout":[{"value":0,"n":0,"scriptPubKey":{"asm":"","type":"nonstandard"}},{"value":78.12,"n":1,"scriptPubKey":{"asm":"020b1cd26fc4b9f080aea1cf7b667efd5e8453f70429056589831fa7f63506ddbf OP_CHECKSIG","reqSigs":1,"type":"pubkey","addresses":["pECTDpfW4nW8hYte3f3F9ZQxwgWmBwmcYL"]}},{"value":78.13002425,"n":2,"scriptPubKey":{"asm":"020b1cd26fc4b9f080aea1cf7b667efd5e8453f70429056589831fa7f63506ddbf OP_CHECKSIG","reqSigs":1,"type":"pubkey","addresses":["pECTDpfW4nW8hYte3f3F9ZQxwgWmBwmcYL"]}},{"value":0.00013741,"n":3,"scriptPubKey":{"asm":"OP_DUP OP_HASH160 1992ad5700ade9422585b3e7af7cd994d29d4ca8 OP_EQUALVERIFY OP_CHECKSIG","reqSigs":1,"type":"pubkeyhash","addresses":["p7snoofvhm9cmcDcAmpbzCVHFFEt2fdccj"]}}],"blockhash":"0ad4a0f39751220219a90e14f56a3ff3b606735f2c613a03541d862422ce05ed","confirmations":261,"blocktime":1540765600}