{"hex":"010000009f37d65b02f5a5907995404864b7fe048577a896ee769f22becfb93a1b556e811e666149f1010000006b483045022100edd4b47a8af5a194823409e3556779726174bebad1125da37695285c97e159b102200652a42300137767dfa46b37a27a9349e45d1bf4ed95561e256b021cfb8250870121030005ba3d43eb33f845883af925a247e4e057ba38d59775460a0110615b99e88dffffffff1cc6f9bb7e1b9ae8db95dfd0b3f5ac5511ebd995fac570d5b21c1932f36e7058010000006a47304402201e6150534733724c1b7f7aa881635b48b4bde4c469b040483126261f33c7aa2a02202fba56407616326c5eed271483e3e11d9563420a579df2533aa6b69a74493dfe01210282344ff77fc7b396139db59996d5baf8df9d244e146e4c0d193bc5bb519b7eacffffffff02aba11300000000001976a9147497242bd11fe2ede7052da7044e209675fb284388ac50b0f600000000001976a9140668351cf102a0a8e790ac0edcf1f7dc5a19005c88ac00000000","txid":"eace6e780ec37dc9cdba4cacb90d7e3739faee9d26c14cc303b70678e39841ec","version":1,"time":1540765600,"locktime":0,"vin":[{"txid":"f14961661e816e551b3ab9cfbe229f76ee96a8778504feb7644840957990a5f5","vout":1,"scriptSig":{"asm":"3045022100edd4b47a8af5a194823409e3556779726174bebad1125da37695285c97e159b102200652a42300137767dfa46b37a27a9349e45d1bf4ed95561e256b021cfb82508701 030005ba3d43eb33f845883af925a247e4e057ba38d59775460a0110615b99e88d","hex":"483045022100edd4b47a8af5a194823409e3556779726174bebad1125da37695285c97e159b102200652a42300137767dfa46b37a27a9349e45d1bf4ed95561e256b021cfb8250870121030005ba3d43eb33f845883af925a247e4e057ba38d59775460a0110615b99e88d"},"sequence":4294967295},{"txid":"58706ef332191cb2d570c5fa95d9eb1155acf5b3d0df95dbe89a1b7ebbf9c61c","vout":1,"scriptSig":{"asm":"304402201e6150534733724c1b7f7aa881635b48b4bde4c469b040483126261f33c7aa2a02202fba56407616326c5eed271483e3e11d9563420a579df2533aa6b69a74493dfe01 0282344ff77fc7b396139db59996d5baf8df9d244e146e4c0d193bc5bb519b7eac","hex":"47304402201e6150534733724c1b7f7aa881635b48b4bde4c469b040483126261f33c7aa2a02202fba56407616326c5eed271483e3e11d9563420a579df2533aa6b69a74493dfe01210282344ff77fc7b396139db59996d5baf8df9d244e146e4c0d193bc5bb519b7eac"},"sequence":4294967295}],"vout":[{"value":0.01286571,"n":0,"scriptPubKey":{"asm":"OP_DUP OP_HASH160 7497242bd11fe2ede7052da7044e209675fb2843 OP_EQUALVERIFY OP_CHECKSIG","reqSigs":1,"type":"pubkeyhash","addresses":["pGB3eSREqWQ2X4XJ3unYx2935biwBNUdc2"]}},{"value":0.16166992,"n":1,"scriptPubKey":{"asm":"OP_DUP OP_HASH160 0668351cf102a0a8e790ac0edcf1f7dc5a19005c OP_EQUALVERIFY OP_CHECKSIG","reqSigs":1,"type":"pubkeyhash","addresses":["p68T6KSHEsi3FUdHyA6vWRdVeZuCFKqicW"]}}],"blockhash":"0ad4a0f39751220219a90e14f56a3ff3b606735f2c613a03541d862422ce05ed","confirmations":261,"blocktime":1540765600}