{"hex":"010000005a9ec25b010000000000000000000000000000000000000000000000000000000000000000ffffffff035f0102ffffffff0100000000000000001976a9144ca1956284a8d828d14a88723096c5973919dd2b88ac00000000","txid":"5fc310719831d9ebc7ab83be831996f3991a8ed099e41e249552ffd537391987","version":1,"time":1539481181,"locktime":0,"vin":[{"coinbase":"5f0102","sequence":4294967295}],"vout":[{"value":0,"n":0,"scriptPubKey":{"asm":"OP_DUP OP_HASH160 4ca1956284a8d828d14a88723096c5973919dd2b OP_EQUALVERIFY OP_CHECKSIG","reqSigs":1,"type":"pubkeyhash","addresses":["pCXm8JfpKeboQrbpnLJ6bC7H2sjuCm5rup"]}}],"blockhash":"0000009c9a225038850858ff27cbd9bcf03f059bcfc7d5952d1fb8273e769dba","confirmations":430,"blocktime":1539481181}