{"hex":"0100000000edd45b01decb2a7f6fe76b64bcddd08ac4b72ae68c570f353986747d6ef708da69cae897010000004847304402202644ff8245d97eece64b693367930ab166fde87ebfa3bf57c77faf3ec77934410220645fd095c22faff8d2f74f8eff1715795fbabe78298bb5a40a04cea8e153a25b01ffffffff040000000000000000008028a546070000002321020b1cd26fc4b9f080aea1cf7b667efd5e8453f70429056589831fa7f63506ddbfac8f28a546070000002321020b1cd26fc4b9f080aea1cf7b667efd5e8453f70429056589831fa7f63506ddbfac55000000000000001976a914b9f3d781f7d99f65d068998a288759e0a638d31288ac00000000","txid":"291438f114e17d776135c468f795b63c2b42ceb884dd057a766b41b294822ad1","version":1,"time":1540680960,"locktime":0,"vin":[{"txid":"97e8ca69da08f76e7d748639350f578ce62ab7c48ad0ddbc646be76f7f2acbde","vout":1,"scriptSig":{"asm":"304402202644ff8245d97eece64b693367930ab166fde87ebfa3bf57c77faf3ec77934410220645fd095c22faff8d2f74f8eff1715795fbabe78298bb5a40a04cea8e153a25b01","hex":"47304402202644ff8245d97eece64b693367930ab166fde87ebfa3bf57c77faf3ec77934410220645fd095c22faff8d2f74f8eff1715795fbabe78298bb5a40a04cea8e153a25b01"},"sequence":4294967295}],"vout":[{"value":0,"n":0,"scriptPubKey":{"asm":"","type":"nonstandard"}},{"value":312.5,"n":1,"scriptPubKey":{"asm":"020b1cd26fc4b9f080aea1cf7b667efd5e8453f70429056589831fa7f63506ddbf OP_CHECKSIG","reqSigs":1,"type":"pubkey","addresses":["pECTDpfW4nW8hYte3f3F9ZQxwgWmBwmcYL"]}},{"value":312.50000015,"n":2,"scriptPubKey":{"asm":"020b1cd26fc4b9f080aea1cf7b667efd5e8453f70429056589831fa7f63506ddbf OP_CHECKSIG","reqSigs":1,"type":"pubkey","addresses":["pECTDpfW4nW8hYte3f3F9ZQxwgWmBwmcYL"]}},{"value":8.5e-7,"n":3,"scriptPubKey":{"asm":"OP_DUP OP_HASH160 b9f3d781f7d99f65d068998a288759e0a638d312 OP_EQUALVERIFY OP_CHECKSIG","reqSigs":1,"type":"pubkeyhash","addresses":["pNVoKczQ6P92yawDZejgg9H8khMTR2Sf2j"]}}],"blockhash":"fa33a5b9eecc939b0b94b525892df1fa12d011c4ac9e40c1c713b61af674ebde","confirmations":274,"blocktime":1540680960}