{"hex":"01000000f9ecd45b01516c29cec6fbf00f6010df98205da04743cafeb5e3e96d3320e626287ed5d36e000000006b483045022100b9b1d1d9d6b14b7567859d15488df264a58e24066c9ae3ce780a9e29a7cd34690220206950a017f9d20f587e46650aa7d9d411e72128ded3f242f68449b6fc5ded8001210263f46ed0a8ce44a7d6ba4a1b819d4b41303b2881093146d28cb6ecb8fca517f8ffffffff029d421b00000000001976a914e599e5e91013440d5491110b3fb6499f3b8fae2b88aca0860100000000001976a9144096e7fc0812b091315c472b680ccd07686b0bde88ac00000000","txid":"eedac6e9e4eb9b8f2b3cffb68b0a63a37251f9919ea9c2e9f725477f07a9ea92","version":1,"time":1540680960,"locktime":0,"vin":[{"txid":"6ed3d57e2826e620336de9e3b5feca4347a05d2098df10600ff0fbc6ce296c51","vout":0,"scriptSig":{"asm":"3045022100b9b1d1d9d6b14b7567859d15488df264a58e24066c9ae3ce780a9e29a7cd34690220206950a017f9d20f587e46650aa7d9d411e72128ded3f242f68449b6fc5ded8001 0263f46ed0a8ce44a7d6ba4a1b819d4b41303b2881093146d28cb6ecb8fca517f8","hex":"483045022100b9b1d1d9d6b14b7567859d15488df264a58e24066c9ae3ce780a9e29a7cd34690220206950a017f9d20f587e46650aa7d9d411e72128ded3f242f68449b6fc5ded8001210263f46ed0a8ce44a7d6ba4a1b819d4b41303b2881093146d28cb6ecb8fca517f8"},"sequence":4294967295}],"vout":[{"value":0.01786525,"n":0,"scriptPubKey":{"asm":"OP_DUP OP_HASH160 e599e5e91013440d5491110b3fb6499f3b8fae2b OP_EQUALVERIFY OP_CHECKSIG","reqSigs":1,"type":"pubkeyhash","addresses":["pSUbJfJqrKF6WYSMwLxophscjdXiXLYTYs"]}},{"value":0.001,"n":1,"scriptPubKey":{"asm":"OP_DUP OP_HASH160 4096e7fc0812b091315c472b680ccd07686b0bde OP_EQUALVERIFY OP_CHECKSIG","reqSigs":1,"type":"pubkeyhash","addresses":["pBS6E8Qhiibdi9hG31vjg6TTKrYusC17pQ"]}}],"blockhash":"fa33a5b9eecc939b0b94b525892df1fa12d011c4ac9e40c1c713b61af674ebde","confirmations":274,"blocktime":1540680960}