{"hex":"010000001aa1c25b010000000000000000000000000000000000000000000000000000000000000000ffffffff0401300103ffffffff0100000000000000001976a914116cffd0bbb4ab0855a8c817be8a48d2091e1ecf88ac00000000","txid":"0594a778298203046dc68986228f01ebc25fb570ab2ffbb27452f826558fa989","version":1,"time":1539481887,"locktime":0,"vin":[{"coinbase":"01300103","sequence":4294967295}],"vout":[{"value":0,"n":0,"scriptPubKey":{"asm":"OP_DUP OP_HASH160 116cffd0bbb4ab0855a8c817be8a48d2091e1ecf OP_EQUALVERIFY OP_CHECKSIG","reqSigs":1,"type":"pubkeyhash","addresses":["p78iGNNepzpjbHDoUiiAnjivayxz8j7r58"]}}],"blockhash":"00000445204a6c10552c65b48121be2d8dab1a73754b62d1501e22d368b989ca","confirmations":397,"blocktime":1539481887}