{"hex":"0100000016a2c25b010000000000000000000000000000000000000000000000000000000000000000ffffffff04014c0101ffffffff0100000000000000001976a914a72bcb0bc7fc5482751bee4f33ee9b274c26e8d788ac00000000","txid":"189f32a3e2186aea32eaae5e989d6fc86970c17d7e6fa0d69c24bf8e8b304adf","version":1,"time":1539482134,"locktime":0,"vin":[{"coinbase":"014c0101","sequence":4294967295}],"vout":[{"value":0,"n":0,"scriptPubKey":{"asm":"OP_DUP OP_HASH160 a72bcb0bc7fc5482751bee4f33ee9b274c26e8d7 OP_EQUALVERIFY OP_CHECKSIG","reqSigs":1,"type":"pubkeyhash","addresses":["pLnVWYRKUu8GaSYHSAoGSWjZihAeZfZrck"]}}],"blockhash":"00000cfa858874dfb0d71238de6b5ff33edefbcbda0cb77b8cd0054759f92bd5","confirmations":83,"blocktime":1539482134}