{"hex":"01000000ef39db5b0209eb1ecef715d6a2e0842c2a5e85349d2abc701b1469fcab7ecaf07bb5843b2e010000006b483045022100b23ad0022e5cd8069b9987531c159c9aa1ebe6b5444a5b2e15265865a9d4d3d102204ef4cfeaa086d7626b595890d28634d862ab81a4f150a9985e986e5823358be6012103298cd9bf0f6d8c247c077e1e51392d4f20aeef057ad0014dea5d9ef8cd1812adffffffffd250190769b0765860a6ee4fa3e84e6673141dcfeb2783c2aedba50d91b4a882010000006a473044022021e27b8b6c70d57f63a5881ea26708046905a727cf73ab07914e0e64cae5637d02204a0ebdff87632e693d9afc1fa642376edbbe4ea4957d71d94529781b73dd9ed00121026f40de25d400b5f7576e800e205cd97ceba396a545e48fdf5c4a666dc6116ec9ffffffff021d773a03000000001976a9144adffcc1e76027b2ac78d2327531d8c01aa34ad288ac6308dd1f000000001976a914d0ec947c1a01df5dfcc5e56a9c7959afe616bcd888ac00000000","txid":"29c1aec250e5c86624624cf7779cab9b2b27fabcd3a928ec6a35c8021b925c2c","version":1,"time":1541093872,"locktime":0,"vin":[{"txid":"2e3b84b57bf0ca7eabfc69141b70bc2a9d34855e2a2c84e0a2d615f7ce1eeb09","vout":1,"scriptSig":{"asm":"3045022100b23ad0022e5cd8069b9987531c159c9aa1ebe6b5444a5b2e15265865a9d4d3d102204ef4cfeaa086d7626b595890d28634d862ab81a4f150a9985e986e5823358be601 03298cd9bf0f6d8c247c077e1e51392d4f20aeef057ad0014dea5d9ef8cd1812ad","hex":"483045022100b23ad0022e5cd8069b9987531c159c9aa1ebe6b5444a5b2e15265865a9d4d3d102204ef4cfeaa086d7626b595890d28634d862ab81a4f150a9985e986e5823358be6012103298cd9bf0f6d8c247c077e1e51392d4f20aeef057ad0014dea5d9ef8cd1812ad"},"sequence":4294967295},{"txid":"82a8b4910da5dbaec28327ebcf1d1473664ee8a34feea6605876b069071950d2","vout":1,"scriptSig":{"asm":"3044022021e27b8b6c70d57f63a5881ea26708046905a727cf73ab07914e0e64cae5637d02204a0ebdff87632e693d9afc1fa642376edbbe4ea4957d71d94529781b73dd9ed001 026f40de25d400b5f7576e800e205cd97ceba396a545e48fdf5c4a666dc6116ec9","hex":"473044022021e27b8b6c70d57f63a5881ea26708046905a727cf73ab07914e0e64cae5637d02204a0ebdff87632e693d9afc1fa642376edbbe4ea4957d71d94529781b73dd9ed00121026f40de25d400b5f7576e800e205cd97ceba396a545e48fdf5c4a666dc6116ec9"},"sequence":4294967295}],"vout":[{"value":0.54163229,"n":0,"scriptPubKey":{"asm":"OP_DUP OP_HASH160 4adffcc1e76027b2ac78d2327531d8c01aa34ad2 OP_EQUALVERIFY OP_CHECKSIG","reqSigs":1,"type":"pubkeyhash","addresses":["pCNUXp9p5bE9QXJDRndF4eLfYHH7iDwGHE"]}},{"value":5.34579299,"n":1,"scriptPubKey":{"asm":"OP_DUP OP_HASH160 d0ec947c1a01df5dfcc5e56a9c7959afe616bcd8 OP_EQUALVERIFY OP_CHECKSIG","reqSigs":1,"type":"pubkeyhash","addresses":["pQbGAUTGgUAcRBQdE9efjdWLV8KD4dnGHp"]}}],"blockhash":"135af63126fc0d99b4816cd09a2b1c067c802f2593f80429e19a0dba81e4a30b","confirmations":88,"blocktime":1541093872}