{"hex":"01000000f039db5b014168c61d38124fda105710817bc3b50e536e5a180047d5d7d402a876e9b7d1c60200000048473044022020f33260edc26a42e417b10520de6dc94ba7dfc32e588b4bccfec88b237eecd602206740ad28172c9fd052d8dc65f6b32912b5514d53b00fd6161db98d5714080f7301ffffffff030000000000000000008725b2d1010000002321020b1cd26fc4b9f080aea1cf7b667efd5e8453f70429056589831fa7f63506ddbfacf8ee0600000000001976a9140f0458597355a9fb43189a18c91b2668213960f888ac00000000","txid":"8dff643eb6fd63a7c074fbaea77c7ebfa39086ed94c93391f2801f41279a3423","version":1,"time":1541093872,"locktime":0,"vin":[{"txid":"c6d1b7e976a802d4d7d54700185a6e530eb5c37b81105710da4f12381dc66841","vout":2,"scriptSig":{"asm":"3044022020f33260edc26a42e417b10520de6dc94ba7dfc32e588b4bccfec88b237eecd602206740ad28172c9fd052d8dc65f6b32912b5514d53b00fd6161db98d5714080f7301","hex":"473044022020f33260edc26a42e417b10520de6dc94ba7dfc32e588b4bccfec88b237eecd602206740ad28172c9fd052d8dc65f6b32912b5514d53b00fd6161db98d5714080f7301"},"sequence":4294967295}],"vout":[{"value":0,"n":0,"scriptPubKey":{"asm":"","type":"nonstandard"}},{"value":78.13080455,"n":1,"scriptPubKey":{"asm":"020b1cd26fc4b9f080aea1cf7b667efd5e8453f70429056589831fa7f63506ddbf OP_CHECKSIG","reqSigs":1,"type":"pubkey","addresses":["pECTDpfW4nW8hYte3f3F9ZQxwgWmBwmcYL"]}},{"value":0.00454392,"n":2,"scriptPubKey":{"asm":"OP_DUP OP_HASH160 0f0458597355a9fb43189a18c91b2668213960f8 OP_EQUALVERIFY OP_CHECKSIG","reqSigs":1,"type":"pubkeyhash","addresses":["p6uyYVC7Ty7S1UZtPQtetPMTXYoKf6M8dh"]}}],"blockhash":"135af63126fc0d99b4816cd09a2b1c067c802f2593f80429e19a0dba81e4a30b","confirmations":88,"blocktime":1541093872}