{"hex":"01000000faa8d45b0326c11b7c142973acc3c69b71e07dcdae1c62e4d3915d3354a47ad46f041ec1bc000000006b48304502210095ae0a345badb3e686a0867282e7a77c43bff85088a51e81c21f451e4781ebf002207fd040301c8a8cad76857eb9d6aaf8e75fbffd85b68afad54c5bd440af32867a0121029e857134122939a57279b02312e296a02bcf0cf876ddc541bd372450215dbeacffffffff4f32b73c4f0627c087fc3cb236f83d4dcfa8aefbdfaeabe30fe10e89a0880b5f000000006a4730440220164e3ab06470c359d9ac5d8ddb5b4fdc9e7093ddc1251bc7f35604fcf6e9b9c1022004250f48381dff8f2f3b5f4cdccd14abfca83052196403155f1eb755e7bc173d0121029e857134122939a57279b02312e296a02bcf0cf876ddc541bd372450215dbeacffffffffb3a0aeaa131779188a364380c005c5e6dfe24ce673e432797b4f0e9fc2b80276010000006b483045022100883f95dded43e6f3a4ae375d0b3dff5306d52ac53cea6e1f6dd8d44319332a320220649ae968c326aa2bef0c461178677aa2505f0eecb23cf17ee905306aeb86bfc2012102dbd678393e2c7c8f98a19475e9f607fb4441bbc450a219f4c119754cbcd395e6ffffffff023e5b1000000000001976a9144c28ee798243702bc4500cdb4da9004130bb47f688acde661400000000001976a914a9a0510293a3aef60e3c1ca7ede05e8f68c2a49088ac00000000","txid":"9761623fbe52aac851972a76d91f7456ec4afdff1036cb643ed3091469689c80","version":1,"time":1540663552,"locktime":0,"vin":[{"txid":"bcc11e046fd47aa454335d91d3e4621caecd7de0719bc6c3ac7329147c1bc126","vout":0,"scriptSig":{"asm":"304502210095ae0a345badb3e686a0867282e7a77c43bff85088a51e81c21f451e4781ebf002207fd040301c8a8cad76857eb9d6aaf8e75fbffd85b68afad54c5bd440af32867a01 029e857134122939a57279b02312e296a02bcf0cf876ddc541bd372450215dbeac","hex":"48304502210095ae0a345badb3e686a0867282e7a77c43bff85088a51e81c21f451e4781ebf002207fd040301c8a8cad76857eb9d6aaf8e75fbffd85b68afad54c5bd440af32867a0121029e857134122939a57279b02312e296a02bcf0cf876ddc541bd372450215dbeac"},"sequence":4294967295},{"txid":"5f0b88a0890ee10fe3abaedffbaea8cf4d3df836b23cfc87c027064f3cb7324f","vout":0,"scriptSig":{"asm":"30440220164e3ab06470c359d9ac5d8ddb5b4fdc9e7093ddc1251bc7f35604fcf6e9b9c1022004250f48381dff8f2f3b5f4cdccd14abfca83052196403155f1eb755e7bc173d01 029e857134122939a57279b02312e296a02bcf0cf876ddc541bd372450215dbeac","hex":"4730440220164e3ab06470c359d9ac5d8ddb5b4fdc9e7093ddc1251bc7f35604fcf6e9b9c1022004250f48381dff8f2f3b5f4cdccd14abfca83052196403155f1eb755e7bc173d0121029e857134122939a57279b02312e296a02bcf0cf876ddc541bd372450215dbeac"},"sequence":4294967295},{"txid":"7602b8c29f0e4f7b7932e473e64ce2dfe6c505c08043368a18791713aaaea0b3","vout":1,"scriptSig":{"asm":"3045022100883f95dded43e6f3a4ae375d0b3dff5306d52ac53cea6e1f6dd8d44319332a320220649ae968c326aa2bef0c461178677aa2505f0eecb23cf17ee905306aeb86bfc201 02dbd678393e2c7c8f98a19475e9f607fb4441bbc450a219f4c119754cbcd395e6","hex":"483045022100883f95dded43e6f3a4ae375d0b3dff5306d52ac53cea6e1f6dd8d44319332a320220649ae968c326aa2bef0c461178677aa2505f0eecb23cf17ee905306aeb86bfc2012102dbd678393e2c7c8f98a19475e9f607fb4441bbc450a219f4c119754cbcd395e6"},"sequence":4294967295}],"vout":[{"value":0.01071934,"n":0,"scriptPubKey":{"asm":"OP_DUP OP_HASH160 4c28ee798243702bc4500cdb4da9004130bb47f6 OP_EQUALVERIFY OP_CHECKSIG","reqSigs":1,"type":"pubkeyhash","addresses":["pCVGbFvFLapGyskXvwfxG2ss21bRU9FqUh"]}},{"value":0.01337054,"n":1,"scriptPubKey":{"asm":"OP_DUP OP_HASH160 a9a0510293a3aef60e3c1ca7ede05e8f68c2a490 OP_EQUALVERIFY OP_CHECKSIG","reqSigs":1,"type":"pubkeyhash","addresses":["pM1UT79YQTWwcAMuCkoAJeRKZEuqbYgdnD"]}}],"blockhash":"9515c01eb9f5e4116772edebeadb31dffa4d1c5669240e56ad9d286017f26a7a","confirmations":282,"blocktime":1540663552}