{"hex":"0100000000a9d45b01ca0dffda9cc0b1a08edfda9fd9c1717b1e623857d5b5bf406cb71ee92dda3e450100000049483045022100a254da9e671b8429f2adc1c9765f05fb7666d94a067dd29397f5c3ab10a5cb3b02204c5a43bd52c68eb3d9491a6c8f9c5cd99e90c87fdea7d926083d14608bbbc7c101ffffffff0400000000000000000000a2941a1d0000002321020b1cd26fc4b9f080aea1cf7b667efd5e8453f70429056589831fa7f63506ddbfacc9a2941a1d0000002321020b1cd26fc4b9f080aea1cf7b667efd5e8453f70429056589831fa7f63506ddbfac70040000000000001976a9147a58c93fa5e34c0e7c16492ee8061977495aac7c88ac00000000","txid":"90a897289a792199b35007733c12e93d04d5f72774d33ec334c0ece39f7575a4","version":1,"time":1540663552,"locktime":0,"vin":[{"txid":"453eda2de91eb76c40bfb5d55738621e7b71c1d99fdadf8ea0b1c09cdaff0dca","vout":1,"scriptSig":{"asm":"3045022100a254da9e671b8429f2adc1c9765f05fb7666d94a067dd29397f5c3ab10a5cb3b02204c5a43bd52c68eb3d9491a6c8f9c5cd99e90c87fdea7d926083d14608bbbc7c101","hex":"483045022100a254da9e671b8429f2adc1c9765f05fb7666d94a067dd29397f5c3ab10a5cb3b02204c5a43bd52c68eb3d9491a6c8f9c5cd99e90c87fdea7d926083d14608bbbc7c101"},"sequence":4294967295}],"vout":[{"value":0,"n":0,"scriptPubKey":{"asm":"","type":"nonstandard"}},{"value":1250,"n":1,"scriptPubKey":{"asm":"020b1cd26fc4b9f080aea1cf7b667efd5e8453f70429056589831fa7f63506ddbf OP_CHECKSIG","reqSigs":1,"type":"pubkey","addresses":["pECTDpfW4nW8hYte3f3F9ZQxwgWmBwmcYL"]}},{"value":1250.00000201,"n":2,"scriptPubKey":{"asm":"020b1cd26fc4b9f080aea1cf7b667efd5e8453f70429056589831fa7f63506ddbf OP_CHECKSIG","reqSigs":1,"type":"pubkey","addresses":["pECTDpfW4nW8hYte3f3F9ZQxwgWmBwmcYL"]}},{"value":0.00001136,"n":3,"scriptPubKey":{"asm":"OP_DUP OP_HASH160 7a58c93fa5e34c0e7c16492ee8061977495aac7c OP_EQUALVERIFY OP_CHECKSIG","reqSigs":1,"type":"pubkeyhash","addresses":["pGhV15RkjbtFhS6uHd3xCvPoNUNQoDMiqz"]}}],"blockhash":"9515c01eb9f5e4116772edebeadb31dffa4d1c5669240e56ad9d286017f26a7a","confirmations":282,"blocktime":1540663552}