{"hex":"010000007343d75b015539e796012dceebd5ba0179ac01719e65b67156a65e3b0db08a10010ce503d3010000006b4830450221009670a491d904fe0634e960f2b1aea74fc60fe0021b7589a5d39b5a6eb4336ca302206c11c884d98bf02060571c0ae645a7eaa7387bd2ddaf041f3cdeee761be4b95c012102685ab6cae507a9bb2803daea15d50f5015ea9e6f970baafecc9882347cdb4cebffffffff02f940fa01000000001976a914aa7b8743630417cad58f888327a2dd46c39eca0888acd225f107000000001976a9143450e0db146c9d7fadf37bf3212b5c104c73f5ad88ac00000000","txid":"203a61ba3e5daa7b88f97d9ddb5a74d241208c73cbf520c000908e1e97633813","version":1,"time":1540834176,"locktime":0,"vin":[{"txid":"d303e50c01108ab00d3b5ea65671b6659e7101ac7901bad5ebce2d0196e73955","vout":1,"scriptSig":{"asm":"30450221009670a491d904fe0634e960f2b1aea74fc60fe0021b7589a5d39b5a6eb4336ca302206c11c884d98bf02060571c0ae645a7eaa7387bd2ddaf041f3cdeee761be4b95c01 02685ab6cae507a9bb2803daea15d50f5015ea9e6f970baafecc9882347cdb4ceb","hex":"4830450221009670a491d904fe0634e960f2b1aea74fc60fe0021b7589a5d39b5a6eb4336ca302206c11c884d98bf02060571c0ae645a7eaa7387bd2ddaf041f3cdeee761be4b95c012102685ab6cae507a9bb2803daea15d50f5015ea9e6f970baafecc9882347cdb4ceb"},"sequence":4294967295}],"vout":[{"value":0.33177849,"n":0,"scriptPubKey":{"asm":"OP_DUP OP_HASH160 aa7b8743630417cad58f888327a2dd46c39eca08 OP_EQUALVERIFY OP_CHECKSIG","reqSigs":1,"type":"pubkeyhash","addresses":["pM614DdC1uCQ7Cavbx45uMVJkaFMw24Utx"]}},{"value":1.3324437,"n":1,"scriptPubKey":{"asm":"OP_DUP OP_HASH160 3450e0db146c9d7fadf37bf3212b5c104c73f5ad OP_EQUALVERIFY OP_CHECKSIG","reqSigs":1,"type":"pubkeyhash","addresses":["pAKCECvwwUfFQJwbKj3ZcHiT8d9agGxsb6"]}}],"blockhash":"98ac771c03710848fd678c59ee1cb24da47f8b23c5fc413b3b3642d28679f1d9","confirmations":190,"blocktime":1540834176}