{"hex":"010000008043d75b019ab84c0b0e97dc24fe43c0e3323718ea76a3f0174d864bffd6dad90c45a8b19d01000000484730440220700bbdd642690ffab1433f39b9dcf544aefe05d979cc295b128e98f5f25a2f0c02205b6058031a3becf956ac21e74f876882570f6e8a4bf823a47622c9a987c6541101ffffffff03000000000000000000263ab1d1010000002321020b1cd26fc4b9f080aea1cf7b667efd5e8453f70429056589831fa7f63506ddbfac69ba0100000000001976a9140383cbf635d4aaab0b3af12f3877f122911d227188ac00000000","txid":"6707635fa1b202b963ecd90ca3deda432c314b8dcc0d7b8264251f7ce0a29f46","version":1,"time":1540834176,"locktime":0,"vin":[{"txid":"9db1a8450cd9dad6ff4b864d17f0a376ea183732e3c043fe24dc970e0b4cb89a","vout":1,"scriptSig":{"asm":"30440220700bbdd642690ffab1433f39b9dcf544aefe05d979cc295b128e98f5f25a2f0c02205b6058031a3becf956ac21e74f876882570f6e8a4bf823a47622c9a987c6541101","hex":"4730440220700bbdd642690ffab1433f39b9dcf544aefe05d979cc295b128e98f5f25a2f0c02205b6058031a3becf956ac21e74f876882570f6e8a4bf823a47622c9a987c6541101"},"sequence":4294967295}],"vout":[{"value":0,"n":0,"scriptPubKey":{"asm":"","type":"nonstandard"}},{"value":78.13020198,"n":1,"scriptPubKey":{"asm":"020b1cd26fc4b9f080aea1cf7b667efd5e8453f70429056589831fa7f63506ddbf OP_CHECKSIG","reqSigs":1,"type":"pubkey","addresses":["pECTDpfW4nW8hYte3f3F9ZQxwgWmBwmcYL"]}},{"value":0.00113257,"n":2,"scriptPubKey":{"asm":"OP_DUP OP_HASH160 0383cbf635d4aaab0b3af12f3877f122911d2271 OP_EQUALVERIFY OP_CHECKSIG","reqSigs":1,"type":"pubkeyhash","addresses":["p5sA7gHHpq5pfbFUafcJM8oF4ZCvf3vkks"]}}],"blockhash":"98ac771c03710848fd678c59ee1cb24da47f8b23c5fc413b3b3642d28679f1d9","confirmations":190,"blocktime":1540834176}