{"hex":"010000007220d75b019d1aae10f9a14505dd347b141467902d1848589d9bc3e483eb937cbb0ba18806000000006b483045022100ec56258fac36669e16c365770880baed3714a73fff58ec02c0a7d9087f13d5a9022003ea211a8700918aae020f66a624aea71d526e21a278561ed0479e2e524e8bf6012102c189b5486dc2771cc25227f9a9c2c3715814e24db8640079b8ec7b2f4874e9d6ffffffff02f2dde001000000001976a9144c28ee798243702bc4500cdb4da9004130bb47f688ac85a35106000000001976a9148c8d02e7566f181242059be165921abcff37525888ac00000000","txid":"7de1d9c85052de330ed583f5b254f2a12591c7b91e285b660811c160871ecacb","version":1,"time":1540825216,"locktime":0,"vin":[{"txid":"0688a10bbb7c93eb83e4c39b9d5848182d906714147b34dd0545a1f910ae1a9d","vout":0,"scriptSig":{"asm":"3045022100ec56258fac36669e16c365770880baed3714a73fff58ec02c0a7d9087f13d5a9022003ea211a8700918aae020f66a624aea71d526e21a278561ed0479e2e524e8bf601 02c189b5486dc2771cc25227f9a9c2c3715814e24db8640079b8ec7b2f4874e9d6","hex":"483045022100ec56258fac36669e16c365770880baed3714a73fff58ec02c0a7d9087f13d5a9022003ea211a8700918aae020f66a624aea71d526e21a278561ed0479e2e524e8bf6012102c189b5486dc2771cc25227f9a9c2c3715814e24db8640079b8ec7b2f4874e9d6"},"sequence":4294967295}],"vout":[{"value":0.31514098,"n":0,"scriptPubKey":{"asm":"OP_DUP OP_HASH160 4c28ee798243702bc4500cdb4da9004130bb47f6 OP_EQUALVERIFY OP_CHECKSIG","reqSigs":1,"type":"pubkeyhash","addresses":["pCVGbFvFLapGyskXvwfxG2ss21bRU9FqUh"]}},{"value":1.06013573,"n":1,"scriptPubKey":{"asm":"OP_DUP OP_HASH160 8c8d02e7566f181242059be165921abcff375258 OP_EQUALVERIFY OP_CHECKSIG","reqSigs":1,"type":"pubkeyhash","addresses":["pJMjjCeaBJdPh53Lq1pweAESpzr63pkmrq"]}}],"blockhash":"c05b39c7fb5b86b18a3ac1e76231f75804372ee27c2e44a8cd278140e0799151","confirmations":196,"blocktime":1540825216}