{"hex":"010000008020d75b01c4b4e88cbcfe57be324e67caac219a0e1943a600b06645936234575ba354092502000000484730440220567201ee67204a22044e45757d859bc11ae6c8eba58e7bfd8c0ba7b432167cde02206d3d65c9ff360a42eaad41c21b66c594d29e0fb0828c83612b062239442eaa7e01ffffffff030000000000000000004e73b3d1010000002321020b1cd26fc4b9f080aea1cf7b667efd5e8453f70429056589831fa7f63506ddbfacff5f0100000000001976a9147a58c93fa5e34c0e7c16492ee8061977495aac7c88ac00000000","txid":"cd5183b6a9fd3ed46534f92467ad67720fe6c99c449ee9093e9132983858ac44","version":1,"time":1540825216,"locktime":0,"vin":[{"txid":"250954a35b573462934566b000a643190e9a21acca674e32be57febc8ce8b4c4","vout":2,"scriptSig":{"asm":"30440220567201ee67204a22044e45757d859bc11ae6c8eba58e7bfd8c0ba7b432167cde02206d3d65c9ff360a42eaad41c21b66c594d29e0fb0828c83612b062239442eaa7e01","hex":"4730440220567201ee67204a22044e45757d859bc11ae6c8eba58e7bfd8c0ba7b432167cde02206d3d65c9ff360a42eaad41c21b66c594d29e0fb0828c83612b062239442eaa7e01"},"sequence":4294967295}],"vout":[{"value":0,"n":0,"scriptPubKey":{"asm":"","type":"nonstandard"}},{"value":78.13165902,"n":1,"scriptPubKey":{"asm":"020b1cd26fc4b9f080aea1cf7b667efd5e8453f70429056589831fa7f63506ddbf OP_CHECKSIG","reqSigs":1,"type":"pubkey","addresses":["pECTDpfW4nW8hYte3f3F9ZQxwgWmBwmcYL"]}},{"value":0.00090111,"n":2,"scriptPubKey":{"asm":"OP_DUP OP_HASH160 7a58c93fa5e34c0e7c16492ee8061977495aac7c OP_EQUALVERIFY OP_CHECKSIG","reqSigs":1,"type":"pubkeyhash","addresses":["pGhV15RkjbtFhS6uHd3xCvPoNUNQoDMiqz"]}}],"blockhash":"c05b39c7fb5b86b18a3ac1e76231f75804372ee27c2e44a8cd278140e0799151","confirmations":196,"blocktime":1540825216}