{"hex":"010000009b6bd85b030daca105fac5057b5a5014bbadba38bcd595e633c338bb6fbc91fce399aa359a000000006b483045022100b1acb70f0e337abe89d9ef9abb7479de89a3666812dcf84d6602b3640e04cf7202203663b3dd58660961bc6db82d93383e573cf492faf8694f3d5b1eab5bc7227c59012103035a1c8398035db718d25e968e95a833acc451fd07adad3ae753f525aa2e0296ffffffffe54fbbcdc5aef20cb77456afada1f1f73d40e0f8cf6f76a648949478843986fe010000006a473044022075a49f8e62aecfff71de89fcff44acd235ab3cf201b3d7af62ed074f95beed2c02201e4f0e653f20b689fca6a1bc17b6939cc872d5b9df17dad29f3d07edf15bb2f0012102f2a6d3fb20e110acdc12f49ea830b8567a0f114cfb1576afeffe6480e759bf93ffffffff0fc1f85966a75374075f4fb3ce270e9fc81383e0de9b54a901b176c928a4ed6d010000006a47304402201c5a7c917d43dd881797e36e11e1d29248159c9dd17a4a5fc86ec71bd395e6a50220483112b4856dc1bc922832ab2cb641e553de7a1ed17aae38c44517a3620fc90c0121036dee1034e5ab6a5895a471e41855ecacb476b930011227be0ad3ddfeceea7f79ffffffff02c8292000000000001976a91400281743434cf696cb5c59d46bb1e15e9b83913488ac07b4520b000000001976a914c919474175d83b6346ac435cbf9ab7e11c53a26c88ac00000000","txid":"15646d5f6070da68878245480b8af3e130114d7ec35f5ec5b8c598e8ff263571","version":1,"time":1540909984,"locktime":0,"vin":[{"txid":"9a35aa99e3fc91bc6fbb38c333e695d5bc38baadbb14505a7b05c5fa05a1ac0d","vout":0,"scriptSig":{"asm":"3045022100b1acb70f0e337abe89d9ef9abb7479de89a3666812dcf84d6602b3640e04cf7202203663b3dd58660961bc6db82d93383e573cf492faf8694f3d5b1eab5bc7227c5901 03035a1c8398035db718d25e968e95a833acc451fd07adad3ae753f525aa2e0296","hex":"483045022100b1acb70f0e337abe89d9ef9abb7479de89a3666812dcf84d6602b3640e04cf7202203663b3dd58660961bc6db82d93383e573cf492faf8694f3d5b1eab5bc7227c59012103035a1c8398035db718d25e968e95a833acc451fd07adad3ae753f525aa2e0296"},"sequence":4294967295},{"txid":"fe86398478949448a6766fcff8e0403df7f1a1adaf5674b70cf2aec5cdbb4fe5","vout":1,"scriptSig":{"asm":"3044022075a49f8e62aecfff71de89fcff44acd235ab3cf201b3d7af62ed074f95beed2c02201e4f0e653f20b689fca6a1bc17b6939cc872d5b9df17dad29f3d07edf15bb2f001 02f2a6d3fb20e110acdc12f49ea830b8567a0f114cfb1576afeffe6480e759bf93","hex":"473044022075a49f8e62aecfff71de89fcff44acd235ab3cf201b3d7af62ed074f95beed2c02201e4f0e653f20b689fca6a1bc17b6939cc872d5b9df17dad29f3d07edf15bb2f0012102f2a6d3fb20e110acdc12f49ea830b8567a0f114cfb1576afeffe6480e759bf93"},"sequence":4294967295},{"txid":"6deda428c976b101a9549bdee08313c89f0e27ceb34f5f077453a76659f8c10f","vout":1,"scriptSig":{"asm":"304402201c5a7c917d43dd881797e36e11e1d29248159c9dd17a4a5fc86ec71bd395e6a50220483112b4856dc1bc922832ab2cb641e553de7a1ed17aae38c44517a3620fc90c01 036dee1034e5ab6a5895a471e41855ecacb476b930011227be0ad3ddfeceea7f79","hex":"47304402201c5a7c917d43dd881797e36e11e1d29248159c9dd17a4a5fc86ec71bd395e6a50220483112b4856dc1bc922832ab2cb641e553de7a1ed17aae38c44517a3620fc90c0121036dee1034e5ab6a5895a471e41855ecacb476b930011227be0ad3ddfeceea7f79"},"sequence":4294967295}],"vout":[{"value":0.02107848,"n":0,"scriptPubKey":{"asm":"OP_DUP OP_HASH160 00281743434cf696cb5c59d46bb1e15e9b839134 OP_EQUALVERIFY OP_CHECKSIG","reqSigs":1,"type":"pubkeyhash","addresses":["p5ZQEGVvNuSKexzuN4ggQ6Zu6CCPXLZNpb"]}},{"value":1.89969415,"n":1,"scriptPubKey":{"asm":"OP_DUP OP_HASH160 c919474175d83b6346ac435cbf9ab7e11c53a26c OP_EQUALVERIFY OP_CHECKSIG","reqSigs":1,"type":"pubkeyhash","addresses":["pPstJdhL5V5cLPuw5Ta1yfL6GaoyNQdP6J"]}}],"blockhash":"3d7a284b1689fbd58af9491ed60e926b2f12fc780ba968d246b7aeab98099fd6","confirmations":167,"blocktime":1540909984}