{"hex":"01000000a06bd85b01f9ba1023262d30b0c6849b5842f5d082330d7e36e98b4a3a1481c3c613f0e1130100000048473044022036c4206d20c3e20c2b0950e31a03bbf40dc5cd878da769dffc8b436f20465a560220521c40ed1f9b788289a809e7191ebfbfe5ceb5a5300f3770aefb16bdacac73ca01ffffffff030000000000000000004062a4d1010000002321020b1cd26fc4b9f080aea1cf7b667efd5e8453f70429056589831fa7f63506ddbfacc1760200000000001976a9140c2d1eddba56317fb81d41241b8f40bbca7b5b5488ac00000000","txid":"b72855195f869d8a713a7ac49cbb3dae01e545a9e307e5173fb9606960bf79d8","version":1,"time":1540909984,"locktime":0,"vin":[{"txid":"13e1f013c6c381143a4a8be9367e0d3382d0f542589b84c6b0302d262310baf9","vout":1,"scriptSig":{"asm":"3044022036c4206d20c3e20c2b0950e31a03bbf40dc5cd878da769dffc8b436f20465a560220521c40ed1f9b788289a809e7191ebfbfe5ceb5a5300f3770aefb16bdacac73ca01","hex":"473044022036c4206d20c3e20c2b0950e31a03bbf40dc5cd878da769dffc8b436f20465a560220521c40ed1f9b788289a809e7191ebfbfe5ceb5a5300f3770aefb16bdacac73ca01"},"sequence":4294967295}],"vout":[{"value":0,"n":0,"scriptPubKey":{"asm":"","type":"nonstandard"}},{"value":78.12178496,"n":1,"scriptPubKey":{"asm":"020b1cd26fc4b9f080aea1cf7b667efd5e8453f70429056589831fa7f63506ddbf OP_CHECKSIG","reqSigs":1,"type":"pubkey","addresses":["pECTDpfW4nW8hYte3f3F9ZQxwgWmBwmcYL"]}},{"value":0.00161473,"n":2,"scriptPubKey":{"asm":"OP_DUP OP_HASH160 0c2d1eddba56317fb81d41241b8f40bbca7b5b54 OP_EQUALVERIFY OP_CHECKSIG","reqSigs":1,"type":"pubkeyhash","addresses":["p6exN3FuZmZyQ7WNzLf7AweTLuHqDvcERN"]}}],"blockhash":"3d7a284b1689fbd58af9491ed60e926b2f12fc780ba968d246b7aeab98099fd6","confirmations":167,"blocktime":1540909984}