{"hex":"010000002359e05b01f0725d8046a179678f714756be8a1bde7ad3da0a3f88ae7507828763e9b9abd6010000006a4730440220262c1374339b4c63286100b3bf02651aa14bdf7474497883ba79fe0f519d499e022002d445de523477808f0ec1f7db0fb6a9fe073d6d534c6a73d757bf4ee9e6f5a801210399b98aa9e3e6c10d69995582b34714ac0ad83aab8040a721124e0c15e71dcd8bffffffff02294e5c04000000001976a914bce2a1b388fde1a079291bc55c291bdb74f783eb88ac182a9901000000001976a9141105f62f30dad3f0f03e5dcbb554d5e2c1a48b8d88ac00000000","txid":"0f13c7f5cbc31441b389fe3b8dab36ec1b5fcb19134c3463ceebad9974b253b1","version":1,"time":1541429552,"locktime":0,"vin":[{"txid":"d6abb9e96387820775ae883f0adad37ade1b8abe5647718f6779a146805d72f0","vout":1,"scriptSig":{"asm":"30440220262c1374339b4c63286100b3bf02651aa14bdf7474497883ba79fe0f519d499e022002d445de523477808f0ec1f7db0fb6a9fe073d6d534c6a73d757bf4ee9e6f5a801 0399b98aa9e3e6c10d69995582b34714ac0ad83aab8040a721124e0c15e71dcd8b","hex":"4730440220262c1374339b4c63286100b3bf02651aa14bdf7474497883ba79fe0f519d499e022002d445de523477808f0ec1f7db0fb6a9fe073d6d534c6a73d757bf4ee9e6f5a801210399b98aa9e3e6c10d69995582b34714ac0ad83aab8040a721124e0c15e71dcd8b"},"sequence":4294967295}],"vout":[{"value":0.73158185,"n":0,"scriptPubKey":{"asm":"OP_DUP OP_HASH160 bce2a1b388fde1a079291bc55c291bdb74f783eb OP_EQUALVERIFY OP_CHECKSIG","reqSigs":1,"type":"pubkeyhash","addresses":["pNmJjQso36kA2ZywGPoxPHtdKSyL7vfyh7"]}},{"value":0.26815,"n":1,"scriptPubKey":{"asm":"OP_DUP OP_HASH160 1105f62f30dad3f0f03e5dcbb554d5e2c1a48b8d OP_EQUALVERIFY OP_CHECKSIG","reqSigs":1,"type":"pubkeyhash","addresses":["p76aqBy433tUsvz3sXYJU1kmDs2bCVPqjJ"]}}],"blockhash":"d88fa6ad7f2c43f83d4338ad4d16348df41a4aed5c14f16abfa23b944e0711ba","confirmations":35,"blocktime":1541429552}