{"hex":"010000003059e05b013f17e1d48f1e32633ea2cc10186b10eb83046ab0a0245e9aa23598340bf190880100000048473044022049482ca4179dd758ba75c17ce096859795449ff955f62add21fbc803f54c717a022026c48c5fb2ea7886b83123bf9d05588754cb42f9db5a3cdee39534dddf034a5001ffffffff0400000000000000000000514a8d0e0000002321037080154ad035d87bbe47e967ce43ddce5951865effbdda9b3c857d929ea146c7acb7604a8d0e0000002321037080154ad035d87bbe47e967ce43ddce5951865effbdda9b3c857d929ea146c7ac08590000000000001976a914b4297f2bb1ec22148c170ab2f943e6826c4d831d88ac00000000","txid":"ca72d0632f1a5b21d780ad8e5b3283f7c04faffa65c194b9f89e8e44ddb311a4","version":1,"time":1541429552,"locktime":0,"vin":[{"txid":"8890f10b349835a29a5e24a0b06a0483eb106b1810cca23e63321e8fd4e1173f","vout":1,"scriptSig":{"asm":"3044022049482ca4179dd758ba75c17ce096859795449ff955f62add21fbc803f54c717a022026c48c5fb2ea7886b83123bf9d05588754cb42f9db5a3cdee39534dddf034a5001","hex":"473044022049482ca4179dd758ba75c17ce096859795449ff955f62add21fbc803f54c717a022026c48c5fb2ea7886b83123bf9d05588754cb42f9db5a3cdee39534dddf034a5001"},"sequence":4294967295}],"vout":[{"value":0,"n":0,"scriptPubKey":{"asm":"","type":"nonstandard"}},{"value":625,"n":1,"scriptPubKey":{"asm":"037080154ad035d87bbe47e967ce43ddce5951865effbdda9b3c857d929ea146c7 OP_CHECKSIG","reqSigs":1,"type":"pubkey","addresses":["pEhwSeKiP8Q9UV5H4Vwts61nBy8VHfUUbd"]}},{"value":625.00004023,"n":2,"scriptPubKey":{"asm":"037080154ad035d87bbe47e967ce43ddce5951865effbdda9b3c857d929ea146c7 OP_CHECKSIG","reqSigs":1,"type":"pubkey","addresses":["pEhwSeKiP8Q9UV5H4Vwts61nBy8VHfUUbd"]}},{"value":0.00022792,"n":3,"scriptPubKey":{"asm":"OP_DUP OP_HASH160 b4297f2bb1ec22148c170ab2f943e6826c4d831d OP_EQUALVERIFY OP_CHECKSIG","reqSigs":1,"type":"pubkeyhash","addresses":["pMyBYUpcH3ehvzacvgmtahza4iSykvMcUD"]}}],"blockhash":"d88fa6ad7f2c43f83d4338ad4d16348df41a4aed5c14f16abfa23b944e0711ba","confirmations":35,"blocktime":1541429552}