{"hex":"01000000cba2c25b010000000000000000000000000000000000000000000000000000000000000000ffffffff0401600101ffffffff0100000000000000001976a914e77076b5370b8ece3e609ef1a09d300f235d786b88ac00000000","txid":"210f3ae48695c3c5d91496c596853250f9e85ea475c095d7c0f75ac3ce2a6a9b","version":1,"time":1539482315,"locktime":0,"vin":[{"coinbase":"01600101","sequence":4294967295}],"vout":[{"value":0,"n":0,"scriptPubKey":{"asm":"OP_DUP OP_HASH160 e77076b5370b8ece3e609ef1a09d300f235d786b OP_EQUALVERIFY OP_CHECKSIG","reqSigs":1,"type":"pubkeyhash","addresses":["pSeK28h5m9swcj8m2mrbchKL5fgx7oUvA8"]}}],"blockhash":"0000061e022d7eac8e33b7c43cfb0a74ed3def0053f0854b140d86223990a6e5","confirmations":63,"blocktime":1539482315}