{"hex":"010000007057d05b016df975c064e591380e4fd1c9cd93150190c6977d91335a07a40ca119ccce88e5010000004847304402204fec493426ece5d47f96b344fecd8263c0e4fce18991b9cc016d537be78f214702202063891f24342d8bebf9ecab12e405c86440ebb6d4dd61156d38c6fa7d9a49f101ffffffff04000000000000000000c03328a40300000023210348b24f77eda58d2bf0bd56f764cfdeb0100d2f1058b2d5318f2f2fc9670e730eac783f28a40300000023210348b24f77eda58d2bf0bd56f764cfdeb0100d2f1058b2d5318f2f2fc9670e730eac68420000000000001976a914239bf4dba7e2193b7f701a7b68d0e94c85d85fac88ac00000000","txid":"94cab55b1c8673ae3e238f4234f3e0ecf4049cfd6ce9c65b9bb7eaa38078fd4c","version":1,"time":1540380528,"locktime":0,"vin":[{"txid":"e588cecc19a10ca4075a33917d97c690011593cdc9d14f0e3891e564c075f96d","vout":1,"scriptSig":{"asm":"304402204fec493426ece5d47f96b344fecd8263c0e4fce18991b9cc016d537be78f214702202063891f24342d8bebf9ecab12e405c86440ebb6d4dd61156d38c6fa7d9a49f101","hex":"47304402204fec493426ece5d47f96b344fecd8263c0e4fce18991b9cc016d537be78f214702202063891f24342d8bebf9ecab12e405c86440ebb6d4dd61156d38c6fa7d9a49f101"},"sequence":4294967295}],"vout":[{"value":0,"n":0,"scriptPubKey":{"asm":"","type":"nonstandard"}},{"value":156.39,"n":1,"scriptPubKey":{"asm":"0348b24f77eda58d2bf0bd56f764cfdeb0100d2f1058b2d5318f2f2fc9670e730e OP_CHECKSIG","reqSigs":1,"type":"pubkey","addresses":["p8X7huKtvdnnDzc17Xcxxh1Z9ww8ckxvVJ"]}},{"value":156.39003,"n":2,"scriptPubKey":{"asm":"0348b24f77eda58d2bf0bd56f764cfdeb0100d2f1058b2d5318f2f2fc9670e730e OP_CHECKSIG","reqSigs":1,"type":"pubkey","addresses":["p8X7huKtvdnnDzc17Xcxxh1Z9ww8ckxvVJ"]}},{"value":0.00017,"n":3,"scriptPubKey":{"asm":"OP_DUP OP_HASH160 239bf4dba7e2193b7f701a7b68d0e94c85d85fac OP_EQUALVERIFY OP_CHECKSIG","reqSigs":1,"type":"pubkeyhash","addresses":["p8nrgTxTfKDC3hvmSmFxDcxpYguUCo8yWb"]}}],"blockhash":"97fda193a2fca7f1a239164980cb43b483347317b5b471d2ab604f35a6662e1e","confirmations":298,"blocktime":1540380528}