{"hex":"010000006857d05b01f794cbaa4412c2d71aec7236d86ead3e73bb725e638e8bcac38e60aa0a49a796000000006a47304402205d2442191b0a658750a9996f0135a2d2fea679b1e46b47c836a5a2378f87ddd3022048c06c15adc4df5209728b0f178163976260a64e781f4134c42fb73c26027e75012102b376f6875cd16a446885135ac5d42872e304e2a768fd15233b8b1d65ebd71bbcffffffff0288dcc601000000001976a91452a0206c2bdfdaf7a406bb0f85f1665540dee1a788ac002d3101000000001976a91488d0038b819535ca670e06499b0fba504eccb1b288ac00000000","txid":"b34e6be4d09fa4fc373c7ebabcb5cfdcfe7004575a005b8c974a2c340987e5eb","version":1,"time":1540380528,"locktime":0,"vin":[{"txid":"96a7490aaa608ec3ca8b8e635e72bb733ead6ed83672ec1ad7c21244aacb94f7","vout":0,"scriptSig":{"asm":"304402205d2442191b0a658750a9996f0135a2d2fea679b1e46b47c836a5a2378f87ddd3022048c06c15adc4df5209728b0f178163976260a64e781f4134c42fb73c26027e7501 02b376f6875cd16a446885135ac5d42872e304e2a768fd15233b8b1d65ebd71bbc","hex":"47304402205d2442191b0a658750a9996f0135a2d2fea679b1e46b47c836a5a2378f87ddd3022048c06c15adc4df5209728b0f178163976260a64e781f4134c42fb73c26027e75012102b376f6875cd16a446885135ac5d42872e304e2a768fd15233b8b1d65ebd71bbc"},"sequence":4294967295}],"vout":[{"value":0.298098,"n":0,"scriptPubKey":{"asm":"OP_DUP OP_HASH160 52a0206c2bdfdaf7a406bb0f85f1665540dee1a7 OP_EQUALVERIFY OP_CHECKSIG","reqSigs":1,"type":"pubkeyhash","addresses":["pD5TSEKDWii85ohxsLJxCSXpwZNYW8jhAA"]}},{"value":0.2,"n":1,"scriptPubKey":{"asm":"OP_DUP OP_HASH160 88d0038b819535ca670e06499b0fba504eccb1b2 OP_EQUALVERIFY OP_CHECKSIG","reqSigs":1,"type":"pubkeyhash","addresses":["pJ1yHrFbQ1afKyNTNpdJEZ7ys3JzAdktry"]}}],"blockhash":"97fda193a2fca7f1a239164980cb43b483347317b5b471d2ab604f35a6662e1e","confirmations":298,"blocktime":1540380528}