{"hex":"01000000accad45b02809c68691409d33e64cb3610fffd4aec56741fd9762a9751c8aa52be3f626197010000006a4730440220630f2675463899ee8e2e01f91a9bb5fc838821de3cd063218673baf731ff7962022050cd6aefef5951c2f915a44d6d34878436cb1179d599333d7e4c92cd5624b5030121025c2a3bf6fb25ef8e8240bb5809867efba6f9a6891e47b08fbe64320fe5d1cba7ffffffff26c11b7c142973acc3c69b71e07dcdae1c62e4d3915d3354a47ad46f041ec1bc010000006a4730440220059b92d4a6912182f30099af19fc83ac18b2606b5d8aa0621f5c0df4f4be32d602206ecad818848da10e6c82fe172a8e014f6fd48e5da9f0d198a1e3ba86ab61ad4f012102ed684161a26db386cb743e1249aee624664faf282d3182f62354eca966bc9730ffffffff0238911200000000001976a914b2067a24fae81fbcefb73e16dd484f55874d04be88ac40420f00000000001976a914c55b05ed74ca5bf8a81cb8643cedfd82ceea001f88ac00000000","txid":"16efd85cb6c3549d01b1cbdc5518ed6cb6e757c40b3df14cb24f620b5d8529e2","version":1,"time":1540672176,"locktime":0,"vin":[{"txid":"9761623fbe52aac851972a76d91f7456ec4afdff1036cb643ed3091469689c80","vout":1,"scriptSig":{"asm":"30440220630f2675463899ee8e2e01f91a9bb5fc838821de3cd063218673baf731ff7962022050cd6aefef5951c2f915a44d6d34878436cb1179d599333d7e4c92cd5624b50301 025c2a3bf6fb25ef8e8240bb5809867efba6f9a6891e47b08fbe64320fe5d1cba7","hex":"4730440220630f2675463899ee8e2e01f91a9bb5fc838821de3cd063218673baf731ff7962022050cd6aefef5951c2f915a44d6d34878436cb1179d599333d7e4c92cd5624b5030121025c2a3bf6fb25ef8e8240bb5809867efba6f9a6891e47b08fbe64320fe5d1cba7"},"sequence":4294967295},{"txid":"bcc11e046fd47aa454335d91d3e4621caecd7de0719bc6c3ac7329147c1bc126","vout":1,"scriptSig":{"asm":"30440220059b92d4a6912182f30099af19fc83ac18b2606b5d8aa0621f5c0df4f4be32d602206ecad818848da10e6c82fe172a8e014f6fd48e5da9f0d198a1e3ba86ab61ad4f01 02ed684161a26db386cb743e1249aee624664faf282d3182f62354eca966bc9730","hex":"4730440220059b92d4a6912182f30099af19fc83ac18b2606b5d8aa0621f5c0df4f4be32d602206ecad818848da10e6c82fe172a8e014f6fd48e5da9f0d198a1e3ba86ab61ad4f012102ed684161a26db386cb743e1249aee624664faf282d3182f62354eca966bc9730"},"sequence":4294967295}],"vout":[{"value":0.01216824,"n":0,"scriptPubKey":{"asm":"OP_DUP OP_HASH160 b2067a24fae81fbcefb73e16dd484f55874d04be OP_EQUALVERIFY OP_CHECKSIG","reqSigs":1,"type":"pubkeyhash","addresses":["pMmtEtaGsMUr8E8jWr7VUWZNmZ84zHGfSp"]}},{"value":0.01,"n":1,"scriptPubKey":{"asm":"OP_DUP OP_HASH160 c55b05ed74ca5bf8a81cb8643cedfd82ceea001f OP_EQUALVERIFY OP_CHECKSIG","reqSigs":1,"type":"pubkeyhash","addresses":["pPY6Mtuh5779cCRon2oJzpRsA1tndoAYMj"]}}],"blockhash":"4dfb44038ac4cf7ffc7483b360d78683cc615fe299780f558e0c99074a77846e","confirmations":281,"blocktime":1540672176}