{"hex":"01000000b0cad45b01ca0dffda9cc0b1a08edfda9fd9c1717b1e623857d5b5bf406cb71ee92dda3e450200000049483045022100d7374654d16ba0fd54ed781b3b0bf8ac1ecc65fdd54f6af9fa12e9c59e22916f0220044481cf9ae4be4c7fd1b3644896c4b906d5c6e363eca8025d0df56563d772a301ffffffff0400000000000000000000a2941a1d0000002321020b1cd26fc4b9f080aea1cf7b667efd5e8453f70429056589831fa7f63506ddbfac1aa3941a1d0000002321020b1cd26fc4b9f080aea1cf7b667efd5e8453f70429056589831fa7f63506ddbfac52030000000000001976a914256b9b540806ec78f3cbc6d37188a2e1504616e688ac00000000","txid":"72e397c84c6a76c3516a21d8cb4a4a55c0de46406fb2882957e9abacf2a11c59","version":1,"time":1540672176,"locktime":0,"vin":[{"txid":"453eda2de91eb76c40bfb5d55738621e7b71c1d99fdadf8ea0b1c09cdaff0dca","vout":2,"scriptSig":{"asm":"3045022100d7374654d16ba0fd54ed781b3b0bf8ac1ecc65fdd54f6af9fa12e9c59e22916f0220044481cf9ae4be4c7fd1b3644896c4b906d5c6e363eca8025d0df56563d772a301","hex":"483045022100d7374654d16ba0fd54ed781b3b0bf8ac1ecc65fdd54f6af9fa12e9c59e22916f0220044481cf9ae4be4c7fd1b3644896c4b906d5c6e363eca8025d0df56563d772a301"},"sequence":4294967295}],"vout":[{"value":0,"n":0,"scriptPubKey":{"asm":"","type":"nonstandard"}},{"value":1250,"n":1,"scriptPubKey":{"asm":"020b1cd26fc4b9f080aea1cf7b667efd5e8453f70429056589831fa7f63506ddbf OP_CHECKSIG","reqSigs":1,"type":"pubkey","addresses":["pECTDpfW4nW8hYte3f3F9ZQxwgWmBwmcYL"]}},{"value":1250.00000282,"n":2,"scriptPubKey":{"asm":"020b1cd26fc4b9f080aea1cf7b667efd5e8453f70429056589831fa7f63506ddbf OP_CHECKSIG","reqSigs":1,"type":"pubkey","addresses":["pECTDpfW4nW8hYte3f3F9ZQxwgWmBwmcYL"]}},{"value":0.0000085,"n":3,"scriptPubKey":{"asm":"OP_DUP OP_HASH160 256b9b540806ec78f3cbc6d37188a2e1504616e6 OP_EQUALVERIFY OP_CHECKSIG","reqSigs":1,"type":"pubkeyhash","addresses":["p8xS7T8mkTz7MJV9EcYkBri1Zi12wCV83N"]}}],"blockhash":"4dfb44038ac4cf7ffc7483b360d78683cc615fe299780f558e0c99074a77846e","confirmations":281,"blocktime":1540672176}