{"hex":"01000000403cdb5b014adbb1b1b5e1f303e4f391f31504b263c69e0b4f950234f6cada3768b4a2c1c1010000004847304402202d5db11a3a46ffcf00f71e6ce5b1c78d82219f1d473f6e1a344eb3c91efdfdc202207548e94e940cac2bdf22ddea764aaede058c7736fc55c18b139d6948acd6f1eb01ffffffff03000000000000000000458c9e00000000002321028cb920f59c12d79842255d22f95cb209accfa6830daca59ba39d16355b6e3cc4ac76280200000000001976a9147a58c93fa5e34c0e7c16492ee8061977495aac7c88ac00000000","txid":"8ef0a92bd91647fac7c3ad3b67c5501ac52981f57412889fddc7f4cfa4b73bfa","version":1,"time":1541094464,"locktime":0,"vin":[{"txid":"c1c1a2b46837dacaf63402954f0b9ec663b20415f391f3e403f3e1b5b1b1db4a","vout":1,"scriptSig":{"asm":"304402202d5db11a3a46ffcf00f71e6ce5b1c78d82219f1d473f6e1a344eb3c91efdfdc202207548e94e940cac2bdf22ddea764aaede058c7736fc55c18b139d6948acd6f1eb01","hex":"47304402202d5db11a3a46ffcf00f71e6ce5b1c78d82219f1d473f6e1a344eb3c91efdfdc202207548e94e940cac2bdf22ddea764aaede058c7736fc55c18b139d6948acd6f1eb01"},"sequence":4294967295}],"vout":[{"value":0,"n":0,"scriptPubKey":{"asm":"","type":"nonstandard"}},{"value":0.10390597,"n":1,"scriptPubKey":{"asm":"028cb920f59c12d79842255d22f95cb209accfa6830daca59ba39d16355b6e3cc4 OP_CHECKSIG","reqSigs":1,"type":"pubkey","addresses":["p8xHVRJ6JVee7NQuivDZCLKgwHCvMS4FJv"]}},{"value":0.0014143,"n":2,"scriptPubKey":{"asm":"OP_DUP OP_HASH160 7a58c93fa5e34c0e7c16492ee8061977495aac7c OP_EQUALVERIFY OP_CHECKSIG","reqSigs":1,"type":"pubkeyhash","addresses":["pGhV15RkjbtFhS6uHd3xCvPoNUNQoDMiqz"]}}],"blockhash":"0494f650516740280f5e6ce9568f4619a90f9d00f2f58c58bae68ff246b9c33b","confirmations":83,"blocktime":1541094464}