{"hex":"010000003b3cdb5b059903282c85511f315e8a5485b2cdb7cdaeeb277a9345559dba962978b43680d3000000006b483045022100a4284508a3a50732eb28c3d053b10a3d998485c6e2850b54cf8ae5e508948c28022029d243a63e39ac83f9fb8d11ee29000e91a79029899ce5b5f39d3941b9b48bb4012103819b097553c5c4823d67025d83a08a0533a5fc04603a2f5cb3e570148936d911ffffffffec91dfefbf58726a972a236a64a78cdabc8d95141d5d4267f2852908ec756f68000000006b483045022100b2fa32e8d4c29e9c9f59d77fb18d60d999b839f482e1d5cac30637a986881e480220337c9e98f32ac28b82ef88ae2f078f47e069de84d356375ca1228221932af76f0121031376a5340acd31684b0f9c9cfe39da1e0dcd3846217048acdea5905dd7175996ffffffff1fc996d04f33e4ae33561c52dcd9669e0d107db897ecdebae7cda51dc2220d5b000000006a47304402205ff740456a0bad46deab8a838d5c9ac33a4e5c923c14ee3012ba8207d7c867bf022035ce1a613b612365d8b97b10cae0cdb59b304e9afcd14bd59681398d46d3e0110121025c35dfb01af8529e0c1d019205bbc2828118466b17e2a3be6417279acee721c1ffffffff60017b8c0e6011f525fdd0ad21caa9c755ce5c71a9dc57b4235e8814d4813d00000000006a4730440220370012c89d22dae0630a6ce9063dfb72419372eaccc144cb72661b0b94e694cb02204bdffc08fecbf628c49e020ced2b640d68af871240aba86d4f33495926a9c7d00121027cc8628534ee9adc7e6204279a84c6f927ceaad25ebbefdcbb6a17d7ef208d0dffffffffd250190769b0765860a6ee4fa3e84e6673141dcfeb2783c2aedba50d91b4a882000000006a47304402200e7a394f071351558029aef7bf65237f4332d213a10a3bcdad1b41d3819c109a02203200c972c4e7c296d9f3a8bd139839fa4cfee9be94dee3495270235d5b6b472a012103ab2f17608a93c690af88f6dc3fc8f4327190b8bae1e0fb3c603d484f7a82eccfffffffff02b8391400000000001976a9149345a60fc09d1f7dab9d16e6134ae4a05f6d7aaf88ac52e5ea09000000001976a91436085bfa0be7e526da148422e19f1c8011c0cda988ac00000000","txid":"d58e36243fde509b27abb4e2c10436c623b99e015ad3e19bd6c31a7ff642db70","version":1,"time":1541094464,"locktime":0,"vin":[{"txid":"d38036b4782996ba9d5545937a27ebaecdb7cdb285548a5e311f51852c280399","vout":0,"scriptSig":{"asm":"3045022100a4284508a3a50732eb28c3d053b10a3d998485c6e2850b54cf8ae5e508948c28022029d243a63e39ac83f9fb8d11ee29000e91a79029899ce5b5f39d3941b9b48bb401 03819b097553c5c4823d67025d83a08a0533a5fc04603a2f5cb3e570148936d911","hex":"483045022100a4284508a3a50732eb28c3d053b10a3d998485c6e2850b54cf8ae5e508948c28022029d243a63e39ac83f9fb8d11ee29000e91a79029899ce5b5f39d3941b9b48bb4012103819b097553c5c4823d67025d83a08a0533a5fc04603a2f5cb3e570148936d911"},"sequence":4294967295},{"txid":"686f75ec082985f267425d1d14958dbcda8ca7646a232a976a7258bfefdf91ec","vout":0,"scriptSig":{"asm":"3045022100b2fa32e8d4c29e9c9f59d77fb18d60d999b839f482e1d5cac30637a986881e480220337c9e98f32ac28b82ef88ae2f078f47e069de84d356375ca1228221932af76f01 031376a5340acd31684b0f9c9cfe39da1e0dcd3846217048acdea5905dd7175996","hex":"483045022100b2fa32e8d4c29e9c9f59d77fb18d60d999b839f482e1d5cac30637a986881e480220337c9e98f32ac28b82ef88ae2f078f47e069de84d356375ca1228221932af76f0121031376a5340acd31684b0f9c9cfe39da1e0dcd3846217048acdea5905dd7175996"},"sequence":4294967295},{"txid":"5b0d22c21da5cde7badeec97b87d100d9e66d9dc521c5633aee4334fd096c91f","vout":0,"scriptSig":{"asm":"304402205ff740456a0bad46deab8a838d5c9ac33a4e5c923c14ee3012ba8207d7c867bf022035ce1a613b612365d8b97b10cae0cdb59b304e9afcd14bd59681398d46d3e01101 025c35dfb01af8529e0c1d019205bbc2828118466b17e2a3be6417279acee721c1","hex":"47304402205ff740456a0bad46deab8a838d5c9ac33a4e5c923c14ee3012ba8207d7c867bf022035ce1a613b612365d8b97b10cae0cdb59b304e9afcd14bd59681398d46d3e0110121025c35dfb01af8529e0c1d019205bbc2828118466b17e2a3be6417279acee721c1"},"sequence":4294967295},{"txid":"003d81d414885e23b457dca9715cce55c7a9ca21add0fd25f511600e8c7b0160","vout":0,"scriptSig":{"asm":"30440220370012c89d22dae0630a6ce9063dfb72419372eaccc144cb72661b0b94e694cb02204bdffc08fecbf628c49e020ced2b640d68af871240aba86d4f33495926a9c7d001 027cc8628534ee9adc7e6204279a84c6f927ceaad25ebbefdcbb6a17d7ef208d0d","hex":"4730440220370012c89d22dae0630a6ce9063dfb72419372eaccc144cb72661b0b94e694cb02204bdffc08fecbf628c49e020ced2b640d68af871240aba86d4f33495926a9c7d00121027cc8628534ee9adc7e6204279a84c6f927ceaad25ebbefdcbb6a17d7ef208d0d"},"sequence":4294967295},{"txid":"82a8b4910da5dbaec28327ebcf1d1473664ee8a34feea6605876b069071950d2","vout":0,"scriptSig":{"asm":"304402200e7a394f071351558029aef7bf65237f4332d213a10a3bcdad1b41d3819c109a02203200c972c4e7c296d9f3a8bd139839fa4cfee9be94dee3495270235d5b6b472a01 03ab2f17608a93c690af88f6dc3fc8f4327190b8bae1e0fb3c603d484f7a82eccf","hex":"47304402200e7a394f071351558029aef7bf65237f4332d213a10a3bcdad1b41d3819c109a02203200c972c4e7c296d9f3a8bd139839fa4cfee9be94dee3495270235d5b6b472a012103ab2f17608a93c690af88f6dc3fc8f4327190b8bae1e0fb3c603d484f7a82eccf"},"sequence":4294967295}],"vout":[{"value":0.01325496,"n":0,"scriptPubKey":{"asm":"OP_DUP OP_HASH160 9345a60fc09d1f7dab9d16e6134ae4a05f6d7aaf OP_EQUALVERIFY OP_CHECKSIG","reqSigs":1,"type":"pubkeyhash","addresses":["pJyGyBNQUimz1ZaDwoYPMhmhv5eHwYoRjT"]}},{"value":1.66389074,"n":1,"scriptPubKey":{"asm":"OP_DUP OP_HASH160 36085bfa0be7e526da148422e19f1c8011c0cda9 OP_EQUALVERIFY OP_CHECKSIG","reqSigs":1,"type":"pubkeyhash","addresses":["pAUGhsrcYnn9rDsd1EAxub6VxLp7gkieYp"]}}],"blockhash":"0494f650516740280f5e6ce9568f4619a90f9d00f2f58c58bae68ff246b9c33b","confirmations":83,"blocktime":1541094464}