{"hex":"01000000d067d75b01481cdea08b17dfd4fafbc08d2d991d6838da95c017f4d94f4a072b6bc266ff96010000004847304402201bab4c69402688f534973ff790e121e09a89ac5f3adc8192b544484027b4ed640220264dd49c738d833870c51629391b1e4f1d037e2f845f7b6f0694036be024e6a001ffffffff0400000000000000000000514a8d0e000000232102c70f997963ce3f3ea88266ee3e0c833058cd21ae02eae02cd993b9664c686d89acb65c4a8d0e000000232102c70f997963ce3f3ea88266ee3e0c833058cd21ae02eae02cd993b9664c686d89ac5c420000000000001976a914256b9b540806ec78f3cbc6d37188a2e1504616e688ac00000000","txid":"312dc88ddcdba9ad202b3c4f741a7c14754b5c5af1255a30b528863c9fe1d980","version":1,"time":1540843472,"locktime":0,"vin":[{"txid":"96ff66c26b2b074a4fd9f417c095da38681d992d8dc0fbfad4df178ba0de1c48","vout":1,"scriptSig":{"asm":"304402201bab4c69402688f534973ff790e121e09a89ac5f3adc8192b544484027b4ed640220264dd49c738d833870c51629391b1e4f1d037e2f845f7b6f0694036be024e6a001","hex":"47304402201bab4c69402688f534973ff790e121e09a89ac5f3adc8192b544484027b4ed640220264dd49c738d833870c51629391b1e4f1d037e2f845f7b6f0694036be024e6a001"},"sequence":4294967295}],"vout":[{"value":0,"n":0,"scriptPubKey":{"asm":"","type":"nonstandard"}},{"value":625,"n":1,"scriptPubKey":{"asm":"02c70f997963ce3f3ea88266ee3e0c833058cd21ae02eae02cd993b9664c686d89 OP_CHECKSIG","reqSigs":1,"type":"pubkey","addresses":["pTQJsZTT2bpmhnKWdT3rdczVS5MaBuXxyB"]}},{"value":625.00002998,"n":2,"scriptPubKey":{"asm":"02c70f997963ce3f3ea88266ee3e0c833058cd21ae02eae02cd993b9664c686d89 OP_CHECKSIG","reqSigs":1,"type":"pubkey","addresses":["pTQJsZTT2bpmhnKWdT3rdczVS5MaBuXxyB"]}},{"value":0.00016988,"n":3,"scriptPubKey":{"asm":"OP_DUP OP_HASH160 256b9b540806ec78f3cbc6d37188a2e1504616e6 OP_EQUALVERIFY OP_CHECKSIG","reqSigs":1,"type":"pubkeyhash","addresses":["p8xS7T8mkTz7MJV9EcYkBri1Zi12wCV83N"]}}],"blockhash":"efcaa31da3bb8ad2da1a1fb795bb66903f74f9fa82f703a5a0be0ae0f419e1b2","confirmations":175,"blocktime":1540843472}