{"hex":"01000000c867d75b031b5c201ca523fa2a740ac084cf1d258116e380e65a25bcde5d8a6ebe085d800f000000006b483045022100f01bdae2547838716ce61d2ff82d448c1d2f664f0fd3cda5a1036733466162fe0220798fdfc0c763f68cc41903bd617892c53ca6ec95af214d2425c79ecf49623bd001210307ac4e43ab92aa2b26f47122bf483c2ae6d9f5e465c6f8b8ebb6546536d3b30bffffffffee7335973c26bfeb331a20b71470546b2228784182fa9aa97e62267b07a0a149000000006a473044022070eb5e330fba07b02af9550ec9f7e75f979cd63d4a62fbfb0144c42f015ee53f022058c803e7eb7d7a42533e011b5ffc67eed9294e94800ebeb65ed019d193c510c3012103f4d48c8a3d14e30793b9d683bf92223485077dd3e75b98bb36c4b00ab601ae5affffffffee7335973c26bfeb331a20b71470546b2228784182fa9aa97e62267b07a0a149010000006a47304402202c8f1da7c79e7f43fedad67a1f475f8afc6831822a45b550831d108d8cc3936b02204d5b559adf6a55b641a722dce3dc7748203f2e72e2b1f2f05f89a8b1910b1bce01210201e40fbafe12e2290ddb1a1ce6074078f111d864170ce04c252d308ebd2f83dfffffffff02982a1700000000001976a9140e8a5a998a2156b423b1f5e2ce47ad9fc202c30288ace0f83001000000001976a914e648597560618ed752563a8f0240eda890f3cb7e88ac00000000","txid":"9f84c8c4d17679b6387582cb41a885cc3ed5022ac6d170b990faa178db564911","version":1,"time":1540843472,"locktime":0,"vin":[{"txid":"0f805d08be6e8a5ddebc255ae680e31681251dcf84c00a742afa23a51c205c1b","vout":0,"scriptSig":{"asm":"3045022100f01bdae2547838716ce61d2ff82d448c1d2f664f0fd3cda5a1036733466162fe0220798fdfc0c763f68cc41903bd617892c53ca6ec95af214d2425c79ecf49623bd001 0307ac4e43ab92aa2b26f47122bf483c2ae6d9f5e465c6f8b8ebb6546536d3b30b","hex":"483045022100f01bdae2547838716ce61d2ff82d448c1d2f664f0fd3cda5a1036733466162fe0220798fdfc0c763f68cc41903bd617892c53ca6ec95af214d2425c79ecf49623bd001210307ac4e43ab92aa2b26f47122bf483c2ae6d9f5e465c6f8b8ebb6546536d3b30b"},"sequence":4294967295},{"txid":"49a1a0077b26627ea99afa82417828226b547014b7201a33ebbf263c973573ee","vout":0,"scriptSig":{"asm":"3044022070eb5e330fba07b02af9550ec9f7e75f979cd63d4a62fbfb0144c42f015ee53f022058c803e7eb7d7a42533e011b5ffc67eed9294e94800ebeb65ed019d193c510c301 03f4d48c8a3d14e30793b9d683bf92223485077dd3e75b98bb36c4b00ab601ae5a","hex":"473044022070eb5e330fba07b02af9550ec9f7e75f979cd63d4a62fbfb0144c42f015ee53f022058c803e7eb7d7a42533e011b5ffc67eed9294e94800ebeb65ed019d193c510c3012103f4d48c8a3d14e30793b9d683bf92223485077dd3e75b98bb36c4b00ab601ae5a"},"sequence":4294967295},{"txid":"49a1a0077b26627ea99afa82417828226b547014b7201a33ebbf263c973573ee","vout":1,"scriptSig":{"asm":"304402202c8f1da7c79e7f43fedad67a1f475f8afc6831822a45b550831d108d8cc3936b02204d5b559adf6a55b641a722dce3dc7748203f2e72e2b1f2f05f89a8b1910b1bce01 0201e40fbafe12e2290ddb1a1ce6074078f111d864170ce04c252d308ebd2f83df","hex":"47304402202c8f1da7c79e7f43fedad67a1f475f8afc6831822a45b550831d108d8cc3936b02204d5b559adf6a55b641a722dce3dc7748203f2e72e2b1f2f05f89a8b1910b1bce01210201e40fbafe12e2290ddb1a1ce6074078f111d864170ce04c252d308ebd2f83df"},"sequence":4294967295}],"vout":[{"value":0.01518232,"n":0,"scriptPubKey":{"asm":"OP_DUP OP_HASH160 0e8a5a998a2156b423b1f5e2ce47ad9fc202c302 OP_EQUALVERIFY OP_CHECKSIG","reqSigs":1,"type":"pubkeyhash","addresses":["p6sTQPWzCB7esNSzwQ2iLm85AsrK9gNUkj"]}},{"value":0.19986656,"n":1,"scriptPubKey":{"asm":"OP_DUP OP_HASH160 e648597560618ed752563a8f0240eda890f3cb7e OP_EQUALVERIFY OP_CHECKSIG","reqSigs":1,"type":"pubkeyhash","addresses":["pSYCHkhc8FgyStkxbryhi7UvwFQg7QqjMw"]}}],"blockhash":"efcaa31da3bb8ad2da1a1fb795bb66903f74f9fa82f703a5a0be0ae0f419e1b2","confirmations":175,"blocktime":1540843472}