{"hex":"010000001540d65b017b34294b9fa41e59e318bcc2518fa4b94e50912820ddf93e7b5074d9dc9c5596010000006b483045022100e59c93501d3ef41c7fda26333f969c3133a6dc0f1bf93c4c74a2be1c337dfb8d02206b06286afdbb28df9f2f66de1b6f7fee57e3677f90baa271b4f98e3db04048810121033bca9db388a391c65b0287925a3d2c0be4fc70341535c878dcee9e94c6a7bd07ffffffff0242b14b00000000001976a9144c28ee798243702bc4500cdb4da9004130bb47f688ac53d3aa00000000001976a9140d97dd99ea4bb08b5c30b9ea9c61c493ed433c0388ac00000000","txid":"c7d289316a8b680e1a4a82330d24f33e99a19f3957bdade2844b192df34e8f16","version":1,"time":1540767776,"locktime":0,"vin":[{"txid":"96559cdcd974507b3ef9dd202891504eb9a48f51c2bc18e3591ea49f4b29347b","vout":1,"scriptSig":{"asm":"3045022100e59c93501d3ef41c7fda26333f969c3133a6dc0f1bf93c4c74a2be1c337dfb8d02206b06286afdbb28df9f2f66de1b6f7fee57e3677f90baa271b4f98e3db040488101 033bca9db388a391c65b0287925a3d2c0be4fc70341535c878dcee9e94c6a7bd07","hex":"483045022100e59c93501d3ef41c7fda26333f969c3133a6dc0f1bf93c4c74a2be1c337dfb8d02206b06286afdbb28df9f2f66de1b6f7fee57e3677f90baa271b4f98e3db04048810121033bca9db388a391c65b0287925a3d2c0be4fc70341535c878dcee9e94c6a7bd07"},"sequence":4294967295}],"vout":[{"value":0.04960578,"n":0,"scriptPubKey":{"asm":"OP_DUP OP_HASH160 4c28ee798243702bc4500cdb4da9004130bb47f6 OP_EQUALVERIFY OP_CHECKSIG","reqSigs":1,"type":"pubkeyhash","addresses":["pCVGbFvFLapGyskXvwfxG2ss21bRU9FqUh"]}},{"value":0.11195219,"n":1,"scriptPubKey":{"asm":"OP_DUP OP_HASH160 0d97dd99ea4bb08b5c30b9ea9c61c493ed433c03 OP_EQUALVERIFY OP_CHECKSIG","reqSigs":1,"type":"pubkeyhash","addresses":["p6nSv1S8LGjisjjQMcRYEeA8MUv6bN81fk"]}}],"blockhash":"28926d12cbd7bef5db7685a8e9f3dd1e0103a28c990e6dbdb4c7adcd1a2c9ec2","confirmations":254,"blocktime":1540767776}