{"hex":"010000002040d65b013cf59d95686209ac23abc361463827ed4b8136c96a0627fe646f5e7acf03bbe602000000484730440220395dcde32ba6e5f898b3e1846d0845ad67ec0b97312c519338f64a00b0c809c902207ed4c714a99563748b1a96740ae3b46cd5d3d55123b4cc4664e511ddbb61f6d801ffffffff0400000000000000000000a9a1d1010000002321020b1cd26fc4b9f080aea1cf7b667efd5e8453f70429056589831fa7f63506ddbfacdff1b0d1010000002321020b1cd26fc4b9f080aea1cf7b667efd5e8453f70429056589831fa7f63506ddbfac2b250000000000001976a9141992ad5700ade9422585b3e7af7cd994d29d4ca888ac00000000","txid":"d7aa9fce05bca28fc84eb9279697d33f20e8b1c79a758c0208374aea358e1267","version":1,"time":1540767776,"locktime":0,"vin":[{"txid":"e6bb03cf7a5e6f64fe27066ac936814bed27384661c3ab23ac096268959df53c","vout":2,"scriptSig":{"asm":"30440220395dcde32ba6e5f898b3e1846d0845ad67ec0b97312c519338f64a00b0c809c902207ed4c714a99563748b1a96740ae3b46cd5d3d55123b4cc4664e511ddbb61f6d801","hex":"4730440220395dcde32ba6e5f898b3e1846d0845ad67ec0b97312c519338f64a00b0c809c902207ed4c714a99563748b1a96740ae3b46cd5d3d55123b4cc4664e511ddbb61f6d801"},"sequence":4294967295}],"vout":[{"value":0,"n":0,"scriptPubKey":{"asm":"","type":"nonstandard"}},{"value":78.12,"n":1,"scriptPubKey":{"asm":"020b1cd26fc4b9f080aea1cf7b667efd5e8453f70429056589831fa7f63506ddbf OP_CHECKSIG","reqSigs":1,"type":"pubkey","addresses":["pECTDpfW4nW8hYte3f3F9ZQxwgWmBwmcYL"]}},{"value":78.13001695,"n":2,"scriptPubKey":{"asm":"020b1cd26fc4b9f080aea1cf7b667efd5e8453f70429056589831fa7f63506ddbf OP_CHECKSIG","reqSigs":1,"type":"pubkey","addresses":["pECTDpfW4nW8hYte3f3F9ZQxwgWmBwmcYL"]}},{"value":0.00009515,"n":3,"scriptPubKey":{"asm":"OP_DUP OP_HASH160 1992ad5700ade9422585b3e7af7cd994d29d4ca8 OP_EQUALVERIFY OP_CHECKSIG","reqSigs":1,"type":"pubkeyhash","addresses":["p7snoofvhm9cmcDcAmpbzCVHFFEt2fdccj"]}}],"blockhash":"28926d12cbd7bef5db7685a8e9f3dd1e0103a28c990e6dbdb4c7adcd1a2c9ec2","confirmations":254,"blocktime":1540767776}