{"hex":"01000000a05edf5b0107e8b6c2e2871a9e196d6565be86946160aa5632877c03c56e8bd21fbf686e470100000049483045022100a9516e5d1c7edaee9489f7d644aeaf412bc1df8096546feda2b52acdf374ff1a02207cdb3f9cdb8a4d99b2cfcbb7db74f297ce5fe2bfcb7ee0096cf56f815cae505f01ffffffff030000000000000000007963cf3c00000000232103b243e492fed06b260d1c6384b7578d20f178d778b69bc3ca5028e941e4ef64acac18e40300000000001976a91473471adebcd697ea1dc18e8db2582a74a6bab88188ac00000000","txid":"7a8fda7099b660047ea4739e7d12f1898ae8e84ecdd166efe6e7c34f65e0c9a5","version":1,"time":1541365408,"locktime":0,"vin":[{"txid":"476e68bf1fd28b6ec5037c873256aa60619486be65656d199e1a87e2c2b6e807","vout":1,"scriptSig":{"asm":"3045022100a9516e5d1c7edaee9489f7d644aeaf412bc1df8096546feda2b52acdf374ff1a02207cdb3f9cdb8a4d99b2cfcbb7db74f297ce5fe2bfcb7ee0096cf56f815cae505f01","hex":"483045022100a9516e5d1c7edaee9489f7d644aeaf412bc1df8096546feda2b52acdf374ff1a02207cdb3f9cdb8a4d99b2cfcbb7db74f297ce5fe2bfcb7ee0096cf56f815cae505f01"},"sequence":4294967295}],"vout":[{"value":0,"n":0,"scriptPubKey":{"asm":"","type":"nonstandard"}},{"value":10.20224377,"n":1,"scriptPubKey":{"asm":"03b243e492fed06b260d1c6384b7578d20f178d778b69bc3ca5028e941e4ef64ac OP_CHECKSIG","reqSigs":1,"type":"pubkey","addresses":["pU498g2Tze2KypwgCnomJXchMWH8HXyZb6"]}},{"value":0.00255,"n":2,"scriptPubKey":{"asm":"OP_DUP OP_HASH160 73471adebcd697ea1dc18e8db2582a74a6bab881 OP_EQUALVERIFY OP_CHECKSIG","reqSigs":1,"type":"pubkeyhash","addresses":["pG476E2NDDXyKLQPSQr8zUwis1yY3UyfR9"]}}],"blockhash":"9a02ef3bb661d1920cc13177f018e70efd9d04da5bb21a033039992eedccc16d","confirmations":44,"blocktime":1541365408}