{"hex":"01000000975edf5b01fbab0c2efd000487b2fdc3a4aada51a399fa6244fa52e888f22176fe9b92da9401000000484730440220213db3fd88bce743f202b339353f27bbe9a2777c98a31dfddb72b1388c78fbb50220780caee1c415bb2b9cdd1ccc792a787aebc9c26b02496129d3b824d5f850b82201ffffffff02200d43233a0000001976a914b9f3d781f7d99f65d068998a288759e0a638d31288ac00a3e111000000001976a9149e327f366ecb9e4d243a05dfc58009adced9d83188ac00000000","txid":"79e357ddf2ec87089f2eb5d692824d39ce14ffa420fc060a4de1be87b3548b7a","version":1,"time":1541365408,"locktime":0,"vin":[{"txid":"94da929bfe7621f288e852fa4462fa99a351daaaa4c3fdb2870400fd2e0cabfb","vout":1,"scriptSig":{"asm":"30440220213db3fd88bce743f202b339353f27bbe9a2777c98a31dfddb72b1388c78fbb50220780caee1c415bb2b9cdd1ccc792a787aebc9c26b02496129d3b824d5f850b82201","hex":"4730440220213db3fd88bce743f202b339353f27bbe9a2777c98a31dfddb72b1388c78fbb50220780caee1c415bb2b9cdd1ccc792a787aebc9c26b02496129d3b824d5f850b82201"},"sequence":4294967295}],"vout":[{"value":2496.997,"n":0,"scriptPubKey":{"asm":"OP_DUP OP_HASH160 b9f3d781f7d99f65d068998a288759e0a638d312 OP_EQUALVERIFY OP_CHECKSIG","reqSigs":1,"type":"pubkeyhash","addresses":["pNVoKczQ6P92yawDZejgg9H8khMTR2Sf2j"]}},{"value":3,"n":1,"scriptPubKey":{"asm":"OP_DUP OP_HASH160 9e327f366ecb9e4d243a05dfc58009adced9d831 OP_EQUALVERIFY OP_CHECKSIG","reqSigs":1,"type":"pubkeyhash","addresses":["pKy3TbuH7PjL9JeubdQGw7skNW1gmYiKku"]}}],"blockhash":"9a02ef3bb661d1920cc13177f018e70efd9d04da5bb21a033039992eedccc16d","confirmations":44,"blocktime":1541365408}