{"hex":"01000000199ec25b010000000000000000000000000000000000000000000000000000000000000000ffffffff03580102ffffffff0100000000000000001976a914ea979e0ce6eb0b1b5c16a80c5a67e587ee8ad4e788ac00000000","txid":"cab3a240e24cb854e05fd6ca6070b49aeec87e07c9c4a96eb35d5c17d974cb10","version":1,"time":1539481117,"locktime":0,"vin":[{"coinbase":"580102","sequence":4294967295}],"vout":[{"value":0,"n":0,"scriptPubKey":{"asm":"OP_DUP OP_HASH160 ea979e0ce6eb0b1b5c16a80c5a67e587ee8ad4e7 OP_EQUALVERIFY OP_CHECKSIG","reqSigs":1,"type":"pubkeyhash","addresses":["pSvyx9uhVWWfcKQenVzcMRSvA43WYNNBig"]}}],"blockhash":"00000dd2e50aee4d93a480769582535c5a01d843fa34f88f5d9f577aefe9b0b8","confirmations":437,"blocktime":1539481117}