{"hex":"01000000d0aad65b01d450fa22b1c9a4a898d3fccf6a3e22abf221427c6c5ea7ca96b9ccab9ab306d601000000484730440220099686fb8e432d28c1c43c99ecc7a799404e0d805db907997fa12d422a0b4771022057dac35e0e3c57fb9a0eb1fdf02ccaa3dab29b455b69e122489971bcac399c7e01ffffffff0400000000000000000000b2ded1010000002321020b1cd26fc4b9f080aea1cf7b667efd5e8453f70429056589831fa7f63506ddbfac2053e6d1010000002321020b1cd26fc4b9f080aea1cf7b667efd5e8453f70429056589831fa7f63506ddbfaca07f8802000000001976a91422d06420236528fe42b5c2302e36704d85b646de88ac00000000","txid":"a6db1c1ba88d4da59eea25b8a0ebe33c8ec86e6a00f52e472ab5933069acc03a","version":1,"time":1540795088,"locktime":0,"vin":[{"txid":"d606b39aabccb996caa75e6c7c4221f2ab223e6acffcd398a8a4c9b122fa50d4","vout":1,"scriptSig":{"asm":"30440220099686fb8e432d28c1c43c99ecc7a799404e0d805db907997fa12d422a0b4771022057dac35e0e3c57fb9a0eb1fdf02ccaa3dab29b455b69e122489971bcac399c7e01","hex":"4730440220099686fb8e432d28c1c43c99ecc7a799404e0d805db907997fa12d422a0b4771022057dac35e0e3c57fb9a0eb1fdf02ccaa3dab29b455b69e122489971bcac399c7e01"},"sequence":4294967295}],"vout":[{"value":0,"n":0,"scriptPubKey":{"asm":"","type":"nonstandard"}},{"value":78.16,"n":1,"scriptPubKey":{"asm":"020b1cd26fc4b9f080aea1cf7b667efd5e8453f70429056589831fa7f63506ddbf OP_CHECKSIG","reqSigs":1,"type":"pubkey","addresses":["pECTDpfW4nW8hYte3f3F9ZQxwgWmBwmcYL"]}},{"value":78.165,"n":2,"scriptPubKey":{"asm":"020b1cd26fc4b9f080aea1cf7b667efd5e8453f70429056589831fa7f63506ddbf OP_CHECKSIG","reqSigs":1,"type":"pubkey","addresses":["pECTDpfW4nW8hYte3f3F9ZQxwgWmBwmcYL"]}},{"value":0.425,"n":3,"scriptPubKey":{"asm":"OP_DUP OP_HASH160 22d06420236528fe42b5c2302e36704d85b646de OP_EQUALVERIFY OP_CHECKSIG","reqSigs":1,"type":"pubkeyhash","addresses":["p8iepVjrqbjo1uNb8dyXKBBerSUv6zrPfw"]}}],"blockhash":"e22eeb815aa7f40dbd22ddf2ebe8c7d0dc7158e354fb9546cd3125d5b16e3729","confirmations":233,"blocktime":1540795088}