{"hex":"01000000c7aad65b0129bf178bbf3e4b08c2355c54e32a34178c98ad0778a19585f8281ca8a8629e20000000006a473044022026a56863cbdd036c94564a1349a3bcb938720fce45b4e8e1ea2376d372f5af10022071defea1df07ab27a093314f71c8797ed7ea60bfc26c433a9335ba48443f985c012102a3ec95b87cf29cf879ae429bf0422b17021e869ee1f4df8aec46ce6a7e85d12effffffff0280c190d83f7423001976a914f7f0200f32b32d605d61bb96349df87fbd7a1ffd88ac00743ba40b0000001976a914b0ce8642748d49f1cc613ef2ecf29e7d214262c188ac00000000","txid":"cb48f2eb8de57cf3350de0bf7aa83b5316c2934b05263f871f3ac32c40b7f25c","version":1,"time":1540795088,"locktime":0,"vin":[{"txid":"209e62a8a81c28f88595a17807ad988c17342ae3545c35c2084b3ebf8b17bf29","vout":0,"scriptSig":{"asm":"3044022026a56863cbdd036c94564a1349a3bcb938720fce45b4e8e1ea2376d372f5af10022071defea1df07ab27a093314f71c8797ed7ea60bfc26c433a9335ba48443f985c01 02a3ec95b87cf29cf879ae429bf0422b17021e869ee1f4df8aec46ce6a7e85d12e","hex":"473044022026a56863cbdd036c94564a1349a3bcb938720fce45b4e8e1ea2376d372f5af10022071defea1df07ab27a093314f71c8797ed7ea60bfc26c433a9335ba48443f985c012102a3ec95b87cf29cf879ae429bf0422b17021e869ee1f4df8aec46ce6a7e85d12e"},"sequence":4294967295}],"vout":[{"value":99794417.5,"n":0,"scriptPubKey":{"asm":"OP_DUP OP_HASH160 f7f0200f32b32d605d61bb96349df87fbd7a1ffd OP_EQUALVERIFY OP_CHECKSIG","reqSigs":1,"type":"pubkeyhash","addresses":["pU9YmHGRvuU4S7sZPuVZFBhVYNTWP7mV93"]}},{"value":500,"n":1,"scriptPubKey":{"asm":"OP_DUP OP_HASH160 b0ce8642748d49f1cc613ef2ecf29e7d214262c1 OP_EQUALVERIFY OP_CHECKSIG","reqSigs":1,"type":"pubkeyhash","addresses":["pMfSY3AcSDZ1N7wAM2xZLAyYbC3rciXuRH"]}}],"blockhash":"e22eeb815aa7f40dbd22ddf2ebe8c7d0dc7158e354fb9546cd3125d5b16e3729","confirmations":233,"blocktime":1540795088}