{"hex":"010000002166e05b018b12965fc8f97dad1de1338378044f93876f6aaa989e1250dc80827f2b0e0809010000006b483045022100c9a3804ff94dfc516352c25c81a88b1ccdb5e8b82cb10b7dd7e8b327030e62ac02207e2d400bd7fbb1848599503d0de2ecf32e9efdca2640eae689d11e3a5c0344aa012103b3ca301c05b02c69cc9a077006084a7e4162c55a0111e1ba4bcd191bd714f9dfffffffff02b6e1f802000000001976a914f5f199e113b974a26a906e3b007dd78a900d6af188acc50e1303000000001976a914de0aa9b57065e4f4771db011c06853950b180b5288ac00000000","txid":"b8cfb548b4f9ede6cc0392746d0df47db2711a16f3729ae9e7ee5125d9820933","version":1,"time":1541432880,"locktime":0,"vin":[{"txid":"09080e2b7f8280dc50129e98aa6a6f87934f04788333e11dad7df9c85f96128b","vout":1,"scriptSig":{"asm":"3045022100c9a3804ff94dfc516352c25c81a88b1ccdb5e8b82cb10b7dd7e8b327030e62ac02207e2d400bd7fbb1848599503d0de2ecf32e9efdca2640eae689d11e3a5c0344aa01 03b3ca301c05b02c69cc9a077006084a7e4162c55a0111e1ba4bcd191bd714f9df","hex":"483045022100c9a3804ff94dfc516352c25c81a88b1ccdb5e8b82cb10b7dd7e8b327030e62ac02207e2d400bd7fbb1848599503d0de2ecf32e9efdca2640eae689d11e3a5c0344aa012103b3ca301c05b02c69cc9a077006084a7e4162c55a0111e1ba4bcd191bd714f9df"},"sequence":4294967295}],"vout":[{"value":0.49865142,"n":0,"scriptPubKey":{"asm":"OP_DUP OP_HASH160 f5f199e113b974a26a906e3b007dd78a900d6af1 OP_EQUALVERIFY OP_CHECKSIG","reqSigs":1,"type":"pubkeyhash","addresses":["pTy1BSbNV6jsQ98TyfFvkNXhHik66yRx3C"]}},{"value":0.51580613,"n":1,"scriptPubKey":{"asm":"OP_DUP OP_HASH160 de0aa9b57065e4f4771db011c06853950b180b52 OP_EQUALVERIFY OP_CHECKSIG","reqSigs":1,"type":"pubkeyhash","addresses":["pRnczAWyw2Qo5wcstvjB2Xtt8qXtYqLt9z"]}}],"blockhash":"34c3137ec67e1aeb1ac326ac330f7002ed8da688ec4f0cff7d156ae446391612","confirmations":31,"blocktime":1541432880}