{"hex":"010000003066e05b0153eb991577963920919e4fd60d121fa8976e0bcb312e3141ae42f7022f6e4022010000004847304402205cdf2e5e0d235227d2b9f6ded1084d661f4e08e0b5824819ce40de8b6fc540c002204a104bc0ec4018fb49486b88588760f79aa78ca161c6dd0c90c00f994888e81801ffffffff030000000000000000004bca3d0a00000000232102b1bc1b9bb31a93198ddd4ab8e9d2abee656ad033761f1071919d791842ace534ac43ab0000000000001976a9147a58c93fa5e34c0e7c16492ee8061977495aac7c88ac00000000","txid":"b106803b1d833e3f3efd7d5f74139b556f91c1d6ceacbbd9fc8138ff201fd3f2","version":1,"time":1541432880,"locktime":0,"vin":[{"txid":"22406e2f02f742ae41312e31cb0b6e97a81f120dd64f9e91203996771599eb53","vout":1,"scriptSig":{"asm":"304402205cdf2e5e0d235227d2b9f6ded1084d661f4e08e0b5824819ce40de8b6fc540c002204a104bc0ec4018fb49486b88588760f79aa78ca161c6dd0c90c00f994888e81801","hex":"47304402205cdf2e5e0d235227d2b9f6ded1084d661f4e08e0b5824819ce40de8b6fc540c002204a104bc0ec4018fb49486b88588760f79aa78ca161c6dd0c90c00f994888e81801"},"sequence":4294967295}],"vout":[{"value":0,"n":0,"scriptPubKey":{"asm":"","type":"nonstandard"}},{"value":1.71821643,"n":1,"scriptPubKey":{"asm":"02b1bc1b9bb31a93198ddd4ab8e9d2abee656ad033761f1071919d791842ace534 OP_CHECKSIG","reqSigs":1,"type":"pubkey","addresses":["pTSiMnNaB4wjS22bEGEEkNcu17kmCfBCLj"]}},{"value":0.00043843,"n":2,"scriptPubKey":{"asm":"OP_DUP OP_HASH160 7a58c93fa5e34c0e7c16492ee8061977495aac7c OP_EQUALVERIFY OP_CHECKSIG","reqSigs":1,"type":"pubkeyhash","addresses":["pGhV15RkjbtFhS6uHd3xCvPoNUNQoDMiqz"]}}],"blockhash":"34c3137ec67e1aeb1ac326ac330f7002ed8da688ec4f0cff7d156ae446391612","confirmations":31,"blocktime":1541432880}