{"hex":"010000004070d75b01f2fcfee4934b3e42adc1ef4611ae7516ee2e8d09998ba3e2b2a93abd500159200200000049483045022100ebf9367074fd239e2496576eb25572b80e9efb48169b878ca38df79cd3c75741022068923898eca712f3f361a02cba195d26dfe97f099c5a2f84602d197ee8c28fac01ffffffff03000000000000000000749db1d1010000002321020b1cd26fc4b9f080aea1cf7b667efd5e8453f70429056589831fa7f63506ddbfacc1590100000000001976a914b4297f2bb1ec22148c170ab2f943e6826c4d831d88ac00000000","txid":"46d3f41750c30f7957731c0cac530a3fdae0f6804d769612e90babd402ef4797","version":1,"time":1540845632,"locktime":0,"vin":[{"txid":"20590150bd3aa9b2e2a38b99098d2eee1675ae1146efc1ad423e4b93e4fefcf2","vout":2,"scriptSig":{"asm":"3045022100ebf9367074fd239e2496576eb25572b80e9efb48169b878ca38df79cd3c75741022068923898eca712f3f361a02cba195d26dfe97f099c5a2f84602d197ee8c28fac01","hex":"483045022100ebf9367074fd239e2496576eb25572b80e9efb48169b878ca38df79cd3c75741022068923898eca712f3f361a02cba195d26dfe97f099c5a2f84602d197ee8c28fac01"},"sequence":4294967295}],"vout":[{"value":0,"n":0,"scriptPubKey":{"asm":"","type":"nonstandard"}},{"value":78.1304562,"n":1,"scriptPubKey":{"asm":"020b1cd26fc4b9f080aea1cf7b667efd5e8453f70429056589831fa7f63506ddbf OP_CHECKSIG","reqSigs":1,"type":"pubkey","addresses":["pECTDpfW4nW8hYte3f3F9ZQxwgWmBwmcYL"]}},{"value":0.00088513,"n":2,"scriptPubKey":{"asm":"OP_DUP OP_HASH160 b4297f2bb1ec22148c170ab2f943e6826c4d831d OP_EQUALVERIFY OP_CHECKSIG","reqSigs":1,"type":"pubkeyhash","addresses":["pMyBYUpcH3ehvzacvgmtahza4iSykvMcUD"]}}],"blockhash":"6fd7f4581cc945a592a8b980b231d8b9edf02a72e33fc3c596daab5bf23bcd18","confirmations":171,"blocktime":1540845632}