{"hex":"010000003870d75b01ffde028598ed9990fa715e07067bfa47a987c2aea9a9bea562e14c6855e86555010000006a47304402202420730b48b112eb3a87ae192270f7368b94a76445f6af8b00e96f4e597b4b2b0220502971aec9f1a09d2e1f3f9d4ddba56a73a3eca74dd167db958669137f5831df01210382462f45e561fe1ff9e0c3c58894b4c32c0ad18c8d79f3ea94c6bfd8584dc7e9ffffffff02bde4b603000000001976a9141c4132867796b1952c801a7fbb0efebbca73b05788acc5f33406000000001976a914797d7ec80e9fe7bb5f7dcdd3c9856209f7405e4688ac00000000","txid":"fe86398478949448a6766fcff8e0403df7f1a1adaf5674b70cf2aec5cdbb4fe5","version":1,"time":1540845632,"locktime":0,"vin":[{"txid":"5565e855684ce162a5bea9a9aec287a947fa7b06075e71fa9099ed988502deff","vout":1,"scriptSig":{"asm":"304402202420730b48b112eb3a87ae192270f7368b94a76445f6af8b00e96f4e597b4b2b0220502971aec9f1a09d2e1f3f9d4ddba56a73a3eca74dd167db958669137f5831df01 0382462f45e561fe1ff9e0c3c58894b4c32c0ad18c8d79f3ea94c6bfd8584dc7e9","hex":"47304402202420730b48b112eb3a87ae192270f7368b94a76445f6af8b00e96f4e597b4b2b0220502971aec9f1a09d2e1f3f9d4ddba56a73a3eca74dd167db958669137f5831df01210382462f45e561fe1ff9e0c3c58894b4c32c0ad18c8d79f3ea94c6bfd8584dc7e9"},"sequence":4294967295}],"vout":[{"value":0.62317757,"n":0,"scriptPubKey":{"asm":"OP_DUP OP_HASH160 1c4132867796b1952c801a7fbb0efebbca73b057 OP_EQUALVERIFY OP_CHECKSIG","reqSigs":1,"type":"pubkeyhash","addresses":["p87yE4xf3xr56mnvNyGaSsuVSfBNvnaegd"]}},{"value":1.04133573,"n":1,"scriptPubKey":{"asm":"OP_DUP OP_HASH160 797d7ec80e9fe7bb5f7dcdd3c9856209f7405e46 OP_EQUALVERIFY OP_CHECKSIG","reqSigs":1,"type":"pubkeyhash","addresses":["pGcxJUkCQUxudprryVxhhDY8KBW9um38wy"]}}],"blockhash":"6fd7f4581cc945a592a8b980b231d8b9edf02a72e33fc3c596daab5bf23bcd18","confirmations":171,"blocktime":1540845632}