{"hex":"01000000e1a2c25b010000000000000000000000000000000000000000000000000000000000000000ffffffff0401630102ffffffff0100000000000000001976a914c931c97898eb343801c48546f619a7b531d6d55488ac00000000","txid":"002cfc6940108616feee237bae3b1d42d6c95b4ce7543d232579b22056d3aed5","version":1,"time":1539482340,"locktime":0,"vin":[{"coinbase":"01630102","sequence":4294967295}],"vout":[{"value":0,"n":0,"scriptPubKey":{"asm":"OP_DUP OP_HASH160 c931c97898eb343801c48546f619a7b531d6d554 OP_EQUALVERIFY OP_CHECKSIG","reqSigs":1,"type":"pubkeyhash","addresses":["pPtPfXP4YypfjmyVAfZ22EjRLoHdvWCP4g"]}}],"blockhash":"000000846a6c16f5af556bbaa2b183db9a3b623af06e0ce86236292b9182bd2c","confirmations":60,"blocktime":1539482340}