{"hex":"01000000c0aacc5b016c602f234218aea31d1e22cb9ca852e8cf43733840a3e98cc837ccddaf00f383020000004847304402201de7bd620e010225d1041ccdd7622b549c02f0ac3b306aa0cf304208881beb3b02200be0554a21d8ce17e6cff92d31e5104c18ee9bad031f6f253af281b80b09682101ffffffff04000000000000000000c0856b470700000023210348b24f77eda58d2bf0bd56f764cfdeb0100d2f1058b2d5318f2f2fc9670e730eaccf856b470700000023210348b24f77eda58d2bf0bd56f764cfdeb0100d2f1058b2d5318f2f2fc9670e730eac55000000000000001976a9144c28ee798243702bc4500cdb4da9004130bb47f688ac00000000","txid":"0544b13982bd3546752c36295d3674749d060aeb3324be84bf2e89f88775af28","version":1,"time":1540139712,"locktime":0,"vin":[{"txid":"83f300afddcc37c88ce9a340387343cfe852a89ccb221e1da3ae1842232f606c","vout":2,"scriptSig":{"asm":"304402201de7bd620e010225d1041ccdd7622b549c02f0ac3b306aa0cf304208881beb3b02200be0554a21d8ce17e6cff92d31e5104c18ee9bad031f6f253af281b80b09682101","hex":"47304402201de7bd620e010225d1041ccdd7622b549c02f0ac3b306aa0cf304208881beb3b02200be0554a21d8ce17e6cff92d31e5104c18ee9bad031f6f253af281b80b09682101"},"sequence":4294967295}],"vout":[{"value":0,"n":0,"scriptPubKey":{"asm":"","type":"nonstandard"}},{"value":312.63,"n":1,"scriptPubKey":{"asm":"0348b24f77eda58d2bf0bd56f764cfdeb0100d2f1058b2d5318f2f2fc9670e730e OP_CHECKSIG","reqSigs":1,"type":"pubkey","addresses":["p8X7huKtvdnnDzc17Xcxxh1Z9ww8ckxvVJ"]}},{"value":312.63000015,"n":2,"scriptPubKey":{"asm":"0348b24f77eda58d2bf0bd56f764cfdeb0100d2f1058b2d5318f2f2fc9670e730e OP_CHECKSIG","reqSigs":1,"type":"pubkey","addresses":["p8X7huKtvdnnDzc17Xcxxh1Z9ww8ckxvVJ"]}},{"value":8.5e-7,"n":3,"scriptPubKey":{"asm":"OP_DUP OP_HASH160 4c28ee798243702bc4500cdb4da9004130bb47f6 OP_EQUALVERIFY OP_CHECKSIG","reqSigs":1,"type":"pubkeyhash","addresses":["pCVGbFvFLapGyskXvwfxG2ss21bRU9FqUh"]}}],"blockhash":"de84e0308c8a602363218d638e0ab7a92cdbfddd00799e16c3d90493feb77f48","confirmations":13,"blocktime":1540139712}