{"hex":"01000000bbaacc5b010796a167d48bb679360e91070ff4223f110667a028ea25e075a03a30c60750cf000000006b483045022100da1cf4e8651cb9aac684eb29212ad1491c4e197040bedf322dce35742b5d064d022031d89a6d9afd8d6b289a96769b39c8e67ef16affe6db7cb4b0af54e00deea810012102be5172b5883fd5b96836883f725362a839d1220398cba2a0bbd0fdc3aed36d6affffffff02a857f802000000001976a91483bde3746c4db42e0af51710fb8af03137be5fe788ac204e0000000000001976a91488d0038b819535ca670e06499b0fba504eccb1b288ac00000000","txid":"96a7490aaa608ec3ca8b8e635e72bb733ead6ed83672ec1ad7c21244aacb94f7","version":1,"time":1540139712,"locktime":0,"vin":[{"txid":"cf5007c6303aa075e025ea28a06706113f22f40f07910e3679b68bd467a19607","vout":0,"scriptSig":{"asm":"3045022100da1cf4e8651cb9aac684eb29212ad1491c4e197040bedf322dce35742b5d064d022031d89a6d9afd8d6b289a96769b39c8e67ef16affe6db7cb4b0af54e00deea81001 02be5172b5883fd5b96836883f725362a839d1220398cba2a0bbd0fdc3aed36d6a","hex":"483045022100da1cf4e8651cb9aac684eb29212ad1491c4e197040bedf322dce35742b5d064d022031d89a6d9afd8d6b289a96769b39c8e67ef16affe6db7cb4b0af54e00deea810012102be5172b5883fd5b96836883f725362a839d1220398cba2a0bbd0fdc3aed36d6a"},"sequence":4294967295}],"vout":[{"value":0.498298,"n":0,"scriptPubKey":{"asm":"OP_DUP OP_HASH160 83bde3746c4db42e0af51710fb8af03137be5fe7 OP_EQUALVERIFY OP_CHECKSIG","reqSigs":1,"type":"pubkeyhash","addresses":["pHZACX57LreqSHnEBs2nyvX1EVbE8woTLC"]}},{"value":0.0002,"n":1,"scriptPubKey":{"asm":"OP_DUP OP_HASH160 88d0038b819535ca670e06499b0fba504eccb1b2 OP_EQUALVERIFY OP_CHECKSIG","reqSigs":1,"type":"pubkeyhash","addresses":["pJ1yHrFbQ1afKyNTNpdJEZ7ys3JzAdktry"]}}],"blockhash":"de84e0308c8a602363218d638e0ab7a92cdbfddd00799e16c3d90493feb77f48","confirmations":13,"blocktime":1540139712}