{"hex":"010000006098d65b01f2d7725bc60a500f34089adbec75ea4ff97774d644f54fcd3b9eadff819b56aa0100000049483045022100ba3929dddb8464aca334c8593c64a306b4ad4989ccb26569c56b9af5ca8cd8e102203b5d02d8c0fe2819e544ca50b3fccc577092ae967c6443c36f55da5be41e8a1401ffffffff0400000000000000000000a9a1d1010000002321020b1cd26fc4b9f080aea1cf7b667efd5e8453f70429056589831fa7f63506ddbfac4febb0d1010000002321020b1cd26fc4b9f080aea1cf7b667efd5e8453f70429056589831fa7f63506ddbfac55000000000000001976a9147cf288aefa27580772a2e44d947f0a962553405d88ac00000000","txid":"6da94063e8b92519f8430380946776b3cb3ed0210b5bf6df7cf9f6fbf3f027c7","version":1,"time":1540790368,"locktime":0,"vin":[{"txid":"aa569b81ffad9e3bcd4ff544d67477f94fea75ecdb9a08340f500ac65b72d7f2","vout":1,"scriptSig":{"asm":"3045022100ba3929dddb8464aca334c8593c64a306b4ad4989ccb26569c56b9af5ca8cd8e102203b5d02d8c0fe2819e544ca50b3fccc577092ae967c6443c36f55da5be41e8a1401","hex":"483045022100ba3929dddb8464aca334c8593c64a306b4ad4989ccb26569c56b9af5ca8cd8e102203b5d02d8c0fe2819e544ca50b3fccc577092ae967c6443c36f55da5be41e8a1401"},"sequence":4294967295}],"vout":[{"value":0,"n":0,"scriptPubKey":{"asm":"","type":"nonstandard"}},{"value":78.12,"n":1,"scriptPubKey":{"asm":"020b1cd26fc4b9f080aea1cf7b667efd5e8453f70429056589831fa7f63506ddbf OP_CHECKSIG","reqSigs":1,"type":"pubkey","addresses":["pECTDpfW4nW8hYte3f3F9ZQxwgWmBwmcYL"]}},{"value":78.13000015,"n":2,"scriptPubKey":{"asm":"020b1cd26fc4b9f080aea1cf7b667efd5e8453f70429056589831fa7f63506ddbf OP_CHECKSIG","reqSigs":1,"type":"pubkey","addresses":["pECTDpfW4nW8hYte3f3F9ZQxwgWmBwmcYL"]}},{"value":8.5e-7,"n":3,"scriptPubKey":{"asm":"OP_DUP OP_HASH160 7cf288aefa27580772a2e44d947f0a962553405d OP_EQUALVERIFY OP_CHECKSIG","reqSigs":1,"type":"pubkeyhash","addresses":["pGwEY3YdfsrsoLzpPy8zj5rEMTsKeC6Mb3"]}}],"blockhash":"72a35b1dc90c066452e736d852e3d199c6c991ff86ce607b5e5378a368a774f2","confirmations":245,"blocktime":1540790368}