{"hex":"010000005398d65b013b2217b9ef863f6ca9ce3cce3567ad399b1d477c74b91366dcf1cbc8b523fa7b000000006b48304502210095a7df61c4eaa2fa7b9c923f50bd9a8989b14de427d5c290d54bd4f27b41b37402203b724106e7151a819130a848b3da3fbef96ccaaa04405d3485722075bb6133e3012102fa473d1b5d08dadb77ca57c193060e99220e96408ff1a3b6fa61131eb6f07f62ffffffff0212241300000000001976a9149c729844c2b78aab1e951fddee3f00aab183f65788ac10270000000000001976a9147644efb2f98070ab8304baf1c13f70d6ff68c27788ac00000000","txid":"bb89f84e36d292199fc85f9bc03f3634af9c949f2b5074ced6a3f35323c809b8","version":1,"time":1540790368,"locktime":0,"vin":[{"txid":"7bfa23b5c8cbf1dc6613b9747c471d9b39ad6735ce3ccea96c3f86efb917223b","vout":0,"scriptSig":{"asm":"304502210095a7df61c4eaa2fa7b9c923f50bd9a8989b14de427d5c290d54bd4f27b41b37402203b724106e7151a819130a848b3da3fbef96ccaaa04405d3485722075bb6133e301 02fa473d1b5d08dadb77ca57c193060e99220e96408ff1a3b6fa61131eb6f07f62","hex":"48304502210095a7df61c4eaa2fa7b9c923f50bd9a8989b14de427d5c290d54bd4f27b41b37402203b724106e7151a819130a848b3da3fbef96ccaaa04405d3485722075bb6133e3012102fa473d1b5d08dadb77ca57c193060e99220e96408ff1a3b6fa61131eb6f07f62"},"sequence":4294967295}],"vout":[{"value":0.01254418,"n":0,"scriptPubKey":{"asm":"OP_DUP OP_HASH160 9c729844c2b78aab1e951fddee3f00aab183f657 OP_EQUALVERIFY OP_CHECKSIG","reqSigs":1,"type":"pubkeyhash","addresses":["pKontpMjpEnnbLzf4WByLHP8KECMcpSKrL"]}},{"value":0.0001,"n":1,"scriptPubKey":{"asm":"OP_DUP OP_HASH160 7644efb2f98070ab8304baf1c13f70d6ff68c277 OP_EQUALVERIFY OP_CHECKSIG","reqSigs":1,"type":"pubkeyhash","addresses":["pGKvX7zTUoszjqX3isNoZuGqfxjuZZNAYs"]}}],"blockhash":"72a35b1dc90c066452e736d852e3d199c6c991ff86ce607b5e5378a368a774f2","confirmations":245,"blocktime":1540790368}