{"hex":"0100000042a2c25b010000000000000000000000000000000000000000000000000000000000000000ffffffff0401520102ffffffff0100000000000000001976a9148aef167d860d59ae6cc4304c1b3c3c70e7762bb388ac00000000","txid":"57f15bb5111a6bb3a030951a9d51c370d6d68ed954692ffd705bdbed49b9aecd","version":1,"time":1539482185,"locktime":0,"vin":[{"coinbase":"01520102","sequence":4294967295}],"vout":[{"value":0,"n":0,"scriptPubKey":{"asm":"OP_DUP OP_HASH160 8aef167d860d59ae6cc4304c1b3c3c70e7762bb3 OP_EQUALVERIFY OP_CHECKSIG","reqSigs":1,"type":"pubkeyhash","addresses":["pJDBsHyDK64UuujNmnsE5Yw1GgUvEbK3EN"]}}],"blockhash":"0000055f5efc2188870afd45c42fa69212b07eb88feb690e33eee102b4c9a59e","confirmations":363,"blocktime":1539482185}