{"hex":"0100000050a3c25b01b9560c9c7e1a0b07b8cefa852324db7dd4f5049f3c447a982bf391ee94a97cce010000004847304402202053061afe22fb1c51215b0d2d468df3495ec85b4b600ef3b5ee45f5dee758e202207e3eba29d2deca767d5017f3d66dd5f11d3bb5c0bb7965659570e3238273716601ffffffff020000000000000000000046c32300000000232102f3989f15f82309adefe5e4f6bf746db84b8df805e22eecc7bd374f31e8daa38aac00000000","txid":"881699f4057a2239a7a0fd34ebaf8e5d7dc6cebac4929533432b4feda5b49a3a","version":1,"time":1539482448,"locktime":0,"vin":[{"txid":"ce7ca994ee91f32b987a443c9f04f5d47ddb242385faceb8070b1a7e9c0c56b9","vout":1,"scriptSig":{"asm":"304402202053061afe22fb1c51215b0d2d468df3495ec85b4b600ef3b5ee45f5dee758e202207e3eba29d2deca767d5017f3d66dd5f11d3bb5c0bb7965659570e3238273716601","hex":"47304402202053061afe22fb1c51215b0d2d468df3495ec85b4b600ef3b5ee45f5dee758e202207e3eba29d2deca767d5017f3d66dd5f11d3bb5c0bb7965659570e3238273716601"},"sequence":4294967295}],"vout":[{"value":0,"n":0,"scriptPubKey":{"asm":"","type":"nonstandard"}},{"value":6,"n":1,"scriptPubKey":{"asm":"02f3989f15f82309adefe5e4f6bf746db84b8df805e22eecc7bd374f31e8daa38a OP_CHECKSIG","reqSigs":1,"type":"pubkey","addresses":["pS6kv8sUdNg7tBDNfNMnPMqsD2dQR4HfTQ"]}}],"blockhash":"161aba1af36504efd5d57894b01ab8650ac70abda250bc9d4ceb83d51166f86e","confirmations":57,"blocktime":1539482448}