{"hex":"0100000049a3c25b0139584852b7aa6b9c428a7010a1a94f8513dcdd823701967ec0a8ed19d28863e1000000006a47304402204733a43312ff3ee4d4edb70fd62016b9de3aed0375864143233c13373e487eef02203a258c1f4e99d711950ae5183f9dd7193085ea76020e8d1748bdec35dc303b67012103a6dff7d16dce4cf44d4fce07b863c07ea6ad696f3c07e6b123a6b00c3027fbb5ffffffff02008e8920ac8423001976a914aaa39f5c65eb5160775d711bd737a00dfa695a6488ac0088526a740000001976a9146ee8ae815746df1e1038d51169f823db3353ab0488ac00000000","txid":"f212d554563324395087075a4b375e30e1476be8b09a5189e7519e4a58c4e24f","version":1,"time":1539482448,"locktime":0,"vin":[{"txid":"e16388d219eda8c07e96013782dddc13854fa9a110708a429c6baab752485839","vout":0,"scriptSig":{"asm":"304402204733a43312ff3ee4d4edb70fd62016b9de3aed0375864143233c13373e487eef02203a258c1f4e99d711950ae5183f9dd7193085ea76020e8d1748bdec35dc303b6701 03a6dff7d16dce4cf44d4fce07b863c07ea6ad696f3c07e6b123a6b00c3027fbb5","hex":"47304402204733a43312ff3ee4d4edb70fd62016b9de3aed0375864143233c13373e487eef02203a258c1f4e99d711950ae5183f9dd7193085ea76020e8d1748bdec35dc303b67012103a6dff7d16dce4cf44d4fce07b863c07ea6ad696f3c07e6b123a6b00c3027fbb5"},"sequence":4294967295}],"vout":[{"value":99974990,"n":0,"scriptPubKey":{"asm":"OP_DUP OP_HASH160 aaa39f5c65eb5160775d711bd737a00dfa695a64 OP_EQUALVERIFY OP_CHECKSIG","reqSigs":1,"type":"pubkeyhash","addresses":["pM6q61Pjp7yPE2Ts2yDgFVVTKcv8oF7seY"]}},{"value":5000,"n":1,"scriptPubKey":{"asm":"OP_DUP OP_HASH160 6ee8ae815746df1e1038d51169f823db3353ab04 OP_EQUALVERIFY OP_CHECKSIG","reqSigs":1,"type":"pubkeyhash","addresses":["pFf1Gp4G6PCkSUxUY1XLwNBH2ji6sBJMC3"]}}],"blockhash":"161aba1af36504efd5d57894b01ab8650ac70abda250bc9d4ceb83d51166f86e","confirmations":57,"blocktime":1539482448}