{"hex":"0100000030abe05b010720bf23667ff67a36250a5014069e846e782176a701f3ddc79f1503c3983479010000006a473044022037c1bba125a14d15df84d0b83ceb2f08dc6749926d07b68771879e372b3f82b802204bf39169972fedc94844254e9d95580d7fe678c48b212edeeb86818bd85ea2900121035dc0415516a772767206a7a9f6dcb6dc06e54e5e47c2e0d7a4d44fda4792c683ffffffff04000000000000000000004429353a0000002321035dc0415516a772767206a7a9f6dcb6dc06e54e5e47c2e0d7a4d44fda4792c683ac0f4429353a0000002321035dc0415516a772767206a7a9f6dcb6dc06e54e5e47c2e0d7a4d44fda4792c683ac55000000000000001976a9144c86b0b2edcbbfcf0d0112bbb160a541568205b788ac00000000","txid":"1c2395a9a15baff730f8b92653daba040cb594463b0b76b3e08368c4c5a334e5","version":1,"time":1541450544,"locktime":0,"vin":[{"txid":"793498c303159fc7ddf301a77621786e849e0614500a25367af67f6623bf2007","vout":1,"scriptSig":{"asm":"3044022037c1bba125a14d15df84d0b83ceb2f08dc6749926d07b68771879e372b3f82b802204bf39169972fedc94844254e9d95580d7fe678c48b212edeeb86818bd85ea29001 035dc0415516a772767206a7a9f6dcb6dc06e54e5e47c2e0d7a4d44fda4792c683","hex":"473044022037c1bba125a14d15df84d0b83ceb2f08dc6749926d07b68771879e372b3f82b802204bf39169972fedc94844254e9d95580d7fe678c48b212edeeb86818bd85ea2900121035dc0415516a772767206a7a9f6dcb6dc06e54e5e47c2e0d7a4d44fda4792c683"},"sequence":4294967295}],"vout":[{"value":0,"n":0,"scriptPubKey":{"asm":"","type":"nonstandard"}},{"value":2500,"n":1,"scriptPubKey":{"asm":"035dc0415516a772767206a7a9f6dcb6dc06e54e5e47c2e0d7a4d44fda4792c683 OP_CHECKSIG","reqSigs":1,"type":"pubkey","addresses":["pGhV15RkjbtFhS6uHd3xCvPoNUNQoDMiqz"]}},{"value":2500.00000015,"n":2,"scriptPubKey":{"asm":"035dc0415516a772767206a7a9f6dcb6dc06e54e5e47c2e0d7a4d44fda4792c683 OP_CHECKSIG","reqSigs":1,"type":"pubkey","addresses":["pGhV15RkjbtFhS6uHd3xCvPoNUNQoDMiqz"]}},{"value":8.5e-7,"n":3,"scriptPubKey":{"asm":"OP_DUP OP_HASH160 4c86b0b2edcbbfcf0d0112bbb160a541568205b7 OP_EQUALVERIFY OP_CHECKSIG","reqSigs":1,"type":"pubkeyhash","addresses":["pCXCuj4F9uaYHMue5Nqy3XLKdLz4U9gRoi"]}}],"blockhash":"e73494c315ed4f6f565ec9b4790cd36670aa4e9044cd13dd2a9a1d85f035896a","confirmations":8,"blocktime":1541450544}