{"hex":"0100000023abe05b0190166f05f86dc16039a5bade751ee8bd6b8d75b5a1b0cb4ca3045272bdc7b3b1000000006a47304402207521ab1b3aaaf111cb766da41f54eb0e73b87e483430f73e26f1383effc81244022024fd5b85dff26d7625a6028c871b78446b7d0cc6e0389db031703fb4082f5c200121038f22ac2aff07c2ee0e7240adc7edc28902526830d56f148597b6e5eba2cc3b6bffffffff0284b90f00000000001976a914b36b2ef2891f0d154c3c3ad3151858343c9dda0f88ac9afa0000000000001976a914df6b6b3d2a1926e95376b18337da0db32e4a7c4b88ac00000000","txid":"fbc9354141241bc07c55f2267b95a99d3d02c2a4a7d2d1a1b759a0021468539a","version":1,"time":1541450544,"locktime":0,"vin":[{"txid":"b1b3c7bd725204a34ccbb0a1b5758d6bbde81e75debaa53960c16df8056f1690","vout":0,"scriptSig":{"asm":"304402207521ab1b3aaaf111cb766da41f54eb0e73b87e483430f73e26f1383effc81244022024fd5b85dff26d7625a6028c871b78446b7d0cc6e0389db031703fb4082f5c2001 038f22ac2aff07c2ee0e7240adc7edc28902526830d56f148597b6e5eba2cc3b6b","hex":"47304402207521ab1b3aaaf111cb766da41f54eb0e73b87e483430f73e26f1383effc81244022024fd5b85dff26d7625a6028c871b78446b7d0cc6e0389db031703fb4082f5c200121038f22ac2aff07c2ee0e7240adc7edc28902526830d56f148597b6e5eba2cc3b6b"},"sequence":4294967295}],"vout":[{"value":0.01030532,"n":0,"scriptPubKey":{"asm":"OP_DUP OP_HASH160 b36b2ef2891f0d154c3c3ad3151858343c9dda0f OP_EQUALVERIFY OP_CHECKSIG","reqSigs":1,"type":"pubkeyhash","addresses":["pMuFZGwGPatDeyGpnmkoc8h2FBh9noaY4C"]}},{"value":0.00064154,"n":1,"scriptPubKey":{"asm":"OP_DUP OP_HASH160 df6b6b3d2a1926e95376b18337da0db32e4a7c4b OP_EQUALVERIFY OP_CHECKSIG","reqSigs":1,"type":"pubkeyhash","addresses":["pRuua5azwpFiurbDavwfkYnALcxwP33YuA"]}}],"blockhash":"e73494c315ed4f6f565ec9b4790cd36670aa4e9044cd13dd2a9a1d85f035896a","confirmations":8,"blocktime":1541450544}