{"hex":"010000009b8ce05b019229ede939641943be63f72e399b52632e04c90dddd9e0ddacdd5e938016e7f1000000006a47304402203212af74a6a21e1c62be3f313b0851a1bcb02456ad0a2e029f4e4db0cec7dfec022034905cb2352e5e1506f5e1a51e11606490e8cd16afd9df3aca9b2c23c430fbeb01210310980bc4ce97d190f12bcd62c639af50e492f51c4ffdc672fc206575f66f7aebffffffff021af23b02000000001976a91417d73572ed97c25affb1ab2f78d95ff672a44fc788ac52e5ea09000000001976a914360555b55b174b0811860e58d23243142ba418f688ac00000000","txid":"78017109b1ce6bf588b5372b2b78c9b4e6755c4e0397acab2d9df29bac69676f","version":1,"time":1541442720,"locktime":0,"vin":[{"txid":"f1e71680935eddacdde0d9dd0dc9042e63529b392ef763be43196439e9ed2992","vout":0,"scriptSig":{"asm":"304402203212af74a6a21e1c62be3f313b0851a1bcb02456ad0a2e029f4e4db0cec7dfec022034905cb2352e5e1506f5e1a51e11606490e8cd16afd9df3aca9b2c23c430fbeb01 0310980bc4ce97d190f12bcd62c639af50e492f51c4ffdc672fc206575f66f7aeb","hex":"47304402203212af74a6a21e1c62be3f313b0851a1bcb02456ad0a2e029f4e4db0cec7dfec022034905cb2352e5e1506f5e1a51e11606490e8cd16afd9df3aca9b2c23c430fbeb01210310980bc4ce97d190f12bcd62c639af50e492f51c4ffdc672fc206575f66f7aeb"},"sequence":4294967295}],"vout":[{"value":0.37483034,"n":0,"scriptPubKey":{"asm":"OP_DUP OP_HASH160 17d73572ed97c25affb1ab2f78d95ff672a44fc7 OP_EQUALVERIFY OP_CHECKSIG","reqSigs":1,"type":"pubkeyhash","addresses":["p7idZ5x7Kv648yN63ed3X1qcnSkwWC76dP"]}},{"value":1.66389074,"n":1,"scriptPubKey":{"asm":"OP_DUP OP_HASH160 360555b55b174b0811860e58d23243142ba418f6 OP_EQUALVERIFY OP_CHECKSIG","reqSigs":1,"type":"pubkeyhash","addresses":["pAUD5jT1paQNdBJdfzmKtmiBm4QfD6wmgu"]}}],"blockhash":"bd8558ddda7e901b537969a3d0e85e116227c4e5ed76aa5a30803b9199bcfe46","confirmations":16,"blocktime":1541442720}