{"hex":"01000000a08ce05b017acc7874a444a7fdad8ebcf1c25d95e372b201de03e73878c6713c51063c38e9010000004847304402201fa075b1a19dda688c505a00cad5a524fd5907cdd4e975740b7f7083c30fa7da02204bda28b521f6ea8ca683cd43a2c4a24a5f2319b174b5eabfccfb7367ff4201d701ffffffff0400000000000000000000a2941a1d000000232103c918da721a9564bfde1eb3e347ac352bf028a23eeafc2e69788601adb5b9dfabac7f03951a1d000000232103c918da721a9564bfde1eb3e347ac352bf028a23eeafc2e69788601adb5b9dfabac76280200000000001976a91413cd926daa0b2e1422cabca27e3cbc3aebbee60e88ac00000000","txid":"d526df6b61c7665ea6161982a55ad7f68335f0dee411f18cedc97b9b2585b037","version":1,"time":1541442720,"locktime":0,"vin":[{"txid":"e9383c06513c71c67838e703de01b272e3955dc2f1bc8eadfda744a47478cc7a","vout":1,"scriptSig":{"asm":"304402201fa075b1a19dda688c505a00cad5a524fd5907cdd4e975740b7f7083c30fa7da02204bda28b521f6ea8ca683cd43a2c4a24a5f2319b174b5eabfccfb7367ff4201d701","hex":"47304402201fa075b1a19dda688c505a00cad5a524fd5907cdd4e975740b7f7083c30fa7da02204bda28b521f6ea8ca683cd43a2c4a24a5f2319b174b5eabfccfb7367ff4201d701"},"sequence":4294967295}],"vout":[{"value":0,"n":0,"scriptPubKey":{"asm":"","type":"nonstandard"}},{"value":1250,"n":1,"scriptPubKey":{"asm":"03c918da721a9564bfde1eb3e347ac352bf028a23eeafc2e69788601adb5b9dfab OP_CHECKSIG","reqSigs":1,"type":"pubkey","addresses":["pK5Eddk3vr4yi7hrwuoQfuFmrHAeSuez22"]}},{"value":1250.00024959,"n":2,"scriptPubKey":{"asm":"03c918da721a9564bfde1eb3e347ac352bf028a23eeafc2e69788601adb5b9dfab OP_CHECKSIG","reqSigs":1,"type":"pubkey","addresses":["pK5Eddk3vr4yi7hrwuoQfuFmrHAeSuez22"]}},{"value":0.0014143,"n":3,"scriptPubKey":{"asm":"OP_DUP OP_HASH160 13cd926daa0b2e1422cabca27e3cbc3aebbee60e OP_EQUALVERIFY OP_CHECKSIG","reqSigs":1,"type":"pubkeyhash","addresses":["p7MHJk1NCoVwVPjx7mEGWrpeSkLSYSZyuV"]}}],"blockhash":"bd8558ddda7e901b537969a3d0e85e116227c4e5ed76aa5a30803b9199bcfe46","confirmations":16,"blocktime":1541442720}