{"hex":"01000000d366c35b01d16fe21e16fe82b5c3ffb112ead601d2f2c7b6aba492a4d9ceebd80b6d49dcfd000000006b483045022100bd0fa02b263ff510dc65ae49aa05732c9b136c9530d28a06dfdc9689927e42ac0220774ac742c447769da1c0af1fdaabfc5c8a827db06252e311b8a7529e9e938219012102b5abf375c2ea299d89bbff053194e89d2d4398a15e0474997ad5383cf360cac3ffffffff020098fece917623001976a9140bb53e52eec84f04f25b0be34a408020ffb9696b88ac0088526a740000001976a914c98c77a9774bba2295618369afffb431dfa7a76188ac00000000","txid":"16c21e2edc20283cfb8ab5ed21f27b66efe0ea8a11bf21373b3444e9d124d09f","version":1,"time":1539532512,"locktime":0,"vin":[{"txid":"fddc496d0bd8ebced9a492a4abb6c7f2d201d6ea12b1ffc3b582fe161ee26fd1","vout":0,"scriptSig":{"asm":"3045022100bd0fa02b263ff510dc65ae49aa05732c9b136c9530d28a06dfdc9689927e42ac0220774ac742c447769da1c0af1fdaabfc5c8a827db06252e311b8a7529e9e93821901 02b5abf375c2ea299d89bbff053194e89d2d4398a15e0474997ad5383cf360cac3","hex":"483045022100bd0fa02b263ff510dc65ae49aa05732c9b136c9530d28a06dfdc9689927e42ac0220774ac742c447769da1c0af1fdaabfc5c8a827db06252e311b8a7529e9e938219012102b5abf375c2ea299d89bbff053194e89d2d4398a15e0474997ad5383cf360cac3"},"sequence":4294967295}],"vout":[{"value":99819928,"n":0,"scriptPubKey":{"asm":"OP_DUP OP_HASH160 0bb53e52eec84f04f25b0be34a408020ffb9696b OP_EQUALVERIFY OP_CHECKSIG","reqSigs":1,"type":"pubkeyhash","addresses":["p6cUkqBdLzszmxaMKsx8ewKatVbnfszs7f"]}},{"value":5000,"n":1,"scriptPubKey":{"asm":"OP_DUP OP_HASH160 c98c77a9774bba2295618369afffb431dfa7a761 OP_EQUALVERIFY OP_CHECKSIG","reqSigs":1,"type":"pubkeyhash","addresses":["pPvGJ7RaHWgFFf4mpU2Xn8sUqejUBfqoKj"]}}],"blockhash":"b87b5e4f1a423005e32e129a71dbebe3526ad6fcce1b8634a4c4fe5522e0f14c","confirmations":26,"blocktime":1539532512}