{"hex":"01000000e066c35b0113e356a0c993ed23aaeac954f1b1db7bbd60011820da54b887230b50fc769d640100000049483045022100e4411ce75a02621a87a6b76870687b1f0183aab86e44f16046d10bd60090e6c00220780a18605114c85236957b84e71e5ea208321cf36eaa311e6026ad15f07dab9b01ffffffff030000000000000000000016d63600000000232102f3989f15f82309adefe5e4f6bf746db84b8df805e22eecc7bd374f31e8daa38aac80fe210a000000001976a9148e3f6e3d2f029829ca356517f18e326c94cd54cd88ac00000000","txid":"822fa2b336b3e4243571222b64569f9f02c12e1493eab0eac0cede655e3d5289","version":1,"time":1539532512,"locktime":0,"vin":[{"txid":"649d76fc500b2387b854da20180160bd7bdbb1f154c9eaaa23ed93c9a056e313","vout":1,"scriptSig":{"asm":"3045022100e4411ce75a02621a87a6b76870687b1f0183aab86e44f16046d10bd60090e6c00220780a18605114c85236957b84e71e5ea208321cf36eaa311e6026ad15f07dab9b01","hex":"483045022100e4411ce75a02621a87a6b76870687b1f0183aab86e44f16046d10bd60090e6c00220780a18605114c85236957b84e71e5ea208321cf36eaa311e6026ad15f07dab9b01"},"sequence":4294967295}],"vout":[{"value":0,"n":0,"scriptPubKey":{"asm":"","type":"nonstandard"}},{"value":9.2,"n":1,"scriptPubKey":{"asm":"02f3989f15f82309adefe5e4f6bf746db84b8df805e22eecc7bd374f31e8daa38a OP_CHECKSIG","reqSigs":1,"type":"pubkey","addresses":["pS6kv8sUdNg7tBDNfNMnPMqsD2dQR4HfTQ"]}},{"value":1.7,"n":2,"scriptPubKey":{"asm":"OP_DUP OP_HASH160 8e3f6e3d2f029829ca356517f18e326c94cd54cd OP_EQUALVERIFY OP_CHECKSIG","reqSigs":1,"type":"pubkeyhash","addresses":["pJWi9BXT9hsVaAft92RNcufBy1LZGU4RtT"]}}],"blockhash":"b87b5e4f1a423005e32e129a71dbebe3526ad6fcce1b8634a4c4fe5522e0f14c","confirmations":26,"blocktime":1539532512}