{"hex":"01000000207bd85b019ab4873e41b4c013d33c63b82e230117c2f1657fe6d3bea2caf3ef65e25533e8010000004847304402203ade980727fd55b84d638ce029c97a1660b29156313972a926080a3c41b41eef02207caf3fd25dc7bf50c2d33e4d70c58013b5e44dca05878f404bf72dd2bbb002f801ffffffff030000000000000000001d35b2d1010000002321020b1cd26fc4b9f080aea1cf7b667efd5e8453f70429056589831fa7f63506ddbfac83ed0400000000001976a914868614ec264fbcc17e0fe25b544f0740a29a3ffa88ac00000000","txid":"69e9775530613f877842d96c89a14fde6838d7c422dd0d4de323c8de78125756","version":1,"time":1540913952,"locktime":0,"vin":[{"txid":"e83355e265eff3caa2bed3e67f65f1c21701232eb8633cd313c0b4413e87b49a","vout":1,"scriptSig":{"asm":"304402203ade980727fd55b84d638ce029c97a1660b29156313972a926080a3c41b41eef02207caf3fd25dc7bf50c2d33e4d70c58013b5e44dca05878f404bf72dd2bbb002f801","hex":"47304402203ade980727fd55b84d638ce029c97a1660b29156313972a926080a3c41b41eef02207caf3fd25dc7bf50c2d33e4d70c58013b5e44dca05878f404bf72dd2bbb002f801"},"sequence":4294967295}],"vout":[{"value":0,"n":0,"scriptPubKey":{"asm":"","type":"nonstandard"}},{"value":78.13084445,"n":1,"scriptPubKey":{"asm":"020b1cd26fc4b9f080aea1cf7b667efd5e8453f70429056589831fa7f63506ddbf OP_CHECKSIG","reqSigs":1,"type":"pubkey","addresses":["pECTDpfW4nW8hYte3f3F9ZQxwgWmBwmcYL"]}},{"value":0.00322947,"n":2,"scriptPubKey":{"asm":"OP_DUP OP_HASH160 868614ec264fbcc17e0fe25b544f0740a29a3ffa OP_EQUALVERIFY OP_CHECKSIG","reqSigs":1,"type":"pubkeyhash","addresses":["pHosNaAavGxjBXaJVQnyrJDcTKDMVqKujz"]}}],"blockhash":"32d7bd7a5afdef073d53a65e3f3af9ea73b4916d46c5ba8ec952b243edda511d","confirmations":161,"blocktime":1540913952}