{"hex":"010000001a7bd85b040daca105fac5057b5a5014bbadba38bcd595e633c338bb6fbc91fce399aa359a010000006b483045022100e41c8679905d4c789c7daf7d5575e5a2b41ef553f0eb462deddb95d50708f1db02200fffc80d3856690f09bbd58b65584c115799eb328378abd1ce9db984cd552f6c012103e4c23d5d8e2037c59eaac8bc8f96ab94b82fbeb27fab5de279002e25ba4086d3ffffffff94d42b5f80aec5615b57f9fcc5d8e52e1cb2d2b01ae4a0bb030654f2a0df5464010000006b483045022100fd20a9b2a5f24a6265e231012d986fcb78be3afbf19cceda4b0f8c4b1aecc01c022028a4719ac289ae20f6000e72363ed39e10562641d802e13ce7816634d6d51d8e0121026679dea9dc87c13878f8007d180a6355a4d4c24dc9d8e9bba78a97103aa368bbffffffff8976249c5c13cae6ce6726c11206c1db61a995f429e5532126b5b47c9c5dce82000000006b48304502210081801eb937c1bb8aab4e246beb1f1b567fdbd8c5b76d6f95451adfda36ad8205022025ada587b34019dc707e66834f25b0731a75ef1d4e85e6254f9f19a7389031a30121029322ed40651e44cb02a7bd00dfbeca2615d827070a1297e5de5c5b37cee2c352ffffffffb5bea178e9e32a80e7a64c71d0d6e62864af0ee1a4745825bcfc90935d546c43010000006a473044022028e9eebc28fed1782fb54ea3394f1abe7e8ff985d8a8dbe7dcc20629f3e55a45022015ec5c874e92d576f8672b3cb19bfeb2fbaa39c8036954dd3ba1321f16214e6001210362445de2bc7bcb7c84187b83d4375edaf32908efc12b168cbce6f17d18b8bd7fffffffff021ab24d00000000001976a9143cb587126a9f92f04a4c666bf341254c410737c588ac0e68a516000000001976a914f3420b1e2764cac40634fb020e35ffe39c0bbc9688ac00000000","txid":"b870d28c79183e17d46fc10837790eebfcf67477da1899dc1c1611de479342f5","version":1,"time":1540913952,"locktime":0,"vin":[{"txid":"9a35aa99e3fc91bc6fbb38c333e695d5bc38baadbb14505a7b05c5fa05a1ac0d","vout":1,"scriptSig":{"asm":"3045022100e41c8679905d4c789c7daf7d5575e5a2b41ef553f0eb462deddb95d50708f1db02200fffc80d3856690f09bbd58b65584c115799eb328378abd1ce9db984cd552f6c01 03e4c23d5d8e2037c59eaac8bc8f96ab94b82fbeb27fab5de279002e25ba4086d3","hex":"483045022100e41c8679905d4c789c7daf7d5575e5a2b41ef553f0eb462deddb95d50708f1db02200fffc80d3856690f09bbd58b65584c115799eb328378abd1ce9db984cd552f6c012103e4c23d5d8e2037c59eaac8bc8f96ab94b82fbeb27fab5de279002e25ba4086d3"},"sequence":4294967295},{"txid":"6454dfa0f2540603bba0e41ab0d2b21c2ee5d8c5fcf9575b61c5ae805f2bd494","vout":1,"scriptSig":{"asm":"3045022100fd20a9b2a5f24a6265e231012d986fcb78be3afbf19cceda4b0f8c4b1aecc01c022028a4719ac289ae20f6000e72363ed39e10562641d802e13ce7816634d6d51d8e01 026679dea9dc87c13878f8007d180a6355a4d4c24dc9d8e9bba78a97103aa368bb","hex":"483045022100fd20a9b2a5f24a6265e231012d986fcb78be3afbf19cceda4b0f8c4b1aecc01c022028a4719ac289ae20f6000e72363ed39e10562641d802e13ce7816634d6d51d8e0121026679dea9dc87c13878f8007d180a6355a4d4c24dc9d8e9bba78a97103aa368bb"},"sequence":4294967295},{"txid":"82ce5d9c7cb4b5262153e529f495a961dbc10612c12667cee6ca135c9c247689","vout":0,"scriptSig":{"asm":"304502210081801eb937c1bb8aab4e246beb1f1b567fdbd8c5b76d6f95451adfda36ad8205022025ada587b34019dc707e66834f25b0731a75ef1d4e85e6254f9f19a7389031a301 029322ed40651e44cb02a7bd00dfbeca2615d827070a1297e5de5c5b37cee2c352","hex":"48304502210081801eb937c1bb8aab4e246beb1f1b567fdbd8c5b76d6f95451adfda36ad8205022025ada587b34019dc707e66834f25b0731a75ef1d4e85e6254f9f19a7389031a30121029322ed40651e44cb02a7bd00dfbeca2615d827070a1297e5de5c5b37cee2c352"},"sequence":4294967295},{"txid":"436c545d9390fcbc255874a4e10eaf6428e6d6d0714ca6e7802ae3e978a1beb5","vout":1,"scriptSig":{"asm":"3044022028e9eebc28fed1782fb54ea3394f1abe7e8ff985d8a8dbe7dcc20629f3e55a45022015ec5c874e92d576f8672b3cb19bfeb2fbaa39c8036954dd3ba1321f16214e6001 0362445de2bc7bcb7c84187b83d4375edaf32908efc12b168cbce6f17d18b8bd7f","hex":"473044022028e9eebc28fed1782fb54ea3394f1abe7e8ff985d8a8dbe7dcc20629f3e55a45022015ec5c874e92d576f8672b3cb19bfeb2fbaa39c8036954dd3ba1321f16214e6001210362445de2bc7bcb7c84187b83d4375edaf32908efc12b168cbce6f17d18b8bd7f"},"sequence":4294967295}],"vout":[{"value":0.05091866,"n":0,"scriptPubKey":{"asm":"OP_DUP OP_HASH160 3cb587126a9f92f04a4c666bf341254c410737c5 OP_EQUALVERIFY OP_CHECKSIG","reqSigs":1,"type":"pubkeyhash","addresses":["pB5aCyZ2rPeKRm24J25DLPwBmTFSH1sGqE"]}},{"value":3.7993883,"n":1,"scriptPubKey":{"asm":"OP_DUP OP_HASH160 f3420b1e2764cac40634fb020e35ffe39c0bbc96 OP_EQUALVERIFY OP_CHECKSIG","reqSigs":1,"type":"pubkeyhash","addresses":["pTioX6efs5qxQ3iuu5xsPiZSp5Em1R29k3"]}}],"blockhash":"32d7bd7a5afdef073d53a65e3f3af9ea73b4916d46c5ba8ec952b243edda511d","confirmations":161,"blocktime":1540913952}