{"hex":"01000000c00ec55b01467861594efdcbe7685e6ac06ff1bf0886b0a67dd7b1d2dbf555a3ae86a9741f0200000048473044022100a708f65f03314fdc7894ce812e815430807397c795e450aedc3a019d42a42905021f1aaa306e8045fe5d29d2878f8ddaa7e8a88c57055ef596bdf025681909ff5f01ffffffff04000000000000000000c0856b470700000023210348b24f77eda58d2bf0bd56f764cfdeb0100d2f1058b2d5318f2f2fc9670e730eac4ce57a470700000023210348b24f77eda58d2bf0bd56f764cfdeb0100d2f1058b2d5318f2f2fc9670e730eac04a60000000000001976a914a539c7c64804ba10293866c3433100eabbe41ccf88ac00000000","txid":"4a789f8c0980c5f8f18166ec41121747e6f45ff7405b1ba99cc2e2a5f429d31a","version":1,"time":1539641024,"locktime":0,"vin":[{"txid":"1f74a986aea355f5dbd2b1d77da6b08608bff16fc06a5e68e7cbfd4e59617846","vout":2,"scriptSig":{"asm":"3044022100a708f65f03314fdc7894ce812e815430807397c795e450aedc3a019d42a42905021f1aaa306e8045fe5d29d2878f8ddaa7e8a88c57055ef596bdf025681909ff5f01","hex":"473044022100a708f65f03314fdc7894ce812e815430807397c795e450aedc3a019d42a42905021f1aaa306e8045fe5d29d2878f8ddaa7e8a88c57055ef596bdf025681909ff5f01"},"sequence":4294967295}],"vout":[{"value":0,"n":0,"scriptPubKey":{"asm":"","type":"nonstandard"}},{"value":312.63,"n":1,"scriptPubKey":{"asm":"0348b24f77eda58d2bf0bd56f764cfdeb0100d2f1058b2d5318f2f2fc9670e730e OP_CHECKSIG","reqSigs":1,"type":"pubkey","addresses":["p8X7huKtvdnnDzc17Xcxxh1Z9ww8ckxvVJ"]}},{"value":312.640075,"n":2,"scriptPubKey":{"asm":"0348b24f77eda58d2bf0bd56f764cfdeb0100d2f1058b2d5318f2f2fc9670e730e OP_CHECKSIG","reqSigs":1,"type":"pubkey","addresses":["p8X7huKtvdnnDzc17Xcxxh1Z9ww8ckxvVJ"]}},{"value":0.000425,"n":3,"scriptPubKey":{"asm":"OP_DUP OP_HASH160 a539c7c64804ba10293866c3433100eabbe41ccf OP_EQUALVERIFY OP_CHECKSIG","reqSigs":1,"type":"pubkeyhash","addresses":["pLcCv1RBNEWf4q17fiPMGMYqeFUvP9a826"]}}],"blockhash":"934cf748811f8b34ad76f1b5eb1bf21f9ba90d97c7cb5b0d295ad528078ac714","confirmations":301,"blocktime":1539641024}