{"hex":"01000000b70ec55b01fcb622b3af8a44b8aea4c164cd191fa4634663b1cc560969515bac1872bb620e010000006b483045022100a503b40021dc442292b6cf73a2e447d7991f82b02b3bb39dcacfcc831892fb2202200338b018140d9234d1f3a706a3e2f4033a4789ae656e365d538aaed4cb8e94b10121033a9dd62222be13f56503a3e0ecda03a4bd2e478e565f97bfe1b2e57485778e68ffffffff02302dfa02000000001976a914342b05e0bf2caa3ae75858114448025227cca13b88ac80f0fa02000000001976a9144b865402e8785b055abbccaa32d98f135ce4b1c788ac00000000","txid":"78b4bba2fe55202f8da1df9fe4054e8a8c2a793d4f6afd665dd4089bcacfd70f","version":1,"time":1539641024,"locktime":0,"vin":[{"txid":"0e62bb7218ac5b51690956ccb1634663a41f19cd64c1a4aeb8448aafb322b6fc","vout":1,"scriptSig":{"asm":"3045022100a503b40021dc442292b6cf73a2e447d7991f82b02b3bb39dcacfcc831892fb2202200338b018140d9234d1f3a706a3e2f4033a4789ae656e365d538aaed4cb8e94b101 033a9dd62222be13f56503a3e0ecda03a4bd2e478e565f97bfe1b2e57485778e68","hex":"483045022100a503b40021dc442292b6cf73a2e447d7991f82b02b3bb39dcacfcc831892fb2202200338b018140d9234d1f3a706a3e2f4033a4789ae656e365d538aaed4cb8e94b10121033a9dd62222be13f56503a3e0ecda03a4bd2e478e565f97bfe1b2e57485778e68"},"sequence":4294967295}],"vout":[{"value":0.4995,"n":0,"scriptPubKey":{"asm":"OP_DUP OP_HASH160 342b05e0bf2caa3ae75858114448025227cca13b OP_EQUALVERIFY OP_CHECKSIG","reqSigs":1,"type":"pubkeyhash","addresses":["pAJQsy85Fwz6cMNgtqpM7J9EhoqJeTqVrX"]}},{"value":0.5,"n":1,"scriptPubKey":{"asm":"OP_DUP OP_HASH160 4b865402e8785b055abbccaa32d98f135ce4b1c7 OP_EQUALVERIFY OP_CHECKSIG","reqSigs":1,"type":"pubkeyhash","addresses":["pCRuoNrhPgYG8VxhLWuV1czRnjzufnocjk"]}}],"blockhash":"934cf748811f8b34ad76f1b5eb1bf21f9ba90d97c7cb5b0d295ad528078ac714","confirmations":301,"blocktime":1539641024}