{"hex":"01000000f166c35b0122811d87bdf92457706705c5e743c169d41d7c7b1a22d5db3bcccec41160766e000000006b48304502210083c57e34fad0da85a88cf38cae1c1884210b854bef300a19a472d44795583a630220215e4848bc881debf8cef0812467e0a338b01e21e85b452a362a9f9276fa9e7b012103af166bdc1f5644f1cf19c576943d02192bde9e426c4ed8d937ac29fc157bc738ffffffff02000482e2a87523001976a914b731f83d157736e20a9a9e089624c5e9050bb3f388ac0088526a740000001976a91446fe25a44fc8bb4b4a906f1b02d9e6f642361a3288ac00000000","txid":"bb4ae6d62151bed06a3906e8226d1932735a9de523b41f15330114af439fa7a1","version":1,"time":1539532576,"locktime":0,"vin":[{"txid":"6e766011c4cecc3bdbd5221a7b7c1dd469c143e7c50567705724f9bd871d8122","vout":0,"scriptSig":{"asm":"304502210083c57e34fad0da85a88cf38cae1c1884210b854bef300a19a472d44795583a630220215e4848bc881debf8cef0812467e0a338b01e21e85b452a362a9f9276fa9e7b01 03af166bdc1f5644f1cf19c576943d02192bde9e426c4ed8d937ac29fc157bc738","hex":"48304502210083c57e34fad0da85a88cf38cae1c1884210b854bef300a19a472d44795583a630220215e4848bc881debf8cef0812467e0a338b01e21e85b452a362a9f9276fa9e7b012103af166bdc1f5644f1cf19c576943d02192bde9e426c4ed8d937ac29fc157bc738"},"sequence":4294967295}],"vout":[{"value":99809924,"n":0,"scriptPubKey":{"asm":"OP_DUP OP_HASH160 b731f83d157736e20a9a9e089624c5e9050bb3f3 OP_EQUALVERIFY OP_CHECKSIG","reqSigs":1,"type":"pubkeyhash","addresses":["pNFDimKLq3nsPuTRwmL1r8veHQjr5FDDpX"]}},{"value":5000,"n":1,"scriptPubKey":{"asm":"OP_DUP OP_HASH160 46fe25a44fc8bb4b4a906f1b02d9e6f642361a32 OP_EQUALVERIFY OP_CHECKSIG","reqSigs":1,"type":"pubkeyhash","addresses":["pC1wxaZd5uPGVcS5qD2uTMroMjSKK1iXMB"]}}],"blockhash":"c43c755ef023323b1a02e86105e31d23a65f89e2ee711cae84ae63b2da8ca27f","confirmations":310,"blocktime":1539532576}