{"hex":"010000002067c35b0189523d5e65decec0eab0ea93142ec1029f9f56642b22713524e4b336b3a22f820100000049483045022100b467e38fc12e4f5471be986f8437b0ba2d9d2f0d42aa17e02ceaf54dc688d2fd022074c8827e5f4e5a0700285854e9103ff5b9f1ac93376c7055a14cf179a328fa0201ffffffff0300000000000000000080d99f3800000000232102f3989f15f82309adefe5e4f6bf746db84b8df805e22eecc7bd374f31e8daa38aac80fe210a000000001976a9147a58c93fa5e34c0e7c16492ee8061977495aac7c88ac00000000","txid":"d5232e388e992c841a04abd4d8242dd0b709f7dffa931d119b23385c78592768","version":1,"time":1539532576,"locktime":0,"vin":[{"txid":"822fa2b336b3e4243571222b64569f9f02c12e1493eab0eac0cede655e3d5289","vout":1,"scriptSig":{"asm":"3045022100b467e38fc12e4f5471be986f8437b0ba2d9d2f0d42aa17e02ceaf54dc688d2fd022074c8827e5f4e5a0700285854e9103ff5b9f1ac93376c7055a14cf179a328fa0201","hex":"483045022100b467e38fc12e4f5471be986f8437b0ba2d9d2f0d42aa17e02ceaf54dc688d2fd022074c8827e5f4e5a0700285854e9103ff5b9f1ac93376c7055a14cf179a328fa0201"},"sequence":4294967295}],"vout":[{"value":0,"n":0,"scriptPubKey":{"asm":"","type":"nonstandard"}},{"value":9.5,"n":1,"scriptPubKey":{"asm":"02f3989f15f82309adefe5e4f6bf746db84b8df805e22eecc7bd374f31e8daa38a OP_CHECKSIG","reqSigs":1,"type":"pubkey","addresses":["pS6kv8sUdNg7tBDNfNMnPMqsD2dQR4HfTQ"]}},{"value":1.7,"n":2,"scriptPubKey":{"asm":"OP_DUP OP_HASH160 7a58c93fa5e34c0e7c16492ee8061977495aac7c OP_EQUALVERIFY OP_CHECKSIG","reqSigs":1,"type":"pubkeyhash","addresses":["pGhV15RkjbtFhS6uHd3xCvPoNUNQoDMiqz"]}}],"blockhash":"c43c755ef023323b1a02e86105e31d23a65f89e2ee711cae84ae63b2da8ca27f","confirmations":310,"blocktime":1539532576}