{"hex":"01000000e01fd65b01f90d4f7278006731f909230c396eafcb53f6dbc77fcec6c2f2bb3fd748b3b1880200000049483045022100aebf0ec30fe68c3bf5ce020bbf0fec7686e59331a034f3d54bfacb3255cf8aa202205a4039eb51beb55c9e55594171e0f727c358f0adff5cd311ae32eea0a6a794f201ffffffff040000000000000000008028a546070000002321020b1cd26fc4b9f080aea1cf7b667efd5e8453f70429056589831fa7f63506ddbfac2829a546070000002321020b1cd26fc4b9f080aea1cf7b667efd5e8453f70429056589831fa7f63506ddbfac63030000000000001976a914f0371486e89ca3a2057c60329aff065cd986aee188ac00000000","txid":"1a54a4b0b35dba91e29ab978a0c41085b672bcda5d2afb4c46e80442d799562a","version":1,"time":1540759520,"locktime":0,"vin":[{"txid":"88b1b348d73fbbf2c2c6ce7fc7dbf653cbaf6e390c2309f931670078724f0df9","vout":2,"scriptSig":{"asm":"3045022100aebf0ec30fe68c3bf5ce020bbf0fec7686e59331a034f3d54bfacb3255cf8aa202205a4039eb51beb55c9e55594171e0f727c358f0adff5cd311ae32eea0a6a794f201","hex":"483045022100aebf0ec30fe68c3bf5ce020bbf0fec7686e59331a034f3d54bfacb3255cf8aa202205a4039eb51beb55c9e55594171e0f727c358f0adff5cd311ae32eea0a6a794f201"},"sequence":4294967295}],"vout":[{"value":0,"n":0,"scriptPubKey":{"asm":"","type":"nonstandard"}},{"value":312.5,"n":1,"scriptPubKey":{"asm":"020b1cd26fc4b9f080aea1cf7b667efd5e8453f70429056589831fa7f63506ddbf OP_CHECKSIG","reqSigs":1,"type":"pubkey","addresses":["pECTDpfW4nW8hYte3f3F9ZQxwgWmBwmcYL"]}},{"value":312.50000168,"n":2,"scriptPubKey":{"asm":"020b1cd26fc4b9f080aea1cf7b667efd5e8453f70429056589831fa7f63506ddbf OP_CHECKSIG","reqSigs":1,"type":"pubkey","addresses":["pECTDpfW4nW8hYte3f3F9ZQxwgWmBwmcYL"]}},{"value":0.00000867,"n":3,"scriptPubKey":{"asm":"OP_DUP OP_HASH160 f0371486e89ca3a2057c60329aff065cd986aee1 OP_EQUALVERIFY OP_CHECKSIG","reqSigs":1,"type":"pubkeyhash","addresses":["pTSiMnNaB4wjS22bEGEEkNcu17kmCfBCLj"]}}],"blockhash":"ff1f46814a0e677c3e75450c6496f49056bef9d8a7a74ade286d85cf50ce31c0","confirmations":265,"blocktime":1540759520}