{"hex":"01000000d71fd65b047ac9e39efe07b83b072d47afaab250ea0fdb6be49a4c472845169caf89afafa2000000006a473044022007cd81b48f6aac4fd5bbe9215f8fb3d7744fc5ed6cd22442aaf8fd2fb2c62d75022010c2e6b0877d1d1aa71dc8e2cb17fcc86ec6d90fc357b0dbc0d85f550a06ca770121029e857134122939a57279b02312e296a02bcf0cf876ddc541bd372450215dbeacffffffff26871fc212531417051c9527ad89680f8c453966b63216ca74260bbf995c09b4010000006b483045022100a403e0bb9cbd0e2e8013ae9e9c803e27ec925a47bf6eccf75187918087857ab202204f4a651f395913a2df055fc6e6589f8f4a2beb36232075322cb72a36ca5bce39012102b576bdd91f15b3eaa95f228c4f4ea5f80602b50cbb4295ef19ed65a6a6f14df7ffffffff7b0f0907f166e4020e8807e9864c80fbf250d21679f5d4e188ed9079aece6e55010000006a47304402206126d70503a3db0c550c33848186737b8cdaf829abdb40360cee1a0e2c6473a0022065f0fb53bb786d2fe7c4534dcee951f4681ad45c0744fd7c054cbcfe33e4fdf90121027e36b4a1159e3bf2545ef3f291faf72f5a2fa75a510920475d35a9bfd51dd2ceffffffff85ca3db7c2dcc5f4a1f32e4d6686151e9a397a6a5454acf40f2946ff73cfe86d010000006a473044022076d52b986580b7c0b19bf00ff518c0927c4330cf7ffe428b593ff1897998268502204e0806cbf699939113dd5d91dee30e6dce5ccf825999436ff0abec19c4c466590121034004f2a5366d8804fda67e4a9b8f9afd3bcdfc6e8e9170a05d1245f78be98eb0ffffffff02c9440f00000000001976a914953e8be36a8a53d7acd1ca14f24096d48a31c0ef88ac60900f00000000001976a914e967ea8a815f551593d012fc06dfb070f7ef011788ac00000000","txid":"3211aee34fc74f4a873887332b1c03f19fe50e8e17fcdb560a4074ab105b0424","version":1,"time":1540759520,"locktime":0,"vin":[{"txid":"a2afaf89af9c164528474c9ae46bdb0fea50b2aaaf472d073bb807fe9ee3c97a","vout":0,"scriptSig":{"asm":"3044022007cd81b48f6aac4fd5bbe9215f8fb3d7744fc5ed6cd22442aaf8fd2fb2c62d75022010c2e6b0877d1d1aa71dc8e2cb17fcc86ec6d90fc357b0dbc0d85f550a06ca7701 029e857134122939a57279b02312e296a02bcf0cf876ddc541bd372450215dbeac","hex":"473044022007cd81b48f6aac4fd5bbe9215f8fb3d7744fc5ed6cd22442aaf8fd2fb2c62d75022010c2e6b0877d1d1aa71dc8e2cb17fcc86ec6d90fc357b0dbc0d85f550a06ca770121029e857134122939a57279b02312e296a02bcf0cf876ddc541bd372450215dbeac"},"sequence":4294967295},{"txid":"b4095c99bf0b2674ca1632b66639458c0f6889ad27951c0517145312c21f8726","vout":1,"scriptSig":{"asm":"3045022100a403e0bb9cbd0e2e8013ae9e9c803e27ec925a47bf6eccf75187918087857ab202204f4a651f395913a2df055fc6e6589f8f4a2beb36232075322cb72a36ca5bce3901 02b576bdd91f15b3eaa95f228c4f4ea5f80602b50cbb4295ef19ed65a6a6f14df7","hex":"483045022100a403e0bb9cbd0e2e8013ae9e9c803e27ec925a47bf6eccf75187918087857ab202204f4a651f395913a2df055fc6e6589f8f4a2beb36232075322cb72a36ca5bce39012102b576bdd91f15b3eaa95f228c4f4ea5f80602b50cbb4295ef19ed65a6a6f14df7"},"sequence":4294967295},{"txid":"556eceae7990ed88e1d4f57916d250f2fb804c86e907880e02e466f107090f7b","vout":1,"scriptSig":{"asm":"304402206126d70503a3db0c550c33848186737b8cdaf829abdb40360cee1a0e2c6473a0022065f0fb53bb786d2fe7c4534dcee951f4681ad45c0744fd7c054cbcfe33e4fdf901 027e36b4a1159e3bf2545ef3f291faf72f5a2fa75a510920475d35a9bfd51dd2ce","hex":"47304402206126d70503a3db0c550c33848186737b8cdaf829abdb40360cee1a0e2c6473a0022065f0fb53bb786d2fe7c4534dcee951f4681ad45c0744fd7c054cbcfe33e4fdf90121027e36b4a1159e3bf2545ef3f291faf72f5a2fa75a510920475d35a9bfd51dd2ce"},"sequence":4294967295},{"txid":"6de8cf73ff46290ff4ac54546a7a399a1e1586664d2ef3a1f4c5dcc2b73dca85","vout":1,"scriptSig":{"asm":"3044022076d52b986580b7c0b19bf00ff518c0927c4330cf7ffe428b593ff1897998268502204e0806cbf699939113dd5d91dee30e6dce5ccf825999436ff0abec19c4c4665901 034004f2a5366d8804fda67e4a9b8f9afd3bcdfc6e8e9170a05d1245f78be98eb0","hex":"473044022076d52b986580b7c0b19bf00ff518c0927c4330cf7ffe428b593ff1897998268502204e0806cbf699939113dd5d91dee30e6dce5ccf825999436ff0abec19c4c466590121034004f2a5366d8804fda67e4a9b8f9afd3bcdfc6e8e9170a05d1245f78be98eb0"},"sequence":4294967295}],"vout":[{"value":0.01000649,"n":0,"scriptPubKey":{"asm":"OP_DUP OP_HASH160 953e8be36a8a53d7acd1ca14f24096d48a31c0ef OP_EQUALVERIFY OP_CHECKSIG","reqSigs":1,"type":"pubkeyhash","addresses":["pK9hp6EVuKgBdvAff7yC8fWUgGdpPEzNDW"]}},{"value":0.0102,"n":1,"scriptPubKey":{"asm":"OP_DUP OP_HASH160 e967ea8a815f551593d012fc06dfb070f7ef0117 OP_EQUALVERIFY OP_CHECKSIG","reqSigs":1,"type":"pubkeyhash","addresses":["pSpi8dB89FVvJRt2ZziYkkTX75dhHYHDup"]}}],"blockhash":"ff1f46814a0e677c3e75450c6496f49056bef9d8a7a74ade286d85cf50ce31c0","confirmations":265,"blocktime":1540759520}