{"hex":"010000004f9ec25b010000000000000000000000000000000000000000000000000000000000000000ffffffff035e0102ffffffff0100000000000000001976a9143569a14467be0b6af178a2e33a41e400714c17a388ac00000000","txid":"143d10289b65c4673d4df7a7e15fa318f62e5c193e36f55a59ea38cfe048a16a","version":1,"time":1539481170,"locktime":0,"vin":[{"coinbase":"5e0102","sequence":4294967295}],"vout":[{"value":0,"n":0,"scriptPubKey":{"asm":"OP_DUP OP_HASH160 3569a14467be0b6af178a2e33a41e400714c17a3 OP_EQUALVERIFY OP_CHECKSIG","reqSigs":1,"type":"pubkeyhash","addresses":["pAQzZApeTesHaDDtLrXrg4NqC1NthvkZ6r"]}}],"blockhash":"00000e66754aa4d0da5c30a486ba3fbb9fdc730f250f01d28c1a958bfdef92ab","confirmations":145,"blocktime":1539481170}