{"hex":"01000000b7a1c25b010000000000000000000000000000000000000000000000000000000000000000ffffffff0401400101ffffffff0100000000000000001976a9142b454b6e3b9344562df80a6011d4869a427f574888ac00000000","txid":"80e5a1d9fa9ce0113cc8a3dbe5aba4d1a01977713adab4a33ffd17b27fde1510","version":1,"time":1539482039,"locktime":0,"vin":[{"coinbase":"01400101","sequence":4294967295}],"vout":[{"value":0,"n":0,"scriptPubKey":{"asm":"OP_DUP OP_HASH160 2b454b6e3b9344562df80a6011d4869a427f5748 OP_EQUALVERIFY OP_CHECKSIG","reqSigs":1,"type":"pubkeyhash","addresses":["p9VNGdYvYCHt3Pfogayf5LxQdFaUT78NK7"]}}],"blockhash":"00000e8650eee778d67277bcb89623aa55aca2a438ff63fb420c334b93817af5","confirmations":381,"blocktime":1539482039}