{"hex":"0100000030b0d65b011171971d661ce3b88a83b774ca8e30404f2973be158d33e32eedd06eeee2d14301000000484730440220377c33e72b8828ba103119bab48d75bb36fd7251971343a35110ae0ebea780ad022032e99fa0c1d81d44d9707193f8bc0905b8771574eb21e4e35aaba491ede2c74401ffffffff03000000000000000000806c6bd3010000002321020b1cd26fc4b9f080aea1cf7b667efd5e8453f70429056589831fa7f63506ddbfac80fe210a000000001976a9148ed189b44bba56ef2095854efd11229aa16bf8e488ac00000000","txid":"a2ece561679f11708d2bf2b48465a2a79097976a1cfb4129680452385aa383aa","version":1,"time":1540796464,"locktime":0,"vin":[{"txid":"43d1e2ee6ed0ed2ee3338d15be73294f40308eca74b7838ab8e31c661d977111","vout":1,"scriptSig":{"asm":"30440220377c33e72b8828ba103119bab48d75bb36fd7251971343a35110ae0ebea780ad022032e99fa0c1d81d44d9707193f8bc0905b8771574eb21e4e35aaba491ede2c74401","hex":"4730440220377c33e72b8828ba103119bab48d75bb36fd7251971343a35110ae0ebea780ad022032e99fa0c1d81d44d9707193f8bc0905b8771574eb21e4e35aaba491ede2c74401"},"sequence":4294967295}],"vout":[{"value":0,"n":0,"scriptPubKey":{"asm":"","type":"nonstandard"}},{"value":78.42,"n":1,"scriptPubKey":{"asm":"020b1cd26fc4b9f080aea1cf7b667efd5e8453f70429056589831fa7f63506ddbf OP_CHECKSIG","reqSigs":1,"type":"pubkey","addresses":["pECTDpfW4nW8hYte3f3F9ZQxwgWmBwmcYL"]}},{"value":1.7,"n":2,"scriptPubKey":{"asm":"OP_DUP OP_HASH160 8ed189b44bba56ef2095854efd11229aa16bf8e4 OP_EQUALVERIFY OP_CHECKSIG","reqSigs":1,"type":"pubkeyhash","addresses":["pJZjAtqMwq9jFa2kTVK5K8psT7erMHW8FX"]}}],"blockhash":"14b18e491a8e362e0d81902cbf63db659825f830fe5cf3aa4b5990f80fea360c","confirmations":231,"blocktime":1540796464}