{"hex":"010000002eb0d65b01e103467c1f214461e46a8c93a0d7e66472c57e73e6d0a073eb3aea3a10f549b2000000006a473044022039d50b7d208a5ffe6309929e9875d331a5ad60f0cc9271d7fac719ac78e27396022013aa0ef50eb5071f4392c2e51255e0ea8883eae71f834298b4bc3ba01085d7b70121036bad30cff7e9a733eca98fd93f9adb17d51f83e8f6222a8fc551f9e5a8d768d7ffffffff0280ed4207895c1c001976a914f95015a8c00563c3af6b3568e47ba4641b3db5a988ac00c8234f421707001976a914b0ce8642748d49f1cc613ef2ecf29e7d214262c188ac00000000","txid":"b15f5f80d357abea07a32949aeff0ec46199b3b5942eab41d677fb5b1803f934","version":1,"time":1540796464,"locktime":0,"vin":[{"txid":"b249f5103aea3aeb73a0d0e6737ec57264e6d7a0938c6ae46144211f7c4603e1","vout":0,"scriptSig":{"asm":"3044022039d50b7d208a5ffe6309929e9875d331a5ad60f0cc9271d7fac719ac78e27396022013aa0ef50eb5071f4392c2e51255e0ea8883eae71f834298b4bc3ba01085d7b701 036bad30cff7e9a733eca98fd93f9adb17d51f83e8f6222a8fc551f9e5a8d768d7","hex":"473044022039d50b7d208a5ffe6309929e9875d331a5ad60f0cc9271d7fac719ac78e27396022013aa0ef50eb5071f4392c2e51255e0ea8883eae71f834298b4bc3ba01085d7b70121036bad30cff7e9a733eca98fd93f9adb17d51f83e8f6222a8fc551f9e5a8d768d7"},"sequence":4294967295}],"vout":[{"value":79830429.5,"n":0,"scriptPubKey":{"asm":"OP_DUP OP_HASH160 f95015a8c00563c3af6b3568e47ba4641b3db5a9 OP_EQUALVERIFY OP_CHECKSIG","reqSigs":1,"type":"pubkeyhash","addresses":["pUGpPr6bRAif4gZX1ap6zjHpJdGe1cuLQ1"]}},{"value":19958984,"n":1,"scriptPubKey":{"asm":"OP_DUP OP_HASH160 b0ce8642748d49f1cc613ef2ecf29e7d214262c1 OP_EQUALVERIFY OP_CHECKSIG","reqSigs":1,"type":"pubkeyhash","addresses":["pMfSY3AcSDZ1N7wAM2xZLAyYbC3rciXuRH"]}}],"blockhash":"14b18e491a8e362e0d81902cbf63db659825f830fe5cf3aa4b5990f80fea360c","confirmations":231,"blocktime":1540796464}