{"hex":"01000000deedd45b017f8ea07d5801ff378549700694d05292c196332e8aaf64030790a9657505df6f010000006a473044022038eb3511d7d38adc99d859d64da24ccc368e57899e14b7239a06fceb8d80a893022020ee2bb93a71c24ba9f79cc7726419f165347090b33a745fafdc1891739137e9012103fa448819bfe85addee53a8dbea1b903c121acba4c685a4d6df9d7a6e4403400fffffffff02f95f1800000000001976a9144c28ee798243702bc4500cdb4da9004130bb47f688ac46af1200000000001976a9143a13858c9fdeaef8e0c5903f19223308c2773e7a88ac00000000","txid":"a2afaf89af9c164528474c9ae46bdb0fea50b2aaaf472d073bb807fe9ee3c97a","version":1,"time":1540681184,"locktime":0,"vin":[{"txid":"6fdf057565a990070364af8a2e3396c19252d0940670498537ff01587da08e7f","vout":1,"scriptSig":{"asm":"3044022038eb3511d7d38adc99d859d64da24ccc368e57899e14b7239a06fceb8d80a893022020ee2bb93a71c24ba9f79cc7726419f165347090b33a745fafdc1891739137e901 03fa448819bfe85addee53a8dbea1b903c121acba4c685a4d6df9d7a6e4403400f","hex":"473044022038eb3511d7d38adc99d859d64da24ccc368e57899e14b7239a06fceb8d80a893022020ee2bb93a71c24ba9f79cc7726419f165347090b33a745fafdc1891739137e9012103fa448819bfe85addee53a8dbea1b903c121acba4c685a4d6df9d7a6e4403400f"},"sequence":4294967295}],"vout":[{"value":0.01597433,"n":0,"scriptPubKey":{"asm":"OP_DUP OP_HASH160 4c28ee798243702bc4500cdb4da9004130bb47f6 OP_EQUALVERIFY OP_CHECKSIG","reqSigs":1,"type":"pubkeyhash","addresses":["pCVGbFvFLapGyskXvwfxG2ss21bRU9FqUh"]}},{"value":0.01224518,"n":1,"scriptPubKey":{"asm":"OP_DUP OP_HASH160 3a13858c9fdeaef8e0c5903f19223308c2773e7a OP_EQUALVERIFY OP_CHECKSIG","reqSigs":1,"type":"pubkeyhash","addresses":["pAqenDojySH6jeqe5DfJGabCf2fd3URrB7"]}}],"blockhash":"f34b8dea6d468d66d61c9ef4381c9facb468ca6b2c1bc51e2204c2ccd208cbe4","confirmations":271,"blocktime":1540681184}