{"hex":"01000000e0edd45b01d12a8294b2416b767a05dd84b8ce422b3cb695f768c43561777de114f138142901000000494830450221009ce6332fbc732a00361e76ecc9ad26ab11adc4cee5f45c6360d17e66c3bc2b980220077a7e032fafafb26f9dcf82ef0ec587f8f078e4ed4bdd1632bd600270aea77b01ffffffff04000000000000000000409452a3030000002321020b1cd26fc4b9f080aea1cf7b667efd5e8453f70429056589831fa7f63506ddbfacf89452a3030000002321020b1cd26fc4b9f080aea1cf7b667efd5e8453f70429056589831fa7f63506ddbfac10040000000000001976a9140383cbf635d4aaab0b3af12f3877f122911d227188ac00000000","txid":"d1e7a8bdf0047285bf17fbe6a44c45d11e2062e2e1ff26c6b448285683e75c03","version":1,"time":1540681184,"locktime":0,"vin":[{"txid":"291438f114e17d776135c468f795b63c2b42ceb884dd057a766b41b294822ad1","vout":1,"scriptSig":{"asm":"30450221009ce6332fbc732a00361e76ecc9ad26ab11adc4cee5f45c6360d17e66c3bc2b980220077a7e032fafafb26f9dcf82ef0ec587f8f078e4ed4bdd1632bd600270aea77b01","hex":"4830450221009ce6332fbc732a00361e76ecc9ad26ab11adc4cee5f45c6360d17e66c3bc2b980220077a7e032fafafb26f9dcf82ef0ec587f8f078e4ed4bdd1632bd600270aea77b01"},"sequence":4294967295}],"vout":[{"value":0,"n":0,"scriptPubKey":{"asm":"","type":"nonstandard"}},{"value":156.25,"n":1,"scriptPubKey":{"asm":"020b1cd26fc4b9f080aea1cf7b667efd5e8453f70429056589831fa7f63506ddbf OP_CHECKSIG","reqSigs":1,"type":"pubkey","addresses":["pECTDpfW4nW8hYte3f3F9ZQxwgWmBwmcYL"]}},{"value":156.25000184,"n":2,"scriptPubKey":{"asm":"020b1cd26fc4b9f080aea1cf7b667efd5e8453f70429056589831fa7f63506ddbf OP_CHECKSIG","reqSigs":1,"type":"pubkey","addresses":["pECTDpfW4nW8hYte3f3F9ZQxwgWmBwmcYL"]}},{"value":0.0000104,"n":3,"scriptPubKey":{"asm":"OP_DUP OP_HASH160 0383cbf635d4aaab0b3af12f3877f122911d2271 OP_EQUALVERIFY OP_CHECKSIG","reqSigs":1,"type":"pubkeyhash","addresses":["p5sA7gHHpq5pfbFUafcJM8oF4ZCvf3vkks"]}}],"blockhash":"f34b8dea6d468d66d61c9ef4381c9facb468ca6b2c1bc51e2204c2ccd208cbe4","confirmations":271,"blocktime":1540681184}