{"hex":"01000000ffc4d65b02f5618b26c178eb8f6f2d971c10f52a96ee9cc58db192e00cb98c12bef88f407c010000006b48304502210086344934f23ee5191a806d37a7f0588000ebae765ac73d86033116a60bbe93800220450a5caa666bf0f3f57e91734f59fe764cd6c0c7358da2adf7e6bb8e66f952cb012103d841072c13b3ae7bfa14c49fbc15870478bb95136b3033769871eaf6bea07443ffffffffc79573e858cf31e3cc6df45ae0c0ae4fcb64100ba893ae438532e644d81e7399010000006b48304502210091b444107bc857e9b7a70d941eaaea0eabf478a9912ee5450e09c03e5215003d022037ac4f9c1de986ab0716fd78dccac03d633036a5d9a2e094e6b4ea32d663c51e012103d841072c13b3ae7bfa14c49fbc15870478bb95136b3033769871eaf6bea07443ffffffff02c07fdc0b000000001976a914baec832f138653546fbd96cd13a197b01ffe21d888ac00ca9a3b000000001976a914ca8cf0c64c70fef01fd509b38009c1b160b4dc0d88ac00000000","txid":"39a5565655ffaf21ef1e192b65529264f580ae1992d727b426313b85cf99d50b","version":1,"time":1540801792,"locktime":0,"vin":[{"txid":"7c408ff8be128cb90ce092b18dc59cee962af5101c972d6f8feb78c1268b61f5","vout":1,"scriptSig":{"asm":"304502210086344934f23ee5191a806d37a7f0588000ebae765ac73d86033116a60bbe93800220450a5caa666bf0f3f57e91734f59fe764cd6c0c7358da2adf7e6bb8e66f952cb01 03d841072c13b3ae7bfa14c49fbc15870478bb95136b3033769871eaf6bea07443","hex":"48304502210086344934f23ee5191a806d37a7f0588000ebae765ac73d86033116a60bbe93800220450a5caa666bf0f3f57e91734f59fe764cd6c0c7358da2adf7e6bb8e66f952cb012103d841072c13b3ae7bfa14c49fbc15870478bb95136b3033769871eaf6bea07443"},"sequence":4294967295},{"txid":"99731ed844e6328543ae93a80b1064cb4faec0e05af46dcce331cf58e87395c7","vout":1,"scriptSig":{"asm":"304502210091b444107bc857e9b7a70d941eaaea0eabf478a9912ee5450e09c03e5215003d022037ac4f9c1de986ab0716fd78dccac03d633036a5d9a2e094e6b4ea32d663c51e01 03d841072c13b3ae7bfa14c49fbc15870478bb95136b3033769871eaf6bea07443","hex":"48304502210091b444107bc857e9b7a70d941eaaea0eabf478a9912ee5450e09c03e5215003d022037ac4f9c1de986ab0716fd78dccac03d633036a5d9a2e094e6b4ea32d663c51e012103d841072c13b3ae7bfa14c49fbc15870478bb95136b3033769871eaf6bea07443"},"sequence":4294967295}],"vout":[{"value":1.99,"n":0,"scriptPubKey":{"asm":"OP_DUP OP_HASH160 baec832f138653546fbd96cd13a197b01ffe21d8 OP_EQUALVERIFY OP_CHECKSIG","reqSigs":1,"type":"pubkeyhash","addresses":["pNawDZL7ykNqCtk1wo5Lzbvne7C4QaP24f"]}},{"value":10,"n":1,"scriptPubKey":{"asm":"OP_DUP OP_HASH160 ca8cf0c64c70fef01fd509b38009c1b160b4dc0d OP_EQUALVERIFY OP_CHECKSIG","reqSigs":1,"type":"pubkeyhash","addresses":["pQ1ZYB5wqubqWCbYt86c6WKcDPrc56j4pK"]}}],"blockhash":"910c1157cdd70bfe42128e90eabc8f6a3f4e8b608632913be6dc075c0f7a6507","confirmations":216,"blocktime":1540801792}