{"hex":"0100000000c5d65b01eca001818654b6f249c879d7be6f605dff99e5ce5171a5a5b6a622028ab1bcd4010000004847304402207480f63a74329d168b02e7b90251f93fd1d7a89f8b88903a89811f43e0a79c0802202da8efc5dbf5551f34b5efe182533b1622d274b234f29deeaa9ed7851a5551ce01ffffffff04000000000000000000409452a3030000002321020b1cd26fc4b9f080aea1cf7b667efd5e8453f70429056589831fa7f63506ddbfac30de54a3030000002321020b1cd26fc4b9f080aea1cf7b667efd5e8453f70429056589831fa7f63506ddbfac50f80c00000000001976a9144c86b0b2edcbbfcf0d0112bbb160a541568205b788ac00000000","txid":"792b13ccf1353459c9f43f0a628abd06606d68b742ce8eeee5d9839dce4b7303","version":1,"time":1540801792,"locktime":0,"vin":[{"txid":"d4bcb18a0222a6b6a5a57151cee599ff5d606fbed779c849f2b654868101a0ec","vout":1,"scriptSig":{"asm":"304402207480f63a74329d168b02e7b90251f93fd1d7a89f8b88903a89811f43e0a79c0802202da8efc5dbf5551f34b5efe182533b1622d274b234f29deeaa9ed7851a5551ce01","hex":"47304402207480f63a74329d168b02e7b90251f93fd1d7a89f8b88903a89811f43e0a79c0802202da8efc5dbf5551f34b5efe182533b1622d274b234f29deeaa9ed7851a5551ce01"},"sequence":4294967295}],"vout":[{"value":0,"n":0,"scriptPubKey":{"asm":"","type":"nonstandard"}},{"value":156.25,"n":1,"scriptPubKey":{"asm":"020b1cd26fc4b9f080aea1cf7b667efd5e8453f70429056589831fa7f63506ddbf OP_CHECKSIG","reqSigs":1,"type":"pubkey","addresses":["pECTDpfW4nW8hYte3f3F9ZQxwgWmBwmcYL"]}},{"value":156.2515,"n":2,"scriptPubKey":{"asm":"020b1cd26fc4b9f080aea1cf7b667efd5e8453f70429056589831fa7f63506ddbf OP_CHECKSIG","reqSigs":1,"type":"pubkey","addresses":["pECTDpfW4nW8hYte3f3F9ZQxwgWmBwmcYL"]}},{"value":0.0085,"n":3,"scriptPubKey":{"asm":"OP_DUP OP_HASH160 4c86b0b2edcbbfcf0d0112bbb160a541568205b7 OP_EQUALVERIFY OP_CHECKSIG","reqSigs":1,"type":"pubkeyhash","addresses":["pCXCuj4F9uaYHMue5Nqy3XLKdLz4U9gRoi"]}}],"blockhash":"910c1157cdd70bfe42128e90eabc8f6a3f4e8b608632913be6dc075c0f7a6507","confirmations":216,"blocktime":1540801792}