{"hex":"01000000b7a2c25b010000000000000000000000000000000000000000000000000000000000000000ffffffff04015d0102ffffffff0100000000000000001976a91417f22918d23879f4d861f30927a45ca8b2f483a488ac00000000","txid":"956a60ea9edb4aae744a7430e583926f1fd59e6dc1ba539e111227ea267ea6c4","version":1,"time":1539482298,"locktime":0,"vin":[{"coinbase":"015d0102","sequence":4294967295}],"vout":[{"value":0,"n":0,"scriptPubKey":{"asm":"OP_DUP OP_HASH160 17f22918d23879f4d861f30927a45ca8b2f483a4 OP_EQUALVERIFY OP_CHECKSIG","reqSigs":1,"type":"pubkeyhash","addresses":["p7jBqj6Vvaj2rPGngbfuZ84zvsdKievBpE"]}}],"blockhash":"000002953e4994daefcbf908f3eae3d8b86fcba13a54a3a0355227d96809c4a3","confirmations":352,"blocktime":1539482298}