{"hex":"010000002aa1c25b010000000000000000000000000000000000000000000000000000000000000000ffffffff0401320102ffffffff0100000000000000001976a914cf928187c34259f293d1c6aeb1978be316bbe26488ac00000000","txid":"d1e7e8d7e2febd2297fdd31feb8dcc006a3a389394a54abab2271864bc6045f4","version":1,"time":1539481901,"locktime":0,"vin":[{"coinbase":"01320102","sequence":4294967295}],"vout":[{"value":0,"n":0,"scriptPubKey":{"asm":"OP_DUP OP_HASH160 cf928187c34259f293d1c6aeb1978be316bbe264 OP_EQUALVERIFY OP_CHECKSIG","reqSigs":1,"type":"pubkeyhash","addresses":["pQU7apzSzmKs6FD3kufVFjZh78UkN7Y6pE"]}}],"blockhash":"000001e698968de5e7bc21ca7b64d3ce5ec847fa3f050f5b8ef17b7e4102110d","confirmations":395,"blocktime":1539481901}