{"hex":"01000000c5cedc5b02acaa83303e53b8435321d66aeb6848ab99ca04a894e5eb1462776eac0f5e7a7c000000006b483045022100c4ee414443859adf7d55865d90a849b6b090eddc89528addbb6fdda29c5d465602200de1f94267dc5fd005be4e39074e2550bd7750c09f6444f0b3a7ee007bc4e14e012102aa5d54a84f28003004e4ddc1b8af5194878f6edb6ece45ef4c881001f2950bb3ffffffffb21ea222b9a7d4b53326fac8f4e2326dc66fe803d638e3b28a19418bc102a5f3000000006a4730440220655532750c896307435305568ef7dcc948c2cf5022e001a00d5e6c37c9d4ba4f02207c3ce6a2dfb744aafba555e0cc15c9f69deb8258f028c26ac5c9a14dca8b97280121030c4138c371e4476896b1901c8bd3675ea909a069325537b6c50a61969c7f335cffffffff027cf91e00000000001976a914678e267bd09a4504b0cb959cb77ece0b3e6f221c88acdf652900000000001976a914ddfe0ca6ca591b24b96796a163fe20c8bc9dd74288ac00000000","txid":"844b45d6d9762deb41b7d571c29230bc84eea574b001512674093f03210188b5","version":1,"time":1541197520,"locktime":0,"vin":[{"txid":"7c7a5e0fac6e776214ebe594a804ca99ab4868eb6ad6215343b8533e3083aaac","vout":0,"scriptSig":{"asm":"3045022100c4ee414443859adf7d55865d90a849b6b090eddc89528addbb6fdda29c5d465602200de1f94267dc5fd005be4e39074e2550bd7750c09f6444f0b3a7ee007bc4e14e01 02aa5d54a84f28003004e4ddc1b8af5194878f6edb6ece45ef4c881001f2950bb3","hex":"483045022100c4ee414443859adf7d55865d90a849b6b090eddc89528addbb6fdda29c5d465602200de1f94267dc5fd005be4e39074e2550bd7750c09f6444f0b3a7ee007bc4e14e012102aa5d54a84f28003004e4ddc1b8af5194878f6edb6ece45ef4c881001f2950bb3"},"sequence":4294967295},{"txid":"f3a502c18b41198ab2e338d603e86fc66d32e2f4c8fa2633b5d4a7b922a21eb2","vout":0,"scriptSig":{"asm":"30440220655532750c896307435305568ef7dcc948c2cf5022e001a00d5e6c37c9d4ba4f02207c3ce6a2dfb744aafba555e0cc15c9f69deb8258f028c26ac5c9a14dca8b972801 030c4138c371e4476896b1901c8bd3675ea909a069325537b6c50a61969c7f335c","hex":"4730440220655532750c896307435305568ef7dcc948c2cf5022e001a00d5e6c37c9d4ba4f02207c3ce6a2dfb744aafba555e0cc15c9f69deb8258f028c26ac5c9a14dca8b97280121030c4138c371e4476896b1901c8bd3675ea909a069325537b6c50a61969c7f335c"},"sequence":4294967295}],"vout":[{"value":0.02029948,"n":0,"scriptPubKey":{"asm":"OP_DUP OP_HASH160 678e267bd09a4504b0cb959cb77ece0b3e6f221c OP_EQUALVERIFY OP_CHECKSIG","reqSigs":1,"type":"pubkeyhash","addresses":["pEz86Ez7t76JJyqqzViJHpG12mtyNCxvRB"]}},{"value":0.02713055,"n":1,"scriptPubKey":{"asm":"OP_DUP OP_HASH160 ddfe0ca6ca591b24b96796a163fe20c8bc9dd742 OP_EQUALVERIFY OP_CHECKSIG","reqSigs":1,"type":"pubkeyhash","addresses":["pRnMsmDkASBvYxSS64mTwtRMbJeDeyumnH"]}}],"blockhash":"0d2e1fe4a6f7ab7b0fc3bc2fcfaebbe613e3d5ea36a67f7d738d71a8a2fe64f9","confirmations":53,"blocktime":1541197520}