{"hex":"01000000d0cedc5b01f0ac4847f2ea2f472ea6a30e7a275eca49c754f83f43c885352ba55bfed0e32c020000004847304402207095548b378a4da2b0c2811d6eb61d9e0fbab98f244433cdb9be261c11f94a5d02200ab9f87c4ec7c391d3f29e5fcd99ab4134df3610464ead943e8d0076c939aa5601ffffffff04000000000000000000803f3ad2010000002321028d9be6ae35cf9126d1ddd81f7e9a33d77e64d908c42bf417d6424ba1da9106a6ac158449d2010000002321028d9be6ae35cf9126d1ddd81f7e9a33d77e64d908c42bf417d6424ba1da9106a6ac02090000000000001976a914a539c7c64804ba10293866c3433100eabbe41ccf88ac00000000","txid":"822de53b5c4a14600709c9f27cfbd5013de94bcc78e9fdb40e300d3902b33220","version":1,"time":1541197520,"locktime":0,"vin":[{"txid":"2ce3d0fe5ba52b3585c8433ff854c749ca5e277a0ea3a62e472feaf24748acf0","vout":2,"scriptSig":{"asm":"304402207095548b378a4da2b0c2811d6eb61d9e0fbab98f244433cdb9be261c11f94a5d02200ab9f87c4ec7c391d3f29e5fcd99ab4134df3610464ead943e8d0076c939aa5601","hex":"47304402207095548b378a4da2b0c2811d6eb61d9e0fbab98f244433cdb9be261c11f94a5d02200ab9f87c4ec7c391d3f29e5fcd99ab4134df3610464ead943e8d0076c939aa5601"},"sequence":4294967295}],"vout":[{"value":0,"n":0,"scriptPubKey":{"asm":"","type":"nonstandard"}},{"value":78.22,"n":1,"scriptPubKey":{"asm":"028d9be6ae35cf9126d1ddd81f7e9a33d77e64d908c42bf417d6424ba1da9106a6 OP_CHECKSIG","reqSigs":1,"type":"pubkey","addresses":["pG17eAwgEzq6zQQ7cLzvCMepRqGYMprwdz"]}},{"value":78.23000597,"n":2,"scriptPubKey":{"asm":"028d9be6ae35cf9126d1ddd81f7e9a33d77e64d908c42bf417d6424ba1da9106a6 OP_CHECKSIG","reqSigs":1,"type":"pubkey","addresses":["pG17eAwgEzq6zQQ7cLzvCMepRqGYMprwdz"]}},{"value":0.00002306,"n":3,"scriptPubKey":{"asm":"OP_DUP OP_HASH160 a539c7c64804ba10293866c3433100eabbe41ccf OP_EQUALVERIFY OP_CHECKSIG","reqSigs":1,"type":"pubkeyhash","addresses":["pLcCv1RBNEWf4q17fiPMGMYqeFUvP9a826"]}}],"blockhash":"0d2e1fe4a6f7ab7b0fc3bc2fcfaebbe613e3d5ea36a67f7d738d71a8a2fe64f9","confirmations":53,"blocktime":1541197520}