{"hex":"01000000029ec25b010000000000000000000000000000000000000000000000000000000000000000ffffffff03550101ffffffff0100000000000000001976a914dd745510ca039ee8801e6314503a988b7d664dd688ac00000000","txid":"4222abc6b89302d3abee3fe9d8a8e6319c584975b24b93eb89838802ac3be6f2","version":1,"time":1539481090,"locktime":0,"vin":[{"coinbase":"550101","sequence":4294967295}],"vout":[{"value":0,"n":0,"scriptPubKey":{"asm":"OP_DUP OP_HASH160 dd745510ca039ee8801e6314503a988b7d664dd6 OP_EQUALVERIFY OP_CHECKSIG","reqSigs":1,"type":"pubkeyhash","addresses":["pRjWu1UsZusJ1zvcwLS3aLP5e5JaYWXyu1"]}}],"blockhash":"0000032dad9ec985daed21f6928faa51d27e8ef463b7083751bc6bfde4678d31","confirmations":440,"blocktime":1539481090}