{"hex":"01000000b0ced65b0172a61b6d99b37cc281a91146860be5049e4e16ca45931fafb51e07dae016f85f01000000484730440220705195b3a646f441b83d4cb87f64926486baf222eee7632bf71b2f3c4494d35602207beb7259f1fa852b5714881c00ac4bf9ec5bc69d9f04214c5d2bc6adb488c1ff01ffffffff0400000000000000000000a9a1d1010000002321020b1cd26fc4b9f080aea1cf7b667efd5e8453f70429056589831fa7f63506ddbface6ebb0d1010000002321020b1cd26fc4b9f080aea1cf7b667efd5e8453f70429056589831fa7f63506ddbfaca8030000000000001976a9148e3f6e3d2f029829ca356517f18e326c94cd54cd88ac00000000","txid":"a752c3f8d4865b3522cdbdd2f42efc49d2b6fc5abc4b78be0a8ada572985e345","version":1,"time":1540804272,"locktime":0,"vin":[{"txid":"5ff816e0da071eb5af1f9345ca164e9e04e50b864611a981c27cb3996d1ba672","vout":1,"scriptSig":{"asm":"30440220705195b3a646f441b83d4cb87f64926486baf222eee7632bf71b2f3c4494d35602207beb7259f1fa852b5714881c00ac4bf9ec5bc69d9f04214c5d2bc6adb488c1ff01","hex":"4730440220705195b3a646f441b83d4cb87f64926486baf222eee7632bf71b2f3c4494d35602207beb7259f1fa852b5714881c00ac4bf9ec5bc69d9f04214c5d2bc6adb488c1ff01"},"sequence":4294967295}],"vout":[{"value":0,"n":0,"scriptPubKey":{"asm":"","type":"nonstandard"}},{"value":78.12,"n":1,"scriptPubKey":{"asm":"020b1cd26fc4b9f080aea1cf7b667efd5e8453f70429056589831fa7f63506ddbf OP_CHECKSIG","reqSigs":1,"type":"pubkey","addresses":["pECTDpfW4nW8hYte3f3F9ZQxwgWmBwmcYL"]}},{"value":78.13000166,"n":2,"scriptPubKey":{"asm":"020b1cd26fc4b9f080aea1cf7b667efd5e8453f70429056589831fa7f63506ddbf OP_CHECKSIG","reqSigs":1,"type":"pubkey","addresses":["pECTDpfW4nW8hYte3f3F9ZQxwgWmBwmcYL"]}},{"value":0.00000936,"n":3,"scriptPubKey":{"asm":"OP_DUP OP_HASH160 8e3f6e3d2f029829ca356517f18e326c94cd54cd OP_EQUALVERIFY OP_CHECKSIG","reqSigs":1,"type":"pubkeyhash","addresses":["pJWi9BXT9hsVaAft92RNcufBy1LZGU4RtT"]}}],"blockhash":"a73cd77ed4dcba771cc279806f903cb88e925beba50ea160031c557ec9c3271b","confirmations":209,"blocktime":1540804272}