{"hex":"01000000a8ced65b025a4b21ce751be65d304962950c8b91747d7c546f76242f214edeef1d962567b8000000006b483045022100cbd66304ab35b688516d00ff799c18e8380051da30109ae209f1461dcce464cf02202bdf05cb988690f2aadb59e8bb8155ee257dd6b3ded04c8e9ac57046aa7c9fdf0121029e857134122939a57279b02312e296a02bcf0cf876ddc541bd372450215dbeacffffffff5a4b21ce751be65d304962950c8b91747d7c546f76242f214edeef1d962567b8010000006b48304502210080889d18265079a57e51ad0759c88e3832602735ef7c32b630ea48fe949fc90302201739c2d5ffcbf322d601e6c40d7cc7cf2f882ef07979539519a2e864dd49af58012102d20884fffdf2bb6abb4990ad304c1c4199c2139dc5fc78cd426b4ab42540e4a9ffffffff0287221200000000001976a9144c28ee798243702bc4500cdb4da9004130bb47f688acbbd01000000000001976a914480e5650765a730b0050d1db41e5eee26373cea588ac00000000","txid":"fec4dbb13e2d48dc707a01fc663ce29654bd9387a4d41d7b04cb221babbc6a9a","version":1,"time":1540804272,"locktime":0,"vin":[{"txid":"b86725961defde4e212f24766f547c7d74918b0c956249305de61b75ce214b5a","vout":0,"scriptSig":{"asm":"3045022100cbd66304ab35b688516d00ff799c18e8380051da30109ae209f1461dcce464cf02202bdf05cb988690f2aadb59e8bb8155ee257dd6b3ded04c8e9ac57046aa7c9fdf01 029e857134122939a57279b02312e296a02bcf0cf876ddc541bd372450215dbeac","hex":"483045022100cbd66304ab35b688516d00ff799c18e8380051da30109ae209f1461dcce464cf02202bdf05cb988690f2aadb59e8bb8155ee257dd6b3ded04c8e9ac57046aa7c9fdf0121029e857134122939a57279b02312e296a02bcf0cf876ddc541bd372450215dbeac"},"sequence":4294967295},{"txid":"b86725961defde4e212f24766f547c7d74918b0c956249305de61b75ce214b5a","vout":1,"scriptSig":{"asm":"304502210080889d18265079a57e51ad0759c88e3832602735ef7c32b630ea48fe949fc90302201739c2d5ffcbf322d601e6c40d7cc7cf2f882ef07979539519a2e864dd49af5801 02d20884fffdf2bb6abb4990ad304c1c4199c2139dc5fc78cd426b4ab42540e4a9","hex":"48304502210080889d18265079a57e51ad0759c88e3832602735ef7c32b630ea48fe949fc90302201739c2d5ffcbf322d601e6c40d7cc7cf2f882ef07979539519a2e864dd49af58012102d20884fffdf2bb6abb4990ad304c1c4199c2139dc5fc78cd426b4ab42540e4a9"},"sequence":4294967295}],"vout":[{"value":0.01188487,"n":0,"scriptPubKey":{"asm":"OP_DUP OP_HASH160 4c28ee798243702bc4500cdb4da9004130bb47f6 OP_EQUALVERIFY OP_CHECKSIG","reqSigs":1,"type":"pubkeyhash","addresses":["pCVGbFvFLapGyskXvwfxG2ss21bRU9FqUh"]}},{"value":0.01102011,"n":1,"scriptPubKey":{"asm":"OP_DUP OP_HASH160 480e5650765a730b0050d1db41e5eee26373cea5 OP_EQUALVERIFY OP_CHECKSIG","reqSigs":1,"type":"pubkeyhash","addresses":["pC7a2gTH6Hwirr9oRYpQ83SPdrpDxLBSAk"]}}],"blockhash":"a73cd77ed4dcba771cc279806f903cb88e925beba50ea160031c557ec9c3271b","confirmations":209,"blocktime":1540804272}