{"hex":"010000001d67df5b02665355db5e3164db306de96bf48e69fab36aedcbb1c7de7f160d5156a742f848000000006b483045022100a7bed7e94d584ea3a36e9f34c2e64bee58ef5c76108b67aad732466b170a031402201b37d0319b5c28a88bac762a066f988d9d5d573f12e078c64cc97603e734b474012102bbb1ce5e998c1d152b40dd69d0837159f0a5596b2f04ef3b887978a6cbada80cffffffff179a37f78012af2f05da3c14e0685428e7227f58a2d33acf00fbe50bfda77f62010000006a47304402204960f560c3614fe4889bbdb8842f972f3cfbc83ba817e3a6e3c5da810c2a0588022052b409d14ab5cf803c673b20e51804104d7e1ce10312f8213b2c48e863d3d3110121021f7fed896650692f31d8d59b1fa89b7316e2b3ba3d6f462b27fc2736e07445b1ffffffff02549b1500000000001976a9144f0958a195718b28ed2776ee5c40ba86559e86ff88ac8088db11000000001976a914700533d493a5bd0b95186ea958e443edeb1f47db88ac00000000","txid":"7ad3ee21f1ac94f14c28db737c99430b1f9f420bae35d81d025c04dafe3e1c58","version":1,"time":1541367584,"locktime":0,"vin":[{"txid":"48f842a756510d167fdec7b1cbed6ab3fa698ef46be96d30db64315edb555366","vout":0,"scriptSig":{"asm":"3045022100a7bed7e94d584ea3a36e9f34c2e64bee58ef5c76108b67aad732466b170a031402201b37d0319b5c28a88bac762a066f988d9d5d573f12e078c64cc97603e734b47401 02bbb1ce5e998c1d152b40dd69d0837159f0a5596b2f04ef3b887978a6cbada80c","hex":"483045022100a7bed7e94d584ea3a36e9f34c2e64bee58ef5c76108b67aad732466b170a031402201b37d0319b5c28a88bac762a066f988d9d5d573f12e078c64cc97603e734b474012102bbb1ce5e998c1d152b40dd69d0837159f0a5596b2f04ef3b887978a6cbada80c"},"sequence":4294967295},{"txid":"627fa7fd0be5fb00cf3ad3a2587f22e7285468e0143cda052faf1280f7379a17","vout":1,"scriptSig":{"asm":"304402204960f560c3614fe4889bbdb8842f972f3cfbc83ba817e3a6e3c5da810c2a0588022052b409d14ab5cf803c673b20e51804104d7e1ce10312f8213b2c48e863d3d31101 021f7fed896650692f31d8d59b1fa89b7316e2b3ba3d6f462b27fc2736e07445b1","hex":"47304402204960f560c3614fe4889bbdb8842f972f3cfbc83ba817e3a6e3c5da810c2a0588022052b409d14ab5cf803c673b20e51804104d7e1ce10312f8213b2c48e863d3d3110121021f7fed896650692f31d8d59b1fa89b7316e2b3ba3d6f462b27fc2736e07445b1"},"sequence":4294967295}],"vout":[{"value":0.0141602,"n":0,"scriptPubKey":{"asm":"OP_DUP OP_HASH160 4f0958a195718b28ed2776ee5c40ba86559e86ff OP_EQUALVERIFY OP_CHECKSIG","reqSigs":1,"type":"pubkeyhash","addresses":["pCkUnFFnZxLHLkj3BKFdzxDhHRZu8w5DFT"]}},{"value":2.996,"n":1,"scriptPubKey":{"asm":"OP_DUP OP_HASH160 700533d493a5bd0b95186ea958e443edeb1f47db OP_EQUALVERIFY OP_CHECKSIG","reqSigs":1,"type":"pubkeyhash","addresses":["pFkt7fTsmMh3EN6uCSWLdB8pj748REZGL9"]}}],"blockhash":"51d7e97717baa3bd47aa80b13b9406dfe93cf8abd3240d395817e4eba8643bda","confirmations":41,"blocktime":1541367584}