{"hex":"010000002067df5b01f53dc4ef52e7bbac063b943900b4562720b7f286795ba3675e41035e134619990100000049483045022100e45977b59078bd78f8d80ede4949bf8eb8c4133ae1804f61ae7e29f01bd758a202204b9929045635db365a9a7cf2ec22dc3e17499bce8c75ba1b1440993f59afd28f01ffffffff0400000000000000000000514a8d0e000000232103b243e492fed06b260d1c6384b7578d20f178d778b69bc3ca5028e941e4ef64acac8c004b8d0e000000232103b243e492fed06b260d1c6384b7578d20f178d778b69bc3ca5028e941e4ef64acacc4e20300000000001976a914239bf4dba7e2193b7f701a7b68d0e94c85d85fac88ac00000000","txid":"afea36ed96d1eb7e7de718575500f2134b6c5ea92fcc3c1adca62fc70e7820bc","version":1,"time":1541367584,"locktime":0,"vin":[{"txid":"991946135e03415e67a35b7986f2b7202756b40039943b06acbbe752efc43df5","vout":1,"scriptSig":{"asm":"3045022100e45977b59078bd78f8d80ede4949bf8eb8c4133ae1804f61ae7e29f01bd758a202204b9929045635db365a9a7cf2ec22dc3e17499bce8c75ba1b1440993f59afd28f01","hex":"483045022100e45977b59078bd78f8d80ede4949bf8eb8c4133ae1804f61ae7e29f01bd758a202204b9929045635db365a9a7cf2ec22dc3e17499bce8c75ba1b1440993f59afd28f01"},"sequence":4294967295}],"vout":[{"value":0,"n":0,"scriptPubKey":{"asm":"","type":"nonstandard"}},{"value":625,"n":1,"scriptPubKey":{"asm":"03b243e492fed06b260d1c6384b7578d20f178d778b69bc3ca5028e941e4ef64ac OP_CHECKSIG","reqSigs":1,"type":"pubkey","addresses":["pU498g2Tze2KypwgCnomJXchMWH8HXyZb6"]}},{"value":625.0004494,"n":2,"scriptPubKey":{"asm":"03b243e492fed06b260d1c6384b7578d20f178d778b69bc3ca5028e941e4ef64ac OP_CHECKSIG","reqSigs":1,"type":"pubkey","addresses":["pU498g2Tze2KypwgCnomJXchMWH8HXyZb6"]}},{"value":0.0025466,"n":3,"scriptPubKey":{"asm":"OP_DUP OP_HASH160 239bf4dba7e2193b7f701a7b68d0e94c85d85fac OP_EQUALVERIFY OP_CHECKSIG","reqSigs":1,"type":"pubkeyhash","addresses":["p8nrgTxTfKDC3hvmSmFxDcxpYguUCo8yWb"]}}],"blockhash":"51d7e97717baa3bd47aa80b13b9406dfe93cf8abd3240d395817e4eba8643bda","confirmations":41,"blocktime":1541367584}