{"hex":"010000008d38d65b01f5a5907995404864b7fe048577a896ee769f22becfb93a1b556e811e666149f10000000069463043021f396432d97a0dd873e48a3038ebf39451f324fd74dfc37109a1651fba6febb2022030fd516ac4e19b191899b051dfb3ed857434f56f766c945c579c56c268be56a8012102c189b5486dc2771cc25227f9a9c2c3715814e24db8640079b8ec7b2f4874e9d6ffffffff02941f3408000000001976a9147497242bd11fe2ede7052da7044e209675fb284388ac50b0f600000000001976a9140668351cf102a0a8e790ac0edcf1f7dc5a19005c88ac00000000","txid":"0688a10bbb7c93eb83e4c39b9d5848182d906714147b34dd0545a1f910ae1a9d","version":1,"time":1540765840,"locktime":0,"vin":[{"txid":"f14961661e816e551b3ab9cfbe229f76ee96a8778504feb7644840957990a5f5","vout":0,"scriptSig":{"asm":"3043021f396432d97a0dd873e48a3038ebf39451f324fd74dfc37109a1651fba6febb2022030fd516ac4e19b191899b051dfb3ed857434f56f766c945c579c56c268be56a801 02c189b5486dc2771cc25227f9a9c2c3715814e24db8640079b8ec7b2f4874e9d6","hex":"463043021f396432d97a0dd873e48a3038ebf39451f324fd74dfc37109a1651fba6febb2022030fd516ac4e19b191899b051dfb3ed857434f56f766c945c579c56c268be56a8012102c189b5486dc2771cc25227f9a9c2c3715814e24db8640079b8ec7b2f4874e9d6"},"sequence":4294967295}],"vout":[{"value":1.37633684,"n":0,"scriptPubKey":{"asm":"OP_DUP OP_HASH160 7497242bd11fe2ede7052da7044e209675fb2843 OP_EQUALVERIFY OP_CHECKSIG","reqSigs":1,"type":"pubkeyhash","addresses":["pGB3eSREqWQ2X4XJ3unYx2935biwBNUdc2"]}},{"value":0.16166992,"n":1,"scriptPubKey":{"asm":"OP_DUP OP_HASH160 0668351cf102a0a8e790ac0edcf1f7dc5a19005c OP_EQUALVERIFY OP_CHECKSIG","reqSigs":1,"type":"pubkeyhash","addresses":["p68T6KSHEsi3FUdHyA6vWRdVeZuCFKqicW"]}}],"blockhash":"f71cf269e2c552166d3bd123e9e899a0b0b0259cecc1b4488877f849e42cb120","confirmations":259,"blocktime":1540765840}