{"hex":"010000008b38d65b023222752abcf374defa94eaccb400843ff124d7e24f557e336784377a799e25d7000000006b483045022100a0e33ec4764cb8ed65839a5cddb821f63d6939b0555d8a0f83d975bf30133c96022077d8d5f8da279e560cec86f492400f50be1659f3b5f2424361e6bba3912e783b012102c189b5486dc2771cc25227f9a9c2c3715814e24db8640079b8ec7b2f4874e9d6ffffffff3222752abcf374defa94eaccb400843ff124d7e24f557e336784377a799e25d7010000006b48304502210098be0dba2b5b7731b7a7f502599ef73733d16da229add12959744d063b59ce63022059c9d7606bee3c3dc36d74d2bc56b49e54f798e249d27db312128713d3327e410121030005ba3d43eb33f845883af925a247e4e057ba38d59775460a0110615b99e88dffffffff025f231300000000001976a9147497242bd11fe2ede7052da7044e209675fb284388ac50b0f600000000001976a9140668351cf102a0a8e790ac0edcf1f7dc5a19005c88ac00000000","txid":"9f4a2a9c6199b8bea614bed30fa2fb87e0081f47f277773bea9d1a88e842ffcb","version":1,"time":1540765840,"locktime":0,"vin":[{"txid":"d7259e797a378467337e554fe2d724f13f8400b4ccea94fade74f3bc2a752232","vout":0,"scriptSig":{"asm":"3045022100a0e33ec4764cb8ed65839a5cddb821f63d6939b0555d8a0f83d975bf30133c96022077d8d5f8da279e560cec86f492400f50be1659f3b5f2424361e6bba3912e783b01 02c189b5486dc2771cc25227f9a9c2c3715814e24db8640079b8ec7b2f4874e9d6","hex":"483045022100a0e33ec4764cb8ed65839a5cddb821f63d6939b0555d8a0f83d975bf30133c96022077d8d5f8da279e560cec86f492400f50be1659f3b5f2424361e6bba3912e783b012102c189b5486dc2771cc25227f9a9c2c3715814e24db8640079b8ec7b2f4874e9d6"},"sequence":4294967295},{"txid":"d7259e797a378467337e554fe2d724f13f8400b4ccea94fade74f3bc2a752232","vout":1,"scriptSig":{"asm":"304502210098be0dba2b5b7731b7a7f502599ef73733d16da229add12959744d063b59ce63022059c9d7606bee3c3dc36d74d2bc56b49e54f798e249d27db312128713d3327e4101 030005ba3d43eb33f845883af925a247e4e057ba38d59775460a0110615b99e88d","hex":"48304502210098be0dba2b5b7731b7a7f502599ef73733d16da229add12959744d063b59ce63022059c9d7606bee3c3dc36d74d2bc56b49e54f798e249d27db312128713d3327e410121030005ba3d43eb33f845883af925a247e4e057ba38d59775460a0110615b99e88d"},"sequence":4294967295}],"vout":[{"value":0.01254239,"n":0,"scriptPubKey":{"asm":"OP_DUP OP_HASH160 7497242bd11fe2ede7052da7044e209675fb2843 OP_EQUALVERIFY OP_CHECKSIG","reqSigs":1,"type":"pubkeyhash","addresses":["pGB3eSREqWQ2X4XJ3unYx2935biwBNUdc2"]}},{"value":0.16166992,"n":1,"scriptPubKey":{"asm":"OP_DUP OP_HASH160 0668351cf102a0a8e790ac0edcf1f7dc5a19005c OP_EQUALVERIFY OP_CHECKSIG","reqSigs":1,"type":"pubkeyhash","addresses":["p68T6KSHEsi3FUdHyA6vWRdVeZuCFKqicW"]}}],"blockhash":"f71cf269e2c552166d3bd123e9e899a0b0b0259cecc1b4488877f849e42cb120","confirmations":259,"blocktime":1540765840}