{"hex":"010000009038d65b0128c23a2be483e7c0727ccc32851f33c50c01298da8bbc3d2b8c3beb2c6685d5301000000494830450221009284f1a6e0dbe348aaff6715973524190bc0fe7182e6c9701249b83a3c47f16d02206ada385cbe8dd9d03c5140f89e6f7dc947d7c87b23fe9a4da6761e241ca5d9dd01ffffffff0400000000000000000000a9a1d1010000002321020b1cd26fc4b9f080aea1cf7b667efd5e8453f70429056589831fa7f63506ddbfac32feb0d1010000002321020b1cd26fc4b9f080aea1cf7b667efd5e8453f70429056589831fa7f63506ddbfac5a6b0000000000001976a914f644d7bb2dad64400ad72ff27a1b98cf981fdd7e88ac00000000","txid":"ec39f5b21be60d08d4358f6eedb1a487631fa313e88b018fc234079bfd05cfb7","version":1,"time":1540765840,"locktime":0,"vin":[{"txid":"535d68c6b2bec3b8d2c3bba88d29010cc5331f8532cc7c72c0e783e42b3ac228","vout":1,"scriptSig":{"asm":"30450221009284f1a6e0dbe348aaff6715973524190bc0fe7182e6c9701249b83a3c47f16d02206ada385cbe8dd9d03c5140f89e6f7dc947d7c87b23fe9a4da6761e241ca5d9dd01","hex":"4830450221009284f1a6e0dbe348aaff6715973524190bc0fe7182e6c9701249b83a3c47f16d02206ada385cbe8dd9d03c5140f89e6f7dc947d7c87b23fe9a4da6761e241ca5d9dd01"},"sequence":4294967295}],"vout":[{"value":0,"n":0,"scriptPubKey":{"asm":"","type":"nonstandard"}},{"value":78.12,"n":1,"scriptPubKey":{"asm":"020b1cd26fc4b9f080aea1cf7b667efd5e8453f70429056589831fa7f63506ddbf OP_CHECKSIG","reqSigs":1,"type":"pubkey","addresses":["pECTDpfW4nW8hYte3f3F9ZQxwgWmBwmcYL"]}},{"value":78.1300485,"n":2,"scriptPubKey":{"asm":"020b1cd26fc4b9f080aea1cf7b667efd5e8453f70429056589831fa7f63506ddbf OP_CHECKSIG","reqSigs":1,"type":"pubkey","addresses":["pECTDpfW4nW8hYte3f3F9ZQxwgWmBwmcYL"]}},{"value":0.00027482,"n":3,"scriptPubKey":{"asm":"OP_DUP OP_HASH160 f644d7bb2dad64400ad72ff27a1b98cf981fdd7e OP_EQUALVERIFY OP_CHECKSIG","reqSigs":1,"type":"pubkeyhash","addresses":["pTziuAqinUjYFVy6Da9fmDBWUTdPjXTj23"]}}],"blockhash":"f71cf269e2c552166d3bd123e9e899a0b0b0259cecc1b4488877f849e42cb120","confirmations":259,"blocktime":1540765840}