{"hex":"0100000093a9c25b01d9cd82429fd35a800f06a79bd1a9a514ea6aa908c3c43193396c885e4a037b0e000000006a47304402204195b1da1bd52907bafd876ff5dc2a3da59cea996d83bdc1b70162805c3eb044022024d7aec36b962540f9cba48e1119424a169cc7465c43166c89dd94306243c69e012102af96086cb050f07685d1c88427dead87ec1ee4961ad4f05ac79c23699ba8d0c3ffffffff02008221a94d7e23001976a9147179762c09ae4c8832064f871edb2d0304a93c1e88ac0088526a740000001976a914256b9b540806ec78f3cbc6d37188a2e1504616e688ac00000000","txid":"267713fca5294b5dd19ef7797e5f8138371b2059098b52014b76b75f3af54a1e","version":1,"time":1539484064,"locktime":0,"vin":[{"txid":"0e7b034a5e886c399331c4c308a96aea14a5a9d19ba7060f805ad39f4282cdd9","vout":0,"scriptSig":{"asm":"304402204195b1da1bd52907bafd876ff5dc2a3da59cea996d83bdc1b70162805c3eb044022024d7aec36b962540f9cba48e1119424a169cc7465c43166c89dd94306243c69e01 02af96086cb050f07685d1c88427dead87ec1ee4961ad4f05ac79c23699ba8d0c3","hex":"47304402204195b1da1bd52907bafd876ff5dc2a3da59cea996d83bdc1b70162805c3eb044022024d7aec36b962540f9cba48e1119424a169cc7465c43166c89dd94306243c69e012102af96086cb050f07685d1c88427dead87ec1ee4961ad4f05ac79c23699ba8d0c3"},"sequence":4294967295}],"vout":[{"value":99904962,"n":0,"scriptPubKey":{"asm":"OP_DUP OP_HASH160 7179762c09ae4c8832064f871edb2d0304a93c1e OP_EQUALVERIFY OP_CHECKSIG","reqSigs":1,"type":"pubkeyhash","addresses":["pFta4gZjEtQcDmjfvGM7yLMxS7QDf4abHo"]}},{"value":5000,"n":1,"scriptPubKey":{"asm":"OP_DUP OP_HASH160 256b9b540806ec78f3cbc6d37188a2e1504616e6 OP_EQUALVERIFY OP_CHECKSIG","reqSigs":1,"type":"pubkeyhash","addresses":["p8xS7T8mkTz7MJV9EcYkBri1Zi12wCV83N"]}}],"blockhash":"6824b4bdd332d5a54a98a034d07ebf51f26f26ebe85899081b06fa0b3ad3ad45","confirmations":329,"blocktime":1539484064}