{"hex":"01000000a0a9c25b01a3823e2bcb9608f2c49a540fdcc61184c1199c99c74ffd04f0893de1a9dbc584010000004948304502210098613a0c179b4aa8f2775329aa17cb8aaef85b1b0d958676b8919035f589885602206a4781cb8f7cf23fa96eaa1fd2b95f7a7f98340a5018e9c2cd66be736d6c976101ffffffff04000000000000000000c07a17900e0000002321028d9be6ae35cf9126d1ddd81f7e9a33d77e64d908c42bf417d6424ba1da9106a6ac00bd26900e0000002321028d9be6ae35cf9126d1ddd81f7e9a33d77e64d908c42bf417d6424ba1da9106a6ac80fe210a000000001976a91400eadc74da710bda77ce2fa5b8d39eabf1783dfa88ac00000000","txid":"8670188436e48cd83da402c3d00e7132df53487d4752c201a0967a1800571a53","version":1,"time":1539484064,"locktime":0,"vin":[{"txid":"84c5dba9e13d89f004fd4fc7999c19c18411c6dc0f549ac4f20896cb2b3e82a3","vout":1,"scriptSig":{"asm":"304502210098613a0c179b4aa8f2775329aa17cb8aaef85b1b0d958676b8919035f589885602206a4781cb8f7cf23fa96eaa1fd2b95f7a7f98340a5018e9c2cd66be736d6c976101","hex":"48304502210098613a0c179b4aa8f2775329aa17cb8aaef85b1b0d958676b8919035f589885602206a4781cb8f7cf23fa96eaa1fd2b95f7a7f98340a5018e9c2cd66be736d6c976101"},"sequence":4294967295}],"vout":[{"value":0,"n":0,"scriptPubKey":{"asm":"","type":"nonstandard"}},{"value":625.47,"n":1,"scriptPubKey":{"asm":"028d9be6ae35cf9126d1ddd81f7e9a33d77e64d908c42bf417d6424ba1da9106a6 OP_CHECKSIG","reqSigs":1,"type":"pubkey","addresses":["pG17eAwgEzq6zQQ7cLzvCMepRqGYMprwdz"]}},{"value":625.48,"n":2,"scriptPubKey":{"asm":"028d9be6ae35cf9126d1ddd81f7e9a33d77e64d908c42bf417d6424ba1da9106a6 OP_CHECKSIG","reqSigs":1,"type":"pubkey","addresses":["pG17eAwgEzq6zQQ7cLzvCMepRqGYMprwdz"]}},{"value":1.7,"n":3,"scriptPubKey":{"asm":"OP_DUP OP_HASH160 00eadc74da710bda77ce2fa5b8d39eabf1783dfa OP_EQUALVERIFY OP_CHECKSIG","reqSigs":1,"type":"pubkeyhash","addresses":["p5dRZ9MeyiKDma1pAUrsmvEK4NBmmdC4ZN"]}}],"blockhash":"6824b4bdd332d5a54a98a034d07ebf51f26f26ebe85899081b06fa0b3ad3ad45","confirmations":329,"blocktime":1539484064}