{"hex":"01000000f0cdd65b011b9e9c0158fbc5fe3780dc093d9a4eb6652d132ab2a4be64371603510664c13e010000004948304502210096cda99f9ffbdc7145aeb932aeb9fe9c0c799129126cafb16927b54e6771b30f022016157f9ca7cbeabfae4e8ac7b7f3d5a3e5158c9cbac591765845aa1b4c4ef7f501ffffffff03000000000000000000a6a9a1d1010000002321020b1cd26fc4b9f080aea1cf7b667efd5e8453f70429056589831fa7f63506ddbfaca8030000000000001976a9146ee8ae815746df1e1038d51169f823db3353ab0488ac00000000","txid":"92a4b96780af9fafbb4ae0dad1e0a5a664bcc75a35d7484b1b50f92d1ae81d88","version":1,"time":1540804080,"locktime":0,"vin":[{"txid":"3ec164065103163764bea4b22a132d65b64e9a3d09dc8037fec5fb58019c9e1b","vout":1,"scriptSig":{"asm":"304502210096cda99f9ffbdc7145aeb932aeb9fe9c0c799129126cafb16927b54e6771b30f022016157f9ca7cbeabfae4e8ac7b7f3d5a3e5158c9cbac591765845aa1b4c4ef7f501","hex":"48304502210096cda99f9ffbdc7145aeb932aeb9fe9c0c799129126cafb16927b54e6771b30f022016157f9ca7cbeabfae4e8ac7b7f3d5a3e5158c9cbac591765845aa1b4c4ef7f501"},"sequence":4294967295}],"vout":[{"value":0,"n":0,"scriptPubKey":{"asm":"","type":"nonstandard"}},{"value":78.12000166,"n":1,"scriptPubKey":{"asm":"020b1cd26fc4b9f080aea1cf7b667efd5e8453f70429056589831fa7f63506ddbf OP_CHECKSIG","reqSigs":1,"type":"pubkey","addresses":["pECTDpfW4nW8hYte3f3F9ZQxwgWmBwmcYL"]}},{"value":0.00000936,"n":2,"scriptPubKey":{"asm":"OP_DUP OP_HASH160 6ee8ae815746df1e1038d51169f823db3353ab04 OP_EQUALVERIFY OP_CHECKSIG","reqSigs":1,"type":"pubkeyhash","addresses":["pFf1Gp4G6PCkSUxUY1XLwNBH2ji6sBJMC3"]}}],"blockhash":"6e692976b855e80384e4f132f4c7c7675973524c7e99df24141fd1deb2b15116","confirmations":211,"blocktime":1540804080}