{"hex":"01000000e9cdd65b020350cfdf4d9e0263ac2151bd6bfdd334b1aa33a322ec6b8548b0e931b46af90c000000006a47304402207571f5f52669cfb8d11e4f71ecdf31f837bf8e995ce7e86601475044cbf73fee02205bf8cad04b816424f7316b94d13f8f50dacba3a0d87e33a0606ed00c58133ea50121029e857134122939a57279b02312e296a02bcf0cf876ddc541bd372450215dbeacffffffff0350cfdf4d9e0263ac2151bd6bfdd334b1aa33a322ec6b8548b0e931b46af90c010000006b483045022100fb79a6222a3a036f7996ef4d98bf29e09bb8144b713b69cd3f1dacc0b2e5738a02204f098e8403d885ea7baf62f5a48cd6f4c4c19ff83385e9dc4238014603c0f53b0121039cda4f574405c7a4874362ba384f731d000dbc97b2a15f32c07aa372bd27581affffffff026a2a1200000000001976a9144c28ee798243702bc4500cdb4da9004130bb47f688ac74d11000000000001976a914ed7a8142a942827d5c194677145ff1c45deba4ff88ac00000000","txid":"e24d4c6658e7861c3e5fbaaca8f5fb20e983d6d046263805103d89e6898e5c1c","version":1,"time":1540804080,"locktime":0,"vin":[{"txid":"0cf96ab431e9b048856bec22a333aab134d3fd6bbd5121ac63029e4ddfcf5003","vout":0,"scriptSig":{"asm":"304402207571f5f52669cfb8d11e4f71ecdf31f837bf8e995ce7e86601475044cbf73fee02205bf8cad04b816424f7316b94d13f8f50dacba3a0d87e33a0606ed00c58133ea501 029e857134122939a57279b02312e296a02bcf0cf876ddc541bd372450215dbeac","hex":"47304402207571f5f52669cfb8d11e4f71ecdf31f837bf8e995ce7e86601475044cbf73fee02205bf8cad04b816424f7316b94d13f8f50dacba3a0d87e33a0606ed00c58133ea50121029e857134122939a57279b02312e296a02bcf0cf876ddc541bd372450215dbeac"},"sequence":4294967295},{"txid":"0cf96ab431e9b048856bec22a333aab134d3fd6bbd5121ac63029e4ddfcf5003","vout":1,"scriptSig":{"asm":"3045022100fb79a6222a3a036f7996ef4d98bf29e09bb8144b713b69cd3f1dacc0b2e5738a02204f098e8403d885ea7baf62f5a48cd6f4c4c19ff83385e9dc4238014603c0f53b01 039cda4f574405c7a4874362ba384f731d000dbc97b2a15f32c07aa372bd27581a","hex":"483045022100fb79a6222a3a036f7996ef4d98bf29e09bb8144b713b69cd3f1dacc0b2e5738a02204f098e8403d885ea7baf62f5a48cd6f4c4c19ff83385e9dc4238014603c0f53b0121039cda4f574405c7a4874362ba384f731d000dbc97b2a15f32c07aa372bd27581a"},"sequence":4294967295}],"vout":[{"value":0.01190506,"n":0,"scriptPubKey":{"asm":"OP_DUP OP_HASH160 4c28ee798243702bc4500cdb4da9004130bb47f6 OP_EQUALVERIFY OP_CHECKSIG","reqSigs":1,"type":"pubkeyhash","addresses":["pCVGbFvFLapGyskXvwfxG2ss21bRU9FqUh"]}},{"value":0.01102196,"n":1,"scriptPubKey":{"asm":"OP_DUP OP_HASH160 ed7a8142a942827d5c194677145ff1c45deba4ff OP_EQUALVERIFY OP_CHECKSIG","reqSigs":1,"type":"pubkeyhash","addresses":["pTCF6xfu9x9VBtTZJCLjycbipXDL6W1Xv4"]}}],"blockhash":"6e692976b855e80384e4f132f4c7c7675973524c7e99df24141fd1deb2b15116","confirmations":211,"blocktime":1540804080}