{"hex":"01000000e69dc25b010000000000000000000000000000000000000000000000000000000000000000ffffffff03520102ffffffff0100000000000000001976a91417758592dd9fed0b9b30d95efa28452fe6c7b23388ac00000000","txid":"84c66ae1ca49724eb62cb72fd4c7b757ed056e38efcaca63627d9b4904a915f8","version":1,"time":1539481065,"locktime":0,"vin":[{"coinbase":"520102","sequence":4294967295}],"vout":[{"value":0,"n":0,"scriptPubKey":{"asm":"OP_DUP OP_HASH160 17758592dd9fed0b9b30d95efa28452fe6c7b233 OP_EQUALVERIFY OP_CHECKSIG","reqSigs":1,"type":"pubkeyhash","addresses":["p7gcXg21w7JC5SSk5m2KuFBVzbpJrMzvgQ"]}}],"blockhash":"00000a48520a3b4e68520584e7bf8d79debd2d680c72b5f96e42e6ac9ee1a9cc","confirmations":157,"blocktime":1539481065}