{"hex":"01000000d902da5b016463b0845977fd13e1e5f93958e024f2a8de40bd69cef16c19a0708a951e2291010000006a47304402204314069932b3d26d1739ae3581fc3c615e5204c1640852230e7bad880c2176ab0220242dc170e495aa6a30aea0a6e8b5a6a09d456bc60eb84111f14e9fe382fccef2012102d2785a57591161aa9776815cd30561decaecb92bde86da8e756d27acdea18704ffffffff0248bcd715000000001976a91467231182ad1305bfe33dc9f258c002d6f0f6b33288acc9ace60b000000001976a914ec2c99dbe836c1ad385a2275586ff8723e9069e188ac00000000","txid":"7ebccd49ec0afc84086594de61d12f79220b8a8671e0f989d289e6e7b5237de3","version":1,"time":1541014240,"locktime":0,"vin":[{"txid":"91221e958a70a0196cf1ce69bd40dea8f224e05839f9e5e113fd775984b06364","vout":1,"scriptSig":{"asm":"304402204314069932b3d26d1739ae3581fc3c615e5204c1640852230e7bad880c2176ab0220242dc170e495aa6a30aea0a6e8b5a6a09d456bc60eb84111f14e9fe382fccef201 02d2785a57591161aa9776815cd30561decaecb92bde86da8e756d27acdea18704","hex":"47304402204314069932b3d26d1739ae3581fc3c615e5204c1640852230e7bad880c2176ab0220242dc170e495aa6a30aea0a6e8b5a6a09d456bc60eb84111f14e9fe382fccef2012102d2785a57591161aa9776815cd30561decaecb92bde86da8e756d27acdea18704"},"sequence":4294967295}],"vout":[{"value":3.66459976,"n":0,"scriptPubKey":{"asm":"OP_DUP OP_HASH160 67231182ad1305bfe33dc9f258c002d6f0f6b332 OP_EQUALVERIFY OP_CHECKSIG","reqSigs":1,"type":"pubkeyhash","addresses":["pEwup4PYRbrkwxGSe5pLSrfrmnZXdh96Ss"]}},{"value":1.99666889,"n":1,"scriptPubKey":{"asm":"OP_DUP OP_HASH160 ec2c99dbe836c1ad385a2275586ff8723e9069e1 OP_EQUALVERIFY OP_CHECKSIG","reqSigs":1,"type":"pubkeyhash","addresses":["pT5M6ujzrgpzFMXaJbMupvvBwb52UW18YL"]}}],"blockhash":"ee8a43933db772151c85dbafdfec7a44fe608100456881aa1bdb5618dedd88e9","confirmations":121,"blocktime":1541014240}