{"hex":"01000000e002da5b01117ad4fc280feb899edb59c7d4674e466ba9746e88f6c6201c29ac8e8209f45b010000004847304402200ea8351c7dff2ecda0c42c9e9b17068ec57603ea7d8fb19c290f4052e64aba6d02205c554f68375ff92e311e7b8478b633e53e83f2678363abfbfb2a8820cc364d2001ffffffff030000000000000000006a7c250a0000000023210210c18e3b5aba3a6167f17a2fd6b65419de165b4388a78f0e815f0e3bc60d34f3acf4960200000000001976a914256b9b540806ec78f3cbc6d37188a2e1504616e688ac00000000","txid":"af3761daed9180c0061a11d7c33cb62c61c10782c3c974e6f49a6e0d59499846","version":1,"time":1541014240,"locktime":0,"vin":[{"txid":"5bf409828eac291c20c6f6886e74a96b464e67d4c759db9e89eb0f28fcd47a11","vout":1,"scriptSig":{"asm":"304402200ea8351c7dff2ecda0c42c9e9b17068ec57603ea7d8fb19c290f4052e64aba6d02205c554f68375ff92e311e7b8478b633e53e83f2678363abfbfb2a8820cc364d2001","hex":"47304402200ea8351c7dff2ecda0c42c9e9b17068ec57603ea7d8fb19c290f4052e64aba6d02205c554f68375ff92e311e7b8478b633e53e83f2678363abfbfb2a8820cc364d2001"},"sequence":4294967295}],"vout":[{"value":0,"n":0,"scriptPubKey":{"asm":"","type":"nonstandard"}},{"value":1.70228842,"n":1,"scriptPubKey":{"asm":"0210c18e3b5aba3a6167f17a2fd6b65419de165b4388a78f0e815f0e3bc60d34f3 OP_CHECKSIG","reqSigs":1,"type":"pubkey","addresses":["pFf1Gp4G6PCkSUxUY1XLwNBH2ji6sBJMC3"]}},{"value":0.00169716,"n":2,"scriptPubKey":{"asm":"OP_DUP OP_HASH160 256b9b540806ec78f3cbc6d37188a2e1504616e6 OP_EQUALVERIFY OP_CHECKSIG","reqSigs":1,"type":"pubkeyhash","addresses":["p8xS7T8mkTz7MJV9EcYkBri1Zi12wCV83N"]}}],"blockhash":"ee8a43933db772151c85dbafdfec7a44fe608100456881aa1bdb5618dedd88e9","confirmations":121,"blocktime":1541014240}