{"hex":"01000000e456dc5b0270db42f67f1ac3d69be1d35a019eb923c63604c1e2b4ab279b50de3f24368ed5000000006b483045022100eb529fffa14ac0ddc4bd9fa97d9977add3a35ef923b6091087dcf65a593d653702200a3bd9184ac6028700cbe84a39ff396c1130404841a1772a8434da9716ae04930121024907d73012ed7bdcf1e1789f8f8524d8f85dd0718fee77c7bf9e7577ed815ec4ffffffffdce92b9a53de1c83051ed981ffe12b4c8fe8995eee60a9187f069adf78cf74b0000000006a473044022031707e1eb1abea948c200a57086b83f6af58435c8995552356334ad187bbd72202202b4d4576728c99a061f3438621451a6111fbf9863a592989317d6fb73a5f9f98012103bdc8fb43e1eb81518c12253a8ac71e8af1c6c64ef6e2e143ad0da4196f81685affffffff02c2272000000000001976a914db838183003e8f9432b4c57a49f0c57a67c4cd1b88ac10620b00000000001976a914a34a56ecec97f5180e31e8b234da113b2e1335bb88ac00000000","txid":"bfdf6109ed59d228874de881350cf914eeb609fe1f9d00a94f41cd82baf0d482","version":1,"time":1541166832,"locktime":0,"vin":[{"txid":"d58e36243fde509b27abb4e2c10436c623b99e015ad3e19bd6c31a7ff642db70","vout":0,"scriptSig":{"asm":"3045022100eb529fffa14ac0ddc4bd9fa97d9977add3a35ef923b6091087dcf65a593d653702200a3bd9184ac6028700cbe84a39ff396c1130404841a1772a8434da9716ae049301 024907d73012ed7bdcf1e1789f8f8524d8f85dd0718fee77c7bf9e7577ed815ec4","hex":"483045022100eb529fffa14ac0ddc4bd9fa97d9977add3a35ef923b6091087dcf65a593d653702200a3bd9184ac6028700cbe84a39ff396c1130404841a1772a8434da9716ae04930121024907d73012ed7bdcf1e1789f8f8524d8f85dd0718fee77c7bf9e7577ed815ec4"},"sequence":4294967295},{"txid":"b074cf78df9a067f18a960ee5e99e88f4c2be1ff81d91e05831cde539a2be9dc","vout":0,"scriptSig":{"asm":"3044022031707e1eb1abea948c200a57086b83f6af58435c8995552356334ad187bbd72202202b4d4576728c99a061f3438621451a6111fbf9863a592989317d6fb73a5f9f9801 03bdc8fb43e1eb81518c12253a8ac71e8af1c6c64ef6e2e143ad0da4196f81685a","hex":"473044022031707e1eb1abea948c200a57086b83f6af58435c8995552356334ad187bbd72202202b4d4576728c99a061f3438621451a6111fbf9863a592989317d6fb73a5f9f98012103bdc8fb43e1eb81518c12253a8ac71e8af1c6c64ef6e2e143ad0da4196f81685a"},"sequence":4294967295}],"vout":[{"value":0.0210733,"n":0,"scriptPubKey":{"asm":"OP_DUP OP_HASH160 db838183003e8f9432b4c57a49f0c57a67c4cd1b OP_EQUALVERIFY OP_CHECKSIG","reqSigs":1,"type":"pubkeyhash","addresses":["pRZFiuZ1dshC74mk6tQqK5NhbMmjN8Lc7J"]}},{"value":0.00746,"n":1,"scriptPubKey":{"asm":"OP_DUP OP_HASH160 a34a56ecec97f5180e31e8b234da113b2e1335bb OP_EQUALVERIFY OP_CHECKSIG","reqSigs":1,"type":"pubkeyhash","addresses":["pLRyQBCFm9HbvPDV1VLrVEa4QS4x9FQmQs"]}}],"blockhash":"1d142ca552f1780148926d32b107bcf87aa55a3de7acb628017b27b607639274","confirmations":80,"blocktime":1541166832}