{"hex":"01000000f056dc5b01083142b24ecd913e2a9307aefd05b2d1add7a74209f480e789d44663317fe3ab010000004847304402206f6f01f053c18b7fbf8a20685534d9502fea72bcfcdb9d1fdf179b454f6ee3fc02203c4ffa9fa0a00c7766b1473bce00ada70fc72cee97372bbee0a9c5a5e9f29e6001ffffffff04000000000000000000c017788d0e000000232103670be5afe77a215b42f2bc4bd7c1c5049117430d8e81c1de5c44e9ab4c566689ac705a878d0e000000232103670be5afe77a215b42f2bc4bd7c1c5049117430d8e81c1de5c44e9ab4c566689ac7a020000000000001976a9140c2d1eddba56317fb81d41241b8f40bbca7b5b5488ac00000000","txid":"e8e9bee57ecefd72bcb059e93c15bf629fddab625d58a456a8ae65b73824bc7a","version":1,"time":1541166832,"locktime":0,"vin":[{"txid":"abe37f316346d489e780f40942a7d7add1b205fdae07932a3e91cd4eb2423108","vout":1,"scriptSig":{"asm":"304402206f6f01f053c18b7fbf8a20685534d9502fea72bcfcdb9d1fdf179b454f6ee3fc02203c4ffa9fa0a00c7766b1473bce00ada70fc72cee97372bbee0a9c5a5e9f29e6001","hex":"47304402206f6f01f053c18b7fbf8a20685534d9502fea72bcfcdb9d1fdf179b454f6ee3fc02203c4ffa9fa0a00c7766b1473bce00ada70fc72cee97372bbee0a9c5a5e9f29e6001"},"sequence":4294967295}],"vout":[{"value":0,"n":0,"scriptPubKey":{"asm":"","type":"nonstandard"}},{"value":625.03,"n":1,"scriptPubKey":{"asm":"03670be5afe77a215b42f2bc4bd7c1c5049117430d8e81c1de5c44e9ab4c566689 OP_CHECKSIG","reqSigs":1,"type":"pubkey","addresses":["pRVJAmbxV6TyzWMNW1oNoV1k3zM77bZrBx"]}},{"value":625.04000112,"n":2,"scriptPubKey":{"asm":"03670be5afe77a215b42f2bc4bd7c1c5049117430d8e81c1de5c44e9ab4c566689 OP_CHECKSIG","reqSigs":1,"type":"pubkey","addresses":["pRVJAmbxV6TyzWMNW1oNoV1k3zM77bZrBx"]}},{"value":0.00000634,"n":3,"scriptPubKey":{"asm":"OP_DUP OP_HASH160 0c2d1eddba56317fb81d41241b8f40bbca7b5b54 OP_EQUALVERIFY OP_CHECKSIG","reqSigs":1,"type":"pubkeyhash","addresses":["p6exN3FuZmZyQ7WNzLf7AweTLuHqDvcERN"]}}],"blockhash":"1d142ca552f1780148926d32b107bcf87aa55a3de7acb628017b27b607639274","confirmations":80,"blocktime":1541166832}