{"hex":"0100000000b5d95b07616d12c0f83009e6d8044ca529f8487a828cf948b5df572145598c33ada8bd42030000006b483045022100ae3656ea563b87004a7c812a0746bc45b82752c863b7dee1dbe344408f64f6a7022007209f682efe36d59e6b909c433dd5e5483b92bbed890a65d00de91f80a35a5c0121037080154ad035d87bbe47e967ce43ddce5951865effbdda9b3c857d929ea146c7ffffffff0bd72a00a183ea6106c05e57f472c3a76995dc1a72d2bfb75a1aa8687e8b2465020000006a47304402202c5a2f0841f5b8a456d0b61750d4b8dac2a0de76397f2f42cdca567aaa5fd78002201f6f23ab9725bb8eab4a6ebd430e1599fc17e74afa4190829c524f15f0e0bc780121037080154ad035d87bbe47e967ce43ddce5951865effbdda9b3c857d929ea146c7ffffffff1d936ccdb01fa75b2b17e0d7fec5503f0265a805eeb1d74dac4a7dd661b69afd030000006a47304402204dcf2b0ced79b116402868ca8919a6c8a999b9d2dab2adaaa41d7315bffd5adb02202f68589d4049de6bcbf8c0fa408b52c7b0e0dd4cf5519f6dda374c2c910682750121037080154ad035d87bbe47e967ce43ddce5951865effbdda9b3c857d929ea146c7ffffffff3b0df74b7971063ffab02a99f0cce61306a06fd6d234b4d16fbf1d1f898428b3020000006b483045022100e86a2d0459455131a16594147e16f579952e87299d5b44987b496f17e08e3245022020eb6419abdfa351759606e6fe0a0d80ada27938ed4c5b010a5c0139c734fcf40121037080154ad035d87bbe47e967ce43ddce5951865effbdda9b3c857d929ea146c7ffffffff568ff5e8bfd9fc7c26ac0e5a1ad4fd16e5ed38a72cbbcbc9f872e959313c3bdf020000006a47304402203cbe0f017e0b1a01fb3cf1b4aefb7242be09869a4648a987da408085965d150702200f9d78fee25580747a2c37618752fdfa6ec31a125bcdb16853f79884db60afd70121037080154ad035d87bbe47e967ce43ddce5951865effbdda9b3c857d929ea146c7ffffffffe12bb7e78c1c17817d5e29b48dc33d8cc814c12ca16ecb11b870f470b1591014020000006a4730440220349084643231f785eadf013b0fabfca32ef619d08e3dbba95c2bd83d711c09f602205ae67715b863e08e01b82d9e759dd4071b7d9df19b7edf1075303dc23f0a39af0121037080154ad035d87bbe47e967ce43ddce5951865effbdda9b3c857d929ea146c7ffffffffff9e5ae5329fecfcc8e975101081b1051f4c320fdbfb04efad9798a96de24322020000006a47304402206d7510f19e20cea3b1c91fc1b92e6a1c5c0043ad20433e12dd4512de1a14105d0220463149d5981063d41982affe63d45debb7ec83a3d20a0d9adf0ea33adbb40bab0121037080154ad035d87bbe47e967ce43ddce5951865effbdda9b3c857d929ea146c7ffffffff030000000000000000008c570700000000002321037080154ad035d87bbe47e967ce43ddce5951865effbdda9b3c857d929ea146c7ac55000000000000001976a9144c86b0b2edcbbfcf0d0112bbb160a541568205b788ac00000000","txid":"a6785ca4de440b6451c0f626030b972a04502fd336280ac2e126cfc3f2de2dc5","version":1,"time":1540994304,"locktime":0,"vin":[{"txid":"42bda8ad338c59452157dfb548f98c827a48f829a54c04d8e60930f8c0126d61","vout":3,"scriptSig":{"asm":"3045022100ae3656ea563b87004a7c812a0746bc45b82752c863b7dee1dbe344408f64f6a7022007209f682efe36d59e6b909c433dd5e5483b92bbed890a65d00de91f80a35a5c01 037080154ad035d87bbe47e967ce43ddce5951865effbdda9b3c857d929ea146c7","hex":"483045022100ae3656ea563b87004a7c812a0746bc45b82752c863b7dee1dbe344408f64f6a7022007209f682efe36d59e6b909c433dd5e5483b92bbed890a65d00de91f80a35a5c0121037080154ad035d87bbe47e967ce43ddce5951865effbdda9b3c857d929ea146c7"},"sequence":4294967295},{"txid":"65248b7e68a81a5ab7bfd2721adc9569a7c372f4575ec00661ea83a1002ad70b","vout":2,"scriptSig":{"asm":"304402202c5a2f0841f5b8a456d0b61750d4b8dac2a0de76397f2f42cdca567aaa5fd78002201f6f23ab9725bb8eab4a6ebd430e1599fc17e74afa4190829c524f15f0e0bc7801 037080154ad035d87bbe47e967ce43ddce5951865effbdda9b3c857d929ea146c7","hex":"47304402202c5a2f0841f5b8a456d0b61750d4b8dac2a0de76397f2f42cdca567aaa5fd78002201f6f23ab9725bb8eab4a6ebd430e1599fc17e74afa4190829c524f15f0e0bc780121037080154ad035d87bbe47e967ce43ddce5951865effbdda9b3c857d929ea146c7"},"sequence":4294967295},{"txid":"fd9ab661d67d4aac4dd7b1ee05a865023f50c5fed7e0172b5ba71fb0cd6c931d","vout":3,"scriptSig":{"asm":"304402204dcf2b0ced79b116402868ca8919a6c8a999b9d2dab2adaaa41d7315bffd5adb02202f68589d4049de6bcbf8c0fa408b52c7b0e0dd4cf5519f6dda374c2c9106827501 037080154ad035d87bbe47e967ce43ddce5951865effbdda9b3c857d929ea146c7","hex":"47304402204dcf2b0ced79b116402868ca8919a6c8a999b9d2dab2adaaa41d7315bffd5adb02202f68589d4049de6bcbf8c0fa408b52c7b0e0dd4cf5519f6dda374c2c910682750121037080154ad035d87bbe47e967ce43ddce5951865effbdda9b3c857d929ea146c7"},"sequence":4294967295},{"txid":"b32884891f1dbf6fd1b434d2d66fa00613e6ccf0992ab0fa3f0671794bf70d3b","vout":2,"scriptSig":{"asm":"3045022100e86a2d0459455131a16594147e16f579952e87299d5b44987b496f17e08e3245022020eb6419abdfa351759606e6fe0a0d80ada27938ed4c5b010a5c0139c734fcf401 037080154ad035d87bbe47e967ce43ddce5951865effbdda9b3c857d929ea146c7","hex":"483045022100e86a2d0459455131a16594147e16f579952e87299d5b44987b496f17e08e3245022020eb6419abdfa351759606e6fe0a0d80ada27938ed4c5b010a5c0139c734fcf40121037080154ad035d87bbe47e967ce43ddce5951865effbdda9b3c857d929ea146c7"},"sequence":4294967295},{"txid":"df3b3c3159e972f8c9cbbb2ca738ede516fdd41a5a0eac267cfcd9bfe8f58f56","vout":2,"scriptSig":{"asm":"304402203cbe0f017e0b1a01fb3cf1b4aefb7242be09869a4648a987da408085965d150702200f9d78fee25580747a2c37618752fdfa6ec31a125bcdb16853f79884db60afd701 037080154ad035d87bbe47e967ce43ddce5951865effbdda9b3c857d929ea146c7","hex":"47304402203cbe0f017e0b1a01fb3cf1b4aefb7242be09869a4648a987da408085965d150702200f9d78fee25580747a2c37618752fdfa6ec31a125bcdb16853f79884db60afd70121037080154ad035d87bbe47e967ce43ddce5951865effbdda9b3c857d929ea146c7"},"sequence":4294967295},{"txid":"141059b170f470b811cb6ea12cc114c88c3dc38db4295e7d81171c8ce7b72be1","vout":2,"scriptSig":{"asm":"30440220349084643231f785eadf013b0fabfca32ef619d08e3dbba95c2bd83d711c09f602205ae67715b863e08e01b82d9e759dd4071b7d9df19b7edf1075303dc23f0a39af01 037080154ad035d87bbe47e967ce43ddce5951865effbdda9b3c857d929ea146c7","hex":"4730440220349084643231f785eadf013b0fabfca32ef619d08e3dbba95c2bd83d711c09f602205ae67715b863e08e01b82d9e759dd4071b7d9df19b7edf1075303dc23f0a39af0121037080154ad035d87bbe47e967ce43ddce5951865effbdda9b3c857d929ea146c7"},"sequence":4294967295},{"txid":"2243e26da99897adef04fbdb0f324c1f05b181101075e9c8fcec9f32e55a9eff","vout":2,"scriptSig":{"asm":"304402206d7510f19e20cea3b1c91fc1b92e6a1c5c0043ad20433e12dd4512de1a14105d0220463149d5981063d41982affe63d45debb7ec83a3d20a0d9adf0ea33adbb40bab01 037080154ad035d87bbe47e967ce43ddce5951865effbdda9b3c857d929ea146c7","hex":"47304402206d7510f19e20cea3b1c91fc1b92e6a1c5c0043ad20433e12dd4512de1a14105d0220463149d5981063d41982affe63d45debb7ec83a3d20a0d9adf0ea33adbb40bab0121037080154ad035d87bbe47e967ce43ddce5951865effbdda9b3c857d929ea146c7"},"sequence":4294967295}],"vout":[{"value":0,"n":0,"scriptPubKey":{"asm":"","type":"nonstandard"}},{"value":0.00481164,"n":1,"scriptPubKey":{"asm":"037080154ad035d87bbe47e967ce43ddce5951865effbdda9b3c857d929ea146c7 OP_CHECKSIG","reqSigs":1,"type":"pubkey","addresses":["pEhwSeKiP8Q9UV5H4Vwts61nBy8VHfUUbd"]}},{"value":8.5e-7,"n":2,"scriptPubKey":{"asm":"OP_DUP OP_HASH160 4c86b0b2edcbbfcf0d0112bbb160a541568205b7 OP_EQUALVERIFY OP_CHECKSIG","reqSigs":1,"type":"pubkeyhash","addresses":["pCXCuj4F9uaYHMue5Nqy3XLKdLz4U9gRoi"]}}],"blockhash":"c417675154adbf9b66a3e024260d87025473ce43f1a08959215bd0ed0cdf3a9b","confirmations":143,"blocktime":1540994304}