{"hex":"01000000fab4d95b0198a407a07f988accc6e6bd3d87921098e41beee52fd839d97f41f01a0e7ba13b000000006b483045022100a4812d2e45f518d5997ab997bdfb093e7b3f3c8c48290b91a89704231ed4be5502205a6b76429db265e2380b96f7ecad1cee973325099f284188639e85bac1f7c4cb0121029e857134122939a57279b02312e296a02bcf0cf876ddc541bd372450215dbeacffffffff022d582100000000001976a914204eba44ff159723acf4157e8b1caa78ac89d51a88ace8030000000000001976a9146abde18b8116b285b0e25f46a05331ecb0261f6b88ac00000000","txid":"d710798ade62074f02d283424f0bc5504b3516a0a40374525e6b98772ef7900d","version":1,"time":1540994304,"locktime":0,"vin":[{"txid":"3ba17b0e1af0417fd939d82fe5ee1be4981092873dbde6c6cc8a987fa007a498","vout":0,"scriptSig":{"asm":"3045022100a4812d2e45f518d5997ab997bdfb093e7b3f3c8c48290b91a89704231ed4be5502205a6b76429db265e2380b96f7ecad1cee973325099f284188639e85bac1f7c4cb01 029e857134122939a57279b02312e296a02bcf0cf876ddc541bd372450215dbeac","hex":"483045022100a4812d2e45f518d5997ab997bdfb093e7b3f3c8c48290b91a89704231ed4be5502205a6b76429db265e2380b96f7ecad1cee973325099f284188639e85bac1f7c4cb0121029e857134122939a57279b02312e296a02bcf0cf876ddc541bd372450215dbeac"},"sequence":4294967295}],"vout":[{"value":0.02185261,"n":0,"scriptPubKey":{"asm":"OP_DUP OP_HASH160 204eba44ff159723acf4157e8b1caa78ac89d51a OP_EQUALVERIFY OP_CHECKSIG","reqSigs":1,"type":"pubkeyhash","addresses":["p8VQ8wAgBGH2hxeABa1h1aZb7MJNgZHTuL"]}},{"value":0.00001,"n":1,"scriptPubKey":{"asm":"OP_DUP OP_HASH160 6abde18b8116b285b0e25f46a05331ecb0261f6b OP_EQUALVERIFY OP_CHECKSIG","reqSigs":1,"type":"pubkeyhash","addresses":["pFGyJCrSMRPesg6iKVSMYZ6qESBiQdVvMK"]}}],"blockhash":"c417675154adbf9b66a3e024260d87025473ce43f1a08959215bd0ed0cdf3a9b","confirmations":143,"blocktime":1540994304}