{"hex":"01000000d453e05b012becf86e4ca1f0cfe4ec343206fd0276443fd08b12fb2ee6b3c7f7fd3939d8cd000000006b483045022100d9d0b8ea2e03ad64f412e519e46efb9bc804e620ee68ac9688e997b3182d7d0a02207e954fb5fac1428a6bfd701309967bb99a416e225951619d6d00eb92f3dbd716012103a9e5d67c30d6bde2b82f717abeefc4d8b7e34a68ed0cff78824387bfbcffca31ffffffff027bb84300000000001976a914ad738013d11f13f9ce601d15a106c24e3d6e82ce88ac93631900000000001976a914e678da6141a7b59a8b5d82dadea09732757d4e2488ac00000000","txid":"6fc25dc31ecfc9ce0ea5ca4300b88a48c3f0d40e399b6d5852ed0ce03f2bf6f6","version":1,"time":1541428192,"locktime":0,"vin":[{"txid":"cdd83939fdf7c7b3e62efb128bd03f447602fd063234ece4cff0a14c6ef8ec2b","vout":0,"scriptSig":{"asm":"3045022100d9d0b8ea2e03ad64f412e519e46efb9bc804e620ee68ac9688e997b3182d7d0a02207e954fb5fac1428a6bfd701309967bb99a416e225951619d6d00eb92f3dbd71601 03a9e5d67c30d6bde2b82f717abeefc4d8b7e34a68ed0cff78824387bfbcffca31","hex":"483045022100d9d0b8ea2e03ad64f412e519e46efb9bc804e620ee68ac9688e997b3182d7d0a02207e954fb5fac1428a6bfd701309967bb99a416e225951619d6d00eb92f3dbd716012103a9e5d67c30d6bde2b82f717abeefc4d8b7e34a68ed0cff78824387bfbcffca31"},"sequence":4294967295}],"vout":[{"value":0.04438139,"n":0,"scriptPubKey":{"asm":"OP_DUP OP_HASH160 ad738013d11f13f9ce601d15a106c24e3d6e82ce OP_EQUALVERIFY OP_CHECKSIG","reqSigs":1,"type":"pubkeyhash","addresses":["pMMhTzbksUkdbDEqRSmz8U3DtRcvJsttPB"]}},{"value":0.01663891,"n":1,"scriptPubKey":{"asm":"OP_DUP OP_HASH160 e678da6141a7b59a8b5d82dadea09732757d4e24 OP_EQUALVERIFY OP_CHECKSIG","reqSigs":1,"type":"pubkeyhash","addresses":["pSZCPqsXjLUeEre8J8MisYKi2Kab6snmzp"]}}],"blockhash":"71f1d830b11637fb323503f1856dc1e504c7f73e47f771904c9df2b232f07f85","confirmations":38,"blocktime":1541428192}