{"hex":"01000000e053e05b01f7a265077c849f5562a23a437d50be317a8a02c45fa16c6f6f52bc6a124b0ddb0100000049483045022100b4f84a86736946a4005240336980f319d5fbad19d861b3fb22ace194e0ae0efe0220756320cc76d6384af5c9614fbdcb10379ef1b26ca714318c2997b3557fb569e101ffffffff0400000000000000000000a2941a1d000000232103f98fe2632fab54e64af25b30cb1601b07259379f488db5c93b4adbd6b962f5b9acfaa2941a1d000000232103f98fe2632fab54e64af25b30cb1601b07259379f488db5c93b4adbd6b962f5b9ac85050000000000001976a91466429c93e46136b2db3fe752c257b3dba5e7649c88ac00000000","txid":"e17adafdb6afb76b4fca168f7a1aff0cff6d5a7eb25060b4c991a49b702e7153","version":1,"time":1541428192,"locktime":0,"vin":[{"txid":"db0d4b126abc526f6f6ca15fc4028a7a31be507d433aa262559f847c0765a2f7","vout":1,"scriptSig":{"asm":"3045022100b4f84a86736946a4005240336980f319d5fbad19d861b3fb22ace194e0ae0efe0220756320cc76d6384af5c9614fbdcb10379ef1b26ca714318c2997b3557fb569e101","hex":"483045022100b4f84a86736946a4005240336980f319d5fbad19d861b3fb22ace194e0ae0efe0220756320cc76d6384af5c9614fbdcb10379ef1b26ca714318c2997b3557fb569e101"},"sequence":4294967295}],"vout":[{"value":0,"n":0,"scriptPubKey":{"asm":"","type":"nonstandard"}},{"value":1250,"n":1,"scriptPubKey":{"asm":"03f98fe2632fab54e64af25b30cb1601b07259379f488db5c93b4adbd6b962f5b9 OP_CHECKSIG","reqSigs":1,"type":"pubkey","addresses":["p7snoofvhm9cmcDcAmpbzCVHFFEt2fdccj"]}},{"value":1250.0000025,"n":2,"scriptPubKey":{"asm":"03f98fe2632fab54e64af25b30cb1601b07259379f488db5c93b4adbd6b962f5b9 OP_CHECKSIG","reqSigs":1,"type":"pubkey","addresses":["p7snoofvhm9cmcDcAmpbzCVHFFEt2fdccj"]}},{"value":0.00001413,"n":3,"scriptPubKey":{"asm":"OP_DUP OP_HASH160 66429c93e46136b2db3fe752c257b3dba5e7649c OP_EQUALVERIFY OP_CHECKSIG","reqSigs":1,"type":"pubkeyhash","addresses":["pEsGvXfg7BMJ91FueYCRJrpJCEzDnhWNzu"]}}],"blockhash":"71f1d830b11637fb323503f1856dc1e504c7f73e47f771904c9df2b232f07f85","confirmations":38,"blocktime":1541428192}