{"hex":"010000004ca1c25b010000000000000000000000000000000000000000000000000000000000000000ffffffff0401360105ffffffff0100000000000000001976a914536b0438a2a3378b1c507b0106e3297b9818714288ac00000000","txid":"35d40c056cdcb78d4bcff885fd12efaf00ca340f827e324be763875ab0859838","version":1,"time":1539481951,"locktime":0,"vin":[{"coinbase":"01360105","sequence":4294967295}],"vout":[{"value":0,"n":0,"scriptPubKey":{"asm":"OP_DUP OP_HASH160 536b0438a2a3378b1c507b0106e3297b98187142 OP_EQUALVERIFY OP_CHECKSIG","reqSigs":1,"type":"pubkeyhash","addresses":["pD9eVGEec3T3Q9r9PXCkwPFrD9drnDGXNo"]}}],"blockhash":"000008aac57973886c787d18f055b81f4bd6f0096ca9146124a36c096c5e8794","confirmations":391,"blocktime":1539481951}