{"hex":"010000001a4ed75b06b36a67cd92a9578b26e768f17e4591ab2a34fc50642b1025afc75e98817c8d3c010000006b48304502210099c0e515333e5e6a1733d9fce77408c93c7708593bf351bd3e21c73469b1503102201ea47fbfaf963be613f8d56c0b4dca3139915cd8d35d63c66d0769e0bd7ddad90121020003587122967c4b41decbb57b2cc570df77946c550c4522386f79c794d9f60fffffffff5215e591a1a7878e33af0e2c95dd6223ea900541b40d4ba19fb34469c63910f9010000006a47304402200603f10a9c9c5abd3a11948ca0c37047f05c30b1877a90b3a6ae7bbaef5c4a8b02205b0886800f072aa74d8748d0a598dac72379cb977a8232a5d103e8933a7884f8012103be960773ec823702cdf1c2a5ad5da6b9566a4decd853f2c1f46a0d2830bceabdffffffff7867dfceb90a072ebb479991d2f25a0db7b06b909678f8fb816dd4dab72ee48a000000006b483045022100eef07a24292b76c32fa5a415a8b6db2a2e1d0e0d8696f8398b5f5304e62c402e0220225352c28e04ecce4c01117b5ed6f54dff7a59a52199937730fa0c86b5184bf10121030a5b9f5f2da5461228cf8946cc402e0423dcf344b13b5bd17d54080135088c4bffffffff7867dfceb90a072ebb479991d2f25a0db7b06b909678f8fb816dd4dab72ee48a010000006a47304402203190d76754a15f41288f12336210ae471f416117f418be6eb6cf6d45119b881102202bf3652ffde30d320fd3d6c0ff8e32c4cd1fcb501beaa284bc6c04d7a3a2d79a012103b062e4517d0759e29336b53f8a3b8a1242490268c1410bebf09201459bd989f9ffffffff75ea5dec4b00568d8d3ef38484e7aca6b3b7c725ee6506e1919e1a14c36a589f010000006b483045022100b37448c41536d756626e6854b2f846ed14457607df0c2098a6d344ec59b2ca330220378a815bf9ea64bbf8e11d5cb465b0f472bae2039705473bfb9e8a8a4b6e166701210246db8cde215f026b9dddb6c86f92da94776c3b7fabe0629defabdb89ae2ba950ffffffff22ae0a779964cec5096b742ea4f13edd6d7e772730eb84e4ecd97a5bfe5d3363010000006a473044022025c405ae2332bc78747de73daa549fd2b8f733cf82624e3a232624ab193583f90220427e2910af4c8ddce5e858b64094129e9ca4fc5381bba3b685897bfe87b265f301210246db8cde215f026b9dddb6c86f92da94776c3b7fabe0629defabdb89ae2ba950ffffffff02ff441e00000000001976a91465fe17d744156c7dcf0dac3bdb52f0fdfd90341b88acc7584663000000001976a91475dcbe7c0465e8d49fc2e927ec2499f2e800e31588ac00000000","txid":"378e29da877d3b1e921bc091c1a8cd9bc9c735d30e7ad821ef5114d3a00802d0","version":1,"time":1540836896,"locktime":0,"vin":[{"txid":"3c8d7c81985ec7af25102b6450fc342aab91457ef168e7268b57a992cd676ab3","vout":1,"scriptSig":{"asm":"304502210099c0e515333e5e6a1733d9fce77408c93c7708593bf351bd3e21c73469b1503102201ea47fbfaf963be613f8d56c0b4dca3139915cd8d35d63c66d0769e0bd7ddad901 020003587122967c4b41decbb57b2cc570df77946c550c4522386f79c794d9f60f","hex":"48304502210099c0e515333e5e6a1733d9fce77408c93c7708593bf351bd3e21c73469b1503102201ea47fbfaf963be613f8d56c0b4dca3139915cd8d35d63c66d0769e0bd7ddad90121020003587122967c4b41decbb57b2cc570df77946c550c4522386f79c794d9f60f"},"sequence":4294967295},{"txid":"f91039c66944b39fa14b0db4410590ea2362dd952c0eaf338e87a7a191e51552","vout":1,"scriptSig":{"asm":"304402200603f10a9c9c5abd3a11948ca0c37047f05c30b1877a90b3a6ae7bbaef5c4a8b02205b0886800f072aa74d8748d0a598dac72379cb977a8232a5d103e8933a7884f801 03be960773ec823702cdf1c2a5ad5da6b9566a4decd853f2c1f46a0d2830bceabd","hex":"47304402200603f10a9c9c5abd3a11948ca0c37047f05c30b1877a90b3a6ae7bbaef5c4a8b02205b0886800f072aa74d8748d0a598dac72379cb977a8232a5d103e8933a7884f8012103be960773ec823702cdf1c2a5ad5da6b9566a4decd853f2c1f46a0d2830bceabd"},"sequence":4294967295},{"txid":"8ae42eb7dad46d81fbf87896906bb0b70d5af2d2919947bb2e070ab9cedf6778","vout":0,"scriptSig":{"asm":"3045022100eef07a24292b76c32fa5a415a8b6db2a2e1d0e0d8696f8398b5f5304e62c402e0220225352c28e04ecce4c01117b5ed6f54dff7a59a52199937730fa0c86b5184bf101 030a5b9f5f2da5461228cf8946cc402e0423dcf344b13b5bd17d54080135088c4b","hex":"483045022100eef07a24292b76c32fa5a415a8b6db2a2e1d0e0d8696f8398b5f5304e62c402e0220225352c28e04ecce4c01117b5ed6f54dff7a59a52199937730fa0c86b5184bf10121030a5b9f5f2da5461228cf8946cc402e0423dcf344b13b5bd17d54080135088c4b"},"sequence":4294967295},{"txid":"8ae42eb7dad46d81fbf87896906bb0b70d5af2d2919947bb2e070ab9cedf6778","vout":1,"scriptSig":{"asm":"304402203190d76754a15f41288f12336210ae471f416117f418be6eb6cf6d45119b881102202bf3652ffde30d320fd3d6c0ff8e32c4cd1fcb501beaa284bc6c04d7a3a2d79a01 03b062e4517d0759e29336b53f8a3b8a1242490268c1410bebf09201459bd989f9","hex":"47304402203190d76754a15f41288f12336210ae471f416117f418be6eb6cf6d45119b881102202bf3652ffde30d320fd3d6c0ff8e32c4cd1fcb501beaa284bc6c04d7a3a2d79a012103b062e4517d0759e29336b53f8a3b8a1242490268c1410bebf09201459bd989f9"},"sequence":4294967295},{"txid":"9f586ac3141a9e91e10665ee25c7b7b3a6ace78484f33e8d8d56004bec5dea75","vout":1,"scriptSig":{"asm":"3045022100b37448c41536d756626e6854b2f846ed14457607df0c2098a6d344ec59b2ca330220378a815bf9ea64bbf8e11d5cb465b0f472bae2039705473bfb9e8a8a4b6e166701 0246db8cde215f026b9dddb6c86f92da94776c3b7fabe0629defabdb89ae2ba950","hex":"483045022100b37448c41536d756626e6854b2f846ed14457607df0c2098a6d344ec59b2ca330220378a815bf9ea64bbf8e11d5cb465b0f472bae2039705473bfb9e8a8a4b6e166701210246db8cde215f026b9dddb6c86f92da94776c3b7fabe0629defabdb89ae2ba950"},"sequence":4294967295},{"txid":"63335dfe5b7ad9ece484eb3027777e6ddd3ef1a42e746b09c5ce6499770aae22","vout":1,"scriptSig":{"asm":"3044022025c405ae2332bc78747de73daa549fd2b8f733cf82624e3a232624ab193583f90220427e2910af4c8ddce5e858b64094129e9ca4fc5381bba3b685897bfe87b265f301 0246db8cde215f026b9dddb6c86f92da94776c3b7fabe0629defabdb89ae2ba950","hex":"473044022025c405ae2332bc78747de73daa549fd2b8f733cf82624e3a232624ab193583f90220427e2910af4c8ddce5e858b64094129e9ca4fc5381bba3b685897bfe87b265f301210246db8cde215f026b9dddb6c86f92da94776c3b7fabe0629defabdb89ae2ba950"},"sequence":4294967295}],"vout":[{"value":0.01983743,"n":0,"scriptPubKey":{"asm":"OP_DUP OP_HASH160 65fe17d744156c7dcf0dac3bdb52f0fdfd90341b OP_EQUALVERIFY OP_CHECKSIG","reqSigs":1,"type":"pubkeyhash","addresses":["pEqrqnDpfZEsFLVuJogEnHH4pcnbYPRiBB"]}},{"value":16.65554631,"n":1,"scriptPubKey":{"asm":"OP_DUP OP_HASH160 75dcbe7c0465e8d49fc2e927ec2499f2e800e315 OP_EQUALVERIFY OP_CHECKSIG","reqSigs":1,"type":"pubkeyhash","addresses":["pGHmhiZ7PMhibhvwRwLrzMLyN51vy5efcq"]}}],"blockhash":"89cb0bbe5c709db9dfba14a2ce0541008b14cc21c03e7d1f9385449fcacc41a1","confirmations":188,"blocktime":1540836896}