{"hex":"01000000204ed75b010429398c3e9b72647a167f37d372d54c41da8e1bd1545ee5d65d57d9b1d47aa202000000494830450221009ca85036abdc214790ef1e845c475d5929fd291a5adae0c79f892fe2fa0770d702206c3205cf429f73379b649c427818ee74985246eafa198bef7783cef5fa65252b01ffffffff0300000000000000000039bbb4d1010000002321020b1cd26fc4b9f080aea1cf7b667efd5e8453f70429056589831fa7f63506ddbfac289a1500000000001976a914b9f3d781f7d99f65d068998a288759e0a638d31288ac00000000","txid":"fa70ad62f5c41f35f44ad1433a256a88063e5a4615118669c74eca9401be2fbe","version":1,"time":1540836896,"locktime":0,"vin":[{"txid":"a27ad4b1d9575dd6e55e54d11b8eda414cd572d3377f167a64729b3e8c392904","vout":2,"scriptSig":{"asm":"30450221009ca85036abdc214790ef1e845c475d5929fd291a5adae0c79f892fe2fa0770d702206c3205cf429f73379b649c427818ee74985246eafa198bef7783cef5fa65252b01","hex":"4830450221009ca85036abdc214790ef1e845c475d5929fd291a5adae0c79f892fe2fa0770d702206c3205cf429f73379b649c427818ee74985246eafa198bef7783cef5fa65252b01"},"sequence":4294967295}],"vout":[{"value":0,"n":0,"scriptPubKey":{"asm":"","type":"nonstandard"}},{"value":78.13249849,"n":1,"scriptPubKey":{"asm":"020b1cd26fc4b9f080aea1cf7b667efd5e8453f70429056589831fa7f63506ddbf OP_CHECKSIG","reqSigs":1,"type":"pubkey","addresses":["pECTDpfW4nW8hYte3f3F9ZQxwgWmBwmcYL"]}},{"value":0.0141572,"n":2,"scriptPubKey":{"asm":"OP_DUP OP_HASH160 b9f3d781f7d99f65d068998a288759e0a638d312 OP_EQUALVERIFY OP_CHECKSIG","reqSigs":1,"type":"pubkeyhash","addresses":["pNVoKczQ6P92yawDZejgg9H8khMTR2Sf2j"]}}],"blockhash":"89cb0bbe5c709db9dfba14a2ce0541008b14cc21c03e7d1f9385449fcacc41a1","confirmations":188,"blocktime":1540836896}