{"hex":"0100000056a2c25b010000000000000000000000000000000000000000000000000000000000000000ffffffff0401540102ffffffff0100000000000000001976a914b126fb62a7d62fbde0fc7fe5d422a95fc429b53088ac00000000","txid":"7aa87960c66fa12d0460b980223955f7e885c2f56c66e6801c2db8b3e446675e","version":1,"time":1539482205,"locktime":0,"vin":[{"coinbase":"01540102","sequence":4294967295}],"vout":[{"value":0,"n":0,"scriptPubKey":{"asm":"OP_DUP OP_HASH160 b126fb62a7d62fbde0fc7fe5d422a95fc429b530 OP_EQUALVERIFY OP_CHECKSIG","reqSigs":1,"type":"pubkeyhash","addresses":["pMhGWB5XJos85TcXmJn3TUY1VeWTnMJ33k"]}}],"blockhash":"0000007398d03e1f6e46ed1fd2883b3e56d50d216cd96de54ddc6d076d799d5a","confirmations":361,"blocktime":1539482205}