{"hex":"01000000ae39db5b02b1fcfa0b2f6f325c25fe242f958f29e64712735464b3b8d2e943f77765d85025000000006a47304402201dba3b73b0e7d29f63489be74827a6669b0b20ee0104bb61430af332a9abe0050220726e3ea1e9e197dc2da58f6957240786500164e2abe1f43162857dd823d14b28012102823e110157ecf4db0dffad9ceca6d239c1e1501daccf5e42ebb1dd964666d5c6fffffffff5dd15115a350ff71c6bdeec4d065ebb15fef933c5d70d6c6263386dd82130a0010000006b483045022100b4cd9044deb70dff94f0528b734c3e4bf1bbea7383dadb928332b0b3bd39bcd302200c4c969603f5c27e2ed29ea27cad743135db9d8ec1f28a11f53e74b0b8f5f71801210273137adcb4ef4534084f17875cf732ad91b6230878bc5dbc9de24a332f296cfdffffffff02e43a1000000000001976a9144443f41838571063ec1f08af28f963df44a34a2888ac007a3f00000000001976a914b7b7cc37448e1bd9471ca1cf7d255c08c9dfcf3088ac00000000","txid":"159bf6fd5d1b612de5be1bf6e1a0635f0ccb2f33e1c7db64980c67e74397ff38","version":1,"time":1541093824,"locktime":0,"vin":[{"txid":"2550d86577f743e9d2b8b36454731247e6298f952f24fe255c326f2f0bfafcb1","vout":0,"scriptSig":{"asm":"304402201dba3b73b0e7d29f63489be74827a6669b0b20ee0104bb61430af332a9abe0050220726e3ea1e9e197dc2da58f6957240786500164e2abe1f43162857dd823d14b2801 02823e110157ecf4db0dffad9ceca6d239c1e1501daccf5e42ebb1dd964666d5c6","hex":"47304402201dba3b73b0e7d29f63489be74827a6669b0b20ee0104bb61430af332a9abe0050220726e3ea1e9e197dc2da58f6957240786500164e2abe1f43162857dd823d14b28012102823e110157ecf4db0dffad9ceca6d239c1e1501daccf5e42ebb1dd964666d5c6"},"sequence":4294967295},{"txid":"a03021d86d3863626c0dd7c533f9fe15bb5e064decde6b1cf70f355a1115ddf5","vout":1,"scriptSig":{"asm":"3045022100b4cd9044deb70dff94f0528b734c3e4bf1bbea7383dadb928332b0b3bd39bcd302200c4c969603f5c27e2ed29ea27cad743135db9d8ec1f28a11f53e74b0b8f5f71801 0273137adcb4ef4534084f17875cf732ad91b6230878bc5dbc9de24a332f296cfd","hex":"483045022100b4cd9044deb70dff94f0528b734c3e4bf1bbea7383dadb928332b0b3bd39bcd302200c4c969603f5c27e2ed29ea27cad743135db9d8ec1f28a11f53e74b0b8f5f71801210273137adcb4ef4534084f17875cf732ad91b6230878bc5dbc9de24a332f296cfd"},"sequence":4294967295}],"vout":[{"value":0.01063652,"n":0,"scriptPubKey":{"asm":"OP_DUP OP_HASH160 4443f41838571063ec1f08af28f963df44a34a28 OP_EQUALVERIFY OP_CHECKSIG","reqSigs":1,"type":"pubkeyhash","addresses":["pBmXZExxnZpxEFpigojk1iaWt5uoWb698f"]}},{"value":0.0416,"n":1,"scriptPubKey":{"asm":"OP_DUP OP_HASH160 b7b7cc37448e1bd9471ca1cf7d255c08c9dfcf30 OP_EQUALVERIFY OP_CHECKSIG","reqSigs":1,"type":"pubkeyhash","addresses":["pNHz3JLzX6Y8iG8P3L1m8JHLAHTB59kqSC"]}}],"blockhash":"31db56028ddbb7831f10defd8574dcf0624941ee4ecbc3c316d3b5c1f2b2918c","confirmations":89,"blocktime":1541093824}