{"hex":"01000000c039db5b014168c61d38124fda105710817bc3b50e536e5a180047d5d7d402a876e9b7d1c60100000049483045022100a6fae3bafb2ccf1d871488b4fb897e8a2e9391aa7350676f77c783f1dc4a442b022069bd799c9945ae871ea71030d54826c1a96cc286eb42982fe7d0954c504aa9b801ffffffff0300000000000000000070aba1d1010000002321020b1cd26fc4b9f080aea1cf7b667efd5e8453f70429056589831fa7f63506ddbfacd00d0000000000001976a9145e1d99381eb53300f76a3cc6299ce81c71d0c2f788ac00000000","txid":"fbf96c2f49c1cbcacb584118790a718a59026ea61d4c4e4655c312c6631cdacb","version":1,"time":1541093824,"locktime":0,"vin":[{"txid":"c6d1b7e976a802d4d7d54700185a6e530eb5c37b81105710da4f12381dc66841","vout":1,"scriptSig":{"asm":"3045022100a6fae3bafb2ccf1d871488b4fb897e8a2e9391aa7350676f77c783f1dc4a442b022069bd799c9945ae871ea71030d54826c1a96cc286eb42982fe7d0954c504aa9b801","hex":"483045022100a6fae3bafb2ccf1d871488b4fb897e8a2e9391aa7350676f77c783f1dc4a442b022069bd799c9945ae871ea71030d54826c1a96cc286eb42982fe7d0954c504aa9b801"},"sequence":4294967295}],"vout":[{"value":0,"n":0,"scriptPubKey":{"asm":"","type":"nonstandard"}},{"value":78.12000624,"n":1,"scriptPubKey":{"asm":"020b1cd26fc4b9f080aea1cf7b667efd5e8453f70429056589831fa7f63506ddbf OP_CHECKSIG","reqSigs":1,"type":"pubkey","addresses":["pECTDpfW4nW8hYte3f3F9ZQxwgWmBwmcYL"]}},{"value":0.00003536,"n":2,"scriptPubKey":{"asm":"OP_DUP OP_HASH160 5e1d99381eb53300f76a3cc6299ce81c71d0c2f7 OP_EQUALVERIFY OP_CHECKSIG","reqSigs":1,"type":"pubkeyhash","addresses":["pE8DBH6VheNWCoBfLHY8coXmUqVnKuU1Z8"]}}],"blockhash":"31db56028ddbb7831f10defd8574dcf0624941ee4ecbc3c316d3b5c1f2b2918c","confirmations":89,"blocktime":1541093824}