{"hex":"01000000396cdc5b037ccecf9c1d09d05be9ce6981b44a46f840b229bc81f047ef0eefe3ed6c0db8c8000000006b483045022100ecedfb72bf3c1444779df2ca7d4f0bb1beca55c11a5f38021de22af3bb99c8390220620abc7cc1523d9c4f70a7040475cc30505745988b2d4d2c582b2a672af7dc1001210378553a72093ff1816612e48e0e4c5bcd18db467d9653ef581e563014d83ff6b3ffffffff7ccecf9c1d09d05be9ce6981b44a46f840b229bc81f047ef0eefe3ed6c0db8c8010000006b483045022100f4d2678f52fbd10a85d66796f49be0af54802508733eab3404b19888613d0df10220558fa03f196197dc74095a6428dc44486cd9c59c0a70b655e64b6a1017b01217012102f5ef475c03e7d429174fe7df937d5d831e7367bd7c9a61acbde7b8df24673f3bffffffff5e0329004a653209ebccb290e0c004b21c8266792532ee7cd5c43f93fd5796eb000000006b48304502210092635edcdb920bc88deb3f0be1844e3c5eec4a5911bc6a6780a2d7efad033385022048f1d7122915eff30d681b36819d661970bb7e9666a1aea666a9e1fa6f5ca5da0121023b053d642ac0312fe82594c2a6ac0a653372ed1e3d8303c513b08d63f39ac8c3ffffffff0239501d00000000001976a914ef2135a16c6a36a2ac397008b681777e34c6613f88ac2980e400000000001976a91484a180ced4952219d9b1272dbe7fbff8d6046d8788ac00000000","txid":"0204794fe6f2c686e817a7468aee19287cae7c8db7b34a1087b47157fde6c44a","version":1,"time":1541172288,"locktime":0,"vin":[{"txid":"c8b80d6cede3ef0eef47f081bc29b240f8464ab48169cee95bd0091d9ccfce7c","vout":0,"scriptSig":{"asm":"3045022100ecedfb72bf3c1444779df2ca7d4f0bb1beca55c11a5f38021de22af3bb99c8390220620abc7cc1523d9c4f70a7040475cc30505745988b2d4d2c582b2a672af7dc1001 0378553a72093ff1816612e48e0e4c5bcd18db467d9653ef581e563014d83ff6b3","hex":"483045022100ecedfb72bf3c1444779df2ca7d4f0bb1beca55c11a5f38021de22af3bb99c8390220620abc7cc1523d9c4f70a7040475cc30505745988b2d4d2c582b2a672af7dc1001210378553a72093ff1816612e48e0e4c5bcd18db467d9653ef581e563014d83ff6b3"},"sequence":4294967295},{"txid":"c8b80d6cede3ef0eef47f081bc29b240f8464ab48169cee95bd0091d9ccfce7c","vout":1,"scriptSig":{"asm":"3045022100f4d2678f52fbd10a85d66796f49be0af54802508733eab3404b19888613d0df10220558fa03f196197dc74095a6428dc44486cd9c59c0a70b655e64b6a1017b0121701 02f5ef475c03e7d429174fe7df937d5d831e7367bd7c9a61acbde7b8df24673f3b","hex":"483045022100f4d2678f52fbd10a85d66796f49be0af54802508733eab3404b19888613d0df10220558fa03f196197dc74095a6428dc44486cd9c59c0a70b655e64b6a1017b01217012102f5ef475c03e7d429174fe7df937d5d831e7367bd7c9a61acbde7b8df24673f3b"},"sequence":4294967295},{"txid":"eb9657fd933fc4d57cee32257966821cb204c0e090b2cceb0932654a0029035e","vout":0,"scriptSig":{"asm":"304502210092635edcdb920bc88deb3f0be1844e3c5eec4a5911bc6a6780a2d7efad033385022048f1d7122915eff30d681b36819d661970bb7e9666a1aea666a9e1fa6f5ca5da01 023b053d642ac0312fe82594c2a6ac0a653372ed1e3d8303c513b08d63f39ac8c3","hex":"48304502210092635edcdb920bc88deb3f0be1844e3c5eec4a5911bc6a6780a2d7efad033385022048f1d7122915eff30d681b36819d661970bb7e9666a1aea666a9e1fa6f5ca5da0121023b053d642ac0312fe82594c2a6ac0a653372ed1e3d8303c513b08d63f39ac8c3"},"sequence":4294967295}],"vout":[{"value":0.01921081,"n":0,"scriptPubKey":{"asm":"OP_DUP OP_HASH160 ef2135a16c6a36a2ac397008b681777e34c6613f OP_EQUALVERIFY OP_CHECKSIG","reqSigs":1,"type":"pubkeyhash","addresses":["pTLyUzKiDGZwV6L7JG7QBESQhft1xX57oY"]}},{"value":0.14975017,"n":1,"scriptPubKey":{"asm":"OP_DUP OP_HASH160 84a180ced4952219d9b1272dbe7fbff8d6046d87 OP_EQUALVERIFY OP_CHECKSIG","reqSigs":1,"type":"pubkeyhash","addresses":["pHdrsTpLRrDJpV8x4B1JV771RmnejFmtDT"]}}],"blockhash":"22b90da15a28a088a61cedf2748f62b18f1b749732933facd8d17773193cec51","confirmations":74,"blocktime":1541172288}