{"hex":"01000000406cdc5b0130a416a6fce1d233e3c2f62f895eeeac0d0562bb2115fe3d5a04bf37f31a8485010000006a4730440220049342512fee9cfa7e224194e5349c3f3154fa3ec22beb638d28939feb3f236e02205e15fb8bd2484da3cf8100a84335fd0c556442cf5f1208bec68c2c3f5c3992f5012102fb3326e08108c9299e15e672caf2ed6f2a9885c7dc3fd8f2d139048597315283ffffffff04000000000000000000004429353a000000232102fb3326e08108c9299e15e672caf2ed6f2a9885c7dc3fd8f2d139048597315283acc74c29353a000000232102fb3326e08108c9299e15e672caf2ed6f2a9885c7dc3fd8f2d139048597315283acb8310000000000001976a91413cd926daa0b2e1422cabca27e3cbc3aebbee60e88ac00000000","txid":"f68605abf8ba0e5551d01c7584def8c62bc2b7e3f2dea4a332c3192353b6f20d","version":1,"time":1541172288,"locktime":0,"vin":[{"txid":"85841af337bf045a3dfe1521bb62050dacee5e892ff6c2e333d2e1fca616a430","vout":1,"scriptSig":{"asm":"30440220049342512fee9cfa7e224194e5349c3f3154fa3ec22beb638d28939feb3f236e02205e15fb8bd2484da3cf8100a84335fd0c556442cf5f1208bec68c2c3f5c3992f501 02fb3326e08108c9299e15e672caf2ed6f2a9885c7dc3fd8f2d139048597315283","hex":"4730440220049342512fee9cfa7e224194e5349c3f3154fa3ec22beb638d28939feb3f236e02205e15fb8bd2484da3cf8100a84335fd0c556442cf5f1208bec68c2c3f5c3992f5012102fb3326e08108c9299e15e672caf2ed6f2a9885c7dc3fd8f2d139048597315283"},"sequence":4294967295}],"vout":[{"value":0,"n":0,"scriptPubKey":{"asm":"","type":"nonstandard"}},{"value":2500,"n":1,"scriptPubKey":{"asm":"02fb3326e08108c9299e15e672caf2ed6f2a9885c7dc3fd8f2d139048597315283 OP_CHECKSIG","reqSigs":1,"type":"pubkey","addresses":["pTziuAqinUjYFVy6Da9fmDBWUTdPjXTj23"]}},{"value":2500.00002247,"n":2,"scriptPubKey":{"asm":"02fb3326e08108c9299e15e672caf2ed6f2a9885c7dc3fd8f2d139048597315283 OP_CHECKSIG","reqSigs":1,"type":"pubkey","addresses":["pTziuAqinUjYFVy6Da9fmDBWUTdPjXTj23"]}},{"value":0.00012728,"n":3,"scriptPubKey":{"asm":"OP_DUP OP_HASH160 13cd926daa0b2e1422cabca27e3cbc3aebbee60e OP_EQUALVERIFY OP_CHECKSIG","reqSigs":1,"type":"pubkeyhash","addresses":["p7MHJk1NCoVwVPjx7mEGWrpeSkLSYSZyuV"]}}],"blockhash":"22b90da15a28a088a61cedf2748f62b18f1b749732933facd8d17773193cec51","confirmations":74,"blocktime":1541172288}